{
	"contracts/DTicket.sol": {
		"DTicket": {
			"abi": [
				{
					"inputs": [
						{
							"internalType": "address",
							"name": "initialOwner",
							"type": "address"
						}
					],
					"stateMutability": "nonpayable",
					"type": "constructor"
				},
				{
					"inputs": [
						{
							"internalType": "address",
							"name": "sender",
							"type": "address"
						},
						{
							"internalType": "uint256",
							"name": "balance",
							"type": "uint256"
						},
						{
							"internalType": "uint256",
							"name": "needed",
							"type": "uint256"
						},
						{
							"internalType": "uint256",
							"name": "tokenId",
							"type": "uint256"
						}
					],
					"name": "ERC1155InsufficientBalance",
					"type": "error"
				},
				{
					"inputs": [
						{
							"internalType": "address",
							"name": "approver",
							"type": "address"
						}
					],
					"name": "ERC1155InvalidApprover",
					"type": "error"
				},
				{
					"inputs": [
						{
							"internalType": "uint256",
							"name": "idsLength",
							"type": "uint256"
						},
						{
							"internalType": "uint256",
							"name": "valuesLength",
							"type": "uint256"
						}
					],
					"name": "ERC1155InvalidArrayLength",
					"type": "error"
				},
				{
					"inputs": [
						{
							"internalType": "address",
							"name": "operator",
							"type": "address"
						}
					],
					"name": "ERC1155InvalidOperator",
					"type": "error"
				},
				{
					"inputs": [
						{
							"internalType": "address",
							"name": "receiver",
							"type": "address"
						}
					],
					"name": "ERC1155InvalidReceiver",
					"type": "error"
				},
				{
					"inputs": [
						{
							"internalType": "address",
							"name": "sender",
							"type": "address"
						}
					],
					"name": "ERC1155InvalidSender",
					"type": "error"
				},
				{
					"inputs": [
						{
							"internalType": "address",
							"name": "operator",
							"type": "address"
						},
						{
							"internalType": "address",
							"name": "owner",
							"type": "address"
						}
					],
					"name": "ERC1155MissingApprovalForAll",
					"type": "error"
				},
				{
					"inputs": [
						{
							"internalType": "address",
							"name": "owner",
							"type": "address"
						}
					],
					"name": "OwnableInvalidOwner",
					"type": "error"
				},
				{
					"inputs": [
						{
							"internalType": "address",
							"name": "account",
							"type": "address"
						}
					],
					"name": "OwnableUnauthorizedAccount",
					"type": "error"
				},
				{
					"anonymous": false,
					"inputs": [
						{
							"indexed": true,
							"internalType": "address",
							"name": "account",
							"type": "address"
						},
						{
							"indexed": true,
							"internalType": "address",
							"name": "operator",
							"type": "address"
						},
						{
							"indexed": false,
							"internalType": "bool",
							"name": "approved",
							"type": "bool"
						}
					],
					"name": "ApprovalForAll",
					"type": "event"
				},
				{
					"anonymous": false,
					"inputs": [
						{
							"indexed": true,
							"internalType": "address",
							"name": "previousOwner",
							"type": "address"
						},
						{
							"indexed": true,
							"internalType": "address",
							"name": "newOwner",
							"type": "address"
						}
					],
					"name": "OwnershipTransferred",
					"type": "event"
				},
				{
					"anonymous": false,
					"inputs": [
						{
							"indexed": true,
							"internalType": "address",
							"name": "operator",
							"type": "address"
						},
						{
							"indexed": true,
							"internalType": "address",
							"name": "from",
							"type": "address"
						},
						{
							"indexed": true,
							"internalType": "address",
							"name": "to",
							"type": "address"
						},
						{
							"indexed": false,
							"internalType": "uint256[]",
							"name": "ids",
							"type": "uint256[]"
						},
						{
							"indexed": false,
							"internalType": "uint256[]",
							"name": "values",
							"type": "uint256[]"
						}
					],
					"name": "TransferBatch",
					"type": "event"
				},
				{
					"anonymous": false,
					"inputs": [
						{
							"indexed": true,
							"internalType": "address",
							"name": "operator",
							"type": "address"
						},
						{
							"indexed": true,
							"internalType": "address",
							"name": "from",
							"type": "address"
						},
						{
							"indexed": true,
							"internalType": "address",
							"name": "to",
							"type": "address"
						},
						{
							"indexed": false,
							"internalType": "uint256",
							"name": "id",
							"type": "uint256"
						},
						{
							"indexed": false,
							"internalType": "uint256",
							"name": "value",
							"type": "uint256"
						}
					],
					"name": "TransferSingle",
					"type": "event"
				},
				{
					"anonymous": false,
					"inputs": [
						{
							"indexed": false,
							"internalType": "string",
							"name": "value",
							"type": "string"
						},
						{
							"indexed": true,
							"internalType": "uint256",
							"name": "id",
							"type": "uint256"
						}
					],
					"name": "URI",
					"type": "event"
				},
				{
					"inputs": [
						{
							"internalType": "address",
							"name": "account",
							"type": "address"
						},
						{
							"internalType": "uint256",
							"name": "id",
							"type": "uint256"
						}
					],
					"name": "balanceOf",
					"outputs": [
						{
							"internalType": "uint256",
							"name": "",
							"type": "uint256"
						}
					],
					"stateMutability": "view",
					"type": "function"
				},
				{
					"inputs": [
						{
							"internalType": "address[]",
							"name": "accounts",
							"type": "address[]"
						},
						{
							"internalType": "uint256[]",
							"name": "ids",
							"type": "uint256[]"
						}
					],
					"name": "balanceOfBatch",
					"outputs": [
						{
							"internalType": "uint256[]",
							"name": "",
							"type": "uint256[]"
						}
					],
					"stateMutability": "view",
					"type": "function"
				},
				{
					"inputs": [
						{
							"internalType": "address",
							"name": "account",
							"type": "address"
						},
						{
							"internalType": "address",
							"name": "operator",
							"type": "address"
						}
					],
					"name": "isApprovedForAll",
					"outputs": [
						{
							"internalType": "bool",
							"name": "",
							"type": "bool"
						}
					],
					"stateMutability": "view",
					"type": "function"
				},
				{
					"inputs": [
						{
							"internalType": "address",
							"name": "account",
							"type": "address"
						},
						{
							"internalType": "uint256",
							"name": "id",
							"type": "uint256"
						},
						{
							"internalType": "uint256",
							"name": "amount",
							"type": "uint256"
						},
						{
							"internalType": "bytes",
							"name": "data",
							"type": "bytes"
						}
					],
					"name": "mint",
					"outputs": [],
					"stateMutability": "nonpayable",
					"type": "function"
				},
				{
					"inputs": [
						{
							"internalType": "address",
							"name": "to",
							"type": "address"
						},
						{
							"internalType": "uint256[]",
							"name": "ids",
							"type": "uint256[]"
						},
						{
							"internalType": "uint256[]",
							"name": "amounts",
							"type": "uint256[]"
						},
						{
							"internalType": "bytes",
							"name": "data",
							"type": "bytes"
						}
					],
					"name": "mintBatch",
					"outputs": [],
					"stateMutability": "nonpayable",
					"type": "function"
				},
				{
					"inputs": [],
					"name": "owner",
					"outputs": [
						{
							"internalType": "address",
							"name": "",
							"type": "address"
						}
					],
					"stateMutability": "view",
					"type": "function"
				},
				{
					"inputs": [],
					"name": "renounceOwnership",
					"outputs": [],
					"stateMutability": "nonpayable",
					"type": "function"
				},
				{
					"inputs": [
						{
							"internalType": "address",
							"name": "from",
							"type": "address"
						},
						{
							"internalType": "address",
							"name": "to",
							"type": "address"
						},
						{
							"internalType": "uint256[]",
							"name": "ids",
							"type": "uint256[]"
						},
						{
							"internalType": "uint256[]",
							"name": "values",
							"type": "uint256[]"
						},
						{
							"internalType": "bytes",
							"name": "data",
							"type": "bytes"
						}
					],
					"name": "safeBatchTransferFrom",
					"outputs": [],
					"stateMutability": "nonpayable",
					"type": "function"
				},
				{
					"inputs": [
						{
							"internalType": "address",
							"name": "from",
							"type": "address"
						},
						{
							"internalType": "address",
							"name": "to",
							"type": "address"
						},
						{
							"internalType": "uint256",
							"name": "id",
							"type": "uint256"
						},
						{
							"internalType": "uint256",
							"name": "value",
							"type": "uint256"
						},
						{
							"internalType": "bytes",
							"name": "data",
							"type": "bytes"
						}
					],
					"name": "safeTransferFrom",
					"outputs": [],
					"stateMutability": "nonpayable",
					"type": "function"
				},
				{
					"inputs": [
						{
							"internalType": "address",
							"name": "operator",
							"type": "address"
						},
						{
							"internalType": "bool",
							"name": "approved",
							"type": "bool"
						}
					],
					"name": "setApprovalForAll",
					"outputs": [],
					"stateMutability": "nonpayable",
					"type": "function"
				},
				{
					"inputs": [
						{
							"internalType": "string",
							"name": "newuri",
							"type": "string"
						}
					],
					"name": "setURI",
					"outputs": [],
					"stateMutability": "nonpayable",
					"type": "function"
				},
				{
					"inputs": [
						{
							"internalType": "bytes4",
							"name": "interfaceId",
							"type": "bytes4"
						}
					],
					"name": "supportsInterface",
					"outputs": [
						{
							"internalType": "bool",
							"name": "",
							"type": "bool"
						}
					],
					"stateMutability": "view",
					"type": "function"
				},
				{
					"inputs": [
						{
							"internalType": "address",
							"name": "newOwner",
							"type": "address"
						}
					],
					"name": "transferOwnership",
					"outputs": [],
					"stateMutability": "nonpayable",
					"type": "function"
				},
				{
					"inputs": [
						{
							"internalType": "uint256",
							"name": "_tokenid",
							"type": "uint256"
						}
					],
					"name": "uri",
					"outputs": [
						{
							"internalType": "string",
							"name": "",
							"type": "string"
						}
					],
					"stateMutability": "pure",
					"type": "function"
				}
			],
			"devdoc": {
				"errors": {
					"ERC1155InsufficientBalance(address,uint256,uint256,uint256)": [
						{
							"details": "Indicates an error related to the current `balance` of a `sender`. Used in transfers.",
							"params": {
								"balance": "Current balance for the interacting account.",
								"needed": "Minimum amount required to perform a transfer.",
								"sender": "Address whose tokens are being transferred.",
								"tokenId": "Identifier number of a token."
							}
						}
					],
					"ERC1155InvalidApprover(address)": [
						{
							"details": "Indicates a failure with the `approver` of a token to be approved. Used in approvals.",
							"params": {
								"approver": "Address initiating an approval operation."
							}
						}
					],
					"ERC1155InvalidArrayLength(uint256,uint256)": [
						{
							"details": "Indicates an array length mismatch between ids and values in a safeBatchTransferFrom operation. Used in batch transfers.",
							"params": {
								"idsLength": "Length of the array of token identifiers",
								"valuesLength": "Length of the array of token amounts"
							}
						}
					],
					"ERC1155InvalidOperator(address)": [
						{
							"details": "Indicates a failure with the `operator` to be approved. Used in approvals.",
							"params": {
								"operator": "Address that may be allowed to operate on tokens without being their owner."
							}
						}
					],
					"ERC1155InvalidReceiver(address)": [
						{
							"details": "Indicates a failure with the token `receiver`. Used in transfers.",
							"params": {
								"receiver": "Address to which tokens are being transferred."
							}
						}
					],
					"ERC1155InvalidSender(address)": [
						{
							"details": "Indicates a failure with the token `sender`. Used in transfers.",
							"params": {
								"sender": "Address whose tokens are being transferred."
							}
						}
					],
					"ERC1155MissingApprovalForAll(address,address)": [
						{
							"details": "Indicates a failure with the `operator`’s approval. Used in transfers.",
							"params": {
								"operator": "Address that may be allowed to operate on tokens without being their owner.",
								"owner": "Address of the current owner of a token."
							}
						}
					],
					"OwnableInvalidOwner(address)": [
						{
							"details": "The owner is not a valid owner account. (eg. `address(0)`)"
						}
					],
					"OwnableUnauthorizedAccount(address)": [
						{
							"details": "The caller account is not authorized to perform an operation."
						}
					]
				},
				"events": {
					"ApprovalForAll(address,address,bool)": {
						"details": "Emitted when `account` grants or revokes permission to `operator` to transfer their tokens, according to `approved`."
					},
					"TransferBatch(address,address,address,uint256[],uint256[])": {
						"details": "Equivalent to multiple {TransferSingle} events, where `operator`, `from` and `to` are the same for all transfers."
					},
					"TransferSingle(address,address,address,uint256,uint256)": {
						"details": "Emitted when `value` amount of tokens of type `id` are transferred from `from` to `to` by `operator`."
					},
					"URI(string,uint256)": {
						"details": "Emitted when the URI for token type `id` changes to `value`, if it is a non-programmatic URI. If an {URI} event was emitted for `id`, the standard https://eips.ethereum.org/EIPS/eip-1155#metadata-extensions[guarantees] that `value` will equal the value returned by {IERC1155MetadataURI-uri}."
					}
				},
				"kind": "dev",
				"methods": {
					"balanceOf(address,uint256)": {
						"details": "See {IERC1155-balanceOf}."
					},
					"balanceOfBatch(address[],uint256[])": {
						"details": "See {IERC1155-balanceOfBatch}. Requirements: - `accounts` and `ids` must have the same length."
					},
					"isApprovedForAll(address,address)": {
						"details": "See {IERC1155-isApprovedForAll}."
					},
					"owner()": {
						"details": "Returns the address of the current owner."
					},
					"renounceOwnership()": {
						"details": "Leaves the contract without owner. It will not be possible to call `onlyOwner` functions. Can only be called by the current owner. NOTE: Renouncing ownership will leave the contract without an owner, thereby disabling any functionality that is only available to the owner."
					},
					"safeBatchTransferFrom(address,address,uint256[],uint256[],bytes)": {
						"details": "See {IERC1155-safeBatchTransferFrom}."
					},
					"safeTransferFrom(address,address,uint256,uint256,bytes)": {
						"details": "See {IERC1155-safeTransferFrom}."
					},
					"setApprovalForAll(address,bool)": {
						"details": "See {IERC1155-setApprovalForAll}."
					},
					"supportsInterface(bytes4)": {
						"details": "See {IERC165-supportsInterface}."
					},
					"transferOwnership(address)": {
						"details": "Transfers ownership of the contract to a new account (`newOwner`). Can only be called by the current owner."
					}
				},
				"version": 1
			},
			"evm": {
				"assembly": "    /* \"contracts/DTicket.sol\":224:1197  contract DTicket is ERC1155, Ownable {... */\n  mstore(0x40, 0x80)\n    /* \"contracts/DTicket.sol\":267:434  constructor(address initialOwner)... */\n  callvalue\n  dup1\n  iszero\n  tag_1\n  jumpi\n  0x00\n  dup1\n  revert\ntag_1:\n  pop\n  mload(0x40)\n  sub(codesize, bytecodeSize)\n  dup1\n  bytecodeSize\n  dup4\n  codecopy\n  dup2\n  dup2\n  add\n  0x40\n  mstore\n  dup2\n  add\n  swap1\n  tag_2\n  swap2\n  swap1\n  tag_3\n  jump\t// in\ntag_2:\n    /* \"contracts/DTicket.sol\":414:426  initialOwner */\n  dup1\n    /* \"@openzeppelin/contracts/token/ERC1155/ERC1155.sol\":1251:1313  constructor(string memory uri_) {... */\n  mload(0x40)\n  dup1\n  0x80\n  add\n  0x40\n  mstore\n  dup1\n  0x4d\n  dup2\n  mstore\n  0x20\n  add\n  data_7bcbeb124377cd28745d938ec5493fb70bd6d0c678eb2c6508e5bde55cc08de6\n  0x4d\n  swap2\n  codecopy\n    /* \"@openzeppelin/contracts/token/ERC1155/ERC1155.sol\":1293:1306  _setURI(uri_) */\n  tag_8\n    /* \"@openzeppelin/contracts/token/ERC1155/ERC1155.sol\":1301:1305  uri_ */\n  dup2\n    /* \"@openzeppelin/contracts/token/ERC1155/ERC1155.sol\":1293:1300  _setURI */\n  shl(0x20, tag_9)\n    /* \"@openzeppelin/contracts/token/ERC1155/ERC1155.sol\":1293:1306  _setURI(uri_) */\n  0x20\n  shr\n  jump\t// in\ntag_8:\n    /* \"@openzeppelin/contracts/token/ERC1155/ERC1155.sol\":1251:1313  constructor(string memory uri_) {... */\n  pop\n    /* \"@openzeppelin/contracts/access/Ownable.sol\":1297:1298  0 */\n  0x00\n    /* \"@openzeppelin/contracts/access/Ownable.sol\":1273:1299  initialOwner == address(0) */\n  0xffffffffffffffffffffffffffffffffffffffff\n  and\n    /* \"@openzeppelin/contracts/access/Ownable.sol\":1273:1285  initialOwner */\n  dup2\n    /* \"@openzeppelin/contracts/access/Ownable.sol\":1273:1299  initialOwner == address(0) */\n  0xffffffffffffffffffffffffffffffffffffffff\n  and\n  sub\n    /* \"@openzeppelin/contracts/access/Ownable.sol\":1269:1364  if (initialOwner == address(0)) {... */\n  tag_11\n  jumpi\n    /* \"@openzeppelin/contracts/access/Ownable.sol\":1350:1351  0 */\n  0x00\n    /* \"@openzeppelin/contracts/access/Ownable.sol\":1322:1353  OwnableInvalidOwner(address(0)) */\n  mload(0x40)\n  0x1e4fbdf700000000000000000000000000000000000000000000000000000000\n  dup2\n  mstore\n  0x04\n  add\n  tag_12\n  swap2\n  swap1\n  tag_13\n  jump\t// in\ntag_12:\n  mload(0x40)\n  dup1\n  swap2\n  sub\n  swap1\n  revert\n    /* \"@openzeppelin/contracts/access/Ownable.sol\":1269:1364  if (initialOwner == address(0)) {... */\ntag_11:\n    /* \"@openzeppelin/contracts/access/Ownable.sol\":1373:1405  _transferOwnership(initialOwner) */\n  tag_14\n    /* \"@openzeppelin/contracts/access/Ownable.sol\":1392:1404  initialOwner */\n  dup2\n    /* \"@openzeppelin/contracts/access/Ownable.sol\":1373:1391  _transferOwnership */\n  shl(0x20, tag_15)\n    /* \"@openzeppelin/contracts/access/Ownable.sol\":1373:1405  _transferOwnership(initialOwner) */\n  0x20\n  shr\n  jump\t// in\ntag_14:\n    /* \"@openzeppelin/contracts/access/Ownable.sol\":1225:1412  constructor(address initialOwner) {... */\n  pop\n    /* \"contracts/DTicket.sol\":267:434  constructor(address initialOwner)... */\n  pop\n    /* \"contracts/DTicket.sol\":224:1197  contract DTicket is ERC1155, Ownable {... */\n  jump(tag_17)\n    /* \"@openzeppelin/contracts/token/ERC1155/ERC1155.sol\":10282:10368  function _setURI(string memory newuri) internal virtual {... */\ntag_9:\n    /* \"@openzeppelin/contracts/token/ERC1155/ERC1155.sol\":10355:10361  newuri */\n  dup1\n    /* \"@openzeppelin/contracts/token/ERC1155/ERC1155.sol\":10348:10352  _uri */\n  0x02\n    /* \"@openzeppelin/contracts/token/ERC1155/ERC1155.sol\":10348:10361  _uri = newuri */\n  swap1\n  dup2\n  tag_19\n  swap2\n  swap1\n  tag_20\n  jump\t// in\ntag_19:\n  pop\n    /* \"@openzeppelin/contracts/token/ERC1155/ERC1155.sol\":10282:10368  function _setURI(string memory newuri) internal virtual {... */\n  pop\n  jump\t// out\n    /* \"@openzeppelin/contracts/access/Ownable.sol\":2912:3099  function _transferOwnership(address newOwner) internal virtual {... */\ntag_15:\n    /* \"@openzeppelin/contracts/access/Ownable.sol\":2985:3001  address oldOwner */\n  0x00\n    /* \"@openzeppelin/contracts/access/Ownable.sol\":3004:3010  _owner */\n  0x03\n  0x00\n  swap1\n  sload\n  swap1\n  0x0100\n  exp\n  swap1\n  div\n  0xffffffffffffffffffffffffffffffffffffffff\n  and\n    /* \"@openzeppelin/contracts/access/Ownable.sol\":2985:3010  address oldOwner = _owner */\n  swap1\n  pop\n    /* \"@openzeppelin/contracts/access/Ownable.sol\":3029:3037  newOwner */\n  dup2\n    /* \"@openzeppelin/contracts/access/Ownable.sol\":3020:3026  _owner */\n  0x03\n  0x00\n    /* \"@openzeppelin/contracts/access/Ownable.sol\":3020:3037  _owner = newOwner */\n  0x0100\n  exp\n  dup2\n  sload\n  dup2\n  0xffffffffffffffffffffffffffffffffffffffff\n  mul\n  not\n  and\n  swap1\n  dup4\n  0xffffffffffffffffffffffffffffffffffffffff\n  and\n  mul\n  or\n  swap1\n  sstore\n  pop\n    /* \"@openzeppelin/contracts/access/Ownable.sol\":3083:3091  newOwner */\n  dup2\n    /* \"@openzeppelin/contracts/access/Ownable.sol\":3052:3092  OwnershipTransferred(oldOwner, newOwner) */\n  0xffffffffffffffffffffffffffffffffffffffff\n  and\n    /* \"@openzeppelin/contracts/access/Ownable.sol\":3073:3081  oldOwner */\n  dup2\n    /* \"@openzeppelin/contracts/access/Ownable.sol\":3052:3092  OwnershipTransferred(oldOwner, newOwner) */\n  0xffffffffffffffffffffffffffffffffffffffff\n  and\n  0x8be0079c531659141344cd1fd0a4f28419497f9722a3daafe3b4186f6b6457e0\n  mload(0x40)\n  mload(0x40)\n  dup1\n  swap2\n  sub\n  swap1\n  log3\n    /* \"@openzeppelin/contracts/access/Ownable.sol\":2975:3099  {... */\n  pop\n    /* \"@openzeppelin/contracts/access/Ownable.sol\":2912:3099  function _transferOwnership(address newOwner) internal virtual {... */\n  pop\n  jump\t// out\n    /* \"#utility.yul\":88:205   */\ntag_23:\n    /* \"#utility.yul\":197:198   */\n  0x00\n    /* \"#utility.yul\":194:195   */\n  dup1\n    /* \"#utility.yul\":187:199   */\n  revert\n    /* \"#utility.yul\":334:460   */\ntag_25:\n    /* \"#utility.yul\":371:378   */\n  0x00\n    /* \"#utility.yul\":411:453   */\n  0xffffffffffffffffffffffffffffffffffffffff\n    /* \"#utility.yul\":404:409   */\n  dup3\n    /* \"#utility.yul\":400:454   */\n  and\n    /* \"#utility.yul\":389:454   */\n  swap1\n  pop\n    /* \"#utility.yul\":334:460   */\n  swap2\n  swap1\n  pop\n  jump\t// out\n    /* \"#utility.yul\":466:562   */\ntag_26:\n    /* \"#utility.yul\":503:510   */\n  0x00\n    /* \"#utility.yul\":532:556   */\n  tag_56\n    /* \"#utility.yul\":550:555   */\n  dup3\n    /* \"#utility.yul\":532:556   */\n  tag_25\n  jump\t// in\ntag_56:\n    /* \"#utility.yul\":521:556   */\n  swap1\n  pop\n    /* \"#utility.yul\":466:562   */\n  swap2\n  swap1\n  pop\n  jump\t// out\n    /* \"#utility.yul\":568:690   */\ntag_27:\n    /* \"#utility.yul\":641:665   */\n  tag_58\n    /* \"#utility.yul\":659:664   */\n  dup2\n    /* \"#utility.yul\":641:665   */\n  tag_26\n  jump\t// in\ntag_58:\n    /* \"#utility.yul\":634:639   */\n  dup2\n    /* \"#utility.yul\":631:666   */\n  eq\n    /* \"#utility.yul\":621:684   */\n  tag_59\n  jumpi\n    /* \"#utility.yul\":680:681   */\n  0x00\n    /* \"#utility.yul\":677:678   */\n  dup1\n    /* \"#utility.yul\":670:682   */\n  revert\n    /* \"#utility.yul\":621:684   */\ntag_59:\n    /* \"#utility.yul\":568:690   */\n  pop\n  jump\t// out\n    /* \"#utility.yul\":696:839   */\ntag_28:\n    /* \"#utility.yul\":753:758   */\n  0x00\n    /* \"#utility.yul\":784:790   */\n  dup2\n    /* \"#utility.yul\":778:791   */\n  mload\n    /* \"#utility.yul\":769:791   */\n  swap1\n  pop\n    /* \"#utility.yul\":800:833   */\n  tag_61\n    /* \"#utility.yul\":827:832   */\n  dup2\n    /* \"#utility.yul\":800:833   */\n  tag_27\n  jump\t// in\ntag_61:\n    /* \"#utility.yul\":696:839   */\n  swap3\n  swap2\n  pop\n  pop\n  jump\t// out\n    /* \"#utility.yul\":845:1196   */\ntag_3:\n    /* \"#utility.yul\":915:921   */\n  0x00\n    /* \"#utility.yul\":964:966   */\n  0x20\n    /* \"#utility.yul\":952:961   */\n  dup3\n    /* \"#utility.yul\":943:950   */\n  dup5\n    /* \"#utility.yul\":939:962   */\n  sub\n    /* \"#utility.yul\":935:967   */\n  slt\n    /* \"#utility.yul\":932:1051   */\n  iszero\n  tag_63\n  jumpi\n    /* \"#utility.yul\":970:1049   */\n  tag_64\n  tag_23\n  jump\t// in\ntag_64:\n    /* \"#utility.yul\":932:1051   */\ntag_63:\n    /* \"#utility.yul\":1090:1091   */\n  0x00\n    /* \"#utility.yul\":1115:1179   */\n  tag_65\n    /* \"#utility.yul\":1171:1178   */\n  dup5\n    /* \"#utility.yul\":1162:1168   */\n  dup3\n    /* \"#utility.yul\":1151:1160   */\n  dup6\n    /* \"#utility.yul\":1147:1169   */\n  add\n    /* \"#utility.yul\":1115:1179   */\n  tag_28\n  jump\t// in\ntag_65:\n    /* \"#utility.yul\":1105:1179   */\n  swap2\n  pop\n    /* \"#utility.yul\":1061:1189   */\n  pop\n    /* \"#utility.yul\":845:1196   */\n  swap3\n  swap2\n  pop\n  pop\n  jump\t// out\n    /* \"#utility.yul\":1202:1320   */\ntag_29:\n    /* \"#utility.yul\":1289:1313   */\n  tag_67\n    /* \"#utility.yul\":1307:1312   */\n  dup2\n    /* \"#utility.yul\":1289:1313   */\n  tag_26\n  jump\t// in\ntag_67:\n    /* \"#utility.yul\":1284:1287   */\n  dup3\n    /* \"#utility.yul\":1277:1314   */\n  mstore\n    /* \"#utility.yul\":1202:1320   */\n  pop\n  pop\n  jump\t// out\n    /* \"#utility.yul\":1326:1548   */\ntag_13:\n    /* \"#utility.yul\":1419:1423   */\n  0x00\n    /* \"#utility.yul\":1457:1459   */\n  0x20\n    /* \"#utility.yul\":1446:1455   */\n  dup3\n    /* \"#utility.yul\":1442:1460   */\n  add\n    /* \"#utility.yul\":1434:1460   */\n  swap1\n  pop\n    /* \"#utility.yul\":1470:1541   */\n  tag_69\n    /* \"#utility.yul\":1538:1539   */\n  0x00\n    /* \"#utility.yul\":1527:1536   */\n  dup4\n    /* \"#utility.yul\":1523:1540   */\n  add\n    /* \"#utility.yul\":1514:1520   */\n  dup5\n    /* \"#utility.yul\":1470:1541   */\n  tag_29\n  jump\t// in\ntag_69:\n    /* \"#utility.yul\":1326:1548   */\n  swap3\n  swap2\n  pop\n  pop\n  jump\t// out\n    /* \"#utility.yul\":1554:1653   */\ntag_30:\n    /* \"#utility.yul\":1606:1612   */\n  0x00\n    /* \"#utility.yul\":1640:1645   */\n  dup2\n    /* \"#utility.yul\":1634:1646   */\n  mload\n    /* \"#utility.yul\":1624:1646   */\n  swap1\n  pop\n    /* \"#utility.yul\":1554:1653   */\n  swap2\n  swap1\n  pop\n  jump\t// out\n    /* \"#utility.yul\":1659:1839   */\ntag_31:\n    /* \"#utility.yul\":1707:1784   */\n  0x4e487b7100000000000000000000000000000000000000000000000000000000\n    /* \"#utility.yul\":1704:1705   */\n  0x00\n    /* \"#utility.yul\":1697:1785   */\n  mstore\n    /* \"#utility.yul\":1804:1808   */\n  0x41\n    /* \"#utility.yul\":1801:1802   */\n  0x04\n    /* \"#utility.yul\":1794:1809   */\n  mstore\n    /* \"#utility.yul\":1828:1832   */\n  0x24\n    /* \"#utility.yul\":1825:1826   */\n  0x00\n    /* \"#utility.yul\":1818:1833   */\n  revert\n    /* \"#utility.yul\":1845:2025   */\ntag_32:\n    /* \"#utility.yul\":1893:1970   */\n  0x4e487b7100000000000000000000000000000000000000000000000000000000\n    /* \"#utility.yul\":1890:1891   */\n  0x00\n    /* \"#utility.yul\":1883:1971   */\n  mstore\n    /* \"#utility.yul\":1990:1994   */\n  0x22\n    /* \"#utility.yul\":1987:1988   */\n  0x04\n    /* \"#utility.yul\":1980:1995   */\n  mstore\n    /* \"#utility.yul\":2014:2018   */\n  0x24\n    /* \"#utility.yul\":2011:2012   */\n  0x00\n    /* \"#utility.yul\":2004:2019   */\n  revert\n    /* \"#utility.yul\":2031:2351   */\ntag_33:\n    /* \"#utility.yul\":2075:2081   */\n  0x00\n    /* \"#utility.yul\":2112:2113   */\n  0x02\n    /* \"#utility.yul\":2106:2110   */\n  dup3\n    /* \"#utility.yul\":2102:2114   */\n  div\n    /* \"#utility.yul\":2092:2114   */\n  swap1\n  pop\n    /* \"#utility.yul\":2159:2160   */\n  0x01\n    /* \"#utility.yul\":2153:2157   */\n  dup3\n    /* \"#utility.yul\":2149:2161   */\n  and\n    /* \"#utility.yul\":2180:2198   */\n  dup1\n    /* \"#utility.yul\":2170:2251   */\n  tag_74\n  jumpi\n    /* \"#utility.yul\":2236:2240   */\n  0x7f\n    /* \"#utility.yul\":2228:2234   */\n  dup3\n    /* \"#utility.yul\":2224:2241   */\n  and\n    /* \"#utility.yul\":2214:2241   */\n  swap2\n  pop\n    /* \"#utility.yul\":2170:2251   */\ntag_74:\n    /* \"#utility.yul\":2298:2300   */\n  0x20\n    /* \"#utility.yul\":2290:2296   */\n  dup3\n    /* \"#utility.yul\":2287:2301   */\n  lt\n    /* \"#utility.yul\":2267:2285   */\n  dup2\n    /* \"#utility.yul\":2264:2302   */\n  sub\n    /* \"#utility.yul\":2261:2345   */\n  tag_75\n  jumpi\n    /* \"#utility.yul\":2317:2335   */\n  tag_76\n  tag_32\n  jump\t// in\ntag_76:\n    /* \"#utility.yul\":2261:2345   */\ntag_75:\n    /* \"#utility.yul\":2082:2351   */\n  pop\n    /* \"#utility.yul\":2031:2351   */\n  swap2\n  swap1\n  pop\n  jump\t// out\n    /* \"#utility.yul\":2357:2498   */\ntag_34:\n    /* \"#utility.yul\":2406:2410   */\n  0x00\n    /* \"#utility.yul\":2429:2432   */\n  dup2\n    /* \"#utility.yul\":2421:2432   */\n  swap1\n  pop\n    /* \"#utility.yul\":2452:2455   */\n  dup2\n    /* \"#utility.yul\":2449:2450   */\n  0x00\n    /* \"#utility.yul\":2442:2456   */\n  mstore\n    /* \"#utility.yul\":2486:2490   */\n  0x20\n    /* \"#utility.yul\":2483:2484   */\n  0x00\n    /* \"#utility.yul\":2473:2491   */\n  keccak256\n    /* \"#utility.yul\":2465:2491   */\n  swap1\n  pop\n    /* \"#utility.yul\":2357:2498   */\n  swap2\n  swap1\n  pop\n  jump\t// out\n    /* \"#utility.yul\":2504:2597   */\ntag_35:\n    /* \"#utility.yul\":2541:2547   */\n  0x00\n    /* \"#utility.yul\":2588:2590   */\n  0x20\n    /* \"#utility.yul\":2583:2585   */\n  0x1f\n    /* \"#utility.yul\":2576:2581   */\n  dup4\n    /* \"#utility.yul\":2572:2586   */\n  add\n    /* \"#utility.yul\":2568:2591   */\n  div\n    /* \"#utility.yul\":2558:2591   */\n  swap1\n  pop\n    /* \"#utility.yul\":2504:2597   */\n  swap2\n  swap1\n  pop\n  jump\t// out\n    /* \"#utility.yul\":2603:2710   */\ntag_36:\n    /* \"#utility.yul\":2647:2655   */\n  0x00\n    /* \"#utility.yul\":2697:2702   */\n  dup3\n    /* \"#utility.yul\":2691:2695   */\n  dup3\n    /* \"#utility.yul\":2687:2703   */\n  shl\n    /* \"#utility.yul\":2666:2703   */\n  swap1\n  pop\n    /* \"#utility.yul\":2603:2710   */\n  swap3\n  swap2\n  pop\n  pop\n  jump\t// out\n    /* \"#utility.yul\":2716:3109   */\ntag_37:\n    /* \"#utility.yul\":2785:2791   */\n  0x00\n    /* \"#utility.yul\":2835:2836   */\n  0x08\n    /* \"#utility.yul\":2823:2833   */\n  dup4\n    /* \"#utility.yul\":2819:2837   */\n  mul\n    /* \"#utility.yul\":2858:2955   */\n  tag_81\n    /* \"#utility.yul\":2888:2954   */\n  0xffffffffffffffffffffffffffffffffffffffffffffffffffffffffffffffff\n    /* \"#utility.yul\":2877:2886   */\n  dup3\n    /* \"#utility.yul\":2858:2955   */\n  tag_36\n  jump\t// in\ntag_81:\n    /* \"#utility.yul\":2976:3015   */\n  tag_82\n    /* \"#utility.yul\":3006:3014   */\n  dup7\n    /* \"#utility.yul\":2995:3004   */\n  dup4\n    /* \"#utility.yul\":2976:3015   */\n  tag_36\n  jump\t// in\ntag_82:\n    /* \"#utility.yul\":2964:3015   */\n  swap6\n  pop\n    /* \"#utility.yul\":3048:3052   */\n  dup1\n    /* \"#utility.yul\":3044:3053   */\n  not\n    /* \"#utility.yul\":3037:3042   */\n  dup5\n    /* \"#utility.yul\":3033:3054   */\n  and\n    /* \"#utility.yul\":3024:3054   */\n  swap4\n  pop\n    /* \"#utility.yul\":3097:3101   */\n  dup1\n    /* \"#utility.yul\":3087:3095   */\n  dup7\n    /* \"#utility.yul\":3083:3102   */\n  and\n    /* \"#utility.yul\":3076:3081   */\n  dup5\n    /* \"#utility.yul\":3073:3103   */\n  or\n    /* \"#utility.yul\":3063:3103   */\n  swap3\n  pop\n    /* \"#utility.yul\":2792:3109   */\n  pop\n  pop\n    /* \"#utility.yul\":2716:3109   */\n  swap4\n  swap3\n  pop\n  pop\n  pop\n  jump\t// out\n    /* \"#utility.yul\":3115:3192   */\ntag_38:\n    /* \"#utility.yul\":3152:3159   */\n  0x00\n    /* \"#utility.yul\":3181:3186   */\n  dup2\n    /* \"#utility.yul\":3170:3186   */\n  swap1\n  pop\n    /* \"#utility.yul\":3115:3192   */\n  swap2\n  swap1\n  pop\n  jump\t// out\n    /* \"#utility.yul\":3198:3258   */\ntag_39:\n    /* \"#utility.yul\":3226:3229   */\n  0x00\n    /* \"#utility.yul\":3247:3252   */\n  dup2\n    /* \"#utility.yul\":3240:3252   */\n  swap1\n  pop\n    /* \"#utility.yul\":3198:3258   */\n  swap2\n  swap1\n  pop\n  jump\t// out\n    /* \"#utility.yul\":3264:3406   */\ntag_40:\n    /* \"#utility.yul\":3314:3323   */\n  0x00\n    /* \"#utility.yul\":3347:3400   */\n  tag_86\n    /* \"#utility.yul\":3365:3399   */\n  tag_87\n    /* \"#utility.yul\":3374:3398   */\n  tag_88\n    /* \"#utility.yul\":3392:3397   */\n  dup5\n    /* \"#utility.yul\":3374:3398   */\n  tag_38\n  jump\t// in\ntag_88:\n    /* \"#utility.yul\":3365:3399   */\n  tag_39\n  jump\t// in\ntag_87:\n    /* \"#utility.yul\":3347:3400   */\n  tag_38\n  jump\t// in\ntag_86:\n    /* \"#utility.yul\":3334:3400   */\n  swap1\n  pop\n    /* \"#utility.yul\":3264:3406   */\n  swap2\n  swap1\n  pop\n  jump\t// out\n    /* \"#utility.yul\":3412:3487   */\ntag_41:\n    /* \"#utility.yul\":3455:3458   */\n  0x00\n    /* \"#utility.yul\":3476:3481   */\n  dup2\n    /* \"#utility.yul\":3469:3481   */\n  swap1\n  pop\n    /* \"#utility.yul\":3412:3487   */\n  swap2\n  swap1\n  pop\n  jump\t// out\n    /* \"#utility.yul\":3493:3762   */\ntag_42:\n    /* \"#utility.yul\":3603:3642   */\n  tag_91\n    /* \"#utility.yul\":3634:3641   */\n  dup4\n    /* \"#utility.yul\":3603:3642   */\n  tag_40\n  jump\t// in\ntag_91:\n    /* \"#utility.yul\":3664:3755   */\n  tag_92\n    /* \"#utility.yul\":3713:3754   */\n  tag_93\n    /* \"#utility.yul\":3737:3753   */\n  dup3\n    /* \"#utility.yul\":3713:3754   */\n  tag_41\n  jump\t// in\ntag_93:\n    /* \"#utility.yul\":3705:3711   */\n  dup5\n    /* \"#utility.yul\":3698:3702   */\n  dup5\n    /* \"#utility.yul\":3692:3703   */\n  sload\n    /* \"#utility.yul\":3664:3755   */\n  tag_37\n  jump\t// in\ntag_92:\n    /* \"#utility.yul\":3658:3662   */\n  dup3\n    /* \"#utility.yul\":3651:3756   */\n  sstore\n    /* \"#utility.yul\":3569:3762   */\n  pop\n    /* \"#utility.yul\":3493:3762   */\n  pop\n  pop\n  pop\n  jump\t// out\n    /* \"#utility.yul\":3768:3841   */\ntag_43:\n    /* \"#utility.yul\":3813:3816   */\n  0x00\n    /* \"#utility.yul\":3768:3841   */\n  swap1\n  jump\t// out\n    /* \"#utility.yul\":3847:4036   */\ntag_44:\n    /* \"#utility.yul\":3924:3956   */\n  tag_96\n  tag_43\n  jump\t// in\ntag_96:\n    /* \"#utility.yul\":3965:4030   */\n  tag_97\n    /* \"#utility.yul\":4023:4029   */\n  dup2\n    /* \"#utility.yul\":4015:4021   */\n  dup5\n    /* \"#utility.yul\":4009:4013   */\n  dup5\n    /* \"#utility.yul\":3965:4030   */\n  tag_42\n  jump\t// in\ntag_97:\n    /* \"#utility.yul\":3900:4036   */\n  pop\n    /* \"#utility.yul\":3847:4036   */\n  pop\n  pop\n  jump\t// out\n    /* \"#utility.yul\":4042:4228   */\ntag_45:\n    /* \"#utility.yul\":4102:4222   */\ntag_99:\n    /* \"#utility.yul\":4119:4122   */\n  dup2\n    /* \"#utility.yul\":4112:4117   */\n  dup2\n    /* \"#utility.yul\":4109:4123   */\n  lt\n    /* \"#utility.yul\":4102:4222   */\n  iszero\n  tag_101\n  jumpi\n    /* \"#utility.yul\":4173:4212   */\n  tag_102\n    /* \"#utility.yul\":4210:4211   */\n  0x00\n    /* \"#utility.yul\":4203:4208   */\n  dup3\n    /* \"#utility.yul\":4173:4212   */\n  tag_44\n  jump\t// in\ntag_102:\n    /* \"#utility.yul\":4146:4147   */\n  0x01\n    /* \"#utility.yul\":4139:4144   */\n  dup2\n    /* \"#utility.yul\":4135:4148   */\n  add\n    /* \"#utility.yul\":4126:4148   */\n  swap1\n  pop\n    /* \"#utility.yul\":4102:4222   */\n  jump(tag_99)\ntag_101:\n    /* \"#utility.yul\":4042:4228   */\n  pop\n  pop\n  jump\t// out\n    /* \"#utility.yul\":4234:4777   */\ntag_46:\n    /* \"#utility.yul\":4335:4337   */\n  0x1f\n    /* \"#utility.yul\":4330:4333   */\n  dup3\n    /* \"#utility.yul\":4327:4338   */\n  gt\n    /* \"#utility.yul\":4324:4770   */\n  iszero\n  tag_104\n  jumpi\n    /* \"#utility.yul\":4369:4407   */\n  tag_105\n    /* \"#utility.yul\":4401:4406   */\n  dup2\n    /* \"#utility.yul\":4369:4407   */\n  tag_34\n  jump\t// in\ntag_105:\n    /* \"#utility.yul\":4453:4482   */\n  tag_106\n    /* \"#utility.yul\":4471:4481   */\n  dup5\n    /* \"#utility.yul\":4453:4482   */\n  tag_35\n  jump\t// in\ntag_106:\n    /* \"#utility.yul\":4443:4451   */\n  dup2\n    /* \"#utility.yul\":4439:4483   */\n  add\n    /* \"#utility.yul\":4636:4638   */\n  0x20\n    /* \"#utility.yul\":4624:4634   */\n  dup6\n    /* \"#utility.yul\":4621:4639   */\n  lt\n    /* \"#utility.yul\":4618:4667   */\n  iszero\n  tag_107\n  jumpi\n    /* \"#utility.yul\":4657:4665   */\n  dup2\n    /* \"#utility.yul\":4642:4665   */\n  swap1\n  pop\n    /* \"#utility.yul\":4618:4667   */\ntag_107:\n    /* \"#utility.yul\":4680:4760   */\n  tag_108\n    /* \"#utility.yul\":4736:4758   */\n  tag_109\n    /* \"#utility.yul\":4754:4757   */\n  dup6\n    /* \"#utility.yul\":4736:4758   */\n  tag_35\n  jump\t// in\ntag_109:\n    /* \"#utility.yul\":4726:4734   */\n  dup4\n    /* \"#utility.yul\":4722:4759   */\n  add\n    /* \"#utility.yul\":4709:4720   */\n  dup3\n    /* \"#utility.yul\":4680:4760   */\n  tag_45\n  jump\t// in\ntag_108:\n    /* \"#utility.yul\":4339:4770   */\n  pop\n  pop\n    /* \"#utility.yul\":4324:4770   */\ntag_104:\n    /* \"#utility.yul\":4234:4777   */\n  pop\n  pop\n  pop\n  jump\t// out\n    /* \"#utility.yul\":4783:4900   */\ntag_47:\n    /* \"#utility.yul\":4837:4845   */\n  0x00\n    /* \"#utility.yul\":4887:4892   */\n  dup3\n    /* \"#utility.yul\":4881:4885   */\n  dup3\n    /* \"#utility.yul\":4877:4893   */\n  shr\n    /* \"#utility.yul\":4856:4893   */\n  swap1\n  pop\n    /* \"#utility.yul\":4783:4900   */\n  swap3\n  swap2\n  pop\n  pop\n  jump\t// out\n    /* \"#utility.yul\":4906:5075   */\ntag_48:\n    /* \"#utility.yul\":4950:4956   */\n  0x00\n    /* \"#utility.yul\":4983:5034   */\n  tag_112\n    /* \"#utility.yul\":5031:5032   */\n  0x00\n    /* \"#utility.yul\":5027:5033   */\n  not\n    /* \"#utility.yul\":5019:5024   */\n  dup5\n    /* \"#utility.yul\":5016:5017   */\n  0x08\n    /* \"#utility.yul\":5012:5025   */\n  mul\n    /* \"#utility.yul\":4983:5034   */\n  tag_47\n  jump\t// in\ntag_112:\n    /* \"#utility.yul\":4979:5035   */\n  not\n    /* \"#utility.yul\":5064:5068   */\n  dup1\n    /* \"#utility.yul\":5058:5062   */\n  dup4\n    /* \"#utility.yul\":5054:5069   */\n  and\n    /* \"#utility.yul\":5044:5069   */\n  swap2\n  pop\n    /* \"#utility.yul\":4957:5075   */\n  pop\n    /* \"#utility.yul\":4906:5075   */\n  swap3\n  swap2\n  pop\n  pop\n  jump\t// out\n    /* \"#utility.yul\":5080:5375   */\ntag_49:\n    /* \"#utility.yul\":5156:5160   */\n  0x00\n    /* \"#utility.yul\":5302:5331   */\n  tag_114\n    /* \"#utility.yul\":5327:5330   */\n  dup4\n    /* \"#utility.yul\":5321:5325   */\n  dup4\n    /* \"#utility.yul\":5302:5331   */\n  tag_48\n  jump\t// in\ntag_114:\n    /* \"#utility.yul\":5294:5331   */\n  swap2\n  pop\n    /* \"#utility.yul\":5364:5367   */\n  dup3\n    /* \"#utility.yul\":5361:5362   */\n  0x02\n    /* \"#utility.yul\":5357:5368   */\n  mul\n    /* \"#utility.yul\":5351:5355   */\n  dup3\n    /* \"#utility.yul\":5348:5369   */\n  or\n    /* \"#utility.yul\":5340:5369   */\n  swap1\n  pop\n    /* \"#utility.yul\":5080:5375   */\n  swap3\n  swap2\n  pop\n  pop\n  jump\t// out\n    /* \"#utility.yul\":5380:6775   */\ntag_20:\n    /* \"#utility.yul\":5497:5534   */\n  tag_116\n    /* \"#utility.yul\":5530:5533   */\n  dup3\n    /* \"#utility.yul\":5497:5534   */\n  tag_30\n  jump\t// in\ntag_116:\n    /* \"#utility.yul\":5599:5617   */\n  0xffffffffffffffff\n    /* \"#utility.yul\":5591:5597   */\n  dup2\n    /* \"#utility.yul\":5588:5618   */\n  gt\n    /* \"#utility.yul\":5585:5641   */\n  iszero\n  tag_117\n  jumpi\n    /* \"#utility.yul\":5621:5639   */\n  tag_118\n  tag_31\n  jump\t// in\ntag_118:\n    /* \"#utility.yul\":5585:5641   */\ntag_117:\n    /* \"#utility.yul\":5665:5703   */\n  tag_119\n    /* \"#utility.yul\":5697:5701   */\n  dup3\n    /* \"#utility.yul\":5691:5702   */\n  sload\n    /* \"#utility.yul\":5665:5703   */\n  tag_33\n  jump\t// in\ntag_119:\n    /* \"#utility.yul\":5750:5817   */\n  tag_120\n    /* \"#utility.yul\":5810:5816   */\n  dup3\n    /* \"#utility.yul\":5802:5808   */\n  dup3\n    /* \"#utility.yul\":5796:5800   */\n  dup6\n    /* \"#utility.yul\":5750:5817   */\n  tag_46\n  jump\t// in\ntag_120:\n    /* \"#utility.yul\":5844:5845   */\n  0x00\n    /* \"#utility.yul\":5868:5872   */\n  0x20\n    /* \"#utility.yul\":5855:5872   */\n  swap1\n  pop\n    /* \"#utility.yul\":5900:5902   */\n  0x1f\n    /* \"#utility.yul\":5892:5898   */\n  dup4\n    /* \"#utility.yul\":5889:5903   */\n  gt\n    /* \"#utility.yul\":5917:5918   */\n  0x01\n    /* \"#utility.yul\":5912:6530   */\n  dup2\n  eq\n  tag_122\n  jumpi\n    /* \"#utility.yul\":6574:6575   */\n  0x00\n    /* \"#utility.yul\":6591:6597   */\n  dup5\n    /* \"#utility.yul\":6588:6665   */\n  iszero\n  tag_123\n  jumpi\n    /* \"#utility.yul\":6640:6649   */\n  dup3\n    /* \"#utility.yul\":6635:6638   */\n  dup8\n    /* \"#utility.yul\":6631:6650   */\n  add\n    /* \"#utility.yul\":6625:6651   */\n  mload\n    /* \"#utility.yul\":6616:6651   */\n  swap1\n  pop\n    /* \"#utility.yul\":6588:6665   */\ntag_123:\n    /* \"#utility.yul\":6691:6758   */\n  tag_124\n    /* \"#utility.yul\":6751:6757   */\n  dup6\n    /* \"#utility.yul\":6744:6749   */\n  dup3\n    /* \"#utility.yul\":6691:6758   */\n  tag_49\n  jump\t// in\ntag_124:\n    /* \"#utility.yul\":6685:6689   */\n  dup7\n    /* \"#utility.yul\":6678:6759   */\n  sstore\n    /* \"#utility.yul\":6547:6769   */\n  pop\n    /* \"#utility.yul\":5882:6769   */\n  jump(tag_121)\n    /* \"#utility.yul\":5912:6530   */\ntag_122:\n    /* \"#utility.yul\":5964:5968   */\n  0x1f\n    /* \"#utility.yul\":5960:5969   */\n  not\n    /* \"#utility.yul\":5952:5958   */\n  dup5\n    /* \"#utility.yul\":5948:5970   */\n  and\n    /* \"#utility.yul\":5998:6035   */\n  tag_125\n    /* \"#utility.yul\":6030:6034   */\n  dup7\n    /* \"#utility.yul\":5998:6035   */\n  tag_34\n  jump\t// in\ntag_125:\n    /* \"#utility.yul\":6057:6058   */\n  0x00\n    /* \"#utility.yul\":6071:6279   */\ntag_126:\n    /* \"#utility.yul\":6085:6092   */\n  dup3\n    /* \"#utility.yul\":6082:6083   */\n  dup2\n    /* \"#utility.yul\":6079:6093   */\n  lt\n    /* \"#utility.yul\":6071:6279   */\n  iszero\n  tag_128\n  jumpi\n    /* \"#utility.yul\":6164:6173   */\n  dup5\n    /* \"#utility.yul\":6159:6162   */\n  dup10\n    /* \"#utility.yul\":6155:6174   */\n  add\n    /* \"#utility.yul\":6149:6175   */\n  mload\n    /* \"#utility.yul\":6141:6147   */\n  dup3\n    /* \"#utility.yul\":6134:6176   */\n  sstore\n    /* \"#utility.yul\":6215:6216   */\n  0x01\n    /* \"#utility.yul\":6207:6213   */\n  dup3\n    /* \"#utility.yul\":6203:6217   */\n  add\n    /* \"#utility.yul\":6193:6217   */\n  swap2\n  pop\n    /* \"#utility.yul\":6262:6264   */\n  0x20\n    /* \"#utility.yul\":6251:6260   */\n  dup6\n    /* \"#utility.yul\":6247:6265   */\n  add\n    /* \"#utility.yul\":6234:6265   */\n  swap5\n  pop\n    /* \"#utility.yul\":6108:6112   */\n  0x20\n    /* \"#utility.yul\":6105:6106   */\n  dup2\n    /* \"#utility.yul\":6101:6113   */\n  add\n    /* \"#utility.yul\":6096:6113   */\n  swap1\n  pop\n    /* \"#utility.yul\":6071:6279   */\n  jump(tag_126)\ntag_128:\n    /* \"#utility.yul\":6307:6313   */\n  dup7\n    /* \"#utility.yul\":6298:6305   */\n  dup4\n    /* \"#utility.yul\":6295:6314   */\n  lt\n    /* \"#utility.yul\":6292:6471   */\n  iszero\n  tag_129\n  jumpi\n    /* \"#utility.yul\":6365:6374   */\n  dup5\n    /* \"#utility.yul\":6360:6363   */\n  dup10\n    /* \"#utility.yul\":6356:6375   */\n  add\n    /* \"#utility.yul\":6350:6376   */\n  mload\n    /* \"#utility.yul\":6408:6456   */\n  tag_130\n    /* \"#utility.yul\":6450:6454   */\n  0x1f\n    /* \"#utility.yul\":6442:6448   */\n  dup10\n    /* \"#utility.yul\":6438:6455   */\n  and\n    /* \"#utility.yul\":6427:6436   */\n  dup3\n    /* \"#utility.yul\":6408:6456   */\n  tag_48\n  jump\t// in\ntag_130:\n    /* \"#utility.yul\":6400:6406   */\n  dup4\n    /* \"#utility.yul\":6393:6457   */\n  sstore\n    /* \"#utility.yul\":6315:6471   */\n  pop\n    /* \"#utility.yul\":6292:6471   */\ntag_129:\n    /* \"#utility.yul\":6517:6518   */\n  0x01\n    /* \"#utility.yul\":6513:6514   */\n  0x02\n    /* \"#utility.yul\":6505:6511   */\n  dup9\n    /* \"#utility.yul\":6501:6515   */\n  mul\n    /* \"#utility.yul\":6497:6519   */\n  add\n    /* \"#utility.yul\":6491:6495   */\n  dup9\n    /* \"#utility.yul\":6484:6520   */\n  sstore\n    /* \"#utility.yul\":5919:6530   */\n  pop\n  pop\n  pop\n    /* \"#utility.yul\":5882:6769   */\ntag_121:\n  pop\n    /* \"#utility.yul\":5472:6775   */\n  pop\n  pop\n  pop\n    /* \"#utility.yul\":5380:6775   */\n  pop\n  pop\n  jump\t// out\n    /* \"contracts/DTicket.sol\":224:1197  contract DTicket is ERC1155, Ownable {... */\ntag_17:\n  dataSize(sub_0)\n  dup1\n  dataOffset(sub_0)\n  0x00\n  codecopy\n  0x00\n  return\nstop\ndata_7bcbeb124377cd28745d938ec5493fb70bd6d0c678eb2c6508e5bde55cc08de6 68747470733a2f2f697066732e696f2f697066732f516d5479734e6f58456f5874597a55617a5831663236625744553362503570676b55774c756577475a65414e4c582f7b69647d2e6a736f6e\n\nsub_0: assembly {\n        /* \"contracts/DTicket.sol\":224:1197  contract DTicket is ERC1155, Ownable {... */\n      mstore(0x40, 0x80)\n      callvalue\n      dup1\n      iszero\n      tag_1\n      jumpi\n      0x00\n      dup1\n      revert\n    tag_1:\n      pop\n      jumpi(tag_2, lt(calldatasize, 0x04))\n      shr(0xe0, calldataload(0x00))\n      dup1\n      0x715018a6\n      gt\n      tag_17\n      jumpi\n      dup1\n      0xa22cb465\n      gt\n      tag_18\n      jumpi\n      dup1\n      0xa22cb465\n      eq\n      tag_13\n      jumpi\n      dup1\n      0xe985e9c5\n      eq\n      tag_14\n      jumpi\n      dup1\n      0xf242432a\n      eq\n      tag_15\n      jumpi\n      dup1\n      0xf2fde38b\n      eq\n      tag_16\n      jumpi\n      jump(tag_2)\n    tag_18:\n      dup1\n      0x715018a6\n      eq\n      tag_10\n      jumpi\n      dup1\n      0x731133e9\n      eq\n      tag_11\n      jumpi\n      dup1\n      0x8da5cb5b\n      eq\n      tag_12\n      jumpi\n      jump(tag_2)\n    tag_17:\n      dup1\n      0x0e89341c\n      gt\n      tag_19\n      jumpi\n      dup1\n      0x0e89341c\n      eq\n      tag_6\n      jumpi\n      dup1\n      0x1f7fdffa\n      eq\n      tag_7\n      jumpi\n      dup1\n      0x2eb2c2d6\n      eq\n      tag_8\n      jumpi\n      dup1\n      0x4e1273f4\n      eq\n      tag_9\n      jumpi\n      jump(tag_2)\n    tag_19:\n      dup1\n      0xfdd58e\n      eq\n      tag_3\n      jumpi\n      dup1\n      0x01ffc9a7\n      eq\n      tag_4\n      jumpi\n      dup1\n      0x02fe5305\n      eq\n      tag_5\n      jumpi\n    tag_2:\n      0x00\n      dup1\n      revert\n        /* \"@openzeppelin/contracts/token/ERC1155/ERC1155.sol\":2247:2379  function balanceOf(address account, uint256 id) public view virtual returns (uint256) {... */\n    tag_3:\n      tag_20\n      0x04\n      dup1\n      calldatasize\n      sub\n      dup2\n      add\n      swap1\n      tag_21\n      swap2\n      swap1\n      tag_22\n      jump\t// in\n    tag_21:\n      tag_23\n      jump\t// in\n    tag_20:\n      mload(0x40)\n      tag_24\n      swap2\n      swap1\n      tag_25\n      jump\t// in\n    tag_24:\n      mload(0x40)\n      dup1\n      swap2\n      sub\n      swap1\n      return\n        /* \"@openzeppelin/contracts/token/ERC1155/ERC1155.sol\":1380:1685  function supportsInterface(bytes4 interfaceId) public view virtual override(ERC165, IERC165) returns (bool) {... */\n    tag_4:\n      tag_26\n      0x04\n      dup1\n      calldatasize\n      sub\n      dup2\n      add\n      swap1\n      tag_27\n      swap2\n      swap1\n      tag_28\n      jump\t// in\n    tag_27:\n      tag_29\n      jump\t// in\n    tag_26:\n      mload(0x40)\n      tag_30\n      swap2\n      swap1\n      tag_31\n      jump\t// in\n    tag_30:\n      mload(0x40)\n      dup1\n      swap2\n      sub\n      swap1\n      return\n        /* \"contracts/DTicket.sol\":440:527  function setURI(string memory newuri) public onlyOwner {... */\n    tag_5:\n      tag_32\n      0x04\n      dup1\n      calldatasize\n      sub\n      dup2\n      add\n      swap1\n      tag_33\n      swap2\n      swap1\n      tag_34\n      jump\t// in\n    tag_33:\n      tag_35\n      jump\t// in\n    tag_32:\n      stop\n        /* \"contracts/DTicket.sol\":895:1195  function uri(uint256 _tokenid) override public pure returns (string memory) {... */\n    tag_6:\n      tag_36\n      0x04\n      dup1\n      calldatasize\n      sub\n      dup2\n      add\n      swap1\n      tag_37\n      swap2\n      swap1\n      tag_38\n      jump\t// in\n    tag_37:\n      tag_39\n      jump\t// in\n    tag_36:\n      mload(0x40)\n      tag_40\n      swap2\n      swap1\n      tag_41\n      jump\t// in\n    tag_40:\n      mload(0x40)\n      dup1\n      swap2\n      sub\n      swap1\n      return\n        /* \"contracts/DTicket.sol\":703:889  function mintBatch(address to, uint256[] memory ids, uint256[] memory amounts, bytes memory data)... */\n    tag_7:\n      tag_42\n      0x04\n      dup1\n      calldatasize\n      sub\n      dup2\n      add\n      swap1\n      tag_43\n      swap2\n      swap1\n      tag_44\n      jump\t// in\n    tag_43:\n      tag_45\n      jump\t// in\n    tag_42:\n      stop\n        /* \"@openzeppelin/contracts/token/ERC1155/ERC1155.sol\":4014:4443  function safeBatchTransferFrom(... */\n    tag_8:\n      tag_46\n      0x04\n      dup1\n      calldatasize\n      sub\n      dup2\n      add\n      swap1\n      tag_47\n      swap2\n      swap1\n      tag_48\n      jump\t// in\n    tag_47:\n      tag_49\n      jump\t// in\n    tag_46:\n      stop\n        /* \"@openzeppelin/contracts/token/ERC1155/ERC1155.sol\":2536:3088  function balanceOfBatch(... */\n    tag_9:\n      tag_50\n      0x04\n      dup1\n      calldatasize\n      sub\n      dup2\n      add\n      swap1\n      tag_51\n      swap2\n      swap1\n      tag_52\n      jump\t// in\n    tag_51:\n      tag_53\n      jump\t// in\n    tag_50:\n      mload(0x40)\n      tag_54\n      swap2\n      swap1\n      tag_55\n      jump\t// in\n    tag_54:\n      mload(0x40)\n      dup1\n      swap2\n      sub\n      swap1\n      return\n        /* \"@openzeppelin/contracts/access/Ownable.sol\":2293:2394  function renounceOwnership() public virtual onlyOwner {... */\n    tag_10:\n      tag_56\n      tag_57\n      jump\t// in\n    tag_56:\n      stop\n        /* \"contracts/DTicket.sol\":533:697  function mint(address account, uint256 id, uint256 amount, bytes memory data)... */\n    tag_11:\n      tag_58\n      0x04\n      dup1\n      calldatasize\n      sub\n      dup2\n      add\n      swap1\n      tag_59\n      swap2\n      swap1\n      tag_60\n      jump\t// in\n    tag_59:\n      tag_61\n      jump\t// in\n    tag_58:\n      stop\n        /* \"@openzeppelin/contracts/access/Ownable.sol\":1638:1723  function owner() public view virtual returns (address) {... */\n    tag_12:\n      tag_62\n      tag_63\n      jump\t// in\n    tag_62:\n      mload(0x40)\n      tag_64\n      swap2\n      swap1\n      tag_65\n      jump\t// in\n    tag_64:\n      mload(0x40)\n      dup1\n      swap2\n      sub\n      swap1\n      return\n        /* \"@openzeppelin/contracts/token/ERC1155/ERC1155.sol\":3156:3300  function setApprovalForAll(address operator, bool approved) public virtual {... */\n    tag_13:\n      tag_66\n      0x04\n      dup1\n      calldatasize\n      sub\n      dup2\n      add\n      swap1\n      tag_67\n      swap2\n      swap1\n      tag_68\n      jump\t// in\n    tag_67:\n      tag_69\n      jump\t// in\n    tag_66:\n      stop\n        /* \"@openzeppelin/contracts/token/ERC1155/ERC1155.sol\":3367:3524  function isApprovedForAll(address account, address operator) public view virtual returns (bool) {... */\n    tag_14:\n      tag_70\n      0x04\n      dup1\n      calldatasize\n      sub\n      dup2\n      add\n      swap1\n      tag_71\n      swap2\n      swap1\n      tag_72\n      jump\t// in\n    tag_71:\n      tag_73\n      jump\t// in\n    tag_70:\n      mload(0x40)\n      tag_74\n      swap2\n      swap1\n      tag_31\n      jump\t// in\n    tag_74:\n      mload(0x40)\n      dup1\n      swap2\n      sub\n      swap1\n      return\n        /* \"@openzeppelin/contracts/token/ERC1155/ERC1155.sol\":3591:3942  function safeTransferFrom(address from, address to, uint256 id, uint256 value, bytes memory data) public virtual {... */\n    tag_15:\n      tag_75\n      0x04\n      dup1\n      calldatasize\n      sub\n      dup2\n      add\n      swap1\n      tag_76\n      swap2\n      swap1\n      tag_77\n      jump\t// in\n    tag_76:\n      tag_78\n      jump\t// in\n    tag_75:\n      stop\n        /* \"@openzeppelin/contracts/access/Ownable.sol\":2543:2758  function transferOwnership(address newOwner) public virtual onlyOwner {... */\n    tag_16:\n      tag_79\n      0x04\n      dup1\n      calldatasize\n      sub\n      dup2\n      add\n      swap1\n      tag_80\n      swap2\n      swap1\n      tag_81\n      jump\t// in\n    tag_80:\n      tag_82\n      jump\t// in\n    tag_79:\n      stop\n        /* \"@openzeppelin/contracts/token/ERC1155/ERC1155.sol\":2247:2379  function balanceOf(address account, uint256 id) public view virtual returns (uint256) {... */\n    tag_23:\n        /* \"@openzeppelin/contracts/token/ERC1155/ERC1155.sol\":2324:2331  uint256 */\n      0x00\n        /* \"@openzeppelin/contracts/token/ERC1155/ERC1155.sol\":2350:2359  _balances */\n      dup1\n        /* \"@openzeppelin/contracts/token/ERC1155/ERC1155.sol\":2350:2363  _balances[id] */\n      0x00\n        /* \"@openzeppelin/contracts/token/ERC1155/ERC1155.sol\":2360:2362  id */\n      dup4\n        /* \"@openzeppelin/contracts/token/ERC1155/ERC1155.sol\":2350:2363  _balances[id] */\n      dup2\n      mstore\n      0x20\n      add\n      swap1\n      dup2\n      mstore\n      0x20\n      add\n      0x00\n      keccak256\n        /* \"@openzeppelin/contracts/token/ERC1155/ERC1155.sol\":2350:2372  _balances[id][account] */\n      0x00\n        /* \"@openzeppelin/contracts/token/ERC1155/ERC1155.sol\":2364:2371  account */\n      dup5\n        /* \"@openzeppelin/contracts/token/ERC1155/ERC1155.sol\":2350:2372  _balances[id][account] */\n      0xffffffffffffffffffffffffffffffffffffffff\n      and\n      0xffffffffffffffffffffffffffffffffffffffff\n      and\n      dup2\n      mstore\n      0x20\n      add\n      swap1\n      dup2\n      mstore\n      0x20\n      add\n      0x00\n      keccak256\n      sload\n        /* \"@openzeppelin/contracts/token/ERC1155/ERC1155.sol\":2343:2372  return _balances[id][account] */\n      swap1\n      pop\n        /* \"@openzeppelin/contracts/token/ERC1155/ERC1155.sol\":2247:2379  function balanceOf(address account, uint256 id) public view virtual returns (uint256) {... */\n      swap3\n      swap2\n      pop\n      pop\n      jump\t// out\n        /* \"@openzeppelin/contracts/token/ERC1155/ERC1155.sol\":1380:1685  function supportsInterface(bytes4 interfaceId) public view virtual override(ERC165, IERC165) returns (bool) {... */\n    tag_29:\n        /* \"@openzeppelin/contracts/token/ERC1155/ERC1155.sol\":1482:1486  bool */\n      0x00\n        /* \"@openzeppelin/contracts/token/ERC1155/ERC1155.sol\":1532:1558  type(IERC1155).interfaceId */\n      0xd9b67a2600000000000000000000000000000000000000000000000000000000\n        /* \"@openzeppelin/contracts/token/ERC1155/ERC1155.sol\":1517:1558  interfaceId == type(IERC1155).interfaceId */\n      not(0xffffffffffffffffffffffffffffffffffffffffffffffffffffffff)\n      and\n        /* \"@openzeppelin/contracts/token/ERC1155/ERC1155.sol\":1517:1528  interfaceId */\n      dup3\n        /* \"@openzeppelin/contracts/token/ERC1155/ERC1155.sol\":1517:1558  interfaceId == type(IERC1155).interfaceId */\n      not(0xffffffffffffffffffffffffffffffffffffffffffffffffffffffff)\n      and\n      eq\n        /* \"@openzeppelin/contracts/token/ERC1155/ERC1155.sol\":1517:1626  interfaceId == type(IERC1155).interfaceId ||... */\n      dup1\n      tag_85\n      jumpi\n      pop\n        /* \"@openzeppelin/contracts/token/ERC1155/ERC1155.sol\":1589:1626  type(IERC1155MetadataURI).interfaceId */\n      0x0e89341c00000000000000000000000000000000000000000000000000000000\n        /* \"@openzeppelin/contracts/token/ERC1155/ERC1155.sol\":1574:1626  interfaceId == type(IERC1155MetadataURI).interfaceId */\n      not(0xffffffffffffffffffffffffffffffffffffffffffffffffffffffff)\n      and\n        /* \"@openzeppelin/contracts/token/ERC1155/ERC1155.sol\":1574:1585  interfaceId */\n      dup3\n        /* \"@openzeppelin/contracts/token/ERC1155/ERC1155.sol\":1574:1626  interfaceId == type(IERC1155MetadataURI).interfaceId */\n      not(0xffffffffffffffffffffffffffffffffffffffffffffffffffffffff)\n      and\n      eq\n        /* \"@openzeppelin/contracts/token/ERC1155/ERC1155.sol\":1517:1626  interfaceId == type(IERC1155).interfaceId ||... */\n    tag_85:\n        /* \"@openzeppelin/contracts/token/ERC1155/ERC1155.sol\":1517:1678  interfaceId == type(IERC1155).interfaceId ||... */\n      dup1\n      tag_86\n      jumpi\n      pop\n        /* \"@openzeppelin/contracts/token/ERC1155/ERC1155.sol\":1642:1678  super.supportsInterface(interfaceId) */\n      tag_87\n        /* \"@openzeppelin/contracts/token/ERC1155/ERC1155.sol\":1666:1677  interfaceId */\n      dup3\n        /* \"@openzeppelin/contracts/token/ERC1155/ERC1155.sol\":1642:1665  super.supportsInterface */\n      tag_88\n        /* \"@openzeppelin/contracts/token/ERC1155/ERC1155.sol\":1642:1678  super.supportsInterface(interfaceId) */\n      jump\t// in\n    tag_87:\n        /* \"@openzeppelin/contracts/token/ERC1155/ERC1155.sol\":1517:1678  interfaceId == type(IERC1155).interfaceId ||... */\n    tag_86:\n        /* \"@openzeppelin/contracts/token/ERC1155/ERC1155.sol\":1498:1678  return... */\n      swap1\n      pop\n        /* \"@openzeppelin/contracts/token/ERC1155/ERC1155.sol\":1380:1685  function supportsInterface(bytes4 interfaceId) public view virtual override(ERC165, IERC165) returns (bool) {... */\n      swap2\n      swap1\n      pop\n      jump\t// out\n        /* \"contracts/DTicket.sol\":440:527  function setURI(string memory newuri) public onlyOwner {... */\n    tag_35:\n        /* \"@openzeppelin/contracts/access/Ownable.sol\":1531:1544  _checkOwner() */\n      tag_90\n        /* \"@openzeppelin/contracts/access/Ownable.sol\":1531:1542  _checkOwner */\n      tag_91\n        /* \"@openzeppelin/contracts/access/Ownable.sol\":1531:1544  _checkOwner() */\n      jump\t// in\n    tag_90:\n        /* \"contracts/DTicket.sol\":505:520  _setURI(newuri) */\n      tag_93\n        /* \"contracts/DTicket.sol\":513:519  newuri */\n      dup2\n        /* \"contracts/DTicket.sol\":505:512  _setURI */\n      tag_94\n        /* \"contracts/DTicket.sol\":505:520  _setURI(newuri) */\n      jump\t// in\n    tag_93:\n        /* \"contracts/DTicket.sol\":440:527  function setURI(string memory newuri) public onlyOwner {... */\n      pop\n      jump\t// out\n        /* \"contracts/DTicket.sol\":895:1195  function uri(uint256 _tokenid) override public pure returns (string memory) {... */\n    tag_39:\n        /* \"contracts/DTicket.sol\":956:969  string memory */\n      0x60\n        /* \"contracts/DTicket.sol\":1130:1156  Strings.toString(_tokenid) */\n      tag_96\n        /* \"contracts/DTicket.sol\":1147:1155  _tokenid */\n      dup3\n        /* \"contracts/DTicket.sol\":1130:1146  Strings.toString */\n      tag_97\n        /* \"contracts/DTicket.sol\":1130:1156  Strings.toString(_tokenid) */\n      jump\t// in\n    tag_96:\n        /* \"contracts/DTicket.sol\":1008:1178  abi.encodePacked(... */\n      add(0x20, mload(0x40))\n      tag_98\n      swap2\n      swap1\n      tag_99\n      jump\t// in\n    tag_98:\n      mload(0x40)\n      0x20\n      dup2\n      dup4\n      sub\n      sub\n      dup2\n      mstore\n      swap1\n      0x40\n      mstore\n        /* \"contracts/DTicket.sol\":981:1188  return string(... */\n      swap1\n      pop\n        /* \"contracts/DTicket.sol\":895:1195  function uri(uint256 _tokenid) override public pure returns (string memory) {... */\n      swap2\n      swap1\n      pop\n      jump\t// out\n        /* \"contracts/DTicket.sol\":703:889  function mintBatch(address to, uint256[] memory ids, uint256[] memory amounts, bytes memory data)... */\n    tag_45:\n        /* \"@openzeppelin/contracts/access/Ownable.sol\":1531:1544  _checkOwner() */\n      tag_101\n        /* \"@openzeppelin/contracts/access/Ownable.sol\":1531:1542  _checkOwner */\n      tag_91\n        /* \"@openzeppelin/contracts/access/Ownable.sol\":1531:1544  _checkOwner() */\n      jump\t// in\n    tag_101:\n        /* \"contracts/DTicket.sol\":848:882  _mintBatch(to, ids, amounts, data) */\n      tag_103\n        /* \"contracts/DTicket.sol\":859:861  to */\n      dup5\n        /* \"contracts/DTicket.sol\":863:866  ids */\n      dup5\n        /* \"contracts/DTicket.sol\":868:875  amounts */\n      dup5\n        /* \"contracts/DTicket.sol\":877:881  data */\n      dup5\n        /* \"contracts/DTicket.sol\":848:858  _mintBatch */\n      tag_104\n        /* \"contracts/DTicket.sol\":848:882  _mintBatch(to, ids, amounts, data) */\n      jump\t// in\n    tag_103:\n        /* \"contracts/DTicket.sol\":703:889  function mintBatch(address to, uint256[] memory ids, uint256[] memory amounts, bytes memory data)... */\n      pop\n      pop\n      pop\n      pop\n      jump\t// out\n        /* \"@openzeppelin/contracts/token/ERC1155/ERC1155.sol\":4014:4443  function safeBatchTransferFrom(... */\n    tag_49:\n        /* \"@openzeppelin/contracts/token/ERC1155/ERC1155.sol\":4208:4222  address sender */\n      0x00\n        /* \"@openzeppelin/contracts/token/ERC1155/ERC1155.sol\":4225:4237  _msgSender() */\n      tag_106\n        /* \"@openzeppelin/contracts/token/ERC1155/ERC1155.sol\":4225:4235  _msgSender */\n      tag_107\n        /* \"@openzeppelin/contracts/token/ERC1155/ERC1155.sol\":4225:4237  _msgSender() */\n      jump\t// in\n    tag_106:\n        /* \"@openzeppelin/contracts/token/ERC1155/ERC1155.sol\":4208:4237  address sender = _msgSender() */\n      swap1\n      pop\n        /* \"@openzeppelin/contracts/token/ERC1155/ERC1155.sol\":4259:4265  sender */\n      dup1\n        /* \"@openzeppelin/contracts/token/ERC1155/ERC1155.sol\":4251:4265  from != sender */\n      0xffffffffffffffffffffffffffffffffffffffff\n      and\n        /* \"@openzeppelin/contracts/token/ERC1155/ERC1155.sol\":4251:4255  from */\n      dup7\n        /* \"@openzeppelin/contracts/token/ERC1155/ERC1155.sol\":4251:4265  from != sender */\n      0xffffffffffffffffffffffffffffffffffffffff\n      and\n      eq\n      iszero\n        /* \"@openzeppelin/contracts/token/ERC1155/ERC1155.sol\":4251:4300  from != sender && !isApprovedForAll(from, sender) */\n      dup1\n      iszero\n      tag_108\n      jumpi\n      pop\n        /* \"@openzeppelin/contracts/token/ERC1155/ERC1155.sol\":4270:4300  isApprovedForAll(from, sender) */\n      tag_109\n        /* \"@openzeppelin/contracts/token/ERC1155/ERC1155.sol\":4287:4291  from */\n      dup7\n        /* \"@openzeppelin/contracts/token/ERC1155/ERC1155.sol\":4293:4299  sender */\n      dup3\n        /* \"@openzeppelin/contracts/token/ERC1155/ERC1155.sol\":4270:4286  isApprovedForAll */\n      tag_73\n        /* \"@openzeppelin/contracts/token/ERC1155/ERC1155.sol\":4270:4300  isApprovedForAll(from, sender) */\n      jump\t// in\n    tag_109:\n        /* \"@openzeppelin/contracts/token/ERC1155/ERC1155.sol\":4269:4300  !isApprovedForAll(from, sender) */\n      iszero\n        /* \"@openzeppelin/contracts/token/ERC1155/ERC1155.sol\":4251:4300  from != sender && !isApprovedForAll(from, sender) */\n    tag_108:\n        /* \"@openzeppelin/contracts/token/ERC1155/ERC1155.sol\":4247:4376  if (from != sender && !isApprovedForAll(from, sender)) {... */\n      iszero\n      tag_110\n      jumpi\n        /* \"@openzeppelin/contracts/token/ERC1155/ERC1155.sol\":4352:4358  sender */\n      dup1\n        /* \"@openzeppelin/contracts/token/ERC1155/ERC1155.sol\":4360:4364  from */\n      dup7\n        /* \"@openzeppelin/contracts/token/ERC1155/ERC1155.sol\":4323:4365  ERC1155MissingApprovalForAll(sender, from) */\n      mload(0x40)\n      0xe237d92200000000000000000000000000000000000000000000000000000000\n      dup2\n      mstore\n      0x04\n      add\n      tag_111\n      swap3\n      swap2\n      swap1\n      tag_112\n      jump\t// in\n    tag_111:\n      mload(0x40)\n      dup1\n      swap2\n      sub\n      swap1\n      revert\n        /* \"@openzeppelin/contracts/token/ERC1155/ERC1155.sol\":4247:4376  if (from != sender && !isApprovedForAll(from, sender)) {... */\n    tag_110:\n        /* \"@openzeppelin/contracts/token/ERC1155/ERC1155.sol\":4385:4436  _safeBatchTransferFrom(from, to, ids, values, data) */\n      tag_113\n        /* \"@openzeppelin/contracts/token/ERC1155/ERC1155.sol\":4408:4412  from */\n      dup7\n        /* \"@openzeppelin/contracts/token/ERC1155/ERC1155.sol\":4414:4416  to */\n      dup7\n        /* \"@openzeppelin/contracts/token/ERC1155/ERC1155.sol\":4418:4421  ids */\n      dup7\n        /* \"@openzeppelin/contracts/token/ERC1155/ERC1155.sol\":4423:4429  values */\n      dup7\n        /* \"@openzeppelin/contracts/token/ERC1155/ERC1155.sol\":4431:4435  data */\n      dup7\n        /* \"@openzeppelin/contracts/token/ERC1155/ERC1155.sol\":4385:4407  _safeBatchTransferFrom */\n      tag_114\n        /* \"@openzeppelin/contracts/token/ERC1155/ERC1155.sol\":4385:4436  _safeBatchTransferFrom(from, to, ids, values, data) */\n      jump\t// in\n    tag_113:\n        /* \"@openzeppelin/contracts/token/ERC1155/ERC1155.sol\":4198:4443  {... */\n      pop\n        /* \"@openzeppelin/contracts/token/ERC1155/ERC1155.sol\":4014:4443  function safeBatchTransferFrom(... */\n      pop\n      pop\n      pop\n      pop\n      pop\n      jump\t// out\n        /* \"@openzeppelin/contracts/token/ERC1155/ERC1155.sol\":2536:3088  function balanceOfBatch(... */\n    tag_53:\n        /* \"@openzeppelin/contracts/token/ERC1155/ERC1155.sol\":2660:2676  uint256[] memory */\n      0x60\n        /* \"@openzeppelin/contracts/token/ERC1155/ERC1155.sol\":2711:2714  ids */\n      dup2\n        /* \"@openzeppelin/contracts/token/ERC1155/ERC1155.sol\":2711:2721  ids.length */\n      mload\n        /* \"@openzeppelin/contracts/token/ERC1155/ERC1155.sol\":2692:2700  accounts */\n      dup4\n        /* \"@openzeppelin/contracts/token/ERC1155/ERC1155.sol\":2692:2707  accounts.length */\n      mload\n        /* \"@openzeppelin/contracts/token/ERC1155/ERC1155.sol\":2692:2721  accounts.length != ids.length */\n      eq\n        /* \"@openzeppelin/contracts/token/ERC1155/ERC1155.sol\":2688:2809  if (accounts.length != ids.length) {... */\n      tag_116\n      jumpi\n        /* \"@openzeppelin/contracts/token/ERC1155/ERC1155.sol\":2770:2773  ids */\n      dup2\n        /* \"@openzeppelin/contracts/token/ERC1155/ERC1155.sol\":2770:2780  ids.length */\n      mload\n        /* \"@openzeppelin/contracts/token/ERC1155/ERC1155.sol\":2782:2790  accounts */\n      dup4\n        /* \"@openzeppelin/contracts/token/ERC1155/ERC1155.sol\":2782:2797  accounts.length */\n      mload\n        /* \"@openzeppelin/contracts/token/ERC1155/ERC1155.sol\":2744:2798  ERC1155InvalidArrayLength(ids.length, accounts.length) */\n      mload(0x40)\n      0x5b05999100000000000000000000000000000000000000000000000000000000\n      dup2\n      mstore\n      0x04\n      add\n      tag_117\n      swap3\n      swap2\n      swap1\n      tag_118\n      jump\t// in\n    tag_117:\n      mload(0x40)\n      dup1\n      swap2\n      sub\n      swap1\n      revert\n        /* \"@openzeppelin/contracts/token/ERC1155/ERC1155.sol\":2688:2809  if (accounts.length != ids.length) {... */\n    tag_116:\n        /* \"@openzeppelin/contracts/token/ERC1155/ERC1155.sol\":2819:2849  uint256[] memory batchBalances */\n      0x00\n        /* \"@openzeppelin/contracts/token/ERC1155/ERC1155.sol\":2866:2874  accounts */\n      dup4\n        /* \"@openzeppelin/contracts/token/ERC1155/ERC1155.sol\":2866:2881  accounts.length */\n      mload\n        /* \"@openzeppelin/contracts/token/ERC1155/ERC1155.sol\":2852:2882  new uint256[](accounts.length) */\n      0xffffffffffffffff\n      dup2\n      gt\n      iszero\n      tag_119\n      jumpi\n      tag_120\n      tag_121\n      jump\t// in\n    tag_120:\n    tag_119:\n      mload(0x40)\n      swap1\n      dup1\n      dup3\n      mstore\n      dup1\n      0x20\n      mul\n      0x20\n      add\n      dup3\n      add\n      0x40\n      mstore\n      dup1\n      iszero\n      tag_122\n      jumpi\n      dup2\n      0x20\n      add\n      0x20\n      dup3\n      mul\n      dup1\n      calldatasize\n      dup4\n      calldatacopy\n      dup1\n      dup3\n      add\n      swap2\n      pop\n      pop\n      swap1\n      pop\n    tag_122:\n      pop\n        /* \"@openzeppelin/contracts/token/ERC1155/ERC1155.sol\":2819:2882  uint256[] memory batchBalances = new uint256[](accounts.length) */\n      swap1\n      pop\n        /* \"@openzeppelin/contracts/token/ERC1155/ERC1155.sol\":2898:2907  uint256 i */\n      0x00\n        /* \"@openzeppelin/contracts/token/ERC1155/ERC1155.sol\":2893:3051  for (uint256 i = 0; i < accounts.length; ++i) {... */\n    tag_123:\n        /* \"@openzeppelin/contracts/token/ERC1155/ERC1155.sol\":2917:2925  accounts */\n      dup5\n        /* \"@openzeppelin/contracts/token/ERC1155/ERC1155.sol\":2917:2932  accounts.length */\n      mload\n        /* \"@openzeppelin/contracts/token/ERC1155/ERC1155.sol\":2913:2914  i */\n      dup2\n        /* \"@openzeppelin/contracts/token/ERC1155/ERC1155.sol\":2913:2932  i < accounts.length */\n      lt\n        /* \"@openzeppelin/contracts/token/ERC1155/ERC1155.sol\":2893:3051  for (uint256 i = 0; i < accounts.length; ++i) {... */\n      iszero\n      tag_124\n      jumpi\n        /* \"@openzeppelin/contracts/token/ERC1155/ERC1155.sol\":2972:3040  balanceOf(accounts.unsafeMemoryAccess(i), ids.unsafeMemoryAccess(i)) */\n      tag_126\n        /* \"@openzeppelin/contracts/token/ERC1155/ERC1155.sol\":2982:3012  accounts.unsafeMemoryAccess(i) */\n      tag_127\n        /* \"@openzeppelin/contracts/token/ERC1155/ERC1155.sol\":3010:3011  i */\n      dup3\n        /* \"@openzeppelin/contracts/token/ERC1155/ERC1155.sol\":2982:2990  accounts */\n      dup8\n        /* \"@openzeppelin/contracts/token/ERC1155/ERC1155.sol\":2982:3009  accounts.unsafeMemoryAccess */\n      tag_128\n      swap1\n        /* \"@openzeppelin/contracts/token/ERC1155/ERC1155.sol\":2982:3012  accounts.unsafeMemoryAccess(i) */\n      swap2\n      swap1\n      0xffffffff\n      and\n      jump\t// in\n    tag_127:\n        /* \"@openzeppelin/contracts/token/ERC1155/ERC1155.sol\":3014:3039  ids.unsafeMemoryAccess(i) */\n      tag_129\n        /* \"@openzeppelin/contracts/token/ERC1155/ERC1155.sol\":3037:3038  i */\n      dup4\n        /* \"@openzeppelin/contracts/token/ERC1155/ERC1155.sol\":3014:3017  ids */\n      dup8\n        /* \"@openzeppelin/contracts/token/ERC1155/ERC1155.sol\":3014:3036  ids.unsafeMemoryAccess */\n      tag_130\n      swap1\n        /* \"@openzeppelin/contracts/token/ERC1155/ERC1155.sol\":3014:3039  ids.unsafeMemoryAccess(i) */\n      swap2\n      swap1\n      0xffffffff\n      and\n      jump\t// in\n    tag_129:\n        /* \"@openzeppelin/contracts/token/ERC1155/ERC1155.sol\":2972:2981  balanceOf */\n      tag_23\n        /* \"@openzeppelin/contracts/token/ERC1155/ERC1155.sol\":2972:3040  balanceOf(accounts.unsafeMemoryAccess(i), ids.unsafeMemoryAccess(i)) */\n      jump\t// in\n    tag_126:\n        /* \"@openzeppelin/contracts/token/ERC1155/ERC1155.sol\":2953:2966  batchBalances */\n      dup3\n        /* \"@openzeppelin/contracts/token/ERC1155/ERC1155.sol\":2967:2968  i */\n      dup3\n        /* \"@openzeppelin/contracts/token/ERC1155/ERC1155.sol\":2953:2969  batchBalances[i] */\n      dup2\n      mload\n      dup2\n      lt\n      tag_131\n      jumpi\n      tag_132\n      tag_133\n      jump\t// in\n    tag_132:\n    tag_131:\n      0x20\n      mul\n      0x20\n      add\n      add\n        /* \"@openzeppelin/contracts/token/ERC1155/ERC1155.sol\":2953:3040  batchBalances[i] = balanceOf(accounts.unsafeMemoryAccess(i), ids.unsafeMemoryAccess(i)) */\n      dup2\n      dup2\n      mstore\n      pop\n      pop\n        /* \"@openzeppelin/contracts/token/ERC1155/ERC1155.sol\":2934:2937  ++i */\n      dup1\n      tag_134\n      swap1\n      tag_135\n      jump\t// in\n    tag_134:\n      swap1\n      pop\n        /* \"@openzeppelin/contracts/token/ERC1155/ERC1155.sol\":2893:3051  for (uint256 i = 0; i < accounts.length; ++i) {... */\n      jump(tag_123)\n    tag_124:\n      pop\n        /* \"@openzeppelin/contracts/token/ERC1155/ERC1155.sol\":3068:3081  batchBalances */\n      dup1\n        /* \"@openzeppelin/contracts/token/ERC1155/ERC1155.sol\":3061:3081  return batchBalances */\n      swap2\n      pop\n      pop\n        /* \"@openzeppelin/contracts/token/ERC1155/ERC1155.sol\":2536:3088  function balanceOfBatch(... */\n      swap3\n      swap2\n      pop\n      pop\n      jump\t// out\n        /* \"@openzeppelin/contracts/access/Ownable.sol\":2293:2394  function renounceOwnership() public virtual onlyOwner {... */\n    tag_57:\n        /* \"@openzeppelin/contracts/access/Ownable.sol\":1531:1544  _checkOwner() */\n      tag_137\n        /* \"@openzeppelin/contracts/access/Ownable.sol\":1531:1542  _checkOwner */\n      tag_91\n        /* \"@openzeppelin/contracts/access/Ownable.sol\":1531:1544  _checkOwner() */\n      jump\t// in\n    tag_137:\n        /* \"@openzeppelin/contracts/access/Ownable.sol\":2357:2387  _transferOwnership(address(0)) */\n      tag_139\n        /* \"@openzeppelin/contracts/access/Ownable.sol\":2384:2385  0 */\n      0x00\n        /* \"@openzeppelin/contracts/access/Ownable.sol\":2357:2375  _transferOwnership */\n      tag_140\n        /* \"@openzeppelin/contracts/access/Ownable.sol\":2357:2387  _transferOwnership(address(0)) */\n      jump\t// in\n    tag_139:\n        /* \"@openzeppelin/contracts/access/Ownable.sol\":2293:2394  function renounceOwnership() public virtual onlyOwner {... */\n      jump\t// out\n        /* \"contracts/DTicket.sol\":533:697  function mint(address account, uint256 id, uint256 amount, bytes memory data)... */\n    tag_61:\n        /* \"@openzeppelin/contracts/access/Ownable.sol\":1531:1544  _checkOwner() */\n      tag_142\n        /* \"@openzeppelin/contracts/access/Ownable.sol\":1531:1542  _checkOwner */\n      tag_91\n        /* \"@openzeppelin/contracts/access/Ownable.sol\":1531:1544  _checkOwner() */\n      jump\t// in\n    tag_142:\n        /* \"contracts/DTicket.sol\":658:690  _mint(account, id, amount, data) */\n      tag_144\n        /* \"contracts/DTicket.sol\":664:671  account */\n      dup5\n        /* \"contracts/DTicket.sol\":673:675  id */\n      dup5\n        /* \"contracts/DTicket.sol\":677:683  amount */\n      dup5\n        /* \"contracts/DTicket.sol\":685:689  data */\n      dup5\n        /* \"contracts/DTicket.sol\":658:663  _mint */\n      tag_145\n        /* \"contracts/DTicket.sol\":658:690  _mint(account, id, amount, data) */\n      jump\t// in\n    tag_144:\n        /* \"contracts/DTicket.sol\":533:697  function mint(address account, uint256 id, uint256 amount, bytes memory data)... */\n      pop\n      pop\n      pop\n      pop\n      jump\t// out\n        /* \"@openzeppelin/contracts/access/Ownable.sol\":1638:1723  function owner() public view virtual returns (address) {... */\n    tag_63:\n        /* \"@openzeppelin/contracts/access/Ownable.sol\":1684:1691  address */\n      0x00\n        /* \"@openzeppelin/contracts/access/Ownable.sol\":1710:1716  _owner */\n      0x03\n      0x00\n      swap1\n      sload\n      swap1\n      0x0100\n      exp\n      swap1\n      div\n      0xffffffffffffffffffffffffffffffffffffffff\n      and\n        /* \"@openzeppelin/contracts/access/Ownable.sol\":1703:1716  return _owner */\n      swap1\n      pop\n        /* \"@openzeppelin/contracts/access/Ownable.sol\":1638:1723  function owner() public view virtual returns (address) {... */\n      swap1\n      jump\t// out\n        /* \"@openzeppelin/contracts/token/ERC1155/ERC1155.sol\":3156:3300  function setApprovalForAll(address operator, bool approved) public virtual {... */\n    tag_69:\n        /* \"@openzeppelin/contracts/token/ERC1155/ERC1155.sol\":3241:3293  _setApprovalForAll(_msgSender(), operator, approved) */\n      tag_148\n        /* \"@openzeppelin/contracts/token/ERC1155/ERC1155.sol\":3260:3272  _msgSender() */\n      tag_149\n        /* \"@openzeppelin/contracts/token/ERC1155/ERC1155.sol\":3260:3270  _msgSender */\n      tag_107\n        /* \"@openzeppelin/contracts/token/ERC1155/ERC1155.sol\":3260:3272  _msgSender() */\n      jump\t// in\n    tag_149:\n        /* \"@openzeppelin/contracts/token/ERC1155/ERC1155.sol\":3274:3282  operator */\n      dup4\n        /* \"@openzeppelin/contracts/token/ERC1155/ERC1155.sol\":3284:3292  approved */\n      dup4\n        /* \"@openzeppelin/contracts/token/ERC1155/ERC1155.sol\":3241:3259  _setApprovalForAll */\n      tag_150\n        /* \"@openzeppelin/contracts/token/ERC1155/ERC1155.sol\":3241:3293  _setApprovalForAll(_msgSender(), operator, approved) */\n      jump\t// in\n    tag_148:\n        /* \"@openzeppelin/contracts/token/ERC1155/ERC1155.sol\":3156:3300  function setApprovalForAll(address operator, bool approved) public virtual {... */\n      pop\n      pop\n      jump\t// out\n        /* \"@openzeppelin/contracts/token/ERC1155/ERC1155.sol\":3367:3524  function isApprovedForAll(address account, address operator) public view virtual returns (bool) {... */\n    tag_73:\n        /* \"@openzeppelin/contracts/token/ERC1155/ERC1155.sol\":3457:3461  bool */\n      0x00\n        /* \"@openzeppelin/contracts/token/ERC1155/ERC1155.sol\":3480:3498  _operatorApprovals */\n      0x01\n        /* \"@openzeppelin/contracts/token/ERC1155/ERC1155.sol\":3480:3507  _operatorApprovals[account] */\n      0x00\n        /* \"@openzeppelin/contracts/token/ERC1155/ERC1155.sol\":3499:3506  account */\n      dup5\n        /* \"@openzeppelin/contracts/token/ERC1155/ERC1155.sol\":3480:3507  _operatorApprovals[account] */\n      0xffffffffffffffffffffffffffffffffffffffff\n      and\n      0xffffffffffffffffffffffffffffffffffffffff\n      and\n      dup2\n      mstore\n      0x20\n      add\n      swap1\n      dup2\n      mstore\n      0x20\n      add\n      0x00\n      keccak256\n        /* \"@openzeppelin/contracts/token/ERC1155/ERC1155.sol\":3480:3517  _operatorApprovals[account][operator] */\n      0x00\n        /* \"@openzeppelin/contracts/token/ERC1155/ERC1155.sol\":3508:3516  operator */\n      dup4\n        /* \"@openzeppelin/contracts/token/ERC1155/ERC1155.sol\":3480:3517  _operatorApprovals[account][operator] */\n      0xffffffffffffffffffffffffffffffffffffffff\n      and\n      0xffffffffffffffffffffffffffffffffffffffff\n      and\n      dup2\n      mstore\n      0x20\n      add\n      swap1\n      dup2\n      mstore\n      0x20\n      add\n      0x00\n      keccak256\n      0x00\n      swap1\n      sload\n      swap1\n      0x0100\n      exp\n      swap1\n      div\n      0xff\n      and\n        /* \"@openzeppelin/contracts/token/ERC1155/ERC1155.sol\":3473:3517  return _operatorApprovals[account][operator] */\n      swap1\n      pop\n        /* \"@openzeppelin/contracts/token/ERC1155/ERC1155.sol\":3367:3524  function isApprovedForAll(address account, address operator) public view virtual returns (bool) {... */\n      swap3\n      swap2\n      pop\n      pop\n      jump\t// out\n        /* \"@openzeppelin/contracts/token/ERC1155/ERC1155.sol\":3591:3942  function safeTransferFrom(address from, address to, uint256 id, uint256 value, bytes memory data) public virtual {... */\n    tag_78:\n        /* \"@openzeppelin/contracts/token/ERC1155/ERC1155.sol\":3714:3728  address sender */\n      0x00\n        /* \"@openzeppelin/contracts/token/ERC1155/ERC1155.sol\":3731:3743  _msgSender() */\n      tag_153\n        /* \"@openzeppelin/contracts/token/ERC1155/ERC1155.sol\":3731:3741  _msgSender */\n      tag_107\n        /* \"@openzeppelin/contracts/token/ERC1155/ERC1155.sol\":3731:3743  _msgSender() */\n      jump\t// in\n    tag_153:\n        /* \"@openzeppelin/contracts/token/ERC1155/ERC1155.sol\":3714:3743  address sender = _msgSender() */\n      swap1\n      pop\n        /* \"@openzeppelin/contracts/token/ERC1155/ERC1155.sol\":3765:3771  sender */\n      dup1\n        /* \"@openzeppelin/contracts/token/ERC1155/ERC1155.sol\":3757:3771  from != sender */\n      0xffffffffffffffffffffffffffffffffffffffff\n      and\n        /* \"@openzeppelin/contracts/token/ERC1155/ERC1155.sol\":3757:3761  from */\n      dup7\n        /* \"@openzeppelin/contracts/token/ERC1155/ERC1155.sol\":3757:3771  from != sender */\n      0xffffffffffffffffffffffffffffffffffffffff\n      and\n      eq\n      iszero\n        /* \"@openzeppelin/contracts/token/ERC1155/ERC1155.sol\":3757:3806  from != sender && !isApprovedForAll(from, sender) */\n      dup1\n      iszero\n      tag_154\n      jumpi\n      pop\n        /* \"@openzeppelin/contracts/token/ERC1155/ERC1155.sol\":3776:3806  isApprovedForAll(from, sender) */\n      tag_155\n        /* \"@openzeppelin/contracts/token/ERC1155/ERC1155.sol\":3793:3797  from */\n      dup7\n        /* \"@openzeppelin/contracts/token/ERC1155/ERC1155.sol\":3799:3805  sender */\n      dup3\n        /* \"@openzeppelin/contracts/token/ERC1155/ERC1155.sol\":3776:3792  isApprovedForAll */\n      tag_73\n        /* \"@openzeppelin/contracts/token/ERC1155/ERC1155.sol\":3776:3806  isApprovedForAll(from, sender) */\n      jump\t// in\n    tag_155:\n        /* \"@openzeppelin/contracts/token/ERC1155/ERC1155.sol\":3775:3806  !isApprovedForAll(from, sender) */\n      iszero\n        /* \"@openzeppelin/contracts/token/ERC1155/ERC1155.sol\":3757:3806  from != sender && !isApprovedForAll(from, sender) */\n    tag_154:\n        /* \"@openzeppelin/contracts/token/ERC1155/ERC1155.sol\":3753:3882  if (from != sender && !isApprovedForAll(from, sender)) {... */\n      iszero\n      tag_156\n      jumpi\n        /* \"@openzeppelin/contracts/token/ERC1155/ERC1155.sol\":3858:3864  sender */\n      dup1\n        /* \"@openzeppelin/contracts/token/ERC1155/ERC1155.sol\":3866:3870  from */\n      dup7\n        /* \"@openzeppelin/contracts/token/ERC1155/ERC1155.sol\":3829:3871  ERC1155MissingApprovalForAll(sender, from) */\n      mload(0x40)\n      0xe237d92200000000000000000000000000000000000000000000000000000000\n      dup2\n      mstore\n      0x04\n      add\n      tag_157\n      swap3\n      swap2\n      swap1\n      tag_112\n      jump\t// in\n    tag_157:\n      mload(0x40)\n      dup1\n      swap2\n      sub\n      swap1\n      revert\n        /* \"@openzeppelin/contracts/token/ERC1155/ERC1155.sol\":3753:3882  if (from != sender && !isApprovedForAll(from, sender)) {... */\n    tag_156:\n        /* \"@openzeppelin/contracts/token/ERC1155/ERC1155.sol\":3891:3935  _safeTransferFrom(from, to, id, value, data) */\n      tag_158\n        /* \"@openzeppelin/contracts/token/ERC1155/ERC1155.sol\":3909:3913  from */\n      dup7\n        /* \"@openzeppelin/contracts/token/ERC1155/ERC1155.sol\":3915:3917  to */\n      dup7\n        /* \"@openzeppelin/contracts/token/ERC1155/ERC1155.sol\":3919:3921  id */\n      dup7\n        /* \"@openzeppelin/contracts/token/ERC1155/ERC1155.sol\":3923:3928  value */\n      dup7\n        /* \"@openzeppelin/contracts/token/ERC1155/ERC1155.sol\":3930:3934  data */\n      dup7\n        /* \"@openzeppelin/contracts/token/ERC1155/ERC1155.sol\":3891:3908  _safeTransferFrom */\n      tag_159\n        /* \"@openzeppelin/contracts/token/ERC1155/ERC1155.sol\":3891:3935  _safeTransferFrom(from, to, id, value, data) */\n      jump\t// in\n    tag_158:\n        /* \"@openzeppelin/contracts/token/ERC1155/ERC1155.sol\":3704:3942  {... */\n      pop\n        /* \"@openzeppelin/contracts/token/ERC1155/ERC1155.sol\":3591:3942  function safeTransferFrom(address from, address to, uint256 id, uint256 value, bytes memory data) public virtual {... */\n      pop\n      pop\n      pop\n      pop\n      pop\n      jump\t// out\n        /* \"@openzeppelin/contracts/access/Ownable.sol\":2543:2758  function transferOwnership(address newOwner) public virtual onlyOwner {... */\n    tag_82:\n        /* \"@openzeppelin/contracts/access/Ownable.sol\":1531:1544  _checkOwner() */\n      tag_161\n        /* \"@openzeppelin/contracts/access/Ownable.sol\":1531:1542  _checkOwner */\n      tag_91\n        /* \"@openzeppelin/contracts/access/Ownable.sol\":1531:1544  _checkOwner() */\n      jump\t// in\n    tag_161:\n        /* \"@openzeppelin/contracts/access/Ownable.sol\":2647:2648  0 */\n      0x00\n        /* \"@openzeppelin/contracts/access/Ownable.sol\":2627:2649  newOwner == address(0) */\n      0xffffffffffffffffffffffffffffffffffffffff\n      and\n        /* \"@openzeppelin/contracts/access/Ownable.sol\":2627:2635  newOwner */\n      dup2\n        /* \"@openzeppelin/contracts/access/Ownable.sol\":2627:2649  newOwner == address(0) */\n      0xffffffffffffffffffffffffffffffffffffffff\n      and\n      sub\n        /* \"@openzeppelin/contracts/access/Ownable.sol\":2623:2714  if (newOwner == address(0)) {... */\n      tag_163\n      jumpi\n        /* \"@openzeppelin/contracts/access/Ownable.sol\":2700:2701  0 */\n      0x00\n        /* \"@openzeppelin/contracts/access/Ownable.sol\":2672:2703  OwnableInvalidOwner(address(0)) */\n      mload(0x40)\n      0x1e4fbdf700000000000000000000000000000000000000000000000000000000\n      dup2\n      mstore\n      0x04\n      add\n      tag_164\n      swap2\n      swap1\n      tag_65\n      jump\t// in\n    tag_164:\n      mload(0x40)\n      dup1\n      swap2\n      sub\n      swap1\n      revert\n        /* \"@openzeppelin/contracts/access/Ownable.sol\":2623:2714  if (newOwner == address(0)) {... */\n    tag_163:\n        /* \"@openzeppelin/contracts/access/Ownable.sol\":2723:2751  _transferOwnership(newOwner) */\n      tag_165\n        /* \"@openzeppelin/contracts/access/Ownable.sol\":2742:2750  newOwner */\n      dup2\n        /* \"@openzeppelin/contracts/access/Ownable.sol\":2723:2741  _transferOwnership */\n      tag_140\n        /* \"@openzeppelin/contracts/access/Ownable.sol\":2723:2751  _transferOwnership(newOwner) */\n      jump\t// in\n    tag_165:\n        /* \"@openzeppelin/contracts/access/Ownable.sol\":2543:2758  function transferOwnership(address newOwner) public virtual onlyOwner {... */\n      pop\n      jump\t// out\n        /* \"@openzeppelin/contracts/utils/introspection/ERC165.sol\":762:908  function supportsInterface(bytes4 interfaceId) public view virtual returns (bool) {... */\n    tag_88:\n        /* \"@openzeppelin/contracts/utils/introspection/ERC165.sol\":838:842  bool */\n      0x00\n        /* \"@openzeppelin/contracts/utils/introspection/ERC165.sol\":876:901  type(IERC165).interfaceId */\n      0x01ffc9a700000000000000000000000000000000000000000000000000000000\n        /* \"@openzeppelin/contracts/utils/introspection/ERC165.sol\":861:901  interfaceId == type(IERC165).interfaceId */\n      not(0xffffffffffffffffffffffffffffffffffffffffffffffffffffffff)\n      and\n        /* \"@openzeppelin/contracts/utils/introspection/ERC165.sol\":861:872  interfaceId */\n      dup3\n        /* \"@openzeppelin/contracts/utils/introspection/ERC165.sol\":861:901  interfaceId == type(IERC165).interfaceId */\n      not(0xffffffffffffffffffffffffffffffffffffffffffffffffffffffff)\n      and\n      eq\n        /* \"@openzeppelin/contracts/utils/introspection/ERC165.sol\":854:901  return interfaceId == type(IERC165).interfaceId */\n      swap1\n      pop\n        /* \"@openzeppelin/contracts/utils/introspection/ERC165.sol\":762:908  function supportsInterface(bytes4 interfaceId) public view virtual returns (bool) {... */\n      swap2\n      swap1\n      pop\n      jump\t// out\n        /* \"@openzeppelin/contracts/access/Ownable.sol\":1796:1958  function _checkOwner() internal view virtual {... */\n    tag_91:\n        /* \"@openzeppelin/contracts/access/Ownable.sol\":1866:1878  _msgSender() */\n      tag_168\n        /* \"@openzeppelin/contracts/access/Ownable.sol\":1866:1876  _msgSender */\n      tag_107\n        /* \"@openzeppelin/contracts/access/Ownable.sol\":1866:1878  _msgSender() */\n      jump\t// in\n    tag_168:\n        /* \"@openzeppelin/contracts/access/Ownable.sol\":1855:1878  owner() != _msgSender() */\n      0xffffffffffffffffffffffffffffffffffffffff\n      and\n        /* \"@openzeppelin/contracts/access/Ownable.sol\":1855:1862  owner() */\n      tag_169\n        /* \"@openzeppelin/contracts/access/Ownable.sol\":1855:1860  owner */\n      tag_63\n        /* \"@openzeppelin/contracts/access/Ownable.sol\":1855:1862  owner() */\n      jump\t// in\n    tag_169:\n        /* \"@openzeppelin/contracts/access/Ownable.sol\":1855:1878  owner() != _msgSender() */\n      0xffffffffffffffffffffffffffffffffffffffff\n      and\n      eq\n        /* \"@openzeppelin/contracts/access/Ownable.sol\":1851:1952  if (owner() != _msgSender()) {... */\n      tag_170\n      jumpi\n        /* \"@openzeppelin/contracts/access/Ownable.sol\":1928:1940  _msgSender() */\n      tag_171\n        /* \"@openzeppelin/contracts/access/Ownable.sol\":1928:1938  _msgSender */\n      tag_107\n        /* \"@openzeppelin/contracts/access/Ownable.sol\":1928:1940  _msgSender() */\n      jump\t// in\n    tag_171:\n        /* \"@openzeppelin/contracts/access/Ownable.sol\":1901:1941  OwnableUnauthorizedAccount(_msgSender()) */\n      mload(0x40)\n      0x118cdaa700000000000000000000000000000000000000000000000000000000\n      dup2\n      mstore\n      0x04\n      add\n      tag_172\n      swap2\n      swap1\n      tag_65\n      jump\t// in\n    tag_172:\n      mload(0x40)\n      dup1\n      swap2\n      sub\n      swap1\n      revert\n        /* \"@openzeppelin/contracts/access/Ownable.sol\":1851:1952  if (owner() != _msgSender()) {... */\n    tag_170:\n        /* \"@openzeppelin/contracts/access/Ownable.sol\":1796:1958  function _checkOwner() internal view virtual {... */\n      jump\t// out\n        /* \"@openzeppelin/contracts/token/ERC1155/ERC1155.sol\":10282:10368  function _setURI(string memory newuri) internal virtual {... */\n    tag_94:\n        /* \"@openzeppelin/contracts/token/ERC1155/ERC1155.sol\":10355:10361  newuri */\n      dup1\n        /* \"@openzeppelin/contracts/token/ERC1155/ERC1155.sol\":10348:10352  _uri */\n      0x02\n        /* \"@openzeppelin/contracts/token/ERC1155/ERC1155.sol\":10348:10361  _uri = newuri */\n      swap1\n      dup2\n      tag_174\n      swap2\n      swap1\n      tag_175\n      jump\t// in\n    tag_174:\n      pop\n        /* \"@openzeppelin/contracts/token/ERC1155/ERC1155.sol\":10282:10368  function _setURI(string memory newuri) internal virtual {... */\n      pop\n      jump\t// out\n        /* \"@openzeppelin/contracts/utils/Strings.sol\":637:1335  function toString(uint256 value) internal pure returns (string memory) {... */\n    tag_97:\n        /* \"@openzeppelin/contracts/utils/Strings.sol\":693:706  string memory */\n      0x60\n        /* \"@openzeppelin/contracts/utils/Strings.sol\":742:756  uint256 length */\n      0x00\n        /* \"@openzeppelin/contracts/utils/Strings.sol\":779:780  1 */\n      0x01\n        /* \"@openzeppelin/contracts/utils/Strings.sol\":759:776  Math.log10(value) */\n      tag_177\n        /* \"@openzeppelin/contracts/utils/Strings.sol\":770:775  value */\n      dup5\n        /* \"@openzeppelin/contracts/utils/Strings.sol\":759:769  Math.log10 */\n      tag_178\n        /* \"@openzeppelin/contracts/utils/Strings.sol\":759:776  Math.log10(value) */\n      jump\t// in\n    tag_177:\n        /* \"@openzeppelin/contracts/utils/Strings.sol\":759:780  Math.log10(value) + 1 */\n      add\n        /* \"@openzeppelin/contracts/utils/Strings.sol\":742:780  uint256 length = Math.log10(value) + 1 */\n      swap1\n      pop\n        /* \"@openzeppelin/contracts/utils/Strings.sol\":794:814  string memory buffer */\n      0x00\n        /* \"@openzeppelin/contracts/utils/Strings.sol\":828:834  length */\n      dup2\n        /* \"@openzeppelin/contracts/utils/Strings.sol\":817:835  new string(length) */\n      0xffffffffffffffff\n      dup2\n      gt\n      iszero\n      tag_179\n      jumpi\n      tag_180\n      tag_121\n      jump\t// in\n    tag_180:\n    tag_179:\n      mload(0x40)\n      swap1\n      dup1\n      dup3\n      mstore\n      dup1\n      0x1f\n      add\n      not(0x1f)\n      and\n      0x20\n      add\n      dup3\n      add\n      0x40\n      mstore\n      dup1\n      iszero\n      tag_181\n      jumpi\n      dup2\n      0x20\n      add\n      0x01\n      dup3\n      mul\n      dup1\n      calldatasize\n      dup4\n      calldatacopy\n      dup1\n      dup3\n      add\n      swap2\n      pop\n      pop\n      swap1\n      pop\n    tag_181:\n      pop\n        /* \"@openzeppelin/contracts/utils/Strings.sol\":794:835  string memory buffer = new string(length) */\n      swap1\n      pop\n        /* \"@openzeppelin/contracts/utils/Strings.sol\":849:860  uint256 ptr */\n      0x00\n        /* \"@openzeppelin/contracts/utils/Strings.sol\":975:981  length */\n      dup3\n        /* \"@openzeppelin/contracts/utils/Strings.sol\":971:973  32 */\n      0x20\n        /* \"@openzeppelin/contracts/utils/Strings.sol\":967:982  add(32, length) */\n      add\n        /* \"@openzeppelin/contracts/utils/Strings.sol\":959:965  buffer */\n      dup3\n        /* \"@openzeppelin/contracts/utils/Strings.sol\":955:983  add(buffer, add(32, length)) */\n      add\n        /* \"@openzeppelin/contracts/utils/Strings.sol\":948:983  ptr := add(buffer, add(32, length)) */\n      swap1\n      pop\n        /* \"@openzeppelin/contracts/utils/Strings.sol\":1010:1292  while (true) {... */\n    tag_182:\n        /* \"@openzeppelin/contracts/utils/Strings.sol\":1017:1021  true */\n      0x01\n        /* \"@openzeppelin/contracts/utils/Strings.sol\":1010:1292  while (true) {... */\n      iszero\n      tag_183\n      jumpi\n        /* \"@openzeppelin/contracts/utils/Strings.sol\":1041:1046  ptr-- */\n      dup1\n      dup1\n      0x01\n      swap1\n      sub\n      swap2\n      pop\n      pop\n        /* \"@openzeppelin/contracts/utils/Strings.sol\":1180:1190  HEX_DIGITS */\n      0x3031323334353637383961626364656600000000000000000000000000000000\n        /* \"@openzeppelin/contracts/utils/Strings.sol\":1175:1177  10 */\n      0x0a\n        /* \"@openzeppelin/contracts/utils/Strings.sol\":1168:1173  value */\n      dup7\n        /* \"@openzeppelin/contracts/utils/Strings.sol\":1164:1178  mod(value, 10) */\n      mod\n        /* \"@openzeppelin/contracts/utils/Strings.sol\":1159:1191  byte(mod(value, 10), HEX_DIGITS) */\n      byte\n        /* \"@openzeppelin/contracts/utils/Strings.sol\":1154:1157  ptr */\n      dup2\n        /* \"@openzeppelin/contracts/utils/Strings.sol\":1146:1192  mstore8(ptr, byte(mod(value, 10), HEX_DIGITS)) */\n      mstore8\n        /* \"@openzeppelin/contracts/utils/Strings.sol\":1236:1238  10 */\n      0x0a\n        /* \"@openzeppelin/contracts/utils/Strings.sol\":1227:1238  value /= 10 */\n      dup6\n      dup2\n      tag_184\n      jumpi\n      tag_185\n      tag_186\n      jump\t// in\n    tag_185:\n    tag_184:\n      div\n      swap5\n      pop\n        /* \"@openzeppelin/contracts/utils/Strings.sol\":1269:1270  0 */\n      0x00\n        /* \"@openzeppelin/contracts/utils/Strings.sol\":1260:1265  value */\n      dup6\n        /* \"@openzeppelin/contracts/utils/Strings.sol\":1260:1270  value == 0 */\n      sub\n        /* \"@openzeppelin/contracts/utils/Strings.sol\":1010:1292  while (true) {... */\n      tag_182\n        /* \"@openzeppelin/contracts/utils/Strings.sol\":1256:1277  if (value == 0) break */\n      jumpi\n        /* \"@openzeppelin/contracts/utils/Strings.sol\":1010:1292  while (true) {... */\n    tag_183:\n        /* \"@openzeppelin/contracts/utils/Strings.sol\":1312:1318  buffer */\n      dup2\n        /* \"@openzeppelin/contracts/utils/Strings.sol\":1305:1318  return buffer */\n      swap4\n      pop\n      pop\n      pop\n      pop\n        /* \"@openzeppelin/contracts/utils/Strings.sol\":637:1335  function toString(uint256 value) internal pure returns (string memory) {... */\n      swap2\n      swap1\n      pop\n      jump\t// out\n        /* \"@openzeppelin/contracts/token/ERC1155/ERC1155.sol\":11523:11805  function _mintBatch(address to, uint256[] memory ids, uint256[] memory values, bytes memory data) internal {... */\n    tag_104:\n        /* \"@openzeppelin/contracts/token/ERC1155/ERC1155.sol\":11658:11659  0 */\n      0x00\n        /* \"@openzeppelin/contracts/token/ERC1155/ERC1155.sol\":11644:11660  to == address(0) */\n      0xffffffffffffffffffffffffffffffffffffffff\n      and\n        /* \"@openzeppelin/contracts/token/ERC1155/ERC1155.sol\":11644:11646  to */\n      dup5\n        /* \"@openzeppelin/contracts/token/ERC1155/ERC1155.sol\":11644:11660  to == address(0) */\n      0xffffffffffffffffffffffffffffffffffffffff\n      and\n      sub\n        /* \"@openzeppelin/contracts/token/ERC1155/ERC1155.sol\":11640:11728  if (to == address(0)) {... */\n      tag_189\n      jumpi\n        /* \"@openzeppelin/contracts/token/ERC1155/ERC1155.sol\":11714:11715  0 */\n      0x00\n        /* \"@openzeppelin/contracts/token/ERC1155/ERC1155.sol\":11683:11717  ERC1155InvalidReceiver(address(0)) */\n      mload(0x40)\n      0x57f447ce00000000000000000000000000000000000000000000000000000000\n      dup2\n      mstore\n      0x04\n      add\n      tag_190\n      swap2\n      swap1\n      tag_65\n      jump\t// in\n    tag_190:\n      mload(0x40)\n      dup1\n      swap2\n      sub\n      swap1\n      revert\n        /* \"@openzeppelin/contracts/token/ERC1155/ERC1155.sol\":11640:11728  if (to == address(0)) {... */\n    tag_189:\n        /* \"@openzeppelin/contracts/token/ERC1155/ERC1155.sol\":11737:11798  _updateWithAcceptanceCheck(address(0), to, ids, values, data) */\n      tag_191\n        /* \"@openzeppelin/contracts/token/ERC1155/ERC1155.sol\":11772:11773  0 */\n      0x00\n        /* \"@openzeppelin/contracts/token/ERC1155/ERC1155.sol\":11776:11778  to */\n      dup6\n        /* \"@openzeppelin/contracts/token/ERC1155/ERC1155.sol\":11780:11783  ids */\n      dup6\n        /* \"@openzeppelin/contracts/token/ERC1155/ERC1155.sol\":11785:11791  values */\n      dup6\n        /* \"@openzeppelin/contracts/token/ERC1155/ERC1155.sol\":11793:11797  data */\n      dup6\n        /* \"@openzeppelin/contracts/token/ERC1155/ERC1155.sol\":11737:11763  _updateWithAcceptanceCheck */\n      tag_192\n        /* \"@openzeppelin/contracts/token/ERC1155/ERC1155.sol\":11737:11798  _updateWithAcceptanceCheck(address(0), to, ids, values, data) */\n      jump\t// in\n    tag_191:\n        /* \"@openzeppelin/contracts/token/ERC1155/ERC1155.sol\":11523:11805  function _mintBatch(address to, uint256[] memory ids, uint256[] memory values, bytes memory data) internal {... */\n      pop\n      pop\n      pop\n      pop\n      jump\t// out\n        /* \"@openzeppelin/contracts/utils/Context.sol\":656:752  function _msgSender() internal view virtual returns (address) {... */\n    tag_107:\n        /* \"@openzeppelin/contracts/utils/Context.sol\":709:716  address */\n      0x00\n        /* \"@openzeppelin/contracts/utils/Context.sol\":735:745  msg.sender */\n      caller\n        /* \"@openzeppelin/contracts/utils/Context.sol\":728:745  return msg.sender */\n      swap1\n      pop\n        /* \"@openzeppelin/contracts/utils/Context.sol\":656:752  function _msgSender() internal view virtual returns (address) {... */\n      swap1\n      jump\t// out\n        /* \"@openzeppelin/contracts/token/ERC1155/ERC1155.sol\":9015:9460  function _safeBatchTransferFrom(... */\n    tag_114:\n        /* \"@openzeppelin/contracts/token/ERC1155/ERC1155.sol\":9222:9223  0 */\n      0x00\n        /* \"@openzeppelin/contracts/token/ERC1155/ERC1155.sol\":9208:9224  to == address(0) */\n      0xffffffffffffffffffffffffffffffffffffffff\n      and\n        /* \"@openzeppelin/contracts/token/ERC1155/ERC1155.sol\":9208:9210  to */\n      dup5\n        /* \"@openzeppelin/contracts/token/ERC1155/ERC1155.sol\":9208:9224  to == address(0) */\n      0xffffffffffffffffffffffffffffffffffffffff\n      and\n      sub\n        /* \"@openzeppelin/contracts/token/ERC1155/ERC1155.sol\":9204:9292  if (to == address(0)) {... */\n      tag_195\n      jumpi\n        /* \"@openzeppelin/contracts/token/ERC1155/ERC1155.sol\":9278:9279  0 */\n      0x00\n        /* \"@openzeppelin/contracts/token/ERC1155/ERC1155.sol\":9247:9281  ERC1155InvalidReceiver(address(0)) */\n      mload(0x40)\n      0x57f447ce00000000000000000000000000000000000000000000000000000000\n      dup2\n      mstore\n      0x04\n      add\n      tag_196\n      swap2\n      swap1\n      tag_65\n      jump\t// in\n    tag_196:\n      mload(0x40)\n      dup1\n      swap2\n      sub\n      swap1\n      revert\n        /* \"@openzeppelin/contracts/token/ERC1155/ERC1155.sol\":9204:9292  if (to == address(0)) {... */\n    tag_195:\n        /* \"@openzeppelin/contracts/token/ERC1155/ERC1155.sol\":9321:9322  0 */\n      0x00\n        /* \"@openzeppelin/contracts/token/ERC1155/ERC1155.sol\":9305:9323  from == address(0) */\n      0xffffffffffffffffffffffffffffffffffffffff\n      and\n        /* \"@openzeppelin/contracts/token/ERC1155/ERC1155.sol\":9305:9309  from */\n      dup6\n        /* \"@openzeppelin/contracts/token/ERC1155/ERC1155.sol\":9305:9323  from == address(0) */\n      0xffffffffffffffffffffffffffffffffffffffff\n      and\n      sub\n        /* \"@openzeppelin/contracts/token/ERC1155/ERC1155.sol\":9301:9389  if (from == address(0)) {... */\n      tag_197\n      jumpi\n        /* \"@openzeppelin/contracts/token/ERC1155/ERC1155.sol\":9375:9376  0 */\n      0x00\n        /* \"@openzeppelin/contracts/token/ERC1155/ERC1155.sol\":9346:9378  ERC1155InvalidSender(address(0)) */\n      mload(0x40)\n      0x01a8351400000000000000000000000000000000000000000000000000000000\n      dup2\n      mstore\n      0x04\n      add\n      tag_198\n      swap2\n      swap1\n      tag_65\n      jump\t// in\n    tag_198:\n      mload(0x40)\n      dup1\n      swap2\n      sub\n      swap1\n      revert\n        /* \"@openzeppelin/contracts/token/ERC1155/ERC1155.sol\":9301:9389  if (from == address(0)) {... */\n    tag_197:\n        /* \"@openzeppelin/contracts/token/ERC1155/ERC1155.sol\":9398:9453  _updateWithAcceptanceCheck(from, to, ids, values, data) */\n      tag_199\n        /* \"@openzeppelin/contracts/token/ERC1155/ERC1155.sol\":9425:9429  from */\n      dup6\n        /* \"@openzeppelin/contracts/token/ERC1155/ERC1155.sol\":9431:9433  to */\n      dup6\n        /* \"@openzeppelin/contracts/token/ERC1155/ERC1155.sol\":9435:9438  ids */\n      dup6\n        /* \"@openzeppelin/contracts/token/ERC1155/ERC1155.sol\":9440:9446  values */\n      dup6\n        /* \"@openzeppelin/contracts/token/ERC1155/ERC1155.sol\":9448:9452  data */\n      dup6\n        /* \"@openzeppelin/contracts/token/ERC1155/ERC1155.sol\":9398:9424  _updateWithAcceptanceCheck */\n      tag_192\n        /* \"@openzeppelin/contracts/token/ERC1155/ERC1155.sol\":9398:9453  _updateWithAcceptanceCheck(from, to, ids, values, data) */\n      jump\t// in\n    tag_199:\n        /* \"@openzeppelin/contracts/token/ERC1155/ERC1155.sol\":9015:9460  function _safeBatchTransferFrom(... */\n      pop\n      pop\n      pop\n      pop\n      pop\n      jump\t// out\n        /* \"@openzeppelin/contracts/utils/Arrays.sol\":4603:4800  function unsafeMemoryAccess(address[] memory arr, uint256 pos) internal pure returns (address res) {... */\n    tag_128:\n        /* \"@openzeppelin/contracts/utils/Arrays.sol\":4689:4700  address res */\n      0x00\n        /* \"@openzeppelin/contracts/utils/Arrays.sol\":4777:4781  0x20 */\n      0x20\n        /* \"@openzeppelin/contracts/utils/Arrays.sol\":4772:4775  pos */\n      dup3\n        /* \"@openzeppelin/contracts/utils/Arrays.sol\":4768:4782  mul(pos, 0x20) */\n      mul\n        /* \"@openzeppelin/contracts/utils/Arrays.sol\":4761:4765  0x20 */\n      0x20\n        /* \"@openzeppelin/contracts/utils/Arrays.sol\":4756:4759  arr */\n      dup5\n        /* \"@openzeppelin/contracts/utils/Arrays.sol\":4752:4766  add(arr, 0x20) */\n      add\n        /* \"@openzeppelin/contracts/utils/Arrays.sol\":4748:4783  add(add(arr, 0x20), mul(pos, 0x20)) */\n      add\n        /* \"@openzeppelin/contracts/utils/Arrays.sol\":4742:4784  mload(add(add(arr, 0x20), mul(pos, 0x20))) */\n      mload\n        /* \"@openzeppelin/contracts/utils/Arrays.sol\":4735:4784  res := mload(add(add(arr, 0x20), mul(pos, 0x20))) */\n      swap1\n      pop\n        /* \"@openzeppelin/contracts/utils/Arrays.sol\":4603:4800  function unsafeMemoryAccess(address[] memory arr, uint256 pos) internal pure returns (address res) {... */\n      swap3\n      swap2\n      pop\n      pop\n      jump\t// out\n        /* \"@openzeppelin/contracts/utils/Arrays.sol\":4204:4401  function unsafeMemoryAccess(uint256[] memory arr, uint256 pos) internal pure returns (uint256 res) {... */\n    tag_130:\n        /* \"@openzeppelin/contracts/utils/Arrays.sol\":4290:4301  uint256 res */\n      0x00\n        /* \"@openzeppelin/contracts/utils/Arrays.sol\":4378:4382  0x20 */\n      0x20\n        /* \"@openzeppelin/contracts/utils/Arrays.sol\":4373:4376  pos */\n      dup3\n        /* \"@openzeppelin/contracts/utils/Arrays.sol\":4369:4383  mul(pos, 0x20) */\n      mul\n        /* \"@openzeppelin/contracts/utils/Arrays.sol\":4362:4366  0x20 */\n      0x20\n        /* \"@openzeppelin/contracts/utils/Arrays.sol\":4357:4360  arr */\n      dup5\n        /* \"@openzeppelin/contracts/utils/Arrays.sol\":4353:4367  add(arr, 0x20) */\n      add\n        /* \"@openzeppelin/contracts/utils/Arrays.sol\":4349:4384  add(add(arr, 0x20), mul(pos, 0x20)) */\n      add\n        /* \"@openzeppelin/contracts/utils/Arrays.sol\":4343:4385  mload(add(add(arr, 0x20), mul(pos, 0x20))) */\n      mload\n        /* \"@openzeppelin/contracts/utils/Arrays.sol\":4336:4385  res := mload(add(add(arr, 0x20), mul(pos, 0x20))) */\n      swap1\n      pop\n        /* \"@openzeppelin/contracts/utils/Arrays.sol\":4204:4401  function unsafeMemoryAccess(uint256[] memory arr, uint256 pos) internal pure returns (uint256 res) {... */\n      swap3\n      swap2\n      pop\n      pop\n      jump\t// out\n        /* \"@openzeppelin/contracts/access/Ownable.sol\":2912:3099  function _transferOwnership(address newOwner) internal virtual {... */\n    tag_140:\n        /* \"@openzeppelin/contracts/access/Ownable.sol\":2985:3001  address oldOwner */\n      0x00\n        /* \"@openzeppelin/contracts/access/Ownable.sol\":3004:3010  _owner */\n      0x03\n      0x00\n      swap1\n      sload\n      swap1\n      0x0100\n      exp\n      swap1\n      div\n      0xffffffffffffffffffffffffffffffffffffffff\n      and\n        /* \"@openzeppelin/contracts/access/Ownable.sol\":2985:3010  address oldOwner = _owner */\n      swap1\n      pop\n        /* \"@openzeppelin/contracts/access/Ownable.sol\":3029:3037  newOwner */\n      dup2\n        /* \"@openzeppelin/contracts/access/Ownable.sol\":3020:3026  _owner */\n      0x03\n      0x00\n        /* \"@openzeppelin/contracts/access/Ownable.sol\":3020:3037  _owner = newOwner */\n      0x0100\n      exp\n      dup2\n      sload\n      dup2\n      0xffffffffffffffffffffffffffffffffffffffff\n      mul\n      not\n      and\n      swap1\n      dup4\n      0xffffffffffffffffffffffffffffffffffffffff\n      and\n      mul\n      or\n      swap1\n      sstore\n      pop\n        /* \"@openzeppelin/contracts/access/Ownable.sol\":3083:3091  newOwner */\n      dup2\n        /* \"@openzeppelin/contracts/access/Ownable.sol\":3052:3092  OwnershipTransferred(oldOwner, newOwner) */\n      0xffffffffffffffffffffffffffffffffffffffff\n      and\n        /* \"@openzeppelin/contracts/access/Ownable.sol\":3073:3081  oldOwner */\n      dup2\n        /* \"@openzeppelin/contracts/access/Ownable.sol\":3052:3092  OwnershipTransferred(oldOwner, newOwner) */\n      0xffffffffffffffffffffffffffffffffffffffff\n      and\n      0x8be0079c531659141344cd1fd0a4f28419497f9722a3daafe3b4186f6b6457e0\n      mload(0x40)\n      mload(0x40)\n      dup1\n      swap2\n      sub\n      swap1\n      log3\n        /* \"@openzeppelin/contracts/access/Ownable.sol\":2975:3099  {... */\n      pop\n        /* \"@openzeppelin/contracts/access/Ownable.sol\":2912:3099  function _transferOwnership(address newOwner) internal virtual {... */\n      pop\n      jump\t// out\n        /* \"@openzeppelin/contracts/token/ERC1155/ERC1155.sol\":10746:11092  function _mint(address to, uint256 id, uint256 value, bytes memory data) internal {... */\n    tag_145:\n        /* \"@openzeppelin/contracts/token/ERC1155/ERC1155.sol\":10856:10857  0 */\n      0x00\n        /* \"@openzeppelin/contracts/token/ERC1155/ERC1155.sol\":10842:10858  to == address(0) */\n      0xffffffffffffffffffffffffffffffffffffffff\n      and\n        /* \"@openzeppelin/contracts/token/ERC1155/ERC1155.sol\":10842:10844  to */\n      dup5\n        /* \"@openzeppelin/contracts/token/ERC1155/ERC1155.sol\":10842:10858  to == address(0) */\n      0xffffffffffffffffffffffffffffffffffffffff\n      and\n      sub\n        /* \"@openzeppelin/contracts/token/ERC1155/ERC1155.sol\":10838:10926  if (to == address(0)) {... */\n      tag_204\n      jumpi\n        /* \"@openzeppelin/contracts/token/ERC1155/ERC1155.sol\":10912:10913  0 */\n      0x00\n        /* \"@openzeppelin/contracts/token/ERC1155/ERC1155.sol\":10881:10915  ERC1155InvalidReceiver(address(0)) */\n      mload(0x40)\n      0x57f447ce00000000000000000000000000000000000000000000000000000000\n      dup2\n      mstore\n      0x04\n      add\n      tag_205\n      swap2\n      swap1\n      tag_65\n      jump\t// in\n    tag_205:\n      mload(0x40)\n      dup1\n      swap2\n      sub\n      swap1\n      revert\n        /* \"@openzeppelin/contracts/token/ERC1155/ERC1155.sol\":10838:10926  if (to == address(0)) {... */\n    tag_204:\n        /* \"@openzeppelin/contracts/token/ERC1155/ERC1155.sol\":10936:10956  uint256[] memory ids */\n      0x00\n        /* \"@openzeppelin/contracts/token/ERC1155/ERC1155.sol\":10958:10981  uint256[] memory values */\n      dup1\n        /* \"@openzeppelin/contracts/token/ERC1155/ERC1155.sol\":10985:11014  _asSingletonArrays(id, value) */\n      tag_206\n        /* \"@openzeppelin/contracts/token/ERC1155/ERC1155.sol\":11004:11006  id */\n      dup6\n        /* \"@openzeppelin/contracts/token/ERC1155/ERC1155.sol\":11008:11013  value */\n      dup6\n        /* \"@openzeppelin/contracts/token/ERC1155/ERC1155.sol\":10985:11003  _asSingletonArrays */\n      tag_207\n        /* \"@openzeppelin/contracts/token/ERC1155/ERC1155.sol\":10985:11014  _asSingletonArrays(id, value) */\n      jump\t// in\n    tag_206:\n        /* \"@openzeppelin/contracts/token/ERC1155/ERC1155.sol\":10935:11014  (uint256[] memory ids, uint256[] memory values) = _asSingletonArrays(id, value) */\n      swap2\n      pop\n      swap2\n      pop\n        /* \"@openzeppelin/contracts/token/ERC1155/ERC1155.sol\":11024:11085  _updateWithAcceptanceCheck(address(0), to, ids, values, data) */\n      tag_208\n        /* \"@openzeppelin/contracts/token/ERC1155/ERC1155.sol\":11059:11060  0 */\n      0x00\n        /* \"@openzeppelin/contracts/token/ERC1155/ERC1155.sol\":11063:11065  to */\n      dup8\n        /* \"@openzeppelin/contracts/token/ERC1155/ERC1155.sol\":11067:11070  ids */\n      dup5\n        /* \"@openzeppelin/contracts/token/ERC1155/ERC1155.sol\":11072:11078  values */\n      dup5\n        /* \"@openzeppelin/contracts/token/ERC1155/ERC1155.sol\":11080:11084  data */\n      dup8\n        /* \"@openzeppelin/contracts/token/ERC1155/ERC1155.sol\":11024:11050  _updateWithAcceptanceCheck */\n      tag_192\n        /* \"@openzeppelin/contracts/token/ERC1155/ERC1155.sol\":11024:11085  _updateWithAcceptanceCheck(address(0), to, ids, values, data) */\n      jump\t// in\n    tag_208:\n        /* \"@openzeppelin/contracts/token/ERC1155/ERC1155.sol\":10828:11092  {... */\n      pop\n      pop\n        /* \"@openzeppelin/contracts/token/ERC1155/ERC1155.sol\":10746:11092  function _mint(address to, uint256 id, uint256 value, bytes memory data) internal {... */\n      pop\n      pop\n      pop\n      pop\n      jump\t// out\n        /* \"@openzeppelin/contracts/token/ERC1155/ERC1155.sol\":13268:13583  function _setApprovalForAll(address owner, address operator, bool approved) internal virtual {... */\n    tag_150:\n        /* \"@openzeppelin/contracts/token/ERC1155/ERC1155.sol\":13395:13396  0 */\n      0x00\n        /* \"@openzeppelin/contracts/token/ERC1155/ERC1155.sol\":13375:13397  operator == address(0) */\n      0xffffffffffffffffffffffffffffffffffffffff\n      and\n        /* \"@openzeppelin/contracts/token/ERC1155/ERC1155.sol\":13375:13383  operator */\n      dup3\n        /* \"@openzeppelin/contracts/token/ERC1155/ERC1155.sol\":13375:13397  operator == address(0) */\n      0xffffffffffffffffffffffffffffffffffffffff\n      and\n      sub\n        /* \"@openzeppelin/contracts/token/ERC1155/ERC1155.sol\":13371:13465  if (operator == address(0)) {... */\n      tag_210\n      jumpi\n        /* \"@openzeppelin/contracts/token/ERC1155/ERC1155.sol\":13451:13452  0 */\n      0x00\n        /* \"@openzeppelin/contracts/token/ERC1155/ERC1155.sol\":13420:13454  ERC1155InvalidOperator(address(0)) */\n      mload(0x40)\n      0xced3e10000000000000000000000000000000000000000000000000000000000\n      dup2\n      mstore\n      0x04\n      add\n      tag_211\n      swap2\n      swap1\n      tag_65\n      jump\t// in\n    tag_211:\n      mload(0x40)\n      dup1\n      swap2\n      sub\n      swap1\n      revert\n        /* \"@openzeppelin/contracts/token/ERC1155/ERC1155.sol\":13371:13465  if (operator == address(0)) {... */\n    tag_210:\n        /* \"@openzeppelin/contracts/token/ERC1155/ERC1155.sol\":13512:13520  approved */\n      dup1\n        /* \"@openzeppelin/contracts/token/ERC1155/ERC1155.sol\":13474:13492  _operatorApprovals */\n      0x01\n        /* \"@openzeppelin/contracts/token/ERC1155/ERC1155.sol\":13474:13499  _operatorApprovals[owner] */\n      0x00\n        /* \"@openzeppelin/contracts/token/ERC1155/ERC1155.sol\":13493:13498  owner */\n      dup6\n        /* \"@openzeppelin/contracts/token/ERC1155/ERC1155.sol\":13474:13499  _operatorApprovals[owner] */\n      0xffffffffffffffffffffffffffffffffffffffff\n      and\n      0xffffffffffffffffffffffffffffffffffffffff\n      and\n      dup2\n      mstore\n      0x20\n      add\n      swap1\n      dup2\n      mstore\n      0x20\n      add\n      0x00\n      keccak256\n        /* \"@openzeppelin/contracts/token/ERC1155/ERC1155.sol\":13474:13509  _operatorApprovals[owner][operator] */\n      0x00\n        /* \"@openzeppelin/contracts/token/ERC1155/ERC1155.sol\":13500:13508  operator */\n      dup5\n        /* \"@openzeppelin/contracts/token/ERC1155/ERC1155.sol\":13474:13509  _operatorApprovals[owner][operator] */\n      0xffffffffffffffffffffffffffffffffffffffff\n      and\n      0xffffffffffffffffffffffffffffffffffffffff\n      and\n      dup2\n      mstore\n      0x20\n      add\n      swap1\n      dup2\n      mstore\n      0x20\n      add\n      0x00\n      keccak256\n      0x00\n        /* \"@openzeppelin/contracts/token/ERC1155/ERC1155.sol\":13474:13520  _operatorApprovals[owner][operator] = approved */\n      0x0100\n      exp\n      dup2\n      sload\n      dup2\n      0xff\n      mul\n      not\n      and\n      swap1\n      dup4\n      iszero\n      iszero\n      mul\n      or\n      swap1\n      sstore\n      pop\n        /* \"@openzeppelin/contracts/token/ERC1155/ERC1155.sol\":13557:13565  operator */\n      dup2\n        /* \"@openzeppelin/contracts/token/ERC1155/ERC1155.sol\":13535:13576  ApprovalForAll(owner, operator, approved) */\n      0xffffffffffffffffffffffffffffffffffffffff\n      and\n        /* \"@openzeppelin/contracts/token/ERC1155/ERC1155.sol\":13550:13555  owner */\n      dup4\n        /* \"@openzeppelin/contracts/token/ERC1155/ERC1155.sol\":13535:13576  ApprovalForAll(owner, operator, approved) */\n      0xffffffffffffffffffffffffffffffffffffffff\n      and\n      0x17307eab39ab6107e8899845ad3d59bd9653f200f220920489ca2b5937696c31\n        /* \"@openzeppelin/contracts/token/ERC1155/ERC1155.sol\":13567:13575  approved */\n      dup4\n        /* \"@openzeppelin/contracts/token/ERC1155/ERC1155.sol\":13535:13576  ApprovalForAll(owner, operator, approved) */\n      mload(0x40)\n      tag_212\n      swap2\n      swap1\n      tag_31\n      jump\t// in\n    tag_212:\n      mload(0x40)\n      dup1\n      swap2\n      sub\n      swap1\n      log3\n        /* \"@openzeppelin/contracts/token/ERC1155/ERC1155.sol\":13268:13583  function _setApprovalForAll(address owner, address operator, bool approved) internal virtual {... */\n      pop\n      pop\n      pop\n      jump\t// out\n        /* \"@openzeppelin/contracts/token/ERC1155/ERC1155.sol\":8151:8614  function _safeTransferFrom(address from, address to, uint256 id, uint256 value, bytes memory data) internal {... */\n    tag_159:\n        /* \"@openzeppelin/contracts/token/ERC1155/ERC1155.sol\":8287:8288  0 */\n      0x00\n        /* \"@openzeppelin/contracts/token/ERC1155/ERC1155.sol\":8273:8289  to == address(0) */\n      0xffffffffffffffffffffffffffffffffffffffff\n      and\n        /* \"@openzeppelin/contracts/token/ERC1155/ERC1155.sol\":8273:8275  to */\n      dup5\n        /* \"@openzeppelin/contracts/token/ERC1155/ERC1155.sol\":8273:8289  to == address(0) */\n      0xffffffffffffffffffffffffffffffffffffffff\n      and\n      sub\n        /* \"@openzeppelin/contracts/token/ERC1155/ERC1155.sol\":8269:8357  if (to == address(0)) {... */\n      tag_214\n      jumpi\n        /* \"@openzeppelin/contracts/token/ERC1155/ERC1155.sol\":8343:8344  0 */\n      0x00\n        /* \"@openzeppelin/contracts/token/ERC1155/ERC1155.sol\":8312:8346  ERC1155InvalidReceiver(address(0)) */\n      mload(0x40)\n      0x57f447ce00000000000000000000000000000000000000000000000000000000\n      dup2\n      mstore\n      0x04\n      add\n      tag_215\n      swap2\n      swap1\n      tag_65\n      jump\t// in\n    tag_215:\n      mload(0x40)\n      dup1\n      swap2\n      sub\n      swap1\n      revert\n        /* \"@openzeppelin/contracts/token/ERC1155/ERC1155.sol\":8269:8357  if (to == address(0)) {... */\n    tag_214:\n        /* \"@openzeppelin/contracts/token/ERC1155/ERC1155.sol\":8386:8387  0 */\n      0x00\n        /* \"@openzeppelin/contracts/token/ERC1155/ERC1155.sol\":8370:8388  from == address(0) */\n      0xffffffffffffffffffffffffffffffffffffffff\n      and\n        /* \"@openzeppelin/contracts/token/ERC1155/ERC1155.sol\":8370:8374  from */\n      dup6\n        /* \"@openzeppelin/contracts/token/ERC1155/ERC1155.sol\":8370:8388  from == address(0) */\n      0xffffffffffffffffffffffffffffffffffffffff\n      and\n      sub\n        /* \"@openzeppelin/contracts/token/ERC1155/ERC1155.sol\":8366:8454  if (from == address(0)) {... */\n      tag_216\n      jumpi\n        /* \"@openzeppelin/contracts/token/ERC1155/ERC1155.sol\":8440:8441  0 */\n      0x00\n        /* \"@openzeppelin/contracts/token/ERC1155/ERC1155.sol\":8411:8443  ERC1155InvalidSender(address(0)) */\n      mload(0x40)\n      0x01a8351400000000000000000000000000000000000000000000000000000000\n      dup2\n      mstore\n      0x04\n      add\n      tag_217\n      swap2\n      swap1\n      tag_65\n      jump\t// in\n    tag_217:\n      mload(0x40)\n      dup1\n      swap2\n      sub\n      swap1\n      revert\n        /* \"@openzeppelin/contracts/token/ERC1155/ERC1155.sol\":8366:8454  if (from == address(0)) {... */\n    tag_216:\n        /* \"@openzeppelin/contracts/token/ERC1155/ERC1155.sol\":8464:8484  uint256[] memory ids */\n      0x00\n        /* \"@openzeppelin/contracts/token/ERC1155/ERC1155.sol\":8486:8509  uint256[] memory values */\n      dup1\n        /* \"@openzeppelin/contracts/token/ERC1155/ERC1155.sol\":8513:8542  _asSingletonArrays(id, value) */\n      tag_218\n        /* \"@openzeppelin/contracts/token/ERC1155/ERC1155.sol\":8532:8534  id */\n      dup6\n        /* \"@openzeppelin/contracts/token/ERC1155/ERC1155.sol\":8536:8541  value */\n      dup6\n        /* \"@openzeppelin/contracts/token/ERC1155/ERC1155.sol\":8513:8531  _asSingletonArrays */\n      tag_207\n        /* \"@openzeppelin/contracts/token/ERC1155/ERC1155.sol\":8513:8542  _asSingletonArrays(id, value) */\n      jump\t// in\n    tag_218:\n        /* \"@openzeppelin/contracts/token/ERC1155/ERC1155.sol\":8463:8542  (uint256[] memory ids, uint256[] memory values) = _asSingletonArrays(id, value) */\n      swap2\n      pop\n      swap2\n      pop\n        /* \"@openzeppelin/contracts/token/ERC1155/ERC1155.sol\":8552:8607  _updateWithAcceptanceCheck(from, to, ids, values, data) */\n      tag_219\n        /* \"@openzeppelin/contracts/token/ERC1155/ERC1155.sol\":8579:8583  from */\n      dup8\n        /* \"@openzeppelin/contracts/token/ERC1155/ERC1155.sol\":8585:8587  to */\n      dup8\n        /* \"@openzeppelin/contracts/token/ERC1155/ERC1155.sol\":8589:8592  ids */\n      dup5\n        /* \"@openzeppelin/contracts/token/ERC1155/ERC1155.sol\":8594:8600  values */\n      dup5\n        /* \"@openzeppelin/contracts/token/ERC1155/ERC1155.sol\":8602:8606  data */\n      dup8\n        /* \"@openzeppelin/contracts/token/ERC1155/ERC1155.sol\":8552:8578  _updateWithAcceptanceCheck */\n      tag_192\n        /* \"@openzeppelin/contracts/token/ERC1155/ERC1155.sol\":8552:8607  _updateWithAcceptanceCheck(from, to, ids, values, data) */\n      jump\t// in\n    tag_219:\n        /* \"@openzeppelin/contracts/token/ERC1155/ERC1155.sol\":8259:8614  {... */\n      pop\n      pop\n        /* \"@openzeppelin/contracts/token/ERC1155/ERC1155.sol\":8151:8614  function _safeTransferFrom(address from, address to, uint256 id, uint256 value, bytes memory data) internal {... */\n      pop\n      pop\n      pop\n      pop\n      pop\n      jump\t// out\n        /* \"@openzeppelin/contracts/utils/math/Math.sol\":12214:13130  function log10(uint256 value) internal pure returns (uint256) {... */\n    tag_178:\n        /* \"@openzeppelin/contracts/utils/math/Math.sol\":12267:12274  uint256 */\n      0x00\n        /* \"@openzeppelin/contracts/utils/math/Math.sol\":12286:12300  uint256 result */\n      dup1\n        /* \"@openzeppelin/contracts/utils/math/Math.sol\":12303:12304  0 */\n      0x00\n        /* \"@openzeppelin/contracts/utils/math/Math.sol\":12286:12304  uint256 result = 0 */\n      swap1\n      pop\n        /* \"@openzeppelin/contracts/utils/math/Math.sol\":12351:12359  10 ** 64 */\n      0x184f03e93ff9f4daa797ed6e38ed64bf6a1f010000000000000000\n        /* \"@openzeppelin/contracts/utils/math/Math.sol\":12342:12347  value */\n      dup4\n        /* \"@openzeppelin/contracts/utils/math/Math.sol\":12342:12359  value >= 10 ** 64 */\n      lt\n        /* \"@openzeppelin/contracts/utils/math/Math.sol\":12338:12441  if (value >= 10 ** 64) {... */\n      tag_221\n      jumpi\n        /* \"@openzeppelin/contracts/utils/math/Math.sol\":12388:12396  10 ** 64 */\n      0x184f03e93ff9f4daa797ed6e38ed64bf6a1f010000000000000000\n        /* \"@openzeppelin/contracts/utils/math/Math.sol\":12379:12396  value /= 10 ** 64 */\n      dup4\n      dup2\n      tag_222\n      jumpi\n      tag_223\n      tag_186\n      jump\t// in\n    tag_223:\n    tag_222:\n      div\n      swap3\n      pop\n        /* \"@openzeppelin/contracts/utils/math/Math.sol\":12424:12426  64 */\n      0x40\n        /* \"@openzeppelin/contracts/utils/math/Math.sol\":12414:12426  result += 64 */\n      dup2\n      add\n      swap1\n      pop\n        /* \"@openzeppelin/contracts/utils/math/Math.sol\":12338:12441  if (value >= 10 ** 64) {... */\n    tag_221:\n        /* \"@openzeppelin/contracts/utils/math/Math.sol\":12467:12475  10 ** 32 */\n      0x04ee2d6d415b85acef8100000000\n        /* \"@openzeppelin/contracts/utils/math/Math.sol\":12458:12463  value */\n      dup4\n        /* \"@openzeppelin/contracts/utils/math/Math.sol\":12458:12475  value >= 10 ** 32 */\n      lt\n        /* \"@openzeppelin/contracts/utils/math/Math.sol\":12454:12557  if (value >= 10 ** 32) {... */\n      tag_224\n      jumpi\n        /* \"@openzeppelin/contracts/utils/math/Math.sol\":12504:12512  10 ** 32 */\n      0x04ee2d6d415b85acef8100000000\n        /* \"@openzeppelin/contracts/utils/math/Math.sol\":12495:12512  value /= 10 ** 32 */\n      dup4\n      dup2\n      tag_225\n      jumpi\n      tag_226\n      tag_186\n      jump\t// in\n    tag_226:\n    tag_225:\n      div\n      swap3\n      pop\n        /* \"@openzeppelin/contracts/utils/math/Math.sol\":12540:12542  32 */\n      0x20\n        /* \"@openzeppelin/contracts/utils/math/Math.sol\":12530:12542  result += 32 */\n      dup2\n      add\n      swap1\n      pop\n        /* \"@openzeppelin/contracts/utils/math/Math.sol\":12454:12557  if (value >= 10 ** 32) {... */\n    tag_224:\n        /* \"@openzeppelin/contracts/utils/math/Math.sol\":12583:12591  10 ** 16 */\n      0x2386f26fc10000\n        /* \"@openzeppelin/contracts/utils/math/Math.sol\":12574:12579  value */\n      dup4\n        /* \"@openzeppelin/contracts/utils/math/Math.sol\":12574:12591  value >= 10 ** 16 */\n      lt\n        /* \"@openzeppelin/contracts/utils/math/Math.sol\":12570:12673  if (value >= 10 ** 16) {... */\n      tag_227\n      jumpi\n        /* \"@openzeppelin/contracts/utils/math/Math.sol\":12620:12628  10 ** 16 */\n      0x2386f26fc10000\n        /* \"@openzeppelin/contracts/utils/math/Math.sol\":12611:12628  value /= 10 ** 16 */\n      dup4\n      dup2\n      tag_228\n      jumpi\n      tag_229\n      tag_186\n      jump\t// in\n    tag_229:\n    tag_228:\n      div\n      swap3\n      pop\n        /* \"@openzeppelin/contracts/utils/math/Math.sol\":12656:12658  16 */\n      0x10\n        /* \"@openzeppelin/contracts/utils/math/Math.sol\":12646:12658  result += 16 */\n      dup2\n      add\n      swap1\n      pop\n        /* \"@openzeppelin/contracts/utils/math/Math.sol\":12570:12673  if (value >= 10 ** 16) {... */\n    tag_227:\n        /* \"@openzeppelin/contracts/utils/math/Math.sol\":12699:12706  10 ** 8 */\n      0x05f5e100\n        /* \"@openzeppelin/contracts/utils/math/Math.sol\":12690:12695  value */\n      dup4\n        /* \"@openzeppelin/contracts/utils/math/Math.sol\":12690:12706  value >= 10 ** 8 */\n      lt\n        /* \"@openzeppelin/contracts/utils/math/Math.sol\":12686:12786  if (value >= 10 ** 8) {... */\n      tag_230\n      jumpi\n        /* \"@openzeppelin/contracts/utils/math/Math.sol\":12735:12742  10 ** 8 */\n      0x05f5e100\n        /* \"@openzeppelin/contracts/utils/math/Math.sol\":12726:12742  value /= 10 ** 8 */\n      dup4\n      dup2\n      tag_231\n      jumpi\n      tag_232\n      tag_186\n      jump\t// in\n    tag_232:\n    tag_231:\n      div\n      swap3\n      pop\n        /* \"@openzeppelin/contracts/utils/math/Math.sol\":12770:12771  8 */\n      0x08\n        /* \"@openzeppelin/contracts/utils/math/Math.sol\":12760:12771  result += 8 */\n      dup2\n      add\n      swap1\n      pop\n        /* \"@openzeppelin/contracts/utils/math/Math.sol\":12686:12786  if (value >= 10 ** 8) {... */\n    tag_230:\n        /* \"@openzeppelin/contracts/utils/math/Math.sol\":12812:12819  10 ** 4 */\n      0x2710\n        /* \"@openzeppelin/contracts/utils/math/Math.sol\":12803:12808  value */\n      dup4\n        /* \"@openzeppelin/contracts/utils/math/Math.sol\":12803:12819  value >= 10 ** 4 */\n      lt\n        /* \"@openzeppelin/contracts/utils/math/Math.sol\":12799:12899  if (value >= 10 ** 4) {... */\n      tag_233\n      jumpi\n        /* \"@openzeppelin/contracts/utils/math/Math.sol\":12848:12855  10 ** 4 */\n      0x2710\n        /* \"@openzeppelin/contracts/utils/math/Math.sol\":12839:12855  value /= 10 ** 4 */\n      dup4\n      dup2\n      tag_234\n      jumpi\n      tag_235\n      tag_186\n      jump\t// in\n    tag_235:\n    tag_234:\n      div\n      swap3\n      pop\n        /* \"@openzeppelin/contracts/utils/math/Math.sol\":12883:12884  4 */\n      0x04\n        /* \"@openzeppelin/contracts/utils/math/Math.sol\":12873:12884  result += 4 */\n      dup2\n      add\n      swap1\n      pop\n        /* \"@openzeppelin/contracts/utils/math/Math.sol\":12799:12899  if (value >= 10 ** 4) {... */\n    tag_233:\n        /* \"@openzeppelin/contracts/utils/math/Math.sol\":12925:12932  10 ** 2 */\n      0x64\n        /* \"@openzeppelin/contracts/utils/math/Math.sol\":12916:12921  value */\n      dup4\n        /* \"@openzeppelin/contracts/utils/math/Math.sol\":12916:12932  value >= 10 ** 2 */\n      lt\n        /* \"@openzeppelin/contracts/utils/math/Math.sol\":12912:13012  if (value >= 10 ** 2) {... */\n      tag_236\n      jumpi\n        /* \"@openzeppelin/contracts/utils/math/Math.sol\":12961:12968  10 ** 2 */\n      0x64\n        /* \"@openzeppelin/contracts/utils/math/Math.sol\":12952:12968  value /= 10 ** 2 */\n      dup4\n      dup2\n      tag_237\n      jumpi\n      tag_238\n      tag_186\n      jump\t// in\n    tag_238:\n    tag_237:\n      div\n      swap3\n      pop\n        /* \"@openzeppelin/contracts/utils/math/Math.sol\":12996:12997  2 */\n      0x02\n        /* \"@openzeppelin/contracts/utils/math/Math.sol\":12986:12997  result += 2 */\n      dup2\n      add\n      swap1\n      pop\n        /* \"@openzeppelin/contracts/utils/math/Math.sol\":12912:13012  if (value >= 10 ** 2) {... */\n    tag_236:\n        /* \"@openzeppelin/contracts/utils/math/Math.sol\":13038:13045  10 ** 1 */\n      0x0a\n        /* \"@openzeppelin/contracts/utils/math/Math.sol\":13029:13034  value */\n      dup4\n        /* \"@openzeppelin/contracts/utils/math/Math.sol\":13029:13045  value >= 10 ** 1 */\n      lt\n        /* \"@openzeppelin/contracts/utils/math/Math.sol\":13025:13091  if (value >= 10 ** 1) {... */\n      tag_239\n      jumpi\n        /* \"@openzeppelin/contracts/utils/math/Math.sol\":13075:13076  1 */\n      0x01\n        /* \"@openzeppelin/contracts/utils/math/Math.sol\":13065:13076  result += 1 */\n      dup2\n      add\n      swap1\n      pop\n        /* \"@openzeppelin/contracts/utils/math/Math.sol\":13025:13091  if (value >= 10 ** 1) {... */\n    tag_239:\n        /* \"@openzeppelin/contracts/utils/math/Math.sol\":13117:13123  result */\n      dup1\n        /* \"@openzeppelin/contracts/utils/math/Math.sol\":13110:13123  return result */\n      swap2\n      pop\n      pop\n        /* \"@openzeppelin/contracts/utils/math/Math.sol\":12214:13130  function log10(uint256 value) internal pure returns (uint256) {... */\n      swap2\n      swap1\n      pop\n      jump\t// out\n        /* \"@openzeppelin/contracts/token/ERC1155/ERC1155.sol\":7004:7694  function _updateWithAcceptanceCheck(... */\n    tag_192:\n        /* \"@openzeppelin/contracts/token/ERC1155/ERC1155.sol\":7205:7235  _update(from, to, ids, values) */\n      tag_241\n        /* \"@openzeppelin/contracts/token/ERC1155/ERC1155.sol\":7213:7217  from */\n      dup6\n        /* \"@openzeppelin/contracts/token/ERC1155/ERC1155.sol\":7219:7221  to */\n      dup6\n        /* \"@openzeppelin/contracts/token/ERC1155/ERC1155.sol\":7223:7226  ids */\n      dup6\n        /* \"@openzeppelin/contracts/token/ERC1155/ERC1155.sol\":7228:7234  values */\n      dup6\n        /* \"@openzeppelin/contracts/token/ERC1155/ERC1155.sol\":7205:7212  _update */\n      tag_242\n        /* \"@openzeppelin/contracts/token/ERC1155/ERC1155.sol\":7205:7235  _update(from, to, ids, values) */\n      jump\t// in\n    tag_241:\n        /* \"@openzeppelin/contracts/token/ERC1155/ERC1155.sol\":7263:7264  0 */\n      0x00\n        /* \"@openzeppelin/contracts/token/ERC1155/ERC1155.sol\":7249:7265  to != address(0) */\n      0xffffffffffffffffffffffffffffffffffffffff\n      and\n        /* \"@openzeppelin/contracts/token/ERC1155/ERC1155.sol\":7249:7251  to */\n      dup5\n        /* \"@openzeppelin/contracts/token/ERC1155/ERC1155.sol\":7249:7265  to != address(0) */\n      0xffffffffffffffffffffffffffffffffffffffff\n      and\n      eq\n        /* \"@openzeppelin/contracts/token/ERC1155/ERC1155.sol\":7245:7688  if (to != address(0)) {... */\n      tag_243\n      jumpi\n        /* \"@openzeppelin/contracts/token/ERC1155/ERC1155.sol\":7281:7297  address operator */\n      0x00\n        /* \"@openzeppelin/contracts/token/ERC1155/ERC1155.sol\":7300:7312  _msgSender() */\n      tag_244\n        /* \"@openzeppelin/contracts/token/ERC1155/ERC1155.sol\":7300:7310  _msgSender */\n      tag_107\n        /* \"@openzeppelin/contracts/token/ERC1155/ERC1155.sol\":7300:7312  _msgSender() */\n      jump\t// in\n    tag_244:\n        /* \"@openzeppelin/contracts/token/ERC1155/ERC1155.sol\":7281:7312  address operator = _msgSender() */\n      swap1\n      pop\n        /* \"@openzeppelin/contracts/token/ERC1155/ERC1155.sol\":7344:7345  1 */\n      0x01\n        /* \"@openzeppelin/contracts/token/ERC1155/ERC1155.sol\":7330:7333  ids */\n      dup5\n        /* \"@openzeppelin/contracts/token/ERC1155/ERC1155.sol\":7330:7340  ids.length */\n      mload\n        /* \"@openzeppelin/contracts/token/ERC1155/ERC1155.sol\":7330:7345  ids.length == 1 */\n      sub\n        /* \"@openzeppelin/contracts/token/ERC1155/ERC1155.sol\":7326:7678  if (ids.length == 1) {... */\n      tag_245\n      jumpi\n        /* \"@openzeppelin/contracts/token/ERC1155/ERC1155.sol\":7365:7375  uint256 id */\n      0x00\n        /* \"@openzeppelin/contracts/token/ERC1155/ERC1155.sol\":7378:7403  ids.unsafeMemoryAccess(0) */\n      tag_246\n        /* \"@openzeppelin/contracts/token/ERC1155/ERC1155.sol\":7401:7402  0 */\n      0x00\n        /* \"@openzeppelin/contracts/token/ERC1155/ERC1155.sol\":7378:7381  ids */\n      dup7\n        /* \"@openzeppelin/contracts/token/ERC1155/ERC1155.sol\":7378:7400  ids.unsafeMemoryAccess */\n      tag_130\n      swap1\n        /* \"@openzeppelin/contracts/token/ERC1155/ERC1155.sol\":7378:7403  ids.unsafeMemoryAccess(0) */\n      swap2\n      swap1\n      0xffffffff\n      and\n      jump\t// in\n    tag_246:\n        /* \"@openzeppelin/contracts/token/ERC1155/ERC1155.sol\":7365:7403  uint256 id = ids.unsafeMemoryAccess(0) */\n      swap1\n      pop\n        /* \"@openzeppelin/contracts/token/ERC1155/ERC1155.sol\":7421:7434  uint256 value */\n      0x00\n        /* \"@openzeppelin/contracts/token/ERC1155/ERC1155.sol\":7437:7465  values.unsafeMemoryAccess(0) */\n      tag_247\n        /* \"@openzeppelin/contracts/token/ERC1155/ERC1155.sol\":7463:7464  0 */\n      0x00\n        /* \"@openzeppelin/contracts/token/ERC1155/ERC1155.sol\":7437:7443  values */\n      dup7\n        /* \"@openzeppelin/contracts/token/ERC1155/ERC1155.sol\":7437:7462  values.unsafeMemoryAccess */\n      tag_130\n      swap1\n        /* \"@openzeppelin/contracts/token/ERC1155/ERC1155.sol\":7437:7465  values.unsafeMemoryAccess(0) */\n      swap2\n      swap1\n      0xffffffff\n      and\n      jump\t// in\n    tag_247:\n        /* \"@openzeppelin/contracts/token/ERC1155/ERC1155.sol\":7421:7465  uint256 value = values.unsafeMemoryAccess(0) */\n      swap1\n      pop\n        /* \"@openzeppelin/contracts/token/ERC1155/ERC1155.sol\":7483:7550  _doSafeTransferAcceptanceCheck(operator, from, to, id, value, data) */\n      tag_248\n        /* \"@openzeppelin/contracts/token/ERC1155/ERC1155.sol\":7514:7522  operator */\n      dup4\n        /* \"@openzeppelin/contracts/token/ERC1155/ERC1155.sol\":7524:7528  from */\n      dup10\n        /* \"@openzeppelin/contracts/token/ERC1155/ERC1155.sol\":7530:7532  to */\n      dup10\n        /* \"@openzeppelin/contracts/token/ERC1155/ERC1155.sol\":7534:7536  id */\n      dup6\n        /* \"@openzeppelin/contracts/token/ERC1155/ERC1155.sol\":7538:7543  value */\n      dup6\n        /* \"@openzeppelin/contracts/token/ERC1155/ERC1155.sol\":7545:7549  data */\n      dup10\n        /* \"@openzeppelin/contracts/token/ERC1155/ERC1155.sol\":7483:7513  _doSafeTransferAcceptanceCheck */\n      tag_249\n        /* \"@openzeppelin/contracts/token/ERC1155/ERC1155.sol\":7483:7550  _doSafeTransferAcceptanceCheck(operator, from, to, id, value, data) */\n      jump\t// in\n    tag_248:\n        /* \"@openzeppelin/contracts/token/ERC1155/ERC1155.sol\":7347:7565  {... */\n      pop\n      pop\n        /* \"@openzeppelin/contracts/token/ERC1155/ERC1155.sol\":7326:7678  if (ids.length == 1) {... */\n      jump(tag_250)\n    tag_245:\n        /* \"@openzeppelin/contracts/token/ERC1155/ERC1155.sol\":7589:7663  _doSafeBatchTransferAcceptanceCheck(operator, from, to, ids, values, data) */\n      tag_251\n        /* \"@openzeppelin/contracts/token/ERC1155/ERC1155.sol\":7625:7633  operator */\n      dup2\n        /* \"@openzeppelin/contracts/token/ERC1155/ERC1155.sol\":7635:7639  from */\n      dup8\n        /* \"@openzeppelin/contracts/token/ERC1155/ERC1155.sol\":7641:7643  to */\n      dup8\n        /* \"@openzeppelin/contracts/token/ERC1155/ERC1155.sol\":7645:7648  ids */\n      dup8\n        /* \"@openzeppelin/contracts/token/ERC1155/ERC1155.sol\":7650:7656  values */\n      dup8\n        /* \"@openzeppelin/contracts/token/ERC1155/ERC1155.sol\":7658:7662  data */\n      dup8\n        /* \"@openzeppelin/contracts/token/ERC1155/ERC1155.sol\":7589:7624  _doSafeBatchTransferAcceptanceCheck */\n      tag_252\n        /* \"@openzeppelin/contracts/token/ERC1155/ERC1155.sol\":7589:7663  _doSafeBatchTransferAcceptanceCheck(operator, from, to, ids, values, data) */\n      jump\t// in\n    tag_251:\n        /* \"@openzeppelin/contracts/token/ERC1155/ERC1155.sol\":7326:7678  if (ids.length == 1) {... */\n    tag_250:\n        /* \"@openzeppelin/contracts/token/ERC1155/ERC1155.sol\":7267:7688  {... */\n      pop\n        /* \"@openzeppelin/contracts/token/ERC1155/ERC1155.sol\":7245:7688  if (to != address(0)) {... */\n    tag_243:\n        /* \"@openzeppelin/contracts/token/ERC1155/ERC1155.sol\":7004:7694  function _updateWithAcceptanceCheck(... */\n      pop\n      pop\n      pop\n      pop\n      pop\n      jump\t// out\n        /* \"@openzeppelin/contracts/token/ERC1155/ERC1155.sol\":16080:16929  function _asSingletonArrays(... */\n    tag_207:\n        /* \"@openzeppelin/contracts/token/ERC1155/ERC1155.sol\":16188:16211  uint256[] memory array1 */\n      0x60\n        /* \"@openzeppelin/contracts/token/ERC1155/ERC1155.sol\":16213:16236  uint256[] memory array2 */\n      dup1\n        /* \"@openzeppelin/contracts/token/ERC1155/ERC1155.sol\":16374:16378  0x40 */\n      0x40\n        /* \"@openzeppelin/contracts/token/ERC1155/ERC1155.sol\":16368:16379  mload(0x40) */\n      mload\n        /* \"@openzeppelin/contracts/token/ERC1155/ERC1155.sol\":16358:16379  array1 := mload(0x40) */\n      swap2\n      pop\n        /* \"@openzeppelin/contracts/token/ERC1155/ERC1155.sol\":16444:16445  1 */\n      0x01\n        /* \"@openzeppelin/contracts/token/ERC1155/ERC1155.sol\":16436:16442  array1 */\n      dup3\n        /* \"@openzeppelin/contracts/token/ERC1155/ERC1155.sol\":16429:16446  mstore(array1, 1) */\n      mstore\n        /* \"@openzeppelin/contracts/token/ERC1155/ERC1155.sol\":16582:16590  element1 */\n      dup4\n        /* \"@openzeppelin/contracts/token/ERC1155/ERC1155.sol\":16575:16579  0x20 */\n      0x20\n        /* \"@openzeppelin/contracts/token/ERC1155/ERC1155.sol\":16567:16573  array1 */\n      dup4\n        /* \"@openzeppelin/contracts/token/ERC1155/ERC1155.sol\":16563:16580  add(array1, 0x20) */\n      add\n        /* \"@openzeppelin/contracts/token/ERC1155/ERC1155.sol\":16556:16591  mstore(add(array1, 0x20), element1) */\n      mstore\n        /* \"@openzeppelin/contracts/token/ERC1155/ERC1155.sol\":16704:16708  0x40 */\n      0x40\n        /* \"@openzeppelin/contracts/token/ERC1155/ERC1155.sol\":16696:16702  array1 */\n      dup3\n        /* \"@openzeppelin/contracts/token/ERC1155/ERC1155.sol\":16692:16709  add(array1, 0x40) */\n      add\n        /* \"@openzeppelin/contracts/token/ERC1155/ERC1155.sol\":16682:16709  array2 := add(array1, 0x40) */\n      swap1\n      pop\n        /* \"@openzeppelin/contracts/token/ERC1155/ERC1155.sol\":16737:16738  1 */\n      0x01\n        /* \"@openzeppelin/contracts/token/ERC1155/ERC1155.sol\":16729:16735  array2 */\n      dup2\n        /* \"@openzeppelin/contracts/token/ERC1155/ERC1155.sol\":16722:16739  mstore(array2, 1) */\n      mstore\n        /* \"@openzeppelin/contracts/token/ERC1155/ERC1155.sol\":16778:16786  element2 */\n      dup3\n        /* \"@openzeppelin/contracts/token/ERC1155/ERC1155.sol\":16771:16775  0x20 */\n      0x20\n        /* \"@openzeppelin/contracts/token/ERC1155/ERC1155.sol\":16763:16769  array2 */\n      dup3\n        /* \"@openzeppelin/contracts/token/ERC1155/ERC1155.sol\":16759:16776  add(array2, 0x20) */\n      add\n        /* \"@openzeppelin/contracts/token/ERC1155/ERC1155.sol\":16752:16787  mstore(add(array2, 0x20), element2) */\n      mstore\n        /* \"@openzeppelin/contracts/token/ERC1155/ERC1155.sol\":16907:16911  0x40 */\n      0x40\n        /* \"@openzeppelin/contracts/token/ERC1155/ERC1155.sol\":16899:16905  array2 */\n      dup2\n        /* \"@openzeppelin/contracts/token/ERC1155/ERC1155.sol\":16895:16912  add(array2, 0x40) */\n      add\n        /* \"@openzeppelin/contracts/token/ERC1155/ERC1155.sol\":16889:16893  0x40 */\n      0x40\n        /* \"@openzeppelin/contracts/token/ERC1155/ERC1155.sol\":16882:16913  mstore(0x40, add(array2, 0x40)) */\n      mstore\n        /* \"@openzeppelin/contracts/token/ERC1155/ERC1155.sol\":16080:16929  function _asSingletonArrays(... */\n      swap3\n      pop\n      swap3\n      swap1\n      pop\n      jump\t// out\n        /* \"@openzeppelin/contracts/token/ERC1155/ERC1155.sol\":5144:6425  function _update(address from, address to, uint256[] memory ids, uint256[] memory values) internal virtual {... */\n    tag_242:\n        /* \"@openzeppelin/contracts/token/ERC1155/ERC1155.sol\":5279:5285  values */\n      dup1\n        /* \"@openzeppelin/contracts/token/ERC1155/ERC1155.sol\":5279:5292  values.length */\n      mload\n        /* \"@openzeppelin/contracts/token/ERC1155/ERC1155.sol\":5265:5268  ids */\n      dup3\n        /* \"@openzeppelin/contracts/token/ERC1155/ERC1155.sol\":5265:5275  ids.length */\n      mload\n        /* \"@openzeppelin/contracts/token/ERC1155/ERC1155.sol\":5265:5292  ids.length != values.length */\n      eq\n        /* \"@openzeppelin/contracts/token/ERC1155/ERC1155.sol\":5261:5378  if (ids.length != values.length) {... */\n      tag_255\n      jumpi\n        /* \"@openzeppelin/contracts/token/ERC1155/ERC1155.sol\":5341:5344  ids */\n      dup2\n        /* \"@openzeppelin/contracts/token/ERC1155/ERC1155.sol\":5341:5351  ids.length */\n      mload\n        /* \"@openzeppelin/contracts/token/ERC1155/ERC1155.sol\":5353:5359  values */\n      dup2\n        /* \"@openzeppelin/contracts/token/ERC1155/ERC1155.sol\":5353:5366  values.length */\n      mload\n        /* \"@openzeppelin/contracts/token/ERC1155/ERC1155.sol\":5315:5367  ERC1155InvalidArrayLength(ids.length, values.length) */\n      mload(0x40)\n      0x5b05999100000000000000000000000000000000000000000000000000000000\n      dup2\n      mstore\n      0x04\n      add\n      tag_256\n      swap3\n      swap2\n      swap1\n      tag_118\n      jump\t// in\n    tag_256:\n      mload(0x40)\n      dup1\n      swap2\n      sub\n      swap1\n      revert\n        /* \"@openzeppelin/contracts/token/ERC1155/ERC1155.sol\":5261:5378  if (ids.length != values.length) {... */\n    tag_255:\n        /* \"@openzeppelin/contracts/token/ERC1155/ERC1155.sol\":5388:5404  address operator */\n      0x00\n        /* \"@openzeppelin/contracts/token/ERC1155/ERC1155.sol\":5407:5419  _msgSender() */\n      tag_257\n        /* \"@openzeppelin/contracts/token/ERC1155/ERC1155.sol\":5407:5417  _msgSender */\n      tag_107\n        /* \"@openzeppelin/contracts/token/ERC1155/ERC1155.sol\":5407:5419  _msgSender() */\n      jump\t// in\n    tag_257:\n        /* \"@openzeppelin/contracts/token/ERC1155/ERC1155.sol\":5388:5419  address operator = _msgSender() */\n      swap1\n      pop\n        /* \"@openzeppelin/contracts/token/ERC1155/ERC1155.sol\":5435:5444  uint256 i */\n      0x00\n        /* \"@openzeppelin/contracts/token/ERC1155/ERC1155.sol\":5430:6121  for (uint256 i = 0; i < ids.length; ++i) {... */\n    tag_258:\n        /* \"@openzeppelin/contracts/token/ERC1155/ERC1155.sol\":5454:5457  ids */\n      dup4\n        /* \"@openzeppelin/contracts/token/ERC1155/ERC1155.sol\":5454:5464  ids.length */\n      mload\n        /* \"@openzeppelin/contracts/token/ERC1155/ERC1155.sol\":5450:5451  i */\n      dup2\n        /* \"@openzeppelin/contracts/token/ERC1155/ERC1155.sol\":5450:5464  i < ids.length */\n      lt\n        /* \"@openzeppelin/contracts/token/ERC1155/ERC1155.sol\":5430:6121  for (uint256 i = 0; i < ids.length; ++i) {... */\n      iszero\n      tag_259\n      jumpi\n        /* \"@openzeppelin/contracts/token/ERC1155/ERC1155.sol\":5485:5495  uint256 id */\n      0x00\n        /* \"@openzeppelin/contracts/token/ERC1155/ERC1155.sol\":5498:5523  ids.unsafeMemoryAccess(i) */\n      tag_261\n        /* \"@openzeppelin/contracts/token/ERC1155/ERC1155.sol\":5521:5522  i */\n      dup3\n        /* \"@openzeppelin/contracts/token/ERC1155/ERC1155.sol\":5498:5501  ids */\n      dup7\n        /* \"@openzeppelin/contracts/token/ERC1155/ERC1155.sol\":5498:5520  ids.unsafeMemoryAccess */\n      tag_130\n      swap1\n        /* \"@openzeppelin/contracts/token/ERC1155/ERC1155.sol\":5498:5523  ids.unsafeMemoryAccess(i) */\n      swap2\n      swap1\n      0xffffffff\n      and\n      jump\t// in\n    tag_261:\n        /* \"@openzeppelin/contracts/token/ERC1155/ERC1155.sol\":5485:5523  uint256 id = ids.unsafeMemoryAccess(i) */\n      swap1\n      pop\n        /* \"@openzeppelin/contracts/token/ERC1155/ERC1155.sol\":5537:5550  uint256 value */\n      0x00\n        /* \"@openzeppelin/contracts/token/ERC1155/ERC1155.sol\":5553:5581  values.unsafeMemoryAccess(i) */\n      tag_262\n        /* \"@openzeppelin/contracts/token/ERC1155/ERC1155.sol\":5579:5580  i */\n      dup4\n        /* \"@openzeppelin/contracts/token/ERC1155/ERC1155.sol\":5553:5559  values */\n      dup7\n        /* \"@openzeppelin/contracts/token/ERC1155/ERC1155.sol\":5553:5578  values.unsafeMemoryAccess */\n      tag_130\n      swap1\n        /* \"@openzeppelin/contracts/token/ERC1155/ERC1155.sol\":5553:5581  values.unsafeMemoryAccess(i) */\n      swap2\n      swap1\n      0xffffffff\n      and\n      jump\t// in\n    tag_262:\n        /* \"@openzeppelin/contracts/token/ERC1155/ERC1155.sol\":5537:5581  uint256 value = values.unsafeMemoryAccess(i) */\n      swap1\n      pop\n        /* \"@openzeppelin/contracts/token/ERC1155/ERC1155.sol\":5616:5617  0 */\n      0x00\n        /* \"@openzeppelin/contracts/token/ERC1155/ERC1155.sol\":5600:5618  from != address(0) */\n      0xffffffffffffffffffffffffffffffffffffffff\n      and\n        /* \"@openzeppelin/contracts/token/ERC1155/ERC1155.sol\":5600:5604  from */\n      dup9\n        /* \"@openzeppelin/contracts/token/ERC1155/ERC1155.sol\":5600:5618  from != address(0) */\n      0xffffffffffffffffffffffffffffffffffffffff\n      and\n      eq\n        /* \"@openzeppelin/contracts/token/ERC1155/ERC1155.sol\":5596:6016  if (from != address(0)) {... */\n      tag_263\n      jumpi\n        /* \"@openzeppelin/contracts/token/ERC1155/ERC1155.sol\":5638:5657  uint256 fromBalance */\n      0x00\n        /* \"@openzeppelin/contracts/token/ERC1155/ERC1155.sol\":5660:5669  _balances */\n      dup1\n        /* \"@openzeppelin/contracts/token/ERC1155/ERC1155.sol\":5660:5673  _balances[id] */\n      0x00\n        /* \"@openzeppelin/contracts/token/ERC1155/ERC1155.sol\":5670:5672  id */\n      dup5\n        /* \"@openzeppelin/contracts/token/ERC1155/ERC1155.sol\":5660:5673  _balances[id] */\n      dup2\n      mstore\n      0x20\n      add\n      swap1\n      dup2\n      mstore\n      0x20\n      add\n      0x00\n      keccak256\n        /* \"@openzeppelin/contracts/token/ERC1155/ERC1155.sol\":5660:5679  _balances[id][from] */\n      0x00\n        /* \"@openzeppelin/contracts/token/ERC1155/ERC1155.sol\":5674:5678  from */\n      dup11\n        /* \"@openzeppelin/contracts/token/ERC1155/ERC1155.sol\":5660:5679  _balances[id][from] */\n      0xffffffffffffffffffffffffffffffffffffffff\n      and\n      0xffffffffffffffffffffffffffffffffffffffff\n      and\n      dup2\n      mstore\n      0x20\n      add\n      swap1\n      dup2\n      mstore\n      0x20\n      add\n      0x00\n      keccak256\n      sload\n        /* \"@openzeppelin/contracts/token/ERC1155/ERC1155.sol\":5638:5679  uint256 fromBalance = _balances[id][from] */\n      swap1\n      pop\n        /* \"@openzeppelin/contracts/token/ERC1155/ERC1155.sol\":5715:5720  value */\n      dup2\n        /* \"@openzeppelin/contracts/token/ERC1155/ERC1155.sol\":5701:5712  fromBalance */\n      dup2\n        /* \"@openzeppelin/contracts/token/ERC1155/ERC1155.sol\":5701:5720  fromBalance < value */\n      lt\n        /* \"@openzeppelin/contracts/token/ERC1155/ERC1155.sol\":5697:5826  if (fromBalance < value) {... */\n      iszero\n      tag_264\n      jumpi\n        /* \"@openzeppelin/contracts/token/ERC1155/ERC1155.sol\":5778:5782  from */\n      dup9\n        /* \"@openzeppelin/contracts/token/ERC1155/ERC1155.sol\":5784:5795  fromBalance */\n      dup2\n        /* \"@openzeppelin/contracts/token/ERC1155/ERC1155.sol\":5797:5802  value */\n      dup4\n        /* \"@openzeppelin/contracts/token/ERC1155/ERC1155.sol\":5804:5806  id */\n      dup6\n        /* \"@openzeppelin/contracts/token/ERC1155/ERC1155.sol\":5751:5807  ERC1155InsufficientBalance(from, fromBalance, value, id) */\n      mload(0x40)\n      0x03dee4c500000000000000000000000000000000000000000000000000000000\n      dup2\n      mstore\n      0x04\n      add\n      tag_265\n      swap5\n      swap4\n      swap3\n      swap2\n      swap1\n      tag_266\n      jump\t// in\n    tag_265:\n      mload(0x40)\n      dup1\n      swap2\n      sub\n      swap1\n      revert\n        /* \"@openzeppelin/contracts/token/ERC1155/ERC1155.sol\":5697:5826  if (fromBalance < value) {... */\n    tag_264:\n        /* \"@openzeppelin/contracts/token/ERC1155/ERC1155.sol\":5978:5983  value */\n      dup2\n        /* \"@openzeppelin/contracts/token/ERC1155/ERC1155.sol\":5964:5975  fromBalance */\n      dup2\n        /* \"@openzeppelin/contracts/token/ERC1155/ERC1155.sol\":5964:5983  fromBalance - value */\n      sub\n        /* \"@openzeppelin/contracts/token/ERC1155/ERC1155.sol\":5942:5951  _balances */\n      0x00\n        /* \"@openzeppelin/contracts/token/ERC1155/ERC1155.sol\":5942:5955  _balances[id] */\n      dup1\n        /* \"@openzeppelin/contracts/token/ERC1155/ERC1155.sol\":5952:5954  id */\n      dup6\n        /* \"@openzeppelin/contracts/token/ERC1155/ERC1155.sol\":5942:5955  _balances[id] */\n      dup2\n      mstore\n      0x20\n      add\n      swap1\n      dup2\n      mstore\n      0x20\n      add\n      0x00\n      keccak256\n        /* \"@openzeppelin/contracts/token/ERC1155/ERC1155.sol\":5942:5961  _balances[id][from] */\n      0x00\n        /* \"@openzeppelin/contracts/token/ERC1155/ERC1155.sol\":5956:5960  from */\n      dup12\n        /* \"@openzeppelin/contracts/token/ERC1155/ERC1155.sol\":5942:5961  _balances[id][from] */\n      0xffffffffffffffffffffffffffffffffffffffff\n      and\n      0xffffffffffffffffffffffffffffffffffffffff\n      and\n      dup2\n      mstore\n      0x20\n      add\n      swap1\n      dup2\n      mstore\n      0x20\n      add\n      0x00\n      keccak256\n        /* \"@openzeppelin/contracts/token/ERC1155/ERC1155.sol\":5942:5983  _balances[id][from] = fromBalance - value */\n      dup2\n      swap1\n      sstore\n      pop\n        /* \"@openzeppelin/contracts/token/ERC1155/ERC1155.sol\":5620:6016  {... */\n      pop\n        /* \"@openzeppelin/contracts/token/ERC1155/ERC1155.sol\":5596:6016  if (from != address(0)) {... */\n    tag_263:\n        /* \"@openzeppelin/contracts/token/ERC1155/ERC1155.sol\":6048:6049  0 */\n      0x00\n        /* \"@openzeppelin/contracts/token/ERC1155/ERC1155.sol\":6034:6050  to != address(0) */\n      0xffffffffffffffffffffffffffffffffffffffff\n      and\n        /* \"@openzeppelin/contracts/token/ERC1155/ERC1155.sol\":6034:6036  to */\n      dup8\n        /* \"@openzeppelin/contracts/token/ERC1155/ERC1155.sol\":6034:6050  to != address(0) */\n      0xffffffffffffffffffffffffffffffffffffffff\n      and\n      eq\n        /* \"@openzeppelin/contracts/token/ERC1155/ERC1155.sol\":6030:6111  if (to != address(0)) {... */\n      tag_267\n      jumpi\n        /* \"@openzeppelin/contracts/token/ERC1155/ERC1155.sol\":6091:6096  value */\n      dup1\n        /* \"@openzeppelin/contracts/token/ERC1155/ERC1155.sol\":6070:6079  _balances */\n      0x00\n        /* \"@openzeppelin/contracts/token/ERC1155/ERC1155.sol\":6070:6083  _balances[id] */\n      dup1\n        /* \"@openzeppelin/contracts/token/ERC1155/ERC1155.sol\":6080:6082  id */\n      dup5\n        /* \"@openzeppelin/contracts/token/ERC1155/ERC1155.sol\":6070:6083  _balances[id] */\n      dup2\n      mstore\n      0x20\n      add\n      swap1\n      dup2\n      mstore\n      0x20\n      add\n      0x00\n      keccak256\n        /* \"@openzeppelin/contracts/token/ERC1155/ERC1155.sol\":6070:6087  _balances[id][to] */\n      0x00\n        /* \"@openzeppelin/contracts/token/ERC1155/ERC1155.sol\":6084:6086  to */\n      dup10\n        /* \"@openzeppelin/contracts/token/ERC1155/ERC1155.sol\":6070:6087  _balances[id][to] */\n      0xffffffffffffffffffffffffffffffffffffffff\n      and\n      0xffffffffffffffffffffffffffffffffffffffff\n      and\n      dup2\n      mstore\n      0x20\n      add\n      swap1\n      dup2\n      mstore\n      0x20\n      add\n      0x00\n      keccak256\n      0x00\n        /* \"@openzeppelin/contracts/token/ERC1155/ERC1155.sol\":6070:6096  _balances[id][to] += value */\n      dup3\n      dup3\n      sload\n      tag_268\n      swap2\n      swap1\n      tag_269\n      jump\t// in\n    tag_268:\n      swap3\n      pop\n      pop\n      dup2\n      swap1\n      sstore\n      pop\n        /* \"@openzeppelin/contracts/token/ERC1155/ERC1155.sol\":6030:6111  if (to != address(0)) {... */\n    tag_267:\n        /* \"@openzeppelin/contracts/token/ERC1155/ERC1155.sol\":5471:6121  {... */\n      pop\n      pop\n        /* \"@openzeppelin/contracts/token/ERC1155/ERC1155.sol\":5466:5469  ++i */\n      dup1\n      tag_270\n      swap1\n      tag_135\n      jump\t// in\n    tag_270:\n      swap1\n      pop\n        /* \"@openzeppelin/contracts/token/ERC1155/ERC1155.sol\":5430:6121  for (uint256 i = 0; i < ids.length; ++i) {... */\n      jump(tag_258)\n    tag_259:\n      pop\n        /* \"@openzeppelin/contracts/token/ERC1155/ERC1155.sol\":6149:6150  1 */\n      0x01\n        /* \"@openzeppelin/contracts/token/ERC1155/ERC1155.sol\":6135:6138  ids */\n      dup4\n        /* \"@openzeppelin/contracts/token/ERC1155/ERC1155.sol\":6135:6145  ids.length */\n      mload\n        /* \"@openzeppelin/contracts/token/ERC1155/ERC1155.sol\":6135:6150  ids.length == 1 */\n      sub\n        /* \"@openzeppelin/contracts/token/ERC1155/ERC1155.sol\":6131:6419  if (ids.length == 1) {... */\n      tag_271\n      jumpi\n        /* \"@openzeppelin/contracts/token/ERC1155/ERC1155.sol\":6166:6176  uint256 id */\n      0x00\n        /* \"@openzeppelin/contracts/token/ERC1155/ERC1155.sol\":6179:6204  ids.unsafeMemoryAccess(0) */\n      tag_272\n        /* \"@openzeppelin/contracts/token/ERC1155/ERC1155.sol\":6202:6203  0 */\n      0x00\n        /* \"@openzeppelin/contracts/token/ERC1155/ERC1155.sol\":6179:6182  ids */\n      dup6\n        /* \"@openzeppelin/contracts/token/ERC1155/ERC1155.sol\":6179:6201  ids.unsafeMemoryAccess */\n      tag_130\n      swap1\n        /* \"@openzeppelin/contracts/token/ERC1155/ERC1155.sol\":6179:6204  ids.unsafeMemoryAccess(0) */\n      swap2\n      swap1\n      0xffffffff\n      and\n      jump\t// in\n    tag_272:\n        /* \"@openzeppelin/contracts/token/ERC1155/ERC1155.sol\":6166:6204  uint256 id = ids.unsafeMemoryAccess(0) */\n      swap1\n      pop\n        /* \"@openzeppelin/contracts/token/ERC1155/ERC1155.sol\":6218:6231  uint256 value */\n      0x00\n        /* \"@openzeppelin/contracts/token/ERC1155/ERC1155.sol\":6234:6262  values.unsafeMemoryAccess(0) */\n      tag_273\n        /* \"@openzeppelin/contracts/token/ERC1155/ERC1155.sol\":6260:6261  0 */\n      0x00\n        /* \"@openzeppelin/contracts/token/ERC1155/ERC1155.sol\":6234:6240  values */\n      dup6\n        /* \"@openzeppelin/contracts/token/ERC1155/ERC1155.sol\":6234:6259  values.unsafeMemoryAccess */\n      tag_130\n      swap1\n        /* \"@openzeppelin/contracts/token/ERC1155/ERC1155.sol\":6234:6262  values.unsafeMemoryAccess(0) */\n      swap2\n      swap1\n      0xffffffff\n      and\n      jump\t// in\n    tag_273:\n        /* \"@openzeppelin/contracts/token/ERC1155/ERC1155.sol\":6218:6262  uint256 value = values.unsafeMemoryAccess(0) */\n      swap1\n      pop\n        /* \"@openzeppelin/contracts/token/ERC1155/ERC1155.sol\":6312:6314  to */\n      dup6\n        /* \"@openzeppelin/contracts/token/ERC1155/ERC1155.sol\":6281:6326  TransferSingle(operator, from, to, id, value) */\n      0xffffffffffffffffffffffffffffffffffffffff\n      and\n        /* \"@openzeppelin/contracts/token/ERC1155/ERC1155.sol\":6306:6310  from */\n      dup8\n        /* \"@openzeppelin/contracts/token/ERC1155/ERC1155.sol\":6281:6326  TransferSingle(operator, from, to, id, value) */\n      0xffffffffffffffffffffffffffffffffffffffff\n      and\n        /* \"@openzeppelin/contracts/token/ERC1155/ERC1155.sol\":6296:6304  operator */\n      dup5\n        /* \"@openzeppelin/contracts/token/ERC1155/ERC1155.sol\":6281:6326  TransferSingle(operator, from, to, id, value) */\n      0xffffffffffffffffffffffffffffffffffffffff\n      and\n      0xc3d58168c5ae7397731d063d5bbf3d657854427343f4c083240f7aacaa2d0f62\n        /* \"@openzeppelin/contracts/token/ERC1155/ERC1155.sol\":6316:6318  id */\n      dup6\n        /* \"@openzeppelin/contracts/token/ERC1155/ERC1155.sol\":6320:6325  value */\n      dup6\n        /* \"@openzeppelin/contracts/token/ERC1155/ERC1155.sol\":6281:6326  TransferSingle(operator, from, to, id, value) */\n      mload(0x40)\n      tag_274\n      swap3\n      swap2\n      swap1\n      tag_118\n      jump\t// in\n    tag_274:\n      mload(0x40)\n      dup1\n      swap2\n      sub\n      swap1\n      log4\n        /* \"@openzeppelin/contracts/token/ERC1155/ERC1155.sol\":6152:6337  {... */\n      pop\n      pop\n        /* \"@openzeppelin/contracts/token/ERC1155/ERC1155.sol\":6131:6419  if (ids.length == 1) {... */\n      jump(tag_275)\n    tag_271:\n        /* \"@openzeppelin/contracts/token/ERC1155/ERC1155.sol\":6392:6394  to */\n      dup4\n        /* \"@openzeppelin/contracts/token/ERC1155/ERC1155.sol\":6362:6408  TransferBatch(operator, from, to, ids, values) */\n      0xffffffffffffffffffffffffffffffffffffffff\n      and\n        /* \"@openzeppelin/contracts/token/ERC1155/ERC1155.sol\":6386:6390  from */\n      dup6\n        /* \"@openzeppelin/contracts/token/ERC1155/ERC1155.sol\":6362:6408  TransferBatch(operator, from, to, ids, values) */\n      0xffffffffffffffffffffffffffffffffffffffff\n      and\n        /* \"@openzeppelin/contracts/token/ERC1155/ERC1155.sol\":6376:6384  operator */\n      dup3\n        /* \"@openzeppelin/contracts/token/ERC1155/ERC1155.sol\":6362:6408  TransferBatch(operator, from, to, ids, values) */\n      0xffffffffffffffffffffffffffffffffffffffff\n      and\n      0x4a39dc06d4c0dbc64b70af90fd698a233a518aa5d07e595d983b8c0526c8f7fb\n        /* \"@openzeppelin/contracts/token/ERC1155/ERC1155.sol\":6396:6399  ids */\n      dup7\n        /* \"@openzeppelin/contracts/token/ERC1155/ERC1155.sol\":6401:6407  values */\n      dup7\n        /* \"@openzeppelin/contracts/token/ERC1155/ERC1155.sol\":6362:6408  TransferBatch(operator, from, to, ids, values) */\n      mload(0x40)\n      tag_276\n      swap3\n      swap2\n      swap1\n      tag_277\n      jump\t// in\n    tag_276:\n      mload(0x40)\n      dup1\n      swap2\n      sub\n      swap1\n      log4\n        /* \"@openzeppelin/contracts/token/ERC1155/ERC1155.sol\":6131:6419  if (ids.length == 1) {... */\n    tag_275:\n        /* \"@openzeppelin/contracts/token/ERC1155/ERC1155.sol\":5251:6425  {... */\n      pop\n        /* \"@openzeppelin/contracts/token/ERC1155/ERC1155.sol\":5144:6425  function _update(address from, address to, uint256[] memory ids, uint256[] memory values) internal virtual {... */\n      pop\n      pop\n      pop\n      pop\n      jump\t// out\n        /* \"@openzeppelin/contracts/token/ERC1155/ERC1155.sol\":13761:14735  function _doSafeTransferAcceptanceCheck(... */\n    tag_249:\n        /* \"@openzeppelin/contracts/token/ERC1155/ERC1155.sol\":13984:13985  0 */\n      0x00\n        /* \"@openzeppelin/contracts/token/ERC1155/ERC1155.sol\":13967:13969  to */\n      dup5\n        /* \"@openzeppelin/contracts/token/ERC1155/ERC1155.sol\":13967:13981  to.code.length */\n      0xffffffffffffffffffffffffffffffffffffffff\n      and\n      extcodesize\n        /* \"@openzeppelin/contracts/token/ERC1155/ERC1155.sol\":13967:13985  to.code.length > 0 */\n      gt\n        /* \"@openzeppelin/contracts/token/ERC1155/ERC1155.sol\":13963:14729  if (to.code.length > 0) {... */\n      iszero\n      tag_279\n      jumpi\n        /* \"@openzeppelin/contracts/token/ERC1155/ERC1155.sol\":14022:14024  to */\n      dup4\n        /* \"@openzeppelin/contracts/token/ERC1155/ERC1155.sol\":14005:14043  IERC1155Receiver(to).onERC1155Received */\n      0xffffffffffffffffffffffffffffffffffffffff\n      and\n      0xf23a6e61\n        /* \"@openzeppelin/contracts/token/ERC1155/ERC1155.sol\":14044:14052  operator */\n      dup8\n        /* \"@openzeppelin/contracts/token/ERC1155/ERC1155.sol\":14054:14058  from */\n      dup8\n        /* \"@openzeppelin/contracts/token/ERC1155/ERC1155.sol\":14060:14062  id */\n      dup7\n        /* \"@openzeppelin/contracts/token/ERC1155/ERC1155.sol\":14064:14069  value */\n      dup7\n        /* \"@openzeppelin/contracts/token/ERC1155/ERC1155.sol\":14071:14075  data */\n      dup7\n        /* \"@openzeppelin/contracts/token/ERC1155/ERC1155.sol\":14005:14076  IERC1155Receiver(to).onERC1155Received(operator, from, id, value, data) */\n      mload(0x40)\n      dup7\n      0xffffffff\n      and\n      0xe0\n      shl\n      dup2\n      mstore\n      0x04\n      add\n      tag_280\n      swap6\n      swap5\n      swap4\n      swap3\n      swap2\n      swap1\n      tag_281\n      jump\t// in\n    tag_280:\n      0x20\n      mload(0x40)\n      dup1\n      dup4\n      sub\n      dup2\n      0x00\n      dup8\n      gas\n      call\n      swap3\n      pop\n      pop\n      pop\n      dup1\n      iszero\n      tag_282\n      jumpi\n      pop\n      mload(0x40)\n      returndatasize\n      not(0x1f)\n      0x1f\n      dup3\n      add\n      and\n      dup3\n      add\n      dup1\n      0x40\n      mstore\n      pop\n      dup2\n      add\n      swap1\n      tag_283\n      swap2\n      swap1\n      tag_284\n      jump\t// in\n    tag_283:\n      0x01\n    tag_282:\n        /* \"@openzeppelin/contracts/token/ERC1155/ERC1155.sol\":14001:14719  try IERC1155Receiver(to).onERC1155Received(operator, from, id, value, data) returns (bytes4 response) {... */\n      tag_285\n      jumpi\n      returndatasize\n      dup1\n      0x00\n      dup2\n      eq\n      tag_290\n      jumpi\n      mload(0x40)\n      swap2\n      pop\n      and(add(returndatasize, 0x3f), not(0x1f))\n      dup3\n      add\n      0x40\n      mstore\n      returndatasize\n      dup3\n      mstore\n      returndatasize\n      0x00\n      0x20\n      dup5\n      add\n      returndatacopy\n      jump(tag_289)\n    tag_290:\n      0x60\n      swap2\n      pop\n    tag_289:\n      pop\n        /* \"@openzeppelin/contracts/token/ERC1155/ERC1155.sol\":14377:14378  0 */\n      0x00\n        /* \"@openzeppelin/contracts/token/ERC1155/ERC1155.sol\":14360:14366  reason */\n      dup2\n        /* \"@openzeppelin/contracts/token/ERC1155/ERC1155.sol\":14360:14373  reason.length */\n      mload\n        /* \"@openzeppelin/contracts/token/ERC1155/ERC1155.sol\":14360:14378  reason.length == 0 */\n      sub\n        /* \"@openzeppelin/contracts/token/ERC1155/ERC1155.sol\":14356:14705  if (reason.length == 0) {... */\n      tag_291\n      jumpi\n        /* \"@openzeppelin/contracts/token/ERC1155/ERC1155.sol\":14487:14489  to */\n      dup5\n        /* \"@openzeppelin/contracts/token/ERC1155/ERC1155.sol\":14464:14490  ERC1155InvalidReceiver(to) */\n      mload(0x40)\n      0x57f447ce00000000000000000000000000000000000000000000000000000000\n      dup2\n      mstore\n      0x04\n      add\n      tag_292\n      swap2\n      swap1\n      tag_65\n      jump\t// in\n    tag_292:\n      mload(0x40)\n      dup1\n      swap2\n      sub\n      swap1\n      revert\n        /* \"@openzeppelin/contracts/token/ERC1155/ERC1155.sol\":14356:14705  if (reason.length == 0) {... */\n    tag_291:\n        /* \"@openzeppelin/contracts/token/ERC1155/ERC1155.sol\":14657:14663  reason */\n      dup1\n        /* \"@openzeppelin/contracts/token/ERC1155/ERC1155.sol\":14651:14664  mload(reason) */\n      mload\n        /* \"@openzeppelin/contracts/token/ERC1155/ERC1155.sol\":14642:14648  reason */\n      dup2\n        /* \"@openzeppelin/contracts/token/ERC1155/ERC1155.sol\":14638:14640  32 */\n      0x20\n        /* \"@openzeppelin/contracts/token/ERC1155/ERC1155.sol\":14634:14649  add(32, reason) */\n      add\n        /* \"@openzeppelin/contracts/token/ERC1155/ERC1155.sol\":14627:14665  revert(add(32, reason), mload(reason)) */\n      revert\n        /* \"@openzeppelin/contracts/token/ERC1155/ERC1155.sol\":14001:14719  try IERC1155Receiver(to).onERC1155Received(operator, from, id, value, data) returns (bytes4 response) {... */\n    tag_285:\n        /* \"@openzeppelin/contracts/token/ERC1155/ERC1155.sol\":14137:14180  IERC1155Receiver.onERC1155Received.selector */\n      shl(0xe0, 0xf23a6e61)\n        /* \"@openzeppelin/contracts/token/ERC1155/ERC1155.sol\":14125:14180  response != IERC1155Receiver.onERC1155Received.selector */\n      not(0xffffffffffffffffffffffffffffffffffffffffffffffffffffffff)\n      and\n        /* \"@openzeppelin/contracts/token/ERC1155/ERC1155.sol\":14125:14133  response */\n      dup2\n        /* \"@openzeppelin/contracts/token/ERC1155/ERC1155.sol\":14125:14180  response != IERC1155Receiver.onERC1155Received.selector */\n      not(0xffffffffffffffffffffffffffffffffffffffffffffffffffffffff)\n      and\n      eq\n        /* \"@openzeppelin/contracts/token/ERC1155/ERC1155.sol\":14121:14295  if (response != IERC1155Receiver.onERC1155Received.selector) {... */\n      tag_295\n      jumpi\n        /* \"@openzeppelin/contracts/token/ERC1155/ERC1155.sol\":14273:14275  to */\n      dup5\n        /* \"@openzeppelin/contracts/token/ERC1155/ERC1155.sol\":14250:14276  ERC1155InvalidReceiver(to) */\n      mload(0x40)\n      0x57f447ce00000000000000000000000000000000000000000000000000000000\n      dup2\n      mstore\n      0x04\n      add\n      tag_296\n      swap2\n      swap1\n      tag_65\n      jump\t// in\n    tag_296:\n      mload(0x40)\n      dup1\n      swap2\n      sub\n      swap1\n      revert\n        /* \"@openzeppelin/contracts/token/ERC1155/ERC1155.sol\":14121:14295  if (response != IERC1155Receiver.onERC1155Received.selector) {... */\n    tag_295:\n        /* \"@openzeppelin/contracts/token/ERC1155/ERC1155.sol\":14077:14309  returns (bytes4 response) {... */\n      pop\n        /* \"@openzeppelin/contracts/token/ERC1155/ERC1155.sol\":13963:14729  if (to.code.length > 0) {... */\n    tag_279:\n        /* \"@openzeppelin/contracts/token/ERC1155/ERC1155.sol\":13761:14735  function _doSafeTransferAcceptanceCheck(... */\n      pop\n      pop\n      pop\n      pop\n      pop\n      pop\n      jump\t// out\n        /* \"@openzeppelin/contracts/token/ERC1155/ERC1155.sol\":14923:15964  function _doSafeBatchTransferAcceptanceCheck(... */\n    tag_252:\n        /* \"@openzeppelin/contracts/token/ERC1155/ERC1155.sol\":15171:15172  0 */\n      0x00\n        /* \"@openzeppelin/contracts/token/ERC1155/ERC1155.sol\":15154:15156  to */\n      dup5\n        /* \"@openzeppelin/contracts/token/ERC1155/ERC1155.sol\":15154:15168  to.code.length */\n      0xffffffffffffffffffffffffffffffffffffffff\n      and\n      extcodesize\n        /* \"@openzeppelin/contracts/token/ERC1155/ERC1155.sol\":15154:15172  to.code.length > 0 */\n      gt\n        /* \"@openzeppelin/contracts/token/ERC1155/ERC1155.sol\":15150:15958  if (to.code.length > 0) {... */\n      iszero\n      tag_298\n      jumpi\n        /* \"@openzeppelin/contracts/token/ERC1155/ERC1155.sol\":15209:15211  to */\n      dup4\n        /* \"@openzeppelin/contracts/token/ERC1155/ERC1155.sol\":15192:15235  IERC1155Receiver(to).onERC1155BatchReceived */\n      0xffffffffffffffffffffffffffffffffffffffff\n      and\n      0xbc197c81\n        /* \"@openzeppelin/contracts/token/ERC1155/ERC1155.sol\":15236:15244  operator */\n      dup8\n        /* \"@openzeppelin/contracts/token/ERC1155/ERC1155.sol\":15246:15250  from */\n      dup8\n        /* \"@openzeppelin/contracts/token/ERC1155/ERC1155.sol\":15252:15255  ids */\n      dup7\n        /* \"@openzeppelin/contracts/token/ERC1155/ERC1155.sol\":15257:15263  values */\n      dup7\n        /* \"@openzeppelin/contracts/token/ERC1155/ERC1155.sol\":15265:15269  data */\n      dup7\n        /* \"@openzeppelin/contracts/token/ERC1155/ERC1155.sol\":15192:15270  IERC1155Receiver(to).onERC1155BatchReceived(operator, from, ids, values, data) */\n      mload(0x40)\n      dup7\n      0xffffffff\n      and\n      0xe0\n      shl\n      dup2\n      mstore\n      0x04\n      add\n      tag_299\n      swap6\n      swap5\n      swap4\n      swap3\n      swap2\n      swap1\n      tag_300\n      jump\t// in\n    tag_299:\n      0x20\n      mload(0x40)\n      dup1\n      dup4\n      sub\n      dup2\n      0x00\n      dup8\n      gas\n      call\n      swap3\n      pop\n      pop\n      pop\n      dup1\n      iszero\n      tag_301\n      jumpi\n      pop\n      mload(0x40)\n      returndatasize\n      not(0x1f)\n      0x1f\n      dup3\n      add\n      and\n      dup3\n      add\n      dup1\n      0x40\n      mstore\n      pop\n      dup2\n      add\n      swap1\n      tag_302\n      swap2\n      swap1\n      tag_284\n      jump\t// in\n    tag_302:\n      0x01\n    tag_301:\n        /* \"@openzeppelin/contracts/token/ERC1155/ERC1155.sol\":15188:15948  try IERC1155Receiver(to).onERC1155BatchReceived(operator, from, ids, values, data) returns (... */\n      tag_303\n      jumpi\n      returndatasize\n      dup1\n      0x00\n      dup2\n      eq\n      tag_308\n      jumpi\n      mload(0x40)\n      swap2\n      pop\n      and(add(returndatasize, 0x3f), not(0x1f))\n      dup3\n      add\n      0x40\n      mstore\n      returndatasize\n      dup3\n      mstore\n      returndatasize\n      0x00\n      0x20\n      dup5\n      add\n      returndatacopy\n      jump(tag_307)\n    tag_308:\n      0x60\n      swap2\n      pop\n    tag_307:\n      pop\n        /* \"@openzeppelin/contracts/token/ERC1155/ERC1155.sol\":15606:15607  0 */\n      0x00\n        /* \"@openzeppelin/contracts/token/ERC1155/ERC1155.sol\":15589:15595  reason */\n      dup2\n        /* \"@openzeppelin/contracts/token/ERC1155/ERC1155.sol\":15589:15602  reason.length */\n      mload\n        /* \"@openzeppelin/contracts/token/ERC1155/ERC1155.sol\":15589:15607  reason.length == 0 */\n      sub\n        /* \"@openzeppelin/contracts/token/ERC1155/ERC1155.sol\":15585:15934  if (reason.length == 0) {... */\n      tag_309\n      jumpi\n        /* \"@openzeppelin/contracts/token/ERC1155/ERC1155.sol\":15716:15718  to */\n      dup5\n        /* \"@openzeppelin/contracts/token/ERC1155/ERC1155.sol\":15693:15719  ERC1155InvalidReceiver(to) */\n      mload(0x40)\n      0x57f447ce00000000000000000000000000000000000000000000000000000000\n      dup2\n      mstore\n      0x04\n      add\n      tag_310\n      swap2\n      swap1\n      tag_65\n      jump\t// in\n    tag_310:\n      mload(0x40)\n      dup1\n      swap2\n      sub\n      swap1\n      revert\n        /* \"@openzeppelin/contracts/token/ERC1155/ERC1155.sol\":15585:15934  if (reason.length == 0) {... */\n    tag_309:\n        /* \"@openzeppelin/contracts/token/ERC1155/ERC1155.sol\":15886:15892  reason */\n      dup1\n        /* \"@openzeppelin/contracts/token/ERC1155/ERC1155.sol\":15880:15893  mload(reason) */\n      mload\n        /* \"@openzeppelin/contracts/token/ERC1155/ERC1155.sol\":15871:15877  reason */\n      dup2\n        /* \"@openzeppelin/contracts/token/ERC1155/ERC1155.sol\":15867:15869  32 */\n      0x20\n        /* \"@openzeppelin/contracts/token/ERC1155/ERC1155.sol\":15863:15878  add(32, reason) */\n      add\n        /* \"@openzeppelin/contracts/token/ERC1155/ERC1155.sol\":15856:15894  revert(add(32, reason), mload(reason)) */\n      revert\n        /* \"@openzeppelin/contracts/token/ERC1155/ERC1155.sol\":15188:15948  try IERC1155Receiver(to).onERC1155BatchReceived(operator, from, ids, values, data) returns (... */\n    tag_303:\n        /* \"@openzeppelin/contracts/token/ERC1155/ERC1155.sol\":15361:15409  IERC1155Receiver.onERC1155BatchReceived.selector */\n      shl(0xe0, 0xbc197c81)\n        /* \"@openzeppelin/contracts/token/ERC1155/ERC1155.sol\":15349:15409  response != IERC1155Receiver.onERC1155BatchReceived.selector */\n      not(0xffffffffffffffffffffffffffffffffffffffffffffffffffffffff)\n      and\n        /* \"@openzeppelin/contracts/token/ERC1155/ERC1155.sol\":15349:15357  response */\n      dup2\n        /* \"@openzeppelin/contracts/token/ERC1155/ERC1155.sol\":15349:15409  response != IERC1155Receiver.onERC1155BatchReceived.selector */\n      not(0xffffffffffffffffffffffffffffffffffffffffffffffffffffffff)\n      and\n      eq\n        /* \"@openzeppelin/contracts/token/ERC1155/ERC1155.sol\":15345:15524  if (response != IERC1155Receiver.onERC1155BatchReceived.selector) {... */\n      tag_313\n      jumpi\n        /* \"@openzeppelin/contracts/token/ERC1155/ERC1155.sol\":15502:15504  to */\n      dup5\n        /* \"@openzeppelin/contracts/token/ERC1155/ERC1155.sol\":15479:15505  ERC1155InvalidReceiver(to) */\n      mload(0x40)\n      0x57f447ce00000000000000000000000000000000000000000000000000000000\n      dup2\n      mstore\n      0x04\n      add\n      tag_314\n      swap2\n      swap1\n      tag_65\n      jump\t// in\n    tag_314:\n      mload(0x40)\n      dup1\n      swap2\n      sub\n      swap1\n      revert\n        /* \"@openzeppelin/contracts/token/ERC1155/ERC1155.sol\":15345:15524  if (response != IERC1155Receiver.onERC1155BatchReceived.selector) {... */\n    tag_313:\n        /* \"@openzeppelin/contracts/token/ERC1155/ERC1155.sol\":15271:15538  returns (... */\n      pop\n        /* \"@openzeppelin/contracts/token/ERC1155/ERC1155.sol\":15150:15958  if (to.code.length > 0) {... */\n    tag_298:\n        /* \"@openzeppelin/contracts/token/ERC1155/ERC1155.sol\":14923:15964  function _doSafeBatchTransferAcceptanceCheck(... */\n      pop\n      pop\n      pop\n      pop\n      pop\n      pop\n      jump\t// out\n        /* \"#utility.yul\":7:82   */\n    tag_315:\n        /* \"#utility.yul\":40:46   */\n      0x00\n        /* \"#utility.yul\":73:75   */\n      0x40\n        /* \"#utility.yul\":67:76   */\n      mload\n        /* \"#utility.yul\":57:76   */\n      swap1\n      pop\n        /* \"#utility.yul\":7:82   */\n      swap1\n      jump\t// out\n        /* \"#utility.yul\":88:205   */\n    tag_316:\n        /* \"#utility.yul\":197:198   */\n      0x00\n        /* \"#utility.yul\":194:195   */\n      dup1\n        /* \"#utility.yul\":187:199   */\n      revert\n        /* \"#utility.yul\":211:328   */\n    tag_317:\n        /* \"#utility.yul\":320:321   */\n      0x00\n        /* \"#utility.yul\":317:318   */\n      dup1\n        /* \"#utility.yul\":310:322   */\n      revert\n        /* \"#utility.yul\":334:460   */\n    tag_318:\n        /* \"#utility.yul\":371:378   */\n      0x00\n        /* \"#utility.yul\":411:453   */\n      0xffffffffffffffffffffffffffffffffffffffff\n        /* \"#utility.yul\":404:409   */\n      dup3\n        /* \"#utility.yul\":400:454   */\n      and\n        /* \"#utility.yul\":389:454   */\n      swap1\n      pop\n        /* \"#utility.yul\":334:460   */\n      swap2\n      swap1\n      pop\n      jump\t// out\n        /* \"#utility.yul\":466:562   */\n    tag_319:\n        /* \"#utility.yul\":503:510   */\n      0x00\n        /* \"#utility.yul\":532:556   */\n      tag_398\n        /* \"#utility.yul\":550:555   */\n      dup3\n        /* \"#utility.yul\":532:556   */\n      tag_318\n      jump\t// in\n    tag_398:\n        /* \"#utility.yul\":521:556   */\n      swap1\n      pop\n        /* \"#utility.yul\":466:562   */\n      swap2\n      swap1\n      pop\n      jump\t// out\n        /* \"#utility.yul\":568:690   */\n    tag_320:\n        /* \"#utility.yul\":641:665   */\n      tag_400\n        /* \"#utility.yul\":659:664   */\n      dup2\n        /* \"#utility.yul\":641:665   */\n      tag_319\n      jump\t// in\n    tag_400:\n        /* \"#utility.yul\":634:639   */\n      dup2\n        /* \"#utility.yul\":631:666   */\n      eq\n        /* \"#utility.yul\":621:684   */\n      tag_401\n      jumpi\n        /* \"#utility.yul\":680:681   */\n      0x00\n        /* \"#utility.yul\":677:678   */\n      dup1\n        /* \"#utility.yul\":670:682   */\n      revert\n        /* \"#utility.yul\":621:684   */\n    tag_401:\n        /* \"#utility.yul\":568:690   */\n      pop\n      jump\t// out\n        /* \"#utility.yul\":696:835   */\n    tag_321:\n        /* \"#utility.yul\":742:747   */\n      0x00\n        /* \"#utility.yul\":780:786   */\n      dup2\n        /* \"#utility.yul\":767:787   */\n      calldataload\n        /* \"#utility.yul\":758:787   */\n      swap1\n      pop\n        /* \"#utility.yul\":796:829   */\n      tag_403\n        /* \"#utility.yul\":823:828   */\n      dup2\n        /* \"#utility.yul\":796:829   */\n      tag_320\n      jump\t// in\n    tag_403:\n        /* \"#utility.yul\":696:835   */\n      swap3\n      swap2\n      pop\n      pop\n      jump\t// out\n        /* \"#utility.yul\":841:918   */\n    tag_322:\n        /* \"#utility.yul\":878:885   */\n      0x00\n        /* \"#utility.yul\":907:912   */\n      dup2\n        /* \"#utility.yul\":896:912   */\n      swap1\n      pop\n        /* \"#utility.yul\":841:918   */\n      swap2\n      swap1\n      pop\n      jump\t// out\n        /* \"#utility.yul\":924:1046   */\n    tag_323:\n        /* \"#utility.yul\":997:1021   */\n      tag_406\n        /* \"#utility.yul\":1015:1020   */\n      dup2\n        /* \"#utility.yul\":997:1021   */\n      tag_322\n      jump\t// in\n    tag_406:\n        /* \"#utility.yul\":990:995   */\n      dup2\n        /* \"#utility.yul\":987:1022   */\n      eq\n        /* \"#utility.yul\":977:1040   */\n      tag_407\n      jumpi\n        /* \"#utility.yul\":1036:1037   */\n      0x00\n        /* \"#utility.yul\":1033:1034   */\n      dup1\n        /* \"#utility.yul\":1026:1038   */\n      revert\n        /* \"#utility.yul\":977:1040   */\n    tag_407:\n        /* \"#utility.yul\":924:1046   */\n      pop\n      jump\t// out\n        /* \"#utility.yul\":1052:1191   */\n    tag_324:\n        /* \"#utility.yul\":1098:1103   */\n      0x00\n        /* \"#utility.yul\":1136:1142   */\n      dup2\n        /* \"#utility.yul\":1123:1143   */\n      calldataload\n        /* \"#utility.yul\":1114:1143   */\n      swap1\n      pop\n        /* \"#utility.yul\":1152:1185   */\n      tag_409\n        /* \"#utility.yul\":1179:1184   */\n      dup2\n        /* \"#utility.yul\":1152:1185   */\n      tag_323\n      jump\t// in\n    tag_409:\n        /* \"#utility.yul\":1052:1191   */\n      swap3\n      swap2\n      pop\n      pop\n      jump\t// out\n        /* \"#utility.yul\":1197:1671   */\n    tag_22:\n        /* \"#utility.yul\":1265:1271   */\n      0x00\n        /* \"#utility.yul\":1273:1279   */\n      dup1\n        /* \"#utility.yul\":1322:1324   */\n      0x40\n        /* \"#utility.yul\":1310:1319   */\n      dup4\n        /* \"#utility.yul\":1301:1308   */\n      dup6\n        /* \"#utility.yul\":1297:1320   */\n      sub\n        /* \"#utility.yul\":1293:1325   */\n      slt\n        /* \"#utility.yul\":1290:1409   */\n      iszero\n      tag_411\n      jumpi\n        /* \"#utility.yul\":1328:1407   */\n      tag_412\n      tag_316\n      jump\t// in\n    tag_412:\n        /* \"#utility.yul\":1290:1409   */\n    tag_411:\n        /* \"#utility.yul\":1448:1449   */\n      0x00\n        /* \"#utility.yul\":1473:1526   */\n      tag_413\n        /* \"#utility.yul\":1518:1525   */\n      dup6\n        /* \"#utility.yul\":1509:1515   */\n      dup3\n        /* \"#utility.yul\":1498:1507   */\n      dup7\n        /* \"#utility.yul\":1494:1516   */\n      add\n        /* \"#utility.yul\":1473:1526   */\n      tag_321\n      jump\t// in\n    tag_413:\n        /* \"#utility.yul\":1463:1526   */\n      swap3\n      pop\n        /* \"#utility.yul\":1419:1536   */\n      pop\n        /* \"#utility.yul\":1575:1577   */\n      0x20\n        /* \"#utility.yul\":1601:1654   */\n      tag_414\n        /* \"#utility.yul\":1646:1653   */\n      dup6\n        /* \"#utility.yul\":1637:1643   */\n      dup3\n        /* \"#utility.yul\":1626:1635   */\n      dup7\n        /* \"#utility.yul\":1622:1644   */\n      add\n        /* \"#utility.yul\":1601:1654   */\n      tag_324\n      jump\t// in\n    tag_414:\n        /* \"#utility.yul\":1591:1654   */\n      swap2\n      pop\n        /* \"#utility.yul\":1546:1664   */\n      pop\n        /* \"#utility.yul\":1197:1671   */\n      swap3\n      pop\n      swap3\n      swap1\n      pop\n      jump\t// out\n        /* \"#utility.yul\":1677:1795   */\n    tag_325:\n        /* \"#utility.yul\":1764:1788   */\n      tag_416\n        /* \"#utility.yul\":1782:1787   */\n      dup2\n        /* \"#utility.yul\":1764:1788   */\n      tag_322\n      jump\t// in\n    tag_416:\n        /* \"#utility.yul\":1759:1762   */\n      dup3\n        /* \"#utility.yul\":1752:1789   */\n      mstore\n        /* \"#utility.yul\":1677:1795   */\n      pop\n      pop\n      jump\t// out\n        /* \"#utility.yul\":1801:2023   */\n    tag_25:\n        /* \"#utility.yul\":1894:1898   */\n      0x00\n        /* \"#utility.yul\":1932:1934   */\n      0x20\n        /* \"#utility.yul\":1921:1930   */\n      dup3\n        /* \"#utility.yul\":1917:1935   */\n      add\n        /* \"#utility.yul\":1909:1935   */\n      swap1\n      pop\n        /* \"#utility.yul\":1945:2016   */\n      tag_418\n        /* \"#utility.yul\":2013:2014   */\n      0x00\n        /* \"#utility.yul\":2002:2011   */\n      dup4\n        /* \"#utility.yul\":1998:2015   */\n      add\n        /* \"#utility.yul\":1989:1995   */\n      dup5\n        /* \"#utility.yul\":1945:2016   */\n      tag_325\n      jump\t// in\n    tag_418:\n        /* \"#utility.yul\":1801:2023   */\n      swap3\n      swap2\n      pop\n      pop\n      jump\t// out\n        /* \"#utility.yul\":2029:2178   */\n    tag_326:\n        /* \"#utility.yul\":2065:2072   */\n      0x00\n        /* \"#utility.yul\":2105:2171   */\n      0xffffffff00000000000000000000000000000000000000000000000000000000\n        /* \"#utility.yul\":2098:2103   */\n      dup3\n        /* \"#utility.yul\":2094:2172   */\n      and\n        /* \"#utility.yul\":2083:2172   */\n      swap1\n      pop\n        /* \"#utility.yul\":2029:2178   */\n      swap2\n      swap1\n      pop\n      jump\t// out\n        /* \"#utility.yul\":2184:2304   */\n    tag_327:\n        /* \"#utility.yul\":2256:2279   */\n      tag_421\n        /* \"#utility.yul\":2273:2278   */\n      dup2\n        /* \"#utility.yul\":2256:2279   */\n      tag_326\n      jump\t// in\n    tag_421:\n        /* \"#utility.yul\":2249:2254   */\n      dup2\n        /* \"#utility.yul\":2246:2280   */\n      eq\n        /* \"#utility.yul\":2236:2298   */\n      tag_422\n      jumpi\n        /* \"#utility.yul\":2294:2295   */\n      0x00\n        /* \"#utility.yul\":2291:2292   */\n      dup1\n        /* \"#utility.yul\":2284:2296   */\n      revert\n        /* \"#utility.yul\":2236:2298   */\n    tag_422:\n        /* \"#utility.yul\":2184:2304   */\n      pop\n      jump\t// out\n        /* \"#utility.yul\":2310:2447   */\n    tag_328:\n        /* \"#utility.yul\":2355:2360   */\n      0x00\n        /* \"#utility.yul\":2393:2399   */\n      dup2\n        /* \"#utility.yul\":2380:2400   */\n      calldataload\n        /* \"#utility.yul\":2371:2400   */\n      swap1\n      pop\n        /* \"#utility.yul\":2409:2441   */\n      tag_424\n        /* \"#utility.yul\":2435:2440   */\n      dup2\n        /* \"#utility.yul\":2409:2441   */\n      tag_327\n      jump\t// in\n    tag_424:\n        /* \"#utility.yul\":2310:2447   */\n      swap3\n      swap2\n      pop\n      pop\n      jump\t// out\n        /* \"#utility.yul\":2453:2780   */\n    tag_28:\n        /* \"#utility.yul\":2511:2517   */\n      0x00\n        /* \"#utility.yul\":2560:2562   */\n      0x20\n        /* \"#utility.yul\":2548:2557   */\n      dup3\n        /* \"#utility.yul\":2539:2546   */\n      dup5\n        /* \"#utility.yul\":2535:2558   */\n      sub\n        /* \"#utility.yul\":2531:2563   */\n      slt\n        /* \"#utility.yul\":2528:2647   */\n      iszero\n      tag_426\n      jumpi\n        /* \"#utility.yul\":2566:2645   */\n      tag_427\n      tag_316\n      jump\t// in\n    tag_427:\n        /* \"#utility.yul\":2528:2647   */\n    tag_426:\n        /* \"#utility.yul\":2686:2687   */\n      0x00\n        /* \"#utility.yul\":2711:2763   */\n      tag_428\n        /* \"#utility.yul\":2755:2762   */\n      dup5\n        /* \"#utility.yul\":2746:2752   */\n      dup3\n        /* \"#utility.yul\":2735:2744   */\n      dup6\n        /* \"#utility.yul\":2731:2753   */\n      add\n        /* \"#utility.yul\":2711:2763   */\n      tag_328\n      jump\t// in\n    tag_428:\n        /* \"#utility.yul\":2701:2763   */\n      swap2\n      pop\n        /* \"#utility.yul\":2657:2773   */\n      pop\n        /* \"#utility.yul\":2453:2780   */\n      swap3\n      swap2\n      pop\n      pop\n      jump\t// out\n        /* \"#utility.yul\":2786:2876   */\n    tag_329:\n        /* \"#utility.yul\":2820:2827   */\n      0x00\n        /* \"#utility.yul\":2863:2868   */\n      dup2\n        /* \"#utility.yul\":2856:2869   */\n      iszero\n        /* \"#utility.yul\":2849:2870   */\n      iszero\n        /* \"#utility.yul\":2838:2870   */\n      swap1\n      pop\n        /* \"#utility.yul\":2786:2876   */\n      swap2\n      swap1\n      pop\n      jump\t// out\n        /* \"#utility.yul\":2882:2991   */\n    tag_330:\n        /* \"#utility.yul\":2963:2984   */\n      tag_431\n        /* \"#utility.yul\":2978:2983   */\n      dup2\n        /* \"#utility.yul\":2963:2984   */\n      tag_329\n      jump\t// in\n    tag_431:\n        /* \"#utility.yul\":2958:2961   */\n      dup3\n        /* \"#utility.yul\":2951:2985   */\n      mstore\n        /* \"#utility.yul\":2882:2991   */\n      pop\n      pop\n      jump\t// out\n        /* \"#utility.yul\":2997:3207   */\n    tag_31:\n        /* \"#utility.yul\":3084:3088   */\n      0x00\n        /* \"#utility.yul\":3122:3124   */\n      0x20\n        /* \"#utility.yul\":3111:3120   */\n      dup3\n        /* \"#utility.yul\":3107:3125   */\n      add\n        /* \"#utility.yul\":3099:3125   */\n      swap1\n      pop\n        /* \"#utility.yul\":3135:3200   */\n      tag_433\n        /* \"#utility.yul\":3197:3198   */\n      0x00\n        /* \"#utility.yul\":3186:3195   */\n      dup4\n        /* \"#utility.yul\":3182:3199   */\n      add\n        /* \"#utility.yul\":3173:3179   */\n      dup5\n        /* \"#utility.yul\":3135:3200   */\n      tag_330\n      jump\t// in\n    tag_433:\n        /* \"#utility.yul\":2997:3207   */\n      swap3\n      swap2\n      pop\n      pop\n      jump\t// out\n        /* \"#utility.yul\":3213:3330   */\n    tag_331:\n        /* \"#utility.yul\":3322:3323   */\n      0x00\n        /* \"#utility.yul\":3319:3320   */\n      dup1\n        /* \"#utility.yul\":3312:3324   */\n      revert\n        /* \"#utility.yul\":3336:3453   */\n    tag_332:\n        /* \"#utility.yul\":3445:3446   */\n      0x00\n        /* \"#utility.yul\":3442:3443   */\n      dup1\n        /* \"#utility.yul\":3435:3447   */\n      revert\n        /* \"#utility.yul\":3459:3561   */\n    tag_333:\n        /* \"#utility.yul\":3500:3506   */\n      0x00\n        /* \"#utility.yul\":3551:3553   */\n      0x1f\n        /* \"#utility.yul\":3547:3554   */\n      not\n        /* \"#utility.yul\":3542:3544   */\n      0x1f\n        /* \"#utility.yul\":3535:3540   */\n      dup4\n        /* \"#utility.yul\":3531:3545   */\n      add\n        /* \"#utility.yul\":3527:3555   */\n      and\n        /* \"#utility.yul\":3517:3555   */\n      swap1\n      pop\n        /* \"#utility.yul\":3459:3561   */\n      swap2\n      swap1\n      pop\n      jump\t// out\n        /* \"#utility.yul\":3567:3747   */\n    tag_121:\n        /* \"#utility.yul\":3615:3692   */\n      0x4e487b7100000000000000000000000000000000000000000000000000000000\n        /* \"#utility.yul\":3612:3613   */\n      0x00\n        /* \"#utility.yul\":3605:3693   */\n      mstore\n        /* \"#utility.yul\":3712:3716   */\n      0x41\n        /* \"#utility.yul\":3709:3710   */\n      0x04\n        /* \"#utility.yul\":3702:3717   */\n      mstore\n        /* \"#utility.yul\":3736:3740   */\n      0x24\n        /* \"#utility.yul\":3733:3734   */\n      0x00\n        /* \"#utility.yul\":3726:3741   */\n      revert\n        /* \"#utility.yul\":3753:4034   */\n    tag_334:\n        /* \"#utility.yul\":3836:3863   */\n      tag_439\n        /* \"#utility.yul\":3858:3862   */\n      dup3\n        /* \"#utility.yul\":3836:3863   */\n      tag_333\n      jump\t// in\n    tag_439:\n        /* \"#utility.yul\":3828:3834   */\n      dup2\n        /* \"#utility.yul\":3824:3864   */\n      add\n        /* \"#utility.yul\":3966:3972   */\n      dup2\n        /* \"#utility.yul\":3954:3964   */\n      dup2\n        /* \"#utility.yul\":3951:3973   */\n      lt\n        /* \"#utility.yul\":3930:3948   */\n      0xffffffffffffffff\n        /* \"#utility.yul\":3918:3928   */\n      dup3\n        /* \"#utility.yul\":3915:3949   */\n      gt\n        /* \"#utility.yul\":3912:3974   */\n      or\n        /* \"#utility.yul\":3909:3997   */\n      iszero\n      tag_440\n      jumpi\n        /* \"#utility.yul\":3977:3995   */\n      tag_441\n      tag_121\n      jump\t// in\n    tag_441:\n        /* \"#utility.yul\":3909:3997   */\n    tag_440:\n        /* \"#utility.yul\":4017:4027   */\n      dup1\n        /* \"#utility.yul\":4013:4015   */\n      0x40\n        /* \"#utility.yul\":4006:4028   */\n      mstore\n        /* \"#utility.yul\":3796:4034   */\n      pop\n        /* \"#utility.yul\":3753:4034   */\n      pop\n      pop\n      jump\t// out\n        /* \"#utility.yul\":4040:4169   */\n    tag_335:\n        /* \"#utility.yul\":4074:4080   */\n      0x00\n        /* \"#utility.yul\":4101:4121   */\n      tag_443\n      tag_315\n      jump\t// in\n    tag_443:\n        /* \"#utility.yul\":4091:4121   */\n      swap1\n      pop\n        /* \"#utility.yul\":4130:4163   */\n      tag_444\n        /* \"#utility.yul\":4158:4162   */\n      dup3\n        /* \"#utility.yul\":4150:4156   */\n      dup3\n        /* \"#utility.yul\":4130:4163   */\n      tag_334\n      jump\t// in\n    tag_444:\n        /* \"#utility.yul\":4040:4169   */\n      swap2\n      swap1\n      pop\n      jump\t// out\n        /* \"#utility.yul\":4175:4483   */\n    tag_336:\n        /* \"#utility.yul\":4237:4241   */\n      0x00\n        /* \"#utility.yul\":4327:4345   */\n      0xffffffffffffffff\n        /* \"#utility.yul\":4319:4325   */\n      dup3\n        /* \"#utility.yul\":4316:4346   */\n      gt\n        /* \"#utility.yul\":4313:4369   */\n      iszero\n      tag_446\n      jumpi\n        /* \"#utility.yul\":4349:4367   */\n      tag_447\n      tag_121\n      jump\t// in\n    tag_447:\n        /* \"#utility.yul\":4313:4369   */\n    tag_446:\n        /* \"#utility.yul\":4387:4416   */\n      tag_448\n        /* \"#utility.yul\":4409:4415   */\n      dup3\n        /* \"#utility.yul\":4387:4416   */\n      tag_333\n      jump\t// in\n    tag_448:\n        /* \"#utility.yul\":4379:4416   */\n      swap1\n      pop\n        /* \"#utility.yul\":4471:4475   */\n      0x20\n        /* \"#utility.yul\":4465:4469   */\n      dup2\n        /* \"#utility.yul\":4461:4476   */\n      add\n        /* \"#utility.yul\":4453:4476   */\n      swap1\n      pop\n        /* \"#utility.yul\":4175:4483   */\n      swap2\n      swap1\n      pop\n      jump\t// out\n        /* \"#utility.yul\":4489:4635   */\n    tag_337:\n        /* \"#utility.yul\":4586:4592   */\n      dup3\n        /* \"#utility.yul\":4581:4584   */\n      dup2\n        /* \"#utility.yul\":4576:4579   */\n      dup4\n        /* \"#utility.yul\":4563:4593   */\n      calldatacopy\n        /* \"#utility.yul\":4627:4628   */\n      0x00\n        /* \"#utility.yul\":4618:4624   */\n      dup4\n        /* \"#utility.yul\":4613:4616   */\n      dup4\n        /* \"#utility.yul\":4609:4625   */\n      add\n        /* \"#utility.yul\":4602:4629   */\n      mstore\n        /* \"#utility.yul\":4489:4635   */\n      pop\n      pop\n      pop\n      jump\t// out\n        /* \"#utility.yul\":4641:5066   */\n    tag_338:\n        /* \"#utility.yul\":4719:4724   */\n      0x00\n        /* \"#utility.yul\":4744:4810   */\n      tag_451\n        /* \"#utility.yul\":4760:4809   */\n      tag_452\n        /* \"#utility.yul\":4802:4808   */\n      dup5\n        /* \"#utility.yul\":4760:4809   */\n      tag_336\n      jump\t// in\n    tag_452:\n        /* \"#utility.yul\":4744:4810   */\n      tag_335\n      jump\t// in\n    tag_451:\n        /* \"#utility.yul\":4735:4810   */\n      swap1\n      pop\n        /* \"#utility.yul\":4833:4839   */\n      dup3\n        /* \"#utility.yul\":4826:4831   */\n      dup2\n        /* \"#utility.yul\":4819:4840   */\n      mstore\n        /* \"#utility.yul\":4871:4875   */\n      0x20\n        /* \"#utility.yul\":4864:4869   */\n      dup2\n        /* \"#utility.yul\":4860:4876   */\n      add\n        /* \"#utility.yul\":4909:4912   */\n      dup5\n        /* \"#utility.yul\":4900:4906   */\n      dup5\n        /* \"#utility.yul\":4895:4898   */\n      dup5\n        /* \"#utility.yul\":4891:4907   */\n      add\n        /* \"#utility.yul\":4888:4913   */\n      gt\n        /* \"#utility.yul\":4885:4997   */\n      iszero\n      tag_453\n      jumpi\n        /* \"#utility.yul\":4916:4995   */\n      tag_454\n      tag_332\n      jump\t// in\n    tag_454:\n        /* \"#utility.yul\":4885:4997   */\n    tag_453:\n        /* \"#utility.yul\":5006:5060   */\n      tag_455\n        /* \"#utility.yul\":5053:5059   */\n      dup5\n        /* \"#utility.yul\":5048:5051   */\n      dup3\n        /* \"#utility.yul\":5043:5046   */\n      dup6\n        /* \"#utility.yul\":5006:5060   */\n      tag_337\n      jump\t// in\n    tag_455:\n        /* \"#utility.yul\":4725:5066   */\n      pop\n        /* \"#utility.yul\":4641:5066   */\n      swap4\n      swap3\n      pop\n      pop\n      pop\n      jump\t// out\n        /* \"#utility.yul\":5086:5426   */\n    tag_339:\n        /* \"#utility.yul\":5142:5147   */\n      0x00\n        /* \"#utility.yul\":5191:5194   */\n      dup3\n        /* \"#utility.yul\":5184:5188   */\n      0x1f\n        /* \"#utility.yul\":5176:5182   */\n      dup4\n        /* \"#utility.yul\":5172:5189   */\n      add\n        /* \"#utility.yul\":5168:5195   */\n      slt\n        /* \"#utility.yul\":5158:5280   */\n      tag_457\n      jumpi\n        /* \"#utility.yul\":5199:5278   */\n      tag_458\n      tag_331\n      jump\t// in\n    tag_458:\n        /* \"#utility.yul\":5158:5280   */\n    tag_457:\n        /* \"#utility.yul\":5316:5322   */\n      dup2\n        /* \"#utility.yul\":5303:5323   */\n      calldataload\n        /* \"#utility.yul\":5341:5420   */\n      tag_459\n        /* \"#utility.yul\":5416:5419   */\n      dup5\n        /* \"#utility.yul\":5408:5414   */\n      dup3\n        /* \"#utility.yul\":5401:5405   */\n      0x20\n        /* \"#utility.yul\":5393:5399   */\n      dup7\n        /* \"#utility.yul\":5389:5406   */\n      add\n        /* \"#utility.yul\":5341:5420   */\n      tag_338\n      jump\t// in\n    tag_459:\n        /* \"#utility.yul\":5332:5420   */\n      swap2\n      pop\n        /* \"#utility.yul\":5148:5426   */\n      pop\n        /* \"#utility.yul\":5086:5426   */\n      swap3\n      swap2\n      pop\n      pop\n      jump\t// out\n        /* \"#utility.yul\":5432:5941   */\n    tag_34:\n        /* \"#utility.yul\":5501:5507   */\n      0x00\n        /* \"#utility.yul\":5550:5552   */\n      0x20\n        /* \"#utility.yul\":5538:5547   */\n      dup3\n        /* \"#utility.yul\":5529:5536   */\n      dup5\n        /* \"#utility.yul\":5525:5548   */\n      sub\n        /* \"#utility.yul\":5521:5553   */\n      slt\n        /* \"#utility.yul\":5518:5637   */\n      iszero\n      tag_461\n      jumpi\n        /* \"#utility.yul\":5556:5635   */\n      tag_462\n      tag_316\n      jump\t// in\n    tag_462:\n        /* \"#utility.yul\":5518:5637   */\n    tag_461:\n        /* \"#utility.yul\":5704:5705   */\n      0x00\n        /* \"#utility.yul\":5693:5702   */\n      dup3\n        /* \"#utility.yul\":5689:5706   */\n      add\n        /* \"#utility.yul\":5676:5707   */\n      calldataload\n        /* \"#utility.yul\":5734:5752   */\n      0xffffffffffffffff\n        /* \"#utility.yul\":5726:5732   */\n      dup2\n        /* \"#utility.yul\":5723:5753   */\n      gt\n        /* \"#utility.yul\":5720:5837   */\n      iszero\n      tag_463\n      jumpi\n        /* \"#utility.yul\":5756:5835   */\n      tag_464\n      tag_317\n      jump\t// in\n    tag_464:\n        /* \"#utility.yul\":5720:5837   */\n    tag_463:\n        /* \"#utility.yul\":5861:5924   */\n      tag_465\n        /* \"#utility.yul\":5916:5923   */\n      dup5\n        /* \"#utility.yul\":5907:5913   */\n      dup3\n        /* \"#utility.yul\":5896:5905   */\n      dup6\n        /* \"#utility.yul\":5892:5914   */\n      add\n        /* \"#utility.yul\":5861:5924   */\n      tag_339\n      jump\t// in\n    tag_465:\n        /* \"#utility.yul\":5851:5924   */\n      swap2\n      pop\n        /* \"#utility.yul\":5647:5934   */\n      pop\n        /* \"#utility.yul\":5432:5941   */\n      swap3\n      swap2\n      pop\n      pop\n      jump\t// out\n        /* \"#utility.yul\":5947:6276   */\n    tag_38:\n        /* \"#utility.yul\":6006:6012   */\n      0x00\n        /* \"#utility.yul\":6055:6057   */\n      0x20\n        /* \"#utility.yul\":6043:6052   */\n      dup3\n        /* \"#utility.yul\":6034:6041   */\n      dup5\n        /* \"#utility.yul\":6030:6053   */\n      sub\n        /* \"#utility.yul\":6026:6058   */\n      slt\n        /* \"#utility.yul\":6023:6142   */\n      iszero\n      tag_467\n      jumpi\n        /* \"#utility.yul\":6061:6140   */\n      tag_468\n      tag_316\n      jump\t// in\n    tag_468:\n        /* \"#utility.yul\":6023:6142   */\n    tag_467:\n        /* \"#utility.yul\":6181:6182   */\n      0x00\n        /* \"#utility.yul\":6206:6259   */\n      tag_469\n        /* \"#utility.yul\":6251:6258   */\n      dup5\n        /* \"#utility.yul\":6242:6248   */\n      dup3\n        /* \"#utility.yul\":6231:6240   */\n      dup6\n        /* \"#utility.yul\":6227:6249   */\n      add\n        /* \"#utility.yul\":6206:6259   */\n      tag_324\n      jump\t// in\n    tag_469:\n        /* \"#utility.yul\":6196:6259   */\n      swap2\n      pop\n        /* \"#utility.yul\":6152:6269   */\n      pop\n        /* \"#utility.yul\":5947:6276   */\n      swap3\n      swap2\n      pop\n      pop\n      jump\t// out\n        /* \"#utility.yul\":6282:6381   */\n    tag_340:\n        /* \"#utility.yul\":6334:6340   */\n      0x00\n        /* \"#utility.yul\":6368:6373   */\n      dup2\n        /* \"#utility.yul\":6362:6374   */\n      mload\n        /* \"#utility.yul\":6352:6374   */\n      swap1\n      pop\n        /* \"#utility.yul\":6282:6381   */\n      swap2\n      swap1\n      pop\n      jump\t// out\n        /* \"#utility.yul\":6387:6556   */\n    tag_341:\n        /* \"#utility.yul\":6471:6482   */\n      0x00\n        /* \"#utility.yul\":6505:6511   */\n      dup3\n        /* \"#utility.yul\":6500:6503   */\n      dup3\n        /* \"#utility.yul\":6493:6512   */\n      mstore\n        /* \"#utility.yul\":6545:6549   */\n      0x20\n        /* \"#utility.yul\":6540:6543   */\n      dup3\n        /* \"#utility.yul\":6536:6550   */\n      add\n        /* \"#utility.yul\":6521:6550   */\n      swap1\n      pop\n        /* \"#utility.yul\":6387:6556   */\n      swap3\n      swap2\n      pop\n      pop\n      jump\t// out\n        /* \"#utility.yul\":6562:6808   */\n    tag_342:\n        /* \"#utility.yul\":6643:6644   */\n      0x00\n        /* \"#utility.yul\":6653:6766   */\n    tag_473:\n        /* \"#utility.yul\":6667:6673   */\n      dup4\n        /* \"#utility.yul\":6664:6665   */\n      dup2\n        /* \"#utility.yul\":6661:6674   */\n      lt\n        /* \"#utility.yul\":6653:6766   */\n      iszero\n      tag_475\n      jumpi\n        /* \"#utility.yul\":6752:6753   */\n      dup1\n        /* \"#utility.yul\":6747:6750   */\n      dup3\n        /* \"#utility.yul\":6743:6754   */\n      add\n        /* \"#utility.yul\":6737:6755   */\n      mload\n        /* \"#utility.yul\":6733:6734   */\n      dup2\n        /* \"#utility.yul\":6728:6731   */\n      dup5\n        /* \"#utility.yul\":6724:6735   */\n      add\n        /* \"#utility.yul\":6717:6756   */\n      mstore\n        /* \"#utility.yul\":6689:6691   */\n      0x20\n        /* \"#utility.yul\":6686:6687   */\n      dup2\n        /* \"#utility.yul\":6682:6692   */\n      add\n        /* \"#utility.yul\":6677:6692   */\n      swap1\n      pop\n        /* \"#utility.yul\":6653:6766   */\n      jump(tag_473)\n    tag_475:\n        /* \"#utility.yul\":6800:6801   */\n      0x00\n        /* \"#utility.yul\":6791:6797   */\n      dup5\n        /* \"#utility.yul\":6786:6789   */\n      dup5\n        /* \"#utility.yul\":6782:6798   */\n      add\n        /* \"#utility.yul\":6775:6802   */\n      mstore\n        /* \"#utility.yul\":6624:6808   */\n      pop\n        /* \"#utility.yul\":6562:6808   */\n      pop\n      pop\n      pop\n      jump\t// out\n        /* \"#utility.yul\":6814:7191   */\n    tag_343:\n        /* \"#utility.yul\":6902:6905   */\n      0x00\n        /* \"#utility.yul\":6930:6969   */\n      tag_477\n        /* \"#utility.yul\":6963:6968   */\n      dup3\n        /* \"#utility.yul\":6930:6969   */\n      tag_340\n      jump\t// in\n    tag_477:\n        /* \"#utility.yul\":6985:7056   */\n      tag_478\n        /* \"#utility.yul\":7049:7055   */\n      dup2\n        /* \"#utility.yul\":7044:7047   */\n      dup6\n        /* \"#utility.yul\":6985:7056   */\n      tag_341\n      jump\t// in\n    tag_478:\n        /* \"#utility.yul\":6978:7056   */\n      swap4\n      pop\n        /* \"#utility.yul\":7065:7130   */\n      tag_479\n        /* \"#utility.yul\":7123:7129   */\n      dup2\n        /* \"#utility.yul\":7118:7121   */\n      dup6\n        /* \"#utility.yul\":7111:7115   */\n      0x20\n        /* \"#utility.yul\":7104:7109   */\n      dup7\n        /* \"#utility.yul\":7100:7116   */\n      add\n        /* \"#utility.yul\":7065:7130   */\n      tag_342\n      jump\t// in\n    tag_479:\n        /* \"#utility.yul\":7155:7184   */\n      tag_480\n        /* \"#utility.yul\":7177:7183   */\n      dup2\n        /* \"#utility.yul\":7155:7184   */\n      tag_333\n      jump\t// in\n    tag_480:\n        /* \"#utility.yul\":7150:7153   */\n      dup5\n        /* \"#utility.yul\":7146:7185   */\n      add\n        /* \"#utility.yul\":7139:7185   */\n      swap2\n      pop\n        /* \"#utility.yul\":6906:7191   */\n      pop\n        /* \"#utility.yul\":6814:7191   */\n      swap3\n      swap2\n      pop\n      pop\n      jump\t// out\n        /* \"#utility.yul\":7197:7510   */\n    tag_41:\n        /* \"#utility.yul\":7310:7314   */\n      0x00\n        /* \"#utility.yul\":7348:7350   */\n      0x20\n        /* \"#utility.yul\":7337:7346   */\n      dup3\n        /* \"#utility.yul\":7333:7351   */\n      add\n        /* \"#utility.yul\":7325:7351   */\n      swap1\n      pop\n        /* \"#utility.yul\":7397:7406   */\n      dup2\n        /* \"#utility.yul\":7391:7395   */\n      dup2\n        /* \"#utility.yul\":7387:7407   */\n      sub\n        /* \"#utility.yul\":7383:7384   */\n      0x00\n        /* \"#utility.yul\":7372:7381   */\n      dup4\n        /* \"#utility.yul\":7368:7385   */\n      add\n        /* \"#utility.yul\":7361:7408   */\n      mstore\n        /* \"#utility.yul\":7425:7503   */\n      tag_482\n        /* \"#utility.yul\":7498:7502   */\n      dup2\n        /* \"#utility.yul\":7489:7495   */\n      dup5\n        /* \"#utility.yul\":7425:7503   */\n      tag_343\n      jump\t// in\n    tag_482:\n        /* \"#utility.yul\":7417:7503   */\n      swap1\n      pop\n        /* \"#utility.yul\":7197:7510   */\n      swap3\n      swap2\n      pop\n      pop\n      jump\t// out\n        /* \"#utility.yul\":7516:7827   */\n    tag_344:\n        /* \"#utility.yul\":7593:7597   */\n      0x00\n        /* \"#utility.yul\":7683:7701   */\n      0xffffffffffffffff\n        /* \"#utility.yul\":7675:7681   */\n      dup3\n        /* \"#utility.yul\":7672:7702   */\n      gt\n        /* \"#utility.yul\":7669:7725   */\n      iszero\n      tag_484\n      jumpi\n        /* \"#utility.yul\":7705:7723   */\n      tag_485\n      tag_121\n      jump\t// in\n    tag_485:\n        /* \"#utility.yul\":7669:7725   */\n    tag_484:\n        /* \"#utility.yul\":7755:7759   */\n      0x20\n        /* \"#utility.yul\":7747:7753   */\n      dup3\n        /* \"#utility.yul\":7743:7760   */\n      mul\n        /* \"#utility.yul\":7735:7760   */\n      swap1\n      pop\n        /* \"#utility.yul\":7815:7819   */\n      0x20\n        /* \"#utility.yul\":7809:7813   */\n      dup2\n        /* \"#utility.yul\":7805:7820   */\n      add\n        /* \"#utility.yul\":7797:7820   */\n      swap1\n      pop\n        /* \"#utility.yul\":7516:7827   */\n      swap2\n      swap1\n      pop\n      jump\t// out\n        /* \"#utility.yul\":7833:7950   */\n    tag_345:\n        /* \"#utility.yul\":7942:7943   */\n      0x00\n        /* \"#utility.yul\":7939:7940   */\n      dup1\n        /* \"#utility.yul\":7932:7944   */\n      revert\n        /* \"#utility.yul\":7973:8683   */\n    tag_346:\n        /* \"#utility.yul\":8069:8074   */\n      0x00\n        /* \"#utility.yul\":8094:8175   */\n      tag_488\n        /* \"#utility.yul\":8110:8174   */\n      tag_489\n        /* \"#utility.yul\":8167:8173   */\n      dup5\n        /* \"#utility.yul\":8110:8174   */\n      tag_344\n      jump\t// in\n    tag_489:\n        /* \"#utility.yul\":8094:8175   */\n      tag_335\n      jump\t// in\n    tag_488:\n        /* \"#utility.yul\":8085:8175   */\n      swap1\n      pop\n        /* \"#utility.yul\":8195:8200   */\n      dup1\n        /* \"#utility.yul\":8224:8230   */\n      dup4\n        /* \"#utility.yul\":8217:8222   */\n      dup3\n        /* \"#utility.yul\":8210:8231   */\n      mstore\n        /* \"#utility.yul\":8258:8262   */\n      0x20\n        /* \"#utility.yul\":8251:8256   */\n      dup3\n        /* \"#utility.yul\":8247:8263   */\n      add\n        /* \"#utility.yul\":8240:8263   */\n      swap1\n      pop\n        /* \"#utility.yul\":8311:8315   */\n      0x20\n        /* \"#utility.yul\":8303:8309   */\n      dup5\n        /* \"#utility.yul\":8299:8316   */\n      mul\n        /* \"#utility.yul\":8291:8297   */\n      dup4\n        /* \"#utility.yul\":8287:8317   */\n      add\n        /* \"#utility.yul\":8340:8343   */\n      dup6\n        /* \"#utility.yul\":8332:8338   */\n      dup2\n        /* \"#utility.yul\":8329:8344   */\n      gt\n        /* \"#utility.yul\":8326:8448   */\n      iszero\n      tag_490\n      jumpi\n        /* \"#utility.yul\":8359:8438   */\n      tag_491\n      tag_345\n      jump\t// in\n    tag_491:\n        /* \"#utility.yul\":8326:8448   */\n    tag_490:\n        /* \"#utility.yul\":8474:8480   */\n      dup4\n        /* \"#utility.yul\":8457:8677   */\n    tag_492:\n        /* \"#utility.yul\":8491:8497   */\n      dup2\n        /* \"#utility.yul\":8486:8489   */\n      dup2\n        /* \"#utility.yul\":8483:8498   */\n      lt\n        /* \"#utility.yul\":8457:8677   */\n      iszero\n      tag_494\n      jumpi\n        /* \"#utility.yul\":8566:8569   */\n      dup1\n        /* \"#utility.yul\":8595:8632   */\n      tag_495\n        /* \"#utility.yul\":8628:8631   */\n      dup9\n        /* \"#utility.yul\":8616:8626   */\n      dup3\n        /* \"#utility.yul\":8595:8632   */\n      tag_324\n      jump\t// in\n    tag_495:\n        /* \"#utility.yul\":8590:8593   */\n      dup5\n        /* \"#utility.yul\":8583:8633   */\n      mstore\n        /* \"#utility.yul\":8662:8666   */\n      0x20\n        /* \"#utility.yul\":8657:8660   */\n      dup5\n        /* \"#utility.yul\":8653:8667   */\n      add\n        /* \"#utility.yul\":8646:8667   */\n      swap4\n      pop\n        /* \"#utility.yul\":8533:8677   */\n      pop\n        /* \"#utility.yul\":8517:8521   */\n      0x20\n        /* \"#utility.yul\":8512:8515   */\n      dup2\n        /* \"#utility.yul\":8508:8522   */\n      add\n        /* \"#utility.yul\":8501:8522   */\n      swap1\n      pop\n        /* \"#utility.yul\":8457:8677   */\n      jump(tag_492)\n    tag_494:\n        /* \"#utility.yul\":8461:8482   */\n      pop\n        /* \"#utility.yul\":8075:8683   */\n      pop\n      pop\n        /* \"#utility.yul\":7973:8683   */\n      swap4\n      swap3\n      pop\n      pop\n      pop\n      jump\t// out\n        /* \"#utility.yul\":8706:9076   */\n    tag_347:\n        /* \"#utility.yul\":8777:8782   */\n      0x00\n        /* \"#utility.yul\":8826:8829   */\n      dup3\n        /* \"#utility.yul\":8819:8823   */\n      0x1f\n        /* \"#utility.yul\":8811:8817   */\n      dup4\n        /* \"#utility.yul\":8807:8824   */\n      add\n        /* \"#utility.yul\":8803:8830   */\n      slt\n        /* \"#utility.yul\":8793:8915   */\n      tag_497\n      jumpi\n        /* \"#utility.yul\":8834:8913   */\n      tag_498\n      tag_331\n      jump\t// in\n    tag_498:\n        /* \"#utility.yul\":8793:8915   */\n    tag_497:\n        /* \"#utility.yul\":8951:8957   */\n      dup2\n        /* \"#utility.yul\":8938:8958   */\n      calldataload\n        /* \"#utility.yul\":8976:9070   */\n      tag_499\n        /* \"#utility.yul\":9066:9069   */\n      dup5\n        /* \"#utility.yul\":9058:9064   */\n      dup3\n        /* \"#utility.yul\":9051:9055   */\n      0x20\n        /* \"#utility.yul\":9043:9049   */\n      dup7\n        /* \"#utility.yul\":9039:9056   */\n      add\n        /* \"#utility.yul\":8976:9070   */\n      tag_346\n      jump\t// in\n    tag_499:\n        /* \"#utility.yul\":8967:9070   */\n      swap2\n      pop\n        /* \"#utility.yul\":8783:9076   */\n      pop\n        /* \"#utility.yul\":8706:9076   */\n      swap3\n      swap2\n      pop\n      pop\n      jump\t// out\n        /* \"#utility.yul\":9082:9389   */\n    tag_348:\n        /* \"#utility.yul\":9143:9147   */\n      0x00\n        /* \"#utility.yul\":9233:9251   */\n      0xffffffffffffffff\n        /* \"#utility.yul\":9225:9231   */\n      dup3\n        /* \"#utility.yul\":9222:9252   */\n      gt\n        /* \"#utility.yul\":9219:9275   */\n      iszero\n      tag_501\n      jumpi\n        /* \"#utility.yul\":9255:9273   */\n      tag_502\n      tag_121\n      jump\t// in\n    tag_502:\n        /* \"#utility.yul\":9219:9275   */\n    tag_501:\n        /* \"#utility.yul\":9293:9322   */\n      tag_503\n        /* \"#utility.yul\":9315:9321   */\n      dup3\n        /* \"#utility.yul\":9293:9322   */\n      tag_333\n      jump\t// in\n    tag_503:\n        /* \"#utility.yul\":9285:9322   */\n      swap1\n      pop\n        /* \"#utility.yul\":9377:9381   */\n      0x20\n        /* \"#utility.yul\":9371:9375   */\n      dup2\n        /* \"#utility.yul\":9367:9382   */\n      add\n        /* \"#utility.yul\":9359:9382   */\n      swap1\n      pop\n        /* \"#utility.yul\":9082:9389   */\n      swap2\n      swap1\n      pop\n      jump\t// out\n        /* \"#utility.yul\":9395:9818   */\n    tag_349:\n        /* \"#utility.yul\":9472:9477   */\n      0x00\n        /* \"#utility.yul\":9497:9562   */\n      tag_505\n        /* \"#utility.yul\":9513:9561   */\n      tag_506\n        /* \"#utility.yul\":9554:9560   */\n      dup5\n        /* \"#utility.yul\":9513:9561   */\n      tag_348\n      jump\t// in\n    tag_506:\n        /* \"#utility.yul\":9497:9562   */\n      tag_335\n      jump\t// in\n    tag_505:\n        /* \"#utility.yul\":9488:9562   */\n      swap1\n      pop\n        /* \"#utility.yul\":9585:9591   */\n      dup3\n        /* \"#utility.yul\":9578:9583   */\n      dup2\n        /* \"#utility.yul\":9571:9592   */\n      mstore\n        /* \"#utility.yul\":9623:9627   */\n      0x20\n        /* \"#utility.yul\":9616:9621   */\n      dup2\n        /* \"#utility.yul\":9612:9628   */\n      add\n        /* \"#utility.yul\":9661:9664   */\n      dup5\n        /* \"#utility.yul\":9652:9658   */\n      dup5\n        /* \"#utility.yul\":9647:9650   */\n      dup5\n        /* \"#utility.yul\":9643:9659   */\n      add\n        /* \"#utility.yul\":9640:9665   */\n      gt\n        /* \"#utility.yul\":9637:9749   */\n      iszero\n      tag_507\n      jumpi\n        /* \"#utility.yul\":9668:9747   */\n      tag_508\n      tag_332\n      jump\t// in\n    tag_508:\n        /* \"#utility.yul\":9637:9749   */\n    tag_507:\n        /* \"#utility.yul\":9758:9812   */\n      tag_509\n        /* \"#utility.yul\":9805:9811   */\n      dup5\n        /* \"#utility.yul\":9800:9803   */\n      dup3\n        /* \"#utility.yul\":9795:9798   */\n      dup6\n        /* \"#utility.yul\":9758:9812   */\n      tag_337\n      jump\t// in\n    tag_509:\n        /* \"#utility.yul\":9478:9818   */\n      pop\n        /* \"#utility.yul\":9395:9818   */\n      swap4\n      swap3\n      pop\n      pop\n      pop\n      jump\t// out\n        /* \"#utility.yul\":9837:10175   */\n    tag_350:\n        /* \"#utility.yul\":9892:9897   */\n      0x00\n        /* \"#utility.yul\":9941:9944   */\n      dup3\n        /* \"#utility.yul\":9934:9938   */\n      0x1f\n        /* \"#utility.yul\":9926:9932   */\n      dup4\n        /* \"#utility.yul\":9922:9939   */\n      add\n        /* \"#utility.yul\":9918:9945   */\n      slt\n        /* \"#utility.yul\":9908:10030   */\n      tag_511\n      jumpi\n        /* \"#utility.yul\":9949:10028   */\n      tag_512\n      tag_331\n      jump\t// in\n    tag_512:\n        /* \"#utility.yul\":9908:10030   */\n    tag_511:\n        /* \"#utility.yul\":10066:10072   */\n      dup2\n        /* \"#utility.yul\":10053:10073   */\n      calldataload\n        /* \"#utility.yul\":10091:10169   */\n      tag_513\n        /* \"#utility.yul\":10165:10168   */\n      dup5\n        /* \"#utility.yul\":10157:10163   */\n      dup3\n        /* \"#utility.yul\":10150:10154   */\n      0x20\n        /* \"#utility.yul\":10142:10148   */\n      dup7\n        /* \"#utility.yul\":10138:10155   */\n      add\n        /* \"#utility.yul\":10091:10169   */\n      tag_349\n      jump\t// in\n    tag_513:\n        /* \"#utility.yul\":10082:10169   */\n      swap2\n      pop\n        /* \"#utility.yul\":9898:10175   */\n      pop\n        /* \"#utility.yul\":9837:10175   */\n      swap3\n      swap2\n      pop\n      pop\n      jump\t// out\n        /* \"#utility.yul\":10181:11544   */\n    tag_44:\n        /* \"#utility.yul\":10326:10332   */\n      0x00\n        /* \"#utility.yul\":10334:10340   */\n      dup1\n        /* \"#utility.yul\":10342:10348   */\n      0x00\n        /* \"#utility.yul\":10350:10356   */\n      dup1\n        /* \"#utility.yul\":10399:10402   */\n      0x80\n        /* \"#utility.yul\":10387:10396   */\n      dup6\n        /* \"#utility.yul\":10378:10385   */\n      dup8\n        /* \"#utility.yul\":10374:10397   */\n      sub\n        /* \"#utility.yul\":10370:10403   */\n      slt\n        /* \"#utility.yul\":10367:10487   */\n      iszero\n      tag_515\n      jumpi\n        /* \"#utility.yul\":10406:10485   */\n      tag_516\n      tag_316\n      jump\t// in\n    tag_516:\n        /* \"#utility.yul\":10367:10487   */\n    tag_515:\n        /* \"#utility.yul\":10526:10527   */\n      0x00\n        /* \"#utility.yul\":10551:10604   */\n      tag_517\n        /* \"#utility.yul\":10596:10603   */\n      dup8\n        /* \"#utility.yul\":10587:10593   */\n      dup3\n        /* \"#utility.yul\":10576:10585   */\n      dup9\n        /* \"#utility.yul\":10572:10594   */\n      add\n        /* \"#utility.yul\":10551:10604   */\n      tag_321\n      jump\t// in\n    tag_517:\n        /* \"#utility.yul\":10541:10604   */\n      swap5\n      pop\n        /* \"#utility.yul\":10497:10614   */\n      pop\n        /* \"#utility.yul\":10681:10683   */\n      0x20\n        /* \"#utility.yul\":10670:10679   */\n      dup6\n        /* \"#utility.yul\":10666:10684   */\n      add\n        /* \"#utility.yul\":10653:10685   */\n      calldataload\n        /* \"#utility.yul\":10712:10730   */\n      0xffffffffffffffff\n        /* \"#utility.yul\":10704:10710   */\n      dup2\n        /* \"#utility.yul\":10701:10731   */\n      gt\n        /* \"#utility.yul\":10698:10815   */\n      iszero\n      tag_518\n      jumpi\n        /* \"#utility.yul\":10734:10813   */\n      tag_519\n      tag_317\n      jump\t// in\n    tag_519:\n        /* \"#utility.yul\":10698:10815   */\n    tag_518:\n        /* \"#utility.yul\":10839:10917   */\n      tag_520\n        /* \"#utility.yul\":10909:10916   */\n      dup8\n        /* \"#utility.yul\":10900:10906   */\n      dup3\n        /* \"#utility.yul\":10889:10898   */\n      dup9\n        /* \"#utility.yul\":10885:10907   */\n      add\n        /* \"#utility.yul\":10839:10917   */\n      tag_347\n      jump\t// in\n    tag_520:\n        /* \"#utility.yul\":10829:10917   */\n      swap4\n      pop\n        /* \"#utility.yul\":10624:10927   */\n      pop\n        /* \"#utility.yul\":10994:10996   */\n      0x40\n        /* \"#utility.yul\":10983:10992   */\n      dup6\n        /* \"#utility.yul\":10979:10997   */\n      add\n        /* \"#utility.yul\":10966:10998   */\n      calldataload\n        /* \"#utility.yul\":11025:11043   */\n      0xffffffffffffffff\n        /* \"#utility.yul\":11017:11023   */\n      dup2\n        /* \"#utility.yul\":11014:11044   */\n      gt\n        /* \"#utility.yul\":11011:11128   */\n      iszero\n      tag_521\n      jumpi\n        /* \"#utility.yul\":11047:11126   */\n      tag_522\n      tag_317\n      jump\t// in\n    tag_522:\n        /* \"#utility.yul\":11011:11128   */\n    tag_521:\n        /* \"#utility.yul\":11152:11230   */\n      tag_523\n        /* \"#utility.yul\":11222:11229   */\n      dup8\n        /* \"#utility.yul\":11213:11219   */\n      dup3\n        /* \"#utility.yul\":11202:11211   */\n      dup9\n        /* \"#utility.yul\":11198:11220   */\n      add\n        /* \"#utility.yul\":11152:11230   */\n      tag_347\n      jump\t// in\n    tag_523:\n        /* \"#utility.yul\":11142:11230   */\n      swap3\n      pop\n        /* \"#utility.yul\":10937:11240   */\n      pop\n        /* \"#utility.yul\":11307:11309   */\n      0x60\n        /* \"#utility.yul\":11296:11305   */\n      dup6\n        /* \"#utility.yul\":11292:11310   */\n      add\n        /* \"#utility.yul\":11279:11311   */\n      calldataload\n        /* \"#utility.yul\":11338:11356   */\n      0xffffffffffffffff\n        /* \"#utility.yul\":11330:11336   */\n      dup2\n        /* \"#utility.yul\":11327:11357   */\n      gt\n        /* \"#utility.yul\":11324:11441   */\n      iszero\n      tag_524\n      jumpi\n        /* \"#utility.yul\":11360:11439   */\n      tag_525\n      tag_317\n      jump\t// in\n    tag_525:\n        /* \"#utility.yul\":11324:11441   */\n    tag_524:\n        /* \"#utility.yul\":11465:11527   */\n      tag_526\n        /* \"#utility.yul\":11519:11526   */\n      dup8\n        /* \"#utility.yul\":11510:11516   */\n      dup3\n        /* \"#utility.yul\":11499:11508   */\n      dup9\n        /* \"#utility.yul\":11495:11517   */\n      add\n        /* \"#utility.yul\":11465:11527   */\n      tag_350\n      jump\t// in\n    tag_526:\n        /* \"#utility.yul\":11455:11527   */\n      swap2\n      pop\n        /* \"#utility.yul\":11250:11537   */\n      pop\n        /* \"#utility.yul\":10181:11544   */\n      swap3\n      swap6\n      swap2\n      swap5\n      pop\n      swap3\n      pop\n      jump\t// out\n        /* \"#utility.yul\":11550:13059   */\n    tag_48:\n        /* \"#utility.yul\":11704:11710   */\n      0x00\n        /* \"#utility.yul\":11712:11718   */\n      dup1\n        /* \"#utility.yul\":11720:11726   */\n      0x00\n        /* \"#utility.yul\":11728:11734   */\n      dup1\n        /* \"#utility.yul\":11736:11742   */\n      0x00\n        /* \"#utility.yul\":11785:11788   */\n      0xa0\n        /* \"#utility.yul\":11773:11782   */\n      dup7\n        /* \"#utility.yul\":11764:11771   */\n      dup9\n        /* \"#utility.yul\":11760:11783   */\n      sub\n        /* \"#utility.yul\":11756:11789   */\n      slt\n        /* \"#utility.yul\":11753:11873   */\n      iszero\n      tag_528\n      jumpi\n        /* \"#utility.yul\":11792:11871   */\n      tag_529\n      tag_316\n      jump\t// in\n    tag_529:\n        /* \"#utility.yul\":11753:11873   */\n    tag_528:\n        /* \"#utility.yul\":11912:11913   */\n      0x00\n        /* \"#utility.yul\":11937:11990   */\n      tag_530\n        /* \"#utility.yul\":11982:11989   */\n      dup9\n        /* \"#utility.yul\":11973:11979   */\n      dup3\n        /* \"#utility.yul\":11962:11971   */\n      dup10\n        /* \"#utility.yul\":11958:11980   */\n      add\n        /* \"#utility.yul\":11937:11990   */\n      tag_321\n      jump\t// in\n    tag_530:\n        /* \"#utility.yul\":11927:11990   */\n      swap6\n      pop\n        /* \"#utility.yul\":11883:12000   */\n      pop\n        /* \"#utility.yul\":12039:12041   */\n      0x20\n        /* \"#utility.yul\":12065:12118   */\n      tag_531\n        /* \"#utility.yul\":12110:12117   */\n      dup9\n        /* \"#utility.yul\":12101:12107   */\n      dup3\n        /* \"#utility.yul\":12090:12099   */\n      dup10\n        /* \"#utility.yul\":12086:12108   */\n      add\n        /* \"#utility.yul\":12065:12118   */\n      tag_321\n      jump\t// in\n    tag_531:\n        /* \"#utility.yul\":12055:12118   */\n      swap5\n      pop\n        /* \"#utility.yul\":12010:12128   */\n      pop\n        /* \"#utility.yul\":12195:12197   */\n      0x40\n        /* \"#utility.yul\":12184:12193   */\n      dup7\n        /* \"#utility.yul\":12180:12198   */\n      add\n        /* \"#utility.yul\":12167:12199   */\n      calldataload\n        /* \"#utility.yul\":12226:12244   */\n      0xffffffffffffffff\n        /* \"#utility.yul\":12218:12224   */\n      dup2\n        /* \"#utility.yul\":12215:12245   */\n      gt\n        /* \"#utility.yul\":12212:12329   */\n      iszero\n      tag_532\n      jumpi\n        /* \"#utility.yul\":12248:12327   */\n      tag_533\n      tag_317\n      jump\t// in\n    tag_533:\n        /* \"#utility.yul\":12212:12329   */\n    tag_532:\n        /* \"#utility.yul\":12353:12431   */\n      tag_534\n        /* \"#utility.yul\":12423:12430   */\n      dup9\n        /* \"#utility.yul\":12414:12420   */\n      dup3\n        /* \"#utility.yul\":12403:12412   */\n      dup10\n        /* \"#utility.yul\":12399:12421   */\n      add\n        /* \"#utility.yul\":12353:12431   */\n      tag_347\n      jump\t// in\n    tag_534:\n        /* \"#utility.yul\":12343:12431   */\n      swap4\n      pop\n        /* \"#utility.yul\":12138:12441   */\n      pop\n        /* \"#utility.yul\":12508:12510   */\n      0x60\n        /* \"#utility.yul\":12497:12506   */\n      dup7\n        /* \"#utility.yul\":12493:12511   */\n      add\n        /* \"#utility.yul\":12480:12512   */\n      calldataload\n        /* \"#utility.yul\":12539:12557   */\n      0xffffffffffffffff\n        /* \"#utility.yul\":12531:12537   */\n      dup2\n        /* \"#utility.yul\":12528:12558   */\n      gt\n        /* \"#utility.yul\":12525:12642   */\n      iszero\n      tag_535\n      jumpi\n        /* \"#utility.yul\":12561:12640   */\n      tag_536\n      tag_317\n      jump\t// in\n    tag_536:\n        /* \"#utility.yul\":12525:12642   */\n    tag_535:\n        /* \"#utility.yul\":12666:12744   */\n      tag_537\n        /* \"#utility.yul\":12736:12743   */\n      dup9\n        /* \"#utility.yul\":12727:12733   */\n      dup3\n        /* \"#utility.yul\":12716:12725   */\n      dup10\n        /* \"#utility.yul\":12712:12734   */\n      add\n        /* \"#utility.yul\":12666:12744   */\n      tag_347\n      jump\t// in\n    tag_537:\n        /* \"#utility.yul\":12656:12744   */\n      swap3\n      pop\n        /* \"#utility.yul\":12451:12754   */\n      pop\n        /* \"#utility.yul\":12821:12824   */\n      0x80\n        /* \"#utility.yul\":12810:12819   */\n      dup7\n        /* \"#utility.yul\":12806:12825   */\n      add\n        /* \"#utility.yul\":12793:12826   */\n      calldataload\n        /* \"#utility.yul\":12853:12871   */\n      0xffffffffffffffff\n        /* \"#utility.yul\":12845:12851   */\n      dup2\n        /* \"#utility.yul\":12842:12872   */\n      gt\n        /* \"#utility.yul\":12839:12956   */\n      iszero\n      tag_538\n      jumpi\n        /* \"#utility.yul\":12875:12954   */\n      tag_539\n      tag_317\n      jump\t// in\n    tag_539:\n        /* \"#utility.yul\":12839:12956   */\n    tag_538:\n        /* \"#utility.yul\":12980:13042   */\n      tag_540\n        /* \"#utility.yul\":13034:13041   */\n      dup9\n        /* \"#utility.yul\":13025:13031   */\n      dup3\n        /* \"#utility.yul\":13014:13023   */\n      dup10\n        /* \"#utility.yul\":13010:13032   */\n      add\n        /* \"#utility.yul\":12980:13042   */\n      tag_350\n      jump\t// in\n    tag_540:\n        /* \"#utility.yul\":12970:13042   */\n      swap2\n      pop\n        /* \"#utility.yul\":12764:13052   */\n      pop\n        /* \"#utility.yul\":11550:13059   */\n      swap3\n      swap6\n      pop\n      swap3\n      swap6\n      swap1\n      swap4\n      pop\n      jump\t// out\n        /* \"#utility.yul\":13065:13376   */\n    tag_351:\n        /* \"#utility.yul\":13142:13146   */\n      0x00\n        /* \"#utility.yul\":13232:13250   */\n      0xffffffffffffffff\n        /* \"#utility.yul\":13224:13230   */\n      dup3\n        /* \"#utility.yul\":13221:13251   */\n      gt\n        /* \"#utility.yul\":13218:13274   */\n      iszero\n      tag_542\n      jumpi\n        /* \"#utility.yul\":13254:13272   */\n      tag_543\n      tag_121\n      jump\t// in\n    tag_543:\n        /* \"#utility.yul\":13218:13274   */\n    tag_542:\n        /* \"#utility.yul\":13304:13308   */\n      0x20\n        /* \"#utility.yul\":13296:13302   */\n      dup3\n        /* \"#utility.yul\":13292:13309   */\n      mul\n        /* \"#utility.yul\":13284:13309   */\n      swap1\n      pop\n        /* \"#utility.yul\":13364:13368   */\n      0x20\n        /* \"#utility.yul\":13358:13362   */\n      dup2\n        /* \"#utility.yul\":13354:13369   */\n      add\n        /* \"#utility.yul\":13346:13369   */\n      swap1\n      pop\n        /* \"#utility.yul\":13065:13376   */\n      swap2\n      swap1\n      pop\n      jump\t// out\n        /* \"#utility.yul\":13399:14109   */\n    tag_352:\n        /* \"#utility.yul\":13495:13500   */\n      0x00\n        /* \"#utility.yul\":13520:13601   */\n      tag_545\n        /* \"#utility.yul\":13536:13600   */\n      tag_546\n        /* \"#utility.yul\":13593:13599   */\n      dup5\n        /* \"#utility.yul\":13536:13600   */\n      tag_351\n      jump\t// in\n    tag_546:\n        /* \"#utility.yul\":13520:13601   */\n      tag_335\n      jump\t// in\n    tag_545:\n        /* \"#utility.yul\":13511:13601   */\n      swap1\n      pop\n        /* \"#utility.yul\":13621:13626   */\n      dup1\n        /* \"#utility.yul\":13650:13656   */\n      dup4\n        /* \"#utility.yul\":13643:13648   */\n      dup3\n        /* \"#utility.yul\":13636:13657   */\n      mstore\n        /* \"#utility.yul\":13684:13688   */\n      0x20\n        /* \"#utility.yul\":13677:13682   */\n      dup3\n        /* \"#utility.yul\":13673:13689   */\n      add\n        /* \"#utility.yul\":13666:13689   */\n      swap1\n      pop\n        /* \"#utility.yul\":13737:13741   */\n      0x20\n        /* \"#utility.yul\":13729:13735   */\n      dup5\n        /* \"#utility.yul\":13725:13742   */\n      mul\n        /* \"#utility.yul\":13717:13723   */\n      dup4\n        /* \"#utility.yul\":13713:13743   */\n      add\n        /* \"#utility.yul\":13766:13769   */\n      dup6\n        /* \"#utility.yul\":13758:13764   */\n      dup2\n        /* \"#utility.yul\":13755:13770   */\n      gt\n        /* \"#utility.yul\":13752:13874   */\n      iszero\n      tag_547\n      jumpi\n        /* \"#utility.yul\":13785:13864   */\n      tag_548\n      tag_345\n      jump\t// in\n    tag_548:\n        /* \"#utility.yul\":13752:13874   */\n    tag_547:\n        /* \"#utility.yul\":13900:13906   */\n      dup4\n        /* \"#utility.yul\":13883:14103   */\n    tag_549:\n        /* \"#utility.yul\":13917:13923   */\n      dup2\n        /* \"#utility.yul\":13912:13915   */\n      dup2\n        /* \"#utility.yul\":13909:13924   */\n      lt\n        /* \"#utility.yul\":13883:14103   */\n      iszero\n      tag_551\n      jumpi\n        /* \"#utility.yul\":13992:13995   */\n      dup1\n        /* \"#utility.yul\":14021:14058   */\n      tag_552\n        /* \"#utility.yul\":14054:14057   */\n      dup9\n        /* \"#utility.yul\":14042:14052   */\n      dup3\n        /* \"#utility.yul\":14021:14058   */\n      tag_321\n      jump\t// in\n    tag_552:\n        /* \"#utility.yul\":14016:14019   */\n      dup5\n        /* \"#utility.yul\":14009:14059   */\n      mstore\n        /* \"#utility.yul\":14088:14092   */\n      0x20\n        /* \"#utility.yul\":14083:14086   */\n      dup5\n        /* \"#utility.yul\":14079:14093   */\n      add\n        /* \"#utility.yul\":14072:14093   */\n      swap4\n      pop\n        /* \"#utility.yul\":13959:14103   */\n      pop\n        /* \"#utility.yul\":13943:13947   */\n      0x20\n        /* \"#utility.yul\":13938:13941   */\n      dup2\n        /* \"#utility.yul\":13934:13948   */\n      add\n        /* \"#utility.yul\":13927:13948   */\n      swap1\n      pop\n        /* \"#utility.yul\":13883:14103   */\n      jump(tag_549)\n    tag_551:\n        /* \"#utility.yul\":13887:13908   */\n      pop\n        /* \"#utility.yul\":13501:14109   */\n      pop\n      pop\n        /* \"#utility.yul\":13399:14109   */\n      swap4\n      swap3\n      pop\n      pop\n      pop\n      jump\t// out\n        /* \"#utility.yul\":14132:14502   */\n    tag_353:\n        /* \"#utility.yul\":14203:14208   */\n      0x00\n        /* \"#utility.yul\":14252:14255   */\n      dup3\n        /* \"#utility.yul\":14245:14249   */\n      0x1f\n        /* \"#utility.yul\":14237:14243   */\n      dup4\n        /* \"#utility.yul\":14233:14250   */\n      add\n        /* \"#utility.yul\":14229:14256   */\n      slt\n        /* \"#utility.yul\":14219:14341   */\n      tag_554\n      jumpi\n        /* \"#utility.yul\":14260:14339   */\n      tag_555\n      tag_331\n      jump\t// in\n    tag_555:\n        /* \"#utility.yul\":14219:14341   */\n    tag_554:\n        /* \"#utility.yul\":14377:14383   */\n      dup2\n        /* \"#utility.yul\":14364:14384   */\n      calldataload\n        /* \"#utility.yul\":14402:14496   */\n      tag_556\n        /* \"#utility.yul\":14492:14495   */\n      dup5\n        /* \"#utility.yul\":14484:14490   */\n      dup3\n        /* \"#utility.yul\":14477:14481   */\n      0x20\n        /* \"#utility.yul\":14469:14475   */\n      dup7\n        /* \"#utility.yul\":14465:14482   */\n      add\n        /* \"#utility.yul\":14402:14496   */\n      tag_352\n      jump\t// in\n    tag_556:\n        /* \"#utility.yul\":14393:14496   */\n      swap2\n      pop\n        /* \"#utility.yul\":14209:14502   */\n      pop\n        /* \"#utility.yul\":14132:14502   */\n      swap3\n      swap2\n      pop\n      pop\n      jump\t// out\n        /* \"#utility.yul\":14508:15402   */\n    tag_52:\n        /* \"#utility.yul\":14626:14632   */\n      0x00\n        /* \"#utility.yul\":14634:14640   */\n      dup1\n        /* \"#utility.yul\":14683:14685   */\n      0x40\n        /* \"#utility.yul\":14671:14680   */\n      dup4\n        /* \"#utility.yul\":14662:14669   */\n      dup6\n        /* \"#utility.yul\":14658:14681   */\n      sub\n        /* \"#utility.yul\":14654:14686   */\n      slt\n        /* \"#utility.yul\":14651:14770   */\n      iszero\n      tag_558\n      jumpi\n        /* \"#utility.yul\":14689:14768   */\n      tag_559\n      tag_316\n      jump\t// in\n    tag_559:\n        /* \"#utility.yul\":14651:14770   */\n    tag_558:\n        /* \"#utility.yul\":14837:14838   */\n      0x00\n        /* \"#utility.yul\":14826:14835   */\n      dup4\n        /* \"#utility.yul\":14822:14839   */\n      add\n        /* \"#utility.yul\":14809:14840   */\n      calldataload\n        /* \"#utility.yul\":14867:14885   */\n      0xffffffffffffffff\n        /* \"#utility.yul\":14859:14865   */\n      dup2\n        /* \"#utility.yul\":14856:14886   */\n      gt\n        /* \"#utility.yul\":14853:14970   */\n      iszero\n      tag_560\n      jumpi\n        /* \"#utility.yul\":14889:14968   */\n      tag_561\n      tag_317\n      jump\t// in\n    tag_561:\n        /* \"#utility.yul\":14853:14970   */\n    tag_560:\n        /* \"#utility.yul\":14994:15072   */\n      tag_562\n        /* \"#utility.yul\":15064:15071   */\n      dup6\n        /* \"#utility.yul\":15055:15061   */\n      dup3\n        /* \"#utility.yul\":15044:15053   */\n      dup7\n        /* \"#utility.yul\":15040:15062   */\n      add\n        /* \"#utility.yul\":14994:15072   */\n      tag_353\n      jump\t// in\n    tag_562:\n        /* \"#utility.yul\":14984:15072   */\n      swap3\n      pop\n        /* \"#utility.yul\":14780:15082   */\n      pop\n        /* \"#utility.yul\":15149:15151   */\n      0x20\n        /* \"#utility.yul\":15138:15147   */\n      dup4\n        /* \"#utility.yul\":15134:15152   */\n      add\n        /* \"#utility.yul\":15121:15153   */\n      calldataload\n        /* \"#utility.yul\":15180:15198   */\n      0xffffffffffffffff\n        /* \"#utility.yul\":15172:15178   */\n      dup2\n        /* \"#utility.yul\":15169:15199   */\n      gt\n        /* \"#utility.yul\":15166:15283   */\n      iszero\n      tag_563\n      jumpi\n        /* \"#utility.yul\":15202:15281   */\n      tag_564\n      tag_317\n      jump\t// in\n    tag_564:\n        /* \"#utility.yul\":15166:15283   */\n    tag_563:\n        /* \"#utility.yul\":15307:15385   */\n      tag_565\n        /* \"#utility.yul\":15377:15384   */\n      dup6\n        /* \"#utility.yul\":15368:15374   */\n      dup3\n        /* \"#utility.yul\":15357:15366   */\n      dup7\n        /* \"#utility.yul\":15353:15375   */\n      add\n        /* \"#utility.yul\":15307:15385   */\n      tag_347\n      jump\t// in\n    tag_565:\n        /* \"#utility.yul\":15297:15385   */\n      swap2\n      pop\n        /* \"#utility.yul\":15092:15395   */\n      pop\n        /* \"#utility.yul\":14508:15402   */\n      swap3\n      pop\n      swap3\n      swap1\n      pop\n      jump\t// out\n        /* \"#utility.yul\":15408:15522   */\n    tag_354:\n        /* \"#utility.yul\":15475:15481   */\n      0x00\n        /* \"#utility.yul\":15509:15514   */\n      dup2\n        /* \"#utility.yul\":15503:15515   */\n      mload\n        /* \"#utility.yul\":15493:15515   */\n      swap1\n      pop\n        /* \"#utility.yul\":15408:15522   */\n      swap2\n      swap1\n      pop\n      jump\t// out\n        /* \"#utility.yul\":15528:15712   */\n    tag_355:\n        /* \"#utility.yul\":15627:15638   */\n      0x00\n        /* \"#utility.yul\":15661:15667   */\n      dup3\n        /* \"#utility.yul\":15656:15659   */\n      dup3\n        /* \"#utility.yul\":15649:15668   */\n      mstore\n        /* \"#utility.yul\":15701:15705   */\n      0x20\n        /* \"#utility.yul\":15696:15699   */\n      dup3\n        /* \"#utility.yul\":15692:15706   */\n      add\n        /* \"#utility.yul\":15677:15706   */\n      swap1\n      pop\n        /* \"#utility.yul\":15528:15712   */\n      swap3\n      swap2\n      pop\n      pop\n      jump\t// out\n        /* \"#utility.yul\":15718:15850   */\n    tag_356:\n        /* \"#utility.yul\":15785:15789   */\n      0x00\n        /* \"#utility.yul\":15808:15811   */\n      dup2\n        /* \"#utility.yul\":15800:15811   */\n      swap1\n      pop\n        /* \"#utility.yul\":15838:15842   */\n      0x20\n        /* \"#utility.yul\":15833:15836   */\n      dup3\n        /* \"#utility.yul\":15829:15843   */\n      add\n        /* \"#utility.yul\":15821:15843   */\n      swap1\n      pop\n        /* \"#utility.yul\":15718:15850   */\n      swap2\n      swap1\n      pop\n      jump\t// out\n        /* \"#utility.yul\":15856:15964   */\n    tag_357:\n        /* \"#utility.yul\":15933:15957   */\n      tag_570\n        /* \"#utility.yul\":15951:15956   */\n      dup2\n        /* \"#utility.yul\":15933:15957   */\n      tag_322\n      jump\t// in\n    tag_570:\n        /* \"#utility.yul\":15928:15931   */\n      dup3\n        /* \"#utility.yul\":15921:15958   */\n      mstore\n        /* \"#utility.yul\":15856:15964   */\n      pop\n      pop\n      jump\t// out\n        /* \"#utility.yul\":15970:16149   */\n    tag_358:\n        /* \"#utility.yul\":16039:16049   */\n      0x00\n        /* \"#utility.yul\":16060:16106   */\n      tag_572\n        /* \"#utility.yul\":16102:16105   */\n      dup4\n        /* \"#utility.yul\":16094:16100   */\n      dup4\n        /* \"#utility.yul\":16060:16106   */\n      tag_357\n      jump\t// in\n    tag_572:\n        /* \"#utility.yul\":16138:16142   */\n      0x20\n        /* \"#utility.yul\":16133:16136   */\n      dup4\n        /* \"#utility.yul\":16129:16143   */\n      add\n        /* \"#utility.yul\":16115:16143   */\n      swap1\n      pop\n        /* \"#utility.yul\":15970:16149   */\n      swap3\n      swap2\n      pop\n      pop\n      jump\t// out\n        /* \"#utility.yul\":16155:16268   */\n    tag_359:\n        /* \"#utility.yul\":16225:16229   */\n      0x00\n        /* \"#utility.yul\":16257:16261   */\n      0x20\n        /* \"#utility.yul\":16252:16255   */\n      dup3\n        /* \"#utility.yul\":16248:16262   */\n      add\n        /* \"#utility.yul\":16240:16262   */\n      swap1\n      pop\n        /* \"#utility.yul\":16155:16268   */\n      swap2\n      swap1\n      pop\n      jump\t// out\n        /* \"#utility.yul\":16304:17036   */\n    tag_360:\n        /* \"#utility.yul\":16423:16426   */\n      0x00\n        /* \"#utility.yul\":16452:16506   */\n      tag_575\n        /* \"#utility.yul\":16500:16505   */\n      dup3\n        /* \"#utility.yul\":16452:16506   */\n      tag_354\n      jump\t// in\n    tag_575:\n        /* \"#utility.yul\":16522:16608   */\n      tag_576\n        /* \"#utility.yul\":16601:16607   */\n      dup2\n        /* \"#utility.yul\":16596:16599   */\n      dup6\n        /* \"#utility.yul\":16522:16608   */\n      tag_355\n      jump\t// in\n    tag_576:\n        /* \"#utility.yul\":16515:16608   */\n      swap4\n      pop\n        /* \"#utility.yul\":16632:16688   */\n      tag_577\n        /* \"#utility.yul\":16682:16687   */\n      dup4\n        /* \"#utility.yul\":16632:16688   */\n      tag_356\n      jump\t// in\n    tag_577:\n        /* \"#utility.yul\":16711:16718   */\n      dup1\n        /* \"#utility.yul\":16742:16743   */\n      0x00\n        /* \"#utility.yul\":16727:17011   */\n    tag_578:\n        /* \"#utility.yul\":16752:16758   */\n      dup4\n        /* \"#utility.yul\":16749:16750   */\n      dup2\n        /* \"#utility.yul\":16746:16759   */\n      lt\n        /* \"#utility.yul\":16727:17011   */\n      iszero\n      tag_580\n      jumpi\n        /* \"#utility.yul\":16828:16834   */\n      dup2\n        /* \"#utility.yul\":16822:16835   */\n      mload\n        /* \"#utility.yul\":16855:16918   */\n      tag_581\n        /* \"#utility.yul\":16914:16917   */\n      dup9\n        /* \"#utility.yul\":16899:16912   */\n      dup3\n        /* \"#utility.yul\":16855:16918   */\n      tag_358\n      jump\t// in\n    tag_581:\n        /* \"#utility.yul\":16848:16918   */\n      swap8\n      pop\n        /* \"#utility.yul\":16941:17001   */\n      tag_582\n        /* \"#utility.yul\":16994:17000   */\n      dup4\n        /* \"#utility.yul\":16941:17001   */\n      tag_359\n      jump\t// in\n    tag_582:\n        /* \"#utility.yul\":16931:17001   */\n      swap3\n      pop\n        /* \"#utility.yul\":16787:17011   */\n      pop\n        /* \"#utility.yul\":16774:16775   */\n      0x01\n        /* \"#utility.yul\":16771:16772   */\n      dup2\n        /* \"#utility.yul\":16767:16776   */\n      add\n        /* \"#utility.yul\":16762:16776   */\n      swap1\n      pop\n        /* \"#utility.yul\":16727:17011   */\n      jump(tag_578)\n    tag_580:\n        /* \"#utility.yul\":16731:16745   */\n      pop\n        /* \"#utility.yul\":17027:17030   */\n      dup6\n        /* \"#utility.yul\":17020:17030   */\n      swap4\n      pop\n        /* \"#utility.yul\":16428:17036   */\n      pop\n      pop\n      pop\n        /* \"#utility.yul\":16304:17036   */\n      swap3\n      swap2\n      pop\n      pop\n      jump\t// out\n        /* \"#utility.yul\":17042:17415   */\n    tag_55:\n        /* \"#utility.yul\":17185:17189   */\n      0x00\n        /* \"#utility.yul\":17223:17225   */\n      0x20\n        /* \"#utility.yul\":17212:17221   */\n      dup3\n        /* \"#utility.yul\":17208:17226   */\n      add\n        /* \"#utility.yul\":17200:17226   */\n      swap1\n      pop\n        /* \"#utility.yul\":17272:17281   */\n      dup2\n        /* \"#utility.yul\":17266:17270   */\n      dup2\n        /* \"#utility.yul\":17262:17282   */\n      sub\n        /* \"#utility.yul\":17258:17259   */\n      0x00\n        /* \"#utility.yul\":17247:17256   */\n      dup4\n        /* \"#utility.yul\":17243:17260   */\n      add\n        /* \"#utility.yul\":17236:17283   */\n      mstore\n        /* \"#utility.yul\":17300:17408   */\n      tag_584\n        /* \"#utility.yul\":17403:17407   */\n      dup2\n        /* \"#utility.yul\":17394:17400   */\n      dup5\n        /* \"#utility.yul\":17300:17408   */\n      tag_360\n      jump\t// in\n    tag_584:\n        /* \"#utility.yul\":17292:17408   */\n      swap1\n      pop\n        /* \"#utility.yul\":17042:17415   */\n      swap3\n      swap2\n      pop\n      pop\n      jump\t// out\n        /* \"#utility.yul\":17421:18364   */\n    tag_60:\n        /* \"#utility.yul\":17516:17522   */\n      0x00\n        /* \"#utility.yul\":17524:17530   */\n      dup1\n        /* \"#utility.yul\":17532:17538   */\n      0x00\n        /* \"#utility.yul\":17540:17546   */\n      dup1\n        /* \"#utility.yul\":17589:17592   */\n      0x80\n        /* \"#utility.yul\":17577:17586   */\n      dup6\n        /* \"#utility.yul\":17568:17575   */\n      dup8\n        /* \"#utility.yul\":17564:17587   */\n      sub\n        /* \"#utility.yul\":17560:17593   */\n      slt\n        /* \"#utility.yul\":17557:17677   */\n      iszero\n      tag_586\n      jumpi\n        /* \"#utility.yul\":17596:17675   */\n      tag_587\n      tag_316\n      jump\t// in\n    tag_587:\n        /* \"#utility.yul\":17557:17677   */\n    tag_586:\n        /* \"#utility.yul\":17716:17717   */\n      0x00\n        /* \"#utility.yul\":17741:17794   */\n      tag_588\n        /* \"#utility.yul\":17786:17793   */\n      dup8\n        /* \"#utility.yul\":17777:17783   */\n      dup3\n        /* \"#utility.yul\":17766:17775   */\n      dup9\n        /* \"#utility.yul\":17762:17784   */\n      add\n        /* \"#utility.yul\":17741:17794   */\n      tag_321\n      jump\t// in\n    tag_588:\n        /* \"#utility.yul\":17731:17794   */\n      swap5\n      pop\n        /* \"#utility.yul\":17687:17804   */\n      pop\n        /* \"#utility.yul\":17843:17845   */\n      0x20\n        /* \"#utility.yul\":17869:17922   */\n      tag_589\n        /* \"#utility.yul\":17914:17921   */\n      dup8\n        /* \"#utility.yul\":17905:17911   */\n      dup3\n        /* \"#utility.yul\":17894:17903   */\n      dup9\n        /* \"#utility.yul\":17890:17912   */\n      add\n        /* \"#utility.yul\":17869:17922   */\n      tag_324\n      jump\t// in\n    tag_589:\n        /* \"#utility.yul\":17859:17922   */\n      swap4\n      pop\n        /* \"#utility.yul\":17814:17932   */\n      pop\n        /* \"#utility.yul\":17971:17973   */\n      0x40\n        /* \"#utility.yul\":17997:18050   */\n      tag_590\n        /* \"#utility.yul\":18042:18049   */\n      dup8\n        /* \"#utility.yul\":18033:18039   */\n      dup3\n        /* \"#utility.yul\":18022:18031   */\n      dup9\n        /* \"#utility.yul\":18018:18040   */\n      add\n        /* \"#utility.yul\":17997:18050   */\n      tag_324\n      jump\t// in\n    tag_590:\n        /* \"#utility.yul\":17987:18050   */\n      swap3\n      pop\n        /* \"#utility.yul\":17942:18060   */\n      pop\n        /* \"#utility.yul\":18127:18129   */\n      0x60\n        /* \"#utility.yul\":18116:18125   */\n      dup6\n        /* \"#utility.yul\":18112:18130   */\n      add\n        /* \"#utility.yul\":18099:18131   */\n      calldataload\n        /* \"#utility.yul\":18158:18176   */\n      0xffffffffffffffff\n        /* \"#utility.yul\":18150:18156   */\n      dup2\n        /* \"#utility.yul\":18147:18177   */\n      gt\n        /* \"#utility.yul\":18144:18261   */\n      iszero\n      tag_591\n      jumpi\n        /* \"#utility.yul\":18180:18259   */\n      tag_592\n      tag_317\n      jump\t// in\n    tag_592:\n        /* \"#utility.yul\":18144:18261   */\n    tag_591:\n        /* \"#utility.yul\":18285:18347   */\n      tag_593\n        /* \"#utility.yul\":18339:18346   */\n      dup8\n        /* \"#utility.yul\":18330:18336   */\n      dup3\n        /* \"#utility.yul\":18319:18328   */\n      dup9\n        /* \"#utility.yul\":18315:18337   */\n      add\n        /* \"#utility.yul\":18285:18347   */\n      tag_350\n      jump\t// in\n    tag_593:\n        /* \"#utility.yul\":18275:18347   */\n      swap2\n      pop\n        /* \"#utility.yul\":18070:18357   */\n      pop\n        /* \"#utility.yul\":17421:18364   */\n      swap3\n      swap6\n      swap2\n      swap5\n      pop\n      swap3\n      pop\n      jump\t// out\n        /* \"#utility.yul\":18370:18488   */\n    tag_361:\n        /* \"#utility.yul\":18457:18481   */\n      tag_595\n        /* \"#utility.yul\":18475:18480   */\n      dup2\n        /* \"#utility.yul\":18457:18481   */\n      tag_319\n      jump\t// in\n    tag_595:\n        /* \"#utility.yul\":18452:18455   */\n      dup3\n        /* \"#utility.yul\":18445:18482   */\n      mstore\n        /* \"#utility.yul\":18370:18488   */\n      pop\n      pop\n      jump\t// out\n        /* \"#utility.yul\":18494:18716   */\n    tag_65:\n        /* \"#utility.yul\":18587:18591   */\n      0x00\n        /* \"#utility.yul\":18625:18627   */\n      0x20\n        /* \"#utility.yul\":18614:18623   */\n      dup3\n        /* \"#utility.yul\":18610:18628   */\n      add\n        /* \"#utility.yul\":18602:18628   */\n      swap1\n      pop\n        /* \"#utility.yul\":18638:18709   */\n      tag_597\n        /* \"#utility.yul\":18706:18707   */\n      0x00\n        /* \"#utility.yul\":18695:18704   */\n      dup4\n        /* \"#utility.yul\":18691:18708   */\n      add\n        /* \"#utility.yul\":18682:18688   */\n      dup5\n        /* \"#utility.yul\":18638:18709   */\n      tag_361\n      jump\t// in\n    tag_597:\n        /* \"#utility.yul\":18494:18716   */\n      swap3\n      swap2\n      pop\n      pop\n      jump\t// out\n        /* \"#utility.yul\":18722:18838   */\n    tag_362:\n        /* \"#utility.yul\":18792:18813   */\n      tag_599\n        /* \"#utility.yul\":18807:18812   */\n      dup2\n        /* \"#utility.yul\":18792:18813   */\n      tag_329\n      jump\t// in\n    tag_599:\n        /* \"#utility.yul\":18785:18790   */\n      dup2\n        /* \"#utility.yul\":18782:18814   */\n      eq\n        /* \"#utility.yul\":18772:18832   */\n      tag_600\n      jumpi\n        /* \"#utility.yul\":18828:18829   */\n      0x00\n        /* \"#utility.yul\":18825:18826   */\n      dup1\n        /* \"#utility.yul\":18818:18830   */\n      revert\n        /* \"#utility.yul\":18772:18832   */\n    tag_600:\n        /* \"#utility.yul\":18722:18838   */\n      pop\n      jump\t// out\n        /* \"#utility.yul\":18844:18977   */\n    tag_363:\n        /* \"#utility.yul\":18887:18892   */\n      0x00\n        /* \"#utility.yul\":18925:18931   */\n      dup2\n        /* \"#utility.yul\":18912:18932   */\n      calldataload\n        /* \"#utility.yul\":18903:18932   */\n      swap1\n      pop\n        /* \"#utility.yul\":18941:18971   */\n      tag_602\n        /* \"#utility.yul\":18965:18970   */\n      dup2\n        /* \"#utility.yul\":18941:18971   */\n      tag_362\n      jump\t// in\n    tag_602:\n        /* \"#utility.yul\":18844:18977   */\n      swap3\n      swap2\n      pop\n      pop\n      jump\t// out\n        /* \"#utility.yul\":18983:19451   */\n    tag_68:\n        /* \"#utility.yul\":19048:19054   */\n      0x00\n        /* \"#utility.yul\":19056:19062   */\n      dup1\n        /* \"#utility.yul\":19105:19107   */\n      0x40\n        /* \"#utility.yul\":19093:19102   */\n      dup4\n        /* \"#utility.yul\":19084:19091   */\n      dup6\n        /* \"#utility.yul\":19080:19103   */\n      sub\n        /* \"#utility.yul\":19076:19108   */\n      slt\n        /* \"#utility.yul\":19073:19192   */\n      iszero\n      tag_604\n      jumpi\n        /* \"#utility.yul\":19111:19190   */\n      tag_605\n      tag_316\n      jump\t// in\n    tag_605:\n        /* \"#utility.yul\":19073:19192   */\n    tag_604:\n        /* \"#utility.yul\":19231:19232   */\n      0x00\n        /* \"#utility.yul\":19256:19309   */\n      tag_606\n        /* \"#utility.yul\":19301:19308   */\n      dup6\n        /* \"#utility.yul\":19292:19298   */\n      dup3\n        /* \"#utility.yul\":19281:19290   */\n      dup7\n        /* \"#utility.yul\":19277:19299   */\n      add\n        /* \"#utility.yul\":19256:19309   */\n      tag_321\n      jump\t// in\n    tag_606:\n        /* \"#utility.yul\":19246:19309   */\n      swap3\n      pop\n        /* \"#utility.yul\":19202:19319   */\n      pop\n        /* \"#utility.yul\":19358:19360   */\n      0x20\n        /* \"#utility.yul\":19384:19434   */\n      tag_607\n        /* \"#utility.yul\":19426:19433   */\n      dup6\n        /* \"#utility.yul\":19417:19423   */\n      dup3\n        /* \"#utility.yul\":19406:19415   */\n      dup7\n        /* \"#utility.yul\":19402:19424   */\n      add\n        /* \"#utility.yul\":19384:19434   */\n      tag_363\n      jump\t// in\n    tag_607:\n        /* \"#utility.yul\":19374:19434   */\n      swap2\n      pop\n        /* \"#utility.yul\":19329:19444   */\n      pop\n        /* \"#utility.yul\":18983:19451   */\n      swap3\n      pop\n      swap3\n      swap1\n      pop\n      jump\t// out\n        /* \"#utility.yul\":19457:19931   */\n    tag_72:\n        /* \"#utility.yul\":19525:19531   */\n      0x00\n        /* \"#utility.yul\":19533:19539   */\n      dup1\n        /* \"#utility.yul\":19582:19584   */\n      0x40\n        /* \"#utility.yul\":19570:19579   */\n      dup4\n        /* \"#utility.yul\":19561:19568   */\n      dup6\n        /* \"#utility.yul\":19557:19580   */\n      sub\n        /* \"#utility.yul\":19553:19585   */\n      slt\n        /* \"#utility.yul\":19550:19669   */\n      iszero\n      tag_609\n      jumpi\n        /* \"#utility.yul\":19588:19667   */\n      tag_610\n      tag_316\n      jump\t// in\n    tag_610:\n        /* \"#utility.yul\":19550:19669   */\n    tag_609:\n        /* \"#utility.yul\":19708:19709   */\n      0x00\n        /* \"#utility.yul\":19733:19786   */\n      tag_611\n        /* \"#utility.yul\":19778:19785   */\n      dup6\n        /* \"#utility.yul\":19769:19775   */\n      dup3\n        /* \"#utility.yul\":19758:19767   */\n      dup7\n        /* \"#utility.yul\":19754:19776   */\n      add\n        /* \"#utility.yul\":19733:19786   */\n      tag_321\n      jump\t// in\n    tag_611:\n        /* \"#utility.yul\":19723:19786   */\n      swap3\n      pop\n        /* \"#utility.yul\":19679:19796   */\n      pop\n        /* \"#utility.yul\":19835:19837   */\n      0x20\n        /* \"#utility.yul\":19861:19914   */\n      tag_612\n        /* \"#utility.yul\":19906:19913   */\n      dup6\n        /* \"#utility.yul\":19897:19903   */\n      dup3\n        /* \"#utility.yul\":19886:19895   */\n      dup7\n        /* \"#utility.yul\":19882:19904   */\n      add\n        /* \"#utility.yul\":19861:19914   */\n      tag_321\n      jump\t// in\n    tag_612:\n        /* \"#utility.yul\":19851:19914   */\n      swap2\n      pop\n        /* \"#utility.yul\":19806:19924   */\n      pop\n        /* \"#utility.yul\":19457:19931   */\n      swap3\n      pop\n      swap3\n      swap1\n      pop\n      jump\t// out\n        /* \"#utility.yul\":19937:21026   */\n    tag_77:\n        /* \"#utility.yul\":20041:20047   */\n      0x00\n        /* \"#utility.yul\":20049:20055   */\n      dup1\n        /* \"#utility.yul\":20057:20063   */\n      0x00\n        /* \"#utility.yul\":20065:20071   */\n      dup1\n        /* \"#utility.yul\":20073:20079   */\n      0x00\n        /* \"#utility.yul\":20122:20125   */\n      0xa0\n        /* \"#utility.yul\":20110:20119   */\n      dup7\n        /* \"#utility.yul\":20101:20108   */\n      dup9\n        /* \"#utility.yul\":20097:20120   */\n      sub\n        /* \"#utility.yul\":20093:20126   */\n      slt\n        /* \"#utility.yul\":20090:20210   */\n      iszero\n      tag_614\n      jumpi\n        /* \"#utility.yul\":20129:20208   */\n      tag_615\n      tag_316\n      jump\t// in\n    tag_615:\n        /* \"#utility.yul\":20090:20210   */\n    tag_614:\n        /* \"#utility.yul\":20249:20250   */\n      0x00\n        /* \"#utility.yul\":20274:20327   */\n      tag_616\n        /* \"#utility.yul\":20319:20326   */\n      dup9\n        /* \"#utility.yul\":20310:20316   */\n      dup3\n        /* \"#utility.yul\":20299:20308   */\n      dup10\n        /* \"#utility.yul\":20295:20317   */\n      add\n        /* \"#utility.yul\":20274:20327   */\n      tag_321\n      jump\t// in\n    tag_616:\n        /* \"#utility.yul\":20264:20327   */\n      swap6\n      pop\n        /* \"#utility.yul\":20220:20337   */\n      pop\n        /* \"#utility.yul\":20376:20378   */\n      0x20\n        /* \"#utility.yul\":20402:20455   */\n      tag_617\n        /* \"#utility.yul\":20447:20454   */\n      dup9\n        /* \"#utility.yul\":20438:20444   */\n      dup3\n        /* \"#utility.yul\":20427:20436   */\n      dup10\n        /* \"#utility.yul\":20423:20445   */\n      add\n        /* \"#utility.yul\":20402:20455   */\n      tag_321\n      jump\t// in\n    tag_617:\n        /* \"#utility.yul\":20392:20455   */\n      swap5\n      pop\n        /* \"#utility.yul\":20347:20465   */\n      pop\n        /* \"#utility.yul\":20504:20506   */\n      0x40\n        /* \"#utility.yul\":20530:20583   */\n      tag_618\n        /* \"#utility.yul\":20575:20582   */\n      dup9\n        /* \"#utility.yul\":20566:20572   */\n      dup3\n        /* \"#utility.yul\":20555:20564   */\n      dup10\n        /* \"#utility.yul\":20551:20573   */\n      add\n        /* \"#utility.yul\":20530:20583   */\n      tag_324\n      jump\t// in\n    tag_618:\n        /* \"#utility.yul\":20520:20583   */\n      swap4\n      pop\n        /* \"#utility.yul\":20475:20593   */\n      pop\n        /* \"#utility.yul\":20632:20634   */\n      0x60\n        /* \"#utility.yul\":20658:20711   */\n      tag_619\n        /* \"#utility.yul\":20703:20710   */\n      dup9\n        /* \"#utility.yul\":20694:20700   */\n      dup3\n        /* \"#utility.yul\":20683:20692   */\n      dup10\n        /* \"#utility.yul\":20679:20701   */\n      add\n        /* \"#utility.yul\":20658:20711   */\n      tag_324\n      jump\t// in\n    tag_619:\n        /* \"#utility.yul\":20648:20711   */\n      swap3\n      pop\n        /* \"#utility.yul\":20603:20721   */\n      pop\n        /* \"#utility.yul\":20788:20791   */\n      0x80\n        /* \"#utility.yul\":20777:20786   */\n      dup7\n        /* \"#utility.yul\":20773:20792   */\n      add\n        /* \"#utility.yul\":20760:20793   */\n      calldataload\n        /* \"#utility.yul\":20820:20838   */\n      0xffffffffffffffff\n        /* \"#utility.yul\":20812:20818   */\n      dup2\n        /* \"#utility.yul\":20809:20839   */\n      gt\n        /* \"#utility.yul\":20806:20923   */\n      iszero\n      tag_620\n      jumpi\n        /* \"#utility.yul\":20842:20921   */\n      tag_621\n      tag_317\n      jump\t// in\n    tag_621:\n        /* \"#utility.yul\":20806:20923   */\n    tag_620:\n        /* \"#utility.yul\":20947:21009   */\n      tag_622\n        /* \"#utility.yul\":21001:21008   */\n      dup9\n        /* \"#utility.yul\":20992:20998   */\n      dup3\n        /* \"#utility.yul\":20981:20990   */\n      dup10\n        /* \"#utility.yul\":20977:20999   */\n      add\n        /* \"#utility.yul\":20947:21009   */\n      tag_350\n      jump\t// in\n    tag_622:\n        /* \"#utility.yul\":20937:21009   */\n      swap2\n      pop\n        /* \"#utility.yul\":20731:21019   */\n      pop\n        /* \"#utility.yul\":19937:21026   */\n      swap3\n      swap6\n      pop\n      swap3\n      swap6\n      swap1\n      swap4\n      pop\n      jump\t// out\n        /* \"#utility.yul\":21032:21361   */\n    tag_81:\n        /* \"#utility.yul\":21091:21097   */\n      0x00\n        /* \"#utility.yul\":21140:21142   */\n      0x20\n        /* \"#utility.yul\":21128:21137   */\n      dup3\n        /* \"#utility.yul\":21119:21126   */\n      dup5\n        /* \"#utility.yul\":21115:21138   */\n      sub\n        /* \"#utility.yul\":21111:21143   */\n      slt\n        /* \"#utility.yul\":21108:21227   */\n      iszero\n      tag_624\n      jumpi\n        /* \"#utility.yul\":21146:21225   */\n      tag_625\n      tag_316\n      jump\t// in\n    tag_625:\n        /* \"#utility.yul\":21108:21227   */\n    tag_624:\n        /* \"#utility.yul\":21266:21267   */\n      0x00\n        /* \"#utility.yul\":21291:21344   */\n      tag_626\n        /* \"#utility.yul\":21336:21343   */\n      dup5\n        /* \"#utility.yul\":21327:21333   */\n      dup3\n        /* \"#utility.yul\":21316:21325   */\n      dup6\n        /* \"#utility.yul\":21312:21334   */\n      add\n        /* \"#utility.yul\":21291:21344   */\n      tag_321\n      jump\t// in\n    tag_626:\n        /* \"#utility.yul\":21281:21344   */\n      swap2\n      pop\n        /* \"#utility.yul\":21237:21354   */\n      pop\n        /* \"#utility.yul\":21032:21361   */\n      swap3\n      swap2\n      pop\n      pop\n      jump\t// out\n        /* \"#utility.yul\":21367:21515   */\n    tag_364:\n        /* \"#utility.yul\":21469:21480   */\n      0x00\n        /* \"#utility.yul\":21506:21509   */\n      dup2\n        /* \"#utility.yul\":21491:21509   */\n      swap1\n      pop\n        /* \"#utility.yul\":21367:21515   */\n      swap3\n      swap2\n      pop\n      pop\n      jump\t// out\n        /* \"#utility.yul\":21521:21825   */\n    tag_365:\n        /* \"#utility.yul\":21661:21695   */\n      0x68747470733a2f2f697066732e696f2f697066732f516d5479734e6f58456f58\n        /* \"#utility.yul\":21657:21658   */\n      0x00\n        /* \"#utility.yul\":21649:21655   */\n      dup3\n        /* \"#utility.yul\":21645:21659   */\n      add\n        /* \"#utility.yul\":21638:21696   */\n      mstore\n        /* \"#utility.yul\":21734:21768   */\n      0x74597a55617a5831663236625744553362503570676b55774c756577475a6541\n        /* \"#utility.yul\":21729:21731   */\n      0x20\n        /* \"#utility.yul\":21721:21727   */\n      dup3\n        /* \"#utility.yul\":21717:21732   */\n      add\n        /* \"#utility.yul\":21710:21769   */\n      mstore\n        /* \"#utility.yul\":21807:21813   */\n      0x4e4c582f00000000000000000000000000000000000000000000000000000000\n        /* \"#utility.yul\":21802:21804   */\n      0x40\n        /* \"#utility.yul\":21794:21800   */\n      dup3\n        /* \"#utility.yul\":21790:21805   */\n      add\n        /* \"#utility.yul\":21783:21814   */\n      mstore\n        /* \"#utility.yul\":21521:21825   */\n      pop\n      jump\t// out\n        /* \"#utility.yul\":21835:22253   */\n    tag_366:\n        /* \"#utility.yul\":21995:21998   */\n      0x00\n        /* \"#utility.yul\":22020:22105   */\n      tag_630\n        /* \"#utility.yul\":22102:22104   */\n      0x44\n        /* \"#utility.yul\":22097:22100   */\n      dup4\n        /* \"#utility.yul\":22020:22105   */\n      tag_364\n      jump\t// in\n    tag_630:\n        /* \"#utility.yul\":22013:22105   */\n      swap2\n      pop\n        /* \"#utility.yul\":22118:22211   */\n      tag_631\n        /* \"#utility.yul\":22207:22210   */\n      dup3\n        /* \"#utility.yul\":22118:22211   */\n      tag_365\n      jump\t// in\n    tag_631:\n        /* \"#utility.yul\":22240:22242   */\n      0x44\n        /* \"#utility.yul\":22235:22238   */\n      dup3\n        /* \"#utility.yul\":22231:22243   */\n      add\n        /* \"#utility.yul\":22224:22243   */\n      swap1\n      pop\n        /* \"#utility.yul\":21835:22253   */\n      swap2\n      swap1\n      pop\n      jump\t// out\n        /* \"#utility.yul\":22263:22673   */\n    tag_367:\n        /* \"#utility.yul\":22369:22372   */\n      0x00\n        /* \"#utility.yul\":22401:22440   */\n      tag_633\n        /* \"#utility.yul\":22434:22439   */\n      dup3\n        /* \"#utility.yul\":22401:22440   */\n      tag_340\n      jump\t// in\n    tag_633:\n        /* \"#utility.yul\":22460:22549   */\n      tag_634\n        /* \"#utility.yul\":22542:22548   */\n      dup2\n        /* \"#utility.yul\":22537:22540   */\n      dup6\n        /* \"#utility.yul\":22460:22549   */\n      tag_364\n      jump\t// in\n    tag_634:\n        /* \"#utility.yul\":22453:22549   */\n      swap4\n      pop\n        /* \"#utility.yul\":22562:22627   */\n      tag_635\n        /* \"#utility.yul\":22620:22626   */\n      dup2\n        /* \"#utility.yul\":22615:22618   */\n      dup6\n        /* \"#utility.yul\":22608:22612   */\n      0x20\n        /* \"#utility.yul\":22601:22606   */\n      dup7\n        /* \"#utility.yul\":22597:22613   */\n      add\n        /* \"#utility.yul\":22562:22627   */\n      tag_342\n      jump\t// in\n    tag_635:\n        /* \"#utility.yul\":22656:22662   */\n      dup1\n        /* \"#utility.yul\":22651:22654   */\n      dup5\n        /* \"#utility.yul\":22647:22663   */\n      add\n        /* \"#utility.yul\":22640:22663   */\n      swap2\n      pop\n        /* \"#utility.yul\":22373:22673   */\n      pop\n        /* \"#utility.yul\":22263:22673   */\n      swap3\n      swap2\n      pop\n      pop\n      jump\t// out\n        /* \"#utility.yul\":22683:22846   */\n    tag_368:\n        /* \"#utility.yul\":22827:22834   */\n      0x2e6a736f6e000000000000000000000000000000000000000000000000000000\n        /* \"#utility.yul\":22823:22824   */\n      0x00\n        /* \"#utility.yul\":22815:22821   */\n      dup3\n        /* \"#utility.yul\":22811:22825   */\n      add\n        /* \"#utility.yul\":22804:22835   */\n      mstore\n        /* \"#utility.yul\":22683:22846   */\n      pop\n      jump\t// out\n        /* \"#utility.yul\":22856:23272   */\n    tag_369:\n        /* \"#utility.yul\":23016:23019   */\n      0x00\n        /* \"#utility.yul\":23041:23125   */\n      tag_638\n        /* \"#utility.yul\":23123:23124   */\n      0x05\n        /* \"#utility.yul\":23118:23121   */\n      dup4\n        /* \"#utility.yul\":23041:23125   */\n      tag_364\n      jump\t// in\n    tag_638:\n        /* \"#utility.yul\":23034:23125   */\n      swap2\n      pop\n        /* \"#utility.yul\":23138:23231   */\n      tag_639\n        /* \"#utility.yul\":23227:23230   */\n      dup3\n        /* \"#utility.yul\":23138:23231   */\n      tag_368\n      jump\t// in\n    tag_639:\n        /* \"#utility.yul\":23260:23261   */\n      0x05\n        /* \"#utility.yul\":23255:23258   */\n      dup3\n        /* \"#utility.yul\":23251:23262   */\n      add\n        /* \"#utility.yul\":23244:23262   */\n      swap1\n      pop\n        /* \"#utility.yul\":22856:23272   */\n      swap2\n      swap1\n      pop\n      jump\t// out\n        /* \"#utility.yul\":23282:24109   */\n    tag_99:\n        /* \"#utility.yul\":23616:23619   */\n      0x00\n        /* \"#utility.yul\":23642:23790   */\n      tag_641\n        /* \"#utility.yul\":23786:23789   */\n      dup3\n        /* \"#utility.yul\":23642:23790   */\n      tag_366\n      jump\t// in\n    tag_641:\n        /* \"#utility.yul\":23635:23790   */\n      swap2\n      pop\n        /* \"#utility.yul\":23811:23906   */\n      tag_642\n        /* \"#utility.yul\":23902:23905   */\n      dup3\n        /* \"#utility.yul\":23893:23899   */\n      dup5\n        /* \"#utility.yul\":23811:23906   */\n      tag_367\n      jump\t// in\n    tag_642:\n        /* \"#utility.yul\":23804:23906   */\n      swap2\n      pop\n        /* \"#utility.yul\":23927:24075   */\n      tag_643\n        /* \"#utility.yul\":24071:24074   */\n      dup3\n        /* \"#utility.yul\":23927:24075   */\n      tag_369\n      jump\t// in\n    tag_643:\n        /* \"#utility.yul\":23920:24075   */\n      swap2\n      pop\n        /* \"#utility.yul\":24096:24099   */\n      dup2\n        /* \"#utility.yul\":24089:24099   */\n      swap1\n      pop\n        /* \"#utility.yul\":23282:24109   */\n      swap3\n      swap2\n      pop\n      pop\n      jump\t// out\n        /* \"#utility.yul\":24119:24467   */\n    tag_112:\n        /* \"#utility.yul\":24240:24244   */\n      0x00\n        /* \"#utility.yul\":24282:24284   */\n      0x40\n        /* \"#utility.yul\":24271:24280   */\n      dup3\n        /* \"#utility.yul\":24267:24285   */\n      add\n        /* \"#utility.yul\":24259:24285   */\n      swap1\n      pop\n        /* \"#utility.yul\":24299:24370   */\n      tag_645\n        /* \"#utility.yul\":24367:24368   */\n      0x00\n        /* \"#utility.yul\":24356:24365   */\n      dup4\n        /* \"#utility.yul\":24352:24369   */\n      add\n        /* \"#utility.yul\":24343:24349   */\n      dup6\n        /* \"#utility.yul\":24299:24370   */\n      tag_361\n      jump\t// in\n    tag_645:\n        /* \"#utility.yul\":24384:24456   */\n      tag_646\n        /* \"#utility.yul\":24452:24454   */\n      0x20\n        /* \"#utility.yul\":24441:24450   */\n      dup4\n        /* \"#utility.yul\":24437:24455   */\n      add\n        /* \"#utility.yul\":24428:24434   */\n      dup5\n        /* \"#utility.yul\":24384:24456   */\n      tag_361\n      jump\t// in\n    tag_646:\n        /* \"#utility.yul\":24119:24467   */\n      swap4\n      swap3\n      pop\n      pop\n      pop\n      jump\t// out\n        /* \"#utility.yul\":24477:24825   */\n    tag_118:\n        /* \"#utility.yul\":24598:24602   */\n      0x00\n        /* \"#utility.yul\":24640:24642   */\n      0x40\n        /* \"#utility.yul\":24629:24638   */\n      dup3\n        /* \"#utility.yul\":24625:24643   */\n      add\n        /* \"#utility.yul\":24617:24643   */\n      swap1\n      pop\n        /* \"#utility.yul\":24657:24728   */\n      tag_648\n        /* \"#utility.yul\":24725:24726   */\n      0x00\n        /* \"#utility.yul\":24714:24723   */\n      dup4\n        /* \"#utility.yul\":24710:24727   */\n      add\n        /* \"#utility.yul\":24701:24707   */\n      dup6\n        /* \"#utility.yul\":24657:24728   */\n      tag_325\n      jump\t// in\n    tag_648:\n        /* \"#utility.yul\":24742:24814   */\n      tag_649\n        /* \"#utility.yul\":24810:24812   */\n      0x20\n        /* \"#utility.yul\":24799:24808   */\n      dup4\n        /* \"#utility.yul\":24795:24813   */\n      add\n        /* \"#utility.yul\":24786:24792   */\n      dup5\n        /* \"#utility.yul\":24742:24814   */\n      tag_325\n      jump\t// in\n    tag_649:\n        /* \"#utility.yul\":24477:24825   */\n      swap4\n      swap3\n      pop\n      pop\n      pop\n      jump\t// out\n        /* \"#utility.yul\":24835:25031   */\n    tag_133:\n        /* \"#utility.yul\":24887:24964   */\n      0x4e487b7100000000000000000000000000000000000000000000000000000000\n        /* \"#utility.yul\":24884:24885   */\n      0x00\n        /* \"#utility.yul\":24877:24965   */\n      mstore\n        /* \"#utility.yul\":24988:24992   */\n      0x32\n        /* \"#utility.yul\":24985:24986   */\n      0x04\n        /* \"#utility.yul\":24978:24993   */\n      mstore\n        /* \"#utility.yul\":25016:25020   */\n      0x24\n        /* \"#utility.yul\":25013:25014   */\n      0x00\n        /* \"#utility.yul\":25006:25021   */\n      revert\n        /* \"#utility.yul\":25041:25237   */\n    tag_370:\n        /* \"#utility.yul\":25093:25170   */\n      0x4e487b7100000000000000000000000000000000000000000000000000000000\n        /* \"#utility.yul\":25090:25091   */\n      0x00\n        /* \"#utility.yul\":25083:25171   */\n      mstore\n        /* \"#utility.yul\":25194:25198   */\n      0x11\n        /* \"#utility.yul\":25191:25192   */\n      0x04\n        /* \"#utility.yul\":25184:25199   */\n      mstore\n        /* \"#utility.yul\":25222:25226   */\n      0x24\n        /* \"#utility.yul\":25219:25220   */\n      0x00\n        /* \"#utility.yul\":25212:25227   */\n      revert\n        /* \"#utility.yul\":25247:25496   */\n    tag_135:\n        /* \"#utility.yul\":25286:25289   */\n      0x00\n        /* \"#utility.yul\":25313:25337   */\n      tag_653\n        /* \"#utility.yul\":25331:25336   */\n      dup3\n        /* \"#utility.yul\":25313:25337   */\n      tag_322\n      jump\t// in\n    tag_653:\n        /* \"#utility.yul\":25304:25337   */\n      swap2\n      pop\n        /* \"#utility.yul\":25363:25429   */\n      0xffffffffffffffffffffffffffffffffffffffffffffffffffffffffffffffff\n        /* \"#utility.yul\":25356:25361   */\n      dup3\n        /* \"#utility.yul\":25353:25430   */\n      sub\n        /* \"#utility.yul\":25350:25453   */\n      tag_654\n      jumpi\n        /* \"#utility.yul\":25433:25451   */\n      tag_655\n      tag_370\n      jump\t// in\n    tag_655:\n        /* \"#utility.yul\":25350:25453   */\n    tag_654:\n        /* \"#utility.yul\":25484:25485   */\n      0x01\n        /* \"#utility.yul\":25477:25482   */\n      dup3\n        /* \"#utility.yul\":25473:25486   */\n      add\n        /* \"#utility.yul\":25466:25486   */\n      swap1\n      pop\n        /* \"#utility.yul\":25247:25496   */\n      swap2\n      swap1\n      pop\n      jump\t// out\n        /* \"#utility.yul\":25506:25702   */\n    tag_371:\n        /* \"#utility.yul\":25558:25635   */\n      0x4e487b7100000000000000000000000000000000000000000000000000000000\n        /* \"#utility.yul\":25555:25556   */\n      0x00\n        /* \"#utility.yul\":25548:25636   */\n      mstore\n        /* \"#utility.yul\":25659:25663   */\n      0x22\n        /* \"#utility.yul\":25656:25657   */\n      0x04\n        /* \"#utility.yul\":25649:25664   */\n      mstore\n        /* \"#utility.yul\":25687:25691   */\n      0x24\n        /* \"#utility.yul\":25684:25685   */\n      0x00\n        /* \"#utility.yul\":25677:25692   */\n      revert\n        /* \"#utility.yul\":25712:26068   */\n    tag_372:\n        /* \"#utility.yul\":25756:25762   */\n      0x00\n        /* \"#utility.yul\":25797:25798   */\n      0x02\n        /* \"#utility.yul\":25791:25795   */\n      dup3\n        /* \"#utility.yul\":25787:25799   */\n      div\n        /* \"#utility.yul\":25777:25799   */\n      swap1\n      pop\n        /* \"#utility.yul\":25848:25849   */\n      0x01\n        /* \"#utility.yul\":25842:25846   */\n      dup3\n        /* \"#utility.yul\":25838:25850   */\n      and\n        /* \"#utility.yul\":25873:25891   */\n      dup1\n        /* \"#utility.yul\":25863:25952   */\n      tag_658\n      jumpi\n        /* \"#utility.yul\":25933:25937   */\n      0x7f\n        /* \"#utility.yul\":25925:25931   */\n      dup3\n        /* \"#utility.yul\":25921:25938   */\n      and\n        /* \"#utility.yul\":25911:25938   */\n      swap2\n      pop\n        /* \"#utility.yul\":25863:25952   */\n    tag_658:\n        /* \"#utility.yul\":26003:26005   */\n      0x20\n        /* \"#utility.yul\":25995:26001   */\n      dup3\n        /* \"#utility.yul\":25992:26006   */\n      lt\n        /* \"#utility.yul\":25972:25990   */\n      dup2\n        /* \"#utility.yul\":25969:26007   */\n      sub\n        /* \"#utility.yul\":25966:26058   */\n      tag_659\n      jumpi\n        /* \"#utility.yul\":26026:26044   */\n      tag_660\n      tag_371\n      jump\t// in\n    tag_660:\n        /* \"#utility.yul\":25966:26058   */\n    tag_659:\n        /* \"#utility.yul\":25763:26068   */\n      pop\n        /* \"#utility.yul\":25712:26068   */\n      swap2\n      swap1\n      pop\n      jump\t// out\n        /* \"#utility.yul\":26078:26235   */\n    tag_373:\n        /* \"#utility.yul\":26127:26131   */\n      0x00\n        /* \"#utility.yul\":26154:26157   */\n      dup2\n        /* \"#utility.yul\":26146:26157   */\n      swap1\n      pop\n        /* \"#utility.yul\":26181:26184   */\n      dup2\n        /* \"#utility.yul\":26178:26179   */\n      0x00\n        /* \"#utility.yul\":26171:26185   */\n      mstore\n        /* \"#utility.yul\":26219:26223   */\n      0x20\n        /* \"#utility.yul\":26216:26217   */\n      0x00\n        /* \"#utility.yul\":26206:26224   */\n      keccak256\n        /* \"#utility.yul\":26198:26224   */\n      swap1\n      pop\n        /* \"#utility.yul\":26078:26235   */\n      swap2\n      swap1\n      pop\n      jump\t// out\n        /* \"#utility.yul\":26245:26346   */\n    tag_374:\n        /* \"#utility.yul\":26282:26288   */\n      0x00\n        /* \"#utility.yul\":26333:26335   */\n      0x20\n        /* \"#utility.yul\":26328:26330   */\n      0x1f\n        /* \"#utility.yul\":26321:26326   */\n      dup4\n        /* \"#utility.yul\":26317:26331   */\n      add\n        /* \"#utility.yul\":26313:26336   */\n      div\n        /* \"#utility.yul\":26303:26336   */\n      swap1\n      pop\n        /* \"#utility.yul\":26245:26346   */\n      swap2\n      swap1\n      pop\n      jump\t// out\n        /* \"#utility.yul\":26356:26475   */\n    tag_375:\n        /* \"#utility.yul\":26400:26408   */\n      0x00\n        /* \"#utility.yul\":26458:26463   */\n      dup3\n        /* \"#utility.yul\":26452:26456   */\n      dup3\n        /* \"#utility.yul\":26448:26464   */\n      shl\n        /* \"#utility.yul\":26423:26464   */\n      swap1\n      pop\n        /* \"#utility.yul\":26356:26475   */\n      swap3\n      swap2\n      pop\n      pop\n      jump\t// out\n        /* \"#utility.yul\":26485:26902   */\n    tag_376:\n        /* \"#utility.yul\":26554:26560   */\n      0x00\n        /* \"#utility.yul\":26608:26609   */\n      0x08\n        /* \"#utility.yul\":26596:26606   */\n      dup4\n        /* \"#utility.yul\":26592:26610   */\n      mul\n        /* \"#utility.yul\":26635:26732   */\n      tag_665\n        /* \"#utility.yul\":26665:26731   */\n      0xffffffffffffffffffffffffffffffffffffffffffffffffffffffffffffffff\n        /* \"#utility.yul\":26654:26663   */\n      dup3\n        /* \"#utility.yul\":26635:26732   */\n      tag_375\n      jump\t// in\n    tag_665:\n        /* \"#utility.yul\":26757:26796   */\n      tag_666\n        /* \"#utility.yul\":26787:26795   */\n      dup7\n        /* \"#utility.yul\":26776:26785   */\n      dup4\n        /* \"#utility.yul\":26757:26796   */\n      tag_375\n      jump\t// in\n    tag_666:\n        /* \"#utility.yul\":26745:26796   */\n      swap6\n      pop\n        /* \"#utility.yul\":26833:26837   */\n      dup1\n        /* \"#utility.yul\":26829:26838   */\n      not\n        /* \"#utility.yul\":26822:26827   */\n      dup5\n        /* \"#utility.yul\":26818:26839   */\n      and\n        /* \"#utility.yul\":26809:26839   */\n      swap4\n      pop\n        /* \"#utility.yul\":26886:26890   */\n      dup1\n        /* \"#utility.yul\":26876:26884   */\n      dup7\n        /* \"#utility.yul\":26872:26891   */\n      and\n        /* \"#utility.yul\":26865:26870   */\n      dup5\n        /* \"#utility.yul\":26862:26892   */\n      or\n        /* \"#utility.yul\":26852:26892   */\n      swap3\n      pop\n        /* \"#utility.yul\":26561:26902   */\n      pop\n      pop\n        /* \"#utility.yul\":26485:26902   */\n      swap4\n      swap3\n      pop\n      pop\n      pop\n      jump\t// out\n        /* \"#utility.yul\":26912:26980   */\n    tag_377:\n        /* \"#utility.yul\":26940:26943   */\n      0x00\n        /* \"#utility.yul\":26965:26970   */\n      dup2\n        /* \"#utility.yul\":26958:26970   */\n      swap1\n      pop\n        /* \"#utility.yul\":26912:26980   */\n      swap2\n      swap1\n      pop\n      jump\t// out\n        /* \"#utility.yul\":26990:27140   */\n    tag_378:\n        /* \"#utility.yul\":27040:27049   */\n      0x00\n        /* \"#utility.yul\":27077:27130   */\n      tag_669\n        /* \"#utility.yul\":27095:27129   */\n      tag_670\n        /* \"#utility.yul\":27104:27128   */\n      tag_671\n        /* \"#utility.yul\":27122:27127   */\n      dup5\n        /* \"#utility.yul\":27104:27128   */\n      tag_322\n      jump\t// in\n    tag_671:\n        /* \"#utility.yul\":27095:27129   */\n      tag_377\n      jump\t// in\n    tag_670:\n        /* \"#utility.yul\":27077:27130   */\n      tag_322\n      jump\t// in\n    tag_669:\n        /* \"#utility.yul\":27064:27130   */\n      swap1\n      pop\n        /* \"#utility.yul\":26990:27140   */\n      swap2\n      swap1\n      pop\n      jump\t// out\n        /* \"#utility.yul\":27150:27233   */\n    tag_379:\n        /* \"#utility.yul\":27193:27196   */\n      0x00\n        /* \"#utility.yul\":27218:27223   */\n      dup2\n        /* \"#utility.yul\":27211:27223   */\n      swap1\n      pop\n        /* \"#utility.yul\":27150:27233   */\n      swap2\n      swap1\n      pop\n      jump\t// out\n        /* \"#utility.yul\":27243:27524   */\n    tag_380:\n        /* \"#utility.yul\":27357:27396   */\n      tag_674\n        /* \"#utility.yul\":27388:27395   */\n      dup4\n        /* \"#utility.yul\":27357:27396   */\n      tag_378\n      jump\t// in\n    tag_674:\n        /* \"#utility.yul\":27422:27513   */\n      tag_675\n        /* \"#utility.yul\":27471:27512   */\n      tag_676\n        /* \"#utility.yul\":27495:27511   */\n      dup3\n        /* \"#utility.yul\":27471:27512   */\n      tag_379\n      jump\t// in\n    tag_676:\n        /* \"#utility.yul\":27463:27469   */\n      dup5\n        /* \"#utility.yul\":27456:27460   */\n      dup5\n        /* \"#utility.yul\":27450:27461   */\n      sload\n        /* \"#utility.yul\":27422:27513   */\n      tag_376\n      jump\t// in\n    tag_675:\n        /* \"#utility.yul\":27416:27420   */\n      dup3\n        /* \"#utility.yul\":27409:27514   */\n      sstore\n        /* \"#utility.yul\":27319:27524   */\n      pop\n        /* \"#utility.yul\":27243:27524   */\n      pop\n      pop\n      pop\n      jump\t// out\n        /* \"#utility.yul\":27534:27615   */\n    tag_381:\n        /* \"#utility.yul\":27579:27582   */\n      0x00\n        /* \"#utility.yul\":27534:27615   */\n      swap1\n      jump\t// out\n        /* \"#utility.yul\":27625:27826   */\n    tag_382:\n        /* \"#utility.yul\":27706:27738   */\n      tag_679\n      tag_381\n      jump\t// in\n    tag_679:\n        /* \"#utility.yul\":27751:27816   */\n      tag_680\n        /* \"#utility.yul\":27809:27815   */\n      dup2\n        /* \"#utility.yul\":27801:27807   */\n      dup5\n        /* \"#utility.yul\":27795:27799   */\n      dup5\n        /* \"#utility.yul\":27751:27816   */\n      tag_380\n      jump\t// in\n    tag_680:\n        /* \"#utility.yul\":27678:27826   */\n      pop\n        /* \"#utility.yul\":27625:27826   */\n      pop\n      pop\n      jump\t// out\n        /* \"#utility.yul\":27836:28042   */\n    tag_383:\n        /* \"#utility.yul\":27900:28032   */\n    tag_682:\n        /* \"#utility.yul\":27917:27920   */\n      dup2\n        /* \"#utility.yul\":27910:27915   */\n      dup2\n        /* \"#utility.yul\":27907:27921   */\n      lt\n        /* \"#utility.yul\":27900:28032   */\n      iszero\n      tag_684\n      jumpi\n        /* \"#utility.yul\":27979:28018   */\n      tag_685\n        /* \"#utility.yul\":28016:28017   */\n      0x00\n        /* \"#utility.yul\":28009:28014   */\n      dup3\n        /* \"#utility.yul\":27979:28018   */\n      tag_382\n      jump\t// in\n    tag_685:\n        /* \"#utility.yul\":27944:27945   */\n      0x01\n        /* \"#utility.yul\":27937:27942   */\n      dup2\n        /* \"#utility.yul\":27933:27946   */\n      add\n        /* \"#utility.yul\":27924:27946   */\n      swap1\n      pop\n        /* \"#utility.yul\":27900:28032   */\n      jump(tag_682)\n    tag_684:\n        /* \"#utility.yul\":27836:28042   */\n      pop\n      pop\n      jump\t// out\n        /* \"#utility.yul\":28052:28627   */\n    tag_384:\n        /* \"#utility.yul\":28157:28159   */\n      0x1f\n        /* \"#utility.yul\":28152:28155   */\n      dup3\n        /* \"#utility.yul\":28149:28160   */\n      gt\n        /* \"#utility.yul\":28146:28616   */\n      iszero\n      tag_687\n      jumpi\n        /* \"#utility.yul\":28195:28233   */\n      tag_688\n        /* \"#utility.yul\":28227:28232   */\n      dup2\n        /* \"#utility.yul\":28195:28233   */\n      tag_373\n      jump\t// in\n    tag_688:\n        /* \"#utility.yul\":28283:28312   */\n      tag_689\n        /* \"#utility.yul\":28301:28311   */\n      dup5\n        /* \"#utility.yul\":28283:28312   */\n      tag_374\n      jump\t// in\n    tag_689:\n        /* \"#utility.yul\":28273:28281   */\n      dup2\n        /* \"#utility.yul\":28269:28313   */\n      add\n        /* \"#utility.yul\":28474:28476   */\n      0x20\n        /* \"#utility.yul\":28462:28472   */\n      dup6\n        /* \"#utility.yul\":28459:28477   */\n      lt\n        /* \"#utility.yul\":28456:28505   */\n      iszero\n      tag_690\n      jumpi\n        /* \"#utility.yul\":28495:28503   */\n      dup2\n        /* \"#utility.yul\":28480:28503   */\n      swap1\n      pop\n        /* \"#utility.yul\":28456:28505   */\n    tag_690:\n        /* \"#utility.yul\":28522:28602   */\n      tag_691\n        /* \"#utility.yul\":28578:28600   */\n      tag_692\n        /* \"#utility.yul\":28596:28599   */\n      dup6\n        /* \"#utility.yul\":28578:28600   */\n      tag_374\n      jump\t// in\n    tag_692:\n        /* \"#utility.yul\":28568:28576   */\n      dup4\n        /* \"#utility.yul\":28564:28601   */\n      add\n        /* \"#utility.yul\":28551:28562   */\n      dup3\n        /* \"#utility.yul\":28522:28602   */\n      tag_383\n      jump\t// in\n    tag_691:\n        /* \"#utility.yul\":28161:28616   */\n      pop\n      pop\n        /* \"#utility.yul\":28146:28616   */\n    tag_687:\n        /* \"#utility.yul\":28052:28627   */\n      pop\n      pop\n      pop\n      jump\t// out\n        /* \"#utility.yul\":28637:28766   */\n    tag_385:\n        /* \"#utility.yul\":28691:28699   */\n      0x00\n        /* \"#utility.yul\":28749:28754   */\n      dup3\n        /* \"#utility.yul\":28743:28747   */\n      dup3\n        /* \"#utility.yul\":28739:28755   */\n      shr\n        /* \"#utility.yul\":28714:28755   */\n      swap1\n      pop\n        /* \"#utility.yul\":28637:28766   */\n      swap3\n      swap2\n      pop\n      pop\n      jump\t// out\n        /* \"#utility.yul\":28776:28957   */\n    tag_386:\n        /* \"#utility.yul\":28820:28826   */\n      0x00\n        /* \"#utility.yul\":28857:28908   */\n      tag_695\n        /* \"#utility.yul\":28905:28906   */\n      0x00\n        /* \"#utility.yul\":28901:28907   */\n      not\n        /* \"#utility.yul\":28893:28898   */\n      dup5\n        /* \"#utility.yul\":28890:28891   */\n      0x08\n        /* \"#utility.yul\":28886:28899   */\n      mul\n        /* \"#utility.yul\":28857:28908   */\n      tag_385\n      jump\t// in\n    tag_695:\n        /* \"#utility.yul\":28853:28909   */\n      not\n        /* \"#utility.yul\":28942:28946   */\n      dup1\n        /* \"#utility.yul\":28936:28940   */\n      dup4\n        /* \"#utility.yul\":28932:28947   */\n      and\n        /* \"#utility.yul\":28922:28947   */\n      swap2\n      pop\n        /* \"#utility.yul\":28827:28957   */\n      pop\n        /* \"#utility.yul\":28776:28957   */\n      swap3\n      swap2\n      pop\n      pop\n      jump\t// out\n        /* \"#utility.yul\":28966:29281   */\n    tag_387:\n        /* \"#utility.yul\":29042:29046   */\n      0x00\n        /* \"#utility.yul\":29200:29229   */\n      tag_697\n        /* \"#utility.yul\":29225:29228   */\n      dup4\n        /* \"#utility.yul\":29219:29223   */\n      dup4\n        /* \"#utility.yul\":29200:29229   */\n      tag_386\n      jump\t// in\n    tag_697:\n        /* \"#utility.yul\":29192:29229   */\n      swap2\n      pop\n        /* \"#utility.yul\":29266:29269   */\n      dup3\n        /* \"#utility.yul\":29263:29264   */\n      0x02\n        /* \"#utility.yul\":29259:29270   */\n      mul\n        /* \"#utility.yul\":29253:29257   */\n      dup3\n        /* \"#utility.yul\":29250:29271   */\n      or\n        /* \"#utility.yul\":29242:29271   */\n      swap1\n      pop\n        /* \"#utility.yul\":28966:29281   */\n      swap3\n      swap2\n      pop\n      pop\n      jump\t// out\n        /* \"#utility.yul\":29290:30813   */\n    tag_175:\n        /* \"#utility.yul\":29411:29448   */\n      tag_699\n        /* \"#utility.yul\":29444:29447   */\n      dup3\n        /* \"#utility.yul\":29411:29448   */\n      tag_340\n      jump\t// in\n    tag_699:\n        /* \"#utility.yul\":29521:29539   */\n      0xffffffffffffffff\n        /* \"#utility.yul\":29513:29519   */\n      dup2\n        /* \"#utility.yul\":29510:29540   */\n      gt\n        /* \"#utility.yul\":29507:29563   */\n      iszero\n      tag_700\n      jumpi\n        /* \"#utility.yul\":29543:29561   */\n      tag_701\n      tag_121\n      jump\t// in\n    tag_701:\n        /* \"#utility.yul\":29507:29563   */\n    tag_700:\n        /* \"#utility.yul\":29591:29629   */\n      tag_702\n        /* \"#utility.yul\":29623:29627   */\n      dup3\n        /* \"#utility.yul\":29617:29628   */\n      sload\n        /* \"#utility.yul\":29591:29629   */\n      tag_372\n      jump\t// in\n    tag_702:\n        /* \"#utility.yul\":29684:29751   */\n      tag_703\n        /* \"#utility.yul\":29744:29750   */\n      dup3\n        /* \"#utility.yul\":29736:29742   */\n      dup3\n        /* \"#utility.yul\":29730:29734   */\n      dup6\n        /* \"#utility.yul\":29684:29751   */\n      tag_384\n      jump\t// in\n    tag_703:\n        /* \"#utility.yul\":29782:29783   */\n      0x00\n        /* \"#utility.yul\":29810:29814   */\n      0x20\n        /* \"#utility.yul\":29797:29814   */\n      swap1\n      pop\n        /* \"#utility.yul\":29846:29848   */\n      0x1f\n        /* \"#utility.yul\":29838:29844   */\n      dup4\n        /* \"#utility.yul\":29835:29849   */\n      gt\n        /* \"#utility.yul\":29867:29868   */\n      0x01\n        /* \"#utility.yul\":29862:30536   */\n      dup2\n      eq\n      tag_705\n      jumpi\n        /* \"#utility.yul\":30588:30589   */\n      0x00\n        /* \"#utility.yul\":30609:30615   */\n      dup5\n        /* \"#utility.yul\":30606:30691   */\n      iszero\n      tag_706\n      jumpi\n        /* \"#utility.yul\":30662:30671   */\n      dup3\n        /* \"#utility.yul\":30657:30660   */\n      dup8\n        /* \"#utility.yul\":30653:30672   */\n      add\n        /* \"#utility.yul\":30647:30673   */\n      mload\n        /* \"#utility.yul\":30638:30673   */\n      swap1\n      pop\n        /* \"#utility.yul\":30606:30691   */\n    tag_706:\n        /* \"#utility.yul\":30721:30788   */\n      tag_707\n        /* \"#utility.yul\":30781:30787   */\n      dup6\n        /* \"#utility.yul\":30774:30779   */\n      dup3\n        /* \"#utility.yul\":30721:30788   */\n      tag_387\n      jump\t// in\n    tag_707:\n        /* \"#utility.yul\":30715:30719   */\n      dup7\n        /* \"#utility.yul\":30708:30789   */\n      sstore\n        /* \"#utility.yul\":30557:30803   */\n      pop\n        /* \"#utility.yul\":29828:30803   */\n      jump(tag_704)\n        /* \"#utility.yul\":29862:30536   */\n    tag_705:\n        /* \"#utility.yul\":29918:29922   */\n      0x1f\n        /* \"#utility.yul\":29914:29923   */\n      not\n        /* \"#utility.yul\":29906:29912   */\n      dup5\n        /* \"#utility.yul\":29902:29924   */\n      and\n        /* \"#utility.yul\":29956:29993   */\n      tag_708\n        /* \"#utility.yul\":29988:29992   */\n      dup7\n        /* \"#utility.yul\":29956:29993   */\n      tag_373\n      jump\t// in\n    tag_708:\n        /* \"#utility.yul\":30019:30020   */\n      0x00\n        /* \"#utility.yul\":30037:30261   */\n    tag_709:\n        /* \"#utility.yul\":30051:30058   */\n      dup3\n        /* \"#utility.yul\":30048:30049   */\n      dup2\n        /* \"#utility.yul\":30045:30059   */\n      lt\n        /* \"#utility.yul\":30037:30261   */\n      iszero\n      tag_711\n      jumpi\n        /* \"#utility.yul\":30134:30143   */\n      dup5\n        /* \"#utility.yul\":30129:30132   */\n      dup10\n        /* \"#utility.yul\":30125:30144   */\n      add\n        /* \"#utility.yul\":30119:30145   */\n      mload\n        /* \"#utility.yul\":30111:30117   */\n      dup3\n        /* \"#utility.yul\":30104:30146   */\n      sstore\n        /* \"#utility.yul\":30189:30190   */\n      0x01\n        /* \"#utility.yul\":30181:30187   */\n      dup3\n        /* \"#utility.yul\":30177:30191   */\n      add\n        /* \"#utility.yul\":30167:30191   */\n      swap2\n      pop\n        /* \"#utility.yul\":30240:30242   */\n      0x20\n        /* \"#utility.yul\":30229:30238   */\n      dup6\n        /* \"#utility.yul\":30225:30243   */\n      add\n        /* \"#utility.yul\":30212:30243   */\n      swap5\n      pop\n        /* \"#utility.yul\":30074:30078   */\n      0x20\n        /* \"#utility.yul\":30071:30072   */\n      dup2\n        /* \"#utility.yul\":30067:30079   */\n      add\n        /* \"#utility.yul\":30062:30079   */\n      swap1\n      pop\n        /* \"#utility.yul\":30037:30261   */\n      jump(tag_709)\n    tag_711:\n        /* \"#utility.yul\":30293:30299   */\n      dup7\n        /* \"#utility.yul\":30284:30291   */\n      dup4\n        /* \"#utility.yul\":30281:30300   */\n      lt\n        /* \"#utility.yul\":30278:30469   */\n      iszero\n      tag_712\n      jumpi\n        /* \"#utility.yul\":30355:30364   */\n      dup5\n        /* \"#utility.yul\":30350:30353   */\n      dup10\n        /* \"#utility.yul\":30346:30365   */\n      add\n        /* \"#utility.yul\":30340:30366   */\n      mload\n        /* \"#utility.yul\":30402:30450   */\n      tag_713\n        /* \"#utility.yul\":30444:30448   */\n      0x1f\n        /* \"#utility.yul\":30436:30442   */\n      dup10\n        /* \"#utility.yul\":30432:30449   */\n      and\n        /* \"#utility.yul\":30421:30430   */\n      dup3\n        /* \"#utility.yul\":30402:30450   */\n      tag_386\n      jump\t// in\n    tag_713:\n        /* \"#utility.yul\":30394:30400   */\n      dup4\n        /* \"#utility.yul\":30387:30451   */\n      sstore\n        /* \"#utility.yul\":30301:30469   */\n      pop\n        /* \"#utility.yul\":30278:30469   */\n    tag_712:\n        /* \"#utility.yul\":30519:30520   */\n      0x01\n        /* \"#utility.yul\":30515:30516   */\n      0x02\n        /* \"#utility.yul\":30507:30513   */\n      dup9\n        /* \"#utility.yul\":30503:30517   */\n      mul\n        /* \"#utility.yul\":30499:30521   */\n      add\n        /* \"#utility.yul\":30493:30497   */\n      dup9\n        /* \"#utility.yul\":30486:30522   */\n      sstore\n        /* \"#utility.yul\":29869:30536   */\n      pop\n      pop\n      pop\n        /* \"#utility.yul\":29828:30803   */\n    tag_704:\n      pop\n        /* \"#utility.yul\":29382:30813   */\n      pop\n      pop\n      pop\n        /* \"#utility.yul\":29290:30813   */\n      pop\n      pop\n      jump\t// out\n        /* \"#utility.yul\":30823:31019   */\n    tag_186:\n        /* \"#utility.yul\":30875:30952   */\n      0x4e487b7100000000000000000000000000000000000000000000000000000000\n        /* \"#utility.yul\":30872:30873   */\n      0x00\n        /* \"#utility.yul\":30865:30953   */\n      mstore\n        /* \"#utility.yul\":30976:30980   */\n      0x12\n        /* \"#utility.yul\":30973:30974   */\n      0x04\n        /* \"#utility.yul\":30966:30981   */\n      mstore\n        /* \"#utility.yul\":31004:31008   */\n      0x24\n        /* \"#utility.yul\":31001:31002   */\n      0x00\n        /* \"#utility.yul\":30994:31009   */\n      revert\n        /* \"#utility.yul\":31029:31606   */\n    tag_266:\n        /* \"#utility.yul\":31206:31210   */\n      0x00\n        /* \"#utility.yul\":31248:31251   */\n      0x80\n        /* \"#utility.yul\":31237:31246   */\n      dup3\n        /* \"#utility.yul\":31233:31252   */\n      add\n        /* \"#utility.yul\":31225:31252   */\n      swap1\n      pop\n        /* \"#utility.yul\":31266:31337   */\n      tag_716\n        /* \"#utility.yul\":31334:31335   */\n      0x00\n        /* \"#utility.yul\":31323:31332   */\n      dup4\n        /* \"#utility.yul\":31319:31336   */\n      add\n        /* \"#utility.yul\":31310:31316   */\n      dup8\n        /* \"#utility.yul\":31266:31337   */\n      tag_361\n      jump\t// in\n    tag_716:\n        /* \"#utility.yul\":31351:31423   */\n      tag_717\n        /* \"#utility.yul\":31419:31421   */\n      0x20\n        /* \"#utility.yul\":31408:31417   */\n      dup4\n        /* \"#utility.yul\":31404:31422   */\n      add\n        /* \"#utility.yul\":31395:31401   */\n      dup7\n        /* \"#utility.yul\":31351:31423   */\n      tag_325\n      jump\t// in\n    tag_717:\n        /* \"#utility.yul\":31437:31509   */\n      tag_718\n        /* \"#utility.yul\":31505:31507   */\n      0x40\n        /* \"#utility.yul\":31494:31503   */\n      dup4\n        /* \"#utility.yul\":31490:31508   */\n      add\n        /* \"#utility.yul\":31481:31487   */\n      dup6\n        /* \"#utility.yul\":31437:31509   */\n      tag_325\n      jump\t// in\n    tag_718:\n        /* \"#utility.yul\":31523:31595   */\n      tag_719\n        /* \"#utility.yul\":31591:31593   */\n      0x60\n        /* \"#utility.yul\":31580:31589   */\n      dup4\n        /* \"#utility.yul\":31576:31594   */\n      add\n        /* \"#utility.yul\":31567:31573   */\n      dup5\n        /* \"#utility.yul\":31523:31595   */\n      tag_325\n      jump\t// in\n    tag_719:\n        /* \"#utility.yul\":31029:31606   */\n      swap6\n      swap5\n      pop\n      pop\n      pop\n      pop\n      pop\n      jump\t// out\n        /* \"#utility.yul\":31616:31827   */\n    tag_269:\n        /* \"#utility.yul\":31656:31659   */\n      0x00\n        /* \"#utility.yul\":31679:31699   */\n      tag_721\n        /* \"#utility.yul\":31697:31698   */\n      dup3\n        /* \"#utility.yul\":31679:31699   */\n      tag_322\n      jump\t// in\n    tag_721:\n        /* \"#utility.yul\":31674:31699   */\n      swap2\n      pop\n        /* \"#utility.yul\":31717:31737   */\n      tag_722\n        /* \"#utility.yul\":31735:31736   */\n      dup4\n        /* \"#utility.yul\":31717:31737   */\n      tag_322\n      jump\t// in\n    tag_722:\n        /* \"#utility.yul\":31712:31737   */\n      swap3\n      pop\n        /* \"#utility.yul\":31764:31765   */\n      dup3\n        /* \"#utility.yul\":31761:31762   */\n      dup3\n        /* \"#utility.yul\":31757:31766   */\n      add\n        /* \"#utility.yul\":31750:31766   */\n      swap1\n      pop\n        /* \"#utility.yul\":31789:31792   */\n      dup1\n        /* \"#utility.yul\":31786:31787   */\n      dup3\n        /* \"#utility.yul\":31783:31793   */\n      gt\n        /* \"#utility.yul\":31780:31816   */\n      iszero\n      tag_723\n      jumpi\n        /* \"#utility.yul\":31796:31814   */\n      tag_724\n      tag_370\n      jump\t// in\n    tag_724:\n        /* \"#utility.yul\":31780:31816   */\n    tag_723:\n        /* \"#utility.yul\":31616:31827   */\n      swap3\n      swap2\n      pop\n      pop\n      jump\t// out\n        /* \"#utility.yul\":31837:32495   */\n    tag_277:\n        /* \"#utility.yul\":32058:32062   */\n      0x00\n        /* \"#utility.yul\":32100:32102   */\n      0x40\n        /* \"#utility.yul\":32089:32098   */\n      dup3\n        /* \"#utility.yul\":32085:32103   */\n      add\n        /* \"#utility.yul\":32077:32103   */\n      swap1\n      pop\n        /* \"#utility.yul\":32153:32162   */\n      dup2\n        /* \"#utility.yul\":32147:32151   */\n      dup2\n        /* \"#utility.yul\":32143:32163   */\n      sub\n        /* \"#utility.yul\":32139:32140   */\n      0x00\n        /* \"#utility.yul\":32128:32137   */\n      dup4\n        /* \"#utility.yul\":32124:32141   */\n      add\n        /* \"#utility.yul\":32117:32164   */\n      mstore\n        /* \"#utility.yul\":32185:32293   */\n      tag_726\n        /* \"#utility.yul\":32288:32292   */\n      dup2\n        /* \"#utility.yul\":32279:32285   */\n      dup6\n        /* \"#utility.yul\":32185:32293   */\n      tag_360\n      jump\t// in\n    tag_726:\n        /* \"#utility.yul\":32177:32293   */\n      swap1\n      pop\n        /* \"#utility.yul\":32344:32353   */\n      dup2\n        /* \"#utility.yul\":32338:32342   */\n      dup2\n        /* \"#utility.yul\":32334:32354   */\n      sub\n        /* \"#utility.yul\":32329:32331   */\n      0x20\n        /* \"#utility.yul\":32318:32327   */\n      dup4\n        /* \"#utility.yul\":32314:32332   */\n      add\n        /* \"#utility.yul\":32307:32355   */\n      mstore\n        /* \"#utility.yul\":32376:32484   */\n      tag_727\n        /* \"#utility.yul\":32479:32483   */\n      dup2\n        /* \"#utility.yul\":32470:32476   */\n      dup5\n        /* \"#utility.yul\":32376:32484   */\n      tag_360\n      jump\t// in\n    tag_727:\n        /* \"#utility.yul\":32368:32484   */\n      swap1\n      pop\n        /* \"#utility.yul\":31837:32495   */\n      swap4\n      swap3\n      pop\n      pop\n      pop\n      jump\t// out\n        /* \"#utility.yul\":32505:32611   */\n    tag_388:\n        /* \"#utility.yul\":32556:32562   */\n      0x00\n        /* \"#utility.yul\":32594:32599   */\n      dup2\n        /* \"#utility.yul\":32588:32600   */\n      mload\n        /* \"#utility.yul\":32578:32600   */\n      swap1\n      pop\n        /* \"#utility.yul\":32505:32611   */\n      swap2\n      swap1\n      pop\n      jump\t// out\n        /* \"#utility.yul\":32621:32801   */\n    tag_389:\n        /* \"#utility.yul\":32704:32715   */\n      0x00\n        /* \"#utility.yul\":32742:32748   */\n      dup3\n        /* \"#utility.yul\":32737:32740   */\n      dup3\n        /* \"#utility.yul\":32730:32749   */\n      mstore\n        /* \"#utility.yul\":32786:32790   */\n      0x20\n        /* \"#utility.yul\":32781:32784   */\n      dup3\n        /* \"#utility.yul\":32777:32791   */\n      add\n        /* \"#utility.yul\":32762:32791   */\n      swap1\n      pop\n        /* \"#utility.yul\":32621:32801   */\n      swap3\n      swap2\n      pop\n      pop\n      jump\t// out\n        /* \"#utility.yul\":32811:33204   */\n    tag_390:\n        /* \"#utility.yul\":32897:32900   */\n      0x00\n        /* \"#utility.yul\":32929:32967   */\n      tag_731\n        /* \"#utility.yul\":32961:32966   */\n      dup3\n        /* \"#utility.yul\":32929:32967   */\n      tag_388\n      jump\t// in\n    tag_731:\n        /* \"#utility.yul\":32987:33057   */\n      tag_732\n        /* \"#utility.yul\":33050:33056   */\n      dup2\n        /* \"#utility.yul\":33045:33048   */\n      dup6\n        /* \"#utility.yul\":32987:33057   */\n      tag_389\n      jump\t// in\n    tag_732:\n        /* \"#utility.yul\":32980:33057   */\n      swap4\n      pop\n        /* \"#utility.yul\":33070:33135   */\n      tag_733\n        /* \"#utility.yul\":33128:33134   */\n      dup2\n        /* \"#utility.yul\":33123:33126   */\n      dup6\n        /* \"#utility.yul\":33116:33120   */\n      0x20\n        /* \"#utility.yul\":33109:33114   */\n      dup7\n        /* \"#utility.yul\":33105:33121   */\n      add\n        /* \"#utility.yul\":33070:33135   */\n      tag_342\n      jump\t// in\n    tag_733:\n        /* \"#utility.yul\":33164:33193   */\n      tag_734\n        /* \"#utility.yul\":33186:33192   */\n      dup2\n        /* \"#utility.yul\":33164:33193   */\n      tag_333\n      jump\t// in\n    tag_734:\n        /* \"#utility.yul\":33159:33162   */\n      dup5\n        /* \"#utility.yul\":33155:33194   */\n      add\n        /* \"#utility.yul\":33148:33194   */\n      swap2\n      pop\n        /* \"#utility.yul\":32901:33204   */\n      pop\n        /* \"#utility.yul\":32811:33204   */\n      swap3\n      swap2\n      pop\n      pop\n      jump\t// out\n        /* \"#utility.yul\":33214:33997   */\n    tag_281:\n        /* \"#utility.yul\":33437:33441   */\n      0x00\n        /* \"#utility.yul\":33479:33482   */\n      0xa0\n        /* \"#utility.yul\":33468:33477   */\n      dup3\n        /* \"#utility.yul\":33464:33483   */\n      add\n        /* \"#utility.yul\":33456:33483   */\n      swap1\n      pop\n        /* \"#utility.yul\":33497:33568   */\n      tag_736\n        /* \"#utility.yul\":33565:33566   */\n      0x00\n        /* \"#utility.yul\":33554:33563   */\n      dup4\n        /* \"#utility.yul\":33550:33567   */\n      add\n        /* \"#utility.yul\":33541:33547   */\n      dup9\n        /* \"#utility.yul\":33497:33568   */\n      tag_361\n      jump\t// in\n    tag_736:\n        /* \"#utility.yul\":33582:33654   */\n      tag_737\n        /* \"#utility.yul\":33650:33652   */\n      0x20\n        /* \"#utility.yul\":33639:33648   */\n      dup4\n        /* \"#utility.yul\":33635:33653   */\n      add\n        /* \"#utility.yul\":33626:33632   */\n      dup8\n        /* \"#utility.yul\":33582:33654   */\n      tag_361\n      jump\t// in\n    tag_737:\n        /* \"#utility.yul\":33668:33740   */\n      tag_738\n        /* \"#utility.yul\":33736:33738   */\n      0x40\n        /* \"#utility.yul\":33725:33734   */\n      dup4\n        /* \"#utility.yul\":33721:33739   */\n      add\n        /* \"#utility.yul\":33712:33718   */\n      dup7\n        /* \"#utility.yul\":33668:33740   */\n      tag_325\n      jump\t// in\n    tag_738:\n        /* \"#utility.yul\":33754:33826   */\n      tag_739\n        /* \"#utility.yul\":33822:33824   */\n      0x60\n        /* \"#utility.yul\":33811:33820   */\n      dup4\n        /* \"#utility.yul\":33807:33825   */\n      add\n        /* \"#utility.yul\":33798:33804   */\n      dup6\n        /* \"#utility.yul\":33754:33826   */\n      tag_325\n      jump\t// in\n    tag_739:\n        /* \"#utility.yul\":33878:33887   */\n      dup2\n        /* \"#utility.yul\":33872:33876   */\n      dup2\n        /* \"#utility.yul\":33868:33888   */\n      sub\n        /* \"#utility.yul\":33862:33865   */\n      0x80\n        /* \"#utility.yul\":33851:33860   */\n      dup4\n        /* \"#utility.yul\":33847:33866   */\n      add\n        /* \"#utility.yul\":33840:33889   */\n      mstore\n        /* \"#utility.yul\":33910:33986   */\n      tag_740\n        /* \"#utility.yul\":33981:33985   */\n      dup2\n        /* \"#utility.yul\":33972:33978   */\n      dup5\n        /* \"#utility.yul\":33910:33986   */\n      tag_390\n      jump\t// in\n    tag_740:\n        /* \"#utility.yul\":33902:33986   */\n      swap1\n      pop\n        /* \"#utility.yul\":33214:33997   */\n      swap7\n      swap6\n      pop\n      pop\n      pop\n      pop\n      pop\n      pop\n      jump\t// out\n        /* \"#utility.yul\":34007:34160   */\n    tag_391:\n        /* \"#utility.yul\":34063:34068   */\n      0x00\n        /* \"#utility.yul\":34098:34104   */\n      dup2\n        /* \"#utility.yul\":34092:34105   */\n      mload\n        /* \"#utility.yul\":34083:34105   */\n      swap1\n      pop\n        /* \"#utility.yul\":34118:34150   */\n      tag_742\n        /* \"#utility.yul\":34144:34149   */\n      dup2\n        /* \"#utility.yul\":34118:34150   */\n      tag_327\n      jump\t// in\n    tag_742:\n        /* \"#utility.yul\":34007:34160   */\n      swap3\n      swap2\n      pop\n      pop\n      jump\t// out\n        /* \"#utility.yul\":34170:34543   */\n    tag_284:\n        /* \"#utility.yul\":34239:34245   */\n      0x00\n        /* \"#utility.yul\":34292:34294   */\n      0x20\n        /* \"#utility.yul\":34280:34289   */\n      dup3\n        /* \"#utility.yul\":34271:34278   */\n      dup5\n        /* \"#utility.yul\":34267:34290   */\n      sub\n        /* \"#utility.yul\":34263:34295   */\n      slt\n        /* \"#utility.yul\":34260:34379   */\n      iszero\n      tag_744\n      jumpi\n        /* \"#utility.yul\":34298:34377   */\n      tag_745\n      tag_316\n      jump\t// in\n    tag_745:\n        /* \"#utility.yul\":34260:34379   */\n    tag_744:\n        /* \"#utility.yul\":34426:34427   */\n      0x00\n        /* \"#utility.yul\":34455:34518   */\n      tag_746\n        /* \"#utility.yul\":34510:34517   */\n      dup5\n        /* \"#utility.yul\":34501:34507   */\n      dup3\n        /* \"#utility.yul\":34490:34499   */\n      dup6\n        /* \"#utility.yul\":34486:34508   */\n      add\n        /* \"#utility.yul\":34455:34518   */\n      tag_391\n      jump\t// in\n    tag_746:\n        /* \"#utility.yul\":34445:34518   */\n      swap2\n      pop\n        /* \"#utility.yul\":34393:34532   */\n      pop\n        /* \"#utility.yul\":34170:34543   */\n      swap3\n      swap2\n      pop\n      pop\n      jump\t// out\n        /* \"#utility.yul\":34553:35646   */\n    tag_300:\n        /* \"#utility.yul\":34876:34880   */\n      0x00\n        /* \"#utility.yul\":34918:34921   */\n      0xa0\n        /* \"#utility.yul\":34907:34916   */\n      dup3\n        /* \"#utility.yul\":34903:34922   */\n      add\n        /* \"#utility.yul\":34895:34922   */\n      swap1\n      pop\n        /* \"#utility.yul\":34936:35007   */\n      tag_748\n        /* \"#utility.yul\":35004:35005   */\n      0x00\n        /* \"#utility.yul\":34993:35002   */\n      dup4\n        /* \"#utility.yul\":34989:35006   */\n      add\n        /* \"#utility.yul\":34980:34986   */\n      dup9\n        /* \"#utility.yul\":34936:35007   */\n      tag_361\n      jump\t// in\n    tag_748:\n        /* \"#utility.yul\":35021:35093   */\n      tag_749\n        /* \"#utility.yul\":35089:35091   */\n      0x20\n        /* \"#utility.yul\":35078:35087   */\n      dup4\n        /* \"#utility.yul\":35074:35092   */\n      add\n        /* \"#utility.yul\":35065:35071   */\n      dup8\n        /* \"#utility.yul\":35021:35093   */\n      tag_361\n      jump\t// in\n    tag_749:\n        /* \"#utility.yul\":35144:35153   */\n      dup2\n        /* \"#utility.yul\":35138:35142   */\n      dup2\n        /* \"#utility.yul\":35134:35154   */\n      sub\n        /* \"#utility.yul\":35129:35131   */\n      0x40\n        /* \"#utility.yul\":35118:35127   */\n      dup4\n        /* \"#utility.yul\":35114:35132   */\n      add\n        /* \"#utility.yul\":35107:35155   */\n      mstore\n        /* \"#utility.yul\":35176:35284   */\n      tag_750\n        /* \"#utility.yul\":35279:35283   */\n      dup2\n        /* \"#utility.yul\":35270:35276   */\n      dup7\n        /* \"#utility.yul\":35176:35284   */\n      tag_360\n      jump\t// in\n    tag_750:\n        /* \"#utility.yul\":35168:35284   */\n      swap1\n      pop\n        /* \"#utility.yul\":35335:35344   */\n      dup2\n        /* \"#utility.yul\":35329:35333   */\n      dup2\n        /* \"#utility.yul\":35325:35345   */\n      sub\n        /* \"#utility.yul\":35320:35322   */\n      0x60\n        /* \"#utility.yul\":35309:35318   */\n      dup4\n        /* \"#utility.yul\":35305:35323   */\n      add\n        /* \"#utility.yul\":35298:35346   */\n      mstore\n        /* \"#utility.yul\":35367:35475   */\n      tag_751\n        /* \"#utility.yul\":35470:35474   */\n      dup2\n        /* \"#utility.yul\":35461:35467   */\n      dup6\n        /* \"#utility.yul\":35367:35475   */\n      tag_360\n      jump\t// in\n    tag_751:\n        /* \"#utility.yul\":35359:35475   */\n      swap1\n      pop\n        /* \"#utility.yul\":35527:35536   */\n      dup2\n        /* \"#utility.yul\":35521:35525   */\n      dup2\n        /* \"#utility.yul\":35517:35537   */\n      sub\n        /* \"#utility.yul\":35511:35514   */\n      0x80\n        /* \"#utility.yul\":35500:35509   */\n      dup4\n        /* \"#utility.yul\":35496:35515   */\n      add\n        /* \"#utility.yul\":35489:35538   */\n      mstore\n        /* \"#utility.yul\":35559:35635   */\n      tag_752\n        /* \"#utility.yul\":35630:35634   */\n      dup2\n        /* \"#utility.yul\":35621:35627   */\n      dup5\n        /* \"#utility.yul\":35559:35635   */\n      tag_390\n      jump\t// in\n    tag_752:\n        /* \"#utility.yul\":35551:35635   */\n      swap1\n      pop\n        /* \"#utility.yul\":34553:35646   */\n      swap7\n      swap6\n      pop\n      pop\n      pop\n      pop\n      pop\n      pop\n      jump\t// out\n\n    auxdata: 0xa2646970667358221220e8df38160539d29bd984e303a1ab3890cb5f595a5c6d03f65af7fab596d4c2c764736f6c63430008140033\n}\n",
				"bytecode": {
					"linkReferences": {},
					"object": "608060405234801562000010575f80fd5b50604051620031103803806200311083398181016040528101906200003691906200022c565b806040518060800160405280604d8152602001620030c3604d91396200006281620000ef60201b60201c565b505f73ffffffffffffffffffffffffffffffffffffffff168173ffffffffffffffffffffffffffffffffffffffff1603620000d6575f6040517f1e4fbdf7000000000000000000000000000000000000000000000000000000008152600401620000cd91906200026d565b60405180910390fd5b620000e7816200010460201b60201c565b5050620005d0565b8060029081620001009190620004ec565b5050565b5f60035f9054906101000a900473ffffffffffffffffffffffffffffffffffffffff1690508160035f6101000a81548173ffffffffffffffffffffffffffffffffffffffff021916908373ffffffffffffffffffffffffffffffffffffffff1602179055508173ffffffffffffffffffffffffffffffffffffffff168173ffffffffffffffffffffffffffffffffffffffff167f8be0079c531659141344cd1fd0a4f28419497f9722a3daafe3b4186f6b6457e060405160405180910390a35050565b5f80fd5b5f73ffffffffffffffffffffffffffffffffffffffff82169050919050565b5f620001f682620001cb565b9050919050565b6200020881620001ea565b811462000213575f80fd5b50565b5f815190506200022681620001fd565b92915050565b5f60208284031215620002445762000243620001c7565b5b5f620002538482850162000216565b91505092915050565b6200026781620001ea565b82525050565b5f602082019050620002825f8301846200025c565b92915050565b5f81519050919050565b7f4e487b71000000000000000000000000000000000000000000000000000000005f52604160045260245ffd5b7f4e487b71000000000000000000000000000000000000000000000000000000005f52602260045260245ffd5b5f60028204905060018216806200030457607f821691505b6020821081036200031a5762000319620002bf565b5b50919050565b5f819050815f5260205f209050919050565b5f6020601f8301049050919050565b5f82821b905092915050565b5f600883026200037e7fffffffffffffffffffffffffffffffffffffffffffffffffffffffffffffffff8262000341565b6200038a868362000341565b95508019841693508086168417925050509392505050565b5f819050919050565b5f819050919050565b5f620003d4620003ce620003c884620003a2565b620003ab565b620003a2565b9050919050565b5f819050919050565b620003ef83620003b4565b62000407620003fe82620003db565b8484546200034d565b825550505050565b5f90565b6200041d6200040f565b6200042a818484620003e4565b505050565b5b818110156200045157620004455f8262000413565b60018101905062000430565b5050565b601f821115620004a0576200046a8162000320565b620004758462000332565b8101602085101562000485578190505b6200049d620004948562000332565b8301826200042f565b50505b505050565b5f82821c905092915050565b5f620004c25f1984600802620004a5565b1980831691505092915050565b5f620004dc8383620004b1565b9150826002028217905092915050565b620004f78262000288565b67ffffffffffffffff81111562000513576200051262000292565b5b6200051f8254620002ec565b6200052c82828562000455565b5f60209050601f83116001811462000562575f84156200054d578287015190505b620005598582620004cf565b865550620005c8565b601f198416620005728662000320565b5f5b828110156200059b5784890151825560018201915060208501945060208101905062000574565b86831015620005bb5784890151620005b7601f891682620004b1565b8355505b6001600288020188555050505b505050505050565b612ae580620005de5f395ff3fe608060405234801561000f575f80fd5b50600436106100e7575f3560e01c8063715018a61161008a578063a22cb46511610064578063a22cb46514610243578063e985e9c51461025f578063f242432a1461028f578063f2fde38b146102ab576100e7565b8063715018a6146101ff578063731133e9146102095780638da5cb5b14610225576100e7565b80630e89341c116100c65780630e89341c146101675780631f7fdffa146101975780632eb2c2d6146101b35780634e1273f4146101cf576100e7565b8062fdd58e146100eb57806301ffc9a71461011b57806302fe53051461014b575b5f80fd5b6101056004803603810190610100919061192b565b6102c7565b6040516101129190611978565b60405180910390f35b610135600480360381019061013091906119e6565b61031c565b6040516101429190611a2b565b60405180910390f35b61016560048036038101906101609190611b80565b6103fd565b005b610181600480360381019061017c9190611bc7565b610411565b60405161018e9190611c6c565b60405180910390f35b6101b160048036038101906101ac9190611dee565b610442565b005b6101cd60048036038101906101c89190611ea6565b61045c565b005b6101e960048036038101906101e49190612031565b610503565b6040516101f6919061215e565b60405180910390f35b610207610610565b005b610223600480360381019061021e919061217e565b610623565b005b61022d61063d565b60405161023a919061220d565b60405180910390f35b61025d60048036038101906102589190612250565b610665565b005b6102796004803603810190610274919061228e565b61067b565b6040516102869190611a2b565b60405180910390f35b6102a960048036038101906102a491906122cc565b610709565b005b6102c560048036038101906102c0919061235f565b6107b0565b005b5f805f8381526020019081526020015f205f8473ffffffffffffffffffffffffffffffffffffffff1673ffffffffffffffffffffffffffffffffffffffff1681526020019081526020015f2054905092915050565b5f7fd9b67a26000000000000000000000000000000000000000000000000000000007bffffffffffffffffffffffffffffffffffffffffffffffffffffffff1916827bffffffffffffffffffffffffffffffffffffffffffffffffffffffff191614806103e657507f0e89341c000000000000000000000000000000000000000000000000000000007bffffffffffffffffffffffffffffffffffffffffffffffffffffffff1916827bffffffffffffffffffffffffffffffffffffffffffffffffffffffff1916145b806103f657506103f582610834565b5b9050919050565b61040561089d565b61040e81610924565b50565b606061041c82610937565b60405160200161042c91906124a4565b6040516020818303038152906040529050919050565b61044a61089d565b61045684848484610a01565b50505050565b5f610465610a84565b90508073ffffffffffffffffffffffffffffffffffffffff168673ffffffffffffffffffffffffffffffffffffffff16141580156104aa57506104a8868261067b565b155b156104ee5780866040517fe237d9220000000000000000000000000000000000000000000000000000000081526004016104e59291906124d0565b60405180910390fd5b6104fb8686868686610a8b565b505050505050565b6060815183511461054f57815183516040517f5b0599910000000000000000000000000000000000000000000000000000000081526004016105469291906124f7565b60405180910390fd5b5f835167ffffffffffffffff81111561056b5761056a611a5c565b5b6040519080825280602002602001820160405280156105995781602001602082028036833780820191505090505b5090505f5b8451811015610605576105d56105bd8287610b7f90919063ffffffff16565b6105d08387610b9290919063ffffffff16565b6102c7565b8282815181106105e8576105e761251e565b5b602002602001018181525050806105fe90612578565b905061059e565b508091505092915050565b61061861089d565b6106215f610ba5565b565b61062b61089d565b61063784848484610c68565b50505050565b5f60035f9054906101000a900473ffffffffffffffffffffffffffffffffffffffff16905090565b610677610670610a84565b8383610cfd565b5050565b5f60015f8473ffffffffffffffffffffffffffffffffffffffff1673ffffffffffffffffffffffffffffffffffffffff1681526020019081526020015f205f8373ffffffffffffffffffffffffffffffffffffffff1673ffffffffffffffffffffffffffffffffffffffff1681526020019081526020015f205f9054906101000a900460ff16905092915050565b5f610712610a84565b90508073ffffffffffffffffffffffffffffffffffffffff168673ffffffffffffffffffffffffffffffffffffffff16141580156107575750610755868261067b565b155b1561079b5780866040517fe237d9220000000000000000000000000000000000000000000000000000000081526004016107929291906124d0565b60405180910390fd5b6107a88686868686610e66565b505050505050565b6107b861089d565b5f73ffffffffffffffffffffffffffffffffffffffff168173ffffffffffffffffffffffffffffffffffffffff1603610828575f6040517f1e4fbdf700000000000000000000000000000000000000000000000000000000815260040161081f919061220d565b60405180910390fd5b61083181610ba5565b50565b5f7f01ffc9a7000000000000000000000000000000000000000000000000000000007bffffffffffffffffffffffffffffffffffffffffffffffffffffffff1916827bffffffffffffffffffffffffffffffffffffffffffffffffffffffff1916149050919050565b6108a5610a84565b73ffffffffffffffffffffffffffffffffffffffff166108c361063d565b73ffffffffffffffffffffffffffffffffffffffff1614610922576108e6610a84565b6040517f118cdaa7000000000000000000000000000000000000000000000000000000008152600401610919919061220d565b60405180910390fd5b565b806002908161093391906127b9565b5050565b60605f600161094584610f6c565b0190505f8167ffffffffffffffff81111561096357610962611a5c565b5b6040519080825280601f01601f1916602001820160405280156109955781602001600182028036833780820191505090505b5090505f82602001820190505b6001156109f6578080600190039150507f3031323334353637383961626364656600000000000000000000000000000000600a86061a8153600a85816109eb576109ea612888565b5b0494505f85036109a2575b819350505050919050565b5f73ffffffffffffffffffffffffffffffffffffffff168473ffffffffffffffffffffffffffffffffffffffff1603610a71575f6040517f57f447ce000000000000000000000000000000000000000000000000000000008152600401610a68919061220d565b60405180910390fd5b610a7e5f858585856110bd565b50505050565b5f33905090565b5f73ffffffffffffffffffffffffffffffffffffffff168473ffffffffffffffffffffffffffffffffffffffff1603610afb575f6040517f57f447ce000000000000000000000000000000000000000000000000000000008152600401610af2919061220d565b60405180910390fd5b5f73ffffffffffffffffffffffffffffffffffffffff168573ffffffffffffffffffffffffffffffffffffffff1603610b6b575f6040517f01a83514000000000000000000000000000000000000000000000000000000008152600401610b62919061220d565b60405180910390fd5b610b7885858585856110bd565b5050505050565b5f60208202602084010151905092915050565b5f60208202602084010151905092915050565b5f60035f9054906101000a900473ffffffffffffffffffffffffffffffffffffffff1690508160035f6101000a81548173ffffffffffffffffffffffffffffffffffffffff021916908373ffffffffffffffffffffffffffffffffffffffff1602179055508173ffffffffffffffffffffffffffffffffffffffff168173ffffffffffffffffffffffffffffffffffffffff167f8be0079c531659141344cd1fd0a4f28419497f9722a3daafe3b4186f6b6457e060405160405180910390a35050565b5f73ffffffffffffffffffffffffffffffffffffffff168473ffffffffffffffffffffffffffffffffffffffff1603610cd8575f6040517f57f447ce000000000000000000000000000000000000000000000000000000008152600401610ccf919061220d565b60405180910390fd5b5f80610ce48585611169565b91509150610cf55f878484876110bd565b505050505050565b5f73ffffffffffffffffffffffffffffffffffffffff168273ffffffffffffffffffffffffffffffffffffffff1603610d6d575f6040517fced3e100000000000000000000000000000000000000000000000000000000008152600401610d64919061220d565b60405180910390fd5b8060015f8573ffffffffffffffffffffffffffffffffffffffff1673ffffffffffffffffffffffffffffffffffffffff1681526020019081526020015f205f8473ffffffffffffffffffffffffffffffffffffffff1673ffffffffffffffffffffffffffffffffffffffff1681526020019081526020015f205f6101000a81548160ff0219169083151502179055508173ffffffffffffffffffffffffffffffffffffffff168373ffffffffffffffffffffffffffffffffffffffff167f17307eab39ab6107e8899845ad3d59bd9653f200f220920489ca2b5937696c3183604051610e599190611a2b565b60405180910390a3505050565b5f73ffffffffffffffffffffffffffffffffffffffff168473ffffffffffffffffffffffffffffffffffffffff1603610ed6575f6040517f57f447ce000000000000000000000000000000000000000000000000000000008152600401610ecd919061220d565b60405180910390fd5b5f73ffffffffffffffffffffffffffffffffffffffff168573ffffffffffffffffffffffffffffffffffffffff1603610f46575f6040517f01a83514000000000000000000000000000000000000000000000000000000008152600401610f3d919061220d565b60405180910390fd5b5f80610f528585611169565b91509150610f6387878484876110bd565b50505050505050565b5f805f90507a184f03e93ff9f4daa797ed6e38ed64bf6a1f0100000000000000008310610fc8577a184f03e93ff9f4daa797ed6e38ed64bf6a1f0100000000000000008381610fbe57610fbd612888565b5b0492506040810190505b6d04ee2d6d415b85acef81000000008310611005576d04ee2d6d415b85acef81000000008381610ffb57610ffa612888565b5b0492506020810190505b662386f26fc10000831061103457662386f26fc10000838161102a57611029612888565b5b0492506010810190505b6305f5e100831061105d576305f5e100838161105357611052612888565b5b0492506008810190505b612710831061108257612710838161107857611077612888565b5b0492506004810190505b606483106110a5576064838161109b5761109a612888565b5b0492506002810190505b600a83106110b4576001810190505b80915050919050565b6110c985858585611199565b5f73ffffffffffffffffffffffffffffffffffffffff168473ffffffffffffffffffffffffffffffffffffffff1614611162575f611105610a84565b90506001845103611151575f6111245f86610b9290919063ffffffff16565b90505f61113a5f86610b9290919063ffffffff16565b905061114a83898985858961152f565b5050611160565b61115f8187878787876116de565b5b505b5050505050565b60608060405191506001825283602083015260408201905060018152826020820152604081016040529250929050565b80518251146111e357815181516040517f5b0599910000000000000000000000000000000000000000000000000000000081526004016111da9291906124f7565b60405180910390fd5b5f6111ec610a84565b90505f5b83518110156113ee575f61120d8286610b9290919063ffffffff16565b90505f6112238386610b9290919063ffffffff16565b90505f73ffffffffffffffffffffffffffffffffffffffff168873ffffffffffffffffffffffffffffffffffffffff1614611346575f805f8481526020019081526020015f205f8a73ffffffffffffffffffffffffffffffffffffffff1673ffffffffffffffffffffffffffffffffffffffff1681526020019081526020015f20549050818110156112f257888183856040517f03dee4c50000000000000000000000000000000000000000000000000000000081526004016112e994939291906128b5565b60405180910390fd5b8181035f808581526020019081526020015f205f8b73ffffffffffffffffffffffffffffffffffffffff1673ffffffffffffffffffffffffffffffffffffffff1681526020019081526020015f2081905550505b5f73ffffffffffffffffffffffffffffffffffffffff168773ffffffffffffffffffffffffffffffffffffffff16146113db57805f808481526020019081526020015f205f8973ffffffffffffffffffffffffffffffffffffffff1673ffffffffffffffffffffffffffffffffffffffff1681526020019081526020015f205f8282546113d391906128f8565b925050819055505b5050806113e790612578565b90506111f0565b5060018351036114a9575f61140c5f85610b9290919063ffffffff16565b90505f6114225f85610b9290919063ffffffff16565b90508573ffffffffffffffffffffffffffffffffffffffff168773ffffffffffffffffffffffffffffffffffffffff168473ffffffffffffffffffffffffffffffffffffffff167fc3d58168c5ae7397731d063d5bbf3d657854427343f4c083240f7aacaa2d0f62858560405161149a9291906124f7565b60405180910390a45050611528565b8373ffffffffffffffffffffffffffffffffffffffff168573ffffffffffffffffffffffffffffffffffffffff168273ffffffffffffffffffffffffffffffffffffffff167f4a39dc06d4c0dbc64b70af90fd698a233a518aa5d07e595d983b8c0526c8f7fb868660405161151f92919061292b565b60405180910390a45b5050505050565b5f8473ffffffffffffffffffffffffffffffffffffffff163b11156116d6578373ffffffffffffffffffffffffffffffffffffffff1663f23a6e6187878686866040518663ffffffff1660e01b815260040161158f9594939291906129b2565b6020604051808303815f875af19250505080156115ca57506040513d601f19601f820116820180604052508101906115c79190612a1e565b60015b61164b573d805f81146115f8576040519150601f19603f3d011682016040523d82523d5f602084013e6115fd565b606091505b505f81510361164357846040517f57f447ce00000000000000000000000000000000000000000000000000000000815260040161163a919061220d565b60405180910390fd5b805181602001fd5b63f23a6e6160e01b7bffffffffffffffffffffffffffffffffffffffffffffffffffffffff1916817bffffffffffffffffffffffffffffffffffffffffffffffffffffffff1916146116d457846040517f57f447ce0000000000000000000000000000000000000000000000000000000081526004016116cb919061220d565b60405180910390fd5b505b505050505050565b5f8473ffffffffffffffffffffffffffffffffffffffff163b1115611885578373ffffffffffffffffffffffffffffffffffffffff1663bc197c8187878686866040518663ffffffff1660e01b815260040161173e959493929190612a49565b6020604051808303815f875af192505050801561177957506040513d601f19601f820116820180604052508101906117769190612a1e565b60015b6117fa573d805f81146117a7576040519150601f19603f3d011682016040523d82523d5f602084013e6117ac565b606091505b505f8151036117f257846040517f57f447ce0000000000000000000000000000000000000000000000000000000081526004016117e9919061220d565b60405180910390fd5b805181602001fd5b63bc197c8160e01b7bffffffffffffffffffffffffffffffffffffffffffffffffffffffff1916817bffffffffffffffffffffffffffffffffffffffffffffffffffffffff19161461188357846040517f57f447ce00000000000000000000000000000000000000000000000000000000815260040161187a919061220d565b60405180910390fd5b505b505050505050565b5f604051905090565b5f80fd5b5f80fd5b5f73ffffffffffffffffffffffffffffffffffffffff82169050919050565b5f6118c78261189e565b9050919050565b6118d7816118bd565b81146118e1575f80fd5b50565b5f813590506118f2816118ce565b92915050565b5f819050919050565b61190a816118f8565b8114611914575f80fd5b50565b5f8135905061192581611901565b92915050565b5f806040838503121561194157611940611896565b5b5f61194e858286016118e4565b925050602061195f85828601611917565b9150509250929050565b611972816118f8565b82525050565b5f60208201905061198b5f830184611969565b92915050565b5f7fffffffff0000000000000000000000000000000000000000000000000000000082169050919050565b6119c581611991565b81146119cf575f80fd5b50565b5f813590506119e0816119bc565b92915050565b5f602082840312156119fb576119fa611896565b5b5f611a08848285016119d2565b91505092915050565b5f8115159050919050565b611a2581611a11565b82525050565b5f602082019050611a3e5f830184611a1c565b92915050565b5f80fd5b5f80fd5b5f601f19601f8301169050919050565b7f4e487b71000000000000000000000000000000000000000000000000000000005f52604160045260245ffd5b611a9282611a4c565b810181811067ffffffffffffffff82111715611ab157611ab0611a5c565b5b80604052505050565b5f611ac361188d565b9050611acf8282611a89565b919050565b5f67ffffffffffffffff821115611aee57611aed611a5c565b5b611af782611a4c565b9050602081019050919050565b828183375f83830152505050565b5f611b24611b1f84611ad4565b611aba565b905082815260208101848484011115611b4057611b3f611a48565b5b611b4b848285611b04565b509392505050565b5f82601f830112611b6757611b66611a44565b5b8135611b77848260208601611b12565b91505092915050565b5f60208284031215611b9557611b94611896565b5b5f82013567ffffffffffffffff811115611bb257611bb161189a565b5b611bbe84828501611b53565b91505092915050565b5f60208284031215611bdc57611bdb611896565b5b5f611be984828501611917565b91505092915050565b5f81519050919050565b5f82825260208201905092915050565b5f5b83811015611c29578082015181840152602081019050611c0e565b5f8484015250505050565b5f611c3e82611bf2565b611c488185611bfc565b9350611c58818560208601611c0c565b611c6181611a4c565b840191505092915050565b5f6020820190508181035f830152611c848184611c34565b905092915050565b5f67ffffffffffffffff821115611ca657611ca5611a5c565b5b602082029050602081019050919050565b5f80fd5b5f611ccd611cc884611c8c565b611aba565b90508083825260208201905060208402830185811115611cf057611cef611cb7565b5b835b81811015611d195780611d058882611917565b845260208401935050602081019050611cf2565b5050509392505050565b5f82601f830112611d3757611d36611a44565b5b8135611d47848260208601611cbb565b91505092915050565b5f67ffffffffffffffff821115611d6a57611d69611a5c565b5b611d7382611a4c565b9050602081019050919050565b5f611d92611d8d84611d50565b611aba565b905082815260208101848484011115611dae57611dad611a48565b5b611db9848285611b04565b509392505050565b5f82601f830112611dd557611dd4611a44565b5b8135611de5848260208601611d80565b91505092915050565b5f805f8060808587031215611e0657611e05611896565b5b5f611e13878288016118e4565b945050602085013567ffffffffffffffff811115611e3457611e3361189a565b5b611e4087828801611d23565b935050604085013567ffffffffffffffff811115611e6157611e6061189a565b5b611e6d87828801611d23565b925050606085013567ffffffffffffffff811115611e8e57611e8d61189a565b5b611e9a87828801611dc1565b91505092959194509250565b5f805f805f60a08688031215611ebf57611ebe611896565b5b5f611ecc888289016118e4565b9550506020611edd888289016118e4565b945050604086013567ffffffffffffffff811115611efe57611efd61189a565b5b611f0a88828901611d23565b935050606086013567ffffffffffffffff811115611f2b57611f2a61189a565b5b611f3788828901611d23565b925050608086013567ffffffffffffffff811115611f5857611f5761189a565b5b611f6488828901611dc1565b9150509295509295909350565b5f67ffffffffffffffff821115611f8b57611f8a611a5c565b5b602082029050602081019050919050565b5f611fae611fa984611f71565b611aba565b90508083825260208201905060208402830185811115611fd157611fd0611cb7565b5b835b81811015611ffa5780611fe688826118e4565b845260208401935050602081019050611fd3565b5050509392505050565b5f82601f83011261201857612017611a44565b5b8135612028848260208601611f9c565b91505092915050565b5f806040838503121561204757612046611896565b5b5f83013567ffffffffffffffff8111156120645761206361189a565b5b61207085828601612004565b925050602083013567ffffffffffffffff8111156120915761209061189a565b5b61209d85828601611d23565b9150509250929050565b5f81519050919050565b5f82825260208201905092915050565b5f819050602082019050919050565b6120d9816118f8565b82525050565b5f6120ea83836120d0565b60208301905092915050565b5f602082019050919050565b5f61210c826120a7565b61211681856120b1565b9350612121836120c1565b805f5b8381101561215157815161213888826120df565b9750612143836120f6565b925050600181019050612124565b5085935050505092915050565b5f6020820190508181035f8301526121768184612102565b905092915050565b5f805f806080858703121561219657612195611896565b5b5f6121a3878288016118e4565b94505060206121b487828801611917565b93505060406121c587828801611917565b925050606085013567ffffffffffffffff8111156121e6576121e561189a565b5b6121f287828801611dc1565b91505092959194509250565b612207816118bd565b82525050565b5f6020820190506122205f8301846121fe565b92915050565b61222f81611a11565b8114612239575f80fd5b50565b5f8135905061224a81612226565b92915050565b5f806040838503121561226657612265611896565b5b5f612273858286016118e4565b92505060206122848582860161223c565b9150509250929050565b5f80604083850312156122a4576122a3611896565b5b5f6122b1858286016118e4565b92505060206122c2858286016118e4565b9150509250929050565b5f805f805f60a086880312156122e5576122e4611896565b5b5f6122f2888289016118e4565b9550506020612303888289016118e4565b945050604061231488828901611917565b935050606061232588828901611917565b925050608086013567ffffffffffffffff8111156123465761234561189a565b5b61235288828901611dc1565b9150509295509295909350565b5f6020828403121561237457612373611896565b5b5f612381848285016118e4565b91505092915050565b5f81905092915050565b7f68747470733a2f2f697066732e696f2f697066732f516d5479734e6f58456f585f8201527f74597a55617a5831663236625744553362503570676b55774c756577475a654160208201527f4e4c582f00000000000000000000000000000000000000000000000000000000604082015250565b5f61241460448361238a565b915061241f82612394565b604482019050919050565b5f61243482611bf2565b61243e818561238a565b935061244e818560208601611c0c565b80840191505092915050565b7f2e6a736f6e0000000000000000000000000000000000000000000000000000005f82015250565b5f61248e60058361238a565b91506124998261245a565b600582019050919050565b5f6124ae82612408565b91506124ba828461242a565b91506124c582612482565b915081905092915050565b5f6040820190506124e35f8301856121fe565b6124f060208301846121fe565b9392505050565b5f60408201905061250a5f830185611969565b6125176020830184611969565b9392505050565b7f4e487b71000000000000000000000000000000000000000000000000000000005f52603260045260245ffd5b7f4e487b71000000000000000000000000000000000000000000000000000000005f52601160045260245ffd5b5f612582826118f8565b91507fffffffffffffffffffffffffffffffffffffffffffffffffffffffffffffffff82036125b4576125b361254b565b5b600182019050919050565b7f4e487b71000000000000000000000000000000000000000000000000000000005f52602260045260245ffd5b5f600282049050600182168061260357607f821691505b602082108103612616576126156125bf565b5b50919050565b5f819050815f5260205f209050919050565b5f6020601f8301049050919050565b5f82821b905092915050565b5f600883026126787fffffffffffffffffffffffffffffffffffffffffffffffffffffffffffffffff8261263d565b612682868361263d565b95508019841693508086168417925050509392505050565b5f819050919050565b5f6126bd6126b86126b3846118f8565b61269a565b6118f8565b9050919050565b5f819050919050565b6126d6836126a3565b6126ea6126e2826126c4565b848454612649565b825550505050565b5f90565b6126fe6126f2565b6127098184846126cd565b505050565b5b8181101561272c576127215f826126f6565b60018101905061270f565b5050565b601f821115612771576127428161261c565b61274b8461262e565b8101602085101561275a578190505b61276e6127668561262e565b83018261270e565b50505b505050565b5f82821c905092915050565b5f6127915f1984600802612776565b1980831691505092915050565b5f6127a98383612782565b9150826002028217905092915050565b6127c282611bf2565b67ffffffffffffffff8111156127db576127da611a5c565b5b6127e582546125ec565b6127f0828285612730565b5f60209050601f831160018114612821575f841561280f578287015190505b612819858261279e565b865550612880565b601f19841661282f8661261c565b5f5b8281101561285657848901518255600182019150602085019450602081019050612831565b86831015612873578489015161286f601f891682612782565b8355505b6001600288020188555050505b505050505050565b7f4e487b71000000000000000000000000000000000000000000000000000000005f52601260045260245ffd5b5f6080820190506128c85f8301876121fe565b6128d56020830186611969565b6128e26040830185611969565b6128ef6060830184611969565b95945050505050565b5f612902826118f8565b915061290d836118f8565b92508282019050808211156129255761292461254b565b5b92915050565b5f6040820190508181035f8301526129438185612102565b905081810360208301526129578184612102565b90509392505050565b5f81519050919050565b5f82825260208201905092915050565b5f61298482612960565b61298e818561296a565b935061299e818560208601611c0c565b6129a781611a4c565b840191505092915050565b5f60a0820190506129c55f8301886121fe565b6129d260208301876121fe565b6129df6040830186611969565b6129ec6060830185611969565b81810360808301526129fe818461297a565b90509695505050505050565b5f81519050612a18816119bc565b92915050565b5f60208284031215612a3357612a32611896565b5b5f612a4084828501612a0a565b91505092915050565b5f60a082019050612a5c5f8301886121fe565b612a6960208301876121fe565b8181036040830152612a7b8186612102565b90508181036060830152612a8f8185612102565b90508181036080830152612aa3818461297a565b9050969550505050505056fea2646970667358221220e8df38160539d29bd984e303a1ab3890cb5f595a5c6d03f65af7fab596d4c2c764736f6c6343000814003368747470733a2f2f697066732e696f2f697066732f516d5479734e6f58456f5874597a55617a5831663236625744553362503570676b55774c756577475a65414e4c582f7b69647d2e6a736f6e",
					"opcodes": "PUSH1 0x80 PUSH1 0x40 MSTORE CALLVALUE DUP1 ISZERO PUSH3 0x10 JUMPI PUSH0 DUP1 REVERT JUMPDEST POP PUSH1 0x40 MLOAD PUSH3 0x3110 CODESIZE SUB DUP1 PUSH3 0x3110 DUP4 CODECOPY DUP2 DUP2 ADD PUSH1 0x40 MSTORE DUP2 ADD SWAP1 PUSH3 0x36 SWAP2 SWAP1 PUSH3 0x22C JUMP JUMPDEST DUP1 PUSH1 0x40 MLOAD DUP1 PUSH1 0x80 ADD PUSH1 0x40 MSTORE DUP1 PUSH1 0x4D DUP2 MSTORE PUSH1 0x20 ADD PUSH3 0x30C3 PUSH1 0x4D SWAP2 CODECOPY PUSH3 0x62 DUP2 PUSH3 0xEF PUSH1 0x20 SHL PUSH1 0x20 SHR JUMP JUMPDEST POP PUSH0 PUSH20 0xFFFFFFFFFFFFFFFFFFFFFFFFFFFFFFFFFFFFFFFF AND DUP2 PUSH20 0xFFFFFFFFFFFFFFFFFFFFFFFFFFFFFFFFFFFFFFFF AND SUB PUSH3 0xD6 JUMPI PUSH0 PUSH1 0x40 MLOAD PUSH32 0x1E4FBDF700000000000000000000000000000000000000000000000000000000 DUP2 MSTORE PUSH1 0x4 ADD PUSH3 0xCD SWAP2 SWAP1 PUSH3 0x26D JUMP JUMPDEST PUSH1 0x40 MLOAD DUP1 SWAP2 SUB SWAP1 REVERT JUMPDEST PUSH3 0xE7 DUP2 PUSH3 0x104 PUSH1 0x20 SHL PUSH1 0x20 SHR JUMP JUMPDEST POP POP PUSH3 0x5D0 JUMP JUMPDEST DUP1 PUSH1 0x2 SWAP1 DUP2 PUSH3 0x100 SWAP2 SWAP1 PUSH3 0x4EC JUMP JUMPDEST POP POP JUMP JUMPDEST PUSH0 PUSH1 0x3 PUSH0 SWAP1 SLOAD SWAP1 PUSH2 0x100 EXP SWAP1 DIV PUSH20 0xFFFFFFFFFFFFFFFFFFFFFFFFFFFFFFFFFFFFFFFF AND SWAP1 POP DUP2 PUSH1 0x3 PUSH0 PUSH2 0x100 EXP DUP2 SLOAD DUP2 PUSH20 0xFFFFFFFFFFFFFFFFFFFFFFFFFFFFFFFFFFFFFFFF MUL NOT AND SWAP1 DUP4 PUSH20 0xFFFFFFFFFFFFFFFFFFFFFFFFFFFFFFFFFFFFFFFF AND MUL OR SWAP1 SSTORE POP DUP2 PUSH20 0xFFFFFFFFFFFFFFFFFFFFFFFFFFFFFFFFFFFFFFFF AND DUP2 PUSH20 0xFFFFFFFFFFFFFFFFFFFFFFFFFFFFFFFFFFFFFFFF AND PUSH32 0x8BE0079C531659141344CD1FD0A4F28419497F9722A3DAAFE3B4186F6B6457E0 PUSH1 0x40 MLOAD PUSH1 0x40 MLOAD DUP1 SWAP2 SUB SWAP1 LOG3 POP POP JUMP JUMPDEST PUSH0 DUP1 REVERT JUMPDEST PUSH0 PUSH20 0xFFFFFFFFFFFFFFFFFFFFFFFFFFFFFFFFFFFFFFFF DUP3 AND SWAP1 POP SWAP2 SWAP1 POP JUMP JUMPDEST PUSH0 PUSH3 0x1F6 DUP3 PUSH3 0x1CB JUMP JUMPDEST SWAP1 POP SWAP2 SWAP1 POP JUMP JUMPDEST PUSH3 0x208 DUP2 PUSH3 0x1EA JUMP JUMPDEST DUP2 EQ PUSH3 0x213 JUMPI PUSH0 DUP1 REVERT JUMPDEST POP JUMP JUMPDEST PUSH0 DUP2 MLOAD SWAP1 POP PUSH3 0x226 DUP2 PUSH3 0x1FD JUMP JUMPDEST SWAP3 SWAP2 POP POP JUMP JUMPDEST PUSH0 PUSH1 0x20 DUP3 DUP5 SUB SLT ISZERO PUSH3 0x244 JUMPI PUSH3 0x243 PUSH3 0x1C7 JUMP JUMPDEST JUMPDEST PUSH0 PUSH3 0x253 DUP5 DUP3 DUP6 ADD PUSH3 0x216 JUMP JUMPDEST SWAP2 POP POP SWAP3 SWAP2 POP POP JUMP JUMPDEST PUSH3 0x267 DUP2 PUSH3 0x1EA JUMP JUMPDEST DUP3 MSTORE POP POP JUMP JUMPDEST PUSH0 PUSH1 0x20 DUP3 ADD SWAP1 POP PUSH3 0x282 PUSH0 DUP4 ADD DUP5 PUSH3 0x25C JUMP JUMPDEST SWAP3 SWAP2 POP POP JUMP JUMPDEST PUSH0 DUP2 MLOAD SWAP1 POP SWAP2 SWAP1 POP JUMP JUMPDEST PUSH32 0x4E487B7100000000000000000000000000000000000000000000000000000000 PUSH0 MSTORE PUSH1 0x41 PUSH1 0x4 MSTORE PUSH1 0x24 PUSH0 REVERT JUMPDEST PUSH32 0x4E487B7100000000000000000000000000000000000000000000000000000000 PUSH0 MSTORE PUSH1 0x22 PUSH1 0x4 MSTORE PUSH1 0x24 PUSH0 REVERT JUMPDEST PUSH0 PUSH1 0x2 DUP3 DIV SWAP1 POP PUSH1 0x1 DUP3 AND DUP1 PUSH3 0x304 JUMPI PUSH1 0x7F DUP3 AND SWAP2 POP JUMPDEST PUSH1 0x20 DUP3 LT DUP2 SUB PUSH3 0x31A JUMPI PUSH3 0x319 PUSH3 0x2BF JUMP JUMPDEST JUMPDEST POP SWAP2 SWAP1 POP JUMP JUMPDEST PUSH0 DUP2 SWAP1 POP DUP2 PUSH0 MSTORE PUSH1 0x20 PUSH0 KECCAK256 SWAP1 POP SWAP2 SWAP1 POP JUMP JUMPDEST PUSH0 PUSH1 0x20 PUSH1 0x1F DUP4 ADD DIV SWAP1 POP SWAP2 SWAP1 POP JUMP JUMPDEST PUSH0 DUP3 DUP3 SHL SWAP1 POP SWAP3 SWAP2 POP POP JUMP JUMPDEST PUSH0 PUSH1 0x8 DUP4 MUL PUSH3 0x37E PUSH32 0xFFFFFFFFFFFFFFFFFFFFFFFFFFFFFFFFFFFFFFFFFFFFFFFFFFFFFFFFFFFFFFFF DUP3 PUSH3 0x341 JUMP JUMPDEST PUSH3 0x38A DUP7 DUP4 PUSH3 0x341 JUMP JUMPDEST SWAP6 POP DUP1 NOT DUP5 AND SWAP4 POP DUP1 DUP7 AND DUP5 OR SWAP3 POP POP POP SWAP4 SWAP3 POP POP POP JUMP JUMPDEST PUSH0 DUP2 SWAP1 POP SWAP2 SWAP1 POP JUMP JUMPDEST PUSH0 DUP2 SWAP1 POP SWAP2 SWAP1 POP JUMP JUMPDEST PUSH0 PUSH3 0x3D4 PUSH3 0x3CE PUSH3 0x3C8 DUP5 PUSH3 0x3A2 JUMP JUMPDEST PUSH3 0x3AB JUMP JUMPDEST PUSH3 0x3A2 JUMP JUMPDEST SWAP1 POP SWAP2 SWAP1 POP JUMP JUMPDEST PUSH0 DUP2 SWAP1 POP SWAP2 SWAP1 POP JUMP JUMPDEST PUSH3 0x3EF DUP4 PUSH3 0x3B4 JUMP JUMPDEST PUSH3 0x407 PUSH3 0x3FE DUP3 PUSH3 0x3DB JUMP JUMPDEST DUP5 DUP5 SLOAD PUSH3 0x34D JUMP JUMPDEST DUP3 SSTORE POP POP POP POP JUMP JUMPDEST PUSH0 SWAP1 JUMP JUMPDEST PUSH3 0x41D PUSH3 0x40F JUMP JUMPDEST PUSH3 0x42A DUP2 DUP5 DUP5 PUSH3 0x3E4 JUMP JUMPDEST POP POP POP JUMP JUMPDEST JUMPDEST DUP2 DUP2 LT ISZERO PUSH3 0x451 JUMPI PUSH3 0x445 PUSH0 DUP3 PUSH3 0x413 JUMP JUMPDEST PUSH1 0x1 DUP2 ADD SWAP1 POP PUSH3 0x430 JUMP JUMPDEST POP POP JUMP JUMPDEST PUSH1 0x1F DUP3 GT ISZERO PUSH3 0x4A0 JUMPI PUSH3 0x46A DUP2 PUSH3 0x320 JUMP JUMPDEST PUSH3 0x475 DUP5 PUSH3 0x332 JUMP JUMPDEST DUP2 ADD PUSH1 0x20 DUP6 LT ISZERO PUSH3 0x485 JUMPI DUP2 SWAP1 POP JUMPDEST PUSH3 0x49D PUSH3 0x494 DUP6 PUSH3 0x332 JUMP JUMPDEST DUP4 ADD DUP3 PUSH3 0x42F JUMP JUMPDEST POP POP JUMPDEST POP POP POP JUMP JUMPDEST PUSH0 DUP3 DUP3 SHR SWAP1 POP SWAP3 SWAP2 POP POP JUMP JUMPDEST PUSH0 PUSH3 0x4C2 PUSH0 NOT DUP5 PUSH1 0x8 MUL PUSH3 0x4A5 JUMP JUMPDEST NOT DUP1 DUP4 AND SWAP2 POP POP SWAP3 SWAP2 POP POP JUMP JUMPDEST PUSH0 PUSH3 0x4DC DUP4 DUP4 PUSH3 0x4B1 JUMP JUMPDEST SWAP2 POP DUP3 PUSH1 0x2 MUL DUP3 OR SWAP1 POP SWAP3 SWAP2 POP POP JUMP JUMPDEST PUSH3 0x4F7 DUP3 PUSH3 0x288 JUMP JUMPDEST PUSH8 0xFFFFFFFFFFFFFFFF DUP2 GT ISZERO PUSH3 0x513 JUMPI PUSH3 0x512 PUSH3 0x292 JUMP JUMPDEST JUMPDEST PUSH3 0x51F DUP3 SLOAD PUSH3 0x2EC JUMP JUMPDEST PUSH3 0x52C DUP3 DUP3 DUP6 PUSH3 0x455 JUMP JUMPDEST PUSH0 PUSH1 0x20 SWAP1 POP PUSH1 0x1F DUP4 GT PUSH1 0x1 DUP2 EQ PUSH3 0x562 JUMPI PUSH0 DUP5 ISZERO PUSH3 0x54D JUMPI DUP3 DUP8 ADD MLOAD SWAP1 POP JUMPDEST PUSH3 0x559 DUP6 DUP3 PUSH3 0x4CF JUMP JUMPDEST DUP7 SSTORE POP PUSH3 0x5C8 JUMP JUMPDEST PUSH1 0x1F NOT DUP5 AND PUSH3 0x572 DUP7 PUSH3 0x320 JUMP JUMPDEST PUSH0 JUMPDEST DUP3 DUP2 LT ISZERO PUSH3 0x59B JUMPI DUP5 DUP10 ADD MLOAD DUP3 SSTORE PUSH1 0x1 DUP3 ADD SWAP2 POP PUSH1 0x20 DUP6 ADD SWAP5 POP PUSH1 0x20 DUP2 ADD SWAP1 POP PUSH3 0x574 JUMP JUMPDEST DUP7 DUP4 LT ISZERO PUSH3 0x5BB JUMPI DUP5 DUP10 ADD MLOAD PUSH3 0x5B7 PUSH1 0x1F DUP10 AND DUP3 PUSH3 0x4B1 JUMP JUMPDEST DUP4 SSTORE POP JUMPDEST PUSH1 0x1 PUSH1 0x2 DUP9 MUL ADD DUP9 SSTORE POP POP POP JUMPDEST POP POP POP POP POP POP JUMP JUMPDEST PUSH2 0x2AE5 DUP1 PUSH3 0x5DE PUSH0 CODECOPY PUSH0 RETURN INVALID PUSH1 0x80 PUSH1 0x40 MSTORE CALLVALUE DUP1 ISZERO PUSH2 0xF JUMPI PUSH0 DUP1 REVERT JUMPDEST POP PUSH1 0x4 CALLDATASIZE LT PUSH2 0xE7 JUMPI PUSH0 CALLDATALOAD PUSH1 0xE0 SHR DUP1 PUSH4 0x715018A6 GT PUSH2 0x8A JUMPI DUP1 PUSH4 0xA22CB465 GT PUSH2 0x64 JUMPI DUP1 PUSH4 0xA22CB465 EQ PUSH2 0x243 JUMPI DUP1 PUSH4 0xE985E9C5 EQ PUSH2 0x25F JUMPI DUP1 PUSH4 0xF242432A EQ PUSH2 0x28F JUMPI DUP1 PUSH4 0xF2FDE38B EQ PUSH2 0x2AB JUMPI PUSH2 0xE7 JUMP JUMPDEST DUP1 PUSH4 0x715018A6 EQ PUSH2 0x1FF JUMPI DUP1 PUSH4 0x731133E9 EQ PUSH2 0x209 JUMPI DUP1 PUSH4 0x8DA5CB5B EQ PUSH2 0x225 JUMPI PUSH2 0xE7 JUMP JUMPDEST DUP1 PUSH4 0xE89341C GT PUSH2 0xC6 JUMPI DUP1 PUSH4 0xE89341C EQ PUSH2 0x167 JUMPI DUP1 PUSH4 0x1F7FDFFA EQ PUSH2 0x197 JUMPI DUP1 PUSH4 0x2EB2C2D6 EQ PUSH2 0x1B3 JUMPI DUP1 PUSH4 0x4E1273F4 EQ PUSH2 0x1CF JUMPI PUSH2 0xE7 JUMP JUMPDEST DUP1 PUSH3 0xFDD58E EQ PUSH2 0xEB JUMPI DUP1 PUSH4 0x1FFC9A7 EQ PUSH2 0x11B JUMPI DUP1 PUSH4 0x2FE5305 EQ PUSH2 0x14B JUMPI JUMPDEST PUSH0 DUP1 REVERT JUMPDEST PUSH2 0x105 PUSH1 0x4 DUP1 CALLDATASIZE SUB DUP2 ADD SWAP1 PUSH2 0x100 SWAP2 SWAP1 PUSH2 0x192B JUMP JUMPDEST PUSH2 0x2C7 JUMP JUMPDEST PUSH1 0x40 MLOAD PUSH2 0x112 SWAP2 SWAP1 PUSH2 0x1978 JUMP JUMPDEST PUSH1 0x40 MLOAD DUP1 SWAP2 SUB SWAP1 RETURN JUMPDEST PUSH2 0x135 PUSH1 0x4 DUP1 CALLDATASIZE SUB DUP2 ADD SWAP1 PUSH2 0x130 SWAP2 SWAP1 PUSH2 0x19E6 JUMP JUMPDEST PUSH2 0x31C JUMP JUMPDEST PUSH1 0x40 MLOAD PUSH2 0x142 SWAP2 SWAP1 PUSH2 0x1A2B JUMP JUMPDEST PUSH1 0x40 MLOAD DUP1 SWAP2 SUB SWAP1 RETURN JUMPDEST PUSH2 0x165 PUSH1 0x4 DUP1 CALLDATASIZE SUB DUP2 ADD SWAP1 PUSH2 0x160 SWAP2 SWAP1 PUSH2 0x1B80 JUMP JUMPDEST PUSH2 0x3FD JUMP JUMPDEST STOP JUMPDEST PUSH2 0x181 PUSH1 0x4 DUP1 CALLDATASIZE SUB DUP2 ADD SWAP1 PUSH2 0x17C SWAP2 SWAP1 PUSH2 0x1BC7 JUMP JUMPDEST PUSH2 0x411 JUMP JUMPDEST PUSH1 0x40 MLOAD PUSH2 0x18E SWAP2 SWAP1 PUSH2 0x1C6C JUMP JUMPDEST PUSH1 0x40 MLOAD DUP1 SWAP2 SUB SWAP1 RETURN JUMPDEST PUSH2 0x1B1 PUSH1 0x4 DUP1 CALLDATASIZE SUB DUP2 ADD SWAP1 PUSH2 0x1AC SWAP2 SWAP1 PUSH2 0x1DEE JUMP JUMPDEST PUSH2 0x442 JUMP JUMPDEST STOP JUMPDEST PUSH2 0x1CD PUSH1 0x4 DUP1 CALLDATASIZE SUB DUP2 ADD SWAP1 PUSH2 0x1C8 SWAP2 SWAP1 PUSH2 0x1EA6 JUMP JUMPDEST PUSH2 0x45C JUMP JUMPDEST STOP JUMPDEST PUSH2 0x1E9 PUSH1 0x4 DUP1 CALLDATASIZE SUB DUP2 ADD SWAP1 PUSH2 0x1E4 SWAP2 SWAP1 PUSH2 0x2031 JUMP JUMPDEST PUSH2 0x503 JUMP JUMPDEST PUSH1 0x40 MLOAD PUSH2 0x1F6 SWAP2 SWAP1 PUSH2 0x215E JUMP JUMPDEST PUSH1 0x40 MLOAD DUP1 SWAP2 SUB SWAP1 RETURN JUMPDEST PUSH2 0x207 PUSH2 0x610 JUMP JUMPDEST STOP JUMPDEST PUSH2 0x223 PUSH1 0x4 DUP1 CALLDATASIZE SUB DUP2 ADD SWAP1 PUSH2 0x21E SWAP2 SWAP1 PUSH2 0x217E JUMP JUMPDEST PUSH2 0x623 JUMP JUMPDEST STOP JUMPDEST PUSH2 0x22D PUSH2 0x63D JUMP JUMPDEST PUSH1 0x40 MLOAD PUSH2 0x23A SWAP2 SWAP1 PUSH2 0x220D JUMP JUMPDEST PUSH1 0x40 MLOAD DUP1 SWAP2 SUB SWAP1 RETURN JUMPDEST PUSH2 0x25D PUSH1 0x4 DUP1 CALLDATASIZE SUB DUP2 ADD SWAP1 PUSH2 0x258 SWAP2 SWAP1 PUSH2 0x2250 JUMP JUMPDEST PUSH2 0x665 JUMP JUMPDEST STOP JUMPDEST PUSH2 0x279 PUSH1 0x4 DUP1 CALLDATASIZE SUB DUP2 ADD SWAP1 PUSH2 0x274 SWAP2 SWAP1 PUSH2 0x228E JUMP JUMPDEST PUSH2 0x67B JUMP JUMPDEST PUSH1 0x40 MLOAD PUSH2 0x286 SWAP2 SWAP1 PUSH2 0x1A2B JUMP JUMPDEST PUSH1 0x40 MLOAD DUP1 SWAP2 SUB SWAP1 RETURN JUMPDEST PUSH2 0x2A9 PUSH1 0x4 DUP1 CALLDATASIZE SUB DUP2 ADD SWAP1 PUSH2 0x2A4 SWAP2 SWAP1 PUSH2 0x22CC JUMP JUMPDEST PUSH2 0x709 JUMP JUMPDEST STOP JUMPDEST PUSH2 0x2C5 PUSH1 0x4 DUP1 CALLDATASIZE SUB DUP2 ADD SWAP1 PUSH2 0x2C0 SWAP2 SWAP1 PUSH2 0x235F JUMP JUMPDEST PUSH2 0x7B0 JUMP JUMPDEST STOP JUMPDEST PUSH0 DUP1 PUSH0 DUP4 DUP2 MSTORE PUSH1 0x20 ADD SWAP1 DUP2 MSTORE PUSH1 0x20 ADD PUSH0 KECCAK256 PUSH0 DUP5 PUSH20 0xFFFFFFFFFFFFFFFFFFFFFFFFFFFFFFFFFFFFFFFF AND PUSH20 0xFFFFFFFFFFFFFFFFFFFFFFFFFFFFFFFFFFFFFFFF AND DUP2 MSTORE PUSH1 0x20 ADD SWAP1 DUP2 MSTORE PUSH1 0x20 ADD PUSH0 KECCAK256 SLOAD SWAP1 POP SWAP3 SWAP2 POP POP JUMP JUMPDEST PUSH0 PUSH32 0xD9B67A2600000000000000000000000000000000000000000000000000000000 PUSH28 0xFFFFFFFFFFFFFFFFFFFFFFFFFFFFFFFFFFFFFFFFFFFFFFFFFFFFFFFF NOT AND DUP3 PUSH28 0xFFFFFFFFFFFFFFFFFFFFFFFFFFFFFFFFFFFFFFFFFFFFFFFFFFFFFFFF NOT AND EQ DUP1 PUSH2 0x3E6 JUMPI POP PUSH32 0xE89341C00000000000000000000000000000000000000000000000000000000 PUSH28 0xFFFFFFFFFFFFFFFFFFFFFFFFFFFFFFFFFFFFFFFFFFFFFFFFFFFFFFFF NOT AND DUP3 PUSH28 0xFFFFFFFFFFFFFFFFFFFFFFFFFFFFFFFFFFFFFFFFFFFFFFFFFFFFFFFF NOT AND EQ JUMPDEST DUP1 PUSH2 0x3F6 JUMPI POP PUSH2 0x3F5 DUP3 PUSH2 0x834 JUMP JUMPDEST JUMPDEST SWAP1 POP SWAP2 SWAP1 POP JUMP JUMPDEST PUSH2 0x405 PUSH2 0x89D JUMP JUMPDEST PUSH2 0x40E DUP2 PUSH2 0x924 JUMP JUMPDEST POP JUMP JUMPDEST PUSH1 0x60 PUSH2 0x41C DUP3 PUSH2 0x937 JUMP JUMPDEST PUSH1 0x40 MLOAD PUSH1 0x20 ADD PUSH2 0x42C SWAP2 SWAP1 PUSH2 0x24A4 JUMP JUMPDEST PUSH1 0x40 MLOAD PUSH1 0x20 DUP2 DUP4 SUB SUB DUP2 MSTORE SWAP1 PUSH1 0x40 MSTORE SWAP1 POP SWAP2 SWAP1 POP JUMP JUMPDEST PUSH2 0x44A PUSH2 0x89D JUMP JUMPDEST PUSH2 0x456 DUP5 DUP5 DUP5 DUP5 PUSH2 0xA01 JUMP JUMPDEST POP POP POP POP JUMP JUMPDEST PUSH0 PUSH2 0x465 PUSH2 0xA84 JUMP JUMPDEST SWAP1 POP DUP1 PUSH20 0xFFFFFFFFFFFFFFFFFFFFFFFFFFFFFFFFFFFFFFFF AND DUP7 PUSH20 0xFFFFFFFFFFFFFFFFFFFFFFFFFFFFFFFFFFFFFFFF AND EQ ISZERO DUP1 ISZERO PUSH2 0x4AA JUMPI POP PUSH2 0x4A8 DUP7 DUP3 PUSH2 0x67B JUMP JUMPDEST ISZERO JUMPDEST ISZERO PUSH2 0x4EE JUMPI DUP1 DUP7 PUSH1 0x40 MLOAD PUSH32 0xE237D92200000000000000000000000000000000000000000000000000000000 DUP2 MSTORE PUSH1 0x4 ADD PUSH2 0x4E5 SWAP3 SWAP2 SWAP1 PUSH2 0x24D0 JUMP JUMPDEST PUSH1 0x40 MLOAD DUP1 SWAP2 SUB SWAP1 REVERT JUMPDEST PUSH2 0x4FB DUP7 DUP7 DUP7 DUP7 DUP7 PUSH2 0xA8B JUMP JUMPDEST POP POP POP POP POP POP JUMP JUMPDEST PUSH1 0x60 DUP2 MLOAD DUP4 MLOAD EQ PUSH2 0x54F JUMPI DUP2 MLOAD DUP4 MLOAD PUSH1 0x40 MLOAD PUSH32 0x5B05999100000000000000000000000000000000000000000000000000000000 DUP2 MSTORE PUSH1 0x4 ADD PUSH2 0x546 SWAP3 SWAP2 SWAP1 PUSH2 0x24F7 JUMP JUMPDEST PUSH1 0x40 MLOAD DUP1 SWAP2 SUB SWAP1 REVERT JUMPDEST PUSH0 DUP4 MLOAD PUSH8 0xFFFFFFFFFFFFFFFF DUP2 GT ISZERO PUSH2 0x56B JUMPI PUSH2 0x56A PUSH2 0x1A5C JUMP JUMPDEST JUMPDEST PUSH1 0x40 MLOAD SWAP1 DUP1 DUP3 MSTORE DUP1 PUSH1 0x20 MUL PUSH1 0x20 ADD DUP3 ADD PUSH1 0x40 MSTORE DUP1 ISZERO PUSH2 0x599 JUMPI DUP2 PUSH1 0x20 ADD PUSH1 0x20 DUP3 MUL DUP1 CALLDATASIZE DUP4 CALLDATACOPY DUP1 DUP3 ADD SWAP2 POP POP SWAP1 POP JUMPDEST POP SWAP1 POP PUSH0 JUMPDEST DUP5 MLOAD DUP2 LT ISZERO PUSH2 0x605 JUMPI PUSH2 0x5D5 PUSH2 0x5BD DUP3 DUP8 PUSH2 0xB7F SWAP1 SWAP2 SWAP1 PUSH4 0xFFFFFFFF AND JUMP JUMPDEST PUSH2 0x5D0 DUP4 DUP8 PUSH2 0xB92 SWAP1 SWAP2 SWAP1 PUSH4 0xFFFFFFFF AND JUMP JUMPDEST PUSH2 0x2C7 JUMP JUMPDEST DUP3 DUP3 DUP2 MLOAD DUP2 LT PUSH2 0x5E8 JUMPI PUSH2 0x5E7 PUSH2 0x251E JUMP JUMPDEST JUMPDEST PUSH1 0x20 MUL PUSH1 0x20 ADD ADD DUP2 DUP2 MSTORE POP POP DUP1 PUSH2 0x5FE SWAP1 PUSH2 0x2578 JUMP JUMPDEST SWAP1 POP PUSH2 0x59E JUMP JUMPDEST POP DUP1 SWAP2 POP POP SWAP3 SWAP2 POP POP JUMP JUMPDEST PUSH2 0x618 PUSH2 0x89D JUMP JUMPDEST PUSH2 0x621 PUSH0 PUSH2 0xBA5 JUMP JUMPDEST JUMP JUMPDEST PUSH2 0x62B PUSH2 0x89D JUMP JUMPDEST PUSH2 0x637 DUP5 DUP5 DUP5 DUP5 PUSH2 0xC68 JUMP JUMPDEST POP POP POP POP JUMP JUMPDEST PUSH0 PUSH1 0x3 PUSH0 SWAP1 SLOAD SWAP1 PUSH2 0x100 EXP SWAP1 DIV PUSH20 0xFFFFFFFFFFFFFFFFFFFFFFFFFFFFFFFFFFFFFFFF AND SWAP1 POP SWAP1 JUMP JUMPDEST PUSH2 0x677 PUSH2 0x670 PUSH2 0xA84 JUMP JUMPDEST DUP4 DUP4 PUSH2 0xCFD JUMP JUMPDEST POP POP JUMP JUMPDEST PUSH0 PUSH1 0x1 PUSH0 DUP5 PUSH20 0xFFFFFFFFFFFFFFFFFFFFFFFFFFFFFFFFFFFFFFFF AND PUSH20 0xFFFFFFFFFFFFFFFFFFFFFFFFFFFFFFFFFFFFFFFF AND DUP2 MSTORE PUSH1 0x20 ADD SWAP1 DUP2 MSTORE PUSH1 0x20 ADD PUSH0 KECCAK256 PUSH0 DUP4 PUSH20 0xFFFFFFFFFFFFFFFFFFFFFFFFFFFFFFFFFFFFFFFF AND PUSH20 0xFFFFFFFFFFFFFFFFFFFFFFFFFFFFFFFFFFFFFFFF AND DUP2 MSTORE PUSH1 0x20 ADD SWAP1 DUP2 MSTORE PUSH1 0x20 ADD PUSH0 KECCAK256 PUSH0 SWAP1 SLOAD SWAP1 PUSH2 0x100 EXP SWAP1 DIV PUSH1 0xFF AND SWAP1 POP SWAP3 SWAP2 POP POP JUMP JUMPDEST PUSH0 PUSH2 0x712 PUSH2 0xA84 JUMP JUMPDEST SWAP1 POP DUP1 PUSH20 0xFFFFFFFFFFFFFFFFFFFFFFFFFFFFFFFFFFFFFFFF AND DUP7 PUSH20 0xFFFFFFFFFFFFFFFFFFFFFFFFFFFFFFFFFFFFFFFF AND EQ ISZERO DUP1 ISZERO PUSH2 0x757 JUMPI POP PUSH2 0x755 DUP7 DUP3 PUSH2 0x67B JUMP JUMPDEST ISZERO JUMPDEST ISZERO PUSH2 0x79B JUMPI DUP1 DUP7 PUSH1 0x40 MLOAD PUSH32 0xE237D92200000000000000000000000000000000000000000000000000000000 DUP2 MSTORE PUSH1 0x4 ADD PUSH2 0x792 SWAP3 SWAP2 SWAP1 PUSH2 0x24D0 JUMP JUMPDEST PUSH1 0x40 MLOAD DUP1 SWAP2 SUB SWAP1 REVERT JUMPDEST PUSH2 0x7A8 DUP7 DUP7 DUP7 DUP7 DUP7 PUSH2 0xE66 JUMP JUMPDEST POP POP POP POP POP POP JUMP JUMPDEST PUSH2 0x7B8 PUSH2 0x89D JUMP JUMPDEST PUSH0 PUSH20 0xFFFFFFFFFFFFFFFFFFFFFFFFFFFFFFFFFFFFFFFF AND DUP2 PUSH20 0xFFFFFFFFFFFFFFFFFFFFFFFFFFFFFFFFFFFFFFFF AND SUB PUSH2 0x828 JUMPI PUSH0 PUSH1 0x40 MLOAD PUSH32 0x1E4FBDF700000000000000000000000000000000000000000000000000000000 DUP2 MSTORE PUSH1 0x4 ADD PUSH2 0x81F SWAP2 SWAP1 PUSH2 0x220D JUMP JUMPDEST PUSH1 0x40 MLOAD DUP1 SWAP2 SUB SWAP1 REVERT JUMPDEST PUSH2 0x831 DUP2 PUSH2 0xBA5 JUMP JUMPDEST POP JUMP JUMPDEST PUSH0 PUSH32 0x1FFC9A700000000000000000000000000000000000000000000000000000000 PUSH28 0xFFFFFFFFFFFFFFFFFFFFFFFFFFFFFFFFFFFFFFFFFFFFFFFFFFFFFFFF NOT AND DUP3 PUSH28 0xFFFFFFFFFFFFFFFFFFFFFFFFFFFFFFFFFFFFFFFFFFFFFFFFFFFFFFFF NOT AND EQ SWAP1 POP SWAP2 SWAP1 POP JUMP JUMPDEST PUSH2 0x8A5 PUSH2 0xA84 JUMP JUMPDEST PUSH20 0xFFFFFFFFFFFFFFFFFFFFFFFFFFFFFFFFFFFFFFFF AND PUSH2 0x8C3 PUSH2 0x63D JUMP JUMPDEST PUSH20 0xFFFFFFFFFFFFFFFFFFFFFFFFFFFFFFFFFFFFFFFF AND EQ PUSH2 0x922 JUMPI PUSH2 0x8E6 PUSH2 0xA84 JUMP JUMPDEST PUSH1 0x40 MLOAD PUSH32 0x118CDAA700000000000000000000000000000000000000000000000000000000 DUP2 MSTORE PUSH1 0x4 ADD PUSH2 0x919 SWAP2 SWAP1 PUSH2 0x220D JUMP JUMPDEST PUSH1 0x40 MLOAD DUP1 SWAP2 SUB SWAP1 REVERT JUMPDEST JUMP JUMPDEST DUP1 PUSH1 0x2 SWAP1 DUP2 PUSH2 0x933 SWAP2 SWAP1 PUSH2 0x27B9 JUMP JUMPDEST POP POP JUMP JUMPDEST PUSH1 0x60 PUSH0 PUSH1 0x1 PUSH2 0x945 DUP5 PUSH2 0xF6C JUMP JUMPDEST ADD SWAP1 POP PUSH0 DUP2 PUSH8 0xFFFFFFFFFFFFFFFF DUP2 GT ISZERO PUSH2 0x963 JUMPI PUSH2 0x962 PUSH2 0x1A5C JUMP JUMPDEST JUMPDEST PUSH1 0x40 MLOAD SWAP1 DUP1 DUP3 MSTORE DUP1 PUSH1 0x1F ADD PUSH1 0x1F NOT AND PUSH1 0x20 ADD DUP3 ADD PUSH1 0x40 MSTORE DUP1 ISZERO PUSH2 0x995 JUMPI DUP2 PUSH1 0x20 ADD PUSH1 0x1 DUP3 MUL DUP1 CALLDATASIZE DUP4 CALLDATACOPY DUP1 DUP3 ADD SWAP2 POP POP SWAP1 POP JUMPDEST POP SWAP1 POP PUSH0 DUP3 PUSH1 0x20 ADD DUP3 ADD SWAP1 POP JUMPDEST PUSH1 0x1 ISZERO PUSH2 0x9F6 JUMPI DUP1 DUP1 PUSH1 0x1 SWAP1 SUB SWAP2 POP POP PUSH32 0x3031323334353637383961626364656600000000000000000000000000000000 PUSH1 0xA DUP7 MOD BYTE DUP2 MSTORE8 PUSH1 0xA DUP6 DUP2 PUSH2 0x9EB JUMPI PUSH2 0x9EA PUSH2 0x2888 JUMP JUMPDEST JUMPDEST DIV SWAP5 POP PUSH0 DUP6 SUB PUSH2 0x9A2 JUMPI JUMPDEST DUP2 SWAP4 POP POP POP POP SWAP2 SWAP1 POP JUMP JUMPDEST PUSH0 PUSH20 0xFFFFFFFFFFFFFFFFFFFFFFFFFFFFFFFFFFFFFFFF AND DUP5 PUSH20 0xFFFFFFFFFFFFFFFFFFFFFFFFFFFFFFFFFFFFFFFF AND SUB PUSH2 0xA71 JUMPI PUSH0 PUSH1 0x40 MLOAD PUSH32 0x57F447CE00000000000000000000000000000000000000000000000000000000 DUP2 MSTORE PUSH1 0x4 ADD PUSH2 0xA68 SWAP2 SWAP1 PUSH2 0x220D JUMP JUMPDEST PUSH1 0x40 MLOAD DUP1 SWAP2 SUB SWAP1 REVERT JUMPDEST PUSH2 0xA7E PUSH0 DUP6 DUP6 DUP6 DUP6 PUSH2 0x10BD JUMP JUMPDEST POP POP POP POP JUMP JUMPDEST PUSH0 CALLER SWAP1 POP SWAP1 JUMP JUMPDEST PUSH0 PUSH20 0xFFFFFFFFFFFFFFFFFFFFFFFFFFFFFFFFFFFFFFFF AND DUP5 PUSH20 0xFFFFFFFFFFFFFFFFFFFFFFFFFFFFFFFFFFFFFFFF AND SUB PUSH2 0xAFB JUMPI PUSH0 PUSH1 0x40 MLOAD PUSH32 0x57F447CE00000000000000000000000000000000000000000000000000000000 DUP2 MSTORE PUSH1 0x4 ADD PUSH2 0xAF2 SWAP2 SWAP1 PUSH2 0x220D JUMP JUMPDEST PUSH1 0x40 MLOAD DUP1 SWAP2 SUB SWAP1 REVERT JUMPDEST PUSH0 PUSH20 0xFFFFFFFFFFFFFFFFFFFFFFFFFFFFFFFFFFFFFFFF AND DUP6 PUSH20 0xFFFFFFFFFFFFFFFFFFFFFFFFFFFFFFFFFFFFFFFF AND SUB PUSH2 0xB6B JUMPI PUSH0 PUSH1 0x40 MLOAD PUSH32 0x1A8351400000000000000000000000000000000000000000000000000000000 DUP2 MSTORE PUSH1 0x4 ADD PUSH2 0xB62 SWAP2 SWAP1 PUSH2 0x220D JUMP JUMPDEST PUSH1 0x40 MLOAD DUP1 SWAP2 SUB SWAP1 REVERT JUMPDEST PUSH2 0xB78 DUP6 DUP6 DUP6 DUP6 DUP6 PUSH2 0x10BD JUMP JUMPDEST POP POP POP POP POP JUMP JUMPDEST PUSH0 PUSH1 0x20 DUP3 MUL PUSH1 0x20 DUP5 ADD ADD MLOAD SWAP1 POP SWAP3 SWAP2 POP POP JUMP JUMPDEST PUSH0 PUSH1 0x20 DUP3 MUL PUSH1 0x20 DUP5 ADD ADD MLOAD SWAP1 POP SWAP3 SWAP2 POP POP JUMP JUMPDEST PUSH0 PUSH1 0x3 PUSH0 SWAP1 SLOAD SWAP1 PUSH2 0x100 EXP SWAP1 DIV PUSH20 0xFFFFFFFFFFFFFFFFFFFFFFFFFFFFFFFFFFFFFFFF AND SWAP1 POP DUP2 PUSH1 0x3 PUSH0 PUSH2 0x100 EXP DUP2 SLOAD DUP2 PUSH20 0xFFFFFFFFFFFFFFFFFFFFFFFFFFFFFFFFFFFFFFFF MUL NOT AND SWAP1 DUP4 PUSH20 0xFFFFFFFFFFFFFFFFFFFFFFFFFFFFFFFFFFFFFFFF AND MUL OR SWAP1 SSTORE POP DUP2 PUSH20 0xFFFFFFFFFFFFFFFFFFFFFFFFFFFFFFFFFFFFFFFF AND DUP2 PUSH20 0xFFFFFFFFFFFFFFFFFFFFFFFFFFFFFFFFFFFFFFFF AND PUSH32 0x8BE0079C531659141344CD1FD0A4F28419497F9722A3DAAFE3B4186F6B6457E0 PUSH1 0x40 MLOAD PUSH1 0x40 MLOAD DUP1 SWAP2 SUB SWAP1 LOG3 POP POP JUMP JUMPDEST PUSH0 PUSH20 0xFFFFFFFFFFFFFFFFFFFFFFFFFFFFFFFFFFFFFFFF AND DUP5 PUSH20 0xFFFFFFFFFFFFFFFFFFFFFFFFFFFFFFFFFFFFFFFF AND SUB PUSH2 0xCD8 JUMPI PUSH0 PUSH1 0x40 MLOAD PUSH32 0x57F447CE00000000000000000000000000000000000000000000000000000000 DUP2 MSTORE PUSH1 0x4 ADD PUSH2 0xCCF SWAP2 SWAP1 PUSH2 0x220D JUMP JUMPDEST PUSH1 0x40 MLOAD DUP1 SWAP2 SUB SWAP1 REVERT JUMPDEST PUSH0 DUP1 PUSH2 0xCE4 DUP6 DUP6 PUSH2 0x1169 JUMP JUMPDEST SWAP2 POP SWAP2 POP PUSH2 0xCF5 PUSH0 DUP8 DUP5 DUP5 DUP8 PUSH2 0x10BD JUMP JUMPDEST POP POP POP POP POP POP JUMP JUMPDEST PUSH0 PUSH20 0xFFFFFFFFFFFFFFFFFFFFFFFFFFFFFFFFFFFFFFFF AND DUP3 PUSH20 0xFFFFFFFFFFFFFFFFFFFFFFFFFFFFFFFFFFFFFFFF AND SUB PUSH2 0xD6D JUMPI PUSH0 PUSH1 0x40 MLOAD PUSH32 0xCED3E10000000000000000000000000000000000000000000000000000000000 DUP2 MSTORE PUSH1 0x4 ADD PUSH2 0xD64 SWAP2 SWAP1 PUSH2 0x220D JUMP JUMPDEST PUSH1 0x40 MLOAD DUP1 SWAP2 SUB SWAP1 REVERT JUMPDEST DUP1 PUSH1 0x1 PUSH0 DUP6 PUSH20 0xFFFFFFFFFFFFFFFFFFFFFFFFFFFFFFFFFFFFFFFF AND PUSH20 0xFFFFFFFFFFFFFFFFFFFFFFFFFFFFFFFFFFFFFFFF AND DUP2 MSTORE PUSH1 0x20 ADD SWAP1 DUP2 MSTORE PUSH1 0x20 ADD PUSH0 KECCAK256 PUSH0 DUP5 PUSH20 0xFFFFFFFFFFFFFFFFFFFFFFFFFFFFFFFFFFFFFFFF AND PUSH20 0xFFFFFFFFFFFFFFFFFFFFFFFFFFFFFFFFFFFFFFFF AND DUP2 MSTORE PUSH1 0x20 ADD SWAP1 DUP2 MSTORE PUSH1 0x20 ADD PUSH0 KECCAK256 PUSH0 PUSH2 0x100 EXP DUP2 SLOAD DUP2 PUSH1 0xFF MUL NOT AND SWAP1 DUP4 ISZERO ISZERO MUL OR SWAP1 SSTORE POP DUP2 PUSH20 0xFFFFFFFFFFFFFFFFFFFFFFFFFFFFFFFFFFFFFFFF AND DUP4 PUSH20 0xFFFFFFFFFFFFFFFFFFFFFFFFFFFFFFFFFFFFFFFF AND PUSH32 0x17307EAB39AB6107E8899845AD3D59BD9653F200F220920489CA2B5937696C31 DUP4 PUSH1 0x40 MLOAD PUSH2 0xE59 SWAP2 SWAP1 PUSH2 0x1A2B JUMP JUMPDEST PUSH1 0x40 MLOAD DUP1 SWAP2 SUB SWAP1 LOG3 POP POP POP JUMP JUMPDEST PUSH0 PUSH20 0xFFFFFFFFFFFFFFFFFFFFFFFFFFFFFFFFFFFFFFFF AND DUP5 PUSH20 0xFFFFFFFFFFFFFFFFFFFFFFFFFFFFFFFFFFFFFFFF AND SUB PUSH2 0xED6 JUMPI PUSH0 PUSH1 0x40 MLOAD PUSH32 0x57F447CE00000000000000000000000000000000000000000000000000000000 DUP2 MSTORE PUSH1 0x4 ADD PUSH2 0xECD SWAP2 SWAP1 PUSH2 0x220D JUMP JUMPDEST PUSH1 0x40 MLOAD DUP1 SWAP2 SUB SWAP1 REVERT JUMPDEST PUSH0 PUSH20 0xFFFFFFFFFFFFFFFFFFFFFFFFFFFFFFFFFFFFFFFF AND DUP6 PUSH20 0xFFFFFFFFFFFFFFFFFFFFFFFFFFFFFFFFFFFFFFFF AND SUB PUSH2 0xF46 JUMPI PUSH0 PUSH1 0x40 MLOAD PUSH32 0x1A8351400000000000000000000000000000000000000000000000000000000 DUP2 MSTORE PUSH1 0x4 ADD PUSH2 0xF3D SWAP2 SWAP1 PUSH2 0x220D JUMP JUMPDEST PUSH1 0x40 MLOAD DUP1 SWAP2 SUB SWAP1 REVERT JUMPDEST PUSH0 DUP1 PUSH2 0xF52 DUP6 DUP6 PUSH2 0x1169 JUMP JUMPDEST SWAP2 POP SWAP2 POP PUSH2 0xF63 DUP8 DUP8 DUP5 DUP5 DUP8 PUSH2 0x10BD JUMP JUMPDEST POP POP POP POP POP POP POP JUMP JUMPDEST PUSH0 DUP1 PUSH0 SWAP1 POP PUSH27 0x184F03E93FF9F4DAA797ED6E38ED64BF6A1F010000000000000000 DUP4 LT PUSH2 0xFC8 JUMPI PUSH27 0x184F03E93FF9F4DAA797ED6E38ED64BF6A1F010000000000000000 DUP4 DUP2 PUSH2 0xFBE JUMPI PUSH2 0xFBD PUSH2 0x2888 JUMP JUMPDEST JUMPDEST DIV SWAP3 POP PUSH1 0x40 DUP2 ADD SWAP1 POP JUMPDEST PUSH14 0x4EE2D6D415B85ACEF8100000000 DUP4 LT PUSH2 0x1005 JUMPI PUSH14 0x4EE2D6D415B85ACEF8100000000 DUP4 DUP2 PUSH2 0xFFB JUMPI PUSH2 0xFFA PUSH2 0x2888 JUMP JUMPDEST JUMPDEST DIV SWAP3 POP PUSH1 0x20 DUP2 ADD SWAP1 POP JUMPDEST PUSH7 0x2386F26FC10000 DUP4 LT PUSH2 0x1034 JUMPI PUSH7 0x2386F26FC10000 DUP4 DUP2 PUSH2 0x102A JUMPI PUSH2 0x1029 PUSH2 0x2888 JUMP JUMPDEST JUMPDEST DIV SWAP3 POP PUSH1 0x10 DUP2 ADD SWAP1 POP JUMPDEST PUSH4 0x5F5E100 DUP4 LT PUSH2 0x105D JUMPI PUSH4 0x5F5E100 DUP4 DUP2 PUSH2 0x1053 JUMPI PUSH2 0x1052 PUSH2 0x2888 JUMP JUMPDEST JUMPDEST DIV SWAP3 POP PUSH1 0x8 DUP2 ADD SWAP1 POP JUMPDEST PUSH2 0x2710 DUP4 LT PUSH2 0x1082 JUMPI PUSH2 0x2710 DUP4 DUP2 PUSH2 0x1078 JUMPI PUSH2 0x1077 PUSH2 0x2888 JUMP JUMPDEST JUMPDEST DIV SWAP3 POP PUSH1 0x4 DUP2 ADD SWAP1 POP JUMPDEST PUSH1 0x64 DUP4 LT PUSH2 0x10A5 JUMPI PUSH1 0x64 DUP4 DUP2 PUSH2 0x109B JUMPI PUSH2 0x109A PUSH2 0x2888 JUMP JUMPDEST JUMPDEST DIV SWAP3 POP PUSH1 0x2 DUP2 ADD SWAP1 POP JUMPDEST PUSH1 0xA DUP4 LT PUSH2 0x10B4 JUMPI PUSH1 0x1 DUP2 ADD SWAP1 POP JUMPDEST DUP1 SWAP2 POP POP SWAP2 SWAP1 POP JUMP JUMPDEST PUSH2 0x10C9 DUP6 DUP6 DUP6 DUP6 PUSH2 0x1199 JUMP JUMPDEST PUSH0 PUSH20 0xFFFFFFFFFFFFFFFFFFFFFFFFFFFFFFFFFFFFFFFF AND DUP5 PUSH20 0xFFFFFFFFFFFFFFFFFFFFFFFFFFFFFFFFFFFFFFFF AND EQ PUSH2 0x1162 JUMPI PUSH0 PUSH2 0x1105 PUSH2 0xA84 JUMP JUMPDEST SWAP1 POP PUSH1 0x1 DUP5 MLOAD SUB PUSH2 0x1151 JUMPI PUSH0 PUSH2 0x1124 PUSH0 DUP7 PUSH2 0xB92 SWAP1 SWAP2 SWAP1 PUSH4 0xFFFFFFFF AND JUMP JUMPDEST SWAP1 POP PUSH0 PUSH2 0x113A PUSH0 DUP7 PUSH2 0xB92 SWAP1 SWAP2 SWAP1 PUSH4 0xFFFFFFFF AND JUMP JUMPDEST SWAP1 POP PUSH2 0x114A DUP4 DUP10 DUP10 DUP6 DUP6 DUP10 PUSH2 0x152F JUMP JUMPDEST POP POP PUSH2 0x1160 JUMP JUMPDEST PUSH2 0x115F DUP2 DUP8 DUP8 DUP8 DUP8 DUP8 PUSH2 0x16DE JUMP JUMPDEST JUMPDEST POP JUMPDEST POP POP POP POP POP JUMP JUMPDEST PUSH1 0x60 DUP1 PUSH1 0x40 MLOAD SWAP2 POP PUSH1 0x1 DUP3 MSTORE DUP4 PUSH1 0x20 DUP4 ADD MSTORE PUSH1 0x40 DUP3 ADD SWAP1 POP PUSH1 0x1 DUP2 MSTORE DUP3 PUSH1 0x20 DUP3 ADD MSTORE PUSH1 0x40 DUP2 ADD PUSH1 0x40 MSTORE SWAP3 POP SWAP3 SWAP1 POP JUMP JUMPDEST DUP1 MLOAD DUP3 MLOAD EQ PUSH2 0x11E3 JUMPI DUP2 MLOAD DUP2 MLOAD PUSH1 0x40 MLOAD PUSH32 0x5B05999100000000000000000000000000000000000000000000000000000000 DUP2 MSTORE PUSH1 0x4 ADD PUSH2 0x11DA SWAP3 SWAP2 SWAP1 PUSH2 0x24F7 JUMP JUMPDEST PUSH1 0x40 MLOAD DUP1 SWAP2 SUB SWAP1 REVERT JUMPDEST PUSH0 PUSH2 0x11EC PUSH2 0xA84 JUMP JUMPDEST SWAP1 POP PUSH0 JUMPDEST DUP4 MLOAD DUP2 LT ISZERO PUSH2 0x13EE JUMPI PUSH0 PUSH2 0x120D DUP3 DUP7 PUSH2 0xB92 SWAP1 SWAP2 SWAP1 PUSH4 0xFFFFFFFF AND JUMP JUMPDEST SWAP1 POP PUSH0 PUSH2 0x1223 DUP4 DUP7 PUSH2 0xB92 SWAP1 SWAP2 SWAP1 PUSH4 0xFFFFFFFF AND JUMP JUMPDEST SWAP1 POP PUSH0 PUSH20 0xFFFFFFFFFFFFFFFFFFFFFFFFFFFFFFFFFFFFFFFF AND DUP9 PUSH20 0xFFFFFFFFFFFFFFFFFFFFFFFFFFFFFFFFFFFFFFFF AND EQ PUSH2 0x1346 JUMPI PUSH0 DUP1 PUSH0 DUP5 DUP2 MSTORE PUSH1 0x20 ADD SWAP1 DUP2 MSTORE PUSH1 0x20 ADD PUSH0 KECCAK256 PUSH0 DUP11 PUSH20 0xFFFFFFFFFFFFFFFFFFFFFFFFFFFFFFFFFFFFFFFF AND PUSH20 0xFFFFFFFFFFFFFFFFFFFFFFFFFFFFFFFFFFFFFFFF AND DUP2 MSTORE PUSH1 0x20 ADD SWAP1 DUP2 MSTORE PUSH1 0x20 ADD PUSH0 KECCAK256 SLOAD SWAP1 POP DUP2 DUP2 LT ISZERO PUSH2 0x12F2 JUMPI DUP9 DUP2 DUP4 DUP6 PUSH1 0x40 MLOAD PUSH32 0x3DEE4C500000000000000000000000000000000000000000000000000000000 DUP2 MSTORE PUSH1 0x4 ADD PUSH2 0x12E9 SWAP5 SWAP4 SWAP3 SWAP2 SWAP1 PUSH2 0x28B5 JUMP JUMPDEST PUSH1 0x40 MLOAD DUP1 SWAP2 SUB SWAP1 REVERT JUMPDEST DUP2 DUP2 SUB PUSH0 DUP1 DUP6 DUP2 MSTORE PUSH1 0x20 ADD SWAP1 DUP2 MSTORE PUSH1 0x20 ADD PUSH0 KECCAK256 PUSH0 DUP12 PUSH20 0xFFFFFFFFFFFFFFFFFFFFFFFFFFFFFFFFFFFFFFFF AND PUSH20 0xFFFFFFFFFFFFFFFFFFFFFFFFFFFFFFFFFFFFFFFF AND DUP2 MSTORE PUSH1 0x20 ADD SWAP1 DUP2 MSTORE PUSH1 0x20 ADD PUSH0 KECCAK256 DUP2 SWAP1 SSTORE POP POP JUMPDEST PUSH0 PUSH20 0xFFFFFFFFFFFFFFFFFFFFFFFFFFFFFFFFFFFFFFFF AND DUP8 PUSH20 0xFFFFFFFFFFFFFFFFFFFFFFFFFFFFFFFFFFFFFFFF AND EQ PUSH2 0x13DB JUMPI DUP1 PUSH0 DUP1 DUP5 DUP2 MSTORE PUSH1 0x20 ADD SWAP1 DUP2 MSTORE PUSH1 0x20 ADD PUSH0 KECCAK256 PUSH0 DUP10 PUSH20 0xFFFFFFFFFFFFFFFFFFFFFFFFFFFFFFFFFFFFFFFF AND PUSH20 0xFFFFFFFFFFFFFFFFFFFFFFFFFFFFFFFFFFFFFFFF AND DUP2 MSTORE PUSH1 0x20 ADD SWAP1 DUP2 MSTORE PUSH1 0x20 ADD PUSH0 KECCAK256 PUSH0 DUP3 DUP3 SLOAD PUSH2 0x13D3 SWAP2 SWAP1 PUSH2 0x28F8 JUMP JUMPDEST SWAP3 POP POP DUP2 SWAP1 SSTORE POP JUMPDEST POP POP DUP1 PUSH2 0x13E7 SWAP1 PUSH2 0x2578 JUMP JUMPDEST SWAP1 POP PUSH2 0x11F0 JUMP JUMPDEST POP PUSH1 0x1 DUP4 MLOAD SUB PUSH2 0x14A9 JUMPI PUSH0 PUSH2 0x140C PUSH0 DUP6 PUSH2 0xB92 SWAP1 SWAP2 SWAP1 PUSH4 0xFFFFFFFF AND JUMP JUMPDEST SWAP1 POP PUSH0 PUSH2 0x1422 PUSH0 DUP6 PUSH2 0xB92 SWAP1 SWAP2 SWAP1 PUSH4 0xFFFFFFFF AND JUMP JUMPDEST SWAP1 POP DUP6 PUSH20 0xFFFFFFFFFFFFFFFFFFFFFFFFFFFFFFFFFFFFFFFF AND DUP8 PUSH20 0xFFFFFFFFFFFFFFFFFFFFFFFFFFFFFFFFFFFFFFFF AND DUP5 PUSH20 0xFFFFFFFFFFFFFFFFFFFFFFFFFFFFFFFFFFFFFFFF AND PUSH32 0xC3D58168C5AE7397731D063D5BBF3D657854427343F4C083240F7AACAA2D0F62 DUP6 DUP6 PUSH1 0x40 MLOAD PUSH2 0x149A SWAP3 SWAP2 SWAP1 PUSH2 0x24F7 JUMP JUMPDEST PUSH1 0x40 MLOAD DUP1 SWAP2 SUB SWAP1 LOG4 POP POP PUSH2 0x1528 JUMP JUMPDEST DUP4 PUSH20 0xFFFFFFFFFFFFFFFFFFFFFFFFFFFFFFFFFFFFFFFF AND DUP6 PUSH20 0xFFFFFFFFFFFFFFFFFFFFFFFFFFFFFFFFFFFFFFFF AND DUP3 PUSH20 0xFFFFFFFFFFFFFFFFFFFFFFFFFFFFFFFFFFFFFFFF AND PUSH32 0x4A39DC06D4C0DBC64B70AF90FD698A233A518AA5D07E595D983B8C0526C8F7FB DUP7 DUP7 PUSH1 0x40 MLOAD PUSH2 0x151F SWAP3 SWAP2 SWAP1 PUSH2 0x292B JUMP JUMPDEST PUSH1 0x40 MLOAD DUP1 SWAP2 SUB SWAP1 LOG4 JUMPDEST POP POP POP POP POP JUMP JUMPDEST PUSH0 DUP5 PUSH20 0xFFFFFFFFFFFFFFFFFFFFFFFFFFFFFFFFFFFFFFFF AND EXTCODESIZE GT ISZERO PUSH2 0x16D6 JUMPI DUP4 PUSH20 0xFFFFFFFFFFFFFFFFFFFFFFFFFFFFFFFFFFFFFFFF AND PUSH4 0xF23A6E61 DUP8 DUP8 DUP7 DUP7 DUP7 PUSH1 0x40 MLOAD DUP7 PUSH4 0xFFFFFFFF AND PUSH1 0xE0 SHL DUP2 MSTORE PUSH1 0x4 ADD PUSH2 0x158F SWAP6 SWAP5 SWAP4 SWAP3 SWAP2 SWAP1 PUSH2 0x29B2 JUMP JUMPDEST PUSH1 0x20 PUSH1 0x40 MLOAD DUP1 DUP4 SUB DUP2 PUSH0 DUP8 GAS CALL SWAP3 POP POP POP DUP1 ISZERO PUSH2 0x15CA JUMPI POP PUSH1 0x40 MLOAD RETURNDATASIZE PUSH1 0x1F NOT PUSH1 0x1F DUP3 ADD AND DUP3 ADD DUP1 PUSH1 0x40 MSTORE POP DUP2 ADD SWAP1 PUSH2 0x15C7 SWAP2 SWAP1 PUSH2 0x2A1E JUMP JUMPDEST PUSH1 0x1 JUMPDEST PUSH2 0x164B JUMPI RETURNDATASIZE DUP1 PUSH0 DUP2 EQ PUSH2 0x15F8 JUMPI PUSH1 0x40 MLOAD SWAP2 POP PUSH1 0x1F NOT PUSH1 0x3F RETURNDATASIZE ADD AND DUP3 ADD PUSH1 0x40 MSTORE RETURNDATASIZE DUP3 MSTORE RETURNDATASIZE PUSH0 PUSH1 0x20 DUP5 ADD RETURNDATACOPY PUSH2 0x15FD JUMP JUMPDEST PUSH1 0x60 SWAP2 POP JUMPDEST POP PUSH0 DUP2 MLOAD SUB PUSH2 0x1643 JUMPI DUP5 PUSH1 0x40 MLOAD PUSH32 0x57F447CE00000000000000000000000000000000000000000000000000000000 DUP2 MSTORE PUSH1 0x4 ADD PUSH2 0x163A SWAP2 SWAP1 PUSH2 0x220D JUMP JUMPDEST PUSH1 0x40 MLOAD DUP1 SWAP2 SUB SWAP1 REVERT JUMPDEST DUP1 MLOAD DUP2 PUSH1 0x20 ADD REVERT JUMPDEST PUSH4 0xF23A6E61 PUSH1 0xE0 SHL PUSH28 0xFFFFFFFFFFFFFFFFFFFFFFFFFFFFFFFFFFFFFFFFFFFFFFFFFFFFFFFF NOT AND DUP2 PUSH28 0xFFFFFFFFFFFFFFFFFFFFFFFFFFFFFFFFFFFFFFFFFFFFFFFFFFFFFFFF NOT AND EQ PUSH2 0x16D4 JUMPI DUP5 PUSH1 0x40 MLOAD PUSH32 0x57F447CE00000000000000000000000000000000000000000000000000000000 DUP2 MSTORE PUSH1 0x4 ADD PUSH2 0x16CB SWAP2 SWAP1 PUSH2 0x220D JUMP JUMPDEST PUSH1 0x40 MLOAD DUP1 SWAP2 SUB SWAP1 REVERT JUMPDEST POP JUMPDEST POP POP POP POP POP POP JUMP JUMPDEST PUSH0 DUP5 PUSH20 0xFFFFFFFFFFFFFFFFFFFFFFFFFFFFFFFFFFFFFFFF AND EXTCODESIZE GT ISZERO PUSH2 0x1885 JUMPI DUP4 PUSH20 0xFFFFFFFFFFFFFFFFFFFFFFFFFFFFFFFFFFFFFFFF AND PUSH4 0xBC197C81 DUP8 DUP8 DUP7 DUP7 DUP7 PUSH1 0x40 MLOAD DUP7 PUSH4 0xFFFFFFFF AND PUSH1 0xE0 SHL DUP2 MSTORE PUSH1 0x4 ADD PUSH2 0x173E SWAP6 SWAP5 SWAP4 SWAP3 SWAP2 SWAP1 PUSH2 0x2A49 JUMP JUMPDEST PUSH1 0x20 PUSH1 0x40 MLOAD DUP1 DUP4 SUB DUP2 PUSH0 DUP8 GAS CALL SWAP3 POP POP POP DUP1 ISZERO PUSH2 0x1779 JUMPI POP PUSH1 0x40 MLOAD RETURNDATASIZE PUSH1 0x1F NOT PUSH1 0x1F DUP3 ADD AND DUP3 ADD DUP1 PUSH1 0x40 MSTORE POP DUP2 ADD SWAP1 PUSH2 0x1776 SWAP2 SWAP1 PUSH2 0x2A1E JUMP JUMPDEST PUSH1 0x1 JUMPDEST PUSH2 0x17FA JUMPI RETURNDATASIZE DUP1 PUSH0 DUP2 EQ PUSH2 0x17A7 JUMPI PUSH1 0x40 MLOAD SWAP2 POP PUSH1 0x1F NOT PUSH1 0x3F RETURNDATASIZE ADD AND DUP3 ADD PUSH1 0x40 MSTORE RETURNDATASIZE DUP3 MSTORE RETURNDATASIZE PUSH0 PUSH1 0x20 DUP5 ADD RETURNDATACOPY PUSH2 0x17AC JUMP JUMPDEST PUSH1 0x60 SWAP2 POP JUMPDEST POP PUSH0 DUP2 MLOAD SUB PUSH2 0x17F2 JUMPI DUP5 PUSH1 0x40 MLOAD PUSH32 0x57F447CE00000000000000000000000000000000000000000000000000000000 DUP2 MSTORE PUSH1 0x4 ADD PUSH2 0x17E9 SWAP2 SWAP1 PUSH2 0x220D JUMP JUMPDEST PUSH1 0x40 MLOAD DUP1 SWAP2 SUB SWAP1 REVERT JUMPDEST DUP1 MLOAD DUP2 PUSH1 0x20 ADD REVERT JUMPDEST PUSH4 0xBC197C81 PUSH1 0xE0 SHL PUSH28 0xFFFFFFFFFFFFFFFFFFFFFFFFFFFFFFFFFFFFFFFFFFFFFFFFFFFFFFFF NOT AND DUP2 PUSH28 0xFFFFFFFFFFFFFFFFFFFFFFFFFFFFFFFFFFFFFFFFFFFFFFFFFFFFFFFF NOT AND EQ PUSH2 0x1883 JUMPI DUP5 PUSH1 0x40 MLOAD PUSH32 0x57F447CE00000000000000000000000000000000000000000000000000000000 DUP2 MSTORE PUSH1 0x4 ADD PUSH2 0x187A SWAP2 SWAP1 PUSH2 0x220D JUMP JUMPDEST PUSH1 0x40 MLOAD DUP1 SWAP2 SUB SWAP1 REVERT JUMPDEST POP JUMPDEST POP POP POP POP POP POP JUMP JUMPDEST PUSH0 PUSH1 0x40 MLOAD SWAP1 POP SWAP1 JUMP JUMPDEST PUSH0 DUP1 REVERT JUMPDEST PUSH0 DUP1 REVERT JUMPDEST PUSH0 PUSH20 0xFFFFFFFFFFFFFFFFFFFFFFFFFFFFFFFFFFFFFFFF DUP3 AND SWAP1 POP SWAP2 SWAP1 POP JUMP JUMPDEST PUSH0 PUSH2 0x18C7 DUP3 PUSH2 0x189E JUMP JUMPDEST SWAP1 POP SWAP2 SWAP1 POP JUMP JUMPDEST PUSH2 0x18D7 DUP2 PUSH2 0x18BD JUMP JUMPDEST DUP2 EQ PUSH2 0x18E1 JUMPI PUSH0 DUP1 REVERT JUMPDEST POP JUMP JUMPDEST PUSH0 DUP2 CALLDATALOAD SWAP1 POP PUSH2 0x18F2 DUP2 PUSH2 0x18CE JUMP JUMPDEST SWAP3 SWAP2 POP POP JUMP JUMPDEST PUSH0 DUP2 SWAP1 POP SWAP2 SWAP1 POP JUMP JUMPDEST PUSH2 0x190A DUP2 PUSH2 0x18F8 JUMP JUMPDEST DUP2 EQ PUSH2 0x1914 JUMPI PUSH0 DUP1 REVERT JUMPDEST POP JUMP JUMPDEST PUSH0 DUP2 CALLDATALOAD SWAP1 POP PUSH2 0x1925 DUP2 PUSH2 0x1901 JUMP JUMPDEST SWAP3 SWAP2 POP POP JUMP JUMPDEST PUSH0 DUP1 PUSH1 0x40 DUP4 DUP6 SUB SLT ISZERO PUSH2 0x1941 JUMPI PUSH2 0x1940 PUSH2 0x1896 JUMP JUMPDEST JUMPDEST PUSH0 PUSH2 0x194E DUP6 DUP3 DUP7 ADD PUSH2 0x18E4 JUMP JUMPDEST SWAP3 POP POP PUSH1 0x20 PUSH2 0x195F DUP6 DUP3 DUP7 ADD PUSH2 0x1917 JUMP JUMPDEST SWAP2 POP POP SWAP3 POP SWAP3 SWAP1 POP JUMP JUMPDEST PUSH2 0x1972 DUP2 PUSH2 0x18F8 JUMP JUMPDEST DUP3 MSTORE POP POP JUMP JUMPDEST PUSH0 PUSH1 0x20 DUP3 ADD SWAP1 POP PUSH2 0x198B PUSH0 DUP4 ADD DUP5 PUSH2 0x1969 JUMP JUMPDEST SWAP3 SWAP2 POP POP JUMP JUMPDEST PUSH0 PUSH32 0xFFFFFFFF00000000000000000000000000000000000000000000000000000000 DUP3 AND SWAP1 POP SWAP2 SWAP1 POP JUMP JUMPDEST PUSH2 0x19C5 DUP2 PUSH2 0x1991 JUMP JUMPDEST DUP2 EQ PUSH2 0x19CF JUMPI PUSH0 DUP1 REVERT JUMPDEST POP JUMP JUMPDEST PUSH0 DUP2 CALLDATALOAD SWAP1 POP PUSH2 0x19E0 DUP2 PUSH2 0x19BC JUMP JUMPDEST SWAP3 SWAP2 POP POP JUMP JUMPDEST PUSH0 PUSH1 0x20 DUP3 DUP5 SUB SLT ISZERO PUSH2 0x19FB JUMPI PUSH2 0x19FA PUSH2 0x1896 JUMP JUMPDEST JUMPDEST PUSH0 PUSH2 0x1A08 DUP5 DUP3 DUP6 ADD PUSH2 0x19D2 JUMP JUMPDEST SWAP2 POP POP SWAP3 SWAP2 POP POP JUMP JUMPDEST PUSH0 DUP2 ISZERO ISZERO SWAP1 POP SWAP2 SWAP1 POP JUMP JUMPDEST PUSH2 0x1A25 DUP2 PUSH2 0x1A11 JUMP JUMPDEST DUP3 MSTORE POP POP JUMP JUMPDEST PUSH0 PUSH1 0x20 DUP3 ADD SWAP1 POP PUSH2 0x1A3E PUSH0 DUP4 ADD DUP5 PUSH2 0x1A1C JUMP JUMPDEST SWAP3 SWAP2 POP POP JUMP JUMPDEST PUSH0 DUP1 REVERT JUMPDEST PUSH0 DUP1 REVERT JUMPDEST PUSH0 PUSH1 0x1F NOT PUSH1 0x1F DUP4 ADD AND SWAP1 POP SWAP2 SWAP1 POP JUMP JUMPDEST PUSH32 0x4E487B7100000000000000000000000000000000000000000000000000000000 PUSH0 MSTORE PUSH1 0x41 PUSH1 0x4 MSTORE PUSH1 0x24 PUSH0 REVERT JUMPDEST PUSH2 0x1A92 DUP3 PUSH2 0x1A4C JUMP JUMPDEST DUP2 ADD DUP2 DUP2 LT PUSH8 0xFFFFFFFFFFFFFFFF DUP3 GT OR ISZERO PUSH2 0x1AB1 JUMPI PUSH2 0x1AB0 PUSH2 0x1A5C JUMP JUMPDEST JUMPDEST DUP1 PUSH1 0x40 MSTORE POP POP POP JUMP JUMPDEST PUSH0 PUSH2 0x1AC3 PUSH2 0x188D JUMP JUMPDEST SWAP1 POP PUSH2 0x1ACF DUP3 DUP3 PUSH2 0x1A89 JUMP JUMPDEST SWAP2 SWAP1 POP JUMP JUMPDEST PUSH0 PUSH8 0xFFFFFFFFFFFFFFFF DUP3 GT ISZERO PUSH2 0x1AEE JUMPI PUSH2 0x1AED PUSH2 0x1A5C JUMP JUMPDEST JUMPDEST PUSH2 0x1AF7 DUP3 PUSH2 0x1A4C JUMP JUMPDEST SWAP1 POP PUSH1 0x20 DUP2 ADD SWAP1 POP SWAP2 SWAP1 POP JUMP JUMPDEST DUP3 DUP2 DUP4 CALLDATACOPY PUSH0 DUP4 DUP4 ADD MSTORE POP POP POP JUMP JUMPDEST PUSH0 PUSH2 0x1B24 PUSH2 0x1B1F DUP5 PUSH2 0x1AD4 JUMP JUMPDEST PUSH2 0x1ABA JUMP JUMPDEST SWAP1 POP DUP3 DUP2 MSTORE PUSH1 0x20 DUP2 ADD DUP5 DUP5 DUP5 ADD GT ISZERO PUSH2 0x1B40 JUMPI PUSH2 0x1B3F PUSH2 0x1A48 JUMP JUMPDEST JUMPDEST PUSH2 0x1B4B DUP5 DUP3 DUP6 PUSH2 0x1B04 JUMP JUMPDEST POP SWAP4 SWAP3 POP POP POP JUMP JUMPDEST PUSH0 DUP3 PUSH1 0x1F DUP4 ADD SLT PUSH2 0x1B67 JUMPI PUSH2 0x1B66 PUSH2 0x1A44 JUMP JUMPDEST JUMPDEST DUP2 CALLDATALOAD PUSH2 0x1B77 DUP5 DUP3 PUSH1 0x20 DUP7 ADD PUSH2 0x1B12 JUMP JUMPDEST SWAP2 POP POP SWAP3 SWAP2 POP POP JUMP JUMPDEST PUSH0 PUSH1 0x20 DUP3 DUP5 SUB SLT ISZERO PUSH2 0x1B95 JUMPI PUSH2 0x1B94 PUSH2 0x1896 JUMP JUMPDEST JUMPDEST PUSH0 DUP3 ADD CALLDATALOAD PUSH8 0xFFFFFFFFFFFFFFFF DUP2 GT ISZERO PUSH2 0x1BB2 JUMPI PUSH2 0x1BB1 PUSH2 0x189A JUMP JUMPDEST JUMPDEST PUSH2 0x1BBE DUP5 DUP3 DUP6 ADD PUSH2 0x1B53 JUMP JUMPDEST SWAP2 POP POP SWAP3 SWAP2 POP POP JUMP JUMPDEST PUSH0 PUSH1 0x20 DUP3 DUP5 SUB SLT ISZERO PUSH2 0x1BDC JUMPI PUSH2 0x1BDB PUSH2 0x1896 JUMP JUMPDEST JUMPDEST PUSH0 PUSH2 0x1BE9 DUP5 DUP3 DUP6 ADD PUSH2 0x1917 JUMP JUMPDEST SWAP2 POP POP SWAP3 SWAP2 POP POP JUMP JUMPDEST PUSH0 DUP2 MLOAD SWAP1 POP SWAP2 SWAP1 POP JUMP JUMPDEST PUSH0 DUP3 DUP3 MSTORE PUSH1 0x20 DUP3 ADD SWAP1 POP SWAP3 SWAP2 POP POP JUMP JUMPDEST PUSH0 JUMPDEST DUP4 DUP2 LT ISZERO PUSH2 0x1C29 JUMPI DUP1 DUP3 ADD MLOAD DUP2 DUP5 ADD MSTORE PUSH1 0x20 DUP2 ADD SWAP1 POP PUSH2 0x1C0E JUMP JUMPDEST PUSH0 DUP5 DUP5 ADD MSTORE POP POP POP POP JUMP JUMPDEST PUSH0 PUSH2 0x1C3E DUP3 PUSH2 0x1BF2 JUMP JUMPDEST PUSH2 0x1C48 DUP2 DUP6 PUSH2 0x1BFC JUMP JUMPDEST SWAP4 POP PUSH2 0x1C58 DUP2 DUP6 PUSH1 0x20 DUP7 ADD PUSH2 0x1C0C JUMP JUMPDEST PUSH2 0x1C61 DUP2 PUSH2 0x1A4C JUMP JUMPDEST DUP5 ADD SWAP2 POP POP SWAP3 SWAP2 POP POP JUMP JUMPDEST PUSH0 PUSH1 0x20 DUP3 ADD SWAP1 POP DUP2 DUP2 SUB PUSH0 DUP4 ADD MSTORE PUSH2 0x1C84 DUP2 DUP5 PUSH2 0x1C34 JUMP JUMPDEST SWAP1 POP SWAP3 SWAP2 POP POP JUMP JUMPDEST PUSH0 PUSH8 0xFFFFFFFFFFFFFFFF DUP3 GT ISZERO PUSH2 0x1CA6 JUMPI PUSH2 0x1CA5 PUSH2 0x1A5C JUMP JUMPDEST JUMPDEST PUSH1 0x20 DUP3 MUL SWAP1 POP PUSH1 0x20 DUP2 ADD SWAP1 POP SWAP2 SWAP1 POP JUMP JUMPDEST PUSH0 DUP1 REVERT JUMPDEST PUSH0 PUSH2 0x1CCD PUSH2 0x1CC8 DUP5 PUSH2 0x1C8C JUMP JUMPDEST PUSH2 0x1ABA JUMP JUMPDEST SWAP1 POP DUP1 DUP4 DUP3 MSTORE PUSH1 0x20 DUP3 ADD SWAP1 POP PUSH1 0x20 DUP5 MUL DUP4 ADD DUP6 DUP2 GT ISZERO PUSH2 0x1CF0 JUMPI PUSH2 0x1CEF PUSH2 0x1CB7 JUMP JUMPDEST JUMPDEST DUP4 JUMPDEST DUP2 DUP2 LT ISZERO PUSH2 0x1D19 JUMPI DUP1 PUSH2 0x1D05 DUP9 DUP3 PUSH2 0x1917 JUMP JUMPDEST DUP5 MSTORE PUSH1 0x20 DUP5 ADD SWAP4 POP POP PUSH1 0x20 DUP2 ADD SWAP1 POP PUSH2 0x1CF2 JUMP JUMPDEST POP POP POP SWAP4 SWAP3 POP POP POP JUMP JUMPDEST PUSH0 DUP3 PUSH1 0x1F DUP4 ADD SLT PUSH2 0x1D37 JUMPI PUSH2 0x1D36 PUSH2 0x1A44 JUMP JUMPDEST JUMPDEST DUP2 CALLDATALOAD PUSH2 0x1D47 DUP5 DUP3 PUSH1 0x20 DUP7 ADD PUSH2 0x1CBB JUMP JUMPDEST SWAP2 POP POP SWAP3 SWAP2 POP POP JUMP JUMPDEST PUSH0 PUSH8 0xFFFFFFFFFFFFFFFF DUP3 GT ISZERO PUSH2 0x1D6A JUMPI PUSH2 0x1D69 PUSH2 0x1A5C JUMP JUMPDEST JUMPDEST PUSH2 0x1D73 DUP3 PUSH2 0x1A4C JUMP JUMPDEST SWAP1 POP PUSH1 0x20 DUP2 ADD SWAP1 POP SWAP2 SWAP1 POP JUMP JUMPDEST PUSH0 PUSH2 0x1D92 PUSH2 0x1D8D DUP5 PUSH2 0x1D50 JUMP JUMPDEST PUSH2 0x1ABA JUMP JUMPDEST SWAP1 POP DUP3 DUP2 MSTORE PUSH1 0x20 DUP2 ADD DUP5 DUP5 DUP5 ADD GT ISZERO PUSH2 0x1DAE JUMPI PUSH2 0x1DAD PUSH2 0x1A48 JUMP JUMPDEST JUMPDEST PUSH2 0x1DB9 DUP5 DUP3 DUP6 PUSH2 0x1B04 JUMP JUMPDEST POP SWAP4 SWAP3 POP POP POP JUMP JUMPDEST PUSH0 DUP3 PUSH1 0x1F DUP4 ADD SLT PUSH2 0x1DD5 JUMPI PUSH2 0x1DD4 PUSH2 0x1A44 JUMP JUMPDEST JUMPDEST DUP2 CALLDATALOAD PUSH2 0x1DE5 DUP5 DUP3 PUSH1 0x20 DUP7 ADD PUSH2 0x1D80 JUMP JUMPDEST SWAP2 POP POP SWAP3 SWAP2 POP POP JUMP JUMPDEST PUSH0 DUP1 PUSH0 DUP1 PUSH1 0x80 DUP6 DUP8 SUB SLT ISZERO PUSH2 0x1E06 JUMPI PUSH2 0x1E05 PUSH2 0x1896 JUMP JUMPDEST JUMPDEST PUSH0 PUSH2 0x1E13 DUP8 DUP3 DUP9 ADD PUSH2 0x18E4 JUMP JUMPDEST SWAP5 POP POP PUSH1 0x20 DUP6 ADD CALLDATALOAD PUSH8 0xFFFFFFFFFFFFFFFF DUP2 GT ISZERO PUSH2 0x1E34 JUMPI PUSH2 0x1E33 PUSH2 0x189A JUMP JUMPDEST JUMPDEST PUSH2 0x1E40 DUP8 DUP3 DUP9 ADD PUSH2 0x1D23 JUMP JUMPDEST SWAP4 POP POP PUSH1 0x40 DUP6 ADD CALLDATALOAD PUSH8 0xFFFFFFFFFFFFFFFF DUP2 GT ISZERO PUSH2 0x1E61 JUMPI PUSH2 0x1E60 PUSH2 0x189A JUMP JUMPDEST JUMPDEST PUSH2 0x1E6D DUP8 DUP3 DUP9 ADD PUSH2 0x1D23 JUMP JUMPDEST SWAP3 POP POP PUSH1 0x60 DUP6 ADD CALLDATALOAD PUSH8 0xFFFFFFFFFFFFFFFF DUP2 GT ISZERO PUSH2 0x1E8E JUMPI PUSH2 0x1E8D PUSH2 0x189A JUMP JUMPDEST JUMPDEST PUSH2 0x1E9A DUP8 DUP3 DUP9 ADD PUSH2 0x1DC1 JUMP JUMPDEST SWAP2 POP POP SWAP3 SWAP6 SWAP2 SWAP5 POP SWAP3 POP JUMP JUMPDEST PUSH0 DUP1 PUSH0 DUP1 PUSH0 PUSH1 0xA0 DUP7 DUP9 SUB SLT ISZERO PUSH2 0x1EBF JUMPI PUSH2 0x1EBE PUSH2 0x1896 JUMP JUMPDEST JUMPDEST PUSH0 PUSH2 0x1ECC DUP9 DUP3 DUP10 ADD PUSH2 0x18E4 JUMP JUMPDEST SWAP6 POP POP PUSH1 0x20 PUSH2 0x1EDD DUP9 DUP3 DUP10 ADD PUSH2 0x18E4 JUMP JUMPDEST SWAP5 POP POP PUSH1 0x40 DUP7 ADD CALLDATALOAD PUSH8 0xFFFFFFFFFFFFFFFF DUP2 GT ISZERO PUSH2 0x1EFE JUMPI PUSH2 0x1EFD PUSH2 0x189A JUMP JUMPDEST JUMPDEST PUSH2 0x1F0A DUP9 DUP3 DUP10 ADD PUSH2 0x1D23 JUMP JUMPDEST SWAP4 POP POP PUSH1 0x60 DUP7 ADD CALLDATALOAD PUSH8 0xFFFFFFFFFFFFFFFF DUP2 GT ISZERO PUSH2 0x1F2B JUMPI PUSH2 0x1F2A PUSH2 0x189A JUMP JUMPDEST JUMPDEST PUSH2 0x1F37 DUP9 DUP3 DUP10 ADD PUSH2 0x1D23 JUMP JUMPDEST SWAP3 POP POP PUSH1 0x80 DUP7 ADD CALLDATALOAD PUSH8 0xFFFFFFFFFFFFFFFF DUP2 GT ISZERO PUSH2 0x1F58 JUMPI PUSH2 0x1F57 PUSH2 0x189A JUMP JUMPDEST JUMPDEST PUSH2 0x1F64 DUP9 DUP3 DUP10 ADD PUSH2 0x1DC1 JUMP JUMPDEST SWAP2 POP POP SWAP3 SWAP6 POP SWAP3 SWAP6 SWAP1 SWAP4 POP JUMP JUMPDEST PUSH0 PUSH8 0xFFFFFFFFFFFFFFFF DUP3 GT ISZERO PUSH2 0x1F8B JUMPI PUSH2 0x1F8A PUSH2 0x1A5C JUMP JUMPDEST JUMPDEST PUSH1 0x20 DUP3 MUL SWAP1 POP PUSH1 0x20 DUP2 ADD SWAP1 POP SWAP2 SWAP1 POP JUMP JUMPDEST PUSH0 PUSH2 0x1FAE PUSH2 0x1FA9 DUP5 PUSH2 0x1F71 JUMP JUMPDEST PUSH2 0x1ABA JUMP JUMPDEST SWAP1 POP DUP1 DUP4 DUP3 MSTORE PUSH1 0x20 DUP3 ADD SWAP1 POP PUSH1 0x20 DUP5 MUL DUP4 ADD DUP6 DUP2 GT ISZERO PUSH2 0x1FD1 JUMPI PUSH2 0x1FD0 PUSH2 0x1CB7 JUMP JUMPDEST JUMPDEST DUP4 JUMPDEST DUP2 DUP2 LT ISZERO PUSH2 0x1FFA JUMPI DUP1 PUSH2 0x1FE6 DUP9 DUP3 PUSH2 0x18E4 JUMP JUMPDEST DUP5 MSTORE PUSH1 0x20 DUP5 ADD SWAP4 POP POP PUSH1 0x20 DUP2 ADD SWAP1 POP PUSH2 0x1FD3 JUMP JUMPDEST POP POP POP SWAP4 SWAP3 POP POP POP JUMP JUMPDEST PUSH0 DUP3 PUSH1 0x1F DUP4 ADD SLT PUSH2 0x2018 JUMPI PUSH2 0x2017 PUSH2 0x1A44 JUMP JUMPDEST JUMPDEST DUP2 CALLDATALOAD PUSH2 0x2028 DUP5 DUP3 PUSH1 0x20 DUP7 ADD PUSH2 0x1F9C JUMP JUMPDEST SWAP2 POP POP SWAP3 SWAP2 POP POP JUMP JUMPDEST PUSH0 DUP1 PUSH1 0x40 DUP4 DUP6 SUB SLT ISZERO PUSH2 0x2047 JUMPI PUSH2 0x2046 PUSH2 0x1896 JUMP JUMPDEST JUMPDEST PUSH0 DUP4 ADD CALLDATALOAD PUSH8 0xFFFFFFFFFFFFFFFF DUP2 GT ISZERO PUSH2 0x2064 JUMPI PUSH2 0x2063 PUSH2 0x189A JUMP JUMPDEST JUMPDEST PUSH2 0x2070 DUP6 DUP3 DUP7 ADD PUSH2 0x2004 JUMP JUMPDEST SWAP3 POP POP PUSH1 0x20 DUP4 ADD CALLDATALOAD PUSH8 0xFFFFFFFFFFFFFFFF DUP2 GT ISZERO PUSH2 0x2091 JUMPI PUSH2 0x2090 PUSH2 0x189A JUMP JUMPDEST JUMPDEST PUSH2 0x209D DUP6 DUP3 DUP7 ADD PUSH2 0x1D23 JUMP JUMPDEST SWAP2 POP POP SWAP3 POP SWAP3 SWAP1 POP JUMP JUMPDEST PUSH0 DUP2 MLOAD SWAP1 POP SWAP2 SWAP1 POP JUMP JUMPDEST PUSH0 DUP3 DUP3 MSTORE PUSH1 0x20 DUP3 ADD SWAP1 POP SWAP3 SWAP2 POP POP JUMP JUMPDEST PUSH0 DUP2 SWAP1 POP PUSH1 0x20 DUP3 ADD SWAP1 POP SWAP2 SWAP1 POP JUMP JUMPDEST PUSH2 0x20D9 DUP2 PUSH2 0x18F8 JUMP JUMPDEST DUP3 MSTORE POP POP JUMP JUMPDEST PUSH0 PUSH2 0x20EA DUP4 DUP4 PUSH2 0x20D0 JUMP JUMPDEST PUSH1 0x20 DUP4 ADD SWAP1 POP SWAP3 SWAP2 POP POP JUMP JUMPDEST PUSH0 PUSH1 0x20 DUP3 ADD SWAP1 POP SWAP2 SWAP1 POP JUMP JUMPDEST PUSH0 PUSH2 0x210C DUP3 PUSH2 0x20A7 JUMP JUMPDEST PUSH2 0x2116 DUP2 DUP6 PUSH2 0x20B1 JUMP JUMPDEST SWAP4 POP PUSH2 0x2121 DUP4 PUSH2 0x20C1 JUMP JUMPDEST DUP1 PUSH0 JUMPDEST DUP4 DUP2 LT ISZERO PUSH2 0x2151 JUMPI DUP2 MLOAD PUSH2 0x2138 DUP9 DUP3 PUSH2 0x20DF JUMP JUMPDEST SWAP8 POP PUSH2 0x2143 DUP4 PUSH2 0x20F6 JUMP JUMPDEST SWAP3 POP POP PUSH1 0x1 DUP2 ADD SWAP1 POP PUSH2 0x2124 JUMP JUMPDEST POP DUP6 SWAP4 POP POP POP POP SWAP3 SWAP2 POP POP JUMP JUMPDEST PUSH0 PUSH1 0x20 DUP3 ADD SWAP1 POP DUP2 DUP2 SUB PUSH0 DUP4 ADD MSTORE PUSH2 0x2176 DUP2 DUP5 PUSH2 0x2102 JUMP JUMPDEST SWAP1 POP SWAP3 SWAP2 POP POP JUMP JUMPDEST PUSH0 DUP1 PUSH0 DUP1 PUSH1 0x80 DUP6 DUP8 SUB SLT ISZERO PUSH2 0x2196 JUMPI PUSH2 0x2195 PUSH2 0x1896 JUMP JUMPDEST JUMPDEST PUSH0 PUSH2 0x21A3 DUP8 DUP3 DUP9 ADD PUSH2 0x18E4 JUMP JUMPDEST SWAP5 POP POP PUSH1 0x20 PUSH2 0x21B4 DUP8 DUP3 DUP9 ADD PUSH2 0x1917 JUMP JUMPDEST SWAP4 POP POP PUSH1 0x40 PUSH2 0x21C5 DUP8 DUP3 DUP9 ADD PUSH2 0x1917 JUMP JUMPDEST SWAP3 POP POP PUSH1 0x60 DUP6 ADD CALLDATALOAD PUSH8 0xFFFFFFFFFFFFFFFF DUP2 GT ISZERO PUSH2 0x21E6 JUMPI PUSH2 0x21E5 PUSH2 0x189A JUMP JUMPDEST JUMPDEST PUSH2 0x21F2 DUP8 DUP3 DUP9 ADD PUSH2 0x1DC1 JUMP JUMPDEST SWAP2 POP POP SWAP3 SWAP6 SWAP2 SWAP5 POP SWAP3 POP JUMP JUMPDEST PUSH2 0x2207 DUP2 PUSH2 0x18BD JUMP JUMPDEST DUP3 MSTORE POP POP JUMP JUMPDEST PUSH0 PUSH1 0x20 DUP3 ADD SWAP1 POP PUSH2 0x2220 PUSH0 DUP4 ADD DUP5 PUSH2 0x21FE JUMP JUMPDEST SWAP3 SWAP2 POP POP JUMP JUMPDEST PUSH2 0x222F DUP2 PUSH2 0x1A11 JUMP JUMPDEST DUP2 EQ PUSH2 0x2239 JUMPI PUSH0 DUP1 REVERT JUMPDEST POP JUMP JUMPDEST PUSH0 DUP2 CALLDATALOAD SWAP1 POP PUSH2 0x224A DUP2 PUSH2 0x2226 JUMP JUMPDEST SWAP3 SWAP2 POP POP JUMP JUMPDEST PUSH0 DUP1 PUSH1 0x40 DUP4 DUP6 SUB SLT ISZERO PUSH2 0x2266 JUMPI PUSH2 0x2265 PUSH2 0x1896 JUMP JUMPDEST JUMPDEST PUSH0 PUSH2 0x2273 DUP6 DUP3 DUP7 ADD PUSH2 0x18E4 JUMP JUMPDEST SWAP3 POP POP PUSH1 0x20 PUSH2 0x2284 DUP6 DUP3 DUP7 ADD PUSH2 0x223C JUMP JUMPDEST SWAP2 POP POP SWAP3 POP SWAP3 SWAP1 POP JUMP JUMPDEST PUSH0 DUP1 PUSH1 0x40 DUP4 DUP6 SUB SLT ISZERO PUSH2 0x22A4 JUMPI PUSH2 0x22A3 PUSH2 0x1896 JUMP JUMPDEST JUMPDEST PUSH0 PUSH2 0x22B1 DUP6 DUP3 DUP7 ADD PUSH2 0x18E4 JUMP JUMPDEST SWAP3 POP POP PUSH1 0x20 PUSH2 0x22C2 DUP6 DUP3 DUP7 ADD PUSH2 0x18E4 JUMP JUMPDEST SWAP2 POP POP SWAP3 POP SWAP3 SWAP1 POP JUMP JUMPDEST PUSH0 DUP1 PUSH0 DUP1 PUSH0 PUSH1 0xA0 DUP7 DUP9 SUB SLT ISZERO PUSH2 0x22E5 JUMPI PUSH2 0x22E4 PUSH2 0x1896 JUMP JUMPDEST JUMPDEST PUSH0 PUSH2 0x22F2 DUP9 DUP3 DUP10 ADD PUSH2 0x18E4 JUMP JUMPDEST SWAP6 POP POP PUSH1 0x20 PUSH2 0x2303 DUP9 DUP3 DUP10 ADD PUSH2 0x18E4 JUMP JUMPDEST SWAP5 POP POP PUSH1 0x40 PUSH2 0x2314 DUP9 DUP3 DUP10 ADD PUSH2 0x1917 JUMP JUMPDEST SWAP4 POP POP PUSH1 0x60 PUSH2 0x2325 DUP9 DUP3 DUP10 ADD PUSH2 0x1917 JUMP JUMPDEST SWAP3 POP POP PUSH1 0x80 DUP7 ADD CALLDATALOAD PUSH8 0xFFFFFFFFFFFFFFFF DUP2 GT ISZERO PUSH2 0x2346 JUMPI PUSH2 0x2345 PUSH2 0x189A JUMP JUMPDEST JUMPDEST PUSH2 0x2352 DUP9 DUP3 DUP10 ADD PUSH2 0x1DC1 JUMP JUMPDEST SWAP2 POP POP SWAP3 SWAP6 POP SWAP3 SWAP6 SWAP1 SWAP4 POP JUMP JUMPDEST PUSH0 PUSH1 0x20 DUP3 DUP5 SUB SLT ISZERO PUSH2 0x2374 JUMPI PUSH2 0x2373 PUSH2 0x1896 JUMP JUMPDEST JUMPDEST PUSH0 PUSH2 0x2381 DUP5 DUP3 DUP6 ADD PUSH2 0x18E4 JUMP JUMPDEST SWAP2 POP POP SWAP3 SWAP2 POP POP JUMP JUMPDEST PUSH0 DUP2 SWAP1 POP SWAP3 SWAP2 POP POP JUMP JUMPDEST PUSH32 0x68747470733A2F2F697066732E696F2F697066732F516D5479734E6F58456F58 PUSH0 DUP3 ADD MSTORE PUSH32 0x74597A55617A5831663236625744553362503570676B55774C756577475A6541 PUSH1 0x20 DUP3 ADD MSTORE PUSH32 0x4E4C582F00000000000000000000000000000000000000000000000000000000 PUSH1 0x40 DUP3 ADD MSTORE POP JUMP JUMPDEST PUSH0 PUSH2 0x2414 PUSH1 0x44 DUP4 PUSH2 0x238A JUMP JUMPDEST SWAP2 POP PUSH2 0x241F DUP3 PUSH2 0x2394 JUMP JUMPDEST PUSH1 0x44 DUP3 ADD SWAP1 POP SWAP2 SWAP1 POP JUMP JUMPDEST PUSH0 PUSH2 0x2434 DUP3 PUSH2 0x1BF2 JUMP JUMPDEST PUSH2 0x243E DUP2 DUP6 PUSH2 0x238A JUMP JUMPDEST SWAP4 POP PUSH2 0x244E DUP2 DUP6 PUSH1 0x20 DUP7 ADD PUSH2 0x1C0C JUMP JUMPDEST DUP1 DUP5 ADD SWAP2 POP POP SWAP3 SWAP2 POP POP JUMP JUMPDEST PUSH32 0x2E6A736F6E000000000000000000000000000000000000000000000000000000 PUSH0 DUP3 ADD MSTORE POP JUMP JUMPDEST PUSH0 PUSH2 0x248E PUSH1 0x5 DUP4 PUSH2 0x238A JUMP JUMPDEST SWAP2 POP PUSH2 0x2499 DUP3 PUSH2 0x245A JUMP JUMPDEST PUSH1 0x5 DUP3 ADD SWAP1 POP SWAP2 SWAP1 POP JUMP JUMPDEST PUSH0 PUSH2 0x24AE DUP3 PUSH2 0x2408 JUMP JUMPDEST SWAP2 POP PUSH2 0x24BA DUP3 DUP5 PUSH2 0x242A JUMP JUMPDEST SWAP2 POP PUSH2 0x24C5 DUP3 PUSH2 0x2482 JUMP JUMPDEST SWAP2 POP DUP2 SWAP1 POP SWAP3 SWAP2 POP POP JUMP JUMPDEST PUSH0 PUSH1 0x40 DUP3 ADD SWAP1 POP PUSH2 0x24E3 PUSH0 DUP4 ADD DUP6 PUSH2 0x21FE JUMP JUMPDEST PUSH2 0x24F0 PUSH1 0x20 DUP4 ADD DUP5 PUSH2 0x21FE JUMP JUMPDEST SWAP4 SWAP3 POP POP POP JUMP JUMPDEST PUSH0 PUSH1 0x40 DUP3 ADD SWAP1 POP PUSH2 0x250A PUSH0 DUP4 ADD DUP6 PUSH2 0x1969 JUMP JUMPDEST PUSH2 0x2517 PUSH1 0x20 DUP4 ADD DUP5 PUSH2 0x1969 JUMP JUMPDEST SWAP4 SWAP3 POP POP POP JUMP JUMPDEST PUSH32 0x4E487B7100000000000000000000000000000000000000000000000000000000 PUSH0 MSTORE PUSH1 0x32 PUSH1 0x4 MSTORE PUSH1 0x24 PUSH0 REVERT JUMPDEST PUSH32 0x4E487B7100000000000000000000000000000000000000000000000000000000 PUSH0 MSTORE PUSH1 0x11 PUSH1 0x4 MSTORE PUSH1 0x24 PUSH0 REVERT JUMPDEST PUSH0 PUSH2 0x2582 DUP3 PUSH2 0x18F8 JUMP JUMPDEST SWAP2 POP PUSH32 0xFFFFFFFFFFFFFFFFFFFFFFFFFFFFFFFFFFFFFFFFFFFFFFFFFFFFFFFFFFFFFFFF DUP3 SUB PUSH2 0x25B4 JUMPI PUSH2 0x25B3 PUSH2 0x254B JUMP JUMPDEST JUMPDEST PUSH1 0x1 DUP3 ADD SWAP1 POP SWAP2 SWAP1 POP JUMP JUMPDEST PUSH32 0x4E487B7100000000000000000000000000000000000000000000000000000000 PUSH0 MSTORE PUSH1 0x22 PUSH1 0x4 MSTORE PUSH1 0x24 PUSH0 REVERT JUMPDEST PUSH0 PUSH1 0x2 DUP3 DIV SWAP1 POP PUSH1 0x1 DUP3 AND DUP1 PUSH2 0x2603 JUMPI PUSH1 0x7F DUP3 AND SWAP2 POP JUMPDEST PUSH1 0x20 DUP3 LT DUP2 SUB PUSH2 0x2616 JUMPI PUSH2 0x2615 PUSH2 0x25BF JUMP JUMPDEST JUMPDEST POP SWAP2 SWAP1 POP JUMP JUMPDEST PUSH0 DUP2 SWAP1 POP DUP2 PUSH0 MSTORE PUSH1 0x20 PUSH0 KECCAK256 SWAP1 POP SWAP2 SWAP1 POP JUMP JUMPDEST PUSH0 PUSH1 0x20 PUSH1 0x1F DUP4 ADD DIV SWAP1 POP SWAP2 SWAP1 POP JUMP JUMPDEST PUSH0 DUP3 DUP3 SHL SWAP1 POP SWAP3 SWAP2 POP POP JUMP JUMPDEST PUSH0 PUSH1 0x8 DUP4 MUL PUSH2 0x2678 PUSH32 0xFFFFFFFFFFFFFFFFFFFFFFFFFFFFFFFFFFFFFFFFFFFFFFFFFFFFFFFFFFFFFFFF DUP3 PUSH2 0x263D JUMP JUMPDEST PUSH2 0x2682 DUP7 DUP4 PUSH2 0x263D JUMP JUMPDEST SWAP6 POP DUP1 NOT DUP5 AND SWAP4 POP DUP1 DUP7 AND DUP5 OR SWAP3 POP POP POP SWAP4 SWAP3 POP POP POP JUMP JUMPDEST PUSH0 DUP2 SWAP1 POP SWAP2 SWAP1 POP JUMP JUMPDEST PUSH0 PUSH2 0x26BD PUSH2 0x26B8 PUSH2 0x26B3 DUP5 PUSH2 0x18F8 JUMP JUMPDEST PUSH2 0x269A JUMP JUMPDEST PUSH2 0x18F8 JUMP JUMPDEST SWAP1 POP SWAP2 SWAP1 POP JUMP JUMPDEST PUSH0 DUP2 SWAP1 POP SWAP2 SWAP1 POP JUMP JUMPDEST PUSH2 0x26D6 DUP4 PUSH2 0x26A3 JUMP JUMPDEST PUSH2 0x26EA PUSH2 0x26E2 DUP3 PUSH2 0x26C4 JUMP JUMPDEST DUP5 DUP5 SLOAD PUSH2 0x2649 JUMP JUMPDEST DUP3 SSTORE POP POP POP POP JUMP JUMPDEST PUSH0 SWAP1 JUMP JUMPDEST PUSH2 0x26FE PUSH2 0x26F2 JUMP JUMPDEST PUSH2 0x2709 DUP2 DUP5 DUP5 PUSH2 0x26CD JUMP JUMPDEST POP POP POP JUMP JUMPDEST JUMPDEST DUP2 DUP2 LT ISZERO PUSH2 0x272C JUMPI PUSH2 0x2721 PUSH0 DUP3 PUSH2 0x26F6 JUMP JUMPDEST PUSH1 0x1 DUP2 ADD SWAP1 POP PUSH2 0x270F JUMP JUMPDEST POP POP JUMP JUMPDEST PUSH1 0x1F DUP3 GT ISZERO PUSH2 0x2771 JUMPI PUSH2 0x2742 DUP2 PUSH2 0x261C JUMP JUMPDEST PUSH2 0x274B DUP5 PUSH2 0x262E JUMP JUMPDEST DUP2 ADD PUSH1 0x20 DUP6 LT ISZERO PUSH2 0x275A JUMPI DUP2 SWAP1 POP JUMPDEST PUSH2 0x276E PUSH2 0x2766 DUP6 PUSH2 0x262E JUMP JUMPDEST DUP4 ADD DUP3 PUSH2 0x270E JUMP JUMPDEST POP POP JUMPDEST POP POP POP JUMP JUMPDEST PUSH0 DUP3 DUP3 SHR SWAP1 POP SWAP3 SWAP2 POP POP JUMP JUMPDEST PUSH0 PUSH2 0x2791 PUSH0 NOT DUP5 PUSH1 0x8 MUL PUSH2 0x2776 JUMP JUMPDEST NOT DUP1 DUP4 AND SWAP2 POP POP SWAP3 SWAP2 POP POP JUMP JUMPDEST PUSH0 PUSH2 0x27A9 DUP4 DUP4 PUSH2 0x2782 JUMP JUMPDEST SWAP2 POP DUP3 PUSH1 0x2 MUL DUP3 OR SWAP1 POP SWAP3 SWAP2 POP POP JUMP JUMPDEST PUSH2 0x27C2 DUP3 PUSH2 0x1BF2 JUMP JUMPDEST PUSH8 0xFFFFFFFFFFFFFFFF DUP2 GT ISZERO PUSH2 0x27DB JUMPI PUSH2 0x27DA PUSH2 0x1A5C JUMP JUMPDEST JUMPDEST PUSH2 0x27E5 DUP3 SLOAD PUSH2 0x25EC JUMP JUMPDEST PUSH2 0x27F0 DUP3 DUP3 DUP6 PUSH2 0x2730 JUMP JUMPDEST PUSH0 PUSH1 0x20 SWAP1 POP PUSH1 0x1F DUP4 GT PUSH1 0x1 DUP2 EQ PUSH2 0x2821 JUMPI PUSH0 DUP5 ISZERO PUSH2 0x280F JUMPI DUP3 DUP8 ADD MLOAD SWAP1 POP JUMPDEST PUSH2 0x2819 DUP6 DUP3 PUSH2 0x279E JUMP JUMPDEST DUP7 SSTORE POP PUSH2 0x2880 JUMP JUMPDEST PUSH1 0x1F NOT DUP5 AND PUSH2 0x282F DUP7 PUSH2 0x261C JUMP JUMPDEST PUSH0 JUMPDEST DUP3 DUP2 LT ISZERO PUSH2 0x2856 JUMPI DUP5 DUP10 ADD MLOAD DUP3 SSTORE PUSH1 0x1 DUP3 ADD SWAP2 POP PUSH1 0x20 DUP6 ADD SWAP5 POP PUSH1 0x20 DUP2 ADD SWAP1 POP PUSH2 0x2831 JUMP JUMPDEST DUP7 DUP4 LT ISZERO PUSH2 0x2873 JUMPI DUP5 DUP10 ADD MLOAD PUSH2 0x286F PUSH1 0x1F DUP10 AND DUP3 PUSH2 0x2782 JUMP JUMPDEST DUP4 SSTORE POP JUMPDEST PUSH1 0x1 PUSH1 0x2 DUP9 MUL ADD DUP9 SSTORE POP POP POP JUMPDEST POP POP POP POP POP POP JUMP JUMPDEST PUSH32 0x4E487B7100000000000000000000000000000000000000000000000000000000 PUSH0 MSTORE PUSH1 0x12 PUSH1 0x4 MSTORE PUSH1 0x24 PUSH0 REVERT JUMPDEST PUSH0 PUSH1 0x80 DUP3 ADD SWAP1 POP PUSH2 0x28C8 PUSH0 DUP4 ADD DUP8 PUSH2 0x21FE JUMP JUMPDEST PUSH2 0x28D5 PUSH1 0x20 DUP4 ADD DUP7 PUSH2 0x1969 JUMP JUMPDEST PUSH2 0x28E2 PUSH1 0x40 DUP4 ADD DUP6 PUSH2 0x1969 JUMP JUMPDEST PUSH2 0x28EF PUSH1 0x60 DUP4 ADD DUP5 PUSH2 0x1969 JUMP JUMPDEST SWAP6 SWAP5 POP POP POP POP POP JUMP JUMPDEST PUSH0 PUSH2 0x2902 DUP3 PUSH2 0x18F8 JUMP JUMPDEST SWAP2 POP PUSH2 0x290D DUP4 PUSH2 0x18F8 JUMP JUMPDEST SWAP3 POP DUP3 DUP3 ADD SWAP1 POP DUP1 DUP3 GT ISZERO PUSH2 0x2925 JUMPI PUSH2 0x2924 PUSH2 0x254B JUMP JUMPDEST JUMPDEST SWAP3 SWAP2 POP POP JUMP JUMPDEST PUSH0 PUSH1 0x40 DUP3 ADD SWAP1 POP DUP2 DUP2 SUB PUSH0 DUP4 ADD MSTORE PUSH2 0x2943 DUP2 DUP6 PUSH2 0x2102 JUMP JUMPDEST SWAP1 POP DUP2 DUP2 SUB PUSH1 0x20 DUP4 ADD MSTORE PUSH2 0x2957 DUP2 DUP5 PUSH2 0x2102 JUMP JUMPDEST SWAP1 POP SWAP4 SWAP3 POP POP POP JUMP JUMPDEST PUSH0 DUP2 MLOAD SWAP1 POP SWAP2 SWAP1 POP JUMP JUMPDEST PUSH0 DUP3 DUP3 MSTORE PUSH1 0x20 DUP3 ADD SWAP1 POP SWAP3 SWAP2 POP POP JUMP JUMPDEST PUSH0 PUSH2 0x2984 DUP3 PUSH2 0x2960 JUMP JUMPDEST PUSH2 0x298E DUP2 DUP6 PUSH2 0x296A JUMP JUMPDEST SWAP4 POP PUSH2 0x299E DUP2 DUP6 PUSH1 0x20 DUP7 ADD PUSH2 0x1C0C JUMP JUMPDEST PUSH2 0x29A7 DUP2 PUSH2 0x1A4C JUMP JUMPDEST DUP5 ADD SWAP2 POP POP SWAP3 SWAP2 POP POP JUMP JUMPDEST PUSH0 PUSH1 0xA0 DUP3 ADD SWAP1 POP PUSH2 0x29C5 PUSH0 DUP4 ADD DUP9 PUSH2 0x21FE JUMP JUMPDEST PUSH2 0x29D2 PUSH1 0x20 DUP4 ADD DUP8 PUSH2 0x21FE JUMP JUMPDEST PUSH2 0x29DF PUSH1 0x40 DUP4 ADD DUP7 PUSH2 0x1969 JUMP JUMPDEST PUSH2 0x29EC PUSH1 0x60 DUP4 ADD DUP6 PUSH2 0x1969 JUMP JUMPDEST DUP2 DUP2 SUB PUSH1 0x80 DUP4 ADD MSTORE PUSH2 0x29FE DUP2 DUP5 PUSH2 0x297A JUMP JUMPDEST SWAP1 POP SWAP7 SWAP6 POP POP POP POP POP POP JUMP JUMPDEST PUSH0 DUP2 MLOAD SWAP1 POP PUSH2 0x2A18 DUP2 PUSH2 0x19BC JUMP JUMPDEST SWAP3 SWAP2 POP POP JUMP JUMPDEST PUSH0 PUSH1 0x20 DUP3 DUP5 SUB SLT ISZERO PUSH2 0x2A33 JUMPI PUSH2 0x2A32 PUSH2 0x1896 JUMP JUMPDEST JUMPDEST PUSH0 PUSH2 0x2A40 DUP5 DUP3 DUP6 ADD PUSH2 0x2A0A JUMP JUMPDEST SWAP2 POP POP SWAP3 SWAP2 POP POP JUMP JUMPDEST PUSH0 PUSH1 0xA0 DUP3 ADD SWAP1 POP PUSH2 0x2A5C PUSH0 DUP4 ADD DUP9 PUSH2 0x21FE JUMP JUMPDEST PUSH2 0x2A69 PUSH1 0x20 DUP4 ADD DUP8 PUSH2 0x21FE JUMP JUMPDEST DUP2 DUP2 SUB PUSH1 0x40 DUP4 ADD MSTORE PUSH2 0x2A7B DUP2 DUP7 PUSH2 0x2102 JUMP JUMPDEST SWAP1 POP DUP2 DUP2 SUB PUSH1 0x60 DUP4 ADD MSTORE PUSH2 0x2A8F DUP2 DUP6 PUSH2 0x2102 JUMP JUMPDEST SWAP1 POP DUP2 DUP2 SUB PUSH1 0x80 DUP4 ADD MSTORE PUSH2 0x2AA3 DUP2 DUP5 PUSH2 0x297A JUMP JUMPDEST SWAP1 POP SWAP7 SWAP6 POP POP POP POP POP POP JUMP INVALID LOG2 PUSH5 0x6970667358 0x22 SLT KECCAK256 0xE8 0xDF CODESIZE AND SDIV CODECOPY 0xD2 SWAP12 0xD9 DUP5 0xE3 SUB LOG1 0xAB CODESIZE SWAP1 0xCB PUSH0 MSIZE GAS 0x5C PUSH14 0x3F65AF7FAB596D4C2C764736F6C PUSH4 0x43000814 STOP CALLER PUSH9 0x747470733A2F2F6970 PUSH7 0x732E696F2F6970 PUSH7 0x732F516D547973 0x4E PUSH16 0x58456F5874597A55617A583166323662 JUMPI PREVRANDAO SSTORE CALLER PUSH3 0x503570 PUSH8 0x6B55774C75657747 GAS PUSH6 0x414E4C582F7B PUSH10 0x647D2E6A736F6E000000 "
				},
				"gasEstimates": {
					"creation": {
						"codeDepositCost": "2196200",
						"executionCost": "infinite",
						"totalCost": "infinite"
					},
					"external": {
						"balanceOf(address,uint256)": "infinite",
						"balanceOfBatch(address[],uint256[])": "infinite",
						"isApprovedForAll(address,address)": "infinite",
						"mint(address,uint256,uint256,bytes)": "infinite",
						"mintBatch(address,uint256[],uint256[],bytes)": "infinite",
						"owner()": "2582",
						"renounceOwnership()": "infinite",
						"safeBatchTransferFrom(address,address,uint256[],uint256[],bytes)": "infinite",
						"safeTransferFrom(address,address,uint256,uint256,bytes)": "infinite",
						"setApprovalForAll(address,bool)": "infinite",
						"setURI(string)": "infinite",
						"supportsInterface(bytes4)": "809",
						"transferOwnership(address)": "infinite",
						"uri(uint256)": "infinite"
					}
				},
				"methodIdentifiers": {
					"balanceOf(address,uint256)": "00fdd58e",
					"balanceOfBatch(address[],uint256[])": "4e1273f4",
					"isApprovedForAll(address,address)": "e985e9c5",
					"mint(address,uint256,uint256,bytes)": "731133e9",
					"mintBatch(address,uint256[],uint256[],bytes)": "1f7fdffa",
					"owner()": "8da5cb5b",
					"renounceOwnership()": "715018a6",
					"safeBatchTransferFrom(address,address,uint256[],uint256[],bytes)": "2eb2c2d6",
					"safeTransferFrom(address,address,uint256,uint256,bytes)": "f242432a",
					"setApprovalForAll(address,bool)": "a22cb465",
					"setURI(string)": "02fe5305",
					"supportsInterface(bytes4)": "01ffc9a7",
					"transferOwnership(address)": "f2fde38b",
					"uri(uint256)": "0e89341c"
				}
			},
			"storageLayout": {
				"storage": [
					{
						"astId": 326,
						"contract": "contracts/DTicket.sol:DTicket",
						"label": "_balances",
						"offset": 0,
						"slot": "0",
						"type": "t_mapping(t_uint256,t_mapping(t_address,t_uint256))"
					},
					{
						"astId": 332,
						"contract": "contracts/DTicket.sol:DTicket",
						"label": "_operatorApprovals",
						"offset": 0,
						"slot": "1",
						"type": "t_mapping(t_address,t_mapping(t_address,t_bool))"
					},
					{
						"astId": 334,
						"contract": "contracts/DTicket.sol:DTicket",
						"label": "_uri",
						"offset": 0,
						"slot": "2",
						"type": "t_string_storage"
					},
					{
						"astId": 8,
						"contract": "contracts/DTicket.sol:DTicket",
						"label": "_owner",
						"offset": 0,
						"slot": "3",
						"type": "t_address"
					}
				],
				"types": {
					"t_address": {
						"encoding": "inplace",
						"label": "address",
						"numberOfBytes": "20"
					},
					"t_bool": {
						"encoding": "inplace",
						"label": "bool",
						"numberOfBytes": "1"
					},
					"t_mapping(t_address,t_bool)": {
						"encoding": "mapping",
						"key": "t_address",
						"label": "mapping(address => bool)",
						"numberOfBytes": "32",
						"value": "t_bool"
					},
					"t_mapping(t_address,t_mapping(t_address,t_bool))": {
						"encoding": "mapping",
						"key": "t_address",
						"label": "mapping(address => mapping(address => bool))",
						"numberOfBytes": "32",
						"value": "t_mapping(t_address,t_bool)"
					},
					"t_mapping(t_address,t_uint256)": {
						"encoding": "mapping",
						"key": "t_address",
						"label": "mapping(address => uint256)",
						"numberOfBytes": "32",
						"value": "t_uint256"
					},
					"t_mapping(t_uint256,t_mapping(t_address,t_uint256))": {
						"encoding": "mapping",
						"key": "t_uint256",
						"label": "mapping(uint256 => mapping(address => uint256))",
						"numberOfBytes": "32",
						"value": "t_mapping(t_address,t_uint256)"
					},
					"t_string_storage": {
						"encoding": "bytes",
						"label": "string",
						"numberOfBytes": "32"
					},
					"t_uint256": {
						"encoding": "inplace",
						"label": "uint256",
						"numberOfBytes": "32"
					}
				}
			},
			"userdoc": {
				"kind": "user",
				"methods": {},
				"version": 1
			}
		}
	}
}