{
	"contracts/Fund.sol": {
		"FundRegistry": {
			"abi": [
				{
					"anonymous": false,
					"inputs": [
						{
							"indexed": true,
							"internalType": "uint96",
							"name": "id",
							"type": "uint96"
						},
						{
							"indexed": false,
							"internalType": "address",
							"name": "owner",
							"type": "address"
						},
						{
							"indexed": false,
							"internalType": "address",
							"name": "payee",
							"type": "address"
						},
						{
							"indexed": true,
							"internalType": "uint256",
							"name": "threshold",
							"type": "uint256"
						},
						{
							"indexed": true,
							"internalType": "uint256",
							"name": "amount",
							"type": "uint256"
						},
						{
							"indexed": false,
							"internalType": "bool",
							"name": "isEnd",
							"type": "bool"
						},
						{
							"indexed": false,
							"internalType": "uint256",
							"name": "time",
							"type": "uint256"
						}
					],
					"name": "FundCreated",
					"type": "event"
				},
				{
					"anonymous": false,
					"inputs": [
						{
							"indexed": true,
							"internalType": "uint96",
							"name": "id",
							"type": "uint96"
						},
						{
							"indexed": false,
							"internalType": "address",
							"name": "owner",
							"type": "address"
						},
						{
							"indexed": false,
							"internalType": "address",
							"name": "payee",
							"type": "address"
						},
						{
							"indexed": true,
							"internalType": "uint256",
							"name": "threshold",
							"type": "uint256"
						},
						{
							"indexed": true,
							"internalType": "uint256",
							"name": "amount",
							"type": "uint256"
						},
						{
							"indexed": false,
							"internalType": "bool",
							"name": "isEnd",
							"type": "bool"
						},
						{
							"indexed": false,
							"internalType": "uint256",
							"name": "time",
							"type": "uint256"
						}
					],
					"name": "FundUpdated",
					"type": "event"
				},
				{
					"inputs": [
						{
							"internalType": "address",
							"name": "_owner",
							"type": "address"
						},
						{
							"internalType": "address",
							"name": "_payee",
							"type": "address"
						},
						{
							"internalType": "uint256",
							"name": "_threshold",
							"type": "uint256"
						}
					],
					"name": "createFund",
					"outputs": [],
					"stateMutability": "nonpayable",
					"type": "function"
				},
				{
					"inputs": [
						{
							"internalType": "address",
							"name": "_user",
							"type": "address"
						},
						{
							"internalType": "uint96",
							"name": "_fundId",
							"type": "uint96"
						},
						{
							"internalType": "uint256",
							"name": "_amount",
							"type": "uint256"
						}
					],
					"name": "donate",
					"outputs": [],
					"stateMutability": "payable",
					"type": "function"
				},
				{
					"inputs": [],
					"name": "fundCount",
					"outputs": [
						{
							"internalType": "uint96",
							"name": "",
							"type": "uint96"
						}
					],
					"stateMutability": "view",
					"type": "function"
				},
				{
					"inputs": [
						{
							"internalType": "uint96",
							"name": "",
							"type": "uint96"
						},
						{
							"internalType": "address",
							"name": "",
							"type": "address"
						},
						{
							"internalType": "uint256",
							"name": "",
							"type": "uint256"
						}
					],
					"name": "fundDonations",
					"outputs": [
						{
							"internalType": "address",
							"name": "user",
							"type": "address"
						},
						{
							"internalType": "uint96",
							"name": "fundId",
							"type": "uint96"
						},
						{
							"internalType": "uint256",
							"name": "amount",
							"type": "uint256"
						}
					],
					"stateMutability": "view",
					"type": "function"
				},
				{
					"inputs": [
						{
							"internalType": "uint96",
							"name": "",
							"type": "uint96"
						},
						{
							"internalType": "uint256",
							"name": "",
							"type": "uint256"
						}
					],
					"name": "fundUsers",
					"outputs": [
						{
							"internalType": "address",
							"name": "",
							"type": "address"
						}
					],
					"stateMutability": "view",
					"type": "function"
				},
				{
					"inputs": [
						{
							"internalType": "uint96",
							"name": "",
							"type": "uint96"
						}
					],
					"name": "funds",
					"outputs": [
						{
							"internalType": "uint96",
							"name": "id",
							"type": "uint96"
						},
						{
							"internalType": "address",
							"name": "owner",
							"type": "address"
						},
						{
							"internalType": "uint48",
							"name": "createdAt",
							"type": "uint48"
						},
						{
							"internalType": "uint48",
							"name": "updatedAt",
							"type": "uint48"
						},
						{
							"internalType": "address",
							"name": "payee",
							"type": "address"
						},
						{
							"internalType": "uint256",
							"name": "threshold",
							"type": "uint256"
						},
						{
							"internalType": "uint256",
							"name": "totalAmount",
							"type": "uint256"
						},
						{
							"internalType": "bool",
							"name": "isEnd",
							"type": "bool"
						}
					],
					"stateMutability": "view",
					"type": "function"
				},
				{
					"inputs": [],
					"name": "getAllFunds",
					"outputs": [
						{
							"components": [
								{
									"internalType": "uint96",
									"name": "id",
									"type": "uint96"
								},
								{
									"internalType": "address",
									"name": "owner",
									"type": "address"
								},
								{
									"internalType": "uint48",
									"name": "createdAt",
									"type": "uint48"
								},
								{
									"internalType": "uint48",
									"name": "updatedAt",
									"type": "uint48"
								},
								{
									"internalType": "address",
									"name": "payee",
									"type": "address"
								},
								{
									"internalType": "uint256",
									"name": "threshold",
									"type": "uint256"
								},
								{
									"internalType": "uint256",
									"name": "totalAmount",
									"type": "uint256"
								},
								{
									"internalType": "bool",
									"name": "isEnd",
									"type": "bool"
								}
							],
							"internalType": "struct FundRegistry.Fund[]",
							"name": "",
							"type": "tuple[]"
						}
					],
					"stateMutability": "view",
					"type": "function"
				},
				{
					"inputs": [
						{
							"internalType": "uint96",
							"name": "_id",
							"type": "uint96"
						}
					],
					"name": "getFundPayee",
					"outputs": [
						{
							"internalType": "address",
							"name": "",
							"type": "address"
						}
					],
					"stateMutability": "view",
					"type": "function"
				},
				{
					"inputs": [
						{
							"internalType": "uint96",
							"name": "_startId",
							"type": "uint96"
						},
						{
							"internalType": "uint96",
							"name": "_endId",
							"type": "uint96"
						}
					],
					"name": "getFunds",
					"outputs": [
						{
							"components": [
								{
									"internalType": "uint96",
									"name": "id",
									"type": "uint96"
								},
								{
									"internalType": "address",
									"name": "owner",
									"type": "address"
								},
								{
									"internalType": "uint48",
									"name": "createdAt",
									"type": "uint48"
								},
								{
									"internalType": "uint48",
									"name": "updatedAt",
									"type": "uint48"
								},
								{
									"internalType": "address",
									"name": "payee",
									"type": "address"
								},
								{
									"internalType": "uint256",
									"name": "threshold",
									"type": "uint256"
								},
								{
									"internalType": "uint256",
									"name": "totalAmount",
									"type": "uint256"
								},
								{
									"internalType": "bool",
									"name": "isEnd",
									"type": "bool"
								}
							],
							"internalType": "struct FundRegistry.Fund[]",
							"name": "",
							"type": "tuple[]"
						}
					],
					"stateMutability": "view",
					"type": "function"
				},
				{
					"inputs": [
						{
							"internalType": "uint96",
							"name": "_id",
							"type": "uint96"
						},
						{
							"internalType": "address",
							"name": "_owner",
							"type": "address"
						},
						{
							"internalType": "address",
							"name": "_payee",
							"type": "address"
						},
						{
							"internalType": "uint256",
							"name": "_threshold",
							"type": "uint256"
						}
					],
					"name": "updateFund",
					"outputs": [],
					"stateMutability": "nonpayable",
					"type": "function"
				}
			],
			"devdoc": {
				"kind": "dev",
				"methods": {},
				"version": 1
			},
			"evm": {
				"assembly": "    /* \"contracts/Fund.sol\":239:5678  contract FundRegistry {... */\n  mstore(0x40, 0x80)\n  callvalue\n  dup1\n  iszero\n  tag_1\n  jumpi\n  0x00\n  dup1\n  revert\ntag_1:\n  pop\n  dataSize(sub_0)\n  dup1\n  dataOffset(sub_0)\n  0x00\n  codecopy\n  0x00\n  return\nstop\n\nsub_0: assembly {\n        /* \"contracts/Fund.sol\":239:5678  contract FundRegistry {... */\n      mstore(0x40, 0x80)\n      jumpi(tag_1, lt(calldatasize, 0x04))\n      shr(0xe0, calldataload(0x00))\n      dup1\n      0x3f936ff5\n      gt\n      tag_12\n      jumpi\n      dup1\n      0x3f936ff5\n      eq\n      tag_7\n      jumpi\n      dup1\n      0x6c173d38\n      eq\n      tag_8\n      jumpi\n      dup1\n      0x7a3819cb\n      eq\n      tag_9\n      jumpi\n      dup1\n      0x88b53ced\n      eq\n      tag_10\n      jumpi\n      dup1\n      0xdd7d7929\n      eq\n      tag_11\n      jumpi\n      jump(tag_1)\n    tag_12:\n      dup1\n      0x17444626\n      eq\n      tag_2\n      jumpi\n      dup1\n      0x1c69b464\n      eq\n      tag_3\n      jumpi\n      dup1\n      0x1f71f89f\n      eq\n      tag_4\n      jumpi\n      dup1\n      0x2f14670c\n      eq\n      tag_5\n      jumpi\n      dup1\n      0x380eaaf9\n      eq\n      tag_6\n      jumpi\n    tag_1:\n      0x00\n      dup1\n      revert\n        /* \"contracts/Fund.sol\":2143:2682  function createFund(... */\n    tag_2:\n      callvalue\n      dup1\n      iszero\n      tag_13\n      jumpi\n      0x00\n      dup1\n      revert\n    tag_13:\n      pop\n      tag_14\n      0x04\n      dup1\n      calldatasize\n      sub\n      dup2\n      add\n      swap1\n      tag_15\n      swap2\n      swap1\n      tag_16\n      jump\t// in\n    tag_15:\n      tag_17\n      jump\t// in\n    tag_14:\n      stop\n        /* \"contracts/Fund.sol\":3327:3435  function getAllFunds() external view returns (Fund[] memory){... */\n    tag_3:\n      callvalue\n      dup1\n      iszero\n      tag_18\n      jumpi\n      0x00\n      dup1\n      revert\n    tag_18:\n      pop\n      tag_19\n      tag_20\n      jump\t// in\n    tag_19:\n      mload(0x40)\n      tag_21\n      swap2\n      swap1\n      tag_22\n      jump\t// in\n    tag_21:\n      mload(0x40)\n      dup1\n      swap2\n      sub\n      swap1\n      return\n        /* \"contracts/Fund.sol\":871:907  mapping(uint96 => Fund) public funds */\n    tag_4:\n      callvalue\n      dup1\n      iszero\n      tag_23\n      jumpi\n      0x00\n      dup1\n      revert\n    tag_23:\n      pop\n      tag_24\n      0x04\n      dup1\n      calldatasize\n      sub\n      dup2\n      add\n      swap1\n      tag_25\n      swap2\n      swap1\n      tag_26\n      jump\t// in\n    tag_25:\n      tag_27\n      jump\t// in\n    tag_24:\n      mload(0x40)\n      tag_28\n      swap9\n      swap8\n      swap7\n      swap6\n      swap5\n      swap4\n      swap3\n      swap2\n      swap1\n      tag_29\n      jump\t// in\n    tag_28:\n      mload(0x40)\n      dup1\n      swap2\n      sub\n      swap1\n      return\n        /* \"contracts/Fund.sol\":914:959  mapping(uint96 => address[]) public fundUsers */\n    tag_5:\n      callvalue\n      dup1\n      iszero\n      tag_30\n      jumpi\n      0x00\n      dup1\n      revert\n    tag_30:\n      pop\n      tag_31\n      0x04\n      dup1\n      calldatasize\n      sub\n      dup2\n      add\n      swap1\n      tag_32\n      swap2\n      swap1\n      tag_33\n      jump\t// in\n    tag_32:\n      tag_34\n      jump\t// in\n    tag_31:\n      mload(0x40)\n      tag_35\n      swap2\n      swap1\n      tag_36\n      jump\t// in\n    tag_35:\n      mload(0x40)\n      dup1\n      swap2\n      sub\n      swap1\n      return\n        /* \"contracts/Fund.sol\":3443:3877  function getFunds(uint96 _startId, uint96 _endId) public view returns (Fund[] memory){... */\n    tag_6:\n      callvalue\n      dup1\n      iszero\n      tag_37\n      jumpi\n      0x00\n      dup1\n      revert\n    tag_37:\n      pop\n      tag_38\n      0x04\n      dup1\n      calldatasize\n      sub\n      dup2\n      add\n      swap1\n      tag_39\n      swap2\n      swap1\n      tag_40\n      jump\t// in\n    tag_39:\n      tag_41\n      jump\t// in\n    tag_38:\n      mload(0x40)\n      tag_42\n      swap2\n      swap1\n      tag_22\n      jump\t// in\n    tag_42:\n      mload(0x40)\n      dup1\n      swap2\n      sub\n      swap1\n      return\n        /* \"contracts/Fund.sol\":287:310  uint96 public fundCount */\n    tag_7:\n      callvalue\n      dup1\n      iszero\n      tag_43\n      jumpi\n      0x00\n      dup1\n      revert\n    tag_43:\n      pop\n      tag_44\n      tag_45\n      jump\t// in\n    tag_44:\n      mload(0x40)\n      tag_46\n      swap2\n      swap1\n      tag_47\n      jump\t// in\n    tag_46:\n      mload(0x40)\n      dup1\n      swap2\n      sub\n      swap1\n      return\n        /* \"contracts/Fund.sol\":3889:4056  function getFundPayee(uint96 _id) public view returns (address){... */\n    tag_8:\n      callvalue\n      dup1\n      iszero\n      tag_48\n      jumpi\n      0x00\n      dup1\n      revert\n    tag_48:\n      pop\n      tag_49\n      0x04\n      dup1\n      calldatasize\n      sub\n      dup2\n      add\n      swap1\n      tag_50\n      swap2\n      swap1\n      tag_26\n      jump\t// in\n    tag_50:\n      tag_51\n      jump\t// in\n    tag_49:\n      mload(0x40)\n      tag_52\n      swap2\n      swap1\n      tag_36\n      jump\t// in\n    tag_52:\n      mload(0x40)\n      dup1\n      swap2\n      sub\n      swap1\n      return\n        /* \"contracts/Fund.sol\":966:1036  mapping(uint96 => mapping(address => Donation[])) public fundDonations */\n    tag_9:\n      callvalue\n      dup1\n      iszero\n      tag_53\n      jumpi\n      0x00\n      dup1\n      revert\n    tag_53:\n      pop\n      tag_54\n      0x04\n      dup1\n      calldatasize\n      sub\n      dup2\n      add\n      swap1\n      tag_55\n      swap2\n      swap1\n      tag_56\n      jump\t// in\n    tag_55:\n      tag_57\n      jump\t// in\n    tag_54:\n      mload(0x40)\n      tag_58\n      swap4\n      swap3\n      swap2\n      swap1\n      tag_59\n      jump\t// in\n    tag_58:\n      mload(0x40)\n      dup1\n      swap2\n      sub\n      swap1\n      return\n        /* \"contracts/Fund.sol\":4064:4348  function donate(... */\n    tag_10:\n      tag_60\n      0x04\n      dup1\n      calldatasize\n      sub\n      dup2\n      add\n      swap1\n      tag_61\n      swap2\n      swap1\n      tag_62\n      jump\t// in\n    tag_61:\n      tag_63\n      jump\t// in\n    tag_60:\n      stop\n        /* \"contracts/Fund.sol\":2690:3315  function updateFund(... */\n    tag_11:\n      callvalue\n      dup1\n      iszero\n      tag_64\n      jumpi\n      0x00\n      dup1\n      revert\n    tag_64:\n      pop\n      tag_65\n      0x04\n      dup1\n      calldatasize\n      sub\n      dup2\n      add\n      swap1\n      tag_66\n      swap2\n      swap1\n      tag_67\n      jump\t// in\n    tag_66:\n      tag_68\n      jump\t// in\n    tag_65:\n      stop\n        /* \"contracts/Fund.sol\":2143:2682  function createFund(... */\n    tag_17:\n        /* \"contracts/Fund.sol\":2270:2280  uint96 _id */\n      0x00\n        /* \"contracts/Fund.sol\":2283:2292  fundCount */\n      dup1\n      0x14\n      swap1\n      sload\n      swap1\n      0x0100\n      exp\n      swap1\n      div\n      0xffffffffffffffffffffffff\n      and\n        /* \"contracts/Fund.sol\":2270:2292  uint96 _id = fundCount */\n      swap1\n      pop\n        /* \"contracts/Fund.sol\":2316:2532  Fund(... */\n      mload(0x40)\n      dup1\n      0x0100\n      add\n      0x40\n      mstore\n      dup1\n        /* \"contracts/Fund.sol\":2335:2338  _id */\n      dup3\n        /* \"contracts/Fund.sol\":2316:2532  Fund(... */\n      0xffffffffffffffffffffffff\n      and\n      dup2\n      mstore\n      0x20\n      add\n        /* \"contracts/Fund.sol\":2354:2360  _owner */\n      dup6\n        /* \"contracts/Fund.sol\":2316:2532  Fund(... */\n      0xffffffffffffffffffffffffffffffffffffffff\n      and\n      dup2\n      mstore\n      0x20\n      add\n        /* \"contracts/Fund.sol\":2383:2398  block.timestamp */\n      timestamp\n        /* \"contracts/Fund.sol\":2316:2532  Fund(... */\n      0xffffffffffff\n      and\n      dup2\n      mstore\n      0x20\n      add\n        /* \"contracts/Fund.sol\":2422:2437  block.timestamp */\n      timestamp\n        /* \"contracts/Fund.sol\":2316:2532  Fund(... */\n      0xffffffffffff\n      and\n      dup2\n      mstore\n      0x20\n      add\n        /* \"contracts/Fund.sol\":2454:2460  _payee */\n      dup5\n        /* \"contracts/Fund.sol\":2316:2532  Fund(... */\n      0xffffffffffffffffffffffffffffffffffffffff\n      and\n      dup2\n      mstore\n      0x20\n      add\n        /* \"contracts/Fund.sol\":2475:2485  _threshold */\n      dup4\n        /* \"contracts/Fund.sol\":2316:2532  Fund(... */\n      dup2\n      mstore\n      0x20\n      add\n        /* \"contracts/Fund.sol\":2500:2501  0 */\n      0x00\n        /* \"contracts/Fund.sol\":2316:2532  Fund(... */\n      dup2\n      mstore\n      0x20\n      add\n        /* \"contracts/Fund.sol\":2516:2521  false */\n      0x00\n        /* \"contracts/Fund.sol\":2316:2532  Fund(... */\n      iszero\n      iszero\n      dup2\n      mstore\n      pop\n        /* \"contracts/Fund.sol\":2303:2308  funds */\n      0x01\n        /* \"contracts/Fund.sol\":2303:2313  funds[_id] */\n      0x00\n        /* \"contracts/Fund.sol\":2309:2312  _id */\n      dup4\n        /* \"contracts/Fund.sol\":2303:2313  funds[_id] */\n      0xffffffffffffffffffffffff\n      and\n      0xffffffffffffffffffffffff\n      and\n      dup2\n      mstore\n      0x20\n      add\n      swap1\n      dup2\n      mstore\n      0x20\n      add\n      0x00\n      keccak256\n        /* \"contracts/Fund.sol\":2303:2532  funds[_id] = Fund(... */\n      0x00\n      dup3\n      add\n      mload\n      dup2\n      0x00\n      add\n      exp(0x0100, 0x00)\n      dup2\n      sload\n      dup2\n      0xffffffffffffffffffffffff\n      mul\n      not\n      and\n      swap1\n      dup4\n      0xffffffffffffffffffffffff\n      and\n      mul\n      or\n      swap1\n      sstore\n      pop\n      0x20\n      dup3\n      add\n      mload\n      dup2\n      0x00\n      add\n      exp(0x0100, 0x0c)\n      dup2\n      sload\n      dup2\n      0xffffffffffffffffffffffffffffffffffffffff\n      mul\n      not\n      and\n      swap1\n      dup4\n      0xffffffffffffffffffffffffffffffffffffffff\n      and\n      mul\n      or\n      swap1\n      sstore\n      pop\n      0x40\n      dup3\n      add\n      mload\n      dup2\n      0x01\n      add\n      exp(0x0100, 0x00)\n      dup2\n      sload\n      dup2\n      0xffffffffffff\n      mul\n      not\n      and\n      swap1\n      dup4\n      0xffffffffffff\n      and\n      mul\n      or\n      swap1\n      sstore\n      pop\n      0x60\n      dup3\n      add\n      mload\n      dup2\n      0x01\n      add\n      exp(0x0100, 0x06)\n      dup2\n      sload\n      dup2\n      0xffffffffffff\n      mul\n      not\n      and\n      swap1\n      dup4\n      0xffffffffffff\n      and\n      mul\n      or\n      swap1\n      sstore\n      pop\n      0x80\n      dup3\n      add\n      mload\n      dup2\n      0x01\n      add\n      exp(0x0100, 0x0c)\n      dup2\n      sload\n      dup2\n      0xffffffffffffffffffffffffffffffffffffffff\n      mul\n      not\n      and\n      swap1\n      dup4\n      0xffffffffffffffffffffffffffffffffffffffff\n      and\n      mul\n      or\n      swap1\n      sstore\n      pop\n      0xa0\n      dup3\n      add\n      mload\n      dup2\n      0x02\n      add\n      sstore\n      0xc0\n      dup3\n      add\n      mload\n      dup2\n      0x03\n      add\n      sstore\n      0xe0\n      dup3\n      add\n      mload\n      dup2\n      0x04\n      add\n      exp(0x0100, 0x00)\n      dup2\n      sload\n      dup2\n      0xff\n      mul\n      not\n      and\n      swap1\n      dup4\n      iszero\n      iszero\n      mul\n      or\n      swap1\n      sstore\n      pop\n      swap1\n      pop\n      pop\n        /* \"contracts/Fund.sol\":2613:2614  0 */\n      0x00\n        /* \"contracts/Fund.sol\":2601:2611  _threshold */\n      dup3\n        /* \"contracts/Fund.sol\":2580:2583  _id */\n      dup3\n        /* \"contracts/Fund.sol\":2568:2639  FundCreated(_id, _owner, _payee, _threshold, 0, false, block.timestamp) */\n      0xffffffffffffffffffffffff\n      and\n      0x1e216cc18d3e93f7c7b9a7b3a038093bc655d3d5cbfbb504d67d4376bd02d13f\n        /* \"contracts/Fund.sol\":2585:2591  _owner */\n      dup8\n        /* \"contracts/Fund.sol\":2593:2599  _payee */\n      dup8\n        /* \"contracts/Fund.sol\":2616:2621  false */\n      0x00\n        /* \"contracts/Fund.sol\":2623:2638  block.timestamp */\n      timestamp\n        /* \"contracts/Fund.sol\":2568:2639  FundCreated(_id, _owner, _payee, _threshold, 0, false, block.timestamp) */\n      mload(0x40)\n      tag_70\n      swap5\n      swap4\n      swap3\n      swap2\n      swap1\n      tag_71\n      jump\t// in\n    tag_70:\n      mload(0x40)\n      dup1\n      swap2\n      sub\n      swap1\n      log4\n        /* \"contracts/Fund.sol\":2673:2674  1 */\n      0x01\n        /* \"contracts/Fund.sol\":2660:2669  fundCount */\n      0x00\n      0x14\n        /* \"contracts/Fund.sol\":2660:2674  fundCount += 1 */\n      dup3\n      dup3\n      dup3\n      swap1\n      sload\n      swap1\n      0x0100\n      exp\n      swap1\n      div\n      0xffffffffffffffffffffffff\n      and\n      tag_72\n      swap2\n      swap1\n      tag_73\n      jump\t// in\n    tag_72:\n      swap3\n      pop\n      0x0100\n      exp\n      dup2\n      sload\n      dup2\n      0xffffffffffffffffffffffff\n      mul\n      not\n      and\n      swap1\n      dup4\n      0xffffffffffffffffffffffff\n      and\n      mul\n      or\n      swap1\n      sstore\n      pop\n        /* \"contracts/Fund.sol\":2259:2682  {... */\n      pop\n        /* \"contracts/Fund.sol\":2143:2682  function createFund(... */\n      pop\n      pop\n      pop\n      jump\t// out\n        /* \"contracts/Fund.sol\":3327:3435  function getAllFunds() external view returns (Fund[] memory){... */\n    tag_20:\n        /* \"contracts/Fund.sol\":3373:3386  Fund[] memory */\n      0x60\n        /* \"contracts/Fund.sol\":3405:3427  getFunds(0, fundCount) */\n      tag_75\n        /* \"contracts/Fund.sol\":3414:3415  0 */\n      0x00\n        /* \"contracts/Fund.sol\":3417:3426  fundCount */\n      dup1\n      0x14\n      swap1\n      sload\n      swap1\n      0x0100\n      exp\n      swap1\n      div\n      0xffffffffffffffffffffffff\n      and\n        /* \"contracts/Fund.sol\":3405:3413  getFunds */\n      tag_41\n        /* \"contracts/Fund.sol\":3405:3427  getFunds(0, fundCount) */\n      jump\t// in\n    tag_75:\n        /* \"contracts/Fund.sol\":3398:3427  return getFunds(0, fundCount) */\n      swap1\n      pop\n        /* \"contracts/Fund.sol\":3327:3435  function getAllFunds() external view returns (Fund[] memory){... */\n      swap1\n      jump\t// out\n        /* \"contracts/Fund.sol\":871:907  mapping(uint96 => Fund) public funds */\n    tag_27:\n      mstore(0x20, 0x01)\n      dup1\n      0x00\n      mstore\n      keccak256(0x00, 0x40)\n      0x00\n      swap2\n      pop\n      swap1\n      pop\n      dup1\n      0x00\n      add\n      0x00\n      swap1\n      sload\n      swap1\n      0x0100\n      exp\n      swap1\n      div\n      0xffffffffffffffffffffffff\n      and\n      swap1\n      dup1\n      0x00\n      add\n      0x0c\n      swap1\n      sload\n      swap1\n      0x0100\n      exp\n      swap1\n      div\n      0xffffffffffffffffffffffffffffffffffffffff\n      and\n      swap1\n      dup1\n      0x01\n      add\n      0x00\n      swap1\n      sload\n      swap1\n      0x0100\n      exp\n      swap1\n      div\n      0xffffffffffff\n      and\n      swap1\n      dup1\n      0x01\n      add\n      0x06\n      swap1\n      sload\n      swap1\n      0x0100\n      exp\n      swap1\n      div\n      0xffffffffffff\n      and\n      swap1\n      dup1\n      0x01\n      add\n      0x0c\n      swap1\n      sload\n      swap1\n      0x0100\n      exp\n      swap1\n      div\n      0xffffffffffffffffffffffffffffffffffffffff\n      and\n      swap1\n      dup1\n      0x02\n      add\n      sload\n      swap1\n      dup1\n      0x03\n      add\n      sload\n      swap1\n      dup1\n      0x04\n      add\n      0x00\n      swap1\n      sload\n      swap1\n      0x0100\n      exp\n      swap1\n      div\n      0xff\n      and\n      swap1\n      pop\n      dup9\n      jump\t// out\n        /* \"contracts/Fund.sol\":914:959  mapping(uint96 => address[]) public fundUsers */\n    tag_34:\n      mstore(0x20, 0x02)\n      dup2\n      0x00\n      mstore\n      keccak256(0x00, 0x40)\n      dup2\n      dup2\n      sload\n      dup2\n      lt\n      tag_76\n      jumpi\n      0x00\n      dup1\n      revert\n    tag_76:\n      swap1\n      0x00\n      mstore\n      keccak256(0x00, 0x20)\n      add\n      0x00\n      swap2\n      pop\n      swap2\n      pop\n      swap1\n      sload\n      swap1\n      0x0100\n      exp\n      swap1\n      div\n      0xffffffffffffffffffffffffffffffffffffffff\n      and\n      dup2\n      jump\t// out\n        /* \"contracts/Fund.sol\":3443:3877  function getFunds(uint96 _startId, uint96 _endId) public view returns (Fund[] memory){... */\n    tag_41:\n        /* \"contracts/Fund.sol\":3514:3527  Fund[] memory */\n      0x60\n        /* \"contracts/Fund.sol\":3557:3566  fundCount */\n      0x00\n      0x14\n      swap1\n      sload\n      swap1\n      0x0100\n      exp\n      swap1\n      div\n      0xffffffffffffffffffffffff\n      and\n        /* \"contracts/Fund.sol\":3547:3566  _endId <= fundCount */\n      0xffffffffffffffffffffffff\n      and\n        /* \"contracts/Fund.sol\":3547:3553  _endId */\n      dup3\n        /* \"contracts/Fund.sol\":3547:3566  _endId <= fundCount */\n      0xffffffffffffffffffffffff\n      and\n      gt\n      iszero\n        /* \"contracts/Fund.sol\":3539:3598  require(_endId <= fundCount, \"Must be _endId <= fundCount\") */\n      tag_79\n      jumpi\n      mload(0x40)\n      0x08c379a000000000000000000000000000000000000000000000000000000000\n      dup2\n      mstore\n      0x04\n      add\n      tag_80\n      swap1\n      tag_81\n      jump\t// in\n    tag_80:\n      mload(0x40)\n      dup1\n      swap2\n      sub\n      swap1\n      revert\n    tag_79:\n        /* \"contracts/Fund.sol\":3629:3635  _endId */\n      dup2\n        /* \"contracts/Fund.sol\":3617:3635  _startId <= _endId */\n      0xffffffffffffffffffffffff\n      and\n        /* \"contracts/Fund.sol\":3617:3625  _startId */\n      dup4\n        /* \"contracts/Fund.sol\":3617:3635  _startId <= _endId */\n      0xffffffffffffffffffffffff\n      and\n      gt\n      iszero\n        /* \"contracts/Fund.sol\":3609:3666  require(_startId <= _endId, \"Must be _startId <= _endId\") */\n      tag_82\n      jumpi\n      mload(0x40)\n      0x08c379a000000000000000000000000000000000000000000000000000000000\n      dup2\n      mstore\n      0x04\n      add\n      tag_83\n      swap1\n      tag_84\n      jump\t// in\n    tag_83:\n      mload(0x40)\n      dup1\n      swap2\n      sub\n      swap1\n      revert\n    tag_82:\n        /* \"contracts/Fund.sol\":3677:3699  Fund[] memory fundList */\n      0x00\n        /* \"contracts/Fund.sol\":3722:3730  _startId */\n      dup4\n        /* \"contracts/Fund.sol\":3713:3719  _endId */\n      dup4\n        /* \"contracts/Fund.sol\":3713:3730  _endId - _startId */\n      tag_85\n      swap2\n      swap1\n      tag_86\n      jump\t// in\n    tag_85:\n        /* \"contracts/Fund.sol\":3702:3731  new Fund[](_endId - _startId) */\n      0xffffffffffffffffffffffff\n      and\n      0xffffffffffffffff\n      dup2\n      gt\n      iszero\n      tag_87\n      jumpi\n      tag_88\n      tag_89\n      jump\t// in\n    tag_88:\n    tag_87:\n      mload(0x40)\n      swap1\n      dup1\n      dup3\n      mstore\n      dup1\n      0x20\n      mul\n      0x20\n      add\n      dup3\n      add\n      0x40\n      mstore\n      dup1\n      iszero\n      tag_90\n      jumpi\n      dup2\n      0x20\n      add\n    tag_91:\n      tag_92\n      tag_93\n      jump\t// in\n    tag_92:\n      dup2\n      mstore\n      0x20\n      add\n      swap1\n      0x01\n      swap1\n      sub\n      swap1\n      dup2\n      tag_91\n      jumpi\n      swap1\n      pop\n    tag_90:\n      pop\n        /* \"contracts/Fund.sol\":3677:3731  Fund[] memory fundList = new Fund[](_endId - _startId) */\n      swap1\n      pop\n        /* \"contracts/Fund.sol\":3747:3755  uint96 i */\n      0x00\n        /* \"contracts/Fund.sol\":3758:3766  _startId */\n      dup5\n        /* \"contracts/Fund.sol\":3747:3766  uint96 i = _startId */\n      swap1\n      pop\n        /* \"contracts/Fund.sol\":3742:3844  for (uint96 i = _startId; i < _endId; i++){... */\n    tag_94:\n        /* \"contracts/Fund.sol\":3772:3778  _endId */\n      dup4\n        /* \"contracts/Fund.sol\":3768:3778  i < _endId */\n      0xffffffffffffffffffffffff\n      and\n        /* \"contracts/Fund.sol\":3768:3769  i */\n      dup2\n        /* \"contracts/Fund.sol\":3768:3778  i < _endId */\n      0xffffffffffffffffffffffff\n      and\n      lt\n        /* \"contracts/Fund.sol\":3742:3844  for (uint96 i = _startId; i < _endId; i++){... */\n      iszero\n      tag_95\n      jumpi\n        /* \"contracts/Fund.sol\":3824:3829  funds */\n      0x01\n        /* \"contracts/Fund.sol\":3824:3832  funds[i] */\n      0x00\n        /* \"contracts/Fund.sol\":3830:3831  i */\n      dup3\n        /* \"contracts/Fund.sol\":3824:3832  funds[i] */\n      0xffffffffffffffffffffffff\n      and\n      0xffffffffffffffffffffffff\n      and\n      dup2\n      mstore\n      0x20\n      add\n      swap1\n      dup2\n      mstore\n      0x20\n      add\n      0x00\n      keccak256\n        /* \"contracts/Fund.sol\":3799:3832  fundList[i - _startId] = funds[i] */\n      mload(0x40)\n      dup1\n      0x0100\n      add\n      0x40\n      mstore\n      swap1\n      dup2\n      0x00\n      dup3\n      add\n      0x00\n      swap1\n      sload\n      swap1\n      0x0100\n      exp\n      swap1\n      div\n      0xffffffffffffffffffffffff\n      and\n      0xffffffffffffffffffffffff\n      and\n      0xffffffffffffffffffffffff\n      and\n      dup2\n      mstore\n      0x20\n      add\n      0x00\n      dup3\n      add\n      0x0c\n      swap1\n      sload\n      swap1\n      0x0100\n      exp\n      swap1\n      div\n      0xffffffffffffffffffffffffffffffffffffffff\n      and\n      0xffffffffffffffffffffffffffffffffffffffff\n      and\n      0xffffffffffffffffffffffffffffffffffffffff\n      and\n      dup2\n      mstore\n      0x20\n      add\n      0x01\n      dup3\n      add\n      0x00\n      swap1\n      sload\n      swap1\n      0x0100\n      exp\n      swap1\n      div\n      0xffffffffffff\n      and\n      0xffffffffffff\n      and\n      0xffffffffffff\n      and\n      dup2\n      mstore\n      0x20\n      add\n      0x01\n      dup3\n      add\n      0x06\n      swap1\n      sload\n      swap1\n      0x0100\n      exp\n      swap1\n      div\n      0xffffffffffff\n      and\n      0xffffffffffff\n      and\n      0xffffffffffff\n      and\n      dup2\n      mstore\n      0x20\n      add\n      0x01\n      dup3\n      add\n      0x0c\n      swap1\n      sload\n      swap1\n      0x0100\n      exp\n      swap1\n      div\n      0xffffffffffffffffffffffffffffffffffffffff\n      and\n      0xffffffffffffffffffffffffffffffffffffffff\n      and\n      0xffffffffffffffffffffffffffffffffffffffff\n      and\n      dup2\n      mstore\n      0x20\n      add\n      0x02\n      dup3\n      add\n      sload\n      dup2\n      mstore\n      0x20\n      add\n      0x03\n      dup3\n      add\n      sload\n      dup2\n      mstore\n      0x20\n      add\n      0x04\n      dup3\n      add\n      0x00\n      swap1\n      sload\n      swap1\n      0x0100\n      exp\n      swap1\n      div\n      0xff\n      and\n      iszero\n      iszero\n      iszero\n      iszero\n      dup2\n      mstore\n      pop\n      pop\n        /* \"contracts/Fund.sol\":3799:3807  fundList */\n      dup3\n        /* \"contracts/Fund.sol\":3812:3820  _startId */\n      dup7\n        /* \"contracts/Fund.sol\":3808:3809  i */\n      dup4\n        /* \"contracts/Fund.sol\":3808:3820  i - _startId */\n      tag_97\n      swap2\n      swap1\n      tag_86\n      jump\t// in\n    tag_97:\n        /* \"contracts/Fund.sol\":3799:3821  fundList[i - _startId] */\n      0xffffffffffffffffffffffff\n      and\n      dup2\n      mload\n      dup2\n      lt\n      tag_98\n      jumpi\n      tag_99\n      tag_100\n      jump\t// in\n    tag_99:\n    tag_98:\n      0x20\n      mul\n      0x20\n      add\n      add\n        /* \"contracts/Fund.sol\":3799:3832  fundList[i - _startId] = funds[i] */\n      dup2\n      swap1\n      mstore\n      pop\n        /* \"contracts/Fund.sol\":3780:3783  i++ */\n      dup1\n      dup1\n      tag_101\n      swap1\n      tag_102\n      jump\t// in\n    tag_101:\n      swap2\n      pop\n      pop\n        /* \"contracts/Fund.sol\":3742:3844  for (uint96 i = _startId; i < _endId; i++){... */\n      jump(tag_94)\n    tag_95:\n      pop\n        /* \"contracts/Fund.sol\":3861:3869  fundList */\n      dup1\n        /* \"contracts/Fund.sol\":3854:3869  return fundList */\n      swap2\n      pop\n      pop\n        /* \"contracts/Fund.sol\":3443:3877  function getFunds(uint96 _startId, uint96 _endId) public view returns (Fund[] memory){... */\n      swap3\n      swap2\n      pop\n      pop\n      jump\t// out\n        /* \"contracts/Fund.sol\":287:310  uint96 public fundCount */\n    tag_45:\n      0x00\n      0x14\n      swap1\n      sload\n      swap1\n      0x0100\n      exp\n      swap1\n      div\n      0xffffffffffffffffffffffff\n      and\n      dup2\n      jump\t// out\n        /* \"contracts/Fund.sol\":3889:4056  function getFundPayee(uint96 _id) public view returns (address){... */\n    tag_51:\n        /* \"contracts/Fund.sol\":3944:3951  address */\n      0x00\n        /* \"contracts/Fund.sol\":3977:3986  fundCount */\n      dup1\n      0x14\n      swap1\n      sload\n      swap1\n      0x0100\n      exp\n      swap1\n      div\n      0xffffffffffffffffffffffff\n      and\n        /* \"contracts/Fund.sol\":3971:3986  _id < fundCount */\n      0xffffffffffffffffffffffff\n      and\n        /* \"contracts/Fund.sol\":3971:3974  _id */\n      dup3\n        /* \"contracts/Fund.sol\":3971:3986  _id < fundCount */\n      0xffffffffffffffffffffffff\n      and\n      lt\n        /* \"contracts/Fund.sol\":3963:4014  require(_id < fundCount, \"Must be _id < fundCount\") */\n      tag_104\n      jumpi\n      mload(0x40)\n      0x08c379a000000000000000000000000000000000000000000000000000000000\n      dup2\n      mstore\n      0x04\n      add\n      tag_105\n      swap1\n      tag_106\n      jump\t// in\n    tag_105:\n      mload(0x40)\n      dup1\n      swap2\n      sub\n      swap1\n      revert\n    tag_104:\n        /* \"contracts/Fund.sol\":4032:4037  funds */\n      0x01\n        /* \"contracts/Fund.sol\":4032:4042  funds[_id] */\n      0x00\n        /* \"contracts/Fund.sol\":4038:4041  _id */\n      dup4\n        /* \"contracts/Fund.sol\":4032:4042  funds[_id] */\n      0xffffffffffffffffffffffff\n      and\n      0xffffffffffffffffffffffff\n      and\n      dup2\n      mstore\n      0x20\n      add\n      swap1\n      dup2\n      mstore\n      0x20\n      add\n      0x00\n      keccak256\n        /* \"contracts/Fund.sol\":4032:4048  funds[_id].payee */\n      0x01\n      add\n      0x0c\n      swap1\n      sload\n      swap1\n      0x0100\n      exp\n      swap1\n      div\n      0xffffffffffffffffffffffffffffffffffffffff\n      and\n        /* \"contracts/Fund.sol\":4025:4048  return funds[_id].payee */\n      swap1\n      pop\n        /* \"contracts/Fund.sol\":3889:4056  function getFundPayee(uint96 _id) public view returns (address){... */\n      swap2\n      swap1\n      pop\n      jump\t// out\n        /* \"contracts/Fund.sol\":966:1036  mapping(uint96 => mapping(address => Donation[])) public fundDonations */\n    tag_57:\n      mstore(0x20, 0x03)\n      dup3\n      0x00\n      mstore\n      mstore(0x20, keccak256(0x00, 0x40))\n      dup2\n      0x00\n      mstore\n      keccak256(0x00, 0x40)\n      dup2\n      dup2\n      sload\n      dup2\n      lt\n      tag_107\n      jumpi\n      0x00\n      dup1\n      revert\n    tag_107:\n      swap1\n      0x00\n      mstore\n      keccak256(0x00, 0x20)\n      swap1\n      0x02\n      mul\n      add\n      0x00\n      swap3\n      pop\n      swap3\n      pop\n      pop\n      pop\n      dup1\n      0x00\n      add\n      0x00\n      swap1\n      sload\n      swap1\n      0x0100\n      exp\n      swap1\n      div\n      0xffffffffffffffffffffffffffffffffffffffff\n      and\n      swap1\n      dup1\n      0x00\n      add\n      0x14\n      swap1\n      sload\n      swap1\n      0x0100\n      exp\n      swap1\n      div\n      0xffffffffffffffffffffffff\n      and\n      swap1\n      dup1\n      0x01\n      add\n      sload\n      swap1\n      pop\n      dup4\n      jump\t// out\n        /* \"contracts/Fund.sol\":4064:4348  function donate(... */\n    tag_63:\n        /* \"contracts/Fund.sol\":4222:4261  createDonation(_user, _fundId, _amount) */\n      tag_110\n        /* \"contracts/Fund.sol\":4237:4242  _user */\n      dup4\n        /* \"contracts/Fund.sol\":4244:4251  _fundId */\n      dup4\n        /* \"contracts/Fund.sol\":4253:4260  _amount */\n      dup4\n        /* \"contracts/Fund.sol\":4222:4236  createDonation */\n      tag_111\n        /* \"contracts/Fund.sol\":4222:4261  createDonation(_user, _fundId, _amount) */\n      jump\t// in\n    tag_110:\n        /* \"contracts/Fund.sol\":4296:4309  calculateQF() */\n      tag_112\n        /* \"contracts/Fund.sol\":4296:4307  calculateQF */\n      tag_113\n        /* \"contracts/Fund.sol\":4296:4309  calculateQF() */\n      jump\t// in\n    tag_112:\n        /* \"contracts/Fund.sol\":4064:4348  function donate(... */\n      pop\n      pop\n      pop\n      jump\t// out\n        /* \"contracts/Fund.sol\":2690:3315  function updateFund(... */\n    tag_68:\n        /* \"contracts/Fund.sol\":2837:2854  Fund memory _fund */\n      0x00\n        /* \"contracts/Fund.sol\":2857:2862  funds */\n      0x01\n        /* \"contracts/Fund.sol\":2857:2867  funds[_id] */\n      0x00\n        /* \"contracts/Fund.sol\":2863:2866  _id */\n      dup7\n        /* \"contracts/Fund.sol\":2857:2867  funds[_id] */\n      0xffffffffffffffffffffffff\n      and\n      0xffffffffffffffffffffffff\n      and\n      dup2\n      mstore\n      0x20\n      add\n      swap1\n      dup2\n      mstore\n      0x20\n      add\n      0x00\n      keccak256\n        /* \"contracts/Fund.sol\":2837:2867  Fund memory _fund = funds[_id] */\n      mload(0x40)\n      dup1\n      0x0100\n      add\n      0x40\n      mstore\n      swap1\n      dup2\n      0x00\n      dup3\n      add\n      0x00\n      swap1\n      sload\n      swap1\n      0x0100\n      exp\n      swap1\n      div\n      0xffffffffffffffffffffffff\n      and\n      0xffffffffffffffffffffffff\n      and\n      0xffffffffffffffffffffffff\n      and\n      dup2\n      mstore\n      0x20\n      add\n      0x00\n      dup3\n      add\n      0x0c\n      swap1\n      sload\n      swap1\n      0x0100\n      exp\n      swap1\n      div\n      0xffffffffffffffffffffffffffffffffffffffff\n      and\n      0xffffffffffffffffffffffffffffffffffffffff\n      and\n      0xffffffffffffffffffffffffffffffffffffffff\n      and\n      dup2\n      mstore\n      0x20\n      add\n      0x01\n      dup3\n      add\n      0x00\n      swap1\n      sload\n      swap1\n      0x0100\n      exp\n      swap1\n      div\n      0xffffffffffff\n      and\n      0xffffffffffff\n      and\n      0xffffffffffff\n      and\n      dup2\n      mstore\n      0x20\n      add\n      0x01\n      dup3\n      add\n      0x06\n      swap1\n      sload\n      swap1\n      0x0100\n      exp\n      swap1\n      div\n      0xffffffffffff\n      and\n      0xffffffffffff\n      and\n      0xffffffffffff\n      and\n      dup2\n      mstore\n      0x20\n      add\n      0x01\n      dup3\n      add\n      0x0c\n      swap1\n      sload\n      swap1\n      0x0100\n      exp\n      swap1\n      div\n      0xffffffffffffffffffffffffffffffffffffffff\n      and\n      0xffffffffffffffffffffffffffffffffffffffff\n      and\n      0xffffffffffffffffffffffffffffffffffffffff\n      and\n      dup2\n      mstore\n      0x20\n      add\n      0x02\n      dup3\n      add\n      sload\n      dup2\n      mstore\n      0x20\n      add\n      0x03\n      dup3\n      add\n      sload\n      dup2\n      mstore\n      0x20\n      add\n      0x04\n      dup3\n      add\n      0x00\n      swap1\n      sload\n      swap1\n      0x0100\n      exp\n      swap1\n      div\n      0xff\n      and\n      iszero\n      iszero\n      iszero\n      iszero\n      dup2\n      mstore\n      pop\n      pop\n      swap1\n      pop\n        /* \"contracts/Fund.sol\":2900:2905  _fund */\n      dup1\n        /* \"contracts/Fund.sol\":2900:2911  _fund.owner */\n      0x20\n      add\n      mload\n        /* \"contracts/Fund.sol\":2886:2911  msg.sender == _fund.owner */\n      0xffffffffffffffffffffffffffffffffffffffff\n      and\n        /* \"contracts/Fund.sol\":2886:2896  msg.sender */\n      caller\n        /* \"contracts/Fund.sol\":2886:2911  msg.sender == _fund.owner */\n      0xffffffffffffffffffffffffffffffffffffffff\n      and\n      eq\n        /* \"contracts/Fund.sol\":2878:2942  require(msg.sender == _fund.owner, \"Fund Update not authorized\") */\n      tag_115\n      jumpi\n      mload(0x40)\n      0x08c379a000000000000000000000000000000000000000000000000000000000\n      dup2\n      mstore\n      0x04\n      add\n      tag_116\n      swap1\n      tag_117\n      jump\t// in\n    tag_116:\n      mload(0x40)\n      dup1\n      swap2\n      sub\n      swap1\n      revert\n    tag_115:\n        /* \"contracts/Fund.sol\":2966:3198  Fund(... */\n      mload(0x40)\n      dup1\n      0x0100\n      add\n      0x40\n      mstore\n      dup1\n        /* \"contracts/Fund.sol\":2985:2988  _id */\n      dup7\n        /* \"contracts/Fund.sol\":2966:3198  Fund(... */\n      0xffffffffffffffffffffffff\n      and\n      dup2\n      mstore\n      0x20\n      add\n        /* \"contracts/Fund.sol\":3004:3010  _owner */\n      dup6\n        /* \"contracts/Fund.sol\":2966:3198  Fund(... */\n      0xffffffffffffffffffffffffffffffffffffffff\n      and\n      dup2\n      mstore\n      0x20\n      add\n        /* \"contracts/Fund.sol\":3026:3031  _fund */\n      dup3\n        /* \"contracts/Fund.sol\":3026:3041  _fund.createdAt */\n      0x40\n      add\n      mload\n        /* \"contracts/Fund.sol\":2966:3198  Fund(... */\n      0xffffffffffff\n      and\n      dup2\n      mstore\n      0x20\n      add\n        /* \"contracts/Fund.sol\":3064:3079  block.timestamp */\n      timestamp\n        /* \"contracts/Fund.sol\":2966:3198  Fund(... */\n      0xffffffffffff\n      and\n      dup2\n      mstore\n      0x20\n      add\n        /* \"contracts/Fund.sol\":3096:3102  _payee */\n      dup5\n        /* \"contracts/Fund.sol\":2966:3198  Fund(... */\n      0xffffffffffffffffffffffffffffffffffffffff\n      and\n      dup2\n      mstore\n      0x20\n      add\n        /* \"contracts/Fund.sol\":3118:3128  _threshold */\n      dup4\n        /* \"contracts/Fund.sol\":2966:3198  Fund(... */\n      dup2\n      mstore\n      0x20\n      add\n        /* \"contracts/Fund.sol\":3144:3149  _fund */\n      dup3\n        /* \"contracts/Fund.sol\":3144:3161  _fund.totalAmount */\n      0xc0\n      add\n      mload\n        /* \"contracts/Fund.sol\":2966:3198  Fund(... */\n      dup2\n      mstore\n      0x20\n      add\n        /* \"contracts/Fund.sol\":3176:3181  _fund */\n      dup3\n        /* \"contracts/Fund.sol\":3176:3187  _fund.isEnd */\n      0xe0\n      add\n      mload\n        /* \"contracts/Fund.sol\":2966:3198  Fund(... */\n      iszero\n      iszero\n      dup2\n      mstore\n      pop\n        /* \"contracts/Fund.sol\":2953:2958  funds */\n      0x01\n        /* \"contracts/Fund.sol\":2953:2963  funds[_id] */\n      0x00\n        /* \"contracts/Fund.sol\":2959:2962  _id */\n      dup8\n        /* \"contracts/Fund.sol\":2953:2963  funds[_id] */\n      0xffffffffffffffffffffffff\n      and\n      0xffffffffffffffffffffffff\n      and\n      dup2\n      mstore\n      0x20\n      add\n      swap1\n      dup2\n      mstore\n      0x20\n      add\n      0x00\n      keccak256\n        /* \"contracts/Fund.sol\":2953:3198  funds[_id] = Fund(... */\n      0x00\n      dup3\n      add\n      mload\n      dup2\n      0x00\n      add\n      exp(0x0100, 0x00)\n      dup2\n      sload\n      dup2\n      0xffffffffffffffffffffffff\n      mul\n      not\n      and\n      swap1\n      dup4\n      0xffffffffffffffffffffffff\n      and\n      mul\n      or\n      swap1\n      sstore\n      pop\n      0x20\n      dup3\n      add\n      mload\n      dup2\n      0x00\n      add\n      exp(0x0100, 0x0c)\n      dup2\n      sload\n      dup2\n      0xffffffffffffffffffffffffffffffffffffffff\n      mul\n      not\n      and\n      swap1\n      dup4\n      0xffffffffffffffffffffffffffffffffffffffff\n      and\n      mul\n      or\n      swap1\n      sstore\n      pop\n      0x40\n      dup3\n      add\n      mload\n      dup2\n      0x01\n      add\n      exp(0x0100, 0x00)\n      dup2\n      sload\n      dup2\n      0xffffffffffff\n      mul\n      not\n      and\n      swap1\n      dup4\n      0xffffffffffff\n      and\n      mul\n      or\n      swap1\n      sstore\n      pop\n      0x60\n      dup3\n      add\n      mload\n      dup2\n      0x01\n      add\n      exp(0x0100, 0x06)\n      dup2\n      sload\n      dup2\n      0xffffffffffff\n      mul\n      not\n      and\n      swap1\n      dup4\n      0xffffffffffff\n      and\n      mul\n      or\n      swap1\n      sstore\n      pop\n      0x80\n      dup3\n      add\n      mload\n      dup2\n      0x01\n      add\n      exp(0x0100, 0x0c)\n      dup2\n      sload\n      dup2\n      0xffffffffffffffffffffffffffffffffffffffff\n      mul\n      not\n      and\n      swap1\n      dup4\n      0xffffffffffffffffffffffffffffffffffffffff\n      and\n      mul\n      or\n      swap1\n      sstore\n      pop\n      0xa0\n      dup3\n      add\n      mload\n      dup2\n      0x02\n      add\n      sstore\n      0xc0\n      dup3\n      add\n      mload\n      dup2\n      0x03\n      add\n      sstore\n      0xe0\n      dup3\n      add\n      mload\n      dup2\n      0x04\n      add\n      exp(0x0100, 0x00)\n      dup2\n      sload\n      dup2\n      0xff\n      mul\n      not\n      and\n      swap1\n      dup4\n      iszero\n      iszero\n      mul\n      or\n      swap1\n      sstore\n      pop\n      swap1\n      pop\n      pop\n        /* \"contracts/Fund.sol\":3259:3264  _fund */\n      dup1\n        /* \"contracts/Fund.sol\":3259:3276  _fund.totalAmount */\n      0xc0\n      add\n      mload\n        /* \"contracts/Fund.sol\":3247:3257  _threshold */\n      dup3\n        /* \"contracts/Fund.sol\":3226:3229  _id */\n      dup7\n        /* \"contracts/Fund.sol\":3214:3307  FundUpdated(_id, _owner, _payee, _threshold, _fund.totalAmount, _fund.isEnd, block.timestamp) */\n      0xffffffffffffffffffffffff\n      and\n      0x603e97a48f8cadd1e9020bf96470c32853c5d9d8ed30f7cbe961f12ad2a45fa0\n        /* \"contracts/Fund.sol\":3231:3237  _owner */\n      dup8\n        /* \"contracts/Fund.sol\":3239:3245  _payee */\n      dup8\n        /* \"contracts/Fund.sol\":3278:3283  _fund */\n      dup7\n        /* \"contracts/Fund.sol\":3278:3289  _fund.isEnd */\n      0xe0\n      add\n      mload\n        /* \"contracts/Fund.sol\":3291:3306  block.timestamp */\n      timestamp\n        /* \"contracts/Fund.sol\":3214:3307  FundUpdated(_id, _owner, _payee, _threshold, _fund.totalAmount, _fund.isEnd, block.timestamp) */\n      mload(0x40)\n      tag_118\n      swap5\n      swap4\n      swap3\n      swap2\n      swap1\n      tag_71\n      jump\t// in\n    tag_118:\n      mload(0x40)\n      dup1\n      swap2\n      sub\n      swap1\n      log4\n        /* \"contracts/Fund.sol\":2826:3315  {... */\n      pop\n        /* \"contracts/Fund.sol\":2690:3315  function updateFund(... */\n      pop\n      pop\n      pop\n      pop\n      jump\t// out\n        /* \"contracts/Fund.sol\":1491:2135  function createDonation(... */\n    tag_111:\n        /* \"contracts/Fund.sol\":1616:1643  Donation memory newDonation */\n      0x00\n        /* \"contracts/Fund.sol\":1646:1729  Donation(... */\n      mload(0x40)\n      dup1\n      0x60\n      add\n      0x40\n      mstore\n      dup1\n        /* \"contracts/Fund.sol\":1669:1674  _user */\n      dup6\n        /* \"contracts/Fund.sol\":1646:1729  Donation(... */\n      0xffffffffffffffffffffffffffffffffffffffff\n      and\n      dup2\n      mstore\n      0x20\n      add\n        /* \"contracts/Fund.sol\":1689:1696  _fundId */\n      dup5\n        /* \"contracts/Fund.sol\":1646:1729  Donation(... */\n      0xffffffffffffffffffffffff\n      and\n      dup2\n      mstore\n      0x20\n      add\n        /* \"contracts/Fund.sol\":1711:1718  _amount */\n      dup4\n        /* \"contracts/Fund.sol\":1646:1729  Donation(... */\n      dup2\n      mstore\n      pop\n        /* \"contracts/Fund.sol\":1616:1729  Donation memory newDonation = Donation(... */\n      swap1\n      pop\n        /* \"contracts/Fund.sol\":1740:1753  fundDonations */\n      0x03\n        /* \"contracts/Fund.sol\":1740:1762  fundDonations[_fundId] */\n      0x00\n        /* \"contracts/Fund.sol\":1754:1761  _fundId */\n      dup5\n        /* \"contracts/Fund.sol\":1740:1762  fundDonations[_fundId] */\n      0xffffffffffffffffffffffff\n      and\n      0xffffffffffffffffffffffff\n      and\n      dup2\n      mstore\n      0x20\n      add\n      swap1\n      dup2\n      mstore\n      0x20\n      add\n      0x00\n      keccak256\n        /* \"contracts/Fund.sol\":1740:1769  fundDonations[_fundId][_user] */\n      0x00\n        /* \"contracts/Fund.sol\":1763:1768  _user */\n      dup6\n        /* \"contracts/Fund.sol\":1740:1769  fundDonations[_fundId][_user] */\n      0xffffffffffffffffffffffffffffffffffffffff\n      and\n      0xffffffffffffffffffffffffffffffffffffffff\n      and\n      dup2\n      mstore\n      0x20\n      add\n      swap1\n      dup2\n      mstore\n      0x20\n      add\n      0x00\n      keccak256\n        /* \"contracts/Fund.sol\":1775:1786  newDonation */\n      dup2\n        /* \"contracts/Fund.sol\":1740:1787  fundDonations[_fundId][_user].push(newDonation) */\n      swap1\n      dup1\n      0x01\n      dup2\n      sload\n      add\n      dup1\n      dup3\n      sstore\n      dup1\n      swap2\n      pop\n      pop\n      0x01\n      swap1\n      sub\n      swap1\n      0x00\n      mstore\n      keccak256(0x00, 0x20)\n      swap1\n      0x02\n      mul\n      add\n      0x00\n      swap1\n      swap2\n      swap1\n      swap2\n      swap1\n      swap2\n      pop\n      0x00\n      dup3\n      add\n      mload\n      dup2\n      0x00\n      add\n      exp(0x0100, 0x00)\n      dup2\n      sload\n      dup2\n      0xffffffffffffffffffffffffffffffffffffffff\n      mul\n      not\n      and\n      swap1\n      dup4\n      0xffffffffffffffffffffffffffffffffffffffff\n      and\n      mul\n      or\n      swap1\n      sstore\n      pop\n      0x20\n      dup3\n      add\n      mload\n      dup2\n      0x00\n      add\n      exp(0x0100, 0x14)\n      dup2\n      sload\n      dup2\n      0xffffffffffffffffffffffff\n      mul\n      not\n      and\n      swap1\n      dup4\n      0xffffffffffffffffffffffff\n      and\n      mul\n      or\n      swap1\n      sstore\n      pop\n      0x40\n      dup3\n      add\n      mload\n      dup2\n      0x01\n      add\n      sstore\n      pop\n      pop\n        /* \"contracts/Fund.sol\":1798:1826  address[] storage _fundUsers */\n      0x00\n        /* \"contracts/Fund.sol\":1829:1838  fundUsers */\n      0x02\n        /* \"contracts/Fund.sol\":1829:1847  fundUsers[_fundId] */\n      0x00\n        /* \"contracts/Fund.sol\":1839:1846  _fundId */\n      dup6\n        /* \"contracts/Fund.sol\":1829:1847  fundUsers[_fundId] */\n      0xffffffffffffffffffffffff\n      and\n      0xffffffffffffffffffffffff\n      and\n      dup2\n      mstore\n      0x20\n      add\n      swap1\n      dup2\n      mstore\n      0x20\n      add\n      0x00\n      keccak256\n        /* \"contracts/Fund.sol\":1798:1847  address[] storage _fundUsers = fundUsers[_fundId] */\n      swap1\n      pop\n        /* \"contracts/Fund.sol\":1860:1870  bool isAdd */\n      0x00\n        /* \"contracts/Fund.sol\":1873:1877  true */\n      0x01\n        /* \"contracts/Fund.sol\":1860:1877  bool isAdd = true */\n      swap1\n      pop\n        /* \"contracts/Fund.sol\":1893:1901  uint96 i */\n      0x00\n        /* \"contracts/Fund.sol\":1888:2059  for (uint96 i = 0; i < _fundUsers.length; i++){... */\n    tag_121:\n        /* \"contracts/Fund.sol\":1911:1921  _fundUsers */\n      dup3\n        /* \"contracts/Fund.sol\":1911:1928  _fundUsers.length */\n      dup1\n      sload\n      swap1\n      pop\n        /* \"contracts/Fund.sol\":1907:1908  i */\n      dup2\n        /* \"contracts/Fund.sol\":1907:1928  i < _fundUsers.length */\n      0xffffffffffffffffffffffff\n      and\n      lt\n        /* \"contracts/Fund.sol\":1888:2059  for (uint96 i = 0; i < _fundUsers.length; i++){... */\n      iszero\n      tag_122\n      jumpi\n        /* \"contracts/Fund.sol\":1970:1975  _user */\n      dup7\n        /* \"contracts/Fund.sol\":1953:1975  _fundUsers[i] == _user */\n      0xffffffffffffffffffffffffffffffffffffffff\n      and\n        /* \"contracts/Fund.sol\":1953:1963  _fundUsers */\n      dup4\n        /* \"contracts/Fund.sol\":1964:1965  i */\n      dup3\n        /* \"contracts/Fund.sol\":1953:1966  _fundUsers[i] */\n      0xffffffffffffffffffffffff\n      and\n      dup2\n      sload\n      dup2\n      lt\n      tag_124\n      jumpi\n      tag_125\n      tag_100\n      jump\t// in\n    tag_125:\n    tag_124:\n      swap1\n      0x00\n      mstore\n      keccak256(0x00, 0x20)\n      add\n      0x00\n      swap1\n      sload\n      swap1\n      0x0100\n      exp\n      swap1\n      div\n      0xffffffffffffffffffffffffffffffffffffffff\n      and\n        /* \"contracts/Fund.sol\":1953:1975  _fundUsers[i] == _user */\n      0xffffffffffffffffffffffffffffffffffffffff\n      and\n      sub\n        /* \"contracts/Fund.sol\":1949:2048  if (_fundUsers[i] == _user){... */\n      tag_127\n      jumpi\n        /* \"contracts/Fund.sol\":2003:2008  false */\n      0x00\n        /* \"contracts/Fund.sol\":1995:2008  isAdd = false */\n      swap2\n      pop\n        /* \"contracts/Fund.sol\":2027:2032  break */\n      jump(tag_122)\n        /* \"contracts/Fund.sol\":1949:2048  if (_fundUsers[i] == _user){... */\n    tag_127:\n        /* \"contracts/Fund.sol\":1930:1933  i++ */\n      dup1\n      dup1\n      tag_128\n      swap1\n      tag_102\n      jump\t// in\n    tag_128:\n      swap2\n      pop\n      pop\n        /* \"contracts/Fund.sol\":1888:2059  for (uint96 i = 0; i < _fundUsers.length; i++){... */\n      jump(tag_121)\n    tag_122:\n      pop\n        /* \"contracts/Fund.sol\":2073:2078  isAdd */\n      dup1\n        /* \"contracts/Fund.sol\":2069:2128  if (isAdd){... */\n      iszero\n      tag_129\n      jumpi\n        /* \"contracts/Fund.sol\":2094:2104  _fundUsers */\n      dup2\n        /* \"contracts/Fund.sol\":2110:2115  _user */\n      dup7\n        /* \"contracts/Fund.sol\":2094:2116  _fundUsers.push(_user) */\n      swap1\n      dup1\n      0x01\n      dup2\n      sload\n      add\n      dup1\n      dup3\n      sstore\n      dup1\n      swap2\n      pop\n      pop\n      0x01\n      swap1\n      sub\n      swap1\n      0x00\n      mstore\n      keccak256(0x00, 0x20)\n      add\n      0x00\n      swap1\n      swap2\n      swap1\n      swap2\n      swap1\n      swap2\n      0x0100\n      exp\n      dup2\n      sload\n      dup2\n      0xffffffffffffffffffffffffffffffffffffffff\n      mul\n      not\n      and\n      swap1\n      dup4\n      0xffffffffffffffffffffffffffffffffffffffff\n      and\n      mul\n      or\n      swap1\n      sstore\n      pop\n        /* \"contracts/Fund.sol\":2069:2128  if (isAdd){... */\n    tag_129:\n        /* \"contracts/Fund.sol\":1605:2135  {... */\n      pop\n      pop\n      pop\n        /* \"contracts/Fund.sol\":1491:2135  function createDonation(... */\n      pop\n      pop\n      pop\n      jump\t// out\n        /* \"contracts/Fund.sol\":4356:5461  function calculateQF() internal {... */\n    tag_113:\n        /* \"contracts/Fund.sol\":4530:4552  uint256[] memory ratio */\n      0x00\n        /* \"contracts/Fund.sol\":4569:4578  fundCount */\n      dup1\n      0x14\n      swap1\n      sload\n      swap1\n      0x0100\n      exp\n      swap1\n      div\n      0xffffffffffffffffffffffff\n      and\n        /* \"contracts/Fund.sol\":4555:4579  new uint256[](fundCount) */\n      0xffffffffffffffffffffffff\n      and\n      0xffffffffffffffff\n      dup2\n      gt\n      iszero\n      tag_132\n      jumpi\n      tag_133\n      tag_89\n      jump\t// in\n    tag_133:\n    tag_132:\n      mload(0x40)\n      swap1\n      dup1\n      dup3\n      mstore\n      dup1\n      0x20\n      mul\n      0x20\n      add\n      dup3\n      add\n      0x40\n      mstore\n      dup1\n      iszero\n      tag_134\n      jumpi\n      dup2\n      0x20\n      add\n      0x20\n      dup3\n      mul\n      dup1\n      calldatasize\n      dup4\n      calldatacopy\n      dup1\n      dup3\n      add\n      swap2\n      pop\n      pop\n      swap1\n      pop\n    tag_134:\n      pop\n        /* \"contracts/Fund.sol\":4530:4579  uint256[] memory ratio = new uint256[](fundCount) */\n      swap1\n      pop\n        /* \"contracts/Fund.sol\":4590:4610  uint256 totalOfRatio */\n      0x00\n        /* \"contracts/Fund.sol\":4626:4634  uint96 i */\n      dup1\n        /* \"contracts/Fund.sol\":4637:4638  0 */\n      0x00\n        /* \"contracts/Fund.sol\":4626:4638  uint96 i = 0 */\n      swap1\n      pop\n        /* \"contracts/Fund.sol\":4621:5247  for (uint96 i = 0; i < fundCount; i++){... */\n    tag_135:\n        /* \"contracts/Fund.sol\":4644:4653  fundCount */\n      0x00\n      0x14\n      swap1\n      sload\n      swap1\n      0x0100\n      exp\n      swap1\n      div\n      0xffffffffffffffffffffffff\n      and\n        /* \"contracts/Fund.sol\":4640:4653  i < fundCount */\n      0xffffffffffffffffffffffff\n      and\n        /* \"contracts/Fund.sol\":4640:4641  i */\n      dup2\n        /* \"contracts/Fund.sol\":4640:4653  i < fundCount */\n      0xffffffffffffffffffffffff\n      and\n      lt\n        /* \"contracts/Fund.sol\":4621:5247  for (uint96 i = 0; i < fundCount; i++){... */\n      iszero\n      tag_136\n      jumpi\n        /* \"contracts/Fund.sol\":4674:4693  uint256 totalOfFund */\n      0x00\n        /* \"contracts/Fund.sol\":4708:4738  address[] memory userAddresses */\n      dup1\n        /* \"contracts/Fund.sol\":4741:4750  fundUsers */\n      0x02\n        /* \"contracts/Fund.sol\":4741:4753  fundUsers[i] */\n      0x00\n        /* \"contracts/Fund.sol\":4751:4752  i */\n      dup5\n        /* \"contracts/Fund.sol\":4741:4753  fundUsers[i] */\n      0xffffffffffffffffffffffff\n      and\n      0xffffffffffffffffffffffff\n      and\n      dup2\n      mstore\n      0x20\n      add\n      swap1\n      dup2\n      mstore\n      0x20\n      add\n      0x00\n      keccak256\n        /* \"contracts/Fund.sol\":4708:4753  address[] memory userAddresses = fundUsers[i] */\n      dup1\n      sload\n      dup1\n      0x20\n      mul\n      0x20\n      add\n      mload(0x40)\n      swap1\n      dup2\n      add\n      0x40\n      mstore\n      dup1\n      swap3\n      swap2\n      swap1\n      dup2\n      dup2\n      mstore\n      0x20\n      add\n      dup3\n      dup1\n      sload\n      dup1\n      iszero\n      tag_138\n      jumpi\n      0x20\n      mul\n      dup3\n      add\n      swap2\n      swap1\n      0x00\n      mstore\n      keccak256(0x00, 0x20)\n      swap1\n    tag_139:\n      dup2\n      0x00\n      swap1\n      sload\n      swap1\n      0x0100\n      exp\n      swap1\n      div\n      0xffffffffffffffffffffffffffffffffffffffff\n      and\n      0xffffffffffffffffffffffffffffffffffffffff\n      and\n      dup2\n      mstore\n      0x20\n      add\n      swap1\n      0x01\n      add\n      swap1\n      dup1\n      dup4\n      gt\n      tag_139\n      jumpi\n    tag_138:\n      pop\n      pop\n      pop\n      pop\n      pop\n      swap1\n      pop\n        /* \"contracts/Fund.sol\":4773:4781  uint96 j */\n      0x00\n        /* \"contracts/Fund.sol\":4768:5112  for (uint96 j = 0; j < userAddresses.length; j++){... */\n    tag_140:\n        /* \"contracts/Fund.sol\":4791:4804  userAddresses */\n      dup2\n        /* \"contracts/Fund.sol\":4791:4811  userAddresses.length */\n      mload\n        /* \"contracts/Fund.sol\":4787:4788  j */\n      dup2\n        /* \"contracts/Fund.sol\":4787:4811  j < userAddresses.length */\n      0xffffffffffffffffffffffff\n      and\n      lt\n        /* \"contracts/Fund.sol\":4768:5112  for (uint96 j = 0; j < userAddresses.length; j++){... */\n      iszero\n      tag_141\n      jumpi\n        /* \"contracts/Fund.sol\":4836:4855  uint256 totalOfUser */\n      0x00\n        /* \"contracts/Fund.sol\":4879:4887  uint96 k */\n      dup1\n        /* \"contracts/Fund.sol\":4890:4891  0 */\n      0x00\n        /* \"contracts/Fund.sol\":4879:4891  uint96 k = 0 */\n      swap1\n      pop\n        /* \"contracts/Fund.sol\":4874:5046  for (uint96 k = 0; k < fundDonations[i][userAddresses[j]].length; k++){... */\n    tag_143:\n        /* \"contracts/Fund.sol\":4897:4910  fundDonations */\n      0x03\n        /* \"contracts/Fund.sol\":4897:4913  fundDonations[i] */\n      0x00\n        /* \"contracts/Fund.sol\":4911:4912  i */\n      dup8\n        /* \"contracts/Fund.sol\":4897:4913  fundDonations[i] */\n      0xffffffffffffffffffffffff\n      and\n      0xffffffffffffffffffffffff\n      and\n      dup2\n      mstore\n      0x20\n      add\n      swap1\n      dup2\n      mstore\n      0x20\n      add\n      0x00\n      keccak256\n        /* \"contracts/Fund.sol\":4897:4931  fundDonations[i][userAddresses[j]] */\n      0x00\n        /* \"contracts/Fund.sol\":4914:4927  userAddresses */\n      dup6\n        /* \"contracts/Fund.sol\":4928:4929  j */\n      dup6\n        /* \"contracts/Fund.sol\":4914:4930  userAddresses[j] */\n      0xffffffffffffffffffffffff\n      and\n      dup2\n      mload\n      dup2\n      lt\n      tag_146\n      jumpi\n      tag_147\n      tag_100\n      jump\t// in\n    tag_147:\n    tag_146:\n      0x20\n      mul\n      0x20\n      add\n      add\n      mload\n        /* \"contracts/Fund.sol\":4897:4931  fundDonations[i][userAddresses[j]] */\n      0xffffffffffffffffffffffffffffffffffffffff\n      and\n      0xffffffffffffffffffffffffffffffffffffffff\n      and\n      dup2\n      mstore\n      0x20\n      add\n      swap1\n      dup2\n      mstore\n      0x20\n      add\n      0x00\n      keccak256\n        /* \"contracts/Fund.sol\":4897:4938  fundDonations[i][userAddresses[j]].length */\n      dup1\n      sload\n      swap1\n      pop\n        /* \"contracts/Fund.sol\":4893:4894  k */\n      dup2\n        /* \"contracts/Fund.sol\":4893:4938  k < fundDonations[i][userAddresses[j]].length */\n      0xffffffffffffffffffffffff\n      and\n      lt\n        /* \"contracts/Fund.sol\":4874:5046  for (uint96 k = 0; k < fundDonations[i][userAddresses[j]].length; k++){... */\n      iszero\n      tag_144\n      jumpi\n        /* \"contracts/Fund.sol\":4982:4995  fundDonations */\n      0x03\n        /* \"contracts/Fund.sol\":4982:4998  fundDonations[i] */\n      0x00\n        /* \"contracts/Fund.sol\":4996:4997  i */\n      dup8\n        /* \"contracts/Fund.sol\":4982:4998  fundDonations[i] */\n      0xffffffffffffffffffffffff\n      and\n      0xffffffffffffffffffffffff\n      and\n      dup2\n      mstore\n      0x20\n      add\n      swap1\n      dup2\n      mstore\n      0x20\n      add\n      0x00\n      keccak256\n        /* \"contracts/Fund.sol\":4982:5016  fundDonations[i][userAddresses[j]] */\n      0x00\n        /* \"contracts/Fund.sol\":4999:5012  userAddresses */\n      dup6\n        /* \"contracts/Fund.sol\":5013:5014  j */\n      dup6\n        /* \"contracts/Fund.sol\":4999:5015  userAddresses[j] */\n      0xffffffffffffffffffffffff\n      and\n      dup2\n      mload\n      dup2\n      lt\n      tag_148\n      jumpi\n      tag_149\n      tag_100\n      jump\t// in\n    tag_149:\n    tag_148:\n      0x20\n      mul\n      0x20\n      add\n      add\n      mload\n        /* \"contracts/Fund.sol\":4982:5016  fundDonations[i][userAddresses[j]] */\n      0xffffffffffffffffffffffffffffffffffffffff\n      and\n      0xffffffffffffffffffffffffffffffffffffffff\n      and\n      dup2\n      mstore\n      0x20\n      add\n      swap1\n      dup2\n      mstore\n      0x20\n      add\n      0x00\n      keccak256\n        /* \"contracts/Fund.sol\":5017:5018  k */\n      dup2\n        /* \"contracts/Fund.sol\":4982:5019  fundDonations[i][userAddresses[j]][k] */\n      0xffffffffffffffffffffffff\n      and\n      dup2\n      sload\n      dup2\n      lt\n      tag_150\n      jumpi\n      tag_151\n      tag_100\n      jump\t// in\n    tag_151:\n    tag_150:\n      swap1\n      0x00\n      mstore\n      keccak256(0x00, 0x20)\n      swap1\n      0x02\n      mul\n      add\n        /* \"contracts/Fund.sol\":4982:5026  fundDonations[i][userAddresses[j]][k].amount */\n      0x01\n      add\n      sload\n        /* \"contracts/Fund.sol\":4967:5026  totalOfUser += fundDonations[i][userAddresses[j]][k].amount */\n      dup3\n      tag_153\n      swap2\n      swap1\n      tag_154\n      jump\t// in\n    tag_153:\n      swap2\n      pop\n        /* \"contracts/Fund.sol\":4940:4943  k++ */\n      dup1\n      dup1\n      tag_155\n      swap1\n      tag_102\n      jump\t// in\n    tag_155:\n      swap2\n      pop\n      pop\n        /* \"contracts/Fund.sol\":4874:5046  for (uint96 k = 0; k < fundDonations[i][userAddresses[j]].length; k++){... */\n      jump(tag_143)\n    tag_144:\n      pop\n        /* \"contracts/Fund.sol\":5079:5096  sqrt(totalOfUser) */\n      tag_156\n        /* \"contracts/Fund.sol\":5084:5095  totalOfUser */\n      dup2\n        /* \"contracts/Fund.sol\":5079:5083  sqrt */\n      tag_157\n        /* \"contracts/Fund.sol\":5079:5096  sqrt(totalOfUser) */\n      jump\t// in\n    tag_156:\n        /* \"contracts/Fund.sol\":5064:5096  totalOfFund += sqrt(totalOfUser) */\n      dup5\n      tag_158\n      swap2\n      swap1\n      tag_154\n      jump\t// in\n    tag_158:\n      swap4\n      pop\n        /* \"contracts/Fund.sol\":4817:5112  {... */\n      pop\n        /* \"contracts/Fund.sol\":4813:4816  j++ */\n      dup1\n      dup1\n      tag_159\n      swap1\n      tag_102\n      jump\t// in\n    tag_159:\n      swap2\n      pop\n      pop\n        /* \"contracts/Fund.sol\":4768:5112  for (uint96 j = 0; j < userAddresses.length; j++){... */\n      jump(tag_140)\n    tag_141:\n      pop\n        /* \"contracts/Fund.sol\":5155:5156  2 */\n      0x02\n        /* \"contracts/Fund.sol\":5140:5151  totalOfFund */\n      dup3\n        /* \"contracts/Fund.sol\":5140:5156  totalOfFund ** 2 */\n      tag_160\n      swap2\n      swap1\n      tag_161\n      jump\t// in\n    tag_160:\n        /* \"contracts/Fund.sol\":5126:5156  totalOfFund = totalOfFund ** 2 */\n      swap2\n      pop\n        /* \"contracts/Fund.sol\":5182:5193  totalOfFund */\n      dup2\n        /* \"contracts/Fund.sol\":5171:5176  ratio */\n      dup6\n        /* \"contracts/Fund.sol\":5177:5178  i */\n      dup5\n        /* \"contracts/Fund.sol\":5171:5179  ratio[i] */\n      0xffffffffffffffffffffffff\n      and\n      dup2\n      mload\n      dup2\n      lt\n      tag_162\n      jumpi\n      tag_163\n      tag_100\n      jump\t// in\n    tag_163:\n    tag_162:\n      0x20\n      mul\n      0x20\n      add\n      add\n        /* \"contracts/Fund.sol\":5171:5193  ratio[i] = totalOfFund */\n      dup2\n      dup2\n      mstore\n      pop\n      pop\n        /* \"contracts/Fund.sol\":5224:5235  totalOfFund */\n      dup2\n        /* \"contracts/Fund.sol\":5208:5235  totalOfRatio += totalOfFund */\n      dup5\n      tag_164\n      swap2\n      swap1\n      tag_154\n      jump\t// in\n    tag_164:\n      swap4\n      pop\n        /* \"contracts/Fund.sol\":4659:5247  {... */\n      pop\n      pop\n        /* \"contracts/Fund.sol\":4655:4658  i++ */\n      dup1\n      dup1\n      tag_165\n      swap1\n      tag_102\n      jump\t// in\n    tag_165:\n      swap2\n      pop\n      pop\n        /* \"contracts/Fund.sol\":4621:5247  for (uint96 i = 0; i < fundCount; i++){... */\n      jump(tag_135)\n    tag_136:\n      pop\n        /* \"contracts/Fund.sol\":5313:5321  uint96 i */\n      0x00\n        /* \"contracts/Fund.sol\":5309:5454  for(uint96 i = 0; i < fundCount; i++){... */\n    tag_166:\n        /* \"contracts/Fund.sol\":5331:5340  fundCount */\n      0x00\n      0x14\n      swap1\n      sload\n      swap1\n      0x0100\n      exp\n      swap1\n      div\n      0xffffffffffffffffffffffff\n      and\n        /* \"contracts/Fund.sol\":5327:5340  i < fundCount */\n      0xffffffffffffffffffffffff\n      and\n        /* \"contracts/Fund.sol\":5327:5328  i */\n      dup2\n        /* \"contracts/Fund.sol\":5327:5340  i < fundCount */\n      0xffffffffffffffffffffffff\n      and\n      lt\n        /* \"contracts/Fund.sol\":5309:5454  for(uint96 i = 0; i < fundCount; i++){... */\n      iszero\n      tag_167\n      jumpi\n        /* \"contracts/Fund.sol\":5430:5442  totalOfRatio */\n      dup2\n        /* \"contracts/Fund.sol\":5396:5401  token */\n      0x00\n      dup1\n      sload\n      swap1\n      0x0100\n      exp\n      swap1\n      div\n      0xffffffffffffffffffffffffffffffffffffffff\n      and\n        /* \"contracts/Fund.sol\":5396:5411  token.balanceOf */\n      0xffffffffffffffffffffffffffffffffffffffff\n      and\n      0x70a08231\n        /* \"contracts/Fund.sol\":5420:5424  this */\n      address\n        /* \"contracts/Fund.sol\":5396:5426  token.balanceOf(address(this)) */\n      mload(0x40)\n      dup3\n      0xffffffff\n      and\n      0xe0\n      shl\n      dup2\n      mstore\n      0x04\n      add\n      tag_169\n      swap2\n      swap1\n      tag_36\n      jump\t// in\n    tag_169:\n      0x20\n      mload(0x40)\n      dup1\n      dup4\n      sub\n      dup2\n      dup7\n      gas\n      staticcall\n      iszero\n      dup1\n      iszero\n      tag_171\n      jumpi\n      returndatasize\n      0x00\n      dup1\n      returndatacopy\n      revert(0x00, returndatasize)\n    tag_171:\n      pop\n      pop\n      pop\n      pop\n      mload(0x40)\n      returndatasize\n      not(0x1f)\n      0x1f\n      dup3\n      add\n      and\n      dup3\n      add\n      dup1\n      0x40\n      mstore\n      pop\n      dup2\n      add\n      swap1\n      tag_172\n      swap2\n      swap1\n      tag_173\n      jump\t// in\n    tag_172:\n        /* \"contracts/Fund.sol\":5385:5390  ratio */\n      dup5\n        /* \"contracts/Fund.sol\":5391:5392  i */\n      dup4\n        /* \"contracts/Fund.sol\":5385:5393  ratio[i] */\n      0xffffffffffffffffffffffff\n      and\n      dup2\n      mload\n      dup2\n      lt\n      tag_174\n      jumpi\n      tag_175\n      tag_100\n      jump\t// in\n    tag_175:\n    tag_174:\n      0x20\n      mul\n      0x20\n      add\n      add\n      mload\n        /* \"contracts/Fund.sol\":5385:5426  ratio[i] * token.balanceOf(address(this)) */\n      tag_176\n      swap2\n      swap1\n      tag_177\n      jump\t// in\n    tag_176:\n        /* \"contracts/Fund.sol\":5384:5442  (ratio[i] * token.balanceOf(address(this))) / totalOfRatio */\n      tag_178\n      swap2\n      swap1\n      tag_179\n      jump\t// in\n    tag_178:\n        /* \"contracts/Fund.sol\":5361:5366  funds */\n      0x01\n        /* \"contracts/Fund.sol\":5361:5369  funds[i] */\n      0x00\n        /* \"contracts/Fund.sol\":5367:5368  i */\n      dup4\n        /* \"contracts/Fund.sol\":5361:5369  funds[i] */\n      0xffffffffffffffffffffffff\n      and\n      0xffffffffffffffffffffffff\n      and\n      dup2\n      mstore\n      0x20\n      add\n      swap1\n      dup2\n      mstore\n      0x20\n      add\n      0x00\n      keccak256\n        /* \"contracts/Fund.sol\":5361:5381  funds[i].totalAmount */\n      0x03\n      add\n        /* \"contracts/Fund.sol\":5361:5442  funds[i].totalAmount = (ratio[i] * token.balanceOf(address(this))) / totalOfRatio */\n      dup2\n      swap1\n      sstore\n      pop\n        /* \"contracts/Fund.sol\":5342:5345  i++ */\n      dup1\n      dup1\n      tag_180\n      swap1\n      tag_102\n      jump\t// in\n    tag_180:\n      swap2\n      pop\n      pop\n        /* \"contracts/Fund.sol\":5309:5454  for(uint96 i = 0; i < fundCount; i++){... */\n      jump(tag_166)\n    tag_167:\n      pop\n        /* \"contracts/Fund.sol\":4388:5461  {... */\n      pop\n      pop\n        /* \"contracts/Fund.sol\":4356:5461  function calculateQF() internal {... */\n      jump\t// out\n        /* \"contracts/Fund.sol\":5469:5675  function sqrt(uint256 x) private pure returns (uint256 y) {... */\n    tag_157:\n        /* \"contracts/Fund.sol\":5516:5525  uint256 y */\n      0x00\n        /* \"contracts/Fund.sol\":5538:5547  uint256 z */\n      dup1\n        /* \"contracts/Fund.sol\":5560:5561  2 */\n      0x02\n        /* \"contracts/Fund.sol\":5555:5556  1 */\n      0x01\n        /* \"contracts/Fund.sol\":5551:5552  x */\n      dup5\n        /* \"contracts/Fund.sol\":5551:5556  x + 1 */\n      tag_182\n      swap2\n      swap1\n      tag_154\n      jump\t// in\n    tag_182:\n        /* \"contracts/Fund.sol\":5550:5561  (x + 1) / 2 */\n      tag_183\n      swap2\n      swap1\n      tag_179\n      jump\t// in\n    tag_183:\n        /* \"contracts/Fund.sol\":5538:5561  uint256 z = (x + 1) / 2 */\n      swap1\n      pop\n        /* \"contracts/Fund.sol\":5576:5577  x */\n      dup3\n        /* \"contracts/Fund.sol\":5572:5577  y = x */\n      swap2\n      pop\n        /* \"contracts/Fund.sol\":5588:5668  while (z < y) {... */\n    tag_184:\n        /* \"contracts/Fund.sol\":5599:5600  y */\n      dup2\n        /* \"contracts/Fund.sol\":5595:5596  z */\n      dup2\n        /* \"contracts/Fund.sol\":5595:5600  z < y */\n      lt\n        /* \"contracts/Fund.sol\":5588:5668  while (z < y) {... */\n      iszero\n      tag_185\n      jumpi\n        /* \"contracts/Fund.sol\":5621:5622  z */\n      dup1\n        /* \"contracts/Fund.sol\":5617:5622  y = z */\n      swap2\n      pop\n        /* \"contracts/Fund.sol\":5655:5656  2 */\n      0x02\n        /* \"contracts/Fund.sol\":5650:5651  z */\n      dup2\n        /* \"contracts/Fund.sol\":5646:5647  z */\n      dup3\n        /* \"contracts/Fund.sol\":5642:5643  x */\n      dup6\n        /* \"contracts/Fund.sol\":5642:5647  x / z */\n      tag_186\n      swap2\n      swap1\n      tag_179\n      jump\t// in\n    tag_186:\n        /* \"contracts/Fund.sol\":5642:5651  x / z + z */\n      tag_187\n      swap2\n      swap1\n      tag_154\n      jump\t// in\n    tag_187:\n        /* \"contracts/Fund.sol\":5641:5656  (x / z + z) / 2 */\n      tag_188\n      swap2\n      swap1\n      tag_179\n      jump\t// in\n    tag_188:\n        /* \"contracts/Fund.sol\":5637:5656  z = (x / z + z) / 2 */\n      swap1\n      pop\n        /* \"contracts/Fund.sol\":5588:5668  while (z < y) {... */\n      jump(tag_184)\n    tag_185:\n        /* \"contracts/Fund.sol\":5527:5675  {... */\n      pop\n        /* \"contracts/Fund.sol\":5469:5675  function sqrt(uint256 x) private pure returns (uint256 y) {... */\n      swap2\n      swap1\n      pop\n      jump\t// out\n    tag_93:\n      mload(0x40)\n      dup1\n      0x0100\n      add\n      0x40\n      mstore\n      dup1\n      and(0xffffffffffffffffffffffff, 0x00)\n      dup2\n      mstore\n      0x20\n      add\n      and(0xffffffffffffffffffffffffffffffffffffffff, 0x00)\n      dup2\n      mstore\n      0x20\n      add\n      and(0xffffffffffff, 0x00)\n      dup2\n      mstore\n      0x20\n      add\n      and(0xffffffffffff, 0x00)\n      dup2\n      mstore\n      0x20\n      add\n      and(0xffffffffffffffffffffffffffffffffffffffff, 0x00)\n      dup2\n      mstore\n      0x20\n      add\n      0x00\n      dup2\n      mstore\n      0x20\n      add\n      0x00\n      dup2\n      mstore\n      0x20\n      add\n      iszero(iszero(0x00))\n      dup2\n      mstore\n      pop\n      swap1\n      jump\t// out\n        /* \"#utility.yul\":88:205   */\n    tag_190:\n        /* \"#utility.yul\":197:198   */\n      0x00\n        /* \"#utility.yul\":194:195   */\n      dup1\n        /* \"#utility.yul\":187:199   */\n      revert\n        /* \"#utility.yul\":334:460   */\n    tag_192:\n        /* \"#utility.yul\":371:378   */\n      0x00\n        /* \"#utility.yul\":411:453   */\n      0xffffffffffffffffffffffffffffffffffffffff\n        /* \"#utility.yul\":404:409   */\n      dup3\n        /* \"#utility.yul\":400:454   */\n      and\n        /* \"#utility.yul\":389:454   */\n      swap1\n      pop\n        /* \"#utility.yul\":334:460   */\n      swap2\n      swap1\n      pop\n      jump\t// out\n        /* \"#utility.yul\":466:562   */\n    tag_193:\n        /* \"#utility.yul\":503:510   */\n      0x00\n        /* \"#utility.yul\":532:556   */\n      tag_243\n        /* \"#utility.yul\":550:555   */\n      dup3\n        /* \"#utility.yul\":532:556   */\n      tag_192\n      jump\t// in\n    tag_243:\n        /* \"#utility.yul\":521:556   */\n      swap1\n      pop\n        /* \"#utility.yul\":466:562   */\n      swap2\n      swap1\n      pop\n      jump\t// out\n        /* \"#utility.yul\":568:690   */\n    tag_194:\n        /* \"#utility.yul\":641:665   */\n      tag_245\n        /* \"#utility.yul\":659:664   */\n      dup2\n        /* \"#utility.yul\":641:665   */\n      tag_193\n      jump\t// in\n    tag_245:\n        /* \"#utility.yul\":634:639   */\n      dup2\n        /* \"#utility.yul\":631:666   */\n      eq\n        /* \"#utility.yul\":621:684   */\n      tag_246\n      jumpi\n        /* \"#utility.yul\":680:681   */\n      0x00\n        /* \"#utility.yul\":677:678   */\n      dup1\n        /* \"#utility.yul\":670:682   */\n      revert\n        /* \"#utility.yul\":621:684   */\n    tag_246:\n        /* \"#utility.yul\":568:690   */\n      pop\n      jump\t// out\n        /* \"#utility.yul\":696:835   */\n    tag_195:\n        /* \"#utility.yul\":742:747   */\n      0x00\n        /* \"#utility.yul\":780:786   */\n      dup2\n        /* \"#utility.yul\":767:787   */\n      calldataload\n        /* \"#utility.yul\":758:787   */\n      swap1\n      pop\n        /* \"#utility.yul\":796:829   */\n      tag_248\n        /* \"#utility.yul\":823:828   */\n      dup2\n        /* \"#utility.yul\":796:829   */\n      tag_194\n      jump\t// in\n    tag_248:\n        /* \"#utility.yul\":696:835   */\n      swap3\n      swap2\n      pop\n      pop\n      jump\t// out\n        /* \"#utility.yul\":841:918   */\n    tag_196:\n        /* \"#utility.yul\":878:885   */\n      0x00\n        /* \"#utility.yul\":907:912   */\n      dup2\n        /* \"#utility.yul\":896:912   */\n      swap1\n      pop\n        /* \"#utility.yul\":841:918   */\n      swap2\n      swap1\n      pop\n      jump\t// out\n        /* \"#utility.yul\":924:1046   */\n    tag_197:\n        /* \"#utility.yul\":997:1021   */\n      tag_251\n        /* \"#utility.yul\":1015:1020   */\n      dup2\n        /* \"#utility.yul\":997:1021   */\n      tag_196\n      jump\t// in\n    tag_251:\n        /* \"#utility.yul\":990:995   */\n      dup2\n        /* \"#utility.yul\":987:1022   */\n      eq\n        /* \"#utility.yul\":977:1040   */\n      tag_252\n      jumpi\n        /* \"#utility.yul\":1036:1037   */\n      0x00\n        /* \"#utility.yul\":1033:1034   */\n      dup1\n        /* \"#utility.yul\":1026:1038   */\n      revert\n        /* \"#utility.yul\":977:1040   */\n    tag_252:\n        /* \"#utility.yul\":924:1046   */\n      pop\n      jump\t// out\n        /* \"#utility.yul\":1052:1191   */\n    tag_198:\n        /* \"#utility.yul\":1098:1103   */\n      0x00\n        /* \"#utility.yul\":1136:1142   */\n      dup2\n        /* \"#utility.yul\":1123:1143   */\n      calldataload\n        /* \"#utility.yul\":1114:1143   */\n      swap1\n      pop\n        /* \"#utility.yul\":1152:1185   */\n      tag_254\n        /* \"#utility.yul\":1179:1184   */\n      dup2\n        /* \"#utility.yul\":1152:1185   */\n      tag_197\n      jump\t// in\n    tag_254:\n        /* \"#utility.yul\":1052:1191   */\n      swap3\n      swap2\n      pop\n      pop\n      jump\t// out\n        /* \"#utility.yul\":1197:1816   */\n    tag_16:\n        /* \"#utility.yul\":1274:1280   */\n      0x00\n        /* \"#utility.yul\":1282:1288   */\n      dup1\n        /* \"#utility.yul\":1290:1296   */\n      0x00\n        /* \"#utility.yul\":1339:1341   */\n      0x60\n        /* \"#utility.yul\":1327:1336   */\n      dup5\n        /* \"#utility.yul\":1318:1325   */\n      dup7\n        /* \"#utility.yul\":1314:1337   */\n      sub\n        /* \"#utility.yul\":1310:1342   */\n      slt\n        /* \"#utility.yul\":1307:1426   */\n      iszero\n      tag_256\n      jumpi\n        /* \"#utility.yul\":1345:1424   */\n      tag_257\n      tag_190\n      jump\t// in\n    tag_257:\n        /* \"#utility.yul\":1307:1426   */\n    tag_256:\n        /* \"#utility.yul\":1465:1466   */\n      0x00\n        /* \"#utility.yul\":1490:1543   */\n      tag_258\n        /* \"#utility.yul\":1535:1542   */\n      dup7\n        /* \"#utility.yul\":1526:1532   */\n      dup3\n        /* \"#utility.yul\":1515:1524   */\n      dup8\n        /* \"#utility.yul\":1511:1533   */\n      add\n        /* \"#utility.yul\":1490:1543   */\n      tag_195\n      jump\t// in\n    tag_258:\n        /* \"#utility.yul\":1480:1543   */\n      swap4\n      pop\n        /* \"#utility.yul\":1436:1553   */\n      pop\n        /* \"#utility.yul\":1592:1594   */\n      0x20\n        /* \"#utility.yul\":1618:1671   */\n      tag_259\n        /* \"#utility.yul\":1663:1670   */\n      dup7\n        /* \"#utility.yul\":1654:1660   */\n      dup3\n        /* \"#utility.yul\":1643:1652   */\n      dup8\n        /* \"#utility.yul\":1639:1661   */\n      add\n        /* \"#utility.yul\":1618:1671   */\n      tag_195\n      jump\t// in\n    tag_259:\n        /* \"#utility.yul\":1608:1671   */\n      swap3\n      pop\n        /* \"#utility.yul\":1563:1681   */\n      pop\n        /* \"#utility.yul\":1720:1722   */\n      0x40\n        /* \"#utility.yul\":1746:1799   */\n      tag_260\n        /* \"#utility.yul\":1791:1798   */\n      dup7\n        /* \"#utility.yul\":1782:1788   */\n      dup3\n        /* \"#utility.yul\":1771:1780   */\n      dup8\n        /* \"#utility.yul\":1767:1789   */\n      add\n        /* \"#utility.yul\":1746:1799   */\n      tag_198\n      jump\t// in\n    tag_260:\n        /* \"#utility.yul\":1736:1799   */\n      swap2\n      pop\n        /* \"#utility.yul\":1691:1809   */\n      pop\n        /* \"#utility.yul\":1197:1816   */\n      swap3\n      pop\n      swap3\n      pop\n      swap3\n      jump\t// out\n        /* \"#utility.yul\":1822:1957   */\n    tag_199:\n        /* \"#utility.yul\":1910:1916   */\n      0x00\n        /* \"#utility.yul\":1944:1949   */\n      dup2\n        /* \"#utility.yul\":1938:1950   */\n      mload\n        /* \"#utility.yul\":1928:1950   */\n      swap1\n      pop\n        /* \"#utility.yul\":1822:1957   */\n      swap2\n      swap1\n      pop\n      jump\t// out\n        /* \"#utility.yul\":1963:2168   */\n    tag_200:\n        /* \"#utility.yul\":2083:2094   */\n      0x00\n        /* \"#utility.yul\":2117:2123   */\n      dup3\n        /* \"#utility.yul\":2112:2115   */\n      dup3\n        /* \"#utility.yul\":2105:2124   */\n      mstore\n        /* \"#utility.yul\":2157:2161   */\n      0x20\n        /* \"#utility.yul\":2152:2155   */\n      dup3\n        /* \"#utility.yul\":2148:2162   */\n      add\n        /* \"#utility.yul\":2133:2162   */\n      swap1\n      pop\n        /* \"#utility.yul\":1963:2168   */\n      swap3\n      swap2\n      pop\n      pop\n      jump\t// out\n        /* \"#utility.yul\":2174:2327   */\n    tag_201:\n        /* \"#utility.yul\":2262:2266   */\n      0x00\n        /* \"#utility.yul\":2285:2288   */\n      dup2\n        /* \"#utility.yul\":2277:2288   */\n      swap1\n      pop\n        /* \"#utility.yul\":2315:2319   */\n      0x20\n        /* \"#utility.yul\":2310:2313   */\n      dup3\n        /* \"#utility.yul\":2306:2320   */\n      add\n        /* \"#utility.yul\":2298:2320   */\n      swap1\n      pop\n        /* \"#utility.yul\":2174:2327   */\n      swap2\n      swap1\n      pop\n      jump\t// out\n        /* \"#utility.yul\":2333:2442   */\n    tag_202:\n        /* \"#utility.yul\":2369:2376   */\n      0x00\n        /* \"#utility.yul\":2409:2435   */\n      0xffffffffffffffffffffffff\n        /* \"#utility.yul\":2402:2407   */\n      dup3\n        /* \"#utility.yul\":2398:2436   */\n      and\n        /* \"#utility.yul\":2387:2436   */\n      swap1\n      pop\n        /* \"#utility.yul\":2333:2442   */\n      swap2\n      swap1\n      pop\n      jump\t// out\n        /* \"#utility.yul\":2448:2553   */\n    tag_203:\n        /* \"#utility.yul\":2523:2546   */\n      tag_266\n        /* \"#utility.yul\":2540:2545   */\n      dup2\n        /* \"#utility.yul\":2523:2546   */\n      tag_202\n      jump\t// in\n    tag_266:\n        /* \"#utility.yul\":2518:2521   */\n      dup3\n        /* \"#utility.yul\":2511:2547   */\n      mstore\n        /* \"#utility.yul\":2448:2553   */\n      pop\n      pop\n      jump\t// out\n        /* \"#utility.yul\":2559:2667   */\n    tag_204:\n        /* \"#utility.yul\":2636:2660   */\n      tag_268\n        /* \"#utility.yul\":2654:2659   */\n      dup2\n        /* \"#utility.yul\":2636:2660   */\n      tag_193\n      jump\t// in\n    tag_268:\n        /* \"#utility.yul\":2631:2634   */\n      dup3\n        /* \"#utility.yul\":2624:2661   */\n      mstore\n        /* \"#utility.yul\":2559:2667   */\n      pop\n      pop\n      jump\t// out\n        /* \"#utility.yul\":2673:2770   */\n    tag_205:\n        /* \"#utility.yul\":2709:2716   */\n      0x00\n        /* \"#utility.yul\":2749:2763   */\n      0xffffffffffff\n        /* \"#utility.yul\":2742:2747   */\n      dup3\n        /* \"#utility.yul\":2738:2764   */\n      and\n        /* \"#utility.yul\":2727:2764   */\n      swap1\n      pop\n        /* \"#utility.yul\":2673:2770   */\n      swap2\n      swap1\n      pop\n      jump\t// out\n        /* \"#utility.yul\":2776:2881   */\n    tag_206:\n        /* \"#utility.yul\":2851:2874   */\n      tag_271\n        /* \"#utility.yul\":2868:2873   */\n      dup2\n        /* \"#utility.yul\":2851:2874   */\n      tag_205\n      jump\t// in\n    tag_271:\n        /* \"#utility.yul\":2846:2849   */\n      dup3\n        /* \"#utility.yul\":2839:2875   */\n      mstore\n        /* \"#utility.yul\":2776:2881   */\n      pop\n      pop\n      jump\t// out\n        /* \"#utility.yul\":2887:2995   */\n    tag_207:\n        /* \"#utility.yul\":2964:2988   */\n      tag_273\n        /* \"#utility.yul\":2982:2987   */\n      dup2\n        /* \"#utility.yul\":2964:2988   */\n      tag_196\n      jump\t// in\n    tag_273:\n        /* \"#utility.yul\":2959:2962   */\n      dup3\n        /* \"#utility.yul\":2952:2989   */\n      mstore\n        /* \"#utility.yul\":2887:2995   */\n      pop\n      pop\n      jump\t// out\n        /* \"#utility.yul\":3001:3091   */\n    tag_208:\n        /* \"#utility.yul\":3035:3042   */\n      0x00\n        /* \"#utility.yul\":3078:3083   */\n      dup2\n        /* \"#utility.yul\":3071:3084   */\n      iszero\n        /* \"#utility.yul\":3064:3085   */\n      iszero\n        /* \"#utility.yul\":3053:3085   */\n      swap1\n      pop\n        /* \"#utility.yul\":3001:3091   */\n      swap2\n      swap1\n      pop\n      jump\t// out\n        /* \"#utility.yul\":3097:3196   */\n    tag_209:\n        /* \"#utility.yul\":3168:3189   */\n      tag_276\n        /* \"#utility.yul\":3183:3188   */\n      dup2\n        /* \"#utility.yul\":3168:3189   */\n      tag_208\n      jump\t// in\n    tag_276:\n        /* \"#utility.yul\":3163:3166   */\n      dup3\n        /* \"#utility.yul\":3156:3190   */\n      mstore\n        /* \"#utility.yul\":3097:3196   */\n      pop\n      pop\n      jump\t// out\n        /* \"#utility.yul\":3262:4808   */\n    tag_210:\n        /* \"#utility.yul\":3391:3397   */\n      0x0100\n        /* \"#utility.yul\":3386:3389   */\n      dup3\n        /* \"#utility.yul\":3382:3398   */\n      add\n        /* \"#utility.yul\":3478:3482   */\n      0x00\n        /* \"#utility.yul\":3471:3476   */\n      dup3\n        /* \"#utility.yul\":3467:3483   */\n      add\n        /* \"#utility.yul\":3461:3484   */\n      mload\n        /* \"#utility.yul\":3497:3558   */\n      tag_278\n        /* \"#utility.yul\":3552:3556   */\n      0x00\n        /* \"#utility.yul\":3547:3550   */\n      dup6\n        /* \"#utility.yul\":3543:3557   */\n      add\n        /* \"#utility.yul\":3529:3541   */\n      dup3\n        /* \"#utility.yul\":3497:3558   */\n      tag_203\n      jump\t// in\n    tag_278:\n        /* \"#utility.yul\":3408:3568   */\n      pop\n        /* \"#utility.yul\":3651:3655   */\n      0x20\n        /* \"#utility.yul\":3644:3649   */\n      dup3\n        /* \"#utility.yul\":3640:3656   */\n      add\n        /* \"#utility.yul\":3634:3657   */\n      mload\n        /* \"#utility.yul\":3670:3733   */\n      tag_279\n        /* \"#utility.yul\":3727:3731   */\n      0x20\n        /* \"#utility.yul\":3722:3725   */\n      dup6\n        /* \"#utility.yul\":3718:3732   */\n      add\n        /* \"#utility.yul\":3704:3716   */\n      dup3\n        /* \"#utility.yul\":3670:3733   */\n      tag_204\n      jump\t// in\n    tag_279:\n        /* \"#utility.yul\":3578:3743   */\n      pop\n        /* \"#utility.yul\":3830:3834   */\n      0x40\n        /* \"#utility.yul\":3823:3828   */\n      dup3\n        /* \"#utility.yul\":3819:3835   */\n      add\n        /* \"#utility.yul\":3813:3836   */\n      mload\n        /* \"#utility.yul\":3849:3910   */\n      tag_280\n        /* \"#utility.yul\":3904:3908   */\n      0x40\n        /* \"#utility.yul\":3899:3902   */\n      dup6\n        /* \"#utility.yul\":3895:3909   */\n      add\n        /* \"#utility.yul\":3881:3893   */\n      dup3\n        /* \"#utility.yul\":3849:3910   */\n      tag_206\n      jump\t// in\n    tag_280:\n        /* \"#utility.yul\":3753:3920   */\n      pop\n        /* \"#utility.yul\":4007:4011   */\n      0x60\n        /* \"#utility.yul\":4000:4005   */\n      dup3\n        /* \"#utility.yul\":3996:4012   */\n      add\n        /* \"#utility.yul\":3990:4013   */\n      mload\n        /* \"#utility.yul\":4026:4087   */\n      tag_281\n        /* \"#utility.yul\":4081:4085   */\n      0x60\n        /* \"#utility.yul\":4076:4079   */\n      dup6\n        /* \"#utility.yul\":4072:4086   */\n      add\n        /* \"#utility.yul\":4058:4070   */\n      dup3\n        /* \"#utility.yul\":4026:4087   */\n      tag_206\n      jump\t// in\n    tag_281:\n        /* \"#utility.yul\":3930:4097   */\n      pop\n        /* \"#utility.yul\":4180:4184   */\n      0x80\n        /* \"#utility.yul\":4173:4178   */\n      dup3\n        /* \"#utility.yul\":4169:4185   */\n      add\n        /* \"#utility.yul\":4163:4186   */\n      mload\n        /* \"#utility.yul\":4199:4262   */\n      tag_282\n        /* \"#utility.yul\":4256:4260   */\n      0x80\n        /* \"#utility.yul\":4251:4254   */\n      dup6\n        /* \"#utility.yul\":4247:4261   */\n      add\n        /* \"#utility.yul\":4233:4245   */\n      dup3\n        /* \"#utility.yul\":4199:4262   */\n      tag_204\n      jump\t// in\n    tag_282:\n        /* \"#utility.yul\":4107:4272   */\n      pop\n        /* \"#utility.yul\":4359:4363   */\n      0xa0\n        /* \"#utility.yul\":4352:4357   */\n      dup3\n        /* \"#utility.yul\":4348:4364   */\n      add\n        /* \"#utility.yul\":4342:4365   */\n      mload\n        /* \"#utility.yul\":4378:4441   */\n      tag_283\n        /* \"#utility.yul\":4435:4439   */\n      0xa0\n        /* \"#utility.yul\":4430:4433   */\n      dup6\n        /* \"#utility.yul\":4426:4440   */\n      add\n        /* \"#utility.yul\":4412:4424   */\n      dup3\n        /* \"#utility.yul\":4378:4441   */\n      tag_207\n      jump\t// in\n    tag_283:\n        /* \"#utility.yul\":4282:4451   */\n      pop\n        /* \"#utility.yul\":4540:4544   */\n      0xc0\n        /* \"#utility.yul\":4533:4538   */\n      dup3\n        /* \"#utility.yul\":4529:4545   */\n      add\n        /* \"#utility.yul\":4523:4546   */\n      mload\n        /* \"#utility.yul\":4559:4622   */\n      tag_284\n        /* \"#utility.yul\":4616:4620   */\n      0xc0\n        /* \"#utility.yul\":4611:4614   */\n      dup6\n        /* \"#utility.yul\":4607:4621   */\n      add\n        /* \"#utility.yul\":4593:4605   */\n      dup3\n        /* \"#utility.yul\":4559:4622   */\n      tag_207\n      jump\t// in\n    tag_284:\n        /* \"#utility.yul\":4461:4632   */\n      pop\n        /* \"#utility.yul\":4715:4719   */\n      0xe0\n        /* \"#utility.yul\":4708:4713   */\n      dup3\n        /* \"#utility.yul\":4704:4720   */\n      add\n        /* \"#utility.yul\":4698:4721   */\n      mload\n        /* \"#utility.yul\":4734:4791   */\n      tag_285\n        /* \"#utility.yul\":4785:4789   */\n      0xe0\n        /* \"#utility.yul\":4780:4783   */\n      dup6\n        /* \"#utility.yul\":4776:4790   */\n      add\n        /* \"#utility.yul\":4762:4774   */\n      dup3\n        /* \"#utility.yul\":4734:4791   */\n      tag_209\n      jump\t// in\n    tag_285:\n        /* \"#utility.yul\":4642:4801   */\n      pop\n        /* \"#utility.yul\":3360:4808   */\n      pop\n        /* \"#utility.yul\":3262:4808   */\n      pop\n      pop\n      jump\t// out\n        /* \"#utility.yul\":4814:5079   */\n    tag_211:\n        /* \"#utility.yul\":4925:4935   */\n      0x00\n        /* \"#utility.yul\":4946:5034   */\n      tag_287\n        /* \"#utility.yul\":5030:5033   */\n      dup4\n        /* \"#utility.yul\":5022:5028   */\n      dup4\n        /* \"#utility.yul\":4946:5034   */\n      tag_210\n      jump\t// in\n    tag_287:\n        /* \"#utility.yul\":5066:5072   */\n      0x0100\n        /* \"#utility.yul\":5061:5064   */\n      dup4\n        /* \"#utility.yul\":5057:5073   */\n      add\n        /* \"#utility.yul\":5043:5073   */\n      swap1\n      pop\n        /* \"#utility.yul\":4814:5079   */\n      swap3\n      swap2\n      pop\n      pop\n      jump\t// out\n        /* \"#utility.yul\":5085:5219   */\n    tag_212:\n        /* \"#utility.yul\":5176:5180   */\n      0x00\n        /* \"#utility.yul\":5208:5212   */\n      0x20\n        /* \"#utility.yul\":5203:5206   */\n      dup3\n        /* \"#utility.yul\":5199:5213   */\n      add\n        /* \"#utility.yul\":5191:5213   */\n      swap1\n      pop\n        /* \"#utility.yul\":5085:5219   */\n      swap2\n      swap1\n      pop\n      jump\t// out\n        /* \"#utility.yul\":5289:6189   */\n    tag_213:\n        /* \"#utility.yul\":5450:5453   */\n      0x00\n        /* \"#utility.yul\":5479:5554   */\n      tag_290\n        /* \"#utility.yul\":5548:5553   */\n      dup3\n        /* \"#utility.yul\":5479:5554   */\n      tag_199\n      jump\t// in\n    tag_290:\n        /* \"#utility.yul\":5570:5677   */\n      tag_291\n        /* \"#utility.yul\":5670:5676   */\n      dup2\n        /* \"#utility.yul\":5665:5668   */\n      dup6\n        /* \"#utility.yul\":5570:5677   */\n      tag_200\n      jump\t// in\n    tag_291:\n        /* \"#utility.yul\":5563:5677   */\n      swap4\n      pop\n        /* \"#utility.yul\":5701:5778   */\n      tag_292\n        /* \"#utility.yul\":5772:5777   */\n      dup4\n        /* \"#utility.yul\":5701:5778   */\n      tag_201\n      jump\t// in\n    tag_292:\n        /* \"#utility.yul\":5801:5808   */\n      dup1\n        /* \"#utility.yul\":5832:5833   */\n      0x00\n        /* \"#utility.yul\":5817:6164   */\n    tag_293:\n        /* \"#utility.yul\":5842:5848   */\n      dup4\n        /* \"#utility.yul\":5839:5840   */\n      dup2\n        /* \"#utility.yul\":5836:5849   */\n      lt\n        /* \"#utility.yul\":5817:6164   */\n      iszero\n      tag_295\n      jumpi\n        /* \"#utility.yul\":5918:5924   */\n      dup2\n        /* \"#utility.yul\":5912:5925   */\n      mload\n        /* \"#utility.yul\":5945:6050   */\n      tag_296\n        /* \"#utility.yul\":6046:6049   */\n      dup9\n        /* \"#utility.yul\":6031:6044   */\n      dup3\n        /* \"#utility.yul\":5945:6050   */\n      tag_211\n      jump\t// in\n    tag_296:\n        /* \"#utility.yul\":5938:6050   */\n      swap8\n      pop\n        /* \"#utility.yul\":6073:6154   */\n      tag_297\n        /* \"#utility.yul\":6147:6153   */\n      dup4\n        /* \"#utility.yul\":6073:6154   */\n      tag_212\n      jump\t// in\n    tag_297:\n        /* \"#utility.yul\":6063:6154   */\n      swap3\n      pop\n        /* \"#utility.yul\":5877:6164   */\n      pop\n        /* \"#utility.yul\":5864:5865   */\n      0x01\n        /* \"#utility.yul\":5861:5862   */\n      dup2\n        /* \"#utility.yul\":5857:5866   */\n      add\n        /* \"#utility.yul\":5852:5866   */\n      swap1\n      pop\n        /* \"#utility.yul\":5817:6164   */\n      jump(tag_293)\n    tag_295:\n        /* \"#utility.yul\":5821:5835   */\n      pop\n        /* \"#utility.yul\":6180:6183   */\n      dup6\n        /* \"#utility.yul\":6173:6183   */\n      swap4\n      pop\n        /* \"#utility.yul\":5455:6189   */\n      pop\n      pop\n      pop\n        /* \"#utility.yul\":5289:6189   */\n      swap3\n      swap2\n      pop\n      pop\n      jump\t// out\n        /* \"#utility.yul\":6195:6652   */\n    tag_22:\n        /* \"#utility.yul\":6380:6384   */\n      0x00\n        /* \"#utility.yul\":6418:6420   */\n      0x20\n        /* \"#utility.yul\":6407:6416   */\n      dup3\n        /* \"#utility.yul\":6403:6421   */\n      add\n        /* \"#utility.yul\":6395:6421   */\n      swap1\n      pop\n        /* \"#utility.yul\":6467:6476   */\n      dup2\n        /* \"#utility.yul\":6461:6465   */\n      dup2\n        /* \"#utility.yul\":6457:6477   */\n      sub\n        /* \"#utility.yul\":6453:6454   */\n      0x00\n        /* \"#utility.yul\":6442:6451   */\n      dup4\n        /* \"#utility.yul\":6438:6455   */\n      add\n        /* \"#utility.yul\":6431:6478   */\n      mstore\n        /* \"#utility.yul\":6495:6645   */\n      tag_299\n        /* \"#utility.yul\":6640:6644   */\n      dup2\n        /* \"#utility.yul\":6631:6637   */\n      dup5\n        /* \"#utility.yul\":6495:6645   */\n      tag_213\n      jump\t// in\n    tag_299:\n        /* \"#utility.yul\":6487:6645   */\n      swap1\n      pop\n        /* \"#utility.yul\":6195:6652   */\n      swap3\n      swap2\n      pop\n      pop\n      jump\t// out\n        /* \"#utility.yul\":6658:6778   */\n    tag_214:\n        /* \"#utility.yul\":6730:6753   */\n      tag_301\n        /* \"#utility.yul\":6747:6752   */\n      dup2\n        /* \"#utility.yul\":6730:6753   */\n      tag_202\n      jump\t// in\n    tag_301:\n        /* \"#utility.yul\":6723:6728   */\n      dup2\n        /* \"#utility.yul\":6720:6754   */\n      eq\n        /* \"#utility.yul\":6710:6772   */\n      tag_302\n      jumpi\n        /* \"#utility.yul\":6768:6769   */\n      0x00\n        /* \"#utility.yul\":6765:6766   */\n      dup1\n        /* \"#utility.yul\":6758:6770   */\n      revert\n        /* \"#utility.yul\":6710:6772   */\n    tag_302:\n        /* \"#utility.yul\":6658:6778   */\n      pop\n      jump\t// out\n        /* \"#utility.yul\":6784:6921   */\n    tag_215:\n        /* \"#utility.yul\":6829:6834   */\n      0x00\n        /* \"#utility.yul\":6867:6873   */\n      dup2\n        /* \"#utility.yul\":6854:6874   */\n      calldataload\n        /* \"#utility.yul\":6845:6874   */\n      swap1\n      pop\n        /* \"#utility.yul\":6883:6915   */\n      tag_304\n        /* \"#utility.yul\":6909:6914   */\n      dup2\n        /* \"#utility.yul\":6883:6915   */\n      tag_214\n      jump\t// in\n    tag_304:\n        /* \"#utility.yul\":6784:6921   */\n      swap3\n      swap2\n      pop\n      pop\n      jump\t// out\n        /* \"#utility.yul\":6927:7254   */\n    tag_26:\n        /* \"#utility.yul\":6985:6991   */\n      0x00\n        /* \"#utility.yul\":7034:7036   */\n      0x20\n        /* \"#utility.yul\":7022:7031   */\n      dup3\n        /* \"#utility.yul\":7013:7020   */\n      dup5\n        /* \"#utility.yul\":7009:7032   */\n      sub\n        /* \"#utility.yul\":7005:7037   */\n      slt\n        /* \"#utility.yul\":7002:7121   */\n      iszero\n      tag_306\n      jumpi\n        /* \"#utility.yul\":7040:7119   */\n      tag_307\n      tag_190\n      jump\t// in\n    tag_307:\n        /* \"#utility.yul\":7002:7121   */\n    tag_306:\n        /* \"#utility.yul\":7160:7161   */\n      0x00\n        /* \"#utility.yul\":7185:7237   */\n      tag_308\n        /* \"#utility.yul\":7229:7236   */\n      dup5\n        /* \"#utility.yul\":7220:7226   */\n      dup3\n        /* \"#utility.yul\":7209:7218   */\n      dup6\n        /* \"#utility.yul\":7205:7227   */\n      add\n        /* \"#utility.yul\":7185:7237   */\n      tag_215\n      jump\t// in\n    tag_308:\n        /* \"#utility.yul\":7175:7237   */\n      swap2\n      pop\n        /* \"#utility.yul\":7131:7247   */\n      pop\n        /* \"#utility.yul\":6927:7254   */\n      swap3\n      swap2\n      pop\n      pop\n      jump\t// out\n        /* \"#utility.yul\":7260:7375   */\n    tag_216:\n        /* \"#utility.yul\":7345:7368   */\n      tag_310\n        /* \"#utility.yul\":7362:7367   */\n      dup2\n        /* \"#utility.yul\":7345:7368   */\n      tag_202\n      jump\t// in\n    tag_310:\n        /* \"#utility.yul\":7340:7343   */\n      dup3\n        /* \"#utility.yul\":7333:7369   */\n      mstore\n        /* \"#utility.yul\":7260:7375   */\n      pop\n      pop\n      jump\t// out\n        /* \"#utility.yul\":7381:7499   */\n    tag_217:\n        /* \"#utility.yul\":7468:7492   */\n      tag_312\n        /* \"#utility.yul\":7486:7491   */\n      dup2\n        /* \"#utility.yul\":7468:7492   */\n      tag_193\n      jump\t// in\n    tag_312:\n        /* \"#utility.yul\":7463:7466   */\n      dup3\n        /* \"#utility.yul\":7456:7493   */\n      mstore\n        /* \"#utility.yul\":7381:7499   */\n      pop\n      pop\n      jump\t// out\n        /* \"#utility.yul\":7505:7620   */\n    tag_218:\n        /* \"#utility.yul\":7590:7613   */\n      tag_314\n        /* \"#utility.yul\":7607:7612   */\n      dup2\n        /* \"#utility.yul\":7590:7613   */\n      tag_205\n      jump\t// in\n    tag_314:\n        /* \"#utility.yul\":7585:7588   */\n      dup3\n        /* \"#utility.yul\":7578:7614   */\n      mstore\n        /* \"#utility.yul\":7505:7620   */\n      pop\n      pop\n      jump\t// out\n        /* \"#utility.yul\":7626:7744   */\n    tag_219:\n        /* \"#utility.yul\":7713:7737   */\n      tag_316\n        /* \"#utility.yul\":7731:7736   */\n      dup2\n        /* \"#utility.yul\":7713:7737   */\n      tag_196\n      jump\t// in\n    tag_316:\n        /* \"#utility.yul\":7708:7711   */\n      dup3\n        /* \"#utility.yul\":7701:7738   */\n      mstore\n        /* \"#utility.yul\":7626:7744   */\n      pop\n      pop\n      jump\t// out\n        /* \"#utility.yul\":7750:7859   */\n    tag_220:\n        /* \"#utility.yul\":7831:7852   */\n      tag_318\n        /* \"#utility.yul\":7846:7851   */\n      dup2\n        /* \"#utility.yul\":7831:7852   */\n      tag_208\n      jump\t// in\n    tag_318:\n        /* \"#utility.yul\":7826:7829   */\n      dup3\n        /* \"#utility.yul\":7819:7853   */\n      mstore\n        /* \"#utility.yul\":7750:7859   */\n      pop\n      pop\n      jump\t// out\n        /* \"#utility.yul\":7865:8838   */\n    tag_29:\n        /* \"#utility.yul\":8142:8146   */\n      0x00\n        /* \"#utility.yul\":8180:8183   */\n      0x0100\n        /* \"#utility.yul\":8169:8178   */\n      dup3\n        /* \"#utility.yul\":8165:8184   */\n      add\n        /* \"#utility.yul\":8157:8184   */\n      swap1\n      pop\n        /* \"#utility.yul\":8194:8263   */\n      tag_320\n        /* \"#utility.yul\":8260:8261   */\n      0x00\n        /* \"#utility.yul\":8249:8258   */\n      dup4\n        /* \"#utility.yul\":8245:8262   */\n      add\n        /* \"#utility.yul\":8236:8242   */\n      dup12\n        /* \"#utility.yul\":8194:8263   */\n      tag_216\n      jump\t// in\n    tag_320:\n        /* \"#utility.yul\":8273:8345   */\n      tag_321\n        /* \"#utility.yul\":8341:8343   */\n      0x20\n        /* \"#utility.yul\":8330:8339   */\n      dup4\n        /* \"#utility.yul\":8326:8344   */\n      add\n        /* \"#utility.yul\":8317:8323   */\n      dup11\n        /* \"#utility.yul\":8273:8345   */\n      tag_217\n      jump\t// in\n    tag_321:\n        /* \"#utility.yul\":8355:8425   */\n      tag_322\n        /* \"#utility.yul\":8421:8423   */\n      0x40\n        /* \"#utility.yul\":8410:8419   */\n      dup4\n        /* \"#utility.yul\":8406:8424   */\n      add\n        /* \"#utility.yul\":8397:8403   */\n      dup10\n        /* \"#utility.yul\":8355:8425   */\n      tag_218\n      jump\t// in\n    tag_322:\n        /* \"#utility.yul\":8435:8505   */\n      tag_323\n        /* \"#utility.yul\":8501:8503   */\n      0x60\n        /* \"#utility.yul\":8490:8499   */\n      dup4\n        /* \"#utility.yul\":8486:8504   */\n      add\n        /* \"#utility.yul\":8477:8483   */\n      dup9\n        /* \"#utility.yul\":8435:8505   */\n      tag_218\n      jump\t// in\n    tag_323:\n        /* \"#utility.yul\":8515:8588   */\n      tag_324\n        /* \"#utility.yul\":8583:8586   */\n      0x80\n        /* \"#utility.yul\":8572:8581   */\n      dup4\n        /* \"#utility.yul\":8568:8587   */\n      add\n        /* \"#utility.yul\":8559:8565   */\n      dup8\n        /* \"#utility.yul\":8515:8588   */\n      tag_217\n      jump\t// in\n    tag_324:\n        /* \"#utility.yul\":8598:8671   */\n      tag_325\n        /* \"#utility.yul\":8666:8669   */\n      0xa0\n        /* \"#utility.yul\":8655:8664   */\n      dup4\n        /* \"#utility.yul\":8651:8670   */\n      add\n        /* \"#utility.yul\":8642:8648   */\n      dup7\n        /* \"#utility.yul\":8598:8671   */\n      tag_219\n      jump\t// in\n    tag_325:\n        /* \"#utility.yul\":8681:8754   */\n      tag_326\n        /* \"#utility.yul\":8749:8752   */\n      0xc0\n        /* \"#utility.yul\":8738:8747   */\n      dup4\n        /* \"#utility.yul\":8734:8753   */\n      add\n        /* \"#utility.yul\":8725:8731   */\n      dup6\n        /* \"#utility.yul\":8681:8754   */\n      tag_219\n      jump\t// in\n    tag_326:\n        /* \"#utility.yul\":8764:8831   */\n      tag_327\n        /* \"#utility.yul\":8826:8829   */\n      0xe0\n        /* \"#utility.yul\":8815:8824   */\n      dup4\n        /* \"#utility.yul\":8811:8830   */\n      add\n        /* \"#utility.yul\":8802:8808   */\n      dup5\n        /* \"#utility.yul\":8764:8831   */\n      tag_220\n      jump\t// in\n    tag_327:\n        /* \"#utility.yul\":7865:8838   */\n      swap10\n      swap9\n      pop\n      pop\n      pop\n      pop\n      pop\n      pop\n      pop\n      pop\n      pop\n      jump\t// out\n        /* \"#utility.yul\":8844:9316   */\n    tag_33:\n        /* \"#utility.yul\":8911:8917   */\n      0x00\n        /* \"#utility.yul\":8919:8925   */\n      dup1\n        /* \"#utility.yul\":8968:8970   */\n      0x40\n        /* \"#utility.yul\":8956:8965   */\n      dup4\n        /* \"#utility.yul\":8947:8954   */\n      dup6\n        /* \"#utility.yul\":8943:8966   */\n      sub\n        /* \"#utility.yul\":8939:8971   */\n      slt\n        /* \"#utility.yul\":8936:9055   */\n      iszero\n      tag_329\n      jumpi\n        /* \"#utility.yul\":8974:9053   */\n      tag_330\n      tag_190\n      jump\t// in\n    tag_330:\n        /* \"#utility.yul\":8936:9055   */\n    tag_329:\n        /* \"#utility.yul\":9094:9095   */\n      0x00\n        /* \"#utility.yul\":9119:9171   */\n      tag_331\n        /* \"#utility.yul\":9163:9170   */\n      dup6\n        /* \"#utility.yul\":9154:9160   */\n      dup3\n        /* \"#utility.yul\":9143:9152   */\n      dup7\n        /* \"#utility.yul\":9139:9161   */\n      add\n        /* \"#utility.yul\":9119:9171   */\n      tag_215\n      jump\t// in\n    tag_331:\n        /* \"#utility.yul\":9109:9171   */\n      swap3\n      pop\n        /* \"#utility.yul\":9065:9181   */\n      pop\n        /* \"#utility.yul\":9220:9222   */\n      0x20\n        /* \"#utility.yul\":9246:9299   */\n      tag_332\n        /* \"#utility.yul\":9291:9298   */\n      dup6\n        /* \"#utility.yul\":9282:9288   */\n      dup3\n        /* \"#utility.yul\":9271:9280   */\n      dup7\n        /* \"#utility.yul\":9267:9289   */\n      add\n        /* \"#utility.yul\":9246:9299   */\n      tag_198\n      jump\t// in\n    tag_332:\n        /* \"#utility.yul\":9236:9299   */\n      swap2\n      pop\n        /* \"#utility.yul\":9191:9309   */\n      pop\n        /* \"#utility.yul\":8844:9316   */\n      swap3\n      pop\n      swap3\n      swap1\n      pop\n      jump\t// out\n        /* \"#utility.yul\":9322:9544   */\n    tag_36:\n        /* \"#utility.yul\":9415:9419   */\n      0x00\n        /* \"#utility.yul\":9453:9455   */\n      0x20\n        /* \"#utility.yul\":9442:9451   */\n      dup3\n        /* \"#utility.yul\":9438:9456   */\n      add\n        /* \"#utility.yul\":9430:9456   */\n      swap1\n      pop\n        /* \"#utility.yul\":9466:9537   */\n      tag_334\n        /* \"#utility.yul\":9534:9535   */\n      0x00\n        /* \"#utility.yul\":9523:9532   */\n      dup4\n        /* \"#utility.yul\":9519:9536   */\n      add\n        /* \"#utility.yul\":9510:9516   */\n      dup5\n        /* \"#utility.yul\":9466:9537   */\n      tag_217\n      jump\t// in\n    tag_334:\n        /* \"#utility.yul\":9322:9544   */\n      swap3\n      swap2\n      pop\n      pop\n      jump\t// out\n        /* \"#utility.yul\":9550:10020   */\n    tag_40:\n        /* \"#utility.yul\":9616:9622   */\n      0x00\n        /* \"#utility.yul\":9624:9630   */\n      dup1\n        /* \"#utility.yul\":9673:9675   */\n      0x40\n        /* \"#utility.yul\":9661:9670   */\n      dup4\n        /* \"#utility.yul\":9652:9659   */\n      dup6\n        /* \"#utility.yul\":9648:9671   */\n      sub\n        /* \"#utility.yul\":9644:9676   */\n      slt\n        /* \"#utility.yul\":9641:9760   */\n      iszero\n      tag_336\n      jumpi\n        /* \"#utility.yul\":9679:9758   */\n      tag_337\n      tag_190\n      jump\t// in\n    tag_337:\n        /* \"#utility.yul\":9641:9760   */\n    tag_336:\n        /* \"#utility.yul\":9799:9800   */\n      0x00\n        /* \"#utility.yul\":9824:9876   */\n      tag_338\n        /* \"#utility.yul\":9868:9875   */\n      dup6\n        /* \"#utility.yul\":9859:9865   */\n      dup3\n        /* \"#utility.yul\":9848:9857   */\n      dup7\n        /* \"#utility.yul\":9844:9866   */\n      add\n        /* \"#utility.yul\":9824:9876   */\n      tag_215\n      jump\t// in\n    tag_338:\n        /* \"#utility.yul\":9814:9876   */\n      swap3\n      pop\n        /* \"#utility.yul\":9770:9886   */\n      pop\n        /* \"#utility.yul\":9925:9927   */\n      0x20\n        /* \"#utility.yul\":9951:10003   */\n      tag_339\n        /* \"#utility.yul\":9995:10002   */\n      dup6\n        /* \"#utility.yul\":9986:9992   */\n      dup3\n        /* \"#utility.yul\":9975:9984   */\n      dup7\n        /* \"#utility.yul\":9971:9993   */\n      add\n        /* \"#utility.yul\":9951:10003   */\n      tag_215\n      jump\t// in\n    tag_339:\n        /* \"#utility.yul\":9941:10003   */\n      swap2\n      pop\n        /* \"#utility.yul\":9896:10013   */\n      pop\n        /* \"#utility.yul\":9550:10020   */\n      swap3\n      pop\n      swap3\n      swap1\n      pop\n      jump\t// out\n        /* \"#utility.yul\":10026:10244   */\n    tag_47:\n        /* \"#utility.yul\":10117:10121   */\n      0x00\n        /* \"#utility.yul\":10155:10157   */\n      0x20\n        /* \"#utility.yul\":10144:10153   */\n      dup3\n        /* \"#utility.yul\":10140:10158   */\n      add\n        /* \"#utility.yul\":10132:10158   */\n      swap1\n      pop\n        /* \"#utility.yul\":10168:10237   */\n      tag_341\n        /* \"#utility.yul\":10234:10235   */\n      0x00\n        /* \"#utility.yul\":10223:10232   */\n      dup4\n        /* \"#utility.yul\":10219:10236   */\n      add\n        /* \"#utility.yul\":10210:10216   */\n      dup5\n        /* \"#utility.yul\":10168:10237   */\n      tag_216\n      jump\t// in\n    tag_341:\n        /* \"#utility.yul\":10026:10244   */\n      swap3\n      swap2\n      pop\n      pop\n      jump\t// out\n        /* \"#utility.yul\":10250:10867   */\n    tag_56:\n        /* \"#utility.yul\":10326:10332   */\n      0x00\n        /* \"#utility.yul\":10334:10340   */\n      dup1\n        /* \"#utility.yul\":10342:10348   */\n      0x00\n        /* \"#utility.yul\":10391:10393   */\n      0x60\n        /* \"#utility.yul\":10379:10388   */\n      dup5\n        /* \"#utility.yul\":10370:10377   */\n      dup7\n        /* \"#utility.yul\":10366:10389   */\n      sub\n        /* \"#utility.yul\":10362:10394   */\n      slt\n        /* \"#utility.yul\":10359:10478   */\n      iszero\n      tag_343\n      jumpi\n        /* \"#utility.yul\":10397:10476   */\n      tag_344\n      tag_190\n      jump\t// in\n    tag_344:\n        /* \"#utility.yul\":10359:10478   */\n    tag_343:\n        /* \"#utility.yul\":10517:10518   */\n      0x00\n        /* \"#utility.yul\":10542:10594   */\n      tag_345\n        /* \"#utility.yul\":10586:10593   */\n      dup7\n        /* \"#utility.yul\":10577:10583   */\n      dup3\n        /* \"#utility.yul\":10566:10575   */\n      dup8\n        /* \"#utility.yul\":10562:10584   */\n      add\n        /* \"#utility.yul\":10542:10594   */\n      tag_215\n      jump\t// in\n    tag_345:\n        /* \"#utility.yul\":10532:10594   */\n      swap4\n      pop\n        /* \"#utility.yul\":10488:10604   */\n      pop\n        /* \"#utility.yul\":10643:10645   */\n      0x20\n        /* \"#utility.yul\":10669:10722   */\n      tag_346\n        /* \"#utility.yul\":10714:10721   */\n      dup7\n        /* \"#utility.yul\":10705:10711   */\n      dup3\n        /* \"#utility.yul\":10694:10703   */\n      dup8\n        /* \"#utility.yul\":10690:10712   */\n      add\n        /* \"#utility.yul\":10669:10722   */\n      tag_195\n      jump\t// in\n    tag_346:\n        /* \"#utility.yul\":10659:10722   */\n      swap3\n      pop\n        /* \"#utility.yul\":10614:10732   */\n      pop\n        /* \"#utility.yul\":10771:10773   */\n      0x40\n        /* \"#utility.yul\":10797:10850   */\n      tag_347\n        /* \"#utility.yul\":10842:10849   */\n      dup7\n        /* \"#utility.yul\":10833:10839   */\n      dup3\n        /* \"#utility.yul\":10822:10831   */\n      dup8\n        /* \"#utility.yul\":10818:10840   */\n      add\n        /* \"#utility.yul\":10797:10850   */\n      tag_198\n      jump\t// in\n    tag_347:\n        /* \"#utility.yul\":10787:10850   */\n      swap2\n      pop\n        /* \"#utility.yul\":10742:10860   */\n      pop\n        /* \"#utility.yul\":10250:10867   */\n      swap3\n      pop\n      swap3\n      pop\n      swap3\n      jump\t// out\n        /* \"#utility.yul\":10873:11311   */\n    tag_59:\n        /* \"#utility.yul\":11020:11024   */\n      0x00\n        /* \"#utility.yul\":11058:11060   */\n      0x60\n        /* \"#utility.yul\":11047:11056   */\n      dup3\n        /* \"#utility.yul\":11043:11061   */\n      add\n        /* \"#utility.yul\":11035:11061   */\n      swap1\n      pop\n        /* \"#utility.yul\":11071:11142   */\n      tag_349\n        /* \"#utility.yul\":11139:11140   */\n      0x00\n        /* \"#utility.yul\":11128:11137   */\n      dup4\n        /* \"#utility.yul\":11124:11141   */\n      add\n        /* \"#utility.yul\":11115:11121   */\n      dup7\n        /* \"#utility.yul\":11071:11142   */\n      tag_217\n      jump\t// in\n    tag_349:\n        /* \"#utility.yul\":11152:11222   */\n      tag_350\n        /* \"#utility.yul\":11218:11220   */\n      0x20\n        /* \"#utility.yul\":11207:11216   */\n      dup4\n        /* \"#utility.yul\":11203:11221   */\n      add\n        /* \"#utility.yul\":11194:11200   */\n      dup6\n        /* \"#utility.yul\":11152:11222   */\n      tag_216\n      jump\t// in\n    tag_350:\n        /* \"#utility.yul\":11232:11304   */\n      tag_351\n        /* \"#utility.yul\":11300:11302   */\n      0x40\n        /* \"#utility.yul\":11289:11298   */\n      dup4\n        /* \"#utility.yul\":11285:11303   */\n      add\n        /* \"#utility.yul\":11276:11282   */\n      dup5\n        /* \"#utility.yul\":11232:11304   */\n      tag_219\n      jump\t// in\n    tag_351:\n        /* \"#utility.yul\":10873:11311   */\n      swap5\n      swap4\n      pop\n      pop\n      pop\n      pop\n      jump\t// out\n        /* \"#utility.yul\":11317:11934   */\n    tag_62:\n        /* \"#utility.yul\":11393:11399   */\n      0x00\n        /* \"#utility.yul\":11401:11407   */\n      dup1\n        /* \"#utility.yul\":11409:11415   */\n      0x00\n        /* \"#utility.yul\":11458:11460   */\n      0x60\n        /* \"#utility.yul\":11446:11455   */\n      dup5\n        /* \"#utility.yul\":11437:11444   */\n      dup7\n        /* \"#utility.yul\":11433:11456   */\n      sub\n        /* \"#utility.yul\":11429:11461   */\n      slt\n        /* \"#utility.yul\":11426:11545   */\n      iszero\n      tag_353\n      jumpi\n        /* \"#utility.yul\":11464:11543   */\n      tag_354\n      tag_190\n      jump\t// in\n    tag_354:\n        /* \"#utility.yul\":11426:11545   */\n    tag_353:\n        /* \"#utility.yul\":11584:11585   */\n      0x00\n        /* \"#utility.yul\":11609:11662   */\n      tag_355\n        /* \"#utility.yul\":11654:11661   */\n      dup7\n        /* \"#utility.yul\":11645:11651   */\n      dup3\n        /* \"#utility.yul\":11634:11643   */\n      dup8\n        /* \"#utility.yul\":11630:11652   */\n      add\n        /* \"#utility.yul\":11609:11662   */\n      tag_195\n      jump\t// in\n    tag_355:\n        /* \"#utility.yul\":11599:11662   */\n      swap4\n      pop\n        /* \"#utility.yul\":11555:11672   */\n      pop\n        /* \"#utility.yul\":11711:11713   */\n      0x20\n        /* \"#utility.yul\":11737:11789   */\n      tag_356\n        /* \"#utility.yul\":11781:11788   */\n      dup7\n        /* \"#utility.yul\":11772:11778   */\n      dup3\n        /* \"#utility.yul\":11761:11770   */\n      dup8\n        /* \"#utility.yul\":11757:11779   */\n      add\n        /* \"#utility.yul\":11737:11789   */\n      tag_215\n      jump\t// in\n    tag_356:\n        /* \"#utility.yul\":11727:11789   */\n      swap3\n      pop\n        /* \"#utility.yul\":11682:11799   */\n      pop\n        /* \"#utility.yul\":11838:11840   */\n      0x40\n        /* \"#utility.yul\":11864:11917   */\n      tag_357\n        /* \"#utility.yul\":11909:11916   */\n      dup7\n        /* \"#utility.yul\":11900:11906   */\n      dup3\n        /* \"#utility.yul\":11889:11898   */\n      dup8\n        /* \"#utility.yul\":11885:11907   */\n      add\n        /* \"#utility.yul\":11864:11917   */\n      tag_198\n      jump\t// in\n    tag_357:\n        /* \"#utility.yul\":11854:11917   */\n      swap2\n      pop\n        /* \"#utility.yul\":11809:11927   */\n      pop\n        /* \"#utility.yul\":11317:11934   */\n      swap3\n      pop\n      swap3\n      pop\n      swap3\n      jump\t// out\n        /* \"#utility.yul\":11940:12703   */\n    tag_67:\n        /* \"#utility.yul\":12025:12031   */\n      0x00\n        /* \"#utility.yul\":12033:12039   */\n      dup1\n        /* \"#utility.yul\":12041:12047   */\n      0x00\n        /* \"#utility.yul\":12049:12055   */\n      dup1\n        /* \"#utility.yul\":12098:12101   */\n      0x80\n        /* \"#utility.yul\":12086:12095   */\n      dup6\n        /* \"#utility.yul\":12077:12084   */\n      dup8\n        /* \"#utility.yul\":12073:12096   */\n      sub\n        /* \"#utility.yul\":12069:12102   */\n      slt\n        /* \"#utility.yul\":12066:12186   */\n      iszero\n      tag_359\n      jumpi\n        /* \"#utility.yul\":12105:12184   */\n      tag_360\n      tag_190\n      jump\t// in\n    tag_360:\n        /* \"#utility.yul\":12066:12186   */\n    tag_359:\n        /* \"#utility.yul\":12225:12226   */\n      0x00\n        /* \"#utility.yul\":12250:12302   */\n      tag_361\n        /* \"#utility.yul\":12294:12301   */\n      dup8\n        /* \"#utility.yul\":12285:12291   */\n      dup3\n        /* \"#utility.yul\":12274:12283   */\n      dup9\n        /* \"#utility.yul\":12270:12292   */\n      add\n        /* \"#utility.yul\":12250:12302   */\n      tag_215\n      jump\t// in\n    tag_361:\n        /* \"#utility.yul\":12240:12302   */\n      swap5\n      pop\n        /* \"#utility.yul\":12196:12312   */\n      pop\n        /* \"#utility.yul\":12351:12353   */\n      0x20\n        /* \"#utility.yul\":12377:12430   */\n      tag_362\n        /* \"#utility.yul\":12422:12429   */\n      dup8\n        /* \"#utility.yul\":12413:12419   */\n      dup3\n        /* \"#utility.yul\":12402:12411   */\n      dup9\n        /* \"#utility.yul\":12398:12420   */\n      add\n        /* \"#utility.yul\":12377:12430   */\n      tag_195\n      jump\t// in\n    tag_362:\n        /* \"#utility.yul\":12367:12430   */\n      swap4\n      pop\n        /* \"#utility.yul\":12322:12440   */\n      pop\n        /* \"#utility.yul\":12479:12481   */\n      0x40\n        /* \"#utility.yul\":12505:12558   */\n      tag_363\n        /* \"#utility.yul\":12550:12557   */\n      dup8\n        /* \"#utility.yul\":12541:12547   */\n      dup3\n        /* \"#utility.yul\":12530:12539   */\n      dup9\n        /* \"#utility.yul\":12526:12548   */\n      add\n        /* \"#utility.yul\":12505:12558   */\n      tag_195\n      jump\t// in\n    tag_363:\n        /* \"#utility.yul\":12495:12558   */\n      swap3\n      pop\n        /* \"#utility.yul\":12450:12568   */\n      pop\n        /* \"#utility.yul\":12607:12609   */\n      0x60\n        /* \"#utility.yul\":12633:12686   */\n      tag_364\n        /* \"#utility.yul\":12678:12685   */\n      dup8\n        /* \"#utility.yul\":12669:12675   */\n      dup3\n        /* \"#utility.yul\":12658:12667   */\n      dup9\n        /* \"#utility.yul\":12654:12676   */\n      add\n        /* \"#utility.yul\":12633:12686   */\n      tag_198\n      jump\t// in\n    tag_364:\n        /* \"#utility.yul\":12623:12686   */\n      swap2\n      pop\n        /* \"#utility.yul\":12578:12696   */\n      pop\n        /* \"#utility.yul\":11940:12703   */\n      swap3\n      swap6\n      swap2\n      swap5\n      pop\n      swap3\n      pop\n      jump\t// out\n        /* \"#utility.yul\":12709:13250   */\n    tag_71:\n        /* \"#utility.yul\":12880:12884   */\n      0x00\n        /* \"#utility.yul\":12918:12921   */\n      0x80\n        /* \"#utility.yul\":12907:12916   */\n      dup3\n        /* \"#utility.yul\":12903:12922   */\n      add\n        /* \"#utility.yul\":12895:12922   */\n      swap1\n      pop\n        /* \"#utility.yul\":12932:13003   */\n      tag_366\n        /* \"#utility.yul\":13000:13001   */\n      0x00\n        /* \"#utility.yul\":12989:12998   */\n      dup4\n        /* \"#utility.yul\":12985:13002   */\n      add\n        /* \"#utility.yul\":12976:12982   */\n      dup8\n        /* \"#utility.yul\":12932:13003   */\n      tag_217\n      jump\t// in\n    tag_366:\n        /* \"#utility.yul\":13013:13085   */\n      tag_367\n        /* \"#utility.yul\":13081:13083   */\n      0x20\n        /* \"#utility.yul\":13070:13079   */\n      dup4\n        /* \"#utility.yul\":13066:13084   */\n      add\n        /* \"#utility.yul\":13057:13063   */\n      dup7\n        /* \"#utility.yul\":13013:13085   */\n      tag_217\n      jump\t// in\n    tag_367:\n        /* \"#utility.yul\":13095:13161   */\n      tag_368\n        /* \"#utility.yul\":13157:13159   */\n      0x40\n        /* \"#utility.yul\":13146:13155   */\n      dup4\n        /* \"#utility.yul\":13142:13160   */\n      add\n        /* \"#utility.yul\":13133:13139   */\n      dup6\n        /* \"#utility.yul\":13095:13161   */\n      tag_220\n      jump\t// in\n    tag_368:\n        /* \"#utility.yul\":13171:13243   */\n      tag_369\n        /* \"#utility.yul\":13239:13241   */\n      0x60\n        /* \"#utility.yul\":13228:13237   */\n      dup4\n        /* \"#utility.yul\":13224:13242   */\n      add\n        /* \"#utility.yul\":13215:13221   */\n      dup5\n        /* \"#utility.yul\":13171:13243   */\n      tag_219\n      jump\t// in\n    tag_369:\n        /* \"#utility.yul\":12709:13250   */\n      swap6\n      swap5\n      pop\n      pop\n      pop\n      pop\n      pop\n      jump\t// out\n        /* \"#utility.yul\":13256:13436   */\n    tag_221:\n        /* \"#utility.yul\":13304:13381   */\n      0x4e487b7100000000000000000000000000000000000000000000000000000000\n        /* \"#utility.yul\":13301:13302   */\n      0x00\n        /* \"#utility.yul\":13294:13382   */\n      mstore\n        /* \"#utility.yul\":13401:13405   */\n      0x11\n        /* \"#utility.yul\":13398:13399   */\n      0x04\n        /* \"#utility.yul\":13391:13406   */\n      mstore\n        /* \"#utility.yul\":13425:13429   */\n      0x24\n        /* \"#utility.yul\":13422:13423   */\n      0x00\n        /* \"#utility.yul\":13415:13430   */\n      revert\n        /* \"#utility.yul\":13442:13655   */\n    tag_73:\n        /* \"#utility.yul\":13481:13484   */\n      0x00\n        /* \"#utility.yul\":13500:13519   */\n      tag_372\n        /* \"#utility.yul\":13517:13518   */\n      dup3\n        /* \"#utility.yul\":13500:13519   */\n      tag_202\n      jump\t// in\n    tag_372:\n        /* \"#utility.yul\":13495:13519   */\n      swap2\n      pop\n        /* \"#utility.yul\":13533:13552   */\n      tag_373\n        /* \"#utility.yul\":13550:13551   */\n      dup4\n        /* \"#utility.yul\":13533:13552   */\n      tag_202\n      jump\t// in\n    tag_373:\n        /* \"#utility.yul\":13528:13552   */\n      swap3\n      pop\n        /* \"#utility.yul\":13575:13576   */\n      dup3\n        /* \"#utility.yul\":13572:13573   */\n      dup3\n        /* \"#utility.yul\":13568:13577   */\n      add\n        /* \"#utility.yul\":13561:13577   */\n      swap1\n      pop\n        /* \"#utility.yul\":13598:13624   */\n      0xffffffffffffffffffffffff\n        /* \"#utility.yul\":13593:13596   */\n      dup2\n        /* \"#utility.yul\":13590:13625   */\n      gt\n        /* \"#utility.yul\":13587:13648   */\n      iszero\n      tag_374\n      jumpi\n        /* \"#utility.yul\":13628:13646   */\n      tag_375\n      tag_221\n      jump\t// in\n    tag_375:\n        /* \"#utility.yul\":13587:13648   */\n    tag_374:\n        /* \"#utility.yul\":13442:13655   */\n      swap3\n      swap2\n      pop\n      pop\n      jump\t// out\n        /* \"#utility.yul\":13661:13830   */\n    tag_222:\n        /* \"#utility.yul\":13745:13756   */\n      0x00\n        /* \"#utility.yul\":13779:13785   */\n      dup3\n        /* \"#utility.yul\":13774:13777   */\n      dup3\n        /* \"#utility.yul\":13767:13786   */\n      mstore\n        /* \"#utility.yul\":13819:13823   */\n      0x20\n        /* \"#utility.yul\":13814:13817   */\n      dup3\n        /* \"#utility.yul\":13810:13824   */\n      add\n        /* \"#utility.yul\":13795:13824   */\n      swap1\n      pop\n        /* \"#utility.yul\":13661:13830   */\n      swap3\n      swap2\n      pop\n      pop\n      jump\t// out\n        /* \"#utility.yul\":13836:14013   */\n    tag_223:\n        /* \"#utility.yul\":13976:14005   */\n      0x4d757374206265205f656e644964203c3d2066756e64436f756e740000000000\n        /* \"#utility.yul\":13972:13973   */\n      0x00\n        /* \"#utility.yul\":13964:13970   */\n      dup3\n        /* \"#utility.yul\":13960:13974   */\n      add\n        /* \"#utility.yul\":13953:14006   */\n      mstore\n        /* \"#utility.yul\":13836:14013   */\n      pop\n      jump\t// out\n        /* \"#utility.yul\":14019:14385   */\n    tag_224:\n        /* \"#utility.yul\":14161:14164   */\n      0x00\n        /* \"#utility.yul\":14182:14249   */\n      tag_379\n        /* \"#utility.yul\":14246:14248   */\n      0x1b\n        /* \"#utility.yul\":14241:14244   */\n      dup4\n        /* \"#utility.yul\":14182:14249   */\n      tag_222\n      jump\t// in\n    tag_379:\n        /* \"#utility.yul\":14175:14249   */\n      swap2\n      pop\n        /* \"#utility.yul\":14258:14351   */\n      tag_380\n        /* \"#utility.yul\":14347:14350   */\n      dup3\n        /* \"#utility.yul\":14258:14351   */\n      tag_223\n      jump\t// in\n    tag_380:\n        /* \"#utility.yul\":14376:14378   */\n      0x20\n        /* \"#utility.yul\":14371:14374   */\n      dup3\n        /* \"#utility.yul\":14367:14379   */\n      add\n        /* \"#utility.yul\":14360:14379   */\n      swap1\n      pop\n        /* \"#utility.yul\":14019:14385   */\n      swap2\n      swap1\n      pop\n      jump\t// out\n        /* \"#utility.yul\":14391:14810   */\n    tag_81:\n        /* \"#utility.yul\":14557:14561   */\n      0x00\n        /* \"#utility.yul\":14595:14597   */\n      0x20\n        /* \"#utility.yul\":14584:14593   */\n      dup3\n        /* \"#utility.yul\":14580:14598   */\n      add\n        /* \"#utility.yul\":14572:14598   */\n      swap1\n      pop\n        /* \"#utility.yul\":14644:14653   */\n      dup2\n        /* \"#utility.yul\":14638:14642   */\n      dup2\n        /* \"#utility.yul\":14634:14654   */\n      sub\n        /* \"#utility.yul\":14630:14631   */\n      0x00\n        /* \"#utility.yul\":14619:14628   */\n      dup4\n        /* \"#utility.yul\":14615:14632   */\n      add\n        /* \"#utility.yul\":14608:14655   */\n      mstore\n        /* \"#utility.yul\":14672:14803   */\n      tag_382\n        /* \"#utility.yul\":14798:14802   */\n      dup2\n        /* \"#utility.yul\":14672:14803   */\n      tag_224\n      jump\t// in\n    tag_382:\n        /* \"#utility.yul\":14664:14803   */\n      swap1\n      pop\n        /* \"#utility.yul\":14391:14810   */\n      swap2\n      swap1\n      pop\n      jump\t// out\n        /* \"#utility.yul\":14816:14992   */\n    tag_225:\n        /* \"#utility.yul\":14956:14984   */\n      0x4d757374206265205f73746172744964203c3d205f656e644964000000000000\n        /* \"#utility.yul\":14952:14953   */\n      0x00\n        /* \"#utility.yul\":14944:14950   */\n      dup3\n        /* \"#utility.yul\":14940:14954   */\n      add\n        /* \"#utility.yul\":14933:14985   */\n      mstore\n        /* \"#utility.yul\":14816:14992   */\n      pop\n      jump\t// out\n        /* \"#utility.yul\":14998:15364   */\n    tag_226:\n        /* \"#utility.yul\":15140:15143   */\n      0x00\n        /* \"#utility.yul\":15161:15228   */\n      tag_385\n        /* \"#utility.yul\":15225:15227   */\n      0x1a\n        /* \"#utility.yul\":15220:15223   */\n      dup4\n        /* \"#utility.yul\":15161:15228   */\n      tag_222\n      jump\t// in\n    tag_385:\n        /* \"#utility.yul\":15154:15228   */\n      swap2\n      pop\n        /* \"#utility.yul\":15237:15330   */\n      tag_386\n        /* \"#utility.yul\":15326:15329   */\n      dup3\n        /* \"#utility.yul\":15237:15330   */\n      tag_225\n      jump\t// in\n    tag_386:\n        /* \"#utility.yul\":15355:15357   */\n      0x20\n        /* \"#utility.yul\":15350:15353   */\n      dup3\n        /* \"#utility.yul\":15346:15358   */\n      add\n        /* \"#utility.yul\":15339:15358   */\n      swap1\n      pop\n        /* \"#utility.yul\":14998:15364   */\n      swap2\n      swap1\n      pop\n      jump\t// out\n        /* \"#utility.yul\":15370:15789   */\n    tag_84:\n        /* \"#utility.yul\":15536:15540   */\n      0x00\n        /* \"#utility.yul\":15574:15576   */\n      0x20\n        /* \"#utility.yul\":15563:15572   */\n      dup3\n        /* \"#utility.yul\":15559:15577   */\n      add\n        /* \"#utility.yul\":15551:15577   */\n      swap1\n      pop\n        /* \"#utility.yul\":15623:15632   */\n      dup2\n        /* \"#utility.yul\":15617:15621   */\n      dup2\n        /* \"#utility.yul\":15613:15633   */\n      sub\n        /* \"#utility.yul\":15609:15610   */\n      0x00\n        /* \"#utility.yul\":15598:15607   */\n      dup4\n        /* \"#utility.yul\":15594:15611   */\n      add\n        /* \"#utility.yul\":15587:15634   */\n      mstore\n        /* \"#utility.yul\":15651:15782   */\n      tag_388\n        /* \"#utility.yul\":15777:15781   */\n      dup2\n        /* \"#utility.yul\":15651:15782   */\n      tag_226\n      jump\t// in\n    tag_388:\n        /* \"#utility.yul\":15643:15782   */\n      swap1\n      pop\n        /* \"#utility.yul\":15370:15789   */\n      swap2\n      swap1\n      pop\n      jump\t// out\n        /* \"#utility.yul\":15795:16011   */\n    tag_86:\n        /* \"#utility.yul\":15834:15838   */\n      0x00\n        /* \"#utility.yul\":15854:15873   */\n      tag_390\n        /* \"#utility.yul\":15871:15872   */\n      dup3\n        /* \"#utility.yul\":15854:15873   */\n      tag_202\n      jump\t// in\n    tag_390:\n        /* \"#utility.yul\":15849:15873   */\n      swap2\n      pop\n        /* \"#utility.yul\":15887:15906   */\n      tag_391\n        /* \"#utility.yul\":15904:15905   */\n      dup4\n        /* \"#utility.yul\":15887:15906   */\n      tag_202\n      jump\t// in\n    tag_391:\n        /* \"#utility.yul\":15882:15906   */\n      swap3\n      pop\n        /* \"#utility.yul\":15930:15931   */\n      dup3\n        /* \"#utility.yul\":15927:15928   */\n      dup3\n        /* \"#utility.yul\":15923:15932   */\n      sub\n        /* \"#utility.yul\":15915:15932   */\n      swap1\n      pop\n        /* \"#utility.yul\":15954:15980   */\n      0xffffffffffffffffffffffff\n        /* \"#utility.yul\":15948:15952   */\n      dup2\n        /* \"#utility.yul\":15945:15981   */\n      gt\n        /* \"#utility.yul\":15942:16004   */\n      iszero\n      tag_392\n      jumpi\n        /* \"#utility.yul\":15984:16002   */\n      tag_393\n      tag_221\n      jump\t// in\n    tag_393:\n        /* \"#utility.yul\":15942:16004   */\n    tag_392:\n        /* \"#utility.yul\":15795:16011   */\n      swap3\n      swap2\n      pop\n      pop\n      jump\t// out\n        /* \"#utility.yul\":16017:16197   */\n    tag_89:\n        /* \"#utility.yul\":16065:16142   */\n      0x4e487b7100000000000000000000000000000000000000000000000000000000\n        /* \"#utility.yul\":16062:16063   */\n      0x00\n        /* \"#utility.yul\":16055:16143   */\n      mstore\n        /* \"#utility.yul\":16162:16166   */\n      0x41\n        /* \"#utility.yul\":16159:16160   */\n      0x04\n        /* \"#utility.yul\":16152:16167   */\n      mstore\n        /* \"#utility.yul\":16186:16190   */\n      0x24\n        /* \"#utility.yul\":16183:16184   */\n      0x00\n        /* \"#utility.yul\":16176:16191   */\n      revert\n        /* \"#utility.yul\":16203:16383   */\n    tag_100:\n        /* \"#utility.yul\":16251:16328   */\n      0x4e487b7100000000000000000000000000000000000000000000000000000000\n        /* \"#utility.yul\":16248:16249   */\n      0x00\n        /* \"#utility.yul\":16241:16329   */\n      mstore\n        /* \"#utility.yul\":16348:16352   */\n      0x32\n        /* \"#utility.yul\":16345:16346   */\n      0x04\n        /* \"#utility.yul\":16338:16353   */\n      mstore\n        /* \"#utility.yul\":16372:16376   */\n      0x24\n        /* \"#utility.yul\":16369:16370   */\n      0x00\n        /* \"#utility.yul\":16362:16377   */\n      revert\n        /* \"#utility.yul\":16389:16580   */\n    tag_102:\n        /* \"#utility.yul\":16427:16430   */\n      0x00\n        /* \"#utility.yul\":16450:16473   */\n      tag_397\n        /* \"#utility.yul\":16467:16472   */\n      dup3\n        /* \"#utility.yul\":16450:16473   */\n      tag_202\n      jump\t// in\n    tag_397:\n        /* \"#utility.yul\":16441:16473   */\n      swap2\n      pop\n        /* \"#utility.yul\":16495:16521   */\n      0xffffffffffffffffffffffff\n        /* \"#utility.yul\":16488:16493   */\n      dup3\n        /* \"#utility.yul\":16485:16522   */\n      sub\n        /* \"#utility.yul\":16482:16545   */\n      tag_398\n      jumpi\n        /* \"#utility.yul\":16525:16543   */\n      tag_399\n      tag_221\n      jump\t// in\n    tag_399:\n        /* \"#utility.yul\":16482:16545   */\n    tag_398:\n        /* \"#utility.yul\":16572:16573   */\n      0x01\n        /* \"#utility.yul\":16565:16570   */\n      dup3\n        /* \"#utility.yul\":16561:16574   */\n      add\n        /* \"#utility.yul\":16554:16574   */\n      swap1\n      pop\n        /* \"#utility.yul\":16389:16580   */\n      swap2\n      swap1\n      pop\n      jump\t// out\n        /* \"#utility.yul\":16586:16759   */\n    tag_227:\n        /* \"#utility.yul\":16726:16751   */\n      0x4d757374206265205f6964203c2066756e64436f756e74000000000000000000\n        /* \"#utility.yul\":16722:16723   */\n      0x00\n        /* \"#utility.yul\":16714:16720   */\n      dup3\n        /* \"#utility.yul\":16710:16724   */\n      add\n        /* \"#utility.yul\":16703:16752   */\n      mstore\n        /* \"#utility.yul\":16586:16759   */\n      pop\n      jump\t// out\n        /* \"#utility.yul\":16765:17131   */\n    tag_228:\n        /* \"#utility.yul\":16907:16910   */\n      0x00\n        /* \"#utility.yul\":16928:16995   */\n      tag_402\n        /* \"#utility.yul\":16992:16994   */\n      0x17\n        /* \"#utility.yul\":16987:16990   */\n      dup4\n        /* \"#utility.yul\":16928:16995   */\n      tag_222\n      jump\t// in\n    tag_402:\n        /* \"#utility.yul\":16921:16995   */\n      swap2\n      pop\n        /* \"#utility.yul\":17004:17097   */\n      tag_403\n        /* \"#utility.yul\":17093:17096   */\n      dup3\n        /* \"#utility.yul\":17004:17097   */\n      tag_227\n      jump\t// in\n    tag_403:\n        /* \"#utility.yul\":17122:17124   */\n      0x20\n        /* \"#utility.yul\":17117:17120   */\n      dup3\n        /* \"#utility.yul\":17113:17125   */\n      add\n        /* \"#utility.yul\":17106:17125   */\n      swap1\n      pop\n        /* \"#utility.yul\":16765:17131   */\n      swap2\n      swap1\n      pop\n      jump\t// out\n        /* \"#utility.yul\":17137:17556   */\n    tag_106:\n        /* \"#utility.yul\":17303:17307   */\n      0x00\n        /* \"#utility.yul\":17341:17343   */\n      0x20\n        /* \"#utility.yul\":17330:17339   */\n      dup3\n        /* \"#utility.yul\":17326:17344   */\n      add\n        /* \"#utility.yul\":17318:17344   */\n      swap1\n      pop\n        /* \"#utility.yul\":17390:17399   */\n      dup2\n        /* \"#utility.yul\":17384:17388   */\n      dup2\n        /* \"#utility.yul\":17380:17400   */\n      sub\n        /* \"#utility.yul\":17376:17377   */\n      0x00\n        /* \"#utility.yul\":17365:17374   */\n      dup4\n        /* \"#utility.yul\":17361:17378   */\n      add\n        /* \"#utility.yul\":17354:17401   */\n      mstore\n        /* \"#utility.yul\":17418:17549   */\n      tag_405\n        /* \"#utility.yul\":17544:17548   */\n      dup2\n        /* \"#utility.yul\":17418:17549   */\n      tag_228\n      jump\t// in\n    tag_405:\n        /* \"#utility.yul\":17410:17549   */\n      swap1\n      pop\n        /* \"#utility.yul\":17137:17556   */\n      swap2\n      swap1\n      pop\n      jump\t// out\n        /* \"#utility.yul\":17562:17738   */\n    tag_229:\n        /* \"#utility.yul\":17702:17730   */\n      0x46756e6420557064617465206e6f7420617574686f72697a6564000000000000\n        /* \"#utility.yul\":17698:17699   */\n      0x00\n        /* \"#utility.yul\":17690:17696   */\n      dup3\n        /* \"#utility.yul\":17686:17700   */\n      add\n        /* \"#utility.yul\":17679:17731   */\n      mstore\n        /* \"#utility.yul\":17562:17738   */\n      pop\n      jump\t// out\n        /* \"#utility.yul\":17744:18110   */\n    tag_230:\n        /* \"#utility.yul\":17886:17889   */\n      0x00\n        /* \"#utility.yul\":17907:17974   */\n      tag_408\n        /* \"#utility.yul\":17971:17973   */\n      0x1a\n        /* \"#utility.yul\":17966:17969   */\n      dup4\n        /* \"#utility.yul\":17907:17974   */\n      tag_222\n      jump\t// in\n    tag_408:\n        /* \"#utility.yul\":17900:17974   */\n      swap2\n      pop\n        /* \"#utility.yul\":17983:18076   */\n      tag_409\n        /* \"#utility.yul\":18072:18075   */\n      dup3\n        /* \"#utility.yul\":17983:18076   */\n      tag_229\n      jump\t// in\n    tag_409:\n        /* \"#utility.yul\":18101:18103   */\n      0x20\n        /* \"#utility.yul\":18096:18099   */\n      dup3\n        /* \"#utility.yul\":18092:18104   */\n      add\n        /* \"#utility.yul\":18085:18104   */\n      swap1\n      pop\n        /* \"#utility.yul\":17744:18110   */\n      swap2\n      swap1\n      pop\n      jump\t// out\n        /* \"#utility.yul\":18116:18535   */\n    tag_117:\n        /* \"#utility.yul\":18282:18286   */\n      0x00\n        /* \"#utility.yul\":18320:18322   */\n      0x20\n        /* \"#utility.yul\":18309:18318   */\n      dup3\n        /* \"#utility.yul\":18305:18323   */\n      add\n        /* \"#utility.yul\":18297:18323   */\n      swap1\n      pop\n        /* \"#utility.yul\":18369:18378   */\n      dup2\n        /* \"#utility.yul\":18363:18367   */\n      dup2\n        /* \"#utility.yul\":18359:18379   */\n      sub\n        /* \"#utility.yul\":18355:18356   */\n      0x00\n        /* \"#utility.yul\":18344:18353   */\n      dup4\n        /* \"#utility.yul\":18340:18357   */\n      add\n        /* \"#utility.yul\":18333:18380   */\n      mstore\n        /* \"#utility.yul\":18397:18528   */\n      tag_411\n        /* \"#utility.yul\":18523:18527   */\n      dup2\n        /* \"#utility.yul\":18397:18528   */\n      tag_230\n      jump\t// in\n    tag_411:\n        /* \"#utility.yul\":18389:18528   */\n      swap1\n      pop\n        /* \"#utility.yul\":18116:18535   */\n      swap2\n      swap1\n      pop\n      jump\t// out\n        /* \"#utility.yul\":18541:18732   */\n    tag_154:\n        /* \"#utility.yul\":18581:18584   */\n      0x00\n        /* \"#utility.yul\":18600:18620   */\n      tag_413\n        /* \"#utility.yul\":18618:18619   */\n      dup3\n        /* \"#utility.yul\":18600:18620   */\n      tag_196\n      jump\t// in\n    tag_413:\n        /* \"#utility.yul\":18595:18620   */\n      swap2\n      pop\n        /* \"#utility.yul\":18634:18654   */\n      tag_414\n        /* \"#utility.yul\":18652:18653   */\n      dup4\n        /* \"#utility.yul\":18634:18654   */\n      tag_196\n      jump\t// in\n    tag_414:\n        /* \"#utility.yul\":18629:18654   */\n      swap3\n      pop\n        /* \"#utility.yul\":18677:18678   */\n      dup3\n        /* \"#utility.yul\":18674:18675   */\n      dup3\n        /* \"#utility.yul\":18670:18679   */\n      add\n        /* \"#utility.yul\":18663:18679   */\n      swap1\n      pop\n        /* \"#utility.yul\":18698:18701   */\n      dup1\n        /* \"#utility.yul\":18695:18696   */\n      dup3\n        /* \"#utility.yul\":18692:18702   */\n      gt\n        /* \"#utility.yul\":18689:18725   */\n      iszero\n      tag_415\n      jumpi\n        /* \"#utility.yul\":18705:18723   */\n      tag_416\n      tag_221\n      jump\t// in\n    tag_416:\n        /* \"#utility.yul\":18689:18725   */\n    tag_415:\n        /* \"#utility.yul\":18541:18732   */\n      swap3\n      swap2\n      pop\n      pop\n      jump\t// out\n        /* \"#utility.yul\":18738:18840   */\n    tag_231:\n        /* \"#utility.yul\":18780:18788   */\n      0x00\n        /* \"#utility.yul\":18827:18832   */\n      dup2\n        /* \"#utility.yul\":18824:18825   */\n      0x01\n        /* \"#utility.yul\":18820:18833   */\n      shr\n        /* \"#utility.yul\":18799:18833   */\n      swap1\n      pop\n        /* \"#utility.yul\":18738:18840   */\n      swap2\n      swap1\n      pop\n      jump\t// out\n        /* \"#utility.yul\":18846:19694   */\n    tag_232:\n        /* \"#utility.yul\":18907:18912   */\n      0x00\n        /* \"#utility.yul\":18914:18918   */\n      dup1\n        /* \"#utility.yul\":18938:18944   */\n      dup3\n        /* \"#utility.yul\":18929:18944   */\n      swap2\n      pop\n        /* \"#utility.yul\":18962:18967   */\n      dup4\n        /* \"#utility.yul\":18953:18967   */\n      swap1\n      pop\n        /* \"#utility.yul\":18976:19688   */\n    tag_419:\n        /* \"#utility.yul\":18997:18998   */\n      0x01\n        /* \"#utility.yul\":18987:18995   */\n      dup6\n        /* \"#utility.yul\":18984:18999   */\n      gt\n        /* \"#utility.yul\":18976:19688   */\n      iszero\n      tag_421\n      jumpi\n        /* \"#utility.yul\":19092:19096   */\n      dup1\n        /* \"#utility.yul\":19087:19090   */\n      dup7\n        /* \"#utility.yul\":19083:19097   */\n      div\n        /* \"#utility.yul\":19077:19081   */\n      dup2\n        /* \"#utility.yul\":19074:19098   */\n      gt\n        /* \"#utility.yul\":19071:19121   */\n      iszero\n      tag_422\n      jumpi\n        /* \"#utility.yul\":19101:19119   */\n      tag_423\n      tag_221\n      jump\t// in\n    tag_423:\n        /* \"#utility.yul\":19071:19121   */\n    tag_422:\n        /* \"#utility.yul\":19151:19152   */\n      0x01\n        /* \"#utility.yul\":19141:19149   */\n      dup6\n        /* \"#utility.yul\":19137:19153   */\n      and\n        /* \"#utility.yul\":19134:19585   */\n      iszero\n      tag_424\n      jumpi\n        /* \"#utility.yul\":19566:19570   */\n      dup1\n        /* \"#utility.yul\":19559:19564   */\n      dup3\n        /* \"#utility.yul\":19555:19571   */\n      mul\n        /* \"#utility.yul\":19546:19571   */\n      swap2\n      pop\n        /* \"#utility.yul\":19134:19585   */\n    tag_424:\n        /* \"#utility.yul\":19616:19620   */\n      dup1\n        /* \"#utility.yul\":19610:19614   */\n      dup2\n        /* \"#utility.yul\":19606:19621   */\n      mul\n        /* \"#utility.yul\":19598:19621   */\n      swap1\n      pop\n        /* \"#utility.yul\":19646:19678   */\n      tag_425\n        /* \"#utility.yul\":19669:19677   */\n      dup6\n        /* \"#utility.yul\":19646:19678   */\n      tag_231\n      jump\t// in\n    tag_425:\n        /* \"#utility.yul\":19634:19678   */\n      swap5\n      pop\n        /* \"#utility.yul\":18976:19688   */\n      jump(tag_419)\n    tag_421:\n        /* \"#utility.yul\":18846:19694   */\n      swap5\n      pop\n      swap5\n      swap3\n      pop\n      pop\n      pop\n      jump\t// out\n        /* \"#utility.yul\":19700:20773   */\n    tag_233:\n        /* \"#utility.yul\":19754:19759   */\n      0x00\n        /* \"#utility.yul\":19945:19953   */\n      dup3\n        /* \"#utility.yul\":19935:19975   */\n      tag_427\n      jumpi\n        /* \"#utility.yul\":19966:19967   */\n      0x01\n        /* \"#utility.yul\":19957:19967   */\n      swap1\n      pop\n        /* \"#utility.yul\":19968:19973   */\n      jump(tag_426)\n        /* \"#utility.yul\":19935:19975   */\n    tag_427:\n        /* \"#utility.yul\":19994:19998   */\n      dup2\n        /* \"#utility.yul\":19984:20020   */\n      tag_428\n      jumpi\n        /* \"#utility.yul\":20011:20012   */\n      0x00\n        /* \"#utility.yul\":20002:20012   */\n      swap1\n      pop\n        /* \"#utility.yul\":20013:20018   */\n      jump(tag_426)\n        /* \"#utility.yul\":19984:20020   */\n    tag_428:\n        /* \"#utility.yul\":20080:20084   */\n      dup2\n        /* \"#utility.yul\":20128:20129   */\n      0x01\n        /* \"#utility.yul\":20123:20150   */\n      dup2\n      eq\n      tag_430\n      jumpi\n        /* \"#utility.yul\":20164:20165   */\n      0x02\n        /* \"#utility.yul\":20159:20350   */\n      dup2\n      eq\n      tag_431\n      jumpi\n        /* \"#utility.yul\":20073:20350   */\n      jump(tag_429)\n        /* \"#utility.yul\":20123:20150   */\n    tag_430:\n        /* \"#utility.yul\":20141:20142   */\n      0x01\n        /* \"#utility.yul\":20132:20142   */\n      swap2\n      pop\n        /* \"#utility.yul\":20143:20148   */\n      pop\n      jump(tag_426)\n        /* \"#utility.yul\":20159:20350   */\n    tag_431:\n        /* \"#utility.yul\":20204:20207   */\n      0xff\n        /* \"#utility.yul\":20194:20202   */\n      dup5\n        /* \"#utility.yul\":20191:20208   */\n      gt\n        /* \"#utility.yul\":20188:20231   */\n      iszero\n      tag_432\n      jumpi\n        /* \"#utility.yul\":20211:20229   */\n      tag_433\n      tag_221\n      jump\t// in\n    tag_433:\n        /* \"#utility.yul\":20188:20231   */\n    tag_432:\n        /* \"#utility.yul\":20260:20268   */\n      dup4\n        /* \"#utility.yul\":20257:20258   */\n      0x02\n        /* \"#utility.yul\":20253:20269   */\n      exp\n        /* \"#utility.yul\":20244:20269   */\n      swap2\n      pop\n        /* \"#utility.yul\":20295:20298   */\n      dup5\n        /* \"#utility.yul\":20288:20293   */\n      dup3\n        /* \"#utility.yul\":20285:20299   */\n      gt\n        /* \"#utility.yul\":20282:20322   */\n      iszero\n      tag_434\n      jumpi\n        /* \"#utility.yul\":20302:20320   */\n      tag_435\n      tag_221\n      jump\t// in\n    tag_435:\n        /* \"#utility.yul\":20282:20322   */\n    tag_434:\n        /* \"#utility.yul\":20335:20340   */\n      pop\n      jump(tag_426)\n        /* \"#utility.yul\":20073:20350   */\n    tag_429:\n      pop\n        /* \"#utility.yul\":20459:20461   */\n      0x20\n        /* \"#utility.yul\":20449:20457   */\n      dup4\n        /* \"#utility.yul\":20446:20462   */\n      lt\n        /* \"#utility.yul\":20440:20443   */\n      0x0133\n        /* \"#utility.yul\":20434:20438   */\n      dup4\n        /* \"#utility.yul\":20431:20444   */\n      lt\n        /* \"#utility.yul\":20427:20463   */\n      and\n        /* \"#utility.yul\":20409:20411   */\n      0x4e\n        /* \"#utility.yul\":20399:20407   */\n      dup5\n        /* \"#utility.yul\":20396:20412   */\n      lt\n        /* \"#utility.yul\":20391:20393   */\n      0x0b\n        /* \"#utility.yul\":20385:20389   */\n      dup5\n        /* \"#utility.yul\":20382:20394   */\n      lt\n        /* \"#utility.yul\":20378:20413   */\n      and\n        /* \"#utility.yul\":20362:20473   */\n      or\n        /* \"#utility.yul\":20359:20605   */\n      iszero\n      tag_436\n      jumpi\n        /* \"#utility.yul\":20515:20523   */\n      dup3\n        /* \"#utility.yul\":20509:20513   */\n      dup3\n        /* \"#utility.yul\":20505:20524   */\n      exp\n        /* \"#utility.yul\":20496:20524   */\n      swap1\n      pop\n        /* \"#utility.yul\":20550:20553   */\n      dup4\n        /* \"#utility.yul\":20543:20548   */\n      dup2\n        /* \"#utility.yul\":20540:20554   */\n      gt\n        /* \"#utility.yul\":20537:20577   */\n      iszero\n      tag_437\n      jumpi\n        /* \"#utility.yul\":20557:20575   */\n      tag_438\n      tag_221\n      jump\t// in\n    tag_438:\n        /* \"#utility.yul\":20537:20577   */\n    tag_437:\n        /* \"#utility.yul\":20590:20595   */\n      jump(tag_426)\n        /* \"#utility.yul\":20359:20605   */\n    tag_436:\n        /* \"#utility.yul\":20630:20672   */\n      tag_439\n        /* \"#utility.yul\":20668:20671   */\n      dup5\n        /* \"#utility.yul\":20658:20666   */\n      dup5\n        /* \"#utility.yul\":20652:20656   */\n      dup5\n        /* \"#utility.yul\":20649:20650   */\n      0x01\n        /* \"#utility.yul\":20630:20672   */\n      tag_232\n      jump\t// in\n    tag_439:\n        /* \"#utility.yul\":20615:20672   */\n      swap3\n      pop\n      swap1\n      pop\n        /* \"#utility.yul\":20704:20708   */\n      dup2\n        /* \"#utility.yul\":20699:20702   */\n      dup5\n        /* \"#utility.yul\":20695:20709   */\n      div\n        /* \"#utility.yul\":20688:20693   */\n      dup2\n        /* \"#utility.yul\":20685:20710   */\n      gt\n        /* \"#utility.yul\":20682:20733   */\n      iszero\n      tag_440\n      jumpi\n        /* \"#utility.yul\":20713:20731   */\n      tag_441\n      tag_221\n      jump\t// in\n    tag_441:\n        /* \"#utility.yul\":20682:20733   */\n    tag_440:\n        /* \"#utility.yul\":20762:20766   */\n      dup2\n        /* \"#utility.yul\":20755:20760   */\n      dup2\n        /* \"#utility.yul\":20751:20767   */\n      mul\n        /* \"#utility.yul\":20742:20767   */\n      swap1\n      pop\n        /* \"#utility.yul\":19700:20773   */\n    tag_426:\n      swap4\n      swap3\n      pop\n      pop\n      pop\n      jump\t// out\n        /* \"#utility.yul\":20779:20865   */\n    tag_234:\n        /* \"#utility.yul\":20814:20821   */\n      0x00\n        /* \"#utility.yul\":20854:20858   */\n      0xff\n        /* \"#utility.yul\":20847:20852   */\n      dup3\n        /* \"#utility.yul\":20843:20859   */\n      and\n        /* \"#utility.yul\":20832:20859   */\n      swap1\n      pop\n        /* \"#utility.yul\":20779:20865   */\n      swap2\n      swap1\n      pop\n      jump\t// out\n        /* \"#utility.yul\":20871:21152   */\n    tag_161:\n        /* \"#utility.yul\":20929:20934   */\n      0x00\n        /* \"#utility.yul\":20953:20976   */\n      tag_444\n        /* \"#utility.yul\":20971:20975   */\n      dup3\n        /* \"#utility.yul\":20953:20976   */\n      tag_196\n      jump\t// in\n    tag_444:\n        /* \"#utility.yul\":20945:20976   */\n      swap2\n      pop\n        /* \"#utility.yul\":20997:21022   */\n      tag_445\n        /* \"#utility.yul\":21013:21021   */\n      dup4\n        /* \"#utility.yul\":20997:21022   */\n      tag_234\n      jump\t// in\n    tag_445:\n        /* \"#utility.yul\":20985:21022   */\n      swap3\n      pop\n        /* \"#utility.yul\":21041:21145   */\n      tag_446\n        /* \"#utility.yul\":21078:21144   */\n      0xffffffffffffffffffffffffffffffffffffffffffffffffffffffffffffffff\n        /* \"#utility.yul\":21068:21076   */\n      dup5\n        /* \"#utility.yul\":21062:21066   */\n      dup5\n        /* \"#utility.yul\":21041:21145   */\n      tag_233\n      jump\t// in\n    tag_446:\n        /* \"#utility.yul\":21032:21145   */\n      swap1\n      pop\n        /* \"#utility.yul\":20871:21152   */\n      swap3\n      swap2\n      pop\n      pop\n      jump\t// out\n        /* \"#utility.yul\":21158:21301   */\n    tag_235:\n        /* \"#utility.yul\":21215:21220   */\n      0x00\n        /* \"#utility.yul\":21246:21252   */\n      dup2\n        /* \"#utility.yul\":21240:21253   */\n      mload\n        /* \"#utility.yul\":21231:21253   */\n      swap1\n      pop\n        /* \"#utility.yul\":21262:21295   */\n      tag_448\n        /* \"#utility.yul\":21289:21294   */\n      dup2\n        /* \"#utility.yul\":21262:21295   */\n      tag_197\n      jump\t// in\n    tag_448:\n        /* \"#utility.yul\":21158:21301   */\n      swap3\n      swap2\n      pop\n      pop\n      jump\t// out\n        /* \"#utility.yul\":21307:21658   */\n    tag_173:\n        /* \"#utility.yul\":21377:21383   */\n      0x00\n        /* \"#utility.yul\":21426:21428   */\n      0x20\n        /* \"#utility.yul\":21414:21423   */\n      dup3\n        /* \"#utility.yul\":21405:21412   */\n      dup5\n        /* \"#utility.yul\":21401:21424   */\n      sub\n        /* \"#utility.yul\":21397:21429   */\n      slt\n        /* \"#utility.yul\":21394:21513   */\n      iszero\n      tag_450\n      jumpi\n        /* \"#utility.yul\":21432:21511   */\n      tag_451\n      tag_190\n      jump\t// in\n    tag_451:\n        /* \"#utility.yul\":21394:21513   */\n    tag_450:\n        /* \"#utility.yul\":21552:21553   */\n      0x00\n        /* \"#utility.yul\":21577:21641   */\n      tag_452\n        /* \"#utility.yul\":21633:21640   */\n      dup5\n        /* \"#utility.yul\":21624:21630   */\n      dup3\n        /* \"#utility.yul\":21613:21622   */\n      dup6\n        /* \"#utility.yul\":21609:21631   */\n      add\n        /* \"#utility.yul\":21577:21641   */\n      tag_235\n      jump\t// in\n    tag_452:\n        /* \"#utility.yul\":21567:21641   */\n      swap2\n      pop\n        /* \"#utility.yul\":21523:21651   */\n      pop\n        /* \"#utility.yul\":21307:21658   */\n      swap3\n      swap2\n      pop\n      pop\n      jump\t// out\n        /* \"#utility.yul\":21664:22074   */\n    tag_177:\n        /* \"#utility.yul\":21704:21711   */\n      0x00\n        /* \"#utility.yul\":21727:21747   */\n      tag_454\n        /* \"#utility.yul\":21745:21746   */\n      dup3\n        /* \"#utility.yul\":21727:21747   */\n      tag_196\n      jump\t// in\n    tag_454:\n        /* \"#utility.yul\":21722:21747   */\n      swap2\n      pop\n        /* \"#utility.yul\":21761:21781   */\n      tag_455\n        /* \"#utility.yul\":21779:21780   */\n      dup4\n        /* \"#utility.yul\":21761:21781   */\n      tag_196\n      jump\t// in\n    tag_455:\n        /* \"#utility.yul\":21756:21781   */\n      swap3\n      pop\n        /* \"#utility.yul\":21816:21817   */\n      dup3\n        /* \"#utility.yul\":21813:21814   */\n      dup3\n        /* \"#utility.yul\":21809:21818   */\n      mul\n        /* \"#utility.yul\":21838:21868   */\n      tag_456\n        /* \"#utility.yul\":21856:21867   */\n      dup2\n        /* \"#utility.yul\":21838:21868   */\n      tag_196\n      jump\t// in\n    tag_456:\n        /* \"#utility.yul\":21827:21868   */\n      swap2\n      pop\n        /* \"#utility.yul\":22017:22018   */\n      dup3\n        /* \"#utility.yul\":22008:22015   */\n      dup3\n        /* \"#utility.yul\":22004:22019   */\n      div\n        /* \"#utility.yul\":22001:22002   */\n      dup5\n        /* \"#utility.yul\":21998:22020   */\n      eq\n        /* \"#utility.yul\":21978:21979   */\n      dup4\n        /* \"#utility.yul\":21971:21980   */\n      iszero\n        /* \"#utility.yul\":21951:22034   */\n      or\n        /* \"#utility.yul\":21928:22067   */\n      tag_457\n      jumpi\n        /* \"#utility.yul\":22047:22065   */\n      tag_458\n      tag_221\n      jump\t// in\n    tag_458:\n        /* \"#utility.yul\":21928:22067   */\n    tag_457:\n        /* \"#utility.yul\":21712:22074   */\n      pop\n        /* \"#utility.yul\":21664:22074   */\n      swap3\n      swap2\n      pop\n      pop\n      jump\t// out\n        /* \"#utility.yul\":22080:22260   */\n    tag_236:\n        /* \"#utility.yul\":22128:22205   */\n      0x4e487b7100000000000000000000000000000000000000000000000000000000\n        /* \"#utility.yul\":22125:22126   */\n      0x00\n        /* \"#utility.yul\":22118:22206   */\n      mstore\n        /* \"#utility.yul\":22225:22229   */\n      0x12\n        /* \"#utility.yul\":22222:22223   */\n      0x04\n        /* \"#utility.yul\":22215:22230   */\n      mstore\n        /* \"#utility.yul\":22249:22253   */\n      0x24\n        /* \"#utility.yul\":22246:22247   */\n      0x00\n        /* \"#utility.yul\":22239:22254   */\n      revert\n        /* \"#utility.yul\":22266:22451   */\n    tag_179:\n        /* \"#utility.yul\":22306:22307   */\n      0x00\n        /* \"#utility.yul\":22323:22343   */\n      tag_461\n        /* \"#utility.yul\":22341:22342   */\n      dup3\n        /* \"#utility.yul\":22323:22343   */\n      tag_196\n      jump\t// in\n    tag_461:\n        /* \"#utility.yul\":22318:22343   */\n      swap2\n      pop\n        /* \"#utility.yul\":22357:22377   */\n      tag_462\n        /* \"#utility.yul\":22375:22376   */\n      dup4\n        /* \"#utility.yul\":22357:22377   */\n      tag_196\n      jump\t// in\n    tag_462:\n        /* \"#utility.yul\":22352:22377   */\n      swap3\n      pop\n        /* \"#utility.yul\":22396:22397   */\n      dup3\n        /* \"#utility.yul\":22386:22421   */\n      tag_463\n      jumpi\n        /* \"#utility.yul\":22401:22419   */\n      tag_464\n      tag_236\n      jump\t// in\n    tag_464:\n        /* \"#utility.yul\":22386:22421   */\n    tag_463:\n        /* \"#utility.yul\":22443:22444   */\n      dup3\n        /* \"#utility.yul\":22440:22441   */\n      dup3\n        /* \"#utility.yul\":22436:22445   */\n      div\n        /* \"#utility.yul\":22431:22445   */\n      swap1\n      pop\n        /* \"#utility.yul\":22266:22451   */\n      swap3\n      swap2\n      pop\n      pop\n      jump\t// out\n\n    auxdata: 0xa26469706673582212205cc50d67009f8a675920ead5ea2ffd9c0f984cfc5f1af5aebf9969388f0ad84f64736f6c63430008120033\n}\n",
				"bytecode": {
					"linkReferences": {},
					"object": "608060405234801561001057600080fd5b5061253c806100206000396000f3fe6080604052600436106100915760003560e01c80633f936ff5116100595780633f936ff5146101a85780636c173d38146101d35780637a3819cb1461021057806388b53ced1461024f578063dd7d79291461026b57610091565b806317444626146100965780631c69b464146100bf5780631f71f89f146100ea5780632f14670c1461012e578063380eaaf91461016b575b600080fd5b3480156100a257600080fd5b506100bd60048036038101906100b891906119b8565b610294565b005b3480156100cb57600080fd5b506100d4610569565b6040516100e19190611bde565b60405180910390f35b3480156100f657600080fd5b50610111600480360381019061010c9190611c2c565b610594565b604051610125989796959493929190611ca4565b60405180910390f35b34801561013a57600080fd5b5061015560048036038101906101509190611d22565b610665565b6040516101629190611d62565b60405180910390f35b34801561017757600080fd5b50610192600480360381019061018d9190611d7d565b6106b3565b60405161019f9190611bde565b60405180910390f35b3480156101b457600080fd5b506101bd610a29565b6040516101ca9190611dbd565b60405180910390f35b3480156101df57600080fd5b506101fa60048036038101906101f59190611c2c565b610a47565b6040516102079190611d62565b60405180910390f35b34801561021c57600080fd5b5061023760048036038101906102329190611dd8565b610b1a565b60405161024693929190611e2b565b60405180910390f35b61026960048036038101906102649190611e62565b610ba6565b005b34801561027757600080fd5b50610292600480360381019061028d9190611eb5565b610bbe565b005b60008060149054906101000a90046bffffffffffffffffffffffff169050604051806101000160405280826bffffffffffffffffffffffff1681526020018573ffffffffffffffffffffffffffffffffffffffff1681526020014265ffffffffffff1681526020014265ffffffffffff1681526020018473ffffffffffffffffffffffffffffffffffffffff168152602001838152602001600081526020016000151581525060016000836bffffffffffffffffffffffff166bffffffffffffffffffffffff16815260200190815260200160002060008201518160000160006101000a8154816bffffffffffffffffffffffff02191690836bffffffffffffffffffffffff160217905550602082015181600001600c6101000a81548173ffffffffffffffffffffffffffffffffffffffff021916908373ffffffffffffffffffffffffffffffffffffffff16021790555060408201518160010160006101000a81548165ffffffffffff021916908365ffffffffffff16021790555060608201518160010160066101000a81548165ffffffffffff021916908365ffffffffffff160217905550608082015181600101600c6101000a81548173ffffffffffffffffffffffffffffffffffffffff021916908373ffffffffffffffffffffffffffffffffffffffff16021790555060a0820151816002015560c0820151816003015560e08201518160040160006101000a81548160ff021916908315150217905550905050600082826bffffffffffffffffffffffff167f1e216cc18d3e93f7c7b9a7b3a038093bc655d3d5cbfbb504d67d4376bd02d13f87876000426040516105039493929190611f1c565b60405180910390a46001600060148282829054906101000a90046bffffffffffffffffffffffff166105359190611f90565b92506101000a8154816bffffffffffffffffffffffff02191690836bffffffffffffffffffffffff16021790555050505050565b606061058f60008060149054906101000a90046bffffffffffffffffffffffff166106b3565b905090565b60016020528060005260406000206000915090508060000160009054906101000a90046bffffffffffffffffffffffff169080600001600c9054906101000a900473ffffffffffffffffffffffffffffffffffffffff16908060010160009054906101000a900465ffffffffffff16908060010160069054906101000a900465ffffffffffff169080600101600c9054906101000a900473ffffffffffffffffffffffffffffffffffffffff16908060020154908060030154908060040160009054906101000a900460ff16905088565b6002602052816000526040600020818154811061068157600080fd5b906000526020600020016000915091509054906101000a900473ffffffffffffffffffffffffffffffffffffffff1681565b6060600060149054906101000a90046bffffffffffffffffffffffff166bffffffffffffffffffffffff16826bffffffffffffffffffffffff16111561072e576040517f08c379a00000000000000000000000000000000000000000000000000000000081526004016107259061202d565b60405180910390fd5b816bffffffffffffffffffffffff16836bffffffffffffffffffffffff16111561078d576040517f08c379a000000000000000000000000000000000000000000000000000000000815260040161078490612099565b60405180910390fd5b6000838361079b91906120b9565b6bffffffffffffffffffffffff1667ffffffffffffffff8111156107c2576107c16120f9565b5b6040519080825280602002602001820160405280156107fb57816020015b6107e861188e565b8152602001906001900390816107e05790505b50905060008490505b836bffffffffffffffffffffffff16816bffffffffffffffffffffffff161015610a1e5760016000826bffffffffffffffffffffffff166bffffffffffffffffffffffff168152602001908152602001600020604051806101000160405290816000820160009054906101000a90046bffffffffffffffffffffffff166bffffffffffffffffffffffff166bffffffffffffffffffffffff16815260200160008201600c9054906101000a900473ffffffffffffffffffffffffffffffffffffffff1673ffffffffffffffffffffffffffffffffffffffff1673ffffffffffffffffffffffffffffffffffffffff1681526020016001820160009054906101000a900465ffffffffffff1665ffffffffffff1665ffffffffffff1681526020016001820160069054906101000a900465ffffffffffff1665ffffffffffff1665ffffffffffff16815260200160018201600c9054906101000a900473ffffffffffffffffffffffffffffffffffffffff1673ffffffffffffffffffffffffffffffffffffffff1673ffffffffffffffffffffffffffffffffffffffff16815260200160028201548152602001600382015481526020016004820160009054906101000a900460ff1615151515815250508286836109e191906120b9565b6bffffffffffffffffffffffff1681518110610a00576109ff612128565b5b60200260200101819052508080610a1690612157565b915050610804565b508091505092915050565b600060149054906101000a90046bffffffffffffffffffffffff1681565b60008060149054906101000a90046bffffffffffffffffffffffff166bffffffffffffffffffffffff16826bffffffffffffffffffffffff1610610ac0576040517f08c379a0000000000000000000000000000000000000000000000000000000008152600401610ab7906121d7565b60405180910390fd5b60016000836bffffffffffffffffffffffff166bffffffffffffffffffffffff168152602001908152602001600020600101600c9054906101000a900473ffffffffffffffffffffffffffffffffffffffff169050919050565b60036020528260005260406000206020528160005260406000208181548110610b4257600080fd5b906000526020600020906002020160009250925050508060000160009054906101000a900473ffffffffffffffffffffffffffffffffffffffff16908060000160149054906101000a90046bffffffffffffffffffffffff16908060010154905083565b610bb1838383611050565b610bb9611315565b505050565b600060016000866bffffffffffffffffffffffff166bffffffffffffffffffffffff168152602001908152602001600020604051806101000160405290816000820160009054906101000a90046bffffffffffffffffffffffff166bffffffffffffffffffffffff166bffffffffffffffffffffffff16815260200160008201600c9054906101000a900473ffffffffffffffffffffffffffffffffffffffff1673ffffffffffffffffffffffffffffffffffffffff1673ffffffffffffffffffffffffffffffffffffffff1681526020016001820160009054906101000a900465ffffffffffff1665ffffffffffff1665ffffffffffff1681526020016001820160069054906101000a900465ffffffffffff1665ffffffffffff1665ffffffffffff16815260200160018201600c9054906101000a900473ffffffffffffffffffffffffffffffffffffffff1673ffffffffffffffffffffffffffffffffffffffff1673ffffffffffffffffffffffffffffffffffffffff16815260200160028201548152602001600382015481526020016004820160009054906101000a900460ff1615151515815250509050806020015173ffffffffffffffffffffffffffffffffffffffff163373ffffffffffffffffffffffffffffffffffffffff1614610de0576040517f08c379a0000000000000000000000000000000000000000000000000000000008152600401610dd790612243565b60405180910390fd5b604051806101000160405280866bffffffffffffffffffffffff1681526020018573ffffffffffffffffffffffffffffffffffffffff168152602001826040015165ffffffffffff1681526020014265ffffffffffff1681526020018473ffffffffffffffffffffffffffffffffffffffff1681526020018381526020018260c0015181526020018260e00151151581525060016000876bffffffffffffffffffffffff166bffffffffffffffffffffffff16815260200190815260200160002060008201518160000160006101000a8154816bffffffffffffffffffffffff02191690836bffffffffffffffffffffffff160217905550602082015181600001600c6101000a81548173ffffffffffffffffffffffffffffffffffffffff021916908373ffffffffffffffffffffffffffffffffffffffff16021790555060408201518160010160006101000a81548165ffffffffffff021916908365ffffffffffff16021790555060608201518160010160066101000a81548165ffffffffffff021916908365ffffffffffff160217905550608082015181600101600c6101000a81548173ffffffffffffffffffffffffffffffffffffffff021916908373ffffffffffffffffffffffffffffffffffffffff16021790555060a0820151816002015560c0820151816003015560e08201518160040160006101000a81548160ff0219169083151502179055509050508060c0015182866bffffffffffffffffffffffff167f603e97a48f8cadd1e9020bf96470c32853c5d9d8ed30f7cbe961f12ad2a45fa087878660e00151426040516110419493929190611f1c565b60405180910390a45050505050565b600060405180606001604052808573ffffffffffffffffffffffffffffffffffffffff168152602001846bffffffffffffffffffffffff16815260200183815250905060036000846bffffffffffffffffffffffff166bffffffffffffffffffffffff16815260200190815260200160002060008573ffffffffffffffffffffffffffffffffffffffff1673ffffffffffffffffffffffffffffffffffffffff16815260200190815260200160002081908060018154018082558091505060019003906000526020600020906002020160009091909190915060008201518160000160006101000a81548173ffffffffffffffffffffffffffffffffffffffff021916908373ffffffffffffffffffffffffffffffffffffffff16021790555060208201518160000160146101000a8154816bffffffffffffffffffffffff02191690836bffffffffffffffffffffffff160217905550604082015181600101555050600060026000856bffffffffffffffffffffffff166bffffffffffffffffffffffff168152602001908152602001600020905060006001905060005b8280549050816bffffffffffffffffffffffff1610156112a3578673ffffffffffffffffffffffffffffffffffffffff1683826bffffffffffffffffffffffff168154811061124157611240612128565b5b9060005260206000200160009054906101000a900473ffffffffffffffffffffffffffffffffffffffff1673ffffffffffffffffffffffffffffffffffffffff160361129057600091506112a3565b808061129b90612157565b9150506111ef565b50801561130d5781869080600181540180825580915050600190039060005260206000200160009091909190916101000a81548173ffffffffffffffffffffffffffffffffffffffff021916908373ffffffffffffffffffffffffffffffffffffffff1602179055505b505050505050565b60008060149054906101000a90046bffffffffffffffffffffffff166bffffffffffffffffffffffff1667ffffffffffffffff811115611358576113576120f9565b5b6040519080825280602002602001820160405280156113865781602001602082028036833780820191505090505b509050600080600090505b600060149054906101000a90046bffffffffffffffffffffffff166bffffffffffffffffffffffff16816bffffffffffffffffffffffff1610156116c95760008060026000846bffffffffffffffffffffffff166bffffffffffffffffffffffff16815260200190815260200160002080548060200260200160405190810160405280929190818152602001828054801561148157602002820191906000526020600020905b8160009054906101000a900473ffffffffffffffffffffffffffffffffffffffff1673ffffffffffffffffffffffffffffffffffffffff1681526020019060010190808311611437575b5050505050905060005b8151816bffffffffffffffffffffffff16101561166857600080600090505b60036000876bffffffffffffffffffffffff166bffffffffffffffffffffffff168152602001908152602001600020600085856bffffffffffffffffffffffff16815181106114fc576114fb612128565b5b602002602001015173ffffffffffffffffffffffffffffffffffffffff1673ffffffffffffffffffffffffffffffffffffffff16815260200190815260200160002080549050816bffffffffffffffffffffffff16101561163d5760036000876bffffffffffffffffffffffff166bffffffffffffffffffffffff168152602001908152602001600020600085856bffffffffffffffffffffffff16815181106115a9576115a8612128565b5b602002602001015173ffffffffffffffffffffffffffffffffffffffff1673ffffffffffffffffffffffffffffffffffffffff168152602001908152602001600020816bffffffffffffffffffffffff168154811061160b5761160a612128565b5b906000526020600020906002020160010154826116289190612263565b9150808061163590612157565b9150506114aa565b5061164781611831565b846116529190612263565b935050808061166090612157565b91505061148b565b5060028261167691906123d7565b91508185846bffffffffffffffffffffffff168151811061169a57611699612128565b5b60200260200101818152505081846116b29190612263565b9350505080806116c190612157565b915050611391565b5060005b600060149054906101000a90046bffffffffffffffffffffffff166bffffffffffffffffffffffff16816bffffffffffffffffffffffff16101561182c578160008054906101000a900473ffffffffffffffffffffffffffffffffffffffff1673ffffffffffffffffffffffffffffffffffffffff166370a08231306040518263ffffffff1660e01b81526004016117659190611d62565b602060405180830381865afa158015611782573d6000803e3d6000fd5b505050506040513d601f19601f820116820180604052508101906117a69190612437565b84836bffffffffffffffffffffffff16815181106117c7576117c6612128565b5b60200260200101516117d99190612464565b6117e391906124d5565b60016000836bffffffffffffffffffffffff166bffffffffffffffffffffffff16815260200190815260200160002060030181905550808061182490612157565b9150506116cd565b505050565b60008060026001846118439190612263565b61184d91906124d5565b90508291505b8181101561188857809150600281828561186d91906124d5565b6118779190612263565b61188191906124d5565b9050611853565b50919050565b60405180610100016040528060006bffffffffffffffffffffffff168152602001600073ffffffffffffffffffffffffffffffffffffffff168152602001600065ffffffffffff168152602001600065ffffffffffff168152602001600073ffffffffffffffffffffffffffffffffffffffff16815260200160008152602001600081526020016000151581525090565b600080fd5b600073ffffffffffffffffffffffffffffffffffffffff82169050919050565b600061194f82611924565b9050919050565b61195f81611944565b811461196a57600080fd5b50565b60008135905061197c81611956565b92915050565b6000819050919050565b61199581611982565b81146119a057600080fd5b50565b6000813590506119b28161198c565b92915050565b6000806000606084860312156119d1576119d061191f565b5b60006119df8682870161196d565b93505060206119f08682870161196d565b9250506040611a01868287016119a3565b9150509250925092565b600081519050919050565b600082825260208201905092915050565b6000819050602082019050919050565b60006bffffffffffffffffffffffff82169050919050565b611a5881611a37565b82525050565b611a6781611944565b82525050565b600065ffffffffffff82169050919050565b611a8881611a6d565b82525050565b611a9781611982565b82525050565b60008115159050919050565b611ab281611a9d565b82525050565b61010082016000820151611acf6000850182611a4f565b506020820151611ae26020850182611a5e565b506040820151611af56040850182611a7f565b506060820151611b086060850182611a7f565b506080820151611b1b6080850182611a5e565b5060a0820151611b2e60a0850182611a8e565b5060c0820151611b4160c0850182611a8e565b5060e0820151611b5460e0850182611aa9565b50505050565b6000611b668383611ab8565b6101008301905092915050565b6000602082019050919050565b6000611b8b82611a0b565b611b958185611a16565b9350611ba083611a27565b8060005b83811015611bd1578151611bb88882611b5a565b9750611bc383611b73565b925050600181019050611ba4565b5085935050505092915050565b60006020820190508181036000830152611bf88184611b80565b905092915050565b611c0981611a37565b8114611c1457600080fd5b50565b600081359050611c2681611c00565b92915050565b600060208284031215611c4257611c4161191f565b5b6000611c5084828501611c17565b91505092915050565b611c6281611a37565b82525050565b611c7181611944565b82525050565b611c8081611a6d565b82525050565b611c8f81611982565b82525050565b611c9e81611a9d565b82525050565b600061010082019050611cba600083018b611c59565b611cc7602083018a611c68565b611cd46040830189611c77565b611ce16060830188611c77565b611cee6080830187611c68565b611cfb60a0830186611c86565b611d0860c0830185611c86565b611d1560e0830184611c95565b9998505050505050505050565b60008060408385031215611d3957611d3861191f565b5b6000611d4785828601611c17565b9250506020611d58858286016119a3565b9150509250929050565b6000602082019050611d776000830184611c68565b92915050565b60008060408385031215611d9457611d9361191f565b5b6000611da285828601611c17565b9250506020611db385828601611c17565b9150509250929050565b6000602082019050611dd26000830184611c59565b92915050565b600080600060608486031215611df157611df061191f565b5b6000611dff86828701611c17565b9350506020611e108682870161196d565b9250506040611e21868287016119a3565b9150509250925092565b6000606082019050611e406000830186611c68565b611e4d6020830185611c59565b611e5a6040830184611c86565b949350505050565b600080600060608486031215611e7b57611e7a61191f565b5b6000611e898682870161196d565b9350506020611e9a86828701611c17565b9250506040611eab868287016119a3565b9150509250925092565b60008060008060808587031215611ecf57611ece61191f565b5b6000611edd87828801611c17565b9450506020611eee8782880161196d565b9350506040611eff8782880161196d565b9250506060611f10878288016119a3565b91505092959194509250565b6000608082019050611f316000830187611c68565b611f3e6020830186611c68565b611f4b6040830185611c95565b611f586060830184611c86565b95945050505050565b7f4e487b7100000000000000000000000000000000000000000000000000000000600052601160045260246000fd5b6000611f9b82611a37565b9150611fa683611a37565b925082820190506bffffffffffffffffffffffff811115611fca57611fc9611f61565b5b92915050565b600082825260208201905092915050565b7f4d757374206265205f656e644964203c3d2066756e64436f756e740000000000600082015250565b6000612017601b83611fd0565b915061202282611fe1565b602082019050919050565b600060208201905081810360008301526120468161200a565b9050919050565b7f4d757374206265205f73746172744964203c3d205f656e644964000000000000600082015250565b6000612083601a83611fd0565b915061208e8261204d565b602082019050919050565b600060208201905081810360008301526120b281612076565b9050919050565b60006120c482611a37565b91506120cf83611a37565b925082820390506bffffffffffffffffffffffff8111156120f3576120f2611f61565b5b92915050565b7f4e487b7100000000000000000000000000000000000000000000000000000000600052604160045260246000fd5b7f4e487b7100000000000000000000000000000000000000000000000000000000600052603260045260246000fd5b600061216282611a37565b91506bffffffffffffffffffffffff82036121805761217f611f61565b5b600182019050919050565b7f4d757374206265205f6964203c2066756e64436f756e74000000000000000000600082015250565b60006121c1601783611fd0565b91506121cc8261218b565b602082019050919050565b600060208201905081810360008301526121f0816121b4565b9050919050565b7f46756e6420557064617465206e6f7420617574686f72697a6564000000000000600082015250565b600061222d601a83611fd0565b9150612238826121f7565b602082019050919050565b6000602082019050818103600083015261225c81612220565b9050919050565b600061226e82611982565b915061227983611982565b925082820190508082111561229157612290611f61565b5b92915050565b60008160011c9050919050565b6000808291508390505b60018511156122ee578086048111156122ca576122c9611f61565b5b60018516156122d95780820291505b80810290506122e785612297565b94506122ae565b94509492505050565b60008261230757600190506123c3565b8161231557600090506123c3565b816001811461232b576002811461233557612364565b60019150506123c3565b60ff84111561234757612346611f61565b5b8360020a91508482111561235e5761235d611f61565b5b506123c3565b5060208310610133831016604e8410600b84101617156123995782820a90508381111561239457612393611f61565b5b6123c3565b6123a684848460016122a4565b925090508184048111156123bd576123bc611f61565b5b81810290505b9392505050565b600060ff82169050919050565b60006123e282611982565b91506123ed836123ca565b925061241a7fffffffffffffffffffffffffffffffffffffffffffffffffffffffffffffffff84846122f7565b905092915050565b6000815190506124318161198c565b92915050565b60006020828403121561244d5761244c61191f565b5b600061245b84828501612422565b91505092915050565b600061246f82611982565b915061247a83611982565b925082820261248881611982565b9150828204841483151761249f5761249e611f61565b5b5092915050565b7f4e487b7100000000000000000000000000000000000000000000000000000000600052601260045260246000fd5b60006124e082611982565b91506124eb83611982565b9250826124fb576124fa6124a6565b5b82820490509291505056fea26469706673582212205cc50d67009f8a675920ead5ea2ffd9c0f984cfc5f1af5aebf9969388f0ad84f64736f6c63430008120033",
					"opcodes": "PUSH1 0x80 PUSH1 0x40 MSTORE CALLVALUE DUP1 ISZERO PUSH2 0x10 JUMPI PUSH1 0x0 DUP1 REVERT JUMPDEST POP PUSH2 0x253C DUP1 PUSH2 0x20 PUSH1 0x0 CODECOPY PUSH1 0x0 RETURN INVALID PUSH1 0x80 PUSH1 0x40 MSTORE PUSH1 0x4 CALLDATASIZE LT PUSH2 0x91 JUMPI PUSH1 0x0 CALLDATALOAD PUSH1 0xE0 SHR DUP1 PUSH4 0x3F936FF5 GT PUSH2 0x59 JUMPI DUP1 PUSH4 0x3F936FF5 EQ PUSH2 0x1A8 JUMPI DUP1 PUSH4 0x6C173D38 EQ PUSH2 0x1D3 JUMPI DUP1 PUSH4 0x7A3819CB EQ PUSH2 0x210 JUMPI DUP1 PUSH4 0x88B53CED EQ PUSH2 0x24F JUMPI DUP1 PUSH4 0xDD7D7929 EQ PUSH2 0x26B JUMPI PUSH2 0x91 JUMP JUMPDEST DUP1 PUSH4 0x17444626 EQ PUSH2 0x96 JUMPI DUP1 PUSH4 0x1C69B464 EQ PUSH2 0xBF JUMPI DUP1 PUSH4 0x1F71F89F EQ PUSH2 0xEA JUMPI DUP1 PUSH4 0x2F14670C EQ PUSH2 0x12E JUMPI DUP1 PUSH4 0x380EAAF9 EQ PUSH2 0x16B JUMPI JUMPDEST PUSH1 0x0 DUP1 REVERT JUMPDEST CALLVALUE DUP1 ISZERO PUSH2 0xA2 JUMPI PUSH1 0x0 DUP1 REVERT JUMPDEST POP PUSH2 0xBD PUSH1 0x4 DUP1 CALLDATASIZE SUB DUP2 ADD SWAP1 PUSH2 0xB8 SWAP2 SWAP1 PUSH2 0x19B8 JUMP JUMPDEST PUSH2 0x294 JUMP JUMPDEST STOP JUMPDEST CALLVALUE DUP1 ISZERO PUSH2 0xCB JUMPI PUSH1 0x0 DUP1 REVERT JUMPDEST POP PUSH2 0xD4 PUSH2 0x569 JUMP JUMPDEST PUSH1 0x40 MLOAD PUSH2 0xE1 SWAP2 SWAP1 PUSH2 0x1BDE JUMP JUMPDEST PUSH1 0x40 MLOAD DUP1 SWAP2 SUB SWAP1 RETURN JUMPDEST CALLVALUE DUP1 ISZERO PUSH2 0xF6 JUMPI PUSH1 0x0 DUP1 REVERT JUMPDEST POP PUSH2 0x111 PUSH1 0x4 DUP1 CALLDATASIZE SUB DUP2 ADD SWAP1 PUSH2 0x10C SWAP2 SWAP1 PUSH2 0x1C2C JUMP JUMPDEST PUSH2 0x594 JUMP JUMPDEST PUSH1 0x40 MLOAD PUSH2 0x125 SWAP9 SWAP8 SWAP7 SWAP6 SWAP5 SWAP4 SWAP3 SWAP2 SWAP1 PUSH2 0x1CA4 JUMP JUMPDEST PUSH1 0x40 MLOAD DUP1 SWAP2 SUB SWAP1 RETURN JUMPDEST CALLVALUE DUP1 ISZERO PUSH2 0x13A JUMPI PUSH1 0x0 DUP1 REVERT JUMPDEST POP PUSH2 0x155 PUSH1 0x4 DUP1 CALLDATASIZE SUB DUP2 ADD SWAP1 PUSH2 0x150 SWAP2 SWAP1 PUSH2 0x1D22 JUMP JUMPDEST PUSH2 0x665 JUMP JUMPDEST PUSH1 0x40 MLOAD PUSH2 0x162 SWAP2 SWAP1 PUSH2 0x1D62 JUMP JUMPDEST PUSH1 0x40 MLOAD DUP1 SWAP2 SUB SWAP1 RETURN JUMPDEST CALLVALUE DUP1 ISZERO PUSH2 0x177 JUMPI PUSH1 0x0 DUP1 REVERT JUMPDEST POP PUSH2 0x192 PUSH1 0x4 DUP1 CALLDATASIZE SUB DUP2 ADD SWAP1 PUSH2 0x18D SWAP2 SWAP1 PUSH2 0x1D7D JUMP JUMPDEST PUSH2 0x6B3 JUMP JUMPDEST PUSH1 0x40 MLOAD PUSH2 0x19F SWAP2 SWAP1 PUSH2 0x1BDE JUMP JUMPDEST PUSH1 0x40 MLOAD DUP1 SWAP2 SUB SWAP1 RETURN JUMPDEST CALLVALUE DUP1 ISZERO PUSH2 0x1B4 JUMPI PUSH1 0x0 DUP1 REVERT JUMPDEST POP PUSH2 0x1BD PUSH2 0xA29 JUMP JUMPDEST PUSH1 0x40 MLOAD PUSH2 0x1CA SWAP2 SWAP1 PUSH2 0x1DBD JUMP JUMPDEST PUSH1 0x40 MLOAD DUP1 SWAP2 SUB SWAP1 RETURN JUMPDEST CALLVALUE DUP1 ISZERO PUSH2 0x1DF JUMPI PUSH1 0x0 DUP1 REVERT JUMPDEST POP PUSH2 0x1FA PUSH1 0x4 DUP1 CALLDATASIZE SUB DUP2 ADD SWAP1 PUSH2 0x1F5 SWAP2 SWAP1 PUSH2 0x1C2C JUMP JUMPDEST PUSH2 0xA47 JUMP JUMPDEST PUSH1 0x40 MLOAD PUSH2 0x207 SWAP2 SWAP1 PUSH2 0x1D62 JUMP JUMPDEST PUSH1 0x40 MLOAD DUP1 SWAP2 SUB SWAP1 RETURN JUMPDEST CALLVALUE DUP1 ISZERO PUSH2 0x21C JUMPI PUSH1 0x0 DUP1 REVERT JUMPDEST POP PUSH2 0x237 PUSH1 0x4 DUP1 CALLDATASIZE SUB DUP2 ADD SWAP1 PUSH2 0x232 SWAP2 SWAP1 PUSH2 0x1DD8 JUMP JUMPDEST PUSH2 0xB1A JUMP JUMPDEST PUSH1 0x40 MLOAD PUSH2 0x246 SWAP4 SWAP3 SWAP2 SWAP1 PUSH2 0x1E2B JUMP JUMPDEST PUSH1 0x40 MLOAD DUP1 SWAP2 SUB SWAP1 RETURN JUMPDEST PUSH2 0x269 PUSH1 0x4 DUP1 CALLDATASIZE SUB DUP2 ADD SWAP1 PUSH2 0x264 SWAP2 SWAP1 PUSH2 0x1E62 JUMP JUMPDEST PUSH2 0xBA6 JUMP JUMPDEST STOP JUMPDEST CALLVALUE DUP1 ISZERO PUSH2 0x277 JUMPI PUSH1 0x0 DUP1 REVERT JUMPDEST POP PUSH2 0x292 PUSH1 0x4 DUP1 CALLDATASIZE SUB DUP2 ADD SWAP1 PUSH2 0x28D SWAP2 SWAP1 PUSH2 0x1EB5 JUMP JUMPDEST PUSH2 0xBBE JUMP JUMPDEST STOP JUMPDEST PUSH1 0x0 DUP1 PUSH1 0x14 SWAP1 SLOAD SWAP1 PUSH2 0x100 EXP SWAP1 DIV PUSH12 0xFFFFFFFFFFFFFFFFFFFFFFFF AND SWAP1 POP PUSH1 0x40 MLOAD DUP1 PUSH2 0x100 ADD PUSH1 0x40 MSTORE DUP1 DUP3 PUSH12 0xFFFFFFFFFFFFFFFFFFFFFFFF AND DUP2 MSTORE PUSH1 0x20 ADD DUP6 PUSH20 0xFFFFFFFFFFFFFFFFFFFFFFFFFFFFFFFFFFFFFFFF AND DUP2 MSTORE PUSH1 0x20 ADD TIMESTAMP PUSH6 0xFFFFFFFFFFFF AND DUP2 MSTORE PUSH1 0x20 ADD TIMESTAMP PUSH6 0xFFFFFFFFFFFF AND DUP2 MSTORE PUSH1 0x20 ADD DUP5 PUSH20 0xFFFFFFFFFFFFFFFFFFFFFFFFFFFFFFFFFFFFFFFF AND DUP2 MSTORE PUSH1 0x20 ADD DUP4 DUP2 MSTORE PUSH1 0x20 ADD PUSH1 0x0 DUP2 MSTORE PUSH1 0x20 ADD PUSH1 0x0 ISZERO ISZERO DUP2 MSTORE POP PUSH1 0x1 PUSH1 0x0 DUP4 PUSH12 0xFFFFFFFFFFFFFFFFFFFFFFFF AND PUSH12 0xFFFFFFFFFFFFFFFFFFFFFFFF AND DUP2 MSTORE PUSH1 0x20 ADD SWAP1 DUP2 MSTORE PUSH1 0x20 ADD PUSH1 0x0 KECCAK256 PUSH1 0x0 DUP3 ADD MLOAD DUP2 PUSH1 0x0 ADD PUSH1 0x0 PUSH2 0x100 EXP DUP2 SLOAD DUP2 PUSH12 0xFFFFFFFFFFFFFFFFFFFFFFFF MUL NOT AND SWAP1 DUP4 PUSH12 0xFFFFFFFFFFFFFFFFFFFFFFFF AND MUL OR SWAP1 SSTORE POP PUSH1 0x20 DUP3 ADD MLOAD DUP2 PUSH1 0x0 ADD PUSH1 0xC PUSH2 0x100 EXP DUP2 SLOAD DUP2 PUSH20 0xFFFFFFFFFFFFFFFFFFFFFFFFFFFFFFFFFFFFFFFF MUL NOT AND SWAP1 DUP4 PUSH20 0xFFFFFFFFFFFFFFFFFFFFFFFFFFFFFFFFFFFFFFFF AND MUL OR SWAP1 SSTORE POP PUSH1 0x40 DUP3 ADD MLOAD DUP2 PUSH1 0x1 ADD PUSH1 0x0 PUSH2 0x100 EXP DUP2 SLOAD DUP2 PUSH6 0xFFFFFFFFFFFF MUL NOT AND SWAP1 DUP4 PUSH6 0xFFFFFFFFFFFF AND MUL OR SWAP1 SSTORE POP PUSH1 0x60 DUP3 ADD MLOAD DUP2 PUSH1 0x1 ADD PUSH1 0x6 PUSH2 0x100 EXP DUP2 SLOAD DUP2 PUSH6 0xFFFFFFFFFFFF MUL NOT AND SWAP1 DUP4 PUSH6 0xFFFFFFFFFFFF AND MUL OR SWAP1 SSTORE POP PUSH1 0x80 DUP3 ADD MLOAD DUP2 PUSH1 0x1 ADD PUSH1 0xC PUSH2 0x100 EXP DUP2 SLOAD DUP2 PUSH20 0xFFFFFFFFFFFFFFFFFFFFFFFFFFFFFFFFFFFFFFFF MUL NOT AND SWAP1 DUP4 PUSH20 0xFFFFFFFFFFFFFFFFFFFFFFFFFFFFFFFFFFFFFFFF AND MUL OR SWAP1 SSTORE POP PUSH1 0xA0 DUP3 ADD MLOAD DUP2 PUSH1 0x2 ADD SSTORE PUSH1 0xC0 DUP3 ADD MLOAD DUP2 PUSH1 0x3 ADD SSTORE PUSH1 0xE0 DUP3 ADD MLOAD DUP2 PUSH1 0x4 ADD PUSH1 0x0 PUSH2 0x100 EXP DUP2 SLOAD DUP2 PUSH1 0xFF MUL NOT AND SWAP1 DUP4 ISZERO ISZERO MUL OR SWAP1 SSTORE POP SWAP1 POP POP PUSH1 0x0 DUP3 DUP3 PUSH12 0xFFFFFFFFFFFFFFFFFFFFFFFF AND PUSH32 0x1E216CC18D3E93F7C7B9A7B3A038093BC655D3D5CBFBB504D67D4376BD02D13F DUP8 DUP8 PUSH1 0x0 TIMESTAMP PUSH1 0x40 MLOAD PUSH2 0x503 SWAP5 SWAP4 SWAP3 SWAP2 SWAP1 PUSH2 0x1F1C JUMP JUMPDEST PUSH1 0x40 MLOAD DUP1 SWAP2 SUB SWAP1 LOG4 PUSH1 0x1 PUSH1 0x0 PUSH1 0x14 DUP3 DUP3 DUP3 SWAP1 SLOAD SWAP1 PUSH2 0x100 EXP SWAP1 DIV PUSH12 0xFFFFFFFFFFFFFFFFFFFFFFFF AND PUSH2 0x535 SWAP2 SWAP1 PUSH2 0x1F90 JUMP JUMPDEST SWAP3 POP PUSH2 0x100 EXP DUP2 SLOAD DUP2 PUSH12 0xFFFFFFFFFFFFFFFFFFFFFFFF MUL NOT AND SWAP1 DUP4 PUSH12 0xFFFFFFFFFFFFFFFFFFFFFFFF AND MUL OR SWAP1 SSTORE POP POP POP POP POP JUMP JUMPDEST PUSH1 0x60 PUSH2 0x58F PUSH1 0x0 DUP1 PUSH1 0x14 SWAP1 SLOAD SWAP1 PUSH2 0x100 EXP SWAP1 DIV PUSH12 0xFFFFFFFFFFFFFFFFFFFFFFFF AND PUSH2 0x6B3 JUMP JUMPDEST SWAP1 POP SWAP1 JUMP JUMPDEST PUSH1 0x1 PUSH1 0x20 MSTORE DUP1 PUSH1 0x0 MSTORE PUSH1 0x40 PUSH1 0x0 KECCAK256 PUSH1 0x0 SWAP2 POP SWAP1 POP DUP1 PUSH1 0x0 ADD PUSH1 0x0 SWAP1 SLOAD SWAP1 PUSH2 0x100 EXP SWAP1 DIV PUSH12 0xFFFFFFFFFFFFFFFFFFFFFFFF AND SWAP1 DUP1 PUSH1 0x0 ADD PUSH1 0xC SWAP1 SLOAD SWAP1 PUSH2 0x100 EXP SWAP1 DIV PUSH20 0xFFFFFFFFFFFFFFFFFFFFFFFFFFFFFFFFFFFFFFFF AND SWAP1 DUP1 PUSH1 0x1 ADD PUSH1 0x0 SWAP1 SLOAD SWAP1 PUSH2 0x100 EXP SWAP1 DIV PUSH6 0xFFFFFFFFFFFF AND SWAP1 DUP1 PUSH1 0x1 ADD PUSH1 0x6 SWAP1 SLOAD SWAP1 PUSH2 0x100 EXP SWAP1 DIV PUSH6 0xFFFFFFFFFFFF AND SWAP1 DUP1 PUSH1 0x1 ADD PUSH1 0xC SWAP1 SLOAD SWAP1 PUSH2 0x100 EXP SWAP1 DIV PUSH20 0xFFFFFFFFFFFFFFFFFFFFFFFFFFFFFFFFFFFFFFFF AND SWAP1 DUP1 PUSH1 0x2 ADD SLOAD SWAP1 DUP1 PUSH1 0x3 ADD SLOAD SWAP1 DUP1 PUSH1 0x4 ADD PUSH1 0x0 SWAP1 SLOAD SWAP1 PUSH2 0x100 EXP SWAP1 DIV PUSH1 0xFF AND SWAP1 POP DUP9 JUMP JUMPDEST PUSH1 0x2 PUSH1 0x20 MSTORE DUP2 PUSH1 0x0 MSTORE PUSH1 0x40 PUSH1 0x0 KECCAK256 DUP2 DUP2 SLOAD DUP2 LT PUSH2 0x681 JUMPI PUSH1 0x0 DUP1 REVERT JUMPDEST SWAP1 PUSH1 0x0 MSTORE PUSH1 0x20 PUSH1 0x0 KECCAK256 ADD PUSH1 0x0 SWAP2 POP SWAP2 POP SWAP1 SLOAD SWAP1 PUSH2 0x100 EXP SWAP1 DIV PUSH20 0xFFFFFFFFFFFFFFFFFFFFFFFFFFFFFFFFFFFFFFFF AND DUP2 JUMP JUMPDEST PUSH1 0x60 PUSH1 0x0 PUSH1 0x14 SWAP1 SLOAD SWAP1 PUSH2 0x100 EXP SWAP1 DIV PUSH12 0xFFFFFFFFFFFFFFFFFFFFFFFF AND PUSH12 0xFFFFFFFFFFFFFFFFFFFFFFFF AND DUP3 PUSH12 0xFFFFFFFFFFFFFFFFFFFFFFFF AND GT ISZERO PUSH2 0x72E JUMPI PUSH1 0x40 MLOAD PUSH32 0x8C379A000000000000000000000000000000000000000000000000000000000 DUP2 MSTORE PUSH1 0x4 ADD PUSH2 0x725 SWAP1 PUSH2 0x202D JUMP JUMPDEST PUSH1 0x40 MLOAD DUP1 SWAP2 SUB SWAP1 REVERT JUMPDEST DUP2 PUSH12 0xFFFFFFFFFFFFFFFFFFFFFFFF AND DUP4 PUSH12 0xFFFFFFFFFFFFFFFFFFFFFFFF AND GT ISZERO PUSH2 0x78D JUMPI PUSH1 0x40 MLOAD PUSH32 0x8C379A000000000000000000000000000000000000000000000000000000000 DUP2 MSTORE PUSH1 0x4 ADD PUSH2 0x784 SWAP1 PUSH2 0x2099 JUMP JUMPDEST PUSH1 0x40 MLOAD DUP1 SWAP2 SUB SWAP1 REVERT JUMPDEST PUSH1 0x0 DUP4 DUP4 PUSH2 0x79B SWAP2 SWAP1 PUSH2 0x20B9 JUMP JUMPDEST PUSH12 0xFFFFFFFFFFFFFFFFFFFFFFFF AND PUSH8 0xFFFFFFFFFFFFFFFF DUP2 GT ISZERO PUSH2 0x7C2 JUMPI PUSH2 0x7C1 PUSH2 0x20F9 JUMP JUMPDEST JUMPDEST PUSH1 0x40 MLOAD SWAP1 DUP1 DUP3 MSTORE DUP1 PUSH1 0x20 MUL PUSH1 0x20 ADD DUP3 ADD PUSH1 0x40 MSTORE DUP1 ISZERO PUSH2 0x7FB JUMPI DUP2 PUSH1 0x20 ADD JUMPDEST PUSH2 0x7E8 PUSH2 0x188E JUMP JUMPDEST DUP2 MSTORE PUSH1 0x20 ADD SWAP1 PUSH1 0x1 SWAP1 SUB SWAP1 DUP2 PUSH2 0x7E0 JUMPI SWAP1 POP JUMPDEST POP SWAP1 POP PUSH1 0x0 DUP5 SWAP1 POP JUMPDEST DUP4 PUSH12 0xFFFFFFFFFFFFFFFFFFFFFFFF AND DUP2 PUSH12 0xFFFFFFFFFFFFFFFFFFFFFFFF AND LT ISZERO PUSH2 0xA1E JUMPI PUSH1 0x1 PUSH1 0x0 DUP3 PUSH12 0xFFFFFFFFFFFFFFFFFFFFFFFF AND PUSH12 0xFFFFFFFFFFFFFFFFFFFFFFFF AND DUP2 MSTORE PUSH1 0x20 ADD SWAP1 DUP2 MSTORE PUSH1 0x20 ADD PUSH1 0x0 KECCAK256 PUSH1 0x40 MLOAD DUP1 PUSH2 0x100 ADD PUSH1 0x40 MSTORE SWAP1 DUP2 PUSH1 0x0 DUP3 ADD PUSH1 0x0 SWAP1 SLOAD SWAP1 PUSH2 0x100 EXP SWAP1 DIV PUSH12 0xFFFFFFFFFFFFFFFFFFFFFFFF AND PUSH12 0xFFFFFFFFFFFFFFFFFFFFFFFF AND PUSH12 0xFFFFFFFFFFFFFFFFFFFFFFFF AND DUP2 MSTORE PUSH1 0x20 ADD PUSH1 0x0 DUP3 ADD PUSH1 0xC SWAP1 SLOAD SWAP1 PUSH2 0x100 EXP SWAP1 DIV PUSH20 0xFFFFFFFFFFFFFFFFFFFFFFFFFFFFFFFFFFFFFFFF AND PUSH20 0xFFFFFFFFFFFFFFFFFFFFFFFFFFFFFFFFFFFFFFFF AND PUSH20 0xFFFFFFFFFFFFFFFFFFFFFFFFFFFFFFFFFFFFFFFF AND DUP2 MSTORE PUSH1 0x20 ADD PUSH1 0x1 DUP3 ADD PUSH1 0x0 SWAP1 SLOAD SWAP1 PUSH2 0x100 EXP SWAP1 DIV PUSH6 0xFFFFFFFFFFFF AND PUSH6 0xFFFFFFFFFFFF AND PUSH6 0xFFFFFFFFFFFF AND DUP2 MSTORE PUSH1 0x20 ADD PUSH1 0x1 DUP3 ADD PUSH1 0x6 SWAP1 SLOAD SWAP1 PUSH2 0x100 EXP SWAP1 DIV PUSH6 0xFFFFFFFFFFFF AND PUSH6 0xFFFFFFFFFFFF AND PUSH6 0xFFFFFFFFFFFF AND DUP2 MSTORE PUSH1 0x20 ADD PUSH1 0x1 DUP3 ADD PUSH1 0xC SWAP1 SLOAD SWAP1 PUSH2 0x100 EXP SWAP1 DIV PUSH20 0xFFFFFFFFFFFFFFFFFFFFFFFFFFFFFFFFFFFFFFFF AND PUSH20 0xFFFFFFFFFFFFFFFFFFFFFFFFFFFFFFFFFFFFFFFF AND PUSH20 0xFFFFFFFFFFFFFFFFFFFFFFFFFFFFFFFFFFFFFFFF AND DUP2 MSTORE PUSH1 0x20 ADD PUSH1 0x2 DUP3 ADD SLOAD DUP2 MSTORE PUSH1 0x20 ADD PUSH1 0x3 DUP3 ADD SLOAD DUP2 MSTORE PUSH1 0x20 ADD PUSH1 0x4 DUP3 ADD PUSH1 0x0 SWAP1 SLOAD SWAP1 PUSH2 0x100 EXP SWAP1 DIV PUSH1 0xFF AND ISZERO ISZERO ISZERO ISZERO DUP2 MSTORE POP POP DUP3 DUP7 DUP4 PUSH2 0x9E1 SWAP2 SWAP1 PUSH2 0x20B9 JUMP JUMPDEST PUSH12 0xFFFFFFFFFFFFFFFFFFFFFFFF AND DUP2 MLOAD DUP2 LT PUSH2 0xA00 JUMPI PUSH2 0x9FF PUSH2 0x2128 JUMP JUMPDEST JUMPDEST PUSH1 0x20 MUL PUSH1 0x20 ADD ADD DUP2 SWAP1 MSTORE POP DUP1 DUP1 PUSH2 0xA16 SWAP1 PUSH2 0x2157 JUMP JUMPDEST SWAP2 POP POP PUSH2 0x804 JUMP JUMPDEST POP DUP1 SWAP2 POP POP SWAP3 SWAP2 POP POP JUMP JUMPDEST PUSH1 0x0 PUSH1 0x14 SWAP1 SLOAD SWAP1 PUSH2 0x100 EXP SWAP1 DIV PUSH12 0xFFFFFFFFFFFFFFFFFFFFFFFF AND DUP2 JUMP JUMPDEST PUSH1 0x0 DUP1 PUSH1 0x14 SWAP1 SLOAD SWAP1 PUSH2 0x100 EXP SWAP1 DIV PUSH12 0xFFFFFFFFFFFFFFFFFFFFFFFF AND PUSH12 0xFFFFFFFFFFFFFFFFFFFFFFFF AND DUP3 PUSH12 0xFFFFFFFFFFFFFFFFFFFFFFFF AND LT PUSH2 0xAC0 JUMPI PUSH1 0x40 MLOAD PUSH32 0x8C379A000000000000000000000000000000000000000000000000000000000 DUP2 MSTORE PUSH1 0x4 ADD PUSH2 0xAB7 SWAP1 PUSH2 0x21D7 JUMP JUMPDEST PUSH1 0x40 MLOAD DUP1 SWAP2 SUB SWAP1 REVERT JUMPDEST PUSH1 0x1 PUSH1 0x0 DUP4 PUSH12 0xFFFFFFFFFFFFFFFFFFFFFFFF AND PUSH12 0xFFFFFFFFFFFFFFFFFFFFFFFF AND DUP2 MSTORE PUSH1 0x20 ADD SWAP1 DUP2 MSTORE PUSH1 0x20 ADD PUSH1 0x0 KECCAK256 PUSH1 0x1 ADD PUSH1 0xC SWAP1 SLOAD SWAP1 PUSH2 0x100 EXP SWAP1 DIV PUSH20 0xFFFFFFFFFFFFFFFFFFFFFFFFFFFFFFFFFFFFFFFF AND SWAP1 POP SWAP2 SWAP1 POP JUMP JUMPDEST PUSH1 0x3 PUSH1 0x20 MSTORE DUP3 PUSH1 0x0 MSTORE PUSH1 0x40 PUSH1 0x0 KECCAK256 PUSH1 0x20 MSTORE DUP2 PUSH1 0x0 MSTORE PUSH1 0x40 PUSH1 0x0 KECCAK256 DUP2 DUP2 SLOAD DUP2 LT PUSH2 0xB42 JUMPI PUSH1 0x0 DUP1 REVERT JUMPDEST SWAP1 PUSH1 0x0 MSTORE PUSH1 0x20 PUSH1 0x0 KECCAK256 SWAP1 PUSH1 0x2 MUL ADD PUSH1 0x0 SWAP3 POP SWAP3 POP POP POP DUP1 PUSH1 0x0 ADD PUSH1 0x0 SWAP1 SLOAD SWAP1 PUSH2 0x100 EXP SWAP1 DIV PUSH20 0xFFFFFFFFFFFFFFFFFFFFFFFFFFFFFFFFFFFFFFFF AND SWAP1 DUP1 PUSH1 0x0 ADD PUSH1 0x14 SWAP1 SLOAD SWAP1 PUSH2 0x100 EXP SWAP1 DIV PUSH12 0xFFFFFFFFFFFFFFFFFFFFFFFF AND SWAP1 DUP1 PUSH1 0x1 ADD SLOAD SWAP1 POP DUP4 JUMP JUMPDEST PUSH2 0xBB1 DUP4 DUP4 DUP4 PUSH2 0x1050 JUMP JUMPDEST PUSH2 0xBB9 PUSH2 0x1315 JUMP JUMPDEST POP POP POP JUMP JUMPDEST PUSH1 0x0 PUSH1 0x1 PUSH1 0x0 DUP7 PUSH12 0xFFFFFFFFFFFFFFFFFFFFFFFF AND PUSH12 0xFFFFFFFFFFFFFFFFFFFFFFFF AND DUP2 MSTORE PUSH1 0x20 ADD SWAP1 DUP2 MSTORE PUSH1 0x20 ADD PUSH1 0x0 KECCAK256 PUSH1 0x40 MLOAD DUP1 PUSH2 0x100 ADD PUSH1 0x40 MSTORE SWAP1 DUP2 PUSH1 0x0 DUP3 ADD PUSH1 0x0 SWAP1 SLOAD SWAP1 PUSH2 0x100 EXP SWAP1 DIV PUSH12 0xFFFFFFFFFFFFFFFFFFFFFFFF AND PUSH12 0xFFFFFFFFFFFFFFFFFFFFFFFF AND PUSH12 0xFFFFFFFFFFFFFFFFFFFFFFFF AND DUP2 MSTORE PUSH1 0x20 ADD PUSH1 0x0 DUP3 ADD PUSH1 0xC SWAP1 SLOAD SWAP1 PUSH2 0x100 EXP SWAP1 DIV PUSH20 0xFFFFFFFFFFFFFFFFFFFFFFFFFFFFFFFFFFFFFFFF AND PUSH20 0xFFFFFFFFFFFFFFFFFFFFFFFFFFFFFFFFFFFFFFFF AND PUSH20 0xFFFFFFFFFFFFFFFFFFFFFFFFFFFFFFFFFFFFFFFF AND DUP2 MSTORE PUSH1 0x20 ADD PUSH1 0x1 DUP3 ADD PUSH1 0x0 SWAP1 SLOAD SWAP1 PUSH2 0x100 EXP SWAP1 DIV PUSH6 0xFFFFFFFFFFFF AND PUSH6 0xFFFFFFFFFFFF AND PUSH6 0xFFFFFFFFFFFF AND DUP2 MSTORE PUSH1 0x20 ADD PUSH1 0x1 DUP3 ADD PUSH1 0x6 SWAP1 SLOAD SWAP1 PUSH2 0x100 EXP SWAP1 DIV PUSH6 0xFFFFFFFFFFFF AND PUSH6 0xFFFFFFFFFFFF AND PUSH6 0xFFFFFFFFFFFF AND DUP2 MSTORE PUSH1 0x20 ADD PUSH1 0x1 DUP3 ADD PUSH1 0xC SWAP1 SLOAD SWAP1 PUSH2 0x100 EXP SWAP1 DIV PUSH20 0xFFFFFFFFFFFFFFFFFFFFFFFFFFFFFFFFFFFFFFFF AND PUSH20 0xFFFFFFFFFFFFFFFFFFFFFFFFFFFFFFFFFFFFFFFF AND PUSH20 0xFFFFFFFFFFFFFFFFFFFFFFFFFFFFFFFFFFFFFFFF AND DUP2 MSTORE PUSH1 0x20 ADD PUSH1 0x2 DUP3 ADD SLOAD DUP2 MSTORE PUSH1 0x20 ADD PUSH1 0x3 DUP3 ADD SLOAD DUP2 MSTORE PUSH1 0x20 ADD PUSH1 0x4 DUP3 ADD PUSH1 0x0 SWAP1 SLOAD SWAP1 PUSH2 0x100 EXP SWAP1 DIV PUSH1 0xFF AND ISZERO ISZERO ISZERO ISZERO DUP2 MSTORE POP POP SWAP1 POP DUP1 PUSH1 0x20 ADD MLOAD PUSH20 0xFFFFFFFFFFFFFFFFFFFFFFFFFFFFFFFFFFFFFFFF AND CALLER PUSH20 0xFFFFFFFFFFFFFFFFFFFFFFFFFFFFFFFFFFFFFFFF AND EQ PUSH2 0xDE0 JUMPI PUSH1 0x40 MLOAD PUSH32 0x8C379A000000000000000000000000000000000000000000000000000000000 DUP2 MSTORE PUSH1 0x4 ADD PUSH2 0xDD7 SWAP1 PUSH2 0x2243 JUMP JUMPDEST PUSH1 0x40 MLOAD DUP1 SWAP2 SUB SWAP1 REVERT JUMPDEST PUSH1 0x40 MLOAD DUP1 PUSH2 0x100 ADD PUSH1 0x40 MSTORE DUP1 DUP7 PUSH12 0xFFFFFFFFFFFFFFFFFFFFFFFF AND DUP2 MSTORE PUSH1 0x20 ADD DUP6 PUSH20 0xFFFFFFFFFFFFFFFFFFFFFFFFFFFFFFFFFFFFFFFF AND DUP2 MSTORE PUSH1 0x20 ADD DUP3 PUSH1 0x40 ADD MLOAD PUSH6 0xFFFFFFFFFFFF AND DUP2 MSTORE PUSH1 0x20 ADD TIMESTAMP PUSH6 0xFFFFFFFFFFFF AND DUP2 MSTORE PUSH1 0x20 ADD DUP5 PUSH20 0xFFFFFFFFFFFFFFFFFFFFFFFFFFFFFFFFFFFFFFFF AND DUP2 MSTORE PUSH1 0x20 ADD DUP4 DUP2 MSTORE PUSH1 0x20 ADD DUP3 PUSH1 0xC0 ADD MLOAD DUP2 MSTORE PUSH1 0x20 ADD DUP3 PUSH1 0xE0 ADD MLOAD ISZERO ISZERO DUP2 MSTORE POP PUSH1 0x1 PUSH1 0x0 DUP8 PUSH12 0xFFFFFFFFFFFFFFFFFFFFFFFF AND PUSH12 0xFFFFFFFFFFFFFFFFFFFFFFFF AND DUP2 MSTORE PUSH1 0x20 ADD SWAP1 DUP2 MSTORE PUSH1 0x20 ADD PUSH1 0x0 KECCAK256 PUSH1 0x0 DUP3 ADD MLOAD DUP2 PUSH1 0x0 ADD PUSH1 0x0 PUSH2 0x100 EXP DUP2 SLOAD DUP2 PUSH12 0xFFFFFFFFFFFFFFFFFFFFFFFF MUL NOT AND SWAP1 DUP4 PUSH12 0xFFFFFFFFFFFFFFFFFFFFFFFF AND MUL OR SWAP1 SSTORE POP PUSH1 0x20 DUP3 ADD MLOAD DUP2 PUSH1 0x0 ADD PUSH1 0xC PUSH2 0x100 EXP DUP2 SLOAD DUP2 PUSH20 0xFFFFFFFFFFFFFFFFFFFFFFFFFFFFFFFFFFFFFFFF MUL NOT AND SWAP1 DUP4 PUSH20 0xFFFFFFFFFFFFFFFFFFFFFFFFFFFFFFFFFFFFFFFF AND MUL OR SWAP1 SSTORE POP PUSH1 0x40 DUP3 ADD MLOAD DUP2 PUSH1 0x1 ADD PUSH1 0x0 PUSH2 0x100 EXP DUP2 SLOAD DUP2 PUSH6 0xFFFFFFFFFFFF MUL NOT AND SWAP1 DUP4 PUSH6 0xFFFFFFFFFFFF AND MUL OR SWAP1 SSTORE POP PUSH1 0x60 DUP3 ADD MLOAD DUP2 PUSH1 0x1 ADD PUSH1 0x6 PUSH2 0x100 EXP DUP2 SLOAD DUP2 PUSH6 0xFFFFFFFFFFFF MUL NOT AND SWAP1 DUP4 PUSH6 0xFFFFFFFFFFFF AND MUL OR SWAP1 SSTORE POP PUSH1 0x80 DUP3 ADD MLOAD DUP2 PUSH1 0x1 ADD PUSH1 0xC PUSH2 0x100 EXP DUP2 SLOAD DUP2 PUSH20 0xFFFFFFFFFFFFFFFFFFFFFFFFFFFFFFFFFFFFFFFF MUL NOT AND SWAP1 DUP4 PUSH20 0xFFFFFFFFFFFFFFFFFFFFFFFFFFFFFFFFFFFFFFFF AND MUL OR SWAP1 SSTORE POP PUSH1 0xA0 DUP3 ADD MLOAD DUP2 PUSH1 0x2 ADD SSTORE PUSH1 0xC0 DUP3 ADD MLOAD DUP2 PUSH1 0x3 ADD SSTORE PUSH1 0xE0 DUP3 ADD MLOAD DUP2 PUSH1 0x4 ADD PUSH1 0x0 PUSH2 0x100 EXP DUP2 SLOAD DUP2 PUSH1 0xFF MUL NOT AND SWAP1 DUP4 ISZERO ISZERO MUL OR SWAP1 SSTORE POP SWAP1 POP POP DUP1 PUSH1 0xC0 ADD MLOAD DUP3 DUP7 PUSH12 0xFFFFFFFFFFFFFFFFFFFFFFFF AND PUSH32 0x603E97A48F8CADD1E9020BF96470C32853C5D9D8ED30F7CBE961F12AD2A45FA0 DUP8 DUP8 DUP7 PUSH1 0xE0 ADD MLOAD TIMESTAMP PUSH1 0x40 MLOAD PUSH2 0x1041 SWAP5 SWAP4 SWAP3 SWAP2 SWAP1 PUSH2 0x1F1C JUMP JUMPDEST PUSH1 0x40 MLOAD DUP1 SWAP2 SUB SWAP1 LOG4 POP POP POP POP POP JUMP JUMPDEST PUSH1 0x0 PUSH1 0x40 MLOAD DUP1 PUSH1 0x60 ADD PUSH1 0x40 MSTORE DUP1 DUP6 PUSH20 0xFFFFFFFFFFFFFFFFFFFFFFFFFFFFFFFFFFFFFFFF AND DUP2 MSTORE PUSH1 0x20 ADD DUP5 PUSH12 0xFFFFFFFFFFFFFFFFFFFFFFFF AND DUP2 MSTORE PUSH1 0x20 ADD DUP4 DUP2 MSTORE POP SWAP1 POP PUSH1 0x3 PUSH1 0x0 DUP5 PUSH12 0xFFFFFFFFFFFFFFFFFFFFFFFF AND PUSH12 0xFFFFFFFFFFFFFFFFFFFFFFFF AND DUP2 MSTORE PUSH1 0x20 ADD SWAP1 DUP2 MSTORE PUSH1 0x20 ADD PUSH1 0x0 KECCAK256 PUSH1 0x0 DUP6 PUSH20 0xFFFFFFFFFFFFFFFFFFFFFFFFFFFFFFFFFFFFFFFF AND PUSH20 0xFFFFFFFFFFFFFFFFFFFFFFFFFFFFFFFFFFFFFFFF AND DUP2 MSTORE PUSH1 0x20 ADD SWAP1 DUP2 MSTORE PUSH1 0x20 ADD PUSH1 0x0 KECCAK256 DUP2 SWAP1 DUP1 PUSH1 0x1 DUP2 SLOAD ADD DUP1 DUP3 SSTORE DUP1 SWAP2 POP POP PUSH1 0x1 SWAP1 SUB SWAP1 PUSH1 0x0 MSTORE PUSH1 0x20 PUSH1 0x0 KECCAK256 SWAP1 PUSH1 0x2 MUL ADD PUSH1 0x0 SWAP1 SWAP2 SWAP1 SWAP2 SWAP1 SWAP2 POP PUSH1 0x0 DUP3 ADD MLOAD DUP2 PUSH1 0x0 ADD PUSH1 0x0 PUSH2 0x100 EXP DUP2 SLOAD DUP2 PUSH20 0xFFFFFFFFFFFFFFFFFFFFFFFFFFFFFFFFFFFFFFFF MUL NOT AND SWAP1 DUP4 PUSH20 0xFFFFFFFFFFFFFFFFFFFFFFFFFFFFFFFFFFFFFFFF AND MUL OR SWAP1 SSTORE POP PUSH1 0x20 DUP3 ADD MLOAD DUP2 PUSH1 0x0 ADD PUSH1 0x14 PUSH2 0x100 EXP DUP2 SLOAD DUP2 PUSH12 0xFFFFFFFFFFFFFFFFFFFFFFFF MUL NOT AND SWAP1 DUP4 PUSH12 0xFFFFFFFFFFFFFFFFFFFFFFFF AND MUL OR SWAP1 SSTORE POP PUSH1 0x40 DUP3 ADD MLOAD DUP2 PUSH1 0x1 ADD SSTORE POP POP PUSH1 0x0 PUSH1 0x2 PUSH1 0x0 DUP6 PUSH12 0xFFFFFFFFFFFFFFFFFFFFFFFF AND PUSH12 0xFFFFFFFFFFFFFFFFFFFFFFFF AND DUP2 MSTORE PUSH1 0x20 ADD SWAP1 DUP2 MSTORE PUSH1 0x20 ADD PUSH1 0x0 KECCAK256 SWAP1 POP PUSH1 0x0 PUSH1 0x1 SWAP1 POP PUSH1 0x0 JUMPDEST DUP3 DUP1 SLOAD SWAP1 POP DUP2 PUSH12 0xFFFFFFFFFFFFFFFFFFFFFFFF AND LT ISZERO PUSH2 0x12A3 JUMPI DUP7 PUSH20 0xFFFFFFFFFFFFFFFFFFFFFFFFFFFFFFFFFFFFFFFF AND DUP4 DUP3 PUSH12 0xFFFFFFFFFFFFFFFFFFFFFFFF AND DUP2 SLOAD DUP2 LT PUSH2 0x1241 JUMPI PUSH2 0x1240 PUSH2 0x2128 JUMP JUMPDEST JUMPDEST SWAP1 PUSH1 0x0 MSTORE PUSH1 0x20 PUSH1 0x0 KECCAK256 ADD PUSH1 0x0 SWAP1 SLOAD SWAP1 PUSH2 0x100 EXP SWAP1 DIV PUSH20 0xFFFFFFFFFFFFFFFFFFFFFFFFFFFFFFFFFFFFFFFF AND PUSH20 0xFFFFFFFFFFFFFFFFFFFFFFFFFFFFFFFFFFFFFFFF AND SUB PUSH2 0x1290 JUMPI PUSH1 0x0 SWAP2 POP PUSH2 0x12A3 JUMP JUMPDEST DUP1 DUP1 PUSH2 0x129B SWAP1 PUSH2 0x2157 JUMP JUMPDEST SWAP2 POP POP PUSH2 0x11EF JUMP JUMPDEST POP DUP1 ISZERO PUSH2 0x130D JUMPI DUP2 DUP7 SWAP1 DUP1 PUSH1 0x1 DUP2 SLOAD ADD DUP1 DUP3 SSTORE DUP1 SWAP2 POP POP PUSH1 0x1 SWAP1 SUB SWAP1 PUSH1 0x0 MSTORE PUSH1 0x20 PUSH1 0x0 KECCAK256 ADD PUSH1 0x0 SWAP1 SWAP2 SWAP1 SWAP2 SWAP1 SWAP2 PUSH2 0x100 EXP DUP2 SLOAD DUP2 PUSH20 0xFFFFFFFFFFFFFFFFFFFFFFFFFFFFFFFFFFFFFFFF MUL NOT AND SWAP1 DUP4 PUSH20 0xFFFFFFFFFFFFFFFFFFFFFFFFFFFFFFFFFFFFFFFF AND MUL OR SWAP1 SSTORE POP JUMPDEST POP POP POP POP POP POP JUMP JUMPDEST PUSH1 0x0 DUP1 PUSH1 0x14 SWAP1 SLOAD SWAP1 PUSH2 0x100 EXP SWAP1 DIV PUSH12 0xFFFFFFFFFFFFFFFFFFFFFFFF AND PUSH12 0xFFFFFFFFFFFFFFFFFFFFFFFF AND PUSH8 0xFFFFFFFFFFFFFFFF DUP2 GT ISZERO PUSH2 0x1358 JUMPI PUSH2 0x1357 PUSH2 0x20F9 JUMP JUMPDEST JUMPDEST PUSH1 0x40 MLOAD SWAP1 DUP1 DUP3 MSTORE DUP1 PUSH1 0x20 MUL PUSH1 0x20 ADD DUP3 ADD PUSH1 0x40 MSTORE DUP1 ISZERO PUSH2 0x1386 JUMPI DUP2 PUSH1 0x20 ADD PUSH1 0x20 DUP3 MUL DUP1 CALLDATASIZE DUP4 CALLDATACOPY DUP1 DUP3 ADD SWAP2 POP POP SWAP1 POP JUMPDEST POP SWAP1 POP PUSH1 0x0 DUP1 PUSH1 0x0 SWAP1 POP JUMPDEST PUSH1 0x0 PUSH1 0x14 SWAP1 SLOAD SWAP1 PUSH2 0x100 EXP SWAP1 DIV PUSH12 0xFFFFFFFFFFFFFFFFFFFFFFFF AND PUSH12 0xFFFFFFFFFFFFFFFFFFFFFFFF AND DUP2 PUSH12 0xFFFFFFFFFFFFFFFFFFFFFFFF AND LT ISZERO PUSH2 0x16C9 JUMPI PUSH1 0x0 DUP1 PUSH1 0x2 PUSH1 0x0 DUP5 PUSH12 0xFFFFFFFFFFFFFFFFFFFFFFFF AND PUSH12 0xFFFFFFFFFFFFFFFFFFFFFFFF AND DUP2 MSTORE PUSH1 0x20 ADD SWAP1 DUP2 MSTORE PUSH1 0x20 ADD PUSH1 0x0 KECCAK256 DUP1 SLOAD DUP1 PUSH1 0x20 MUL PUSH1 0x20 ADD PUSH1 0x40 MLOAD SWAP1 DUP2 ADD PUSH1 0x40 MSTORE DUP1 SWAP3 SWAP2 SWAP1 DUP2 DUP2 MSTORE PUSH1 0x20 ADD DUP3 DUP1 SLOAD DUP1 ISZERO PUSH2 0x1481 JUMPI PUSH1 0x20 MUL DUP3 ADD SWAP2 SWAP1 PUSH1 0x0 MSTORE PUSH1 0x20 PUSH1 0x0 KECCAK256 SWAP1 JUMPDEST DUP2 PUSH1 0x0 SWAP1 SLOAD SWAP1 PUSH2 0x100 EXP SWAP1 DIV PUSH20 0xFFFFFFFFFFFFFFFFFFFFFFFFFFFFFFFFFFFFFFFF AND PUSH20 0xFFFFFFFFFFFFFFFFFFFFFFFFFFFFFFFFFFFFFFFF AND DUP2 MSTORE PUSH1 0x20 ADD SWAP1 PUSH1 0x1 ADD SWAP1 DUP1 DUP4 GT PUSH2 0x1437 JUMPI JUMPDEST POP POP POP POP POP SWAP1 POP PUSH1 0x0 JUMPDEST DUP2 MLOAD DUP2 PUSH12 0xFFFFFFFFFFFFFFFFFFFFFFFF AND LT ISZERO PUSH2 0x1668 JUMPI PUSH1 0x0 DUP1 PUSH1 0x0 SWAP1 POP JUMPDEST PUSH1 0x3 PUSH1 0x0 DUP8 PUSH12 0xFFFFFFFFFFFFFFFFFFFFFFFF AND PUSH12 0xFFFFFFFFFFFFFFFFFFFFFFFF AND DUP2 MSTORE PUSH1 0x20 ADD SWAP1 DUP2 MSTORE PUSH1 0x20 ADD PUSH1 0x0 KECCAK256 PUSH1 0x0 DUP6 DUP6 PUSH12 0xFFFFFFFFFFFFFFFFFFFFFFFF AND DUP2 MLOAD DUP2 LT PUSH2 0x14FC JUMPI PUSH2 0x14FB PUSH2 0x2128 JUMP JUMPDEST JUMPDEST PUSH1 0x20 MUL PUSH1 0x20 ADD ADD MLOAD PUSH20 0xFFFFFFFFFFFFFFFFFFFFFFFFFFFFFFFFFFFFFFFF AND PUSH20 0xFFFFFFFFFFFFFFFFFFFFFFFFFFFFFFFFFFFFFFFF AND DUP2 MSTORE PUSH1 0x20 ADD SWAP1 DUP2 MSTORE PUSH1 0x20 ADD PUSH1 0x0 KECCAK256 DUP1 SLOAD SWAP1 POP DUP2 PUSH12 0xFFFFFFFFFFFFFFFFFFFFFFFF AND LT ISZERO PUSH2 0x163D JUMPI PUSH1 0x3 PUSH1 0x0 DUP8 PUSH12 0xFFFFFFFFFFFFFFFFFFFFFFFF AND PUSH12 0xFFFFFFFFFFFFFFFFFFFFFFFF AND DUP2 MSTORE PUSH1 0x20 ADD SWAP1 DUP2 MSTORE PUSH1 0x20 ADD PUSH1 0x0 KECCAK256 PUSH1 0x0 DUP6 DUP6 PUSH12 0xFFFFFFFFFFFFFFFFFFFFFFFF AND DUP2 MLOAD DUP2 LT PUSH2 0x15A9 JUMPI PUSH2 0x15A8 PUSH2 0x2128 JUMP JUMPDEST JUMPDEST PUSH1 0x20 MUL PUSH1 0x20 ADD ADD MLOAD PUSH20 0xFFFFFFFFFFFFFFFFFFFFFFFFFFFFFFFFFFFFFFFF AND PUSH20 0xFFFFFFFFFFFFFFFFFFFFFFFFFFFFFFFFFFFFFFFF AND DUP2 MSTORE PUSH1 0x20 ADD SWAP1 DUP2 MSTORE PUSH1 0x20 ADD PUSH1 0x0 KECCAK256 DUP2 PUSH12 0xFFFFFFFFFFFFFFFFFFFFFFFF AND DUP2 SLOAD DUP2 LT PUSH2 0x160B JUMPI PUSH2 0x160A PUSH2 0x2128 JUMP JUMPDEST JUMPDEST SWAP1 PUSH1 0x0 MSTORE PUSH1 0x20 PUSH1 0x0 KECCAK256 SWAP1 PUSH1 0x2 MUL ADD PUSH1 0x1 ADD SLOAD DUP3 PUSH2 0x1628 SWAP2 SWAP1 PUSH2 0x2263 JUMP JUMPDEST SWAP2 POP DUP1 DUP1 PUSH2 0x1635 SWAP1 PUSH2 0x2157 JUMP JUMPDEST SWAP2 POP POP PUSH2 0x14AA JUMP JUMPDEST POP PUSH2 0x1647 DUP2 PUSH2 0x1831 JUMP JUMPDEST DUP5 PUSH2 0x1652 SWAP2 SWAP1 PUSH2 0x2263 JUMP JUMPDEST SWAP4 POP POP DUP1 DUP1 PUSH2 0x1660 SWAP1 PUSH2 0x2157 JUMP JUMPDEST SWAP2 POP POP PUSH2 0x148B JUMP JUMPDEST POP PUSH1 0x2 DUP3 PUSH2 0x1676 SWAP2 SWAP1 PUSH2 0x23D7 JUMP JUMPDEST SWAP2 POP DUP2 DUP6 DUP5 PUSH12 0xFFFFFFFFFFFFFFFFFFFFFFFF AND DUP2 MLOAD DUP2 LT PUSH2 0x169A JUMPI PUSH2 0x1699 PUSH2 0x2128 JUMP JUMPDEST JUMPDEST PUSH1 0x20 MUL PUSH1 0x20 ADD ADD DUP2 DUP2 MSTORE POP POP DUP2 DUP5 PUSH2 0x16B2 SWAP2 SWAP1 PUSH2 0x2263 JUMP JUMPDEST SWAP4 POP POP POP DUP1 DUP1 PUSH2 0x16C1 SWAP1 PUSH2 0x2157 JUMP JUMPDEST SWAP2 POP POP PUSH2 0x1391 JUMP JUMPDEST POP PUSH1 0x0 JUMPDEST PUSH1 0x0 PUSH1 0x14 SWAP1 SLOAD SWAP1 PUSH2 0x100 EXP SWAP1 DIV PUSH12 0xFFFFFFFFFFFFFFFFFFFFFFFF AND PUSH12 0xFFFFFFFFFFFFFFFFFFFFFFFF AND DUP2 PUSH12 0xFFFFFFFFFFFFFFFFFFFFFFFF AND LT ISZERO PUSH2 0x182C JUMPI DUP2 PUSH1 0x0 DUP1 SLOAD SWAP1 PUSH2 0x100 EXP SWAP1 DIV PUSH20 0xFFFFFFFFFFFFFFFFFFFFFFFFFFFFFFFFFFFFFFFF AND PUSH20 0xFFFFFFFFFFFFFFFFFFFFFFFFFFFFFFFFFFFFFFFF AND PUSH4 0x70A08231 ADDRESS PUSH1 0x40 MLOAD DUP3 PUSH4 0xFFFFFFFF AND PUSH1 0xE0 SHL DUP2 MSTORE PUSH1 0x4 ADD PUSH2 0x1765 SWAP2 SWAP1 PUSH2 0x1D62 JUMP JUMPDEST PUSH1 0x20 PUSH1 0x40 MLOAD DUP1 DUP4 SUB DUP2 DUP7 GAS STATICCALL ISZERO DUP1 ISZERO PUSH2 0x1782 JUMPI RETURNDATASIZE PUSH1 0x0 DUP1 RETURNDATACOPY RETURNDATASIZE PUSH1 0x0 REVERT JUMPDEST POP POP POP POP PUSH1 0x40 MLOAD RETURNDATASIZE PUSH1 0x1F NOT PUSH1 0x1F DUP3 ADD AND DUP3 ADD DUP1 PUSH1 0x40 MSTORE POP DUP2 ADD SWAP1 PUSH2 0x17A6 SWAP2 SWAP1 PUSH2 0x2437 JUMP JUMPDEST DUP5 DUP4 PUSH12 0xFFFFFFFFFFFFFFFFFFFFFFFF AND DUP2 MLOAD DUP2 LT PUSH2 0x17C7 JUMPI PUSH2 0x17C6 PUSH2 0x2128 JUMP JUMPDEST JUMPDEST PUSH1 0x20 MUL PUSH1 0x20 ADD ADD MLOAD PUSH2 0x17D9 SWAP2 SWAP1 PUSH2 0x2464 JUMP JUMPDEST PUSH2 0x17E3 SWAP2 SWAP1 PUSH2 0x24D5 JUMP JUMPDEST PUSH1 0x1 PUSH1 0x0 DUP4 PUSH12 0xFFFFFFFFFFFFFFFFFFFFFFFF AND PUSH12 0xFFFFFFFFFFFFFFFFFFFFFFFF AND DUP2 MSTORE PUSH1 0x20 ADD SWAP1 DUP2 MSTORE PUSH1 0x20 ADD PUSH1 0x0 KECCAK256 PUSH1 0x3 ADD DUP2 SWAP1 SSTORE POP DUP1 DUP1 PUSH2 0x1824 SWAP1 PUSH2 0x2157 JUMP JUMPDEST SWAP2 POP POP PUSH2 0x16CD JUMP JUMPDEST POP POP POP JUMP JUMPDEST PUSH1 0x0 DUP1 PUSH1 0x2 PUSH1 0x1 DUP5 PUSH2 0x1843 SWAP2 SWAP1 PUSH2 0x2263 JUMP JUMPDEST PUSH2 0x184D SWAP2 SWAP1 PUSH2 0x24D5 JUMP JUMPDEST SWAP1 POP DUP3 SWAP2 POP JUMPDEST DUP2 DUP2 LT ISZERO PUSH2 0x1888 JUMPI DUP1 SWAP2 POP PUSH1 0x2 DUP2 DUP3 DUP6 PUSH2 0x186D SWAP2 SWAP1 PUSH2 0x24D5 JUMP JUMPDEST PUSH2 0x1877 SWAP2 SWAP1 PUSH2 0x2263 JUMP JUMPDEST PUSH2 0x1881 SWAP2 SWAP1 PUSH2 0x24D5 JUMP JUMPDEST SWAP1 POP PUSH2 0x1853 JUMP JUMPDEST POP SWAP2 SWAP1 POP JUMP JUMPDEST PUSH1 0x40 MLOAD DUP1 PUSH2 0x100 ADD PUSH1 0x40 MSTORE DUP1 PUSH1 0x0 PUSH12 0xFFFFFFFFFFFFFFFFFFFFFFFF AND DUP2 MSTORE PUSH1 0x20 ADD PUSH1 0x0 PUSH20 0xFFFFFFFFFFFFFFFFFFFFFFFFFFFFFFFFFFFFFFFF AND DUP2 MSTORE PUSH1 0x20 ADD PUSH1 0x0 PUSH6 0xFFFFFFFFFFFF AND DUP2 MSTORE PUSH1 0x20 ADD PUSH1 0x0 PUSH6 0xFFFFFFFFFFFF AND DUP2 MSTORE PUSH1 0x20 ADD PUSH1 0x0 PUSH20 0xFFFFFFFFFFFFFFFFFFFFFFFFFFFFFFFFFFFFFFFF AND DUP2 MSTORE PUSH1 0x20 ADD PUSH1 0x0 DUP2 MSTORE PUSH1 0x20 ADD PUSH1 0x0 DUP2 MSTORE PUSH1 0x20 ADD PUSH1 0x0 ISZERO ISZERO DUP2 MSTORE POP SWAP1 JUMP JUMPDEST PUSH1 0x0 DUP1 REVERT JUMPDEST PUSH1 0x0 PUSH20 0xFFFFFFFFFFFFFFFFFFFFFFFFFFFFFFFFFFFFFFFF DUP3 AND SWAP1 POP SWAP2 SWAP1 POP JUMP JUMPDEST PUSH1 0x0 PUSH2 0x194F DUP3 PUSH2 0x1924 JUMP JUMPDEST SWAP1 POP SWAP2 SWAP1 POP JUMP JUMPDEST PUSH2 0x195F DUP2 PUSH2 0x1944 JUMP JUMPDEST DUP2 EQ PUSH2 0x196A JUMPI PUSH1 0x0 DUP1 REVERT JUMPDEST POP JUMP JUMPDEST PUSH1 0x0 DUP2 CALLDATALOAD SWAP1 POP PUSH2 0x197C DUP2 PUSH2 0x1956 JUMP JUMPDEST SWAP3 SWAP2 POP POP JUMP JUMPDEST PUSH1 0x0 DUP2 SWAP1 POP SWAP2 SWAP1 POP JUMP JUMPDEST PUSH2 0x1995 DUP2 PUSH2 0x1982 JUMP JUMPDEST DUP2 EQ PUSH2 0x19A0 JUMPI PUSH1 0x0 DUP1 REVERT JUMPDEST POP JUMP JUMPDEST PUSH1 0x0 DUP2 CALLDATALOAD SWAP1 POP PUSH2 0x19B2 DUP2 PUSH2 0x198C JUMP JUMPDEST SWAP3 SWAP2 POP POP JUMP JUMPDEST PUSH1 0x0 DUP1 PUSH1 0x0 PUSH1 0x60 DUP5 DUP7 SUB SLT ISZERO PUSH2 0x19D1 JUMPI PUSH2 0x19D0 PUSH2 0x191F JUMP JUMPDEST JUMPDEST PUSH1 0x0 PUSH2 0x19DF DUP7 DUP3 DUP8 ADD PUSH2 0x196D JUMP JUMPDEST SWAP4 POP POP PUSH1 0x20 PUSH2 0x19F0 DUP7 DUP3 DUP8 ADD PUSH2 0x196D JUMP JUMPDEST SWAP3 POP POP PUSH1 0x40 PUSH2 0x1A01 DUP7 DUP3 DUP8 ADD PUSH2 0x19A3 JUMP JUMPDEST SWAP2 POP POP SWAP3 POP SWAP3 POP SWAP3 JUMP JUMPDEST PUSH1 0x0 DUP2 MLOAD SWAP1 POP SWAP2 SWAP1 POP JUMP JUMPDEST PUSH1 0x0 DUP3 DUP3 MSTORE PUSH1 0x20 DUP3 ADD SWAP1 POP SWAP3 SWAP2 POP POP JUMP JUMPDEST PUSH1 0x0 DUP2 SWAP1 POP PUSH1 0x20 DUP3 ADD SWAP1 POP SWAP2 SWAP1 POP JUMP JUMPDEST PUSH1 0x0 PUSH12 0xFFFFFFFFFFFFFFFFFFFFFFFF DUP3 AND SWAP1 POP SWAP2 SWAP1 POP JUMP JUMPDEST PUSH2 0x1A58 DUP2 PUSH2 0x1A37 JUMP JUMPDEST DUP3 MSTORE POP POP JUMP JUMPDEST PUSH2 0x1A67 DUP2 PUSH2 0x1944 JUMP JUMPDEST DUP3 MSTORE POP POP JUMP JUMPDEST PUSH1 0x0 PUSH6 0xFFFFFFFFFFFF DUP3 AND SWAP1 POP SWAP2 SWAP1 POP JUMP JUMPDEST PUSH2 0x1A88 DUP2 PUSH2 0x1A6D JUMP JUMPDEST DUP3 MSTORE POP POP JUMP JUMPDEST PUSH2 0x1A97 DUP2 PUSH2 0x1982 JUMP JUMPDEST DUP3 MSTORE POP POP JUMP JUMPDEST PUSH1 0x0 DUP2 ISZERO ISZERO SWAP1 POP SWAP2 SWAP1 POP JUMP JUMPDEST PUSH2 0x1AB2 DUP2 PUSH2 0x1A9D JUMP JUMPDEST DUP3 MSTORE POP POP JUMP JUMPDEST PUSH2 0x100 DUP3 ADD PUSH1 0x0 DUP3 ADD MLOAD PUSH2 0x1ACF PUSH1 0x0 DUP6 ADD DUP3 PUSH2 0x1A4F JUMP JUMPDEST POP PUSH1 0x20 DUP3 ADD MLOAD PUSH2 0x1AE2 PUSH1 0x20 DUP6 ADD DUP3 PUSH2 0x1A5E JUMP JUMPDEST POP PUSH1 0x40 DUP3 ADD MLOAD PUSH2 0x1AF5 PUSH1 0x40 DUP6 ADD DUP3 PUSH2 0x1A7F JUMP JUMPDEST POP PUSH1 0x60 DUP3 ADD MLOAD PUSH2 0x1B08 PUSH1 0x60 DUP6 ADD DUP3 PUSH2 0x1A7F JUMP JUMPDEST POP PUSH1 0x80 DUP3 ADD MLOAD PUSH2 0x1B1B PUSH1 0x80 DUP6 ADD DUP3 PUSH2 0x1A5E JUMP JUMPDEST POP PUSH1 0xA0 DUP3 ADD MLOAD PUSH2 0x1B2E PUSH1 0xA0 DUP6 ADD DUP3 PUSH2 0x1A8E JUMP JUMPDEST POP PUSH1 0xC0 DUP3 ADD MLOAD PUSH2 0x1B41 PUSH1 0xC0 DUP6 ADD DUP3 PUSH2 0x1A8E JUMP JUMPDEST POP PUSH1 0xE0 DUP3 ADD MLOAD PUSH2 0x1B54 PUSH1 0xE0 DUP6 ADD DUP3 PUSH2 0x1AA9 JUMP JUMPDEST POP POP POP POP JUMP JUMPDEST PUSH1 0x0 PUSH2 0x1B66 DUP4 DUP4 PUSH2 0x1AB8 JUMP JUMPDEST PUSH2 0x100 DUP4 ADD SWAP1 POP SWAP3 SWAP2 POP POP JUMP JUMPDEST PUSH1 0x0 PUSH1 0x20 DUP3 ADD SWAP1 POP SWAP2 SWAP1 POP JUMP JUMPDEST PUSH1 0x0 PUSH2 0x1B8B DUP3 PUSH2 0x1A0B JUMP JUMPDEST PUSH2 0x1B95 DUP2 DUP6 PUSH2 0x1A16 JUMP JUMPDEST SWAP4 POP PUSH2 0x1BA0 DUP4 PUSH2 0x1A27 JUMP JUMPDEST DUP1 PUSH1 0x0 JUMPDEST DUP4 DUP2 LT ISZERO PUSH2 0x1BD1 JUMPI DUP2 MLOAD PUSH2 0x1BB8 DUP9 DUP3 PUSH2 0x1B5A JUMP JUMPDEST SWAP8 POP PUSH2 0x1BC3 DUP4 PUSH2 0x1B73 JUMP JUMPDEST SWAP3 POP POP PUSH1 0x1 DUP2 ADD SWAP1 POP PUSH2 0x1BA4 JUMP JUMPDEST POP DUP6 SWAP4 POP POP POP POP SWAP3 SWAP2 POP POP JUMP JUMPDEST PUSH1 0x0 PUSH1 0x20 DUP3 ADD SWAP1 POP DUP2 DUP2 SUB PUSH1 0x0 DUP4 ADD MSTORE PUSH2 0x1BF8 DUP2 DUP5 PUSH2 0x1B80 JUMP JUMPDEST SWAP1 POP SWAP3 SWAP2 POP POP JUMP JUMPDEST PUSH2 0x1C09 DUP2 PUSH2 0x1A37 JUMP JUMPDEST DUP2 EQ PUSH2 0x1C14 JUMPI PUSH1 0x0 DUP1 REVERT JUMPDEST POP JUMP JUMPDEST PUSH1 0x0 DUP2 CALLDATALOAD SWAP1 POP PUSH2 0x1C26 DUP2 PUSH2 0x1C00 JUMP JUMPDEST SWAP3 SWAP2 POP POP JUMP JUMPDEST PUSH1 0x0 PUSH1 0x20 DUP3 DUP5 SUB SLT ISZERO PUSH2 0x1C42 JUMPI PUSH2 0x1C41 PUSH2 0x191F JUMP JUMPDEST JUMPDEST PUSH1 0x0 PUSH2 0x1C50 DUP5 DUP3 DUP6 ADD PUSH2 0x1C17 JUMP JUMPDEST SWAP2 POP POP SWAP3 SWAP2 POP POP JUMP JUMPDEST PUSH2 0x1C62 DUP2 PUSH2 0x1A37 JUMP JUMPDEST DUP3 MSTORE POP POP JUMP JUMPDEST PUSH2 0x1C71 DUP2 PUSH2 0x1944 JUMP JUMPDEST DUP3 MSTORE POP POP JUMP JUMPDEST PUSH2 0x1C80 DUP2 PUSH2 0x1A6D JUMP JUMPDEST DUP3 MSTORE POP POP JUMP JUMPDEST PUSH2 0x1C8F DUP2 PUSH2 0x1982 JUMP JUMPDEST DUP3 MSTORE POP POP JUMP JUMPDEST PUSH2 0x1C9E DUP2 PUSH2 0x1A9D JUMP JUMPDEST DUP3 MSTORE POP POP JUMP JUMPDEST PUSH1 0x0 PUSH2 0x100 DUP3 ADD SWAP1 POP PUSH2 0x1CBA PUSH1 0x0 DUP4 ADD DUP12 PUSH2 0x1C59 JUMP JUMPDEST PUSH2 0x1CC7 PUSH1 0x20 DUP4 ADD DUP11 PUSH2 0x1C68 JUMP JUMPDEST PUSH2 0x1CD4 PUSH1 0x40 DUP4 ADD DUP10 PUSH2 0x1C77 JUMP JUMPDEST PUSH2 0x1CE1 PUSH1 0x60 DUP4 ADD DUP9 PUSH2 0x1C77 JUMP JUMPDEST PUSH2 0x1CEE PUSH1 0x80 DUP4 ADD DUP8 PUSH2 0x1C68 JUMP JUMPDEST PUSH2 0x1CFB PUSH1 0xA0 DUP4 ADD DUP7 PUSH2 0x1C86 JUMP JUMPDEST PUSH2 0x1D08 PUSH1 0xC0 DUP4 ADD DUP6 PUSH2 0x1C86 JUMP JUMPDEST PUSH2 0x1D15 PUSH1 0xE0 DUP4 ADD DUP5 PUSH2 0x1C95 JUMP JUMPDEST SWAP10 SWAP9 POP POP POP POP POP POP POP POP POP JUMP JUMPDEST PUSH1 0x0 DUP1 PUSH1 0x40 DUP4 DUP6 SUB SLT ISZERO PUSH2 0x1D39 JUMPI PUSH2 0x1D38 PUSH2 0x191F JUMP JUMPDEST JUMPDEST PUSH1 0x0 PUSH2 0x1D47 DUP6 DUP3 DUP7 ADD PUSH2 0x1C17 JUMP JUMPDEST SWAP3 POP POP PUSH1 0x20 PUSH2 0x1D58 DUP6 DUP3 DUP7 ADD PUSH2 0x19A3 JUMP JUMPDEST SWAP2 POP POP SWAP3 POP SWAP3 SWAP1 POP JUMP JUMPDEST PUSH1 0x0 PUSH1 0x20 DUP3 ADD SWAP1 POP PUSH2 0x1D77 PUSH1 0x0 DUP4 ADD DUP5 PUSH2 0x1C68 JUMP JUMPDEST SWAP3 SWAP2 POP POP JUMP JUMPDEST PUSH1 0x0 DUP1 PUSH1 0x40 DUP4 DUP6 SUB SLT ISZERO PUSH2 0x1D94 JUMPI PUSH2 0x1D93 PUSH2 0x191F JUMP JUMPDEST JUMPDEST PUSH1 0x0 PUSH2 0x1DA2 DUP6 DUP3 DUP7 ADD PUSH2 0x1C17 JUMP JUMPDEST SWAP3 POP POP PUSH1 0x20 PUSH2 0x1DB3 DUP6 DUP3 DUP7 ADD PUSH2 0x1C17 JUMP JUMPDEST SWAP2 POP POP SWAP3 POP SWAP3 SWAP1 POP JUMP JUMPDEST PUSH1 0x0 PUSH1 0x20 DUP3 ADD SWAP1 POP PUSH2 0x1DD2 PUSH1 0x0 DUP4 ADD DUP5 PUSH2 0x1C59 JUMP JUMPDEST SWAP3 SWAP2 POP POP JUMP JUMPDEST PUSH1 0x0 DUP1 PUSH1 0x0 PUSH1 0x60 DUP5 DUP7 SUB SLT ISZERO PUSH2 0x1DF1 JUMPI PUSH2 0x1DF0 PUSH2 0x191F JUMP JUMPDEST JUMPDEST PUSH1 0x0 PUSH2 0x1DFF DUP7 DUP3 DUP8 ADD PUSH2 0x1C17 JUMP JUMPDEST SWAP4 POP POP PUSH1 0x20 PUSH2 0x1E10 DUP7 DUP3 DUP8 ADD PUSH2 0x196D JUMP JUMPDEST SWAP3 POP POP PUSH1 0x40 PUSH2 0x1E21 DUP7 DUP3 DUP8 ADD PUSH2 0x19A3 JUMP JUMPDEST SWAP2 POP POP SWAP3 POP SWAP3 POP SWAP3 JUMP JUMPDEST PUSH1 0x0 PUSH1 0x60 DUP3 ADD SWAP1 POP PUSH2 0x1E40 PUSH1 0x0 DUP4 ADD DUP7 PUSH2 0x1C68 JUMP JUMPDEST PUSH2 0x1E4D PUSH1 0x20 DUP4 ADD DUP6 PUSH2 0x1C59 JUMP JUMPDEST PUSH2 0x1E5A PUSH1 0x40 DUP4 ADD DUP5 PUSH2 0x1C86 JUMP JUMPDEST SWAP5 SWAP4 POP POP POP POP JUMP JUMPDEST PUSH1 0x0 DUP1 PUSH1 0x0 PUSH1 0x60 DUP5 DUP7 SUB SLT ISZERO PUSH2 0x1E7B JUMPI PUSH2 0x1E7A PUSH2 0x191F JUMP JUMPDEST JUMPDEST PUSH1 0x0 PUSH2 0x1E89 DUP7 DUP3 DUP8 ADD PUSH2 0x196D JUMP JUMPDEST SWAP4 POP POP PUSH1 0x20 PUSH2 0x1E9A DUP7 DUP3 DUP8 ADD PUSH2 0x1C17 JUMP JUMPDEST SWAP3 POP POP PUSH1 0x40 PUSH2 0x1EAB DUP7 DUP3 DUP8 ADD PUSH2 0x19A3 JUMP JUMPDEST SWAP2 POP POP SWAP3 POP SWAP3 POP SWAP3 JUMP JUMPDEST PUSH1 0x0 DUP1 PUSH1 0x0 DUP1 PUSH1 0x80 DUP6 DUP8 SUB SLT ISZERO PUSH2 0x1ECF JUMPI PUSH2 0x1ECE PUSH2 0x191F JUMP JUMPDEST JUMPDEST PUSH1 0x0 PUSH2 0x1EDD DUP8 DUP3 DUP9 ADD PUSH2 0x1C17 JUMP JUMPDEST SWAP5 POP POP PUSH1 0x20 PUSH2 0x1EEE DUP8 DUP3 DUP9 ADD PUSH2 0x196D JUMP JUMPDEST SWAP4 POP POP PUSH1 0x40 PUSH2 0x1EFF DUP8 DUP3 DUP9 ADD PUSH2 0x196D JUMP JUMPDEST SWAP3 POP POP PUSH1 0x60 PUSH2 0x1F10 DUP8 DUP3 DUP9 ADD PUSH2 0x19A3 JUMP JUMPDEST SWAP2 POP POP SWAP3 SWAP6 SWAP2 SWAP5 POP SWAP3 POP JUMP JUMPDEST PUSH1 0x0 PUSH1 0x80 DUP3 ADD SWAP1 POP PUSH2 0x1F31 PUSH1 0x0 DUP4 ADD DUP8 PUSH2 0x1C68 JUMP JUMPDEST PUSH2 0x1F3E PUSH1 0x20 DUP4 ADD DUP7 PUSH2 0x1C68 JUMP JUMPDEST PUSH2 0x1F4B PUSH1 0x40 DUP4 ADD DUP6 PUSH2 0x1C95 JUMP JUMPDEST PUSH2 0x1F58 PUSH1 0x60 DUP4 ADD DUP5 PUSH2 0x1C86 JUMP JUMPDEST SWAP6 SWAP5 POP POP POP POP POP JUMP JUMPDEST PUSH32 0x4E487B7100000000000000000000000000000000000000000000000000000000 PUSH1 0x0 MSTORE PUSH1 0x11 PUSH1 0x4 MSTORE PUSH1 0x24 PUSH1 0x0 REVERT JUMPDEST PUSH1 0x0 PUSH2 0x1F9B DUP3 PUSH2 0x1A37 JUMP JUMPDEST SWAP2 POP PUSH2 0x1FA6 DUP4 PUSH2 0x1A37 JUMP JUMPDEST SWAP3 POP DUP3 DUP3 ADD SWAP1 POP PUSH12 0xFFFFFFFFFFFFFFFFFFFFFFFF DUP2 GT ISZERO PUSH2 0x1FCA JUMPI PUSH2 0x1FC9 PUSH2 0x1F61 JUMP JUMPDEST JUMPDEST SWAP3 SWAP2 POP POP JUMP JUMPDEST PUSH1 0x0 DUP3 DUP3 MSTORE PUSH1 0x20 DUP3 ADD SWAP1 POP SWAP3 SWAP2 POP POP JUMP JUMPDEST PUSH32 0x4D757374206265205F656E644964203C3D2066756E64436F756E740000000000 PUSH1 0x0 DUP3 ADD MSTORE POP JUMP JUMPDEST PUSH1 0x0 PUSH2 0x2017 PUSH1 0x1B DUP4 PUSH2 0x1FD0 JUMP JUMPDEST SWAP2 POP PUSH2 0x2022 DUP3 PUSH2 0x1FE1 JUMP JUMPDEST PUSH1 0x20 DUP3 ADD SWAP1 POP SWAP2 SWAP1 POP JUMP JUMPDEST PUSH1 0x0 PUSH1 0x20 DUP3 ADD SWAP1 POP DUP2 DUP2 SUB PUSH1 0x0 DUP4 ADD MSTORE PUSH2 0x2046 DUP2 PUSH2 0x200A JUMP JUMPDEST SWAP1 POP SWAP2 SWAP1 POP JUMP JUMPDEST PUSH32 0x4D757374206265205F73746172744964203C3D205F656E644964000000000000 PUSH1 0x0 DUP3 ADD MSTORE POP JUMP JUMPDEST PUSH1 0x0 PUSH2 0x2083 PUSH1 0x1A DUP4 PUSH2 0x1FD0 JUMP JUMPDEST SWAP2 POP PUSH2 0x208E DUP3 PUSH2 0x204D JUMP JUMPDEST PUSH1 0x20 DUP3 ADD SWAP1 POP SWAP2 SWAP1 POP JUMP JUMPDEST PUSH1 0x0 PUSH1 0x20 DUP3 ADD SWAP1 POP DUP2 DUP2 SUB PUSH1 0x0 DUP4 ADD MSTORE PUSH2 0x20B2 DUP2 PUSH2 0x2076 JUMP JUMPDEST SWAP1 POP SWAP2 SWAP1 POP JUMP JUMPDEST PUSH1 0x0 PUSH2 0x20C4 DUP3 PUSH2 0x1A37 JUMP JUMPDEST SWAP2 POP PUSH2 0x20CF DUP4 PUSH2 0x1A37 JUMP JUMPDEST SWAP3 POP DUP3 DUP3 SUB SWAP1 POP PUSH12 0xFFFFFFFFFFFFFFFFFFFFFFFF DUP2 GT ISZERO PUSH2 0x20F3 JUMPI PUSH2 0x20F2 PUSH2 0x1F61 JUMP JUMPDEST JUMPDEST SWAP3 SWAP2 POP POP JUMP JUMPDEST PUSH32 0x4E487B7100000000000000000000000000000000000000000000000000000000 PUSH1 0x0 MSTORE PUSH1 0x41 PUSH1 0x4 MSTORE PUSH1 0x24 PUSH1 0x0 REVERT JUMPDEST PUSH32 0x4E487B7100000000000000000000000000000000000000000000000000000000 PUSH1 0x0 MSTORE PUSH1 0x32 PUSH1 0x4 MSTORE PUSH1 0x24 PUSH1 0x0 REVERT JUMPDEST PUSH1 0x0 PUSH2 0x2162 DUP3 PUSH2 0x1A37 JUMP JUMPDEST SWAP2 POP PUSH12 0xFFFFFFFFFFFFFFFFFFFFFFFF DUP3 SUB PUSH2 0x2180 JUMPI PUSH2 0x217F PUSH2 0x1F61 JUMP JUMPDEST JUMPDEST PUSH1 0x1 DUP3 ADD SWAP1 POP SWAP2 SWAP1 POP JUMP JUMPDEST PUSH32 0x4D757374206265205F6964203C2066756E64436F756E74000000000000000000 PUSH1 0x0 DUP3 ADD MSTORE POP JUMP JUMPDEST PUSH1 0x0 PUSH2 0x21C1 PUSH1 0x17 DUP4 PUSH2 0x1FD0 JUMP JUMPDEST SWAP2 POP PUSH2 0x21CC DUP3 PUSH2 0x218B JUMP JUMPDEST PUSH1 0x20 DUP3 ADD SWAP1 POP SWAP2 SWAP1 POP JUMP JUMPDEST PUSH1 0x0 PUSH1 0x20 DUP3 ADD SWAP1 POP DUP2 DUP2 SUB PUSH1 0x0 DUP4 ADD MSTORE PUSH2 0x21F0 DUP2 PUSH2 0x21B4 JUMP JUMPDEST SWAP1 POP SWAP2 SWAP1 POP JUMP JUMPDEST PUSH32 0x46756E6420557064617465206E6F7420617574686F72697A6564000000000000 PUSH1 0x0 DUP3 ADD MSTORE POP JUMP JUMPDEST PUSH1 0x0 PUSH2 0x222D PUSH1 0x1A DUP4 PUSH2 0x1FD0 JUMP JUMPDEST SWAP2 POP PUSH2 0x2238 DUP3 PUSH2 0x21F7 JUMP JUMPDEST PUSH1 0x20 DUP3 ADD SWAP1 POP SWAP2 SWAP1 POP JUMP JUMPDEST PUSH1 0x0 PUSH1 0x20 DUP3 ADD SWAP1 POP DUP2 DUP2 SUB PUSH1 0x0 DUP4 ADD MSTORE PUSH2 0x225C DUP2 PUSH2 0x2220 JUMP JUMPDEST SWAP1 POP SWAP2 SWAP1 POP JUMP JUMPDEST PUSH1 0x0 PUSH2 0x226E DUP3 PUSH2 0x1982 JUMP JUMPDEST SWAP2 POP PUSH2 0x2279 DUP4 PUSH2 0x1982 JUMP JUMPDEST SWAP3 POP DUP3 DUP3 ADD SWAP1 POP DUP1 DUP3 GT ISZERO PUSH2 0x2291 JUMPI PUSH2 0x2290 PUSH2 0x1F61 JUMP JUMPDEST JUMPDEST SWAP3 SWAP2 POP POP JUMP JUMPDEST PUSH1 0x0 DUP2 PUSH1 0x1 SHR SWAP1 POP SWAP2 SWAP1 POP JUMP JUMPDEST PUSH1 0x0 DUP1 DUP3 SWAP2 POP DUP4 SWAP1 POP JUMPDEST PUSH1 0x1 DUP6 GT ISZERO PUSH2 0x22EE JUMPI DUP1 DUP7 DIV DUP2 GT ISZERO PUSH2 0x22CA JUMPI PUSH2 0x22C9 PUSH2 0x1F61 JUMP JUMPDEST JUMPDEST PUSH1 0x1 DUP6 AND ISZERO PUSH2 0x22D9 JUMPI DUP1 DUP3 MUL SWAP2 POP JUMPDEST DUP1 DUP2 MUL SWAP1 POP PUSH2 0x22E7 DUP6 PUSH2 0x2297 JUMP JUMPDEST SWAP5 POP PUSH2 0x22AE JUMP JUMPDEST SWAP5 POP SWAP5 SWAP3 POP POP POP JUMP JUMPDEST PUSH1 0x0 DUP3 PUSH2 0x2307 JUMPI PUSH1 0x1 SWAP1 POP PUSH2 0x23C3 JUMP JUMPDEST DUP2 PUSH2 0x2315 JUMPI PUSH1 0x0 SWAP1 POP PUSH2 0x23C3 JUMP JUMPDEST DUP2 PUSH1 0x1 DUP2 EQ PUSH2 0x232B JUMPI PUSH1 0x2 DUP2 EQ PUSH2 0x2335 JUMPI PUSH2 0x2364 JUMP JUMPDEST PUSH1 0x1 SWAP2 POP POP PUSH2 0x23C3 JUMP JUMPDEST PUSH1 0xFF DUP5 GT ISZERO PUSH2 0x2347 JUMPI PUSH2 0x2346 PUSH2 0x1F61 JUMP JUMPDEST JUMPDEST DUP4 PUSH1 0x2 EXP SWAP2 POP DUP5 DUP3 GT ISZERO PUSH2 0x235E JUMPI PUSH2 0x235D PUSH2 0x1F61 JUMP JUMPDEST JUMPDEST POP PUSH2 0x23C3 JUMP JUMPDEST POP PUSH1 0x20 DUP4 LT PUSH2 0x133 DUP4 LT AND PUSH1 0x4E DUP5 LT PUSH1 0xB DUP5 LT AND OR ISZERO PUSH2 0x2399 JUMPI DUP3 DUP3 EXP SWAP1 POP DUP4 DUP2 GT ISZERO PUSH2 0x2394 JUMPI PUSH2 0x2393 PUSH2 0x1F61 JUMP JUMPDEST JUMPDEST PUSH2 0x23C3 JUMP JUMPDEST PUSH2 0x23A6 DUP5 DUP5 DUP5 PUSH1 0x1 PUSH2 0x22A4 JUMP JUMPDEST SWAP3 POP SWAP1 POP DUP2 DUP5 DIV DUP2 GT ISZERO PUSH2 0x23BD JUMPI PUSH2 0x23BC PUSH2 0x1F61 JUMP JUMPDEST JUMPDEST DUP2 DUP2 MUL SWAP1 POP JUMPDEST SWAP4 SWAP3 POP POP POP JUMP JUMPDEST PUSH1 0x0 PUSH1 0xFF DUP3 AND SWAP1 POP SWAP2 SWAP1 POP JUMP JUMPDEST PUSH1 0x0 PUSH2 0x23E2 DUP3 PUSH2 0x1982 JUMP JUMPDEST SWAP2 POP PUSH2 0x23ED DUP4 PUSH2 0x23CA JUMP JUMPDEST SWAP3 POP PUSH2 0x241A PUSH32 0xFFFFFFFFFFFFFFFFFFFFFFFFFFFFFFFFFFFFFFFFFFFFFFFFFFFFFFFFFFFFFFFF DUP5 DUP5 PUSH2 0x22F7 JUMP JUMPDEST SWAP1 POP SWAP3 SWAP2 POP POP JUMP JUMPDEST PUSH1 0x0 DUP2 MLOAD SWAP1 POP PUSH2 0x2431 DUP2 PUSH2 0x198C JUMP JUMPDEST SWAP3 SWAP2 POP POP JUMP JUMPDEST PUSH1 0x0 PUSH1 0x20 DUP3 DUP5 SUB SLT ISZERO PUSH2 0x244D JUMPI PUSH2 0x244C PUSH2 0x191F JUMP JUMPDEST JUMPDEST PUSH1 0x0 PUSH2 0x245B DUP5 DUP3 DUP6 ADD PUSH2 0x2422 JUMP JUMPDEST SWAP2 POP POP SWAP3 SWAP2 POP POP JUMP JUMPDEST PUSH1 0x0 PUSH2 0x246F DUP3 PUSH2 0x1982 JUMP JUMPDEST SWAP2 POP PUSH2 0x247A DUP4 PUSH2 0x1982 JUMP JUMPDEST SWAP3 POP DUP3 DUP3 MUL PUSH2 0x2488 DUP2 PUSH2 0x1982 JUMP JUMPDEST SWAP2 POP DUP3 DUP3 DIV DUP5 EQ DUP4 ISZERO OR PUSH2 0x249F JUMPI PUSH2 0x249E PUSH2 0x1F61 JUMP JUMPDEST JUMPDEST POP SWAP3 SWAP2 POP POP JUMP JUMPDEST PUSH32 0x4E487B7100000000000000000000000000000000000000000000000000000000 PUSH1 0x0 MSTORE PUSH1 0x12 PUSH1 0x4 MSTORE PUSH1 0x24 PUSH1 0x0 REVERT JUMPDEST PUSH1 0x0 PUSH2 0x24E0 DUP3 PUSH2 0x1982 JUMP JUMPDEST SWAP2 POP PUSH2 0x24EB DUP4 PUSH2 0x1982 JUMP JUMPDEST SWAP3 POP DUP3 PUSH2 0x24FB JUMPI PUSH2 0x24FA PUSH2 0x24A6 JUMP JUMPDEST JUMPDEST DUP3 DUP3 DIV SWAP1 POP SWAP3 SWAP2 POP POP JUMP INVALID LOG2 PUSH5 0x6970667358 0x22 SLT KECCAK256 0x5C 0xC5 0xD PUSH8 0x9F8A675920EAD5 0xEA 0x2F REVERT SWAP13 0xF SWAP9 0x4C 0xFC 0x5F BYTE CREATE2 0xAE 0xBF SWAP10 PUSH10 0x388F0AD84F64736F6C63 NUMBER STOP ADDMOD SLT STOP CALLER "
				},
				"gasEstimates": {
					"creation": {
						"codeDepositCost": "1906400",
						"executionCost": "2012",
						"totalCost": "1908412"
					},
					"external": {
						"createFund(address,address,uint256)": "infinite",
						"donate(address,uint96,uint256)": "infinite",
						"fundCount()": "2521",
						"fundDonations(uint96,address,uint256)": "infinite",
						"fundUsers(uint96,uint256)": "5271",
						"funds(uint96)": "infinite",
						"getAllFunds()": "infinite",
						"getFundPayee(uint96)": "5182",
						"getFunds(uint96,uint96)": "infinite",
						"updateFund(uint96,address,address,uint256)": "infinite"
					},
					"internal": {
						"calculateQF()": "infinite",
						"createDonation(address,uint96,uint256)": "infinite",
						"sqrt(uint256)": "infinite"
					}
				},
				"methodIdentifiers": {
					"createFund(address,address,uint256)": "17444626",
					"donate(address,uint96,uint256)": "88b53ced",
					"fundCount()": "3f936ff5",
					"fundDonations(uint96,address,uint256)": "7a3819cb",
					"fundUsers(uint96,uint256)": "2f14670c",
					"funds(uint96)": "1f71f89f",
					"getAllFunds()": "1c69b464",
					"getFundPayee(uint96)": "6c173d38",
					"getFunds(uint96,uint96)": "380eaaf9",
					"updateFund(uint96,address,address,uint256)": "dd7d7929"
				}
			},
			"storageLayout": {
				"storage": [
					{
						"astId": 84,
						"contract": "contracts/Fund.sol:FundRegistry",
						"label": "token",
						"offset": 0,
						"slot": "0",
						"type": "t_contract(IERC20)77"
					},
					{
						"astId": 86,
						"contract": "contracts/Fund.sol:FundRegistry",
						"label": "fundCount",
						"offset": 20,
						"slot": "0",
						"type": "t_uint96"
					},
					{
						"astId": 115,
						"contract": "contracts/Fund.sol:FundRegistry",
						"label": "funds",
						"offset": 0,
						"slot": "1",
						"type": "t_mapping(t_uint96,t_struct(Fund)103_storage)"
					},
					{
						"astId": 120,
						"contract": "contracts/Fund.sol:FundRegistry",
						"label": "fundUsers",
						"offset": 0,
						"slot": "2",
						"type": "t_mapping(t_uint96,t_array(t_address)dyn_storage)"
					},
					{
						"astId": 128,
						"contract": "contracts/Fund.sol:FundRegistry",
						"label": "fundDonations",
						"offset": 0,
						"slot": "3",
						"type": "t_mapping(t_uint96,t_mapping(t_address,t_array(t_struct(Donation)110_storage)dyn_storage))"
					}
				],
				"types": {
					"t_address": {
						"encoding": "inplace",
						"label": "address",
						"numberOfBytes": "20"
					},
					"t_array(t_address)dyn_storage": {
						"base": "t_address",
						"encoding": "dynamic_array",
						"label": "address[]",
						"numberOfBytes": "32"
					},
					"t_array(t_struct(Donation)110_storage)dyn_storage": {
						"base": "t_struct(Donation)110_storage",
						"encoding": "dynamic_array",
						"label": "struct FundRegistry.Donation[]",
						"numberOfBytes": "32"
					},
					"t_bool": {
						"encoding": "inplace",
						"label": "bool",
						"numberOfBytes": "1"
					},
					"t_contract(IERC20)77": {
						"encoding": "inplace",
						"label": "contract IERC20",
						"numberOfBytes": "20"
					},
					"t_mapping(t_address,t_array(t_struct(Donation)110_storage)dyn_storage)": {
						"encoding": "mapping",
						"key": "t_address",
						"label": "mapping(address => struct FundRegistry.Donation[])",
						"numberOfBytes": "32",
						"value": "t_array(t_struct(Donation)110_storage)dyn_storage"
					},
					"t_mapping(t_uint96,t_array(t_address)dyn_storage)": {
						"encoding": "mapping",
						"key": "t_uint96",
						"label": "mapping(uint96 => address[])",
						"numberOfBytes": "32",
						"value": "t_array(t_address)dyn_storage"
					},
					"t_mapping(t_uint96,t_mapping(t_address,t_array(t_struct(Donation)110_storage)dyn_storage))": {
						"encoding": "mapping",
						"key": "t_uint96",
						"label": "mapping(uint96 => mapping(address => struct FundRegistry.Donation[]))",
						"numberOfBytes": "32",
						"value": "t_mapping(t_address,t_array(t_struct(Donation)110_storage)dyn_storage)"
					},
					"t_mapping(t_uint96,t_struct(Fund)103_storage)": {
						"encoding": "mapping",
						"key": "t_uint96",
						"label": "mapping(uint96 => struct FundRegistry.Fund)",
						"numberOfBytes": "32",
						"value": "t_struct(Fund)103_storage"
					},
					"t_struct(Donation)110_storage": {
						"encoding": "inplace",
						"label": "struct FundRegistry.Donation",
						"members": [
							{
								"astId": 105,
								"contract": "contracts/Fund.sol:FundRegistry",
								"label": "user",
								"offset": 0,
								"slot": "0",
								"type": "t_address"
							},
							{
								"astId": 107,
								"contract": "contracts/Fund.sol:FundRegistry",
								"label": "fundId",
								"offset": 20,
								"slot": "0",
								"type": "t_uint96"
							},
							{
								"astId": 109,
								"contract": "contracts/Fund.sol:FundRegistry",
								"label": "amount",
								"offset": 0,
								"slot": "1",
								"type": "t_uint256"
							}
						],
						"numberOfBytes": "64"
					},
					"t_struct(Fund)103_storage": {
						"encoding": "inplace",
						"label": "struct FundRegistry.Fund",
						"members": [
							{
								"astId": 88,
								"contract": "contracts/Fund.sol:FundRegistry",
								"label": "id",
								"offset": 0,
								"slot": "0",
								"type": "t_uint96"
							},
							{
								"astId": 90,
								"contract": "contracts/Fund.sol:FundRegistry",
								"label": "owner",
								"offset": 12,
								"slot": "0",
								"type": "t_address"
							},
							{
								"astId": 92,
								"contract": "contracts/Fund.sol:FundRegistry",
								"label": "createdAt",
								"offset": 0,
								"slot": "1",
								"type": "t_uint48"
							},
							{
								"astId": 94,
								"contract": "contracts/Fund.sol:FundRegistry",
								"label": "updatedAt",
								"offset": 6,
								"slot": "1",
								"type": "t_uint48"
							},
							{
								"astId": 96,
								"contract": "contracts/Fund.sol:FundRegistry",
								"label": "payee",
								"offset": 12,
								"slot": "1",
								"type": "t_address"
							},
							{
								"astId": 98,
								"contract": "contracts/Fund.sol:FundRegistry",
								"label": "threshold",
								"offset": 0,
								"slot": "2",
								"type": "t_uint256"
							},
							{
								"astId": 100,
								"contract": "contracts/Fund.sol:FundRegistry",
								"label": "totalAmount",
								"offset": 0,
								"slot": "3",
								"type": "t_uint256"
							},
							{
								"astId": 102,
								"contract": "contracts/Fund.sol:FundRegistry",
								"label": "isEnd",
								"offset": 0,
								"slot": "4",
								"type": "t_bool"
							}
						],
						"numberOfBytes": "160"
					},
					"t_uint256": {
						"encoding": "inplace",
						"label": "uint256",
						"numberOfBytes": "32"
					},
					"t_uint48": {
						"encoding": "inplace",
						"label": "uint48",
						"numberOfBytes": "6"
					},
					"t_uint96": {
						"encoding": "inplace",
						"label": "uint96",
						"numberOfBytes": "12"
					}
				}
			},
			"userdoc": {
				"kind": "user",
				"methods": {},
				"version": 1
			}
		}
	}
}