{
	"contracts/Fund.sol": {
		"FundRegistry": {
			"abi": [
				{
					"anonymous": false,
					"inputs": [
						{
							"indexed": true,
							"internalType": "uint96",
							"name": "id",
							"type": "uint96"
						},
						{
							"indexed": false,
							"internalType": "address",
							"name": "owner",
							"type": "address"
						},
						{
							"indexed": false,
							"internalType": "address",
							"name": "payee",
							"type": "address"
						},
						{
							"indexed": true,
							"internalType": "uint256",
							"name": "threshold",
							"type": "uint256"
						},
						{
							"indexed": true,
							"internalType": "uint256",
							"name": "amount",
							"type": "uint256"
						},
						{
							"indexed": false,
							"internalType": "bool",
							"name": "isEnd",
							"type": "bool"
						},
						{
							"indexed": false,
							"internalType": "uint256",
							"name": "time",
							"type": "uint256"
						}
					],
					"name": "FundCreated",
					"type": "event"
				},
				{
					"anonymous": false,
					"inputs": [
						{
							"indexed": true,
							"internalType": "uint96",
							"name": "id",
							"type": "uint96"
						},
						{
							"indexed": false,
							"internalType": "address",
							"name": "owner",
							"type": "address"
						},
						{
							"indexed": false,
							"internalType": "address",
							"name": "payee",
							"type": "address"
						},
						{
							"indexed": true,
							"internalType": "uint256",
							"name": "threshold",
							"type": "uint256"
						},
						{
							"indexed": true,
							"internalType": "uint256",
							"name": "amount",
							"type": "uint256"
						},
						{
							"indexed": false,
							"internalType": "bool",
							"name": "isEnd",
							"type": "bool"
						},
						{
							"indexed": false,
							"internalType": "uint256",
							"name": "time",
							"type": "uint256"
						}
					],
					"name": "FundUpdated",
					"type": "event"
				},
				{
					"inputs": [
						{
							"internalType": "address",
							"name": "_owner",
							"type": "address"
						},
						{
							"internalType": "address",
							"name": "_payee",
							"type": "address"
						},
						{
							"internalType": "uint256",
							"name": "_threshold",
							"type": "uint256"
						}
					],
					"name": "createFund",
					"outputs": [],
					"stateMutability": "nonpayable",
					"type": "function"
				},
				{
					"inputs": [
						{
							"internalType": "address",
							"name": "_user",
							"type": "address"
						},
						{
							"internalType": "uint96",
							"name": "_fundId",
							"type": "uint96"
						},
						{
							"internalType": "uint256",
							"name": "_amount",
							"type": "uint256"
						}
					],
					"name": "donate",
					"outputs": [],
					"stateMutability": "payable",
					"type": "function"
				},
				{
					"inputs": [],
					"name": "fundCount",
					"outputs": [
						{
							"internalType": "uint96",
							"name": "",
							"type": "uint96"
						}
					],
					"stateMutability": "view",
					"type": "function"
				},
				{
					"inputs": [
						{
							"internalType": "uint96",
							"name": "",
							"type": "uint96"
						},
						{
							"internalType": "uint256",
							"name": "",
							"type": "uint256"
						}
					],
					"name": "fundDonations",
					"outputs": [
						{
							"internalType": "address",
							"name": "user",
							"type": "address"
						},
						{
							"internalType": "uint96",
							"name": "fundId",
							"type": "uint96"
						},
						{
							"internalType": "uint256",
							"name": "amount",
							"type": "uint256"
						}
					],
					"stateMutability": "view",
					"type": "function"
				},
				{
					"inputs": [
						{
							"internalType": "uint96",
							"name": "",
							"type": "uint96"
						}
					],
					"name": "funds",
					"outputs": [
						{
							"internalType": "uint96",
							"name": "id",
							"type": "uint96"
						},
						{
							"internalType": "address",
							"name": "owner",
							"type": "address"
						},
						{
							"internalType": "uint48",
							"name": "createdAt",
							"type": "uint48"
						},
						{
							"internalType": "uint48",
							"name": "updatedAt",
							"type": "uint48"
						},
						{
							"internalType": "address",
							"name": "payee",
							"type": "address"
						},
						{
							"internalType": "uint256",
							"name": "threshold",
							"type": "uint256"
						},
						{
							"internalType": "uint256",
							"name": "totalAmount",
							"type": "uint256"
						},
						{
							"internalType": "bool",
							"name": "isEnd",
							"type": "bool"
						}
					],
					"stateMutability": "view",
					"type": "function"
				},
				{
					"inputs": [],
					"name": "getAllFunds",
					"outputs": [
						{
							"components": [
								{
									"internalType": "uint96",
									"name": "id",
									"type": "uint96"
								},
								{
									"internalType": "address",
									"name": "owner",
									"type": "address"
								},
								{
									"internalType": "uint48",
									"name": "createdAt",
									"type": "uint48"
								},
								{
									"internalType": "uint48",
									"name": "updatedAt",
									"type": "uint48"
								},
								{
									"internalType": "address",
									"name": "payee",
									"type": "address"
								},
								{
									"internalType": "uint256",
									"name": "threshold",
									"type": "uint256"
								},
								{
									"internalType": "uint256",
									"name": "totalAmount",
									"type": "uint256"
								},
								{
									"internalType": "bool",
									"name": "isEnd",
									"type": "bool"
								}
							],
							"internalType": "struct FundRegistry.Fund[]",
							"name": "",
							"type": "tuple[]"
						}
					],
					"stateMutability": "view",
					"type": "function"
				},
				{
					"inputs": [
						{
							"internalType": "uint96",
							"name": "_id",
							"type": "uint96"
						}
					],
					"name": "getFundPayee",
					"outputs": [
						{
							"internalType": "address",
							"name": "",
							"type": "address"
						}
					],
					"stateMutability": "view",
					"type": "function"
				},
				{
					"inputs": [
						{
							"internalType": "uint96",
							"name": "_startId",
							"type": "uint96"
						},
						{
							"internalType": "uint96",
							"name": "_endId",
							"type": "uint96"
						}
					],
					"name": "getFunds",
					"outputs": [
						{
							"components": [
								{
									"internalType": "uint96",
									"name": "id",
									"type": "uint96"
								},
								{
									"internalType": "address",
									"name": "owner",
									"type": "address"
								},
								{
									"internalType": "uint48",
									"name": "createdAt",
									"type": "uint48"
								},
								{
									"internalType": "uint48",
									"name": "updatedAt",
									"type": "uint48"
								},
								{
									"internalType": "address",
									"name": "payee",
									"type": "address"
								},
								{
									"internalType": "uint256",
									"name": "threshold",
									"type": "uint256"
								},
								{
									"internalType": "uint256",
									"name": "totalAmount",
									"type": "uint256"
								},
								{
									"internalType": "bool",
									"name": "isEnd",
									"type": "bool"
								}
							],
							"internalType": "struct FundRegistry.Fund[]",
							"name": "",
							"type": "tuple[]"
						}
					],
					"stateMutability": "view",
					"type": "function"
				},
				{
					"inputs": [
						{
							"internalType": "uint96",
							"name": "_id",
							"type": "uint96"
						},
						{
							"internalType": "address",
							"name": "_owner",
							"type": "address"
						},
						{
							"internalType": "address",
							"name": "_payee",
							"type": "address"
						},
						{
							"internalType": "uint256",
							"name": "_threshold",
							"type": "uint256"
						}
					],
					"name": "updateFund",
					"outputs": [],
					"stateMutability": "nonpayable",
					"type": "function"
				}
			],
			"devdoc": {
				"kind": "dev",
				"methods": {},
				"version": 1
			},
			"evm": {
				"assembly": "    /* \"contracts/Fund.sol\":239:4253  contract FundRegistry {... */\n  mstore(0x40, 0x80)\n  callvalue\n  dup1\n  iszero\n  tag_1\n  jumpi\n  0x00\n  dup1\n  revert\ntag_1:\n  pop\n  dataSize(sub_0)\n  dup1\n  dataOffset(sub_0)\n  0x00\n  codecopy\n  0x00\n  return\nstop\n\nsub_0: assembly {\n        /* \"contracts/Fund.sol\":239:4253  contract FundRegistry {... */\n      mstore(0x40, 0x80)\n      jumpi(tag_1, lt(calldatasize, 0x04))\n      shr(0xe0, calldataload(0x00))\n      dup1\n      0x3f936ff5\n      gt\n      tag_11\n      jumpi\n      dup1\n      0x3f936ff5\n      eq\n      tag_6\n      jumpi\n      dup1\n      0x6c173d38\n      eq\n      tag_7\n      jumpi\n      dup1\n      0x88b53ced\n      eq\n      tag_8\n      jumpi\n      dup1\n      0xdd7d7929\n      eq\n      tag_9\n      jumpi\n      dup1\n      0xf4ddec1e\n      eq\n      tag_10\n      jumpi\n      jump(tag_1)\n    tag_11:\n      dup1\n      0x17444626\n      eq\n      tag_2\n      jumpi\n      dup1\n      0x1c69b464\n      eq\n      tag_3\n      jumpi\n      dup1\n      0x1f71f89f\n      eq\n      tag_4\n      jumpi\n      dup1\n      0x380eaaf9\n      eq\n      tag_5\n      jumpi\n    tag_1:\n      0x00\n      dup1\n      revert\n        /* \"contracts/Fund.sol\":1704:2243  function createFund(... */\n    tag_2:\n      callvalue\n      dup1\n      iszero\n      tag_12\n      jumpi\n      0x00\n      dup1\n      revert\n    tag_12:\n      pop\n      tag_13\n      0x04\n      dup1\n      calldatasize\n      sub\n      dup2\n      add\n      swap1\n      tag_14\n      swap2\n      swap1\n      tag_15\n      jump\t// in\n    tag_14:\n      tag_16\n      jump\t// in\n    tag_13:\n      stop\n        /* \"contracts/Fund.sol\":2888:2996  function getAllFunds() external view returns (Fund[] memory){... */\n    tag_3:\n      callvalue\n      dup1\n      iszero\n      tag_17\n      jumpi\n      0x00\n      dup1\n      revert\n    tag_17:\n      pop\n      tag_18\n      tag_19\n      jump\t// in\n    tag_18:\n      mload(0x40)\n      tag_20\n      swap2\n      swap1\n      tag_21\n      jump\t// in\n    tag_20:\n      mload(0x40)\n      dup1\n      swap2\n      sub\n      swap1\n      return\n        /* \"contracts/Fund.sol\":852:888  mapping(uint96 => Fund) public funds */\n    tag_4:\n      callvalue\n      dup1\n      iszero\n      tag_22\n      jumpi\n      0x00\n      dup1\n      revert\n    tag_22:\n      pop\n      tag_23\n      0x04\n      dup1\n      calldatasize\n      sub\n      dup2\n      add\n      swap1\n      tag_24\n      swap2\n      swap1\n      tag_25\n      jump\t// in\n    tag_24:\n      tag_26\n      jump\t// in\n    tag_23:\n      mload(0x40)\n      tag_27\n      swap9\n      swap8\n      swap7\n      swap6\n      swap5\n      swap4\n      swap3\n      swap2\n      swap1\n      tag_28\n      jump\t// in\n    tag_27:\n      mload(0x40)\n      dup1\n      swap2\n      sub\n      swap1\n      return\n        /* \"contracts/Fund.sol\":3004:3436  function getFunds(uint96 _startId, uint96 _endId) public view returns (Fund[] memory){... */\n    tag_5:\n      callvalue\n      dup1\n      iszero\n      tag_29\n      jumpi\n      0x00\n      dup1\n      revert\n    tag_29:\n      pop\n      tag_30\n      0x04\n      dup1\n      calldatasize\n      sub\n      dup2\n      add\n      swap1\n      tag_31\n      swap2\n      swap1\n      tag_32\n      jump\t// in\n    tag_31:\n      tag_33\n      jump\t// in\n    tag_30:\n      mload(0x40)\n      tag_34\n      swap2\n      swap1\n      tag_21\n      jump\t// in\n    tag_34:\n      mload(0x40)\n      dup1\n      swap2\n      sub\n      swap1\n      return\n        /* \"contracts/Fund.sol\":268:291  uint96 public fundCount */\n    tag_6:\n      callvalue\n      dup1\n      iszero\n      tag_35\n      jumpi\n      0x00\n      dup1\n      revert\n    tag_35:\n      pop\n      tag_36\n      tag_37\n      jump\t// in\n    tag_36:\n      mload(0x40)\n      tag_38\n      swap2\n      swap1\n      tag_39\n      jump\t// in\n    tag_38:\n      mload(0x40)\n      dup1\n      swap2\n      sub\n      swap1\n      return\n        /* \"contracts/Fund.sol\":3448:3615  function getFundPayee(uint96 _id) public view returns (address){... */\n    tag_7:\n      callvalue\n      dup1\n      iszero\n      tag_40\n      jumpi\n      0x00\n      dup1\n      revert\n    tag_40:\n      pop\n      tag_41\n      0x04\n      dup1\n      calldatasize\n      sub\n      dup2\n      add\n      swap1\n      tag_42\n      swap2\n      swap1\n      tag_25\n      jump\t// in\n    tag_42:\n      tag_43\n      jump\t// in\n    tag_41:\n      mload(0x40)\n      tag_44\n      swap2\n      swap1\n      tag_45\n      jump\t// in\n    tag_44:\n      mload(0x40)\n      dup1\n      swap2\n      sub\n      swap1\n      return\n        /* \"contracts/Fund.sol\":3623:3959  function donate(... */\n    tag_8:\n      tag_46\n      0x04\n      dup1\n      calldatasize\n      sub\n      dup2\n      add\n      swap1\n      tag_47\n      swap2\n      swap1\n      tag_48\n      jump\t// in\n    tag_47:\n      tag_49\n      jump\t// in\n    tag_46:\n      stop\n        /* \"contracts/Fund.sol\":2251:2876  function updateFund(... */\n    tag_9:\n      callvalue\n      dup1\n      iszero\n      tag_50\n      jumpi\n      0x00\n      dup1\n      revert\n    tag_50:\n      pop\n      tag_51\n      0x04\n      dup1\n      calldatasize\n      sub\n      dup2\n      add\n      swap1\n      tag_52\n      swap2\n      swap1\n      tag_53\n      jump\t// in\n    tag_52:\n      tag_54\n      jump\t// in\n    tag_51:\n      stop\n        /* \"contracts/Fund.sol\":895:945  mapping(uint96 => Donation[]) public fundDonations */\n    tag_10:\n      callvalue\n      dup1\n      iszero\n      tag_55\n      jumpi\n      0x00\n      dup1\n      revert\n    tag_55:\n      pop\n      tag_56\n      0x04\n      dup1\n      calldatasize\n      sub\n      dup2\n      add\n      swap1\n      tag_57\n      swap2\n      swap1\n      tag_58\n      jump\t// in\n    tag_57:\n      tag_59\n      jump\t// in\n    tag_56:\n      mload(0x40)\n      tag_60\n      swap4\n      swap3\n      swap2\n      swap1\n      tag_61\n      jump\t// in\n    tag_60:\n      mload(0x40)\n      dup1\n      swap2\n      sub\n      swap1\n      return\n        /* \"contracts/Fund.sol\":1704:2243  function createFund(... */\n    tag_16:\n        /* \"contracts/Fund.sol\":1831:1841  uint96 _id */\n      0x00\n        /* \"contracts/Fund.sol\":1844:1853  fundCount */\n      dup1\n      0x00\n      swap1\n      sload\n      swap1\n      0x0100\n      exp\n      swap1\n      div\n      0xffffffffffffffffffffffff\n      and\n        /* \"contracts/Fund.sol\":1831:1853  uint96 _id = fundCount */\n      swap1\n      pop\n        /* \"contracts/Fund.sol\":1877:2093  Fund(... */\n      mload(0x40)\n      dup1\n      0x0100\n      add\n      0x40\n      mstore\n      dup1\n        /* \"contracts/Fund.sol\":1896:1899  _id */\n      dup3\n        /* \"contracts/Fund.sol\":1877:2093  Fund(... */\n      0xffffffffffffffffffffffff\n      and\n      dup2\n      mstore\n      0x20\n      add\n        /* \"contracts/Fund.sol\":1915:1921  _owner */\n      dup6\n        /* \"contracts/Fund.sol\":1877:2093  Fund(... */\n      0xffffffffffffffffffffffffffffffffffffffff\n      and\n      dup2\n      mstore\n      0x20\n      add\n        /* \"contracts/Fund.sol\":1944:1959  block.timestamp */\n      timestamp\n        /* \"contracts/Fund.sol\":1877:2093  Fund(... */\n      0xffffffffffff\n      and\n      dup2\n      mstore\n      0x20\n      add\n        /* \"contracts/Fund.sol\":1983:1998  block.timestamp */\n      timestamp\n        /* \"contracts/Fund.sol\":1877:2093  Fund(... */\n      0xffffffffffff\n      and\n      dup2\n      mstore\n      0x20\n      add\n        /* \"contracts/Fund.sol\":2015:2021  _payee */\n      dup5\n        /* \"contracts/Fund.sol\":1877:2093  Fund(... */\n      0xffffffffffffffffffffffffffffffffffffffff\n      and\n      dup2\n      mstore\n      0x20\n      add\n        /* \"contracts/Fund.sol\":2036:2046  _threshold */\n      dup4\n        /* \"contracts/Fund.sol\":1877:2093  Fund(... */\n      dup2\n      mstore\n      0x20\n      add\n        /* \"contracts/Fund.sol\":2061:2062  0 */\n      0x00\n        /* \"contracts/Fund.sol\":1877:2093  Fund(... */\n      dup2\n      mstore\n      0x20\n      add\n        /* \"contracts/Fund.sol\":2077:2082  false */\n      0x00\n        /* \"contracts/Fund.sol\":1877:2093  Fund(... */\n      iszero\n      iszero\n      dup2\n      mstore\n      pop\n        /* \"contracts/Fund.sol\":1864:1869  funds */\n      0x01\n        /* \"contracts/Fund.sol\":1864:1874  funds[_id] */\n      0x00\n        /* \"contracts/Fund.sol\":1870:1873  _id */\n      dup4\n        /* \"contracts/Fund.sol\":1864:1874  funds[_id] */\n      0xffffffffffffffffffffffff\n      and\n      0xffffffffffffffffffffffff\n      and\n      dup2\n      mstore\n      0x20\n      add\n      swap1\n      dup2\n      mstore\n      0x20\n      add\n      0x00\n      keccak256\n        /* \"contracts/Fund.sol\":1864:2093  funds[_id] = Fund(... */\n      0x00\n      dup3\n      add\n      mload\n      dup2\n      0x00\n      add\n      exp(0x0100, 0x00)\n      dup2\n      sload\n      dup2\n      0xffffffffffffffffffffffff\n      mul\n      not\n      and\n      swap1\n      dup4\n      0xffffffffffffffffffffffff\n      and\n      mul\n      or\n      swap1\n      sstore\n      pop\n      0x20\n      dup3\n      add\n      mload\n      dup2\n      0x00\n      add\n      exp(0x0100, 0x0c)\n      dup2\n      sload\n      dup2\n      0xffffffffffffffffffffffffffffffffffffffff\n      mul\n      not\n      and\n      swap1\n      dup4\n      0xffffffffffffffffffffffffffffffffffffffff\n      and\n      mul\n      or\n      swap1\n      sstore\n      pop\n      0x40\n      dup3\n      add\n      mload\n      dup2\n      0x01\n      add\n      exp(0x0100, 0x00)\n      dup2\n      sload\n      dup2\n      0xffffffffffff\n      mul\n      not\n      and\n      swap1\n      dup4\n      0xffffffffffff\n      and\n      mul\n      or\n      swap1\n      sstore\n      pop\n      0x60\n      dup3\n      add\n      mload\n      dup2\n      0x01\n      add\n      exp(0x0100, 0x06)\n      dup2\n      sload\n      dup2\n      0xffffffffffff\n      mul\n      not\n      and\n      swap1\n      dup4\n      0xffffffffffff\n      and\n      mul\n      or\n      swap1\n      sstore\n      pop\n      0x80\n      dup3\n      add\n      mload\n      dup2\n      0x01\n      add\n      exp(0x0100, 0x0c)\n      dup2\n      sload\n      dup2\n      0xffffffffffffffffffffffffffffffffffffffff\n      mul\n      not\n      and\n      swap1\n      dup4\n      0xffffffffffffffffffffffffffffffffffffffff\n      and\n      mul\n      or\n      swap1\n      sstore\n      pop\n      0xa0\n      dup3\n      add\n      mload\n      dup2\n      0x02\n      add\n      sstore\n      0xc0\n      dup3\n      add\n      mload\n      dup2\n      0x03\n      add\n      sstore\n      0xe0\n      dup3\n      add\n      mload\n      dup2\n      0x04\n      add\n      exp(0x0100, 0x00)\n      dup2\n      sload\n      dup2\n      0xff\n      mul\n      not\n      and\n      swap1\n      dup4\n      iszero\n      iszero\n      mul\n      or\n      swap1\n      sstore\n      pop\n      swap1\n      pop\n      pop\n        /* \"contracts/Fund.sol\":2174:2175  0 */\n      0x00\n        /* \"contracts/Fund.sol\":2162:2172  _threshold */\n      dup3\n        /* \"contracts/Fund.sol\":2141:2144  _id */\n      dup3\n        /* \"contracts/Fund.sol\":2129:2200  FundCreated(_id, _owner, _payee, _threshold, 0, false, block.timestamp) */\n      0xffffffffffffffffffffffff\n      and\n      0x1e216cc18d3e93f7c7b9a7b3a038093bc655d3d5cbfbb504d67d4376bd02d13f\n        /* \"contracts/Fund.sol\":2146:2152  _owner */\n      dup8\n        /* \"contracts/Fund.sol\":2154:2160  _payee */\n      dup8\n        /* \"contracts/Fund.sol\":2177:2182  false */\n      0x00\n        /* \"contracts/Fund.sol\":2184:2199  block.timestamp */\n      timestamp\n        /* \"contracts/Fund.sol\":2129:2200  FundCreated(_id, _owner, _payee, _threshold, 0, false, block.timestamp) */\n      mload(0x40)\n      tag_63\n      swap5\n      swap4\n      swap3\n      swap2\n      swap1\n      tag_64\n      jump\t// in\n    tag_63:\n      mload(0x40)\n      dup1\n      swap2\n      sub\n      swap1\n      log4\n        /* \"contracts/Fund.sol\":2234:2235  1 */\n      0x01\n        /* \"contracts/Fund.sol\":2221:2230  fundCount */\n      0x00\n      dup1\n        /* \"contracts/Fund.sol\":2221:2235  fundCount += 1 */\n      dup3\n      dup3\n      dup3\n      swap1\n      sload\n      swap1\n      0x0100\n      exp\n      swap1\n      div\n      0xffffffffffffffffffffffff\n      and\n      tag_65\n      swap2\n      swap1\n      tag_66\n      jump\t// in\n    tag_65:\n      swap3\n      pop\n      0x0100\n      exp\n      dup2\n      sload\n      dup2\n      0xffffffffffffffffffffffff\n      mul\n      not\n      and\n      swap1\n      dup4\n      0xffffffffffffffffffffffff\n      and\n      mul\n      or\n      swap1\n      sstore\n      pop\n        /* \"contracts/Fund.sol\":1820:2243  {... */\n      pop\n        /* \"contracts/Fund.sol\":1704:2243  function createFund(... */\n      pop\n      pop\n      pop\n      jump\t// out\n        /* \"contracts/Fund.sol\":2888:2996  function getAllFunds() external view returns (Fund[] memory){... */\n    tag_19:\n        /* \"contracts/Fund.sol\":2934:2947  Fund[] memory */\n      0x60\n        /* \"contracts/Fund.sol\":2966:2988  getFunds(0, fundCount) */\n      tag_68\n        /* \"contracts/Fund.sol\":2975:2976  0 */\n      0x00\n        /* \"contracts/Fund.sol\":2978:2987  fundCount */\n      dup1\n      0x00\n      swap1\n      sload\n      swap1\n      0x0100\n      exp\n      swap1\n      div\n      0xffffffffffffffffffffffff\n      and\n        /* \"contracts/Fund.sol\":2966:2974  getFunds */\n      tag_33\n        /* \"contracts/Fund.sol\":2966:2988  getFunds(0, fundCount) */\n      jump\t// in\n    tag_68:\n        /* \"contracts/Fund.sol\":2959:2988  return getFunds(0, fundCount) */\n      swap1\n      pop\n        /* \"contracts/Fund.sol\":2888:2996  function getAllFunds() external view returns (Fund[] memory){... */\n      swap1\n      jump\t// out\n        /* \"contracts/Fund.sol\":852:888  mapping(uint96 => Fund) public funds */\n    tag_26:\n      mstore(0x20, 0x01)\n      dup1\n      0x00\n      mstore\n      keccak256(0x00, 0x40)\n      0x00\n      swap2\n      pop\n      swap1\n      pop\n      dup1\n      0x00\n      add\n      0x00\n      swap1\n      sload\n      swap1\n      0x0100\n      exp\n      swap1\n      div\n      0xffffffffffffffffffffffff\n      and\n      swap1\n      dup1\n      0x00\n      add\n      0x0c\n      swap1\n      sload\n      swap1\n      0x0100\n      exp\n      swap1\n      div\n      0xffffffffffffffffffffffffffffffffffffffff\n      and\n      swap1\n      dup1\n      0x01\n      add\n      0x00\n      swap1\n      sload\n      swap1\n      0x0100\n      exp\n      swap1\n      div\n      0xffffffffffff\n      and\n      swap1\n      dup1\n      0x01\n      add\n      0x06\n      swap1\n      sload\n      swap1\n      0x0100\n      exp\n      swap1\n      div\n      0xffffffffffff\n      and\n      swap1\n      dup1\n      0x01\n      add\n      0x0c\n      swap1\n      sload\n      swap1\n      0x0100\n      exp\n      swap1\n      div\n      0xffffffffffffffffffffffffffffffffffffffff\n      and\n      swap1\n      dup1\n      0x02\n      add\n      sload\n      swap1\n      dup1\n      0x03\n      add\n      sload\n      swap1\n      dup1\n      0x04\n      add\n      0x00\n      swap1\n      sload\n      swap1\n      0x0100\n      exp\n      swap1\n      div\n      0xff\n      and\n      swap1\n      pop\n      dup9\n      jump\t// out\n        /* \"contracts/Fund.sol\":3004:3436  function getFunds(uint96 _startId, uint96 _endId) public view returns (Fund[] memory){... */\n    tag_33:\n        /* \"contracts/Fund.sol\":3075:3088  Fund[] memory */\n      0x60\n        /* \"contracts/Fund.sol\":3118:3127  fundCount */\n      0x00\n      dup1\n      sload\n      swap1\n      0x0100\n      exp\n      swap1\n      div\n      0xffffffffffffffffffffffff\n      and\n        /* \"contracts/Fund.sol\":3108:3127  _endId <= fundCount */\n      0xffffffffffffffffffffffff\n      and\n        /* \"contracts/Fund.sol\":3108:3114  _endId */\n      dup3\n        /* \"contracts/Fund.sol\":3108:3127  _endId <= fundCount */\n      0xffffffffffffffffffffffff\n      and\n      gt\n      iszero\n        /* \"contracts/Fund.sol\":3100:3159  require(_endId <= fundCount, \"Must be _endId <= fundCount\") */\n      tag_70\n      jumpi\n      mload(0x40)\n      0x08c379a000000000000000000000000000000000000000000000000000000000\n      dup2\n      mstore\n      0x04\n      add\n      tag_71\n      swap1\n      tag_72\n      jump\t// in\n    tag_71:\n      mload(0x40)\n      dup1\n      swap2\n      sub\n      swap1\n      revert\n    tag_70:\n        /* \"contracts/Fund.sol\":3190:3196  _endId */\n      dup2\n        /* \"contracts/Fund.sol\":3178:3196  _startId <= _endId */\n      0xffffffffffffffffffffffff\n      and\n        /* \"contracts/Fund.sol\":3178:3186  _startId */\n      dup4\n        /* \"contracts/Fund.sol\":3178:3196  _startId <= _endId */\n      0xffffffffffffffffffffffff\n      and\n      gt\n      iszero\n        /* \"contracts/Fund.sol\":3170:3227  require(_startId <= _endId, \"Must be _startId <= _endId\") */\n      tag_73\n      jumpi\n      mload(0x40)\n      0x08c379a000000000000000000000000000000000000000000000000000000000\n      dup2\n      mstore\n      0x04\n      add\n      tag_74\n      swap1\n      tag_75\n      jump\t// in\n    tag_74:\n      mload(0x40)\n      dup1\n      swap2\n      sub\n      swap1\n      revert\n    tag_73:\n        /* \"contracts/Fund.sol\":3238:3260  Fund[] memory fundList */\n      0x00\n        /* \"contracts/Fund.sol\":3283:3291  _startId */\n      dup4\n        /* \"contracts/Fund.sol\":3274:3280  _endId */\n      dup4\n        /* \"contracts/Fund.sol\":3274:3291  _endId - _startId */\n      tag_76\n      swap2\n      swap1\n      tag_77\n      jump\t// in\n    tag_76:\n        /* \"contracts/Fund.sol\":3263:3292  new Fund[](_endId - _startId) */\n      0xffffffffffffffffffffffff\n      and\n      0xffffffffffffffff\n      dup2\n      gt\n      iszero\n      tag_78\n      jumpi\n      tag_79\n      tag_80\n      jump\t// in\n    tag_79:\n    tag_78:\n      mload(0x40)\n      swap1\n      dup1\n      dup3\n      mstore\n      dup1\n      0x20\n      mul\n      0x20\n      add\n      dup3\n      add\n      0x40\n      mstore\n      dup1\n      iszero\n      tag_81\n      jumpi\n      dup2\n      0x20\n      add\n    tag_82:\n      tag_83\n      tag_84\n      jump\t// in\n    tag_83:\n      dup2\n      mstore\n      0x20\n      add\n      swap1\n      0x01\n      swap1\n      sub\n      swap1\n      dup2\n      tag_82\n      jumpi\n      swap1\n      pop\n    tag_81:\n      pop\n        /* \"contracts/Fund.sol\":3238:3292  Fund[] memory fundList = new Fund[](_endId - _startId) */\n      swap1\n      pop\n        /* \"contracts/Fund.sol\":3308:3316  uint96 i */\n      0x00\n        /* \"contracts/Fund.sol\":3319:3327  _startId */\n      dup5\n        /* \"contracts/Fund.sol\":3308:3327  uint96 i = _startId */\n      swap1\n      pop\n        /* \"contracts/Fund.sol\":3303:3403  for (uint96 i = _startId; i<_endId; i++){... */\n    tag_85:\n        /* \"contracts/Fund.sol\":3331:3337  _endId */\n      dup4\n        /* \"contracts/Fund.sol\":3329:3337  i<_endId */\n      0xffffffffffffffffffffffff\n      and\n        /* \"contracts/Fund.sol\":3329:3330  i */\n      dup2\n        /* \"contracts/Fund.sol\":3329:3337  i<_endId */\n      0xffffffffffffffffffffffff\n      and\n      lt\n        /* \"contracts/Fund.sol\":3303:3403  for (uint96 i = _startId; i<_endId; i++){... */\n      iszero\n      tag_86\n      jumpi\n        /* \"contracts/Fund.sol\":3383:3388  funds */\n      0x01\n        /* \"contracts/Fund.sol\":3383:3391  funds[i] */\n      0x00\n        /* \"contracts/Fund.sol\":3389:3390  i */\n      dup3\n        /* \"contracts/Fund.sol\":3383:3391  funds[i] */\n      0xffffffffffffffffffffffff\n      and\n      0xffffffffffffffffffffffff\n      and\n      dup2\n      mstore\n      0x20\n      add\n      swap1\n      dup2\n      mstore\n      0x20\n      add\n      0x00\n      keccak256\n        /* \"contracts/Fund.sol\":3358:3391  fundList[i - _startId] = funds[i] */\n      mload(0x40)\n      dup1\n      0x0100\n      add\n      0x40\n      mstore\n      swap1\n      dup2\n      0x00\n      dup3\n      add\n      0x00\n      swap1\n      sload\n      swap1\n      0x0100\n      exp\n      swap1\n      div\n      0xffffffffffffffffffffffff\n      and\n      0xffffffffffffffffffffffff\n      and\n      0xffffffffffffffffffffffff\n      and\n      dup2\n      mstore\n      0x20\n      add\n      0x00\n      dup3\n      add\n      0x0c\n      swap1\n      sload\n      swap1\n      0x0100\n      exp\n      swap1\n      div\n      0xffffffffffffffffffffffffffffffffffffffff\n      and\n      0xffffffffffffffffffffffffffffffffffffffff\n      and\n      0xffffffffffffffffffffffffffffffffffffffff\n      and\n      dup2\n      mstore\n      0x20\n      add\n      0x01\n      dup3\n      add\n      0x00\n      swap1\n      sload\n      swap1\n      0x0100\n      exp\n      swap1\n      div\n      0xffffffffffff\n      and\n      0xffffffffffff\n      and\n      0xffffffffffff\n      and\n      dup2\n      mstore\n      0x20\n      add\n      0x01\n      dup3\n      add\n      0x06\n      swap1\n      sload\n      swap1\n      0x0100\n      exp\n      swap1\n      div\n      0xffffffffffff\n      and\n      0xffffffffffff\n      and\n      0xffffffffffff\n      and\n      dup2\n      mstore\n      0x20\n      add\n      0x01\n      dup3\n      add\n      0x0c\n      swap1\n      sload\n      swap1\n      0x0100\n      exp\n      swap1\n      div\n      0xffffffffffffffffffffffffffffffffffffffff\n      and\n      0xffffffffffffffffffffffffffffffffffffffff\n      and\n      0xffffffffffffffffffffffffffffffffffffffff\n      and\n      dup2\n      mstore\n      0x20\n      add\n      0x02\n      dup3\n      add\n      sload\n      dup2\n      mstore\n      0x20\n      add\n      0x03\n      dup3\n      add\n      sload\n      dup2\n      mstore\n      0x20\n      add\n      0x04\n      dup3\n      add\n      0x00\n      swap1\n      sload\n      swap1\n      0x0100\n      exp\n      swap1\n      div\n      0xff\n      and\n      iszero\n      iszero\n      iszero\n      iszero\n      dup2\n      mstore\n      pop\n      pop\n        /* \"contracts/Fund.sol\":3358:3366  fundList */\n      dup3\n        /* \"contracts/Fund.sol\":3371:3379  _startId */\n      dup7\n        /* \"contracts/Fund.sol\":3367:3368  i */\n      dup4\n        /* \"contracts/Fund.sol\":3367:3379  i - _startId */\n      tag_88\n      swap2\n      swap1\n      tag_77\n      jump\t// in\n    tag_88:\n        /* \"contracts/Fund.sol\":3358:3380  fundList[i - _startId] */\n      0xffffffffffffffffffffffff\n      and\n      dup2\n      mload\n      dup2\n      lt\n      tag_89\n      jumpi\n      tag_90\n      tag_91\n      jump\t// in\n    tag_90:\n    tag_89:\n      0x20\n      mul\n      0x20\n      add\n      add\n        /* \"contracts/Fund.sol\":3358:3391  fundList[i - _startId] = funds[i] */\n      dup2\n      swap1\n      mstore\n      pop\n        /* \"contracts/Fund.sol\":3339:3342  i++ */\n      dup1\n      dup1\n      tag_92\n      swap1\n      tag_93\n      jump\t// in\n    tag_92:\n      swap2\n      pop\n      pop\n        /* \"contracts/Fund.sol\":3303:3403  for (uint96 i = _startId; i<_endId; i++){... */\n      jump(tag_85)\n    tag_86:\n      pop\n        /* \"contracts/Fund.sol\":3420:3428  fundList */\n      dup1\n        /* \"contracts/Fund.sol\":3413:3428  return fundList */\n      swap2\n      pop\n      pop\n        /* \"contracts/Fund.sol\":3004:3436  function getFunds(uint96 _startId, uint96 _endId) public view returns (Fund[] memory){... */\n      swap3\n      swap2\n      pop\n      pop\n      jump\t// out\n        /* \"contracts/Fund.sol\":268:291  uint96 public fundCount */\n    tag_37:\n      0x00\n      dup1\n      sload\n      swap1\n      0x0100\n      exp\n      swap1\n      div\n      0xffffffffffffffffffffffff\n      and\n      dup2\n      jump\t// out\n        /* \"contracts/Fund.sol\":3448:3615  function getFundPayee(uint96 _id) public view returns (address){... */\n    tag_43:\n        /* \"contracts/Fund.sol\":3503:3510  address */\n      0x00\n        /* \"contracts/Fund.sol\":3536:3545  fundCount */\n      dup1\n      0x00\n      swap1\n      sload\n      swap1\n      0x0100\n      exp\n      swap1\n      div\n      0xffffffffffffffffffffffff\n      and\n        /* \"contracts/Fund.sol\":3530:3545  _id < fundCount */\n      0xffffffffffffffffffffffff\n      and\n        /* \"contracts/Fund.sol\":3530:3533  _id */\n      dup3\n        /* \"contracts/Fund.sol\":3530:3545  _id < fundCount */\n      0xffffffffffffffffffffffff\n      and\n      lt\n        /* \"contracts/Fund.sol\":3522:3573  require(_id < fundCount, \"Must be _id < fundCount\") */\n      tag_95\n      jumpi\n      mload(0x40)\n      0x08c379a000000000000000000000000000000000000000000000000000000000\n      dup2\n      mstore\n      0x04\n      add\n      tag_96\n      swap1\n      tag_97\n      jump\t// in\n    tag_96:\n      mload(0x40)\n      dup1\n      swap2\n      sub\n      swap1\n      revert\n    tag_95:\n        /* \"contracts/Fund.sol\":3591:3596  funds */\n      0x01\n        /* \"contracts/Fund.sol\":3591:3601  funds[_id] */\n      0x00\n        /* \"contracts/Fund.sol\":3597:3600  _id */\n      dup4\n        /* \"contracts/Fund.sol\":3591:3601  funds[_id] */\n      0xffffffffffffffffffffffff\n      and\n      0xffffffffffffffffffffffff\n      and\n      dup2\n      mstore\n      0x20\n      add\n      swap1\n      dup2\n      mstore\n      0x20\n      add\n      0x00\n      keccak256\n        /* \"contracts/Fund.sol\":3591:3607  funds[_id].payee */\n      0x01\n      add\n      0x0c\n      swap1\n      sload\n      swap1\n      0x0100\n      exp\n      swap1\n      div\n      0xffffffffffffffffffffffffffffffffffffffff\n      and\n        /* \"contracts/Fund.sol\":3584:3607  return funds[_id].payee */\n      swap1\n      pop\n        /* \"contracts/Fund.sol\":3448:3615  function getFundPayee(uint96 _id) public view returns (address){... */\n      swap2\n      swap1\n      pop\n      jump\t// out\n        /* \"contracts/Fund.sol\":3623:3959  function donate(... */\n    tag_49:\n        /* \"contracts/Fund.sol\":3781:3820  createDonation(_user, _fundId, _amount) */\n      tag_99\n        /* \"contracts/Fund.sol\":3796:3801  _user */\n      dup4\n        /* \"contracts/Fund.sol\":3803:3810  _fundId */\n      dup4\n        /* \"contracts/Fund.sol\":3812:3819  _amount */\n      dup4\n        /* \"contracts/Fund.sol\":3781:3795  createDonation */\n      tag_100\n        /* \"contracts/Fund.sol\":3781:3820  createDonation(_user, _fundId, _amount) */\n      jump\t// in\n    tag_99:\n        /* \"contracts/Fund.sol\":3855:3884  Fund[] memory updatedFundList */\n      0x00\n        /* \"contracts/Fund.sol\":3887:3916  calculateQF(_fundId, _amount) */\n      tag_101\n        /* \"contracts/Fund.sol\":3899:3906  _fundId */\n      dup4\n        /* \"contracts/Fund.sol\":3908:3915  _amount */\n      dup4\n        /* \"contracts/Fund.sol\":3887:3898  calculateQF */\n      tag_102\n        /* \"contracts/Fund.sol\":3887:3916  calculateQF(_fundId, _amount) */\n      jump\t// in\n    tag_101:\n        /* \"contracts/Fund.sol\":3855:3916  Fund[] memory updatedFundList = calculateQF(_fundId, _amount) */\n      swap1\n      pop\n        /* \"contracts/Fund.sol\":3738:3959  {... */\n      pop\n        /* \"contracts/Fund.sol\":3623:3959  function donate(... */\n      pop\n      pop\n      pop\n      jump\t// out\n        /* \"contracts/Fund.sol\":2251:2876  function updateFund(... */\n    tag_54:\n        /* \"contracts/Fund.sol\":2398:2415  Fund memory _fund */\n      0x00\n        /* \"contracts/Fund.sol\":2418:2423  funds */\n      0x01\n        /* \"contracts/Fund.sol\":2418:2428  funds[_id] */\n      0x00\n        /* \"contracts/Fund.sol\":2424:2427  _id */\n      dup7\n        /* \"contracts/Fund.sol\":2418:2428  funds[_id] */\n      0xffffffffffffffffffffffff\n      and\n      0xffffffffffffffffffffffff\n      and\n      dup2\n      mstore\n      0x20\n      add\n      swap1\n      dup2\n      mstore\n      0x20\n      add\n      0x00\n      keccak256\n        /* \"contracts/Fund.sol\":2398:2428  Fund memory _fund = funds[_id] */\n      mload(0x40)\n      dup1\n      0x0100\n      add\n      0x40\n      mstore\n      swap1\n      dup2\n      0x00\n      dup3\n      add\n      0x00\n      swap1\n      sload\n      swap1\n      0x0100\n      exp\n      swap1\n      div\n      0xffffffffffffffffffffffff\n      and\n      0xffffffffffffffffffffffff\n      and\n      0xffffffffffffffffffffffff\n      and\n      dup2\n      mstore\n      0x20\n      add\n      0x00\n      dup3\n      add\n      0x0c\n      swap1\n      sload\n      swap1\n      0x0100\n      exp\n      swap1\n      div\n      0xffffffffffffffffffffffffffffffffffffffff\n      and\n      0xffffffffffffffffffffffffffffffffffffffff\n      and\n      0xffffffffffffffffffffffffffffffffffffffff\n      and\n      dup2\n      mstore\n      0x20\n      add\n      0x01\n      dup3\n      add\n      0x00\n      swap1\n      sload\n      swap1\n      0x0100\n      exp\n      swap1\n      div\n      0xffffffffffff\n      and\n      0xffffffffffff\n      and\n      0xffffffffffff\n      and\n      dup2\n      mstore\n      0x20\n      add\n      0x01\n      dup3\n      add\n      0x06\n      swap1\n      sload\n      swap1\n      0x0100\n      exp\n      swap1\n      div\n      0xffffffffffff\n      and\n      0xffffffffffff\n      and\n      0xffffffffffff\n      and\n      dup2\n      mstore\n      0x20\n      add\n      0x01\n      dup3\n      add\n      0x0c\n      swap1\n      sload\n      swap1\n      0x0100\n      exp\n      swap1\n      div\n      0xffffffffffffffffffffffffffffffffffffffff\n      and\n      0xffffffffffffffffffffffffffffffffffffffff\n      and\n      0xffffffffffffffffffffffffffffffffffffffff\n      and\n      dup2\n      mstore\n      0x20\n      add\n      0x02\n      dup3\n      add\n      sload\n      dup2\n      mstore\n      0x20\n      add\n      0x03\n      dup3\n      add\n      sload\n      dup2\n      mstore\n      0x20\n      add\n      0x04\n      dup3\n      add\n      0x00\n      swap1\n      sload\n      swap1\n      0x0100\n      exp\n      swap1\n      div\n      0xff\n      and\n      iszero\n      iszero\n      iszero\n      iszero\n      dup2\n      mstore\n      pop\n      pop\n      swap1\n      pop\n        /* \"contracts/Fund.sol\":2461:2466  _fund */\n      dup1\n        /* \"contracts/Fund.sol\":2461:2472  _fund.owner */\n      0x20\n      add\n      mload\n        /* \"contracts/Fund.sol\":2447:2472  msg.sender == _fund.owner */\n      0xffffffffffffffffffffffffffffffffffffffff\n      and\n        /* \"contracts/Fund.sol\":2447:2457  msg.sender */\n      caller\n        /* \"contracts/Fund.sol\":2447:2472  msg.sender == _fund.owner */\n      0xffffffffffffffffffffffffffffffffffffffff\n      and\n      eq\n        /* \"contracts/Fund.sol\":2439:2503  require(msg.sender == _fund.owner, \"Fund Update not authorized\") */\n      tag_104\n      jumpi\n      mload(0x40)\n      0x08c379a000000000000000000000000000000000000000000000000000000000\n      dup2\n      mstore\n      0x04\n      add\n      tag_105\n      swap1\n      tag_106\n      jump\t// in\n    tag_105:\n      mload(0x40)\n      dup1\n      swap2\n      sub\n      swap1\n      revert\n    tag_104:\n        /* \"contracts/Fund.sol\":2527:2759  Fund(... */\n      mload(0x40)\n      dup1\n      0x0100\n      add\n      0x40\n      mstore\n      dup1\n        /* \"contracts/Fund.sol\":2546:2549  _id */\n      dup7\n        /* \"contracts/Fund.sol\":2527:2759  Fund(... */\n      0xffffffffffffffffffffffff\n      and\n      dup2\n      mstore\n      0x20\n      add\n        /* \"contracts/Fund.sol\":2565:2571  _owner */\n      dup6\n        /* \"contracts/Fund.sol\":2527:2759  Fund(... */\n      0xffffffffffffffffffffffffffffffffffffffff\n      and\n      dup2\n      mstore\n      0x20\n      add\n        /* \"contracts/Fund.sol\":2587:2592  _fund */\n      dup3\n        /* \"contracts/Fund.sol\":2587:2602  _fund.createdAt */\n      0x40\n      add\n      mload\n        /* \"contracts/Fund.sol\":2527:2759  Fund(... */\n      0xffffffffffff\n      and\n      dup2\n      mstore\n      0x20\n      add\n        /* \"contracts/Fund.sol\":2625:2640  block.timestamp */\n      timestamp\n        /* \"contracts/Fund.sol\":2527:2759  Fund(... */\n      0xffffffffffff\n      and\n      dup2\n      mstore\n      0x20\n      add\n        /* \"contracts/Fund.sol\":2657:2663  _payee */\n      dup5\n        /* \"contracts/Fund.sol\":2527:2759  Fund(... */\n      0xffffffffffffffffffffffffffffffffffffffff\n      and\n      dup2\n      mstore\n      0x20\n      add\n        /* \"contracts/Fund.sol\":2679:2689  _threshold */\n      dup4\n        /* \"contracts/Fund.sol\":2527:2759  Fund(... */\n      dup2\n      mstore\n      0x20\n      add\n        /* \"contracts/Fund.sol\":2705:2710  _fund */\n      dup3\n        /* \"contracts/Fund.sol\":2705:2722  _fund.totalAmount */\n      0xc0\n      add\n      mload\n        /* \"contracts/Fund.sol\":2527:2759  Fund(... */\n      dup2\n      mstore\n      0x20\n      add\n        /* \"contracts/Fund.sol\":2737:2742  _fund */\n      dup3\n        /* \"contracts/Fund.sol\":2737:2748  _fund.isEnd */\n      0xe0\n      add\n      mload\n        /* \"contracts/Fund.sol\":2527:2759  Fund(... */\n      iszero\n      iszero\n      dup2\n      mstore\n      pop\n        /* \"contracts/Fund.sol\":2514:2519  funds */\n      0x01\n        /* \"contracts/Fund.sol\":2514:2524  funds[_id] */\n      0x00\n        /* \"contracts/Fund.sol\":2520:2523  _id */\n      dup8\n        /* \"contracts/Fund.sol\":2514:2524  funds[_id] */\n      0xffffffffffffffffffffffff\n      and\n      0xffffffffffffffffffffffff\n      and\n      dup2\n      mstore\n      0x20\n      add\n      swap1\n      dup2\n      mstore\n      0x20\n      add\n      0x00\n      keccak256\n        /* \"contracts/Fund.sol\":2514:2759  funds[_id] = Fund(... */\n      0x00\n      dup3\n      add\n      mload\n      dup2\n      0x00\n      add\n      exp(0x0100, 0x00)\n      dup2\n      sload\n      dup2\n      0xffffffffffffffffffffffff\n      mul\n      not\n      and\n      swap1\n      dup4\n      0xffffffffffffffffffffffff\n      and\n      mul\n      or\n      swap1\n      sstore\n      pop\n      0x20\n      dup3\n      add\n      mload\n      dup2\n      0x00\n      add\n      exp(0x0100, 0x0c)\n      dup2\n      sload\n      dup2\n      0xffffffffffffffffffffffffffffffffffffffff\n      mul\n      not\n      and\n      swap1\n      dup4\n      0xffffffffffffffffffffffffffffffffffffffff\n      and\n      mul\n      or\n      swap1\n      sstore\n      pop\n      0x40\n      dup3\n      add\n      mload\n      dup2\n      0x01\n      add\n      exp(0x0100, 0x00)\n      dup2\n      sload\n      dup2\n      0xffffffffffff\n      mul\n      not\n      and\n      swap1\n      dup4\n      0xffffffffffff\n      and\n      mul\n      or\n      swap1\n      sstore\n      pop\n      0x60\n      dup3\n      add\n      mload\n      dup2\n      0x01\n      add\n      exp(0x0100, 0x06)\n      dup2\n      sload\n      dup2\n      0xffffffffffff\n      mul\n      not\n      and\n      swap1\n      dup4\n      0xffffffffffff\n      and\n      mul\n      or\n      swap1\n      sstore\n      pop\n      0x80\n      dup3\n      add\n      mload\n      dup2\n      0x01\n      add\n      exp(0x0100, 0x0c)\n      dup2\n      sload\n      dup2\n      0xffffffffffffffffffffffffffffffffffffffff\n      mul\n      not\n      and\n      swap1\n      dup4\n      0xffffffffffffffffffffffffffffffffffffffff\n      and\n      mul\n      or\n      swap1\n      sstore\n      pop\n      0xa0\n      dup3\n      add\n      mload\n      dup2\n      0x02\n      add\n      sstore\n      0xc0\n      dup3\n      add\n      mload\n      dup2\n      0x03\n      add\n      sstore\n      0xe0\n      dup3\n      add\n      mload\n      dup2\n      0x04\n      add\n      exp(0x0100, 0x00)\n      dup2\n      sload\n      dup2\n      0xff\n      mul\n      not\n      and\n      swap1\n      dup4\n      iszero\n      iszero\n      mul\n      or\n      swap1\n      sstore\n      pop\n      swap1\n      pop\n      pop\n        /* \"contracts/Fund.sol\":2820:2825  _fund */\n      dup1\n        /* \"contracts/Fund.sol\":2820:2837  _fund.totalAmount */\n      0xc0\n      add\n      mload\n        /* \"contracts/Fund.sol\":2808:2818  _threshold */\n      dup3\n        /* \"contracts/Fund.sol\":2787:2790  _id */\n      dup7\n        /* \"contracts/Fund.sol\":2775:2868  FundUpdated(_id, _owner, _payee, _threshold, _fund.totalAmount, _fund.isEnd, block.timestamp) */\n      0xffffffffffffffffffffffff\n      and\n      0x603e97a48f8cadd1e9020bf96470c32853c5d9d8ed30f7cbe961f12ad2a45fa0\n        /* \"contracts/Fund.sol\":2792:2798  _owner */\n      dup8\n        /* \"contracts/Fund.sol\":2800:2806  _payee */\n      dup8\n        /* \"contracts/Fund.sol\":2839:2844  _fund */\n      dup7\n        /* \"contracts/Fund.sol\":2839:2850  _fund.isEnd */\n      0xe0\n      add\n      mload\n        /* \"contracts/Fund.sol\":2852:2867  block.timestamp */\n      timestamp\n        /* \"contracts/Fund.sol\":2775:2868  FundUpdated(_id, _owner, _payee, _threshold, _fund.totalAmount, _fund.isEnd, block.timestamp) */\n      mload(0x40)\n      tag_107\n      swap5\n      swap4\n      swap3\n      swap2\n      swap1\n      tag_64\n      jump\t// in\n    tag_107:\n      mload(0x40)\n      dup1\n      swap2\n      sub\n      swap1\n      log4\n        /* \"contracts/Fund.sol\":2387:2876  {... */\n      pop\n        /* \"contracts/Fund.sol\":2251:2876  function updateFund(... */\n      pop\n      pop\n      pop\n      pop\n      jump\t// out\n        /* \"contracts/Fund.sol\":895:945  mapping(uint96 => Donation[]) public fundDonations */\n    tag_59:\n      mstore(0x20, 0x02)\n      dup2\n      0x00\n      mstore\n      keccak256(0x00, 0x40)\n      dup2\n      dup2\n      sload\n      dup2\n      lt\n      tag_108\n      jumpi\n      0x00\n      dup1\n      revert\n    tag_108:\n      swap1\n      0x00\n      mstore\n      keccak256(0x00, 0x20)\n      swap1\n      0x02\n      mul\n      add\n      0x00\n      swap2\n      pop\n      swap2\n      pop\n      pop\n      dup1\n      0x00\n      add\n      0x00\n      swap1\n      sload\n      swap1\n      0x0100\n      exp\n      swap1\n      div\n      0xffffffffffffffffffffffffffffffffffffffff\n      and\n      swap1\n      dup1\n      0x00\n      add\n      0x14\n      swap1\n      sload\n      swap1\n      0x0100\n      exp\n      swap1\n      div\n      0xffffffffffffffffffffffff\n      and\n      swap1\n      dup1\n      0x01\n      add\n      sload\n      swap1\n      pop\n      dup4\n      jump\t// out\n        /* \"contracts/Fund.sol\":1399:1696  function createDonation(... */\n    tag_100:\n        /* \"contracts/Fund.sol\":1524:1551  Donation memory newDonation */\n      0x00\n        /* \"contracts/Fund.sol\":1554:1637  Donation(... */\n      mload(0x40)\n      dup1\n      0x60\n      add\n      0x40\n      mstore\n      dup1\n        /* \"contracts/Fund.sol\":1577:1582  _user */\n      dup6\n        /* \"contracts/Fund.sol\":1554:1637  Donation(... */\n      0xffffffffffffffffffffffffffffffffffffffff\n      and\n      dup2\n      mstore\n      0x20\n      add\n        /* \"contracts/Fund.sol\":1597:1604  _fundId */\n      dup5\n        /* \"contracts/Fund.sol\":1554:1637  Donation(... */\n      0xffffffffffffffffffffffff\n      and\n      dup2\n      mstore\n      0x20\n      add\n        /* \"contracts/Fund.sol\":1619:1626  _amount */\n      dup4\n        /* \"contracts/Fund.sol\":1554:1637  Donation(... */\n      dup2\n      mstore\n      pop\n        /* \"contracts/Fund.sol\":1524:1637  Donation memory newDonation = Donation(... */\n      swap1\n      pop\n        /* \"contracts/Fund.sol\":1648:1661  fundDonations */\n      0x02\n        /* \"contracts/Fund.sol\":1648:1670  fundDonations[_fundId] */\n      0x00\n        /* \"contracts/Fund.sol\":1662:1669  _fundId */\n      dup5\n        /* \"contracts/Fund.sol\":1648:1670  fundDonations[_fundId] */\n      0xffffffffffffffffffffffff\n      and\n      0xffffffffffffffffffffffff\n      and\n      dup2\n      mstore\n      0x20\n      add\n      swap1\n      dup2\n      mstore\n      0x20\n      add\n      0x00\n      keccak256\n        /* \"contracts/Fund.sol\":1676:1687  newDonation */\n      dup2\n        /* \"contracts/Fund.sol\":1648:1688  fundDonations[_fundId].push(newDonation) */\n      swap1\n      dup1\n      0x01\n      dup2\n      sload\n      add\n      dup1\n      dup3\n      sstore\n      dup1\n      swap2\n      pop\n      pop\n      0x01\n      swap1\n      sub\n      swap1\n      0x00\n      mstore\n      keccak256(0x00, 0x20)\n      swap1\n      0x02\n      mul\n      add\n      0x00\n      swap1\n      swap2\n      swap1\n      swap2\n      swap1\n      swap2\n      pop\n      0x00\n      dup3\n      add\n      mload\n      dup2\n      0x00\n      add\n      exp(0x0100, 0x00)\n      dup2\n      sload\n      dup2\n      0xffffffffffffffffffffffffffffffffffffffff\n      mul\n      not\n      and\n      swap1\n      dup4\n      0xffffffffffffffffffffffffffffffffffffffff\n      and\n      mul\n      or\n      swap1\n      sstore\n      pop\n      0x20\n      dup3\n      add\n      mload\n      dup2\n      0x00\n      add\n      exp(0x0100, 0x14)\n      dup2\n      sload\n      dup2\n      0xffffffffffffffffffffffff\n      mul\n      not\n      and\n      swap1\n      dup4\n      0xffffffffffffffffffffffff\n      and\n      mul\n      or\n      swap1\n      sstore\n      pop\n      0x40\n      dup3\n      add\n      mload\n      dup2\n      0x01\n      add\n      sstore\n      pop\n      pop\n        /* \"contracts/Fund.sol\":1513:1696  {... */\n      pop\n        /* \"contracts/Fund.sol\":1399:1696  function createDonation(... */\n      pop\n      pop\n      pop\n      jump\t// out\n        /* \"contracts/Fund.sol\":3967:4250  function calculateQF(uint96 _fundId, uint256 _amount) internal view returns (Fund[] memory){... */\n    tag_102:\n        /* \"contracts/Fund.sol\":4044:4057  Fund[] memory */\n      0x60\n        /* \"contracts/Fund.sol\":3967:4250  function calculateQF(uint96 _fundId, uint256 _amount) internal view returns (Fund[] memory){... */\n      swap3\n      swap2\n      pop\n      pop\n      jump\t// out\n    tag_84:\n      mload(0x40)\n      dup1\n      0x0100\n      add\n      0x40\n      mstore\n      dup1\n      and(0xffffffffffffffffffffffff, 0x00)\n      dup2\n      mstore\n      0x20\n      add\n      and(0xffffffffffffffffffffffffffffffffffffffff, 0x00)\n      dup2\n      mstore\n      0x20\n      add\n      and(0xffffffffffff, 0x00)\n      dup2\n      mstore\n      0x20\n      add\n      and(0xffffffffffff, 0x00)\n      dup2\n      mstore\n      0x20\n      add\n      and(0xffffffffffffffffffffffffffffffffffffffff, 0x00)\n      dup2\n      mstore\n      0x20\n      add\n      0x00\n      dup2\n      mstore\n      0x20\n      add\n      0x00\n      dup2\n      mstore\n      0x20\n      add\n      iszero(iszero(0x00))\n      dup2\n      mstore\n      pop\n      swap1\n      jump\t// out\n        /* \"#utility.yul\":88:205   */\n    tag_114:\n        /* \"#utility.yul\":197:198   */\n      0x00\n        /* \"#utility.yul\":194:195   */\n      dup1\n        /* \"#utility.yul\":187:199   */\n      revert\n        /* \"#utility.yul\":334:460   */\n    tag_116:\n        /* \"#utility.yul\":371:378   */\n      0x00\n        /* \"#utility.yul\":411:453   */\n      0xffffffffffffffffffffffffffffffffffffffff\n        /* \"#utility.yul\":404:409   */\n      dup3\n        /* \"#utility.yul\":400:454   */\n      and\n        /* \"#utility.yul\":389:454   */\n      swap1\n      pop\n        /* \"#utility.yul\":334:460   */\n      swap2\n      swap1\n      pop\n      jump\t// out\n        /* \"#utility.yul\":466:562   */\n    tag_117:\n        /* \"#utility.yul\":503:510   */\n      0x00\n        /* \"#utility.yul\":532:556   */\n      tag_161\n        /* \"#utility.yul\":550:555   */\n      dup3\n        /* \"#utility.yul\":532:556   */\n      tag_116\n      jump\t// in\n    tag_161:\n        /* \"#utility.yul\":521:556   */\n      swap1\n      pop\n        /* \"#utility.yul\":466:562   */\n      swap2\n      swap1\n      pop\n      jump\t// out\n        /* \"#utility.yul\":568:690   */\n    tag_118:\n        /* \"#utility.yul\":641:665   */\n      tag_163\n        /* \"#utility.yul\":659:664   */\n      dup2\n        /* \"#utility.yul\":641:665   */\n      tag_117\n      jump\t// in\n    tag_163:\n        /* \"#utility.yul\":634:639   */\n      dup2\n        /* \"#utility.yul\":631:666   */\n      eq\n        /* \"#utility.yul\":621:684   */\n      tag_164\n      jumpi\n        /* \"#utility.yul\":680:681   */\n      0x00\n        /* \"#utility.yul\":677:678   */\n      dup1\n        /* \"#utility.yul\":670:682   */\n      revert\n        /* \"#utility.yul\":621:684   */\n    tag_164:\n        /* \"#utility.yul\":568:690   */\n      pop\n      jump\t// out\n        /* \"#utility.yul\":696:835   */\n    tag_119:\n        /* \"#utility.yul\":742:747   */\n      0x00\n        /* \"#utility.yul\":780:786   */\n      dup2\n        /* \"#utility.yul\":767:787   */\n      calldataload\n        /* \"#utility.yul\":758:787   */\n      swap1\n      pop\n        /* \"#utility.yul\":796:829   */\n      tag_166\n        /* \"#utility.yul\":823:828   */\n      dup2\n        /* \"#utility.yul\":796:829   */\n      tag_118\n      jump\t// in\n    tag_166:\n        /* \"#utility.yul\":696:835   */\n      swap3\n      swap2\n      pop\n      pop\n      jump\t// out\n        /* \"#utility.yul\":841:918   */\n    tag_120:\n        /* \"#utility.yul\":878:885   */\n      0x00\n        /* \"#utility.yul\":907:912   */\n      dup2\n        /* \"#utility.yul\":896:912   */\n      swap1\n      pop\n        /* \"#utility.yul\":841:918   */\n      swap2\n      swap1\n      pop\n      jump\t// out\n        /* \"#utility.yul\":924:1046   */\n    tag_121:\n        /* \"#utility.yul\":997:1021   */\n      tag_169\n        /* \"#utility.yul\":1015:1020   */\n      dup2\n        /* \"#utility.yul\":997:1021   */\n      tag_120\n      jump\t// in\n    tag_169:\n        /* \"#utility.yul\":990:995   */\n      dup2\n        /* \"#utility.yul\":987:1022   */\n      eq\n        /* \"#utility.yul\":977:1040   */\n      tag_170\n      jumpi\n        /* \"#utility.yul\":1036:1037   */\n      0x00\n        /* \"#utility.yul\":1033:1034   */\n      dup1\n        /* \"#utility.yul\":1026:1038   */\n      revert\n        /* \"#utility.yul\":977:1040   */\n    tag_170:\n        /* \"#utility.yul\":924:1046   */\n      pop\n      jump\t// out\n        /* \"#utility.yul\":1052:1191   */\n    tag_122:\n        /* \"#utility.yul\":1098:1103   */\n      0x00\n        /* \"#utility.yul\":1136:1142   */\n      dup2\n        /* \"#utility.yul\":1123:1143   */\n      calldataload\n        /* \"#utility.yul\":1114:1143   */\n      swap1\n      pop\n        /* \"#utility.yul\":1152:1185   */\n      tag_172\n        /* \"#utility.yul\":1179:1184   */\n      dup2\n        /* \"#utility.yul\":1152:1185   */\n      tag_121\n      jump\t// in\n    tag_172:\n        /* \"#utility.yul\":1052:1191   */\n      swap3\n      swap2\n      pop\n      pop\n      jump\t// out\n        /* \"#utility.yul\":1197:1816   */\n    tag_15:\n        /* \"#utility.yul\":1274:1280   */\n      0x00\n        /* \"#utility.yul\":1282:1288   */\n      dup1\n        /* \"#utility.yul\":1290:1296   */\n      0x00\n        /* \"#utility.yul\":1339:1341   */\n      0x60\n        /* \"#utility.yul\":1327:1336   */\n      dup5\n        /* \"#utility.yul\":1318:1325   */\n      dup7\n        /* \"#utility.yul\":1314:1337   */\n      sub\n        /* \"#utility.yul\":1310:1342   */\n      slt\n        /* \"#utility.yul\":1307:1426   */\n      iszero\n      tag_174\n      jumpi\n        /* \"#utility.yul\":1345:1424   */\n      tag_175\n      tag_114\n      jump\t// in\n    tag_175:\n        /* \"#utility.yul\":1307:1426   */\n    tag_174:\n        /* \"#utility.yul\":1465:1466   */\n      0x00\n        /* \"#utility.yul\":1490:1543   */\n      tag_176\n        /* \"#utility.yul\":1535:1542   */\n      dup7\n        /* \"#utility.yul\":1526:1532   */\n      dup3\n        /* \"#utility.yul\":1515:1524   */\n      dup8\n        /* \"#utility.yul\":1511:1533   */\n      add\n        /* \"#utility.yul\":1490:1543   */\n      tag_119\n      jump\t// in\n    tag_176:\n        /* \"#utility.yul\":1480:1543   */\n      swap4\n      pop\n        /* \"#utility.yul\":1436:1553   */\n      pop\n        /* \"#utility.yul\":1592:1594   */\n      0x20\n        /* \"#utility.yul\":1618:1671   */\n      tag_177\n        /* \"#utility.yul\":1663:1670   */\n      dup7\n        /* \"#utility.yul\":1654:1660   */\n      dup3\n        /* \"#utility.yul\":1643:1652   */\n      dup8\n        /* \"#utility.yul\":1639:1661   */\n      add\n        /* \"#utility.yul\":1618:1671   */\n      tag_119\n      jump\t// in\n    tag_177:\n        /* \"#utility.yul\":1608:1671   */\n      swap3\n      pop\n        /* \"#utility.yul\":1563:1681   */\n      pop\n        /* \"#utility.yul\":1720:1722   */\n      0x40\n        /* \"#utility.yul\":1746:1799   */\n      tag_178\n        /* \"#utility.yul\":1791:1798   */\n      dup7\n        /* \"#utility.yul\":1782:1788   */\n      dup3\n        /* \"#utility.yul\":1771:1780   */\n      dup8\n        /* \"#utility.yul\":1767:1789   */\n      add\n        /* \"#utility.yul\":1746:1799   */\n      tag_122\n      jump\t// in\n    tag_178:\n        /* \"#utility.yul\":1736:1799   */\n      swap2\n      pop\n        /* \"#utility.yul\":1691:1809   */\n      pop\n        /* \"#utility.yul\":1197:1816   */\n      swap3\n      pop\n      swap3\n      pop\n      swap3\n      jump\t// out\n        /* \"#utility.yul\":1822:1957   */\n    tag_123:\n        /* \"#utility.yul\":1910:1916   */\n      0x00\n        /* \"#utility.yul\":1944:1949   */\n      dup2\n        /* \"#utility.yul\":1938:1950   */\n      mload\n        /* \"#utility.yul\":1928:1950   */\n      swap1\n      pop\n        /* \"#utility.yul\":1822:1957   */\n      swap2\n      swap1\n      pop\n      jump\t// out\n        /* \"#utility.yul\":1963:2168   */\n    tag_124:\n        /* \"#utility.yul\":2083:2094   */\n      0x00\n        /* \"#utility.yul\":2117:2123   */\n      dup3\n        /* \"#utility.yul\":2112:2115   */\n      dup3\n        /* \"#utility.yul\":2105:2124   */\n      mstore\n        /* \"#utility.yul\":2157:2161   */\n      0x20\n        /* \"#utility.yul\":2152:2155   */\n      dup3\n        /* \"#utility.yul\":2148:2162   */\n      add\n        /* \"#utility.yul\":2133:2162   */\n      swap1\n      pop\n        /* \"#utility.yul\":1963:2168   */\n      swap3\n      swap2\n      pop\n      pop\n      jump\t// out\n        /* \"#utility.yul\":2174:2327   */\n    tag_125:\n        /* \"#utility.yul\":2262:2266   */\n      0x00\n        /* \"#utility.yul\":2285:2288   */\n      dup2\n        /* \"#utility.yul\":2277:2288   */\n      swap1\n      pop\n        /* \"#utility.yul\":2315:2319   */\n      0x20\n        /* \"#utility.yul\":2310:2313   */\n      dup3\n        /* \"#utility.yul\":2306:2320   */\n      add\n        /* \"#utility.yul\":2298:2320   */\n      swap1\n      pop\n        /* \"#utility.yul\":2174:2327   */\n      swap2\n      swap1\n      pop\n      jump\t// out\n        /* \"#utility.yul\":2333:2442   */\n    tag_126:\n        /* \"#utility.yul\":2369:2376   */\n      0x00\n        /* \"#utility.yul\":2409:2435   */\n      0xffffffffffffffffffffffff\n        /* \"#utility.yul\":2402:2407   */\n      dup3\n        /* \"#utility.yul\":2398:2436   */\n      and\n        /* \"#utility.yul\":2387:2436   */\n      swap1\n      pop\n        /* \"#utility.yul\":2333:2442   */\n      swap2\n      swap1\n      pop\n      jump\t// out\n        /* \"#utility.yul\":2448:2553   */\n    tag_127:\n        /* \"#utility.yul\":2523:2546   */\n      tag_184\n        /* \"#utility.yul\":2540:2545   */\n      dup2\n        /* \"#utility.yul\":2523:2546   */\n      tag_126\n      jump\t// in\n    tag_184:\n        /* \"#utility.yul\":2518:2521   */\n      dup3\n        /* \"#utility.yul\":2511:2547   */\n      mstore\n        /* \"#utility.yul\":2448:2553   */\n      pop\n      pop\n      jump\t// out\n        /* \"#utility.yul\":2559:2667   */\n    tag_128:\n        /* \"#utility.yul\":2636:2660   */\n      tag_186\n        /* \"#utility.yul\":2654:2659   */\n      dup2\n        /* \"#utility.yul\":2636:2660   */\n      tag_117\n      jump\t// in\n    tag_186:\n        /* \"#utility.yul\":2631:2634   */\n      dup3\n        /* \"#utility.yul\":2624:2661   */\n      mstore\n        /* \"#utility.yul\":2559:2667   */\n      pop\n      pop\n      jump\t// out\n        /* \"#utility.yul\":2673:2770   */\n    tag_129:\n        /* \"#utility.yul\":2709:2716   */\n      0x00\n        /* \"#utility.yul\":2749:2763   */\n      0xffffffffffff\n        /* \"#utility.yul\":2742:2747   */\n      dup3\n        /* \"#utility.yul\":2738:2764   */\n      and\n        /* \"#utility.yul\":2727:2764   */\n      swap1\n      pop\n        /* \"#utility.yul\":2673:2770   */\n      swap2\n      swap1\n      pop\n      jump\t// out\n        /* \"#utility.yul\":2776:2881   */\n    tag_130:\n        /* \"#utility.yul\":2851:2874   */\n      tag_189\n        /* \"#utility.yul\":2868:2873   */\n      dup2\n        /* \"#utility.yul\":2851:2874   */\n      tag_129\n      jump\t// in\n    tag_189:\n        /* \"#utility.yul\":2846:2849   */\n      dup3\n        /* \"#utility.yul\":2839:2875   */\n      mstore\n        /* \"#utility.yul\":2776:2881   */\n      pop\n      pop\n      jump\t// out\n        /* \"#utility.yul\":2887:2995   */\n    tag_131:\n        /* \"#utility.yul\":2964:2988   */\n      tag_191\n        /* \"#utility.yul\":2982:2987   */\n      dup2\n        /* \"#utility.yul\":2964:2988   */\n      tag_120\n      jump\t// in\n    tag_191:\n        /* \"#utility.yul\":2959:2962   */\n      dup3\n        /* \"#utility.yul\":2952:2989   */\n      mstore\n        /* \"#utility.yul\":2887:2995   */\n      pop\n      pop\n      jump\t// out\n        /* \"#utility.yul\":3001:3091   */\n    tag_132:\n        /* \"#utility.yul\":3035:3042   */\n      0x00\n        /* \"#utility.yul\":3078:3083   */\n      dup2\n        /* \"#utility.yul\":3071:3084   */\n      iszero\n        /* \"#utility.yul\":3064:3085   */\n      iszero\n        /* \"#utility.yul\":3053:3085   */\n      swap1\n      pop\n        /* \"#utility.yul\":3001:3091   */\n      swap2\n      swap1\n      pop\n      jump\t// out\n        /* \"#utility.yul\":3097:3196   */\n    tag_133:\n        /* \"#utility.yul\":3168:3189   */\n      tag_194\n        /* \"#utility.yul\":3183:3188   */\n      dup2\n        /* \"#utility.yul\":3168:3189   */\n      tag_132\n      jump\t// in\n    tag_194:\n        /* \"#utility.yul\":3163:3166   */\n      dup3\n        /* \"#utility.yul\":3156:3190   */\n      mstore\n        /* \"#utility.yul\":3097:3196   */\n      pop\n      pop\n      jump\t// out\n        /* \"#utility.yul\":3262:4808   */\n    tag_134:\n        /* \"#utility.yul\":3391:3397   */\n      0x0100\n        /* \"#utility.yul\":3386:3389   */\n      dup3\n        /* \"#utility.yul\":3382:3398   */\n      add\n        /* \"#utility.yul\":3478:3482   */\n      0x00\n        /* \"#utility.yul\":3471:3476   */\n      dup3\n        /* \"#utility.yul\":3467:3483   */\n      add\n        /* \"#utility.yul\":3461:3484   */\n      mload\n        /* \"#utility.yul\":3497:3558   */\n      tag_196\n        /* \"#utility.yul\":3552:3556   */\n      0x00\n        /* \"#utility.yul\":3547:3550   */\n      dup6\n        /* \"#utility.yul\":3543:3557   */\n      add\n        /* \"#utility.yul\":3529:3541   */\n      dup3\n        /* \"#utility.yul\":3497:3558   */\n      tag_127\n      jump\t// in\n    tag_196:\n        /* \"#utility.yul\":3408:3568   */\n      pop\n        /* \"#utility.yul\":3651:3655   */\n      0x20\n        /* \"#utility.yul\":3644:3649   */\n      dup3\n        /* \"#utility.yul\":3640:3656   */\n      add\n        /* \"#utility.yul\":3634:3657   */\n      mload\n        /* \"#utility.yul\":3670:3733   */\n      tag_197\n        /* \"#utility.yul\":3727:3731   */\n      0x20\n        /* \"#utility.yul\":3722:3725   */\n      dup6\n        /* \"#utility.yul\":3718:3732   */\n      add\n        /* \"#utility.yul\":3704:3716   */\n      dup3\n        /* \"#utility.yul\":3670:3733   */\n      tag_128\n      jump\t// in\n    tag_197:\n        /* \"#utility.yul\":3578:3743   */\n      pop\n        /* \"#utility.yul\":3830:3834   */\n      0x40\n        /* \"#utility.yul\":3823:3828   */\n      dup3\n        /* \"#utility.yul\":3819:3835   */\n      add\n        /* \"#utility.yul\":3813:3836   */\n      mload\n        /* \"#utility.yul\":3849:3910   */\n      tag_198\n        /* \"#utility.yul\":3904:3908   */\n      0x40\n        /* \"#utility.yul\":3899:3902   */\n      dup6\n        /* \"#utility.yul\":3895:3909   */\n      add\n        /* \"#utility.yul\":3881:3893   */\n      dup3\n        /* \"#utility.yul\":3849:3910   */\n      tag_130\n      jump\t// in\n    tag_198:\n        /* \"#utility.yul\":3753:3920   */\n      pop\n        /* \"#utility.yul\":4007:4011   */\n      0x60\n        /* \"#utility.yul\":4000:4005   */\n      dup3\n        /* \"#utility.yul\":3996:4012   */\n      add\n        /* \"#utility.yul\":3990:4013   */\n      mload\n        /* \"#utility.yul\":4026:4087   */\n      tag_199\n        /* \"#utility.yul\":4081:4085   */\n      0x60\n        /* \"#utility.yul\":4076:4079   */\n      dup6\n        /* \"#utility.yul\":4072:4086   */\n      add\n        /* \"#utility.yul\":4058:4070   */\n      dup3\n        /* \"#utility.yul\":4026:4087   */\n      tag_130\n      jump\t// in\n    tag_199:\n        /* \"#utility.yul\":3930:4097   */\n      pop\n        /* \"#utility.yul\":4180:4184   */\n      0x80\n        /* \"#utility.yul\":4173:4178   */\n      dup3\n        /* \"#utility.yul\":4169:4185   */\n      add\n        /* \"#utility.yul\":4163:4186   */\n      mload\n        /* \"#utility.yul\":4199:4262   */\n      tag_200\n        /* \"#utility.yul\":4256:4260   */\n      0x80\n        /* \"#utility.yul\":4251:4254   */\n      dup6\n        /* \"#utility.yul\":4247:4261   */\n      add\n        /* \"#utility.yul\":4233:4245   */\n      dup3\n        /* \"#utility.yul\":4199:4262   */\n      tag_128\n      jump\t// in\n    tag_200:\n        /* \"#utility.yul\":4107:4272   */\n      pop\n        /* \"#utility.yul\":4359:4363   */\n      0xa0\n        /* \"#utility.yul\":4352:4357   */\n      dup3\n        /* \"#utility.yul\":4348:4364   */\n      add\n        /* \"#utility.yul\":4342:4365   */\n      mload\n        /* \"#utility.yul\":4378:4441   */\n      tag_201\n        /* \"#utility.yul\":4435:4439   */\n      0xa0\n        /* \"#utility.yul\":4430:4433   */\n      dup6\n        /* \"#utility.yul\":4426:4440   */\n      add\n        /* \"#utility.yul\":4412:4424   */\n      dup3\n        /* \"#utility.yul\":4378:4441   */\n      tag_131\n      jump\t// in\n    tag_201:\n        /* \"#utility.yul\":4282:4451   */\n      pop\n        /* \"#utility.yul\":4540:4544   */\n      0xc0\n        /* \"#utility.yul\":4533:4538   */\n      dup3\n        /* \"#utility.yul\":4529:4545   */\n      add\n        /* \"#utility.yul\":4523:4546   */\n      mload\n        /* \"#utility.yul\":4559:4622   */\n      tag_202\n        /* \"#utility.yul\":4616:4620   */\n      0xc0\n        /* \"#utility.yul\":4611:4614   */\n      dup6\n        /* \"#utility.yul\":4607:4621   */\n      add\n        /* \"#utility.yul\":4593:4605   */\n      dup3\n        /* \"#utility.yul\":4559:4622   */\n      tag_131\n      jump\t// in\n    tag_202:\n        /* \"#utility.yul\":4461:4632   */\n      pop\n        /* \"#utility.yul\":4715:4719   */\n      0xe0\n        /* \"#utility.yul\":4708:4713   */\n      dup3\n        /* \"#utility.yul\":4704:4720   */\n      add\n        /* \"#utility.yul\":4698:4721   */\n      mload\n        /* \"#utility.yul\":4734:4791   */\n      tag_203\n        /* \"#utility.yul\":4785:4789   */\n      0xe0\n        /* \"#utility.yul\":4780:4783   */\n      dup6\n        /* \"#utility.yul\":4776:4790   */\n      add\n        /* \"#utility.yul\":4762:4774   */\n      dup3\n        /* \"#utility.yul\":4734:4791   */\n      tag_133\n      jump\t// in\n    tag_203:\n        /* \"#utility.yul\":4642:4801   */\n      pop\n        /* \"#utility.yul\":3360:4808   */\n      pop\n        /* \"#utility.yul\":3262:4808   */\n      pop\n      pop\n      jump\t// out\n        /* \"#utility.yul\":4814:5079   */\n    tag_135:\n        /* \"#utility.yul\":4925:4935   */\n      0x00\n        /* \"#utility.yul\":4946:5034   */\n      tag_205\n        /* \"#utility.yul\":5030:5033   */\n      dup4\n        /* \"#utility.yul\":5022:5028   */\n      dup4\n        /* \"#utility.yul\":4946:5034   */\n      tag_134\n      jump\t// in\n    tag_205:\n        /* \"#utility.yul\":5066:5072   */\n      0x0100\n        /* \"#utility.yul\":5061:5064   */\n      dup4\n        /* \"#utility.yul\":5057:5073   */\n      add\n        /* \"#utility.yul\":5043:5073   */\n      swap1\n      pop\n        /* \"#utility.yul\":4814:5079   */\n      swap3\n      swap2\n      pop\n      pop\n      jump\t// out\n        /* \"#utility.yul\":5085:5219   */\n    tag_136:\n        /* \"#utility.yul\":5176:5180   */\n      0x00\n        /* \"#utility.yul\":5208:5212   */\n      0x20\n        /* \"#utility.yul\":5203:5206   */\n      dup3\n        /* \"#utility.yul\":5199:5213   */\n      add\n        /* \"#utility.yul\":5191:5213   */\n      swap1\n      pop\n        /* \"#utility.yul\":5085:5219   */\n      swap2\n      swap1\n      pop\n      jump\t// out\n        /* \"#utility.yul\":5289:6189   */\n    tag_137:\n        /* \"#utility.yul\":5450:5453   */\n      0x00\n        /* \"#utility.yul\":5479:5554   */\n      tag_208\n        /* \"#utility.yul\":5548:5553   */\n      dup3\n        /* \"#utility.yul\":5479:5554   */\n      tag_123\n      jump\t// in\n    tag_208:\n        /* \"#utility.yul\":5570:5677   */\n      tag_209\n        /* \"#utility.yul\":5670:5676   */\n      dup2\n        /* \"#utility.yul\":5665:5668   */\n      dup6\n        /* \"#utility.yul\":5570:5677   */\n      tag_124\n      jump\t// in\n    tag_209:\n        /* \"#utility.yul\":5563:5677   */\n      swap4\n      pop\n        /* \"#utility.yul\":5701:5778   */\n      tag_210\n        /* \"#utility.yul\":5772:5777   */\n      dup4\n        /* \"#utility.yul\":5701:5778   */\n      tag_125\n      jump\t// in\n    tag_210:\n        /* \"#utility.yul\":5801:5808   */\n      dup1\n        /* \"#utility.yul\":5832:5833   */\n      0x00\n        /* \"#utility.yul\":5817:6164   */\n    tag_211:\n        /* \"#utility.yul\":5842:5848   */\n      dup4\n        /* \"#utility.yul\":5839:5840   */\n      dup2\n        /* \"#utility.yul\":5836:5849   */\n      lt\n        /* \"#utility.yul\":5817:6164   */\n      iszero\n      tag_213\n      jumpi\n        /* \"#utility.yul\":5918:5924   */\n      dup2\n        /* \"#utility.yul\":5912:5925   */\n      mload\n        /* \"#utility.yul\":5945:6050   */\n      tag_214\n        /* \"#utility.yul\":6046:6049   */\n      dup9\n        /* \"#utility.yul\":6031:6044   */\n      dup3\n        /* \"#utility.yul\":5945:6050   */\n      tag_135\n      jump\t// in\n    tag_214:\n        /* \"#utility.yul\":5938:6050   */\n      swap8\n      pop\n        /* \"#utility.yul\":6073:6154   */\n      tag_215\n        /* \"#utility.yul\":6147:6153   */\n      dup4\n        /* \"#utility.yul\":6073:6154   */\n      tag_136\n      jump\t// in\n    tag_215:\n        /* \"#utility.yul\":6063:6154   */\n      swap3\n      pop\n        /* \"#utility.yul\":5877:6164   */\n      pop\n        /* \"#utility.yul\":5864:5865   */\n      0x01\n        /* \"#utility.yul\":5861:5862   */\n      dup2\n        /* \"#utility.yul\":5857:5866   */\n      add\n        /* \"#utility.yul\":5852:5866   */\n      swap1\n      pop\n        /* \"#utility.yul\":5817:6164   */\n      jump(tag_211)\n    tag_213:\n        /* \"#utility.yul\":5821:5835   */\n      pop\n        /* \"#utility.yul\":6180:6183   */\n      dup6\n        /* \"#utility.yul\":6173:6183   */\n      swap4\n      pop\n        /* \"#utility.yul\":5455:6189   */\n      pop\n      pop\n      pop\n        /* \"#utility.yul\":5289:6189   */\n      swap3\n      swap2\n      pop\n      pop\n      jump\t// out\n        /* \"#utility.yul\":6195:6652   */\n    tag_21:\n        /* \"#utility.yul\":6380:6384   */\n      0x00\n        /* \"#utility.yul\":6418:6420   */\n      0x20\n        /* \"#utility.yul\":6407:6416   */\n      dup3\n        /* \"#utility.yul\":6403:6421   */\n      add\n        /* \"#utility.yul\":6395:6421   */\n      swap1\n      pop\n        /* \"#utility.yul\":6467:6476   */\n      dup2\n        /* \"#utility.yul\":6461:6465   */\n      dup2\n        /* \"#utility.yul\":6457:6477   */\n      sub\n        /* \"#utility.yul\":6453:6454   */\n      0x00\n        /* \"#utility.yul\":6442:6451   */\n      dup4\n        /* \"#utility.yul\":6438:6455   */\n      add\n        /* \"#utility.yul\":6431:6478   */\n      mstore\n        /* \"#utility.yul\":6495:6645   */\n      tag_217\n        /* \"#utility.yul\":6640:6644   */\n      dup2\n        /* \"#utility.yul\":6631:6637   */\n      dup5\n        /* \"#utility.yul\":6495:6645   */\n      tag_137\n      jump\t// in\n    tag_217:\n        /* \"#utility.yul\":6487:6645   */\n      swap1\n      pop\n        /* \"#utility.yul\":6195:6652   */\n      swap3\n      swap2\n      pop\n      pop\n      jump\t// out\n        /* \"#utility.yul\":6658:6778   */\n    tag_138:\n        /* \"#utility.yul\":6730:6753   */\n      tag_219\n        /* \"#utility.yul\":6747:6752   */\n      dup2\n        /* \"#utility.yul\":6730:6753   */\n      tag_126\n      jump\t// in\n    tag_219:\n        /* \"#utility.yul\":6723:6728   */\n      dup2\n        /* \"#utility.yul\":6720:6754   */\n      eq\n        /* \"#utility.yul\":6710:6772   */\n      tag_220\n      jumpi\n        /* \"#utility.yul\":6768:6769   */\n      0x00\n        /* \"#utility.yul\":6765:6766   */\n      dup1\n        /* \"#utility.yul\":6758:6770   */\n      revert\n        /* \"#utility.yul\":6710:6772   */\n    tag_220:\n        /* \"#utility.yul\":6658:6778   */\n      pop\n      jump\t// out\n        /* \"#utility.yul\":6784:6921   */\n    tag_139:\n        /* \"#utility.yul\":6829:6834   */\n      0x00\n        /* \"#utility.yul\":6867:6873   */\n      dup2\n        /* \"#utility.yul\":6854:6874   */\n      calldataload\n        /* \"#utility.yul\":6845:6874   */\n      swap1\n      pop\n        /* \"#utility.yul\":6883:6915   */\n      tag_222\n        /* \"#utility.yul\":6909:6914   */\n      dup2\n        /* \"#utility.yul\":6883:6915   */\n      tag_138\n      jump\t// in\n    tag_222:\n        /* \"#utility.yul\":6784:6921   */\n      swap3\n      swap2\n      pop\n      pop\n      jump\t// out\n        /* \"#utility.yul\":6927:7254   */\n    tag_25:\n        /* \"#utility.yul\":6985:6991   */\n      0x00\n        /* \"#utility.yul\":7034:7036   */\n      0x20\n        /* \"#utility.yul\":7022:7031   */\n      dup3\n        /* \"#utility.yul\":7013:7020   */\n      dup5\n        /* \"#utility.yul\":7009:7032   */\n      sub\n        /* \"#utility.yul\":7005:7037   */\n      slt\n        /* \"#utility.yul\":7002:7121   */\n      iszero\n      tag_224\n      jumpi\n        /* \"#utility.yul\":7040:7119   */\n      tag_225\n      tag_114\n      jump\t// in\n    tag_225:\n        /* \"#utility.yul\":7002:7121   */\n    tag_224:\n        /* \"#utility.yul\":7160:7161   */\n      0x00\n        /* \"#utility.yul\":7185:7237   */\n      tag_226\n        /* \"#utility.yul\":7229:7236   */\n      dup5\n        /* \"#utility.yul\":7220:7226   */\n      dup3\n        /* \"#utility.yul\":7209:7218   */\n      dup6\n        /* \"#utility.yul\":7205:7227   */\n      add\n        /* \"#utility.yul\":7185:7237   */\n      tag_139\n      jump\t// in\n    tag_226:\n        /* \"#utility.yul\":7175:7237   */\n      swap2\n      pop\n        /* \"#utility.yul\":7131:7247   */\n      pop\n        /* \"#utility.yul\":6927:7254   */\n      swap3\n      swap2\n      pop\n      pop\n      jump\t// out\n        /* \"#utility.yul\":7260:7375   */\n    tag_140:\n        /* \"#utility.yul\":7345:7368   */\n      tag_228\n        /* \"#utility.yul\":7362:7367   */\n      dup2\n        /* \"#utility.yul\":7345:7368   */\n      tag_126\n      jump\t// in\n    tag_228:\n        /* \"#utility.yul\":7340:7343   */\n      dup3\n        /* \"#utility.yul\":7333:7369   */\n      mstore\n        /* \"#utility.yul\":7260:7375   */\n      pop\n      pop\n      jump\t// out\n        /* \"#utility.yul\":7381:7499   */\n    tag_141:\n        /* \"#utility.yul\":7468:7492   */\n      tag_230\n        /* \"#utility.yul\":7486:7491   */\n      dup2\n        /* \"#utility.yul\":7468:7492   */\n      tag_117\n      jump\t// in\n    tag_230:\n        /* \"#utility.yul\":7463:7466   */\n      dup3\n        /* \"#utility.yul\":7456:7493   */\n      mstore\n        /* \"#utility.yul\":7381:7499   */\n      pop\n      pop\n      jump\t// out\n        /* \"#utility.yul\":7505:7620   */\n    tag_142:\n        /* \"#utility.yul\":7590:7613   */\n      tag_232\n        /* \"#utility.yul\":7607:7612   */\n      dup2\n        /* \"#utility.yul\":7590:7613   */\n      tag_129\n      jump\t// in\n    tag_232:\n        /* \"#utility.yul\":7585:7588   */\n      dup3\n        /* \"#utility.yul\":7578:7614   */\n      mstore\n        /* \"#utility.yul\":7505:7620   */\n      pop\n      pop\n      jump\t// out\n        /* \"#utility.yul\":7626:7744   */\n    tag_143:\n        /* \"#utility.yul\":7713:7737   */\n      tag_234\n        /* \"#utility.yul\":7731:7736   */\n      dup2\n        /* \"#utility.yul\":7713:7737   */\n      tag_120\n      jump\t// in\n    tag_234:\n        /* \"#utility.yul\":7708:7711   */\n      dup3\n        /* \"#utility.yul\":7701:7738   */\n      mstore\n        /* \"#utility.yul\":7626:7744   */\n      pop\n      pop\n      jump\t// out\n        /* \"#utility.yul\":7750:7859   */\n    tag_144:\n        /* \"#utility.yul\":7831:7852   */\n      tag_236\n        /* \"#utility.yul\":7846:7851   */\n      dup2\n        /* \"#utility.yul\":7831:7852   */\n      tag_132\n      jump\t// in\n    tag_236:\n        /* \"#utility.yul\":7826:7829   */\n      dup3\n        /* \"#utility.yul\":7819:7853   */\n      mstore\n        /* \"#utility.yul\":7750:7859   */\n      pop\n      pop\n      jump\t// out\n        /* \"#utility.yul\":7865:8838   */\n    tag_28:\n        /* \"#utility.yul\":8142:8146   */\n      0x00\n        /* \"#utility.yul\":8180:8183   */\n      0x0100\n        /* \"#utility.yul\":8169:8178   */\n      dup3\n        /* \"#utility.yul\":8165:8184   */\n      add\n        /* \"#utility.yul\":8157:8184   */\n      swap1\n      pop\n        /* \"#utility.yul\":8194:8263   */\n      tag_238\n        /* \"#utility.yul\":8260:8261   */\n      0x00\n        /* \"#utility.yul\":8249:8258   */\n      dup4\n        /* \"#utility.yul\":8245:8262   */\n      add\n        /* \"#utility.yul\":8236:8242   */\n      dup12\n        /* \"#utility.yul\":8194:8263   */\n      tag_140\n      jump\t// in\n    tag_238:\n        /* \"#utility.yul\":8273:8345   */\n      tag_239\n        /* \"#utility.yul\":8341:8343   */\n      0x20\n        /* \"#utility.yul\":8330:8339   */\n      dup4\n        /* \"#utility.yul\":8326:8344   */\n      add\n        /* \"#utility.yul\":8317:8323   */\n      dup11\n        /* \"#utility.yul\":8273:8345   */\n      tag_141\n      jump\t// in\n    tag_239:\n        /* \"#utility.yul\":8355:8425   */\n      tag_240\n        /* \"#utility.yul\":8421:8423   */\n      0x40\n        /* \"#utility.yul\":8410:8419   */\n      dup4\n        /* \"#utility.yul\":8406:8424   */\n      add\n        /* \"#utility.yul\":8397:8403   */\n      dup10\n        /* \"#utility.yul\":8355:8425   */\n      tag_142\n      jump\t// in\n    tag_240:\n        /* \"#utility.yul\":8435:8505   */\n      tag_241\n        /* \"#utility.yul\":8501:8503   */\n      0x60\n        /* \"#utility.yul\":8490:8499   */\n      dup4\n        /* \"#utility.yul\":8486:8504   */\n      add\n        /* \"#utility.yul\":8477:8483   */\n      dup9\n        /* \"#utility.yul\":8435:8505   */\n      tag_142\n      jump\t// in\n    tag_241:\n        /* \"#utility.yul\":8515:8588   */\n      tag_242\n        /* \"#utility.yul\":8583:8586   */\n      0x80\n        /* \"#utility.yul\":8572:8581   */\n      dup4\n        /* \"#utility.yul\":8568:8587   */\n      add\n        /* \"#utility.yul\":8559:8565   */\n      dup8\n        /* \"#utility.yul\":8515:8588   */\n      tag_141\n      jump\t// in\n    tag_242:\n        /* \"#utility.yul\":8598:8671   */\n      tag_243\n        /* \"#utility.yul\":8666:8669   */\n      0xa0\n        /* \"#utility.yul\":8655:8664   */\n      dup4\n        /* \"#utility.yul\":8651:8670   */\n      add\n        /* \"#utility.yul\":8642:8648   */\n      dup7\n        /* \"#utility.yul\":8598:8671   */\n      tag_143\n      jump\t// in\n    tag_243:\n        /* \"#utility.yul\":8681:8754   */\n      tag_244\n        /* \"#utility.yul\":8749:8752   */\n      0xc0\n        /* \"#utility.yul\":8738:8747   */\n      dup4\n        /* \"#utility.yul\":8734:8753   */\n      add\n        /* \"#utility.yul\":8725:8731   */\n      dup6\n        /* \"#utility.yul\":8681:8754   */\n      tag_143\n      jump\t// in\n    tag_244:\n        /* \"#utility.yul\":8764:8831   */\n      tag_245\n        /* \"#utility.yul\":8826:8829   */\n      0xe0\n        /* \"#utility.yul\":8815:8824   */\n      dup4\n        /* \"#utility.yul\":8811:8830   */\n      add\n        /* \"#utility.yul\":8802:8808   */\n      dup5\n        /* \"#utility.yul\":8764:8831   */\n      tag_144\n      jump\t// in\n    tag_245:\n        /* \"#utility.yul\":7865:8838   */\n      swap10\n      swap9\n      pop\n      pop\n      pop\n      pop\n      pop\n      pop\n      pop\n      pop\n      pop\n      jump\t// out\n        /* \"#utility.yul\":8844:9314   */\n    tag_32:\n        /* \"#utility.yul\":8910:8916   */\n      0x00\n        /* \"#utility.yul\":8918:8924   */\n      dup1\n        /* \"#utility.yul\":8967:8969   */\n      0x40\n        /* \"#utility.yul\":8955:8964   */\n      dup4\n        /* \"#utility.yul\":8946:8953   */\n      dup6\n        /* \"#utility.yul\":8942:8965   */\n      sub\n        /* \"#utility.yul\":8938:8970   */\n      slt\n        /* \"#utility.yul\":8935:9054   */\n      iszero\n      tag_247\n      jumpi\n        /* \"#utility.yul\":8973:9052   */\n      tag_248\n      tag_114\n      jump\t// in\n    tag_248:\n        /* \"#utility.yul\":8935:9054   */\n    tag_247:\n        /* \"#utility.yul\":9093:9094   */\n      0x00\n        /* \"#utility.yul\":9118:9170   */\n      tag_249\n        /* \"#utility.yul\":9162:9169   */\n      dup6\n        /* \"#utility.yul\":9153:9159   */\n      dup3\n        /* \"#utility.yul\":9142:9151   */\n      dup7\n        /* \"#utility.yul\":9138:9160   */\n      add\n        /* \"#utility.yul\":9118:9170   */\n      tag_139\n      jump\t// in\n    tag_249:\n        /* \"#utility.yul\":9108:9170   */\n      swap3\n      pop\n        /* \"#utility.yul\":9064:9180   */\n      pop\n        /* \"#utility.yul\":9219:9221   */\n      0x20\n        /* \"#utility.yul\":9245:9297   */\n      tag_250\n        /* \"#utility.yul\":9289:9296   */\n      dup6\n        /* \"#utility.yul\":9280:9286   */\n      dup3\n        /* \"#utility.yul\":9269:9278   */\n      dup7\n        /* \"#utility.yul\":9265:9287   */\n      add\n        /* \"#utility.yul\":9245:9297   */\n      tag_139\n      jump\t// in\n    tag_250:\n        /* \"#utility.yul\":9235:9297   */\n      swap2\n      pop\n        /* \"#utility.yul\":9190:9307   */\n      pop\n        /* \"#utility.yul\":8844:9314   */\n      swap3\n      pop\n      swap3\n      swap1\n      pop\n      jump\t// out\n        /* \"#utility.yul\":9320:9538   */\n    tag_39:\n        /* \"#utility.yul\":9411:9415   */\n      0x00\n        /* \"#utility.yul\":9449:9451   */\n      0x20\n        /* \"#utility.yul\":9438:9447   */\n      dup3\n        /* \"#utility.yul\":9434:9452   */\n      add\n        /* \"#utility.yul\":9426:9452   */\n      swap1\n      pop\n        /* \"#utility.yul\":9462:9531   */\n      tag_252\n        /* \"#utility.yul\":9528:9529   */\n      0x00\n        /* \"#utility.yul\":9517:9526   */\n      dup4\n        /* \"#utility.yul\":9513:9530   */\n      add\n        /* \"#utility.yul\":9504:9510   */\n      dup5\n        /* \"#utility.yul\":9462:9531   */\n      tag_140\n      jump\t// in\n    tag_252:\n        /* \"#utility.yul\":9320:9538   */\n      swap3\n      swap2\n      pop\n      pop\n      jump\t// out\n        /* \"#utility.yul\":9544:9766   */\n    tag_45:\n        /* \"#utility.yul\":9637:9641   */\n      0x00\n        /* \"#utility.yul\":9675:9677   */\n      0x20\n        /* \"#utility.yul\":9664:9673   */\n      dup3\n        /* \"#utility.yul\":9660:9678   */\n      add\n        /* \"#utility.yul\":9652:9678   */\n      swap1\n      pop\n        /* \"#utility.yul\":9688:9759   */\n      tag_254\n        /* \"#utility.yul\":9756:9757   */\n      0x00\n        /* \"#utility.yul\":9745:9754   */\n      dup4\n        /* \"#utility.yul\":9741:9758   */\n      add\n        /* \"#utility.yul\":9732:9738   */\n      dup5\n        /* \"#utility.yul\":9688:9759   */\n      tag_141\n      jump\t// in\n    tag_254:\n        /* \"#utility.yul\":9544:9766   */\n      swap3\n      swap2\n      pop\n      pop\n      jump\t// out\n        /* \"#utility.yul\":9772:10389   */\n    tag_48:\n        /* \"#utility.yul\":9848:9854   */\n      0x00\n        /* \"#utility.yul\":9856:9862   */\n      dup1\n        /* \"#utility.yul\":9864:9870   */\n      0x00\n        /* \"#utility.yul\":9913:9915   */\n      0x60\n        /* \"#utility.yul\":9901:9910   */\n      dup5\n        /* \"#utility.yul\":9892:9899   */\n      dup7\n        /* \"#utility.yul\":9888:9911   */\n      sub\n        /* \"#utility.yul\":9884:9916   */\n      slt\n        /* \"#utility.yul\":9881:10000   */\n      iszero\n      tag_256\n      jumpi\n        /* \"#utility.yul\":9919:9998   */\n      tag_257\n      tag_114\n      jump\t// in\n    tag_257:\n        /* \"#utility.yul\":9881:10000   */\n    tag_256:\n        /* \"#utility.yul\":10039:10040   */\n      0x00\n        /* \"#utility.yul\":10064:10117   */\n      tag_258\n        /* \"#utility.yul\":10109:10116   */\n      dup7\n        /* \"#utility.yul\":10100:10106   */\n      dup3\n        /* \"#utility.yul\":10089:10098   */\n      dup8\n        /* \"#utility.yul\":10085:10107   */\n      add\n        /* \"#utility.yul\":10064:10117   */\n      tag_119\n      jump\t// in\n    tag_258:\n        /* \"#utility.yul\":10054:10117   */\n      swap4\n      pop\n        /* \"#utility.yul\":10010:10127   */\n      pop\n        /* \"#utility.yul\":10166:10168   */\n      0x20\n        /* \"#utility.yul\":10192:10244   */\n      tag_259\n        /* \"#utility.yul\":10236:10243   */\n      dup7\n        /* \"#utility.yul\":10227:10233   */\n      dup3\n        /* \"#utility.yul\":10216:10225   */\n      dup8\n        /* \"#utility.yul\":10212:10234   */\n      add\n        /* \"#utility.yul\":10192:10244   */\n      tag_139\n      jump\t// in\n    tag_259:\n        /* \"#utility.yul\":10182:10244   */\n      swap3\n      pop\n        /* \"#utility.yul\":10137:10254   */\n      pop\n        /* \"#utility.yul\":10293:10295   */\n      0x40\n        /* \"#utility.yul\":10319:10372   */\n      tag_260\n        /* \"#utility.yul\":10364:10371   */\n      dup7\n        /* \"#utility.yul\":10355:10361   */\n      dup3\n        /* \"#utility.yul\":10344:10353   */\n      dup8\n        /* \"#utility.yul\":10340:10362   */\n      add\n        /* \"#utility.yul\":10319:10372   */\n      tag_122\n      jump\t// in\n    tag_260:\n        /* \"#utility.yul\":10309:10372   */\n      swap2\n      pop\n        /* \"#utility.yul\":10264:10382   */\n      pop\n        /* \"#utility.yul\":9772:10389   */\n      swap3\n      pop\n      swap3\n      pop\n      swap3\n      jump\t// out\n        /* \"#utility.yul\":10395:11158   */\n    tag_53:\n        /* \"#utility.yul\":10480:10486   */\n      0x00\n        /* \"#utility.yul\":10488:10494   */\n      dup1\n        /* \"#utility.yul\":10496:10502   */\n      0x00\n        /* \"#utility.yul\":10504:10510   */\n      dup1\n        /* \"#utility.yul\":10553:10556   */\n      0x80\n        /* \"#utility.yul\":10541:10550   */\n      dup6\n        /* \"#utility.yul\":10532:10539   */\n      dup8\n        /* \"#utility.yul\":10528:10551   */\n      sub\n        /* \"#utility.yul\":10524:10557   */\n      slt\n        /* \"#utility.yul\":10521:10641   */\n      iszero\n      tag_262\n      jumpi\n        /* \"#utility.yul\":10560:10639   */\n      tag_263\n      tag_114\n      jump\t// in\n    tag_263:\n        /* \"#utility.yul\":10521:10641   */\n    tag_262:\n        /* \"#utility.yul\":10680:10681   */\n      0x00\n        /* \"#utility.yul\":10705:10757   */\n      tag_264\n        /* \"#utility.yul\":10749:10756   */\n      dup8\n        /* \"#utility.yul\":10740:10746   */\n      dup3\n        /* \"#utility.yul\":10729:10738   */\n      dup9\n        /* \"#utility.yul\":10725:10747   */\n      add\n        /* \"#utility.yul\":10705:10757   */\n      tag_139\n      jump\t// in\n    tag_264:\n        /* \"#utility.yul\":10695:10757   */\n      swap5\n      pop\n        /* \"#utility.yul\":10651:10767   */\n      pop\n        /* \"#utility.yul\":10806:10808   */\n      0x20\n        /* \"#utility.yul\":10832:10885   */\n      tag_265\n        /* \"#utility.yul\":10877:10884   */\n      dup8\n        /* \"#utility.yul\":10868:10874   */\n      dup3\n        /* \"#utility.yul\":10857:10866   */\n      dup9\n        /* \"#utility.yul\":10853:10875   */\n      add\n        /* \"#utility.yul\":10832:10885   */\n      tag_119\n      jump\t// in\n    tag_265:\n        /* \"#utility.yul\":10822:10885   */\n      swap4\n      pop\n        /* \"#utility.yul\":10777:10895   */\n      pop\n        /* \"#utility.yul\":10934:10936   */\n      0x40\n        /* \"#utility.yul\":10960:11013   */\n      tag_266\n        /* \"#utility.yul\":11005:11012   */\n      dup8\n        /* \"#utility.yul\":10996:11002   */\n      dup3\n        /* \"#utility.yul\":10985:10994   */\n      dup9\n        /* \"#utility.yul\":10981:11003   */\n      add\n        /* \"#utility.yul\":10960:11013   */\n      tag_119\n      jump\t// in\n    tag_266:\n        /* \"#utility.yul\":10950:11013   */\n      swap3\n      pop\n        /* \"#utility.yul\":10905:11023   */\n      pop\n        /* \"#utility.yul\":11062:11064   */\n      0x60\n        /* \"#utility.yul\":11088:11141   */\n      tag_267\n        /* \"#utility.yul\":11133:11140   */\n      dup8\n        /* \"#utility.yul\":11124:11130   */\n      dup3\n        /* \"#utility.yul\":11113:11122   */\n      dup9\n        /* \"#utility.yul\":11109:11131   */\n      add\n        /* \"#utility.yul\":11088:11141   */\n      tag_122\n      jump\t// in\n    tag_267:\n        /* \"#utility.yul\":11078:11141   */\n      swap2\n      pop\n        /* \"#utility.yul\":11033:11151   */\n      pop\n        /* \"#utility.yul\":10395:11158   */\n      swap3\n      swap6\n      swap2\n      swap5\n      pop\n      swap3\n      pop\n      jump\t// out\n        /* \"#utility.yul\":11164:11636   */\n    tag_58:\n        /* \"#utility.yul\":11231:11237   */\n      0x00\n        /* \"#utility.yul\":11239:11245   */\n      dup1\n        /* \"#utility.yul\":11288:11290   */\n      0x40\n        /* \"#utility.yul\":11276:11285   */\n      dup4\n        /* \"#utility.yul\":11267:11274   */\n      dup6\n        /* \"#utility.yul\":11263:11286   */\n      sub\n        /* \"#utility.yul\":11259:11291   */\n      slt\n        /* \"#utility.yul\":11256:11375   */\n      iszero\n      tag_269\n      jumpi\n        /* \"#utility.yul\":11294:11373   */\n      tag_270\n      tag_114\n      jump\t// in\n    tag_270:\n        /* \"#utility.yul\":11256:11375   */\n    tag_269:\n        /* \"#utility.yul\":11414:11415   */\n      0x00\n        /* \"#utility.yul\":11439:11491   */\n      tag_271\n        /* \"#utility.yul\":11483:11490   */\n      dup6\n        /* \"#utility.yul\":11474:11480   */\n      dup3\n        /* \"#utility.yul\":11463:11472   */\n      dup7\n        /* \"#utility.yul\":11459:11481   */\n      add\n        /* \"#utility.yul\":11439:11491   */\n      tag_139\n      jump\t// in\n    tag_271:\n        /* \"#utility.yul\":11429:11491   */\n      swap3\n      pop\n        /* \"#utility.yul\":11385:11501   */\n      pop\n        /* \"#utility.yul\":11540:11542   */\n      0x20\n        /* \"#utility.yul\":11566:11619   */\n      tag_272\n        /* \"#utility.yul\":11611:11618   */\n      dup6\n        /* \"#utility.yul\":11602:11608   */\n      dup3\n        /* \"#utility.yul\":11591:11600   */\n      dup7\n        /* \"#utility.yul\":11587:11609   */\n      add\n        /* \"#utility.yul\":11566:11619   */\n      tag_122\n      jump\t// in\n    tag_272:\n        /* \"#utility.yul\":11556:11619   */\n      swap2\n      pop\n        /* \"#utility.yul\":11511:11629   */\n      pop\n        /* \"#utility.yul\":11164:11636   */\n      swap3\n      pop\n      swap3\n      swap1\n      pop\n      jump\t// out\n        /* \"#utility.yul\":11642:12080   */\n    tag_61:\n        /* \"#utility.yul\":11789:11793   */\n      0x00\n        /* \"#utility.yul\":11827:11829   */\n      0x60\n        /* \"#utility.yul\":11816:11825   */\n      dup3\n        /* \"#utility.yul\":11812:11830   */\n      add\n        /* \"#utility.yul\":11804:11830   */\n      swap1\n      pop\n        /* \"#utility.yul\":11840:11911   */\n      tag_274\n        /* \"#utility.yul\":11908:11909   */\n      0x00\n        /* \"#utility.yul\":11897:11906   */\n      dup4\n        /* \"#utility.yul\":11893:11910   */\n      add\n        /* \"#utility.yul\":11884:11890   */\n      dup7\n        /* \"#utility.yul\":11840:11911   */\n      tag_141\n      jump\t// in\n    tag_274:\n        /* \"#utility.yul\":11921:11991   */\n      tag_275\n        /* \"#utility.yul\":11987:11989   */\n      0x20\n        /* \"#utility.yul\":11976:11985   */\n      dup4\n        /* \"#utility.yul\":11972:11990   */\n      add\n        /* \"#utility.yul\":11963:11969   */\n      dup6\n        /* \"#utility.yul\":11921:11991   */\n      tag_140\n      jump\t// in\n    tag_275:\n        /* \"#utility.yul\":12001:12073   */\n      tag_276\n        /* \"#utility.yul\":12069:12071   */\n      0x40\n        /* \"#utility.yul\":12058:12067   */\n      dup4\n        /* \"#utility.yul\":12054:12072   */\n      add\n        /* \"#utility.yul\":12045:12051   */\n      dup5\n        /* \"#utility.yul\":12001:12073   */\n      tag_143\n      jump\t// in\n    tag_276:\n        /* \"#utility.yul\":11642:12080   */\n      swap5\n      swap4\n      pop\n      pop\n      pop\n      pop\n      jump\t// out\n        /* \"#utility.yul\":12086:12627   */\n    tag_64:\n        /* \"#utility.yul\":12257:12261   */\n      0x00\n        /* \"#utility.yul\":12295:12298   */\n      0x80\n        /* \"#utility.yul\":12284:12293   */\n      dup3\n        /* \"#utility.yul\":12280:12299   */\n      add\n        /* \"#utility.yul\":12272:12299   */\n      swap1\n      pop\n        /* \"#utility.yul\":12309:12380   */\n      tag_278\n        /* \"#utility.yul\":12377:12378   */\n      0x00\n        /* \"#utility.yul\":12366:12375   */\n      dup4\n        /* \"#utility.yul\":12362:12379   */\n      add\n        /* \"#utility.yul\":12353:12359   */\n      dup8\n        /* \"#utility.yul\":12309:12380   */\n      tag_141\n      jump\t// in\n    tag_278:\n        /* \"#utility.yul\":12390:12462   */\n      tag_279\n        /* \"#utility.yul\":12458:12460   */\n      0x20\n        /* \"#utility.yul\":12447:12456   */\n      dup4\n        /* \"#utility.yul\":12443:12461   */\n      add\n        /* \"#utility.yul\":12434:12440   */\n      dup7\n        /* \"#utility.yul\":12390:12462   */\n      tag_141\n      jump\t// in\n    tag_279:\n        /* \"#utility.yul\":12472:12538   */\n      tag_280\n        /* \"#utility.yul\":12534:12536   */\n      0x40\n        /* \"#utility.yul\":12523:12532   */\n      dup4\n        /* \"#utility.yul\":12519:12537   */\n      add\n        /* \"#utility.yul\":12510:12516   */\n      dup6\n        /* \"#utility.yul\":12472:12538   */\n      tag_144\n      jump\t// in\n    tag_280:\n        /* \"#utility.yul\":12548:12620   */\n      tag_281\n        /* \"#utility.yul\":12616:12618   */\n      0x60\n        /* \"#utility.yul\":12605:12614   */\n      dup4\n        /* \"#utility.yul\":12601:12619   */\n      add\n        /* \"#utility.yul\":12592:12598   */\n      dup5\n        /* \"#utility.yul\":12548:12620   */\n      tag_143\n      jump\t// in\n    tag_281:\n        /* \"#utility.yul\":12086:12627   */\n      swap6\n      swap5\n      pop\n      pop\n      pop\n      pop\n      pop\n      jump\t// out\n        /* \"#utility.yul\":12633:12813   */\n    tag_145:\n        /* \"#utility.yul\":12681:12758   */\n      0x4e487b7100000000000000000000000000000000000000000000000000000000\n        /* \"#utility.yul\":12678:12679   */\n      0x00\n        /* \"#utility.yul\":12671:12759   */\n      mstore\n        /* \"#utility.yul\":12778:12782   */\n      0x11\n        /* \"#utility.yul\":12775:12776   */\n      0x04\n        /* \"#utility.yul\":12768:12783   */\n      mstore\n        /* \"#utility.yul\":12802:12806   */\n      0x24\n        /* \"#utility.yul\":12799:12800   */\n      0x00\n        /* \"#utility.yul\":12792:12807   */\n      revert\n        /* \"#utility.yul\":12819:13032   */\n    tag_66:\n        /* \"#utility.yul\":12858:12861   */\n      0x00\n        /* \"#utility.yul\":12877:12896   */\n      tag_284\n        /* \"#utility.yul\":12894:12895   */\n      dup3\n        /* \"#utility.yul\":12877:12896   */\n      tag_126\n      jump\t// in\n    tag_284:\n        /* \"#utility.yul\":12872:12896   */\n      swap2\n      pop\n        /* \"#utility.yul\":12910:12929   */\n      tag_285\n        /* \"#utility.yul\":12927:12928   */\n      dup4\n        /* \"#utility.yul\":12910:12929   */\n      tag_126\n      jump\t// in\n    tag_285:\n        /* \"#utility.yul\":12905:12929   */\n      swap3\n      pop\n        /* \"#utility.yul\":12952:12953   */\n      dup3\n        /* \"#utility.yul\":12949:12950   */\n      dup3\n        /* \"#utility.yul\":12945:12954   */\n      add\n        /* \"#utility.yul\":12938:12954   */\n      swap1\n      pop\n        /* \"#utility.yul\":12975:13001   */\n      0xffffffffffffffffffffffff\n        /* \"#utility.yul\":12970:12973   */\n      dup2\n        /* \"#utility.yul\":12967:13002   */\n      gt\n        /* \"#utility.yul\":12964:13025   */\n      iszero\n      tag_286\n      jumpi\n        /* \"#utility.yul\":13005:13023   */\n      tag_287\n      tag_145\n      jump\t// in\n    tag_287:\n        /* \"#utility.yul\":12964:13025   */\n    tag_286:\n        /* \"#utility.yul\":12819:13032   */\n      swap3\n      swap2\n      pop\n      pop\n      jump\t// out\n        /* \"#utility.yul\":13038:13207   */\n    tag_146:\n        /* \"#utility.yul\":13122:13133   */\n      0x00\n        /* \"#utility.yul\":13156:13162   */\n      dup3\n        /* \"#utility.yul\":13151:13154   */\n      dup3\n        /* \"#utility.yul\":13144:13163   */\n      mstore\n        /* \"#utility.yul\":13196:13200   */\n      0x20\n        /* \"#utility.yul\":13191:13194   */\n      dup3\n        /* \"#utility.yul\":13187:13201   */\n      add\n        /* \"#utility.yul\":13172:13201   */\n      swap1\n      pop\n        /* \"#utility.yul\":13038:13207   */\n      swap3\n      swap2\n      pop\n      pop\n      jump\t// out\n        /* \"#utility.yul\":13213:13390   */\n    tag_147:\n        /* \"#utility.yul\":13353:13382   */\n      0x4d757374206265205f656e644964203c3d2066756e64436f756e740000000000\n        /* \"#utility.yul\":13349:13350   */\n      0x00\n        /* \"#utility.yul\":13341:13347   */\n      dup3\n        /* \"#utility.yul\":13337:13351   */\n      add\n        /* \"#utility.yul\":13330:13383   */\n      mstore\n        /* \"#utility.yul\":13213:13390   */\n      pop\n      jump\t// out\n        /* \"#utility.yul\":13396:13762   */\n    tag_148:\n        /* \"#utility.yul\":13538:13541   */\n      0x00\n        /* \"#utility.yul\":13559:13626   */\n      tag_291\n        /* \"#utility.yul\":13623:13625   */\n      0x1b\n        /* \"#utility.yul\":13618:13621   */\n      dup4\n        /* \"#utility.yul\":13559:13626   */\n      tag_146\n      jump\t// in\n    tag_291:\n        /* \"#utility.yul\":13552:13626   */\n      swap2\n      pop\n        /* \"#utility.yul\":13635:13728   */\n      tag_292\n        /* \"#utility.yul\":13724:13727   */\n      dup3\n        /* \"#utility.yul\":13635:13728   */\n      tag_147\n      jump\t// in\n    tag_292:\n        /* \"#utility.yul\":13753:13755   */\n      0x20\n        /* \"#utility.yul\":13748:13751   */\n      dup3\n        /* \"#utility.yul\":13744:13756   */\n      add\n        /* \"#utility.yul\":13737:13756   */\n      swap1\n      pop\n        /* \"#utility.yul\":13396:13762   */\n      swap2\n      swap1\n      pop\n      jump\t// out\n        /* \"#utility.yul\":13768:14187   */\n    tag_72:\n        /* \"#utility.yul\":13934:13938   */\n      0x00\n        /* \"#utility.yul\":13972:13974   */\n      0x20\n        /* \"#utility.yul\":13961:13970   */\n      dup3\n        /* \"#utility.yul\":13957:13975   */\n      add\n        /* \"#utility.yul\":13949:13975   */\n      swap1\n      pop\n        /* \"#utility.yul\":14021:14030   */\n      dup2\n        /* \"#utility.yul\":14015:14019   */\n      dup2\n        /* \"#utility.yul\":14011:14031   */\n      sub\n        /* \"#utility.yul\":14007:14008   */\n      0x00\n        /* \"#utility.yul\":13996:14005   */\n      dup4\n        /* \"#utility.yul\":13992:14009   */\n      add\n        /* \"#utility.yul\":13985:14032   */\n      mstore\n        /* \"#utility.yul\":14049:14180   */\n      tag_294\n        /* \"#utility.yul\":14175:14179   */\n      dup2\n        /* \"#utility.yul\":14049:14180   */\n      tag_148\n      jump\t// in\n    tag_294:\n        /* \"#utility.yul\":14041:14180   */\n      swap1\n      pop\n        /* \"#utility.yul\":13768:14187   */\n      swap2\n      swap1\n      pop\n      jump\t// out\n        /* \"#utility.yul\":14193:14369   */\n    tag_149:\n        /* \"#utility.yul\":14333:14361   */\n      0x4d757374206265205f73746172744964203c3d205f656e644964000000000000\n        /* \"#utility.yul\":14329:14330   */\n      0x00\n        /* \"#utility.yul\":14321:14327   */\n      dup3\n        /* \"#utility.yul\":14317:14331   */\n      add\n        /* \"#utility.yul\":14310:14362   */\n      mstore\n        /* \"#utility.yul\":14193:14369   */\n      pop\n      jump\t// out\n        /* \"#utility.yul\":14375:14741   */\n    tag_150:\n        /* \"#utility.yul\":14517:14520   */\n      0x00\n        /* \"#utility.yul\":14538:14605   */\n      tag_297\n        /* \"#utility.yul\":14602:14604   */\n      0x1a\n        /* \"#utility.yul\":14597:14600   */\n      dup4\n        /* \"#utility.yul\":14538:14605   */\n      tag_146\n      jump\t// in\n    tag_297:\n        /* \"#utility.yul\":14531:14605   */\n      swap2\n      pop\n        /* \"#utility.yul\":14614:14707   */\n      tag_298\n        /* \"#utility.yul\":14703:14706   */\n      dup3\n        /* \"#utility.yul\":14614:14707   */\n      tag_149\n      jump\t// in\n    tag_298:\n        /* \"#utility.yul\":14732:14734   */\n      0x20\n        /* \"#utility.yul\":14727:14730   */\n      dup3\n        /* \"#utility.yul\":14723:14735   */\n      add\n        /* \"#utility.yul\":14716:14735   */\n      swap1\n      pop\n        /* \"#utility.yul\":14375:14741   */\n      swap2\n      swap1\n      pop\n      jump\t// out\n        /* \"#utility.yul\":14747:15166   */\n    tag_75:\n        /* \"#utility.yul\":14913:14917   */\n      0x00\n        /* \"#utility.yul\":14951:14953   */\n      0x20\n        /* \"#utility.yul\":14940:14949   */\n      dup3\n        /* \"#utility.yul\":14936:14954   */\n      add\n        /* \"#utility.yul\":14928:14954   */\n      swap1\n      pop\n        /* \"#utility.yul\":15000:15009   */\n      dup2\n        /* \"#utility.yul\":14994:14998   */\n      dup2\n        /* \"#utility.yul\":14990:15010   */\n      sub\n        /* \"#utility.yul\":14986:14987   */\n      0x00\n        /* \"#utility.yul\":14975:14984   */\n      dup4\n        /* \"#utility.yul\":14971:14988   */\n      add\n        /* \"#utility.yul\":14964:15011   */\n      mstore\n        /* \"#utility.yul\":15028:15159   */\n      tag_300\n        /* \"#utility.yul\":15154:15158   */\n      dup2\n        /* \"#utility.yul\":15028:15159   */\n      tag_150\n      jump\t// in\n    tag_300:\n        /* \"#utility.yul\":15020:15159   */\n      swap1\n      pop\n        /* \"#utility.yul\":14747:15166   */\n      swap2\n      swap1\n      pop\n      jump\t// out\n        /* \"#utility.yul\":15172:15388   */\n    tag_77:\n        /* \"#utility.yul\":15211:15215   */\n      0x00\n        /* \"#utility.yul\":15231:15250   */\n      tag_302\n        /* \"#utility.yul\":15248:15249   */\n      dup3\n        /* \"#utility.yul\":15231:15250   */\n      tag_126\n      jump\t// in\n    tag_302:\n        /* \"#utility.yul\":15226:15250   */\n      swap2\n      pop\n        /* \"#utility.yul\":15264:15283   */\n      tag_303\n        /* \"#utility.yul\":15281:15282   */\n      dup4\n        /* \"#utility.yul\":15264:15283   */\n      tag_126\n      jump\t// in\n    tag_303:\n        /* \"#utility.yul\":15259:15283   */\n      swap3\n      pop\n        /* \"#utility.yul\":15307:15308   */\n      dup3\n        /* \"#utility.yul\":15304:15305   */\n      dup3\n        /* \"#utility.yul\":15300:15309   */\n      sub\n        /* \"#utility.yul\":15292:15309   */\n      swap1\n      pop\n        /* \"#utility.yul\":15331:15357   */\n      0xffffffffffffffffffffffff\n        /* \"#utility.yul\":15325:15329   */\n      dup2\n        /* \"#utility.yul\":15322:15358   */\n      gt\n        /* \"#utility.yul\":15319:15381   */\n      iszero\n      tag_304\n      jumpi\n        /* \"#utility.yul\":15361:15379   */\n      tag_305\n      tag_145\n      jump\t// in\n    tag_305:\n        /* \"#utility.yul\":15319:15381   */\n    tag_304:\n        /* \"#utility.yul\":15172:15388   */\n      swap3\n      swap2\n      pop\n      pop\n      jump\t// out\n        /* \"#utility.yul\":15394:15574   */\n    tag_80:\n        /* \"#utility.yul\":15442:15519   */\n      0x4e487b7100000000000000000000000000000000000000000000000000000000\n        /* \"#utility.yul\":15439:15440   */\n      0x00\n        /* \"#utility.yul\":15432:15520   */\n      mstore\n        /* \"#utility.yul\":15539:15543   */\n      0x41\n        /* \"#utility.yul\":15536:15537   */\n      0x04\n        /* \"#utility.yul\":15529:15544   */\n      mstore\n        /* \"#utility.yul\":15563:15567   */\n      0x24\n        /* \"#utility.yul\":15560:15561   */\n      0x00\n        /* \"#utility.yul\":15553:15568   */\n      revert\n        /* \"#utility.yul\":15580:15760   */\n    tag_91:\n        /* \"#utility.yul\":15628:15705   */\n      0x4e487b7100000000000000000000000000000000000000000000000000000000\n        /* \"#utility.yul\":15625:15626   */\n      0x00\n        /* \"#utility.yul\":15618:15706   */\n      mstore\n        /* \"#utility.yul\":15725:15729   */\n      0x32\n        /* \"#utility.yul\":15722:15723   */\n      0x04\n        /* \"#utility.yul\":15715:15730   */\n      mstore\n        /* \"#utility.yul\":15749:15753   */\n      0x24\n        /* \"#utility.yul\":15746:15747   */\n      0x00\n        /* \"#utility.yul\":15739:15754   */\n      revert\n        /* \"#utility.yul\":15766:15957   */\n    tag_93:\n        /* \"#utility.yul\":15804:15807   */\n      0x00\n        /* \"#utility.yul\":15827:15850   */\n      tag_309\n        /* \"#utility.yul\":15844:15849   */\n      dup3\n        /* \"#utility.yul\":15827:15850   */\n      tag_126\n      jump\t// in\n    tag_309:\n        /* \"#utility.yul\":15818:15850   */\n      swap2\n      pop\n        /* \"#utility.yul\":15872:15898   */\n      0xffffffffffffffffffffffff\n        /* \"#utility.yul\":15865:15870   */\n      dup3\n        /* \"#utility.yul\":15862:15899   */\n      sub\n        /* \"#utility.yul\":15859:15922   */\n      tag_310\n      jumpi\n        /* \"#utility.yul\":15902:15920   */\n      tag_311\n      tag_145\n      jump\t// in\n    tag_311:\n        /* \"#utility.yul\":15859:15922   */\n    tag_310:\n        /* \"#utility.yul\":15949:15950   */\n      0x01\n        /* \"#utility.yul\":15942:15947   */\n      dup3\n        /* \"#utility.yul\":15938:15951   */\n      add\n        /* \"#utility.yul\":15931:15951   */\n      swap1\n      pop\n        /* \"#utility.yul\":15766:15957   */\n      swap2\n      swap1\n      pop\n      jump\t// out\n        /* \"#utility.yul\":15963:16136   */\n    tag_151:\n        /* \"#utility.yul\":16103:16128   */\n      0x4d757374206265205f6964203c2066756e64436f756e74000000000000000000\n        /* \"#utility.yul\":16099:16100   */\n      0x00\n        /* \"#utility.yul\":16091:16097   */\n      dup3\n        /* \"#utility.yul\":16087:16101   */\n      add\n        /* \"#utility.yul\":16080:16129   */\n      mstore\n        /* \"#utility.yul\":15963:16136   */\n      pop\n      jump\t// out\n        /* \"#utility.yul\":16142:16508   */\n    tag_152:\n        /* \"#utility.yul\":16284:16287   */\n      0x00\n        /* \"#utility.yul\":16305:16372   */\n      tag_314\n        /* \"#utility.yul\":16369:16371   */\n      0x17\n        /* \"#utility.yul\":16364:16367   */\n      dup4\n        /* \"#utility.yul\":16305:16372   */\n      tag_146\n      jump\t// in\n    tag_314:\n        /* \"#utility.yul\":16298:16372   */\n      swap2\n      pop\n        /* \"#utility.yul\":16381:16474   */\n      tag_315\n        /* \"#utility.yul\":16470:16473   */\n      dup3\n        /* \"#utility.yul\":16381:16474   */\n      tag_151\n      jump\t// in\n    tag_315:\n        /* \"#utility.yul\":16499:16501   */\n      0x20\n        /* \"#utility.yul\":16494:16497   */\n      dup3\n        /* \"#utility.yul\":16490:16502   */\n      add\n        /* \"#utility.yul\":16483:16502   */\n      swap1\n      pop\n        /* \"#utility.yul\":16142:16508   */\n      swap2\n      swap1\n      pop\n      jump\t// out\n        /* \"#utility.yul\":16514:16933   */\n    tag_97:\n        /* \"#utility.yul\":16680:16684   */\n      0x00\n        /* \"#utility.yul\":16718:16720   */\n      0x20\n        /* \"#utility.yul\":16707:16716   */\n      dup3\n        /* \"#utility.yul\":16703:16721   */\n      add\n        /* \"#utility.yul\":16695:16721   */\n      swap1\n      pop\n        /* \"#utility.yul\":16767:16776   */\n      dup2\n        /* \"#utility.yul\":16761:16765   */\n      dup2\n        /* \"#utility.yul\":16757:16777   */\n      sub\n        /* \"#utility.yul\":16753:16754   */\n      0x00\n        /* \"#utility.yul\":16742:16751   */\n      dup4\n        /* \"#utility.yul\":16738:16755   */\n      add\n        /* \"#utility.yul\":16731:16778   */\n      mstore\n        /* \"#utility.yul\":16795:16926   */\n      tag_317\n        /* \"#utility.yul\":16921:16925   */\n      dup2\n        /* \"#utility.yul\":16795:16926   */\n      tag_152\n      jump\t// in\n    tag_317:\n        /* \"#utility.yul\":16787:16926   */\n      swap1\n      pop\n        /* \"#utility.yul\":16514:16933   */\n      swap2\n      swap1\n      pop\n      jump\t// out\n        /* \"#utility.yul\":16939:17115   */\n    tag_153:\n        /* \"#utility.yul\":17079:17107   */\n      0x46756e6420557064617465206e6f7420617574686f72697a6564000000000000\n        /* \"#utility.yul\":17075:17076   */\n      0x00\n        /* \"#utility.yul\":17067:17073   */\n      dup3\n        /* \"#utility.yul\":17063:17077   */\n      add\n        /* \"#utility.yul\":17056:17108   */\n      mstore\n        /* \"#utility.yul\":16939:17115   */\n      pop\n      jump\t// out\n        /* \"#utility.yul\":17121:17487   */\n    tag_154:\n        /* \"#utility.yul\":17263:17266   */\n      0x00\n        /* \"#utility.yul\":17284:17351   */\n      tag_320\n        /* \"#utility.yul\":17348:17350   */\n      0x1a\n        /* \"#utility.yul\":17343:17346   */\n      dup4\n        /* \"#utility.yul\":17284:17351   */\n      tag_146\n      jump\t// in\n    tag_320:\n        /* \"#utility.yul\":17277:17351   */\n      swap2\n      pop\n        /* \"#utility.yul\":17360:17453   */\n      tag_321\n        /* \"#utility.yul\":17449:17452   */\n      dup3\n        /* \"#utility.yul\":17360:17453   */\n      tag_153\n      jump\t// in\n    tag_321:\n        /* \"#utility.yul\":17478:17480   */\n      0x20\n        /* \"#utility.yul\":17473:17476   */\n      dup3\n        /* \"#utility.yul\":17469:17481   */\n      add\n        /* \"#utility.yul\":17462:17481   */\n      swap1\n      pop\n        /* \"#utility.yul\":17121:17487   */\n      swap2\n      swap1\n      pop\n      jump\t// out\n        /* \"#utility.yul\":17493:17912   */\n    tag_106:\n        /* \"#utility.yul\":17659:17663   */\n      0x00\n        /* \"#utility.yul\":17697:17699   */\n      0x20\n        /* \"#utility.yul\":17686:17695   */\n      dup3\n        /* \"#utility.yul\":17682:17700   */\n      add\n        /* \"#utility.yul\":17674:17700   */\n      swap1\n      pop\n        /* \"#utility.yul\":17746:17755   */\n      dup2\n        /* \"#utility.yul\":17740:17744   */\n      dup2\n        /* \"#utility.yul\":17736:17756   */\n      sub\n        /* \"#utility.yul\":17732:17733   */\n      0x00\n        /* \"#utility.yul\":17721:17730   */\n      dup4\n        /* \"#utility.yul\":17717:17734   */\n      add\n        /* \"#utility.yul\":17710:17757   */\n      mstore\n        /* \"#utility.yul\":17774:17905   */\n      tag_323\n        /* \"#utility.yul\":17900:17904   */\n      dup2\n        /* \"#utility.yul\":17774:17905   */\n      tag_154\n      jump\t// in\n    tag_323:\n        /* \"#utility.yul\":17766:17905   */\n      swap1\n      pop\n        /* \"#utility.yul\":17493:17912   */\n      swap2\n      swap1\n      pop\n      jump\t// out\n\n    auxdata: 0xa26469706673582212206a216edbb660c7434ff5461fb5a50ec570ece26ae0c2948bd5904bde72f86eb564736f6c63430008120033\n}\n",
				"bytecode": {
					"linkReferences": {},
					"object": "608060405234801561001057600080fd5b50611a9b806100206000396000f3fe6080604052600436106100865760003560e01c80633f936ff5116100595780633f936ff5146101605780636c173d381461018b57806388b53ced146101c8578063dd7d7929146101e4578063f4ddec1e1461020d57610086565b8063174446261461008b5780631c69b464146100b45780631f71f89f146100df578063380eaaf914610123575b600080fd5b34801561009757600080fd5b506100b260048036038101906100ad919061120d565b61024c565b005b3480156100c057600080fd5b506100c9610520565b6040516100d69190611433565b60405180910390f35b3480156100eb57600080fd5b5061010660048036038101906101019190611481565b61054b565b60405161011a9897969594939291906114f9565b60405180910390f35b34801561012f57600080fd5b5061014a60048036038101906101459190611577565b61061c565b6040516101579190611433565b60405180910390f35b34801561016c57600080fd5b50610175610990565b60405161018291906115b7565b60405180910390f35b34801561019757600080fd5b506101b260048036038101906101ad9190611481565b6109ac565b6040516101bf91906115d2565b60405180910390f35b6101e260048036038101906101dd91906115ed565b610a7f565b005b3480156101f057600080fd5b5061020b60048036038101906102069190611640565b610a9e565b005b34801561021957600080fd5b50610234600480360381019061022f91906116a7565b610f30565b604051610243939291906116e7565b60405180910390f35b60008060009054906101000a90046bffffffffffffffffffffffff169050604051806101000160405280826bffffffffffffffffffffffff1681526020018573ffffffffffffffffffffffffffffffffffffffff1681526020014265ffffffffffff1681526020014265ffffffffffff1681526020018473ffffffffffffffffffffffffffffffffffffffff168152602001838152602001600081526020016000151581525060016000836bffffffffffffffffffffffff166bffffffffffffffffffffffff16815260200190815260200160002060008201518160000160006101000a8154816bffffffffffffffffffffffff02191690836bffffffffffffffffffffffff160217905550602082015181600001600c6101000a81548173ffffffffffffffffffffffffffffffffffffffff021916908373ffffffffffffffffffffffffffffffffffffffff16021790555060408201518160010160006101000a81548165ffffffffffff021916908365ffffffffffff16021790555060608201518160010160066101000a81548165ffffffffffff021916908365ffffffffffff160217905550608082015181600101600c6101000a81548173ffffffffffffffffffffffffffffffffffffffff021916908373ffffffffffffffffffffffffffffffffffffffff16021790555060a0820151816002015560c0820151816003015560e08201518160040160006101000a81548160ff021916908315150217905550905050600082826bffffffffffffffffffffffff167f1e216cc18d3e93f7c7b9a7b3a038093bc655d3d5cbfbb504d67d4376bd02d13f87876000426040516104bb949392919061171e565b60405180910390a460016000808282829054906101000a90046bffffffffffffffffffffffff166104ec9190611792565b92506101000a8154816bffffffffffffffffffffffff02191690836bffffffffffffffffffffffff16021790555050505050565b606061054660008060009054906101000a90046bffffffffffffffffffffffff1661061c565b905090565b60016020528060005260406000206000915090508060000160009054906101000a90046bffffffffffffffffffffffff169080600001600c9054906101000a900473ffffffffffffffffffffffffffffffffffffffff16908060010160009054906101000a900465ffffffffffff16908060010160069054906101000a900465ffffffffffff169080600101600c9054906101000a900473ffffffffffffffffffffffffffffffffffffffff16908060020154908060030154908060040160009054906101000a900460ff16905088565b606060008054906101000a90046bffffffffffffffffffffffff166bffffffffffffffffffffffff16826bffffffffffffffffffffffff161115610695576040517f08c379a000000000000000000000000000000000000000000000000000000000815260040161068c9061182f565b60405180910390fd5b816bffffffffffffffffffffffff16836bffffffffffffffffffffffff1611156106f4576040517f08c379a00000000000000000000000000000000000000000000000000000000081526004016106eb9061189b565b60405180910390fd5b6000838361070291906118bb565b6bffffffffffffffffffffffff1667ffffffffffffffff811115610729576107286118fb565b5b60405190808252806020026020018201604052801561076257816020015b61074f6110e3565b8152602001906001900390816107475790505b50905060008490505b836bffffffffffffffffffffffff16816bffffffffffffffffffffffff1610156109855760016000826bffffffffffffffffffffffff166bffffffffffffffffffffffff168152602001908152602001600020604051806101000160405290816000820160009054906101000a90046bffffffffffffffffffffffff166bffffffffffffffffffffffff166bffffffffffffffffffffffff16815260200160008201600c9054906101000a900473ffffffffffffffffffffffffffffffffffffffff1673ffffffffffffffffffffffffffffffffffffffff1673ffffffffffffffffffffffffffffffffffffffff1681526020016001820160009054906101000a900465ffffffffffff1665ffffffffffff1665ffffffffffff1681526020016001820160069054906101000a900465ffffffffffff1665ffffffffffff1665ffffffffffff16815260200160018201600c9054906101000a900473ffffffffffffffffffffffffffffffffffffffff1673ffffffffffffffffffffffffffffffffffffffff1673ffffffffffffffffffffffffffffffffffffffff16815260200160028201548152602001600382015481526020016004820160009054906101000a900460ff16151515158152505082868361094891906118bb565b6bffffffffffffffffffffffff16815181106109675761096661192a565b5b6020026020010181905250808061097d90611959565b91505061076b565b508091505092915050565b60008054906101000a90046bffffffffffffffffffffffff1681565b60008060009054906101000a90046bffffffffffffffffffffffff166bffffffffffffffffffffffff16826bffffffffffffffffffffffff1610610a25576040517f08c379a0000000000000000000000000000000000000000000000000000000008152600401610a1c906119d9565b60405180910390fd5b60016000836bffffffffffffffffffffffff166bffffffffffffffffffffffff168152602001908152602001600020600101600c9054906101000a900473ffffffffffffffffffffffffffffffffffffffff169050919050565b610a8a838383610faf565b6000610a9683836110db565b905050505050565b600060016000866bffffffffffffffffffffffff166bffffffffffffffffffffffff168152602001908152602001600020604051806101000160405290816000820160009054906101000a90046bffffffffffffffffffffffff166bffffffffffffffffffffffff166bffffffffffffffffffffffff16815260200160008201600c9054906101000a900473ffffffffffffffffffffffffffffffffffffffff1673ffffffffffffffffffffffffffffffffffffffff1673ffffffffffffffffffffffffffffffffffffffff1681526020016001820160009054906101000a900465ffffffffffff1665ffffffffffff1665ffffffffffff1681526020016001820160069054906101000a900465ffffffffffff1665ffffffffffff1665ffffffffffff16815260200160018201600c9054906101000a900473ffffffffffffffffffffffffffffffffffffffff1673ffffffffffffffffffffffffffffffffffffffff1673ffffffffffffffffffffffffffffffffffffffff16815260200160028201548152602001600382015481526020016004820160009054906101000a900460ff1615151515815250509050806020015173ffffffffffffffffffffffffffffffffffffffff163373ffffffffffffffffffffffffffffffffffffffff1614610cc0576040517f08c379a0000000000000000000000000000000000000000000000000000000008152600401610cb790611a45565b60405180910390fd5b604051806101000160405280866bffffffffffffffffffffffff1681526020018573ffffffffffffffffffffffffffffffffffffffff168152602001826040015165ffffffffffff1681526020014265ffffffffffff1681526020018473ffffffffffffffffffffffffffffffffffffffff1681526020018381526020018260c0015181526020018260e00151151581525060016000876bffffffffffffffffffffffff166bffffffffffffffffffffffff16815260200190815260200160002060008201518160000160006101000a8154816bffffffffffffffffffffffff02191690836bffffffffffffffffffffffff160217905550602082015181600001600c6101000a81548173ffffffffffffffffffffffffffffffffffffffff021916908373ffffffffffffffffffffffffffffffffffffffff16021790555060408201518160010160006101000a81548165ffffffffffff021916908365ffffffffffff16021790555060608201518160010160066101000a81548165ffffffffffff021916908365ffffffffffff160217905550608082015181600101600c6101000a81548173ffffffffffffffffffffffffffffffffffffffff021916908373ffffffffffffffffffffffffffffffffffffffff16021790555060a0820151816002015560c0820151816003015560e08201518160040160006101000a81548160ff0219169083151502179055509050508060c0015182866bffffffffffffffffffffffff167f603e97a48f8cadd1e9020bf96470c32853c5d9d8ed30f7cbe961f12ad2a45fa087878660e0015142604051610f21949392919061171e565b60405180910390a45050505050565b60026020528160005260406000208181548110610f4c57600080fd5b9060005260206000209060020201600091509150508060000160009054906101000a900473ffffffffffffffffffffffffffffffffffffffff16908060000160149054906101000a90046bffffffffffffffffffffffff16908060010154905083565b600060405180606001604052808573ffffffffffffffffffffffffffffffffffffffff168152602001846bffffffffffffffffffffffff16815260200183815250905060026000846bffffffffffffffffffffffff166bffffffffffffffffffffffff16815260200190815260200160002081908060018154018082558091505060019003906000526020600020906002020160009091909190915060008201518160000160006101000a81548173ffffffffffffffffffffffffffffffffffffffff021916908373ffffffffffffffffffffffffffffffffffffffff16021790555060208201518160000160146101000a8154816bffffffffffffffffffffffff02191690836bffffffffffffffffffffffff16021790555060408201518160010155505050505050565b606092915050565b60405180610100016040528060006bffffffffffffffffffffffff168152602001600073ffffffffffffffffffffffffffffffffffffffff168152602001600065ffffffffffff168152602001600065ffffffffffff168152602001600073ffffffffffffffffffffffffffffffffffffffff16815260200160008152602001600081526020016000151581525090565b600080fd5b600073ffffffffffffffffffffffffffffffffffffffff82169050919050565b60006111a482611179565b9050919050565b6111b481611199565b81146111bf57600080fd5b50565b6000813590506111d1816111ab565b92915050565b6000819050919050565b6111ea816111d7565b81146111f557600080fd5b50565b600081359050611207816111e1565b92915050565b60008060006060848603121561122657611225611174565b5b6000611234868287016111c2565b9350506020611245868287016111c2565b9250506040611256868287016111f8565b9150509250925092565b600081519050919050565b600082825260208201905092915050565b6000819050602082019050919050565b60006bffffffffffffffffffffffff82169050919050565b6112ad8161128c565b82525050565b6112bc81611199565b82525050565b600065ffffffffffff82169050919050565b6112dd816112c2565b82525050565b6112ec816111d7565b82525050565b60008115159050919050565b611307816112f2565b82525050565b6101008201600082015161132460008501826112a4565b50602082015161133760208501826112b3565b50604082015161134a60408501826112d4565b50606082015161135d60608501826112d4565b50608082015161137060808501826112b3565b5060a082015161138360a08501826112e3565b5060c082015161139660c08501826112e3565b5060e08201516113a960e08501826112fe565b50505050565b60006113bb838361130d565b6101008301905092915050565b6000602082019050919050565b60006113e082611260565b6113ea818561126b565b93506113f58361127c565b8060005b8381101561142657815161140d88826113af565b9750611418836113c8565b9250506001810190506113f9565b5085935050505092915050565b6000602082019050818103600083015261144d81846113d5565b905092915050565b61145e8161128c565b811461146957600080fd5b50565b60008135905061147b81611455565b92915050565b60006020828403121561149757611496611174565b5b60006114a58482850161146c565b91505092915050565b6114b78161128c565b82525050565b6114c681611199565b82525050565b6114d5816112c2565b82525050565b6114e4816111d7565b82525050565b6114f3816112f2565b82525050565b60006101008201905061150f600083018b6114ae565b61151c602083018a6114bd565b61152960408301896114cc565b61153660608301886114cc565b61154360808301876114bd565b61155060a08301866114db565b61155d60c08301856114db565b61156a60e08301846114ea565b9998505050505050505050565b6000806040838503121561158e5761158d611174565b5b600061159c8582860161146c565b92505060206115ad8582860161146c565b9150509250929050565b60006020820190506115cc60008301846114ae565b92915050565b60006020820190506115e760008301846114bd565b92915050565b60008060006060848603121561160657611605611174565b5b6000611614868287016111c2565b93505060206116258682870161146c565b9250506040611636868287016111f8565b9150509250925092565b6000806000806080858703121561165a57611659611174565b5b60006116688782880161146c565b9450506020611679878288016111c2565b935050604061168a878288016111c2565b925050606061169b878288016111f8565b91505092959194509250565b600080604083850312156116be576116bd611174565b5b60006116cc8582860161146c565b92505060206116dd858286016111f8565b9150509250929050565b60006060820190506116fc60008301866114bd565b61170960208301856114ae565b61171660408301846114db565b949350505050565b600060808201905061173360008301876114bd565b61174060208301866114bd565b61174d60408301856114ea565b61175a60608301846114db565b95945050505050565b7f4e487b7100000000000000000000000000000000000000000000000000000000600052601160045260246000fd5b600061179d8261128c565b91506117a88361128c565b925082820190506bffffffffffffffffffffffff8111156117cc576117cb611763565b5b92915050565b600082825260208201905092915050565b7f4d757374206265205f656e644964203c3d2066756e64436f756e740000000000600082015250565b6000611819601b836117d2565b9150611824826117e3565b602082019050919050565b600060208201905081810360008301526118488161180c565b9050919050565b7f4d757374206265205f73746172744964203c3d205f656e644964000000000000600082015250565b6000611885601a836117d2565b91506118908261184f565b602082019050919050565b600060208201905081810360008301526118b481611878565b9050919050565b60006118c68261128c565b91506118d18361128c565b925082820390506bffffffffffffffffffffffff8111156118f5576118f4611763565b5b92915050565b7f4e487b7100000000000000000000000000000000000000000000000000000000600052604160045260246000fd5b7f4e487b7100000000000000000000000000000000000000000000000000000000600052603260045260246000fd5b60006119648261128c565b91506bffffffffffffffffffffffff820361198257611981611763565b5b600182019050919050565b7f4d757374206265205f6964203c2066756e64436f756e74000000000000000000600082015250565b60006119c36017836117d2565b91506119ce8261198d565b602082019050919050565b600060208201905081810360008301526119f2816119b6565b9050919050565b7f46756e6420557064617465206e6f7420617574686f72697a6564000000000000600082015250565b6000611a2f601a836117d2565b9150611a3a826119f9565b602082019050919050565b60006020820190508181036000830152611a5e81611a22565b905091905056fea26469706673582212206a216edbb660c7434ff5461fb5a50ec570ece26ae0c2948bd5904bde72f86eb564736f6c63430008120033",
					"opcodes": "PUSH1 0x80 PUSH1 0x40 MSTORE CALLVALUE DUP1 ISZERO PUSH2 0x10 JUMPI PUSH1 0x0 DUP1 REVERT JUMPDEST POP PUSH2 0x1A9B DUP1 PUSH2 0x20 PUSH1 0x0 CODECOPY PUSH1 0x0 RETURN INVALID PUSH1 0x80 PUSH1 0x40 MSTORE PUSH1 0x4 CALLDATASIZE LT PUSH2 0x86 JUMPI PUSH1 0x0 CALLDATALOAD PUSH1 0xE0 SHR DUP1 PUSH4 0x3F936FF5 GT PUSH2 0x59 JUMPI DUP1 PUSH4 0x3F936FF5 EQ PUSH2 0x160 JUMPI DUP1 PUSH4 0x6C173D38 EQ PUSH2 0x18B JUMPI DUP1 PUSH4 0x88B53CED EQ PUSH2 0x1C8 JUMPI DUP1 PUSH4 0xDD7D7929 EQ PUSH2 0x1E4 JUMPI DUP1 PUSH4 0xF4DDEC1E EQ PUSH2 0x20D JUMPI PUSH2 0x86 JUMP JUMPDEST DUP1 PUSH4 0x17444626 EQ PUSH2 0x8B JUMPI DUP1 PUSH4 0x1C69B464 EQ PUSH2 0xB4 JUMPI DUP1 PUSH4 0x1F71F89F EQ PUSH2 0xDF JUMPI DUP1 PUSH4 0x380EAAF9 EQ PUSH2 0x123 JUMPI JUMPDEST PUSH1 0x0 DUP1 REVERT JUMPDEST CALLVALUE DUP1 ISZERO PUSH2 0x97 JUMPI PUSH1 0x0 DUP1 REVERT JUMPDEST POP PUSH2 0xB2 PUSH1 0x4 DUP1 CALLDATASIZE SUB DUP2 ADD SWAP1 PUSH2 0xAD SWAP2 SWAP1 PUSH2 0x120D JUMP JUMPDEST PUSH2 0x24C JUMP JUMPDEST STOP JUMPDEST CALLVALUE DUP1 ISZERO PUSH2 0xC0 JUMPI PUSH1 0x0 DUP1 REVERT JUMPDEST POP PUSH2 0xC9 PUSH2 0x520 JUMP JUMPDEST PUSH1 0x40 MLOAD PUSH2 0xD6 SWAP2 SWAP1 PUSH2 0x1433 JUMP JUMPDEST PUSH1 0x40 MLOAD DUP1 SWAP2 SUB SWAP1 RETURN JUMPDEST CALLVALUE DUP1 ISZERO PUSH2 0xEB JUMPI PUSH1 0x0 DUP1 REVERT JUMPDEST POP PUSH2 0x106 PUSH1 0x4 DUP1 CALLDATASIZE SUB DUP2 ADD SWAP1 PUSH2 0x101 SWAP2 SWAP1 PUSH2 0x1481 JUMP JUMPDEST PUSH2 0x54B JUMP JUMPDEST PUSH1 0x40 MLOAD PUSH2 0x11A SWAP9 SWAP8 SWAP7 SWAP6 SWAP5 SWAP4 SWAP3 SWAP2 SWAP1 PUSH2 0x14F9 JUMP JUMPDEST PUSH1 0x40 MLOAD DUP1 SWAP2 SUB SWAP1 RETURN JUMPDEST CALLVALUE DUP1 ISZERO PUSH2 0x12F JUMPI PUSH1 0x0 DUP1 REVERT JUMPDEST POP PUSH2 0x14A PUSH1 0x4 DUP1 CALLDATASIZE SUB DUP2 ADD SWAP1 PUSH2 0x145 SWAP2 SWAP1 PUSH2 0x1577 JUMP JUMPDEST PUSH2 0x61C JUMP JUMPDEST PUSH1 0x40 MLOAD PUSH2 0x157 SWAP2 SWAP1 PUSH2 0x1433 JUMP JUMPDEST PUSH1 0x40 MLOAD DUP1 SWAP2 SUB SWAP1 RETURN JUMPDEST CALLVALUE DUP1 ISZERO PUSH2 0x16C JUMPI PUSH1 0x0 DUP1 REVERT JUMPDEST POP PUSH2 0x175 PUSH2 0x990 JUMP JUMPDEST PUSH1 0x40 MLOAD PUSH2 0x182 SWAP2 SWAP1 PUSH2 0x15B7 JUMP JUMPDEST PUSH1 0x40 MLOAD DUP1 SWAP2 SUB SWAP1 RETURN JUMPDEST CALLVALUE DUP1 ISZERO PUSH2 0x197 JUMPI PUSH1 0x0 DUP1 REVERT JUMPDEST POP PUSH2 0x1B2 PUSH1 0x4 DUP1 CALLDATASIZE SUB DUP2 ADD SWAP1 PUSH2 0x1AD SWAP2 SWAP1 PUSH2 0x1481 JUMP JUMPDEST PUSH2 0x9AC JUMP JUMPDEST PUSH1 0x40 MLOAD PUSH2 0x1BF SWAP2 SWAP1 PUSH2 0x15D2 JUMP JUMPDEST PUSH1 0x40 MLOAD DUP1 SWAP2 SUB SWAP1 RETURN JUMPDEST PUSH2 0x1E2 PUSH1 0x4 DUP1 CALLDATASIZE SUB DUP2 ADD SWAP1 PUSH2 0x1DD SWAP2 SWAP1 PUSH2 0x15ED JUMP JUMPDEST PUSH2 0xA7F JUMP JUMPDEST STOP JUMPDEST CALLVALUE DUP1 ISZERO PUSH2 0x1F0 JUMPI PUSH1 0x0 DUP1 REVERT JUMPDEST POP PUSH2 0x20B PUSH1 0x4 DUP1 CALLDATASIZE SUB DUP2 ADD SWAP1 PUSH2 0x206 SWAP2 SWAP1 PUSH2 0x1640 JUMP JUMPDEST PUSH2 0xA9E JUMP JUMPDEST STOP JUMPDEST CALLVALUE DUP1 ISZERO PUSH2 0x219 JUMPI PUSH1 0x0 DUP1 REVERT JUMPDEST POP PUSH2 0x234 PUSH1 0x4 DUP1 CALLDATASIZE SUB DUP2 ADD SWAP1 PUSH2 0x22F SWAP2 SWAP1 PUSH2 0x16A7 JUMP JUMPDEST PUSH2 0xF30 JUMP JUMPDEST PUSH1 0x40 MLOAD PUSH2 0x243 SWAP4 SWAP3 SWAP2 SWAP1 PUSH2 0x16E7 JUMP JUMPDEST PUSH1 0x40 MLOAD DUP1 SWAP2 SUB SWAP1 RETURN JUMPDEST PUSH1 0x0 DUP1 PUSH1 0x0 SWAP1 SLOAD SWAP1 PUSH2 0x100 EXP SWAP1 DIV PUSH12 0xFFFFFFFFFFFFFFFFFFFFFFFF AND SWAP1 POP PUSH1 0x40 MLOAD DUP1 PUSH2 0x100 ADD PUSH1 0x40 MSTORE DUP1 DUP3 PUSH12 0xFFFFFFFFFFFFFFFFFFFFFFFF AND DUP2 MSTORE PUSH1 0x20 ADD DUP6 PUSH20 0xFFFFFFFFFFFFFFFFFFFFFFFFFFFFFFFFFFFFFFFF AND DUP2 MSTORE PUSH1 0x20 ADD TIMESTAMP PUSH6 0xFFFFFFFFFFFF AND DUP2 MSTORE PUSH1 0x20 ADD TIMESTAMP PUSH6 0xFFFFFFFFFFFF AND DUP2 MSTORE PUSH1 0x20 ADD DUP5 PUSH20 0xFFFFFFFFFFFFFFFFFFFFFFFFFFFFFFFFFFFFFFFF AND DUP2 MSTORE PUSH1 0x20 ADD DUP4 DUP2 MSTORE PUSH1 0x20 ADD PUSH1 0x0 DUP2 MSTORE PUSH1 0x20 ADD PUSH1 0x0 ISZERO ISZERO DUP2 MSTORE POP PUSH1 0x1 PUSH1 0x0 DUP4 PUSH12 0xFFFFFFFFFFFFFFFFFFFFFFFF AND PUSH12 0xFFFFFFFFFFFFFFFFFFFFFFFF AND DUP2 MSTORE PUSH1 0x20 ADD SWAP1 DUP2 MSTORE PUSH1 0x20 ADD PUSH1 0x0 KECCAK256 PUSH1 0x0 DUP3 ADD MLOAD DUP2 PUSH1 0x0 ADD PUSH1 0x0 PUSH2 0x100 EXP DUP2 SLOAD DUP2 PUSH12 0xFFFFFFFFFFFFFFFFFFFFFFFF MUL NOT AND SWAP1 DUP4 PUSH12 0xFFFFFFFFFFFFFFFFFFFFFFFF AND MUL OR SWAP1 SSTORE POP PUSH1 0x20 DUP3 ADD MLOAD DUP2 PUSH1 0x0 ADD PUSH1 0xC PUSH2 0x100 EXP DUP2 SLOAD DUP2 PUSH20 0xFFFFFFFFFFFFFFFFFFFFFFFFFFFFFFFFFFFFFFFF MUL NOT AND SWAP1 DUP4 PUSH20 0xFFFFFFFFFFFFFFFFFFFFFFFFFFFFFFFFFFFFFFFF AND MUL OR SWAP1 SSTORE POP PUSH1 0x40 DUP3 ADD MLOAD DUP2 PUSH1 0x1 ADD PUSH1 0x0 PUSH2 0x100 EXP DUP2 SLOAD DUP2 PUSH6 0xFFFFFFFFFFFF MUL NOT AND SWAP1 DUP4 PUSH6 0xFFFFFFFFFFFF AND MUL OR SWAP1 SSTORE POP PUSH1 0x60 DUP3 ADD MLOAD DUP2 PUSH1 0x1 ADD PUSH1 0x6 PUSH2 0x100 EXP DUP2 SLOAD DUP2 PUSH6 0xFFFFFFFFFFFF MUL NOT AND SWAP1 DUP4 PUSH6 0xFFFFFFFFFFFF AND MUL OR SWAP1 SSTORE POP PUSH1 0x80 DUP3 ADD MLOAD DUP2 PUSH1 0x1 ADD PUSH1 0xC PUSH2 0x100 EXP DUP2 SLOAD DUP2 PUSH20 0xFFFFFFFFFFFFFFFFFFFFFFFFFFFFFFFFFFFFFFFF MUL NOT AND SWAP1 DUP4 PUSH20 0xFFFFFFFFFFFFFFFFFFFFFFFFFFFFFFFFFFFFFFFF AND MUL OR SWAP1 SSTORE POP PUSH1 0xA0 DUP3 ADD MLOAD DUP2 PUSH1 0x2 ADD SSTORE PUSH1 0xC0 DUP3 ADD MLOAD DUP2 PUSH1 0x3 ADD SSTORE PUSH1 0xE0 DUP3 ADD MLOAD DUP2 PUSH1 0x4 ADD PUSH1 0x0 PUSH2 0x100 EXP DUP2 SLOAD DUP2 PUSH1 0xFF MUL NOT AND SWAP1 DUP4 ISZERO ISZERO MUL OR SWAP1 SSTORE POP SWAP1 POP POP PUSH1 0x0 DUP3 DUP3 PUSH12 0xFFFFFFFFFFFFFFFFFFFFFFFF AND PUSH32 0x1E216CC18D3E93F7C7B9A7B3A038093BC655D3D5CBFBB504D67D4376BD02D13F DUP8 DUP8 PUSH1 0x0 TIMESTAMP PUSH1 0x40 MLOAD PUSH2 0x4BB SWAP5 SWAP4 SWAP3 SWAP2 SWAP1 PUSH2 0x171E JUMP JUMPDEST PUSH1 0x40 MLOAD DUP1 SWAP2 SUB SWAP1 LOG4 PUSH1 0x1 PUSH1 0x0 DUP1 DUP3 DUP3 DUP3 SWAP1 SLOAD SWAP1 PUSH2 0x100 EXP SWAP1 DIV PUSH12 0xFFFFFFFFFFFFFFFFFFFFFFFF AND PUSH2 0x4EC SWAP2 SWAP1 PUSH2 0x1792 JUMP JUMPDEST SWAP3 POP PUSH2 0x100 EXP DUP2 SLOAD DUP2 PUSH12 0xFFFFFFFFFFFFFFFFFFFFFFFF MUL NOT AND SWAP1 DUP4 PUSH12 0xFFFFFFFFFFFFFFFFFFFFFFFF AND MUL OR SWAP1 SSTORE POP POP POP POP POP JUMP JUMPDEST PUSH1 0x60 PUSH2 0x546 PUSH1 0x0 DUP1 PUSH1 0x0 SWAP1 SLOAD SWAP1 PUSH2 0x100 EXP SWAP1 DIV PUSH12 0xFFFFFFFFFFFFFFFFFFFFFFFF AND PUSH2 0x61C JUMP JUMPDEST SWAP1 POP SWAP1 JUMP JUMPDEST PUSH1 0x1 PUSH1 0x20 MSTORE DUP1 PUSH1 0x0 MSTORE PUSH1 0x40 PUSH1 0x0 KECCAK256 PUSH1 0x0 SWAP2 POP SWAP1 POP DUP1 PUSH1 0x0 ADD PUSH1 0x0 SWAP1 SLOAD SWAP1 PUSH2 0x100 EXP SWAP1 DIV PUSH12 0xFFFFFFFFFFFFFFFFFFFFFFFF AND SWAP1 DUP1 PUSH1 0x0 ADD PUSH1 0xC SWAP1 SLOAD SWAP1 PUSH2 0x100 EXP SWAP1 DIV PUSH20 0xFFFFFFFFFFFFFFFFFFFFFFFFFFFFFFFFFFFFFFFF AND SWAP1 DUP1 PUSH1 0x1 ADD PUSH1 0x0 SWAP1 SLOAD SWAP1 PUSH2 0x100 EXP SWAP1 DIV PUSH6 0xFFFFFFFFFFFF AND SWAP1 DUP1 PUSH1 0x1 ADD PUSH1 0x6 SWAP1 SLOAD SWAP1 PUSH2 0x100 EXP SWAP1 DIV PUSH6 0xFFFFFFFFFFFF AND SWAP1 DUP1 PUSH1 0x1 ADD PUSH1 0xC SWAP1 SLOAD SWAP1 PUSH2 0x100 EXP SWAP1 DIV PUSH20 0xFFFFFFFFFFFFFFFFFFFFFFFFFFFFFFFFFFFFFFFF AND SWAP1 DUP1 PUSH1 0x2 ADD SLOAD SWAP1 DUP1 PUSH1 0x3 ADD SLOAD SWAP1 DUP1 PUSH1 0x4 ADD PUSH1 0x0 SWAP1 SLOAD SWAP1 PUSH2 0x100 EXP SWAP1 DIV PUSH1 0xFF AND SWAP1 POP DUP9 JUMP JUMPDEST PUSH1 0x60 PUSH1 0x0 DUP1 SLOAD SWAP1 PUSH2 0x100 EXP SWAP1 DIV PUSH12 0xFFFFFFFFFFFFFFFFFFFFFFFF AND PUSH12 0xFFFFFFFFFFFFFFFFFFFFFFFF AND DUP3 PUSH12 0xFFFFFFFFFFFFFFFFFFFFFFFF AND GT ISZERO PUSH2 0x695 JUMPI PUSH1 0x40 MLOAD PUSH32 0x8C379A000000000000000000000000000000000000000000000000000000000 DUP2 MSTORE PUSH1 0x4 ADD PUSH2 0x68C SWAP1 PUSH2 0x182F JUMP JUMPDEST PUSH1 0x40 MLOAD DUP1 SWAP2 SUB SWAP1 REVERT JUMPDEST DUP2 PUSH12 0xFFFFFFFFFFFFFFFFFFFFFFFF AND DUP4 PUSH12 0xFFFFFFFFFFFFFFFFFFFFFFFF AND GT ISZERO PUSH2 0x6F4 JUMPI PUSH1 0x40 MLOAD PUSH32 0x8C379A000000000000000000000000000000000000000000000000000000000 DUP2 MSTORE PUSH1 0x4 ADD PUSH2 0x6EB SWAP1 PUSH2 0x189B JUMP JUMPDEST PUSH1 0x40 MLOAD DUP1 SWAP2 SUB SWAP1 REVERT JUMPDEST PUSH1 0x0 DUP4 DUP4 PUSH2 0x702 SWAP2 SWAP1 PUSH2 0x18BB JUMP JUMPDEST PUSH12 0xFFFFFFFFFFFFFFFFFFFFFFFF AND PUSH8 0xFFFFFFFFFFFFFFFF DUP2 GT ISZERO PUSH2 0x729 JUMPI PUSH2 0x728 PUSH2 0x18FB JUMP JUMPDEST JUMPDEST PUSH1 0x40 MLOAD SWAP1 DUP1 DUP3 MSTORE DUP1 PUSH1 0x20 MUL PUSH1 0x20 ADD DUP3 ADD PUSH1 0x40 MSTORE DUP1 ISZERO PUSH2 0x762 JUMPI DUP2 PUSH1 0x20 ADD JUMPDEST PUSH2 0x74F PUSH2 0x10E3 JUMP JUMPDEST DUP2 MSTORE PUSH1 0x20 ADD SWAP1 PUSH1 0x1 SWAP1 SUB SWAP1 DUP2 PUSH2 0x747 JUMPI SWAP1 POP JUMPDEST POP SWAP1 POP PUSH1 0x0 DUP5 SWAP1 POP JUMPDEST DUP4 PUSH12 0xFFFFFFFFFFFFFFFFFFFFFFFF AND DUP2 PUSH12 0xFFFFFFFFFFFFFFFFFFFFFFFF AND LT ISZERO PUSH2 0x985 JUMPI PUSH1 0x1 PUSH1 0x0 DUP3 PUSH12 0xFFFFFFFFFFFFFFFFFFFFFFFF AND PUSH12 0xFFFFFFFFFFFFFFFFFFFFFFFF AND DUP2 MSTORE PUSH1 0x20 ADD SWAP1 DUP2 MSTORE PUSH1 0x20 ADD PUSH1 0x0 KECCAK256 PUSH1 0x40 MLOAD DUP1 PUSH2 0x100 ADD PUSH1 0x40 MSTORE SWAP1 DUP2 PUSH1 0x0 DUP3 ADD PUSH1 0x0 SWAP1 SLOAD SWAP1 PUSH2 0x100 EXP SWAP1 DIV PUSH12 0xFFFFFFFFFFFFFFFFFFFFFFFF AND PUSH12 0xFFFFFFFFFFFFFFFFFFFFFFFF AND PUSH12 0xFFFFFFFFFFFFFFFFFFFFFFFF AND DUP2 MSTORE PUSH1 0x20 ADD PUSH1 0x0 DUP3 ADD PUSH1 0xC SWAP1 SLOAD SWAP1 PUSH2 0x100 EXP SWAP1 DIV PUSH20 0xFFFFFFFFFFFFFFFFFFFFFFFFFFFFFFFFFFFFFFFF AND PUSH20 0xFFFFFFFFFFFFFFFFFFFFFFFFFFFFFFFFFFFFFFFF AND PUSH20 0xFFFFFFFFFFFFFFFFFFFFFFFFFFFFFFFFFFFFFFFF AND DUP2 MSTORE PUSH1 0x20 ADD PUSH1 0x1 DUP3 ADD PUSH1 0x0 SWAP1 SLOAD SWAP1 PUSH2 0x100 EXP SWAP1 DIV PUSH6 0xFFFFFFFFFFFF AND PUSH6 0xFFFFFFFFFFFF AND PUSH6 0xFFFFFFFFFFFF AND DUP2 MSTORE PUSH1 0x20 ADD PUSH1 0x1 DUP3 ADD PUSH1 0x6 SWAP1 SLOAD SWAP1 PUSH2 0x100 EXP SWAP1 DIV PUSH6 0xFFFFFFFFFFFF AND PUSH6 0xFFFFFFFFFFFF AND PUSH6 0xFFFFFFFFFFFF AND DUP2 MSTORE PUSH1 0x20 ADD PUSH1 0x1 DUP3 ADD PUSH1 0xC SWAP1 SLOAD SWAP1 PUSH2 0x100 EXP SWAP1 DIV PUSH20 0xFFFFFFFFFFFFFFFFFFFFFFFFFFFFFFFFFFFFFFFF AND PUSH20 0xFFFFFFFFFFFFFFFFFFFFFFFFFFFFFFFFFFFFFFFF AND PUSH20 0xFFFFFFFFFFFFFFFFFFFFFFFFFFFFFFFFFFFFFFFF AND DUP2 MSTORE PUSH1 0x20 ADD PUSH1 0x2 DUP3 ADD SLOAD DUP2 MSTORE PUSH1 0x20 ADD PUSH1 0x3 DUP3 ADD SLOAD DUP2 MSTORE PUSH1 0x20 ADD PUSH1 0x4 DUP3 ADD PUSH1 0x0 SWAP1 SLOAD SWAP1 PUSH2 0x100 EXP SWAP1 DIV PUSH1 0xFF AND ISZERO ISZERO ISZERO ISZERO DUP2 MSTORE POP POP DUP3 DUP7 DUP4 PUSH2 0x948 SWAP2 SWAP1 PUSH2 0x18BB JUMP JUMPDEST PUSH12 0xFFFFFFFFFFFFFFFFFFFFFFFF AND DUP2 MLOAD DUP2 LT PUSH2 0x967 JUMPI PUSH2 0x966 PUSH2 0x192A JUMP JUMPDEST JUMPDEST PUSH1 0x20 MUL PUSH1 0x20 ADD ADD DUP2 SWAP1 MSTORE POP DUP1 DUP1 PUSH2 0x97D SWAP1 PUSH2 0x1959 JUMP JUMPDEST SWAP2 POP POP PUSH2 0x76B JUMP JUMPDEST POP DUP1 SWAP2 POP POP SWAP3 SWAP2 POP POP JUMP JUMPDEST PUSH1 0x0 DUP1 SLOAD SWAP1 PUSH2 0x100 EXP SWAP1 DIV PUSH12 0xFFFFFFFFFFFFFFFFFFFFFFFF AND DUP2 JUMP JUMPDEST PUSH1 0x0 DUP1 PUSH1 0x0 SWAP1 SLOAD SWAP1 PUSH2 0x100 EXP SWAP1 DIV PUSH12 0xFFFFFFFFFFFFFFFFFFFFFFFF AND PUSH12 0xFFFFFFFFFFFFFFFFFFFFFFFF AND DUP3 PUSH12 0xFFFFFFFFFFFFFFFFFFFFFFFF AND LT PUSH2 0xA25 JUMPI PUSH1 0x40 MLOAD PUSH32 0x8C379A000000000000000000000000000000000000000000000000000000000 DUP2 MSTORE PUSH1 0x4 ADD PUSH2 0xA1C SWAP1 PUSH2 0x19D9 JUMP JUMPDEST PUSH1 0x40 MLOAD DUP1 SWAP2 SUB SWAP1 REVERT JUMPDEST PUSH1 0x1 PUSH1 0x0 DUP4 PUSH12 0xFFFFFFFFFFFFFFFFFFFFFFFF AND PUSH12 0xFFFFFFFFFFFFFFFFFFFFFFFF AND DUP2 MSTORE PUSH1 0x20 ADD SWAP1 DUP2 MSTORE PUSH1 0x20 ADD PUSH1 0x0 KECCAK256 PUSH1 0x1 ADD PUSH1 0xC SWAP1 SLOAD SWAP1 PUSH2 0x100 EXP SWAP1 DIV PUSH20 0xFFFFFFFFFFFFFFFFFFFFFFFFFFFFFFFFFFFFFFFF AND SWAP1 POP SWAP2 SWAP1 POP JUMP JUMPDEST PUSH2 0xA8A DUP4 DUP4 DUP4 PUSH2 0xFAF JUMP JUMPDEST PUSH1 0x0 PUSH2 0xA96 DUP4 DUP4 PUSH2 0x10DB JUMP JUMPDEST SWAP1 POP POP POP POP POP JUMP JUMPDEST PUSH1 0x0 PUSH1 0x1 PUSH1 0x0 DUP7 PUSH12 0xFFFFFFFFFFFFFFFFFFFFFFFF AND PUSH12 0xFFFFFFFFFFFFFFFFFFFFFFFF AND DUP2 MSTORE PUSH1 0x20 ADD SWAP1 DUP2 MSTORE PUSH1 0x20 ADD PUSH1 0x0 KECCAK256 PUSH1 0x40 MLOAD DUP1 PUSH2 0x100 ADD PUSH1 0x40 MSTORE SWAP1 DUP2 PUSH1 0x0 DUP3 ADD PUSH1 0x0 SWAP1 SLOAD SWAP1 PUSH2 0x100 EXP SWAP1 DIV PUSH12 0xFFFFFFFFFFFFFFFFFFFFFFFF AND PUSH12 0xFFFFFFFFFFFFFFFFFFFFFFFF AND PUSH12 0xFFFFFFFFFFFFFFFFFFFFFFFF AND DUP2 MSTORE PUSH1 0x20 ADD PUSH1 0x0 DUP3 ADD PUSH1 0xC SWAP1 SLOAD SWAP1 PUSH2 0x100 EXP SWAP1 DIV PUSH20 0xFFFFFFFFFFFFFFFFFFFFFFFFFFFFFFFFFFFFFFFF AND PUSH20 0xFFFFFFFFFFFFFFFFFFFFFFFFFFFFFFFFFFFFFFFF AND PUSH20 0xFFFFFFFFFFFFFFFFFFFFFFFFFFFFFFFFFFFFFFFF AND DUP2 MSTORE PUSH1 0x20 ADD PUSH1 0x1 DUP3 ADD PUSH1 0x0 SWAP1 SLOAD SWAP1 PUSH2 0x100 EXP SWAP1 DIV PUSH6 0xFFFFFFFFFFFF AND PUSH6 0xFFFFFFFFFFFF AND PUSH6 0xFFFFFFFFFFFF AND DUP2 MSTORE PUSH1 0x20 ADD PUSH1 0x1 DUP3 ADD PUSH1 0x6 SWAP1 SLOAD SWAP1 PUSH2 0x100 EXP SWAP1 DIV PUSH6 0xFFFFFFFFFFFF AND PUSH6 0xFFFFFFFFFFFF AND PUSH6 0xFFFFFFFFFFFF AND DUP2 MSTORE PUSH1 0x20 ADD PUSH1 0x1 DUP3 ADD PUSH1 0xC SWAP1 SLOAD SWAP1 PUSH2 0x100 EXP SWAP1 DIV PUSH20 0xFFFFFFFFFFFFFFFFFFFFFFFFFFFFFFFFFFFFFFFF AND PUSH20 0xFFFFFFFFFFFFFFFFFFFFFFFFFFFFFFFFFFFFFFFF AND PUSH20 0xFFFFFFFFFFFFFFFFFFFFFFFFFFFFFFFFFFFFFFFF AND DUP2 MSTORE PUSH1 0x20 ADD PUSH1 0x2 DUP3 ADD SLOAD DUP2 MSTORE PUSH1 0x20 ADD PUSH1 0x3 DUP3 ADD SLOAD DUP2 MSTORE PUSH1 0x20 ADD PUSH1 0x4 DUP3 ADD PUSH1 0x0 SWAP1 SLOAD SWAP1 PUSH2 0x100 EXP SWAP1 DIV PUSH1 0xFF AND ISZERO ISZERO ISZERO ISZERO DUP2 MSTORE POP POP SWAP1 POP DUP1 PUSH1 0x20 ADD MLOAD PUSH20 0xFFFFFFFFFFFFFFFFFFFFFFFFFFFFFFFFFFFFFFFF AND CALLER PUSH20 0xFFFFFFFFFFFFFFFFFFFFFFFFFFFFFFFFFFFFFFFF AND EQ PUSH2 0xCC0 JUMPI PUSH1 0x40 MLOAD PUSH32 0x8C379A000000000000000000000000000000000000000000000000000000000 DUP2 MSTORE PUSH1 0x4 ADD PUSH2 0xCB7 SWAP1 PUSH2 0x1A45 JUMP JUMPDEST PUSH1 0x40 MLOAD DUP1 SWAP2 SUB SWAP1 REVERT JUMPDEST PUSH1 0x40 MLOAD DUP1 PUSH2 0x100 ADD PUSH1 0x40 MSTORE DUP1 DUP7 PUSH12 0xFFFFFFFFFFFFFFFFFFFFFFFF AND DUP2 MSTORE PUSH1 0x20 ADD DUP6 PUSH20 0xFFFFFFFFFFFFFFFFFFFFFFFFFFFFFFFFFFFFFFFF AND DUP2 MSTORE PUSH1 0x20 ADD DUP3 PUSH1 0x40 ADD MLOAD PUSH6 0xFFFFFFFFFFFF AND DUP2 MSTORE PUSH1 0x20 ADD TIMESTAMP PUSH6 0xFFFFFFFFFFFF AND DUP2 MSTORE PUSH1 0x20 ADD DUP5 PUSH20 0xFFFFFFFFFFFFFFFFFFFFFFFFFFFFFFFFFFFFFFFF AND DUP2 MSTORE PUSH1 0x20 ADD DUP4 DUP2 MSTORE PUSH1 0x20 ADD DUP3 PUSH1 0xC0 ADD MLOAD DUP2 MSTORE PUSH1 0x20 ADD DUP3 PUSH1 0xE0 ADD MLOAD ISZERO ISZERO DUP2 MSTORE POP PUSH1 0x1 PUSH1 0x0 DUP8 PUSH12 0xFFFFFFFFFFFFFFFFFFFFFFFF AND PUSH12 0xFFFFFFFFFFFFFFFFFFFFFFFF AND DUP2 MSTORE PUSH1 0x20 ADD SWAP1 DUP2 MSTORE PUSH1 0x20 ADD PUSH1 0x0 KECCAK256 PUSH1 0x0 DUP3 ADD MLOAD DUP2 PUSH1 0x0 ADD PUSH1 0x0 PUSH2 0x100 EXP DUP2 SLOAD DUP2 PUSH12 0xFFFFFFFFFFFFFFFFFFFFFFFF MUL NOT AND SWAP1 DUP4 PUSH12 0xFFFFFFFFFFFFFFFFFFFFFFFF AND MUL OR SWAP1 SSTORE POP PUSH1 0x20 DUP3 ADD MLOAD DUP2 PUSH1 0x0 ADD PUSH1 0xC PUSH2 0x100 EXP DUP2 SLOAD DUP2 PUSH20 0xFFFFFFFFFFFFFFFFFFFFFFFFFFFFFFFFFFFFFFFF MUL NOT AND SWAP1 DUP4 PUSH20 0xFFFFFFFFFFFFFFFFFFFFFFFFFFFFFFFFFFFFFFFF AND MUL OR SWAP1 SSTORE POP PUSH1 0x40 DUP3 ADD MLOAD DUP2 PUSH1 0x1 ADD PUSH1 0x0 PUSH2 0x100 EXP DUP2 SLOAD DUP2 PUSH6 0xFFFFFFFFFFFF MUL NOT AND SWAP1 DUP4 PUSH6 0xFFFFFFFFFFFF AND MUL OR SWAP1 SSTORE POP PUSH1 0x60 DUP3 ADD MLOAD DUP2 PUSH1 0x1 ADD PUSH1 0x6 PUSH2 0x100 EXP DUP2 SLOAD DUP2 PUSH6 0xFFFFFFFFFFFF MUL NOT AND SWAP1 DUP4 PUSH6 0xFFFFFFFFFFFF AND MUL OR SWAP1 SSTORE POP PUSH1 0x80 DUP3 ADD MLOAD DUP2 PUSH1 0x1 ADD PUSH1 0xC PUSH2 0x100 EXP DUP2 SLOAD DUP2 PUSH20 0xFFFFFFFFFFFFFFFFFFFFFFFFFFFFFFFFFFFFFFFF MUL NOT AND SWAP1 DUP4 PUSH20 0xFFFFFFFFFFFFFFFFFFFFFFFFFFFFFFFFFFFFFFFF AND MUL OR SWAP1 SSTORE POP PUSH1 0xA0 DUP3 ADD MLOAD DUP2 PUSH1 0x2 ADD SSTORE PUSH1 0xC0 DUP3 ADD MLOAD DUP2 PUSH1 0x3 ADD SSTORE PUSH1 0xE0 DUP3 ADD MLOAD DUP2 PUSH1 0x4 ADD PUSH1 0x0 PUSH2 0x100 EXP DUP2 SLOAD DUP2 PUSH1 0xFF MUL NOT AND SWAP1 DUP4 ISZERO ISZERO MUL OR SWAP1 SSTORE POP SWAP1 POP POP DUP1 PUSH1 0xC0 ADD MLOAD DUP3 DUP7 PUSH12 0xFFFFFFFFFFFFFFFFFFFFFFFF AND PUSH32 0x603E97A48F8CADD1E9020BF96470C32853C5D9D8ED30F7CBE961F12AD2A45FA0 DUP8 DUP8 DUP7 PUSH1 0xE0 ADD MLOAD TIMESTAMP PUSH1 0x40 MLOAD PUSH2 0xF21 SWAP5 SWAP4 SWAP3 SWAP2 SWAP1 PUSH2 0x171E JUMP JUMPDEST PUSH1 0x40 MLOAD DUP1 SWAP2 SUB SWAP1 LOG4 POP POP POP POP POP JUMP JUMPDEST PUSH1 0x2 PUSH1 0x20 MSTORE DUP2 PUSH1 0x0 MSTORE PUSH1 0x40 PUSH1 0x0 KECCAK256 DUP2 DUP2 SLOAD DUP2 LT PUSH2 0xF4C JUMPI PUSH1 0x0 DUP1 REVERT JUMPDEST SWAP1 PUSH1 0x0 MSTORE PUSH1 0x20 PUSH1 0x0 KECCAK256 SWAP1 PUSH1 0x2 MUL ADD PUSH1 0x0 SWAP2 POP SWAP2 POP POP DUP1 PUSH1 0x0 ADD PUSH1 0x0 SWAP1 SLOAD SWAP1 PUSH2 0x100 EXP SWAP1 DIV PUSH20 0xFFFFFFFFFFFFFFFFFFFFFFFFFFFFFFFFFFFFFFFF AND SWAP1 DUP1 PUSH1 0x0 ADD PUSH1 0x14 SWAP1 SLOAD SWAP1 PUSH2 0x100 EXP SWAP1 DIV PUSH12 0xFFFFFFFFFFFFFFFFFFFFFFFF AND SWAP1 DUP1 PUSH1 0x1 ADD SLOAD SWAP1 POP DUP4 JUMP JUMPDEST PUSH1 0x0 PUSH1 0x40 MLOAD DUP1 PUSH1 0x60 ADD PUSH1 0x40 MSTORE DUP1 DUP6 PUSH20 0xFFFFFFFFFFFFFFFFFFFFFFFFFFFFFFFFFFFFFFFF AND DUP2 MSTORE PUSH1 0x20 ADD DUP5 PUSH12 0xFFFFFFFFFFFFFFFFFFFFFFFF AND DUP2 MSTORE PUSH1 0x20 ADD DUP4 DUP2 MSTORE POP SWAP1 POP PUSH1 0x2 PUSH1 0x0 DUP5 PUSH12 0xFFFFFFFFFFFFFFFFFFFFFFFF AND PUSH12 0xFFFFFFFFFFFFFFFFFFFFFFFF AND DUP2 MSTORE PUSH1 0x20 ADD SWAP1 DUP2 MSTORE PUSH1 0x20 ADD PUSH1 0x0 KECCAK256 DUP2 SWAP1 DUP1 PUSH1 0x1 DUP2 SLOAD ADD DUP1 DUP3 SSTORE DUP1 SWAP2 POP POP PUSH1 0x1 SWAP1 SUB SWAP1 PUSH1 0x0 MSTORE PUSH1 0x20 PUSH1 0x0 KECCAK256 SWAP1 PUSH1 0x2 MUL ADD PUSH1 0x0 SWAP1 SWAP2 SWAP1 SWAP2 SWAP1 SWAP2 POP PUSH1 0x0 DUP3 ADD MLOAD DUP2 PUSH1 0x0 ADD PUSH1 0x0 PUSH2 0x100 EXP DUP2 SLOAD DUP2 PUSH20 0xFFFFFFFFFFFFFFFFFFFFFFFFFFFFFFFFFFFFFFFF MUL NOT AND SWAP1 DUP4 PUSH20 0xFFFFFFFFFFFFFFFFFFFFFFFFFFFFFFFFFFFFFFFF AND MUL OR SWAP1 SSTORE POP PUSH1 0x20 DUP3 ADD MLOAD DUP2 PUSH1 0x0 ADD PUSH1 0x14 PUSH2 0x100 EXP DUP2 SLOAD DUP2 PUSH12 0xFFFFFFFFFFFFFFFFFFFFFFFF MUL NOT AND SWAP1 DUP4 PUSH12 0xFFFFFFFFFFFFFFFFFFFFFFFF AND MUL OR SWAP1 SSTORE POP PUSH1 0x40 DUP3 ADD MLOAD DUP2 PUSH1 0x1 ADD SSTORE POP POP POP POP POP POP JUMP JUMPDEST PUSH1 0x60 SWAP3 SWAP2 POP POP JUMP JUMPDEST PUSH1 0x40 MLOAD DUP1 PUSH2 0x100 ADD PUSH1 0x40 MSTORE DUP1 PUSH1 0x0 PUSH12 0xFFFFFFFFFFFFFFFFFFFFFFFF AND DUP2 MSTORE PUSH1 0x20 ADD PUSH1 0x0 PUSH20 0xFFFFFFFFFFFFFFFFFFFFFFFFFFFFFFFFFFFFFFFF AND DUP2 MSTORE PUSH1 0x20 ADD PUSH1 0x0 PUSH6 0xFFFFFFFFFFFF AND DUP2 MSTORE PUSH1 0x20 ADD PUSH1 0x0 PUSH6 0xFFFFFFFFFFFF AND DUP2 MSTORE PUSH1 0x20 ADD PUSH1 0x0 PUSH20 0xFFFFFFFFFFFFFFFFFFFFFFFFFFFFFFFFFFFFFFFF AND DUP2 MSTORE PUSH1 0x20 ADD PUSH1 0x0 DUP2 MSTORE PUSH1 0x20 ADD PUSH1 0x0 DUP2 MSTORE PUSH1 0x20 ADD PUSH1 0x0 ISZERO ISZERO DUP2 MSTORE POP SWAP1 JUMP JUMPDEST PUSH1 0x0 DUP1 REVERT JUMPDEST PUSH1 0x0 PUSH20 0xFFFFFFFFFFFFFFFFFFFFFFFFFFFFFFFFFFFFFFFF DUP3 AND SWAP1 POP SWAP2 SWAP1 POP JUMP JUMPDEST PUSH1 0x0 PUSH2 0x11A4 DUP3 PUSH2 0x1179 JUMP JUMPDEST SWAP1 POP SWAP2 SWAP1 POP JUMP JUMPDEST PUSH2 0x11B4 DUP2 PUSH2 0x1199 JUMP JUMPDEST DUP2 EQ PUSH2 0x11BF JUMPI PUSH1 0x0 DUP1 REVERT JUMPDEST POP JUMP JUMPDEST PUSH1 0x0 DUP2 CALLDATALOAD SWAP1 POP PUSH2 0x11D1 DUP2 PUSH2 0x11AB JUMP JUMPDEST SWAP3 SWAP2 POP POP JUMP JUMPDEST PUSH1 0x0 DUP2 SWAP1 POP SWAP2 SWAP1 POP JUMP JUMPDEST PUSH2 0x11EA DUP2 PUSH2 0x11D7 JUMP JUMPDEST DUP2 EQ PUSH2 0x11F5 JUMPI PUSH1 0x0 DUP1 REVERT JUMPDEST POP JUMP JUMPDEST PUSH1 0x0 DUP2 CALLDATALOAD SWAP1 POP PUSH2 0x1207 DUP2 PUSH2 0x11E1 JUMP JUMPDEST SWAP3 SWAP2 POP POP JUMP JUMPDEST PUSH1 0x0 DUP1 PUSH1 0x0 PUSH1 0x60 DUP5 DUP7 SUB SLT ISZERO PUSH2 0x1226 JUMPI PUSH2 0x1225 PUSH2 0x1174 JUMP JUMPDEST JUMPDEST PUSH1 0x0 PUSH2 0x1234 DUP7 DUP3 DUP8 ADD PUSH2 0x11C2 JUMP JUMPDEST SWAP4 POP POP PUSH1 0x20 PUSH2 0x1245 DUP7 DUP3 DUP8 ADD PUSH2 0x11C2 JUMP JUMPDEST SWAP3 POP POP PUSH1 0x40 PUSH2 0x1256 DUP7 DUP3 DUP8 ADD PUSH2 0x11F8 JUMP JUMPDEST SWAP2 POP POP SWAP3 POP SWAP3 POP SWAP3 JUMP JUMPDEST PUSH1 0x0 DUP2 MLOAD SWAP1 POP SWAP2 SWAP1 POP JUMP JUMPDEST PUSH1 0x0 DUP3 DUP3 MSTORE PUSH1 0x20 DUP3 ADD SWAP1 POP SWAP3 SWAP2 POP POP JUMP JUMPDEST PUSH1 0x0 DUP2 SWAP1 POP PUSH1 0x20 DUP3 ADD SWAP1 POP SWAP2 SWAP1 POP JUMP JUMPDEST PUSH1 0x0 PUSH12 0xFFFFFFFFFFFFFFFFFFFFFFFF DUP3 AND SWAP1 POP SWAP2 SWAP1 POP JUMP JUMPDEST PUSH2 0x12AD DUP2 PUSH2 0x128C JUMP JUMPDEST DUP3 MSTORE POP POP JUMP JUMPDEST PUSH2 0x12BC DUP2 PUSH2 0x1199 JUMP JUMPDEST DUP3 MSTORE POP POP JUMP JUMPDEST PUSH1 0x0 PUSH6 0xFFFFFFFFFFFF DUP3 AND SWAP1 POP SWAP2 SWAP1 POP JUMP JUMPDEST PUSH2 0x12DD DUP2 PUSH2 0x12C2 JUMP JUMPDEST DUP3 MSTORE POP POP JUMP JUMPDEST PUSH2 0x12EC DUP2 PUSH2 0x11D7 JUMP JUMPDEST DUP3 MSTORE POP POP JUMP JUMPDEST PUSH1 0x0 DUP2 ISZERO ISZERO SWAP1 POP SWAP2 SWAP1 POP JUMP JUMPDEST PUSH2 0x1307 DUP2 PUSH2 0x12F2 JUMP JUMPDEST DUP3 MSTORE POP POP JUMP JUMPDEST PUSH2 0x100 DUP3 ADD PUSH1 0x0 DUP3 ADD MLOAD PUSH2 0x1324 PUSH1 0x0 DUP6 ADD DUP3 PUSH2 0x12A4 JUMP JUMPDEST POP PUSH1 0x20 DUP3 ADD MLOAD PUSH2 0x1337 PUSH1 0x20 DUP6 ADD DUP3 PUSH2 0x12B3 JUMP JUMPDEST POP PUSH1 0x40 DUP3 ADD MLOAD PUSH2 0x134A PUSH1 0x40 DUP6 ADD DUP3 PUSH2 0x12D4 JUMP JUMPDEST POP PUSH1 0x60 DUP3 ADD MLOAD PUSH2 0x135D PUSH1 0x60 DUP6 ADD DUP3 PUSH2 0x12D4 JUMP JUMPDEST POP PUSH1 0x80 DUP3 ADD MLOAD PUSH2 0x1370 PUSH1 0x80 DUP6 ADD DUP3 PUSH2 0x12B3 JUMP JUMPDEST POP PUSH1 0xA0 DUP3 ADD MLOAD PUSH2 0x1383 PUSH1 0xA0 DUP6 ADD DUP3 PUSH2 0x12E3 JUMP JUMPDEST POP PUSH1 0xC0 DUP3 ADD MLOAD PUSH2 0x1396 PUSH1 0xC0 DUP6 ADD DUP3 PUSH2 0x12E3 JUMP JUMPDEST POP PUSH1 0xE0 DUP3 ADD MLOAD PUSH2 0x13A9 PUSH1 0xE0 DUP6 ADD DUP3 PUSH2 0x12FE JUMP JUMPDEST POP POP POP POP JUMP JUMPDEST PUSH1 0x0 PUSH2 0x13BB DUP4 DUP4 PUSH2 0x130D JUMP JUMPDEST PUSH2 0x100 DUP4 ADD SWAP1 POP SWAP3 SWAP2 POP POP JUMP JUMPDEST PUSH1 0x0 PUSH1 0x20 DUP3 ADD SWAP1 POP SWAP2 SWAP1 POP JUMP JUMPDEST PUSH1 0x0 PUSH2 0x13E0 DUP3 PUSH2 0x1260 JUMP JUMPDEST PUSH2 0x13EA DUP2 DUP6 PUSH2 0x126B JUMP JUMPDEST SWAP4 POP PUSH2 0x13F5 DUP4 PUSH2 0x127C JUMP JUMPDEST DUP1 PUSH1 0x0 JUMPDEST DUP4 DUP2 LT ISZERO PUSH2 0x1426 JUMPI DUP2 MLOAD PUSH2 0x140D DUP9 DUP3 PUSH2 0x13AF JUMP JUMPDEST SWAP8 POP PUSH2 0x1418 DUP4 PUSH2 0x13C8 JUMP JUMPDEST SWAP3 POP POP PUSH1 0x1 DUP2 ADD SWAP1 POP PUSH2 0x13F9 JUMP JUMPDEST POP DUP6 SWAP4 POP POP POP POP SWAP3 SWAP2 POP POP JUMP JUMPDEST PUSH1 0x0 PUSH1 0x20 DUP3 ADD SWAP1 POP DUP2 DUP2 SUB PUSH1 0x0 DUP4 ADD MSTORE PUSH2 0x144D DUP2 DUP5 PUSH2 0x13D5 JUMP JUMPDEST SWAP1 POP SWAP3 SWAP2 POP POP JUMP JUMPDEST PUSH2 0x145E DUP2 PUSH2 0x128C JUMP JUMPDEST DUP2 EQ PUSH2 0x1469 JUMPI PUSH1 0x0 DUP1 REVERT JUMPDEST POP JUMP JUMPDEST PUSH1 0x0 DUP2 CALLDATALOAD SWAP1 POP PUSH2 0x147B DUP2 PUSH2 0x1455 JUMP JUMPDEST SWAP3 SWAP2 POP POP JUMP JUMPDEST PUSH1 0x0 PUSH1 0x20 DUP3 DUP5 SUB SLT ISZERO PUSH2 0x1497 JUMPI PUSH2 0x1496 PUSH2 0x1174 JUMP JUMPDEST JUMPDEST PUSH1 0x0 PUSH2 0x14A5 DUP5 DUP3 DUP6 ADD PUSH2 0x146C JUMP JUMPDEST SWAP2 POP POP SWAP3 SWAP2 POP POP JUMP JUMPDEST PUSH2 0x14B7 DUP2 PUSH2 0x128C JUMP JUMPDEST DUP3 MSTORE POP POP JUMP JUMPDEST PUSH2 0x14C6 DUP2 PUSH2 0x1199 JUMP JUMPDEST DUP3 MSTORE POP POP JUMP JUMPDEST PUSH2 0x14D5 DUP2 PUSH2 0x12C2 JUMP JUMPDEST DUP3 MSTORE POP POP JUMP JUMPDEST PUSH2 0x14E4 DUP2 PUSH2 0x11D7 JUMP JUMPDEST DUP3 MSTORE POP POP JUMP JUMPDEST PUSH2 0x14F3 DUP2 PUSH2 0x12F2 JUMP JUMPDEST DUP3 MSTORE POP POP JUMP JUMPDEST PUSH1 0x0 PUSH2 0x100 DUP3 ADD SWAP1 POP PUSH2 0x150F PUSH1 0x0 DUP4 ADD DUP12 PUSH2 0x14AE JUMP JUMPDEST PUSH2 0x151C PUSH1 0x20 DUP4 ADD DUP11 PUSH2 0x14BD JUMP JUMPDEST PUSH2 0x1529 PUSH1 0x40 DUP4 ADD DUP10 PUSH2 0x14CC JUMP JUMPDEST PUSH2 0x1536 PUSH1 0x60 DUP4 ADD DUP9 PUSH2 0x14CC JUMP JUMPDEST PUSH2 0x1543 PUSH1 0x80 DUP4 ADD DUP8 PUSH2 0x14BD JUMP JUMPDEST PUSH2 0x1550 PUSH1 0xA0 DUP4 ADD DUP7 PUSH2 0x14DB JUMP JUMPDEST PUSH2 0x155D PUSH1 0xC0 DUP4 ADD DUP6 PUSH2 0x14DB JUMP JUMPDEST PUSH2 0x156A PUSH1 0xE0 DUP4 ADD DUP5 PUSH2 0x14EA JUMP JUMPDEST SWAP10 SWAP9 POP POP POP POP POP POP POP POP POP JUMP JUMPDEST PUSH1 0x0 DUP1 PUSH1 0x40 DUP4 DUP6 SUB SLT ISZERO PUSH2 0x158E JUMPI PUSH2 0x158D PUSH2 0x1174 JUMP JUMPDEST JUMPDEST PUSH1 0x0 PUSH2 0x159C DUP6 DUP3 DUP7 ADD PUSH2 0x146C JUMP JUMPDEST SWAP3 POP POP PUSH1 0x20 PUSH2 0x15AD DUP6 DUP3 DUP7 ADD PUSH2 0x146C JUMP JUMPDEST SWAP2 POP POP SWAP3 POP SWAP3 SWAP1 POP JUMP JUMPDEST PUSH1 0x0 PUSH1 0x20 DUP3 ADD SWAP1 POP PUSH2 0x15CC PUSH1 0x0 DUP4 ADD DUP5 PUSH2 0x14AE JUMP JUMPDEST SWAP3 SWAP2 POP POP JUMP JUMPDEST PUSH1 0x0 PUSH1 0x20 DUP3 ADD SWAP1 POP PUSH2 0x15E7 PUSH1 0x0 DUP4 ADD DUP5 PUSH2 0x14BD JUMP JUMPDEST SWAP3 SWAP2 POP POP JUMP JUMPDEST PUSH1 0x0 DUP1 PUSH1 0x0 PUSH1 0x60 DUP5 DUP7 SUB SLT ISZERO PUSH2 0x1606 JUMPI PUSH2 0x1605 PUSH2 0x1174 JUMP JUMPDEST JUMPDEST PUSH1 0x0 PUSH2 0x1614 DUP7 DUP3 DUP8 ADD PUSH2 0x11C2 JUMP JUMPDEST SWAP4 POP POP PUSH1 0x20 PUSH2 0x1625 DUP7 DUP3 DUP8 ADD PUSH2 0x146C JUMP JUMPDEST SWAP3 POP POP PUSH1 0x40 PUSH2 0x1636 DUP7 DUP3 DUP8 ADD PUSH2 0x11F8 JUMP JUMPDEST SWAP2 POP POP SWAP3 POP SWAP3 POP SWAP3 JUMP JUMPDEST PUSH1 0x0 DUP1 PUSH1 0x0 DUP1 PUSH1 0x80 DUP6 DUP8 SUB SLT ISZERO PUSH2 0x165A JUMPI PUSH2 0x1659 PUSH2 0x1174 JUMP JUMPDEST JUMPDEST PUSH1 0x0 PUSH2 0x1668 DUP8 DUP3 DUP9 ADD PUSH2 0x146C JUMP JUMPDEST SWAP5 POP POP PUSH1 0x20 PUSH2 0x1679 DUP8 DUP3 DUP9 ADD PUSH2 0x11C2 JUMP JUMPDEST SWAP4 POP POP PUSH1 0x40 PUSH2 0x168A DUP8 DUP3 DUP9 ADD PUSH2 0x11C2 JUMP JUMPDEST SWAP3 POP POP PUSH1 0x60 PUSH2 0x169B DUP8 DUP3 DUP9 ADD PUSH2 0x11F8 JUMP JUMPDEST SWAP2 POP POP SWAP3 SWAP6 SWAP2 SWAP5 POP SWAP3 POP JUMP JUMPDEST PUSH1 0x0 DUP1 PUSH1 0x40 DUP4 DUP6 SUB SLT ISZERO PUSH2 0x16BE JUMPI PUSH2 0x16BD PUSH2 0x1174 JUMP JUMPDEST JUMPDEST PUSH1 0x0 PUSH2 0x16CC DUP6 DUP3 DUP7 ADD PUSH2 0x146C JUMP JUMPDEST SWAP3 POP POP PUSH1 0x20 PUSH2 0x16DD DUP6 DUP3 DUP7 ADD PUSH2 0x11F8 JUMP JUMPDEST SWAP2 POP POP SWAP3 POP SWAP3 SWAP1 POP JUMP JUMPDEST PUSH1 0x0 PUSH1 0x60 DUP3 ADD SWAP1 POP PUSH2 0x16FC PUSH1 0x0 DUP4 ADD DUP7 PUSH2 0x14BD JUMP JUMPDEST PUSH2 0x1709 PUSH1 0x20 DUP4 ADD DUP6 PUSH2 0x14AE JUMP JUMPDEST PUSH2 0x1716 PUSH1 0x40 DUP4 ADD DUP5 PUSH2 0x14DB JUMP JUMPDEST SWAP5 SWAP4 POP POP POP POP JUMP JUMPDEST PUSH1 0x0 PUSH1 0x80 DUP3 ADD SWAP1 POP PUSH2 0x1733 PUSH1 0x0 DUP4 ADD DUP8 PUSH2 0x14BD JUMP JUMPDEST PUSH2 0x1740 PUSH1 0x20 DUP4 ADD DUP7 PUSH2 0x14BD JUMP JUMPDEST PUSH2 0x174D PUSH1 0x40 DUP4 ADD DUP6 PUSH2 0x14EA JUMP JUMPDEST PUSH2 0x175A PUSH1 0x60 DUP4 ADD DUP5 PUSH2 0x14DB JUMP JUMPDEST SWAP6 SWAP5 POP POP POP POP POP JUMP JUMPDEST PUSH32 0x4E487B7100000000000000000000000000000000000000000000000000000000 PUSH1 0x0 MSTORE PUSH1 0x11 PUSH1 0x4 MSTORE PUSH1 0x24 PUSH1 0x0 REVERT JUMPDEST PUSH1 0x0 PUSH2 0x179D DUP3 PUSH2 0x128C JUMP JUMPDEST SWAP2 POP PUSH2 0x17A8 DUP4 PUSH2 0x128C JUMP JUMPDEST SWAP3 POP DUP3 DUP3 ADD SWAP1 POP PUSH12 0xFFFFFFFFFFFFFFFFFFFFFFFF DUP2 GT ISZERO PUSH2 0x17CC JUMPI PUSH2 0x17CB PUSH2 0x1763 JUMP JUMPDEST JUMPDEST SWAP3 SWAP2 POP POP JUMP JUMPDEST PUSH1 0x0 DUP3 DUP3 MSTORE PUSH1 0x20 DUP3 ADD SWAP1 POP SWAP3 SWAP2 POP POP JUMP JUMPDEST PUSH32 0x4D757374206265205F656E644964203C3D2066756E64436F756E740000000000 PUSH1 0x0 DUP3 ADD MSTORE POP JUMP JUMPDEST PUSH1 0x0 PUSH2 0x1819 PUSH1 0x1B DUP4 PUSH2 0x17D2 JUMP JUMPDEST SWAP2 POP PUSH2 0x1824 DUP3 PUSH2 0x17E3 JUMP JUMPDEST PUSH1 0x20 DUP3 ADD SWAP1 POP SWAP2 SWAP1 POP JUMP JUMPDEST PUSH1 0x0 PUSH1 0x20 DUP3 ADD SWAP1 POP DUP2 DUP2 SUB PUSH1 0x0 DUP4 ADD MSTORE PUSH2 0x1848 DUP2 PUSH2 0x180C JUMP JUMPDEST SWAP1 POP SWAP2 SWAP1 POP JUMP JUMPDEST PUSH32 0x4D757374206265205F73746172744964203C3D205F656E644964000000000000 PUSH1 0x0 DUP3 ADD MSTORE POP JUMP JUMPDEST PUSH1 0x0 PUSH2 0x1885 PUSH1 0x1A DUP4 PUSH2 0x17D2 JUMP JUMPDEST SWAP2 POP PUSH2 0x1890 DUP3 PUSH2 0x184F JUMP JUMPDEST PUSH1 0x20 DUP3 ADD SWAP1 POP SWAP2 SWAP1 POP JUMP JUMPDEST PUSH1 0x0 PUSH1 0x20 DUP3 ADD SWAP1 POP DUP2 DUP2 SUB PUSH1 0x0 DUP4 ADD MSTORE PUSH2 0x18B4 DUP2 PUSH2 0x1878 JUMP JUMPDEST SWAP1 POP SWAP2 SWAP1 POP JUMP JUMPDEST PUSH1 0x0 PUSH2 0x18C6 DUP3 PUSH2 0x128C JUMP JUMPDEST SWAP2 POP PUSH2 0x18D1 DUP4 PUSH2 0x128C JUMP JUMPDEST SWAP3 POP DUP3 DUP3 SUB SWAP1 POP PUSH12 0xFFFFFFFFFFFFFFFFFFFFFFFF DUP2 GT ISZERO PUSH2 0x18F5 JUMPI PUSH2 0x18F4 PUSH2 0x1763 JUMP JUMPDEST JUMPDEST SWAP3 SWAP2 POP POP JUMP JUMPDEST PUSH32 0x4E487B7100000000000000000000000000000000000000000000000000000000 PUSH1 0x0 MSTORE PUSH1 0x41 PUSH1 0x4 MSTORE PUSH1 0x24 PUSH1 0x0 REVERT JUMPDEST PUSH32 0x4E487B7100000000000000000000000000000000000000000000000000000000 PUSH1 0x0 MSTORE PUSH1 0x32 PUSH1 0x4 MSTORE PUSH1 0x24 PUSH1 0x0 REVERT JUMPDEST PUSH1 0x0 PUSH2 0x1964 DUP3 PUSH2 0x128C JUMP JUMPDEST SWAP2 POP PUSH12 0xFFFFFFFFFFFFFFFFFFFFFFFF DUP3 SUB PUSH2 0x1982 JUMPI PUSH2 0x1981 PUSH2 0x1763 JUMP JUMPDEST JUMPDEST PUSH1 0x1 DUP3 ADD SWAP1 POP SWAP2 SWAP1 POP JUMP JUMPDEST PUSH32 0x4D757374206265205F6964203C2066756E64436F756E74000000000000000000 PUSH1 0x0 DUP3 ADD MSTORE POP JUMP JUMPDEST PUSH1 0x0 PUSH2 0x19C3 PUSH1 0x17 DUP4 PUSH2 0x17D2 JUMP JUMPDEST SWAP2 POP PUSH2 0x19CE DUP3 PUSH2 0x198D JUMP JUMPDEST PUSH1 0x20 DUP3 ADD SWAP1 POP SWAP2 SWAP1 POP JUMP JUMPDEST PUSH1 0x0 PUSH1 0x20 DUP3 ADD SWAP1 POP DUP2 DUP2 SUB PUSH1 0x0 DUP4 ADD MSTORE PUSH2 0x19F2 DUP2 PUSH2 0x19B6 JUMP JUMPDEST SWAP1 POP SWAP2 SWAP1 POP JUMP JUMPDEST PUSH32 0x46756E6420557064617465206E6F7420617574686F72697A6564000000000000 PUSH1 0x0 DUP3 ADD MSTORE POP JUMP JUMPDEST PUSH1 0x0 PUSH2 0x1A2F PUSH1 0x1A DUP4 PUSH2 0x17D2 JUMP JUMPDEST SWAP2 POP PUSH2 0x1A3A DUP3 PUSH2 0x19F9 JUMP JUMPDEST PUSH1 0x20 DUP3 ADD SWAP1 POP SWAP2 SWAP1 POP JUMP JUMPDEST PUSH1 0x0 PUSH1 0x20 DUP3 ADD SWAP1 POP DUP2 DUP2 SUB PUSH1 0x0 DUP4 ADD MSTORE PUSH2 0x1A5E DUP2 PUSH2 0x1A22 JUMP JUMPDEST SWAP1 POP SWAP2 SWAP1 POP JUMP INVALID LOG2 PUSH5 0x6970667358 0x22 SLT KECCAK256 PUSH11 0x216EDBB660C7434FF5461F 0xB5 0xA5 0xE 0xC5 PUSH17 0xECE26AE0C2948BD5904BDE72F86EB56473 PUSH16 0x6C634300081200330000000000000000 "
				},
				"gasEstimates": {
					"creation": {
						"codeDepositCost": "1362200",
						"executionCost": "1417",
						"totalCost": "1363617"
					},
					"external": {
						"createFund(address,address,uint256)": "infinite",
						"donate(address,uint96,uint256)": "96178",
						"fundCount()": "2468",
						"fundDonations(uint96,uint256)": "infinite",
						"funds(uint96)": "infinite",
						"getAllFunds()": "infinite",
						"getFundPayee(uint96)": "5132",
						"getFunds(uint96,uint96)": "infinite",
						"updateFund(uint96,address,address,uint256)": "infinite"
					},
					"internal": {
						"calculateQF(uint96,uint256)": "22",
						"createDonation(address,uint96,uint256)": "infinite"
					}
				},
				"methodIdentifiers": {
					"createFund(address,address,uint256)": "17444626",
					"donate(address,uint96,uint256)": "88b53ced",
					"fundCount()": "3f936ff5",
					"fundDonations(uint96,uint256)": "f4ddec1e",
					"funds(uint96)": "1f71f89f",
					"getAllFunds()": "1c69b464",
					"getFundPayee(uint96)": "6c173d38",
					"getFunds(uint96,uint96)": "380eaaf9",
					"updateFund(uint96,address,address,uint256)": "dd7d7929"
				}
			},
			"storageLayout": {
				"storage": [
					{
						"astId": 83,
						"contract": "contracts/Fund.sol:FundRegistry",
						"label": "fundCount",
						"offset": 0,
						"slot": "0",
						"type": "t_uint96"
					},
					{
						"astId": 112,
						"contract": "contracts/Fund.sol:FundRegistry",
						"label": "funds",
						"offset": 0,
						"slot": "1",
						"type": "t_mapping(t_uint96,t_struct(Fund)100_storage)"
					},
					{
						"astId": 118,
						"contract": "contracts/Fund.sol:FundRegistry",
						"label": "fundDonations",
						"offset": 0,
						"slot": "2",
						"type": "t_mapping(t_uint96,t_array(t_struct(Donation)107_storage)dyn_storage)"
					}
				],
				"types": {
					"t_address": {
						"encoding": "inplace",
						"label": "address",
						"numberOfBytes": "20"
					},
					"t_array(t_struct(Donation)107_storage)dyn_storage": {
						"base": "t_struct(Donation)107_storage",
						"encoding": "dynamic_array",
						"label": "struct FundRegistry.Donation[]",
						"numberOfBytes": "32"
					},
					"t_bool": {
						"encoding": "inplace",
						"label": "bool",
						"numberOfBytes": "1"
					},
					"t_mapping(t_uint96,t_array(t_struct(Donation)107_storage)dyn_storage)": {
						"encoding": "mapping",
						"key": "t_uint96",
						"label": "mapping(uint96 => struct FundRegistry.Donation[])",
						"numberOfBytes": "32",
						"value": "t_array(t_struct(Donation)107_storage)dyn_storage"
					},
					"t_mapping(t_uint96,t_struct(Fund)100_storage)": {
						"encoding": "mapping",
						"key": "t_uint96",
						"label": "mapping(uint96 => struct FundRegistry.Fund)",
						"numberOfBytes": "32",
						"value": "t_struct(Fund)100_storage"
					},
					"t_struct(Donation)107_storage": {
						"encoding": "inplace",
						"label": "struct FundRegistry.Donation",
						"members": [
							{
								"astId": 102,
								"contract": "contracts/Fund.sol:FundRegistry",
								"label": "user",
								"offset": 0,
								"slot": "0",
								"type": "t_address"
							},
							{
								"astId": 104,
								"contract": "contracts/Fund.sol:FundRegistry",
								"label": "fundId",
								"offset": 20,
								"slot": "0",
								"type": "t_uint96"
							},
							{
								"astId": 106,
								"contract": "contracts/Fund.sol:FundRegistry",
								"label": "amount",
								"offset": 0,
								"slot": "1",
								"type": "t_uint256"
							}
						],
						"numberOfBytes": "64"
					},
					"t_struct(Fund)100_storage": {
						"encoding": "inplace",
						"label": "struct FundRegistry.Fund",
						"members": [
							{
								"astId": 85,
								"contract": "contracts/Fund.sol:FundRegistry",
								"label": "id",
								"offset": 0,
								"slot": "0",
								"type": "t_uint96"
							},
							{
								"astId": 87,
								"contract": "contracts/Fund.sol:FundRegistry",
								"label": "owner",
								"offset": 12,
								"slot": "0",
								"type": "t_address"
							},
							{
								"astId": 89,
								"contract": "contracts/Fund.sol:FundRegistry",
								"label": "createdAt",
								"offset": 0,
								"slot": "1",
								"type": "t_uint48"
							},
							{
								"astId": 91,
								"contract": "contracts/Fund.sol:FundRegistry",
								"label": "updatedAt",
								"offset": 6,
								"slot": "1",
								"type": "t_uint48"
							},
							{
								"astId": 93,
								"contract": "contracts/Fund.sol:FundRegistry",
								"label": "payee",
								"offset": 12,
								"slot": "1",
								"type": "t_address"
							},
							{
								"astId": 95,
								"contract": "contracts/Fund.sol:FundRegistry",
								"label": "threshold",
								"offset": 0,
								"slot": "2",
								"type": "t_uint256"
							},
							{
								"astId": 97,
								"contract": "contracts/Fund.sol:FundRegistry",
								"label": "totalAmount",
								"offset": 0,
								"slot": "3",
								"type": "t_uint256"
							},
							{
								"astId": 99,
								"contract": "contracts/Fund.sol:FundRegistry",
								"label": "isEnd",
								"offset": 0,
								"slot": "4",
								"type": "t_bool"
							}
						],
						"numberOfBytes": "160"
					},
					"t_uint256": {
						"encoding": "inplace",
						"label": "uint256",
						"numberOfBytes": "32"
					},
					"t_uint48": {
						"encoding": "inplace",
						"label": "uint48",
						"numberOfBytes": "6"
					},
					"t_uint96": {
						"encoding": "inplace",
						"label": "uint96",
						"numberOfBytes": "12"
					}
				}
			},
			"userdoc": {
				"kind": "user",
				"methods": {},
				"version": 1
			}
		}
	}
}