{
	"contracts/DTicket2_flattened.sol": {
		"DTicket": {
			"abi": [
				{
					"inputs": [],
					"stateMutability": "nonpayable",
					"type": "constructor"
				},
				{
					"anonymous": false,
					"inputs": [
						{
							"indexed": true,
							"internalType": "address",
							"name": "account",
							"type": "address"
						},
						{
							"indexed": true,
							"internalType": "address",
							"name": "operator",
							"type": "address"
						},
						{
							"indexed": false,
							"internalType": "bool",
							"name": "approved",
							"type": "bool"
						}
					],
					"name": "ApprovalForAll",
					"type": "event"
				},
				{
					"anonymous": false,
					"inputs": [
						{
							"indexed": true,
							"internalType": "address",
							"name": "previousOwner",
							"type": "address"
						},
						{
							"indexed": true,
							"internalType": "address",
							"name": "newOwner",
							"type": "address"
						}
					],
					"name": "OwnershipTransferred",
					"type": "event"
				},
				{
					"anonymous": false,
					"inputs": [
						{
							"indexed": true,
							"internalType": "address",
							"name": "operator",
							"type": "address"
						},
						{
							"indexed": true,
							"internalType": "address",
							"name": "from",
							"type": "address"
						},
						{
							"indexed": true,
							"internalType": "address",
							"name": "to",
							"type": "address"
						},
						{
							"indexed": false,
							"internalType": "uint256[]",
							"name": "ids",
							"type": "uint256[]"
						},
						{
							"indexed": false,
							"internalType": "uint256[]",
							"name": "values",
							"type": "uint256[]"
						}
					],
					"name": "TransferBatch",
					"type": "event"
				},
				{
					"anonymous": false,
					"inputs": [
						{
							"indexed": true,
							"internalType": "address",
							"name": "operator",
							"type": "address"
						},
						{
							"indexed": true,
							"internalType": "address",
							"name": "from",
							"type": "address"
						},
						{
							"indexed": true,
							"internalType": "address",
							"name": "to",
							"type": "address"
						},
						{
							"indexed": false,
							"internalType": "uint256",
							"name": "id",
							"type": "uint256"
						},
						{
							"indexed": false,
							"internalType": "uint256",
							"name": "value",
							"type": "uint256"
						}
					],
					"name": "TransferSingle",
					"type": "event"
				},
				{
					"anonymous": false,
					"inputs": [
						{
							"indexed": false,
							"internalType": "string",
							"name": "value",
							"type": "string"
						},
						{
							"indexed": true,
							"internalType": "uint256",
							"name": "id",
							"type": "uint256"
						}
					],
					"name": "URI",
					"type": "event"
				},
				{
					"inputs": [
						{
							"internalType": "address",
							"name": "account",
							"type": "address"
						},
						{
							"internalType": "uint256",
							"name": "id",
							"type": "uint256"
						}
					],
					"name": "balanceOf",
					"outputs": [
						{
							"internalType": "uint256",
							"name": "",
							"type": "uint256"
						}
					],
					"stateMutability": "view",
					"type": "function"
				},
				{
					"inputs": [
						{
							"internalType": "address[]",
							"name": "accounts",
							"type": "address[]"
						},
						{
							"internalType": "uint256[]",
							"name": "ids",
							"type": "uint256[]"
						}
					],
					"name": "balanceOfBatch",
					"outputs": [
						{
							"internalType": "uint256[]",
							"name": "",
							"type": "uint256[]"
						}
					],
					"stateMutability": "view",
					"type": "function"
				},
				{
					"inputs": [
						{
							"internalType": "address",
							"name": "account",
							"type": "address"
						},
						{
							"internalType": "uint256",
							"name": "id",
							"type": "uint256"
						},
						{
							"internalType": "uint256",
							"name": "value",
							"type": "uint256"
						}
					],
					"name": "burn",
					"outputs": [],
					"stateMutability": "nonpayable",
					"type": "function"
				},
				{
					"inputs": [
						{
							"internalType": "address",
							"name": "account",
							"type": "address"
						},
						{
							"internalType": "uint256[]",
							"name": "ids",
							"type": "uint256[]"
						},
						{
							"internalType": "uint256[]",
							"name": "values",
							"type": "uint256[]"
						}
					],
					"name": "burnBatch",
					"outputs": [],
					"stateMutability": "nonpayable",
					"type": "function"
				},
				{
					"inputs": [
						{
							"internalType": "address",
							"name": "account",
							"type": "address"
						},
						{
							"internalType": "address",
							"name": "operator",
							"type": "address"
						}
					],
					"name": "isApprovedForAll",
					"outputs": [
						{
							"internalType": "bool",
							"name": "",
							"type": "bool"
						}
					],
					"stateMutability": "view",
					"type": "function"
				},
				{
					"inputs": [
						{
							"internalType": "address",
							"name": "account",
							"type": "address"
						},
						{
							"internalType": "uint256",
							"name": "id",
							"type": "uint256"
						},
						{
							"internalType": "uint256",
							"name": "amount",
							"type": "uint256"
						},
						{
							"internalType": "bytes",
							"name": "data",
							"type": "bytes"
						}
					],
					"name": "mint",
					"outputs": [],
					"stateMutability": "nonpayable",
					"type": "function"
				},
				{
					"inputs": [
						{
							"internalType": "address",
							"name": "to",
							"type": "address"
						},
						{
							"internalType": "uint256[]",
							"name": "ids",
							"type": "uint256[]"
						},
						{
							"internalType": "uint256[]",
							"name": "amounts",
							"type": "uint256[]"
						},
						{
							"internalType": "bytes",
							"name": "data",
							"type": "bytes"
						}
					],
					"name": "mintBatch",
					"outputs": [],
					"stateMutability": "nonpayable",
					"type": "function"
				},
				{
					"inputs": [],
					"name": "owner",
					"outputs": [
						{
							"internalType": "address",
							"name": "",
							"type": "address"
						}
					],
					"stateMutability": "view",
					"type": "function"
				},
				{
					"inputs": [],
					"name": "renounceOwnership",
					"outputs": [],
					"stateMutability": "nonpayable",
					"type": "function"
				},
				{
					"inputs": [
						{
							"internalType": "address",
							"name": "from",
							"type": "address"
						},
						{
							"internalType": "address",
							"name": "to",
							"type": "address"
						},
						{
							"internalType": "uint256[]",
							"name": "ids",
							"type": "uint256[]"
						},
						{
							"internalType": "uint256[]",
							"name": "amounts",
							"type": "uint256[]"
						},
						{
							"internalType": "bytes",
							"name": "data",
							"type": "bytes"
						}
					],
					"name": "safeBatchTransferFrom",
					"outputs": [],
					"stateMutability": "nonpayable",
					"type": "function"
				},
				{
					"inputs": [
						{
							"internalType": "address",
							"name": "from",
							"type": "address"
						},
						{
							"internalType": "address",
							"name": "to",
							"type": "address"
						},
						{
							"internalType": "uint256",
							"name": "id",
							"type": "uint256"
						},
						{
							"internalType": "uint256",
							"name": "amount",
							"type": "uint256"
						},
						{
							"internalType": "bytes",
							"name": "data",
							"type": "bytes"
						}
					],
					"name": "safeTransferFrom",
					"outputs": [],
					"stateMutability": "nonpayable",
					"type": "function"
				},
				{
					"inputs": [
						{
							"internalType": "address",
							"name": "operator",
							"type": "address"
						},
						{
							"internalType": "bool",
							"name": "approved",
							"type": "bool"
						}
					],
					"name": "setApprovalForAll",
					"outputs": [],
					"stateMutability": "nonpayable",
					"type": "function"
				},
				{
					"inputs": [
						{
							"internalType": "bytes4",
							"name": "interfaceId",
							"type": "bytes4"
						}
					],
					"name": "supportsInterface",
					"outputs": [
						{
							"internalType": "bool",
							"name": "",
							"type": "bool"
						}
					],
					"stateMutability": "view",
					"type": "function"
				},
				{
					"inputs": [
						{
							"internalType": "address",
							"name": "newOwner",
							"type": "address"
						}
					],
					"name": "transferOwnership",
					"outputs": [],
					"stateMutability": "nonpayable",
					"type": "function"
				},
				{
					"inputs": [
						{
							"internalType": "uint256",
							"name": "",
							"type": "uint256"
						}
					],
					"name": "uri",
					"outputs": [
						{
							"internalType": "string",
							"name": "",
							"type": "string"
						}
					],
					"stateMutability": "view",
					"type": "function"
				}
			],
			"devdoc": {
				"events": {
					"ApprovalForAll(address,address,bool)": {
						"details": "Emitted when `account` grants or revokes permission to `operator` to transfer their tokens, according to `approved`."
					},
					"TransferBatch(address,address,address,uint256[],uint256[])": {
						"details": "Equivalent to multiple {TransferSingle} events, where `operator`, `from` and `to` are the same for all transfers."
					},
					"TransferSingle(address,address,address,uint256,uint256)": {
						"details": "Emitted when `value` tokens of token type `id` are transferred from `from` to `to` by `operator`."
					},
					"URI(string,uint256)": {
						"details": "Emitted when the URI for token type `id` changes to `value`, if it is a non-programmatic URI. If an {URI} event was emitted for `id`, the standard https://eips.ethereum.org/EIPS/eip-1155#metadata-extensions[guarantees] that `value` will equal the value returned by {IERC1155MetadataURI-uri}."
					}
				},
				"kind": "dev",
				"methods": {
					"balanceOf(address,uint256)": {
						"details": "See {IERC1155-balanceOf}. Requirements: - `account` cannot be the zero address."
					},
					"balanceOfBatch(address[],uint256[])": {
						"details": "See {IERC1155-balanceOfBatch}. Requirements: - `accounts` and `ids` must have the same length."
					},
					"isApprovedForAll(address,address)": {
						"details": "See {IERC1155-isApprovedForAll}."
					},
					"owner()": {
						"details": "Returns the address of the current owner."
					},
					"renounceOwnership()": {
						"details": "Leaves the contract without owner. It will not be possible to call `onlyOwner` functions. Can only be called by the current owner. NOTE: Renouncing ownership will leave the contract without an owner, thereby disabling any functionality that is only available to the owner."
					},
					"safeBatchTransferFrom(address,address,uint256[],uint256[],bytes)": {
						"details": "See {IERC1155-safeBatchTransferFrom}."
					},
					"safeTransferFrom(address,address,uint256,uint256,bytes)": {
						"details": "See {IERC1155-safeTransferFrom}."
					},
					"setApprovalForAll(address,bool)": {
						"details": "See {IERC1155-setApprovalForAll}."
					},
					"supportsInterface(bytes4)": {
						"details": "See {IERC165-supportsInterface}."
					},
					"transferOwnership(address)": {
						"details": "Transfers ownership of the contract to a new account (`newOwner`). Can only be called by the current owner."
					},
					"uri(uint256)": {
						"details": "See {IERC1155MetadataURI-uri}. This implementation returns the same URI for *all* token types. It relies on the token type ID substitution mechanism https://eips.ethereum.org/EIPS/eip-1155#metadata[defined in the EIP]. Clients calling this function must replace the `\\{id\\}` substring with the actual token type ID."
					}
				},
				"version": 1
			},
			"evm": {
				"assembly": "    /* \"contracts/DTicket2_flattened.sol\":39983:40452  contract DTicket is ERC1155, ERC1155Burnable, Ownable {... */\n  mstore(0x40, 0x80)\n    /* \"contracts/DTicket2_flattened.sol\":40043:40088  constructor() ERC1155(\"DTicket\") Ownable() {} */\n  callvalue\n  dup1\n  iszero\n  tag_1\n  jumpi\n  0x00\n  dup1\n  revert\ntag_1:\n  pop\n    /* \"contracts/DTicket2_flattened.sol\":22873:22935  constructor(string memory uri_) {... */\n  0x40\n  dup1\n  mload\n  dup1\n  dup3\n  add\n  swap1\n  swap2\n  mstore\n  0x07\n  dup2\n  mstore\n  shl(0xca, 0x11151a58dad95d)\n  0x20\n  dup3\n  add\n  mstore\n    /* \"contracts/DTicket2_flattened.sol\":22915:22928  _setURI(uri_) */\n  tag_6\n    /* \"contracts/DTicket2_flattened.sol\":22873:22935  constructor(string memory uri_) {... */\n  dup2\n    /* \"contracts/DTicket2_flattened.sol\":22915:22922  _setURI */\n  tag_7\n    /* \"contracts/DTicket2_flattened.sol\":22915:22928  _setURI(uri_) */\n  jump\t// in\ntag_6:\n  pop\n    /* \"contracts/DTicket2_flattened.sol\":1794:1826  _transferOwnership(_msgSender()) */\n  tag_9\n    /* \"contracts/DTicket2_flattened.sol\":741:751  msg.sender */\n  caller\n    /* \"contracts/DTicket2_flattened.sol\":1794:1812  _transferOwnership */\n  tag_12\n    /* \"contracts/DTicket2_flattened.sol\":1794:1826  _transferOwnership(_msgSender()) */\n  jump\t// in\ntag_9:\n    /* \"contracts/DTicket2_flattened.sol\":39983:40452  contract DTicket is ERC1155, ERC1155Burnable, Ownable {... */\n  jump(tag_25)\n    /* \"contracts/DTicket2_flattened.sol\":29915:30001  function _setURI(string memory newuri) internal virtual {... */\ntag_7:\n    /* \"contracts/DTicket2_flattened.sol\":29981:29985  _uri */\n  0x02\n    /* \"contracts/DTicket2_flattened.sol\":29981:29994  _uri = newuri */\n  tag_16\n    /* \"contracts/DTicket2_flattened.sol\":29988:29994  newuri */\n  dup3\n    /* \"contracts/DTicket2_flattened.sol\":29981:29985  _uri */\n  dup3\n    /* \"contracts/DTicket2_flattened.sol\":29981:29994  _uri = newuri */\n  tag_17\n  jump\t// in\ntag_16:\n  pop\n    /* \"contracts/DTicket2_flattened.sol\":29915:30001  function _setURI(string memory newuri) internal virtual {... */\n  pop\n  jump\t// out\n    /* \"contracts/DTicket2_flattened.sol\":3284:3471  function _transferOwnership(address newOwner) internal virtual {... */\ntag_12:\n    /* \"contracts/DTicket2_flattened.sol\":3376:3382  _owner */\n  0x03\n  dup1\n  sload\n  sub(shl(0xa0, 0x01), 0x01)\n    /* \"contracts/DTicket2_flattened.sol\":3392:3409  _owner = newOwner */\n  dup4\n  dup2\n  and\n  not(sub(shl(0xa0, 0x01), 0x01))\n  dup4\n  and\n  dup2\n  or\n  swap1\n  swap4\n  sstore\n    /* \"contracts/DTicket2_flattened.sol\":3424:3464  OwnershipTransferred(oldOwner, newOwner) */\n  mload(0x40)\n    /* \"contracts/DTicket2_flattened.sol\":3376:3382  _owner */\n  swap2\n  and\n  swap2\n    /* \"contracts/DTicket2_flattened.sol\":3392:3409  _owner = newOwner */\n  swap1\n    /* \"contracts/DTicket2_flattened.sol\":3376:3382  _owner */\n  dup3\n  swap1\n    /* \"contracts/DTicket2_flattened.sol\":3424:3464  OwnershipTransferred(oldOwner, newOwner) */\n  0x8be0079c531659141344cd1fd0a4f28419497f9722a3daafe3b4186f6b6457e0\n  swap1\n    /* \"contracts/DTicket2_flattened.sol\":3357:3373  address oldOwner */\n  0x00\n  swap1\n    /* \"contracts/DTicket2_flattened.sol\":3424:3464  OwnershipTransferred(oldOwner, newOwner) */\n  log3\n    /* \"contracts/DTicket2_flattened.sol\":3347:3471  {... */\n  pop\n    /* \"contracts/DTicket2_flattened.sol\":3284:3471  function _transferOwnership(address newOwner) internal virtual {... */\n  pop\n  jump\t// out\n    /* \"#utility.yul\":14:141   */\ntag_20:\n    /* \"#utility.yul\":75:85   */\n  0x4e487b71\n    /* \"#utility.yul\":70:73   */\n  0xe0\n    /* \"#utility.yul\":66:86   */\n  shl\n    /* \"#utility.yul\":63:64   */\n  0x00\n    /* \"#utility.yul\":56:87   */\n  mstore\n    /* \"#utility.yul\":106:110   */\n  0x41\n    /* \"#utility.yul\":103:104   */\n  0x04\n    /* \"#utility.yul\":96:111   */\n  mstore\n    /* \"#utility.yul\":130:134   */\n  0x24\n    /* \"#utility.yul\":127:128   */\n  0x00\n    /* \"#utility.yul\":120:135   */\n  revert\n    /* \"#utility.yul\":146:526   */\ntag_21:\n    /* \"#utility.yul\":225:226   */\n  0x01\n    /* \"#utility.yul\":221:233   */\n  dup2\n  dup2\n  shr\n  swap1\n    /* \"#utility.yul\":268:280   */\n  dup3\n  and\n  dup1\n    /* \"#utility.yul\":289:350   */\n  tag_28\n  jumpi\n    /* \"#utility.yul\":343:347   */\n  0x7f\n    /* \"#utility.yul\":335:341   */\n  dup3\n    /* \"#utility.yul\":331:348   */\n  and\n    /* \"#utility.yul\":321:348   */\n  swap2\n  pop\n    /* \"#utility.yul\":289:350   */\ntag_28:\n    /* \"#utility.yul\":396:398   */\n  0x20\n    /* \"#utility.yul\":388:394   */\n  dup3\n    /* \"#utility.yul\":385:399   */\n  lt\n    /* \"#utility.yul\":365:383   */\n  dup2\n    /* \"#utility.yul\":362:400   */\n  sub\n    /* \"#utility.yul\":359:520   */\n  tag_29\n  jumpi\n    /* \"#utility.yul\":442:452   */\n  0x4e487b71\n    /* \"#utility.yul\":437:440   */\n  0xe0\n    /* \"#utility.yul\":433:453   */\n  shl\n    /* \"#utility.yul\":430:431   */\n  0x00\n    /* \"#utility.yul\":423:454   */\n  mstore\n    /* \"#utility.yul\":477:481   */\n  0x22\n    /* \"#utility.yul\":474:475   */\n  0x04\n    /* \"#utility.yul\":467:482   */\n  mstore\n    /* \"#utility.yul\":505:509   */\n  0x24\n    /* \"#utility.yul\":502:503   */\n  0x00\n    /* \"#utility.yul\":495:510   */\n  revert\n    /* \"#utility.yul\":359:520   */\ntag_29:\n  pop\n    /* \"#utility.yul\":146:526   */\n  swap2\n  swap1\n  pop\n  jump\t// out\n    /* \"#utility.yul\":657:1202   */\ntag_23:\n    /* \"#utility.yul\":759:761   */\n  0x1f\n    /* \"#utility.yul\":754:757   */\n  dup3\n    /* \"#utility.yul\":751:762   */\n  gt\n    /* \"#utility.yul\":748:1196   */\n  iszero\n  tag_32\n  jumpi\n    /* \"#utility.yul\":795:796   */\n  0x00\n    /* \"#utility.yul\":820:825   */\n  dup2\n    /* \"#utility.yul\":816:818   */\n  dup2\n    /* \"#utility.yul\":809:826   */\n  mstore\n    /* \"#utility.yul\":865:869   */\n  0x20\n    /* \"#utility.yul\":861:863   */\n  dup2\n    /* \"#utility.yul\":851:870   */\n  keccak256\n    /* \"#utility.yul\":935:937   */\n  0x1f\n    /* \"#utility.yul\":923:933   */\n  dup6\n    /* \"#utility.yul\":919:938   */\n  add\n    /* \"#utility.yul\":916:917   */\n  0x05\n    /* \"#utility.yul\":912:939   */\n  shr\n    /* \"#utility.yul\":906:910   */\n  dup2\n    /* \"#utility.yul\":902:940   */\n  add\n    /* \"#utility.yul\":971:975   */\n  0x20\n    /* \"#utility.yul\":959:969   */\n  dup7\n    /* \"#utility.yul\":956:976   */\n  lt\n    /* \"#utility.yul\":953:1000   */\n  iszero\n  tag_33\n  jumpi\n  pop\n    /* \"#utility.yul\":994:998   */\n  dup1\n    /* \"#utility.yul\":953:1000   */\ntag_33:\n    /* \"#utility.yul\":1049:1051   */\n  0x1f\n    /* \"#utility.yul\":1044:1047   */\n  dup6\n    /* \"#utility.yul\":1040:1052   */\n  add\n    /* \"#utility.yul\":1037:1038   */\n  0x05\n    /* \"#utility.yul\":1033:1053   */\n  shr\n    /* \"#utility.yul\":1027:1031   */\n  dup3\n    /* \"#utility.yul\":1023:1054   */\n  add\n    /* \"#utility.yul\":1013:1054   */\n  swap2\n  pop\n    /* \"#utility.yul\":1104:1186   */\ntag_34:\n    /* \"#utility.yul\":1122:1124   */\n  dup2\n    /* \"#utility.yul\":1115:1120   */\n  dup2\n    /* \"#utility.yul\":1112:1125   */\n  lt\n    /* \"#utility.yul\":1104:1186   */\n  iszero\n  tag_36\n  jumpi\n    /* \"#utility.yul\":1167:1184   */\n  dup3\n  dup2\n  sstore\n    /* \"#utility.yul\":1148:1149   */\n  0x01\n    /* \"#utility.yul\":1137:1150   */\n  add\n    /* \"#utility.yul\":1104:1186   */\n  jump(tag_34)\ntag_36:\n    /* \"#utility.yul\":1108:1111   */\n  pop\n  pop\n  pop\n    /* \"#utility.yul\":748:1196   */\ntag_32:\n    /* \"#utility.yul\":657:1202   */\n  pop\n  pop\n  pop\n  jump\t// out\n    /* \"#utility.yul\":1378:2730   */\ntag_17:\n    /* \"#utility.yul\":1498:1508   */\n  dup2\n  mload\n  sub(shl(0x40, 0x01), 0x01)\n    /* \"#utility.yul\":1520:1550   */\n  dup2\n  gt\n    /* \"#utility.yul\":1517:1573   */\n  iszero\n  tag_40\n  jumpi\n    /* \"#utility.yul\":1553:1571   */\n  tag_40\n  tag_20\n  jump\t// in\ntag_40:\n    /* \"#utility.yul\":1582:1679   */\n  tag_41\n    /* \"#utility.yul\":1672:1678   */\n  dup2\n    /* \"#utility.yul\":1632:1670   */\n  tag_42\n    /* \"#utility.yul\":1664:1668   */\n  dup5\n    /* \"#utility.yul\":1658:1669   */\n  sload\n    /* \"#utility.yul\":1632:1670   */\n  tag_21\n  jump\t// in\ntag_42:\n    /* \"#utility.yul\":1626:1630   */\n  dup5\n    /* \"#utility.yul\":1582:1679   */\n  tag_23\n  jump\t// in\ntag_41:\n    /* \"#utility.yul\":1734:1738   */\n  0x20\n  dup1\n    /* \"#utility.yul\":1798:1800   */\n  0x1f\n    /* \"#utility.yul\":1787:1801   */\n  dup4\n  gt\n    /* \"#utility.yul\":1815:1816   */\n  0x01\n    /* \"#utility.yul\":1810:2473   */\n  dup2\n  eq\n  tag_44\n  jumpi\n    /* \"#utility.yul\":2517:2518   */\n  0x00\n    /* \"#utility.yul\":2534:2540   */\n  dup5\n    /* \"#utility.yul\":2531:2620   */\n  iszero\n  tag_45\n  jumpi\n  pop\n    /* \"#utility.yul\":2586:2605   */\n  dup6\n  dup4\n  add\n    /* \"#utility.yul\":2580:2606   */\n  mload\n    /* \"#utility.yul\":2531:2620   */\ntag_45:\n  not(0x00)\n    /* \"#utility.yul\":1335:1336   */\n  0x03\n    /* \"#utility.yul\":1331:1342   */\n  dup7\n  swap1\n  shl\n    /* \"#utility.yul\":1327:1351   */\n  shr\n    /* \"#utility.yul\":1323:1352   */\n  not\n    /* \"#utility.yul\":1313:1353   */\n  and\n    /* \"#utility.yul\":1359:1360   */\n  0x01\n    /* \"#utility.yul\":1355:1366   */\n  dup6\n  swap1\n  shl\n    /* \"#utility.yul\":1310:1367   */\n  or\n    /* \"#utility.yul\":2633:2714   */\n  dup6\n  sstore\n    /* \"#utility.yul\":1780:2724   */\n  jump(tag_36)\n    /* \"#utility.yul\":1810:2473   */\ntag_44:\n    /* \"#utility.yul\":604:605   */\n  0x00\n    /* \"#utility.yul\":597:611   */\n  dup6\n  dup2\n  mstore\n    /* \"#utility.yul\":641:645   */\n  0x20\n    /* \"#utility.yul\":628:646   */\n  dup2\n  keccak256\n  not(0x1f)\n    /* \"#utility.yul\":1846:1866   */\n  dup7\n  and\n  swap2\n    /* \"#utility.yul\":1964:2200   */\ntag_48:\n    /* \"#utility.yul\":1978:1985   */\n  dup3\n    /* \"#utility.yul\":1975:1976   */\n  dup2\n    /* \"#utility.yul\":1972:1986   */\n  lt\n    /* \"#utility.yul\":1964:2200   */\n  iszero\n  tag_50\n  jumpi\n    /* \"#utility.yul\":2067:2086   */\n  dup9\n  dup7\n  add\n    /* \"#utility.yul\":2061:2087   */\n  mload\n    /* \"#utility.yul\":2046:2088   */\n  dup3\n  sstore\n    /* \"#utility.yul\":2159:2186   */\n  swap5\n  dup5\n  add\n  swap5\n    /* \"#utility.yul\":2127:2128   */\n  0x01\n    /* \"#utility.yul\":2115:2129   */\n  swap1\n  swap2\n  add\n  swap1\n    /* \"#utility.yul\":1994:2013   */\n  dup5\n  add\n    /* \"#utility.yul\":1964:2200   */\n  jump(tag_48)\ntag_50:\n    /* \"#utility.yul\":1968:1971   */\n  pop\n    /* \"#utility.yul\":2228:2234   */\n  dup6\n    /* \"#utility.yul\":2219:2226   */\n  dup3\n    /* \"#utility.yul\":2216:2235   */\n  lt\n    /* \"#utility.yul\":2213:2414   */\n  iszero\n  tag_51\n  jumpi\n    /* \"#utility.yul\":2289:2308   */\n  dup8\n  dup6\n  add\n    /* \"#utility.yul\":2283:2309   */\n  mload\n  not(0x00)\n    /* \"#utility.yul\":2372:2373   */\n  0x03\n    /* \"#utility.yul\":2368:2382   */\n  dup9\n  swap1\n  shl\n    /* \"#utility.yul\":2384:2387   */\n  0xf8\n    /* \"#utility.yul\":2364:2388   */\n  and\n    /* \"#utility.yul\":2360:2397   */\n  shr\n    /* \"#utility.yul\":2356:2398   */\n  not\n    /* \"#utility.yul\":2341:2399   */\n  and\n    /* \"#utility.yul\":2326:2400   */\n  dup2\n  sstore\n    /* \"#utility.yul\":2213:2414   */\ntag_51:\n  pop\n  pop\n  pop\n  pop\n  pop\n    /* \"#utility.yul\":2460:2461   */\n  0x01\n    /* \"#utility.yul\":2444:2458   */\n  swap1\n  dup2\n  shl\n    /* \"#utility.yul\":2440:2462   */\n  add\n    /* \"#utility.yul\":2427:2463   */\n  swap1\n  sstore\n  pop\n    /* \"#utility.yul\":1378:2730   */\n  jump\t// out\ntag_25:\n    /* \"contracts/DTicket2_flattened.sol\":39983:40452  contract DTicket is ERC1155, ERC1155Burnable, Ownable {... */\n  dataSize(sub_0)\n  dup1\n  dataOffset(sub_0)\n  0x00\n  codecopy\n  0x00\n  return\nstop\n\nsub_0: assembly {\n        /* \"contracts/DTicket2_flattened.sol\":39983:40452  contract DTicket is ERC1155, ERC1155Burnable, Ownable {... */\n      mstore(0x40, 0x80)\n      callvalue\n      dup1\n      iszero\n      tag_1\n      jumpi\n      0x00\n      dup1\n      revert\n    tag_1:\n      pop\n      jumpi(tag_2, lt(calldatasize, 0x04))\n      shr(0xe0, calldataload(0x00))\n      dup1\n      0x715018a6\n      gt\n      tag_18\n      jumpi\n      dup1\n      0xe985e9c5\n      gt\n      tag_19\n      jumpi\n      dup1\n      0xe985e9c5\n      eq\n      tag_14\n      jumpi\n      dup1\n      0xf242432a\n      eq\n      tag_15\n      jumpi\n      dup1\n      0xf2fde38b\n      eq\n      tag_16\n      jumpi\n      dup1\n      0xf5298aca\n      eq\n      tag_17\n      jumpi\n      0x00\n      dup1\n      revert\n    tag_19:\n      dup1\n      0x715018a6\n      eq\n      tag_10\n      jumpi\n      dup1\n      0x731133e9\n      eq\n      tag_11\n      jumpi\n      dup1\n      0x8da5cb5b\n      eq\n      tag_12\n      jumpi\n      dup1\n      0xa22cb465\n      eq\n      tag_13\n      jumpi\n      0x00\n      dup1\n      revert\n    tag_18:\n      dup1\n      0x1f7fdffa\n      gt\n      tag_20\n      jumpi\n      dup1\n      0x1f7fdffa\n      eq\n      tag_6\n      jumpi\n      dup1\n      0x2eb2c2d6\n      eq\n      tag_7\n      jumpi\n      dup1\n      0x4e1273f4\n      eq\n      tag_8\n      jumpi\n      dup1\n      0x6b20c454\n      eq\n      tag_9\n      jumpi\n      0x00\n      dup1\n      revert\n    tag_20:\n      dup1\n      0xfdd58e\n      eq\n      tag_3\n      jumpi\n      dup1\n      0x01ffc9a7\n      eq\n      tag_4\n      jumpi\n      dup1\n      0x0e89341c\n      eq\n      tag_5\n      jumpi\n    tag_2:\n      0x00\n      dup1\n      revert\n        /* \"contracts/DTicket2_flattened.sol\":23951:24178  function balanceOf(address account, uint256 id) public view virtual override returns (uint256) {... */\n    tag_3:\n      tag_21\n      tag_22\n      calldatasize\n      0x04\n      tag_23\n      jump\t// in\n    tag_22:\n      tag_24\n      jump\t// in\n    tag_21:\n      mload(0x40)\n        /* \"#utility.yul\":597:622   */\n      swap1\n      dup2\n      mstore\n        /* \"#utility.yul\":585:587   */\n      0x20\n        /* \"#utility.yul\":570:588   */\n      add\n        /* \"contracts/DTicket2_flattened.sol\":23951:24178  function balanceOf(address account, uint256 id) public view virtual override returns (uint256) {... */\n    tag_25:\n      mload(0x40)\n      dup1\n      swap2\n      sub\n      swap1\n      return\n        /* \"contracts/DTicket2_flattened.sol\":23002:23307  function supportsInterface(bytes4 interfaceId) public view virtual override(ERC165, IERC165) returns (bool) {... */\n    tag_4:\n      tag_27\n      tag_28\n      calldatasize\n      0x04\n      tag_29\n      jump\t// in\n    tag_28:\n      tag_30\n      jump\t// in\n    tag_27:\n      mload(0x40)\n        /* \"#utility.yul\":1184:1198   */\n      swap1\n      iszero\n        /* \"#utility.yul\":1177:1199   */\n      iszero\n        /* \"#utility.yul\":1159:1200   */\n      dup2\n      mstore\n        /* \"#utility.yul\":1147:1149   */\n      0x20\n        /* \"#utility.yul\":1132:1150   */\n      add\n        /* \"contracts/DTicket2_flattened.sol\":23002:23307  function supportsInterface(bytes4 interfaceId) public view virtual override(ERC165, IERC165) returns (bool) {... */\n      tag_25\n        /* \"#utility.yul\":1019:1206   */\n      jump\n        /* \"contracts/DTicket2_flattened.sol\":23706:23809  function uri(uint256) public view virtual override returns (string memory) {... */\n    tag_5:\n      tag_33\n      tag_34\n      calldatasize\n      0x04\n      tag_35\n      jump\t// in\n    tag_34:\n      tag_36\n      jump\t// in\n    tag_33:\n      mload(0x40)\n      tag_25\n      swap2\n      swap1\n      tag_38\n      jump\t// in\n        /* \"contracts/DTicket2_flattened.sol\":40264:40450  function mintBatch(address to, uint256[] memory ids, uint256[] memory amounts, bytes memory data)... */\n    tag_6:\n      tag_39\n      tag_40\n      calldatasize\n      0x04\n      tag_41\n      jump\t// in\n    tag_40:\n      tag_42\n      jump\t// in\n    tag_39:\n      stop\n        /* \"contracts/DTicket2_flattened.sol\":25808:26234  function safeBatchTransferFrom(... */\n    tag_7:\n      tag_39\n      tag_44\n      calldatasize\n      0x04\n      tag_45\n      jump\t// in\n    tag_44:\n      tag_46\n      jump\t// in\n        /* \"contracts/DTicket2_flattened.sol\":24335:24821  function balanceOfBatch(... */\n    tag_8:\n      tag_47\n      tag_48\n      calldatasize\n      0x04\n      tag_49\n      jump\t// in\n    tag_48:\n      tag_50\n      jump\t// in\n    tag_47:\n      mload(0x40)\n      tag_25\n      swap2\n      swap1\n      tag_52\n      jump\t// in\n        /* \"contracts/DTicket2_flattened.sol\":39599:39916  function burnBatch(address account, uint256[] memory ids, uint256[] memory values) public virtual {... */\n    tag_9:\n      tag_39\n      tag_54\n      calldatasize\n      0x04\n      tag_55\n      jump\t// in\n    tag_54:\n      tag_56\n      jump\t// in\n        /* \"contracts/DTicket2_flattened.sol\":2682:2783  function renounceOwnership() public virtual onlyOwner {... */\n    tag_10:\n      tag_39\n      tag_58\n      jump\t// in\n        /* \"contracts/DTicket2_flattened.sol\":40094:40258  function mint(address account, uint256 id, uint256 amount, bytes memory data)... */\n    tag_11:\n      tag_39\n      tag_60\n      calldatasize\n      0x04\n      tag_61\n      jump\t// in\n    tag_60:\n      tag_62\n      jump\t// in\n        /* \"contracts/DTicket2_flattened.sol\":2059:2144  function owner() public view virtual returns (address) {... */\n    tag_12:\n        /* \"contracts/DTicket2_flattened.sol\":2131:2137  _owner */\n      sload(0x03)\n        /* \"contracts/DTicket2_flattened.sol\":2059:2144  function owner() public view virtual returns (address) {... */\n      mload(0x40)\n      sub(shl(0xa0, 0x01), 0x01)\n        /* \"contracts/DTicket2_flattened.sol\":2131:2137  _owner */\n      swap1\n      swap2\n      and\n        /* \"#utility.yul\":9008:9059   */\n      dup2\n      mstore\n        /* \"#utility.yul\":8996:8998   */\n      0x20\n        /* \"#utility.yul\":8981:8999   */\n      add\n        /* \"contracts/DTicket2_flattened.sol\":2059:2144  function owner() public view virtual returns (address) {... */\n      tag_25\n        /* \"#utility.yul\":8862:9065   */\n      jump\n        /* \"contracts/DTicket2_flattened.sol\":24889:25042  function setApprovalForAll(address operator, bool approved) public virtual override {... */\n    tag_13:\n      tag_39\n      tag_68\n      calldatasize\n      0x04\n      tag_69\n      jump\t// in\n    tag_68:\n      tag_70\n      jump\t// in\n        /* \"contracts/DTicket2_flattened.sol\":25109:25275  function isApprovedForAll(address account, address operator) public view virtual override returns (bool) {... */\n    tag_14:\n      tag_27\n      tag_72\n      calldatasize\n      0x04\n      tag_73\n      jump\t// in\n    tag_72:\n      sub(shl(0xa0, 0x01), 0x01)\n        /* \"contracts/DTicket2_flattened.sol\":25231:25258  _operatorApprovals[account] */\n      swap2\n      dup3\n      and\n        /* \"contracts/DTicket2_flattened.sol\":25208:25212  bool */\n      0x00\n        /* \"contracts/DTicket2_flattened.sol\":25231:25258  _operatorApprovals[account] */\n      swap1\n      dup2\n      mstore\n        /* \"contracts/DTicket2_flattened.sol\":25231:25249  _operatorApprovals */\n      0x01\n        /* \"contracts/DTicket2_flattened.sol\":25231:25258  _operatorApprovals[account] */\n      0x20\n      swap1\n      dup2\n      mstore\n      0x40\n      dup1\n      dup4\n      keccak256\n        /* \"contracts/DTicket2_flattened.sol\":25231:25268  _operatorApprovals[account][operator] */\n      swap4\n      swap1\n      swap5\n      and\n      dup3\n      mstore\n      swap2\n      swap1\n      swap2\n      mstore\n      keccak256\n      sload\n      0xff\n      and\n      swap1\n        /* \"contracts/DTicket2_flattened.sol\":25109:25275  function isApprovedForAll(address account, address operator) public view virtual override returns (bool) {... */\n      jump\n        /* \"contracts/DTicket2_flattened.sol\":25342:25736  function safeTransferFrom(... */\n    tag_15:\n      tag_39\n      tag_77\n      calldatasize\n      0x04\n      tag_78\n      jump\t// in\n    tag_77:\n      tag_79\n      jump\t// in\n        /* \"contracts/DTicket2_flattened.sol\":2932:3130  function transferOwnership(address newOwner) public virtual onlyOwner {... */\n    tag_16:\n      tag_39\n      tag_81\n      calldatasize\n      0x04\n      tag_82\n      jump\t// in\n    tag_81:\n      tag_83\n      jump\t// in\n        /* \"contracts/DTicket2_flattened.sol\":39308:39593  function burn(address account, uint256 id, uint256 value) public virtual {... */\n    tag_17:\n      tag_39\n      tag_85\n      calldatasize\n      0x04\n      tag_86\n      jump\t// in\n    tag_85:\n      tag_87\n      jump\t// in\n        /* \"contracts/DTicket2_flattened.sol\":23951:24178  function balanceOf(address account, uint256 id) public view virtual override returns (uint256) {... */\n    tag_24:\n        /* \"contracts/DTicket2_flattened.sol\":24037:24044  uint256 */\n      0x00\n      sub(shl(0xa0, 0x01), 0x01)\n        /* \"contracts/DTicket2_flattened.sol\":24064:24085  account != address(0) */\n      dup4\n      and\n        /* \"contracts/DTicket2_flattened.sol\":24056:24132  require(account != address(0), \"ERC1155: address zero is not a valid owner\") */\n      tag_89\n      jumpi\n      mload(0x40)\n      shl(0xe5, 0x461bcd)\n      dup2\n      mstore\n        /* \"#utility.yul\":11018:11020   */\n      0x20\n        /* \"contracts/DTicket2_flattened.sol\":24056:24132  require(account != address(0), \"ERC1155: address zero is not a valid owner\") */\n      0x04\n      dup3\n      add\n        /* \"#utility.yul\":11000:11021   */\n      mstore\n        /* \"#utility.yul\":11057:11059   */\n      0x2a\n        /* \"#utility.yul\":11037:11055   */\n      0x24\n      dup3\n      add\n        /* \"#utility.yul\":11030:11060   */\n      mstore\n        /* \"#utility.yul\":11096:11130   */\n      0x455243313135353a2061646472657373207a65726f206973206e6f7420612076\n        /* \"#utility.yul\":11076:11094   */\n      0x44\n      dup3\n      add\n        /* \"#utility.yul\":11069:11131   */\n      mstore\n      shl(0xb1, 0x30b634b21037bbb732b9)\n        /* \"#utility.yul\":11147:11165   */\n      0x64\n      dup3\n      add\n        /* \"#utility.yul\":11140:11180   */\n      mstore\n        /* \"#utility.yul\":11197:11216   */\n      0x84\n      add\n        /* \"contracts/DTicket2_flattened.sol\":24056:24132  require(account != address(0), \"ERC1155: address zero is not a valid owner\") */\n    tag_90:\n      mload(0x40)\n      dup1\n      swap2\n      sub\n      swap1\n      revert\n    tag_89:\n      pop\n        /* \"contracts/DTicket2_flattened.sol\":24149:24158  _balances */\n      0x00\n        /* \"contracts/DTicket2_flattened.sol\":24149:24162  _balances[id] */\n      dup2\n      dup2\n      mstore\n      0x20\n      dup2\n      dup2\n      mstore\n      0x40\n      dup1\n      dup4\n      keccak256\n      sub(shl(0xa0, 0x01), 0x01)\n        /* \"contracts/DTicket2_flattened.sol\":24149:24171  _balances[id][account] */\n      dup7\n      and\n      dup5\n      mstore\n      swap1\n      swap2\n      mstore\n      swap1\n      keccak256\n      sload\n        /* \"contracts/DTicket2_flattened.sol\":23951:24178  function balanceOf(address account, uint256 id) public view virtual override returns (uint256) {... */\n    tag_88:\n      swap3\n      swap2\n      pop\n      pop\n      jump\t// out\n        /* \"contracts/DTicket2_flattened.sol\":23002:23307  function supportsInterface(bytes4 interfaceId) public view virtual override(ERC165, IERC165) returns (bool) {... */\n    tag_30:\n        /* \"contracts/DTicket2_flattened.sol\":23104:23108  bool */\n      0x00\n      not(sub(shl(0xe0, 0x01), 0x01))\n        /* \"contracts/DTicket2_flattened.sol\":23139:23180  interfaceId == type(IERC1155).interfaceId */\n      dup3\n      and\n      shl(0xe1, 0x6cdb3d13)\n      eq\n      dup1\n        /* \"contracts/DTicket2_flattened.sol\":23139:23248  interfaceId == type(IERC1155).interfaceId ||... */\n      tag_93\n      jumpi\n      pop\n      not(sub(shl(0xe0, 0x01), 0x01))\n        /* \"contracts/DTicket2_flattened.sol\":23196:23248  interfaceId == type(IERC1155MetadataURI).interfaceId */\n      dup3\n      and\n      shl(0xe2, 0x03a24d07)\n      eq\n        /* \"contracts/DTicket2_flattened.sol\":23139:23248  interfaceId == type(IERC1155).interfaceId ||... */\n    tag_93:\n        /* \"contracts/DTicket2_flattened.sol\":23139:23300  interfaceId == type(IERC1155).interfaceId ||... */\n      dup1\n      tag_88\n      jumpi\n      pop\n      shl(0xe0, 0x01ffc9a7)\n      not(sub(shl(0xe0, 0x01), 0x01))\n        /* \"contracts/DTicket2_flattened.sol\":14697:14737  interfaceId == type(IERC165).interfaceId */\n      dup4\n      and\n      eq\n        /* \"contracts/DTicket2_flattened.sol\":23264:23300  super.supportsInterface(interfaceId) */\n      tag_88\n        /* \"contracts/DTicket2_flattened.sol\":14589:14744  function supportsInterface(bytes4 interfaceId) public view virtual override returns (bool) {... */\n      jump\n        /* \"contracts/DTicket2_flattened.sol\":23706:23809  function uri(uint256) public view virtual override returns (string memory) {... */\n    tag_36:\n        /* \"contracts/DTicket2_flattened.sol\":23766:23779  string memory */\n      0x60\n        /* \"contracts/DTicket2_flattened.sol\":23798:23802  _uri */\n      0x02\n        /* \"contracts/DTicket2_flattened.sol\":23791:23802  return _uri */\n      dup1\n      sload\n      tag_98\n      swap1\n      tag_99\n      jump\t// in\n    tag_98:\n      dup1\n      0x1f\n      add\n      0x20\n      dup1\n      swap2\n      div\n      mul\n      0x20\n      add\n      mload(0x40)\n      swap1\n      dup2\n      add\n      0x40\n      mstore\n      dup1\n      swap3\n      swap2\n      swap1\n      dup2\n      dup2\n      mstore\n      0x20\n      add\n      dup3\n      dup1\n      sload\n      tag_100\n      swap1\n      tag_99\n      jump\t// in\n    tag_100:\n      dup1\n      iszero\n      tag_101\n      jumpi\n      dup1\n      0x1f\n      lt\n      tag_102\n      jumpi\n      0x0100\n      dup1\n      dup4\n      sload\n      div\n      mul\n      dup4\n      mstore\n      swap2\n      0x20\n      add\n      swap2\n      jump(tag_101)\n    tag_102:\n      dup3\n      add\n      swap2\n      swap1\n      0x00\n      mstore\n      keccak256(0x00, 0x20)\n      swap1\n    tag_103:\n      dup2\n      sload\n      dup2\n      mstore\n      swap1\n      0x01\n      add\n      swap1\n      0x20\n      add\n      dup1\n      dup4\n      gt\n      tag_103\n      jumpi\n      dup3\n      swap1\n      sub\n      0x1f\n      and\n      dup3\n      add\n      swap2\n    tag_101:\n      pop\n      pop\n      pop\n      pop\n      pop\n      swap1\n      pop\n        /* \"contracts/DTicket2_flattened.sol\":23706:23809  function uri(uint256) public view virtual override returns (string memory) {... */\n      swap2\n      swap1\n      pop\n      jump\t// out\n        /* \"contracts/DTicket2_flattened.sol\":40264:40450  function mintBatch(address to, uint256[] memory ids, uint256[] memory amounts, bytes memory data)... */\n    tag_42:\n        /* \"contracts/DTicket2_flattened.sol\":1952:1965  _checkOwner() */\n      tag_105\n        /* \"contracts/DTicket2_flattened.sol\":1952:1963  _checkOwner */\n      tag_106\n        /* \"contracts/DTicket2_flattened.sol\":1952:1965  _checkOwner() */\n      jump\t// in\n    tag_105:\n        /* \"contracts/DTicket2_flattened.sol\":40409:40443  _mintBatch(to, ids, amounts, data) */\n      tag_108\n        /* \"contracts/DTicket2_flattened.sol\":40420:40422  to */\n      dup5\n        /* \"contracts/DTicket2_flattened.sol\":40424:40427  ids */\n      dup5\n        /* \"contracts/DTicket2_flattened.sol\":40429:40436  amounts */\n      dup5\n        /* \"contracts/DTicket2_flattened.sol\":40438:40442  data */\n      dup5\n        /* \"contracts/DTicket2_flattened.sol\":40409:40419  _mintBatch */\n      tag_109\n        /* \"contracts/DTicket2_flattened.sol\":40409:40443  _mintBatch(to, ids, amounts, data) */\n      jump\t// in\n    tag_108:\n        /* \"contracts/DTicket2_flattened.sol\":40264:40450  function mintBatch(address to, uint256[] memory ids, uint256[] memory amounts, bytes memory data)... */\n      pop\n      pop\n      pop\n      pop\n      jump\t// out\n        /* \"contracts/DTicket2_flattened.sol\":25808:26234  function safeBatchTransferFrom(... */\n    tag_46:\n      sub(shl(0xa0, 0x01), 0x01)\n        /* \"contracts/DTicket2_flattened.sol\":26033:26053  from == _msgSender() */\n      dup6\n      and\n        /* \"contracts/DTicket2_flattened.sol\":741:751  msg.sender */\n      caller\n        /* \"contracts/DTicket2_flattened.sol\":26033:26053  from == _msgSender() */\n      eq\n      dup1\n        /* \"contracts/DTicket2_flattened.sol\":26033:26093  from == _msgSender() || isApprovedForAll(from, _msgSender()) */\n      tag_114\n      jumpi\n      pop\n        /* \"contracts/DTicket2_flattened.sol\":26057:26093  isApprovedForAll(from, _msgSender()) */\n      tag_114\n        /* \"contracts/DTicket2_flattened.sol\":26074:26078  from */\n      dup6\n        /* \"contracts/DTicket2_flattened.sol\":741:751  msg.sender */\n      caller\n        /* \"contracts/DTicket2_flattened.sol\":25109:25275  function isApprovedForAll(address account, address operator) public view virtual override returns (bool) {... */\n      tag_72\n      jump\t// in\n        /* \"contracts/DTicket2_flattened.sol\":26057:26093  isApprovedForAll(from, _msgSender()) */\n    tag_114:\n        /* \"contracts/DTicket2_flattened.sol\":26012:26165  require(... */\n      tag_116\n      jumpi\n      mload(0x40)\n      shl(0xe5, 0x461bcd)\n      dup2\n      mstore\n      0x04\n      add\n      tag_90\n      swap1\n      tag_118\n      jump\t// in\n    tag_116:\n        /* \"contracts/DTicket2_flattened.sol\":26175:26227  _safeBatchTransferFrom(from, to, ids, amounts, data) */\n      tag_119\n        /* \"contracts/DTicket2_flattened.sol\":26198:26202  from */\n      dup6\n        /* \"contracts/DTicket2_flattened.sol\":26204:26206  to */\n      dup6\n        /* \"contracts/DTicket2_flattened.sol\":26208:26211  ids */\n      dup6\n        /* \"contracts/DTicket2_flattened.sol\":26213:26220  amounts */\n      dup6\n        /* \"contracts/DTicket2_flattened.sol\":26222:26226  data */\n      dup6\n        /* \"contracts/DTicket2_flattened.sol\":26175:26197  _safeBatchTransferFrom */\n      tag_120\n        /* \"contracts/DTicket2_flattened.sol\":26175:26227  _safeBatchTransferFrom(from, to, ids, amounts, data) */\n      jump\t// in\n    tag_119:\n        /* \"contracts/DTicket2_flattened.sol\":25808:26234  function safeBatchTransferFrom(... */\n      pop\n      pop\n      pop\n      pop\n      pop\n      jump\t// out\n        /* \"contracts/DTicket2_flattened.sol\":24335:24821  function balanceOfBatch(... */\n    tag_50:\n        /* \"contracts/DTicket2_flattened.sol\":24468:24484  uint256[] memory */\n      0x60\n        /* \"contracts/DTicket2_flattened.sol\":24523:24526  ids */\n      dup2\n        /* \"contracts/DTicket2_flattened.sol\":24523:24533  ids.length */\n      mload\n        /* \"contracts/DTicket2_flattened.sol\":24504:24512  accounts */\n      dup4\n        /* \"contracts/DTicket2_flattened.sol\":24504:24519  accounts.length */\n      mload\n        /* \"contracts/DTicket2_flattened.sol\":24504:24533  accounts.length == ids.length */\n      eq\n        /* \"contracts/DTicket2_flattened.sol\":24496:24579  require(accounts.length == ids.length, \"ERC1155: accounts and ids length mismatch\") */\n      tag_122\n      jumpi\n      mload(0x40)\n      shl(0xe5, 0x461bcd)\n      dup2\n      mstore\n        /* \"#utility.yul\":12229:12231   */\n      0x20\n        /* \"contracts/DTicket2_flattened.sol\":24496:24579  require(accounts.length == ids.length, \"ERC1155: accounts and ids length mismatch\") */\n      0x04\n      dup3\n      add\n        /* \"#utility.yul\":12211:12232   */\n      mstore\n        /* \"#utility.yul\":12268:12270   */\n      0x29\n        /* \"#utility.yul\":12248:12266   */\n      0x24\n      dup3\n      add\n        /* \"#utility.yul\":12241:12271   */\n      mstore\n        /* \"#utility.yul\":12307:12341   */\n      0x455243313135353a206163636f756e747320616e6420696473206c656e677468\n        /* \"#utility.yul\":12287:12305   */\n      0x44\n      dup3\n      add\n        /* \"#utility.yul\":12280:12342   */\n      mstore\n      shl(0xbb, 0x040dad2e6dac2e8c6d)\n        /* \"#utility.yul\":12358:12376   */\n      0x64\n      dup3\n      add\n        /* \"#utility.yul\":12351:12390   */\n      mstore\n        /* \"#utility.yul\":12407:12426   */\n      0x84\n      add\n        /* \"contracts/DTicket2_flattened.sol\":24496:24579  require(accounts.length == ids.length, \"ERC1155: accounts and ids length mismatch\") */\n      tag_90\n        /* \"#utility.yul\":12027:12432   */\n      jump\n        /* \"contracts/DTicket2_flattened.sol\":24496:24579  require(accounts.length == ids.length, \"ERC1155: accounts and ids length mismatch\") */\n    tag_122:\n        /* \"contracts/DTicket2_flattened.sol\":24590:24620  uint256[] memory batchBalances */\n      0x00\n        /* \"contracts/DTicket2_flattened.sol\":24637:24645  accounts */\n      dup4\n        /* \"contracts/DTicket2_flattened.sol\":24637:24652  accounts.length */\n      mload\n        /* \"contracts/DTicket2_flattened.sol\":24623:24653  new uint256[](accounts.length) */\n      0xffffffffffffffff\n      dup2\n      gt\n      iszero\n      tag_126\n      jumpi\n      tag_126\n      tag_127\n      jump\t// in\n    tag_126:\n      mload(0x40)\n      swap1\n      dup1\n      dup3\n      mstore\n      dup1\n      0x20\n      mul\n      0x20\n      add\n      dup3\n      add\n      0x40\n      mstore\n      dup1\n      iszero\n      tag_128\n      jumpi\n      dup2\n      0x20\n      add\n      0x20\n      dup3\n      mul\n      dup1\n      calldatasize\n      dup4\n      calldatacopy\n      add\n      swap1\n      pop\n    tag_128:\n      pop\n        /* \"contracts/DTicket2_flattened.sol\":24590:24653  uint256[] memory batchBalances = new uint256[](accounts.length) */\n      swap1\n      pop\n        /* \"contracts/DTicket2_flattened.sol\":24669:24678  uint256 i */\n      0x00\n        /* \"contracts/DTicket2_flattened.sol\":24664:24784  for (uint256 i = 0; i < accounts.length; ++i) {... */\n    tag_129:\n        /* \"contracts/DTicket2_flattened.sol\":24688:24696  accounts */\n      dup5\n        /* \"contracts/DTicket2_flattened.sol\":24688:24703  accounts.length */\n      mload\n        /* \"contracts/DTicket2_flattened.sol\":24684:24685  i */\n      dup2\n        /* \"contracts/DTicket2_flattened.sol\":24684:24703  i < accounts.length */\n      lt\n        /* \"contracts/DTicket2_flattened.sol\":24664:24784  for (uint256 i = 0; i < accounts.length; ++i) {... */\n      iszero\n      tag_130\n      jumpi\n        /* \"contracts/DTicket2_flattened.sol\":24743:24773  balanceOf(accounts[i], ids[i]) */\n      tag_132\n        /* \"contracts/DTicket2_flattened.sol\":24753:24761  accounts */\n      dup6\n        /* \"contracts/DTicket2_flattened.sol\":24762:24763  i */\n      dup3\n        /* \"contracts/DTicket2_flattened.sol\":24753:24764  accounts[i] */\n      dup2\n      mload\n      dup2\n      lt\n      tag_134\n      jumpi\n      tag_134\n      tag_135\n      jump\t// in\n    tag_134:\n      0x20\n      mul\n      0x20\n      add\n      add\n      mload\n        /* \"contracts/DTicket2_flattened.sol\":24766:24769  ids */\n      dup6\n        /* \"contracts/DTicket2_flattened.sol\":24770:24771  i */\n      dup4\n        /* \"contracts/DTicket2_flattened.sol\":24766:24772  ids[i] */\n      dup2\n      mload\n      dup2\n      lt\n      tag_137\n      jumpi\n      tag_137\n      tag_135\n      jump\t// in\n    tag_137:\n      0x20\n      mul\n      0x20\n      add\n      add\n      mload\n        /* \"contracts/DTicket2_flattened.sol\":24743:24752  balanceOf */\n      tag_24\n        /* \"contracts/DTicket2_flattened.sol\":24743:24773  balanceOf(accounts[i], ids[i]) */\n      jump\t// in\n    tag_132:\n        /* \"contracts/DTicket2_flattened.sol\":24724:24737  batchBalances */\n      dup3\n        /* \"contracts/DTicket2_flattened.sol\":24738:24739  i */\n      dup3\n        /* \"contracts/DTicket2_flattened.sol\":24724:24740  batchBalances[i] */\n      dup2\n      mload\n      dup2\n      lt\n      tag_139\n      jumpi\n      tag_139\n      tag_135\n      jump\t// in\n    tag_139:\n      0x20\n      swap1\n      dup2\n      mul\n      swap2\n      swap1\n      swap2\n      add\n      add\n        /* \"contracts/DTicket2_flattened.sol\":24724:24773  batchBalances[i] = balanceOf(accounts[i], ids[i]) */\n      mstore\n        /* \"contracts/DTicket2_flattened.sol\":24705:24708  ++i */\n      tag_140\n      dup2\n      tag_141\n      jump\t// in\n    tag_140:\n      swap1\n      pop\n        /* \"contracts/DTicket2_flattened.sol\":24664:24784  for (uint256 i = 0; i < accounts.length; ++i) {... */\n      jump(tag_129)\n    tag_130:\n      pop\n        /* \"contracts/DTicket2_flattened.sol\":24801:24814  batchBalances */\n      swap4\n        /* \"contracts/DTicket2_flattened.sol\":24335:24821  function balanceOfBatch(... */\n      swap3\n      pop\n      pop\n      pop\n      jump\t// out\n        /* \"contracts/DTicket2_flattened.sol\":39599:39916  function burnBatch(address account, uint256[] memory ids, uint256[] memory values) public virtual {... */\n    tag_56:\n      sub(shl(0xa0, 0x01), 0x01)\n        /* \"contracts/DTicket2_flattened.sol\":39728:39751  account == _msgSender() */\n      dup4\n      and\n        /* \"contracts/DTicket2_flattened.sol\":741:751  msg.sender */\n      caller\n        /* \"contracts/DTicket2_flattened.sol\":39728:39751  account == _msgSender() */\n      eq\n      dup1\n        /* \"contracts/DTicket2_flattened.sol\":39728:39794  account == _msgSender() || isApprovedForAll(account, _msgSender()) */\n      tag_145\n      jumpi\n      pop\n        /* \"contracts/DTicket2_flattened.sol\":39755:39794  isApprovedForAll(account, _msgSender()) */\n      tag_145\n        /* \"contracts/DTicket2_flattened.sol\":39772:39779  account */\n      dup4\n        /* \"contracts/DTicket2_flattened.sol\":741:751  msg.sender */\n      caller\n        /* \"contracts/DTicket2_flattened.sol\":25109:25275  function isApprovedForAll(address account, address operator) public view virtual override returns (bool) {... */\n      tag_72\n      jump\t// in\n        /* \"contracts/DTicket2_flattened.sol\":39755:39794  isApprovedForAll(account, _msgSender()) */\n    tag_145:\n        /* \"contracts/DTicket2_flattened.sol\":39707:39866  require(... */\n      tag_147\n      jumpi\n      mload(0x40)\n      shl(0xe5, 0x461bcd)\n      dup2\n      mstore\n      0x04\n      add\n      tag_90\n      swap1\n      tag_118\n      jump\t// in\n    tag_147:\n        /* \"contracts/DTicket2_flattened.sol\":39877:39909  _burnBatch(account, ids, values) */\n      tag_149\n        /* \"contracts/DTicket2_flattened.sol\":39888:39895  account */\n      dup4\n        /* \"contracts/DTicket2_flattened.sol\":39897:39900  ids */\n      dup4\n        /* \"contracts/DTicket2_flattened.sol\":39902:39908  values */\n      dup4\n        /* \"contracts/DTicket2_flattened.sol\":39877:39887  _burnBatch */\n      tag_150\n        /* \"contracts/DTicket2_flattened.sol\":39877:39909  _burnBatch(account, ids, values) */\n      jump\t// in\n    tag_149:\n        /* \"contracts/DTicket2_flattened.sol\":39599:39916  function burnBatch(address account, uint256[] memory ids, uint256[] memory values) public virtual {... */\n      pop\n      pop\n      pop\n      jump\t// out\n        /* \"contracts/DTicket2_flattened.sol\":2682:2783  function renounceOwnership() public virtual onlyOwner {... */\n    tag_58:\n        /* \"contracts/DTicket2_flattened.sol\":1952:1965  _checkOwner() */\n      tag_152\n        /* \"contracts/DTicket2_flattened.sol\":1952:1963  _checkOwner */\n      tag_106\n        /* \"contracts/DTicket2_flattened.sol\":1952:1965  _checkOwner() */\n      jump\t// in\n    tag_152:\n        /* \"contracts/DTicket2_flattened.sol\":2746:2776  _transferOwnership(address(0)) */\n      tag_154\n        /* \"contracts/DTicket2_flattened.sol\":2773:2774  0 */\n      0x00\n        /* \"contracts/DTicket2_flattened.sol\":2746:2764  _transferOwnership */\n      tag_155\n        /* \"contracts/DTicket2_flattened.sol\":2746:2776  _transferOwnership(address(0)) */\n      jump\t// in\n    tag_154:\n        /* \"contracts/DTicket2_flattened.sol\":2682:2783  function renounceOwnership() public virtual onlyOwner {... */\n      jump\t// out\n        /* \"contracts/DTicket2_flattened.sol\":40094:40258  function mint(address account, uint256 id, uint256 amount, bytes memory data)... */\n    tag_62:\n        /* \"contracts/DTicket2_flattened.sol\":1952:1965  _checkOwner() */\n      tag_157\n        /* \"contracts/DTicket2_flattened.sol\":1952:1963  _checkOwner */\n      tag_106\n        /* \"contracts/DTicket2_flattened.sol\":1952:1965  _checkOwner() */\n      jump\t// in\n    tag_157:\n        /* \"contracts/DTicket2_flattened.sol\":40219:40251  _mint(account, id, amount, data) */\n      tag_108\n        /* \"contracts/DTicket2_flattened.sol\":40225:40232  account */\n      dup5\n        /* \"contracts/DTicket2_flattened.sol\":40234:40236  id */\n      dup5\n        /* \"contracts/DTicket2_flattened.sol\":40238:40244  amount */\n      dup5\n        /* \"contracts/DTicket2_flattened.sol\":40246:40250  data */\n      dup5\n        /* \"contracts/DTicket2_flattened.sol\":40219:40224  _mint */\n      tag_160\n        /* \"contracts/DTicket2_flattened.sol\":40219:40251  _mint(account, id, amount, data) */\n      jump\t// in\n        /* \"contracts/DTicket2_flattened.sol\":24889:25042  function setApprovalForAll(address operator, bool approved) public virtual override {... */\n    tag_70:\n        /* \"contracts/DTicket2_flattened.sol\":24983:25035  _setApprovalForAll(_msgSender(), operator, approved) */\n      tag_163\n        /* \"contracts/DTicket2_flattened.sol\":741:751  msg.sender */\n      caller\n        /* \"contracts/DTicket2_flattened.sol\":25016:25024  operator */\n      dup4\n        /* \"contracts/DTicket2_flattened.sol\":25026:25034  approved */\n      dup4\n        /* \"contracts/DTicket2_flattened.sol\":24983:25001  _setApprovalForAll */\n      tag_165\n        /* \"contracts/DTicket2_flattened.sol\":24983:25035  _setApprovalForAll(_msgSender(), operator, approved) */\n      jump\t// in\n    tag_163:\n        /* \"contracts/DTicket2_flattened.sol\":24889:25042  function setApprovalForAll(address operator, bool approved) public virtual override {... */\n      pop\n      pop\n      jump\t// out\n        /* \"contracts/DTicket2_flattened.sol\":25342:25736  function safeTransferFrom(... */\n    tag_79:\n      sub(shl(0xa0, 0x01), 0x01)\n        /* \"contracts/DTicket2_flattened.sol\":25542:25562  from == _msgSender() */\n      dup6\n      and\n        /* \"contracts/DTicket2_flattened.sol\":741:751  msg.sender */\n      caller\n        /* \"contracts/DTicket2_flattened.sol\":25542:25562  from == _msgSender() */\n      eq\n      dup1\n        /* \"contracts/DTicket2_flattened.sol\":25542:25602  from == _msgSender() || isApprovedForAll(from, _msgSender()) */\n      tag_170\n      jumpi\n      pop\n        /* \"contracts/DTicket2_flattened.sol\":25566:25602  isApprovedForAll(from, _msgSender()) */\n      tag_170\n        /* \"contracts/DTicket2_flattened.sol\":25583:25587  from */\n      dup6\n        /* \"contracts/DTicket2_flattened.sol\":741:751  msg.sender */\n      caller\n        /* \"contracts/DTicket2_flattened.sol\":25109:25275  function isApprovedForAll(address account, address operator) public view virtual override returns (bool) {... */\n      tag_72\n      jump\t// in\n        /* \"contracts/DTicket2_flattened.sol\":25566:25602  isApprovedForAll(from, _msgSender()) */\n    tag_170:\n        /* \"contracts/DTicket2_flattened.sol\":25521:25674  require(... */\n      tag_172\n      jumpi\n      mload(0x40)\n      shl(0xe5, 0x461bcd)\n      dup2\n      mstore\n      0x04\n      add\n      tag_90\n      swap1\n      tag_118\n      jump\t// in\n    tag_172:\n        /* \"contracts/DTicket2_flattened.sol\":25684:25729  _safeTransferFrom(from, to, id, amount, data) */\n      tag_119\n        /* \"contracts/DTicket2_flattened.sol\":25702:25706  from */\n      dup6\n        /* \"contracts/DTicket2_flattened.sol\":25708:25710  to */\n      dup6\n        /* \"contracts/DTicket2_flattened.sol\":25712:25714  id */\n      dup6\n        /* \"contracts/DTicket2_flattened.sol\":25716:25722  amount */\n      dup6\n        /* \"contracts/DTicket2_flattened.sol\":25724:25728  data */\n      dup6\n        /* \"contracts/DTicket2_flattened.sol\":25684:25701  _safeTransferFrom */\n      tag_175\n        /* \"contracts/DTicket2_flattened.sol\":25684:25729  _safeTransferFrom(from, to, id, amount, data) */\n      jump\t// in\n        /* \"contracts/DTicket2_flattened.sol\":2932:3130  function transferOwnership(address newOwner) public virtual onlyOwner {... */\n    tag_83:\n        /* \"contracts/DTicket2_flattened.sol\":1952:1965  _checkOwner() */\n      tag_177\n        /* \"contracts/DTicket2_flattened.sol\":1952:1963  _checkOwner */\n      tag_106\n        /* \"contracts/DTicket2_flattened.sol\":1952:1965  _checkOwner() */\n      jump\t// in\n    tag_177:\n      sub(shl(0xa0, 0x01), 0x01)\n        /* \"contracts/DTicket2_flattened.sol\":3020:3042  newOwner != address(0) */\n      dup2\n      and\n        /* \"contracts/DTicket2_flattened.sol\":3012:3085  require(newOwner != address(0), \"Ownable: new owner is the zero address\") */\n      tag_179\n      jumpi\n      mload(0x40)\n      shl(0xe5, 0x461bcd)\n      dup2\n      mstore\n        /* \"#utility.yul\":13043:13045   */\n      0x20\n        /* \"contracts/DTicket2_flattened.sol\":3012:3085  require(newOwner != address(0), \"Ownable: new owner is the zero address\") */\n      0x04\n      dup3\n      add\n        /* \"#utility.yul\":13025:13046   */\n      mstore\n        /* \"#utility.yul\":13082:13084   */\n      0x26\n        /* \"#utility.yul\":13062:13080   */\n      0x24\n      dup3\n      add\n        /* \"#utility.yul\":13055:13085   */\n      mstore\n        /* \"#utility.yul\":13121:13155   */\n      0x4f776e61626c653a206e6577206f776e657220697320746865207a65726f2061\n        /* \"#utility.yul\":13101:13119   */\n      0x44\n      dup3\n      add\n        /* \"#utility.yul\":13094:13156   */\n      mstore\n      shl(0xd0, 0x646472657373)\n        /* \"#utility.yul\":13172:13190   */\n      0x64\n      dup3\n      add\n        /* \"#utility.yul\":13165:13201   */\n      mstore\n        /* \"#utility.yul\":13218:13237   */\n      0x84\n      add\n        /* \"contracts/DTicket2_flattened.sol\":3012:3085  require(newOwner != address(0), \"Ownable: new owner is the zero address\") */\n      tag_90\n        /* \"#utility.yul\":12841:13243   */\n      jump\n        /* \"contracts/DTicket2_flattened.sol\":3012:3085  require(newOwner != address(0), \"Ownable: new owner is the zero address\") */\n    tag_179:\n        /* \"contracts/DTicket2_flattened.sol\":3095:3123  _transferOwnership(newOwner) */\n      tag_182\n        /* \"contracts/DTicket2_flattened.sol\":3114:3122  newOwner */\n      dup2\n        /* \"contracts/DTicket2_flattened.sol\":3095:3113  _transferOwnership */\n      tag_155\n        /* \"contracts/DTicket2_flattened.sol\":3095:3123  _transferOwnership(newOwner) */\n      jump\t// in\n    tag_182:\n        /* \"contracts/DTicket2_flattened.sol\":2932:3130  function transferOwnership(address newOwner) public virtual onlyOwner {... */\n      pop\n      jump\t// out\n        /* \"contracts/DTicket2_flattened.sol\":39308:39593  function burn(address account, uint256 id, uint256 value) public virtual {... */\n    tag_87:\n      sub(shl(0xa0, 0x01), 0x01)\n        /* \"contracts/DTicket2_flattened.sol\":39412:39435  account == _msgSender() */\n      dup4\n      and\n        /* \"contracts/DTicket2_flattened.sol\":741:751  msg.sender */\n      caller\n        /* \"contracts/DTicket2_flattened.sol\":39412:39435  account == _msgSender() */\n      eq\n      dup1\n        /* \"contracts/DTicket2_flattened.sol\":39412:39478  account == _msgSender() || isApprovedForAll(account, _msgSender()) */\n      tag_186\n      jumpi\n      pop\n        /* \"contracts/DTicket2_flattened.sol\":39439:39478  isApprovedForAll(account, _msgSender()) */\n      tag_186\n        /* \"contracts/DTicket2_flattened.sol\":39456:39463  account */\n      dup4\n        /* \"contracts/DTicket2_flattened.sol\":741:751  msg.sender */\n      caller\n        /* \"contracts/DTicket2_flattened.sol\":25109:25275  function isApprovedForAll(address account, address operator) public view virtual override returns (bool) {... */\n      tag_72\n      jump\t// in\n        /* \"contracts/DTicket2_flattened.sol\":39439:39478  isApprovedForAll(account, _msgSender()) */\n    tag_186:\n        /* \"contracts/DTicket2_flattened.sol\":39391:39550  require(... */\n      tag_188\n      jumpi\n      mload(0x40)\n      shl(0xe5, 0x461bcd)\n      dup2\n      mstore\n      0x04\n      add\n      tag_90\n      swap1\n      tag_118\n      jump\t// in\n    tag_188:\n        /* \"contracts/DTicket2_flattened.sol\":39561:39586  _burn(account, id, value) */\n      tag_149\n        /* \"contracts/DTicket2_flattened.sol\":39567:39574  account */\n      dup4\n        /* \"contracts/DTicket2_flattened.sol\":39576:39578  id */\n      dup4\n        /* \"contracts/DTicket2_flattened.sol\":39580:39585  value */\n      dup4\n        /* \"contracts/DTicket2_flattened.sol\":39561:39566  _burn */\n      tag_191\n        /* \"contracts/DTicket2_flattened.sol\":39561:39586  _burn(account, id, value) */\n      jump\t// in\n        /* \"contracts/DTicket2_flattened.sol\":2217:2347  function _checkOwner() internal view virtual {... */\n    tag_106:\n        /* \"contracts/DTicket2_flattened.sol\":2131:2137  _owner */\n      and(sub(shl(0xa0, 0x01), 0x01), sload(0x03))\n        /* \"contracts/DTicket2_flattened.sol\":741:751  msg.sender */\n      caller\n        /* \"contracts/DTicket2_flattened.sol\":2280:2303  owner() == _msgSender() */\n      eq\n        /* \"contracts/DTicket2_flattened.sol\":2272:2340  require(owner() == _msgSender(), \"Ownable: caller is not the owner\") */\n      tag_154\n      jumpi\n      mload(0x40)\n      shl(0xe5, 0x461bcd)\n      dup2\n      mstore\n        /* \"#utility.yul\":13450:13452   */\n      0x20\n        /* \"contracts/DTicket2_flattened.sol\":2272:2340  require(owner() == _msgSender(), \"Ownable: caller is not the owner\") */\n      0x04\n      dup3\n      add\n        /* \"#utility.yul\":13432:13453   */\n      dup2\n      swap1\n      mstore\n        /* \"#utility.yul\":13469:13487   */\n      0x24\n      dup3\n      add\n        /* \"#utility.yul\":13462:13492   */\n      mstore\n        /* \"#utility.yul\":13528:13562   */\n      0x4f776e61626c653a2063616c6c6572206973206e6f7420746865206f776e6572\n        /* \"#utility.yul\":13508:13526   */\n      0x44\n      dup3\n      add\n        /* \"#utility.yul\":13501:13563   */\n      mstore\n        /* \"#utility.yul\":13580:13598   */\n      0x64\n      add\n        /* \"contracts/DTicket2_flattened.sol\":2272:2340  require(owner() == _msgSender(), \"Ownable: caller is not the owner\") */\n      tag_90\n        /* \"#utility.yul\":13248:13604   */\n      jump\n        /* \"contracts/DTicket2_flattened.sol\":31435:32226  function _mintBatch(... */\n    tag_109:\n      sub(shl(0xa0, 0x01), 0x01)\n        /* \"contracts/DTicket2_flattened.sol\":31607:31623  to != address(0) */\n      dup5\n      and\n        /* \"contracts/DTicket2_flattened.sol\":31599:31661  require(to != address(0), \"ERC1155: mint to the zero address\") */\n      tag_200\n      jumpi\n      mload(0x40)\n      shl(0xe5, 0x461bcd)\n      dup2\n      mstore\n      0x04\n      add\n      tag_90\n      swap1\n      tag_202\n      jump\t// in\n    tag_200:\n        /* \"contracts/DTicket2_flattened.sol\":31693:31700  amounts */\n      dup2\n        /* \"contracts/DTicket2_flattened.sol\":31693:31707  amounts.length */\n      mload\n        /* \"contracts/DTicket2_flattened.sol\":31679:31682  ids */\n      dup4\n        /* \"contracts/DTicket2_flattened.sol\":31679:31689  ids.length */\n      mload\n        /* \"contracts/DTicket2_flattened.sol\":31679:31707  ids.length == amounts.length */\n      eq\n        /* \"contracts/DTicket2_flattened.sol\":31671:31752  require(ids.length == amounts.length, \"ERC1155: ids and amounts length mismatch\") */\n      tag_203\n      jumpi\n      mload(0x40)\n      shl(0xe5, 0x461bcd)\n      dup2\n      mstore\n      0x04\n      add\n      tag_90\n      swap1\n      tag_205\n      jump\t// in\n    tag_203:\n        /* \"contracts/DTicket2_flattened.sol\":741:751  msg.sender */\n      caller\n        /* \"contracts/DTicket2_flattened.sol\":31763:31779  address operator */\n      0x00\n        /* \"contracts/DTicket2_flattened.sol\":31882:31983  for (uint256 i = 0; i < ids.length; i++) {... */\n    tag_209:\n        /* \"contracts/DTicket2_flattened.sol\":31906:31909  ids */\n      dup5\n        /* \"contracts/DTicket2_flattened.sol\":31906:31916  ids.length */\n      mload\n        /* \"contracts/DTicket2_flattened.sol\":31902:31903  i */\n      dup2\n        /* \"contracts/DTicket2_flattened.sol\":31902:31916  i < ids.length */\n      lt\n        /* \"contracts/DTicket2_flattened.sol\":31882:31983  for (uint256 i = 0; i < ids.length; i++) {... */\n      iszero\n      tag_210\n      jumpi\n        /* \"contracts/DTicket2_flattened.sol\":31962:31969  amounts */\n      dup4\n        /* \"contracts/DTicket2_flattened.sol\":31970:31971  i */\n      dup2\n        /* \"contracts/DTicket2_flattened.sol\":31962:31972  amounts[i] */\n      dup2\n      mload\n      dup2\n      lt\n      tag_213\n      jumpi\n      tag_213\n      tag_135\n      jump\t// in\n    tag_213:\n      0x20\n      mul\n      0x20\n      add\n      add\n      mload\n        /* \"contracts/DTicket2_flattened.sol\":31937:31946  _balances */\n      0x00\n        /* \"contracts/DTicket2_flattened.sol\":31937:31954  _balances[ids[i]] */\n      dup1\n        /* \"contracts/DTicket2_flattened.sol\":31947:31950  ids */\n      dup8\n        /* \"contracts/DTicket2_flattened.sol\":31951:31952  i */\n      dup5\n        /* \"contracts/DTicket2_flattened.sol\":31947:31953  ids[i] */\n      dup2\n      mload\n      dup2\n      lt\n      tag_215\n      jumpi\n      tag_215\n      tag_135\n      jump\t// in\n    tag_215:\n      0x20\n      mul\n      0x20\n      add\n      add\n      mload\n        /* \"contracts/DTicket2_flattened.sol\":31937:31954  _balances[ids[i]] */\n      dup2\n      mstore\n      0x20\n      add\n      swap1\n      dup2\n      mstore\n      0x20\n      add\n      0x00\n      keccak256\n        /* \"contracts/DTicket2_flattened.sol\":31937:31958  _balances[ids[i]][to] */\n      0x00\n        /* \"contracts/DTicket2_flattened.sol\":31955:31957  to */\n      dup9\n      sub(shl(0xa0, 0x01), 0x01)\n        /* \"contracts/DTicket2_flattened.sol\":31937:31958  _balances[ids[i]][to] */\n      and\n      sub(shl(0xa0, 0x01), 0x01)\n      and\n      dup2\n      mstore\n      0x20\n      add\n      swap1\n      dup2\n      mstore\n      0x20\n      add\n      0x00\n      keccak256\n      0x00\n        /* \"contracts/DTicket2_flattened.sol\":31937:31972  _balances[ids[i]][to] += amounts[i] */\n      dup3\n      dup3\n      sload\n      tag_216\n      swap2\n      swap1\n      tag_217\n      jump\t// in\n    tag_216:\n      swap1\n      swap2\n      sstore\n      pop\n        /* \"contracts/DTicket2_flattened.sol\":31918:31921  i++ */\n      dup2\n      swap1\n      pop\n      tag_218\n      dup2\n      tag_141\n      jump\t// in\n    tag_218:\n      swap2\n      pop\n      pop\n        /* \"contracts/DTicket2_flattened.sol\":31882:31983  for (uint256 i = 0; i < ids.length; i++) {... */\n      jump(tag_209)\n    tag_210:\n      pop\n        /* \"contracts/DTicket2_flattened.sol\":32034:32036  to */\n      dup5\n      sub(shl(0xa0, 0x01), 0x01)\n        /* \"contracts/DTicket2_flattened.sol\":31998:32051  TransferBatch(operator, address(0), to, ids, amounts) */\n      and\n        /* \"contracts/DTicket2_flattened.sol\":32030:32031  0 */\n      0x00\n      sub(shl(0xa0, 0x01), 0x01)\n        /* \"contracts/DTicket2_flattened.sol\":31998:32051  TransferBatch(operator, address(0), to, ids, amounts) */\n      and\n        /* \"contracts/DTicket2_flattened.sol\":32012:32020  operator */\n      dup3\n      sub(shl(0xa0, 0x01), 0x01)\n        /* \"contracts/DTicket2_flattened.sol\":31998:32051  TransferBatch(operator, address(0), to, ids, amounts) */\n      and\n      0x4a39dc06d4c0dbc64b70af90fd698a233a518aa5d07e595d983b8c0526c8f7fb\n        /* \"contracts/DTicket2_flattened.sol\":32038:32041  ids */\n      dup8\n        /* \"contracts/DTicket2_flattened.sol\":32043:32050  amounts */\n      dup8\n        /* \"contracts/DTicket2_flattened.sol\":31998:32051  TransferBatch(operator, address(0), to, ids, amounts) */\n      mload(0x40)\n      tag_219\n      swap3\n      swap2\n      swap1\n      tag_220\n      jump\t// in\n    tag_219:\n      mload(0x40)\n      dup1\n      swap2\n      sub\n      swap1\n      log4\n        /* \"contracts/DTicket2_flattened.sol\":32138:32219  _doSafeBatchTransferAcceptanceCheck(operator, address(0), to, ids, amounts, data) */\n      tag_119\n        /* \"contracts/DTicket2_flattened.sol\":32174:32182  operator */\n      dup2\n        /* \"contracts/DTicket2_flattened.sol\":32192:32193  0 */\n      0x00\n        /* \"contracts/DTicket2_flattened.sol\":32196:32198  to */\n      dup8\n        /* \"contracts/DTicket2_flattened.sol\":32200:32203  ids */\n      dup8\n        /* \"contracts/DTicket2_flattened.sol\":32205:32212  amounts */\n      dup8\n        /* \"contracts/DTicket2_flattened.sol\":32214:32218  data */\n      dup8\n        /* \"contracts/DTicket2_flattened.sol\":32138:32173  _doSafeBatchTransferAcceptanceCheck */\n      tag_224\n        /* \"contracts/DTicket2_flattened.sol\":32138:32219  _doSafeBatchTransferAcceptanceCheck(operator, address(0), to, ids, amounts, data) */\n      jump\t// in\n        /* \"contracts/DTicket2_flattened.sol\":27977:29092  function _safeBatchTransferFrom(... */\n    tag_120:\n        /* \"contracts/DTicket2_flattened.sol\":28197:28204  amounts */\n      dup2\n        /* \"contracts/DTicket2_flattened.sol\":28197:28211  amounts.length */\n      mload\n        /* \"contracts/DTicket2_flattened.sol\":28183:28186  ids */\n      dup4\n        /* \"contracts/DTicket2_flattened.sol\":28183:28193  ids.length */\n      mload\n        /* \"contracts/DTicket2_flattened.sol\":28183:28211  ids.length == amounts.length */\n      eq\n        /* \"contracts/DTicket2_flattened.sol\":28175:28256  require(ids.length == amounts.length, \"ERC1155: ids and amounts length mismatch\") */\n      tag_227\n      jumpi\n      mload(0x40)\n      shl(0xe5, 0x461bcd)\n      dup2\n      mstore\n      0x04\n      add\n      tag_90\n      swap1\n      tag_205\n      jump\t// in\n    tag_227:\n      sub(shl(0xa0, 0x01), 0x01)\n        /* \"contracts/DTicket2_flattened.sol\":28274:28290  to != address(0) */\n      dup5\n      and\n        /* \"contracts/DTicket2_flattened.sol\":28266:28332  require(to != address(0), \"ERC1155: transfer to the zero address\") */\n      tag_229\n      jumpi\n      mload(0x40)\n      shl(0xe5, 0x461bcd)\n      dup2\n      mstore\n      0x04\n      add\n      tag_90\n      swap1\n      tag_231\n      jump\t// in\n    tag_229:\n        /* \"contracts/DTicket2_flattened.sol\":741:751  msg.sender */\n      caller\n        /* \"contracts/DTicket2_flattened.sol\":28343:28359  address operator */\n      0x00\n        /* \"contracts/DTicket2_flattened.sol\":28456:28867  for (uint256 i = 0; i < ids.length; ++i) {... */\n    tag_234:\n        /* \"contracts/DTicket2_flattened.sol\":28480:28483  ids */\n      dup5\n        /* \"contracts/DTicket2_flattened.sol\":28480:28490  ids.length */\n      mload\n        /* \"contracts/DTicket2_flattened.sol\":28476:28477  i */\n      dup2\n        /* \"contracts/DTicket2_flattened.sol\":28476:28490  i < ids.length */\n      lt\n        /* \"contracts/DTicket2_flattened.sol\":28456:28867  for (uint256 i = 0; i < ids.length; ++i) {... */\n      iszero\n      tag_235\n      jumpi\n        /* \"contracts/DTicket2_flattened.sol\":28511:28521  uint256 id */\n      0x00\n        /* \"contracts/DTicket2_flattened.sol\":28524:28527  ids */\n      dup6\n        /* \"contracts/DTicket2_flattened.sol\":28528:28529  i */\n      dup3\n        /* \"contracts/DTicket2_flattened.sol\":28524:28530  ids[i] */\n      dup2\n      mload\n      dup2\n      lt\n      tag_238\n      jumpi\n      tag_238\n      tag_135\n      jump\t// in\n    tag_238:\n      0x20\n      mul\n      0x20\n      add\n      add\n      mload\n        /* \"contracts/DTicket2_flattened.sol\":28511:28530  uint256 id = ids[i] */\n      swap1\n      pop\n        /* \"contracts/DTicket2_flattened.sol\":28544:28558  uint256 amount */\n      0x00\n        /* \"contracts/DTicket2_flattened.sol\":28561:28568  amounts */\n      dup6\n        /* \"contracts/DTicket2_flattened.sol\":28569:28570  i */\n      dup4\n        /* \"contracts/DTicket2_flattened.sol\":28561:28571  amounts[i] */\n      dup2\n      mload\n      dup2\n      lt\n      tag_240\n      jumpi\n      tag_240\n      tag_135\n      jump\t// in\n    tag_240:\n      0x20\n      swap1\n      dup2\n      mul\n      swap2\n      swap1\n      swap2\n      add\n      dup2\n      add\n      mload\n        /* \"contracts/DTicket2_flattened.sol\":28586:28605  uint256 fromBalance */\n      0x00\n        /* \"contracts/DTicket2_flattened.sol\":28608:28621  _balances[id] */\n      dup5\n      dup2\n      mstore\n      dup1\n      dup4\n      mstore\n      0x40\n      dup1\n      dup3\n      keccak256\n      sub(shl(0xa0, 0x01), 0x01)\n        /* \"contracts/DTicket2_flattened.sol\":28608:28627  _balances[id][from] */\n      dup15\n      and\n      dup4\n      mstore\n      swap1\n      swap4\n      mstore\n      swap2\n      swap1\n      swap2\n      keccak256\n      sload\n        /* \"contracts/DTicket2_flattened.sol\":28561:28571  amounts[i] */\n      swap1\n      swap2\n      pop\n        /* \"contracts/DTicket2_flattened.sol\":28649:28670  fromBalance >= amount */\n      dup2\n      dup2\n      lt\n      iszero\n        /* \"contracts/DTicket2_flattened.sol\":28641:28717  require(fromBalance >= amount, \"ERC1155: insufficient balance for transfer\") */\n      tag_241\n      jumpi\n      mload(0x40)\n      shl(0xe5, 0x461bcd)\n      dup2\n      mstore\n      0x04\n      add\n      tag_90\n      swap1\n      tag_243\n      jump\t// in\n    tag_241:\n        /* \"contracts/DTicket2_flattened.sol\":28759:28768  _balances */\n      0x00\n        /* \"contracts/DTicket2_flattened.sol\":28759:28772  _balances[id] */\n      dup4\n      dup2\n      mstore\n      0x20\n      dup2\n      dup2\n      mstore\n      0x40\n      dup1\n      dup4\n      keccak256\n      sub(shl(0xa0, 0x01), 0x01)\n        /* \"contracts/DTicket2_flattened.sol\":28759:28778  _balances[id][from] */\n      dup15\n      dup2\n      and\n      dup6\n      mstore\n      swap3\n      mstore\n      dup1\n      dup4\n      keccak256\n        /* \"contracts/DTicket2_flattened.sol\":28781:28801  fromBalance - amount */\n      dup6\n      dup6\n      sub\n        /* \"contracts/DTicket2_flattened.sol\":28759:28801  _balances[id][from] = fromBalance - amount */\n      swap1\n      sstore\n        /* \"contracts/DTicket2_flattened.sol\":28829:28846  _balances[id][to] */\n      swap1\n      dup12\n      and\n      dup3\n      mstore\n      dup2\n      keccak256\n        /* \"contracts/DTicket2_flattened.sol\":28829:28856  _balances[id][to] += amount */\n      dup1\n      sload\n        /* \"contracts/DTicket2_flattened.sol\":28781:28801  fromBalance - amount */\n      dup5\n      swap3\n        /* \"contracts/DTicket2_flattened.sol\":28759:28768  _balances */\n      swap1\n        /* \"contracts/DTicket2_flattened.sol\":28829:28856  _balances[id][to] += amount */\n      tag_244\n      swap1\n        /* \"contracts/DTicket2_flattened.sol\":28781:28801  fromBalance - amount */\n      dup5\n      swap1\n        /* \"contracts/DTicket2_flattened.sol\":28829:28856  _balances[id][to] += amount */\n      tag_217\n      jump\t// in\n    tag_244:\n      swap3\n      pop\n      pop\n      dup2\n      swap1\n      sstore\n      pop\n        /* \"contracts/DTicket2_flattened.sol\":28497:28867  {... */\n      pop\n      pop\n      pop\n        /* \"contracts/DTicket2_flattened.sol\":28492:28495  ++i */\n      dup1\n      tag_245\n      swap1\n      tag_141\n      jump\t// in\n    tag_245:\n      swap1\n      pop\n        /* \"contracts/DTicket2_flattened.sol\":28456:28867  for (uint256 i = 0; i < ids.length; ++i) {... */\n      jump(tag_234)\n    tag_235:\n      pop\n        /* \"contracts/DTicket2_flattened.sol\":28912:28914  to */\n      dup5\n      sub(shl(0xa0, 0x01), 0x01)\n        /* \"contracts/DTicket2_flattened.sol\":28882:28929  TransferBatch(operator, from, to, ids, amounts) */\n      and\n        /* \"contracts/DTicket2_flattened.sol\":28906:28910  from */\n      dup7\n      sub(shl(0xa0, 0x01), 0x01)\n        /* \"contracts/DTicket2_flattened.sol\":28882:28929  TransferBatch(operator, from, to, ids, amounts) */\n      and\n        /* \"contracts/DTicket2_flattened.sol\":28896:28904  operator */\n      dup3\n      sub(shl(0xa0, 0x01), 0x01)\n        /* \"contracts/DTicket2_flattened.sol\":28882:28929  TransferBatch(operator, from, to, ids, amounts) */\n      and\n      0x4a39dc06d4c0dbc64b70af90fd698a233a518aa5d07e595d983b8c0526c8f7fb\n        /* \"contracts/DTicket2_flattened.sol\":28916:28919  ids */\n      dup8\n        /* \"contracts/DTicket2_flattened.sol\":28921:28928  amounts */\n      dup8\n        /* \"contracts/DTicket2_flattened.sol\":28882:28929  TransferBatch(operator, from, to, ids, amounts) */\n      mload(0x40)\n      tag_246\n      swap3\n      swap2\n      swap1\n      tag_220\n      jump\t// in\n    tag_246:\n      mload(0x40)\n      dup1\n      swap2\n      sub\n      swap1\n      log4\n        /* \"contracts/DTicket2_flattened.sol\":29010:29085  _doSafeBatchTransferAcceptanceCheck(operator, from, to, ids, amounts, data) */\n      tag_248\n        /* \"contracts/DTicket2_flattened.sol\":29046:29054  operator */\n      dup2\n        /* \"contracts/DTicket2_flattened.sol\":29056:29060  from */\n      dup8\n        /* \"contracts/DTicket2_flattened.sol\":29062:29064  to */\n      dup8\n        /* \"contracts/DTicket2_flattened.sol\":29066:29069  ids */\n      dup8\n        /* \"contracts/DTicket2_flattened.sol\":29071:29078  amounts */\n      dup8\n        /* \"contracts/DTicket2_flattened.sol\":29080:29084  data */\n      dup8\n        /* \"contracts/DTicket2_flattened.sol\":29010:29045  _doSafeBatchTransferAcceptanceCheck */\n      tag_224\n        /* \"contracts/DTicket2_flattened.sol\":29010:29085  _doSafeBatchTransferAcceptanceCheck(operator, from, to, ids, amounts, data) */\n      jump\t// in\n    tag_248:\n        /* \"contracts/DTicket2_flattened.sol\":28165:29092  {... */\n      pop\n        /* \"contracts/DTicket2_flattened.sol\":27977:29092  function _safeBatchTransferFrom(... */\n      pop\n      pop\n      pop\n      pop\n      pop\n      jump\t// out\n        /* \"contracts/DTicket2_flattened.sol\":33507:34420  function _burnBatch(address from, uint256[] memory ids, uint256[] memory amounts) internal virtual {... */\n    tag_150:\n      sub(shl(0xa0, 0x01), 0x01)\n        /* \"contracts/DTicket2_flattened.sol\":33624:33642  from != address(0) */\n      dup4\n      and\n        /* \"contracts/DTicket2_flattened.sol\":33616:33682  require(from != address(0), \"ERC1155: burn from the zero address\") */\n      tag_250\n      jumpi\n      mload(0x40)\n      shl(0xe5, 0x461bcd)\n      dup2\n      mstore\n      0x04\n      add\n      tag_90\n      swap1\n      tag_252\n      jump\t// in\n    tag_250:\n        /* \"contracts/DTicket2_flattened.sol\":33714:33721  amounts */\n      dup1\n        /* \"contracts/DTicket2_flattened.sol\":33714:33728  amounts.length */\n      mload\n        /* \"contracts/DTicket2_flattened.sol\":33700:33703  ids */\n      dup3\n        /* \"contracts/DTicket2_flattened.sol\":33700:33710  ids.length */\n      mload\n        /* \"contracts/DTicket2_flattened.sol\":33700:33728  ids.length == amounts.length */\n      eq\n        /* \"contracts/DTicket2_flattened.sol\":33692:33773  require(ids.length == amounts.length, \"ERC1155: ids and amounts length mismatch\") */\n      tag_253\n      jumpi\n      mload(0x40)\n      shl(0xe5, 0x461bcd)\n      dup2\n      mstore\n      0x04\n      add\n      tag_90\n      swap1\n      tag_205\n      jump\t// in\n    tag_253:\n        /* \"contracts/DTicket2_flattened.sol\":33826:33892  _beforeTokenTransfer(operator, from, address(0), ids, amounts, \"\") */\n      0x40\n      dup1\n      mload\n      0x20\n      dup2\n      add\n      swap1\n      swap2\n      mstore\n        /* \"contracts/DTicket2_flattened.sol\":33784:33800  address operator */\n      0x00\n        /* \"contracts/DTicket2_flattened.sol\":33826:33892  _beforeTokenTransfer(operator, from, address(0), ids, amounts, \"\") */\n      swap1\n      dup2\n      swap1\n      mstore\n        /* \"contracts/DTicket2_flattened.sol\":741:751  msg.sender */\n      caller\n      swap1\n        /* \"contracts/DTicket2_flattened.sol\":33903:34267  for (uint256 i = 0; i < ids.length; i++) {... */\n    tag_257:\n        /* \"contracts/DTicket2_flattened.sol\":33927:33930  ids */\n      dup4\n        /* \"contracts/DTicket2_flattened.sol\":33927:33937  ids.length */\n      mload\n        /* \"contracts/DTicket2_flattened.sol\":33923:33924  i */\n      dup2\n        /* \"contracts/DTicket2_flattened.sol\":33923:33937  i < ids.length */\n      lt\n        /* \"contracts/DTicket2_flattened.sol\":33903:34267  for (uint256 i = 0; i < ids.length; i++) {... */\n      iszero\n      tag_258\n      jumpi\n        /* \"contracts/DTicket2_flattened.sol\":33958:33968  uint256 id */\n      0x00\n        /* \"contracts/DTicket2_flattened.sol\":33971:33974  ids */\n      dup5\n        /* \"contracts/DTicket2_flattened.sol\":33975:33976  i */\n      dup3\n        /* \"contracts/DTicket2_flattened.sol\":33971:33977  ids[i] */\n      dup2\n      mload\n      dup2\n      lt\n      tag_261\n      jumpi\n      tag_261\n      tag_135\n      jump\t// in\n    tag_261:\n      0x20\n      mul\n      0x20\n      add\n      add\n      mload\n        /* \"contracts/DTicket2_flattened.sol\":33958:33977  uint256 id = ids[i] */\n      swap1\n      pop\n        /* \"contracts/DTicket2_flattened.sol\":33991:34005  uint256 amount */\n      0x00\n        /* \"contracts/DTicket2_flattened.sol\":34008:34015  amounts */\n      dup5\n        /* \"contracts/DTicket2_flattened.sol\":34016:34017  i */\n      dup4\n        /* \"contracts/DTicket2_flattened.sol\":34008:34018  amounts[i] */\n      dup2\n      mload\n      dup2\n      lt\n      tag_263\n      jumpi\n      tag_263\n      tag_135\n      jump\t// in\n    tag_263:\n      0x20\n      swap1\n      dup2\n      mul\n      swap2\n      swap1\n      swap2\n      add\n      dup2\n      add\n      mload\n        /* \"contracts/DTicket2_flattened.sol\":34033:34052  uint256 fromBalance */\n      0x00\n        /* \"contracts/DTicket2_flattened.sol\":34055:34068  _balances[id] */\n      dup5\n      dup2\n      mstore\n      dup1\n      dup4\n      mstore\n      0x40\n      dup1\n      dup3\n      keccak256\n      sub(shl(0xa0, 0x01), 0x01)\n        /* \"contracts/DTicket2_flattened.sol\":34055:34074  _balances[id][from] */\n      dup13\n      and\n      dup4\n      mstore\n      swap1\n      swap4\n      mstore\n      swap2\n      swap1\n      swap2\n      keccak256\n      sload\n        /* \"contracts/DTicket2_flattened.sol\":34008:34018  amounts[i] */\n      swap1\n      swap2\n      pop\n        /* \"contracts/DTicket2_flattened.sol\":34096:34117  fromBalance >= amount */\n      dup2\n      dup2\n      lt\n      iszero\n        /* \"contracts/DTicket2_flattened.sol\":34088:34158  require(fromBalance >= amount, \"ERC1155: burn amount exceeds balance\") */\n      tag_264\n      jumpi\n      mload(0x40)\n      shl(0xe5, 0x461bcd)\n      dup2\n      mstore\n      0x04\n      add\n      tag_90\n      swap1\n      tag_266\n      jump\t// in\n    tag_264:\n        /* \"contracts/DTicket2_flattened.sol\":34200:34209  _balances */\n      0x00\n        /* \"contracts/DTicket2_flattened.sol\":34200:34213  _balances[id] */\n      swap3\n      dup4\n      mstore\n      0x20\n      dup4\n      dup2\n      mstore\n      0x40\n      dup1\n      dup6\n      keccak256\n      sub(shl(0xa0, 0x01), 0x01)\n        /* \"contracts/DTicket2_flattened.sol\":34200:34219  _balances[id][from] */\n      dup12\n      and\n      dup7\n      mstore\n      swap1\n      swap2\n      mstore\n      swap1\n      swap3\n      keccak256\n        /* \"contracts/DTicket2_flattened.sol\":34222:34242  fromBalance - amount */\n      swap2\n      sub\n        /* \"contracts/DTicket2_flattened.sol\":34200:34242  _balances[id][from] = fromBalance - amount */\n      swap1\n      sstore\n        /* \"contracts/DTicket2_flattened.sol\":33939:33942  i++ */\n      dup1\n      tag_267\n      dup2\n      tag_141\n      jump\t// in\n    tag_267:\n      swap2\n      pop\n      pop\n        /* \"contracts/DTicket2_flattened.sol\":33903:34267  for (uint256 i = 0; i < ids.length; i++) {... */\n      jump(tag_257)\n    tag_258:\n      pop\n        /* \"contracts/DTicket2_flattened.sol\":34320:34321  0 */\n      0x00\n      sub(shl(0xa0, 0x01), 0x01)\n        /* \"contracts/DTicket2_flattened.sol\":34282:34337  TransferBatch(operator, from, address(0), ids, amounts) */\n      and\n        /* \"contracts/DTicket2_flattened.sol\":34306:34310  from */\n      dup5\n      sub(shl(0xa0, 0x01), 0x01)\n        /* \"contracts/DTicket2_flattened.sol\":34282:34337  TransferBatch(operator, from, address(0), ids, amounts) */\n      and\n        /* \"contracts/DTicket2_flattened.sol\":34296:34304  operator */\n      dup3\n      sub(shl(0xa0, 0x01), 0x01)\n        /* \"contracts/DTicket2_flattened.sol\":34282:34337  TransferBatch(operator, from, address(0), ids, amounts) */\n      and\n      0x4a39dc06d4c0dbc64b70af90fd698a233a518aa5d07e595d983b8c0526c8f7fb\n        /* \"contracts/DTicket2_flattened.sol\":34324:34327  ids */\n      dup7\n        /* \"contracts/DTicket2_flattened.sol\":34329:34336  amounts */\n      dup7\n        /* \"contracts/DTicket2_flattened.sol\":34282:34337  TransferBatch(operator, from, address(0), ids, amounts) */\n      mload(0x40)\n      tag_268\n      swap3\n      swap2\n      swap1\n      tag_220\n      jump\t// in\n    tag_268:\n      mload(0x40)\n      dup1\n      swap2\n      sub\n      swap1\n      log4\n        /* \"contracts/DTicket2_flattened.sol\":34348:34413  _afterTokenTransfer(operator, from, address(0), ids, amounts, \"\") */\n      0x40\n      dup1\n      mload\n      0x20\n      dup2\n      add\n      swap1\n      swap2\n      mstore\n        /* \"contracts/DTicket2_flattened.sol\":34392:34393  0 */\n      0x00\n        /* \"contracts/DTicket2_flattened.sol\":34348:34413  _afterTokenTransfer(operator, from, address(0), ids, amounts, \"\") */\n      swap1\n      mstore\n      tag_108\n        /* \"contracts/DTicket2_flattened.sol\":27977:29092  function _safeBatchTransferFrom(... */\n      jump\n        /* \"contracts/DTicket2_flattened.sol\":3284:3471  function _transferOwnership(address newOwner) internal virtual {... */\n    tag_155:\n        /* \"contracts/DTicket2_flattened.sol\":3376:3382  _owner */\n      0x03\n      dup1\n      sload\n      sub(shl(0xa0, 0x01), 0x01)\n        /* \"contracts/DTicket2_flattened.sol\":3392:3409  _owner = newOwner */\n      dup4\n      dup2\n      and\n      not(sub(shl(0xa0, 0x01), 0x01))\n      dup4\n      and\n      dup2\n      or\n      swap1\n      swap4\n      sstore\n        /* \"contracts/DTicket2_flattened.sol\":3424:3464  OwnershipTransferred(oldOwner, newOwner) */\n      mload(0x40)\n        /* \"contracts/DTicket2_flattened.sol\":3376:3382  _owner */\n      swap2\n      and\n      swap2\n        /* \"contracts/DTicket2_flattened.sol\":3392:3409  _owner = newOwner */\n      swap1\n        /* \"contracts/DTicket2_flattened.sol\":3376:3382  _owner */\n      dup3\n      swap1\n        /* \"contracts/DTicket2_flattened.sol\":3424:3464  OwnershipTransferred(oldOwner, newOwner) */\n      0x8be0079c531659141344cd1fd0a4f28419497f9722a3daafe3b4186f6b6457e0\n      swap1\n        /* \"contracts/DTicket2_flattened.sol\":3357:3373  address oldOwner */\n      0x00\n      swap1\n        /* \"contracts/DTicket2_flattened.sol\":3424:3464  OwnershipTransferred(oldOwner, newOwner) */\n      log3\n        /* \"contracts/DTicket2_flattened.sol\":3347:3471  {... */\n      pop\n        /* \"contracts/DTicket2_flattened.sol\":3284:3471  function _transferOwnership(address newOwner) internal virtual {... */\n      pop\n      jump\t// out\n        /* \"contracts/DTicket2_flattened.sol\":30374:31045  function _mint(address to, uint256 id, uint256 amount, bytes memory data) internal virtual {... */\n    tag_160:\n      sub(shl(0xa0, 0x01), 0x01)\n        /* \"contracts/DTicket2_flattened.sol\":30483:30499  to != address(0) */\n      dup5\n      and\n        /* \"contracts/DTicket2_flattened.sol\":30475:30537  require(to != address(0), \"ERC1155: mint to the zero address\") */\n      tag_272\n      jumpi\n      mload(0x40)\n      shl(0xe5, 0x461bcd)\n      dup2\n      mstore\n      0x04\n      add\n      tag_90\n      swap1\n      tag_202\n      jump\t// in\n    tag_272:\n        /* \"contracts/DTicket2_flattened.sol\":741:751  msg.sender */\n      caller\n        /* \"contracts/DTicket2_flattened.sol\":30548:30564  address operator */\n      0x00\n        /* \"contracts/DTicket2_flattened.sol\":30612:30633  _asSingletonArray(id) */\n      tag_275\n        /* \"contracts/DTicket2_flattened.sol\":30630:30632  id */\n      dup6\n        /* \"contracts/DTicket2_flattened.sol\":30612:30629  _asSingletonArray */\n      tag_276\n        /* \"contracts/DTicket2_flattened.sol\":30612:30633  _asSingletonArray(id) */\n      jump\t// in\n    tag_275:\n        /* \"contracts/DTicket2_flattened.sol\":30589:30633  uint256[] memory ids = _asSingletonArray(id) */\n      swap1\n      pop\n        /* \"contracts/DTicket2_flattened.sol\":30643:30667  uint256[] memory amounts */\n      0x00\n        /* \"contracts/DTicket2_flattened.sol\":30670:30695  _asSingletonArray(amount) */\n      tag_277\n        /* \"contracts/DTicket2_flattened.sol\":30688:30694  amount */\n      dup6\n        /* \"contracts/DTicket2_flattened.sol\":30670:30687  _asSingletonArray */\n      tag_276\n        /* \"contracts/DTicket2_flattened.sol\":30670:30695  _asSingletonArray(amount) */\n      jump\t// in\n    tag_277:\n        /* \"contracts/DTicket2_flattened.sol\":30643:30695  uint256[] memory amounts = _asSingletonArray(amount) */\n      swap1\n      pop\n        /* \"contracts/DTicket2_flattened.sol\":30783:30792  _balances */\n      0x00\n        /* \"contracts/DTicket2_flattened.sol\":30783:30796  _balances[id] */\n      dup7\n      dup2\n      mstore\n      0x20\n      dup2\n      dup2\n      mstore\n      0x40\n      dup1\n      dup4\n      keccak256\n      sub(shl(0xa0, 0x01), 0x01)\n        /* \"contracts/DTicket2_flattened.sol\":30783:30800  _balances[id][to] */\n      dup12\n      and\n      dup5\n      mstore\n      swap1\n      swap2\n      mstore\n      dup2\n      keccak256\n        /* \"contracts/DTicket2_flattened.sol\":30783:30810  _balances[id][to] += amount */\n      dup1\n      sload\n        /* \"contracts/DTicket2_flattened.sol\":30804:30810  amount */\n      dup8\n      swap3\n        /* \"contracts/DTicket2_flattened.sol\":30783:30792  _balances */\n      swap1\n        /* \"contracts/DTicket2_flattened.sol\":30783:30810  _balances[id][to] += amount */\n      tag_279\n      swap1\n        /* \"contracts/DTicket2_flattened.sol\":30804:30810  amount */\n      dup5\n      swap1\n        /* \"contracts/DTicket2_flattened.sol\":30783:30810  _balances[id][to] += amount */\n      tag_217\n      jump\t// in\n    tag_279:\n      swap1\n      swap2\n      sstore\n      pop\n      pop\n        /* \"contracts/DTicket2_flattened.sol\":30825:30877  TransferSingle(operator, address(0), to, id, amount) */\n      0x40\n      dup1\n      mload\n        /* \"#utility.yul\":16820:16845   */\n      dup8\n      dup2\n      mstore\n        /* \"#utility.yul\":16876:16878   */\n      0x20\n        /* \"#utility.yul\":16861:16879   */\n      dup2\n      add\n        /* \"#utility.yul\":16854:16888   */\n      dup8\n      swap1\n      mstore\n      sub(shl(0xa0, 0x01), 0x01)\n        /* \"contracts/DTicket2_flattened.sol\":30825:30877  TransferSingle(operator, address(0), to, id, amount) */\n      dup1\n      dup11\n      and\n      swap3\n        /* \"contracts/DTicket2_flattened.sol\":30858:30859  0 */\n      0x00\n      swap3\n        /* \"contracts/DTicket2_flattened.sol\":30825:30877  TransferSingle(operator, address(0), to, id, amount) */\n      swap2\n      dup8\n      and\n      swap2\n      0xc3d58168c5ae7397731d063d5bbf3d657854427343f4c083240f7aacaa2d0f62\n      swap2\n        /* \"#utility.yul\":16793:16811   */\n      add\n        /* \"contracts/DTicket2_flattened.sol\":30825:30877  TransferSingle(operator, address(0), to, id, amount) */\n      mload(0x40)\n      dup1\n      swap2\n      sub\n      swap1\n      log4\n        /* \"contracts/DTicket2_flattened.sol\":30964:31038  _doSafeTransferAcceptanceCheck(operator, address(0), to, id, amount, data) */\n      tag_283\n        /* \"contracts/DTicket2_flattened.sol\":30995:31003  operator */\n      dup4\n        /* \"contracts/DTicket2_flattened.sol\":31013:31014  0 */\n      0x00\n        /* \"contracts/DTicket2_flattened.sol\":31017:31019  to */\n      dup10\n        /* \"contracts/DTicket2_flattened.sol\":31021:31023  id */\n      dup10\n        /* \"contracts/DTicket2_flattened.sol\":31025:31031  amount */\n      dup10\n        /* \"contracts/DTicket2_flattened.sol\":31033:31037  data */\n      dup10\n        /* \"contracts/DTicket2_flattened.sol\":30964:30994  _doSafeTransferAcceptanceCheck */\n      tag_284\n        /* \"contracts/DTicket2_flattened.sol\":30964:31038  _doSafeTransferAcceptanceCheck(operator, address(0), to, id, amount, data) */\n      jump\t// in\n    tag_283:\n        /* \"contracts/DTicket2_flattened.sol\":30465:31045  {... */\n      pop\n      pop\n      pop\n        /* \"contracts/DTicket2_flattened.sol\":30374:31045  function _mint(address to, uint256 id, uint256 amount, bytes memory data) internal virtual {... */\n      pop\n      pop\n      pop\n      pop\n      jump\t// out\n        /* \"contracts/DTicket2_flattened.sol\":34556:34849  function _setApprovalForAll(address owner, address operator, bool approved) internal virtual {... */\n    tag_165:\n        /* \"contracts/DTicket2_flattened.sol\":34676:34684  operator */\n      dup2\n      sub(shl(0xa0, 0x01), 0x01)\n        /* \"contracts/DTicket2_flattened.sol\":34667:34684  owner != operator */\n      and\n        /* \"contracts/DTicket2_flattened.sol\":34667:34672  owner */\n      dup4\n      sub(shl(0xa0, 0x01), 0x01)\n        /* \"contracts/DTicket2_flattened.sol\":34667:34684  owner != operator */\n      and\n      sub\n        /* \"contracts/DTicket2_flattened.sol\":34659:34730  require(owner != operator, \"ERC1155: setting approval status for self\") */\n      tag_286\n      jumpi\n      mload(0x40)\n      shl(0xe5, 0x461bcd)\n      dup2\n      mstore\n        /* \"#utility.yul\":17101:17103   */\n      0x20\n        /* \"contracts/DTicket2_flattened.sol\":34659:34730  require(owner != operator, \"ERC1155: setting approval status for self\") */\n      0x04\n      dup3\n      add\n        /* \"#utility.yul\":17083:17104   */\n      mstore\n        /* \"#utility.yul\":17140:17142   */\n      0x29\n        /* \"#utility.yul\":17120:17138   */\n      0x24\n      dup3\n      add\n        /* \"#utility.yul\":17113:17143   */\n      mstore\n        /* \"#utility.yul\":17179:17213   */\n      0x455243313135353a2073657474696e6720617070726f76616c20737461747573\n        /* \"#utility.yul\":17159:17177   */\n      0x44\n      dup3\n      add\n        /* \"#utility.yul\":17152:17214   */\n      mstore\n      shl(0xb9, 0x103337b91039b2b633)\n        /* \"#utility.yul\":17230:17248   */\n      0x64\n      dup3\n      add\n        /* \"#utility.yul\":17223:17262   */\n      mstore\n        /* \"#utility.yul\":17279:17298   */\n      0x84\n      add\n        /* \"contracts/DTicket2_flattened.sol\":34659:34730  require(owner != operator, \"ERC1155: setting approval status for self\") */\n      tag_90\n        /* \"#utility.yul\":16899:17304   */\n      jump\n        /* \"contracts/DTicket2_flattened.sol\":34659:34730  require(owner != operator, \"ERC1155: setting approval status for self\") */\n    tag_286:\n      sub(shl(0xa0, 0x01), 0x01)\n        /* \"contracts/DTicket2_flattened.sol\":34740:34765  _operatorApprovals[owner] */\n      dup4\n      dup2\n      and\n      0x00\n      dup2\n      dup2\n      mstore\n        /* \"contracts/DTicket2_flattened.sol\":34740:34758  _operatorApprovals */\n      0x01\n        /* \"contracts/DTicket2_flattened.sol\":34740:34765  _operatorApprovals[owner] */\n      0x20\n      swap1\n      dup2\n      mstore\n      0x40\n      dup1\n      dup4\n      keccak256\n        /* \"contracts/DTicket2_flattened.sol\":34740:34775  _operatorApprovals[owner][operator] */\n      swap5\n      dup8\n      and\n      dup1\n      dup5\n      mstore\n      swap5\n      dup3\n      mstore\n      swap2\n      dup3\n      swap1\n      keccak256\n        /* \"contracts/DTicket2_flattened.sol\":34740:34786  _operatorApprovals[owner][operator] = approved */\n      dup1\n      sload\n      not(0xff)\n      and\n      dup7\n      iszero\n      iszero\n      swap1\n      dup2\n      or\n      swap1\n      swap2\n      sstore\n        /* \"contracts/DTicket2_flattened.sol\":34801:34842  ApprovalForAll(owner, operator, approved) */\n      swap2\n      mload\n        /* \"#utility.yul\":1159:1200   */\n      swap2\n      dup3\n      mstore\n        /* \"contracts/DTicket2_flattened.sol\":34801:34842  ApprovalForAll(owner, operator, approved) */\n      0x17307eab39ab6107e8899845ad3d59bd9653f200f220920489ca2b5937696c31\n      swap2\n        /* \"#utility.yul\":1132:1150   */\n      add\n        /* \"contracts/DTicket2_flattened.sol\":34801:34842  ApprovalForAll(owner, operator, approved) */\n      mload(0x40)\n      dup1\n      swap2\n      sub\n      swap1\n      log3\n        /* \"contracts/DTicket2_flattened.sol\":34556:34849  function _setApprovalForAll(address owner, address operator, bool approved) internal virtual {... */\n      pop\n      pop\n      pop\n      jump\t// out\n        /* \"contracts/DTicket2_flattened.sol\":26684:27631  function _safeTransferFrom(... */\n    tag_175:\n      sub(shl(0xa0, 0x01), 0x01)\n        /* \"contracts/DTicket2_flattened.sol\":26865:26881  to != address(0) */\n      dup5\n      and\n        /* \"contracts/DTicket2_flattened.sol\":26857:26923  require(to != address(0), \"ERC1155: transfer to the zero address\") */\n      tag_291\n      jumpi\n      mload(0x40)\n      shl(0xe5, 0x461bcd)\n      dup2\n      mstore\n      0x04\n      add\n      tag_90\n      swap1\n      tag_231\n      jump\t// in\n    tag_291:\n        /* \"contracts/DTicket2_flattened.sol\":741:751  msg.sender */\n      caller\n        /* \"contracts/DTicket2_flattened.sol\":26934:26950  address operator */\n      0x00\n        /* \"contracts/DTicket2_flattened.sol\":26998:27019  _asSingletonArray(id) */\n      tag_294\n        /* \"contracts/DTicket2_flattened.sol\":27016:27018  id */\n      dup6\n        /* \"contracts/DTicket2_flattened.sol\":26998:27015  _asSingletonArray */\n      tag_276\n        /* \"contracts/DTicket2_flattened.sol\":26998:27019  _asSingletonArray(id) */\n      jump\t// in\n    tag_294:\n        /* \"contracts/DTicket2_flattened.sol\":26975:27019  uint256[] memory ids = _asSingletonArray(id) */\n      swap1\n      pop\n        /* \"contracts/DTicket2_flattened.sol\":27029:27053  uint256[] memory amounts */\n      0x00\n        /* \"contracts/DTicket2_flattened.sol\":27056:27081  _asSingletonArray(amount) */\n      tag_295\n        /* \"contracts/DTicket2_flattened.sol\":27074:27080  amount */\n      dup6\n        /* \"contracts/DTicket2_flattened.sol\":27056:27073  _asSingletonArray */\n      tag_276\n        /* \"contracts/DTicket2_flattened.sol\":27056:27081  _asSingletonArray(amount) */\n      jump\t// in\n    tag_295:\n        /* \"contracts/DTicket2_flattened.sol\":27029:27081  uint256[] memory amounts = _asSingletonArray(amount) */\n      swap1\n      pop\n        /* \"contracts/DTicket2_flattened.sol\":27163:27182  uint256 fromBalance */\n      0x00\n        /* \"contracts/DTicket2_flattened.sol\":27185:27198  _balances[id] */\n      dup7\n      dup2\n      mstore\n      0x20\n      dup2\n      dup2\n      mstore\n      0x40\n      dup1\n      dup4\n      keccak256\n      sub(shl(0xa0, 0x01), 0x01)\n        /* \"contracts/DTicket2_flattened.sol\":27185:27204  _balances[id][from] */\n      dup13\n      and\n      dup5\n      mstore\n      swap1\n      swap2\n      mstore\n      swap1\n      keccak256\n      sload\n        /* \"contracts/DTicket2_flattened.sol\":27222:27243  fromBalance >= amount */\n      dup6\n      dup2\n      lt\n      iszero\n        /* \"contracts/DTicket2_flattened.sol\":27214:27290  require(fromBalance >= amount, \"ERC1155: insufficient balance for transfer\") */\n      tag_297\n      jumpi\n      mload(0x40)\n      shl(0xe5, 0x461bcd)\n      dup2\n      mstore\n      0x04\n      add\n      tag_90\n      swap1\n      tag_243\n      jump\t// in\n    tag_297:\n        /* \"contracts/DTicket2_flattened.sol\":27324:27333  _balances */\n      0x00\n        /* \"contracts/DTicket2_flattened.sol\":27324:27337  _balances[id] */\n      dup8\n      dup2\n      mstore\n      0x20\n      dup2\n      dup2\n      mstore\n      0x40\n      dup1\n      dup4\n      keccak256\n      sub(shl(0xa0, 0x01), 0x01)\n        /* \"contracts/DTicket2_flattened.sol\":27324:27343  _balances[id][from] */\n      dup14\n      dup2\n      and\n      dup6\n      mstore\n      swap3\n      mstore\n      dup1\n      dup4\n      keccak256\n        /* \"contracts/DTicket2_flattened.sol\":27346:27366  fromBalance - amount */\n      dup10\n      dup6\n      sub\n        /* \"contracts/DTicket2_flattened.sol\":27324:27366  _balances[id][from] = fromBalance - amount */\n      swap1\n      sstore\n        /* \"contracts/DTicket2_flattened.sol\":27386:27403  _balances[id][to] */\n      swap1\n      dup11\n      and\n      dup3\n      mstore\n      dup2\n      keccak256\n        /* \"contracts/DTicket2_flattened.sol\":27386:27413  _balances[id][to] += amount */\n      dup1\n      sload\n        /* \"contracts/DTicket2_flattened.sol\":27346:27366  fromBalance - amount */\n      dup9\n      swap3\n        /* \"contracts/DTicket2_flattened.sol\":27324:27333  _balances */\n      swap1\n        /* \"contracts/DTicket2_flattened.sol\":27386:27413  _balances[id][to] += amount */\n      tag_299\n      swap1\n        /* \"contracts/DTicket2_flattened.sol\":27346:27366  fromBalance - amount */\n      dup5\n      swap1\n        /* \"contracts/DTicket2_flattened.sol\":27386:27413  _balances[id][to] += amount */\n      tag_217\n      jump\t// in\n    tag_299:\n      swap1\n      swap2\n      sstore\n      pop\n      pop\n        /* \"contracts/DTicket2_flattened.sol\":27429:27475  TransferSingle(operator, from, to, id, amount) */\n      0x40\n      dup1\n      mload\n        /* \"#utility.yul\":16820:16845   */\n      dup9\n      dup2\n      mstore\n        /* \"#utility.yul\":16876:16878   */\n      0x20\n        /* \"#utility.yul\":16861:16879   */\n      dup2\n      add\n        /* \"#utility.yul\":16854:16888   */\n      dup9\n      swap1\n      mstore\n      sub(shl(0xa0, 0x01), 0x01)\n        /* \"contracts/DTicket2_flattened.sol\":27429:27475  TransferSingle(operator, from, to, id, amount) */\n      dup1\n      dup12\n      and\n      swap3\n      dup13\n      dup3\n      and\n      swap3\n      swap2\n      dup9\n      and\n      swap2\n      0xc3d58168c5ae7397731d063d5bbf3d657854427343f4c083240f7aacaa2d0f62\n      swap2\n        /* \"#utility.yul\":16793:16811   */\n      add\n        /* \"contracts/DTicket2_flattened.sol\":27429:27475  TransferSingle(operator, from, to, id, amount) */\n      mload(0x40)\n      dup1\n      swap2\n      sub\n      swap1\n      log4\n        /* \"contracts/DTicket2_flattened.sol\":27556:27624  _doSafeTransferAcceptanceCheck(operator, from, to, id, amount, data) */\n      tag_302\n        /* \"contracts/DTicket2_flattened.sol\":27587:27595  operator */\n      dup5\n        /* \"contracts/DTicket2_flattened.sol\":27597:27601  from */\n      dup11\n        /* \"contracts/DTicket2_flattened.sol\":27603:27605  to */\n      dup11\n        /* \"contracts/DTicket2_flattened.sol\":27607:27609  id */\n      dup11\n        /* \"contracts/DTicket2_flattened.sol\":27611:27617  amount */\n      dup11\n        /* \"contracts/DTicket2_flattened.sol\":27619:27623  data */\n      dup11\n        /* \"contracts/DTicket2_flattened.sol\":27556:27586  _doSafeTransferAcceptanceCheck */\n      tag_284\n        /* \"contracts/DTicket2_flattened.sol\":27556:27624  _doSafeTransferAcceptanceCheck(operator, from, to, id, amount, data) */\n      jump\t// in\n    tag_302:\n        /* \"contracts/DTicket2_flattened.sol\":26847:27631  {... */\n      pop\n      pop\n      pop\n      pop\n        /* \"contracts/DTicket2_flattened.sol\":26684:27631  function _safeTransferFrom(... */\n      pop\n      pop\n      pop\n      pop\n      pop\n      jump\t// out\n        /* \"contracts/DTicket2_flattened.sol\":32512:33268  function _burn(address from, uint256 id, uint256 amount) internal virtual {... */\n    tag_191:\n      sub(shl(0xa0, 0x01), 0x01)\n        /* \"contracts/DTicket2_flattened.sol\":32604:32622  from != address(0) */\n      dup4\n      and\n        /* \"contracts/DTicket2_flattened.sol\":32596:32662  require(from != address(0), \"ERC1155: burn from the zero address\") */\n      tag_304\n      jumpi\n      mload(0x40)\n      shl(0xe5, 0x461bcd)\n      dup2\n      mstore\n      0x04\n      add\n      tag_90\n      swap1\n      tag_252\n      jump\t// in\n    tag_304:\n        /* \"contracts/DTicket2_flattened.sol\":741:751  msg.sender */\n      caller\n        /* \"contracts/DTicket2_flattened.sol\":32673:32689  address operator */\n      0x00\n        /* \"contracts/DTicket2_flattened.sol\":32737:32758  _asSingletonArray(id) */\n      tag_307\n        /* \"contracts/DTicket2_flattened.sol\":32755:32757  id */\n      dup5\n        /* \"contracts/DTicket2_flattened.sol\":32737:32754  _asSingletonArray */\n      tag_276\n        /* \"contracts/DTicket2_flattened.sol\":32737:32758  _asSingletonArray(id) */\n      jump\t// in\n    tag_307:\n        /* \"contracts/DTicket2_flattened.sol\":32714:32758  uint256[] memory ids = _asSingletonArray(id) */\n      swap1\n      pop\n        /* \"contracts/DTicket2_flattened.sol\":32768:32792  uint256[] memory amounts */\n      0x00\n        /* \"contracts/DTicket2_flattened.sol\":32795:32820  _asSingletonArray(amount) */\n      tag_308\n        /* \"contracts/DTicket2_flattened.sol\":32813:32819  amount */\n      dup5\n        /* \"contracts/DTicket2_flattened.sol\":32795:32812  _asSingletonArray */\n      tag_276\n        /* \"contracts/DTicket2_flattened.sol\":32795:32820  _asSingletonArray(amount) */\n      jump\t// in\n    tag_308:\n        /* \"contracts/DTicket2_flattened.sol\":32831:32897  _beforeTokenTransfer(operator, from, address(0), ids, amounts, \"\") */\n      0x40\n      dup1\n      mload\n      0x20\n      dup1\n      dup3\n      add\n      dup4\n      mstore\n      0x00\n      swap2\n      dup3\n      swap1\n      mstore\n        /* \"contracts/DTicket2_flattened.sol\":32930:32943  _balances[id] */\n      dup9\n      dup3\n      mstore\n      dup2\n      dup2\n      mstore\n      dup3\n      dup3\n      keccak256\n      sub(shl(0xa0, 0x01), 0x01)\n        /* \"contracts/DTicket2_flattened.sol\":32930:32949  _balances[id][from] */\n      dup12\n      and\n      dup4\n      mstore\n      swap1\n      mstore\n      keccak256\n      sload\n        /* \"contracts/DTicket2_flattened.sol\":32768:32820  uint256[] memory amounts = _asSingletonArray(amount) */\n      swap1\n      swap2\n      pop\n        /* \"contracts/DTicket2_flattened.sol\":32967:32988  fromBalance >= amount */\n      dup5\n      dup2\n      lt\n      iszero\n        /* \"contracts/DTicket2_flattened.sol\":32959:33029  require(fromBalance >= amount, \"ERC1155: burn amount exceeds balance\") */\n      tag_310\n      jumpi\n      mload(0x40)\n      shl(0xe5, 0x461bcd)\n      dup2\n      mstore\n      0x04\n      add\n      tag_90\n      swap1\n      tag_266\n      jump\t// in\n    tag_310:\n        /* \"contracts/DTicket2_flattened.sol\":33063:33072  _balances */\n      0x00\n        /* \"contracts/DTicket2_flattened.sol\":33063:33076  _balances[id] */\n      dup7\n      dup2\n      mstore\n      0x20\n      dup2\n      dup2\n      mstore\n      0x40\n      dup1\n      dup4\n      keccak256\n      sub(shl(0xa0, 0x01), 0x01)\n        /* \"contracts/DTicket2_flattened.sol\":33063:33082  _balances[id][from] */\n      dup12\n      dup2\n      and\n      dup1\n      dup7\n      mstore\n      swap2\n      dup5\n      mstore\n      dup3\n      dup6\n      keccak256\n        /* \"contracts/DTicket2_flattened.sol\":33085:33105  fromBalance - amount */\n      dup11\n      dup8\n      sub\n        /* \"contracts/DTicket2_flattened.sol\":33063:33105  _balances[id][from] = fromBalance - amount */\n      swap1\n      sstore\n        /* \"contracts/DTicket2_flattened.sol\":33131:33185  TransferSingle(operator, from, address(0), id, amount) */\n      dup3\n      mload\n        /* \"#utility.yul\":16820:16845   */\n      dup12\n      dup2\n      mstore\n        /* \"#utility.yul\":16861:16879   */\n      swap4\n      dup5\n      add\n        /* \"#utility.yul\":16854:16888   */\n      dup11\n      swap1\n      mstore\n        /* \"contracts/DTicket2_flattened.sol\":33063:33082  _balances[id][from] */\n      swap1\n      swap3\n        /* \"contracts/DTicket2_flattened.sol\":33131:33185  TransferSingle(operator, from, address(0), id, amount) */\n      swap1\n      dup9\n      and\n      swap2\n      0xc3d58168c5ae7397731d063d5bbf3d657854427343f4c083240f7aacaa2d0f62\n      swap2\n        /* \"#utility.yul\":16793:16811   */\n      add\n        /* \"contracts/DTicket2_flattened.sol\":33131:33185  TransferSingle(operator, from, address(0), id, amount) */\n      mload(0x40)\n      dup1\n      swap2\n      sub\n      swap1\n      log4\n        /* \"contracts/DTicket2_flattened.sol\":33196:33261  _afterTokenTransfer(operator, from, address(0), ids, amounts, \"\") */\n      0x40\n      dup1\n      mload\n      0x20\n      dup2\n      add\n      swap1\n      swap2\n      mstore\n        /* \"contracts/DTicket2_flattened.sol\":33240:33241  0 */\n      0x00\n        /* \"contracts/DTicket2_flattened.sol\":33196:33261  _afterTokenTransfer(operator, from, address(0), ids, amounts, \"\") */\n      swap1\n      mstore\n      tag_283\n        /* \"contracts/DTicket2_flattened.sol\":27977:29092  function _safeBatchTransferFrom(... */\n      jump\n        /* \"contracts/DTicket2_flattened.sol\":37882:38674  function _doSafeBatchTransferAcceptanceCheck(... */\n    tag_224:\n      sub(shl(0xa0, 0x01), 0x01)\n        /* \"contracts/DTicket2_flattened.sol\":38114:38127  to.isContract */\n      dup5\n      and\n        /* \"contracts/DTicket2_flattened.sol\":5198:5217  account.code.length */\n      extcodesize\n        /* \"contracts/DTicket2_flattened.sol\":5198:5221  account.code.length > 0 */\n      iszero\n        /* \"contracts/DTicket2_flattened.sol\":38110:38668  if (to.isContract()) {... */\n      tag_248\n      jumpi\n        /* \"contracts/DTicket2_flattened.sol\":38149:38228  IERC1155Receiver(to).onERC1155BatchReceived(operator, from, ids, amounts, data) */\n      mload(0x40)\n      shl(0xe0, 0xbc197c81)\n      dup2\n      mstore\n      sub(shl(0xa0, 0x01), 0x01)\n        /* \"contracts/DTicket2_flattened.sol\":38149:38192  IERC1155Receiver(to).onERC1155BatchReceived */\n      dup6\n      and\n      swap1\n      0xbc197c81\n      swap1\n        /* \"contracts/DTicket2_flattened.sol\":38149:38228  IERC1155Receiver(to).onERC1155BatchReceived(operator, from, ids, amounts, data) */\n      tag_320\n      swap1\n        /* \"contracts/DTicket2_flattened.sol\":38193:38201  operator */\n      dup10\n      swap1\n        /* \"contracts/DTicket2_flattened.sol\":38203:38207  from */\n      dup10\n      swap1\n        /* \"contracts/DTicket2_flattened.sol\":38209:38212  ids */\n      dup9\n      swap1\n        /* \"contracts/DTicket2_flattened.sol\":38214:38221  amounts */\n      dup9\n      swap1\n        /* \"contracts/DTicket2_flattened.sol\":38223:38227  data */\n      dup9\n      swap1\n        /* \"contracts/DTicket2_flattened.sol\":38149:38228  IERC1155Receiver(to).onERC1155BatchReceived(operator, from, ids, amounts, data) */\n      0x04\n      add\n      tag_321\n      jump\t// in\n    tag_320:\n      0x20\n      mload(0x40)\n      dup1\n      dup4\n      sub\n      dup2\n      0x00\n      dup8\n      gas\n      call\n      swap3\n      pop\n      pop\n      pop\n      dup1\n      iszero\n      tag_322\n      jumpi\n      pop\n      0x40\n      dup1\n      mload\n      0x1f\n      returndatasize\n      swap1\n      dup2\n      add\n      not(0x1f)\n      and\n      dup3\n      add\n      swap1\n      swap3\n      mstore\n      tag_323\n      swap2\n      dup2\n      add\n      swap1\n      tag_324\n      jump\t// in\n    tag_323:\n      0x01\n    tag_322:\n        /* \"contracts/DTicket2_flattened.sol\":38145:38658  try IERC1155Receiver(to).onERC1155BatchReceived(operator, from, ids, amounts, data) returns (... */\n      tag_325\n      jumpi\n      tag_329\n      tag_330\n      jump\t// in\n    tag_329:\n      dup1\n      0x08c379a0\n      sub\n      tag_328\n      jumpi\n      pop\n      tag_331\n      tag_332\n      jump\t// in\n    tag_331:\n      dup1\n      tag_333\n      jumpi\n      pop\n      jump(tag_327)\n    tag_333:\n        /* \"contracts/DTicket2_flattened.sol\":38534:38540  reason */\n      dup1\n        /* \"contracts/DTicket2_flattened.sol\":38527:38541  revert(reason) */\n      mload(0x40)\n      shl(0xe5, 0x461bcd)\n      dup2\n      mstore\n      0x04\n      add\n      tag_90\n      swap2\n      swap1\n      tag_38\n      jump\t// in\n        /* \"contracts/DTicket2_flattened.sol\":38145:38658  try IERC1155Receiver(to).onERC1155BatchReceived(operator, from, ids, amounts, data) returns (... */\n    tag_328:\n      pop\n    tag_327:\n        /* \"contracts/DTicket2_flattened.sol\":38581:38643  revert(\"ERC1155: transfer to non-ERC1155Receiver implementer\") */\n      mload(0x40)\n      shl(0xe5, 0x461bcd)\n      dup2\n      mstore\n        /* \"#utility.yul\":19457:19459   */\n      0x20\n        /* \"contracts/DTicket2_flattened.sol\":38581:38643  revert(\"ERC1155: transfer to non-ERC1155Receiver implementer\") */\n      0x04\n      dup3\n      add\n        /* \"#utility.yul\":19439:19460   */\n      mstore\n        /* \"#utility.yul\":19496:19498   */\n      0x34\n        /* \"#utility.yul\":19476:19494   */\n      0x24\n      dup3\n      add\n        /* \"#utility.yul\":19469:19499   */\n      mstore\n        /* \"#utility.yul\":19535:19569   */\n      0x455243313135353a207472616e7366657220746f206e6f6e2d45524331313535\n        /* \"#utility.yul\":19515:19533   */\n      0x44\n      dup3\n      add\n        /* \"#utility.yul\":19508:19570   */\n      mstore\n      shl(0x61, 0x2932b1b2b4bb32b91034b6b83632b6b2b73a32b9)\n        /* \"#utility.yul\":19586:19604   */\n      0x64\n      dup3\n      add\n        /* \"#utility.yul\":19579:19629   */\n      mstore\n        /* \"#utility.yul\":19646:19665   */\n      0x84\n      add\n        /* \"contracts/DTicket2_flattened.sol\":38581:38643  revert(\"ERC1155: transfer to non-ERC1155Receiver implementer\") */\n      tag_90\n        /* \"#utility.yul\":19255:19671   */\n      jump\n        /* \"contracts/DTicket2_flattened.sol\":38145:38658  try IERC1155Receiver(to).onERC1155BatchReceived(operator, from, ids, amounts, data) returns (... */\n    tag_325:\n      not(sub(shl(0xe0, 0x01), 0x01))\n        /* \"contracts/DTicket2_flattened.sol\":38307:38367  response != IERC1155Receiver.onERC1155BatchReceived.selector */\n      dup2\n      and\n      shl(0xe0, 0xbc197c81)\n      eq\n        /* \"contracts/DTicket2_flattened.sol\":38303:38460  if (response != IERC1155Receiver.onERC1155BatchReceived.selector) {... */\n      tag_283\n      jumpi\n        /* \"contracts/DTicket2_flattened.sol\":38391:38441  revert(\"ERC1155: ERC1155Receiver rejected tokens\") */\n      mload(0x40)\n      shl(0xe5, 0x461bcd)\n      dup2\n      mstore\n      0x04\n      add\n      tag_90\n      swap1\n      tag_340\n      jump\t// in\n        /* \"contracts/DTicket2_flattened.sol\":38680:38873  function _asSingletonArray(uint256 element) private pure returns (uint256[] memory) {... */\n    tag_276:\n        /* \"contracts/DTicket2_flattened.sol\":38799:38815  new uint256[](1) */\n      0x40\n      dup1\n      mload\n        /* \"contracts/DTicket2_flattened.sol\":38813:38814  1 */\n      0x01\n        /* \"contracts/DTicket2_flattened.sol\":38799:38815  new uint256[](1) */\n      dup1\n      dup3\n      mstore\n      dup2\n      dup4\n      add\n      swap1\n      swap3\n      mstore\n        /* \"contracts/DTicket2_flattened.sol\":38746:38762  uint256[] memory */\n      0x60\n      swap2\n        /* \"contracts/DTicket2_flattened.sol\":38774:38796  uint256[] memory array */\n      0x00\n      swap2\n        /* \"contracts/DTicket2_flattened.sol\":38799:38815  new uint256[](1) */\n      swap1\n      0x20\n      dup1\n      dup4\n      add\n      swap1\n      dup1\n      calldatasize\n      dup4\n      calldatacopy\n      add\n      swap1\n      pop\n      pop\n        /* \"contracts/DTicket2_flattened.sol\":38774:38815  uint256[] memory array = new uint256[](1) */\n      swap1\n      pop\n        /* \"contracts/DTicket2_flattened.sol\":38836:38843  element */\n      dup3\n        /* \"contracts/DTicket2_flattened.sol\":38825:38830  array */\n      dup2\n        /* \"contracts/DTicket2_flattened.sol\":38831:38832  0 */\n      0x00\n        /* \"contracts/DTicket2_flattened.sol\":38825:38833  array[0] */\n      dup2\n      mload\n      dup2\n      lt\n      tag_346\n      jumpi\n      tag_346\n      tag_135\n      jump\t// in\n    tag_346:\n      0x20\n      swap1\n      dup2\n      mul\n      swap2\n      swap1\n      swap2\n      add\n      add\n        /* \"contracts/DTicket2_flattened.sol\":38825:38843  array[0] = element */\n      mstore\n        /* \"contracts/DTicket2_flattened.sol\":38861:38866  array */\n      swap3\n        /* \"contracts/DTicket2_flattened.sol\":38680:38873  function _asSingletonArray(uint256 element) private pure returns (uint256[] memory) {... */\n      swap2\n      pop\n      pop\n      jump\t// out\n        /* \"contracts/DTicket2_flattened.sol\":37151:37876  function _doSafeTransferAcceptanceCheck(... */\n    tag_284:\n      sub(shl(0xa0, 0x01), 0x01)\n        /* \"contracts/DTicket2_flattened.sol\":37358:37371  to.isContract */\n      dup5\n      and\n        /* \"contracts/DTicket2_flattened.sol\":5198:5217  account.code.length */\n      extcodesize\n        /* \"contracts/DTicket2_flattened.sol\":5198:5221  account.code.length > 0 */\n      iszero\n        /* \"contracts/DTicket2_flattened.sol\":37354:37870  if (to.isContract()) {... */\n      tag_248\n      jumpi\n        /* \"contracts/DTicket2_flattened.sol\":37393:37465  IERC1155Receiver(to).onERC1155Received(operator, from, id, amount, data) */\n      mload(0x40)\n      shl(0xe0, 0xf23a6e61)\n      dup2\n      mstore\n      sub(shl(0xa0, 0x01), 0x01)\n        /* \"contracts/DTicket2_flattened.sol\":37393:37431  IERC1155Receiver(to).onERC1155Received */\n      dup6\n      and\n      swap1\n      0xf23a6e61\n      swap1\n        /* \"contracts/DTicket2_flattened.sol\":37393:37465  IERC1155Receiver(to).onERC1155Received(operator, from, id, amount, data) */\n      tag_350\n      swap1\n        /* \"contracts/DTicket2_flattened.sol\":37432:37440  operator */\n      dup10\n      swap1\n        /* \"contracts/DTicket2_flattened.sol\":37442:37446  from */\n      dup10\n      swap1\n        /* \"contracts/DTicket2_flattened.sol\":37448:37450  id */\n      dup9\n      swap1\n        /* \"contracts/DTicket2_flattened.sol\":37452:37458  amount */\n      dup9\n      swap1\n        /* \"contracts/DTicket2_flattened.sol\":37460:37464  data */\n      dup9\n      swap1\n        /* \"contracts/DTicket2_flattened.sol\":37393:37465  IERC1155Receiver(to).onERC1155Received(operator, from, id, amount, data) */\n      0x04\n      add\n      tag_351\n      jump\t// in\n    tag_350:\n      0x20\n      mload(0x40)\n      dup1\n      dup4\n      sub\n      dup2\n      0x00\n      dup8\n      gas\n      call\n      swap3\n      pop\n      pop\n      pop\n      dup1\n      iszero\n      tag_352\n      jumpi\n      pop\n      0x40\n      dup1\n      mload\n      0x1f\n      returndatasize\n      swap1\n      dup2\n      add\n      not(0x1f)\n      and\n      dup3\n      add\n      swap1\n      swap3\n      mstore\n      tag_353\n      swap2\n      dup2\n      add\n      swap1\n      tag_324\n      jump\t// in\n    tag_353:\n      0x01\n    tag_352:\n        /* \"contracts/DTicket2_flattened.sol\":37389:37860  try IERC1155Receiver(to).onERC1155Received(operator, from, id, amount, data) returns (bytes4 response) {... */\n      tag_354\n      jumpi\n      tag_329\n      tag_330\n      jump\t// in\n    tag_354:\n      not(sub(shl(0xe0, 0x01), 0x01))\n        /* \"contracts/DTicket2_flattened.sol\":37514:37569  response != IERC1155Receiver.onERC1155Received.selector */\n      dup2\n      and\n      shl(0xe0, 0xf23a6e61)\n      eq\n        /* \"contracts/DTicket2_flattened.sol\":37510:37662  if (response != IERC1155Receiver.onERC1155Received.selector) {... */\n      tag_283\n      jumpi\n        /* \"contracts/DTicket2_flattened.sol\":37593:37643  revert(\"ERC1155: ERC1155Receiver rejected tokens\") */\n      mload(0x40)\n      shl(0xe5, 0x461bcd)\n      dup2\n      mstore\n      0x04\n      add\n      tag_90\n      swap1\n      tag_340\n      jump\t// in\n        /* \"#utility.yul\":14:187   */\n    tag_367:\n        /* \"#utility.yul\":82:102   */\n      dup1\n      calldataload\n      sub(shl(0xa0, 0x01), 0x01)\n        /* \"#utility.yul\":131:162   */\n      dup2\n      and\n        /* \"#utility.yul\":121:163   */\n      dup2\n      eq\n        /* \"#utility.yul\":111:181   */\n      tag_378\n      jumpi\n        /* \"#utility.yul\":177:178   */\n      0x00\n        /* \"#utility.yul\":174:175   */\n      dup1\n        /* \"#utility.yul\":167:179   */\n      revert\n        /* \"#utility.yul\":111:181   */\n    tag_378:\n        /* \"#utility.yul\":14:187   */\n      swap2\n      swap1\n      pop\n      jump\t// out\n        /* \"#utility.yul\":192:446   */\n    tag_23:\n        /* \"#utility.yul\":260:266   */\n      0x00\n        /* \"#utility.yul\":268:274   */\n      dup1\n        /* \"#utility.yul\":321:323   */\n      0x40\n        /* \"#utility.yul\":309:318   */\n      dup4\n        /* \"#utility.yul\":300:307   */\n      dup6\n        /* \"#utility.yul\":296:319   */\n      sub\n        /* \"#utility.yul\":292:324   */\n      slt\n        /* \"#utility.yul\":289:341   */\n      iszero\n      tag_380\n      jumpi\n        /* \"#utility.yul\":337:338   */\n      0x00\n        /* \"#utility.yul\":334:335   */\n      dup1\n        /* \"#utility.yul\":327:339   */\n      revert\n        /* \"#utility.yul\":289:341   */\n    tag_380:\n        /* \"#utility.yul\":360:389   */\n      tag_381\n        /* \"#utility.yul\":379:388   */\n      dup4\n        /* \"#utility.yul\":360:389   */\n      tag_367\n      jump\t// in\n    tag_381:\n        /* \"#utility.yul\":350:389   */\n      swap5\n        /* \"#utility.yul\":436:438   */\n      0x20\n        /* \"#utility.yul\":421:439   */\n      swap4\n      swap1\n      swap4\n      add\n        /* \"#utility.yul\":408:440   */\n      calldataload\n      swap4\n      pop\n      pop\n      pop\n        /* \"#utility.yul\":192:446   */\n      jump\t// out\n        /* \"#utility.yul\":633:764   */\n    tag_368:\n      not(sub(shl(0xe0, 0x01), 0x01))\n        /* \"#utility.yul\":707:739   */\n      dup2\n      and\n        /* \"#utility.yul\":697:740   */\n      dup2\n      eq\n        /* \"#utility.yul\":687:758   */\n      tag_182\n      jumpi\n        /* \"#utility.yul\":754:755   */\n      0x00\n        /* \"#utility.yul\":751:752   */\n      dup1\n        /* \"#utility.yul\":744:756   */\n      revert\n        /* \"#utility.yul\":769:1014   */\n    tag_29:\n        /* \"#utility.yul\":827:833   */\n      0x00\n        /* \"#utility.yul\":880:882   */\n      0x20\n        /* \"#utility.yul\":868:877   */\n      dup3\n        /* \"#utility.yul\":859:866   */\n      dup5\n        /* \"#utility.yul\":855:878   */\n      sub\n        /* \"#utility.yul\":851:883   */\n      slt\n        /* \"#utility.yul\":848:900   */\n      iszero\n      tag_386\n      jumpi\n        /* \"#utility.yul\":896:897   */\n      0x00\n        /* \"#utility.yul\":893:894   */\n      dup1\n        /* \"#utility.yul\":886:898   */\n      revert\n        /* \"#utility.yul\":848:900   */\n    tag_386:\n        /* \"#utility.yul\":935:944   */\n      dup2\n        /* \"#utility.yul\":922:945   */\n      calldataload\n        /* \"#utility.yul\":954:984   */\n      tag_387\n        /* \"#utility.yul\":978:983   */\n      dup2\n        /* \"#utility.yul\":954:984   */\n      tag_368\n      jump\t// in\n    tag_387:\n        /* \"#utility.yul\":1003:1008   */\n      swap4\n        /* \"#utility.yul\":769:1014   */\n      swap3\n      pop\n      pop\n      pop\n      jump\t// out\n        /* \"#utility.yul\":1211:1391   */\n    tag_35:\n        /* \"#utility.yul\":1270:1276   */\n      0x00\n        /* \"#utility.yul\":1323:1325   */\n      0x20\n        /* \"#utility.yul\":1311:1320   */\n      dup3\n        /* \"#utility.yul\":1302:1309   */\n      dup5\n        /* \"#utility.yul\":1298:1321   */\n      sub\n        /* \"#utility.yul\":1294:1326   */\n      slt\n        /* \"#utility.yul\":1291:1343   */\n      iszero\n      tag_390\n      jumpi\n        /* \"#utility.yul\":1339:1340   */\n      0x00\n        /* \"#utility.yul\":1336:1337   */\n      dup1\n        /* \"#utility.yul\":1329:1341   */\n      revert\n        /* \"#utility.yul\":1291:1343   */\n    tag_390:\n      pop\n        /* \"#utility.yul\":1362:1385   */\n      calldataload\n      swap2\n        /* \"#utility.yul\":1211:1391   */\n      swap1\n      pop\n      jump\t// out\n        /* \"#utility.yul\":1396:1819   */\n    tag_369:\n        /* \"#utility.yul\":1438:1441   */\n      0x00\n        /* \"#utility.yul\":1476:1481   */\n      dup2\n        /* \"#utility.yul\":1470:1482   */\n      mload\n        /* \"#utility.yul\":1503:1509   */\n      dup1\n        /* \"#utility.yul\":1498:1501   */\n      dup5\n        /* \"#utility.yul\":1491:1510   */\n      mstore\n        /* \"#utility.yul\":1528:1529   */\n      0x00\n        /* \"#utility.yul\":1538:1700   */\n    tag_392:\n        /* \"#utility.yul\":1552:1558   */\n      dup2\n        /* \"#utility.yul\":1549:1550   */\n      dup2\n        /* \"#utility.yul\":1546:1559   */\n      lt\n        /* \"#utility.yul\":1538:1700   */\n      iszero\n      tag_394\n      jumpi\n        /* \"#utility.yul\":1614:1618   */\n      0x20\n        /* \"#utility.yul\":1670:1683   */\n      dup2\n      dup6\n      add\n        /* \"#utility.yul\":1666:1688   */\n      dup2\n      add\n        /* \"#utility.yul\":1660:1689   */\n      mload\n        /* \"#utility.yul\":1642:1653   */\n      dup7\n      dup4\n      add\n        /* \"#utility.yul\":1638:1658   */\n      dup3\n      add\n        /* \"#utility.yul\":1631:1690   */\n      mstore\n        /* \"#utility.yul\":1567:1579   */\n      add\n        /* \"#utility.yul\":1538:1700   */\n      jump(tag_392)\n    tag_394:\n        /* \"#utility.yul\":1542:1545   */\n      pop\n        /* \"#utility.yul\":1745:1746   */\n      0x00\n        /* \"#utility.yul\":1738:1742   */\n      0x20\n        /* \"#utility.yul\":1729:1735   */\n      dup3\n        /* \"#utility.yul\":1724:1727   */\n      dup7\n        /* \"#utility.yul\":1720:1736   */\n      add\n        /* \"#utility.yul\":1716:1743   */\n      add\n        /* \"#utility.yul\":1709:1747   */\n      mstore\n        /* \"#utility.yul\":1808:1812   */\n      0x20\n        /* \"#utility.yul\":1801:1803   */\n      0x1f\n        /* \"#utility.yul\":1797:1804   */\n      not\n        /* \"#utility.yul\":1792:1794   */\n      0x1f\n        /* \"#utility.yul\":1784:1790   */\n      dup4\n        /* \"#utility.yul\":1780:1795   */\n      add\n        /* \"#utility.yul\":1776:1805   */\n      and\n        /* \"#utility.yul\":1771:1774   */\n      dup6\n        /* \"#utility.yul\":1767:1806   */\n      add\n        /* \"#utility.yul\":1763:1813   */\n      add\n        /* \"#utility.yul\":1756:1813   */\n      swap2\n      pop\n      pop\n        /* \"#utility.yul\":1396:1819   */\n      swap3\n      swap2\n      pop\n      pop\n      jump\t// out\n        /* \"#utility.yul\":1824:2044   */\n    tag_38:\n        /* \"#utility.yul\":1973:1975   */\n      0x20\n        /* \"#utility.yul\":1962:1971   */\n      dup2\n        /* \"#utility.yul\":1955:1976   */\n      mstore\n        /* \"#utility.yul\":1936:1940   */\n      0x00\n        /* \"#utility.yul\":1993:2038   */\n      tag_387\n        /* \"#utility.yul\":2034:2036   */\n      0x20\n        /* \"#utility.yul\":2023:2032   */\n      dup4\n        /* \"#utility.yul\":2019:2037   */\n      add\n        /* \"#utility.yul\":2011:2017   */\n      dup5\n        /* \"#utility.yul\":1993:2038   */\n      tag_369\n      jump\t// in\n        /* \"#utility.yul\":2049:2176   */\n    tag_127:\n        /* \"#utility.yul\":2110:2120   */\n      0x4e487b71\n        /* \"#utility.yul\":2105:2108   */\n      0xe0\n        /* \"#utility.yul\":2101:2121   */\n      shl\n        /* \"#utility.yul\":2098:2099   */\n      0x00\n        /* \"#utility.yul\":2091:2122   */\n      mstore\n        /* \"#utility.yul\":2141:2145   */\n      0x41\n        /* \"#utility.yul\":2138:2139   */\n      0x04\n        /* \"#utility.yul\":2131:2146   */\n      mstore\n        /* \"#utility.yul\":2165:2169   */\n      0x24\n        /* \"#utility.yul\":2162:2163   */\n      0x00\n        /* \"#utility.yul\":2155:2170   */\n      revert\n        /* \"#utility.yul\":2181:2430   */\n    tag_370:\n        /* \"#utility.yul\":2291:2293   */\n      0x1f\n        /* \"#utility.yul\":2272:2285   */\n      dup3\n      add\n      not(0x1f)\n        /* \"#utility.yul\":2268:2295   */\n      and\n        /* \"#utility.yul\":2256:2296   */\n      dup2\n      add\n        /* \"#utility.yul\":2326:2344   */\n      0xffffffffffffffff\n        /* \"#utility.yul\":2311:2345   */\n      dup2\n      gt\n        /* \"#utility.yul\":2347:2369   */\n      dup3\n      dup3\n      lt\n        /* \"#utility.yul\":2308:2370   */\n      or\n        /* \"#utility.yul\":2305:2393   */\n      iszero\n      tag_400\n      jumpi\n        /* \"#utility.yul\":2373:2391   */\n      tag_400\n      tag_127\n      jump\t// in\n    tag_400:\n        /* \"#utility.yul\":2409:2411   */\n      0x40\n        /* \"#utility.yul\":2402:2424   */\n      mstore\n      pop\n      pop\n        /* \"#utility.yul\":2181:2430   */\n      jump\t// out\n        /* \"#utility.yul\":2435:2618   */\n    tag_371:\n        /* \"#utility.yul\":2495:2499   */\n      0x00\n        /* \"#utility.yul\":2528:2546   */\n      0xffffffffffffffff\n        /* \"#utility.yul\":2520:2526   */\n      dup3\n        /* \"#utility.yul\":2517:2547   */\n      gt\n        /* \"#utility.yul\":2514:2570   */\n      iszero\n      tag_403\n      jumpi\n        /* \"#utility.yul\":2550:2568   */\n      tag_403\n      tag_127\n      jump\t// in\n    tag_403:\n      pop\n        /* \"#utility.yul\":2595:2596   */\n      0x05\n        /* \"#utility.yul\":2591:2605   */\n      shl\n        /* \"#utility.yul\":2607:2611   */\n      0x20\n        /* \"#utility.yul\":2587:2612   */\n      add\n      swap1\n        /* \"#utility.yul\":2435:2618   */\n      jump\t// out\n        /* \"#utility.yul\":2623:3347   */\n    tag_372:\n        /* \"#utility.yul\":2677:2682   */\n      0x00\n        /* \"#utility.yul\":2730:2733   */\n      dup3\n        /* \"#utility.yul\":2723:2727   */\n      0x1f\n        /* \"#utility.yul\":2715:2721   */\n      dup4\n        /* \"#utility.yul\":2711:2728   */\n      add\n        /* \"#utility.yul\":2707:2734   */\n      slt\n        /* \"#utility.yul\":2697:2752   */\n      tag_405\n      jumpi\n        /* \"#utility.yul\":2748:2749   */\n      0x00\n        /* \"#utility.yul\":2745:2746   */\n      dup1\n        /* \"#utility.yul\":2738:2750   */\n      revert\n        /* \"#utility.yul\":2697:2752   */\n    tag_405:\n        /* \"#utility.yul\":2784:2790   */\n      dup2\n        /* \"#utility.yul\":2771:2791   */\n      calldataload\n        /* \"#utility.yul\":2810:2814   */\n      0x20\n        /* \"#utility.yul\":2833:2876   */\n      tag_406\n        /* \"#utility.yul\":2873:2875   */\n      dup3\n        /* \"#utility.yul\":2833:2876   */\n      tag_371\n      jump\t// in\n    tag_406:\n        /* \"#utility.yul\":2905:2907   */\n      0x40\n        /* \"#utility.yul\":2899:2908   */\n      mload\n        /* \"#utility.yul\":2917:2948   */\n      tag_407\n        /* \"#utility.yul\":2945:2947   */\n      dup3\n        /* \"#utility.yul\":2937:2943   */\n      dup3\n        /* \"#utility.yul\":2917:2948   */\n      tag_370\n      jump\t// in\n    tag_407:\n        /* \"#utility.yul\":2983:3001   */\n      dup4\n      dup2\n      mstore\n        /* \"#utility.yul\":3075:3076   */\n      0x05\n        /* \"#utility.yul\":3071:3081   */\n      swap4\n      swap1\n      swap4\n      shl\n        /* \"#utility.yul\":3059:3082   */\n      dup6\n      add\n        /* \"#utility.yul\":3055:3087   */\n      dup3\n      add\n      swap3\n        /* \"#utility.yul\":3017:3032   */\n      dup3\n      dup2\n      add\n      swap2\n      pop\n        /* \"#utility.yul\":3099:3114   */\n      dup7\n      dup5\n      gt\n        /* \"#utility.yul\":3096:3131   */\n      iszero\n      tag_408\n      jumpi\n        /* \"#utility.yul\":3127:3128   */\n      0x00\n        /* \"#utility.yul\":3124:3125   */\n      dup1\n        /* \"#utility.yul\":3117:3129   */\n      revert\n        /* \"#utility.yul\":3096:3131   */\n    tag_408:\n        /* \"#utility.yul\":3163:3165   */\n      dup3\n        /* \"#utility.yul\":3155:3161   */\n      dup7\n        /* \"#utility.yul\":3151:3166   */\n      add\n        /* \"#utility.yul\":3175:3317   */\n    tag_409:\n        /* \"#utility.yul\":3191:3197   */\n      dup5\n        /* \"#utility.yul\":3186:3189   */\n      dup2\n        /* \"#utility.yul\":3183:3198   */\n      lt\n        /* \"#utility.yul\":3175:3317   */\n      iszero\n      tag_411\n      jumpi\n        /* \"#utility.yul\":3257:3274   */\n      dup1\n      calldataload\n        /* \"#utility.yul\":3245:3275   */\n      dup4\n      mstore\n        /* \"#utility.yul\":3295:3307   */\n      swap2\n      dup4\n      add\n      swap2\n        /* \"#utility.yul\":3208:3220   */\n      dup4\n      add\n        /* \"#utility.yul\":3175:3317   */\n      jump(tag_409)\n    tag_411:\n      pop\n        /* \"#utility.yul\":3335:3341   */\n      swap7\n        /* \"#utility.yul\":2623:3347   */\n      swap6\n      pop\n      pop\n      pop\n      pop\n      pop\n      pop\n      jump\t// out\n        /* \"#utility.yul\":3352:3907   */\n    tag_373:\n        /* \"#utility.yul\":3394:3399   */\n      0x00\n        /* \"#utility.yul\":3447:3450   */\n      dup3\n        /* \"#utility.yul\":3440:3444   */\n      0x1f\n        /* \"#utility.yul\":3432:3438   */\n      dup4\n        /* \"#utility.yul\":3428:3445   */\n      add\n        /* \"#utility.yul\":3424:3451   */\n      slt\n        /* \"#utility.yul\":3414:3469   */\n      tag_413\n      jumpi\n        /* \"#utility.yul\":3465:3466   */\n      0x00\n        /* \"#utility.yul\":3462:3463   */\n      dup1\n        /* \"#utility.yul\":3455:3467   */\n      revert\n        /* \"#utility.yul\":3414:3469   */\n    tag_413:\n        /* \"#utility.yul\":3501:3507   */\n      dup2\n        /* \"#utility.yul\":3488:3508   */\n      calldataload\n        /* \"#utility.yul\":3527:3545   */\n      0xffffffffffffffff\n        /* \"#utility.yul\":3523:3525   */\n      dup2\n        /* \"#utility.yul\":3520:3546   */\n      gt\n        /* \"#utility.yul\":3517:3569   */\n      iszero\n      tag_415\n      jumpi\n        /* \"#utility.yul\":3549:3567   */\n      tag_415\n      tag_127\n      jump\t// in\n    tag_415:\n        /* \"#utility.yul\":3598:3600   */\n      0x40\n        /* \"#utility.yul\":3592:3601   */\n      mload\n        /* \"#utility.yul\":3610:3677   */\n      tag_416\n        /* \"#utility.yul\":3665:3667   */\n      0x1f\n        /* \"#utility.yul\":3646:3659   */\n      dup4\n      add\n      not(0x1f)\n        /* \"#utility.yul\":3642:3669   */\n      and\n        /* \"#utility.yul\":3671:3675   */\n      0x20\n        /* \"#utility.yul\":3638:3676   */\n      add\n        /* \"#utility.yul\":3592:3601   */\n      dup3\n        /* \"#utility.yul\":3610:3677   */\n      tag_370\n      jump\t// in\n    tag_416:\n        /* \"#utility.yul\":3701:3703   */\n      dup2\n        /* \"#utility.yul\":3693:3699   */\n      dup2\n        /* \"#utility.yul\":3686:3704   */\n      mstore\n        /* \"#utility.yul\":3747:3750   */\n      dup5\n        /* \"#utility.yul\":3740:3744   */\n      0x20\n        /* \"#utility.yul\":3735:3737   */\n      dup4\n        /* \"#utility.yul\":3727:3733   */\n      dup7\n        /* \"#utility.yul\":3723:3738   */\n      add\n        /* \"#utility.yul\":3719:3745   */\n      add\n        /* \"#utility.yul\":3716:3751   */\n      gt\n        /* \"#utility.yul\":3713:3768   */\n      iszero\n      tag_417\n      jumpi\n        /* \"#utility.yul\":3764:3765   */\n      0x00\n        /* \"#utility.yul\":3761:3762   */\n      dup1\n        /* \"#utility.yul\":3754:3766   */\n      revert\n        /* \"#utility.yul\":3713:3768   */\n    tag_417:\n        /* \"#utility.yul\":3828:3830   */\n      dup2\n        /* \"#utility.yul\":3821:3825   */\n      0x20\n        /* \"#utility.yul\":3813:3819   */\n      dup6\n        /* \"#utility.yul\":3809:3826   */\n      add\n        /* \"#utility.yul\":3802:3806   */\n      0x20\n        /* \"#utility.yul\":3794:3800   */\n      dup4\n        /* \"#utility.yul\":3790:3807   */\n      add\n        /* \"#utility.yul\":3777:3831   */\n      calldatacopy\n        /* \"#utility.yul\":3875:3876   */\n      0x00\n        /* \"#utility.yul\":3851:3866   */\n      swap2\n      dup2\n      add\n        /* \"#utility.yul\":3868:3872   */\n      0x20\n        /* \"#utility.yul\":3847:3873   */\n      add\n        /* \"#utility.yul\":3840:3877   */\n      swap2\n      swap1\n      swap2\n      mstore\n        /* \"#utility.yul\":3855:3861   */\n      swap4\n        /* \"#utility.yul\":3352:3907   */\n      swap3\n      pop\n      pop\n      pop\n      jump\t// out\n        /* \"#utility.yul\":3912:4780   */\n    tag_41:\n        /* \"#utility.yul\":4057:4063   */\n      0x00\n        /* \"#utility.yul\":4065:4071   */\n      dup1\n        /* \"#utility.yul\":4073:4079   */\n      0x00\n        /* \"#utility.yul\":4081:4087   */\n      dup1\n        /* \"#utility.yul\":4134:4137   */\n      0x80\n        /* \"#utility.yul\":4122:4131   */\n      dup6\n        /* \"#utility.yul\":4113:4120   */\n      dup8\n        /* \"#utility.yul\":4109:4132   */\n      sub\n        /* \"#utility.yul\":4105:4138   */\n      slt\n        /* \"#utility.yul\":4102:4155   */\n      iszero\n      tag_419\n      jumpi\n        /* \"#utility.yul\":4151:4152   */\n      0x00\n        /* \"#utility.yul\":4148:4149   */\n      dup1\n        /* \"#utility.yul\":4141:4153   */\n      revert\n        /* \"#utility.yul\":4102:4155   */\n    tag_419:\n        /* \"#utility.yul\":4174:4203   */\n      tag_420\n        /* \"#utility.yul\":4193:4202   */\n      dup6\n        /* \"#utility.yul\":4174:4203   */\n      tag_367\n      jump\t// in\n    tag_420:\n        /* \"#utility.yul\":4164:4203   */\n      swap4\n      pop\n        /* \"#utility.yul\":4254:4256   */\n      0x20\n        /* \"#utility.yul\":4243:4252   */\n      dup6\n        /* \"#utility.yul\":4239:4257   */\n      add\n        /* \"#utility.yul\":4226:4258   */\n      calldataload\n        /* \"#utility.yul\":4277:4295   */\n      0xffffffffffffffff\n        /* \"#utility.yul\":4318:4320   */\n      dup1\n        /* \"#utility.yul\":4310:4316   */\n      dup3\n        /* \"#utility.yul\":4307:4321   */\n      gt\n        /* \"#utility.yul\":4304:4338   */\n      iszero\n      tag_421\n      jumpi\n        /* \"#utility.yul\":4334:4335   */\n      0x00\n        /* \"#utility.yul\":4331:4332   */\n      dup1\n        /* \"#utility.yul\":4324:4336   */\n      revert\n        /* \"#utility.yul\":4304:4338   */\n    tag_421:\n        /* \"#utility.yul\":4357:4418   */\n      tag_422\n        /* \"#utility.yul\":4410:4417   */\n      dup9\n        /* \"#utility.yul\":4401:4407   */\n      dup4\n        /* \"#utility.yul\":4390:4399   */\n      dup10\n        /* \"#utility.yul\":4386:4408   */\n      add\n        /* \"#utility.yul\":4357:4418   */\n      tag_372\n      jump\t// in\n    tag_422:\n        /* \"#utility.yul\":4347:4418   */\n      swap5\n      pop\n        /* \"#utility.yul\":4471:4473   */\n      0x40\n        /* \"#utility.yul\":4460:4469   */\n      dup8\n        /* \"#utility.yul\":4456:4474   */\n      add\n        /* \"#utility.yul\":4443:4475   */\n      calldataload\n        /* \"#utility.yul\":4427:4475   */\n      swap2\n      pop\n        /* \"#utility.yul\":4500:4502   */\n      dup1\n        /* \"#utility.yul\":4490:4498   */\n      dup3\n        /* \"#utility.yul\":4487:4503   */\n      gt\n        /* \"#utility.yul\":4484:4520   */\n      iszero\n      tag_423\n      jumpi\n        /* \"#utility.yul\":4516:4517   */\n      0x00\n        /* \"#utility.yul\":4513:4514   */\n      dup1\n        /* \"#utility.yul\":4506:4518   */\n      revert\n        /* \"#utility.yul\":4484:4520   */\n    tag_423:\n        /* \"#utility.yul\":4539:4602   */\n      tag_424\n        /* \"#utility.yul\":4594:4601   */\n      dup9\n        /* \"#utility.yul\":4583:4591   */\n      dup4\n        /* \"#utility.yul\":4572:4581   */\n      dup10\n        /* \"#utility.yul\":4568:4592   */\n      add\n        /* \"#utility.yul\":4539:4602   */\n      tag_372\n      jump\t// in\n    tag_424:\n        /* \"#utility.yul\":4529:4602   */\n      swap4\n      pop\n        /* \"#utility.yul\":4655:4657   */\n      0x60\n        /* \"#utility.yul\":4644:4653   */\n      dup8\n        /* \"#utility.yul\":4640:4658   */\n      add\n        /* \"#utility.yul\":4627:4659   */\n      calldataload\n        /* \"#utility.yul\":4611:4659   */\n      swap2\n      pop\n        /* \"#utility.yul\":4684:4686   */\n      dup1\n        /* \"#utility.yul\":4674:4682   */\n      dup3\n        /* \"#utility.yul\":4671:4687   */\n      gt\n        /* \"#utility.yul\":4668:4704   */\n      iszero\n      tag_425\n      jumpi\n        /* \"#utility.yul\":4700:4701   */\n      0x00\n        /* \"#utility.yul\":4697:4698   */\n      dup1\n        /* \"#utility.yul\":4690:4702   */\n      revert\n        /* \"#utility.yul\":4668:4704   */\n    tag_425:\n      pop\n        /* \"#utility.yul\":4723:4774   */\n      tag_426\n        /* \"#utility.yul\":4766:4773   */\n      dup8\n        /* \"#utility.yul\":4755:4763   */\n      dup3\n        /* \"#utility.yul\":4744:4753   */\n      dup9\n        /* \"#utility.yul\":4740:4764   */\n      add\n        /* \"#utility.yul\":4723:4774   */\n      tag_373\n      jump\t// in\n    tag_426:\n        /* \"#utility.yul\":4713:4774   */\n      swap2\n      pop\n      pop\n        /* \"#utility.yul\":3912:4780   */\n      swap3\n      swap6\n      swap2\n      swap5\n      pop\n      swap3\n      pop\n      jump\t// out\n        /* \"#utility.yul\":4785:5728   */\n    tag_45:\n        /* \"#utility.yul\":4939:4945   */\n      0x00\n        /* \"#utility.yul\":4947:4953   */\n      dup1\n        /* \"#utility.yul\":4955:4961   */\n      0x00\n        /* \"#utility.yul\":4963:4969   */\n      dup1\n        /* \"#utility.yul\":4971:4977   */\n      0x00\n        /* \"#utility.yul\":5024:5027   */\n      0xa0\n        /* \"#utility.yul\":5012:5021   */\n      dup7\n        /* \"#utility.yul\":5003:5010   */\n      dup9\n        /* \"#utility.yul\":4999:5022   */\n      sub\n        /* \"#utility.yul\":4995:5028   */\n      slt\n        /* \"#utility.yul\":4992:5045   */\n      iszero\n      tag_428\n      jumpi\n        /* \"#utility.yul\":5041:5042   */\n      0x00\n        /* \"#utility.yul\":5038:5039   */\n      dup1\n        /* \"#utility.yul\":5031:5043   */\n      revert\n        /* \"#utility.yul\":4992:5045   */\n    tag_428:\n        /* \"#utility.yul\":5064:5093   */\n      tag_429\n        /* \"#utility.yul\":5083:5092   */\n      dup7\n        /* \"#utility.yul\":5064:5093   */\n      tag_367\n      jump\t// in\n    tag_429:\n        /* \"#utility.yul\":5054:5093   */\n      swap5\n      pop\n        /* \"#utility.yul\":5112:5150   */\n      tag_430\n        /* \"#utility.yul\":5146:5148   */\n      0x20\n        /* \"#utility.yul\":5135:5144   */\n      dup8\n        /* \"#utility.yul\":5131:5149   */\n      add\n        /* \"#utility.yul\":5112:5150   */\n      tag_367\n      jump\t// in\n    tag_430:\n        /* \"#utility.yul\":5102:5150   */\n      swap4\n      pop\n        /* \"#utility.yul\":5201:5203   */\n      0x40\n        /* \"#utility.yul\":5190:5199   */\n      dup7\n        /* \"#utility.yul\":5186:5204   */\n      add\n        /* \"#utility.yul\":5173:5205   */\n      calldataload\n        /* \"#utility.yul\":5224:5242   */\n      0xffffffffffffffff\n        /* \"#utility.yul\":5265:5267   */\n      dup1\n        /* \"#utility.yul\":5257:5263   */\n      dup3\n        /* \"#utility.yul\":5254:5268   */\n      gt\n        /* \"#utility.yul\":5251:5285   */\n      iszero\n      tag_431\n      jumpi\n        /* \"#utility.yul\":5281:5282   */\n      0x00\n        /* \"#utility.yul\":5278:5279   */\n      dup1\n        /* \"#utility.yul\":5271:5283   */\n      revert\n        /* \"#utility.yul\":5251:5285   */\n    tag_431:\n        /* \"#utility.yul\":5304:5365   */\n      tag_432\n        /* \"#utility.yul\":5357:5364   */\n      dup10\n        /* \"#utility.yul\":5348:5354   */\n      dup4\n        /* \"#utility.yul\":5337:5346   */\n      dup11\n        /* \"#utility.yul\":5333:5355   */\n      add\n        /* \"#utility.yul\":5304:5365   */\n      tag_372\n      jump\t// in\n    tag_432:\n        /* \"#utility.yul\":5294:5365   */\n      swap5\n      pop\n        /* \"#utility.yul\":5418:5420   */\n      0x60\n        /* \"#utility.yul\":5407:5416   */\n      dup9\n        /* \"#utility.yul\":5403:5421   */\n      add\n        /* \"#utility.yul\":5390:5422   */\n      calldataload\n        /* \"#utility.yul\":5374:5422   */\n      swap2\n      pop\n        /* \"#utility.yul\":5447:5449   */\n      dup1\n        /* \"#utility.yul\":5437:5445   */\n      dup3\n        /* \"#utility.yul\":5434:5450   */\n      gt\n        /* \"#utility.yul\":5431:5467   */\n      iszero\n      tag_433\n      jumpi\n        /* \"#utility.yul\":5463:5464   */\n      0x00\n        /* \"#utility.yul\":5460:5461   */\n      dup1\n        /* \"#utility.yul\":5453:5465   */\n      revert\n        /* \"#utility.yul\":5431:5467   */\n    tag_433:\n        /* \"#utility.yul\":5486:5549   */\n      tag_434\n        /* \"#utility.yul\":5541:5548   */\n      dup10\n        /* \"#utility.yul\":5530:5538   */\n      dup4\n        /* \"#utility.yul\":5519:5528   */\n      dup11\n        /* \"#utility.yul\":5515:5539   */\n      add\n        /* \"#utility.yul\":5486:5549   */\n      tag_372\n      jump\t// in\n    tag_434:\n        /* \"#utility.yul\":5476:5549   */\n      swap4\n      pop\n        /* \"#utility.yul\":5602:5605   */\n      0x80\n        /* \"#utility.yul\":5591:5600   */\n      dup9\n        /* \"#utility.yul\":5587:5606   */\n      add\n        /* \"#utility.yul\":5574:5607   */\n      calldataload\n        /* \"#utility.yul\":5558:5607   */\n      swap2\n      pop\n        /* \"#utility.yul\":5632:5634   */\n      dup1\n        /* \"#utility.yul\":5622:5630   */\n      dup3\n        /* \"#utility.yul\":5619:5635   */\n      gt\n        /* \"#utility.yul\":5616:5652   */\n      iszero\n      tag_435\n      jumpi\n        /* \"#utility.yul\":5648:5649   */\n      0x00\n        /* \"#utility.yul\":5645:5646   */\n      dup1\n        /* \"#utility.yul\":5638:5650   */\n      revert\n        /* \"#utility.yul\":5616:5652   */\n    tag_435:\n      pop\n        /* \"#utility.yul\":5671:5722   */\n      tag_436\n        /* \"#utility.yul\":5714:5721   */\n      dup9\n        /* \"#utility.yul\":5703:5711   */\n      dup3\n        /* \"#utility.yul\":5692:5701   */\n      dup10\n        /* \"#utility.yul\":5688:5712   */\n      add\n        /* \"#utility.yul\":5671:5722   */\n      tag_373\n      jump\t// in\n    tag_436:\n        /* \"#utility.yul\":5661:5722   */\n      swap2\n      pop\n      pop\n        /* \"#utility.yul\":4785:5728   */\n      swap3\n      swap6\n      pop\n      swap3\n      swap6\n      swap1\n      swap4\n      pop\n      jump\t// out\n        /* \"#utility.yul\":5733:6941   */\n    tag_49:\n        /* \"#utility.yul\":5851:5857   */\n      0x00\n        /* \"#utility.yul\":5859:5865   */\n      dup1\n        /* \"#utility.yul\":5912:5914   */\n      0x40\n        /* \"#utility.yul\":5900:5909   */\n      dup4\n        /* \"#utility.yul\":5891:5898   */\n      dup6\n        /* \"#utility.yul\":5887:5910   */\n      sub\n        /* \"#utility.yul\":5883:5915   */\n      slt\n        /* \"#utility.yul\":5880:5932   */\n      iszero\n      tag_438\n      jumpi\n        /* \"#utility.yul\":5928:5929   */\n      0x00\n        /* \"#utility.yul\":5925:5926   */\n      dup1\n        /* \"#utility.yul\":5918:5930   */\n      revert\n        /* \"#utility.yul\":5880:5932   */\n    tag_438:\n        /* \"#utility.yul\":5968:5977   */\n      dup3\n        /* \"#utility.yul\":5955:5978   */\n      calldataload\n        /* \"#utility.yul\":5997:6015   */\n      0xffffffffffffffff\n        /* \"#utility.yul\":6038:6040   */\n      dup1\n        /* \"#utility.yul\":6030:6036   */\n      dup3\n        /* \"#utility.yul\":6027:6041   */\n      gt\n        /* \"#utility.yul\":6024:6058   */\n      iszero\n      tag_439\n      jumpi\n        /* \"#utility.yul\":6054:6055   */\n      0x00\n        /* \"#utility.yul\":6051:6052   */\n      dup1\n        /* \"#utility.yul\":6044:6056   */\n      revert\n        /* \"#utility.yul\":6024:6058   */\n    tag_439:\n        /* \"#utility.yul\":6092:6098   */\n      dup2\n        /* \"#utility.yul\":6081:6090   */\n      dup6\n        /* \"#utility.yul\":6077:6099   */\n      add\n        /* \"#utility.yul\":6067:6099   */\n      swap2\n      pop\n        /* \"#utility.yul\":6137:6144   */\n      dup6\n        /* \"#utility.yul\":6130:6134   */\n      0x1f\n        /* \"#utility.yul\":6126:6128   */\n      dup4\n        /* \"#utility.yul\":6122:6135   */\n      add\n        /* \"#utility.yul\":6118:6145   */\n      slt\n        /* \"#utility.yul\":6108:6163   */\n      tag_440\n      jumpi\n        /* \"#utility.yul\":6159:6160   */\n      0x00\n        /* \"#utility.yul\":6156:6157   */\n      dup1\n        /* \"#utility.yul\":6149:6161   */\n      revert\n        /* \"#utility.yul\":6108:6163   */\n    tag_440:\n        /* \"#utility.yul\":6195:6197   */\n      dup2\n        /* \"#utility.yul\":6182:6198   */\n      calldataload\n        /* \"#utility.yul\":6217:6221   */\n      0x20\n        /* \"#utility.yul\":6240:6283   */\n      tag_441\n        /* \"#utility.yul\":6280:6282   */\n      dup3\n        /* \"#utility.yul\":6240:6283   */\n      tag_371\n      jump\t// in\n    tag_441:\n        /* \"#utility.yul\":6312:6314   */\n      0x40\n        /* \"#utility.yul\":6306:6315   */\n      mload\n        /* \"#utility.yul\":6324:6355   */\n      tag_442\n        /* \"#utility.yul\":6352:6354   */\n      dup3\n        /* \"#utility.yul\":6344:6350   */\n      dup3\n        /* \"#utility.yul\":6324:6355   */\n      tag_370\n      jump\t// in\n    tag_442:\n        /* \"#utility.yul\":6390:6408   */\n      dup4\n      dup2\n      mstore\n        /* \"#utility.yul\":6478:6479   */\n      0x05\n        /* \"#utility.yul\":6474:6484   */\n      swap4\n      swap1\n      swap4\n      shl\n        /* \"#utility.yul\":6466:6485   */\n      dup6\n      add\n        /* \"#utility.yul\":6462:6490   */\n      dup3\n      add\n      swap3\n        /* \"#utility.yul\":6424:6439   */\n      dup3\n      dup2\n      add\n      swap2\n      pop\n        /* \"#utility.yul\":6502:6521   */\n      dup10\n      dup5\n      gt\n        /* \"#utility.yul\":6499:6538   */\n      iszero\n      tag_443\n      jumpi\n        /* \"#utility.yul\":6534:6535   */\n      0x00\n        /* \"#utility.yul\":6531:6532   */\n      dup1\n        /* \"#utility.yul\":6524:6536   */\n      revert\n        /* \"#utility.yul\":6499:6538   */\n    tag_443:\n        /* \"#utility.yul\":6558:6569   */\n      swap5\n      dup3\n      add\n      swap5\n        /* \"#utility.yul\":6578:6726   */\n    tag_444:\n        /* \"#utility.yul\":6594:6600   */\n      dup4\n        /* \"#utility.yul\":6589:6592   */\n      dup7\n        /* \"#utility.yul\":6586:6601   */\n      lt\n        /* \"#utility.yul\":6578:6726   */\n      iszero\n      tag_446\n      jumpi\n        /* \"#utility.yul\":6660:6683   */\n      tag_447\n        /* \"#utility.yul\":6679:6682   */\n      dup7\n        /* \"#utility.yul\":6660:6683   */\n      tag_367\n      jump\t// in\n    tag_447:\n        /* \"#utility.yul\":6648:6684   */\n      dup3\n      mstore\n        /* \"#utility.yul\":6611:6623   */\n      swap5\n      dup3\n      add\n      swap5\n        /* \"#utility.yul\":6704:6716   */\n      swap1\n      dup3\n      add\n      swap1\n        /* \"#utility.yul\":6578:6726   */\n      jump(tag_444)\n    tag_446:\n        /* \"#utility.yul\":6745:6751   */\n      swap7\n      pop\n      pop\n        /* \"#utility.yul\":6789:6807   */\n      dup7\n      add\n        /* \"#utility.yul\":6776:6808   */\n      calldataload\n      swap3\n      pop\n      pop\n        /* \"#utility.yul\":6820:6836   */\n      dup1\n      dup3\n      gt\n        /* \"#utility.yul\":6817:6853   */\n      iszero\n      tag_448\n      jumpi\n        /* \"#utility.yul\":6849:6850   */\n      0x00\n        /* \"#utility.yul\":6846:6847   */\n      dup1\n        /* \"#utility.yul\":6839:6851   */\n      revert\n        /* \"#utility.yul\":6817:6853   */\n    tag_448:\n      pop\n        /* \"#utility.yul\":6872:6935   */\n      tag_449\n        /* \"#utility.yul\":6927:6934   */\n      dup6\n        /* \"#utility.yul\":6916:6924   */\n      dup3\n        /* \"#utility.yul\":6905:6914   */\n      dup7\n        /* \"#utility.yul\":6901:6925   */\n      add\n        /* \"#utility.yul\":6872:6935   */\n      tag_372\n      jump\t// in\n    tag_449:\n        /* \"#utility.yul\":6862:6935   */\n      swap2\n      pop\n      pop\n        /* \"#utility.yul\":5733:6941   */\n      swap3\n      pop\n      swap3\n      swap1\n      pop\n      jump\t// out\n        /* \"#utility.yul\":6946:7381   */\n    tag_374:\n        /* \"#utility.yul\":6999:7002   */\n      0x00\n        /* \"#utility.yul\":7037:7042   */\n      dup2\n        /* \"#utility.yul\":7031:7043   */\n      mload\n        /* \"#utility.yul\":7064:7070   */\n      dup1\n        /* \"#utility.yul\":7059:7062   */\n      dup5\n        /* \"#utility.yul\":7052:7071   */\n      mstore\n        /* \"#utility.yul\":7090:7094   */\n      0x20\n        /* \"#utility.yul\":7119:7121   */\n      dup1\n        /* \"#utility.yul\":7114:7117   */\n      dup6\n        /* \"#utility.yul\":7110:7122   */\n      add\n        /* \"#utility.yul\":7103:7122   */\n      swap5\n      pop\n        /* \"#utility.yul\":7156:7158   */\n      dup1\n        /* \"#utility.yul\":7149:7154   */\n      dup5\n        /* \"#utility.yul\":7145:7159   */\n      add\n        /* \"#utility.yul\":7177:7178   */\n      0x00\n        /* \"#utility.yul\":7187:7356   */\n    tag_451:\n        /* \"#utility.yul\":7201:7207   */\n      dup4\n        /* \"#utility.yul\":7198:7199   */\n      dup2\n        /* \"#utility.yul\":7195:7208   */\n      lt\n        /* \"#utility.yul\":7187:7356   */\n      iszero\n      tag_453\n      jumpi\n        /* \"#utility.yul\":7262:7275   */\n      dup2\n      mload\n        /* \"#utility.yul\":7250:7276   */\n      dup8\n      mstore\n        /* \"#utility.yul\":7296:7308   */\n      swap6\n      dup3\n      add\n      swap6\n        /* \"#utility.yul\":7331:7346   */\n      swap1\n      dup3\n      add\n      swap1\n        /* \"#utility.yul\":7223:7224   */\n      0x01\n        /* \"#utility.yul\":7216:7225   */\n      add\n        /* \"#utility.yul\":7187:7356   */\n      jump(tag_451)\n    tag_453:\n      pop\n        /* \"#utility.yul\":7372:7375   */\n      swap5\n      swap6\n        /* \"#utility.yul\":6946:7381   */\n      swap5\n      pop\n      pop\n      pop\n      pop\n      pop\n      jump\t// out\n        /* \"#utility.yul\":7386:7647   */\n    tag_52:\n        /* \"#utility.yul\":7565:7567   */\n      0x20\n        /* \"#utility.yul\":7554:7563   */\n      dup2\n        /* \"#utility.yul\":7547:7568   */\n      mstore\n        /* \"#utility.yul\":7528:7532   */\n      0x00\n        /* \"#utility.yul\":7585:7641   */\n      tag_387\n        /* \"#utility.yul\":7637:7639   */\n      0x20\n        /* \"#utility.yul\":7626:7635   */\n      dup4\n        /* \"#utility.yul\":7622:7640   */\n      add\n        /* \"#utility.yul\":7614:7620   */\n      dup5\n        /* \"#utility.yul\":7585:7641   */\n      tag_374\n      jump\t// in\n        /* \"#utility.yul\":7652:8321   */\n    tag_55:\n        /* \"#utility.yul\":7779:7785   */\n      0x00\n        /* \"#utility.yul\":7787:7793   */\n      dup1\n        /* \"#utility.yul\":7795:7801   */\n      0x00\n        /* \"#utility.yul\":7848:7850   */\n      0x60\n        /* \"#utility.yul\":7836:7845   */\n      dup5\n        /* \"#utility.yul\":7827:7834   */\n      dup7\n        /* \"#utility.yul\":7823:7846   */\n      sub\n        /* \"#utility.yul\":7819:7851   */\n      slt\n        /* \"#utility.yul\":7816:7868   */\n      iszero\n      tag_457\n      jumpi\n        /* \"#utility.yul\":7864:7865   */\n      0x00\n        /* \"#utility.yul\":7861:7862   */\n      dup1\n        /* \"#utility.yul\":7854:7866   */\n      revert\n        /* \"#utility.yul\":7816:7868   */\n    tag_457:\n        /* \"#utility.yul\":7887:7916   */\n      tag_458\n        /* \"#utility.yul\":7906:7915   */\n      dup5\n        /* \"#utility.yul\":7887:7916   */\n      tag_367\n      jump\t// in\n    tag_458:\n        /* \"#utility.yul\":7877:7916   */\n      swap3\n      pop\n        /* \"#utility.yul\":7967:7969   */\n      0x20\n        /* \"#utility.yul\":7956:7965   */\n      dup5\n        /* \"#utility.yul\":7952:7970   */\n      add\n        /* \"#utility.yul\":7939:7971   */\n      calldataload\n        /* \"#utility.yul\":7990:8008   */\n      0xffffffffffffffff\n        /* \"#utility.yul\":8031:8033   */\n      dup1\n        /* \"#utility.yul\":8023:8029   */\n      dup3\n        /* \"#utility.yul\":8020:8034   */\n      gt\n        /* \"#utility.yul\":8017:8051   */\n      iszero\n      tag_459\n      jumpi\n        /* \"#utility.yul\":8047:8048   */\n      0x00\n        /* \"#utility.yul\":8044:8045   */\n      dup1\n        /* \"#utility.yul\":8037:8049   */\n      revert\n        /* \"#utility.yul\":8017:8051   */\n    tag_459:\n        /* \"#utility.yul\":8070:8131   */\n      tag_460\n        /* \"#utility.yul\":8123:8130   */\n      dup8\n        /* \"#utility.yul\":8114:8120   */\n      dup4\n        /* \"#utility.yul\":8103:8112   */\n      dup9\n        /* \"#utility.yul\":8099:8121   */\n      add\n        /* \"#utility.yul\":8070:8131   */\n      tag_372\n      jump\t// in\n    tag_460:\n        /* \"#utility.yul\":8060:8131   */\n      swap4\n      pop\n        /* \"#utility.yul\":8184:8186   */\n      0x40\n        /* \"#utility.yul\":8173:8182   */\n      dup7\n        /* \"#utility.yul\":8169:8187   */\n      add\n        /* \"#utility.yul\":8156:8188   */\n      calldataload\n        /* \"#utility.yul\":8140:8188   */\n      swap2\n      pop\n        /* \"#utility.yul\":8213:8215   */\n      dup1\n        /* \"#utility.yul\":8203:8211   */\n      dup3\n        /* \"#utility.yul\":8200:8216   */\n      gt\n        /* \"#utility.yul\":8197:8233   */\n      iszero\n      tag_461\n      jumpi\n        /* \"#utility.yul\":8229:8230   */\n      0x00\n        /* \"#utility.yul\":8226:8227   */\n      dup1\n        /* \"#utility.yul\":8219:8231   */\n      revert\n        /* \"#utility.yul\":8197:8233   */\n    tag_461:\n      pop\n        /* \"#utility.yul\":8252:8315   */\n      tag_462\n        /* \"#utility.yul\":8307:8314   */\n      dup7\n        /* \"#utility.yul\":8296:8304   */\n      dup3\n        /* \"#utility.yul\":8285:8294   */\n      dup8\n        /* \"#utility.yul\":8281:8305   */\n      add\n        /* \"#utility.yul\":8252:8315   */\n      tag_372\n      jump\t// in\n    tag_462:\n        /* \"#utility.yul\":8242:8315   */\n      swap2\n      pop\n      pop\n        /* \"#utility.yul\":7652:8321   */\n      swap3\n      pop\n      swap3\n      pop\n      swap3\n      jump\t// out\n        /* \"#utility.yul\":8326:8857   */\n    tag_61:\n        /* \"#utility.yul\":8421:8427   */\n      0x00\n        /* \"#utility.yul\":8429:8435   */\n      dup1\n        /* \"#utility.yul\":8437:8443   */\n      0x00\n        /* \"#utility.yul\":8445:8451   */\n      dup1\n        /* \"#utility.yul\":8498:8501   */\n      0x80\n        /* \"#utility.yul\":8486:8495   */\n      dup6\n        /* \"#utility.yul\":8477:8484   */\n      dup8\n        /* \"#utility.yul\":8473:8496   */\n      sub\n        /* \"#utility.yul\":8469:8502   */\n      slt\n        /* \"#utility.yul\":8466:8519   */\n      iszero\n      tag_464\n      jumpi\n        /* \"#utility.yul\":8515:8516   */\n      0x00\n        /* \"#utility.yul\":8512:8513   */\n      dup1\n        /* \"#utility.yul\":8505:8517   */\n      revert\n        /* \"#utility.yul\":8466:8519   */\n    tag_464:\n        /* \"#utility.yul\":8538:8567   */\n      tag_465\n        /* \"#utility.yul\":8557:8566   */\n      dup6\n        /* \"#utility.yul\":8538:8567   */\n      tag_367\n      jump\t// in\n    tag_465:\n        /* \"#utility.yul\":8528:8567   */\n      swap4\n      pop\n        /* \"#utility.yul\":8614:8616   */\n      0x20\n        /* \"#utility.yul\":8603:8612   */\n      dup6\n        /* \"#utility.yul\":8599:8617   */\n      add\n        /* \"#utility.yul\":8586:8618   */\n      calldataload\n        /* \"#utility.yul\":8576:8618   */\n      swap3\n      pop\n        /* \"#utility.yul\":8665:8667   */\n      0x40\n        /* \"#utility.yul\":8654:8663   */\n      dup6\n        /* \"#utility.yul\":8650:8668   */\n      add\n        /* \"#utility.yul\":8637:8669   */\n      calldataload\n        /* \"#utility.yul\":8627:8669   */\n      swap2\n      pop\n        /* \"#utility.yul\":8720:8722   */\n      0x60\n        /* \"#utility.yul\":8709:8718   */\n      dup6\n        /* \"#utility.yul\":8705:8723   */\n      add\n        /* \"#utility.yul\":8692:8724   */\n      calldataload\n        /* \"#utility.yul\":8747:8765   */\n      0xffffffffffffffff\n        /* \"#utility.yul\":8739:8745   */\n      dup2\n        /* \"#utility.yul\":8736:8766   */\n      gt\n        /* \"#utility.yul\":8733:8783   */\n      iszero\n      tag_466\n      jumpi\n        /* \"#utility.yul\":8779:8780   */\n      0x00\n        /* \"#utility.yul\":8776:8777   */\n      dup1\n        /* \"#utility.yul\":8769:8781   */\n      revert\n        /* \"#utility.yul\":8733:8783   */\n    tag_466:\n        /* \"#utility.yul\":8802:8851   */\n      tag_426\n        /* \"#utility.yul\":8843:8850   */\n      dup8\n        /* \"#utility.yul\":8834:8840   */\n      dup3\n        /* \"#utility.yul\":8823:8832   */\n      dup9\n        /* \"#utility.yul\":8819:8841   */\n      add\n        /* \"#utility.yul\":8802:8851   */\n      tag_373\n      jump\t// in\n        /* \"#utility.yul\":9070:9417   */\n    tag_69:\n        /* \"#utility.yul\":9135:9141   */\n      0x00\n        /* \"#utility.yul\":9143:9149   */\n      dup1\n        /* \"#utility.yul\":9196:9198   */\n      0x40\n        /* \"#utility.yul\":9184:9193   */\n      dup4\n        /* \"#utility.yul\":9175:9182   */\n      dup6\n        /* \"#utility.yul\":9171:9194   */\n      sub\n        /* \"#utility.yul\":9167:9199   */\n      slt\n        /* \"#utility.yul\":9164:9216   */\n      iszero\n      tag_470\n      jumpi\n        /* \"#utility.yul\":9212:9213   */\n      0x00\n        /* \"#utility.yul\":9209:9210   */\n      dup1\n        /* \"#utility.yul\":9202:9214   */\n      revert\n        /* \"#utility.yul\":9164:9216   */\n    tag_470:\n        /* \"#utility.yul\":9235:9264   */\n      tag_471\n        /* \"#utility.yul\":9254:9263   */\n      dup4\n        /* \"#utility.yul\":9235:9264   */\n      tag_367\n      jump\t// in\n    tag_471:\n        /* \"#utility.yul\":9225:9264   */\n      swap2\n      pop\n        /* \"#utility.yul\":9314:9316   */\n      0x20\n        /* \"#utility.yul\":9303:9312   */\n      dup4\n        /* \"#utility.yul\":9299:9317   */\n      add\n        /* \"#utility.yul\":9286:9318   */\n      calldataload\n        /* \"#utility.yul\":9361:9366   */\n      dup1\n        /* \"#utility.yul\":9354:9367   */\n      iszero\n        /* \"#utility.yul\":9347:9368   */\n      iszero\n        /* \"#utility.yul\":9340:9345   */\n      dup2\n        /* \"#utility.yul\":9337:9369   */\n      eq\n        /* \"#utility.yul\":9327:9387   */\n      tag_472\n      jumpi\n        /* \"#utility.yul\":9383:9384   */\n      0x00\n        /* \"#utility.yul\":9380:9381   */\n      dup1\n        /* \"#utility.yul\":9373:9385   */\n      revert\n        /* \"#utility.yul\":9327:9387   */\n    tag_472:\n        /* \"#utility.yul\":9406:9411   */\n      dup1\n        /* \"#utility.yul\":9396:9411   */\n      swap2\n      pop\n      pop\n        /* \"#utility.yul\":9070:9417   */\n      swap3\n      pop\n      swap3\n      swap1\n      pop\n      jump\t// out\n        /* \"#utility.yul\":9422:9682   */\n    tag_73:\n        /* \"#utility.yul\":9490:9496   */\n      0x00\n        /* \"#utility.yul\":9498:9504   */\n      dup1\n        /* \"#utility.yul\":9551:9553   */\n      0x40\n        /* \"#utility.yul\":9539:9548   */\n      dup4\n        /* \"#utility.yul\":9530:9537   */\n      dup6\n        /* \"#utility.yul\":9526:9549   */\n      sub\n        /* \"#utility.yul\":9522:9554   */\n      slt\n        /* \"#utility.yul\":9519:9571   */\n      iszero\n      tag_474\n      jumpi\n        /* \"#utility.yul\":9567:9568   */\n      0x00\n        /* \"#utility.yul\":9564:9565   */\n      dup1\n        /* \"#utility.yul\":9557:9569   */\n      revert\n        /* \"#utility.yul\":9519:9571   */\n    tag_474:\n        /* \"#utility.yul\":9590:9619   */\n      tag_475\n        /* \"#utility.yul\":9609:9618   */\n      dup4\n        /* \"#utility.yul\":9590:9619   */\n      tag_367\n      jump\t// in\n    tag_475:\n        /* \"#utility.yul\":9580:9619   */\n      swap2\n      pop\n        /* \"#utility.yul\":9638:9676   */\n      tag_476\n        /* \"#utility.yul\":9672:9674   */\n      0x20\n        /* \"#utility.yul\":9661:9670   */\n      dup5\n        /* \"#utility.yul\":9657:9675   */\n      add\n        /* \"#utility.yul\":9638:9676   */\n      tag_367\n      jump\t// in\n    tag_476:\n        /* \"#utility.yul\":9628:9676   */\n      swap1\n      pop\n        /* \"#utility.yul\":9422:9682   */\n      swap3\n      pop\n      swap3\n      swap1\n      pop\n      jump\t// out\n        /* \"#utility.yul\":9687:10293   */\n    tag_78:\n        /* \"#utility.yul\":9791:9797   */\n      0x00\n        /* \"#utility.yul\":9799:9805   */\n      dup1\n        /* \"#utility.yul\":9807:9813   */\n      0x00\n        /* \"#utility.yul\":9815:9821   */\n      dup1\n        /* \"#utility.yul\":9823:9829   */\n      0x00\n        /* \"#utility.yul\":9876:9879   */\n      0xa0\n        /* \"#utility.yul\":9864:9873   */\n      dup7\n        /* \"#utility.yul\":9855:9862   */\n      dup9\n        /* \"#utility.yul\":9851:9874   */\n      sub\n        /* \"#utility.yul\":9847:9880   */\n      slt\n        /* \"#utility.yul\":9844:9897   */\n      iszero\n      tag_478\n      jumpi\n        /* \"#utility.yul\":9893:9894   */\n      0x00\n        /* \"#utility.yul\":9890:9891   */\n      dup1\n        /* \"#utility.yul\":9883:9895   */\n      revert\n        /* \"#utility.yul\":9844:9897   */\n    tag_478:\n        /* \"#utility.yul\":9916:9945   */\n      tag_479\n        /* \"#utility.yul\":9935:9944   */\n      dup7\n        /* \"#utility.yul\":9916:9945   */\n      tag_367\n      jump\t// in\n    tag_479:\n        /* \"#utility.yul\":9906:9945   */\n      swap5\n      pop\n        /* \"#utility.yul\":9964:10002   */\n      tag_480\n        /* \"#utility.yul\":9998:10000   */\n      0x20\n        /* \"#utility.yul\":9987:9996   */\n      dup8\n        /* \"#utility.yul\":9983:10001   */\n      add\n        /* \"#utility.yul\":9964:10002   */\n      tag_367\n      jump\t// in\n    tag_480:\n        /* \"#utility.yul\":9954:10002   */\n      swap4\n      pop\n        /* \"#utility.yul\":10049:10051   */\n      0x40\n        /* \"#utility.yul\":10038:10047   */\n      dup7\n        /* \"#utility.yul\":10034:10052   */\n      add\n        /* \"#utility.yul\":10021:10053   */\n      calldataload\n        /* \"#utility.yul\":10011:10053   */\n      swap3\n      pop\n        /* \"#utility.yul\":10100:10102   */\n      0x60\n        /* \"#utility.yul\":10089:10098   */\n      dup7\n        /* \"#utility.yul\":10085:10103   */\n      add\n        /* \"#utility.yul\":10072:10104   */\n      calldataload\n        /* \"#utility.yul\":10062:10104   */\n      swap2\n      pop\n        /* \"#utility.yul\":10155:10158   */\n      0x80\n        /* \"#utility.yul\":10144:10153   */\n      dup7\n        /* \"#utility.yul\":10140:10159   */\n      add\n        /* \"#utility.yul\":10127:10160   */\n      calldataload\n        /* \"#utility.yul\":10183:10201   */\n      0xffffffffffffffff\n        /* \"#utility.yul\":10175:10181   */\n      dup2\n        /* \"#utility.yul\":10172:10202   */\n      gt\n        /* \"#utility.yul\":10169:10219   */\n      iszero\n      tag_481\n      jumpi\n        /* \"#utility.yul\":10215:10216   */\n      0x00\n        /* \"#utility.yul\":10212:10213   */\n      dup1\n        /* \"#utility.yul\":10205:10217   */\n      revert\n        /* \"#utility.yul\":10169:10219   */\n    tag_481:\n        /* \"#utility.yul\":10238:10287   */\n      tag_436\n        /* \"#utility.yul\":10279:10286   */\n      dup9\n        /* \"#utility.yul\":10270:10276   */\n      dup3\n        /* \"#utility.yul\":10259:10268   */\n      dup10\n        /* \"#utility.yul\":10255:10277   */\n      add\n        /* \"#utility.yul\":10238:10287   */\n      tag_373\n      jump\t// in\n        /* \"#utility.yul\":10298:10484   */\n    tag_82:\n        /* \"#utility.yul\":10357:10363   */\n      0x00\n        /* \"#utility.yul\":10410:10412   */\n      0x20\n        /* \"#utility.yul\":10398:10407   */\n      dup3\n        /* \"#utility.yul\":10389:10396   */\n      dup5\n        /* \"#utility.yul\":10385:10408   */\n      sub\n        /* \"#utility.yul\":10381:10413   */\n      slt\n        /* \"#utility.yul\":10378:10430   */\n      iszero\n      tag_484\n      jumpi\n        /* \"#utility.yul\":10426:10427   */\n      0x00\n        /* \"#utility.yul\":10423:10424   */\n      dup1\n        /* \"#utility.yul\":10416:10428   */\n      revert\n        /* \"#utility.yul\":10378:10430   */\n    tag_484:\n        /* \"#utility.yul\":10449:10478   */\n      tag_387\n        /* \"#utility.yul\":10468:10477   */\n      dup3\n        /* \"#utility.yul\":10449:10478   */\n      tag_367\n      jump\t// in\n        /* \"#utility.yul\":10489:10811   */\n    tag_86:\n        /* \"#utility.yul\":10566:10572   */\n      0x00\n        /* \"#utility.yul\":10574:10580   */\n      dup1\n        /* \"#utility.yul\":10582:10588   */\n      0x00\n        /* \"#utility.yul\":10635:10637   */\n      0x60\n        /* \"#utility.yul\":10623:10632   */\n      dup5\n        /* \"#utility.yul\":10614:10621   */\n      dup7\n        /* \"#utility.yul\":10610:10633   */\n      sub\n        /* \"#utility.yul\":10606:10638   */\n      slt\n        /* \"#utility.yul\":10603:10655   */\n      iszero\n      tag_487\n      jumpi\n        /* \"#utility.yul\":10651:10652   */\n      0x00\n        /* \"#utility.yul\":10648:10649   */\n      dup1\n        /* \"#utility.yul\":10641:10653   */\n      revert\n        /* \"#utility.yul\":10603:10655   */\n    tag_487:\n        /* \"#utility.yul\":10674:10703   */\n      tag_488\n        /* \"#utility.yul\":10693:10702   */\n      dup5\n        /* \"#utility.yul\":10674:10703   */\n      tag_367\n      jump\t// in\n    tag_488:\n        /* \"#utility.yul\":10664:10703   */\n      swap6\n        /* \"#utility.yul\":10750:10752   */\n      0x20\n        /* \"#utility.yul\":10735:10753   */\n      dup6\n      add\n        /* \"#utility.yul\":10722:10754   */\n      calldataload\n      swap6\n      pop\n        /* \"#utility.yul\":10801:10803   */\n      0x40\n        /* \"#utility.yul\":10786:10804   */\n      swap1\n      swap5\n      add\n        /* \"#utility.yul\":10773:10805   */\n      calldataload\n      swap4\n        /* \"#utility.yul\":10489:10811   */\n      swap3\n      pop\n      pop\n      pop\n      jump\t// out\n        /* \"#utility.yul\":11227:11607   */\n    tag_99:\n        /* \"#utility.yul\":11306:11307   */\n      0x01\n        /* \"#utility.yul\":11302:11314   */\n      dup2\n      dup2\n      shr\n      swap1\n        /* \"#utility.yul\":11349:11361   */\n      dup3\n      and\n      dup1\n        /* \"#utility.yul\":11370:11431   */\n      tag_491\n      jumpi\n        /* \"#utility.yul\":11424:11428   */\n      0x7f\n        /* \"#utility.yul\":11416:11422   */\n      dup3\n        /* \"#utility.yul\":11412:11429   */\n      and\n        /* \"#utility.yul\":11402:11429   */\n      swap2\n      pop\n        /* \"#utility.yul\":11370:11431   */\n    tag_491:\n        /* \"#utility.yul\":11477:11479   */\n      0x20\n        /* \"#utility.yul\":11469:11475   */\n      dup3\n        /* \"#utility.yul\":11466:11480   */\n      lt\n        /* \"#utility.yul\":11446:11464   */\n      dup2\n        /* \"#utility.yul\":11443:11481   */\n      sub\n        /* \"#utility.yul\":11440:11601   */\n      tag_492\n      jumpi\n        /* \"#utility.yul\":11523:11533   */\n      0x4e487b71\n        /* \"#utility.yul\":11518:11521   */\n      0xe0\n        /* \"#utility.yul\":11514:11534   */\n      shl\n        /* \"#utility.yul\":11511:11512   */\n      0x00\n        /* \"#utility.yul\":11504:11535   */\n      mstore\n        /* \"#utility.yul\":11558:11562   */\n      0x22\n        /* \"#utility.yul\":11555:11556   */\n      0x04\n        /* \"#utility.yul\":11548:11563   */\n      mstore\n        /* \"#utility.yul\":11586:11590   */\n      0x24\n        /* \"#utility.yul\":11583:11584   */\n      0x00\n        /* \"#utility.yul\":11576:11591   */\n      revert\n        /* \"#utility.yul\":11440:11601   */\n    tag_492:\n      pop\n        /* \"#utility.yul\":11227:11607   */\n      swap2\n      swap1\n      pop\n      jump\t// out\n        /* \"#utility.yul\":11612:12022   */\n    tag_118:\n        /* \"#utility.yul\":11814:11816   */\n      0x20\n        /* \"#utility.yul\":11796:11817   */\n      dup1\n      dup3\n      mstore\n        /* \"#utility.yul\":11853:11855   */\n      0x2e\n        /* \"#utility.yul\":11833:11851   */\n      swap1\n      dup3\n      add\n        /* \"#utility.yul\":11826:11856   */\n      mstore\n        /* \"#utility.yul\":11892:11926   */\n      0x455243313135353a2063616c6c6572206973206e6f7420746f6b656e206f776e\n        /* \"#utility.yul\":11887:11889   */\n      0x40\n        /* \"#utility.yul\":11872:11890   */\n      dup3\n      add\n        /* \"#utility.yul\":11865:11927   */\n      mstore\n      shl(0x92, 0x195c881bdc88185c1c1c9bdd9959)\n        /* \"#utility.yul\":11958:11960   */\n      0x60\n        /* \"#utility.yul\":11943:11961   */\n      dup3\n      add\n        /* \"#utility.yul\":11936:11980   */\n      mstore\n        /* \"#utility.yul\":12012:12015   */\n      0x80\n        /* \"#utility.yul\":11997:12016   */\n      add\n      swap1\n        /* \"#utility.yul\":11612:12022   */\n      jump\t// out\n        /* \"#utility.yul\":12437:12564   */\n    tag_135:\n        /* \"#utility.yul\":12498:12508   */\n      0x4e487b71\n        /* \"#utility.yul\":12493:12496   */\n      0xe0\n        /* \"#utility.yul\":12489:12509   */\n      shl\n        /* \"#utility.yul\":12486:12487   */\n      0x00\n        /* \"#utility.yul\":12479:12510   */\n      mstore\n        /* \"#utility.yul\":12529:12533   */\n      0x32\n        /* \"#utility.yul\":12526:12527   */\n      0x04\n        /* \"#utility.yul\":12519:12534   */\n      mstore\n        /* \"#utility.yul\":12553:12557   */\n      0x24\n        /* \"#utility.yul\":12550:12551   */\n      0x00\n        /* \"#utility.yul\":12543:12558   */\n      revert\n        /* \"#utility.yul\":12569:12696   */\n    tag_375:\n        /* \"#utility.yul\":12630:12640   */\n      0x4e487b71\n        /* \"#utility.yul\":12625:12628   */\n      0xe0\n        /* \"#utility.yul\":12621:12641   */\n      shl\n        /* \"#utility.yul\":12618:12619   */\n      0x00\n        /* \"#utility.yul\":12611:12642   */\n      mstore\n        /* \"#utility.yul\":12661:12665   */\n      0x11\n        /* \"#utility.yul\":12658:12659   */\n      0x04\n        /* \"#utility.yul\":12651:12666   */\n      mstore\n        /* \"#utility.yul\":12685:12689   */\n      0x24\n        /* \"#utility.yul\":12682:12683   */\n      0x00\n        /* \"#utility.yul\":12675:12690   */\n      revert\n        /* \"#utility.yul\":12701:12836   */\n    tag_141:\n        /* \"#utility.yul\":12740:12743   */\n      0x00\n        /* \"#utility.yul\":12761:12778   */\n      0x01\n      dup3\n      add\n        /* \"#utility.yul\":12758:12801   */\n      tag_499\n      jumpi\n        /* \"#utility.yul\":12781:12799   */\n      tag_499\n      tag_375\n      jump\t// in\n    tag_499:\n      pop\n        /* \"#utility.yul\":12828:12829   */\n      0x01\n        /* \"#utility.yul\":12817:12830   */\n      add\n      swap1\n        /* \"#utility.yul\":12701:12836   */\n      jump\t// out\n        /* \"#utility.yul\":13609:14006   */\n    tag_202:\n        /* \"#utility.yul\":13811:13813   */\n      0x20\n        /* \"#utility.yul\":13793:13814   */\n      dup1\n      dup3\n      mstore\n        /* \"#utility.yul\":13850:13852   */\n      0x21\n        /* \"#utility.yul\":13830:13848   */\n      swap1\n      dup3\n      add\n        /* \"#utility.yul\":13823:13853   */\n      mstore\n        /* \"#utility.yul\":13889:13923   */\n      0x455243313135353a206d696e7420746f20746865207a65726f20616464726573\n        /* \"#utility.yul\":13884:13886   */\n      0x40\n        /* \"#utility.yul\":13869:13887   */\n      dup3\n      add\n        /* \"#utility.yul\":13862:13924   */\n      mstore\n      shl(0xf8, 0x73)\n        /* \"#utility.yul\":13955:13957   */\n      0x60\n        /* \"#utility.yul\":13940:13958   */\n      dup3\n      add\n        /* \"#utility.yul\":13933:13964   */\n      mstore\n        /* \"#utility.yul\":13996:13999   */\n      0x80\n        /* \"#utility.yul\":13981:14000   */\n      add\n      swap1\n        /* \"#utility.yul\":13609:14006   */\n      jump\t// out\n        /* \"#utility.yul\":14011:14415   */\n    tag_205:\n        /* \"#utility.yul\":14213:14215   */\n      0x20\n        /* \"#utility.yul\":14195:14216   */\n      dup1\n      dup3\n      mstore\n        /* \"#utility.yul\":14252:14254   */\n      0x28\n        /* \"#utility.yul\":14232:14250   */\n      swap1\n      dup3\n      add\n        /* \"#utility.yul\":14225:14255   */\n      mstore\n        /* \"#utility.yul\":14291:14325   */\n      0x455243313135353a2069647320616e6420616d6f756e7473206c656e67746820\n        /* \"#utility.yul\":14286:14288   */\n      0x40\n        /* \"#utility.yul\":14271:14289   */\n      dup3\n      add\n        /* \"#utility.yul\":14264:14326   */\n      mstore\n      shl(0xc3, 0x0dad2e6dac2e8c6d)\n        /* \"#utility.yul\":14357:14359   */\n      0x60\n        /* \"#utility.yul\":14342:14360   */\n      dup3\n      add\n        /* \"#utility.yul\":14335:14373   */\n      mstore\n        /* \"#utility.yul\":14405:14408   */\n      0x80\n        /* \"#utility.yul\":14390:14409   */\n      add\n      swap1\n        /* \"#utility.yul\":14011:14415   */\n      jump\t// out\n        /* \"#utility.yul\":14420:14545   */\n    tag_217:\n        /* \"#utility.yul\":14485:14494   */\n      dup1\n      dup3\n      add\n        /* \"#utility.yul\":14506:14516   */\n      dup1\n      dup3\n      gt\n        /* \"#utility.yul\":14503:14539   */\n      iszero\n      tag_88\n      jumpi\n        /* \"#utility.yul\":14519:14537   */\n      tag_88\n      tag_375\n      jump\t// in\n        /* \"#utility.yul\":14550:15015   */\n    tag_220:\n        /* \"#utility.yul\":14807:14809   */\n      0x40\n        /* \"#utility.yul\":14796:14805   */\n      dup2\n        /* \"#utility.yul\":14789:14810   */\n      mstore\n        /* \"#utility.yul\":14770:14774   */\n      0x00\n        /* \"#utility.yul\":14833:14889   */\n      tag_508\n        /* \"#utility.yul\":14885:14887   */\n      0x40\n        /* \"#utility.yul\":14874:14883   */\n      dup4\n        /* \"#utility.yul\":14870:14888   */\n      add\n        /* \"#utility.yul\":14862:14868   */\n      dup6\n        /* \"#utility.yul\":14833:14889   */\n      tag_374\n      jump\t// in\n    tag_508:\n        /* \"#utility.yul\":14937:14946   */\n      dup3\n        /* \"#utility.yul\":14929:14935   */\n      dup2\n        /* \"#utility.yul\":14925:14947   */\n      sub\n        /* \"#utility.yul\":14920:14922   */\n      0x20\n        /* \"#utility.yul\":14909:14918   */\n      dup5\n        /* \"#utility.yul\":14905:14923   */\n      add\n        /* \"#utility.yul\":14898:14948   */\n      mstore\n        /* \"#utility.yul\":14965:15009   */\n      tag_509\n        /* \"#utility.yul\":15002:15008   */\n      dup2\n        /* \"#utility.yul\":14994:15000   */\n      dup6\n        /* \"#utility.yul\":14965:15009   */\n      tag_374\n      jump\t// in\n    tag_509:\n        /* \"#utility.yul\":14957:15009   */\n      swap6\n        /* \"#utility.yul\":14550:15015   */\n      swap5\n      pop\n      pop\n      pop\n      pop\n      pop\n      jump\t// out\n        /* \"#utility.yul\":15020:15421   */\n    tag_231:\n        /* \"#utility.yul\":15222:15224   */\n      0x20\n        /* \"#utility.yul\":15204:15225   */\n      dup1\n      dup3\n      mstore\n        /* \"#utility.yul\":15261:15263   */\n      0x25\n        /* \"#utility.yul\":15241:15259   */\n      swap1\n      dup3\n      add\n        /* \"#utility.yul\":15234:15264   */\n      mstore\n        /* \"#utility.yul\":15300:15334   */\n      0x455243313135353a207472616e7366657220746f20746865207a65726f206164\n        /* \"#utility.yul\":15295:15297   */\n      0x40\n        /* \"#utility.yul\":15280:15298   */\n      dup3\n      add\n        /* \"#utility.yul\":15273:15335   */\n      mstore\n      shl(0xd8, 0x6472657373)\n        /* \"#utility.yul\":15366:15368   */\n      0x60\n        /* \"#utility.yul\":15351:15369   */\n      dup3\n      add\n        /* \"#utility.yul\":15344:15379   */\n      mstore\n        /* \"#utility.yul\":15411:15414   */\n      0x80\n        /* \"#utility.yul\":15396:15415   */\n      add\n      swap1\n        /* \"#utility.yul\":15020:15421   */\n      jump\t// out\n        /* \"#utility.yul\":15426:15832   */\n    tag_243:\n        /* \"#utility.yul\":15628:15630   */\n      0x20\n        /* \"#utility.yul\":15610:15631   */\n      dup1\n      dup3\n      mstore\n        /* \"#utility.yul\":15667:15669   */\n      0x2a\n        /* \"#utility.yul\":15647:15665   */\n      swap1\n      dup3\n      add\n        /* \"#utility.yul\":15640:15670   */\n      mstore\n        /* \"#utility.yul\":15706:15740   */\n      0x455243313135353a20696e73756666696369656e742062616c616e636520666f\n        /* \"#utility.yul\":15701:15703   */\n      0x40\n        /* \"#utility.yul\":15686:15704   */\n      dup3\n      add\n        /* \"#utility.yul\":15679:15741   */\n      mstore\n      shl(0xb1, 0x39103a3930b739b332b9)\n        /* \"#utility.yul\":15772:15774   */\n      0x60\n        /* \"#utility.yul\":15757:15775   */\n      dup3\n      add\n        /* \"#utility.yul\":15750:15790   */\n      mstore\n        /* \"#utility.yul\":15822:15825   */\n      0x80\n        /* \"#utility.yul\":15807:15826   */\n      add\n      swap1\n        /* \"#utility.yul\":15426:15832   */\n      jump\t// out\n        /* \"#utility.yul\":15837:16236   */\n    tag_252:\n        /* \"#utility.yul\":16039:16041   */\n      0x20\n        /* \"#utility.yul\":16021:16042   */\n      dup1\n      dup3\n      mstore\n        /* \"#utility.yul\":16078:16080   */\n      0x23\n        /* \"#utility.yul\":16058:16076   */\n      swap1\n      dup3\n      add\n        /* \"#utility.yul\":16051:16081   */\n      mstore\n        /* \"#utility.yul\":16117:16151   */\n      0x455243313135353a206275726e2066726f6d20746865207a65726f2061646472\n        /* \"#utility.yul\":16112:16114   */\n      0x40\n        /* \"#utility.yul\":16097:16115   */\n      dup3\n      add\n        /* \"#utility.yul\":16090:16152   */\n      mstore\n      shl(0xe8, 0x657373)\n        /* \"#utility.yul\":16183:16185   */\n      0x60\n        /* \"#utility.yul\":16168:16186   */\n      dup3\n      add\n        /* \"#utility.yul\":16161:16194   */\n      mstore\n        /* \"#utility.yul\":16226:16229   */\n      0x80\n        /* \"#utility.yul\":16211:16230   */\n      add\n      swap1\n        /* \"#utility.yul\":15837:16236   */\n      jump\t// out\n        /* \"#utility.yul\":16241:16641   */\n    tag_266:\n        /* \"#utility.yul\":16443:16445   */\n      0x20\n        /* \"#utility.yul\":16425:16446   */\n      dup1\n      dup3\n      mstore\n        /* \"#utility.yul\":16482:16484   */\n      0x24\n        /* \"#utility.yul\":16462:16480   */\n      swap1\n      dup3\n      add\n        /* \"#utility.yul\":16455:16485   */\n      mstore\n        /* \"#utility.yul\":16521:16555   */\n      0x455243313135353a206275726e20616d6f756e7420657863656564732062616c\n        /* \"#utility.yul\":16516:16518   */\n      0x40\n        /* \"#utility.yul\":16501:16519   */\n      dup3\n      add\n        /* \"#utility.yul\":16494:16556   */\n      mstore\n      shl(0xe0, 0x616e6365)\n        /* \"#utility.yul\":16587:16589   */\n      0x60\n        /* \"#utility.yul\":16572:16590   */\n      dup3\n      add\n        /* \"#utility.yul\":16565:16599   */\n      mstore\n        /* \"#utility.yul\":16631:16634   */\n      0x80\n        /* \"#utility.yul\":16616:16635   */\n      add\n      swap1\n        /* \"#utility.yul\":16241:16641   */\n      jump\t// out\n        /* \"#utility.yul\":17309:18136   */\n    tag_321:\n      sub(shl(0xa0, 0x01), 0x01)\n        /* \"#utility.yul\":17706:17721   */\n      dup7\n      dup2\n      and\n        /* \"#utility.yul\":17688:17722   */\n      dup3\n      mstore\n        /* \"#utility.yul\":17758:17773   */\n      dup6\n      and\n        /* \"#utility.yul\":17753:17755   */\n      0x20\n        /* \"#utility.yul\":17738:17756   */\n      dup3\n      add\n        /* \"#utility.yul\":17731:17774   */\n      mstore\n        /* \"#utility.yul\":17668:17671   */\n      0xa0\n        /* \"#utility.yul\":17805:17807   */\n      0x40\n        /* \"#utility.yul\":17790:17808   */\n      dup3\n      add\n        /* \"#utility.yul\":17783:17814   */\n      dup2\n      swap1\n      mstore\n        /* \"#utility.yul\":17631:17635   */\n      0x00\n      swap1\n        /* \"#utility.yul\":17837:17894   */\n      tag_517\n      swap1\n        /* \"#utility.yul\":17874:17893   */\n      dup4\n      add\n        /* \"#utility.yul\":17866:17872   */\n      dup7\n        /* \"#utility.yul\":17837:17894   */\n      tag_374\n      jump\t// in\n    tag_517:\n        /* \"#utility.yul\":17942:17951   */\n      dup3\n        /* \"#utility.yul\":17934:17940   */\n      dup2\n        /* \"#utility.yul\":17930:17952   */\n      sub\n        /* \"#utility.yul\":17925:17927   */\n      0x60\n        /* \"#utility.yul\":17914:17923   */\n      dup5\n        /* \"#utility.yul\":17910:17928   */\n      add\n        /* \"#utility.yul\":17903:17953   */\n      mstore\n        /* \"#utility.yul\":17976:18020   */\n      tag_518\n        /* \"#utility.yul\":18013:18019   */\n      dup2\n        /* \"#utility.yul\":18005:18011   */\n      dup7\n        /* \"#utility.yul\":17976:18020   */\n      tag_374\n      jump\t// in\n    tag_518:\n        /* \"#utility.yul\":17962:18020   */\n      swap1\n      pop\n        /* \"#utility.yul\":18069:18078   */\n      dup3\n        /* \"#utility.yul\":18061:18067   */\n      dup2\n        /* \"#utility.yul\":18057:18079   */\n      sub\n        /* \"#utility.yul\":18051:18054   */\n      0x80\n        /* \"#utility.yul\":18040:18049   */\n      dup5\n        /* \"#utility.yul\":18036:18055   */\n      add\n        /* \"#utility.yul\":18029:18080   */\n      mstore\n        /* \"#utility.yul\":18097:18130   */\n      tag_519\n        /* \"#utility.yul\":18123:18129   */\n      dup2\n        /* \"#utility.yul\":18115:18121   */\n      dup6\n        /* \"#utility.yul\":18097:18130   */\n      tag_369\n      jump\t// in\n    tag_519:\n        /* \"#utility.yul\":18089:18130   */\n      swap9\n        /* \"#utility.yul\":17309:18136   */\n      swap8\n      pop\n      pop\n      pop\n      pop\n      pop\n      pop\n      pop\n      pop\n      jump\t// out\n        /* \"#utility.yul\":18141:18390   */\n    tag_324:\n        /* \"#utility.yul\":18210:18216   */\n      0x00\n        /* \"#utility.yul\":18263:18265   */\n      0x20\n        /* \"#utility.yul\":18251:18260   */\n      dup3\n        /* \"#utility.yul\":18242:18249   */\n      dup5\n        /* \"#utility.yul\":18238:18261   */\n      sub\n        /* \"#utility.yul\":18234:18266   */\n      slt\n        /* \"#utility.yul\":18231:18283   */\n      iszero\n      tag_521\n      jumpi\n        /* \"#utility.yul\":18279:18280   */\n      0x00\n        /* \"#utility.yul\":18276:18277   */\n      dup1\n        /* \"#utility.yul\":18269:18281   */\n      revert\n        /* \"#utility.yul\":18231:18283   */\n    tag_521:\n        /* \"#utility.yul\":18311:18320   */\n      dup2\n        /* \"#utility.yul\":18305:18321   */\n      mload\n        /* \"#utility.yul\":18330:18360   */\n      tag_387\n        /* \"#utility.yul\":18354:18359   */\n      dup2\n        /* \"#utility.yul\":18330:18360   */\n      tag_368\n      jump\t// in\n        /* \"#utility.yul\":18395:18574   */\n    tag_330:\n        /* \"#utility.yul\":18430:18433   */\n      0x00\n        /* \"#utility.yul\":18472:18473   */\n      0x03\n        /* \"#utility.yul\":18454:18470   */\n      returndatasize\n        /* \"#utility.yul\":18451:18474   */\n      gt\n        /* \"#utility.yul\":18448:18568   */\n      iszero\n      tag_524\n      jumpi\n        /* \"#utility.yul\":18518:18519   */\n      0x04\n        /* \"#utility.yul\":18515:18516   */\n      0x00\n        /* \"#utility.yul\":18512:18513   */\n      dup1\n        /* \"#utility.yul\":18497:18520   */\n      returndatacopy\n      pop\n        /* \"#utility.yul\":18555:18556   */\n      0x00\n        /* \"#utility.yul\":18549:18557   */\n      mload\n        /* \"#utility.yul\":18544:18547   */\n      0xe0\n        /* \"#utility.yul\":18540:18558   */\n      shr\n        /* \"#utility.yul\":18448:18568   */\n    tag_524:\n        /* \"#utility.yul\":18395:18574   */\n      swap1\n      jump\t// out\n        /* \"#utility.yul\":18579:19250   */\n    tag_332:\n        /* \"#utility.yul\":18618:18621   */\n      0x00\n        /* \"#utility.yul\":18660:18664   */\n      0x44\n        /* \"#utility.yul\":18642:18658   */\n      returndatasize\n        /* \"#utility.yul\":18639:18665   */\n      lt\n        /* \"#utility.yul\":18636:18675   */\n      iszero\n      tag_526\n      jumpi\n        /* \"#utility.yul\":18579:19250   */\n      swap1\n      jump\t// out\n        /* \"#utility.yul\":18636:18675   */\n    tag_526:\n        /* \"#utility.yul\":18702:18704   */\n      0x40\n        /* \"#utility.yul\":18696:18705   */\n      mload\n      not(0x03)\n        /* \"#utility.yul\":18767:18783   */\n      returndatasize\n        /* \"#utility.yul\":18763:18788   */\n      dup2\n      add\n        /* \"#utility.yul\":18760:18761   */\n      0x04\n        /* \"#utility.yul\":18696:18705   */\n      dup4\n        /* \"#utility.yul\":18739:18789   */\n      returndatacopy\n        /* \"#utility.yul\":18818:18822   */\n      dup2\n        /* \"#utility.yul\":18812:18823   */\n      mload\n        /* \"#utility.yul\":18842:18858   */\n      returndatasize\n        /* \"#utility.yul\":18877:18895   */\n      0xffffffffffffffff\n        /* \"#utility.yul\":18948:18950   */\n      dup2\n        /* \"#utility.yul\":18941:18945   */\n      0x24\n        /* \"#utility.yul\":18933:18939   */\n      dup5\n        /* \"#utility.yul\":18929:18946   */\n      add\n        /* \"#utility.yul\":18926:18951   */\n      gt\n        /* \"#utility.yul\":18921:18923   */\n      dup2\n        /* \"#utility.yul\":18913:18919   */\n      dup5\n        /* \"#utility.yul\":18910:18924   */\n      gt\n        /* \"#utility.yul\":18907:18952   */\n      or\n        /* \"#utility.yul\":18904:18962   */\n      iszero\n      tag_527\n      jumpi\n        /* \"#utility.yul\":18955:18960   */\n      pop\n      pop\n      pop\n      pop\n      pop\n        /* \"#utility.yul\":18579:19250   */\n      swap1\n      jump\t// out\n        /* \"#utility.yul\":18904:18962   */\n    tag_527:\n        /* \"#utility.yul\":18992:18998   */\n      dup3\n        /* \"#utility.yul\":18986:18990   */\n      dup6\n        /* \"#utility.yul\":18982:18999   */\n      add\n        /* \"#utility.yul\":18971:18999   */\n      swap2\n      pop\n        /* \"#utility.yul\":19028:19031   */\n      dup2\n        /* \"#utility.yul\":19022:19032   */\n      mload\n        /* \"#utility.yul\":19055:19057   */\n      dup2\n        /* \"#utility.yul\":19047:19053   */\n      dup2\n        /* \"#utility.yul\":19044:19058   */\n      gt\n        /* \"#utility.yul\":19041:19068   */\n      iszero\n      tag_528\n      jumpi\n        /* \"#utility.yul\":19061:19066   */\n      pop\n      pop\n      pop\n      pop\n      pop\n      pop\n        /* \"#utility.yul\":18579:19250   */\n      swap1\n      jump\t// out\n        /* \"#utility.yul\":19041:19068   */\n    tag_528:\n        /* \"#utility.yul\":19145:19147   */\n      dup5\n        /* \"#utility.yul\":19126:19142   */\n      returndatasize\n        /* \"#utility.yul\":19120:19124   */\n      dup8\n        /* \"#utility.yul\":19116:19143   */\n      add\n        /* \"#utility.yul\":19112:19148   */\n      add\n        /* \"#utility.yul\":19105:19109   */\n      0x20\n        /* \"#utility.yul\":19096:19102   */\n      dup3\n        /* \"#utility.yul\":19091:19094   */\n      dup6\n        /* \"#utility.yul\":19087:19103   */\n      add\n        /* \"#utility.yul\":19083:19110   */\n      add\n        /* \"#utility.yul\":19080:19149   */\n      gt\n        /* \"#utility.yul\":19077:19159   */\n      iszero\n      tag_529\n      jumpi\n        /* \"#utility.yul\":19152:19157   */\n      pop\n      pop\n      pop\n      pop\n      pop\n      pop\n        /* \"#utility.yul\":18579:19250   */\n      swap1\n      jump\t// out\n        /* \"#utility.yul\":19077:19159   */\n    tag_529:\n        /* \"#utility.yul\":19168:19225   */\n      tag_530\n        /* \"#utility.yul\":19219:19223   */\n      0x20\n        /* \"#utility.yul\":19210:19216   */\n      dup3\n        /* \"#utility.yul\":19202:19208   */\n      dup7\n        /* \"#utility.yul\":19198:19217   */\n      add\n        /* \"#utility.yul\":19194:19224   */\n      add\n        /* \"#utility.yul\":19188:19192   */\n      dup8\n        /* \"#utility.yul\":19168:19225   */\n      tag_370\n      jump\t// in\n    tag_530:\n      pop\n        /* \"#utility.yul\":19241:19244   */\n      swap1\n      swap6\n        /* \"#utility.yul\":18579:19250   */\n      swap5\n      pop\n      pop\n      pop\n      pop\n      pop\n      jump\t// out\n        /* \"#utility.yul\":19676:20080   */\n    tag_340:\n        /* \"#utility.yul\":19878:19880   */\n      0x20\n        /* \"#utility.yul\":19860:19881   */\n      dup1\n      dup3\n      mstore\n        /* \"#utility.yul\":19917:19919   */\n      0x28\n        /* \"#utility.yul\":19897:19915   */\n      swap1\n      dup3\n      add\n        /* \"#utility.yul\":19890:19920   */\n      mstore\n        /* \"#utility.yul\":19956:19990   */\n      0x455243313135353a204552433131353552656365697665722072656a65637465\n        /* \"#utility.yul\":19951:19953   */\n      0x40\n        /* \"#utility.yul\":19936:19954   */\n      dup3\n      add\n        /* \"#utility.yul\":19929:19991   */\n      mstore\n      shl(0xc0, 0x6420746f6b656e73)\n        /* \"#utility.yul\":20022:20024   */\n      0x60\n        /* \"#utility.yul\":20007:20025   */\n      dup3\n      add\n        /* \"#utility.yul\":20000:20038   */\n      mstore\n        /* \"#utility.yul\":20070:20073   */\n      0x80\n        /* \"#utility.yul\":20055:20074   */\n      add\n      swap1\n        /* \"#utility.yul\":19676:20080   */\n      jump\t// out\n        /* \"#utility.yul\":20085:20646   */\n    tag_351:\n      sub(shl(0xa0, 0x01), 0x01)\n        /* \"#utility.yul\":20382:20397   */\n      dup7\n      dup2\n      and\n        /* \"#utility.yul\":20364:20398   */\n      dup3\n      mstore\n        /* \"#utility.yul\":20434:20449   */\n      dup6\n      and\n        /* \"#utility.yul\":20429:20431   */\n      0x20\n        /* \"#utility.yul\":20414:20432   */\n      dup3\n      add\n        /* \"#utility.yul\":20407:20450   */\n      mstore\n        /* \"#utility.yul\":20481:20483   */\n      0x40\n        /* \"#utility.yul\":20466:20484   */\n      dup2\n      add\n        /* \"#utility.yul\":20459:20493   */\n      dup5\n      swap1\n      mstore\n        /* \"#utility.yul\":20524:20526   */\n      0x60\n        /* \"#utility.yul\":20509:20527   */\n      dup2\n      add\n        /* \"#utility.yul\":20502:20536   */\n      dup4\n      swap1\n      mstore\n        /* \"#utility.yul\":20344:20347   */\n      0xa0\n        /* \"#utility.yul\":20567:20570   */\n      0x80\n        /* \"#utility.yul\":20552:20571   */\n      dup3\n      add\n        /* \"#utility.yul\":20545:20577   */\n      dup2\n      swap1\n      mstore\n        /* \"#utility.yul\":20307:20311   */\n      0x00\n      swap1\n        /* \"#utility.yul\":20594:20640   */\n      tag_534\n      swap1\n        /* \"#utility.yul\":20620:20639   */\n      dup4\n      add\n        /* \"#utility.yul\":20612:20618   */\n      dup5\n        /* \"#utility.yul\":20594:20640   */\n      tag_369\n      jump\t// in\n    tag_534:\n        /* \"#utility.yul\":20586:20640   */\n      swap8\n        /* \"#utility.yul\":20085:20646   */\n      swap7\n      pop\n      pop\n      pop\n      pop\n      pop\n      pop\n      pop\n      jump\t// out\n\n    auxdata: 0xa26469706673582212204d0a3e93e39627f87501370bb13f5b7f7a9a549d48863dcd03f9e12de4224f7364736f6c63430008140033\n}\n",
				"bytecode": {
					"linkReferences": {},
					"object": "608060405234801562000010575f80fd5b5060408051808201909152600781526611151a58dad95d60ca1b60208201526200003a816200004c565b5062000046336200005e565b62000217565b60026200005a82826200014f565b5050565b600380546001600160a01b038381166001600160a01b0319831681179093556040519116919082907f8be0079c531659141344cd1fd0a4f28419497f9722a3daafe3b4186f6b6457e0905f90a35050565b634e487b7160e01b5f52604160045260245ffd5b600181811c90821680620000d857607f821691505b602082108103620000f757634e487b7160e01b5f52602260045260245ffd5b50919050565b601f8211156200014a575f81815260208120601f850160051c81016020861015620001255750805b601f850160051c820191505b81811015620001465782815560010162000131565b5050505b505050565b81516001600160401b038111156200016b576200016b620000af565b62000183816200017c8454620000c3565b84620000fd565b602080601f831160018114620001b9575f8415620001a15750858301515b5f19600386901b1c1916600185901b17855562000146565b5f85815260208120601f198616915b82811015620001e957888601518255948401946001909101908401620001c8565b50858210156200020757878501515f19600388901b60f8161c191681555b5050505050600190811b01905550565b611cf980620002255f395ff3fe608060405234801561000f575f80fd5b50600436106100ef575f3560e01c8063715018a611610093578063e985e9c511610063578063e985e9c514610200578063f242432a1461023b578063f2fde38b1461024e578063f5298aca14610261575f80fd5b8063715018a6146101b7578063731133e9146101bf5780638da5cb5b146101d2578063a22cb465146101ed575f80fd5b80631f7fdffa116100ce5780631f7fdffa1461015c5780632eb2c2d6146101715780634e1273f4146101845780636b20c454146101a4575f80fd5b8062fdd58e146100f357806301ffc9a7146101195780630e89341c1461013c575b5f80fd5b610106610101366004611252565b610274565b6040519081526020015b60405180910390f35b61012c61012736600461128f565b61030b565b6040519015158152602001610110565b61014f61014a3660046112b1565b61035a565b604051610110919061130b565b61016f61016a36600461145f565b6103ec565b005b61016f61017f3660046114f2565b610406565b610197610192366004611595565b610452565b6040516101109190611693565b61016f6101b23660046116a5565b61057a565b61016f6105c2565b61016f6101cd366004611714565b6105d5565b6003546040516001600160a01b039091168152602001610110565b61016f6101fb366004611765565b6105e9565b61012c61020e36600461179e565b6001600160a01b039182165f90815260016020908152604080832093909416825291909152205460ff1690565b61016f6102493660046117cf565b6105f8565b61016f61025c36600461182f565b61063d565b61016f61026f366004611848565b6106b6565b5f6001600160a01b0383166102e35760405162461bcd60e51b815260206004820152602a60248201527f455243313135353a2061646472657373207a65726f206973206e6f742061207660448201526930b634b21037bbb732b960b11b60648201526084015b60405180910390fd5b505f818152602081815260408083206001600160a01b03861684529091529020545b92915050565b5f6001600160e01b03198216636cdb3d1360e11b148061033b57506001600160e01b031982166303a24d0760e21b145b8061030557506301ffc9a760e01b6001600160e01b0319831614610305565b60606002805461036990611878565b80601f016020809104026020016040519081016040528092919081815260200182805461039590611878565b80156103e05780601f106103b7576101008083540402835291602001916103e0565b820191905f5260205f20905b8154815290600101906020018083116103c357829003601f168201915b50505050509050919050565b6103f46106f9565b61040084848484610753565b50505050565b6001600160a01b0385163314806104225750610422853361020e565b61043e5760405162461bcd60e51b81526004016102da906118b0565b61044b8585858585610896565b5050505050565b606081518351146104b75760405162461bcd60e51b815260206004820152602960248201527f455243313135353a206163636f756e747320616e6420696473206c656e677468604482015268040dad2e6dac2e8c6d60bb1b60648201526084016102da565b5f835167ffffffffffffffff8111156104d2576104d261131d565b6040519080825280602002602001820160405280156104fb578160200160208202803683370190505b5090505f5b84518110156105725761054585828151811061051e5761051e6118fe565b6020026020010151858381518110610538576105386118fe565b6020026020010151610274565b828281518110610557576105576118fe565b602090810291909101015261056b81611926565b9050610500565b509392505050565b6001600160a01b0383163314806105965750610596833361020e565b6105b25760405162461bcd60e51b81526004016102da906118b0565b6105bd838383610a2d565b505050565b6105ca6106f9565b6105d35f610bb0565b565b6105dd6106f9565b61040084848484610c01565b6105f4338383610cd6565b5050565b6001600160a01b0385163314806106145750610614853361020e565b6106305760405162461bcd60e51b81526004016102da906118b0565b61044b8585858585610db5565b6106456106f9565b6001600160a01b0381166106aa5760405162461bcd60e51b815260206004820152602660248201527f4f776e61626c653a206e6577206f776e657220697320746865207a65726f206160448201526564647265737360d01b60648201526084016102da565b6106b381610bb0565b50565b6001600160a01b0383163314806106d257506106d2833361020e565b6106ee5760405162461bcd60e51b81526004016102da906118b0565b6105bd838383610edb565b6003546001600160a01b031633146105d35760405162461bcd60e51b815260206004820181905260248201527f4f776e61626c653a2063616c6c6572206973206e6f7420746865206f776e657260448201526064016102da565b6001600160a01b0384166107795760405162461bcd60e51b81526004016102da9061193e565b815183511461079a5760405162461bcd60e51b81526004016102da9061197f565b335f5b8451811015610830578381815181106107b8576107b86118fe565b60200260200101515f808784815181106107d4576107d46118fe565b602002602001015181526020019081526020015f205f886001600160a01b03166001600160a01b031681526020019081526020015f205f82825461081891906119c7565b9091555081905061082881611926565b91505061079d565b50846001600160a01b03165f6001600160a01b0316826001600160a01b03167f4a39dc06d4c0dbc64b70af90fd698a233a518aa5d07e595d983b8c0526c8f7fb87876040516108809291906119da565b60405180910390a461044b815f87878787610fda565b81518351146108b75760405162461bcd60e51b81526004016102da9061197f565b6001600160a01b0384166108dd5760405162461bcd60e51b81526004016102da90611a07565b335f5b84518110156109bf575f8582815181106108fc576108fc6118fe565b602002602001015190505f858381518110610919576109196118fe565b6020908102919091018101515f84815280835260408082206001600160a01b038e1683529093529190912054909150818110156109685760405162461bcd60e51b81526004016102da90611a4c565b5f838152602081815260408083206001600160a01b038e8116855292528083208585039055908b168252812080548492906109a49084906119c7565b92505081905550505050806109b890611926565b90506108e0565b50846001600160a01b0316866001600160a01b0316826001600160a01b03167f4a39dc06d4c0dbc64b70af90fd698a233a518aa5d07e595d983b8c0526c8f7fb8787604051610a0f9291906119da565b60405180910390a4610a25818787878787610fda565b505050505050565b6001600160a01b038316610a535760405162461bcd60e51b81526004016102da90611a96565b8051825114610a745760405162461bcd60e51b81526004016102da9061197f565b60408051602081019091525f9081905233905b8351811015610b45575f848281518110610aa357610aa36118fe565b602002602001015190505f848381518110610ac057610ac06118fe565b6020908102919091018101515f84815280835260408082206001600160a01b038c168352909352919091205490915081811015610b0f5760405162461bcd60e51b81526004016102da90611ad9565b5f928352602083815260408085206001600160a01b038b1686529091529092209103905580610b3d81611926565b915050610a87565b505f6001600160a01b0316846001600160a01b0316826001600160a01b03167f4a39dc06d4c0dbc64b70af90fd698a233a518aa5d07e595d983b8c0526c8f7fb8686604051610b959291906119da565b60405180910390a460408051602081019091525f9052610400565b600380546001600160a01b038381166001600160a01b0319831681179093556040519116919082907f8be0079c531659141344cd1fd0a4f28419497f9722a3daafe3b4186f6b6457e0905f90a35050565b6001600160a01b038416610c275760405162461bcd60e51b81526004016102da9061193e565b335f610c3285611134565b90505f610c3e85611134565b90505f868152602081815260408083206001600160a01b038b16845290915281208054879290610c6f9084906119c7565b909155505060408051878152602081018790526001600160a01b03808a16925f92918716917fc3d58168c5ae7397731d063d5bbf3d657854427343f4c083240f7aacaa2d0f62910160405180910390a4610ccd835f8989898961117d565b50505050505050565b816001600160a01b0316836001600160a01b031603610d495760405162461bcd60e51b815260206004820152602960248201527f455243313135353a2073657474696e6720617070726f76616c20737461747573604482015268103337b91039b2b63360b91b60648201526084016102da565b6001600160a01b038381165f81815260016020908152604080832094871680845294825291829020805460ff191686151590811790915591519182527f17307eab39ab6107e8899845ad3d59bd9653f200f220920489ca2b5937696c31910160405180910390a3505050565b6001600160a01b038416610ddb5760405162461bcd60e51b81526004016102da90611a07565b335f610de685611134565b90505f610df285611134565b90505f868152602081815260408083206001600160a01b038c16845290915290205485811015610e345760405162461bcd60e51b81526004016102da90611a4c565b5f878152602081815260408083206001600160a01b038d8116855292528083208985039055908a16825281208054889290610e709084906119c7565b909155505060408051888152602081018890526001600160a01b03808b16928c821692918816917fc3d58168c5ae7397731d063d5bbf3d657854427343f4c083240f7aacaa2d0f62910160405180910390a4610ed0848a8a8a8a8a61117d565b505050505050505050565b6001600160a01b038316610f015760405162461bcd60e51b81526004016102da90611a96565b335f610f0c84611134565b90505f610f1884611134565b60408051602080820183525f918290528882528181528282206001600160a01b038b1683529052205490915084811015610f645760405162461bcd60e51b81526004016102da90611ad9565b5f868152602081815260408083206001600160a01b038b81168086529184528285208a8703905582518b81529384018a90529092908816917fc3d58168c5ae7397731d063d5bbf3d657854427343f4c083240f7aacaa2d0f62910160405180910390a460408051602081019091525f9052610ccd565b6001600160a01b0384163b15610a255760405163bc197c8160e01b81526001600160a01b0385169063bc197c819061101e9089908990889088908890600401611b1d565b6020604051808303815f875af1925050508015611058575060408051601f3d908101601f1916820190925261105591810190611b7a565b60015b61110457611064611b95565b806308c379a00361109d5750611078611bae565b80611083575061109f565b8060405162461bcd60e51b81526004016102da919061130b565b505b60405162461bcd60e51b815260206004820152603460248201527f455243313135353a207472616e7366657220746f206e6f6e2d455243313135356044820152732932b1b2b4bb32b91034b6b83632b6b2b73a32b960611b60648201526084016102da565b6001600160e01b0319811663bc197c8160e01b14610ccd5760405162461bcd60e51b81526004016102da90611c37565b6040805160018082528183019092526060915f91906020808301908036833701905050905082815f8151811061116c5761116c6118fe565b602090810291909101015292915050565b6001600160a01b0384163b15610a255760405163f23a6e6160e01b81526001600160a01b0385169063f23a6e61906111c19089908990889088908890600401611c7f565b6020604051808303815f875af19250505080156111fb575060408051601f3d908101601f191682019092526111f891810190611b7a565b60015b61120757611064611b95565b6001600160e01b0319811663f23a6e6160e01b14610ccd5760405162461bcd60e51b81526004016102da90611c37565b80356001600160a01b038116811461124d575f80fd5b919050565b5f8060408385031215611263575f80fd5b61126c83611237565b946020939093013593505050565b6001600160e01b0319811681146106b3575f80fd5b5f6020828403121561129f575f80fd5b81356112aa8161127a565b9392505050565b5f602082840312156112c1575f80fd5b5035919050565b5f81518084525f5b818110156112ec576020818501810151868301820152016112d0565b505f602082860101526020601f19601f83011685010191505092915050565b602081525f6112aa60208301846112c8565b634e487b7160e01b5f52604160045260245ffd5b601f8201601f1916810167ffffffffffffffff811182821017156113575761135761131d565b6040525050565b5f67ffffffffffffffff8211156113775761137761131d565b5060051b60200190565b5f82601f830112611390575f80fd5b8135602061139d8261135e565b6040516113aa8282611331565b83815260059390931b85018201928281019150868411156113c9575f80fd5b8286015b848110156113e457803583529183019183016113cd565b509695505050505050565b5f82601f8301126113fe575f80fd5b813567ffffffffffffffff8111156114185761141861131d565b60405161142f601f8301601f191660200182611331565b818152846020838601011115611443575f80fd5b816020850160208301375f918101602001919091529392505050565b5f805f8060808587031215611472575f80fd5b61147b85611237565b9350602085013567ffffffffffffffff80821115611497575f80fd5b6114a388838901611381565b945060408701359150808211156114b8575f80fd5b6114c488838901611381565b935060608701359150808211156114d9575f80fd5b506114e6878288016113ef565b91505092959194509250565b5f805f805f60a08688031215611506575f80fd5b61150f86611237565b945061151d60208701611237565b9350604086013567ffffffffffffffff80821115611539575f80fd5b61154589838a01611381565b9450606088013591508082111561155a575f80fd5b61156689838a01611381565b9350608088013591508082111561157b575f80fd5b50611588888289016113ef565b9150509295509295909350565b5f80604083850312156115a6575f80fd5b823567ffffffffffffffff808211156115bd575f80fd5b818501915085601f8301126115d0575f80fd5b813560206115dd8261135e565b6040516115ea8282611331565b83815260059390931b8501820192828101915089841115611609575f80fd5b948201945b8386101561162e5761161f86611237565b8252948201949082019061160e565b96505086013592505080821115611643575f80fd5b5061165085828601611381565b9150509250929050565b5f8151808452602080850194508084015f5b838110156116885781518752958201959082019060010161166c565b509495945050505050565b602081525f6112aa602083018461165a565b5f805f606084860312156116b7575f80fd5b6116c084611237565b9250602084013567ffffffffffffffff808211156116dc575f80fd5b6116e887838801611381565b935060408601359150808211156116fd575f80fd5b5061170a86828701611381565b9150509250925092565b5f805f8060808587031215611727575f80fd5b61173085611237565b93506020850135925060408501359150606085013567ffffffffffffffff811115611759575f80fd5b6114e6878288016113ef565b5f8060408385031215611776575f80fd5b61177f83611237565b915060208301358015158114611793575f80fd5b809150509250929050565b5f80604083850312156117af575f80fd5b6117b883611237565b91506117c660208401611237565b90509250929050565b5f805f805f60a086880312156117e3575f80fd5b6117ec86611237565b94506117fa60208701611237565b93506040860135925060608601359150608086013567ffffffffffffffff811115611823575f80fd5b611588888289016113ef565b5f6020828403121561183f575f80fd5b6112aa82611237565b5f805f6060848603121561185a575f80fd5b61186384611237565b95602085013595506040909401359392505050565b600181811c9082168061188c57607f821691505b6020821081036118aa57634e487b7160e01b5f52602260045260245ffd5b50919050565b6020808252602e908201527f455243313135353a2063616c6c6572206973206e6f7420746f6b656e206f776e60408201526d195c881bdc88185c1c1c9bdd995960921b606082015260800190565b634e487b7160e01b5f52603260045260245ffd5b634e487b7160e01b5f52601160045260245ffd5b5f6001820161193757611937611912565b5060010190565b60208082526021908201527f455243313135353a206d696e7420746f20746865207a65726f206164647265736040820152607360f81b606082015260800190565b60208082526028908201527f455243313135353a2069647320616e6420616d6f756e7473206c656e677468206040820152670dad2e6dac2e8c6d60c31b606082015260800190565b8082018082111561030557610305611912565b604081525f6119ec604083018561165a565b82810360208401526119fe818561165a565b95945050505050565b60208082526025908201527f455243313135353a207472616e7366657220746f20746865207a65726f206164604082015264647265737360d81b606082015260800190565b6020808252602a908201527f455243313135353a20696e73756666696369656e742062616c616e636520666f60408201526939103a3930b739b332b960b11b606082015260800190565b60208082526023908201527f455243313135353a206275726e2066726f6d20746865207a65726f206164647260408201526265737360e81b606082015260800190565b60208082526024908201527f455243313135353a206275726e20616d6f756e7420657863656564732062616c604082015263616e636560e01b606082015260800190565b6001600160a01b0386811682528516602082015260a0604082018190525f90611b489083018661165a565b8281036060840152611b5a818661165a565b90508281036080840152611b6e81856112c8565b98975050505050505050565b5f60208284031215611b8a575f80fd5b81516112aa8161127a565b5f60033d1115611bab5760045f803e505f5160e01c5b90565b5f60443d1015611bbb5790565b6040516003193d81016004833e81513d67ffffffffffffffff8160248401118184111715611beb57505050505090565b8285019150815181811115611c035750505050505090565b843d8701016020828501011115611c1d5750505050505090565b611c2c60208286010187611331565b509095945050505050565b60208082526028908201527f455243313135353a204552433131353552656365697665722072656a656374656040820152676420746f6b656e7360c01b606082015260800190565b6001600160a01b03868116825285166020820152604081018490526060810183905260a0608082018190525f90611cb8908301846112c8565b97965050505050505056fea26469706673582212204d0a3e93e39627f87501370bb13f5b7f7a9a549d48863dcd03f9e12de4224f7364736f6c63430008140033",
					"opcodes": "PUSH1 0x80 PUSH1 0x40 MSTORE CALLVALUE DUP1 ISZERO PUSH3 0x10 JUMPI PUSH0 DUP1 REVERT JUMPDEST POP PUSH1 0x40 DUP1 MLOAD DUP1 DUP3 ADD SWAP1 SWAP2 MSTORE PUSH1 0x7 DUP2 MSTORE PUSH7 0x11151A58DAD95D PUSH1 0xCA SHL PUSH1 0x20 DUP3 ADD MSTORE PUSH3 0x3A DUP2 PUSH3 0x4C JUMP JUMPDEST POP PUSH3 0x46 CALLER PUSH3 0x5E JUMP JUMPDEST PUSH3 0x217 JUMP JUMPDEST PUSH1 0x2 PUSH3 0x5A DUP3 DUP3 PUSH3 0x14F JUMP JUMPDEST POP POP JUMP JUMPDEST PUSH1 0x3 DUP1 SLOAD PUSH1 0x1 PUSH1 0x1 PUSH1 0xA0 SHL SUB DUP4 DUP2 AND PUSH1 0x1 PUSH1 0x1 PUSH1 0xA0 SHL SUB NOT DUP4 AND DUP2 OR SWAP1 SWAP4 SSTORE PUSH1 0x40 MLOAD SWAP2 AND SWAP2 SWAP1 DUP3 SWAP1 PUSH32 0x8BE0079C531659141344CD1FD0A4F28419497F9722A3DAAFE3B4186F6B6457E0 SWAP1 PUSH0 SWAP1 LOG3 POP POP JUMP JUMPDEST PUSH4 0x4E487B71 PUSH1 0xE0 SHL PUSH0 MSTORE PUSH1 0x41 PUSH1 0x4 MSTORE PUSH1 0x24 PUSH0 REVERT JUMPDEST PUSH1 0x1 DUP2 DUP2 SHR SWAP1 DUP3 AND DUP1 PUSH3 0xD8 JUMPI PUSH1 0x7F DUP3 AND SWAP2 POP JUMPDEST PUSH1 0x20 DUP3 LT DUP2 SUB PUSH3 0xF7 JUMPI PUSH4 0x4E487B71 PUSH1 0xE0 SHL PUSH0 MSTORE PUSH1 0x22 PUSH1 0x4 MSTORE PUSH1 0x24 PUSH0 REVERT JUMPDEST POP SWAP2 SWAP1 POP JUMP JUMPDEST PUSH1 0x1F DUP3 GT ISZERO PUSH3 0x14A JUMPI PUSH0 DUP2 DUP2 MSTORE PUSH1 0x20 DUP2 KECCAK256 PUSH1 0x1F DUP6 ADD PUSH1 0x5 SHR DUP2 ADD PUSH1 0x20 DUP7 LT ISZERO PUSH3 0x125 JUMPI POP DUP1 JUMPDEST PUSH1 0x1F DUP6 ADD PUSH1 0x5 SHR DUP3 ADD SWAP2 POP JUMPDEST DUP2 DUP2 LT ISZERO PUSH3 0x146 JUMPI DUP3 DUP2 SSTORE PUSH1 0x1 ADD PUSH3 0x131 JUMP JUMPDEST POP POP POP JUMPDEST POP POP POP JUMP JUMPDEST DUP2 MLOAD PUSH1 0x1 PUSH1 0x1 PUSH1 0x40 SHL SUB DUP2 GT ISZERO PUSH3 0x16B JUMPI PUSH3 0x16B PUSH3 0xAF JUMP JUMPDEST PUSH3 0x183 DUP2 PUSH3 0x17C DUP5 SLOAD PUSH3 0xC3 JUMP JUMPDEST DUP5 PUSH3 0xFD JUMP JUMPDEST PUSH1 0x20 DUP1 PUSH1 0x1F DUP4 GT PUSH1 0x1 DUP2 EQ PUSH3 0x1B9 JUMPI PUSH0 DUP5 ISZERO PUSH3 0x1A1 JUMPI POP DUP6 DUP4 ADD MLOAD JUMPDEST PUSH0 NOT PUSH1 0x3 DUP7 SWAP1 SHL SHR NOT AND PUSH1 0x1 DUP6 SWAP1 SHL OR DUP6 SSTORE PUSH3 0x146 JUMP JUMPDEST PUSH0 DUP6 DUP2 MSTORE PUSH1 0x20 DUP2 KECCAK256 PUSH1 0x1F NOT DUP7 AND SWAP2 JUMPDEST DUP3 DUP2 LT ISZERO PUSH3 0x1E9 JUMPI DUP9 DUP7 ADD MLOAD DUP3 SSTORE SWAP5 DUP5 ADD SWAP5 PUSH1 0x1 SWAP1 SWAP2 ADD SWAP1 DUP5 ADD PUSH3 0x1C8 JUMP JUMPDEST POP DUP6 DUP3 LT ISZERO PUSH3 0x207 JUMPI DUP8 DUP6 ADD MLOAD PUSH0 NOT PUSH1 0x3 DUP9 SWAP1 SHL PUSH1 0xF8 AND SHR NOT AND DUP2 SSTORE JUMPDEST POP POP POP POP POP PUSH1 0x1 SWAP1 DUP2 SHL ADD SWAP1 SSTORE POP JUMP JUMPDEST PUSH2 0x1CF9 DUP1 PUSH3 0x225 PUSH0 CODECOPY PUSH0 RETURN INVALID PUSH1 0x80 PUSH1 0x40 MSTORE CALLVALUE DUP1 ISZERO PUSH2 0xF JUMPI PUSH0 DUP1 REVERT JUMPDEST POP PUSH1 0x4 CALLDATASIZE LT PUSH2 0xEF JUMPI PUSH0 CALLDATALOAD PUSH1 0xE0 SHR DUP1 PUSH4 0x715018A6 GT PUSH2 0x93 JUMPI DUP1 PUSH4 0xE985E9C5 GT PUSH2 0x63 JUMPI DUP1 PUSH4 0xE985E9C5 EQ PUSH2 0x200 JUMPI DUP1 PUSH4 0xF242432A EQ PUSH2 0x23B JUMPI DUP1 PUSH4 0xF2FDE38B EQ PUSH2 0x24E JUMPI DUP1 PUSH4 0xF5298ACA EQ PUSH2 0x261 JUMPI PUSH0 DUP1 REVERT JUMPDEST DUP1 PUSH4 0x715018A6 EQ PUSH2 0x1B7 JUMPI DUP1 PUSH4 0x731133E9 EQ PUSH2 0x1BF JUMPI DUP1 PUSH4 0x8DA5CB5B EQ PUSH2 0x1D2 JUMPI DUP1 PUSH4 0xA22CB465 EQ PUSH2 0x1ED JUMPI PUSH0 DUP1 REVERT JUMPDEST DUP1 PUSH4 0x1F7FDFFA GT PUSH2 0xCE JUMPI DUP1 PUSH4 0x1F7FDFFA EQ PUSH2 0x15C JUMPI DUP1 PUSH4 0x2EB2C2D6 EQ PUSH2 0x171 JUMPI DUP1 PUSH4 0x4E1273F4 EQ PUSH2 0x184 JUMPI DUP1 PUSH4 0x6B20C454 EQ PUSH2 0x1A4 JUMPI PUSH0 DUP1 REVERT JUMPDEST DUP1 PUSH3 0xFDD58E EQ PUSH2 0xF3 JUMPI DUP1 PUSH4 0x1FFC9A7 EQ PUSH2 0x119 JUMPI DUP1 PUSH4 0xE89341C EQ PUSH2 0x13C JUMPI JUMPDEST PUSH0 DUP1 REVERT JUMPDEST PUSH2 0x106 PUSH2 0x101 CALLDATASIZE PUSH1 0x4 PUSH2 0x1252 JUMP JUMPDEST PUSH2 0x274 JUMP JUMPDEST PUSH1 0x40 MLOAD SWAP1 DUP2 MSTORE PUSH1 0x20 ADD JUMPDEST PUSH1 0x40 MLOAD DUP1 SWAP2 SUB SWAP1 RETURN JUMPDEST PUSH2 0x12C PUSH2 0x127 CALLDATASIZE PUSH1 0x4 PUSH2 0x128F JUMP JUMPDEST PUSH2 0x30B JUMP JUMPDEST PUSH1 0x40 MLOAD SWAP1 ISZERO ISZERO DUP2 MSTORE PUSH1 0x20 ADD PUSH2 0x110 JUMP JUMPDEST PUSH2 0x14F PUSH2 0x14A CALLDATASIZE PUSH1 0x4 PUSH2 0x12B1 JUMP JUMPDEST PUSH2 0x35A JUMP JUMPDEST PUSH1 0x40 MLOAD PUSH2 0x110 SWAP2 SWAP1 PUSH2 0x130B JUMP JUMPDEST PUSH2 0x16F PUSH2 0x16A CALLDATASIZE PUSH1 0x4 PUSH2 0x145F JUMP JUMPDEST PUSH2 0x3EC JUMP JUMPDEST STOP JUMPDEST PUSH2 0x16F PUSH2 0x17F CALLDATASIZE PUSH1 0x4 PUSH2 0x14F2 JUMP JUMPDEST PUSH2 0x406 JUMP JUMPDEST PUSH2 0x197 PUSH2 0x192 CALLDATASIZE PUSH1 0x4 PUSH2 0x1595 JUMP JUMPDEST PUSH2 0x452 JUMP JUMPDEST PUSH1 0x40 MLOAD PUSH2 0x110 SWAP2 SWAP1 PUSH2 0x1693 JUMP JUMPDEST PUSH2 0x16F PUSH2 0x1B2 CALLDATASIZE PUSH1 0x4 PUSH2 0x16A5 JUMP JUMPDEST PUSH2 0x57A JUMP JUMPDEST PUSH2 0x16F PUSH2 0x5C2 JUMP JUMPDEST PUSH2 0x16F PUSH2 0x1CD CALLDATASIZE PUSH1 0x4 PUSH2 0x1714 JUMP JUMPDEST PUSH2 0x5D5 JUMP JUMPDEST PUSH1 0x3 SLOAD PUSH1 0x40 MLOAD PUSH1 0x1 PUSH1 0x1 PUSH1 0xA0 SHL SUB SWAP1 SWAP2 AND DUP2 MSTORE PUSH1 0x20 ADD PUSH2 0x110 JUMP JUMPDEST PUSH2 0x16F PUSH2 0x1FB CALLDATASIZE PUSH1 0x4 PUSH2 0x1765 JUMP JUMPDEST PUSH2 0x5E9 JUMP JUMPDEST PUSH2 0x12C PUSH2 0x20E CALLDATASIZE PUSH1 0x4 PUSH2 0x179E JUMP JUMPDEST PUSH1 0x1 PUSH1 0x1 PUSH1 0xA0 SHL SUB SWAP2 DUP3 AND PUSH0 SWAP1 DUP2 MSTORE PUSH1 0x1 PUSH1 0x20 SWAP1 DUP2 MSTORE PUSH1 0x40 DUP1 DUP4 KECCAK256 SWAP4 SWAP1 SWAP5 AND DUP3 MSTORE SWAP2 SWAP1 SWAP2 MSTORE KECCAK256 SLOAD PUSH1 0xFF AND SWAP1 JUMP JUMPDEST PUSH2 0x16F PUSH2 0x249 CALLDATASIZE PUSH1 0x4 PUSH2 0x17CF JUMP JUMPDEST PUSH2 0x5F8 JUMP JUMPDEST PUSH2 0x16F PUSH2 0x25C CALLDATASIZE PUSH1 0x4 PUSH2 0x182F JUMP JUMPDEST PUSH2 0x63D JUMP JUMPDEST PUSH2 0x16F PUSH2 0x26F CALLDATASIZE PUSH1 0x4 PUSH2 0x1848 JUMP JUMPDEST PUSH2 0x6B6 JUMP JUMPDEST PUSH0 PUSH1 0x1 PUSH1 0x1 PUSH1 0xA0 SHL SUB DUP4 AND PUSH2 0x2E3 JUMPI PUSH1 0x40 MLOAD PUSH3 0x461BCD PUSH1 0xE5 SHL DUP2 MSTORE PUSH1 0x20 PUSH1 0x4 DUP3 ADD MSTORE PUSH1 0x2A PUSH1 0x24 DUP3 ADD MSTORE PUSH32 0x455243313135353A2061646472657373207A65726F206973206E6F7420612076 PUSH1 0x44 DUP3 ADD MSTORE PUSH10 0x30B634B21037BBB732B9 PUSH1 0xB1 SHL PUSH1 0x64 DUP3 ADD MSTORE PUSH1 0x84 ADD JUMPDEST PUSH1 0x40 MLOAD DUP1 SWAP2 SUB SWAP1 REVERT JUMPDEST POP PUSH0 DUP2 DUP2 MSTORE PUSH1 0x20 DUP2 DUP2 MSTORE PUSH1 0x40 DUP1 DUP4 KECCAK256 PUSH1 0x1 PUSH1 0x1 PUSH1 0xA0 SHL SUB DUP7 AND DUP5 MSTORE SWAP1 SWAP2 MSTORE SWAP1 KECCAK256 SLOAD JUMPDEST SWAP3 SWAP2 POP POP JUMP JUMPDEST PUSH0 PUSH1 0x1 PUSH1 0x1 PUSH1 0xE0 SHL SUB NOT DUP3 AND PUSH4 0x6CDB3D13 PUSH1 0xE1 SHL EQ DUP1 PUSH2 0x33B JUMPI POP PUSH1 0x1 PUSH1 0x1 PUSH1 0xE0 SHL SUB NOT DUP3 AND PUSH4 0x3A24D07 PUSH1 0xE2 SHL EQ JUMPDEST DUP1 PUSH2 0x305 JUMPI POP PUSH4 0x1FFC9A7 PUSH1 0xE0 SHL PUSH1 0x1 PUSH1 0x1 PUSH1 0xE0 SHL SUB NOT DUP4 AND EQ PUSH2 0x305 JUMP JUMPDEST PUSH1 0x60 PUSH1 0x2 DUP1 SLOAD PUSH2 0x369 SWAP1 PUSH2 0x1878 JUMP JUMPDEST DUP1 PUSH1 0x1F ADD PUSH1 0x20 DUP1 SWAP2 DIV MUL PUSH1 0x20 ADD PUSH1 0x40 MLOAD SWAP1 DUP2 ADD PUSH1 0x40 MSTORE DUP1 SWAP3 SWAP2 SWAP1 DUP2 DUP2 MSTORE PUSH1 0x20 ADD DUP3 DUP1 SLOAD PUSH2 0x395 SWAP1 PUSH2 0x1878 JUMP JUMPDEST DUP1 ISZERO PUSH2 0x3E0 JUMPI DUP1 PUSH1 0x1F LT PUSH2 0x3B7 JUMPI PUSH2 0x100 DUP1 DUP4 SLOAD DIV MUL DUP4 MSTORE SWAP2 PUSH1 0x20 ADD SWAP2 PUSH2 0x3E0 JUMP JUMPDEST DUP3 ADD SWAP2 SWAP1 PUSH0 MSTORE PUSH1 0x20 PUSH0 KECCAK256 SWAP1 JUMPDEST DUP2 SLOAD DUP2 MSTORE SWAP1 PUSH1 0x1 ADD SWAP1 PUSH1 0x20 ADD DUP1 DUP4 GT PUSH2 0x3C3 JUMPI DUP3 SWAP1 SUB PUSH1 0x1F AND DUP3 ADD SWAP2 JUMPDEST POP POP POP POP POP SWAP1 POP SWAP2 SWAP1 POP JUMP JUMPDEST PUSH2 0x3F4 PUSH2 0x6F9 JUMP JUMPDEST PUSH2 0x400 DUP5 DUP5 DUP5 DUP5 PUSH2 0x753 JUMP JUMPDEST POP POP POP POP JUMP JUMPDEST PUSH1 0x1 PUSH1 0x1 PUSH1 0xA0 SHL SUB DUP6 AND CALLER EQ DUP1 PUSH2 0x422 JUMPI POP PUSH2 0x422 DUP6 CALLER PUSH2 0x20E JUMP JUMPDEST PUSH2 0x43E JUMPI PUSH1 0x40 MLOAD PUSH3 0x461BCD PUSH1 0xE5 SHL DUP2 MSTORE PUSH1 0x4 ADD PUSH2 0x2DA SWAP1 PUSH2 0x18B0 JUMP JUMPDEST PUSH2 0x44B DUP6 DUP6 DUP6 DUP6 DUP6 PUSH2 0x896 JUMP JUMPDEST POP POP POP POP POP JUMP JUMPDEST PUSH1 0x60 DUP2 MLOAD DUP4 MLOAD EQ PUSH2 0x4B7 JUMPI PUSH1 0x40 MLOAD PUSH3 0x461BCD PUSH1 0xE5 SHL DUP2 MSTORE PUSH1 0x20 PUSH1 0x4 DUP3 ADD MSTORE PUSH1 0x29 PUSH1 0x24 DUP3 ADD MSTORE PUSH32 0x455243313135353A206163636F756E747320616E6420696473206C656E677468 PUSH1 0x44 DUP3 ADD MSTORE PUSH9 0x40DAD2E6DAC2E8C6D PUSH1 0xBB SHL PUSH1 0x64 DUP3 ADD MSTORE PUSH1 0x84 ADD PUSH2 0x2DA JUMP JUMPDEST PUSH0 DUP4 MLOAD PUSH8 0xFFFFFFFFFFFFFFFF DUP2 GT ISZERO PUSH2 0x4D2 JUMPI PUSH2 0x4D2 PUSH2 0x131D JUMP JUMPDEST PUSH1 0x40 MLOAD SWAP1 DUP1 DUP3 MSTORE DUP1 PUSH1 0x20 MUL PUSH1 0x20 ADD DUP3 ADD PUSH1 0x40 MSTORE DUP1 ISZERO PUSH2 0x4FB JUMPI DUP2 PUSH1 0x20 ADD PUSH1 0x20 DUP3 MUL DUP1 CALLDATASIZE DUP4 CALLDATACOPY ADD SWAP1 POP JUMPDEST POP SWAP1 POP PUSH0 JUMPDEST DUP5 MLOAD DUP2 LT ISZERO PUSH2 0x572 JUMPI PUSH2 0x545 DUP6 DUP3 DUP2 MLOAD DUP2 LT PUSH2 0x51E JUMPI PUSH2 0x51E PUSH2 0x18FE JUMP JUMPDEST PUSH1 0x20 MUL PUSH1 0x20 ADD ADD MLOAD DUP6 DUP4 DUP2 MLOAD DUP2 LT PUSH2 0x538 JUMPI PUSH2 0x538 PUSH2 0x18FE JUMP JUMPDEST PUSH1 0x20 MUL PUSH1 0x20 ADD ADD MLOAD PUSH2 0x274 JUMP JUMPDEST DUP3 DUP3 DUP2 MLOAD DUP2 LT PUSH2 0x557 JUMPI PUSH2 0x557 PUSH2 0x18FE JUMP JUMPDEST PUSH1 0x20 SWAP1 DUP2 MUL SWAP2 SWAP1 SWAP2 ADD ADD MSTORE PUSH2 0x56B DUP2 PUSH2 0x1926 JUMP JUMPDEST SWAP1 POP PUSH2 0x500 JUMP JUMPDEST POP SWAP4 SWAP3 POP POP POP JUMP JUMPDEST PUSH1 0x1 PUSH1 0x1 PUSH1 0xA0 SHL SUB DUP4 AND CALLER EQ DUP1 PUSH2 0x596 JUMPI POP PUSH2 0x596 DUP4 CALLER PUSH2 0x20E JUMP JUMPDEST PUSH2 0x5B2 JUMPI PUSH1 0x40 MLOAD PUSH3 0x461BCD PUSH1 0xE5 SHL DUP2 MSTORE PUSH1 0x4 ADD PUSH2 0x2DA SWAP1 PUSH2 0x18B0 JUMP JUMPDEST PUSH2 0x5BD DUP4 DUP4 DUP4 PUSH2 0xA2D JUMP JUMPDEST POP POP POP JUMP JUMPDEST PUSH2 0x5CA PUSH2 0x6F9 JUMP JUMPDEST PUSH2 0x5D3 PUSH0 PUSH2 0xBB0 JUMP JUMPDEST JUMP JUMPDEST PUSH2 0x5DD PUSH2 0x6F9 JUMP JUMPDEST PUSH2 0x400 DUP5 DUP5 DUP5 DUP5 PUSH2 0xC01 JUMP JUMPDEST PUSH2 0x5F4 CALLER DUP4 DUP4 PUSH2 0xCD6 JUMP JUMPDEST POP POP JUMP JUMPDEST PUSH1 0x1 PUSH1 0x1 PUSH1 0xA0 SHL SUB DUP6 AND CALLER EQ DUP1 PUSH2 0x614 JUMPI POP PUSH2 0x614 DUP6 CALLER PUSH2 0x20E JUMP JUMPDEST PUSH2 0x630 JUMPI PUSH1 0x40 MLOAD PUSH3 0x461BCD PUSH1 0xE5 SHL DUP2 MSTORE PUSH1 0x4 ADD PUSH2 0x2DA SWAP1 PUSH2 0x18B0 JUMP JUMPDEST PUSH2 0x44B DUP6 DUP6 DUP6 DUP6 DUP6 PUSH2 0xDB5 JUMP JUMPDEST PUSH2 0x645 PUSH2 0x6F9 JUMP JUMPDEST PUSH1 0x1 PUSH1 0x1 PUSH1 0xA0 SHL SUB DUP2 AND PUSH2 0x6AA JUMPI PUSH1 0x40 MLOAD PUSH3 0x461BCD PUSH1 0xE5 SHL DUP2 MSTORE PUSH1 0x20 PUSH1 0x4 DUP3 ADD MSTORE PUSH1 0x26 PUSH1 0x24 DUP3 ADD MSTORE PUSH32 0x4F776E61626C653A206E6577206F776E657220697320746865207A65726F2061 PUSH1 0x44 DUP3 ADD MSTORE PUSH6 0x646472657373 PUSH1 0xD0 SHL PUSH1 0x64 DUP3 ADD MSTORE PUSH1 0x84 ADD PUSH2 0x2DA JUMP JUMPDEST PUSH2 0x6B3 DUP2 PUSH2 0xBB0 JUMP JUMPDEST POP JUMP JUMPDEST PUSH1 0x1 PUSH1 0x1 PUSH1 0xA0 SHL SUB DUP4 AND CALLER EQ DUP1 PUSH2 0x6D2 JUMPI POP PUSH2 0x6D2 DUP4 CALLER PUSH2 0x20E JUMP JUMPDEST PUSH2 0x6EE JUMPI PUSH1 0x40 MLOAD PUSH3 0x461BCD PUSH1 0xE5 SHL DUP2 MSTORE PUSH1 0x4 ADD PUSH2 0x2DA SWAP1 PUSH2 0x18B0 JUMP JUMPDEST PUSH2 0x5BD DUP4 DUP4 DUP4 PUSH2 0xEDB JUMP JUMPDEST PUSH1 0x3 SLOAD PUSH1 0x1 PUSH1 0x1 PUSH1 0xA0 SHL SUB AND CALLER EQ PUSH2 0x5D3 JUMPI PUSH1 0x40 MLOAD PUSH3 0x461BCD PUSH1 0xE5 SHL DUP2 MSTORE PUSH1 0x20 PUSH1 0x4 DUP3 ADD DUP2 SWAP1 MSTORE PUSH1 0x24 DUP3 ADD MSTORE PUSH32 0x4F776E61626C653A2063616C6C6572206973206E6F7420746865206F776E6572 PUSH1 0x44 DUP3 ADD MSTORE PUSH1 0x64 ADD PUSH2 0x2DA JUMP JUMPDEST PUSH1 0x1 PUSH1 0x1 PUSH1 0xA0 SHL SUB DUP5 AND PUSH2 0x779 JUMPI PUSH1 0x40 MLOAD PUSH3 0x461BCD PUSH1 0xE5 SHL DUP2 MSTORE PUSH1 0x4 ADD PUSH2 0x2DA SWAP1 PUSH2 0x193E JUMP JUMPDEST DUP2 MLOAD DUP4 MLOAD EQ PUSH2 0x79A JUMPI PUSH1 0x40 MLOAD PUSH3 0x461BCD PUSH1 0xE5 SHL DUP2 MSTORE PUSH1 0x4 ADD PUSH2 0x2DA SWAP1 PUSH2 0x197F JUMP JUMPDEST CALLER PUSH0 JUMPDEST DUP5 MLOAD DUP2 LT ISZERO PUSH2 0x830 JUMPI DUP4 DUP2 DUP2 MLOAD DUP2 LT PUSH2 0x7B8 JUMPI PUSH2 0x7B8 PUSH2 0x18FE JUMP JUMPDEST PUSH1 0x20 MUL PUSH1 0x20 ADD ADD MLOAD PUSH0 DUP1 DUP8 DUP5 DUP2 MLOAD DUP2 LT PUSH2 0x7D4 JUMPI PUSH2 0x7D4 PUSH2 0x18FE JUMP JUMPDEST PUSH1 0x20 MUL PUSH1 0x20 ADD ADD MLOAD DUP2 MSTORE PUSH1 0x20 ADD SWAP1 DUP2 MSTORE PUSH1 0x20 ADD PUSH0 KECCAK256 PUSH0 DUP9 PUSH1 0x1 PUSH1 0x1 PUSH1 0xA0 SHL SUB AND PUSH1 0x1 PUSH1 0x1 PUSH1 0xA0 SHL SUB AND DUP2 MSTORE PUSH1 0x20 ADD SWAP1 DUP2 MSTORE PUSH1 0x20 ADD PUSH0 KECCAK256 PUSH0 DUP3 DUP3 SLOAD PUSH2 0x818 SWAP2 SWAP1 PUSH2 0x19C7 JUMP JUMPDEST SWAP1 SWAP2 SSTORE POP DUP2 SWAP1 POP PUSH2 0x828 DUP2 PUSH2 0x1926 JUMP JUMPDEST SWAP2 POP POP PUSH2 0x79D JUMP JUMPDEST POP DUP5 PUSH1 0x1 PUSH1 0x1 PUSH1 0xA0 SHL SUB AND PUSH0 PUSH1 0x1 PUSH1 0x1 PUSH1 0xA0 SHL SUB AND DUP3 PUSH1 0x1 PUSH1 0x1 PUSH1 0xA0 SHL SUB AND PUSH32 0x4A39DC06D4C0DBC64B70AF90FD698A233A518AA5D07E595D983B8C0526C8F7FB DUP8 DUP8 PUSH1 0x40 MLOAD PUSH2 0x880 SWAP3 SWAP2 SWAP1 PUSH2 0x19DA JUMP JUMPDEST PUSH1 0x40 MLOAD DUP1 SWAP2 SUB SWAP1 LOG4 PUSH2 0x44B DUP2 PUSH0 DUP8 DUP8 DUP8 DUP8 PUSH2 0xFDA JUMP JUMPDEST DUP2 MLOAD DUP4 MLOAD EQ PUSH2 0x8B7 JUMPI PUSH1 0x40 MLOAD PUSH3 0x461BCD PUSH1 0xE5 SHL DUP2 MSTORE PUSH1 0x4 ADD PUSH2 0x2DA SWAP1 PUSH2 0x197F JUMP JUMPDEST PUSH1 0x1 PUSH1 0x1 PUSH1 0xA0 SHL SUB DUP5 AND PUSH2 0x8DD JUMPI PUSH1 0x40 MLOAD PUSH3 0x461BCD PUSH1 0xE5 SHL DUP2 MSTORE PUSH1 0x4 ADD PUSH2 0x2DA SWAP1 PUSH2 0x1A07 JUMP JUMPDEST CALLER PUSH0 JUMPDEST DUP5 MLOAD DUP2 LT ISZERO PUSH2 0x9BF JUMPI PUSH0 DUP6 DUP3 DUP2 MLOAD DUP2 LT PUSH2 0x8FC JUMPI PUSH2 0x8FC PUSH2 0x18FE JUMP JUMPDEST PUSH1 0x20 MUL PUSH1 0x20 ADD ADD MLOAD SWAP1 POP PUSH0 DUP6 DUP4 DUP2 MLOAD DUP2 LT PUSH2 0x919 JUMPI PUSH2 0x919 PUSH2 0x18FE JUMP JUMPDEST PUSH1 0x20 SWAP1 DUP2 MUL SWAP2 SWAP1 SWAP2 ADD DUP2 ADD MLOAD PUSH0 DUP5 DUP2 MSTORE DUP1 DUP4 MSTORE PUSH1 0x40 DUP1 DUP3 KECCAK256 PUSH1 0x1 PUSH1 0x1 PUSH1 0xA0 SHL SUB DUP15 AND DUP4 MSTORE SWAP1 SWAP4 MSTORE SWAP2 SWAP1 SWAP2 KECCAK256 SLOAD SWAP1 SWAP2 POP DUP2 DUP2 LT ISZERO PUSH2 0x968 JUMPI PUSH1 0x40 MLOAD PUSH3 0x461BCD PUSH1 0xE5 SHL DUP2 MSTORE PUSH1 0x4 ADD PUSH2 0x2DA SWAP1 PUSH2 0x1A4C JUMP JUMPDEST PUSH0 DUP4 DUP2 MSTORE PUSH1 0x20 DUP2 DUP2 MSTORE PUSH1 0x40 DUP1 DUP4 KECCAK256 PUSH1 0x1 PUSH1 0x1 PUSH1 0xA0 SHL SUB DUP15 DUP2 AND DUP6 MSTORE SWAP3 MSTORE DUP1 DUP4 KECCAK256 DUP6 DUP6 SUB SWAP1 SSTORE SWAP1 DUP12 AND DUP3 MSTORE DUP2 KECCAK256 DUP1 SLOAD DUP5 SWAP3 SWAP1 PUSH2 0x9A4 SWAP1 DUP5 SWAP1 PUSH2 0x19C7 JUMP JUMPDEST SWAP3 POP POP DUP2 SWAP1 SSTORE POP POP POP POP DUP1 PUSH2 0x9B8 SWAP1 PUSH2 0x1926 JUMP JUMPDEST SWAP1 POP PUSH2 0x8E0 JUMP JUMPDEST POP DUP5 PUSH1 0x1 PUSH1 0x1 PUSH1 0xA0 SHL SUB AND DUP7 PUSH1 0x1 PUSH1 0x1 PUSH1 0xA0 SHL SUB AND DUP3 PUSH1 0x1 PUSH1 0x1 PUSH1 0xA0 SHL SUB AND PUSH32 0x4A39DC06D4C0DBC64B70AF90FD698A233A518AA5D07E595D983B8C0526C8F7FB DUP8 DUP8 PUSH1 0x40 MLOAD PUSH2 0xA0F SWAP3 SWAP2 SWAP1 PUSH2 0x19DA JUMP JUMPDEST PUSH1 0x40 MLOAD DUP1 SWAP2 SUB SWAP1 LOG4 PUSH2 0xA25 DUP2 DUP8 DUP8 DUP8 DUP8 DUP8 PUSH2 0xFDA JUMP JUMPDEST POP POP POP POP POP POP JUMP JUMPDEST PUSH1 0x1 PUSH1 0x1 PUSH1 0xA0 SHL SUB DUP4 AND PUSH2 0xA53 JUMPI PUSH1 0x40 MLOAD PUSH3 0x461BCD PUSH1 0xE5 SHL DUP2 MSTORE PUSH1 0x4 ADD PUSH2 0x2DA SWAP1 PUSH2 0x1A96 JUMP JUMPDEST DUP1 MLOAD DUP3 MLOAD EQ PUSH2 0xA74 JUMPI PUSH1 0x40 MLOAD PUSH3 0x461BCD PUSH1 0xE5 SHL DUP2 MSTORE PUSH1 0x4 ADD PUSH2 0x2DA SWAP1 PUSH2 0x197F JUMP JUMPDEST PUSH1 0x40 DUP1 MLOAD PUSH1 0x20 DUP2 ADD SWAP1 SWAP2 MSTORE PUSH0 SWAP1 DUP2 SWAP1 MSTORE CALLER SWAP1 JUMPDEST DUP4 MLOAD DUP2 LT ISZERO PUSH2 0xB45 JUMPI PUSH0 DUP5 DUP3 DUP2 MLOAD DUP2 LT PUSH2 0xAA3 JUMPI PUSH2 0xAA3 PUSH2 0x18FE JUMP JUMPDEST PUSH1 0x20 MUL PUSH1 0x20 ADD ADD MLOAD SWAP1 POP PUSH0 DUP5 DUP4 DUP2 MLOAD DUP2 LT PUSH2 0xAC0 JUMPI PUSH2 0xAC0 PUSH2 0x18FE JUMP JUMPDEST PUSH1 0x20 SWAP1 DUP2 MUL SWAP2 SWAP1 SWAP2 ADD DUP2 ADD MLOAD PUSH0 DUP5 DUP2 MSTORE DUP1 DUP4 MSTORE PUSH1 0x40 DUP1 DUP3 KECCAK256 PUSH1 0x1 PUSH1 0x1 PUSH1 0xA0 SHL SUB DUP13 AND DUP4 MSTORE SWAP1 SWAP4 MSTORE SWAP2 SWAP1 SWAP2 KECCAK256 SLOAD SWAP1 SWAP2 POP DUP2 DUP2 LT ISZERO PUSH2 0xB0F JUMPI PUSH1 0x40 MLOAD PUSH3 0x461BCD PUSH1 0xE5 SHL DUP2 MSTORE PUSH1 0x4 ADD PUSH2 0x2DA SWAP1 PUSH2 0x1AD9 JUMP JUMPDEST PUSH0 SWAP3 DUP4 MSTORE PUSH1 0x20 DUP4 DUP2 MSTORE PUSH1 0x40 DUP1 DUP6 KECCAK256 PUSH1 0x1 PUSH1 0x1 PUSH1 0xA0 SHL SUB DUP12 AND DUP7 MSTORE SWAP1 SWAP2 MSTORE SWAP1 SWAP3 KECCAK256 SWAP2 SUB SWAP1 SSTORE DUP1 PUSH2 0xB3D DUP2 PUSH2 0x1926 JUMP JUMPDEST SWAP2 POP POP PUSH2 0xA87 JUMP JUMPDEST POP PUSH0 PUSH1 0x1 PUSH1 0x1 PUSH1 0xA0 SHL SUB AND DUP5 PUSH1 0x1 PUSH1 0x1 PUSH1 0xA0 SHL SUB AND DUP3 PUSH1 0x1 PUSH1 0x1 PUSH1 0xA0 SHL SUB AND PUSH32 0x4A39DC06D4C0DBC64B70AF90FD698A233A518AA5D07E595D983B8C0526C8F7FB DUP7 DUP7 PUSH1 0x40 MLOAD PUSH2 0xB95 SWAP3 SWAP2 SWAP1 PUSH2 0x19DA JUMP JUMPDEST PUSH1 0x40 MLOAD DUP1 SWAP2 SUB SWAP1 LOG4 PUSH1 0x40 DUP1 MLOAD PUSH1 0x20 DUP2 ADD SWAP1 SWAP2 MSTORE PUSH0 SWAP1 MSTORE PUSH2 0x400 JUMP JUMPDEST PUSH1 0x3 DUP1 SLOAD PUSH1 0x1 PUSH1 0x1 PUSH1 0xA0 SHL SUB DUP4 DUP2 AND PUSH1 0x1 PUSH1 0x1 PUSH1 0xA0 SHL SUB NOT DUP4 AND DUP2 OR SWAP1 SWAP4 SSTORE PUSH1 0x40 MLOAD SWAP2 AND SWAP2 SWAP1 DUP3 SWAP1 PUSH32 0x8BE0079C531659141344CD1FD0A4F28419497F9722A3DAAFE3B4186F6B6457E0 SWAP1 PUSH0 SWAP1 LOG3 POP POP JUMP JUMPDEST PUSH1 0x1 PUSH1 0x1 PUSH1 0xA0 SHL SUB DUP5 AND PUSH2 0xC27 JUMPI PUSH1 0x40 MLOAD PUSH3 0x461BCD PUSH1 0xE5 SHL DUP2 MSTORE PUSH1 0x4 ADD PUSH2 0x2DA SWAP1 PUSH2 0x193E JUMP JUMPDEST CALLER PUSH0 PUSH2 0xC32 DUP6 PUSH2 0x1134 JUMP JUMPDEST SWAP1 POP PUSH0 PUSH2 0xC3E DUP6 PUSH2 0x1134 JUMP JUMPDEST SWAP1 POP PUSH0 DUP7 DUP2 MSTORE PUSH1 0x20 DUP2 DUP2 MSTORE PUSH1 0x40 DUP1 DUP4 KECCAK256 PUSH1 0x1 PUSH1 0x1 PUSH1 0xA0 SHL SUB DUP12 AND DUP5 MSTORE SWAP1 SWAP2 MSTORE DUP2 KECCAK256 DUP1 SLOAD DUP8 SWAP3 SWAP1 PUSH2 0xC6F SWAP1 DUP5 SWAP1 PUSH2 0x19C7 JUMP JUMPDEST SWAP1 SWAP2 SSTORE POP POP PUSH1 0x40 DUP1 MLOAD DUP8 DUP2 MSTORE PUSH1 0x20 DUP2 ADD DUP8 SWAP1 MSTORE PUSH1 0x1 PUSH1 0x1 PUSH1 0xA0 SHL SUB DUP1 DUP11 AND SWAP3 PUSH0 SWAP3 SWAP2 DUP8 AND SWAP2 PUSH32 0xC3D58168C5AE7397731D063D5BBF3D657854427343F4C083240F7AACAA2D0F62 SWAP2 ADD PUSH1 0x40 MLOAD DUP1 SWAP2 SUB SWAP1 LOG4 PUSH2 0xCCD DUP4 PUSH0 DUP10 DUP10 DUP10 DUP10 PUSH2 0x117D JUMP JUMPDEST POP POP POP POP POP POP POP JUMP JUMPDEST DUP2 PUSH1 0x1 PUSH1 0x1 PUSH1 0xA0 SHL SUB AND DUP4 PUSH1 0x1 PUSH1 0x1 PUSH1 0xA0 SHL SUB AND SUB PUSH2 0xD49 JUMPI PUSH1 0x40 MLOAD PUSH3 0x461BCD PUSH1 0xE5 SHL DUP2 MSTORE PUSH1 0x20 PUSH1 0x4 DUP3 ADD MSTORE PUSH1 0x29 PUSH1 0x24 DUP3 ADD MSTORE PUSH32 0x455243313135353A2073657474696E6720617070726F76616C20737461747573 PUSH1 0x44 DUP3 ADD MSTORE PUSH9 0x103337B91039B2B633 PUSH1 0xB9 SHL PUSH1 0x64 DUP3 ADD MSTORE PUSH1 0x84 ADD PUSH2 0x2DA JUMP JUMPDEST PUSH1 0x1 PUSH1 0x1 PUSH1 0xA0 SHL SUB DUP4 DUP2 AND PUSH0 DUP2 DUP2 MSTORE PUSH1 0x1 PUSH1 0x20 SWAP1 DUP2 MSTORE PUSH1 0x40 DUP1 DUP4 KECCAK256 SWAP5 DUP8 AND DUP1 DUP5 MSTORE SWAP5 DUP3 MSTORE SWAP2 DUP3 SWAP1 KECCAK256 DUP1 SLOAD PUSH1 0xFF NOT AND DUP7 ISZERO ISZERO SWAP1 DUP2 OR SWAP1 SWAP2 SSTORE SWAP2 MLOAD SWAP2 DUP3 MSTORE PUSH32 0x17307EAB39AB6107E8899845AD3D59BD9653F200F220920489CA2B5937696C31 SWAP2 ADD PUSH1 0x40 MLOAD DUP1 SWAP2 SUB SWAP1 LOG3 POP POP POP JUMP JUMPDEST PUSH1 0x1 PUSH1 0x1 PUSH1 0xA0 SHL SUB DUP5 AND PUSH2 0xDDB JUMPI PUSH1 0x40 MLOAD PUSH3 0x461BCD PUSH1 0xE5 SHL DUP2 MSTORE PUSH1 0x4 ADD PUSH2 0x2DA SWAP1 PUSH2 0x1A07 JUMP JUMPDEST CALLER PUSH0 PUSH2 0xDE6 DUP6 PUSH2 0x1134 JUMP JUMPDEST SWAP1 POP PUSH0 PUSH2 0xDF2 DUP6 PUSH2 0x1134 JUMP JUMPDEST SWAP1 POP PUSH0 DUP7 DUP2 MSTORE PUSH1 0x20 DUP2 DUP2 MSTORE PUSH1 0x40 DUP1 DUP4 KECCAK256 PUSH1 0x1 PUSH1 0x1 PUSH1 0xA0 SHL SUB DUP13 AND DUP5 MSTORE SWAP1 SWAP2 MSTORE SWAP1 KECCAK256 SLOAD DUP6 DUP2 LT ISZERO PUSH2 0xE34 JUMPI PUSH1 0x40 MLOAD PUSH3 0x461BCD PUSH1 0xE5 SHL DUP2 MSTORE PUSH1 0x4 ADD PUSH2 0x2DA SWAP1 PUSH2 0x1A4C JUMP JUMPDEST PUSH0 DUP8 DUP2 MSTORE PUSH1 0x20 DUP2 DUP2 MSTORE PUSH1 0x40 DUP1 DUP4 KECCAK256 PUSH1 0x1 PUSH1 0x1 PUSH1 0xA0 SHL SUB DUP14 DUP2 AND DUP6 MSTORE SWAP3 MSTORE DUP1 DUP4 KECCAK256 DUP10 DUP6 SUB SWAP1 SSTORE SWAP1 DUP11 AND DUP3 MSTORE DUP2 KECCAK256 DUP1 SLOAD DUP9 SWAP3 SWAP1 PUSH2 0xE70 SWAP1 DUP5 SWAP1 PUSH2 0x19C7 JUMP JUMPDEST SWAP1 SWAP2 SSTORE POP POP PUSH1 0x40 DUP1 MLOAD DUP9 DUP2 MSTORE PUSH1 0x20 DUP2 ADD DUP9 SWAP1 MSTORE PUSH1 0x1 PUSH1 0x1 PUSH1 0xA0 SHL SUB DUP1 DUP12 AND SWAP3 DUP13 DUP3 AND SWAP3 SWAP2 DUP9 AND SWAP2 PUSH32 0xC3D58168C5AE7397731D063D5BBF3D657854427343F4C083240F7AACAA2D0F62 SWAP2 ADD PUSH1 0x40 MLOAD DUP1 SWAP2 SUB SWAP1 LOG4 PUSH2 0xED0 DUP5 DUP11 DUP11 DUP11 DUP11 DUP11 PUSH2 0x117D JUMP JUMPDEST POP POP POP POP POP POP POP POP POP JUMP JUMPDEST PUSH1 0x1 PUSH1 0x1 PUSH1 0xA0 SHL SUB DUP4 AND PUSH2 0xF01 JUMPI PUSH1 0x40 MLOAD PUSH3 0x461BCD PUSH1 0xE5 SHL DUP2 MSTORE PUSH1 0x4 ADD PUSH2 0x2DA SWAP1 PUSH2 0x1A96 JUMP JUMPDEST CALLER PUSH0 PUSH2 0xF0C DUP5 PUSH2 0x1134 JUMP JUMPDEST SWAP1 POP PUSH0 PUSH2 0xF18 DUP5 PUSH2 0x1134 JUMP JUMPDEST PUSH1 0x40 DUP1 MLOAD PUSH1 0x20 DUP1 DUP3 ADD DUP4 MSTORE PUSH0 SWAP2 DUP3 SWAP1 MSTORE DUP9 DUP3 MSTORE DUP2 DUP2 MSTORE DUP3 DUP3 KECCAK256 PUSH1 0x1 PUSH1 0x1 PUSH1 0xA0 SHL SUB DUP12 AND DUP4 MSTORE SWAP1 MSTORE KECCAK256 SLOAD SWAP1 SWAP2 POP DUP5 DUP2 LT ISZERO PUSH2 0xF64 JUMPI PUSH1 0x40 MLOAD PUSH3 0x461BCD PUSH1 0xE5 SHL DUP2 MSTORE PUSH1 0x4 ADD PUSH2 0x2DA SWAP1 PUSH2 0x1AD9 JUMP JUMPDEST PUSH0 DUP7 DUP2 MSTORE PUSH1 0x20 DUP2 DUP2 MSTORE PUSH1 0x40 DUP1 DUP4 KECCAK256 PUSH1 0x1 PUSH1 0x1 PUSH1 0xA0 SHL SUB DUP12 DUP2 AND DUP1 DUP7 MSTORE SWAP2 DUP5 MSTORE DUP3 DUP6 KECCAK256 DUP11 DUP8 SUB SWAP1 SSTORE DUP3 MLOAD DUP12 DUP2 MSTORE SWAP4 DUP5 ADD DUP11 SWAP1 MSTORE SWAP1 SWAP3 SWAP1 DUP9 AND SWAP2 PUSH32 0xC3D58168C5AE7397731D063D5BBF3D657854427343F4C083240F7AACAA2D0F62 SWAP2 ADD PUSH1 0x40 MLOAD DUP1 SWAP2 SUB SWAP1 LOG4 PUSH1 0x40 DUP1 MLOAD PUSH1 0x20 DUP2 ADD SWAP1 SWAP2 MSTORE PUSH0 SWAP1 MSTORE PUSH2 0xCCD JUMP JUMPDEST PUSH1 0x1 PUSH1 0x1 PUSH1 0xA0 SHL SUB DUP5 AND EXTCODESIZE ISZERO PUSH2 0xA25 JUMPI PUSH1 0x40 MLOAD PUSH4 0xBC197C81 PUSH1 0xE0 SHL DUP2 MSTORE PUSH1 0x1 PUSH1 0x1 PUSH1 0xA0 SHL SUB DUP6 AND SWAP1 PUSH4 0xBC197C81 SWAP1 PUSH2 0x101E SWAP1 DUP10 SWAP1 DUP10 SWAP1 DUP9 SWAP1 DUP9 SWAP1 DUP9 SWAP1 PUSH1 0x4 ADD PUSH2 0x1B1D JUMP JUMPDEST PUSH1 0x20 PUSH1 0x40 MLOAD DUP1 DUP4 SUB DUP2 PUSH0 DUP8 GAS CALL SWAP3 POP POP POP DUP1 ISZERO PUSH2 0x1058 JUMPI POP PUSH1 0x40 DUP1 MLOAD PUSH1 0x1F RETURNDATASIZE SWAP1 DUP2 ADD PUSH1 0x1F NOT AND DUP3 ADD SWAP1 SWAP3 MSTORE PUSH2 0x1055 SWAP2 DUP2 ADD SWAP1 PUSH2 0x1B7A JUMP JUMPDEST PUSH1 0x1 JUMPDEST PUSH2 0x1104 JUMPI PUSH2 0x1064 PUSH2 0x1B95 JUMP JUMPDEST DUP1 PUSH4 0x8C379A0 SUB PUSH2 0x109D JUMPI POP PUSH2 0x1078 PUSH2 0x1BAE JUMP JUMPDEST DUP1 PUSH2 0x1083 JUMPI POP PUSH2 0x109F JUMP JUMPDEST DUP1 PUSH1 0x40 MLOAD PUSH3 0x461BCD PUSH1 0xE5 SHL DUP2 MSTORE PUSH1 0x4 ADD PUSH2 0x2DA SWAP2 SWAP1 PUSH2 0x130B JUMP JUMPDEST POP JUMPDEST PUSH1 0x40 MLOAD PUSH3 0x461BCD PUSH1 0xE5 SHL DUP2 MSTORE PUSH1 0x20 PUSH1 0x4 DUP3 ADD MSTORE PUSH1 0x34 PUSH1 0x24 DUP3 ADD MSTORE PUSH32 0x455243313135353A207472616E7366657220746F206E6F6E2D45524331313535 PUSH1 0x44 DUP3 ADD MSTORE PUSH20 0x2932B1B2B4BB32B91034B6B83632B6B2B73A32B9 PUSH1 0x61 SHL PUSH1 0x64 DUP3 ADD MSTORE PUSH1 0x84 ADD PUSH2 0x2DA JUMP JUMPDEST PUSH1 0x1 PUSH1 0x1 PUSH1 0xE0 SHL SUB NOT DUP2 AND PUSH4 0xBC197C81 PUSH1 0xE0 SHL EQ PUSH2 0xCCD JUMPI PUSH1 0x40 MLOAD PUSH3 0x461BCD PUSH1 0xE5 SHL DUP2 MSTORE PUSH1 0x4 ADD PUSH2 0x2DA SWAP1 PUSH2 0x1C37 JUMP JUMPDEST PUSH1 0x40 DUP1 MLOAD PUSH1 0x1 DUP1 DUP3 MSTORE DUP2 DUP4 ADD SWAP1 SWAP3 MSTORE PUSH1 0x60 SWAP2 PUSH0 SWAP2 SWAP1 PUSH1 0x20 DUP1 DUP4 ADD SWAP1 DUP1 CALLDATASIZE DUP4 CALLDATACOPY ADD SWAP1 POP POP SWAP1 POP DUP3 DUP2 PUSH0 DUP2 MLOAD DUP2 LT PUSH2 0x116C JUMPI PUSH2 0x116C PUSH2 0x18FE JUMP JUMPDEST PUSH1 0x20 SWAP1 DUP2 MUL SWAP2 SWAP1 SWAP2 ADD ADD MSTORE SWAP3 SWAP2 POP POP JUMP JUMPDEST PUSH1 0x1 PUSH1 0x1 PUSH1 0xA0 SHL SUB DUP5 AND EXTCODESIZE ISZERO PUSH2 0xA25 JUMPI PUSH1 0x40 MLOAD PUSH4 0xF23A6E61 PUSH1 0xE0 SHL DUP2 MSTORE PUSH1 0x1 PUSH1 0x1 PUSH1 0xA0 SHL SUB DUP6 AND SWAP1 PUSH4 0xF23A6E61 SWAP1 PUSH2 0x11C1 SWAP1 DUP10 SWAP1 DUP10 SWAP1 DUP9 SWAP1 DUP9 SWAP1 DUP9 SWAP1 PUSH1 0x4 ADD PUSH2 0x1C7F JUMP JUMPDEST PUSH1 0x20 PUSH1 0x40 MLOAD DUP1 DUP4 SUB DUP2 PUSH0 DUP8 GAS CALL SWAP3 POP POP POP DUP1 ISZERO PUSH2 0x11FB JUMPI POP PUSH1 0x40 DUP1 MLOAD PUSH1 0x1F RETURNDATASIZE SWAP1 DUP2 ADD PUSH1 0x1F NOT AND DUP3 ADD SWAP1 SWAP3 MSTORE PUSH2 0x11F8 SWAP2 DUP2 ADD SWAP1 PUSH2 0x1B7A JUMP JUMPDEST PUSH1 0x1 JUMPDEST PUSH2 0x1207 JUMPI PUSH2 0x1064 PUSH2 0x1B95 JUMP JUMPDEST PUSH1 0x1 PUSH1 0x1 PUSH1 0xE0 SHL SUB NOT DUP2 AND PUSH4 0xF23A6E61 PUSH1 0xE0 SHL EQ PUSH2 0xCCD JUMPI PUSH1 0x40 MLOAD PUSH3 0x461BCD PUSH1 0xE5 SHL DUP2 MSTORE PUSH1 0x4 ADD PUSH2 0x2DA SWAP1 PUSH2 0x1C37 JUMP JUMPDEST DUP1 CALLDATALOAD PUSH1 0x1 PUSH1 0x1 PUSH1 0xA0 SHL SUB DUP2 AND DUP2 EQ PUSH2 0x124D JUMPI PUSH0 DUP1 REVERT JUMPDEST SWAP2 SWAP1 POP JUMP JUMPDEST PUSH0 DUP1 PUSH1 0x40 DUP4 DUP6 SUB SLT ISZERO PUSH2 0x1263 JUMPI PUSH0 DUP1 REVERT JUMPDEST PUSH2 0x126C DUP4 PUSH2 0x1237 JUMP JUMPDEST SWAP5 PUSH1 0x20 SWAP4 SWAP1 SWAP4 ADD CALLDATALOAD SWAP4 POP POP POP JUMP JUMPDEST PUSH1 0x1 PUSH1 0x1 PUSH1 0xE0 SHL SUB NOT DUP2 AND DUP2 EQ PUSH2 0x6B3 JUMPI PUSH0 DUP1 REVERT JUMPDEST PUSH0 PUSH1 0x20 DUP3 DUP5 SUB SLT ISZERO PUSH2 0x129F JUMPI PUSH0 DUP1 REVERT JUMPDEST DUP2 CALLDATALOAD PUSH2 0x12AA DUP2 PUSH2 0x127A JUMP JUMPDEST SWAP4 SWAP3 POP POP POP JUMP JUMPDEST PUSH0 PUSH1 0x20 DUP3 DUP5 SUB SLT ISZERO PUSH2 0x12C1 JUMPI PUSH0 DUP1 REVERT JUMPDEST POP CALLDATALOAD SWAP2 SWAP1 POP JUMP JUMPDEST PUSH0 DUP2 MLOAD DUP1 DUP5 MSTORE PUSH0 JUMPDEST DUP2 DUP2 LT ISZERO PUSH2 0x12EC JUMPI PUSH1 0x20 DUP2 DUP6 ADD DUP2 ADD MLOAD DUP7 DUP4 ADD DUP3 ADD MSTORE ADD PUSH2 0x12D0 JUMP JUMPDEST POP PUSH0 PUSH1 0x20 DUP3 DUP7 ADD ADD MSTORE PUSH1 0x20 PUSH1 0x1F NOT PUSH1 0x1F DUP4 ADD AND DUP6 ADD ADD SWAP2 POP POP SWAP3 SWAP2 POP POP JUMP JUMPDEST PUSH1 0x20 DUP2 MSTORE PUSH0 PUSH2 0x12AA PUSH1 0x20 DUP4 ADD DUP5 PUSH2 0x12C8 JUMP JUMPDEST PUSH4 0x4E487B71 PUSH1 0xE0 SHL PUSH0 MSTORE PUSH1 0x41 PUSH1 0x4 MSTORE PUSH1 0x24 PUSH0 REVERT JUMPDEST PUSH1 0x1F DUP3 ADD PUSH1 0x1F NOT AND DUP2 ADD PUSH8 0xFFFFFFFFFFFFFFFF DUP2 GT DUP3 DUP3 LT OR ISZERO PUSH2 0x1357 JUMPI PUSH2 0x1357 PUSH2 0x131D JUMP JUMPDEST PUSH1 0x40 MSTORE POP POP JUMP JUMPDEST PUSH0 PUSH8 0xFFFFFFFFFFFFFFFF DUP3 GT ISZERO PUSH2 0x1377 JUMPI PUSH2 0x1377 PUSH2 0x131D JUMP JUMPDEST POP PUSH1 0x5 SHL PUSH1 0x20 ADD SWAP1 JUMP JUMPDEST PUSH0 DUP3 PUSH1 0x1F DUP4 ADD SLT PUSH2 0x1390 JUMPI PUSH0 DUP1 REVERT JUMPDEST DUP2 CALLDATALOAD PUSH1 0x20 PUSH2 0x139D DUP3 PUSH2 0x135E JUMP JUMPDEST PUSH1 0x40 MLOAD PUSH2 0x13AA DUP3 DUP3 PUSH2 0x1331 JUMP JUMPDEST DUP4 DUP2 MSTORE PUSH1 0x5 SWAP4 SWAP1 SWAP4 SHL DUP6 ADD DUP3 ADD SWAP3 DUP3 DUP2 ADD SWAP2 POP DUP7 DUP5 GT ISZERO PUSH2 0x13C9 JUMPI PUSH0 DUP1 REVERT JUMPDEST DUP3 DUP7 ADD JUMPDEST DUP5 DUP2 LT ISZERO PUSH2 0x13E4 JUMPI DUP1 CALLDATALOAD DUP4 MSTORE SWAP2 DUP4 ADD SWAP2 DUP4 ADD PUSH2 0x13CD JUMP JUMPDEST POP SWAP7 SWAP6 POP POP POP POP POP POP JUMP JUMPDEST PUSH0 DUP3 PUSH1 0x1F DUP4 ADD SLT PUSH2 0x13FE JUMPI PUSH0 DUP1 REVERT JUMPDEST DUP2 CALLDATALOAD PUSH8 0xFFFFFFFFFFFFFFFF DUP2 GT ISZERO PUSH2 0x1418 JUMPI PUSH2 0x1418 PUSH2 0x131D JUMP JUMPDEST PUSH1 0x40 MLOAD PUSH2 0x142F PUSH1 0x1F DUP4 ADD PUSH1 0x1F NOT AND PUSH1 0x20 ADD DUP3 PUSH2 0x1331 JUMP JUMPDEST DUP2 DUP2 MSTORE DUP5 PUSH1 0x20 DUP4 DUP7 ADD ADD GT ISZERO PUSH2 0x1443 JUMPI PUSH0 DUP1 REVERT JUMPDEST DUP2 PUSH1 0x20 DUP6 ADD PUSH1 0x20 DUP4 ADD CALLDATACOPY PUSH0 SWAP2 DUP2 ADD PUSH1 0x20 ADD SWAP2 SWAP1 SWAP2 MSTORE SWAP4 SWAP3 POP POP POP JUMP JUMPDEST PUSH0 DUP1 PUSH0 DUP1 PUSH1 0x80 DUP6 DUP8 SUB SLT ISZERO PUSH2 0x1472 JUMPI PUSH0 DUP1 REVERT JUMPDEST PUSH2 0x147B DUP6 PUSH2 0x1237 JUMP JUMPDEST SWAP4 POP PUSH1 0x20 DUP6 ADD CALLDATALOAD PUSH8 0xFFFFFFFFFFFFFFFF DUP1 DUP3 GT ISZERO PUSH2 0x1497 JUMPI PUSH0 DUP1 REVERT JUMPDEST PUSH2 0x14A3 DUP9 DUP4 DUP10 ADD PUSH2 0x1381 JUMP JUMPDEST SWAP5 POP PUSH1 0x40 DUP8 ADD CALLDATALOAD SWAP2 POP DUP1 DUP3 GT ISZERO PUSH2 0x14B8 JUMPI PUSH0 DUP1 REVERT JUMPDEST PUSH2 0x14C4 DUP9 DUP4 DUP10 ADD PUSH2 0x1381 JUMP JUMPDEST SWAP4 POP PUSH1 0x60 DUP8 ADD CALLDATALOAD SWAP2 POP DUP1 DUP3 GT ISZERO PUSH2 0x14D9 JUMPI PUSH0 DUP1 REVERT JUMPDEST POP PUSH2 0x14E6 DUP8 DUP3 DUP9 ADD PUSH2 0x13EF JUMP JUMPDEST SWAP2 POP POP SWAP3 SWAP6 SWAP2 SWAP5 POP SWAP3 POP JUMP JUMPDEST PUSH0 DUP1 PUSH0 DUP1 PUSH0 PUSH1 0xA0 DUP7 DUP9 SUB SLT ISZERO PUSH2 0x1506 JUMPI PUSH0 DUP1 REVERT JUMPDEST PUSH2 0x150F DUP7 PUSH2 0x1237 JUMP JUMPDEST SWAP5 POP PUSH2 0x151D PUSH1 0x20 DUP8 ADD PUSH2 0x1237 JUMP JUMPDEST SWAP4 POP PUSH1 0x40 DUP7 ADD CALLDATALOAD PUSH8 0xFFFFFFFFFFFFFFFF DUP1 DUP3 GT ISZERO PUSH2 0x1539 JUMPI PUSH0 DUP1 REVERT JUMPDEST PUSH2 0x1545 DUP10 DUP4 DUP11 ADD PUSH2 0x1381 JUMP JUMPDEST SWAP5 POP PUSH1 0x60 DUP9 ADD CALLDATALOAD SWAP2 POP DUP1 DUP3 GT ISZERO PUSH2 0x155A JUMPI PUSH0 DUP1 REVERT JUMPDEST PUSH2 0x1566 DUP10 DUP4 DUP11 ADD PUSH2 0x1381 JUMP JUMPDEST SWAP4 POP PUSH1 0x80 DUP9 ADD CALLDATALOAD SWAP2 POP DUP1 DUP3 GT ISZERO PUSH2 0x157B JUMPI PUSH0 DUP1 REVERT JUMPDEST POP PUSH2 0x1588 DUP9 DUP3 DUP10 ADD PUSH2 0x13EF JUMP JUMPDEST SWAP2 POP POP SWAP3 SWAP6 POP SWAP3 SWAP6 SWAP1 SWAP4 POP JUMP JUMPDEST PUSH0 DUP1 PUSH1 0x40 DUP4 DUP6 SUB SLT ISZERO PUSH2 0x15A6 JUMPI PUSH0 DUP1 REVERT JUMPDEST DUP3 CALLDATALOAD PUSH8 0xFFFFFFFFFFFFFFFF DUP1 DUP3 GT ISZERO PUSH2 0x15BD JUMPI PUSH0 DUP1 REVERT JUMPDEST DUP2 DUP6 ADD SWAP2 POP DUP6 PUSH1 0x1F DUP4 ADD SLT PUSH2 0x15D0 JUMPI PUSH0 DUP1 REVERT JUMPDEST DUP2 CALLDATALOAD PUSH1 0x20 PUSH2 0x15DD DUP3 PUSH2 0x135E JUMP JUMPDEST PUSH1 0x40 MLOAD PUSH2 0x15EA DUP3 DUP3 PUSH2 0x1331 JUMP JUMPDEST DUP4 DUP2 MSTORE PUSH1 0x5 SWAP4 SWAP1 SWAP4 SHL DUP6 ADD DUP3 ADD SWAP3 DUP3 DUP2 ADD SWAP2 POP DUP10 DUP5 GT ISZERO PUSH2 0x1609 JUMPI PUSH0 DUP1 REVERT JUMPDEST SWAP5 DUP3 ADD SWAP5 JUMPDEST DUP4 DUP7 LT ISZERO PUSH2 0x162E JUMPI PUSH2 0x161F DUP7 PUSH2 0x1237 JUMP JUMPDEST DUP3 MSTORE SWAP5 DUP3 ADD SWAP5 SWAP1 DUP3 ADD SWAP1 PUSH2 0x160E JUMP JUMPDEST SWAP7 POP POP DUP7 ADD CALLDATALOAD SWAP3 POP POP DUP1 DUP3 GT ISZERO PUSH2 0x1643 JUMPI PUSH0 DUP1 REVERT JUMPDEST POP PUSH2 0x1650 DUP6 DUP3 DUP7 ADD PUSH2 0x1381 JUMP JUMPDEST SWAP2 POP POP SWAP3 POP SWAP3 SWAP1 POP JUMP JUMPDEST PUSH0 DUP2 MLOAD DUP1 DUP5 MSTORE PUSH1 0x20 DUP1 DUP6 ADD SWAP5 POP DUP1 DUP5 ADD PUSH0 JUMPDEST DUP4 DUP2 LT ISZERO PUSH2 0x1688 JUMPI DUP2 MLOAD DUP8 MSTORE SWAP6 DUP3 ADD SWAP6 SWAP1 DUP3 ADD SWAP1 PUSH1 0x1 ADD PUSH2 0x166C JUMP JUMPDEST POP SWAP5 SWAP6 SWAP5 POP POP POP POP POP JUMP JUMPDEST PUSH1 0x20 DUP2 MSTORE PUSH0 PUSH2 0x12AA PUSH1 0x20 DUP4 ADD DUP5 PUSH2 0x165A JUMP JUMPDEST PUSH0 DUP1 PUSH0 PUSH1 0x60 DUP5 DUP7 SUB SLT ISZERO PUSH2 0x16B7 JUMPI PUSH0 DUP1 REVERT JUMPDEST PUSH2 0x16C0 DUP5 PUSH2 0x1237 JUMP JUMPDEST SWAP3 POP PUSH1 0x20 DUP5 ADD CALLDATALOAD PUSH8 0xFFFFFFFFFFFFFFFF DUP1 DUP3 GT ISZERO PUSH2 0x16DC JUMPI PUSH0 DUP1 REVERT JUMPDEST PUSH2 0x16E8 DUP8 DUP4 DUP9 ADD PUSH2 0x1381 JUMP JUMPDEST SWAP4 POP PUSH1 0x40 DUP7 ADD CALLDATALOAD SWAP2 POP DUP1 DUP3 GT ISZERO PUSH2 0x16FD JUMPI PUSH0 DUP1 REVERT JUMPDEST POP PUSH2 0x170A DUP7 DUP3 DUP8 ADD PUSH2 0x1381 JUMP JUMPDEST SWAP2 POP POP SWAP3 POP SWAP3 POP SWAP3 JUMP JUMPDEST PUSH0 DUP1 PUSH0 DUP1 PUSH1 0x80 DUP6 DUP8 SUB SLT ISZERO PUSH2 0x1727 JUMPI PUSH0 DUP1 REVERT JUMPDEST PUSH2 0x1730 DUP6 PUSH2 0x1237 JUMP JUMPDEST SWAP4 POP PUSH1 0x20 DUP6 ADD CALLDATALOAD SWAP3 POP PUSH1 0x40 DUP6 ADD CALLDATALOAD SWAP2 POP PUSH1 0x60 DUP6 ADD CALLDATALOAD PUSH8 0xFFFFFFFFFFFFFFFF DUP2 GT ISZERO PUSH2 0x1759 JUMPI PUSH0 DUP1 REVERT JUMPDEST PUSH2 0x14E6 DUP8 DUP3 DUP9 ADD PUSH2 0x13EF JUMP JUMPDEST PUSH0 DUP1 PUSH1 0x40 DUP4 DUP6 SUB SLT ISZERO PUSH2 0x1776 JUMPI PUSH0 DUP1 REVERT JUMPDEST PUSH2 0x177F DUP4 PUSH2 0x1237 JUMP JUMPDEST SWAP2 POP PUSH1 0x20 DUP4 ADD CALLDATALOAD DUP1 ISZERO ISZERO DUP2 EQ PUSH2 0x1793 JUMPI PUSH0 DUP1 REVERT JUMPDEST DUP1 SWAP2 POP POP SWAP3 POP SWAP3 SWAP1 POP JUMP JUMPDEST PUSH0 DUP1 PUSH1 0x40 DUP4 DUP6 SUB SLT ISZERO PUSH2 0x17AF JUMPI PUSH0 DUP1 REVERT JUMPDEST PUSH2 0x17B8 DUP4 PUSH2 0x1237 JUMP JUMPDEST SWAP2 POP PUSH2 0x17C6 PUSH1 0x20 DUP5 ADD PUSH2 0x1237 JUMP JUMPDEST SWAP1 POP SWAP3 POP SWAP3 SWAP1 POP JUMP JUMPDEST PUSH0 DUP1 PUSH0 DUP1 PUSH0 PUSH1 0xA0 DUP7 DUP9 SUB SLT ISZERO PUSH2 0x17E3 JUMPI PUSH0 DUP1 REVERT JUMPDEST PUSH2 0x17EC DUP7 PUSH2 0x1237 JUMP JUMPDEST SWAP5 POP PUSH2 0x17FA PUSH1 0x20 DUP8 ADD PUSH2 0x1237 JUMP JUMPDEST SWAP4 POP PUSH1 0x40 DUP7 ADD CALLDATALOAD SWAP3 POP PUSH1 0x60 DUP7 ADD CALLDATALOAD SWAP2 POP PUSH1 0x80 DUP7 ADD CALLDATALOAD PUSH8 0xFFFFFFFFFFFFFFFF DUP2 GT ISZERO PUSH2 0x1823 JUMPI PUSH0 DUP1 REVERT JUMPDEST PUSH2 0x1588 DUP9 DUP3 DUP10 ADD PUSH2 0x13EF JUMP JUMPDEST PUSH0 PUSH1 0x20 DUP3 DUP5 SUB SLT ISZERO PUSH2 0x183F JUMPI PUSH0 DUP1 REVERT JUMPDEST PUSH2 0x12AA DUP3 PUSH2 0x1237 JUMP JUMPDEST PUSH0 DUP1 PUSH0 PUSH1 0x60 DUP5 DUP7 SUB SLT ISZERO PUSH2 0x185A JUMPI PUSH0 DUP1 REVERT JUMPDEST PUSH2 0x1863 DUP5 PUSH2 0x1237 JUMP JUMPDEST SWAP6 PUSH1 0x20 DUP6 ADD CALLDATALOAD SWAP6 POP PUSH1 0x40 SWAP1 SWAP5 ADD CALLDATALOAD SWAP4 SWAP3 POP POP POP JUMP JUMPDEST PUSH1 0x1 DUP2 DUP2 SHR SWAP1 DUP3 AND DUP1 PUSH2 0x188C JUMPI PUSH1 0x7F DUP3 AND SWAP2 POP JUMPDEST PUSH1 0x20 DUP3 LT DUP2 SUB PUSH2 0x18AA JUMPI PUSH4 0x4E487B71 PUSH1 0xE0 SHL PUSH0 MSTORE PUSH1 0x22 PUSH1 0x4 MSTORE PUSH1 0x24 PUSH0 REVERT JUMPDEST POP SWAP2 SWAP1 POP JUMP JUMPDEST PUSH1 0x20 DUP1 DUP3 MSTORE PUSH1 0x2E SWAP1 DUP3 ADD MSTORE PUSH32 0x455243313135353A2063616C6C6572206973206E6F7420746F6B656E206F776E PUSH1 0x40 DUP3 ADD MSTORE PUSH14 0x195C881BDC88185C1C1C9BDD9959 PUSH1 0x92 SHL PUSH1 0x60 DUP3 ADD MSTORE PUSH1 0x80 ADD SWAP1 JUMP JUMPDEST PUSH4 0x4E487B71 PUSH1 0xE0 SHL PUSH0 MSTORE PUSH1 0x32 PUSH1 0x4 MSTORE PUSH1 0x24 PUSH0 REVERT JUMPDEST PUSH4 0x4E487B71 PUSH1 0xE0 SHL PUSH0 MSTORE PUSH1 0x11 PUSH1 0x4 MSTORE PUSH1 0x24 PUSH0 REVERT JUMPDEST PUSH0 PUSH1 0x1 DUP3 ADD PUSH2 0x1937 JUMPI PUSH2 0x1937 PUSH2 0x1912 JUMP JUMPDEST POP PUSH1 0x1 ADD SWAP1 JUMP JUMPDEST PUSH1 0x20 DUP1 DUP3 MSTORE PUSH1 0x21 SWAP1 DUP3 ADD MSTORE PUSH32 0x455243313135353A206D696E7420746F20746865207A65726F20616464726573 PUSH1 0x40 DUP3 ADD MSTORE PUSH1 0x73 PUSH1 0xF8 SHL PUSH1 0x60 DUP3 ADD MSTORE PUSH1 0x80 ADD SWAP1 JUMP JUMPDEST PUSH1 0x20 DUP1 DUP3 MSTORE PUSH1 0x28 SWAP1 DUP3 ADD MSTORE PUSH32 0x455243313135353A2069647320616E6420616D6F756E7473206C656E67746820 PUSH1 0x40 DUP3 ADD MSTORE PUSH8 0xDAD2E6DAC2E8C6D PUSH1 0xC3 SHL PUSH1 0x60 DUP3 ADD MSTORE PUSH1 0x80 ADD SWAP1 JUMP JUMPDEST DUP1 DUP3 ADD DUP1 DUP3 GT ISZERO PUSH2 0x305 JUMPI PUSH2 0x305 PUSH2 0x1912 JUMP JUMPDEST PUSH1 0x40 DUP2 MSTORE PUSH0 PUSH2 0x19EC PUSH1 0x40 DUP4 ADD DUP6 PUSH2 0x165A JUMP JUMPDEST DUP3 DUP2 SUB PUSH1 0x20 DUP5 ADD MSTORE PUSH2 0x19FE DUP2 DUP6 PUSH2 0x165A JUMP JUMPDEST SWAP6 SWAP5 POP POP POP POP POP JUMP JUMPDEST PUSH1 0x20 DUP1 DUP3 MSTORE PUSH1 0x25 SWAP1 DUP3 ADD MSTORE PUSH32 0x455243313135353A207472616E7366657220746F20746865207A65726F206164 PUSH1 0x40 DUP3 ADD MSTORE PUSH5 0x6472657373 PUSH1 0xD8 SHL PUSH1 0x60 DUP3 ADD MSTORE PUSH1 0x80 ADD SWAP1 JUMP JUMPDEST PUSH1 0x20 DUP1 DUP3 MSTORE PUSH1 0x2A SWAP1 DUP3 ADD MSTORE PUSH32 0x455243313135353A20696E73756666696369656E742062616C616E636520666F PUSH1 0x40 DUP3 ADD MSTORE PUSH10 0x39103A3930B739B332B9 PUSH1 0xB1 SHL PUSH1 0x60 DUP3 ADD MSTORE PUSH1 0x80 ADD SWAP1 JUMP JUMPDEST PUSH1 0x20 DUP1 DUP3 MSTORE PUSH1 0x23 SWAP1 DUP3 ADD MSTORE PUSH32 0x455243313135353A206275726E2066726F6D20746865207A65726F2061646472 PUSH1 0x40 DUP3 ADD MSTORE PUSH3 0x657373 PUSH1 0xE8 SHL PUSH1 0x60 DUP3 ADD MSTORE PUSH1 0x80 ADD SWAP1 JUMP JUMPDEST PUSH1 0x20 DUP1 DUP3 MSTORE PUSH1 0x24 SWAP1 DUP3 ADD MSTORE PUSH32 0x455243313135353A206275726E20616D6F756E7420657863656564732062616C PUSH1 0x40 DUP3 ADD MSTORE PUSH4 0x616E6365 PUSH1 0xE0 SHL PUSH1 0x60 DUP3 ADD MSTORE PUSH1 0x80 ADD SWAP1 JUMP JUMPDEST PUSH1 0x1 PUSH1 0x1 PUSH1 0xA0 SHL SUB DUP7 DUP2 AND DUP3 MSTORE DUP6 AND PUSH1 0x20 DUP3 ADD MSTORE PUSH1 0xA0 PUSH1 0x40 DUP3 ADD DUP2 SWAP1 MSTORE PUSH0 SWAP1 PUSH2 0x1B48 SWAP1 DUP4 ADD DUP7 PUSH2 0x165A JUMP JUMPDEST DUP3 DUP2 SUB PUSH1 0x60 DUP5 ADD MSTORE PUSH2 0x1B5A DUP2 DUP7 PUSH2 0x165A JUMP JUMPDEST SWAP1 POP DUP3 DUP2 SUB PUSH1 0x80 DUP5 ADD MSTORE PUSH2 0x1B6E DUP2 DUP6 PUSH2 0x12C8 JUMP JUMPDEST SWAP9 SWAP8 POP POP POP POP POP POP POP POP JUMP JUMPDEST PUSH0 PUSH1 0x20 DUP3 DUP5 SUB SLT ISZERO PUSH2 0x1B8A JUMPI PUSH0 DUP1 REVERT JUMPDEST DUP2 MLOAD PUSH2 0x12AA DUP2 PUSH2 0x127A JUMP JUMPDEST PUSH0 PUSH1 0x3 RETURNDATASIZE GT ISZERO PUSH2 0x1BAB JUMPI PUSH1 0x4 PUSH0 DUP1 RETURNDATACOPY POP PUSH0 MLOAD PUSH1 0xE0 SHR JUMPDEST SWAP1 JUMP JUMPDEST PUSH0 PUSH1 0x44 RETURNDATASIZE LT ISZERO PUSH2 0x1BBB JUMPI SWAP1 JUMP JUMPDEST PUSH1 0x40 MLOAD PUSH1 0x3 NOT RETURNDATASIZE DUP2 ADD PUSH1 0x4 DUP4 RETURNDATACOPY DUP2 MLOAD RETURNDATASIZE PUSH8 0xFFFFFFFFFFFFFFFF DUP2 PUSH1 0x24 DUP5 ADD GT DUP2 DUP5 GT OR ISZERO PUSH2 0x1BEB JUMPI POP POP POP POP POP SWAP1 JUMP JUMPDEST DUP3 DUP6 ADD SWAP2 POP DUP2 MLOAD DUP2 DUP2 GT ISZERO PUSH2 0x1C03 JUMPI POP POP POP POP POP POP SWAP1 JUMP JUMPDEST DUP5 RETURNDATASIZE DUP8 ADD ADD PUSH1 0x20 DUP3 DUP6 ADD ADD GT ISZERO PUSH2 0x1C1D JUMPI POP POP POP POP POP POP SWAP1 JUMP JUMPDEST PUSH2 0x1C2C PUSH1 0x20 DUP3 DUP7 ADD ADD DUP8 PUSH2 0x1331 JUMP JUMPDEST POP SWAP1 SWAP6 SWAP5 POP POP POP POP POP JUMP JUMPDEST PUSH1 0x20 DUP1 DUP3 MSTORE PUSH1 0x28 SWAP1 DUP3 ADD MSTORE PUSH32 0x455243313135353A204552433131353552656365697665722072656A65637465 PUSH1 0x40 DUP3 ADD MSTORE PUSH8 0x6420746F6B656E73 PUSH1 0xC0 SHL PUSH1 0x60 DUP3 ADD MSTORE PUSH1 0x80 ADD SWAP1 JUMP JUMPDEST PUSH1 0x1 PUSH1 0x1 PUSH1 0xA0 SHL SUB DUP7 DUP2 AND DUP3 MSTORE DUP6 AND PUSH1 0x20 DUP3 ADD MSTORE PUSH1 0x40 DUP2 ADD DUP5 SWAP1 MSTORE PUSH1 0x60 DUP2 ADD DUP4 SWAP1 MSTORE PUSH1 0xA0 PUSH1 0x80 DUP3 ADD DUP2 SWAP1 MSTORE PUSH0 SWAP1 PUSH2 0x1CB8 SWAP1 DUP4 ADD DUP5 PUSH2 0x12C8 JUMP JUMPDEST SWAP8 SWAP7 POP POP POP POP POP POP POP JUMP INVALID LOG2 PUSH5 0x6970667358 0x22 SLT KECCAK256 0x4D EXP RETURNDATACOPY SWAP4 0xE3 SWAP7 0x27 0xF8 PUSH22 0x1370BB13F5B7F7A9A549D48863DCD03F9E12DE4224F PUSH20 0x64736F6C63430008140033000000000000000000 "
				},
				"gasEstimates": {
					"creation": {
						"codeDepositCost": "1483400",
						"executionCost": "infinite",
						"totalCost": "infinite"
					},
					"external": {
						"balanceOf(address,uint256)": "2696",
						"balanceOfBatch(address[],uint256[])": "infinite",
						"burn(address,uint256,uint256)": "infinite",
						"burnBatch(address,uint256[],uint256[])": "infinite",
						"isApprovedForAll(address,address)": "infinite",
						"mint(address,uint256,uint256,bytes)": "infinite",
						"mintBatch(address,uint256[],uint256[],bytes)": "infinite",
						"owner()": "2367",
						"renounceOwnership()": "infinite",
						"safeBatchTransferFrom(address,address,uint256[],uint256[],bytes)": "infinite",
						"safeTransferFrom(address,address,uint256,uint256,bytes)": "infinite",
						"setApprovalForAll(address,bool)": "26769",
						"supportsInterface(bytes4)": "575",
						"transferOwnership(address)": "28399",
						"uri(uint256)": "infinite"
					}
				},
				"methodIdentifiers": {
					"balanceOf(address,uint256)": "00fdd58e",
					"balanceOfBatch(address[],uint256[])": "4e1273f4",
					"burn(address,uint256,uint256)": "f5298aca",
					"burnBatch(address,uint256[],uint256[])": "6b20c454",
					"isApprovedForAll(address,address)": "e985e9c5",
					"mint(address,uint256,uint256,bytes)": "731133e9",
					"mintBatch(address,uint256[],uint256[],bytes)": "1f7fdffa",
					"owner()": "8da5cb5b",
					"renounceOwnership()": "715018a6",
					"safeBatchTransferFrom(address,address,uint256[],uint256[],bytes)": "2eb2c2d6",
					"safeTransferFrom(address,address,uint256,uint256,bytes)": "f242432a",
					"setApprovalForAll(address,bool)": "a22cb465",
					"supportsInterface(bytes4)": "01ffc9a7",
					"transferOwnership(address)": "f2fde38b",
					"uri(uint256)": "0e89341c"
				}
			},
			"storageLayout": {
				"storage": [
					{
						"astId": 685,
						"contract": "contracts/DTicket2_flattened.sol:DTicket",
						"label": "_balances",
						"offset": 0,
						"slot": "0",
						"type": "t_mapping(t_uint256,t_mapping(t_address,t_uint256))"
					},
					{
						"astId": 691,
						"contract": "contracts/DTicket2_flattened.sol:DTicket",
						"label": "_operatorApprovals",
						"offset": 0,
						"slot": "1",
						"type": "t_mapping(t_address,t_mapping(t_address,t_bool))"
					},
					{
						"astId": 693,
						"contract": "contracts/DTicket2_flattened.sol:DTicket",
						"label": "_uri",
						"offset": 0,
						"slot": "2",
						"type": "t_string_storage"
					},
					{
						"astId": 27,
						"contract": "contracts/DTicket2_flattened.sol:DTicket",
						"label": "_owner",
						"offset": 0,
						"slot": "3",
						"type": "t_address"
					}
				],
				"types": {
					"t_address": {
						"encoding": "inplace",
						"label": "address",
						"numberOfBytes": "20"
					},
					"t_bool": {
						"encoding": "inplace",
						"label": "bool",
						"numberOfBytes": "1"
					},
					"t_mapping(t_address,t_bool)": {
						"encoding": "mapping",
						"key": "t_address",
						"label": "mapping(address => bool)",
						"numberOfBytes": "32",
						"value": "t_bool"
					},
					"t_mapping(t_address,t_mapping(t_address,t_bool))": {
						"encoding": "mapping",
						"key": "t_address",
						"label": "mapping(address => mapping(address => bool))",
						"numberOfBytes": "32",
						"value": "t_mapping(t_address,t_bool)"
					},
					"t_mapping(t_address,t_uint256)": {
						"encoding": "mapping",
						"key": "t_address",
						"label": "mapping(address => uint256)",
						"numberOfBytes": "32",
						"value": "t_uint256"
					},
					"t_mapping(t_uint256,t_mapping(t_address,t_uint256))": {
						"encoding": "mapping",
						"key": "t_uint256",
						"label": "mapping(uint256 => mapping(address => uint256))",
						"numberOfBytes": "32",
						"value": "t_mapping(t_address,t_uint256)"
					},
					"t_string_storage": {
						"encoding": "bytes",
						"label": "string",
						"numberOfBytes": "32"
					},
					"t_uint256": {
						"encoding": "inplace",
						"label": "uint256",
						"numberOfBytes": "32"
					}
				}
			},
			"userdoc": {
				"kind": "user",
				"methods": {},
				"version": 1
			}
		}
	}
}