{
	"contracts/DTiket_flattened.sol": {
		"DTiket": {
			"abi": [
				{
					"inputs": [],
					"stateMutability": "nonpayable",
					"type": "constructor"
				},
				{
					"anonymous": false,
					"inputs": [
						{
							"indexed": true,
							"internalType": "address",
							"name": "account",
							"type": "address"
						},
						{
							"indexed": true,
							"internalType": "address",
							"name": "operator",
							"type": "address"
						},
						{
							"indexed": false,
							"internalType": "bool",
							"name": "approved",
							"type": "bool"
						}
					],
					"name": "ApprovalForAll",
					"type": "event"
				},
				{
					"anonymous": false,
					"inputs": [
						{
							"indexed": true,
							"internalType": "address",
							"name": "previousOwner",
							"type": "address"
						},
						{
							"indexed": true,
							"internalType": "address",
							"name": "newOwner",
							"type": "address"
						}
					],
					"name": "OwnershipTransferred",
					"type": "event"
				},
				{
					"anonymous": false,
					"inputs": [
						{
							"indexed": false,
							"internalType": "address",
							"name": "account",
							"type": "address"
						}
					],
					"name": "Paused",
					"type": "event"
				},
				{
					"anonymous": false,
					"inputs": [
						{
							"indexed": true,
							"internalType": "address",
							"name": "operator",
							"type": "address"
						},
						{
							"indexed": true,
							"internalType": "address",
							"name": "from",
							"type": "address"
						},
						{
							"indexed": true,
							"internalType": "address",
							"name": "to",
							"type": "address"
						},
						{
							"indexed": false,
							"internalType": "uint256[]",
							"name": "ids",
							"type": "uint256[]"
						},
						{
							"indexed": false,
							"internalType": "uint256[]",
							"name": "values",
							"type": "uint256[]"
						}
					],
					"name": "TransferBatch",
					"type": "event"
				},
				{
					"anonymous": false,
					"inputs": [
						{
							"indexed": true,
							"internalType": "address",
							"name": "operator",
							"type": "address"
						},
						{
							"indexed": true,
							"internalType": "address",
							"name": "from",
							"type": "address"
						},
						{
							"indexed": true,
							"internalType": "address",
							"name": "to",
							"type": "address"
						},
						{
							"indexed": false,
							"internalType": "uint256",
							"name": "id",
							"type": "uint256"
						},
						{
							"indexed": false,
							"internalType": "uint256",
							"name": "value",
							"type": "uint256"
						}
					],
					"name": "TransferSingle",
					"type": "event"
				},
				{
					"anonymous": false,
					"inputs": [
						{
							"indexed": false,
							"internalType": "string",
							"name": "value",
							"type": "string"
						},
						{
							"indexed": true,
							"internalType": "uint256",
							"name": "id",
							"type": "uint256"
						}
					],
					"name": "URI",
					"type": "event"
				},
				{
					"anonymous": false,
					"inputs": [
						{
							"indexed": false,
							"internalType": "address",
							"name": "account",
							"type": "address"
						}
					],
					"name": "Unpaused",
					"type": "event"
				},
				{
					"inputs": [
						{
							"internalType": "address",
							"name": "account",
							"type": "address"
						},
						{
							"internalType": "uint256",
							"name": "id",
							"type": "uint256"
						}
					],
					"name": "balanceOf",
					"outputs": [
						{
							"internalType": "uint256",
							"name": "",
							"type": "uint256"
						}
					],
					"stateMutability": "view",
					"type": "function"
				},
				{
					"inputs": [
						{
							"internalType": "address[]",
							"name": "accounts",
							"type": "address[]"
						},
						{
							"internalType": "uint256[]",
							"name": "ids",
							"type": "uint256[]"
						}
					],
					"name": "balanceOfBatch",
					"outputs": [
						{
							"internalType": "uint256[]",
							"name": "",
							"type": "uint256[]"
						}
					],
					"stateMutability": "view",
					"type": "function"
				},
				{
					"inputs": [
						{
							"internalType": "address",
							"name": "_ticketUser",
							"type": "address"
						},
						{
							"internalType": "uint96",
							"name": "tokenId",
							"type": "uint96"
						},
						{
							"internalType": "uint256",
							"name": "amount",
							"type": "uint256"
						}
					],
					"name": "burn",
					"outputs": [],
					"stateMutability": "nonpayable",
					"type": "function"
				},
				{
					"inputs": [
						{
							"internalType": "address",
							"name": "account",
							"type": "address"
						},
						{
							"internalType": "uint256",
							"name": "id",
							"type": "uint256"
						},
						{
							"internalType": "uint256",
							"name": "value",
							"type": "uint256"
						}
					],
					"name": "burn",
					"outputs": [],
					"stateMutability": "nonpayable",
					"type": "function"
				},
				{
					"inputs": [
						{
							"internalType": "address",
							"name": "account",
							"type": "address"
						},
						{
							"internalType": "uint256[]",
							"name": "ids",
							"type": "uint256[]"
						},
						{
							"internalType": "uint256[]",
							"name": "values",
							"type": "uint256[]"
						}
					],
					"name": "burnBatch",
					"outputs": [],
					"stateMutability": "nonpayable",
					"type": "function"
				},
				{
					"inputs": [
						{
							"internalType": "address",
							"name": "account",
							"type": "address"
						},
						{
							"internalType": "address",
							"name": "operator",
							"type": "address"
						}
					],
					"name": "isApprovedForAll",
					"outputs": [
						{
							"internalType": "bool",
							"name": "",
							"type": "bool"
						}
					],
					"stateMutability": "view",
					"type": "function"
				},
				{
					"inputs": [
						{
							"internalType": "address",
							"name": "account",
							"type": "address"
						},
						{
							"internalType": "uint256",
							"name": "id",
							"type": "uint256"
						},
						{
							"internalType": "uint256",
							"name": "amount",
							"type": "uint256"
						},
						{
							"internalType": "bytes",
							"name": "data",
							"type": "bytes"
						}
					],
					"name": "mint",
					"outputs": [],
					"stateMutability": "nonpayable",
					"type": "function"
				},
				{
					"inputs": [
						{
							"internalType": "address",
							"name": "to",
							"type": "address"
						},
						{
							"internalType": "uint256[]",
							"name": "ids",
							"type": "uint256[]"
						},
						{
							"internalType": "uint256[]",
							"name": "amounts",
							"type": "uint256[]"
						},
						{
							"internalType": "bytes",
							"name": "data",
							"type": "bytes"
						}
					],
					"name": "mintBatch",
					"outputs": [],
					"stateMutability": "nonpayable",
					"type": "function"
				},
				{
					"inputs": [],
					"name": "owner",
					"outputs": [
						{
							"internalType": "address",
							"name": "",
							"type": "address"
						}
					],
					"stateMutability": "view",
					"type": "function"
				},
				{
					"inputs": [],
					"name": "pause",
					"outputs": [],
					"stateMutability": "nonpayable",
					"type": "function"
				},
				{
					"inputs": [],
					"name": "paused",
					"outputs": [
						{
							"internalType": "bool",
							"name": "",
							"type": "bool"
						}
					],
					"stateMutability": "view",
					"type": "function"
				},
				{
					"inputs": [],
					"name": "renounceOwnership",
					"outputs": [],
					"stateMutability": "nonpayable",
					"type": "function"
				},
				{
					"inputs": [
						{
							"internalType": "address",
							"name": "from",
							"type": "address"
						},
						{
							"internalType": "address",
							"name": "to",
							"type": "address"
						},
						{
							"internalType": "uint256[]",
							"name": "ids",
							"type": "uint256[]"
						},
						{
							"internalType": "uint256[]",
							"name": "amounts",
							"type": "uint256[]"
						},
						{
							"internalType": "bytes",
							"name": "data",
							"type": "bytes"
						}
					],
					"name": "safeBatchTransferFrom",
					"outputs": [],
					"stateMutability": "nonpayable",
					"type": "function"
				},
				{
					"inputs": [
						{
							"internalType": "address",
							"name": "from",
							"type": "address"
						},
						{
							"internalType": "address",
							"name": "to",
							"type": "address"
						},
						{
							"internalType": "uint256",
							"name": "id",
							"type": "uint256"
						},
						{
							"internalType": "uint256",
							"name": "amount",
							"type": "uint256"
						},
						{
							"internalType": "bytes",
							"name": "data",
							"type": "bytes"
						}
					],
					"name": "safeTransferFrom",
					"outputs": [],
					"stateMutability": "nonpayable",
					"type": "function"
				},
				{
					"inputs": [
						{
							"internalType": "address",
							"name": "operator",
							"type": "address"
						},
						{
							"internalType": "bool",
							"name": "approved",
							"type": "bool"
						}
					],
					"name": "setApprovalForAll",
					"outputs": [],
					"stateMutability": "nonpayable",
					"type": "function"
				},
				{
					"inputs": [
						{
							"internalType": "bytes4",
							"name": "interfaceId",
							"type": "bytes4"
						}
					],
					"name": "supportsInterface",
					"outputs": [
						{
							"internalType": "bool",
							"name": "",
							"type": "bool"
						}
					],
					"stateMutability": "view",
					"type": "function"
				},
				{
					"inputs": [
						{
							"internalType": "address",
							"name": "newOwner",
							"type": "address"
						}
					],
					"name": "transferOwnership",
					"outputs": [],
					"stateMutability": "nonpayable",
					"type": "function"
				},
				{
					"inputs": [],
					"name": "unpause",
					"outputs": [],
					"stateMutability": "nonpayable",
					"type": "function"
				},
				{
					"inputs": [
						{
							"internalType": "uint256",
							"name": "",
							"type": "uint256"
						}
					],
					"name": "uri",
					"outputs": [
						{
							"internalType": "string",
							"name": "",
							"type": "string"
						}
					],
					"stateMutability": "view",
					"type": "function"
				}
			],
			"devdoc": {
				"events": {
					"ApprovalForAll(address,address,bool)": {
						"details": "Emitted when `account` grants or revokes permission to `operator` to transfer their tokens, according to `approved`."
					},
					"Paused(address)": {
						"details": "Emitted when the pause is triggered by `account`."
					},
					"TransferBatch(address,address,address,uint256[],uint256[])": {
						"details": "Equivalent to multiple {TransferSingle} events, where `operator`, `from` and `to` are the same for all transfers."
					},
					"TransferSingle(address,address,address,uint256,uint256)": {
						"details": "Emitted when `value` tokens of token type `id` are transferred from `from` to `to` by `operator`."
					},
					"URI(string,uint256)": {
						"details": "Emitted when the URI for token type `id` changes to `value`, if it is a non-programmatic URI. If an {URI} event was emitted for `id`, the standard https://eips.ethereum.org/EIPS/eip-1155#metadata-extensions[guarantees] that `value` will equal the value returned by {IERC1155MetadataURI-uri}."
					},
					"Unpaused(address)": {
						"details": "Emitted when the pause is lifted by `account`."
					}
				},
				"kind": "dev",
				"methods": {
					"balanceOf(address,uint256)": {
						"details": "See {IERC1155-balanceOf}. Requirements: - `account` cannot be the zero address."
					},
					"balanceOfBatch(address[],uint256[])": {
						"details": "See {IERC1155-balanceOfBatch}. Requirements: - `accounts` and `ids` must have the same length."
					},
					"isApprovedForAll(address,address)": {
						"details": "See {IERC1155-isApprovedForAll}."
					},
					"owner()": {
						"details": "Returns the address of the current owner."
					},
					"paused()": {
						"details": "Returns true if the contract is paused, and false otherwise."
					},
					"renounceOwnership()": {
						"details": "Leaves the contract without owner. It will not be possible to call `onlyOwner` functions. Can only be called by the current owner. NOTE: Renouncing ownership will leave the contract without an owner, thereby disabling any functionality that is only available to the owner."
					},
					"safeBatchTransferFrom(address,address,uint256[],uint256[],bytes)": {
						"details": "See {IERC1155-safeBatchTransferFrom}."
					},
					"safeTransferFrom(address,address,uint256,uint256,bytes)": {
						"details": "See {IERC1155-safeTransferFrom}."
					},
					"setApprovalForAll(address,bool)": {
						"details": "See {IERC1155-setApprovalForAll}."
					},
					"supportsInterface(bytes4)": {
						"details": "See {IERC165-supportsInterface}."
					},
					"transferOwnership(address)": {
						"details": "Transfers ownership of the contract to a new account (`newOwner`). Can only be called by the current owner."
					},
					"uri(uint256)": {
						"details": "See {IERC1155MetadataURI-uri}. This implementation returns the same URI for *all* token types. It relies on the token type ID substitution mechanism https://eips.ethereum.org/EIPS/eip-1155#metadata[defined in the EIP]. Clients calling this function must replace the `\\{id\\}` substring with the actual token type ID."
					}
				},
				"version": 1
			},
			"evm": {
				"assembly": "    /* \"contracts/DTiket_flattened.sol\":42529:43556  contract DTiket is ERC1155, Pausable, Ownable, ERC1155Burnable {... */\n  mstore(0x40, 0x80)\n    /* \"contracts/DTiket_flattened.sol\":42598:42628  constructor() ERC1155(\"DT\") {} */\n  callvalue\n  dup1\n  iszero\n  tag_1\n  jumpi\n  0x00\n  dup1\n  revert\ntag_1:\n  pop\n    /* \"contracts/DTiket_flattened.sol\":25421:25483  constructor(string memory uri_) {... */\n  0x40\n  dup1\n  mload\n  dup1\n  dup3\n  add\n  swap1\n  swap2\n  mstore\n  0x02\n  dup2\n  mstore\n  shl(0xf2, 0x1115)\n  0x20\n  dup3\n  add\n  mstore\n    /* \"contracts/DTiket_flattened.sol\":25463:25476  _setURI(uri_) */\n  tag_7\n    /* \"contracts/DTiket_flattened.sol\":25421:25483  constructor(string memory uri_) {... */\n  dup2\n    /* \"contracts/DTiket_flattened.sol\":25463:25470  _setURI */\n  tag_8\n    /* \"contracts/DTiket_flattened.sol\":25463:25476  _setURI(uri_) */\n  jump\t// in\ntag_7:\n  pop\n    /* \"contracts/DTiket_flattened.sol\":4465:4472  _paused */\n  0x03\n    /* \"contracts/DTiket_flattened.sol\":4465:4480  _paused = false */\n  dup1\n  sload\n  not(0xff)\n  and\n  swap1\n  sstore\n    /* \"contracts/DTiket_flattened.sol\":1794:1826  _transferOwnership(_msgSender()) */\n  tag_11\n    /* \"contracts/DTiket_flattened.sol\":741:751  msg.sender */\n  caller\n    /* \"contracts/DTiket_flattened.sol\":1794:1812  _transferOwnership */\n  tag_14\n    /* \"contracts/DTiket_flattened.sol\":1794:1826  _transferOwnership(_msgSender()) */\n  jump\t// in\ntag_11:\n    /* \"contracts/DTiket_flattened.sol\":42529:43556  contract DTiket is ERC1155, Pausable, Ownable, ERC1155Burnable {... */\n  jump(tag_27)\n    /* \"contracts/DTiket_flattened.sol\":32463:32549  function _setURI(string memory newuri) internal virtual {... */\ntag_8:\n    /* \"contracts/DTiket_flattened.sol\":32529:32533  _uri */\n  0x02\n    /* \"contracts/DTiket_flattened.sol\":32529:32542  _uri = newuri */\n  tag_18\n    /* \"contracts/DTiket_flattened.sol\":32536:32542  newuri */\n  dup3\n    /* \"contracts/DTiket_flattened.sol\":32529:32533  _uri */\n  dup3\n    /* \"contracts/DTiket_flattened.sol\":32529:32542  _uri = newuri */\n  tag_19\n  jump\t// in\ntag_18:\n  pop\n    /* \"contracts/DTiket_flattened.sol\":32463:32549  function _setURI(string memory newuri) internal virtual {... */\n  pop\n  jump\t// out\n    /* \"contracts/DTiket_flattened.sol\":3284:3471  function _transferOwnership(address newOwner) internal virtual {... */\ntag_14:\n    /* \"contracts/DTiket_flattened.sol\":3376:3382  _owner */\n  0x03\n  dup1\n  sload\n  sub(shl(0xa0, 0x01), 0x01)\n    /* \"contracts/DTiket_flattened.sol\":3392:3409  _owner = newOwner */\n  dup4\n  dup2\n  and\n    /* \"contracts/DTiket_flattened.sol\":3376:3382  _owner */\n  0x0100\n    /* \"contracts/DTiket_flattened.sol\":3392:3409  _owner = newOwner */\n  dup2\n  dup2\n  mul\n  not(sub(shl(0xa8, 0x01), 0x0100))\n  dup6\n  and\n  or\n  swap1\n  swap5\n  sstore\n    /* \"contracts/DTiket_flattened.sol\":3424:3464  OwnershipTransferred(oldOwner, newOwner) */\n  mload(0x40)\n    /* \"contracts/DTiket_flattened.sol\":3376:3382  _owner */\n  swap4\n  swap1\n  swap3\n  div\n  and\n  swap2\n  dup3\n  swap1\n    /* \"contracts/DTiket_flattened.sol\":3424:3464  OwnershipTransferred(oldOwner, newOwner) */\n  0x8be0079c531659141344cd1fd0a4f28419497f9722a3daafe3b4186f6b6457e0\n  swap1\n    /* \"contracts/DTiket_flattened.sol\":3357:3373  address oldOwner */\n  0x00\n  swap1\n    /* \"contracts/DTiket_flattened.sol\":3424:3464  OwnershipTransferred(oldOwner, newOwner) */\n  log3\n    /* \"contracts/DTiket_flattened.sol\":3347:3471  {... */\n  pop\n    /* \"contracts/DTiket_flattened.sol\":3284:3471  function _transferOwnership(address newOwner) internal virtual {... */\n  pop\n  jump\t// out\n    /* \"#utility.yul\":14:141   */\ntag_22:\n    /* \"#utility.yul\":75:85   */\n  0x4e487b71\n    /* \"#utility.yul\":70:73   */\n  0xe0\n    /* \"#utility.yul\":66:86   */\n  shl\n    /* \"#utility.yul\":63:64   */\n  0x00\n    /* \"#utility.yul\":56:87   */\n  mstore\n    /* \"#utility.yul\":106:110   */\n  0x41\n    /* \"#utility.yul\":103:104   */\n  0x04\n    /* \"#utility.yul\":96:111   */\n  mstore\n    /* \"#utility.yul\":130:134   */\n  0x24\n    /* \"#utility.yul\":127:128   */\n  0x00\n    /* \"#utility.yul\":120:135   */\n  revert\n    /* \"#utility.yul\":146:526   */\ntag_23:\n    /* \"#utility.yul\":225:226   */\n  0x01\n    /* \"#utility.yul\":221:233   */\n  dup2\n  dup2\n  shr\n  swap1\n    /* \"#utility.yul\":268:280   */\n  dup3\n  and\n  dup1\n    /* \"#utility.yul\":289:350   */\n  tag_30\n  jumpi\n    /* \"#utility.yul\":343:347   */\n  0x7f\n    /* \"#utility.yul\":335:341   */\n  dup3\n    /* \"#utility.yul\":331:348   */\n  and\n    /* \"#utility.yul\":321:348   */\n  swap2\n  pop\n    /* \"#utility.yul\":289:350   */\ntag_30:\n    /* \"#utility.yul\":396:398   */\n  0x20\n    /* \"#utility.yul\":388:394   */\n  dup3\n    /* \"#utility.yul\":385:399   */\n  lt\n    /* \"#utility.yul\":365:383   */\n  dup2\n    /* \"#utility.yul\":362:400   */\n  sub\n    /* \"#utility.yul\":359:520   */\n  tag_31\n  jumpi\n    /* \"#utility.yul\":442:452   */\n  0x4e487b71\n    /* \"#utility.yul\":437:440   */\n  0xe0\n    /* \"#utility.yul\":433:453   */\n  shl\n    /* \"#utility.yul\":430:431   */\n  0x00\n    /* \"#utility.yul\":423:454   */\n  mstore\n    /* \"#utility.yul\":477:481   */\n  0x22\n    /* \"#utility.yul\":474:475   */\n  0x04\n    /* \"#utility.yul\":467:482   */\n  mstore\n    /* \"#utility.yul\":505:509   */\n  0x24\n    /* \"#utility.yul\":502:503   */\n  0x00\n    /* \"#utility.yul\":495:510   */\n  revert\n    /* \"#utility.yul\":359:520   */\ntag_31:\n  pop\n    /* \"#utility.yul\":146:526   */\n  swap2\n  swap1\n  pop\n  jump\t// out\n    /* \"#utility.yul\":657:1202   */\ntag_25:\n    /* \"#utility.yul\":759:761   */\n  0x1f\n    /* \"#utility.yul\":754:757   */\n  dup3\n    /* \"#utility.yul\":751:762   */\n  gt\n    /* \"#utility.yul\":748:1196   */\n  iszero\n  tag_34\n  jumpi\n    /* \"#utility.yul\":795:796   */\n  0x00\n    /* \"#utility.yul\":820:825   */\n  dup2\n    /* \"#utility.yul\":816:818   */\n  dup2\n    /* \"#utility.yul\":809:826   */\n  mstore\n    /* \"#utility.yul\":865:869   */\n  0x20\n    /* \"#utility.yul\":861:863   */\n  dup2\n    /* \"#utility.yul\":851:870   */\n  keccak256\n    /* \"#utility.yul\":935:937   */\n  0x1f\n    /* \"#utility.yul\":923:933   */\n  dup6\n    /* \"#utility.yul\":919:938   */\n  add\n    /* \"#utility.yul\":916:917   */\n  0x05\n    /* \"#utility.yul\":912:939   */\n  shr\n    /* \"#utility.yul\":906:910   */\n  dup2\n    /* \"#utility.yul\":902:940   */\n  add\n    /* \"#utility.yul\":971:975   */\n  0x20\n    /* \"#utility.yul\":959:969   */\n  dup7\n    /* \"#utility.yul\":956:976   */\n  lt\n    /* \"#utility.yul\":953:1000   */\n  iszero\n  tag_35\n  jumpi\n  pop\n    /* \"#utility.yul\":994:998   */\n  dup1\n    /* \"#utility.yul\":953:1000   */\ntag_35:\n    /* \"#utility.yul\":1049:1051   */\n  0x1f\n    /* \"#utility.yul\":1044:1047   */\n  dup6\n    /* \"#utility.yul\":1040:1052   */\n  add\n    /* \"#utility.yul\":1037:1038   */\n  0x05\n    /* \"#utility.yul\":1033:1053   */\n  shr\n    /* \"#utility.yul\":1027:1031   */\n  dup3\n    /* \"#utility.yul\":1023:1054   */\n  add\n    /* \"#utility.yul\":1013:1054   */\n  swap2\n  pop\n    /* \"#utility.yul\":1104:1186   */\ntag_36:\n    /* \"#utility.yul\":1122:1124   */\n  dup2\n    /* \"#utility.yul\":1115:1120   */\n  dup2\n    /* \"#utility.yul\":1112:1125   */\n  lt\n    /* \"#utility.yul\":1104:1186   */\n  iszero\n  tag_38\n  jumpi\n    /* \"#utility.yul\":1167:1184   */\n  dup3\n  dup2\n  sstore\n    /* \"#utility.yul\":1148:1149   */\n  0x01\n    /* \"#utility.yul\":1137:1150   */\n  add\n    /* \"#utility.yul\":1104:1186   */\n  jump(tag_36)\ntag_38:\n    /* \"#utility.yul\":1108:1111   */\n  pop\n  pop\n  pop\n    /* \"#utility.yul\":748:1196   */\ntag_34:\n    /* \"#utility.yul\":657:1202   */\n  pop\n  pop\n  pop\n  jump\t// out\n    /* \"#utility.yul\":1378:2730   */\ntag_19:\n    /* \"#utility.yul\":1498:1508   */\n  dup2\n  mload\n  sub(shl(0x40, 0x01), 0x01)\n    /* \"#utility.yul\":1520:1550   */\n  dup2\n  gt\n    /* \"#utility.yul\":1517:1573   */\n  iszero\n  tag_42\n  jumpi\n    /* \"#utility.yul\":1553:1571   */\n  tag_42\n  tag_22\n  jump\t// in\ntag_42:\n    /* \"#utility.yul\":1582:1679   */\n  tag_43\n    /* \"#utility.yul\":1672:1678   */\n  dup2\n    /* \"#utility.yul\":1632:1670   */\n  tag_44\n    /* \"#utility.yul\":1664:1668   */\n  dup5\n    /* \"#utility.yul\":1658:1669   */\n  sload\n    /* \"#utility.yul\":1632:1670   */\n  tag_23\n  jump\t// in\ntag_44:\n    /* \"#utility.yul\":1626:1630   */\n  dup5\n    /* \"#utility.yul\":1582:1679   */\n  tag_25\n  jump\t// in\ntag_43:\n    /* \"#utility.yul\":1734:1738   */\n  0x20\n  dup1\n    /* \"#utility.yul\":1798:1800   */\n  0x1f\n    /* \"#utility.yul\":1787:1801   */\n  dup4\n  gt\n    /* \"#utility.yul\":1815:1816   */\n  0x01\n    /* \"#utility.yul\":1810:2473   */\n  dup2\n  eq\n  tag_46\n  jumpi\n    /* \"#utility.yul\":2517:2518   */\n  0x00\n    /* \"#utility.yul\":2534:2540   */\n  dup5\n    /* \"#utility.yul\":2531:2620   */\n  iszero\n  tag_47\n  jumpi\n  pop\n    /* \"#utility.yul\":2586:2605   */\n  dup6\n  dup4\n  add\n    /* \"#utility.yul\":2580:2606   */\n  mload\n    /* \"#utility.yul\":2531:2620   */\ntag_47:\n  not(0x00)\n    /* \"#utility.yul\":1335:1336   */\n  0x03\n    /* \"#utility.yul\":1331:1342   */\n  dup7\n  swap1\n  shl\n    /* \"#utility.yul\":1327:1351   */\n  shr\n    /* \"#utility.yul\":1323:1352   */\n  not\n    /* \"#utility.yul\":1313:1353   */\n  and\n    /* \"#utility.yul\":1359:1360   */\n  0x01\n    /* \"#utility.yul\":1355:1366   */\n  dup6\n  swap1\n  shl\n    /* \"#utility.yul\":1310:1367   */\n  or\n    /* \"#utility.yul\":2633:2714   */\n  dup6\n  sstore\n    /* \"#utility.yul\":1780:2724   */\n  jump(tag_38)\n    /* \"#utility.yul\":1810:2473   */\ntag_46:\n    /* \"#utility.yul\":604:605   */\n  0x00\n    /* \"#utility.yul\":597:611   */\n  dup6\n  dup2\n  mstore\n    /* \"#utility.yul\":641:645   */\n  0x20\n    /* \"#utility.yul\":628:646   */\n  dup2\n  keccak256\n  not(0x1f)\n    /* \"#utility.yul\":1846:1866   */\n  dup7\n  and\n  swap2\n    /* \"#utility.yul\":1964:2200   */\ntag_50:\n    /* \"#utility.yul\":1978:1985   */\n  dup3\n    /* \"#utility.yul\":1975:1976   */\n  dup2\n    /* \"#utility.yul\":1972:1986   */\n  lt\n    /* \"#utility.yul\":1964:2200   */\n  iszero\n  tag_52\n  jumpi\n    /* \"#utility.yul\":2067:2086   */\n  dup9\n  dup7\n  add\n    /* \"#utility.yul\":2061:2087   */\n  mload\n    /* \"#utility.yul\":2046:2088   */\n  dup3\n  sstore\n    /* \"#utility.yul\":2159:2186   */\n  swap5\n  dup5\n  add\n  swap5\n    /* \"#utility.yul\":2127:2128   */\n  0x01\n    /* \"#utility.yul\":2115:2129   */\n  swap1\n  swap2\n  add\n  swap1\n    /* \"#utility.yul\":1994:2013   */\n  dup5\n  add\n    /* \"#utility.yul\":1964:2200   */\n  jump(tag_50)\ntag_52:\n    /* \"#utility.yul\":1968:1971   */\n  pop\n    /* \"#utility.yul\":2228:2234   */\n  dup6\n    /* \"#utility.yul\":2219:2226   */\n  dup3\n    /* \"#utility.yul\":2216:2235   */\n  lt\n    /* \"#utility.yul\":2213:2414   */\n  iszero\n  tag_53\n  jumpi\n    /* \"#utility.yul\":2289:2308   */\n  dup8\n  dup6\n  add\n    /* \"#utility.yul\":2283:2309   */\n  mload\n  not(0x00)\n    /* \"#utility.yul\":2372:2373   */\n  0x03\n    /* \"#utility.yul\":2368:2382   */\n  dup9\n  swap1\n  shl\n    /* \"#utility.yul\":2384:2387   */\n  0xf8\n    /* \"#utility.yul\":2364:2388   */\n  and\n    /* \"#utility.yul\":2360:2397   */\n  shr\n    /* \"#utility.yul\":2356:2398   */\n  not\n    /* \"#utility.yul\":2341:2399   */\n  and\n    /* \"#utility.yul\":2326:2400   */\n  dup2\n  sstore\n    /* \"#utility.yul\":2213:2414   */\ntag_53:\n  pop\n  pop\n  pop\n  pop\n  pop\n    /* \"#utility.yul\":2460:2461   */\n  0x01\n    /* \"#utility.yul\":2444:2458   */\n  swap1\n  dup2\n  shl\n    /* \"#utility.yul\":2440:2462   */\n  add\n    /* \"#utility.yul\":2427:2463   */\n  swap1\n  sstore\n  pop\n    /* \"#utility.yul\":1378:2730   */\n  jump\t// out\ntag_27:\n    /* \"contracts/DTiket_flattened.sol\":42529:43556  contract DTiket is ERC1155, Pausable, Ownable, ERC1155Burnable {... */\n  dataSize(sub_0)\n  dup1\n  dataOffset(sub_0)\n  0x00\n  codecopy\n  0x00\n  return\nstop\n\nsub_0: assembly {\n        /* \"contracts/DTiket_flattened.sol\":42529:43556  contract DTiket is ERC1155, Pausable, Ownable, ERC1155Burnable {... */\n      mstore(0x40, 0x80)\n      callvalue\n      dup1\n      iszero\n      tag_1\n      jumpi\n      0x00\n      dup1\n      revert\n    tag_1:\n      pop\n      jumpi(tag_2, lt(calldatasize, 0x04))\n      shr(0xe0, calldataload(0x00))\n      dup1\n      0x715018a6\n      gt\n      tag_22\n      jumpi\n      dup1\n      0xd501dc37\n      gt\n      tag_23\n      jumpi\n      dup1\n      0xd501dc37\n      eq\n      tag_17\n      jumpi\n      dup1\n      0xe985e9c5\n      eq\n      tag_18\n      jumpi\n      dup1\n      0xf242432a\n      eq\n      tag_19\n      jumpi\n      dup1\n      0xf2fde38b\n      eq\n      tag_20\n      jumpi\n      dup1\n      0xf5298aca\n      eq\n      tag_21\n      jumpi\n      0x00\n      dup1\n      revert\n    tag_23:\n      dup1\n      0x715018a6\n      eq\n      tag_12\n      jumpi\n      dup1\n      0x731133e9\n      eq\n      tag_13\n      jumpi\n      dup1\n      0x8456cb59\n      eq\n      tag_14\n      jumpi\n      dup1\n      0x8da5cb5b\n      eq\n      tag_15\n      jumpi\n      dup1\n      0xa22cb465\n      eq\n      tag_16\n      jumpi\n      0x00\n      dup1\n      revert\n    tag_22:\n      dup1\n      0x2eb2c2d6\n      gt\n      tag_24\n      jumpi\n      dup1\n      0x2eb2c2d6\n      eq\n      tag_7\n      jumpi\n      dup1\n      0x3f4ba83a\n      eq\n      tag_8\n      jumpi\n      dup1\n      0x4e1273f4\n      eq\n      tag_9\n      jumpi\n      dup1\n      0x5c975abb\n      eq\n      tag_10\n      jumpi\n      dup1\n      0x6b20c454\n      eq\n      tag_11\n      jumpi\n      0x00\n      dup1\n      revert\n    tag_24:\n      dup1\n      0xfdd58e\n      eq\n      tag_3\n      jumpi\n      dup1\n      0x01ffc9a7\n      eq\n      tag_4\n      jumpi\n      dup1\n      0x0e89341c\n      eq\n      tag_5\n      jumpi\n      dup1\n      0x1f7fdffa\n      eq\n      tag_6\n      jumpi\n    tag_2:\n      0x00\n      dup1\n      revert\n        /* \"contracts/DTiket_flattened.sol\":26499:26726  function balanceOf(address account, uint256 id) public view virtual override returns (uint256) {... */\n    tag_3:\n      tag_25\n      tag_26\n      calldatasize\n      0x04\n      tag_27\n      jump\t// in\n    tag_26:\n      tag_28\n      jump\t// in\n    tag_25:\n      mload(0x40)\n        /* \"#utility.yul\":597:622   */\n      swap1\n      dup2\n      mstore\n        /* \"#utility.yul\":585:587   */\n      0x20\n        /* \"#utility.yul\":570:588   */\n      add\n        /* \"contracts/DTiket_flattened.sol\":26499:26726  function balanceOf(address account, uint256 id) public view virtual override returns (uint256) {... */\n    tag_29:\n      mload(0x40)\n      dup1\n      swap2\n      sub\n      swap1\n      return\n        /* \"contracts/DTiket_flattened.sol\":25550:25855  function supportsInterface(bytes4 interfaceId) public view virtual override(ERC165, IERC165) returns (bool) {... */\n    tag_4:\n      tag_31\n      tag_32\n      calldatasize\n      0x04\n      tag_33\n      jump\t// in\n    tag_32:\n      tag_34\n      jump\t// in\n    tag_31:\n      mload(0x40)\n        /* \"#utility.yul\":1184:1198   */\n      swap1\n      iszero\n        /* \"#utility.yul\":1177:1199   */\n      iszero\n        /* \"#utility.yul\":1159:1200   */\n      dup2\n      mstore\n        /* \"#utility.yul\":1147:1149   */\n      0x20\n        /* \"#utility.yul\":1132:1150   */\n      add\n        /* \"contracts/DTiket_flattened.sol\":25550:25855  function supportsInterface(bytes4 interfaceId) public view virtual override(ERC165, IERC165) returns (bool) {... */\n      tag_29\n        /* \"#utility.yul\":1019:1206   */\n      jump\n        /* \"contracts/DTiket_flattened.sol\":26254:26357  function uri(uint256) public view virtual override returns (string memory) {... */\n    tag_5:\n      tag_37\n      tag_38\n      calldatasize\n      0x04\n      tag_39\n      jump\t// in\n    tag_38:\n      tag_40\n      jump\t// in\n    tag_37:\n      mload(0x40)\n      tag_29\n      swap2\n      swap1\n      tag_42\n      jump\t// in\n        /* \"contracts/DTiket_flattened.sol\":43078:43264  function mintBatch(address to, uint256[] memory ids, uint256[] memory amounts, bytes memory data)... */\n    tag_6:\n      tag_43\n      tag_44\n      calldatasize\n      0x04\n      tag_45\n      jump\t// in\n    tag_44:\n      tag_46\n      jump\t// in\n    tag_43:\n      stop\n        /* \"contracts/DTiket_flattened.sol\":28356:28782  function safeBatchTransferFrom(... */\n    tag_7:\n      tag_43\n      tag_48\n      calldatasize\n      0x04\n      tag_49\n      jump\t// in\n    tag_48:\n      tag_50\n      jump\t// in\n        /* \"contracts/DTiket_flattened.sol\":42699:42762  function unpause() public onlyOwner {... */\n    tag_8:\n      tag_43\n      tag_52\n      jump\t// in\n        /* \"contracts/DTiket_flattened.sol\":26883:27369  function balanceOfBatch(... */\n    tag_9:\n      tag_53\n      tag_54\n      calldatasize\n      0x04\n      tag_55\n      jump\t// in\n    tag_54:\n      tag_56\n      jump\t// in\n    tag_53:\n      mload(0x40)\n      tag_29\n      swap2\n      swap1\n      tag_58\n      jump\t// in\n        /* \"contracts/DTiket_flattened.sol\":5084:5168  function paused() public view virtual returns (bool) {... */\n    tag_10:\n        /* \"contracts/DTiket_flattened.sol\":5154:5161  _paused */\n      and(0xff, sload(0x03))\n        /* \"contracts/DTiket_flattened.sol\":5084:5168  function paused() public view virtual returns (bool) {... */\n      jump(tag_31)\n        /* \"contracts/DTiket_flattened.sol\":42147:42464  function burnBatch(address account, uint256[] memory ids, uint256[] memory values) public virtual {... */\n    tag_11:\n      tag_43\n      tag_63\n      calldatasize\n      0x04\n      tag_64\n      jump\t// in\n    tag_63:\n      tag_65\n      jump\t// in\n        /* \"contracts/DTiket_flattened.sol\":2682:2783  function renounceOwnership() public virtual onlyOwner {... */\n    tag_12:\n      tag_43\n      tag_67\n      jump\t// in\n        /* \"contracts/DTiket_flattened.sol\":42908:43072  function mint(address account, uint256 id, uint256 amount, bytes memory data)... */\n    tag_13:\n      tag_43\n      tag_69\n      calldatasize\n      0x04\n      tag_70\n      jump\t// in\n    tag_69:\n      tag_71\n      jump\t// in\n        /* \"contracts/DTiket_flattened.sol\":42634:42693  function pause() public onlyOwner {... */\n    tag_14:\n      tag_43\n      tag_73\n      jump\t// in\n        /* \"contracts/DTiket_flattened.sol\":2059:2144  function owner() public view virtual returns (address) {... */\n    tag_15:\n        /* \"contracts/DTiket_flattened.sol\":2131:2137  _owner */\n      sload(0x03)\n      0x0100\n      swap1\n      div\n      sub(shl(0xa0, 0x01), 0x01)\n      and\n        /* \"contracts/DTiket_flattened.sol\":2059:2144  function owner() public view virtual returns (address) {... */\n      mload(0x40)\n      sub(shl(0xa0, 0x01), 0x01)\n        /* \"#utility.yul\":9026:9058   */\n      swap1\n      swap2\n      and\n        /* \"#utility.yul\":9008:9059   */\n      dup2\n      mstore\n        /* \"#utility.yul\":8996:8998   */\n      0x20\n        /* \"#utility.yul\":8981:8999   */\n      add\n        /* \"contracts/DTiket_flattened.sol\":2059:2144  function owner() public view virtual returns (address) {... */\n      tag_29\n        /* \"#utility.yul\":8862:9065   */\n      jump\n        /* \"contracts/DTiket_flattened.sol\":27437:27590  function setApprovalForAll(address operator, bool approved) public virtual override {... */\n    tag_16:\n      tag_43\n      tag_79\n      calldatasize\n      0x04\n      tag_80\n      jump\t// in\n    tag_79:\n      tag_81\n      jump\t// in\n        /* \"contracts/DTiket_flattened.sol\":42767:42903  function burn(address _ticketUser, uint96 tokenId, uint256 amount) public onlyOwner {... */\n    tag_17:\n      tag_43\n      tag_83\n      calldatasize\n      0x04\n      tag_84\n      jump\t// in\n    tag_83:\n      tag_85\n      jump\t// in\n        /* \"contracts/DTiket_flattened.sol\":27657:27823  function isApprovedForAll(address account, address operator) public view virtual override returns (bool) {... */\n    tag_18:\n      tag_31\n      tag_87\n      calldatasize\n      0x04\n      tag_88\n      jump\t// in\n    tag_87:\n      sub(shl(0xa0, 0x01), 0x01)\n        /* \"contracts/DTiket_flattened.sol\":27779:27806  _operatorApprovals[account] */\n      swap2\n      dup3\n      and\n        /* \"contracts/DTiket_flattened.sol\":27756:27760  bool */\n      0x00\n        /* \"contracts/DTiket_flattened.sol\":27779:27806  _operatorApprovals[account] */\n      swap1\n      dup2\n      mstore\n        /* \"contracts/DTiket_flattened.sol\":27779:27797  _operatorApprovals */\n      0x01\n        /* \"contracts/DTiket_flattened.sol\":27779:27806  _operatorApprovals[account] */\n      0x20\n      swap1\n      dup2\n      mstore\n      0x40\n      dup1\n      dup4\n      keccak256\n        /* \"contracts/DTiket_flattened.sol\":27779:27816  _operatorApprovals[account][operator] */\n      swap4\n      swap1\n      swap5\n      and\n      dup3\n      mstore\n      swap2\n      swap1\n      swap2\n      mstore\n      keccak256\n      sload\n      0xff\n      and\n      swap1\n        /* \"contracts/DTiket_flattened.sol\":27657:27823  function isApprovedForAll(address account, address operator) public view virtual override returns (bool) {... */\n      jump\n        /* \"contracts/DTiket_flattened.sol\":27890:28284  function safeTransferFrom(... */\n    tag_19:\n      tag_43\n      tag_92\n      calldatasize\n      0x04\n      tag_93\n      jump\t// in\n    tag_92:\n      tag_94\n      jump\t// in\n        /* \"contracts/DTiket_flattened.sol\":2932:3130  function transferOwnership(address newOwner) public virtual onlyOwner {... */\n    tag_20:\n      tag_43\n      tag_96\n      calldatasize\n      0x04\n      tag_97\n      jump\t// in\n    tag_96:\n      tag_98\n      jump\t// in\n        /* \"contracts/DTiket_flattened.sol\":41856:42141  function burn(address account, uint256 id, uint256 value) public virtual {... */\n    tag_21:\n      tag_43\n      tag_100\n      calldatasize\n      0x04\n      tag_101\n      jump\t// in\n    tag_100:\n      tag_102\n      jump\t// in\n        /* \"contracts/DTiket_flattened.sol\":26499:26726  function balanceOf(address account, uint256 id) public view virtual override returns (uint256) {... */\n    tag_28:\n        /* \"contracts/DTiket_flattened.sol\":26585:26592  uint256 */\n      0x00\n      sub(shl(0xa0, 0x01), 0x01)\n        /* \"contracts/DTiket_flattened.sol\":26612:26633  account != address(0) */\n      dup4\n      and\n        /* \"contracts/DTiket_flattened.sol\":26604:26680  require(account != address(0), \"ERC1155: address zero is not a valid owner\") */\n      tag_104\n      jumpi\n      mload(0x40)\n      shl(0xe5, 0x461bcd)\n      dup2\n      mstore\n        /* \"#utility.yul\":11457:11459   */\n      0x20\n        /* \"contracts/DTiket_flattened.sol\":26604:26680  require(account != address(0), \"ERC1155: address zero is not a valid owner\") */\n      0x04\n      dup3\n      add\n        /* \"#utility.yul\":11439:11460   */\n      mstore\n        /* \"#utility.yul\":11496:11498   */\n      0x2a\n        /* \"#utility.yul\":11476:11494   */\n      0x24\n      dup3\n      add\n        /* \"#utility.yul\":11469:11499   */\n      mstore\n        /* \"#utility.yul\":11535:11569   */\n      0x455243313135353a2061646472657373207a65726f206973206e6f7420612076\n        /* \"#utility.yul\":11515:11533   */\n      0x44\n      dup3\n      add\n        /* \"#utility.yul\":11508:11570   */\n      mstore\n      shl(0xb1, 0x30b634b21037bbb732b9)\n        /* \"#utility.yul\":11586:11604   */\n      0x64\n      dup3\n      add\n        /* \"#utility.yul\":11579:11619   */\n      mstore\n        /* \"#utility.yul\":11636:11655   */\n      0x84\n      add\n        /* \"contracts/DTiket_flattened.sol\":26604:26680  require(account != address(0), \"ERC1155: address zero is not a valid owner\") */\n    tag_105:\n      mload(0x40)\n      dup1\n      swap2\n      sub\n      swap1\n      revert\n    tag_104:\n      pop\n        /* \"contracts/DTiket_flattened.sol\":26697:26706  _balances */\n      0x00\n        /* \"contracts/DTiket_flattened.sol\":26697:26710  _balances[id] */\n      dup2\n      dup2\n      mstore\n      0x20\n      dup2\n      dup2\n      mstore\n      0x40\n      dup1\n      dup4\n      keccak256\n      sub(shl(0xa0, 0x01), 0x01)\n        /* \"contracts/DTiket_flattened.sol\":26697:26719  _balances[id][account] */\n      dup7\n      and\n      dup5\n      mstore\n      swap1\n      swap2\n      mstore\n      swap1\n      keccak256\n      sload\n        /* \"contracts/DTiket_flattened.sol\":26499:26726  function balanceOf(address account, uint256 id) public view virtual override returns (uint256) {... */\n    tag_103:\n      swap3\n      swap2\n      pop\n      pop\n      jump\t// out\n        /* \"contracts/DTiket_flattened.sol\":25550:25855  function supportsInterface(bytes4 interfaceId) public view virtual override(ERC165, IERC165) returns (bool) {... */\n    tag_34:\n        /* \"contracts/DTiket_flattened.sol\":25652:25656  bool */\n      0x00\n      not(sub(shl(0xe0, 0x01), 0x01))\n        /* \"contracts/DTiket_flattened.sol\":25687:25728  interfaceId == type(IERC1155).interfaceId */\n      dup3\n      and\n      shl(0xe1, 0x6cdb3d13)\n      eq\n      dup1\n        /* \"contracts/DTiket_flattened.sol\":25687:25796  interfaceId == type(IERC1155).interfaceId ||... */\n      tag_108\n      jumpi\n      pop\n      not(sub(shl(0xe0, 0x01), 0x01))\n        /* \"contracts/DTiket_flattened.sol\":25744:25796  interfaceId == type(IERC1155MetadataURI).interfaceId */\n      dup3\n      and\n      shl(0xe2, 0x03a24d07)\n      eq\n        /* \"contracts/DTiket_flattened.sol\":25687:25796  interfaceId == type(IERC1155).interfaceId ||... */\n    tag_108:\n        /* \"contracts/DTiket_flattened.sol\":25687:25848  interfaceId == type(IERC1155).interfaceId ||... */\n      dup1\n      tag_103\n      jumpi\n      pop\n      shl(0xe0, 0x01ffc9a7)\n      not(sub(shl(0xe0, 0x01), 0x01))\n        /* \"contracts/DTiket_flattened.sol\":17245:17285  interfaceId == type(IERC165).interfaceId */\n      dup4\n      and\n      eq\n        /* \"contracts/DTiket_flattened.sol\":25812:25848  super.supportsInterface(interfaceId) */\n      tag_103\n        /* \"contracts/DTiket_flattened.sol\":17137:17292  function supportsInterface(bytes4 interfaceId) public view virtual override returns (bool) {... */\n      jump\n        /* \"contracts/DTiket_flattened.sol\":26254:26357  function uri(uint256) public view virtual override returns (string memory) {... */\n    tag_40:\n        /* \"contracts/DTiket_flattened.sol\":26314:26327  string memory */\n      0x60\n        /* \"contracts/DTiket_flattened.sol\":26346:26350  _uri */\n      0x02\n        /* \"contracts/DTiket_flattened.sol\":26339:26350  return _uri */\n      dup1\n      sload\n      tag_113\n      swap1\n      tag_114\n      jump\t// in\n    tag_113:\n      dup1\n      0x1f\n      add\n      0x20\n      dup1\n      swap2\n      div\n      mul\n      0x20\n      add\n      mload(0x40)\n      swap1\n      dup2\n      add\n      0x40\n      mstore\n      dup1\n      swap3\n      swap2\n      swap1\n      dup2\n      dup2\n      mstore\n      0x20\n      add\n      dup3\n      dup1\n      sload\n      tag_115\n      swap1\n      tag_114\n      jump\t// in\n    tag_115:\n      dup1\n      iszero\n      tag_116\n      jumpi\n      dup1\n      0x1f\n      lt\n      tag_117\n      jumpi\n      0x0100\n      dup1\n      dup4\n      sload\n      div\n      mul\n      dup4\n      mstore\n      swap2\n      0x20\n      add\n      swap2\n      jump(tag_116)\n    tag_117:\n      dup3\n      add\n      swap2\n      swap1\n      0x00\n      mstore\n      keccak256(0x00, 0x20)\n      swap1\n    tag_118:\n      dup2\n      sload\n      dup2\n      mstore\n      swap1\n      0x01\n      add\n      swap1\n      0x20\n      add\n      dup1\n      dup4\n      gt\n      tag_118\n      jumpi\n      dup3\n      swap1\n      sub\n      0x1f\n      and\n      dup3\n      add\n      swap2\n    tag_116:\n      pop\n      pop\n      pop\n      pop\n      pop\n      swap1\n      pop\n        /* \"contracts/DTiket_flattened.sol\":26254:26357  function uri(uint256) public view virtual override returns (string memory) {... */\n      swap2\n      swap1\n      pop\n      jump\t// out\n        /* \"contracts/DTiket_flattened.sol\":43078:43264  function mintBatch(address to, uint256[] memory ids, uint256[] memory amounts, bytes memory data)... */\n    tag_46:\n        /* \"contracts/DTiket_flattened.sol\":1952:1965  _checkOwner() */\n      tag_120\n        /* \"contracts/DTiket_flattened.sol\":1952:1963  _checkOwner */\n      tag_121\n        /* \"contracts/DTiket_flattened.sol\":1952:1965  _checkOwner() */\n      jump\t// in\n    tag_120:\n        /* \"contracts/DTiket_flattened.sol\":43223:43257  _mintBatch(to, ids, amounts, data) */\n      tag_123\n        /* \"contracts/DTiket_flattened.sol\":43234:43236  to */\n      dup5\n        /* \"contracts/DTiket_flattened.sol\":43238:43241  ids */\n      dup5\n        /* \"contracts/DTiket_flattened.sol\":43243:43250  amounts */\n      dup5\n        /* \"contracts/DTiket_flattened.sol\":43252:43256  data */\n      dup5\n        /* \"contracts/DTiket_flattened.sol\":43223:43233  _mintBatch */\n      tag_124\n        /* \"contracts/DTiket_flattened.sol\":43223:43257  _mintBatch(to, ids, amounts, data) */\n      jump\t// in\n    tag_123:\n        /* \"contracts/DTiket_flattened.sol\":43078:43264  function mintBatch(address to, uint256[] memory ids, uint256[] memory amounts, bytes memory data)... */\n      pop\n      pop\n      pop\n      pop\n      jump\t// out\n        /* \"contracts/DTiket_flattened.sol\":28356:28782  function safeBatchTransferFrom(... */\n    tag_50:\n      sub(shl(0xa0, 0x01), 0x01)\n        /* \"contracts/DTiket_flattened.sol\":28581:28601  from == _msgSender() */\n      dup6\n      and\n        /* \"contracts/DTiket_flattened.sol\":741:751  msg.sender */\n      caller\n        /* \"contracts/DTiket_flattened.sol\":28581:28601  from == _msgSender() */\n      eq\n      dup1\n        /* \"contracts/DTiket_flattened.sol\":28581:28641  from == _msgSender() || isApprovedForAll(from, _msgSender()) */\n      tag_129\n      jumpi\n      pop\n        /* \"contracts/DTiket_flattened.sol\":28605:28641  isApprovedForAll(from, _msgSender()) */\n      tag_129\n        /* \"contracts/DTiket_flattened.sol\":28622:28626  from */\n      dup6\n        /* \"contracts/DTiket_flattened.sol\":741:751  msg.sender */\n      caller\n        /* \"contracts/DTiket_flattened.sol\":27657:27823  function isApprovedForAll(address account, address operator) public view virtual override returns (bool) {... */\n      tag_87\n      jump\t// in\n        /* \"contracts/DTiket_flattened.sol\":28605:28641  isApprovedForAll(from, _msgSender()) */\n    tag_129:\n        /* \"contracts/DTiket_flattened.sol\":28560:28713  require(... */\n      tag_131\n      jumpi\n      mload(0x40)\n      shl(0xe5, 0x461bcd)\n      dup2\n      mstore\n      0x04\n      add\n      tag_105\n      swap1\n      tag_133\n      jump\t// in\n    tag_131:\n        /* \"contracts/DTiket_flattened.sol\":28723:28775  _safeBatchTransferFrom(from, to, ids, amounts, data) */\n      tag_134\n        /* \"contracts/DTiket_flattened.sol\":28746:28750  from */\n      dup6\n        /* \"contracts/DTiket_flattened.sol\":28752:28754  to */\n      dup6\n        /* \"contracts/DTiket_flattened.sol\":28756:28759  ids */\n      dup6\n        /* \"contracts/DTiket_flattened.sol\":28761:28768  amounts */\n      dup6\n        /* \"contracts/DTiket_flattened.sol\":28770:28774  data */\n      dup6\n        /* \"contracts/DTiket_flattened.sol\":28723:28745  _safeBatchTransferFrom */\n      tag_135\n        /* \"contracts/DTiket_flattened.sol\":28723:28775  _safeBatchTransferFrom(from, to, ids, amounts, data) */\n      jump\t// in\n    tag_134:\n        /* \"contracts/DTiket_flattened.sol\":28356:28782  function safeBatchTransferFrom(... */\n      pop\n      pop\n      pop\n      pop\n      pop\n      jump\t// out\n        /* \"contracts/DTiket_flattened.sol\":42699:42762  function unpause() public onlyOwner {... */\n    tag_52:\n        /* \"contracts/DTiket_flattened.sol\":1952:1965  _checkOwner() */\n      tag_137\n        /* \"contracts/DTiket_flattened.sol\":1952:1963  _checkOwner */\n      tag_121\n        /* \"contracts/DTiket_flattened.sol\":1952:1965  _checkOwner() */\n      jump\t// in\n    tag_137:\n        /* \"contracts/DTiket_flattened.sol\":42745:42755  _unpause() */\n      tag_139\n        /* \"contracts/DTiket_flattened.sol\":42745:42753  _unpause */\n      tag_140\n        /* \"contracts/DTiket_flattened.sol\":42745:42755  _unpause() */\n      jump\t// in\n    tag_139:\n        /* \"contracts/DTiket_flattened.sol\":42699:42762  function unpause() public onlyOwner {... */\n      jump\t// out\n        /* \"contracts/DTiket_flattened.sol\":26883:27369  function balanceOfBatch(... */\n    tag_56:\n        /* \"contracts/DTiket_flattened.sol\":27016:27032  uint256[] memory */\n      0x60\n        /* \"contracts/DTiket_flattened.sol\":27071:27074  ids */\n      dup2\n        /* \"contracts/DTiket_flattened.sol\":27071:27081  ids.length */\n      mload\n        /* \"contracts/DTiket_flattened.sol\":27052:27060  accounts */\n      dup4\n        /* \"contracts/DTiket_flattened.sol\":27052:27067  accounts.length */\n      mload\n        /* \"contracts/DTiket_flattened.sol\":27052:27081  accounts.length == ids.length */\n      eq\n        /* \"contracts/DTiket_flattened.sol\":27044:27127  require(accounts.length == ids.length, \"ERC1155: accounts and ids length mismatch\") */\n      tag_142\n      jumpi\n      mload(0x40)\n      shl(0xe5, 0x461bcd)\n      dup2\n      mstore\n        /* \"#utility.yul\":12668:12670   */\n      0x20\n        /* \"contracts/DTiket_flattened.sol\":27044:27127  require(accounts.length == ids.length, \"ERC1155: accounts and ids length mismatch\") */\n      0x04\n      dup3\n      add\n        /* \"#utility.yul\":12650:12671   */\n      mstore\n        /* \"#utility.yul\":12707:12709   */\n      0x29\n        /* \"#utility.yul\":12687:12705   */\n      0x24\n      dup3\n      add\n        /* \"#utility.yul\":12680:12710   */\n      mstore\n        /* \"#utility.yul\":12746:12780   */\n      0x455243313135353a206163636f756e747320616e6420696473206c656e677468\n        /* \"#utility.yul\":12726:12744   */\n      0x44\n      dup3\n      add\n        /* \"#utility.yul\":12719:12781   */\n      mstore\n      shl(0xbb, 0x040dad2e6dac2e8c6d)\n        /* \"#utility.yul\":12797:12815   */\n      0x64\n      dup3\n      add\n        /* \"#utility.yul\":12790:12829   */\n      mstore\n        /* \"#utility.yul\":12846:12865   */\n      0x84\n      add\n        /* \"contracts/DTiket_flattened.sol\":27044:27127  require(accounts.length == ids.length, \"ERC1155: accounts and ids length mismatch\") */\n      tag_105\n        /* \"#utility.yul\":12466:12871   */\n      jump\n        /* \"contracts/DTiket_flattened.sol\":27044:27127  require(accounts.length == ids.length, \"ERC1155: accounts and ids length mismatch\") */\n    tag_142:\n        /* \"contracts/DTiket_flattened.sol\":27138:27168  uint256[] memory batchBalances */\n      0x00\n        /* \"contracts/DTiket_flattened.sol\":27185:27193  accounts */\n      dup4\n        /* \"contracts/DTiket_flattened.sol\":27185:27200  accounts.length */\n      mload\n        /* \"contracts/DTiket_flattened.sol\":27171:27201  new uint256[](accounts.length) */\n      0xffffffffffffffff\n      dup2\n      gt\n      iszero\n      tag_146\n      jumpi\n      tag_146\n      tag_147\n      jump\t// in\n    tag_146:\n      mload(0x40)\n      swap1\n      dup1\n      dup3\n      mstore\n      dup1\n      0x20\n      mul\n      0x20\n      add\n      dup3\n      add\n      0x40\n      mstore\n      dup1\n      iszero\n      tag_148\n      jumpi\n      dup2\n      0x20\n      add\n      0x20\n      dup3\n      mul\n      dup1\n      calldatasize\n      dup4\n      calldatacopy\n      add\n      swap1\n      pop\n    tag_148:\n      pop\n        /* \"contracts/DTiket_flattened.sol\":27138:27201  uint256[] memory batchBalances = new uint256[](accounts.length) */\n      swap1\n      pop\n        /* \"contracts/DTiket_flattened.sol\":27217:27226  uint256 i */\n      0x00\n        /* \"contracts/DTiket_flattened.sol\":27212:27332  for (uint256 i = 0; i < accounts.length; ++i) {... */\n    tag_149:\n        /* \"contracts/DTiket_flattened.sol\":27236:27244  accounts */\n      dup5\n        /* \"contracts/DTiket_flattened.sol\":27236:27251  accounts.length */\n      mload\n        /* \"contracts/DTiket_flattened.sol\":27232:27233  i */\n      dup2\n        /* \"contracts/DTiket_flattened.sol\":27232:27251  i < accounts.length */\n      lt\n        /* \"contracts/DTiket_flattened.sol\":27212:27332  for (uint256 i = 0; i < accounts.length; ++i) {... */\n      iszero\n      tag_150\n      jumpi\n        /* \"contracts/DTiket_flattened.sol\":27291:27321  balanceOf(accounts[i], ids[i]) */\n      tag_152\n        /* \"contracts/DTiket_flattened.sol\":27301:27309  accounts */\n      dup6\n        /* \"contracts/DTiket_flattened.sol\":27310:27311  i */\n      dup3\n        /* \"contracts/DTiket_flattened.sol\":27301:27312  accounts[i] */\n      dup2\n      mload\n      dup2\n      lt\n      tag_154\n      jumpi\n      tag_154\n      tag_155\n      jump\t// in\n    tag_154:\n      0x20\n      mul\n      0x20\n      add\n      add\n      mload\n        /* \"contracts/DTiket_flattened.sol\":27314:27317  ids */\n      dup6\n        /* \"contracts/DTiket_flattened.sol\":27318:27319  i */\n      dup4\n        /* \"contracts/DTiket_flattened.sol\":27314:27320  ids[i] */\n      dup2\n      mload\n      dup2\n      lt\n      tag_157\n      jumpi\n      tag_157\n      tag_155\n      jump\t// in\n    tag_157:\n      0x20\n      mul\n      0x20\n      add\n      add\n      mload\n        /* \"contracts/DTiket_flattened.sol\":27291:27300  balanceOf */\n      tag_28\n        /* \"contracts/DTiket_flattened.sol\":27291:27321  balanceOf(accounts[i], ids[i]) */\n      jump\t// in\n    tag_152:\n        /* \"contracts/DTiket_flattened.sol\":27272:27285  batchBalances */\n      dup3\n        /* \"contracts/DTiket_flattened.sol\":27286:27287  i */\n      dup3\n        /* \"contracts/DTiket_flattened.sol\":27272:27288  batchBalances[i] */\n      dup2\n      mload\n      dup2\n      lt\n      tag_159\n      jumpi\n      tag_159\n      tag_155\n      jump\t// in\n    tag_159:\n      0x20\n      swap1\n      dup2\n      mul\n      swap2\n      swap1\n      swap2\n      add\n      add\n        /* \"contracts/DTiket_flattened.sol\":27272:27321  batchBalances[i] = balanceOf(accounts[i], ids[i]) */\n      mstore\n        /* \"contracts/DTiket_flattened.sol\":27253:27256  ++i */\n      tag_160\n      dup2\n      tag_161\n      jump\t// in\n    tag_160:\n      swap1\n      pop\n        /* \"contracts/DTiket_flattened.sol\":27212:27332  for (uint256 i = 0; i < accounts.length; ++i) {... */\n      jump(tag_149)\n    tag_150:\n      pop\n        /* \"contracts/DTiket_flattened.sol\":27349:27362  batchBalances */\n      swap4\n        /* \"contracts/DTiket_flattened.sol\":26883:27369  function balanceOfBatch(... */\n      swap3\n      pop\n      pop\n      pop\n      jump\t// out\n        /* \"contracts/DTiket_flattened.sol\":42147:42464  function burnBatch(address account, uint256[] memory ids, uint256[] memory values) public virtual {... */\n    tag_65:\n      sub(shl(0xa0, 0x01), 0x01)\n        /* \"contracts/DTiket_flattened.sol\":42276:42299  account == _msgSender() */\n      dup4\n      and\n        /* \"contracts/DTiket_flattened.sol\":741:751  msg.sender */\n      caller\n        /* \"contracts/DTiket_flattened.sol\":42276:42299  account == _msgSender() */\n      eq\n      dup1\n        /* \"contracts/DTiket_flattened.sol\":42276:42342  account == _msgSender() || isApprovedForAll(account, _msgSender()) */\n      tag_166\n      jumpi\n      pop\n        /* \"contracts/DTiket_flattened.sol\":42303:42342  isApprovedForAll(account, _msgSender()) */\n      tag_166\n        /* \"contracts/DTiket_flattened.sol\":42320:42327  account */\n      dup4\n        /* \"contracts/DTiket_flattened.sol\":741:751  msg.sender */\n      caller\n        /* \"contracts/DTiket_flattened.sol\":27657:27823  function isApprovedForAll(address account, address operator) public view virtual override returns (bool) {... */\n      tag_87\n      jump\t// in\n        /* \"contracts/DTiket_flattened.sol\":42303:42342  isApprovedForAll(account, _msgSender()) */\n    tag_166:\n        /* \"contracts/DTiket_flattened.sol\":42255:42414  require(... */\n      tag_168\n      jumpi\n      mload(0x40)\n      shl(0xe5, 0x461bcd)\n      dup2\n      mstore\n      0x04\n      add\n      tag_105\n      swap1\n      tag_133\n      jump\t// in\n    tag_168:\n        /* \"contracts/DTiket_flattened.sol\":42425:42457  _burnBatch(account, ids, values) */\n      tag_170\n        /* \"contracts/DTiket_flattened.sol\":42436:42443  account */\n      dup4\n        /* \"contracts/DTiket_flattened.sol\":42445:42448  ids */\n      dup4\n        /* \"contracts/DTiket_flattened.sol\":42450:42456  values */\n      dup4\n        /* \"contracts/DTiket_flattened.sol\":42425:42435  _burnBatch */\n      tag_171\n        /* \"contracts/DTiket_flattened.sol\":42425:42457  _burnBatch(account, ids, values) */\n      jump\t// in\n    tag_170:\n        /* \"contracts/DTiket_flattened.sol\":42147:42464  function burnBatch(address account, uint256[] memory ids, uint256[] memory values) public virtual {... */\n      pop\n      pop\n      pop\n      jump\t// out\n        /* \"contracts/DTiket_flattened.sol\":2682:2783  function renounceOwnership() public virtual onlyOwner {... */\n    tag_67:\n        /* \"contracts/DTiket_flattened.sol\":1952:1965  _checkOwner() */\n      tag_173\n        /* \"contracts/DTiket_flattened.sol\":1952:1963  _checkOwner */\n      tag_121\n        /* \"contracts/DTiket_flattened.sol\":1952:1965  _checkOwner() */\n      jump\t// in\n    tag_173:\n        /* \"contracts/DTiket_flattened.sol\":2746:2776  _transferOwnership(address(0)) */\n      tag_139\n        /* \"contracts/DTiket_flattened.sol\":2773:2774  0 */\n      0x00\n        /* \"contracts/DTiket_flattened.sol\":2746:2764  _transferOwnership */\n      tag_176\n        /* \"contracts/DTiket_flattened.sol\":2746:2776  _transferOwnership(address(0)) */\n      jump\t// in\n        /* \"contracts/DTiket_flattened.sol\":42908:43072  function mint(address account, uint256 id, uint256 amount, bytes memory data)... */\n    tag_71:\n        /* \"contracts/DTiket_flattened.sol\":1952:1965  _checkOwner() */\n      tag_178\n        /* \"contracts/DTiket_flattened.sol\":1952:1963  _checkOwner */\n      tag_121\n        /* \"contracts/DTiket_flattened.sol\":1952:1965  _checkOwner() */\n      jump\t// in\n    tag_178:\n        /* \"contracts/DTiket_flattened.sol\":43033:43065  _mint(account, id, amount, data) */\n      tag_123\n        /* \"contracts/DTiket_flattened.sol\":43039:43046  account */\n      dup5\n        /* \"contracts/DTiket_flattened.sol\":43048:43050  id */\n      dup5\n        /* \"contracts/DTiket_flattened.sol\":43052:43058  amount */\n      dup5\n        /* \"contracts/DTiket_flattened.sol\":43060:43064  data */\n      dup5\n        /* \"contracts/DTiket_flattened.sol\":43033:43038  _mint */\n      tag_181\n        /* \"contracts/DTiket_flattened.sol\":43033:43065  _mint(account, id, amount, data) */\n      jump\t// in\n        /* \"contracts/DTiket_flattened.sol\":42634:42693  function pause() public onlyOwner {... */\n    tag_73:\n        /* \"contracts/DTiket_flattened.sol\":1952:1965  _checkOwner() */\n      tag_183\n        /* \"contracts/DTiket_flattened.sol\":1952:1963  _checkOwner */\n      tag_121\n        /* \"contracts/DTiket_flattened.sol\":1952:1965  _checkOwner() */\n      jump\t// in\n    tag_183:\n        /* \"contracts/DTiket_flattened.sol\":42678:42686  _pause() */\n      tag_139\n        /* \"contracts/DTiket_flattened.sol\":42678:42684  _pause */\n      tag_186\n        /* \"contracts/DTiket_flattened.sol\":42678:42686  _pause() */\n      jump\t// in\n        /* \"contracts/DTiket_flattened.sol\":27437:27590  function setApprovalForAll(address operator, bool approved) public virtual override {... */\n    tag_81:\n        /* \"contracts/DTiket_flattened.sol\":27531:27583  _setApprovalForAll(_msgSender(), operator, approved) */\n      tag_189\n        /* \"contracts/DTiket_flattened.sol\":741:751  msg.sender */\n      caller\n        /* \"contracts/DTiket_flattened.sol\":27564:27572  operator */\n      dup4\n        /* \"contracts/DTiket_flattened.sol\":27574:27582  approved */\n      dup4\n        /* \"contracts/DTiket_flattened.sol\":27531:27549  _setApprovalForAll */\n      tag_191\n        /* \"contracts/DTiket_flattened.sol\":27531:27583  _setApprovalForAll(_msgSender(), operator, approved) */\n      jump\t// in\n    tag_189:\n        /* \"contracts/DTiket_flattened.sol\":27437:27590  function setApprovalForAll(address operator, bool approved) public virtual override {... */\n      pop\n      pop\n      jump\t// out\n        /* \"contracts/DTiket_flattened.sol\":42767:42903  function burn(address _ticketUser, uint96 tokenId, uint256 amount) public onlyOwner {... */\n    tag_85:\n        /* \"contracts/DTiket_flattened.sol\":1952:1965  _checkOwner() */\n      tag_193\n        /* \"contracts/DTiket_flattened.sol\":1952:1963  _checkOwner */\n      tag_121\n        /* \"contracts/DTiket_flattened.sol\":1952:1965  _checkOwner() */\n      jump\t// in\n    tag_193:\n        /* \"contracts/DTiket_flattened.sol\":42861:42896  _burn(_ticketUser, tokenId, amount) */\n      tag_170\n        /* \"contracts/DTiket_flattened.sol\":42867:42878  _ticketUser */\n      dup4\n        /* \"contracts/DTiket_flattened.sol\":42880:42887  tokenId */\n      dup4\n        /* \"contracts/DTiket_flattened.sol\":42861:42896  _burn(_ticketUser, tokenId, amount) */\n      0xffffffffffffffffffffffff\n      and\n        /* \"contracts/DTiket_flattened.sol\":42889:42895  amount */\n      dup4\n        /* \"contracts/DTiket_flattened.sol\":42861:42866  _burn */\n      tag_196\n        /* \"contracts/DTiket_flattened.sol\":42861:42896  _burn(_ticketUser, tokenId, amount) */\n      jump\t// in\n        /* \"contracts/DTiket_flattened.sol\":27890:28284  function safeTransferFrom(... */\n    tag_94:\n      sub(shl(0xa0, 0x01), 0x01)\n        /* \"contracts/DTiket_flattened.sol\":28090:28110  from == _msgSender() */\n      dup6\n      and\n        /* \"contracts/DTiket_flattened.sol\":741:751  msg.sender */\n      caller\n        /* \"contracts/DTiket_flattened.sol\":28090:28110  from == _msgSender() */\n      eq\n      dup1\n        /* \"contracts/DTiket_flattened.sol\":28090:28150  from == _msgSender() || isApprovedForAll(from, _msgSender()) */\n      tag_201\n      jumpi\n      pop\n        /* \"contracts/DTiket_flattened.sol\":28114:28150  isApprovedForAll(from, _msgSender()) */\n      tag_201\n        /* \"contracts/DTiket_flattened.sol\":28131:28135  from */\n      dup6\n        /* \"contracts/DTiket_flattened.sol\":741:751  msg.sender */\n      caller\n        /* \"contracts/DTiket_flattened.sol\":27657:27823  function isApprovedForAll(address account, address operator) public view virtual override returns (bool) {... */\n      tag_87\n      jump\t// in\n        /* \"contracts/DTiket_flattened.sol\":28114:28150  isApprovedForAll(from, _msgSender()) */\n    tag_201:\n        /* \"contracts/DTiket_flattened.sol\":28069:28222  require(... */\n      tag_203\n      jumpi\n      mload(0x40)\n      shl(0xe5, 0x461bcd)\n      dup2\n      mstore\n      0x04\n      add\n      tag_105\n      swap1\n      tag_133\n      jump\t// in\n    tag_203:\n        /* \"contracts/DTiket_flattened.sol\":28232:28277  _safeTransferFrom(from, to, id, amount, data) */\n      tag_134\n        /* \"contracts/DTiket_flattened.sol\":28250:28254  from */\n      dup6\n        /* \"contracts/DTiket_flattened.sol\":28256:28258  to */\n      dup6\n        /* \"contracts/DTiket_flattened.sol\":28260:28262  id */\n      dup6\n        /* \"contracts/DTiket_flattened.sol\":28264:28270  amount */\n      dup6\n        /* \"contracts/DTiket_flattened.sol\":28272:28276  data */\n      dup6\n        /* \"contracts/DTiket_flattened.sol\":28232:28249  _safeTransferFrom */\n      tag_206\n        /* \"contracts/DTiket_flattened.sol\":28232:28277  _safeTransferFrom(from, to, id, amount, data) */\n      jump\t// in\n        /* \"contracts/DTiket_flattened.sol\":2932:3130  function transferOwnership(address newOwner) public virtual onlyOwner {... */\n    tag_98:\n        /* \"contracts/DTiket_flattened.sol\":1952:1965  _checkOwner() */\n      tag_208\n        /* \"contracts/DTiket_flattened.sol\":1952:1963  _checkOwner */\n      tag_121\n        /* \"contracts/DTiket_flattened.sol\":1952:1965  _checkOwner() */\n      jump\t// in\n    tag_208:\n      sub(shl(0xa0, 0x01), 0x01)\n        /* \"contracts/DTiket_flattened.sol\":3020:3042  newOwner != address(0) */\n      dup2\n      and\n        /* \"contracts/DTiket_flattened.sol\":3012:3085  require(newOwner != address(0), \"Ownable: new owner is the zero address\") */\n      tag_210\n      jumpi\n      mload(0x40)\n      shl(0xe5, 0x461bcd)\n      dup2\n      mstore\n        /* \"#utility.yul\":13482:13484   */\n      0x20\n        /* \"contracts/DTiket_flattened.sol\":3012:3085  require(newOwner != address(0), \"Ownable: new owner is the zero address\") */\n      0x04\n      dup3\n      add\n        /* \"#utility.yul\":13464:13485   */\n      mstore\n        /* \"#utility.yul\":13521:13523   */\n      0x26\n        /* \"#utility.yul\":13501:13519   */\n      0x24\n      dup3\n      add\n        /* \"#utility.yul\":13494:13524   */\n      mstore\n        /* \"#utility.yul\":13560:13594   */\n      0x4f776e61626c653a206e6577206f776e657220697320746865207a65726f2061\n        /* \"#utility.yul\":13540:13558   */\n      0x44\n      dup3\n      add\n        /* \"#utility.yul\":13533:13595   */\n      mstore\n      shl(0xd0, 0x646472657373)\n        /* \"#utility.yul\":13611:13629   */\n      0x64\n      dup3\n      add\n        /* \"#utility.yul\":13604:13640   */\n      mstore\n        /* \"#utility.yul\":13657:13676   */\n      0x84\n      add\n        /* \"contracts/DTiket_flattened.sol\":3012:3085  require(newOwner != address(0), \"Ownable: new owner is the zero address\") */\n      tag_105\n        /* \"#utility.yul\":13280:13682   */\n      jump\n        /* \"contracts/DTiket_flattened.sol\":3012:3085  require(newOwner != address(0), \"Ownable: new owner is the zero address\") */\n    tag_210:\n        /* \"contracts/DTiket_flattened.sol\":3095:3123  _transferOwnership(newOwner) */\n      tag_213\n        /* \"contracts/DTiket_flattened.sol\":3114:3122  newOwner */\n      dup2\n        /* \"contracts/DTiket_flattened.sol\":3095:3113  _transferOwnership */\n      tag_176\n        /* \"contracts/DTiket_flattened.sol\":3095:3123  _transferOwnership(newOwner) */\n      jump\t// in\n    tag_213:\n        /* \"contracts/DTiket_flattened.sol\":2932:3130  function transferOwnership(address newOwner) public virtual onlyOwner {... */\n      pop\n      jump\t// out\n        /* \"contracts/DTiket_flattened.sol\":41856:42141  function burn(address account, uint256 id, uint256 value) public virtual {... */\n    tag_102:\n      sub(shl(0xa0, 0x01), 0x01)\n        /* \"contracts/DTiket_flattened.sol\":41960:41983  account == _msgSender() */\n      dup4\n      and\n        /* \"contracts/DTiket_flattened.sol\":741:751  msg.sender */\n      caller\n        /* \"contracts/DTiket_flattened.sol\":41960:41983  account == _msgSender() */\n      eq\n      dup1\n        /* \"contracts/DTiket_flattened.sol\":41960:42026  account == _msgSender() || isApprovedForAll(account, _msgSender()) */\n      tag_217\n      jumpi\n      pop\n        /* \"contracts/DTiket_flattened.sol\":41987:42026  isApprovedForAll(account, _msgSender()) */\n      tag_217\n        /* \"contracts/DTiket_flattened.sol\":42004:42011  account */\n      dup4\n        /* \"contracts/DTiket_flattened.sol\":741:751  msg.sender */\n      caller\n        /* \"contracts/DTiket_flattened.sol\":27657:27823  function isApprovedForAll(address account, address operator) public view virtual override returns (bool) {... */\n      tag_87\n      jump\t// in\n        /* \"contracts/DTiket_flattened.sol\":41987:42026  isApprovedForAll(account, _msgSender()) */\n    tag_217:\n        /* \"contracts/DTiket_flattened.sol\":41939:42098  require(... */\n      tag_219\n      jumpi\n      mload(0x40)\n      shl(0xe5, 0x461bcd)\n      dup2\n      mstore\n      0x04\n      add\n      tag_105\n      swap1\n      tag_133\n      jump\t// in\n    tag_219:\n        /* \"contracts/DTiket_flattened.sol\":42109:42134  _burn(account, id, value) */\n      tag_170\n        /* \"contracts/DTiket_flattened.sol\":42115:42122  account */\n      dup4\n        /* \"contracts/DTiket_flattened.sol\":42124:42126  id */\n      dup4\n        /* \"contracts/DTiket_flattened.sol\":42128:42133  value */\n      dup4\n        /* \"contracts/DTiket_flattened.sol\":42109:42114  _burn */\n      tag_196\n        /* \"contracts/DTiket_flattened.sol\":42109:42134  _burn(account, id, value) */\n      jump\t// in\n        /* \"contracts/DTiket_flattened.sol\":2217:2347  function _checkOwner() internal view virtual {... */\n    tag_121:\n        /* \"contracts/DTiket_flattened.sol\":2131:2137  _owner */\n      sload(0x03)\n      sub(shl(0xa0, 0x01), 0x01)\n      0x0100\n      swap1\n      swap2\n      div\n      and\n        /* \"contracts/DTiket_flattened.sol\":741:751  msg.sender */\n      caller\n        /* \"contracts/DTiket_flattened.sol\":2280:2303  owner() == _msgSender() */\n      eq\n        /* \"contracts/DTiket_flattened.sol\":2272:2340  require(owner() == _msgSender(), \"Ownable: caller is not the owner\") */\n      tag_139\n      jumpi\n      mload(0x40)\n      shl(0xe5, 0x461bcd)\n      dup2\n      mstore\n        /* \"#utility.yul\":13889:13891   */\n      0x20\n        /* \"contracts/DTiket_flattened.sol\":2272:2340  require(owner() == _msgSender(), \"Ownable: caller is not the owner\") */\n      0x04\n      dup3\n      add\n        /* \"#utility.yul\":13871:13892   */\n      dup2\n      swap1\n      mstore\n        /* \"#utility.yul\":13908:13926   */\n      0x24\n      dup3\n      add\n        /* \"#utility.yul\":13901:13931   */\n      mstore\n        /* \"#utility.yul\":13967:14001   */\n      0x4f776e61626c653a2063616c6c6572206973206e6f7420746865206f776e6572\n        /* \"#utility.yul\":13947:13965   */\n      0x44\n      dup3\n      add\n        /* \"#utility.yul\":13940:14002   */\n      mstore\n        /* \"#utility.yul\":14019:14037   */\n      0x64\n      add\n        /* \"contracts/DTiket_flattened.sol\":2272:2340  require(owner() == _msgSender(), \"Ownable: caller is not the owner\") */\n      tag_105\n        /* \"#utility.yul\":13687:14043   */\n      jump\n        /* \"contracts/DTiket_flattened.sol\":33983:34774  function _mintBatch(... */\n    tag_124:\n      sub(shl(0xa0, 0x01), 0x01)\n        /* \"contracts/DTiket_flattened.sol\":34155:34171  to != address(0) */\n      dup5\n      and\n        /* \"contracts/DTiket_flattened.sol\":34147:34209  require(to != address(0), \"ERC1155: mint to the zero address\") */\n      tag_230\n      jumpi\n      mload(0x40)\n      shl(0xe5, 0x461bcd)\n      dup2\n      mstore\n      0x04\n      add\n      tag_105\n      swap1\n      tag_232\n      jump\t// in\n    tag_230:\n        /* \"contracts/DTiket_flattened.sol\":34241:34248  amounts */\n      dup2\n        /* \"contracts/DTiket_flattened.sol\":34241:34255  amounts.length */\n      mload\n        /* \"contracts/DTiket_flattened.sol\":34227:34230  ids */\n      dup4\n        /* \"contracts/DTiket_flattened.sol\":34227:34237  ids.length */\n      mload\n        /* \"contracts/DTiket_flattened.sol\":34227:34255  ids.length == amounts.length */\n      eq\n        /* \"contracts/DTiket_flattened.sol\":34219:34300  require(ids.length == amounts.length, \"ERC1155: ids and amounts length mismatch\") */\n      tag_233\n      jumpi\n      mload(0x40)\n      shl(0xe5, 0x461bcd)\n      dup2\n      mstore\n      0x04\n      add\n      tag_105\n      swap1\n      tag_235\n      jump\t// in\n    tag_233:\n        /* \"contracts/DTiket_flattened.sol\":741:751  msg.sender */\n      caller\n        /* \"contracts/DTiket_flattened.sol\":34353:34419  _beforeTokenTransfer(operator, address(0), to, ids, amounts, data) */\n      tag_237\n        /* \"contracts/DTiket_flattened.sol\":741:751  msg.sender */\n      dup2\n        /* \"contracts/DTiket_flattened.sol\":34311:34327  address operator */\n      0x00\n        /* \"contracts/DTiket_flattened.sol\":34396:34398  to */\n      dup8\n        /* \"contracts/DTiket_flattened.sol\":34400:34403  ids */\n      dup8\n        /* \"contracts/DTiket_flattened.sol\":34405:34412  amounts */\n      dup8\n        /* \"contracts/DTiket_flattened.sol\":34414:34418  data */\n      dup8\n        /* \"contracts/DTiket_flattened.sol\":34353:34373  _beforeTokenTransfer */\n      tag_238\n        /* \"contracts/DTiket_flattened.sol\":34353:34419  _beforeTokenTransfer(operator, address(0), to, ids, amounts, data) */\n      jump\t// in\n    tag_237:\n        /* \"contracts/DTiket_flattened.sol\":34435:34444  uint256 i */\n      0x00\n        /* \"contracts/DTiket_flattened.sol\":34430:34531  for (uint256 i = 0; i < ids.length; i++) {... */\n    tag_239:\n        /* \"contracts/DTiket_flattened.sol\":34454:34457  ids */\n      dup5\n        /* \"contracts/DTiket_flattened.sol\":34454:34464  ids.length */\n      mload\n        /* \"contracts/DTiket_flattened.sol\":34450:34451  i */\n      dup2\n        /* \"contracts/DTiket_flattened.sol\":34450:34464  i < ids.length */\n      lt\n        /* \"contracts/DTiket_flattened.sol\":34430:34531  for (uint256 i = 0; i < ids.length; i++) {... */\n      iszero\n      tag_240\n      jumpi\n        /* \"contracts/DTiket_flattened.sol\":34510:34517  amounts */\n      dup4\n        /* \"contracts/DTiket_flattened.sol\":34518:34519  i */\n      dup2\n        /* \"contracts/DTiket_flattened.sol\":34510:34520  amounts[i] */\n      dup2\n      mload\n      dup2\n      lt\n      tag_243\n      jumpi\n      tag_243\n      tag_155\n      jump\t// in\n    tag_243:\n      0x20\n      mul\n      0x20\n      add\n      add\n      mload\n        /* \"contracts/DTiket_flattened.sol\":34485:34494  _balances */\n      0x00\n        /* \"contracts/DTiket_flattened.sol\":34485:34502  _balances[ids[i]] */\n      dup1\n        /* \"contracts/DTiket_flattened.sol\":34495:34498  ids */\n      dup8\n        /* \"contracts/DTiket_flattened.sol\":34499:34500  i */\n      dup5\n        /* \"contracts/DTiket_flattened.sol\":34495:34501  ids[i] */\n      dup2\n      mload\n      dup2\n      lt\n      tag_245\n      jumpi\n      tag_245\n      tag_155\n      jump\t// in\n    tag_245:\n      0x20\n      mul\n      0x20\n      add\n      add\n      mload\n        /* \"contracts/DTiket_flattened.sol\":34485:34502  _balances[ids[i]] */\n      dup2\n      mstore\n      0x20\n      add\n      swap1\n      dup2\n      mstore\n      0x20\n      add\n      0x00\n      keccak256\n        /* \"contracts/DTiket_flattened.sol\":34485:34506  _balances[ids[i]][to] */\n      0x00\n        /* \"contracts/DTiket_flattened.sol\":34503:34505  to */\n      dup9\n      sub(shl(0xa0, 0x01), 0x01)\n        /* \"contracts/DTiket_flattened.sol\":34485:34506  _balances[ids[i]][to] */\n      and\n      sub(shl(0xa0, 0x01), 0x01)\n      and\n      dup2\n      mstore\n      0x20\n      add\n      swap1\n      dup2\n      mstore\n      0x20\n      add\n      0x00\n      keccak256\n      0x00\n        /* \"contracts/DTiket_flattened.sol\":34485:34520  _balances[ids[i]][to] += amounts[i] */\n      dup3\n      dup3\n      sload\n      tag_246\n      swap2\n      swap1\n      tag_247\n      jump\t// in\n    tag_246:\n      swap1\n      swap2\n      sstore\n      pop\n        /* \"contracts/DTiket_flattened.sol\":34466:34469  i++ */\n      dup2\n      swap1\n      pop\n      tag_248\n      dup2\n      tag_161\n      jump\t// in\n    tag_248:\n      swap2\n      pop\n      pop\n        /* \"contracts/DTiket_flattened.sol\":34430:34531  for (uint256 i = 0; i < ids.length; i++) {... */\n      jump(tag_239)\n    tag_240:\n      pop\n        /* \"contracts/DTiket_flattened.sol\":34582:34584  to */\n      dup5\n      sub(shl(0xa0, 0x01), 0x01)\n        /* \"contracts/DTiket_flattened.sol\":34546:34599  TransferBatch(operator, address(0), to, ids, amounts) */\n      and\n        /* \"contracts/DTiket_flattened.sol\":34578:34579  0 */\n      0x00\n      sub(shl(0xa0, 0x01), 0x01)\n        /* \"contracts/DTiket_flattened.sol\":34546:34599  TransferBatch(operator, address(0), to, ids, amounts) */\n      and\n        /* \"contracts/DTiket_flattened.sol\":34560:34568  operator */\n      dup3\n      sub(shl(0xa0, 0x01), 0x01)\n        /* \"contracts/DTiket_flattened.sol\":34546:34599  TransferBatch(operator, address(0), to, ids, amounts) */\n      and\n      0x4a39dc06d4c0dbc64b70af90fd698a233a518aa5d07e595d983b8c0526c8f7fb\n        /* \"contracts/DTiket_flattened.sol\":34586:34589  ids */\n      dup8\n        /* \"contracts/DTiket_flattened.sol\":34591:34598  amounts */\n      dup8\n        /* \"contracts/DTiket_flattened.sol\":34546:34599  TransferBatch(operator, address(0), to, ids, amounts) */\n      mload(0x40)\n      tag_249\n      swap3\n      swap2\n      swap1\n      tag_250\n      jump\t// in\n    tag_249:\n      mload(0x40)\n      dup1\n      swap2\n      sub\n      swap1\n      log4\n        /* \"contracts/DTiket_flattened.sol\":34686:34767  _doSafeBatchTransferAcceptanceCheck(operator, address(0), to, ids, amounts, data) */\n      tag_134\n        /* \"contracts/DTiket_flattened.sol\":34722:34730  operator */\n      dup2\n        /* \"contracts/DTiket_flattened.sol\":34740:34741  0 */\n      0x00\n        /* \"contracts/DTiket_flattened.sol\":34744:34746  to */\n      dup8\n        /* \"contracts/DTiket_flattened.sol\":34748:34751  ids */\n      dup8\n        /* \"contracts/DTiket_flattened.sol\":34753:34760  amounts */\n      dup8\n        /* \"contracts/DTiket_flattened.sol\":34762:34766  data */\n      dup8\n        /* \"contracts/DTiket_flattened.sol\":34686:34721  _doSafeBatchTransferAcceptanceCheck */\n      tag_254\n        /* \"contracts/DTiket_flattened.sol\":34686:34767  _doSafeBatchTransferAcceptanceCheck(operator, address(0), to, ids, amounts, data) */\n      jump\t// in\n        /* \"contracts/DTiket_flattened.sol\":30525:31640  function _safeBatchTransferFrom(... */\n    tag_135:\n        /* \"contracts/DTiket_flattened.sol\":30745:30752  amounts */\n      dup2\n        /* \"contracts/DTiket_flattened.sol\":30745:30759  amounts.length */\n      mload\n        /* \"contracts/DTiket_flattened.sol\":30731:30734  ids */\n      dup4\n        /* \"contracts/DTiket_flattened.sol\":30731:30741  ids.length */\n      mload\n        /* \"contracts/DTiket_flattened.sol\":30731:30759  ids.length == amounts.length */\n      eq\n        /* \"contracts/DTiket_flattened.sol\":30723:30804  require(ids.length == amounts.length, \"ERC1155: ids and amounts length mismatch\") */\n      tag_257\n      jumpi\n      mload(0x40)\n      shl(0xe5, 0x461bcd)\n      dup2\n      mstore\n      0x04\n      add\n      tag_105\n      swap1\n      tag_235\n      jump\t// in\n    tag_257:\n      sub(shl(0xa0, 0x01), 0x01)\n        /* \"contracts/DTiket_flattened.sol\":30822:30838  to != address(0) */\n      dup5\n      and\n        /* \"contracts/DTiket_flattened.sol\":30814:30880  require(to != address(0), \"ERC1155: transfer to the zero address\") */\n      tag_259\n      jumpi\n      mload(0x40)\n      shl(0xe5, 0x461bcd)\n      dup2\n      mstore\n      0x04\n      add\n      tag_105\n      swap1\n      tag_261\n      jump\t// in\n    tag_259:\n        /* \"contracts/DTiket_flattened.sol\":741:751  msg.sender */\n      caller\n        /* \"contracts/DTiket_flattened.sol\":30933:30993  _beforeTokenTransfer(operator, from, to, ids, amounts, data) */\n      tag_263\n        /* \"contracts/DTiket_flattened.sol\":741:751  msg.sender */\n      dup2\n        /* \"contracts/DTiket_flattened.sol\":30964:30968  from */\n      dup8\n        /* \"contracts/DTiket_flattened.sol\":30970:30972  to */\n      dup8\n        /* \"contracts/DTiket_flattened.sol\":30974:30977  ids */\n      dup8\n        /* \"contracts/DTiket_flattened.sol\":30979:30986  amounts */\n      dup8\n        /* \"contracts/DTiket_flattened.sol\":30988:30992  data */\n      dup8\n        /* \"contracts/DTiket_flattened.sol\":30933:30953  _beforeTokenTransfer */\n      tag_238\n        /* \"contracts/DTiket_flattened.sol\":30933:30993  _beforeTokenTransfer(operator, from, to, ids, amounts, data) */\n      jump\t// in\n    tag_263:\n        /* \"contracts/DTiket_flattened.sol\":31009:31018  uint256 i */\n      0x00\n        /* \"contracts/DTiket_flattened.sol\":31004:31415  for (uint256 i = 0; i < ids.length; ++i) {... */\n    tag_264:\n        /* \"contracts/DTiket_flattened.sol\":31028:31031  ids */\n      dup5\n        /* \"contracts/DTiket_flattened.sol\":31028:31038  ids.length */\n      mload\n        /* \"contracts/DTiket_flattened.sol\":31024:31025  i */\n      dup2\n        /* \"contracts/DTiket_flattened.sol\":31024:31038  i < ids.length */\n      lt\n        /* \"contracts/DTiket_flattened.sol\":31004:31415  for (uint256 i = 0; i < ids.length; ++i) {... */\n      iszero\n      tag_265\n      jumpi\n        /* \"contracts/DTiket_flattened.sol\":31059:31069  uint256 id */\n      0x00\n        /* \"contracts/DTiket_flattened.sol\":31072:31075  ids */\n      dup6\n        /* \"contracts/DTiket_flattened.sol\":31076:31077  i */\n      dup3\n        /* \"contracts/DTiket_flattened.sol\":31072:31078  ids[i] */\n      dup2\n      mload\n      dup2\n      lt\n      tag_268\n      jumpi\n      tag_268\n      tag_155\n      jump\t// in\n    tag_268:\n      0x20\n      mul\n      0x20\n      add\n      add\n      mload\n        /* \"contracts/DTiket_flattened.sol\":31059:31078  uint256 id = ids[i] */\n      swap1\n      pop\n        /* \"contracts/DTiket_flattened.sol\":31092:31106  uint256 amount */\n      0x00\n        /* \"contracts/DTiket_flattened.sol\":31109:31116  amounts */\n      dup6\n        /* \"contracts/DTiket_flattened.sol\":31117:31118  i */\n      dup4\n        /* \"contracts/DTiket_flattened.sol\":31109:31119  amounts[i] */\n      dup2\n      mload\n      dup2\n      lt\n      tag_270\n      jumpi\n      tag_270\n      tag_155\n      jump\t// in\n    tag_270:\n      0x20\n      swap1\n      dup2\n      mul\n      swap2\n      swap1\n      swap2\n      add\n      dup2\n      add\n      mload\n        /* \"contracts/DTiket_flattened.sol\":31134:31153  uint256 fromBalance */\n      0x00\n        /* \"contracts/DTiket_flattened.sol\":31156:31169  _balances[id] */\n      dup5\n      dup2\n      mstore\n      dup1\n      dup4\n      mstore\n      0x40\n      dup1\n      dup3\n      keccak256\n      sub(shl(0xa0, 0x01), 0x01)\n        /* \"contracts/DTiket_flattened.sol\":31156:31175  _balances[id][from] */\n      dup15\n      and\n      dup4\n      mstore\n      swap1\n      swap4\n      mstore\n      swap2\n      swap1\n      swap2\n      keccak256\n      sload\n        /* \"contracts/DTiket_flattened.sol\":31109:31119  amounts[i] */\n      swap1\n      swap2\n      pop\n        /* \"contracts/DTiket_flattened.sol\":31197:31218  fromBalance >= amount */\n      dup2\n      dup2\n      lt\n      iszero\n        /* \"contracts/DTiket_flattened.sol\":31189:31265  require(fromBalance >= amount, \"ERC1155: insufficient balance for transfer\") */\n      tag_271\n      jumpi\n      mload(0x40)\n      shl(0xe5, 0x461bcd)\n      dup2\n      mstore\n      0x04\n      add\n      tag_105\n      swap1\n      tag_273\n      jump\t// in\n    tag_271:\n        /* \"contracts/DTiket_flattened.sol\":31307:31316  _balances */\n      0x00\n        /* \"contracts/DTiket_flattened.sol\":31307:31320  _balances[id] */\n      dup4\n      dup2\n      mstore\n      0x20\n      dup2\n      dup2\n      mstore\n      0x40\n      dup1\n      dup4\n      keccak256\n      sub(shl(0xa0, 0x01), 0x01)\n        /* \"contracts/DTiket_flattened.sol\":31307:31326  _balances[id][from] */\n      dup15\n      dup2\n      and\n      dup6\n      mstore\n      swap3\n      mstore\n      dup1\n      dup4\n      keccak256\n        /* \"contracts/DTiket_flattened.sol\":31329:31349  fromBalance - amount */\n      dup6\n      dup6\n      sub\n        /* \"contracts/DTiket_flattened.sol\":31307:31349  _balances[id][from] = fromBalance - amount */\n      swap1\n      sstore\n        /* \"contracts/DTiket_flattened.sol\":31377:31394  _balances[id][to] */\n      swap1\n      dup12\n      and\n      dup3\n      mstore\n      dup2\n      keccak256\n        /* \"contracts/DTiket_flattened.sol\":31377:31404  _balances[id][to] += amount */\n      dup1\n      sload\n        /* \"contracts/DTiket_flattened.sol\":31329:31349  fromBalance - amount */\n      dup5\n      swap3\n        /* \"contracts/DTiket_flattened.sol\":31307:31316  _balances */\n      swap1\n        /* \"contracts/DTiket_flattened.sol\":31377:31404  _balances[id][to] += amount */\n      tag_274\n      swap1\n        /* \"contracts/DTiket_flattened.sol\":31329:31349  fromBalance - amount */\n      dup5\n      swap1\n        /* \"contracts/DTiket_flattened.sol\":31377:31404  _balances[id][to] += amount */\n      tag_247\n      jump\t// in\n    tag_274:\n      swap3\n      pop\n      pop\n      dup2\n      swap1\n      sstore\n      pop\n        /* \"contracts/DTiket_flattened.sol\":31045:31415  {... */\n      pop\n      pop\n      pop\n        /* \"contracts/DTiket_flattened.sol\":31040:31043  ++i */\n      dup1\n      tag_275\n      swap1\n      tag_161\n      jump\t// in\n    tag_275:\n      swap1\n      pop\n        /* \"contracts/DTiket_flattened.sol\":31004:31415  for (uint256 i = 0; i < ids.length; ++i) {... */\n      jump(tag_264)\n    tag_265:\n      pop\n        /* \"contracts/DTiket_flattened.sol\":31460:31462  to */\n      dup5\n      sub(shl(0xa0, 0x01), 0x01)\n        /* \"contracts/DTiket_flattened.sol\":31430:31477  TransferBatch(operator, from, to, ids, amounts) */\n      and\n        /* \"contracts/DTiket_flattened.sol\":31454:31458  from */\n      dup7\n      sub(shl(0xa0, 0x01), 0x01)\n        /* \"contracts/DTiket_flattened.sol\":31430:31477  TransferBatch(operator, from, to, ids, amounts) */\n      and\n        /* \"contracts/DTiket_flattened.sol\":31444:31452  operator */\n      dup3\n      sub(shl(0xa0, 0x01), 0x01)\n        /* \"contracts/DTiket_flattened.sol\":31430:31477  TransferBatch(operator, from, to, ids, amounts) */\n      and\n      0x4a39dc06d4c0dbc64b70af90fd698a233a518aa5d07e595d983b8c0526c8f7fb\n        /* \"contracts/DTiket_flattened.sol\":31464:31467  ids */\n      dup8\n        /* \"contracts/DTiket_flattened.sol\":31469:31476  amounts */\n      dup8\n        /* \"contracts/DTiket_flattened.sol\":31430:31477  TransferBatch(operator, from, to, ids, amounts) */\n      mload(0x40)\n      tag_276\n      swap3\n      swap2\n      swap1\n      tag_250\n      jump\t// in\n    tag_276:\n      mload(0x40)\n      dup1\n      swap2\n      sub\n      swap1\n      log4\n        /* \"contracts/DTiket_flattened.sol\":31558:31633  _doSafeBatchTransferAcceptanceCheck(operator, from, to, ids, amounts, data) */\n      tag_278\n        /* \"contracts/DTiket_flattened.sol\":31594:31602  operator */\n      dup2\n        /* \"contracts/DTiket_flattened.sol\":31604:31608  from */\n      dup8\n        /* \"contracts/DTiket_flattened.sol\":31610:31612  to */\n      dup8\n        /* \"contracts/DTiket_flattened.sol\":31614:31617  ids */\n      dup8\n        /* \"contracts/DTiket_flattened.sol\":31619:31626  amounts */\n      dup8\n        /* \"contracts/DTiket_flattened.sol\":31628:31632  data */\n      dup8\n        /* \"contracts/DTiket_flattened.sol\":31558:31593  _doSafeBatchTransferAcceptanceCheck */\n      tag_254\n        /* \"contracts/DTiket_flattened.sol\":31558:31633  _doSafeBatchTransferAcceptanceCheck(operator, from, to, ids, amounts, data) */\n      jump\t// in\n    tag_278:\n        /* \"contracts/DTiket_flattened.sol\":30713:31640  {... */\n      pop\n        /* \"contracts/DTiket_flattened.sol\":30525:31640  function _safeBatchTransferFrom(... */\n      pop\n      pop\n      pop\n      pop\n      pop\n      jump\t// out\n        /* \"contracts/DTiket_flattened.sol\":5902:6019  function _unpause() internal virtual whenPaused {... */\n    tag_140:\n        /* \"contracts/DTiket_flattened.sol\":4955:4971  _requirePaused() */\n      tag_280\n        /* \"contracts/DTiket_flattened.sol\":4955:4969  _requirePaused */\n      tag_281\n        /* \"contracts/DTiket_flattened.sol\":4955:4971  _requirePaused() */\n      jump\t// in\n    tag_280:\n        /* \"contracts/DTiket_flattened.sol\":5960:5967  _paused */\n      0x03\n        /* \"contracts/DTiket_flattened.sol\":5960:5975  _paused = false */\n      dup1\n      sload\n      not(0xff)\n      and\n      swap1\n      sstore\n        /* \"contracts/DTiket_flattened.sol\":5990:6012  Unpaused(_msgSender()) */\n      0x5db9ee0a495bf2e6ff9c91a7834c1ba4fdd244a5e8aa4e537bd38aeae4b073aa\n        /* \"contracts/DTiket_flattened.sol\":741:751  msg.sender */\n      caller\n        /* \"contracts/DTiket_flattened.sol\":5999:6011  _msgSender() */\n    tag_283:\n        /* \"contracts/DTiket_flattened.sol\":5990:6012  Unpaused(_msgSender()) */\n      mload(0x40)\n      sub(shl(0xa0, 0x01), 0x01)\n        /* \"#utility.yul\":9026:9058   */\n      swap1\n      swap2\n      and\n        /* \"#utility.yul\":9008:9059   */\n      dup2\n      mstore\n        /* \"#utility.yul\":8996:8998   */\n      0x20\n        /* \"#utility.yul\":8981:8999   */\n      add\n        /* \"contracts/DTiket_flattened.sol\":5990:6012  Unpaused(_msgSender()) */\n      mload(0x40)\n      dup1\n      swap2\n      sub\n      swap1\n      log1\n        /* \"contracts/DTiket_flattened.sol\":5902:6019  function _unpause() internal virtual whenPaused {... */\n      jump\t// out\n        /* \"contracts/DTiket_flattened.sol\":36055:36968  function _burnBatch(address from, uint256[] memory ids, uint256[] memory amounts) internal virtual {... */\n    tag_171:\n      sub(shl(0xa0, 0x01), 0x01)\n        /* \"contracts/DTiket_flattened.sol\":36172:36190  from != address(0) */\n      dup4\n      and\n        /* \"contracts/DTiket_flattened.sol\":36164:36230  require(from != address(0), \"ERC1155: burn from the zero address\") */\n      tag_286\n      jumpi\n      mload(0x40)\n      shl(0xe5, 0x461bcd)\n      dup2\n      mstore\n      0x04\n      add\n      tag_105\n      swap1\n      tag_288\n      jump\t// in\n    tag_286:\n        /* \"contracts/DTiket_flattened.sol\":36262:36269  amounts */\n      dup1\n        /* \"contracts/DTiket_flattened.sol\":36262:36276  amounts.length */\n      mload\n        /* \"contracts/DTiket_flattened.sol\":36248:36251  ids */\n      dup3\n        /* \"contracts/DTiket_flattened.sol\":36248:36258  ids.length */\n      mload\n        /* \"contracts/DTiket_flattened.sol\":36248:36276  ids.length == amounts.length */\n      eq\n        /* \"contracts/DTiket_flattened.sol\":36240:36321  require(ids.length == amounts.length, \"ERC1155: ids and amounts length mismatch\") */\n      tag_289\n      jumpi\n      mload(0x40)\n      shl(0xe5, 0x461bcd)\n      dup2\n      mstore\n      0x04\n      add\n      tag_105\n      swap1\n      tag_235\n      jump\t// in\n    tag_289:\n        /* \"contracts/DTiket_flattened.sol\":36332:36348  address operator */\n      0x00\n        /* \"contracts/DTiket_flattened.sol\":741:751  msg.sender */\n      caller\n        /* \"contracts/DTiket_flattened.sol\":36332:36363  address operator = _msgSender() */\n      swap1\n      pop\n        /* \"contracts/DTiket_flattened.sol\":36374:36440  _beforeTokenTransfer(operator, from, address(0), ids, amounts, \"\") */\n      tag_292\n        /* \"contracts/DTiket_flattened.sol\":36395:36403  operator */\n      dup2\n        /* \"contracts/DTiket_flattened.sol\":36405:36409  from */\n      dup6\n        /* \"contracts/DTiket_flattened.sol\":36419:36420  0 */\n      0x00\n        /* \"contracts/DTiket_flattened.sol\":36423:36426  ids */\n      dup7\n        /* \"contracts/DTiket_flattened.sol\":36428:36435  amounts */\n      dup7\n        /* \"contracts/DTiket_flattened.sol\":36374:36440  _beforeTokenTransfer(operator, from, address(0), ids, amounts, \"\") */\n      mload(0x40)\n      dup1\n      0x20\n      add\n      0x40\n      mstore\n      dup1\n      0x00\n      dup2\n      mstore\n      pop\n        /* \"contracts/DTiket_flattened.sol\":36374:36394  _beforeTokenTransfer */\n      tag_238\n        /* \"contracts/DTiket_flattened.sol\":36374:36440  _beforeTokenTransfer(operator, from, address(0), ids, amounts, \"\") */\n      jump\t// in\n    tag_292:\n        /* \"contracts/DTiket_flattened.sol\":36456:36465  uint256 i */\n      0x00\n        /* \"contracts/DTiket_flattened.sol\":36451:36815  for (uint256 i = 0; i < ids.length; i++) {... */\n    tag_293:\n        /* \"contracts/DTiket_flattened.sol\":36475:36478  ids */\n      dup4\n        /* \"contracts/DTiket_flattened.sol\":36475:36485  ids.length */\n      mload\n        /* \"contracts/DTiket_flattened.sol\":36471:36472  i */\n      dup2\n        /* \"contracts/DTiket_flattened.sol\":36471:36485  i < ids.length */\n      lt\n        /* \"contracts/DTiket_flattened.sol\":36451:36815  for (uint256 i = 0; i < ids.length; i++) {... */\n      iszero\n      tag_294\n      jumpi\n        /* \"contracts/DTiket_flattened.sol\":36506:36516  uint256 id */\n      0x00\n        /* \"contracts/DTiket_flattened.sol\":36519:36522  ids */\n      dup5\n        /* \"contracts/DTiket_flattened.sol\":36523:36524  i */\n      dup3\n        /* \"contracts/DTiket_flattened.sol\":36519:36525  ids[i] */\n      dup2\n      mload\n      dup2\n      lt\n      tag_297\n      jumpi\n      tag_297\n      tag_155\n      jump\t// in\n    tag_297:\n      0x20\n      mul\n      0x20\n      add\n      add\n      mload\n        /* \"contracts/DTiket_flattened.sol\":36506:36525  uint256 id = ids[i] */\n      swap1\n      pop\n        /* \"contracts/DTiket_flattened.sol\":36539:36553  uint256 amount */\n      0x00\n        /* \"contracts/DTiket_flattened.sol\":36556:36563  amounts */\n      dup5\n        /* \"contracts/DTiket_flattened.sol\":36564:36565  i */\n      dup4\n        /* \"contracts/DTiket_flattened.sol\":36556:36566  amounts[i] */\n      dup2\n      mload\n      dup2\n      lt\n      tag_299\n      jumpi\n      tag_299\n      tag_155\n      jump\t// in\n    tag_299:\n      0x20\n      swap1\n      dup2\n      mul\n      swap2\n      swap1\n      swap2\n      add\n      dup2\n      add\n      mload\n        /* \"contracts/DTiket_flattened.sol\":36581:36600  uint256 fromBalance */\n      0x00\n        /* \"contracts/DTiket_flattened.sol\":36603:36616  _balances[id] */\n      dup5\n      dup2\n      mstore\n      dup1\n      dup4\n      mstore\n      0x40\n      dup1\n      dup3\n      keccak256\n      sub(shl(0xa0, 0x01), 0x01)\n        /* \"contracts/DTiket_flattened.sol\":36603:36622  _balances[id][from] */\n      dup13\n      and\n      dup4\n      mstore\n      swap1\n      swap4\n      mstore\n      swap2\n      swap1\n      swap2\n      keccak256\n      sload\n        /* \"contracts/DTiket_flattened.sol\":36556:36566  amounts[i] */\n      swap1\n      swap2\n      pop\n        /* \"contracts/DTiket_flattened.sol\":36644:36665  fromBalance >= amount */\n      dup2\n      dup2\n      lt\n      iszero\n        /* \"contracts/DTiket_flattened.sol\":36636:36706  require(fromBalance >= amount, \"ERC1155: burn amount exceeds balance\") */\n      tag_300\n      jumpi\n      mload(0x40)\n      shl(0xe5, 0x461bcd)\n      dup2\n      mstore\n      0x04\n      add\n      tag_105\n      swap1\n      tag_302\n      jump\t// in\n    tag_300:\n        /* \"contracts/DTiket_flattened.sol\":36748:36757  _balances */\n      0x00\n        /* \"contracts/DTiket_flattened.sol\":36748:36761  _balances[id] */\n      swap3\n      dup4\n      mstore\n      0x20\n      dup4\n      dup2\n      mstore\n      0x40\n      dup1\n      dup6\n      keccak256\n      sub(shl(0xa0, 0x01), 0x01)\n        /* \"contracts/DTiket_flattened.sol\":36748:36767  _balances[id][from] */\n      dup12\n      and\n      dup7\n      mstore\n      swap1\n      swap2\n      mstore\n      swap1\n      swap3\n      keccak256\n        /* \"contracts/DTiket_flattened.sol\":36770:36790  fromBalance - amount */\n      swap2\n      sub\n        /* \"contracts/DTiket_flattened.sol\":36748:36790  _balances[id][from] = fromBalance - amount */\n      swap1\n      sstore\n        /* \"contracts/DTiket_flattened.sol\":36487:36490  i++ */\n      dup1\n      tag_303\n      dup2\n      tag_161\n      jump\t// in\n    tag_303:\n      swap2\n      pop\n      pop\n        /* \"contracts/DTiket_flattened.sol\":36451:36815  for (uint256 i = 0; i < ids.length; i++) {... */\n      jump(tag_293)\n    tag_294:\n      pop\n        /* \"contracts/DTiket_flattened.sol\":36868:36869  0 */\n      0x00\n      sub(shl(0xa0, 0x01), 0x01)\n        /* \"contracts/DTiket_flattened.sol\":36830:36885  TransferBatch(operator, from, address(0), ids, amounts) */\n      and\n        /* \"contracts/DTiket_flattened.sol\":36854:36858  from */\n      dup5\n      sub(shl(0xa0, 0x01), 0x01)\n        /* \"contracts/DTiket_flattened.sol\":36830:36885  TransferBatch(operator, from, address(0), ids, amounts) */\n      and\n        /* \"contracts/DTiket_flattened.sol\":36844:36852  operator */\n      dup3\n      sub(shl(0xa0, 0x01), 0x01)\n        /* \"contracts/DTiket_flattened.sol\":36830:36885  TransferBatch(operator, from, address(0), ids, amounts) */\n      and\n      0x4a39dc06d4c0dbc64b70af90fd698a233a518aa5d07e595d983b8c0526c8f7fb\n        /* \"contracts/DTiket_flattened.sol\":36872:36875  ids */\n      dup7\n        /* \"contracts/DTiket_flattened.sol\":36877:36884  amounts */\n      dup7\n        /* \"contracts/DTiket_flattened.sol\":36830:36885  TransferBatch(operator, from, address(0), ids, amounts) */\n      mload(0x40)\n      tag_304\n      swap3\n      swap2\n      swap1\n      tag_250\n      jump\t// in\n    tag_304:\n      mload(0x40)\n      dup1\n      swap2\n      sub\n      swap1\n      log4\n        /* \"contracts/DTiket_flattened.sol\":36896:36961  _afterTokenTransfer(operator, from, address(0), ids, amounts, \"\") */\n      0x40\n      dup1\n      mload\n      0x20\n      dup2\n      add\n      swap1\n      swap2\n      mstore\n        /* \"contracts/DTiket_flattened.sol\":36940:36941  0 */\n      0x00\n        /* \"contracts/DTiket_flattened.sol\":36896:36961  _afterTokenTransfer(operator, from, address(0), ids, amounts, \"\") */\n      swap1\n      mstore\n      tag_123\n        /* \"contracts/DTiket_flattened.sol\":30525:31640  function _safeBatchTransferFrom(... */\n      jump\n        /* \"contracts/DTiket_flattened.sol\":3284:3471  function _transferOwnership(address newOwner) internal virtual {... */\n    tag_176:\n        /* \"contracts/DTiket_flattened.sol\":3376:3382  _owner */\n      0x03\n      dup1\n      sload\n      sub(shl(0xa0, 0x01), 0x01)\n        /* \"contracts/DTiket_flattened.sol\":3392:3409  _owner = newOwner */\n      dup4\n      dup2\n      and\n        /* \"contracts/DTiket_flattened.sol\":3376:3382  _owner */\n      0x0100\n        /* \"contracts/DTiket_flattened.sol\":3392:3409  _owner = newOwner */\n      dup2\n      dup2\n      mul\n      not(sub(shl(0xa8, 0x01), 0x0100))\n      dup6\n      and\n      or\n      swap1\n      swap5\n      sstore\n        /* \"contracts/DTiket_flattened.sol\":3424:3464  OwnershipTransferred(oldOwner, newOwner) */\n      mload(0x40)\n        /* \"contracts/DTiket_flattened.sol\":3376:3382  _owner */\n      swap4\n      swap1\n      swap3\n      div\n      and\n      swap2\n      dup3\n      swap1\n        /* \"contracts/DTiket_flattened.sol\":3424:3464  OwnershipTransferred(oldOwner, newOwner) */\n      0x8be0079c531659141344cd1fd0a4f28419497f9722a3daafe3b4186f6b6457e0\n      swap1\n        /* \"contracts/DTiket_flattened.sol\":3357:3373  address oldOwner */\n      0x00\n      swap1\n        /* \"contracts/DTiket_flattened.sol\":3424:3464  OwnershipTransferred(oldOwner, newOwner) */\n      log3\n        /* \"contracts/DTiket_flattened.sol\":3347:3471  {... */\n      pop\n        /* \"contracts/DTiket_flattened.sol\":3284:3471  function _transferOwnership(address newOwner) internal virtual {... */\n      pop\n      jump\t// out\n        /* \"contracts/DTiket_flattened.sol\":32922:33593  function _mint(address to, uint256 id, uint256 amount, bytes memory data) internal virtual {... */\n    tag_181:\n      sub(shl(0xa0, 0x01), 0x01)\n        /* \"contracts/DTiket_flattened.sol\":33031:33047  to != address(0) */\n      dup5\n      and\n        /* \"contracts/DTiket_flattened.sol\":33023:33085  require(to != address(0), \"ERC1155: mint to the zero address\") */\n      tag_308\n      jumpi\n      mload(0x40)\n      shl(0xe5, 0x461bcd)\n      dup2\n      mstore\n      0x04\n      add\n      tag_105\n      swap1\n      tag_232\n      jump\t// in\n    tag_308:\n        /* \"contracts/DTiket_flattened.sol\":741:751  msg.sender */\n      caller\n        /* \"contracts/DTiket_flattened.sol\":33096:33112  address operator */\n      0x00\n        /* \"contracts/DTiket_flattened.sol\":33160:33181  _asSingletonArray(id) */\n      tag_311\n        /* \"contracts/DTiket_flattened.sol\":33178:33180  id */\n      dup6\n        /* \"contracts/DTiket_flattened.sol\":33160:33177  _asSingletonArray */\n      tag_312\n        /* \"contracts/DTiket_flattened.sol\":33160:33181  _asSingletonArray(id) */\n      jump\t// in\n    tag_311:\n        /* \"contracts/DTiket_flattened.sol\":33137:33181  uint256[] memory ids = _asSingletonArray(id) */\n      swap1\n      pop\n        /* \"contracts/DTiket_flattened.sol\":33191:33215  uint256[] memory amounts */\n      0x00\n        /* \"contracts/DTiket_flattened.sol\":33218:33243  _asSingletonArray(amount) */\n      tag_313\n        /* \"contracts/DTiket_flattened.sol\":33236:33242  amount */\n      dup6\n        /* \"contracts/DTiket_flattened.sol\":33218:33235  _asSingletonArray */\n      tag_312\n        /* \"contracts/DTiket_flattened.sol\":33218:33243  _asSingletonArray(amount) */\n      jump\t// in\n    tag_313:\n        /* \"contracts/DTiket_flattened.sol\":33191:33243  uint256[] memory amounts = _asSingletonArray(amount) */\n      swap1\n      pop\n        /* \"contracts/DTiket_flattened.sol\":33254:33320  _beforeTokenTransfer(operator, address(0), to, ids, amounts, data) */\n      tag_314\n        /* \"contracts/DTiket_flattened.sol\":33275:33283  operator */\n      dup4\n        /* \"contracts/DTiket_flattened.sol\":33293:33294  0 */\n      0x00\n        /* \"contracts/DTiket_flattened.sol\":33297:33299  to */\n      dup10\n        /* \"contracts/DTiket_flattened.sol\":33301:33304  ids */\n      dup6\n        /* \"contracts/DTiket_flattened.sol\":33306:33313  amounts */\n      dup6\n        /* \"contracts/DTiket_flattened.sol\":33315:33319  data */\n      dup10\n        /* \"contracts/DTiket_flattened.sol\":33254:33274  _beforeTokenTransfer */\n      tag_238\n        /* \"contracts/DTiket_flattened.sol\":33254:33320  _beforeTokenTransfer(operator, address(0), to, ids, amounts, data) */\n      jump\t// in\n    tag_314:\n        /* \"contracts/DTiket_flattened.sol\":33331:33340  _balances */\n      0x00\n        /* \"contracts/DTiket_flattened.sol\":33331:33344  _balances[id] */\n      dup7\n      dup2\n      mstore\n      0x20\n      dup2\n      dup2\n      mstore\n      0x40\n      dup1\n      dup4\n      keccak256\n      sub(shl(0xa0, 0x01), 0x01)\n        /* \"contracts/DTiket_flattened.sol\":33331:33348  _balances[id][to] */\n      dup12\n      and\n      dup5\n      mstore\n      swap1\n      swap2\n      mstore\n      dup2\n      keccak256\n        /* \"contracts/DTiket_flattened.sol\":33331:33358  _balances[id][to] += amount */\n      dup1\n      sload\n        /* \"contracts/DTiket_flattened.sol\":33352:33358  amount */\n      dup8\n      swap3\n        /* \"contracts/DTiket_flattened.sol\":33331:33340  _balances */\n      swap1\n        /* \"contracts/DTiket_flattened.sol\":33331:33358  _balances[id][to] += amount */\n      tag_315\n      swap1\n        /* \"contracts/DTiket_flattened.sol\":33352:33358  amount */\n      dup5\n      swap1\n        /* \"contracts/DTiket_flattened.sol\":33331:33358  _balances[id][to] += amount */\n      tag_247\n      jump\t// in\n    tag_315:\n      swap1\n      swap2\n      sstore\n      pop\n      pop\n        /* \"contracts/DTiket_flattened.sol\":33373:33425  TransferSingle(operator, address(0), to, id, amount) */\n      0x40\n      dup1\n      mload\n        /* \"#utility.yul\":17259:17284   */\n      dup8\n      dup2\n      mstore\n        /* \"#utility.yul\":17315:17317   */\n      0x20\n        /* \"#utility.yul\":17300:17318   */\n      dup2\n      add\n        /* \"#utility.yul\":17293:17327   */\n      dup8\n      swap1\n      mstore\n      sub(shl(0xa0, 0x01), 0x01)\n        /* \"contracts/DTiket_flattened.sol\":33373:33425  TransferSingle(operator, address(0), to, id, amount) */\n      dup1\n      dup11\n      and\n      swap3\n        /* \"contracts/DTiket_flattened.sol\":33406:33407  0 */\n      0x00\n      swap3\n        /* \"contracts/DTiket_flattened.sol\":33373:33425  TransferSingle(operator, address(0), to, id, amount) */\n      swap2\n      dup8\n      and\n      swap2\n      0xc3d58168c5ae7397731d063d5bbf3d657854427343f4c083240f7aacaa2d0f62\n      swap2\n        /* \"#utility.yul\":17232:17250   */\n      add\n        /* \"contracts/DTiket_flattened.sol\":33373:33425  TransferSingle(operator, address(0), to, id, amount) */\n      mload(0x40)\n      dup1\n      swap2\n      sub\n      swap1\n      log4\n        /* \"contracts/DTiket_flattened.sol\":33512:33586  _doSafeTransferAcceptanceCheck(operator, address(0), to, id, amount, data) */\n      tag_319\n        /* \"contracts/DTiket_flattened.sol\":33543:33551  operator */\n      dup4\n        /* \"contracts/DTiket_flattened.sol\":33561:33562  0 */\n      0x00\n        /* \"contracts/DTiket_flattened.sol\":33565:33567  to */\n      dup10\n        /* \"contracts/DTiket_flattened.sol\":33569:33571  id */\n      dup10\n        /* \"contracts/DTiket_flattened.sol\":33573:33579  amount */\n      dup10\n        /* \"contracts/DTiket_flattened.sol\":33581:33585  data */\n      dup10\n        /* \"contracts/DTiket_flattened.sol\":33512:33542  _doSafeTransferAcceptanceCheck */\n      tag_320\n        /* \"contracts/DTiket_flattened.sol\":33512:33586  _doSafeTransferAcceptanceCheck(operator, address(0), to, id, amount, data) */\n      jump\t// in\n    tag_319:\n        /* \"contracts/DTiket_flattened.sol\":33013:33593  {... */\n      pop\n      pop\n      pop\n        /* \"contracts/DTiket_flattened.sol\":32922:33593  function _mint(address to, uint256 id, uint256 amount, bytes memory data) internal virtual {... */\n      pop\n      pop\n      pop\n      pop\n      jump\t// out\n        /* \"contracts/DTiket_flattened.sol\":5655:5770  function _pause() internal virtual whenNotPaused {... */\n    tag_186:\n        /* \"contracts/DTiket_flattened.sol\":4708:4727  _requireNotPaused() */\n      tag_322\n        /* \"contracts/DTiket_flattened.sol\":4708:4725  _requireNotPaused */\n      tag_323\n        /* \"contracts/DTiket_flattened.sol\":4708:4727  _requireNotPaused() */\n      jump\t// in\n    tag_322:\n        /* \"contracts/DTiket_flattened.sol\":5714:5721  _paused */\n      0x03\n        /* \"contracts/DTiket_flattened.sol\":5714:5728  _paused = true */\n      dup1\n      sload\n      not(0xff)\n      and\n        /* \"contracts/DTiket_flattened.sol\":5724:5728  true */\n      0x01\n        /* \"contracts/DTiket_flattened.sol\":5714:5728  _paused = true */\n      or\n      swap1\n      sstore\n        /* \"contracts/DTiket_flattened.sol\":5743:5763  Paused(_msgSender()) */\n      0x62e78cea01bee320cd4e420270b5ea74000d11b0c9f74754ebdbfc544b05a258\n        /* \"contracts/DTiket_flattened.sol\":5750:5762  _msgSender() */\n      tag_283\n        /* \"contracts/DTiket_flattened.sol\":741:751  msg.sender */\n      caller\n      swap1\n        /* \"contracts/DTiket_flattened.sol\":662:758  function _msgSender() internal view virtual returns (address) {... */\n      jump\n        /* \"contracts/DTiket_flattened.sol\":37104:37397  function _setApprovalForAll(address owner, address operator, bool approved) internal virtual {... */\n    tag_191:\n        /* \"contracts/DTiket_flattened.sol\":37224:37232  operator */\n      dup2\n      sub(shl(0xa0, 0x01), 0x01)\n        /* \"contracts/DTiket_flattened.sol\":37215:37232  owner != operator */\n      and\n        /* \"contracts/DTiket_flattened.sol\":37215:37220  owner */\n      dup4\n      sub(shl(0xa0, 0x01), 0x01)\n        /* \"contracts/DTiket_flattened.sol\":37215:37232  owner != operator */\n      and\n      sub\n        /* \"contracts/DTiket_flattened.sol\":37207:37278  require(owner != operator, \"ERC1155: setting approval status for self\") */\n      tag_328\n      jumpi\n      mload(0x40)\n      shl(0xe5, 0x461bcd)\n      dup2\n      mstore\n        /* \"#utility.yul\":17540:17542   */\n      0x20\n        /* \"contracts/DTiket_flattened.sol\":37207:37278  require(owner != operator, \"ERC1155: setting approval status for self\") */\n      0x04\n      dup3\n      add\n        /* \"#utility.yul\":17522:17543   */\n      mstore\n        /* \"#utility.yul\":17579:17581   */\n      0x29\n        /* \"#utility.yul\":17559:17577   */\n      0x24\n      dup3\n      add\n        /* \"#utility.yul\":17552:17582   */\n      mstore\n        /* \"#utility.yul\":17618:17652   */\n      0x455243313135353a2073657474696e6720617070726f76616c20737461747573\n        /* \"#utility.yul\":17598:17616   */\n      0x44\n      dup3\n      add\n        /* \"#utility.yul\":17591:17653   */\n      mstore\n      shl(0xb9, 0x103337b91039b2b633)\n        /* \"#utility.yul\":17669:17687   */\n      0x64\n      dup3\n      add\n        /* \"#utility.yul\":17662:17701   */\n      mstore\n        /* \"#utility.yul\":17718:17737   */\n      0x84\n      add\n        /* \"contracts/DTiket_flattened.sol\":37207:37278  require(owner != operator, \"ERC1155: setting approval status for self\") */\n      tag_105\n        /* \"#utility.yul\":17338:17743   */\n      jump\n        /* \"contracts/DTiket_flattened.sol\":37207:37278  require(owner != operator, \"ERC1155: setting approval status for self\") */\n    tag_328:\n      sub(shl(0xa0, 0x01), 0x01)\n        /* \"contracts/DTiket_flattened.sol\":37288:37313  _operatorApprovals[owner] */\n      dup4\n      dup2\n      and\n      0x00\n      dup2\n      dup2\n      mstore\n        /* \"contracts/DTiket_flattened.sol\":37288:37306  _operatorApprovals */\n      0x01\n        /* \"contracts/DTiket_flattened.sol\":37288:37313  _operatorApprovals[owner] */\n      0x20\n      swap1\n      dup2\n      mstore\n      0x40\n      dup1\n      dup4\n      keccak256\n        /* \"contracts/DTiket_flattened.sol\":37288:37323  _operatorApprovals[owner][operator] */\n      swap5\n      dup8\n      and\n      dup1\n      dup5\n      mstore\n      swap5\n      dup3\n      mstore\n      swap2\n      dup3\n      swap1\n      keccak256\n        /* \"contracts/DTiket_flattened.sol\":37288:37334  _operatorApprovals[owner][operator] = approved */\n      dup1\n      sload\n      not(0xff)\n      and\n      dup7\n      iszero\n      iszero\n      swap1\n      dup2\n      or\n      swap1\n      swap2\n      sstore\n        /* \"contracts/DTiket_flattened.sol\":37349:37390  ApprovalForAll(owner, operator, approved) */\n      swap2\n      mload\n        /* \"#utility.yul\":1159:1200   */\n      swap2\n      dup3\n      mstore\n        /* \"contracts/DTiket_flattened.sol\":37349:37390  ApprovalForAll(owner, operator, approved) */\n      0x17307eab39ab6107e8899845ad3d59bd9653f200f220920489ca2b5937696c31\n      swap2\n        /* \"#utility.yul\":1132:1150   */\n      add\n        /* \"contracts/DTiket_flattened.sol\":37349:37390  ApprovalForAll(owner, operator, approved) */\n      mload(0x40)\n      dup1\n      swap2\n      sub\n      swap1\n      log3\n        /* \"contracts/DTiket_flattened.sol\":37104:37397  function _setApprovalForAll(address owner, address operator, bool approved) internal virtual {... */\n      pop\n      pop\n      pop\n      jump\t// out\n        /* \"contracts/DTiket_flattened.sol\":35060:35816  function _burn(address from, uint256 id, uint256 amount) internal virtual {... */\n    tag_196:\n      sub(shl(0xa0, 0x01), 0x01)\n        /* \"contracts/DTiket_flattened.sol\":35152:35170  from != address(0) */\n      dup4\n      and\n        /* \"contracts/DTiket_flattened.sol\":35144:35210  require(from != address(0), \"ERC1155: burn from the zero address\") */\n      tag_333\n      jumpi\n      mload(0x40)\n      shl(0xe5, 0x461bcd)\n      dup2\n      mstore\n      0x04\n      add\n      tag_105\n      swap1\n      tag_288\n      jump\t// in\n    tag_333:\n        /* \"contracts/DTiket_flattened.sol\":741:751  msg.sender */\n      caller\n        /* \"contracts/DTiket_flattened.sol\":35221:35237  address operator */\n      0x00\n        /* \"contracts/DTiket_flattened.sol\":35285:35306  _asSingletonArray(id) */\n      tag_336\n        /* \"contracts/DTiket_flattened.sol\":35303:35305  id */\n      dup5\n        /* \"contracts/DTiket_flattened.sol\":35285:35302  _asSingletonArray */\n      tag_312\n        /* \"contracts/DTiket_flattened.sol\":35285:35306  _asSingletonArray(id) */\n      jump\t// in\n    tag_336:\n        /* \"contracts/DTiket_flattened.sol\":35262:35306  uint256[] memory ids = _asSingletonArray(id) */\n      swap1\n      pop\n        /* \"contracts/DTiket_flattened.sol\":35316:35340  uint256[] memory amounts */\n      0x00\n        /* \"contracts/DTiket_flattened.sol\":35343:35368  _asSingletonArray(amount) */\n      tag_337\n        /* \"contracts/DTiket_flattened.sol\":35361:35367  amount */\n      dup5\n        /* \"contracts/DTiket_flattened.sol\":35343:35360  _asSingletonArray */\n      tag_312\n        /* \"contracts/DTiket_flattened.sol\":35343:35368  _asSingletonArray(amount) */\n      jump\t// in\n    tag_337:\n        /* \"contracts/DTiket_flattened.sol\":35316:35368  uint256[] memory amounts = _asSingletonArray(amount) */\n      swap1\n      pop\n        /* \"contracts/DTiket_flattened.sol\":35379:35445  _beforeTokenTransfer(operator, from, address(0), ids, amounts, \"\") */\n      tag_338\n        /* \"contracts/DTiket_flattened.sol\":35400:35408  operator */\n      dup4\n        /* \"contracts/DTiket_flattened.sol\":35410:35414  from */\n      dup8\n        /* \"contracts/DTiket_flattened.sol\":35424:35425  0 */\n      0x00\n        /* \"contracts/DTiket_flattened.sol\":35428:35431  ids */\n      dup6\n        /* \"contracts/DTiket_flattened.sol\":35433:35440  amounts */\n      dup6\n        /* \"contracts/DTiket_flattened.sol\":35379:35445  _beforeTokenTransfer(operator, from, address(0), ids, amounts, \"\") */\n      mload(0x40)\n      dup1\n      0x20\n      add\n      0x40\n      mstore\n      dup1\n      0x00\n      dup2\n      mstore\n      pop\n        /* \"contracts/DTiket_flattened.sol\":35379:35399  _beforeTokenTransfer */\n      tag_238\n        /* \"contracts/DTiket_flattened.sol\":35379:35445  _beforeTokenTransfer(operator, from, address(0), ids, amounts, \"\") */\n      jump\t// in\n    tag_338:\n        /* \"contracts/DTiket_flattened.sol\":35456:35475  uint256 fromBalance */\n      0x00\n        /* \"contracts/DTiket_flattened.sol\":35478:35491  _balances[id] */\n      dup6\n      dup2\n      mstore\n      0x20\n      dup2\n      dup2\n      mstore\n      0x40\n      dup1\n      dup4\n      keccak256\n      sub(shl(0xa0, 0x01), 0x01)\n        /* \"contracts/DTiket_flattened.sol\":35478:35497  _balances[id][from] */\n      dup11\n      and\n      dup5\n      mstore\n      swap1\n      swap2\n      mstore\n      swap1\n      keccak256\n      sload\n        /* \"contracts/DTiket_flattened.sol\":35515:35536  fromBalance >= amount */\n      dup5\n      dup2\n      lt\n      iszero\n        /* \"contracts/DTiket_flattened.sol\":35507:35577  require(fromBalance >= amount, \"ERC1155: burn amount exceeds balance\") */\n      tag_339\n      jumpi\n      mload(0x40)\n      shl(0xe5, 0x461bcd)\n      dup2\n      mstore\n      0x04\n      add\n      tag_105\n      swap1\n      tag_302\n      jump\t// in\n    tag_339:\n        /* \"contracts/DTiket_flattened.sol\":35611:35620  _balances */\n      0x00\n        /* \"contracts/DTiket_flattened.sol\":35611:35624  _balances[id] */\n      dup7\n      dup2\n      mstore\n      0x20\n      dup2\n      dup2\n      mstore\n      0x40\n      dup1\n      dup4\n      keccak256\n      sub(shl(0xa0, 0x01), 0x01)\n        /* \"contracts/DTiket_flattened.sol\":35611:35630  _balances[id][from] */\n      dup12\n      dup2\n      and\n      dup1\n      dup7\n      mstore\n      swap2\n      dup5\n      mstore\n      dup3\n      dup6\n      keccak256\n        /* \"contracts/DTiket_flattened.sol\":35633:35653  fromBalance - amount */\n      dup11\n      dup8\n      sub\n        /* \"contracts/DTiket_flattened.sol\":35611:35653  _balances[id][from] = fromBalance - amount */\n      swap1\n      sstore\n        /* \"contracts/DTiket_flattened.sol\":35679:35733  TransferSingle(operator, from, address(0), id, amount) */\n      dup3\n      mload\n        /* \"#utility.yul\":17259:17284   */\n      dup12\n      dup2\n      mstore\n        /* \"#utility.yul\":17300:17318   */\n      swap4\n      dup5\n      add\n        /* \"#utility.yul\":17293:17327   */\n      dup11\n      swap1\n      mstore\n        /* \"contracts/DTiket_flattened.sol\":35611:35630  _balances[id][from] */\n      swap1\n      swap3\n        /* \"contracts/DTiket_flattened.sol\":35679:35733  TransferSingle(operator, from, address(0), id, amount) */\n      swap1\n      dup9\n      and\n      swap2\n      0xc3d58168c5ae7397731d063d5bbf3d657854427343f4c083240f7aacaa2d0f62\n      swap2\n        /* \"#utility.yul\":17232:17250   */\n      add\n        /* \"contracts/DTiket_flattened.sol\":35679:35733  TransferSingle(operator, from, address(0), id, amount) */\n      mload(0x40)\n      dup1\n      swap2\n      sub\n      swap1\n      log4\n        /* \"contracts/DTiket_flattened.sol\":35744:35809  _afterTokenTransfer(operator, from, address(0), ids, amounts, \"\") */\n      0x40\n      dup1\n      mload\n      0x20\n      dup2\n      add\n      swap1\n      swap2\n      mstore\n        /* \"contracts/DTiket_flattened.sol\":35788:35789  0 */\n      0x00\n        /* \"contracts/DTiket_flattened.sol\":35744:35809  _afterTokenTransfer(operator, from, address(0), ids, amounts, \"\") */\n      swap1\n      mstore\n      tag_319\n        /* \"contracts/DTiket_flattened.sol\":30525:31640  function _safeBatchTransferFrom(... */\n      jump\n        /* \"contracts/DTiket_flattened.sol\":29232:30179  function _safeTransferFrom(... */\n    tag_206:\n      sub(shl(0xa0, 0x01), 0x01)\n        /* \"contracts/DTiket_flattened.sol\":29413:29429  to != address(0) */\n      dup5\n      and\n        /* \"contracts/DTiket_flattened.sol\":29405:29471  require(to != address(0), \"ERC1155: transfer to the zero address\") */\n      tag_344\n      jumpi\n      mload(0x40)\n      shl(0xe5, 0x461bcd)\n      dup2\n      mstore\n      0x04\n      add\n      tag_105\n      swap1\n      tag_261\n      jump\t// in\n    tag_344:\n        /* \"contracts/DTiket_flattened.sol\":741:751  msg.sender */\n      caller\n        /* \"contracts/DTiket_flattened.sol\":29482:29498  address operator */\n      0x00\n        /* \"contracts/DTiket_flattened.sol\":29546:29567  _asSingletonArray(id) */\n      tag_347\n        /* \"contracts/DTiket_flattened.sol\":29564:29566  id */\n      dup6\n        /* \"contracts/DTiket_flattened.sol\":29546:29563  _asSingletonArray */\n      tag_312\n        /* \"contracts/DTiket_flattened.sol\":29546:29567  _asSingletonArray(id) */\n      jump\t// in\n    tag_347:\n        /* \"contracts/DTiket_flattened.sol\":29523:29567  uint256[] memory ids = _asSingletonArray(id) */\n      swap1\n      pop\n        /* \"contracts/DTiket_flattened.sol\":29577:29601  uint256[] memory amounts */\n      0x00\n        /* \"contracts/DTiket_flattened.sol\":29604:29629  _asSingletonArray(amount) */\n      tag_348\n        /* \"contracts/DTiket_flattened.sol\":29622:29628  amount */\n      dup6\n        /* \"contracts/DTiket_flattened.sol\":29604:29621  _asSingletonArray */\n      tag_312\n        /* \"contracts/DTiket_flattened.sol\":29604:29629  _asSingletonArray(amount) */\n      jump\t// in\n    tag_348:\n        /* \"contracts/DTiket_flattened.sol\":29577:29629  uint256[] memory amounts = _asSingletonArray(amount) */\n      swap1\n      pop\n        /* \"contracts/DTiket_flattened.sol\":29640:29700  _beforeTokenTransfer(operator, from, to, ids, amounts, data) */\n      tag_349\n        /* \"contracts/DTiket_flattened.sol\":29661:29669  operator */\n      dup4\n        /* \"contracts/DTiket_flattened.sol\":29671:29675  from */\n      dup10\n        /* \"contracts/DTiket_flattened.sol\":29677:29679  to */\n      dup10\n        /* \"contracts/DTiket_flattened.sol\":29681:29684  ids */\n      dup6\n        /* \"contracts/DTiket_flattened.sol\":29686:29693  amounts */\n      dup6\n        /* \"contracts/DTiket_flattened.sol\":29695:29699  data */\n      dup10\n        /* \"contracts/DTiket_flattened.sol\":29640:29660  _beforeTokenTransfer */\n      tag_238\n        /* \"contracts/DTiket_flattened.sol\":29640:29700  _beforeTokenTransfer(operator, from, to, ids, amounts, data) */\n      jump\t// in\n    tag_349:\n        /* \"contracts/DTiket_flattened.sol\":29711:29730  uint256 fromBalance */\n      0x00\n        /* \"contracts/DTiket_flattened.sol\":29733:29746  _balances[id] */\n      dup7\n      dup2\n      mstore\n      0x20\n      dup2\n      dup2\n      mstore\n      0x40\n      dup1\n      dup4\n      keccak256\n      sub(shl(0xa0, 0x01), 0x01)\n        /* \"contracts/DTiket_flattened.sol\":29733:29752  _balances[id][from] */\n      dup13\n      and\n      dup5\n      mstore\n      swap1\n      swap2\n      mstore\n      swap1\n      keccak256\n      sload\n        /* \"contracts/DTiket_flattened.sol\":29770:29791  fromBalance >= amount */\n      dup6\n      dup2\n      lt\n      iszero\n        /* \"contracts/DTiket_flattened.sol\":29762:29838  require(fromBalance >= amount, \"ERC1155: insufficient balance for transfer\") */\n      tag_350\n      jumpi\n      mload(0x40)\n      shl(0xe5, 0x461bcd)\n      dup2\n      mstore\n      0x04\n      add\n      tag_105\n      swap1\n      tag_273\n      jump\t// in\n    tag_350:\n        /* \"contracts/DTiket_flattened.sol\":29872:29881  _balances */\n      0x00\n        /* \"contracts/DTiket_flattened.sol\":29872:29885  _balances[id] */\n      dup8\n      dup2\n      mstore\n      0x20\n      dup2\n      dup2\n      mstore\n      0x40\n      dup1\n      dup4\n      keccak256\n      sub(shl(0xa0, 0x01), 0x01)\n        /* \"contracts/DTiket_flattened.sol\":29872:29891  _balances[id][from] */\n      dup14\n      dup2\n      and\n      dup6\n      mstore\n      swap3\n      mstore\n      dup1\n      dup4\n      keccak256\n        /* \"contracts/DTiket_flattened.sol\":29894:29914  fromBalance - amount */\n      dup10\n      dup6\n      sub\n        /* \"contracts/DTiket_flattened.sol\":29872:29914  _balances[id][from] = fromBalance - amount */\n      swap1\n      sstore\n        /* \"contracts/DTiket_flattened.sol\":29934:29951  _balances[id][to] */\n      swap1\n      dup11\n      and\n      dup3\n      mstore\n      dup2\n      keccak256\n        /* \"contracts/DTiket_flattened.sol\":29934:29961  _balances[id][to] += amount */\n      dup1\n      sload\n        /* \"contracts/DTiket_flattened.sol\":29894:29914  fromBalance - amount */\n      dup9\n      swap3\n        /* \"contracts/DTiket_flattened.sol\":29872:29881  _balances */\n      swap1\n        /* \"contracts/DTiket_flattened.sol\":29934:29961  _balances[id][to] += amount */\n      tag_352\n      swap1\n        /* \"contracts/DTiket_flattened.sol\":29894:29914  fromBalance - amount */\n      dup5\n      swap1\n        /* \"contracts/DTiket_flattened.sol\":29934:29961  _balances[id][to] += amount */\n      tag_247\n      jump\t// in\n    tag_352:\n      swap1\n      swap2\n      sstore\n      pop\n      pop\n        /* \"contracts/DTiket_flattened.sol\":29977:30023  TransferSingle(operator, from, to, id, amount) */\n      0x40\n      dup1\n      mload\n        /* \"#utility.yul\":17259:17284   */\n      dup9\n      dup2\n      mstore\n        /* \"#utility.yul\":17315:17317   */\n      0x20\n        /* \"#utility.yul\":17300:17318   */\n      dup2\n      add\n        /* \"#utility.yul\":17293:17327   */\n      dup9\n      swap1\n      mstore\n      sub(shl(0xa0, 0x01), 0x01)\n        /* \"contracts/DTiket_flattened.sol\":29977:30023  TransferSingle(operator, from, to, id, amount) */\n      dup1\n      dup12\n      and\n      swap3\n      dup13\n      dup3\n      and\n      swap3\n      swap2\n      dup9\n      and\n      swap2\n      0xc3d58168c5ae7397731d063d5bbf3d657854427343f4c083240f7aacaa2d0f62\n      swap2\n        /* \"#utility.yul\":17232:17250   */\n      add\n        /* \"contracts/DTiket_flattened.sol\":29977:30023  TransferSingle(operator, from, to, id, amount) */\n      mload(0x40)\n      dup1\n      swap2\n      sub\n      swap1\n      log4\n        /* \"contracts/DTiket_flattened.sol\":30104:30172  _doSafeTransferAcceptanceCheck(operator, from, to, id, amount, data) */\n      tag_355\n        /* \"contracts/DTiket_flattened.sol\":30135:30143  operator */\n      dup5\n        /* \"contracts/DTiket_flattened.sol\":30145:30149  from */\n      dup11\n        /* \"contracts/DTiket_flattened.sol\":30151:30153  to */\n      dup11\n        /* \"contracts/DTiket_flattened.sol\":30155:30157  id */\n      dup11\n        /* \"contracts/DTiket_flattened.sol\":30159:30165  amount */\n      dup11\n        /* \"contracts/DTiket_flattened.sol\":30167:30171  data */\n      dup11\n        /* \"contracts/DTiket_flattened.sol\":30104:30134  _doSafeTransferAcceptanceCheck */\n      tag_320\n        /* \"contracts/DTiket_flattened.sol\":30104:30172  _doSafeTransferAcceptanceCheck(operator, from, to, id, amount, data) */\n      jump\t// in\n    tag_355:\n        /* \"contracts/DTiket_flattened.sol\":29395:30179  {... */\n      pop\n      pop\n      pop\n      pop\n        /* \"contracts/DTiket_flattened.sol\":29232:30179  function _safeTransferFrom(... */\n      pop\n      pop\n      pop\n      pop\n      pop\n      jump\t// out\n        /* \"contracts/DTiket_flattened.sol\":43270:43554  function _beforeTokenTransfer(address operator, address from, address to, uint256[] memory ids, uint256[] memory amounts, bytes memory data)... */\n    tag_238:\n        /* \"contracts/DTiket_flattened.sol\":4708:4727  _requireNotPaused() */\n      tag_357\n        /* \"contracts/DTiket_flattened.sol\":4708:4725  _requireNotPaused */\n      tag_323\n        /* \"contracts/DTiket_flattened.sol\":4708:4727  _requireNotPaused() */\n      jump\t// in\n    tag_357:\n        /* \"contracts/DTiket_flattened.sol\":43481:43547  super._beforeTokenTransfer(operator, from, to, ids, amounts, data) */\n      tag_278\n        /* \"contracts/DTiket_flattened.sol\":30525:31640  function _safeBatchTransferFrom(... */\n      jump\n        /* \"contracts/DTiket_flattened.sol\":40430:41222  function _doSafeBatchTransferAcceptanceCheck(... */\n    tag_254:\n      sub(shl(0xa0, 0x01), 0x01)\n        /* \"contracts/DTiket_flattened.sol\":40662:40675  to.isContract */\n      dup5\n      and\n        /* \"contracts/DTiket_flattened.sol\":7746:7765  account.code.length */\n      extcodesize\n        /* \"contracts/DTiket_flattened.sol\":7746:7769  account.code.length > 0 */\n      iszero\n        /* \"contracts/DTiket_flattened.sol\":40658:41216  if (to.isContract()) {... */\n      tag_278\n      jumpi\n        /* \"contracts/DTiket_flattened.sol\":40697:40776  IERC1155Receiver(to).onERC1155BatchReceived(operator, from, ids, amounts, data) */\n      mload(0x40)\n      shl(0xe0, 0xbc197c81)\n      dup2\n      mstore\n      sub(shl(0xa0, 0x01), 0x01)\n        /* \"contracts/DTiket_flattened.sol\":40697:40740  IERC1155Receiver(to).onERC1155BatchReceived */\n      dup6\n      and\n      swap1\n      0xbc197c81\n      swap1\n        /* \"contracts/DTiket_flattened.sol\":40697:40776  IERC1155Receiver(to).onERC1155BatchReceived(operator, from, ids, amounts, data) */\n      tag_366\n      swap1\n        /* \"contracts/DTiket_flattened.sol\":40741:40749  operator */\n      dup10\n      swap1\n        /* \"contracts/DTiket_flattened.sol\":40751:40755  from */\n      dup10\n      swap1\n        /* \"contracts/DTiket_flattened.sol\":40757:40760  ids */\n      dup9\n      swap1\n        /* \"contracts/DTiket_flattened.sol\":40762:40769  amounts */\n      dup9\n      swap1\n        /* \"contracts/DTiket_flattened.sol\":40771:40775  data */\n      dup9\n      swap1\n        /* \"contracts/DTiket_flattened.sol\":40697:40776  IERC1155Receiver(to).onERC1155BatchReceived(operator, from, ids, amounts, data) */\n      0x04\n      add\n      tag_367\n      jump\t// in\n    tag_366:\n      0x20\n      mload(0x40)\n      dup1\n      dup4\n      sub\n      dup2\n      0x00\n      dup8\n      gas\n      call\n      swap3\n      pop\n      pop\n      pop\n      dup1\n      iszero\n      tag_368\n      jumpi\n      pop\n      0x40\n      dup1\n      mload\n      0x1f\n      returndatasize\n      swap1\n      dup2\n      add\n      not(0x1f)\n      and\n      dup3\n      add\n      swap1\n      swap3\n      mstore\n      tag_369\n      swap2\n      dup2\n      add\n      swap1\n      tag_370\n      jump\t// in\n    tag_369:\n      0x01\n    tag_368:\n        /* \"contracts/DTiket_flattened.sol\":40693:41206  try IERC1155Receiver(to).onERC1155BatchReceived(operator, from, ids, amounts, data) returns (... */\n      tag_371\n      jumpi\n      tag_375\n      tag_376\n      jump\t// in\n    tag_375:\n      dup1\n      0x08c379a0\n      sub\n      tag_374\n      jumpi\n      pop\n      tag_377\n      tag_378\n      jump\t// in\n    tag_377:\n      dup1\n      tag_379\n      jumpi\n      pop\n      jump(tag_373)\n    tag_379:\n        /* \"contracts/DTiket_flattened.sol\":41082:41088  reason */\n      dup1\n        /* \"contracts/DTiket_flattened.sol\":41075:41089  revert(reason) */\n      mload(0x40)\n      shl(0xe5, 0x461bcd)\n      dup2\n      mstore\n      0x04\n      add\n      tag_105\n      swap2\n      swap1\n      tag_42\n      jump\t// in\n        /* \"contracts/DTiket_flattened.sol\":40693:41206  try IERC1155Receiver(to).onERC1155BatchReceived(operator, from, ids, amounts, data) returns (... */\n    tag_374:\n      pop\n    tag_373:\n        /* \"contracts/DTiket_flattened.sol\":41129:41191  revert(\"ERC1155: transfer to non-ERC1155Receiver implementer\") */\n      mload(0x40)\n      shl(0xe5, 0x461bcd)\n      dup2\n      mstore\n        /* \"#utility.yul\":19896:19898   */\n      0x20\n        /* \"contracts/DTiket_flattened.sol\":41129:41191  revert(\"ERC1155: transfer to non-ERC1155Receiver implementer\") */\n      0x04\n      dup3\n      add\n        /* \"#utility.yul\":19878:19899   */\n      mstore\n        /* \"#utility.yul\":19935:19937   */\n      0x34\n        /* \"#utility.yul\":19915:19933   */\n      0x24\n      dup3\n      add\n        /* \"#utility.yul\":19908:19938   */\n      mstore\n        /* \"#utility.yul\":19974:20008   */\n      0x455243313135353a207472616e7366657220746f206e6f6e2d45524331313535\n        /* \"#utility.yul\":19954:19972   */\n      0x44\n      dup3\n      add\n        /* \"#utility.yul\":19947:20009   */\n      mstore\n      shl(0x61, 0x2932b1b2b4bb32b91034b6b83632b6b2b73a32b9)\n        /* \"#utility.yul\":20025:20043   */\n      0x64\n      dup3\n      add\n        /* \"#utility.yul\":20018:20068   */\n      mstore\n        /* \"#utility.yul\":20085:20104   */\n      0x84\n      add\n        /* \"contracts/DTiket_flattened.sol\":41129:41191  revert(\"ERC1155: transfer to non-ERC1155Receiver implementer\") */\n      tag_105\n        /* \"#utility.yul\":19694:20110   */\n      jump\n        /* \"contracts/DTiket_flattened.sol\":40693:41206  try IERC1155Receiver(to).onERC1155BatchReceived(operator, from, ids, amounts, data) returns (... */\n    tag_371:\n      not(sub(shl(0xe0, 0x01), 0x01))\n        /* \"contracts/DTiket_flattened.sol\":40855:40915  response != IERC1155Receiver.onERC1155BatchReceived.selector */\n      dup2\n      and\n      shl(0xe0, 0xbc197c81)\n      eq\n        /* \"contracts/DTiket_flattened.sol\":40851:41008  if (response != IERC1155Receiver.onERC1155BatchReceived.selector) {... */\n      tag_319\n      jumpi\n        /* \"contracts/DTiket_flattened.sol\":40939:40989  revert(\"ERC1155: ERC1155Receiver rejected tokens\") */\n      mload(0x40)\n      shl(0xe5, 0x461bcd)\n      dup2\n      mstore\n      0x04\n      add\n      tag_105\n      swap1\n      tag_386\n      jump\t// in\n        /* \"contracts/DTiket_flattened.sol\":5414:5520  function _requirePaused() internal view virtual {... */\n    tag_281:\n        /* \"contracts/DTiket_flattened.sol\":5154:5161  _paused */\n      and(0xff, sload(0x03))\n        /* \"contracts/DTiket_flattened.sol\":5472:5513  require(paused(), \"Pausable: not paused\") */\n      tag_139\n      jumpi\n      mload(0x40)\n      shl(0xe5, 0x461bcd)\n      dup2\n      mstore\n        /* \"#utility.yul\":20726:20728   */\n      0x20\n        /* \"contracts/DTiket_flattened.sol\":5472:5513  require(paused(), \"Pausable: not paused\") */\n      0x04\n      dup3\n      add\n        /* \"#utility.yul\":20708:20729   */\n      mstore\n        /* \"#utility.yul\":20765:20767   */\n      0x14\n        /* \"#utility.yul\":20745:20763   */\n      0x24\n      dup3\n      add\n        /* \"#utility.yul\":20738:20768   */\n      mstore\n      shl(0x62, 0x14185d5cd8589b194e881b9bdd081c185d5cd959)\n        /* \"#utility.yul\":20784:20802   */\n      0x44\n      dup3\n      add\n        /* \"#utility.yul\":20777:20827   */\n      mstore\n        /* \"#utility.yul\":20844:20862   */\n      0x64\n      add\n        /* \"contracts/DTiket_flattened.sol\":5472:5513  require(paused(), \"Pausable: not paused\") */\n      tag_105\n        /* \"#utility.yul\":20524:20868   */\n      jump\n        /* \"contracts/DTiket_flattened.sol\":41228:41421  function _asSingletonArray(uint256 element) private pure returns (uint256[] memory) {... */\n    tag_312:\n        /* \"contracts/DTiket_flattened.sol\":41347:41363  new uint256[](1) */\n      0x40\n      dup1\n      mload\n        /* \"contracts/DTiket_flattened.sol\":41361:41362  1 */\n      0x01\n        /* \"contracts/DTiket_flattened.sol\":41347:41363  new uint256[](1) */\n      dup1\n      dup3\n      mstore\n      dup2\n      dup4\n      add\n      swap1\n      swap3\n      mstore\n        /* \"contracts/DTiket_flattened.sol\":41294:41310  uint256[] memory */\n      0x60\n      swap2\n        /* \"contracts/DTiket_flattened.sol\":41322:41344  uint256[] memory array */\n      0x00\n      swap2\n        /* \"contracts/DTiket_flattened.sol\":41347:41363  new uint256[](1) */\n      swap1\n      0x20\n      dup1\n      dup4\n      add\n      swap1\n      dup1\n      calldatasize\n      dup4\n      calldatacopy\n      add\n      swap1\n      pop\n      pop\n        /* \"contracts/DTiket_flattened.sol\":41322:41363  uint256[] memory array = new uint256[](1) */\n      swap1\n      pop\n        /* \"contracts/DTiket_flattened.sol\":41384:41391  element */\n      dup3\n        /* \"contracts/DTiket_flattened.sol\":41373:41378  array */\n      dup2\n        /* \"contracts/DTiket_flattened.sol\":41379:41380  0 */\n      0x00\n        /* \"contracts/DTiket_flattened.sol\":41373:41381  array[0] */\n      dup2\n      mload\n      dup2\n      lt\n      tag_397\n      jumpi\n      tag_397\n      tag_155\n      jump\t// in\n    tag_397:\n      0x20\n      swap1\n      dup2\n      mul\n      swap2\n      swap1\n      swap2\n      add\n      add\n        /* \"contracts/DTiket_flattened.sol\":41373:41391  array[0] = element */\n      mstore\n        /* \"contracts/DTiket_flattened.sol\":41409:41414  array */\n      swap3\n        /* \"contracts/DTiket_flattened.sol\":41228:41421  function _asSingletonArray(uint256 element) private pure returns (uint256[] memory) {... */\n      swap2\n      pop\n      pop\n      jump\t// out\n        /* \"contracts/DTiket_flattened.sol\":39699:40424  function _doSafeTransferAcceptanceCheck(... */\n    tag_320:\n      sub(shl(0xa0, 0x01), 0x01)\n        /* \"contracts/DTiket_flattened.sol\":39906:39919  to.isContract */\n      dup5\n      and\n        /* \"contracts/DTiket_flattened.sol\":7746:7765  account.code.length */\n      extcodesize\n        /* \"contracts/DTiket_flattened.sol\":7746:7769  account.code.length > 0 */\n      iszero\n        /* \"contracts/DTiket_flattened.sol\":39902:40418  if (to.isContract()) {... */\n      tag_278\n      jumpi\n        /* \"contracts/DTiket_flattened.sol\":39941:40013  IERC1155Receiver(to).onERC1155Received(operator, from, id, amount, data) */\n      mload(0x40)\n      shl(0xe0, 0xf23a6e61)\n      dup2\n      mstore\n      sub(shl(0xa0, 0x01), 0x01)\n        /* \"contracts/DTiket_flattened.sol\":39941:39979  IERC1155Receiver(to).onERC1155Received */\n      dup6\n      and\n      swap1\n      0xf23a6e61\n      swap1\n        /* \"contracts/DTiket_flattened.sol\":39941:40013  IERC1155Receiver(to).onERC1155Received(operator, from, id, amount, data) */\n      tag_401\n      swap1\n        /* \"contracts/DTiket_flattened.sol\":39980:39988  operator */\n      dup10\n      swap1\n        /* \"contracts/DTiket_flattened.sol\":39990:39994  from */\n      dup10\n      swap1\n        /* \"contracts/DTiket_flattened.sol\":39996:39998  id */\n      dup9\n      swap1\n        /* \"contracts/DTiket_flattened.sol\":40000:40006  amount */\n      dup9\n      swap1\n        /* \"contracts/DTiket_flattened.sol\":40008:40012  data */\n      dup9\n      swap1\n        /* \"contracts/DTiket_flattened.sol\":39941:40013  IERC1155Receiver(to).onERC1155Received(operator, from, id, amount, data) */\n      0x04\n      add\n      tag_402\n      jump\t// in\n    tag_401:\n      0x20\n      mload(0x40)\n      dup1\n      dup4\n      sub\n      dup2\n      0x00\n      dup8\n      gas\n      call\n      swap3\n      pop\n      pop\n      pop\n      dup1\n      iszero\n      tag_403\n      jumpi\n      pop\n      0x40\n      dup1\n      mload\n      0x1f\n      returndatasize\n      swap1\n      dup2\n      add\n      not(0x1f)\n      and\n      dup3\n      add\n      swap1\n      swap3\n      mstore\n      tag_404\n      swap2\n      dup2\n      add\n      swap1\n      tag_370\n      jump\t// in\n    tag_404:\n      0x01\n    tag_403:\n        /* \"contracts/DTiket_flattened.sol\":39937:40408  try IERC1155Receiver(to).onERC1155Received(operator, from, id, amount, data) returns (bytes4 response) {... */\n      tag_405\n      jumpi\n      tag_375\n      tag_376\n      jump\t// in\n    tag_405:\n      not(sub(shl(0xe0, 0x01), 0x01))\n        /* \"contracts/DTiket_flattened.sol\":40062:40117  response != IERC1155Receiver.onERC1155Received.selector */\n      dup2\n      and\n      shl(0xe0, 0xf23a6e61)\n      eq\n        /* \"contracts/DTiket_flattened.sol\":40058:40210  if (response != IERC1155Receiver.onERC1155Received.selector) {... */\n      tag_319\n      jumpi\n        /* \"contracts/DTiket_flattened.sol\":40141:40191  revert(\"ERC1155: ERC1155Receiver rejected tokens\") */\n      mload(0x40)\n      shl(0xe5, 0x461bcd)\n      dup2\n      mstore\n      0x04\n      add\n      tag_105\n      swap1\n      tag_386\n      jump\t// in\n        /* \"contracts/DTiket_flattened.sol\":5236:5342  function _requireNotPaused() internal view virtual {... */\n    tag_323:\n        /* \"contracts/DTiket_flattened.sol\":5154:5161  _paused */\n      and(0xff, sload(0x03))\n        /* \"contracts/DTiket_flattened.sol\":5305:5314  !paused() */\n      iszero\n        /* \"contracts/DTiket_flattened.sol\":5297:5335  require(!paused(), \"Pausable: paused\") */\n      tag_139\n      jumpi\n      mload(0x40)\n      shl(0xe5, 0x461bcd)\n      dup2\n      mstore\n        /* \"#utility.yul\":21641:21643   */\n      0x20\n        /* \"contracts/DTiket_flattened.sol\":5297:5335  require(!paused(), \"Pausable: paused\") */\n      0x04\n      dup3\n      add\n        /* \"#utility.yul\":21623:21644   */\n      mstore\n        /* \"#utility.yul\":21680:21682   */\n      0x10\n        /* \"#utility.yul\":21660:21678   */\n      0x24\n      dup3\n      add\n        /* \"#utility.yul\":21653:21683   */\n      mstore\n      shl(0x82, 0x14185d5cd8589b194e881c185d5cd959)\n        /* \"#utility.yul\":21699:21717   */\n      0x44\n      dup3\n      add\n        /* \"#utility.yul\":21692:21738   */\n      mstore\n        /* \"#utility.yul\":21755:21773   */\n      0x64\n      add\n        /* \"contracts/DTiket_flattened.sol\":5297:5335  require(!paused(), \"Pausable: paused\") */\n      tag_105\n        /* \"#utility.yul\":21439:21779   */\n      jump\n        /* \"#utility.yul\":14:187   */\n    tag_424:\n        /* \"#utility.yul\":82:102   */\n      dup1\n      calldataload\n      sub(shl(0xa0, 0x01), 0x01)\n        /* \"#utility.yul\":131:162   */\n      dup2\n      and\n        /* \"#utility.yul\":121:163   */\n      dup2\n      eq\n        /* \"#utility.yul\":111:181   */\n      tag_435\n      jumpi\n        /* \"#utility.yul\":177:178   */\n      0x00\n        /* \"#utility.yul\":174:175   */\n      dup1\n        /* \"#utility.yul\":167:179   */\n      revert\n        /* \"#utility.yul\":111:181   */\n    tag_435:\n        /* \"#utility.yul\":14:187   */\n      swap2\n      swap1\n      pop\n      jump\t// out\n        /* \"#utility.yul\":192:446   */\n    tag_27:\n        /* \"#utility.yul\":260:266   */\n      0x00\n        /* \"#utility.yul\":268:274   */\n      dup1\n        /* \"#utility.yul\":321:323   */\n      0x40\n        /* \"#utility.yul\":309:318   */\n      dup4\n        /* \"#utility.yul\":300:307   */\n      dup6\n        /* \"#utility.yul\":296:319   */\n      sub\n        /* \"#utility.yul\":292:324   */\n      slt\n        /* \"#utility.yul\":289:341   */\n      iszero\n      tag_437\n      jumpi\n        /* \"#utility.yul\":337:338   */\n      0x00\n        /* \"#utility.yul\":334:335   */\n      dup1\n        /* \"#utility.yul\":327:339   */\n      revert\n        /* \"#utility.yul\":289:341   */\n    tag_437:\n        /* \"#utility.yul\":360:389   */\n      tag_438\n        /* \"#utility.yul\":379:388   */\n      dup4\n        /* \"#utility.yul\":360:389   */\n      tag_424\n      jump\t// in\n    tag_438:\n        /* \"#utility.yul\":350:389   */\n      swap5\n        /* \"#utility.yul\":436:438   */\n      0x20\n        /* \"#utility.yul\":421:439   */\n      swap4\n      swap1\n      swap4\n      add\n        /* \"#utility.yul\":408:440   */\n      calldataload\n      swap4\n      pop\n      pop\n      pop\n        /* \"#utility.yul\":192:446   */\n      jump\t// out\n        /* \"#utility.yul\":633:764   */\n    tag_425:\n      not(sub(shl(0xe0, 0x01), 0x01))\n        /* \"#utility.yul\":707:739   */\n      dup2\n      and\n        /* \"#utility.yul\":697:740   */\n      dup2\n      eq\n        /* \"#utility.yul\":687:758   */\n      tag_213\n      jumpi\n        /* \"#utility.yul\":754:755   */\n      0x00\n        /* \"#utility.yul\":751:752   */\n      dup1\n        /* \"#utility.yul\":744:756   */\n      revert\n        /* \"#utility.yul\":769:1014   */\n    tag_33:\n        /* \"#utility.yul\":827:833   */\n      0x00\n        /* \"#utility.yul\":880:882   */\n      0x20\n        /* \"#utility.yul\":868:877   */\n      dup3\n        /* \"#utility.yul\":859:866   */\n      dup5\n        /* \"#utility.yul\":855:878   */\n      sub\n        /* \"#utility.yul\":851:883   */\n      slt\n        /* \"#utility.yul\":848:900   */\n      iszero\n      tag_443\n      jumpi\n        /* \"#utility.yul\":896:897   */\n      0x00\n        /* \"#utility.yul\":893:894   */\n      dup1\n        /* \"#utility.yul\":886:898   */\n      revert\n        /* \"#utility.yul\":848:900   */\n    tag_443:\n        /* \"#utility.yul\":935:944   */\n      dup2\n        /* \"#utility.yul\":922:945   */\n      calldataload\n        /* \"#utility.yul\":954:984   */\n      tag_444\n        /* \"#utility.yul\":978:983   */\n      dup2\n        /* \"#utility.yul\":954:984   */\n      tag_425\n      jump\t// in\n    tag_444:\n        /* \"#utility.yul\":1003:1008   */\n      swap4\n        /* \"#utility.yul\":769:1014   */\n      swap3\n      pop\n      pop\n      pop\n      jump\t// out\n        /* \"#utility.yul\":1211:1391   */\n    tag_39:\n        /* \"#utility.yul\":1270:1276   */\n      0x00\n        /* \"#utility.yul\":1323:1325   */\n      0x20\n        /* \"#utility.yul\":1311:1320   */\n      dup3\n        /* \"#utility.yul\":1302:1309   */\n      dup5\n        /* \"#utility.yul\":1298:1321   */\n      sub\n        /* \"#utility.yul\":1294:1326   */\n      slt\n        /* \"#utility.yul\":1291:1343   */\n      iszero\n      tag_447\n      jumpi\n        /* \"#utility.yul\":1339:1340   */\n      0x00\n        /* \"#utility.yul\":1336:1337   */\n      dup1\n        /* \"#utility.yul\":1329:1341   */\n      revert\n        /* \"#utility.yul\":1291:1343   */\n    tag_447:\n      pop\n        /* \"#utility.yul\":1362:1385   */\n      calldataload\n      swap2\n        /* \"#utility.yul\":1211:1391   */\n      swap1\n      pop\n      jump\t// out\n        /* \"#utility.yul\":1396:1819   */\n    tag_426:\n        /* \"#utility.yul\":1438:1441   */\n      0x00\n        /* \"#utility.yul\":1476:1481   */\n      dup2\n        /* \"#utility.yul\":1470:1482   */\n      mload\n        /* \"#utility.yul\":1503:1509   */\n      dup1\n        /* \"#utility.yul\":1498:1501   */\n      dup5\n        /* \"#utility.yul\":1491:1510   */\n      mstore\n        /* \"#utility.yul\":1528:1529   */\n      0x00\n        /* \"#utility.yul\":1538:1700   */\n    tag_449:\n        /* \"#utility.yul\":1552:1558   */\n      dup2\n        /* \"#utility.yul\":1549:1550   */\n      dup2\n        /* \"#utility.yul\":1546:1559   */\n      lt\n        /* \"#utility.yul\":1538:1700   */\n      iszero\n      tag_451\n      jumpi\n        /* \"#utility.yul\":1614:1618   */\n      0x20\n        /* \"#utility.yul\":1670:1683   */\n      dup2\n      dup6\n      add\n        /* \"#utility.yul\":1666:1688   */\n      dup2\n      add\n        /* \"#utility.yul\":1660:1689   */\n      mload\n        /* \"#utility.yul\":1642:1653   */\n      dup7\n      dup4\n      add\n        /* \"#utility.yul\":1638:1658   */\n      dup3\n      add\n        /* \"#utility.yul\":1631:1690   */\n      mstore\n        /* \"#utility.yul\":1567:1579   */\n      add\n        /* \"#utility.yul\":1538:1700   */\n      jump(tag_449)\n    tag_451:\n        /* \"#utility.yul\":1542:1545   */\n      pop\n        /* \"#utility.yul\":1745:1746   */\n      0x00\n        /* \"#utility.yul\":1738:1742   */\n      0x20\n        /* \"#utility.yul\":1729:1735   */\n      dup3\n        /* \"#utility.yul\":1724:1727   */\n      dup7\n        /* \"#utility.yul\":1720:1736   */\n      add\n        /* \"#utility.yul\":1716:1743   */\n      add\n        /* \"#utility.yul\":1709:1747   */\n      mstore\n        /* \"#utility.yul\":1808:1812   */\n      0x20\n        /* \"#utility.yul\":1801:1803   */\n      0x1f\n        /* \"#utility.yul\":1797:1804   */\n      not\n        /* \"#utility.yul\":1792:1794   */\n      0x1f\n        /* \"#utility.yul\":1784:1790   */\n      dup4\n        /* \"#utility.yul\":1780:1795   */\n      add\n        /* \"#utility.yul\":1776:1805   */\n      and\n        /* \"#utility.yul\":1771:1774   */\n      dup6\n        /* \"#utility.yul\":1767:1806   */\n      add\n        /* \"#utility.yul\":1763:1813   */\n      add\n        /* \"#utility.yul\":1756:1813   */\n      swap2\n      pop\n      pop\n        /* \"#utility.yul\":1396:1819   */\n      swap3\n      swap2\n      pop\n      pop\n      jump\t// out\n        /* \"#utility.yul\":1824:2044   */\n    tag_42:\n        /* \"#utility.yul\":1973:1975   */\n      0x20\n        /* \"#utility.yul\":1962:1971   */\n      dup2\n        /* \"#utility.yul\":1955:1976   */\n      mstore\n        /* \"#utility.yul\":1936:1940   */\n      0x00\n        /* \"#utility.yul\":1993:2038   */\n      tag_444\n        /* \"#utility.yul\":2034:2036   */\n      0x20\n        /* \"#utility.yul\":2023:2032   */\n      dup4\n        /* \"#utility.yul\":2019:2037   */\n      add\n        /* \"#utility.yul\":2011:2017   */\n      dup5\n        /* \"#utility.yul\":1993:2038   */\n      tag_426\n      jump\t// in\n        /* \"#utility.yul\":2049:2176   */\n    tag_147:\n        /* \"#utility.yul\":2110:2120   */\n      0x4e487b71\n        /* \"#utility.yul\":2105:2108   */\n      0xe0\n        /* \"#utility.yul\":2101:2121   */\n      shl\n        /* \"#utility.yul\":2098:2099   */\n      0x00\n        /* \"#utility.yul\":2091:2122   */\n      mstore\n        /* \"#utility.yul\":2141:2145   */\n      0x41\n        /* \"#utility.yul\":2138:2139   */\n      0x04\n        /* \"#utility.yul\":2131:2146   */\n      mstore\n        /* \"#utility.yul\":2165:2169   */\n      0x24\n        /* \"#utility.yul\":2162:2163   */\n      0x00\n        /* \"#utility.yul\":2155:2170   */\n      revert\n        /* \"#utility.yul\":2181:2430   */\n    tag_427:\n        /* \"#utility.yul\":2291:2293   */\n      0x1f\n        /* \"#utility.yul\":2272:2285   */\n      dup3\n      add\n      not(0x1f)\n        /* \"#utility.yul\":2268:2295   */\n      and\n        /* \"#utility.yul\":2256:2296   */\n      dup2\n      add\n        /* \"#utility.yul\":2326:2344   */\n      0xffffffffffffffff\n        /* \"#utility.yul\":2311:2345   */\n      dup2\n      gt\n        /* \"#utility.yul\":2347:2369   */\n      dup3\n      dup3\n      lt\n        /* \"#utility.yul\":2308:2370   */\n      or\n        /* \"#utility.yul\":2305:2393   */\n      iszero\n      tag_457\n      jumpi\n        /* \"#utility.yul\":2373:2391   */\n      tag_457\n      tag_147\n      jump\t// in\n    tag_457:\n        /* \"#utility.yul\":2409:2411   */\n      0x40\n        /* \"#utility.yul\":2402:2424   */\n      mstore\n      pop\n      pop\n        /* \"#utility.yul\":2181:2430   */\n      jump\t// out\n        /* \"#utility.yul\":2435:2618   */\n    tag_428:\n        /* \"#utility.yul\":2495:2499   */\n      0x00\n        /* \"#utility.yul\":2528:2546   */\n      0xffffffffffffffff\n        /* \"#utility.yul\":2520:2526   */\n      dup3\n        /* \"#utility.yul\":2517:2547   */\n      gt\n        /* \"#utility.yul\":2514:2570   */\n      iszero\n      tag_460\n      jumpi\n        /* \"#utility.yul\":2550:2568   */\n      tag_460\n      tag_147\n      jump\t// in\n    tag_460:\n      pop\n        /* \"#utility.yul\":2595:2596   */\n      0x05\n        /* \"#utility.yul\":2591:2605   */\n      shl\n        /* \"#utility.yul\":2607:2611   */\n      0x20\n        /* \"#utility.yul\":2587:2612   */\n      add\n      swap1\n        /* \"#utility.yul\":2435:2618   */\n      jump\t// out\n        /* \"#utility.yul\":2623:3347   */\n    tag_429:\n        /* \"#utility.yul\":2677:2682   */\n      0x00\n        /* \"#utility.yul\":2730:2733   */\n      dup3\n        /* \"#utility.yul\":2723:2727   */\n      0x1f\n        /* \"#utility.yul\":2715:2721   */\n      dup4\n        /* \"#utility.yul\":2711:2728   */\n      add\n        /* \"#utility.yul\":2707:2734   */\n      slt\n        /* \"#utility.yul\":2697:2752   */\n      tag_462\n      jumpi\n        /* \"#utility.yul\":2748:2749   */\n      0x00\n        /* \"#utility.yul\":2745:2746   */\n      dup1\n        /* \"#utility.yul\":2738:2750   */\n      revert\n        /* \"#utility.yul\":2697:2752   */\n    tag_462:\n        /* \"#utility.yul\":2784:2790   */\n      dup2\n        /* \"#utility.yul\":2771:2791   */\n      calldataload\n        /* \"#utility.yul\":2810:2814   */\n      0x20\n        /* \"#utility.yul\":2833:2876   */\n      tag_463\n        /* \"#utility.yul\":2873:2875   */\n      dup3\n        /* \"#utility.yul\":2833:2876   */\n      tag_428\n      jump\t// in\n    tag_463:\n        /* \"#utility.yul\":2905:2907   */\n      0x40\n        /* \"#utility.yul\":2899:2908   */\n      mload\n        /* \"#utility.yul\":2917:2948   */\n      tag_464\n        /* \"#utility.yul\":2945:2947   */\n      dup3\n        /* \"#utility.yul\":2937:2943   */\n      dup3\n        /* \"#utility.yul\":2917:2948   */\n      tag_427\n      jump\t// in\n    tag_464:\n        /* \"#utility.yul\":2983:3001   */\n      dup4\n      dup2\n      mstore\n        /* \"#utility.yul\":3075:3076   */\n      0x05\n        /* \"#utility.yul\":3071:3081   */\n      swap4\n      swap1\n      swap4\n      shl\n        /* \"#utility.yul\":3059:3082   */\n      dup6\n      add\n        /* \"#utility.yul\":3055:3087   */\n      dup3\n      add\n      swap3\n        /* \"#utility.yul\":3017:3032   */\n      dup3\n      dup2\n      add\n      swap2\n      pop\n        /* \"#utility.yul\":3099:3114   */\n      dup7\n      dup5\n      gt\n        /* \"#utility.yul\":3096:3131   */\n      iszero\n      tag_465\n      jumpi\n        /* \"#utility.yul\":3127:3128   */\n      0x00\n        /* \"#utility.yul\":3124:3125   */\n      dup1\n        /* \"#utility.yul\":3117:3129   */\n      revert\n        /* \"#utility.yul\":3096:3131   */\n    tag_465:\n        /* \"#utility.yul\":3163:3165   */\n      dup3\n        /* \"#utility.yul\":3155:3161   */\n      dup7\n        /* \"#utility.yul\":3151:3166   */\n      add\n        /* \"#utility.yul\":3175:3317   */\n    tag_466:\n        /* \"#utility.yul\":3191:3197   */\n      dup5\n        /* \"#utility.yul\":3186:3189   */\n      dup2\n        /* \"#utility.yul\":3183:3198   */\n      lt\n        /* \"#utility.yul\":3175:3317   */\n      iszero\n      tag_468\n      jumpi\n        /* \"#utility.yul\":3257:3274   */\n      dup1\n      calldataload\n        /* \"#utility.yul\":3245:3275   */\n      dup4\n      mstore\n        /* \"#utility.yul\":3295:3307   */\n      swap2\n      dup4\n      add\n      swap2\n        /* \"#utility.yul\":3208:3220   */\n      dup4\n      add\n        /* \"#utility.yul\":3175:3317   */\n      jump(tag_466)\n    tag_468:\n      pop\n        /* \"#utility.yul\":3335:3341   */\n      swap7\n        /* \"#utility.yul\":2623:3347   */\n      swap6\n      pop\n      pop\n      pop\n      pop\n      pop\n      pop\n      jump\t// out\n        /* \"#utility.yul\":3352:3907   */\n    tag_430:\n        /* \"#utility.yul\":3394:3399   */\n      0x00\n        /* \"#utility.yul\":3447:3450   */\n      dup3\n        /* \"#utility.yul\":3440:3444   */\n      0x1f\n        /* \"#utility.yul\":3432:3438   */\n      dup4\n        /* \"#utility.yul\":3428:3445   */\n      add\n        /* \"#utility.yul\":3424:3451   */\n      slt\n        /* \"#utility.yul\":3414:3469   */\n      tag_470\n      jumpi\n        /* \"#utility.yul\":3465:3466   */\n      0x00\n        /* \"#utility.yul\":3462:3463   */\n      dup1\n        /* \"#utility.yul\":3455:3467   */\n      revert\n        /* \"#utility.yul\":3414:3469   */\n    tag_470:\n        /* \"#utility.yul\":3501:3507   */\n      dup2\n        /* \"#utility.yul\":3488:3508   */\n      calldataload\n        /* \"#utility.yul\":3527:3545   */\n      0xffffffffffffffff\n        /* \"#utility.yul\":3523:3525   */\n      dup2\n        /* \"#utility.yul\":3520:3546   */\n      gt\n        /* \"#utility.yul\":3517:3569   */\n      iszero\n      tag_472\n      jumpi\n        /* \"#utility.yul\":3549:3567   */\n      tag_472\n      tag_147\n      jump\t// in\n    tag_472:\n        /* \"#utility.yul\":3598:3600   */\n      0x40\n        /* \"#utility.yul\":3592:3601   */\n      mload\n        /* \"#utility.yul\":3610:3677   */\n      tag_473\n        /* \"#utility.yul\":3665:3667   */\n      0x1f\n        /* \"#utility.yul\":3646:3659   */\n      dup4\n      add\n      not(0x1f)\n        /* \"#utility.yul\":3642:3669   */\n      and\n        /* \"#utility.yul\":3671:3675   */\n      0x20\n        /* \"#utility.yul\":3638:3676   */\n      add\n        /* \"#utility.yul\":3592:3601   */\n      dup3\n        /* \"#utility.yul\":3610:3677   */\n      tag_427\n      jump\t// in\n    tag_473:\n        /* \"#utility.yul\":3701:3703   */\n      dup2\n        /* \"#utility.yul\":3693:3699   */\n      dup2\n        /* \"#utility.yul\":3686:3704   */\n      mstore\n        /* \"#utility.yul\":3747:3750   */\n      dup5\n        /* \"#utility.yul\":3740:3744   */\n      0x20\n        /* \"#utility.yul\":3735:3737   */\n      dup4\n        /* \"#utility.yul\":3727:3733   */\n      dup7\n        /* \"#utility.yul\":3723:3738   */\n      add\n        /* \"#utility.yul\":3719:3745   */\n      add\n        /* \"#utility.yul\":3716:3751   */\n      gt\n        /* \"#utility.yul\":3713:3768   */\n      iszero\n      tag_474\n      jumpi\n        /* \"#utility.yul\":3764:3765   */\n      0x00\n        /* \"#utility.yul\":3761:3762   */\n      dup1\n        /* \"#utility.yul\":3754:3766   */\n      revert\n        /* \"#utility.yul\":3713:3768   */\n    tag_474:\n        /* \"#utility.yul\":3828:3830   */\n      dup2\n        /* \"#utility.yul\":3821:3825   */\n      0x20\n        /* \"#utility.yul\":3813:3819   */\n      dup6\n        /* \"#utility.yul\":3809:3826   */\n      add\n        /* \"#utility.yul\":3802:3806   */\n      0x20\n        /* \"#utility.yul\":3794:3800   */\n      dup4\n        /* \"#utility.yul\":3790:3807   */\n      add\n        /* \"#utility.yul\":3777:3831   */\n      calldatacopy\n        /* \"#utility.yul\":3875:3876   */\n      0x00\n        /* \"#utility.yul\":3851:3866   */\n      swap2\n      dup2\n      add\n        /* \"#utility.yul\":3868:3872   */\n      0x20\n        /* \"#utility.yul\":3847:3873   */\n      add\n        /* \"#utility.yul\":3840:3877   */\n      swap2\n      swap1\n      swap2\n      mstore\n        /* \"#utility.yul\":3855:3861   */\n      swap4\n        /* \"#utility.yul\":3352:3907   */\n      swap3\n      pop\n      pop\n      pop\n      jump\t// out\n        /* \"#utility.yul\":3912:4780   */\n    tag_45:\n        /* \"#utility.yul\":4057:4063   */\n      0x00\n        /* \"#utility.yul\":4065:4071   */\n      dup1\n        /* \"#utility.yul\":4073:4079   */\n      0x00\n        /* \"#utility.yul\":4081:4087   */\n      dup1\n        /* \"#utility.yul\":4134:4137   */\n      0x80\n        /* \"#utility.yul\":4122:4131   */\n      dup6\n        /* \"#utility.yul\":4113:4120   */\n      dup8\n        /* \"#utility.yul\":4109:4132   */\n      sub\n        /* \"#utility.yul\":4105:4138   */\n      slt\n        /* \"#utility.yul\":4102:4155   */\n      iszero\n      tag_476\n      jumpi\n        /* \"#utility.yul\":4151:4152   */\n      0x00\n        /* \"#utility.yul\":4148:4149   */\n      dup1\n        /* \"#utility.yul\":4141:4153   */\n      revert\n        /* \"#utility.yul\":4102:4155   */\n    tag_476:\n        /* \"#utility.yul\":4174:4203   */\n      tag_477\n        /* \"#utility.yul\":4193:4202   */\n      dup6\n        /* \"#utility.yul\":4174:4203   */\n      tag_424\n      jump\t// in\n    tag_477:\n        /* \"#utility.yul\":4164:4203   */\n      swap4\n      pop\n        /* \"#utility.yul\":4254:4256   */\n      0x20\n        /* \"#utility.yul\":4243:4252   */\n      dup6\n        /* \"#utility.yul\":4239:4257   */\n      add\n        /* \"#utility.yul\":4226:4258   */\n      calldataload\n        /* \"#utility.yul\":4277:4295   */\n      0xffffffffffffffff\n        /* \"#utility.yul\":4318:4320   */\n      dup1\n        /* \"#utility.yul\":4310:4316   */\n      dup3\n        /* \"#utility.yul\":4307:4321   */\n      gt\n        /* \"#utility.yul\":4304:4338   */\n      iszero\n      tag_478\n      jumpi\n        /* \"#utility.yul\":4334:4335   */\n      0x00\n        /* \"#utility.yul\":4331:4332   */\n      dup1\n        /* \"#utility.yul\":4324:4336   */\n      revert\n        /* \"#utility.yul\":4304:4338   */\n    tag_478:\n        /* \"#utility.yul\":4357:4418   */\n      tag_479\n        /* \"#utility.yul\":4410:4417   */\n      dup9\n        /* \"#utility.yul\":4401:4407   */\n      dup4\n        /* \"#utility.yul\":4390:4399   */\n      dup10\n        /* \"#utility.yul\":4386:4408   */\n      add\n        /* \"#utility.yul\":4357:4418   */\n      tag_429\n      jump\t// in\n    tag_479:\n        /* \"#utility.yul\":4347:4418   */\n      swap5\n      pop\n        /* \"#utility.yul\":4471:4473   */\n      0x40\n        /* \"#utility.yul\":4460:4469   */\n      dup8\n        /* \"#utility.yul\":4456:4474   */\n      add\n        /* \"#utility.yul\":4443:4475   */\n      calldataload\n        /* \"#utility.yul\":4427:4475   */\n      swap2\n      pop\n        /* \"#utility.yul\":4500:4502   */\n      dup1\n        /* \"#utility.yul\":4490:4498   */\n      dup3\n        /* \"#utility.yul\":4487:4503   */\n      gt\n        /* \"#utility.yul\":4484:4520   */\n      iszero\n      tag_480\n      jumpi\n        /* \"#utility.yul\":4516:4517   */\n      0x00\n        /* \"#utility.yul\":4513:4514   */\n      dup1\n        /* \"#utility.yul\":4506:4518   */\n      revert\n        /* \"#utility.yul\":4484:4520   */\n    tag_480:\n        /* \"#utility.yul\":4539:4602   */\n      tag_481\n        /* \"#utility.yul\":4594:4601   */\n      dup9\n        /* \"#utility.yul\":4583:4591   */\n      dup4\n        /* \"#utility.yul\":4572:4581   */\n      dup10\n        /* \"#utility.yul\":4568:4592   */\n      add\n        /* \"#utility.yul\":4539:4602   */\n      tag_429\n      jump\t// in\n    tag_481:\n        /* \"#utility.yul\":4529:4602   */\n      swap4\n      pop\n        /* \"#utility.yul\":4655:4657   */\n      0x60\n        /* \"#utility.yul\":4644:4653   */\n      dup8\n        /* \"#utility.yul\":4640:4658   */\n      add\n        /* \"#utility.yul\":4627:4659   */\n      calldataload\n        /* \"#utility.yul\":4611:4659   */\n      swap2\n      pop\n        /* \"#utility.yul\":4684:4686   */\n      dup1\n        /* \"#utility.yul\":4674:4682   */\n      dup3\n        /* \"#utility.yul\":4671:4687   */\n      gt\n        /* \"#utility.yul\":4668:4704   */\n      iszero\n      tag_482\n      jumpi\n        /* \"#utility.yul\":4700:4701   */\n      0x00\n        /* \"#utility.yul\":4697:4698   */\n      dup1\n        /* \"#utility.yul\":4690:4702   */\n      revert\n        /* \"#utility.yul\":4668:4704   */\n    tag_482:\n      pop\n        /* \"#utility.yul\":4723:4774   */\n      tag_483\n        /* \"#utility.yul\":4766:4773   */\n      dup8\n        /* \"#utility.yul\":4755:4763   */\n      dup3\n        /* \"#utility.yul\":4744:4753   */\n      dup9\n        /* \"#utility.yul\":4740:4764   */\n      add\n        /* \"#utility.yul\":4723:4774   */\n      tag_430\n      jump\t// in\n    tag_483:\n        /* \"#utility.yul\":4713:4774   */\n      swap2\n      pop\n      pop\n        /* \"#utility.yul\":3912:4780   */\n      swap3\n      swap6\n      swap2\n      swap5\n      pop\n      swap3\n      pop\n      jump\t// out\n        /* \"#utility.yul\":4785:5728   */\n    tag_49:\n        /* \"#utility.yul\":4939:4945   */\n      0x00\n        /* \"#utility.yul\":4947:4953   */\n      dup1\n        /* \"#utility.yul\":4955:4961   */\n      0x00\n        /* \"#utility.yul\":4963:4969   */\n      dup1\n        /* \"#utility.yul\":4971:4977   */\n      0x00\n        /* \"#utility.yul\":5024:5027   */\n      0xa0\n        /* \"#utility.yul\":5012:5021   */\n      dup7\n        /* \"#utility.yul\":5003:5010   */\n      dup9\n        /* \"#utility.yul\":4999:5022   */\n      sub\n        /* \"#utility.yul\":4995:5028   */\n      slt\n        /* \"#utility.yul\":4992:5045   */\n      iszero\n      tag_485\n      jumpi\n        /* \"#utility.yul\":5041:5042   */\n      0x00\n        /* \"#utility.yul\":5038:5039   */\n      dup1\n        /* \"#utility.yul\":5031:5043   */\n      revert\n        /* \"#utility.yul\":4992:5045   */\n    tag_485:\n        /* \"#utility.yul\":5064:5093   */\n      tag_486\n        /* \"#utility.yul\":5083:5092   */\n      dup7\n        /* \"#utility.yul\":5064:5093   */\n      tag_424\n      jump\t// in\n    tag_486:\n        /* \"#utility.yul\":5054:5093   */\n      swap5\n      pop\n        /* \"#utility.yul\":5112:5150   */\n      tag_487\n        /* \"#utility.yul\":5146:5148   */\n      0x20\n        /* \"#utility.yul\":5135:5144   */\n      dup8\n        /* \"#utility.yul\":5131:5149   */\n      add\n        /* \"#utility.yul\":5112:5150   */\n      tag_424\n      jump\t// in\n    tag_487:\n        /* \"#utility.yul\":5102:5150   */\n      swap4\n      pop\n        /* \"#utility.yul\":5201:5203   */\n      0x40\n        /* \"#utility.yul\":5190:5199   */\n      dup7\n        /* \"#utility.yul\":5186:5204   */\n      add\n        /* \"#utility.yul\":5173:5205   */\n      calldataload\n        /* \"#utility.yul\":5224:5242   */\n      0xffffffffffffffff\n        /* \"#utility.yul\":5265:5267   */\n      dup1\n        /* \"#utility.yul\":5257:5263   */\n      dup3\n        /* \"#utility.yul\":5254:5268   */\n      gt\n        /* \"#utility.yul\":5251:5285   */\n      iszero\n      tag_488\n      jumpi\n        /* \"#utility.yul\":5281:5282   */\n      0x00\n        /* \"#utility.yul\":5278:5279   */\n      dup1\n        /* \"#utility.yul\":5271:5283   */\n      revert\n        /* \"#utility.yul\":5251:5285   */\n    tag_488:\n        /* \"#utility.yul\":5304:5365   */\n      tag_489\n        /* \"#utility.yul\":5357:5364   */\n      dup10\n        /* \"#utility.yul\":5348:5354   */\n      dup4\n        /* \"#utility.yul\":5337:5346   */\n      dup11\n        /* \"#utility.yul\":5333:5355   */\n      add\n        /* \"#utility.yul\":5304:5365   */\n      tag_429\n      jump\t// in\n    tag_489:\n        /* \"#utility.yul\":5294:5365   */\n      swap5\n      pop\n        /* \"#utility.yul\":5418:5420   */\n      0x60\n        /* \"#utility.yul\":5407:5416   */\n      dup9\n        /* \"#utility.yul\":5403:5421   */\n      add\n        /* \"#utility.yul\":5390:5422   */\n      calldataload\n        /* \"#utility.yul\":5374:5422   */\n      swap2\n      pop\n        /* \"#utility.yul\":5447:5449   */\n      dup1\n        /* \"#utility.yul\":5437:5445   */\n      dup3\n        /* \"#utility.yul\":5434:5450   */\n      gt\n        /* \"#utility.yul\":5431:5467   */\n      iszero\n      tag_490\n      jumpi\n        /* \"#utility.yul\":5463:5464   */\n      0x00\n        /* \"#utility.yul\":5460:5461   */\n      dup1\n        /* \"#utility.yul\":5453:5465   */\n      revert\n        /* \"#utility.yul\":5431:5467   */\n    tag_490:\n        /* \"#utility.yul\":5486:5549   */\n      tag_491\n        /* \"#utility.yul\":5541:5548   */\n      dup10\n        /* \"#utility.yul\":5530:5538   */\n      dup4\n        /* \"#utility.yul\":5519:5528   */\n      dup11\n        /* \"#utility.yul\":5515:5539   */\n      add\n        /* \"#utility.yul\":5486:5549   */\n      tag_429\n      jump\t// in\n    tag_491:\n        /* \"#utility.yul\":5476:5549   */\n      swap4\n      pop\n        /* \"#utility.yul\":5602:5605   */\n      0x80\n        /* \"#utility.yul\":5591:5600   */\n      dup9\n        /* \"#utility.yul\":5587:5606   */\n      add\n        /* \"#utility.yul\":5574:5607   */\n      calldataload\n        /* \"#utility.yul\":5558:5607   */\n      swap2\n      pop\n        /* \"#utility.yul\":5632:5634   */\n      dup1\n        /* \"#utility.yul\":5622:5630   */\n      dup3\n        /* \"#utility.yul\":5619:5635   */\n      gt\n        /* \"#utility.yul\":5616:5652   */\n      iszero\n      tag_492\n      jumpi\n        /* \"#utility.yul\":5648:5649   */\n      0x00\n        /* \"#utility.yul\":5645:5646   */\n      dup1\n        /* \"#utility.yul\":5638:5650   */\n      revert\n        /* \"#utility.yul\":5616:5652   */\n    tag_492:\n      pop\n        /* \"#utility.yul\":5671:5722   */\n      tag_493\n        /* \"#utility.yul\":5714:5721   */\n      dup9\n        /* \"#utility.yul\":5703:5711   */\n      dup3\n        /* \"#utility.yul\":5692:5701   */\n      dup10\n        /* \"#utility.yul\":5688:5712   */\n      add\n        /* \"#utility.yul\":5671:5722   */\n      tag_430\n      jump\t// in\n    tag_493:\n        /* \"#utility.yul\":5661:5722   */\n      swap2\n      pop\n      pop\n        /* \"#utility.yul\":4785:5728   */\n      swap3\n      swap6\n      pop\n      swap3\n      swap6\n      swap1\n      swap4\n      pop\n      jump\t// out\n        /* \"#utility.yul\":5733:6941   */\n    tag_55:\n        /* \"#utility.yul\":5851:5857   */\n      0x00\n        /* \"#utility.yul\":5859:5865   */\n      dup1\n        /* \"#utility.yul\":5912:5914   */\n      0x40\n        /* \"#utility.yul\":5900:5909   */\n      dup4\n        /* \"#utility.yul\":5891:5898   */\n      dup6\n        /* \"#utility.yul\":5887:5910   */\n      sub\n        /* \"#utility.yul\":5883:5915   */\n      slt\n        /* \"#utility.yul\":5880:5932   */\n      iszero\n      tag_495\n      jumpi\n        /* \"#utility.yul\":5928:5929   */\n      0x00\n        /* \"#utility.yul\":5925:5926   */\n      dup1\n        /* \"#utility.yul\":5918:5930   */\n      revert\n        /* \"#utility.yul\":5880:5932   */\n    tag_495:\n        /* \"#utility.yul\":5968:5977   */\n      dup3\n        /* \"#utility.yul\":5955:5978   */\n      calldataload\n        /* \"#utility.yul\":5997:6015   */\n      0xffffffffffffffff\n        /* \"#utility.yul\":6038:6040   */\n      dup1\n        /* \"#utility.yul\":6030:6036   */\n      dup3\n        /* \"#utility.yul\":6027:6041   */\n      gt\n        /* \"#utility.yul\":6024:6058   */\n      iszero\n      tag_496\n      jumpi\n        /* \"#utility.yul\":6054:6055   */\n      0x00\n        /* \"#utility.yul\":6051:6052   */\n      dup1\n        /* \"#utility.yul\":6044:6056   */\n      revert\n        /* \"#utility.yul\":6024:6058   */\n    tag_496:\n        /* \"#utility.yul\":6092:6098   */\n      dup2\n        /* \"#utility.yul\":6081:6090   */\n      dup6\n        /* \"#utility.yul\":6077:6099   */\n      add\n        /* \"#utility.yul\":6067:6099   */\n      swap2\n      pop\n        /* \"#utility.yul\":6137:6144   */\n      dup6\n        /* \"#utility.yul\":6130:6134   */\n      0x1f\n        /* \"#utility.yul\":6126:6128   */\n      dup4\n        /* \"#utility.yul\":6122:6135   */\n      add\n        /* \"#utility.yul\":6118:6145   */\n      slt\n        /* \"#utility.yul\":6108:6163   */\n      tag_497\n      jumpi\n        /* \"#utility.yul\":6159:6160   */\n      0x00\n        /* \"#utility.yul\":6156:6157   */\n      dup1\n        /* \"#utility.yul\":6149:6161   */\n      revert\n        /* \"#utility.yul\":6108:6163   */\n    tag_497:\n        /* \"#utility.yul\":6195:6197   */\n      dup2\n        /* \"#utility.yul\":6182:6198   */\n      calldataload\n        /* \"#utility.yul\":6217:6221   */\n      0x20\n        /* \"#utility.yul\":6240:6283   */\n      tag_498\n        /* \"#utility.yul\":6280:6282   */\n      dup3\n        /* \"#utility.yul\":6240:6283   */\n      tag_428\n      jump\t// in\n    tag_498:\n        /* \"#utility.yul\":6312:6314   */\n      0x40\n        /* \"#utility.yul\":6306:6315   */\n      mload\n        /* \"#utility.yul\":6324:6355   */\n      tag_499\n        /* \"#utility.yul\":6352:6354   */\n      dup3\n        /* \"#utility.yul\":6344:6350   */\n      dup3\n        /* \"#utility.yul\":6324:6355   */\n      tag_427\n      jump\t// in\n    tag_499:\n        /* \"#utility.yul\":6390:6408   */\n      dup4\n      dup2\n      mstore\n        /* \"#utility.yul\":6478:6479   */\n      0x05\n        /* \"#utility.yul\":6474:6484   */\n      swap4\n      swap1\n      swap4\n      shl\n        /* \"#utility.yul\":6466:6485   */\n      dup6\n      add\n        /* \"#utility.yul\":6462:6490   */\n      dup3\n      add\n      swap3\n        /* \"#utility.yul\":6424:6439   */\n      dup3\n      dup2\n      add\n      swap2\n      pop\n        /* \"#utility.yul\":6502:6521   */\n      dup10\n      dup5\n      gt\n        /* \"#utility.yul\":6499:6538   */\n      iszero\n      tag_500\n      jumpi\n        /* \"#utility.yul\":6534:6535   */\n      0x00\n        /* \"#utility.yul\":6531:6532   */\n      dup1\n        /* \"#utility.yul\":6524:6536   */\n      revert\n        /* \"#utility.yul\":6499:6538   */\n    tag_500:\n        /* \"#utility.yul\":6558:6569   */\n      swap5\n      dup3\n      add\n      swap5\n        /* \"#utility.yul\":6578:6726   */\n    tag_501:\n        /* \"#utility.yul\":6594:6600   */\n      dup4\n        /* \"#utility.yul\":6589:6592   */\n      dup7\n        /* \"#utility.yul\":6586:6601   */\n      lt\n        /* \"#utility.yul\":6578:6726   */\n      iszero\n      tag_503\n      jumpi\n        /* \"#utility.yul\":6660:6683   */\n      tag_504\n        /* \"#utility.yul\":6679:6682   */\n      dup7\n        /* \"#utility.yul\":6660:6683   */\n      tag_424\n      jump\t// in\n    tag_504:\n        /* \"#utility.yul\":6648:6684   */\n      dup3\n      mstore\n        /* \"#utility.yul\":6611:6623   */\n      swap5\n      dup3\n      add\n      swap5\n        /* \"#utility.yul\":6704:6716   */\n      swap1\n      dup3\n      add\n      swap1\n        /* \"#utility.yul\":6578:6726   */\n      jump(tag_501)\n    tag_503:\n        /* \"#utility.yul\":6745:6751   */\n      swap7\n      pop\n      pop\n        /* \"#utility.yul\":6789:6807   */\n      dup7\n      add\n        /* \"#utility.yul\":6776:6808   */\n      calldataload\n      swap3\n      pop\n      pop\n        /* \"#utility.yul\":6820:6836   */\n      dup1\n      dup3\n      gt\n        /* \"#utility.yul\":6817:6853   */\n      iszero\n      tag_505\n      jumpi\n        /* \"#utility.yul\":6849:6850   */\n      0x00\n        /* \"#utility.yul\":6846:6847   */\n      dup1\n        /* \"#utility.yul\":6839:6851   */\n      revert\n        /* \"#utility.yul\":6817:6853   */\n    tag_505:\n      pop\n        /* \"#utility.yul\":6872:6935   */\n      tag_506\n        /* \"#utility.yul\":6927:6934   */\n      dup6\n        /* \"#utility.yul\":6916:6924   */\n      dup3\n        /* \"#utility.yul\":6905:6914   */\n      dup7\n        /* \"#utility.yul\":6901:6925   */\n      add\n        /* \"#utility.yul\":6872:6935   */\n      tag_429\n      jump\t// in\n    tag_506:\n        /* \"#utility.yul\":6862:6935   */\n      swap2\n      pop\n      pop\n        /* \"#utility.yul\":5733:6941   */\n      swap3\n      pop\n      swap3\n      swap1\n      pop\n      jump\t// out\n        /* \"#utility.yul\":6946:7381   */\n    tag_431:\n        /* \"#utility.yul\":6999:7002   */\n      0x00\n        /* \"#utility.yul\":7037:7042   */\n      dup2\n        /* \"#utility.yul\":7031:7043   */\n      mload\n        /* \"#utility.yul\":7064:7070   */\n      dup1\n        /* \"#utility.yul\":7059:7062   */\n      dup5\n        /* \"#utility.yul\":7052:7071   */\n      mstore\n        /* \"#utility.yul\":7090:7094   */\n      0x20\n        /* \"#utility.yul\":7119:7121   */\n      dup1\n        /* \"#utility.yul\":7114:7117   */\n      dup6\n        /* \"#utility.yul\":7110:7122   */\n      add\n        /* \"#utility.yul\":7103:7122   */\n      swap5\n      pop\n        /* \"#utility.yul\":7156:7158   */\n      dup1\n        /* \"#utility.yul\":7149:7154   */\n      dup5\n        /* \"#utility.yul\":7145:7159   */\n      add\n        /* \"#utility.yul\":7177:7178   */\n      0x00\n        /* \"#utility.yul\":7187:7356   */\n    tag_508:\n        /* \"#utility.yul\":7201:7207   */\n      dup4\n        /* \"#utility.yul\":7198:7199   */\n      dup2\n        /* \"#utility.yul\":7195:7208   */\n      lt\n        /* \"#utility.yul\":7187:7356   */\n      iszero\n      tag_510\n      jumpi\n        /* \"#utility.yul\":7262:7275   */\n      dup2\n      mload\n        /* \"#utility.yul\":7250:7276   */\n      dup8\n      mstore\n        /* \"#utility.yul\":7296:7308   */\n      swap6\n      dup3\n      add\n      swap6\n        /* \"#utility.yul\":7331:7346   */\n      swap1\n      dup3\n      add\n      swap1\n        /* \"#utility.yul\":7223:7224   */\n      0x01\n        /* \"#utility.yul\":7216:7225   */\n      add\n        /* \"#utility.yul\":7187:7356   */\n      jump(tag_508)\n    tag_510:\n      pop\n        /* \"#utility.yul\":7372:7375   */\n      swap5\n      swap6\n        /* \"#utility.yul\":6946:7381   */\n      swap5\n      pop\n      pop\n      pop\n      pop\n      pop\n      jump\t// out\n        /* \"#utility.yul\":7386:7647   */\n    tag_58:\n        /* \"#utility.yul\":7565:7567   */\n      0x20\n        /* \"#utility.yul\":7554:7563   */\n      dup2\n        /* \"#utility.yul\":7547:7568   */\n      mstore\n        /* \"#utility.yul\":7528:7532   */\n      0x00\n        /* \"#utility.yul\":7585:7641   */\n      tag_444\n        /* \"#utility.yul\":7637:7639   */\n      0x20\n        /* \"#utility.yul\":7626:7635   */\n      dup4\n        /* \"#utility.yul\":7622:7640   */\n      add\n        /* \"#utility.yul\":7614:7620   */\n      dup5\n        /* \"#utility.yul\":7585:7641   */\n      tag_431\n      jump\t// in\n        /* \"#utility.yul\":7652:8321   */\n    tag_64:\n        /* \"#utility.yul\":7779:7785   */\n      0x00\n        /* \"#utility.yul\":7787:7793   */\n      dup1\n        /* \"#utility.yul\":7795:7801   */\n      0x00\n        /* \"#utility.yul\":7848:7850   */\n      0x60\n        /* \"#utility.yul\":7836:7845   */\n      dup5\n        /* \"#utility.yul\":7827:7834   */\n      dup7\n        /* \"#utility.yul\":7823:7846   */\n      sub\n        /* \"#utility.yul\":7819:7851   */\n      slt\n        /* \"#utility.yul\":7816:7868   */\n      iszero\n      tag_514\n      jumpi\n        /* \"#utility.yul\":7864:7865   */\n      0x00\n        /* \"#utility.yul\":7861:7862   */\n      dup1\n        /* \"#utility.yul\":7854:7866   */\n      revert\n        /* \"#utility.yul\":7816:7868   */\n    tag_514:\n        /* \"#utility.yul\":7887:7916   */\n      tag_515\n        /* \"#utility.yul\":7906:7915   */\n      dup5\n        /* \"#utility.yul\":7887:7916   */\n      tag_424\n      jump\t// in\n    tag_515:\n        /* \"#utility.yul\":7877:7916   */\n      swap3\n      pop\n        /* \"#utility.yul\":7967:7969   */\n      0x20\n        /* \"#utility.yul\":7956:7965   */\n      dup5\n        /* \"#utility.yul\":7952:7970   */\n      add\n        /* \"#utility.yul\":7939:7971   */\n      calldataload\n        /* \"#utility.yul\":7990:8008   */\n      0xffffffffffffffff\n        /* \"#utility.yul\":8031:8033   */\n      dup1\n        /* \"#utility.yul\":8023:8029   */\n      dup3\n        /* \"#utility.yul\":8020:8034   */\n      gt\n        /* \"#utility.yul\":8017:8051   */\n      iszero\n      tag_516\n      jumpi\n        /* \"#utility.yul\":8047:8048   */\n      0x00\n        /* \"#utility.yul\":8044:8045   */\n      dup1\n        /* \"#utility.yul\":8037:8049   */\n      revert\n        /* \"#utility.yul\":8017:8051   */\n    tag_516:\n        /* \"#utility.yul\":8070:8131   */\n      tag_517\n        /* \"#utility.yul\":8123:8130   */\n      dup8\n        /* \"#utility.yul\":8114:8120   */\n      dup4\n        /* \"#utility.yul\":8103:8112   */\n      dup9\n        /* \"#utility.yul\":8099:8121   */\n      add\n        /* \"#utility.yul\":8070:8131   */\n      tag_429\n      jump\t// in\n    tag_517:\n        /* \"#utility.yul\":8060:8131   */\n      swap4\n      pop\n        /* \"#utility.yul\":8184:8186   */\n      0x40\n        /* \"#utility.yul\":8173:8182   */\n      dup7\n        /* \"#utility.yul\":8169:8187   */\n      add\n        /* \"#utility.yul\":8156:8188   */\n      calldataload\n        /* \"#utility.yul\":8140:8188   */\n      swap2\n      pop\n        /* \"#utility.yul\":8213:8215   */\n      dup1\n        /* \"#utility.yul\":8203:8211   */\n      dup3\n        /* \"#utility.yul\":8200:8216   */\n      gt\n        /* \"#utility.yul\":8197:8233   */\n      iszero\n      tag_518\n      jumpi\n        /* \"#utility.yul\":8229:8230   */\n      0x00\n        /* \"#utility.yul\":8226:8227   */\n      dup1\n        /* \"#utility.yul\":8219:8231   */\n      revert\n        /* \"#utility.yul\":8197:8233   */\n    tag_518:\n      pop\n        /* \"#utility.yul\":8252:8315   */\n      tag_519\n        /* \"#utility.yul\":8307:8314   */\n      dup7\n        /* \"#utility.yul\":8296:8304   */\n      dup3\n        /* \"#utility.yul\":8285:8294   */\n      dup8\n        /* \"#utility.yul\":8281:8305   */\n      add\n        /* \"#utility.yul\":8252:8315   */\n      tag_429\n      jump\t// in\n    tag_519:\n        /* \"#utility.yul\":8242:8315   */\n      swap2\n      pop\n      pop\n        /* \"#utility.yul\":7652:8321   */\n      swap3\n      pop\n      swap3\n      pop\n      swap3\n      jump\t// out\n        /* \"#utility.yul\":8326:8857   */\n    tag_70:\n        /* \"#utility.yul\":8421:8427   */\n      0x00\n        /* \"#utility.yul\":8429:8435   */\n      dup1\n        /* \"#utility.yul\":8437:8443   */\n      0x00\n        /* \"#utility.yul\":8445:8451   */\n      dup1\n        /* \"#utility.yul\":8498:8501   */\n      0x80\n        /* \"#utility.yul\":8486:8495   */\n      dup6\n        /* \"#utility.yul\":8477:8484   */\n      dup8\n        /* \"#utility.yul\":8473:8496   */\n      sub\n        /* \"#utility.yul\":8469:8502   */\n      slt\n        /* \"#utility.yul\":8466:8519   */\n      iszero\n      tag_521\n      jumpi\n        /* \"#utility.yul\":8515:8516   */\n      0x00\n        /* \"#utility.yul\":8512:8513   */\n      dup1\n        /* \"#utility.yul\":8505:8517   */\n      revert\n        /* \"#utility.yul\":8466:8519   */\n    tag_521:\n        /* \"#utility.yul\":8538:8567   */\n      tag_522\n        /* \"#utility.yul\":8557:8566   */\n      dup6\n        /* \"#utility.yul\":8538:8567   */\n      tag_424\n      jump\t// in\n    tag_522:\n        /* \"#utility.yul\":8528:8567   */\n      swap4\n      pop\n        /* \"#utility.yul\":8614:8616   */\n      0x20\n        /* \"#utility.yul\":8603:8612   */\n      dup6\n        /* \"#utility.yul\":8599:8617   */\n      add\n        /* \"#utility.yul\":8586:8618   */\n      calldataload\n        /* \"#utility.yul\":8576:8618   */\n      swap3\n      pop\n        /* \"#utility.yul\":8665:8667   */\n      0x40\n        /* \"#utility.yul\":8654:8663   */\n      dup6\n        /* \"#utility.yul\":8650:8668   */\n      add\n        /* \"#utility.yul\":8637:8669   */\n      calldataload\n        /* \"#utility.yul\":8627:8669   */\n      swap2\n      pop\n        /* \"#utility.yul\":8720:8722   */\n      0x60\n        /* \"#utility.yul\":8709:8718   */\n      dup6\n        /* \"#utility.yul\":8705:8723   */\n      add\n        /* \"#utility.yul\":8692:8724   */\n      calldataload\n        /* \"#utility.yul\":8747:8765   */\n      0xffffffffffffffff\n        /* \"#utility.yul\":8739:8745   */\n      dup2\n        /* \"#utility.yul\":8736:8766   */\n      gt\n        /* \"#utility.yul\":8733:8783   */\n      iszero\n      tag_523\n      jumpi\n        /* \"#utility.yul\":8779:8780   */\n      0x00\n        /* \"#utility.yul\":8776:8777   */\n      dup1\n        /* \"#utility.yul\":8769:8781   */\n      revert\n        /* \"#utility.yul\":8733:8783   */\n    tag_523:\n        /* \"#utility.yul\":8802:8851   */\n      tag_483\n        /* \"#utility.yul\":8843:8850   */\n      dup8\n        /* \"#utility.yul\":8834:8840   */\n      dup3\n        /* \"#utility.yul\":8823:8832   */\n      dup9\n        /* \"#utility.yul\":8819:8841   */\n      add\n        /* \"#utility.yul\":8802:8851   */\n      tag_430\n      jump\t// in\n        /* \"#utility.yul\":9070:9417   */\n    tag_80:\n        /* \"#utility.yul\":9135:9141   */\n      0x00\n        /* \"#utility.yul\":9143:9149   */\n      dup1\n        /* \"#utility.yul\":9196:9198   */\n      0x40\n        /* \"#utility.yul\":9184:9193   */\n      dup4\n        /* \"#utility.yul\":9175:9182   */\n      dup6\n        /* \"#utility.yul\":9171:9194   */\n      sub\n        /* \"#utility.yul\":9167:9199   */\n      slt\n        /* \"#utility.yul\":9164:9216   */\n      iszero\n      tag_527\n      jumpi\n        /* \"#utility.yul\":9212:9213   */\n      0x00\n        /* \"#utility.yul\":9209:9210   */\n      dup1\n        /* \"#utility.yul\":9202:9214   */\n      revert\n        /* \"#utility.yul\":9164:9216   */\n    tag_527:\n        /* \"#utility.yul\":9235:9264   */\n      tag_528\n        /* \"#utility.yul\":9254:9263   */\n      dup4\n        /* \"#utility.yul\":9235:9264   */\n      tag_424\n      jump\t// in\n    tag_528:\n        /* \"#utility.yul\":9225:9264   */\n      swap2\n      pop\n        /* \"#utility.yul\":9314:9316   */\n      0x20\n        /* \"#utility.yul\":9303:9312   */\n      dup4\n        /* \"#utility.yul\":9299:9317   */\n      add\n        /* \"#utility.yul\":9286:9318   */\n      calldataload\n        /* \"#utility.yul\":9361:9366   */\n      dup1\n        /* \"#utility.yul\":9354:9367   */\n      iszero\n        /* \"#utility.yul\":9347:9368   */\n      iszero\n        /* \"#utility.yul\":9340:9345   */\n      dup2\n        /* \"#utility.yul\":9337:9369   */\n      eq\n        /* \"#utility.yul\":9327:9387   */\n      tag_529\n      jumpi\n        /* \"#utility.yul\":9383:9384   */\n      0x00\n        /* \"#utility.yul\":9380:9381   */\n      dup1\n        /* \"#utility.yul\":9373:9385   */\n      revert\n        /* \"#utility.yul\":9327:9387   */\n    tag_529:\n        /* \"#utility.yul\":9406:9411   */\n      dup1\n        /* \"#utility.yul\":9396:9411   */\n      swap2\n      pop\n      pop\n        /* \"#utility.yul\":9070:9417   */\n      swap3\n      pop\n      swap3\n      swap1\n      pop\n      jump\t// out\n        /* \"#utility.yul\":9422:9856   */\n    tag_84:\n        /* \"#utility.yul\":9498:9504   */\n      0x00\n        /* \"#utility.yul\":9506:9512   */\n      dup1\n        /* \"#utility.yul\":9514:9520   */\n      0x00\n        /* \"#utility.yul\":9567:9569   */\n      0x60\n        /* \"#utility.yul\":9555:9564   */\n      dup5\n        /* \"#utility.yul\":9546:9553   */\n      dup7\n        /* \"#utility.yul\":9542:9565   */\n      sub\n        /* \"#utility.yul\":9538:9570   */\n      slt\n        /* \"#utility.yul\":9535:9587   */\n      iszero\n      tag_531\n      jumpi\n        /* \"#utility.yul\":9583:9584   */\n      0x00\n        /* \"#utility.yul\":9580:9581   */\n      dup1\n        /* \"#utility.yul\":9573:9585   */\n      revert\n        /* \"#utility.yul\":9535:9587   */\n    tag_531:\n        /* \"#utility.yul\":9606:9635   */\n      tag_532\n        /* \"#utility.yul\":9625:9634   */\n      dup5\n        /* \"#utility.yul\":9606:9635   */\n      tag_424\n      jump\t// in\n    tag_532:\n        /* \"#utility.yul\":9596:9635   */\n      swap3\n      pop\n        /* \"#utility.yul\":9685:9687   */\n      0x20\n        /* \"#utility.yul\":9674:9683   */\n      dup5\n        /* \"#utility.yul\":9670:9688   */\n      add\n        /* \"#utility.yul\":9657:9689   */\n      calldataload\n        /* \"#utility.yul\":9729:9755   */\n      0xffffffffffffffffffffffff\n        /* \"#utility.yul\":9722:9727   */\n      dup2\n        /* \"#utility.yul\":9718:9756   */\n      and\n        /* \"#utility.yul\":9711:9716   */\n      dup2\n        /* \"#utility.yul\":9708:9757   */\n      eq\n        /* \"#utility.yul\":9698:9775   */\n      tag_533\n      jumpi\n        /* \"#utility.yul\":9771:9772   */\n      0x00\n        /* \"#utility.yul\":9768:9769   */\n      dup1\n        /* \"#utility.yul\":9761:9773   */\n      revert\n        /* \"#utility.yul\":9698:9775   */\n    tag_533:\n        /* \"#utility.yul\":9422:9856   */\n      swap3\n      swap6\n        /* \"#utility.yul\":9794:9799   */\n      swap3\n      swap5\n      pop\n      pop\n      pop\n        /* \"#utility.yul\":9846:9848   */\n      0x40\n        /* \"#utility.yul\":9831:9849   */\n      swap2\n      swap1\n      swap2\n      add\n        /* \"#utility.yul\":9818:9850   */\n      calldataload\n      swap1\n        /* \"#utility.yul\":9422:9856   */\n      jump\t// out\n        /* \"#utility.yul\":9861:10121   */\n    tag_88:\n        /* \"#utility.yul\":9929:9935   */\n      0x00\n        /* \"#utility.yul\":9937:9943   */\n      dup1\n        /* \"#utility.yul\":9990:9992   */\n      0x40\n        /* \"#utility.yul\":9978:9987   */\n      dup4\n        /* \"#utility.yul\":9969:9976   */\n      dup6\n        /* \"#utility.yul\":9965:9988   */\n      sub\n        /* \"#utility.yul\":9961:9993   */\n      slt\n        /* \"#utility.yul\":9958:10010   */\n      iszero\n      tag_535\n      jumpi\n        /* \"#utility.yul\":10006:10007   */\n      0x00\n        /* \"#utility.yul\":10003:10004   */\n      dup1\n        /* \"#utility.yul\":9996:10008   */\n      revert\n        /* \"#utility.yul\":9958:10010   */\n    tag_535:\n        /* \"#utility.yul\":10029:10058   */\n      tag_536\n        /* \"#utility.yul\":10048:10057   */\n      dup4\n        /* \"#utility.yul\":10029:10058   */\n      tag_424\n      jump\t// in\n    tag_536:\n        /* \"#utility.yul\":10019:10058   */\n      swap2\n      pop\n        /* \"#utility.yul\":10077:10115   */\n      tag_537\n        /* \"#utility.yul\":10111:10113   */\n      0x20\n        /* \"#utility.yul\":10100:10109   */\n      dup5\n        /* \"#utility.yul\":10096:10114   */\n      add\n        /* \"#utility.yul\":10077:10115   */\n      tag_424\n      jump\t// in\n    tag_537:\n        /* \"#utility.yul\":10067:10115   */\n      swap1\n      pop\n        /* \"#utility.yul\":9861:10121   */\n      swap3\n      pop\n      swap3\n      swap1\n      pop\n      jump\t// out\n        /* \"#utility.yul\":10126:10732   */\n    tag_93:\n        /* \"#utility.yul\":10230:10236   */\n      0x00\n        /* \"#utility.yul\":10238:10244   */\n      dup1\n        /* \"#utility.yul\":10246:10252   */\n      0x00\n        /* \"#utility.yul\":10254:10260   */\n      dup1\n        /* \"#utility.yul\":10262:10268   */\n      0x00\n        /* \"#utility.yul\":10315:10318   */\n      0xa0\n        /* \"#utility.yul\":10303:10312   */\n      dup7\n        /* \"#utility.yul\":10294:10301   */\n      dup9\n        /* \"#utility.yul\":10290:10313   */\n      sub\n        /* \"#utility.yul\":10286:10319   */\n      slt\n        /* \"#utility.yul\":10283:10336   */\n      iszero\n      tag_539\n      jumpi\n        /* \"#utility.yul\":10332:10333   */\n      0x00\n        /* \"#utility.yul\":10329:10330   */\n      dup1\n        /* \"#utility.yul\":10322:10334   */\n      revert\n        /* \"#utility.yul\":10283:10336   */\n    tag_539:\n        /* \"#utility.yul\":10355:10384   */\n      tag_540\n        /* \"#utility.yul\":10374:10383   */\n      dup7\n        /* \"#utility.yul\":10355:10384   */\n      tag_424\n      jump\t// in\n    tag_540:\n        /* \"#utility.yul\":10345:10384   */\n      swap5\n      pop\n        /* \"#utility.yul\":10403:10441   */\n      tag_541\n        /* \"#utility.yul\":10437:10439   */\n      0x20\n        /* \"#utility.yul\":10426:10435   */\n      dup8\n        /* \"#utility.yul\":10422:10440   */\n      add\n        /* \"#utility.yul\":10403:10441   */\n      tag_424\n      jump\t// in\n    tag_541:\n        /* \"#utility.yul\":10393:10441   */\n      swap4\n      pop\n        /* \"#utility.yul\":10488:10490   */\n      0x40\n        /* \"#utility.yul\":10477:10486   */\n      dup7\n        /* \"#utility.yul\":10473:10491   */\n      add\n        /* \"#utility.yul\":10460:10492   */\n      calldataload\n        /* \"#utility.yul\":10450:10492   */\n      swap3\n      pop\n        /* \"#utility.yul\":10539:10541   */\n      0x60\n        /* \"#utility.yul\":10528:10537   */\n      dup7\n        /* \"#utility.yul\":10524:10542   */\n      add\n        /* \"#utility.yul\":10511:10543   */\n      calldataload\n        /* \"#utility.yul\":10501:10543   */\n      swap2\n      pop\n        /* \"#utility.yul\":10594:10597   */\n      0x80\n        /* \"#utility.yul\":10583:10592   */\n      dup7\n        /* \"#utility.yul\":10579:10598   */\n      add\n        /* \"#utility.yul\":10566:10599   */\n      calldataload\n        /* \"#utility.yul\":10622:10640   */\n      0xffffffffffffffff\n        /* \"#utility.yul\":10614:10620   */\n      dup2\n        /* \"#utility.yul\":10611:10641   */\n      gt\n        /* \"#utility.yul\":10608:10658   */\n      iszero\n      tag_542\n      jumpi\n        /* \"#utility.yul\":10654:10655   */\n      0x00\n        /* \"#utility.yul\":10651:10652   */\n      dup1\n        /* \"#utility.yul\":10644:10656   */\n      revert\n        /* \"#utility.yul\":10608:10658   */\n    tag_542:\n        /* \"#utility.yul\":10677:10726   */\n      tag_493\n        /* \"#utility.yul\":10718:10725   */\n      dup9\n        /* \"#utility.yul\":10709:10715   */\n      dup3\n        /* \"#utility.yul\":10698:10707   */\n      dup10\n        /* \"#utility.yul\":10694:10716   */\n      add\n        /* \"#utility.yul\":10677:10726   */\n      tag_430\n      jump\t// in\n        /* \"#utility.yul\":10737:10923   */\n    tag_97:\n        /* \"#utility.yul\":10796:10802   */\n      0x00\n        /* \"#utility.yul\":10849:10851   */\n      0x20\n        /* \"#utility.yul\":10837:10846   */\n      dup3\n        /* \"#utility.yul\":10828:10835   */\n      dup5\n        /* \"#utility.yul\":10824:10847   */\n      sub\n        /* \"#utility.yul\":10820:10852   */\n      slt\n        /* \"#utility.yul\":10817:10869   */\n      iszero\n      tag_545\n      jumpi\n        /* \"#utility.yul\":10865:10866   */\n      0x00\n        /* \"#utility.yul\":10862:10863   */\n      dup1\n        /* \"#utility.yul\":10855:10867   */\n      revert\n        /* \"#utility.yul\":10817:10869   */\n    tag_545:\n        /* \"#utility.yul\":10888:10917   */\n      tag_444\n        /* \"#utility.yul\":10907:10916   */\n      dup3\n        /* \"#utility.yul\":10888:10917   */\n      tag_424\n      jump\t// in\n        /* \"#utility.yul\":10928:11250   */\n    tag_101:\n        /* \"#utility.yul\":11005:11011   */\n      0x00\n        /* \"#utility.yul\":11013:11019   */\n      dup1\n        /* \"#utility.yul\":11021:11027   */\n      0x00\n        /* \"#utility.yul\":11074:11076   */\n      0x60\n        /* \"#utility.yul\":11062:11071   */\n      dup5\n        /* \"#utility.yul\":11053:11060   */\n      dup7\n        /* \"#utility.yul\":11049:11072   */\n      sub\n        /* \"#utility.yul\":11045:11077   */\n      slt\n        /* \"#utility.yul\":11042:11094   */\n      iszero\n      tag_548\n      jumpi\n        /* \"#utility.yul\":11090:11091   */\n      0x00\n        /* \"#utility.yul\":11087:11088   */\n      dup1\n        /* \"#utility.yul\":11080:11092   */\n      revert\n        /* \"#utility.yul\":11042:11094   */\n    tag_548:\n        /* \"#utility.yul\":11113:11142   */\n      tag_549\n        /* \"#utility.yul\":11132:11141   */\n      dup5\n        /* \"#utility.yul\":11113:11142   */\n      tag_424\n      jump\t// in\n    tag_549:\n        /* \"#utility.yul\":11103:11142   */\n      swap6\n        /* \"#utility.yul\":11189:11191   */\n      0x20\n        /* \"#utility.yul\":11174:11192   */\n      dup6\n      add\n        /* \"#utility.yul\":11161:11193   */\n      calldataload\n      swap6\n      pop\n        /* \"#utility.yul\":11240:11242   */\n      0x40\n        /* \"#utility.yul\":11225:11243   */\n      swap1\n      swap5\n      add\n        /* \"#utility.yul\":11212:11244   */\n      calldataload\n      swap4\n        /* \"#utility.yul\":10928:11250   */\n      swap3\n      pop\n      pop\n      pop\n      jump\t// out\n        /* \"#utility.yul\":11666:12046   */\n    tag_114:\n        /* \"#utility.yul\":11745:11746   */\n      0x01\n        /* \"#utility.yul\":11741:11753   */\n      dup2\n      dup2\n      shr\n      swap1\n        /* \"#utility.yul\":11788:11800   */\n      dup3\n      and\n      dup1\n        /* \"#utility.yul\":11809:11870   */\n      tag_552\n      jumpi\n        /* \"#utility.yul\":11863:11867   */\n      0x7f\n        /* \"#utility.yul\":11855:11861   */\n      dup3\n        /* \"#utility.yul\":11851:11868   */\n      and\n        /* \"#utility.yul\":11841:11868   */\n      swap2\n      pop\n        /* \"#utility.yul\":11809:11870   */\n    tag_552:\n        /* \"#utility.yul\":11916:11918   */\n      0x20\n        /* \"#utility.yul\":11908:11914   */\n      dup3\n        /* \"#utility.yul\":11905:11919   */\n      lt\n        /* \"#utility.yul\":11885:11903   */\n      dup2\n        /* \"#utility.yul\":11882:11920   */\n      sub\n        /* \"#utility.yul\":11879:12040   */\n      tag_553\n      jumpi\n        /* \"#utility.yul\":11962:11972   */\n      0x4e487b71\n        /* \"#utility.yul\":11957:11960   */\n      0xe0\n        /* \"#utility.yul\":11953:11973   */\n      shl\n        /* \"#utility.yul\":11950:11951   */\n      0x00\n        /* \"#utility.yul\":11943:11974   */\n      mstore\n        /* \"#utility.yul\":11997:12001   */\n      0x22\n        /* \"#utility.yul\":11994:11995   */\n      0x04\n        /* \"#utility.yul\":11987:12002   */\n      mstore\n        /* \"#utility.yul\":12025:12029   */\n      0x24\n        /* \"#utility.yul\":12022:12023   */\n      0x00\n        /* \"#utility.yul\":12015:12030   */\n      revert\n        /* \"#utility.yul\":11879:12040   */\n    tag_553:\n      pop\n        /* \"#utility.yul\":11666:12046   */\n      swap2\n      swap1\n      pop\n      jump\t// out\n        /* \"#utility.yul\":12051:12461   */\n    tag_133:\n        /* \"#utility.yul\":12253:12255   */\n      0x20\n        /* \"#utility.yul\":12235:12256   */\n      dup1\n      dup3\n      mstore\n        /* \"#utility.yul\":12292:12294   */\n      0x2e\n        /* \"#utility.yul\":12272:12290   */\n      swap1\n      dup3\n      add\n        /* \"#utility.yul\":12265:12295   */\n      mstore\n        /* \"#utility.yul\":12331:12365   */\n      0x455243313135353a2063616c6c6572206973206e6f7420746f6b656e206f776e\n        /* \"#utility.yul\":12326:12328   */\n      0x40\n        /* \"#utility.yul\":12311:12329   */\n      dup3\n      add\n        /* \"#utility.yul\":12304:12366   */\n      mstore\n      shl(0x92, 0x195c881bdc88185c1c1c9bdd9959)\n        /* \"#utility.yul\":12397:12399   */\n      0x60\n        /* \"#utility.yul\":12382:12400   */\n      dup3\n      add\n        /* \"#utility.yul\":12375:12419   */\n      mstore\n        /* \"#utility.yul\":12451:12454   */\n      0x80\n        /* \"#utility.yul\":12436:12455   */\n      add\n      swap1\n        /* \"#utility.yul\":12051:12461   */\n      jump\t// out\n        /* \"#utility.yul\":12876:13003   */\n    tag_155:\n        /* \"#utility.yul\":12937:12947   */\n      0x4e487b71\n        /* \"#utility.yul\":12932:12935   */\n      0xe0\n        /* \"#utility.yul\":12928:12948   */\n      shl\n        /* \"#utility.yul\":12925:12926   */\n      0x00\n        /* \"#utility.yul\":12918:12949   */\n      mstore\n        /* \"#utility.yul\":12968:12972   */\n      0x32\n        /* \"#utility.yul\":12965:12966   */\n      0x04\n        /* \"#utility.yul\":12958:12973   */\n      mstore\n        /* \"#utility.yul\":12992:12996   */\n      0x24\n        /* \"#utility.yul\":12989:12990   */\n      0x00\n        /* \"#utility.yul\":12982:12997   */\n      revert\n        /* \"#utility.yul\":13008:13135   */\n    tag_432:\n        /* \"#utility.yul\":13069:13079   */\n      0x4e487b71\n        /* \"#utility.yul\":13064:13067   */\n      0xe0\n        /* \"#utility.yul\":13060:13080   */\n      shl\n        /* \"#utility.yul\":13057:13058   */\n      0x00\n        /* \"#utility.yul\":13050:13081   */\n      mstore\n        /* \"#utility.yul\":13100:13104   */\n      0x11\n        /* \"#utility.yul\":13097:13098   */\n      0x04\n        /* \"#utility.yul\":13090:13105   */\n      mstore\n        /* \"#utility.yul\":13124:13128   */\n      0x24\n        /* \"#utility.yul\":13121:13122   */\n      0x00\n        /* \"#utility.yul\":13114:13129   */\n      revert\n        /* \"#utility.yul\":13140:13275   */\n    tag_161:\n        /* \"#utility.yul\":13179:13182   */\n      0x00\n        /* \"#utility.yul\":13200:13217   */\n      0x01\n      dup3\n      add\n        /* \"#utility.yul\":13197:13240   */\n      tag_560\n      jumpi\n        /* \"#utility.yul\":13220:13238   */\n      tag_560\n      tag_432\n      jump\t// in\n    tag_560:\n      pop\n        /* \"#utility.yul\":13267:13268   */\n      0x01\n        /* \"#utility.yul\":13256:13269   */\n      add\n      swap1\n        /* \"#utility.yul\":13140:13275   */\n      jump\t// out\n        /* \"#utility.yul\":14048:14445   */\n    tag_232:\n        /* \"#utility.yul\":14250:14252   */\n      0x20\n        /* \"#utility.yul\":14232:14253   */\n      dup1\n      dup3\n      mstore\n        /* \"#utility.yul\":14289:14291   */\n      0x21\n        /* \"#utility.yul\":14269:14287   */\n      swap1\n      dup3\n      add\n        /* \"#utility.yul\":14262:14292   */\n      mstore\n        /* \"#utility.yul\":14328:14362   */\n      0x455243313135353a206d696e7420746f20746865207a65726f20616464726573\n        /* \"#utility.yul\":14323:14325   */\n      0x40\n        /* \"#utility.yul\":14308:14326   */\n      dup3\n      add\n        /* \"#utility.yul\":14301:14363   */\n      mstore\n      shl(0xf8, 0x73)\n        /* \"#utility.yul\":14394:14396   */\n      0x60\n        /* \"#utility.yul\":14379:14397   */\n      dup3\n      add\n        /* \"#utility.yul\":14372:14403   */\n      mstore\n        /* \"#utility.yul\":14435:14438   */\n      0x80\n        /* \"#utility.yul\":14420:14439   */\n      add\n      swap1\n        /* \"#utility.yul\":14048:14445   */\n      jump\t// out\n        /* \"#utility.yul\":14450:14854   */\n    tag_235:\n        /* \"#utility.yul\":14652:14654   */\n      0x20\n        /* \"#utility.yul\":14634:14655   */\n      dup1\n      dup3\n      mstore\n        /* \"#utility.yul\":14691:14693   */\n      0x28\n        /* \"#utility.yul\":14671:14689   */\n      swap1\n      dup3\n      add\n        /* \"#utility.yul\":14664:14694   */\n      mstore\n        /* \"#utility.yul\":14730:14764   */\n      0x455243313135353a2069647320616e6420616d6f756e7473206c656e67746820\n        /* \"#utility.yul\":14725:14727   */\n      0x40\n        /* \"#utility.yul\":14710:14728   */\n      dup3\n      add\n        /* \"#utility.yul\":14703:14765   */\n      mstore\n      shl(0xc3, 0x0dad2e6dac2e8c6d)\n        /* \"#utility.yul\":14796:14798   */\n      0x60\n        /* \"#utility.yul\":14781:14799   */\n      dup3\n      add\n        /* \"#utility.yul\":14774:14812   */\n      mstore\n        /* \"#utility.yul\":14844:14847   */\n      0x80\n        /* \"#utility.yul\":14829:14848   */\n      add\n      swap1\n        /* \"#utility.yul\":14450:14854   */\n      jump\t// out\n        /* \"#utility.yul\":14859:14984   */\n    tag_247:\n        /* \"#utility.yul\":14924:14933   */\n      dup1\n      dup3\n      add\n        /* \"#utility.yul\":14945:14955   */\n      dup1\n      dup3\n      gt\n        /* \"#utility.yul\":14942:14978   */\n      iszero\n      tag_103\n      jumpi\n        /* \"#utility.yul\":14958:14976   */\n      tag_103\n      tag_432\n      jump\t// in\n        /* \"#utility.yul\":14989:15454   */\n    tag_250:\n        /* \"#utility.yul\":15246:15248   */\n      0x40\n        /* \"#utility.yul\":15235:15244   */\n      dup2\n        /* \"#utility.yul\":15228:15249   */\n      mstore\n        /* \"#utility.yul\":15209:15213   */\n      0x00\n        /* \"#utility.yul\":15272:15328   */\n      tag_569\n        /* \"#utility.yul\":15324:15326   */\n      0x40\n        /* \"#utility.yul\":15313:15322   */\n      dup4\n        /* \"#utility.yul\":15309:15327   */\n      add\n        /* \"#utility.yul\":15301:15307   */\n      dup6\n        /* \"#utility.yul\":15272:15328   */\n      tag_431\n      jump\t// in\n    tag_569:\n        /* \"#utility.yul\":15376:15385   */\n      dup3\n        /* \"#utility.yul\":15368:15374   */\n      dup2\n        /* \"#utility.yul\":15364:15386   */\n      sub\n        /* \"#utility.yul\":15359:15361   */\n      0x20\n        /* \"#utility.yul\":15348:15357   */\n      dup5\n        /* \"#utility.yul\":15344:15362   */\n      add\n        /* \"#utility.yul\":15337:15387   */\n      mstore\n        /* \"#utility.yul\":15404:15448   */\n      tag_570\n        /* \"#utility.yul\":15441:15447   */\n      dup2\n        /* \"#utility.yul\":15433:15439   */\n      dup6\n        /* \"#utility.yul\":15404:15448   */\n      tag_431\n      jump\t// in\n    tag_570:\n        /* \"#utility.yul\":15396:15448   */\n      swap6\n        /* \"#utility.yul\":14989:15454   */\n      swap5\n      pop\n      pop\n      pop\n      pop\n      pop\n      jump\t// out\n        /* \"#utility.yul\":15459:15860   */\n    tag_261:\n        /* \"#utility.yul\":15661:15663   */\n      0x20\n        /* \"#utility.yul\":15643:15664   */\n      dup1\n      dup3\n      mstore\n        /* \"#utility.yul\":15700:15702   */\n      0x25\n        /* \"#utility.yul\":15680:15698   */\n      swap1\n      dup3\n      add\n        /* \"#utility.yul\":15673:15703   */\n      mstore\n        /* \"#utility.yul\":15739:15773   */\n      0x455243313135353a207472616e7366657220746f20746865207a65726f206164\n        /* \"#utility.yul\":15734:15736   */\n      0x40\n        /* \"#utility.yul\":15719:15737   */\n      dup3\n      add\n        /* \"#utility.yul\":15712:15774   */\n      mstore\n      shl(0xd8, 0x6472657373)\n        /* \"#utility.yul\":15805:15807   */\n      0x60\n        /* \"#utility.yul\":15790:15808   */\n      dup3\n      add\n        /* \"#utility.yul\":15783:15818   */\n      mstore\n        /* \"#utility.yul\":15850:15853   */\n      0x80\n        /* \"#utility.yul\":15835:15854   */\n      add\n      swap1\n        /* \"#utility.yul\":15459:15860   */\n      jump\t// out\n        /* \"#utility.yul\":15865:16271   */\n    tag_273:\n        /* \"#utility.yul\":16067:16069   */\n      0x20\n        /* \"#utility.yul\":16049:16070   */\n      dup1\n      dup3\n      mstore\n        /* \"#utility.yul\":16106:16108   */\n      0x2a\n        /* \"#utility.yul\":16086:16104   */\n      swap1\n      dup3\n      add\n        /* \"#utility.yul\":16079:16109   */\n      mstore\n        /* \"#utility.yul\":16145:16179   */\n      0x455243313135353a20696e73756666696369656e742062616c616e636520666f\n        /* \"#utility.yul\":16140:16142   */\n      0x40\n        /* \"#utility.yul\":16125:16143   */\n      dup3\n      add\n        /* \"#utility.yul\":16118:16180   */\n      mstore\n      shl(0xb1, 0x39103a3930b739b332b9)\n        /* \"#utility.yul\":16211:16213   */\n      0x60\n        /* \"#utility.yul\":16196:16214   */\n      dup3\n      add\n        /* \"#utility.yul\":16189:16229   */\n      mstore\n        /* \"#utility.yul\":16261:16264   */\n      0x80\n        /* \"#utility.yul\":16246:16265   */\n      add\n      swap1\n        /* \"#utility.yul\":15865:16271   */\n      jump\t// out\n        /* \"#utility.yul\":16276:16675   */\n    tag_288:\n        /* \"#utility.yul\":16478:16480   */\n      0x20\n        /* \"#utility.yul\":16460:16481   */\n      dup1\n      dup3\n      mstore\n        /* \"#utility.yul\":16517:16519   */\n      0x23\n        /* \"#utility.yul\":16497:16515   */\n      swap1\n      dup3\n      add\n        /* \"#utility.yul\":16490:16520   */\n      mstore\n        /* \"#utility.yul\":16556:16590   */\n      0x455243313135353a206275726e2066726f6d20746865207a65726f2061646472\n        /* \"#utility.yul\":16551:16553   */\n      0x40\n        /* \"#utility.yul\":16536:16554   */\n      dup3\n      add\n        /* \"#utility.yul\":16529:16591   */\n      mstore\n      shl(0xe8, 0x657373)\n        /* \"#utility.yul\":16622:16624   */\n      0x60\n        /* \"#utility.yul\":16607:16625   */\n      dup3\n      add\n        /* \"#utility.yul\":16600:16633   */\n      mstore\n        /* \"#utility.yul\":16665:16668   */\n      0x80\n        /* \"#utility.yul\":16650:16669   */\n      add\n      swap1\n        /* \"#utility.yul\":16276:16675   */\n      jump\t// out\n        /* \"#utility.yul\":16680:17080   */\n    tag_302:\n        /* \"#utility.yul\":16882:16884   */\n      0x20\n        /* \"#utility.yul\":16864:16885   */\n      dup1\n      dup3\n      mstore\n        /* \"#utility.yul\":16921:16923   */\n      0x24\n        /* \"#utility.yul\":16901:16919   */\n      swap1\n      dup3\n      add\n        /* \"#utility.yul\":16894:16924   */\n      mstore\n        /* \"#utility.yul\":16960:16994   */\n      0x455243313135353a206275726e20616d6f756e7420657863656564732062616c\n        /* \"#utility.yul\":16955:16957   */\n      0x40\n        /* \"#utility.yul\":16940:16958   */\n      dup3\n      add\n        /* \"#utility.yul\":16933:16995   */\n      mstore\n      shl(0xe0, 0x616e6365)\n        /* \"#utility.yul\":17026:17028   */\n      0x60\n        /* \"#utility.yul\":17011:17029   */\n      dup3\n      add\n        /* \"#utility.yul\":17004:17038   */\n      mstore\n        /* \"#utility.yul\":17070:17073   */\n      0x80\n        /* \"#utility.yul\":17055:17074   */\n      add\n      swap1\n        /* \"#utility.yul\":16680:17080   */\n      jump\t// out\n        /* \"#utility.yul\":17748:18575   */\n    tag_367:\n      sub(shl(0xa0, 0x01), 0x01)\n        /* \"#utility.yul\":18145:18160   */\n      dup7\n      dup2\n      and\n        /* \"#utility.yul\":18127:18161   */\n      dup3\n      mstore\n        /* \"#utility.yul\":18197:18212   */\n      dup6\n      and\n        /* \"#utility.yul\":18192:18194   */\n      0x20\n        /* \"#utility.yul\":18177:18195   */\n      dup3\n      add\n        /* \"#utility.yul\":18170:18213   */\n      mstore\n        /* \"#utility.yul\":18107:18110   */\n      0xa0\n        /* \"#utility.yul\":18244:18246   */\n      0x40\n        /* \"#utility.yul\":18229:18247   */\n      dup3\n      add\n        /* \"#utility.yul\":18222:18253   */\n      dup2\n      swap1\n      mstore\n        /* \"#utility.yul\":18070:18074   */\n      0x00\n      swap1\n        /* \"#utility.yul\":18276:18333   */\n      tag_578\n      swap1\n        /* \"#utility.yul\":18313:18332   */\n      dup4\n      add\n        /* \"#utility.yul\":18305:18311   */\n      dup7\n        /* \"#utility.yul\":18276:18333   */\n      tag_431\n      jump\t// in\n    tag_578:\n        /* \"#utility.yul\":18381:18390   */\n      dup3\n        /* \"#utility.yul\":18373:18379   */\n      dup2\n        /* \"#utility.yul\":18369:18391   */\n      sub\n        /* \"#utility.yul\":18364:18366   */\n      0x60\n        /* \"#utility.yul\":18353:18362   */\n      dup5\n        /* \"#utility.yul\":18349:18367   */\n      add\n        /* \"#utility.yul\":18342:18392   */\n      mstore\n        /* \"#utility.yul\":18415:18459   */\n      tag_579\n        /* \"#utility.yul\":18452:18458   */\n      dup2\n        /* \"#utility.yul\":18444:18450   */\n      dup7\n        /* \"#utility.yul\":18415:18459   */\n      tag_431\n      jump\t// in\n    tag_579:\n        /* \"#utility.yul\":18401:18459   */\n      swap1\n      pop\n        /* \"#utility.yul\":18508:18517   */\n      dup3\n        /* \"#utility.yul\":18500:18506   */\n      dup2\n        /* \"#utility.yul\":18496:18518   */\n      sub\n        /* \"#utility.yul\":18490:18493   */\n      0x80\n        /* \"#utility.yul\":18479:18488   */\n      dup5\n        /* \"#utility.yul\":18475:18494   */\n      add\n        /* \"#utility.yul\":18468:18519   */\n      mstore\n        /* \"#utility.yul\":18536:18569   */\n      tag_580\n        /* \"#utility.yul\":18562:18568   */\n      dup2\n        /* \"#utility.yul\":18554:18560   */\n      dup6\n        /* \"#utility.yul\":18536:18569   */\n      tag_426\n      jump\t// in\n    tag_580:\n        /* \"#utility.yul\":18528:18569   */\n      swap9\n        /* \"#utility.yul\":17748:18575   */\n      swap8\n      pop\n      pop\n      pop\n      pop\n      pop\n      pop\n      pop\n      pop\n      jump\t// out\n        /* \"#utility.yul\":18580:18829   */\n    tag_370:\n        /* \"#utility.yul\":18649:18655   */\n      0x00\n        /* \"#utility.yul\":18702:18704   */\n      0x20\n        /* \"#utility.yul\":18690:18699   */\n      dup3\n        /* \"#utility.yul\":18681:18688   */\n      dup5\n        /* \"#utility.yul\":18677:18700   */\n      sub\n        /* \"#utility.yul\":18673:18705   */\n      slt\n        /* \"#utility.yul\":18670:18722   */\n      iszero\n      tag_582\n      jumpi\n        /* \"#utility.yul\":18718:18719   */\n      0x00\n        /* \"#utility.yul\":18715:18716   */\n      dup1\n        /* \"#utility.yul\":18708:18720   */\n      revert\n        /* \"#utility.yul\":18670:18722   */\n    tag_582:\n        /* \"#utility.yul\":18750:18759   */\n      dup2\n        /* \"#utility.yul\":18744:18760   */\n      mload\n        /* \"#utility.yul\":18769:18799   */\n      tag_444\n        /* \"#utility.yul\":18793:18798   */\n      dup2\n        /* \"#utility.yul\":18769:18799   */\n      tag_425\n      jump\t// in\n        /* \"#utility.yul\":18834:19013   */\n    tag_376:\n        /* \"#utility.yul\":18869:18872   */\n      0x00\n        /* \"#utility.yul\":18911:18912   */\n      0x03\n        /* \"#utility.yul\":18893:18909   */\n      returndatasize\n        /* \"#utility.yul\":18890:18913   */\n      gt\n        /* \"#utility.yul\":18887:19007   */\n      iszero\n      tag_585\n      jumpi\n        /* \"#utility.yul\":18957:18958   */\n      0x04\n        /* \"#utility.yul\":18954:18955   */\n      0x00\n        /* \"#utility.yul\":18951:18952   */\n      dup1\n        /* \"#utility.yul\":18936:18959   */\n      returndatacopy\n      pop\n        /* \"#utility.yul\":18994:18995   */\n      0x00\n        /* \"#utility.yul\":18988:18996   */\n      mload\n        /* \"#utility.yul\":18983:18986   */\n      0xe0\n        /* \"#utility.yul\":18979:18997   */\n      shr\n        /* \"#utility.yul\":18887:19007   */\n    tag_585:\n        /* \"#utility.yul\":18834:19013   */\n      swap1\n      jump\t// out\n        /* \"#utility.yul\":19018:19689   */\n    tag_378:\n        /* \"#utility.yul\":19057:19060   */\n      0x00\n        /* \"#utility.yul\":19099:19103   */\n      0x44\n        /* \"#utility.yul\":19081:19097   */\n      returndatasize\n        /* \"#utility.yul\":19078:19104   */\n      lt\n        /* \"#utility.yul\":19075:19114   */\n      iszero\n      tag_587\n      jumpi\n        /* \"#utility.yul\":19018:19689   */\n      swap1\n      jump\t// out\n        /* \"#utility.yul\":19075:19114   */\n    tag_587:\n        /* \"#utility.yul\":19141:19143   */\n      0x40\n        /* \"#utility.yul\":19135:19144   */\n      mload\n      not(0x03)\n        /* \"#utility.yul\":19206:19222   */\n      returndatasize\n        /* \"#utility.yul\":19202:19227   */\n      dup2\n      add\n        /* \"#utility.yul\":19199:19200   */\n      0x04\n        /* \"#utility.yul\":19135:19144   */\n      dup4\n        /* \"#utility.yul\":19178:19228   */\n      returndatacopy\n        /* \"#utility.yul\":19257:19261   */\n      dup2\n        /* \"#utility.yul\":19251:19262   */\n      mload\n        /* \"#utility.yul\":19281:19297   */\n      returndatasize\n        /* \"#utility.yul\":19316:19334   */\n      0xffffffffffffffff\n        /* \"#utility.yul\":19387:19389   */\n      dup2\n        /* \"#utility.yul\":19380:19384   */\n      0x24\n        /* \"#utility.yul\":19372:19378   */\n      dup5\n        /* \"#utility.yul\":19368:19385   */\n      add\n        /* \"#utility.yul\":19365:19390   */\n      gt\n        /* \"#utility.yul\":19360:19362   */\n      dup2\n        /* \"#utility.yul\":19352:19358   */\n      dup5\n        /* \"#utility.yul\":19349:19363   */\n      gt\n        /* \"#utility.yul\":19346:19391   */\n      or\n        /* \"#utility.yul\":19343:19401   */\n      iszero\n      tag_588\n      jumpi\n        /* \"#utility.yul\":19394:19399   */\n      pop\n      pop\n      pop\n      pop\n      pop\n        /* \"#utility.yul\":19018:19689   */\n      swap1\n      jump\t// out\n        /* \"#utility.yul\":19343:19401   */\n    tag_588:\n        /* \"#utility.yul\":19431:19437   */\n      dup3\n        /* \"#utility.yul\":19425:19429   */\n      dup6\n        /* \"#utility.yul\":19421:19438   */\n      add\n        /* \"#utility.yul\":19410:19438   */\n      swap2\n      pop\n        /* \"#utility.yul\":19467:19470   */\n      dup2\n        /* \"#utility.yul\":19461:19471   */\n      mload\n        /* \"#utility.yul\":19494:19496   */\n      dup2\n        /* \"#utility.yul\":19486:19492   */\n      dup2\n        /* \"#utility.yul\":19483:19497   */\n      gt\n        /* \"#utility.yul\":19480:19507   */\n      iszero\n      tag_589\n      jumpi\n        /* \"#utility.yul\":19500:19505   */\n      pop\n      pop\n      pop\n      pop\n      pop\n      pop\n        /* \"#utility.yul\":19018:19689   */\n      swap1\n      jump\t// out\n        /* \"#utility.yul\":19480:19507   */\n    tag_589:\n        /* \"#utility.yul\":19584:19586   */\n      dup5\n        /* \"#utility.yul\":19565:19581   */\n      returndatasize\n        /* \"#utility.yul\":19559:19563   */\n      dup8\n        /* \"#utility.yul\":19555:19582   */\n      add\n        /* \"#utility.yul\":19551:19587   */\n      add\n        /* \"#utility.yul\":19544:19548   */\n      0x20\n        /* \"#utility.yul\":19535:19541   */\n      dup3\n        /* \"#utility.yul\":19530:19533   */\n      dup6\n        /* \"#utility.yul\":19526:19542   */\n      add\n        /* \"#utility.yul\":19522:19549   */\n      add\n        /* \"#utility.yul\":19519:19588   */\n      gt\n        /* \"#utility.yul\":19516:19598   */\n      iszero\n      tag_590\n      jumpi\n        /* \"#utility.yul\":19591:19596   */\n      pop\n      pop\n      pop\n      pop\n      pop\n      pop\n        /* \"#utility.yul\":19018:19689   */\n      swap1\n      jump\t// out\n        /* \"#utility.yul\":19516:19598   */\n    tag_590:\n        /* \"#utility.yul\":19607:19664   */\n      tag_591\n        /* \"#utility.yul\":19658:19662   */\n      0x20\n        /* \"#utility.yul\":19649:19655   */\n      dup3\n        /* \"#utility.yul\":19641:19647   */\n      dup7\n        /* \"#utility.yul\":19637:19656   */\n      add\n        /* \"#utility.yul\":19633:19663   */\n      add\n        /* \"#utility.yul\":19627:19631   */\n      dup8\n        /* \"#utility.yul\":19607:19664   */\n      tag_427\n      jump\t// in\n    tag_591:\n      pop\n        /* \"#utility.yul\":19680:19683   */\n      swap1\n      swap6\n        /* \"#utility.yul\":19018:19689   */\n      swap5\n      pop\n      pop\n      pop\n      pop\n      pop\n      jump\t// out\n        /* \"#utility.yul\":20115:20519   */\n    tag_386:\n        /* \"#utility.yul\":20317:20319   */\n      0x20\n        /* \"#utility.yul\":20299:20320   */\n      dup1\n      dup3\n      mstore\n        /* \"#utility.yul\":20356:20358   */\n      0x28\n        /* \"#utility.yul\":20336:20354   */\n      swap1\n      dup3\n      add\n        /* \"#utility.yul\":20329:20359   */\n      mstore\n        /* \"#utility.yul\":20395:20429   */\n      0x455243313135353a204552433131353552656365697665722072656a65637465\n        /* \"#utility.yul\":20390:20392   */\n      0x40\n        /* \"#utility.yul\":20375:20393   */\n      dup3\n      add\n        /* \"#utility.yul\":20368:20430   */\n      mstore\n      shl(0xc0, 0x6420746f6b656e73)\n        /* \"#utility.yul\":20461:20463   */\n      0x60\n        /* \"#utility.yul\":20446:20464   */\n      dup3\n      add\n        /* \"#utility.yul\":20439:20477   */\n      mstore\n        /* \"#utility.yul\":20509:20512   */\n      0x80\n        /* \"#utility.yul\":20494:20513   */\n      add\n      swap1\n        /* \"#utility.yul\":20115:20519   */\n      jump\t// out\n        /* \"#utility.yul\":20873:21434   */\n    tag_402:\n      sub(shl(0xa0, 0x01), 0x01)\n        /* \"#utility.yul\":21170:21185   */\n      dup7\n      dup2\n      and\n        /* \"#utility.yul\":21152:21186   */\n      dup3\n      mstore\n        /* \"#utility.yul\":21222:21237   */\n      dup6\n      and\n        /* \"#utility.yul\":21217:21219   */\n      0x20\n        /* \"#utility.yul\":21202:21220   */\n      dup3\n      add\n        /* \"#utility.yul\":21195:21238   */\n      mstore\n        /* \"#utility.yul\":21269:21271   */\n      0x40\n        /* \"#utility.yul\":21254:21272   */\n      dup2\n      add\n        /* \"#utility.yul\":21247:21281   */\n      dup5\n      swap1\n      mstore\n        /* \"#utility.yul\":21312:21314   */\n      0x60\n        /* \"#utility.yul\":21297:21315   */\n      dup2\n      add\n        /* \"#utility.yul\":21290:21324   */\n      dup4\n      swap1\n      mstore\n        /* \"#utility.yul\":21132:21135   */\n      0xa0\n        /* \"#utility.yul\":21355:21358   */\n      0x80\n        /* \"#utility.yul\":21340:21359   */\n      dup3\n      add\n        /* \"#utility.yul\":21333:21365   */\n      dup2\n      swap1\n      mstore\n        /* \"#utility.yul\":21095:21099   */\n      0x00\n      swap1\n        /* \"#utility.yul\":21382:21428   */\n      tag_596\n      swap1\n        /* \"#utility.yul\":21408:21427   */\n      dup4\n      add\n        /* \"#utility.yul\":21400:21406   */\n      dup5\n        /* \"#utility.yul\":21382:21428   */\n      tag_426\n      jump\t// in\n    tag_596:\n        /* \"#utility.yul\":21374:21428   */\n      swap8\n        /* \"#utility.yul\":20873:21434   */\n      swap7\n      pop\n      pop\n      pop\n      pop\n      pop\n      pop\n      pop\n      jump\t// out\n\n    auxdata: 0xa2646970667358221220e4820fa1c711372149c4bfc06f86c6e696624032dec34e37a1835ec35e443f2764736f6c63430008120033\n}\n",
				"bytecode": {
					"linkReferences": {},
					"object": "60806040523480156200001157600080fd5b50604080518082019091526002815261111560f21b6020820152620000368162000052565b506003805460ff191690556200004c3362000064565b6200022f565b600262000060828262000163565b5050565b600380546001600160a01b03838116610100818102610100600160a81b031985161790945560405193909204169182907f8be0079c531659141344cd1fd0a4f28419497f9722a3daafe3b4186f6b6457e090600090a35050565b634e487b7160e01b600052604160045260246000fd5b600181811c90821680620000e957607f821691505b6020821081036200010a57634e487b7160e01b600052602260045260246000fd5b50919050565b601f8211156200015e57600081815260208120601f850160051c81016020861015620001395750805b601f850160051c820191505b818110156200015a5782815560010162000145565b5050505b505050565b81516001600160401b038111156200017f576200017f620000be565b6200019781620001908454620000d4565b8462000110565b602080601f831160018114620001cf5760008415620001b65750858301515b600019600386901b1c1916600185901b1785556200015a565b600085815260208120601f198616915b828110156200020057888601518255948401946001909101908401620001df565b50858210156200021f5787850151600019600388901b60f8161c191681555b5050505050600190811b01905550565b612016806200023f6000396000f3fe608060405234801561001057600080fd5b50600436106101205760003560e01c8063715018a6116100ad578063d501dc3711610071578063d501dc371461025b578063e985e9c51461026e578063f242432a146102aa578063f2fde38b146102bd578063f5298aca146102d057600080fd5b8063715018a6146101fc578063731133e9146102045780638456cb59146102175780638da5cb5b1461021f578063a22cb4651461024857600080fd5b80632eb2c2d6116100f45780632eb2c2d6146101a35780633f4ba83a146101b65780634e1273f4146101be5780635c975abb146101de5780636b20c454146101e957600080fd5b8062fdd58e1461012557806301ffc9a71461014b5780630e89341c1461016e5780631f7fdffa1461018e575b600080fd5b6101386101333660046114cc565b6102e3565b6040519081526020015b60405180910390f35b61015e61015936600461150c565b61037c565b6040519015158152602001610142565b61018161017c366004611530565b6103cc565b604051610142919061158f565b6101a161019c3660046116ee565b610460565b005b6101a16101b1366004611787565b61047a565b6101a16104c6565b6101d16101cc366004611831565b6104d8565b6040516101429190611937565b60035460ff1661015e565b6101a16101f736600461194a565b610602565b6101a161064a565b6101a16102123660046119be565b61065c565b6101a1610670565b60035461010090046001600160a01b03166040516001600160a01b039091168152602001610142565b6101a1610256366004611a13565b610680565b6101a1610269366004611a4f565b61068f565b61015e61027c366004611a9f565b6001600160a01b03918216600090815260016020908152604080832093909416825291909152205460ff1690565b6101a16102b8366004611ad2565b6106b0565b6101a16102cb366004611b37565b6106f5565b6101a16102de366004611b52565b61076e565b60006001600160a01b0383166103535760405162461bcd60e51b815260206004820152602a60248201527f455243313135353a2061646472657373207a65726f206973206e6f742061207660448201526930b634b21037bbb732b960b11b60648201526084015b60405180910390fd5b506000818152602081815260408083206001600160a01b03861684529091529020545b92915050565b60006001600160e01b03198216636cdb3d1360e11b14806103ad57506001600160e01b031982166303a24d0760e21b145b8061037657506301ffc9a760e01b6001600160e01b0319831614610376565b6060600280546103db90611b85565b80601f016020809104026020016040519081016040528092919081815260200182805461040790611b85565b80156104545780601f1061042957610100808354040283529160200191610454565b820191906000526020600020905b81548152906001019060200180831161043757829003601f168201915b50505050509050919050565b6104686107b1565b61047484848484610811565b50505050565b6001600160a01b0385163314806104965750610496853361027c565b6104b25760405162461bcd60e51b815260040161034a90611bbf565b6104bf858585858561096b565b5050505050565b6104ce6107b1565b6104d6610b15565b565b6060815183511461053d5760405162461bcd60e51b815260206004820152602960248201527f455243313135353a206163636f756e747320616e6420696473206c656e677468604482015268040dad2e6dac2e8c6d60bb1b606482015260840161034a565b6000835167ffffffffffffffff811115610559576105596115a2565b604051908082528060200260200182016040528015610582578160200160208202803683370190505b50905060005b84518110156105fa576105cd8582815181106105a6576105a6611c0d565b60200260200101518583815181106105c0576105c0611c0d565b60200260200101516102e3565b8282815181106105df576105df611c0d565b60209081029190910101526105f381611c39565b9050610588565b509392505050565b6001600160a01b03831633148061061e575061061e833361027c565b61063a5760405162461bcd60e51b815260040161034a90611bbf565b610645838383610b67565b505050565b6106526107b1565b6104d66000610d03565b6106646107b1565b61047484848484610d5d565b6106786107b1565b6104d6610e46565b61068b338383610e83565b5050565b6106976107b1565b61064583836bffffffffffffffffffffffff1683610f63565b6001600160a01b0385163314806106cc57506106cc853361027c565b6106e85760405162461bcd60e51b815260040161034a90611bbf565b6104bf858585858561107b565b6106fd6107b1565b6001600160a01b0381166107625760405162461bcd60e51b815260206004820152602660248201527f4f776e61626c653a206e6577206f776e657220697320746865207a65726f206160448201526564647265737360d01b606482015260840161034a565b61076b81610d03565b50565b6001600160a01b03831633148061078a575061078a833361027c565b6107a65760405162461bcd60e51b815260040161034a90611bbf565b610645838383610f63565b6003546001600160a01b036101009091041633146104d65760405162461bcd60e51b815260206004820181905260248201527f4f776e61626c653a2063616c6c6572206973206e6f7420746865206f776e6572604482015260640161034a565b6001600160a01b0384166108375760405162461bcd60e51b815260040161034a90611c52565b81518351146108585760405162461bcd60e51b815260040161034a90611c93565b33610868816000878787876111b3565b60005b84518110156109035783818151811061088657610886611c0d565b60200260200101516000808784815181106108a3576108a3611c0d565b602002602001015181526020019081526020016000206000886001600160a01b03166001600160a01b0316815260200190815260200160002060008282546108eb9190611cdb565b909155508190506108fb81611c39565b91505061086b565b50846001600160a01b031660006001600160a01b0316826001600160a01b03167f4a39dc06d4c0dbc64b70af90fd698a233a518aa5d07e595d983b8c0526c8f7fb8787604051610954929190611cee565b60405180910390a46104bf816000878787876111c0565b815183511461098c5760405162461bcd60e51b815260040161034a90611c93565b6001600160a01b0384166109b25760405162461bcd60e51b815260040161034a90611d1c565b336109c18187878787876111b3565b60005b8451811015610aa75760008582815181106109e1576109e1611c0d565b6020026020010151905060008583815181106109ff576109ff611c0d565b602090810291909101810151600084815280835260408082206001600160a01b038e168352909352919091205490915081811015610a4f5760405162461bcd60e51b815260040161034a90611d61565b6000838152602081815260408083206001600160a01b038e8116855292528083208585039055908b16825281208054849290610a8c908490611cdb565b9250508190555050505080610aa090611c39565b90506109c4565b50846001600160a01b0316866001600160a01b0316826001600160a01b03167f4a39dc06d4c0dbc64b70af90fd698a233a518aa5d07e595d983b8c0526c8f7fb8787604051610af7929190611cee565b60405180910390a4610b0d8187878787876111c0565b505050505050565b610b1d61131b565b6003805460ff191690557f5db9ee0a495bf2e6ff9c91a7834c1ba4fdd244a5e8aa4e537bd38aeae4b073aa335b6040516001600160a01b03909116815260200160405180910390a1565b6001600160a01b038316610b8d5760405162461bcd60e51b815260040161034a90611dab565b8051825114610bae5760405162461bcd60e51b815260040161034a90611c93565b6000339050610bd1818560008686604051806020016040528060008152506111b3565b60005b8351811015610c96576000848281518110610bf157610bf1611c0d565b602002602001015190506000848381518110610c0f57610c0f611c0d565b602090810291909101810151600084815280835260408082206001600160a01b038c168352909352919091205490915081811015610c5f5760405162461bcd60e51b815260040161034a90611dee565b6000928352602083815260408085206001600160a01b038b1686529091529092209103905580610c8e81611c39565b915050610bd4565b5060006001600160a01b0316846001600160a01b0316826001600160a01b03167f4a39dc06d4c0dbc64b70af90fd698a233a518aa5d07e595d983b8c0526c8f7fb8686604051610ce7929190611cee565b60405180910390a4604080516020810190915260009052610474565b600380546001600160a01b03838116610100818102610100600160a81b031985161790945560405193909204169182907f8be0079c531659141344cd1fd0a4f28419497f9722a3daafe3b4186f6b6457e090600090a35050565b6001600160a01b038416610d835760405162461bcd60e51b815260040161034a90611c52565b336000610d8f85611364565b90506000610d9c85611364565b9050610dad836000898585896111b3565b6000868152602081815260408083206001600160a01b038b16845290915281208054879290610ddd908490611cdb565b909155505060408051878152602081018790526001600160a01b03808a1692600092918716917fc3d58168c5ae7397731d063d5bbf3d657854427343f4c083240f7aacaa2d0f62910160405180910390a4610e3d836000898989896113af565b50505050505050565b610e4e61146a565b6003805460ff191660011790557f62e78cea01bee320cd4e420270b5ea74000d11b0c9f74754ebdbfc544b05a258610b4a3390565b816001600160a01b0316836001600160a01b031603610ef65760405162461bcd60e51b815260206004820152602960248201527f455243313135353a2073657474696e6720617070726f76616c20737461747573604482015268103337b91039b2b63360b91b606482015260840161034a565b6001600160a01b03838116600081815260016020908152604080832094871680845294825291829020805460ff191686151590811790915591519182527f17307eab39ab6107e8899845ad3d59bd9653f200f220920489ca2b5937696c31910160405180910390a3505050565b6001600160a01b038316610f895760405162461bcd60e51b815260040161034a90611dab565b336000610f9584611364565b90506000610fa284611364565b9050610fc2838760008585604051806020016040528060008152506111b3565b6000858152602081815260408083206001600160a01b038a168452909152902054848110156110035760405162461bcd60e51b815260040161034a90611dee565b6000868152602081815260408083206001600160a01b038b81168086529184528285208a8703905582518b81529384018a90529092908816917fc3d58168c5ae7397731d063d5bbf3d657854427343f4c083240f7aacaa2d0f62910160405180910390a4604080516020810190915260009052610e3d565b6001600160a01b0384166110a15760405162461bcd60e51b815260040161034a90611d1c565b3360006110ad85611364565b905060006110ba85611364565b90506110ca8389898585896111b3565b6000868152602081815260408083206001600160a01b038c1684529091529020548581101561110b5760405162461bcd60e51b815260040161034a90611d61565b6000878152602081815260408083206001600160a01b038d8116855292528083208985039055908a16825281208054889290611148908490611cdb565b909155505060408051888152602081018890526001600160a01b03808b16928c821692918816917fc3d58168c5ae7397731d063d5bbf3d657854427343f4c083240f7aacaa2d0f62910160405180910390a46111a8848a8a8a8a8a6113af565b505050505050505050565b6111bb61146a565b610b0d565b6001600160a01b0384163b15610b0d5760405163bc197c8160e01b81526001600160a01b0385169063bc197c81906112049089908990889088908890600401611e32565b6020604051808303816000875af192505050801561123f575060408051601f3d908101601f1916820190925261123c91810190611e90565b60015b6112eb5761124b611ead565b806308c379a003611284575061125f611ec9565b8061126a5750611286565b8060405162461bcd60e51b815260040161034a919061158f565b505b60405162461bcd60e51b815260206004820152603460248201527f455243313135353a207472616e7366657220746f206e6f6e2d455243313135356044820152732932b1b2b4bb32b91034b6b83632b6b2b73a32b960611b606482015260840161034a565b6001600160e01b0319811663bc197c8160e01b14610e3d5760405162461bcd60e51b815260040161034a90611f53565b60035460ff166104d65760405162461bcd60e51b815260206004820152601460248201527314185d5cd8589b194e881b9bdd081c185d5cd95960621b604482015260640161034a565b6040805160018082528183019092526060916000919060208083019080368337019050509050828160008151811061139e5761139e611c0d565b602090810291909101015292915050565b6001600160a01b0384163b15610b0d5760405163f23a6e6160e01b81526001600160a01b0385169063f23a6e61906113f39089908990889088908890600401611f9b565b6020604051808303816000875af192505050801561142e575060408051601f3d908101601f1916820190925261142b91810190611e90565b60015b61143a5761124b611ead565b6001600160e01b0319811663f23a6e6160e01b14610e3d5760405162461bcd60e51b815260040161034a90611f53565b60035460ff16156104d65760405162461bcd60e51b815260206004820152601060248201526f14185d5cd8589b194e881c185d5cd95960821b604482015260640161034a565b80356001600160a01b03811681146114c757600080fd5b919050565b600080604083850312156114df57600080fd5b6114e8836114b0565b946020939093013593505050565b6001600160e01b03198116811461076b57600080fd5b60006020828403121561151e57600080fd5b8135611529816114f6565b9392505050565b60006020828403121561154257600080fd5b5035919050565b6000815180845260005b8181101561156f57602081850181015186830182015201611553565b506000602082860101526020601f19601f83011685010191505092915050565b6020815260006115296020830184611549565b634e487b7160e01b600052604160045260246000fd5b601f8201601f1916810167ffffffffffffffff811182821017156115de576115de6115a2565b6040525050565b600067ffffffffffffffff8211156115ff576115ff6115a2565b5060051b60200190565b600082601f83011261161a57600080fd5b81356020611627826115e5565b60405161163482826115b8565b83815260059390931b850182019282810191508684111561165457600080fd5b8286015b8481101561166f5780358352918301918301611658565b509695505050505050565b600082601f83011261168b57600080fd5b813567ffffffffffffffff8111156116a5576116a56115a2565b6040516116bc601f8301601f1916602001826115b8565b8181528460208386010111156116d157600080fd5b816020850160208301376000918101602001919091529392505050565b6000806000806080858703121561170457600080fd5b61170d856114b0565b9350602085013567ffffffffffffffff8082111561172a57600080fd5b61173688838901611609565b9450604087013591508082111561174c57600080fd5b61175888838901611609565b9350606087013591508082111561176e57600080fd5b5061177b8782880161167a565b91505092959194509250565b600080600080600060a0868803121561179f57600080fd5b6117a8866114b0565b94506117b6602087016114b0565b9350604086013567ffffffffffffffff808211156117d357600080fd5b6117df89838a01611609565b945060608801359150808211156117f557600080fd5b61180189838a01611609565b9350608088013591508082111561181757600080fd5b506118248882890161167a565b9150509295509295909350565b6000806040838503121561184457600080fd5b823567ffffffffffffffff8082111561185c57600080fd5b818501915085601f83011261187057600080fd5b8135602061187d826115e5565b60405161188a82826115b8565b83815260059390931b85018201928281019150898411156118aa57600080fd5b948201945b838610156118cf576118c0866114b0565b825294820194908201906118af565b965050860135925050808211156118e557600080fd5b506118f285828601611609565b9150509250929050565b600081518084526020808501945080840160005b8381101561192c57815187529582019590820190600101611910565b509495945050505050565b60208152600061152960208301846118fc565b60008060006060848603121561195f57600080fd5b611968846114b0565b9250602084013567ffffffffffffffff8082111561198557600080fd5b61199187838801611609565b935060408601359150808211156119a757600080fd5b506119b486828701611609565b9150509250925092565b600080600080608085870312156119d457600080fd5b6119dd856114b0565b93506020850135925060408501359150606085013567ffffffffffffffff811115611a0757600080fd5b61177b8782880161167a565b60008060408385031215611a2657600080fd5b611a2f836114b0565b915060208301358015158114611a4457600080fd5b809150509250929050565b600080600060608486031215611a6457600080fd5b611a6d846114b0565b925060208401356bffffffffffffffffffffffff81168114611a8e57600080fd5b929592945050506040919091013590565b60008060408385031215611ab257600080fd5b611abb836114b0565b9150611ac9602084016114b0565b90509250929050565b600080600080600060a08688031215611aea57600080fd5b611af3866114b0565b9450611b01602087016114b0565b93506040860135925060608601359150608086013567ffffffffffffffff811115611b2b57600080fd5b6118248882890161167a565b600060208284031215611b4957600080fd5b611529826114b0565b600080600060608486031215611b6757600080fd5b611b70846114b0565b95602085013595506040909401359392505050565b600181811c90821680611b9957607f821691505b602082108103611bb957634e487b7160e01b600052602260045260246000fd5b50919050565b6020808252602e908201527f455243313135353a2063616c6c6572206973206e6f7420746f6b656e206f776e60408201526d195c881bdc88185c1c1c9bdd995960921b606082015260800190565b634e487b7160e01b600052603260045260246000fd5b634e487b7160e01b600052601160045260246000fd5b600060018201611c4b57611c4b611c23565b5060010190565b60208082526021908201527f455243313135353a206d696e7420746f20746865207a65726f206164647265736040820152607360f81b606082015260800190565b60208082526028908201527f455243313135353a2069647320616e6420616d6f756e7473206c656e677468206040820152670dad2e6dac2e8c6d60c31b606082015260800190565b8082018082111561037657610376611c23565b604081526000611d0160408301856118fc565b8281036020840152611d1381856118fc565b95945050505050565b60208082526025908201527f455243313135353a207472616e7366657220746f20746865207a65726f206164604082015264647265737360d81b606082015260800190565b6020808252602a908201527f455243313135353a20696e73756666696369656e742062616c616e636520666f60408201526939103a3930b739b332b960b11b606082015260800190565b60208082526023908201527f455243313135353a206275726e2066726f6d20746865207a65726f206164647260408201526265737360e81b606082015260800190565b60208082526024908201527f455243313135353a206275726e20616d6f756e7420657863656564732062616c604082015263616e636560e01b606082015260800190565b6001600160a01b0386811682528516602082015260a060408201819052600090611e5e908301866118fc565b8281036060840152611e7081866118fc565b90508281036080840152611e848185611549565b98975050505050505050565b600060208284031215611ea257600080fd5b8151611529816114f6565b600060033d1115611ec65760046000803e5060005160e01c5b90565b600060443d1015611ed75790565b6040516003193d81016004833e81513d67ffffffffffffffff8160248401118184111715611f0757505050505090565b8285019150815181811115611f1f5750505050505090565b843d8701016020828501011115611f395750505050505090565b611f48602082860101876115b8565b509095945050505050565b60208082526028908201527f455243313135353a204552433131353552656365697665722072656a656374656040820152676420746f6b656e7360c01b606082015260800190565b6001600160a01b03868116825285166020820152604081018490526060810183905260a060808201819052600090611fd590830184611549565b97965050505050505056fea2646970667358221220e4820fa1c711372149c4bfc06f86c6e696624032dec34e37a1835ec35e443f2764736f6c63430008120033",
					"opcodes": "PUSH1 0x80 PUSH1 0x40 MSTORE CALLVALUE DUP1 ISZERO PUSH3 0x11 JUMPI PUSH1 0x0 DUP1 REVERT JUMPDEST POP PUSH1 0x40 DUP1 MLOAD DUP1 DUP3 ADD SWAP1 SWAP2 MSTORE PUSH1 0x2 DUP2 MSTORE PUSH2 0x1115 PUSH1 0xF2 SHL PUSH1 0x20 DUP3 ADD MSTORE PUSH3 0x36 DUP2 PUSH3 0x52 JUMP JUMPDEST POP PUSH1 0x3 DUP1 SLOAD PUSH1 0xFF NOT AND SWAP1 SSTORE PUSH3 0x4C CALLER PUSH3 0x64 JUMP JUMPDEST PUSH3 0x22F JUMP JUMPDEST PUSH1 0x2 PUSH3 0x60 DUP3 DUP3 PUSH3 0x163 JUMP JUMPDEST POP POP JUMP JUMPDEST PUSH1 0x3 DUP1 SLOAD PUSH1 0x1 PUSH1 0x1 PUSH1 0xA0 SHL SUB DUP4 DUP2 AND PUSH2 0x100 DUP2 DUP2 MUL PUSH2 0x100 PUSH1 0x1 PUSH1 0xA8 SHL SUB NOT DUP6 AND OR SWAP1 SWAP5 SSTORE PUSH1 0x40 MLOAD SWAP4 SWAP1 SWAP3 DIV AND SWAP2 DUP3 SWAP1 PUSH32 0x8BE0079C531659141344CD1FD0A4F28419497F9722A3DAAFE3B4186F6B6457E0 SWAP1 PUSH1 0x0 SWAP1 LOG3 POP POP JUMP JUMPDEST PUSH4 0x4E487B71 PUSH1 0xE0 SHL PUSH1 0x0 MSTORE PUSH1 0x41 PUSH1 0x4 MSTORE PUSH1 0x24 PUSH1 0x0 REVERT JUMPDEST PUSH1 0x1 DUP2 DUP2 SHR SWAP1 DUP3 AND DUP1 PUSH3 0xE9 JUMPI PUSH1 0x7F DUP3 AND SWAP2 POP JUMPDEST PUSH1 0x20 DUP3 LT DUP2 SUB PUSH3 0x10A JUMPI PUSH4 0x4E487B71 PUSH1 0xE0 SHL PUSH1 0x0 MSTORE PUSH1 0x22 PUSH1 0x4 MSTORE PUSH1 0x24 PUSH1 0x0 REVERT JUMPDEST POP SWAP2 SWAP1 POP JUMP JUMPDEST PUSH1 0x1F DUP3 GT ISZERO PUSH3 0x15E JUMPI PUSH1 0x0 DUP2 DUP2 MSTORE PUSH1 0x20 DUP2 KECCAK256 PUSH1 0x1F DUP6 ADD PUSH1 0x5 SHR DUP2 ADD PUSH1 0x20 DUP7 LT ISZERO PUSH3 0x139 JUMPI POP DUP1 JUMPDEST PUSH1 0x1F DUP6 ADD PUSH1 0x5 SHR DUP3 ADD SWAP2 POP JUMPDEST DUP2 DUP2 LT ISZERO PUSH3 0x15A JUMPI DUP3 DUP2 SSTORE PUSH1 0x1 ADD PUSH3 0x145 JUMP JUMPDEST POP POP POP JUMPDEST POP POP POP JUMP JUMPDEST DUP2 MLOAD PUSH1 0x1 PUSH1 0x1 PUSH1 0x40 SHL SUB DUP2 GT ISZERO PUSH3 0x17F JUMPI PUSH3 0x17F PUSH3 0xBE JUMP JUMPDEST PUSH3 0x197 DUP2 PUSH3 0x190 DUP5 SLOAD PUSH3 0xD4 JUMP JUMPDEST DUP5 PUSH3 0x110 JUMP JUMPDEST PUSH1 0x20 DUP1 PUSH1 0x1F DUP4 GT PUSH1 0x1 DUP2 EQ PUSH3 0x1CF JUMPI PUSH1 0x0 DUP5 ISZERO PUSH3 0x1B6 JUMPI POP DUP6 DUP4 ADD MLOAD JUMPDEST PUSH1 0x0 NOT PUSH1 0x3 DUP7 SWAP1 SHL SHR NOT AND PUSH1 0x1 DUP6 SWAP1 SHL OR DUP6 SSTORE PUSH3 0x15A JUMP JUMPDEST PUSH1 0x0 DUP6 DUP2 MSTORE PUSH1 0x20 DUP2 KECCAK256 PUSH1 0x1F NOT DUP7 AND SWAP2 JUMPDEST DUP3 DUP2 LT ISZERO PUSH3 0x200 JUMPI DUP9 DUP7 ADD MLOAD DUP3 SSTORE SWAP5 DUP5 ADD SWAP5 PUSH1 0x1 SWAP1 SWAP2 ADD SWAP1 DUP5 ADD PUSH3 0x1DF JUMP JUMPDEST POP DUP6 DUP3 LT ISZERO PUSH3 0x21F JUMPI DUP8 DUP6 ADD MLOAD PUSH1 0x0 NOT PUSH1 0x3 DUP9 SWAP1 SHL PUSH1 0xF8 AND SHR NOT AND DUP2 SSTORE JUMPDEST POP POP POP POP POP PUSH1 0x1 SWAP1 DUP2 SHL ADD SWAP1 SSTORE POP JUMP JUMPDEST PUSH2 0x2016 DUP1 PUSH3 0x23F PUSH1 0x0 CODECOPY PUSH1 0x0 RETURN INVALID PUSH1 0x80 PUSH1 0x40 MSTORE CALLVALUE DUP1 ISZERO PUSH2 0x10 JUMPI PUSH1 0x0 DUP1 REVERT JUMPDEST POP PUSH1 0x4 CALLDATASIZE LT PUSH2 0x120 JUMPI PUSH1 0x0 CALLDATALOAD PUSH1 0xE0 SHR DUP1 PUSH4 0x715018A6 GT PUSH2 0xAD JUMPI DUP1 PUSH4 0xD501DC37 GT PUSH2 0x71 JUMPI DUP1 PUSH4 0xD501DC37 EQ PUSH2 0x25B JUMPI DUP1 PUSH4 0xE985E9C5 EQ PUSH2 0x26E JUMPI DUP1 PUSH4 0xF242432A EQ PUSH2 0x2AA JUMPI DUP1 PUSH4 0xF2FDE38B EQ PUSH2 0x2BD JUMPI DUP1 PUSH4 0xF5298ACA EQ PUSH2 0x2D0 JUMPI PUSH1 0x0 DUP1 REVERT JUMPDEST DUP1 PUSH4 0x715018A6 EQ PUSH2 0x1FC JUMPI DUP1 PUSH4 0x731133E9 EQ PUSH2 0x204 JUMPI DUP1 PUSH4 0x8456CB59 EQ PUSH2 0x217 JUMPI DUP1 PUSH4 0x8DA5CB5B EQ PUSH2 0x21F JUMPI DUP1 PUSH4 0xA22CB465 EQ PUSH2 0x248 JUMPI PUSH1 0x0 DUP1 REVERT JUMPDEST DUP1 PUSH4 0x2EB2C2D6 GT PUSH2 0xF4 JUMPI DUP1 PUSH4 0x2EB2C2D6 EQ PUSH2 0x1A3 JUMPI DUP1 PUSH4 0x3F4BA83A EQ PUSH2 0x1B6 JUMPI DUP1 PUSH4 0x4E1273F4 EQ PUSH2 0x1BE JUMPI DUP1 PUSH4 0x5C975ABB EQ PUSH2 0x1DE JUMPI DUP1 PUSH4 0x6B20C454 EQ PUSH2 0x1E9 JUMPI PUSH1 0x0 DUP1 REVERT JUMPDEST DUP1 PUSH3 0xFDD58E EQ PUSH2 0x125 JUMPI DUP1 PUSH4 0x1FFC9A7 EQ PUSH2 0x14B JUMPI DUP1 PUSH4 0xE89341C EQ PUSH2 0x16E JUMPI DUP1 PUSH4 0x1F7FDFFA EQ PUSH2 0x18E JUMPI JUMPDEST PUSH1 0x0 DUP1 REVERT JUMPDEST PUSH2 0x138 PUSH2 0x133 CALLDATASIZE PUSH1 0x4 PUSH2 0x14CC JUMP JUMPDEST PUSH2 0x2E3 JUMP JUMPDEST PUSH1 0x40 MLOAD SWAP1 DUP2 MSTORE PUSH1 0x20 ADD JUMPDEST PUSH1 0x40 MLOAD DUP1 SWAP2 SUB SWAP1 RETURN JUMPDEST PUSH2 0x15E PUSH2 0x159 CALLDATASIZE PUSH1 0x4 PUSH2 0x150C JUMP JUMPDEST PUSH2 0x37C JUMP JUMPDEST PUSH1 0x40 MLOAD SWAP1 ISZERO ISZERO DUP2 MSTORE PUSH1 0x20 ADD PUSH2 0x142 JUMP JUMPDEST PUSH2 0x181 PUSH2 0x17C CALLDATASIZE PUSH1 0x4 PUSH2 0x1530 JUMP JUMPDEST PUSH2 0x3CC JUMP JUMPDEST PUSH1 0x40 MLOAD PUSH2 0x142 SWAP2 SWAP1 PUSH2 0x158F JUMP JUMPDEST PUSH2 0x1A1 PUSH2 0x19C CALLDATASIZE PUSH1 0x4 PUSH2 0x16EE JUMP JUMPDEST PUSH2 0x460 JUMP JUMPDEST STOP JUMPDEST PUSH2 0x1A1 PUSH2 0x1B1 CALLDATASIZE PUSH1 0x4 PUSH2 0x1787 JUMP JUMPDEST PUSH2 0x47A JUMP JUMPDEST PUSH2 0x1A1 PUSH2 0x4C6 JUMP JUMPDEST PUSH2 0x1D1 PUSH2 0x1CC CALLDATASIZE PUSH1 0x4 PUSH2 0x1831 JUMP JUMPDEST PUSH2 0x4D8 JUMP JUMPDEST PUSH1 0x40 MLOAD PUSH2 0x142 SWAP2 SWAP1 PUSH2 0x1937 JUMP JUMPDEST PUSH1 0x3 SLOAD PUSH1 0xFF AND PUSH2 0x15E JUMP JUMPDEST PUSH2 0x1A1 PUSH2 0x1F7 CALLDATASIZE PUSH1 0x4 PUSH2 0x194A JUMP JUMPDEST PUSH2 0x602 JUMP JUMPDEST PUSH2 0x1A1 PUSH2 0x64A JUMP JUMPDEST PUSH2 0x1A1 PUSH2 0x212 CALLDATASIZE PUSH1 0x4 PUSH2 0x19BE JUMP JUMPDEST PUSH2 0x65C JUMP JUMPDEST PUSH2 0x1A1 PUSH2 0x670 JUMP JUMPDEST PUSH1 0x3 SLOAD PUSH2 0x100 SWAP1 DIV PUSH1 0x1 PUSH1 0x1 PUSH1 0xA0 SHL SUB AND PUSH1 0x40 MLOAD PUSH1 0x1 PUSH1 0x1 PUSH1 0xA0 SHL SUB SWAP1 SWAP2 AND DUP2 MSTORE PUSH1 0x20 ADD PUSH2 0x142 JUMP JUMPDEST PUSH2 0x1A1 PUSH2 0x256 CALLDATASIZE PUSH1 0x4 PUSH2 0x1A13 JUMP JUMPDEST PUSH2 0x680 JUMP JUMPDEST PUSH2 0x1A1 PUSH2 0x269 CALLDATASIZE PUSH1 0x4 PUSH2 0x1A4F JUMP JUMPDEST PUSH2 0x68F JUMP JUMPDEST PUSH2 0x15E PUSH2 0x27C CALLDATASIZE PUSH1 0x4 PUSH2 0x1A9F JUMP JUMPDEST PUSH1 0x1 PUSH1 0x1 PUSH1 0xA0 SHL SUB SWAP2 DUP3 AND PUSH1 0x0 SWAP1 DUP2 MSTORE PUSH1 0x1 PUSH1 0x20 SWAP1 DUP2 MSTORE PUSH1 0x40 DUP1 DUP4 KECCAK256 SWAP4 SWAP1 SWAP5 AND DUP3 MSTORE SWAP2 SWAP1 SWAP2 MSTORE KECCAK256 SLOAD PUSH1 0xFF AND SWAP1 JUMP JUMPDEST PUSH2 0x1A1 PUSH2 0x2B8 CALLDATASIZE PUSH1 0x4 PUSH2 0x1AD2 JUMP JUMPDEST PUSH2 0x6B0 JUMP JUMPDEST PUSH2 0x1A1 PUSH2 0x2CB CALLDATASIZE PUSH1 0x4 PUSH2 0x1B37 JUMP JUMPDEST PUSH2 0x6F5 JUMP JUMPDEST PUSH2 0x1A1 PUSH2 0x2DE CALLDATASIZE PUSH1 0x4 PUSH2 0x1B52 JUMP JUMPDEST PUSH2 0x76E JUMP JUMPDEST PUSH1 0x0 PUSH1 0x1 PUSH1 0x1 PUSH1 0xA0 SHL SUB DUP4 AND PUSH2 0x353 JUMPI PUSH1 0x40 MLOAD PUSH3 0x461BCD PUSH1 0xE5 SHL DUP2 MSTORE PUSH1 0x20 PUSH1 0x4 DUP3 ADD MSTORE PUSH1 0x2A PUSH1 0x24 DUP3 ADD MSTORE PUSH32 0x455243313135353A2061646472657373207A65726F206973206E6F7420612076 PUSH1 0x44 DUP3 ADD MSTORE PUSH10 0x30B634B21037BBB732B9 PUSH1 0xB1 SHL PUSH1 0x64 DUP3 ADD MSTORE PUSH1 0x84 ADD JUMPDEST PUSH1 0x40 MLOAD DUP1 SWAP2 SUB SWAP1 REVERT JUMPDEST POP PUSH1 0x0 DUP2 DUP2 MSTORE PUSH1 0x20 DUP2 DUP2 MSTORE PUSH1 0x40 DUP1 DUP4 KECCAK256 PUSH1 0x1 PUSH1 0x1 PUSH1 0xA0 SHL SUB DUP7 AND DUP5 MSTORE SWAP1 SWAP2 MSTORE SWAP1 KECCAK256 SLOAD JUMPDEST SWAP3 SWAP2 POP POP JUMP JUMPDEST PUSH1 0x0 PUSH1 0x1 PUSH1 0x1 PUSH1 0xE0 SHL SUB NOT DUP3 AND PUSH4 0x6CDB3D13 PUSH1 0xE1 SHL EQ DUP1 PUSH2 0x3AD JUMPI POP PUSH1 0x1 PUSH1 0x1 PUSH1 0xE0 SHL SUB NOT DUP3 AND PUSH4 0x3A24D07 PUSH1 0xE2 SHL EQ JUMPDEST DUP1 PUSH2 0x376 JUMPI POP PUSH4 0x1FFC9A7 PUSH1 0xE0 SHL PUSH1 0x1 PUSH1 0x1 PUSH1 0xE0 SHL SUB NOT DUP4 AND EQ PUSH2 0x376 JUMP JUMPDEST PUSH1 0x60 PUSH1 0x2 DUP1 SLOAD PUSH2 0x3DB SWAP1 PUSH2 0x1B85 JUMP JUMPDEST DUP1 PUSH1 0x1F ADD PUSH1 0x20 DUP1 SWAP2 DIV MUL PUSH1 0x20 ADD PUSH1 0x40 MLOAD SWAP1 DUP2 ADD PUSH1 0x40 MSTORE DUP1 SWAP3 SWAP2 SWAP1 DUP2 DUP2 MSTORE PUSH1 0x20 ADD DUP3 DUP1 SLOAD PUSH2 0x407 SWAP1 PUSH2 0x1B85 JUMP JUMPDEST DUP1 ISZERO PUSH2 0x454 JUMPI DUP1 PUSH1 0x1F LT PUSH2 0x429 JUMPI PUSH2 0x100 DUP1 DUP4 SLOAD DIV MUL DUP4 MSTORE SWAP2 PUSH1 0x20 ADD SWAP2 PUSH2 0x454 JUMP JUMPDEST DUP3 ADD SWAP2 SWAP1 PUSH1 0x0 MSTORE PUSH1 0x20 PUSH1 0x0 KECCAK256 SWAP1 JUMPDEST DUP2 SLOAD DUP2 MSTORE SWAP1 PUSH1 0x1 ADD SWAP1 PUSH1 0x20 ADD DUP1 DUP4 GT PUSH2 0x437 JUMPI DUP3 SWAP1 SUB PUSH1 0x1F AND DUP3 ADD SWAP2 JUMPDEST POP POP POP POP POP SWAP1 POP SWAP2 SWAP1 POP JUMP JUMPDEST PUSH2 0x468 PUSH2 0x7B1 JUMP JUMPDEST PUSH2 0x474 DUP5 DUP5 DUP5 DUP5 PUSH2 0x811 JUMP JUMPDEST POP POP POP POP JUMP JUMPDEST PUSH1 0x1 PUSH1 0x1 PUSH1 0xA0 SHL SUB DUP6 AND CALLER EQ DUP1 PUSH2 0x496 JUMPI POP PUSH2 0x496 DUP6 CALLER PUSH2 0x27C JUMP JUMPDEST PUSH2 0x4B2 JUMPI PUSH1 0x40 MLOAD PUSH3 0x461BCD PUSH1 0xE5 SHL DUP2 MSTORE PUSH1 0x4 ADD PUSH2 0x34A SWAP1 PUSH2 0x1BBF JUMP JUMPDEST PUSH2 0x4BF DUP6 DUP6 DUP6 DUP6 DUP6 PUSH2 0x96B JUMP JUMPDEST POP POP POP POP POP JUMP JUMPDEST PUSH2 0x4CE PUSH2 0x7B1 JUMP JUMPDEST PUSH2 0x4D6 PUSH2 0xB15 JUMP JUMPDEST JUMP JUMPDEST PUSH1 0x60 DUP2 MLOAD DUP4 MLOAD EQ PUSH2 0x53D JUMPI PUSH1 0x40 MLOAD PUSH3 0x461BCD PUSH1 0xE5 SHL DUP2 MSTORE PUSH1 0x20 PUSH1 0x4 DUP3 ADD MSTORE PUSH1 0x29 PUSH1 0x24 DUP3 ADD MSTORE PUSH32 0x455243313135353A206163636F756E747320616E6420696473206C656E677468 PUSH1 0x44 DUP3 ADD MSTORE PUSH9 0x40DAD2E6DAC2E8C6D PUSH1 0xBB SHL PUSH1 0x64 DUP3 ADD MSTORE PUSH1 0x84 ADD PUSH2 0x34A JUMP JUMPDEST PUSH1 0x0 DUP4 MLOAD PUSH8 0xFFFFFFFFFFFFFFFF DUP2 GT ISZERO PUSH2 0x559 JUMPI PUSH2 0x559 PUSH2 0x15A2 JUMP JUMPDEST PUSH1 0x40 MLOAD SWAP1 DUP1 DUP3 MSTORE DUP1 PUSH1 0x20 MUL PUSH1 0x20 ADD DUP3 ADD PUSH1 0x40 MSTORE DUP1 ISZERO PUSH2 0x582 JUMPI DUP2 PUSH1 0x20 ADD PUSH1 0x20 DUP3 MUL DUP1 CALLDATASIZE DUP4 CALLDATACOPY ADD SWAP1 POP JUMPDEST POP SWAP1 POP PUSH1 0x0 JUMPDEST DUP5 MLOAD DUP2 LT ISZERO PUSH2 0x5FA JUMPI PUSH2 0x5CD DUP6 DUP3 DUP2 MLOAD DUP2 LT PUSH2 0x5A6 JUMPI PUSH2 0x5A6 PUSH2 0x1C0D JUMP JUMPDEST PUSH1 0x20 MUL PUSH1 0x20 ADD ADD MLOAD DUP6 DUP4 DUP2 MLOAD DUP2 LT PUSH2 0x5C0 JUMPI PUSH2 0x5C0 PUSH2 0x1C0D JUMP JUMPDEST PUSH1 0x20 MUL PUSH1 0x20 ADD ADD MLOAD PUSH2 0x2E3 JUMP JUMPDEST DUP3 DUP3 DUP2 MLOAD DUP2 LT PUSH2 0x5DF JUMPI PUSH2 0x5DF PUSH2 0x1C0D JUMP JUMPDEST PUSH1 0x20 SWAP1 DUP2 MUL SWAP2 SWAP1 SWAP2 ADD ADD MSTORE PUSH2 0x5F3 DUP2 PUSH2 0x1C39 JUMP JUMPDEST SWAP1 POP PUSH2 0x588 JUMP JUMPDEST POP SWAP4 SWAP3 POP POP POP JUMP JUMPDEST PUSH1 0x1 PUSH1 0x1 PUSH1 0xA0 SHL SUB DUP4 AND CALLER EQ DUP1 PUSH2 0x61E JUMPI POP PUSH2 0x61E DUP4 CALLER PUSH2 0x27C JUMP JUMPDEST PUSH2 0x63A JUMPI PUSH1 0x40 MLOAD PUSH3 0x461BCD PUSH1 0xE5 SHL DUP2 MSTORE PUSH1 0x4 ADD PUSH2 0x34A SWAP1 PUSH2 0x1BBF JUMP JUMPDEST PUSH2 0x645 DUP4 DUP4 DUP4 PUSH2 0xB67 JUMP JUMPDEST POP POP POP JUMP JUMPDEST PUSH2 0x652 PUSH2 0x7B1 JUMP JUMPDEST PUSH2 0x4D6 PUSH1 0x0 PUSH2 0xD03 JUMP JUMPDEST PUSH2 0x664 PUSH2 0x7B1 JUMP JUMPDEST PUSH2 0x474 DUP5 DUP5 DUP5 DUP5 PUSH2 0xD5D JUMP JUMPDEST PUSH2 0x678 PUSH2 0x7B1 JUMP JUMPDEST PUSH2 0x4D6 PUSH2 0xE46 JUMP JUMPDEST PUSH2 0x68B CALLER DUP4 DUP4 PUSH2 0xE83 JUMP JUMPDEST POP POP JUMP JUMPDEST PUSH2 0x697 PUSH2 0x7B1 JUMP JUMPDEST PUSH2 0x645 DUP4 DUP4 PUSH12 0xFFFFFFFFFFFFFFFFFFFFFFFF AND DUP4 PUSH2 0xF63 JUMP JUMPDEST PUSH1 0x1 PUSH1 0x1 PUSH1 0xA0 SHL SUB DUP6 AND CALLER EQ DUP1 PUSH2 0x6CC JUMPI POP PUSH2 0x6CC DUP6 CALLER PUSH2 0x27C JUMP JUMPDEST PUSH2 0x6E8 JUMPI PUSH1 0x40 MLOAD PUSH3 0x461BCD PUSH1 0xE5 SHL DUP2 MSTORE PUSH1 0x4 ADD PUSH2 0x34A SWAP1 PUSH2 0x1BBF JUMP JUMPDEST PUSH2 0x4BF DUP6 DUP6 DUP6 DUP6 DUP6 PUSH2 0x107B JUMP JUMPDEST PUSH2 0x6FD PUSH2 0x7B1 JUMP JUMPDEST PUSH1 0x1 PUSH1 0x1 PUSH1 0xA0 SHL SUB DUP2 AND PUSH2 0x762 JUMPI PUSH1 0x40 MLOAD PUSH3 0x461BCD PUSH1 0xE5 SHL DUP2 MSTORE PUSH1 0x20 PUSH1 0x4 DUP3 ADD MSTORE PUSH1 0x26 PUSH1 0x24 DUP3 ADD MSTORE PUSH32 0x4F776E61626C653A206E6577206F776E657220697320746865207A65726F2061 PUSH1 0x44 DUP3 ADD MSTORE PUSH6 0x646472657373 PUSH1 0xD0 SHL PUSH1 0x64 DUP3 ADD MSTORE PUSH1 0x84 ADD PUSH2 0x34A JUMP JUMPDEST PUSH2 0x76B DUP2 PUSH2 0xD03 JUMP JUMPDEST POP JUMP JUMPDEST PUSH1 0x1 PUSH1 0x1 PUSH1 0xA0 SHL SUB DUP4 AND CALLER EQ DUP1 PUSH2 0x78A JUMPI POP PUSH2 0x78A DUP4 CALLER PUSH2 0x27C JUMP JUMPDEST PUSH2 0x7A6 JUMPI PUSH1 0x40 MLOAD PUSH3 0x461BCD PUSH1 0xE5 SHL DUP2 MSTORE PUSH1 0x4 ADD PUSH2 0x34A SWAP1 PUSH2 0x1BBF JUMP JUMPDEST PUSH2 0x645 DUP4 DUP4 DUP4 PUSH2 0xF63 JUMP JUMPDEST PUSH1 0x3 SLOAD PUSH1 0x1 PUSH1 0x1 PUSH1 0xA0 SHL SUB PUSH2 0x100 SWAP1 SWAP2 DIV AND CALLER EQ PUSH2 0x4D6 JUMPI PUSH1 0x40 MLOAD PUSH3 0x461BCD PUSH1 0xE5 SHL DUP2 MSTORE PUSH1 0x20 PUSH1 0x4 DUP3 ADD DUP2 SWAP1 MSTORE PUSH1 0x24 DUP3 ADD MSTORE PUSH32 0x4F776E61626C653A2063616C6C6572206973206E6F7420746865206F776E6572 PUSH1 0x44 DUP3 ADD MSTORE PUSH1 0x64 ADD PUSH2 0x34A JUMP JUMPDEST PUSH1 0x1 PUSH1 0x1 PUSH1 0xA0 SHL SUB DUP5 AND PUSH2 0x837 JUMPI PUSH1 0x40 MLOAD PUSH3 0x461BCD PUSH1 0xE5 SHL DUP2 MSTORE PUSH1 0x4 ADD PUSH2 0x34A SWAP1 PUSH2 0x1C52 JUMP JUMPDEST DUP2 MLOAD DUP4 MLOAD EQ PUSH2 0x858 JUMPI PUSH1 0x40 MLOAD PUSH3 0x461BCD PUSH1 0xE5 SHL DUP2 MSTORE PUSH1 0x4 ADD PUSH2 0x34A SWAP1 PUSH2 0x1C93 JUMP JUMPDEST CALLER PUSH2 0x868 DUP2 PUSH1 0x0 DUP8 DUP8 DUP8 DUP8 PUSH2 0x11B3 JUMP JUMPDEST PUSH1 0x0 JUMPDEST DUP5 MLOAD DUP2 LT ISZERO PUSH2 0x903 JUMPI DUP4 DUP2 DUP2 MLOAD DUP2 LT PUSH2 0x886 JUMPI PUSH2 0x886 PUSH2 0x1C0D JUMP JUMPDEST PUSH1 0x20 MUL PUSH1 0x20 ADD ADD MLOAD PUSH1 0x0 DUP1 DUP8 DUP5 DUP2 MLOAD DUP2 LT PUSH2 0x8A3 JUMPI PUSH2 0x8A3 PUSH2 0x1C0D JUMP JUMPDEST PUSH1 0x20 MUL PUSH1 0x20 ADD ADD MLOAD DUP2 MSTORE PUSH1 0x20 ADD SWAP1 DUP2 MSTORE PUSH1 0x20 ADD PUSH1 0x0 KECCAK256 PUSH1 0x0 DUP9 PUSH1 0x1 PUSH1 0x1 PUSH1 0xA0 SHL SUB AND PUSH1 0x1 PUSH1 0x1 PUSH1 0xA0 SHL SUB AND DUP2 MSTORE PUSH1 0x20 ADD SWAP1 DUP2 MSTORE PUSH1 0x20 ADD PUSH1 0x0 KECCAK256 PUSH1 0x0 DUP3 DUP3 SLOAD PUSH2 0x8EB SWAP2 SWAP1 PUSH2 0x1CDB JUMP JUMPDEST SWAP1 SWAP2 SSTORE POP DUP2 SWAP1 POP PUSH2 0x8FB DUP2 PUSH2 0x1C39 JUMP JUMPDEST SWAP2 POP POP PUSH2 0x86B JUMP JUMPDEST POP DUP5 PUSH1 0x1 PUSH1 0x1 PUSH1 0xA0 SHL SUB AND PUSH1 0x0 PUSH1 0x1 PUSH1 0x1 PUSH1 0xA0 SHL SUB AND DUP3 PUSH1 0x1 PUSH1 0x1 PUSH1 0xA0 SHL SUB AND PUSH32 0x4A39DC06D4C0DBC64B70AF90FD698A233A518AA5D07E595D983B8C0526C8F7FB DUP8 DUP8 PUSH1 0x40 MLOAD PUSH2 0x954 SWAP3 SWAP2 SWAP1 PUSH2 0x1CEE JUMP JUMPDEST PUSH1 0x40 MLOAD DUP1 SWAP2 SUB SWAP1 LOG4 PUSH2 0x4BF DUP2 PUSH1 0x0 DUP8 DUP8 DUP8 DUP8 PUSH2 0x11C0 JUMP JUMPDEST DUP2 MLOAD DUP4 MLOAD EQ PUSH2 0x98C JUMPI PUSH1 0x40 MLOAD PUSH3 0x461BCD PUSH1 0xE5 SHL DUP2 MSTORE PUSH1 0x4 ADD PUSH2 0x34A SWAP1 PUSH2 0x1C93 JUMP JUMPDEST PUSH1 0x1 PUSH1 0x1 PUSH1 0xA0 SHL SUB DUP5 AND PUSH2 0x9B2 JUMPI PUSH1 0x40 MLOAD PUSH3 0x461BCD PUSH1 0xE5 SHL DUP2 MSTORE PUSH1 0x4 ADD PUSH2 0x34A SWAP1 PUSH2 0x1D1C JUMP JUMPDEST CALLER PUSH2 0x9C1 DUP2 DUP8 DUP8 DUP8 DUP8 DUP8 PUSH2 0x11B3 JUMP JUMPDEST PUSH1 0x0 JUMPDEST DUP5 MLOAD DUP2 LT ISZERO PUSH2 0xAA7 JUMPI PUSH1 0x0 DUP6 DUP3 DUP2 MLOAD DUP2 LT PUSH2 0x9E1 JUMPI PUSH2 0x9E1 PUSH2 0x1C0D JUMP JUMPDEST PUSH1 0x20 MUL PUSH1 0x20 ADD ADD MLOAD SWAP1 POP PUSH1 0x0 DUP6 DUP4 DUP2 MLOAD DUP2 LT PUSH2 0x9FF JUMPI PUSH2 0x9FF PUSH2 0x1C0D JUMP JUMPDEST PUSH1 0x20 SWAP1 DUP2 MUL SWAP2 SWAP1 SWAP2 ADD DUP2 ADD MLOAD PUSH1 0x0 DUP5 DUP2 MSTORE DUP1 DUP4 MSTORE PUSH1 0x40 DUP1 DUP3 KECCAK256 PUSH1 0x1 PUSH1 0x1 PUSH1 0xA0 SHL SUB DUP15 AND DUP4 MSTORE SWAP1 SWAP4 MSTORE SWAP2 SWAP1 SWAP2 KECCAK256 SLOAD SWAP1 SWAP2 POP DUP2 DUP2 LT ISZERO PUSH2 0xA4F JUMPI PUSH1 0x40 MLOAD PUSH3 0x461BCD PUSH1 0xE5 SHL DUP2 MSTORE PUSH1 0x4 ADD PUSH2 0x34A SWAP1 PUSH2 0x1D61 JUMP JUMPDEST PUSH1 0x0 DUP4 DUP2 MSTORE PUSH1 0x20 DUP2 DUP2 MSTORE PUSH1 0x40 DUP1 DUP4 KECCAK256 PUSH1 0x1 PUSH1 0x1 PUSH1 0xA0 SHL SUB DUP15 DUP2 AND DUP6 MSTORE SWAP3 MSTORE DUP1 DUP4 KECCAK256 DUP6 DUP6 SUB SWAP1 SSTORE SWAP1 DUP12 AND DUP3 MSTORE DUP2 KECCAK256 DUP1 SLOAD DUP5 SWAP3 SWAP1 PUSH2 0xA8C SWAP1 DUP5 SWAP1 PUSH2 0x1CDB JUMP JUMPDEST SWAP3 POP POP DUP2 SWAP1 SSTORE POP POP POP POP DUP1 PUSH2 0xAA0 SWAP1 PUSH2 0x1C39 JUMP JUMPDEST SWAP1 POP PUSH2 0x9C4 JUMP JUMPDEST POP DUP5 PUSH1 0x1 PUSH1 0x1 PUSH1 0xA0 SHL SUB AND DUP7 PUSH1 0x1 PUSH1 0x1 PUSH1 0xA0 SHL SUB AND DUP3 PUSH1 0x1 PUSH1 0x1 PUSH1 0xA0 SHL SUB AND PUSH32 0x4A39DC06D4C0DBC64B70AF90FD698A233A518AA5D07E595D983B8C0526C8F7FB DUP8 DUP8 PUSH1 0x40 MLOAD PUSH2 0xAF7 SWAP3 SWAP2 SWAP1 PUSH2 0x1CEE JUMP JUMPDEST PUSH1 0x40 MLOAD DUP1 SWAP2 SUB SWAP1 LOG4 PUSH2 0xB0D DUP2 DUP8 DUP8 DUP8 DUP8 DUP8 PUSH2 0x11C0 JUMP JUMPDEST POP POP POP POP POP POP JUMP JUMPDEST PUSH2 0xB1D PUSH2 0x131B JUMP JUMPDEST PUSH1 0x3 DUP1 SLOAD PUSH1 0xFF NOT AND SWAP1 SSTORE PUSH32 0x5DB9EE0A495BF2E6FF9C91A7834C1BA4FDD244A5E8AA4E537BD38AEAE4B073AA CALLER JUMPDEST PUSH1 0x40 MLOAD PUSH1 0x1 PUSH1 0x1 PUSH1 0xA0 SHL SUB SWAP1 SWAP2 AND DUP2 MSTORE PUSH1 0x20 ADD PUSH1 0x40 MLOAD DUP1 SWAP2 SUB SWAP1 LOG1 JUMP JUMPDEST PUSH1 0x1 PUSH1 0x1 PUSH1 0xA0 SHL SUB DUP4 AND PUSH2 0xB8D JUMPI PUSH1 0x40 MLOAD PUSH3 0x461BCD PUSH1 0xE5 SHL DUP2 MSTORE PUSH1 0x4 ADD PUSH2 0x34A SWAP1 PUSH2 0x1DAB JUMP JUMPDEST DUP1 MLOAD DUP3 MLOAD EQ PUSH2 0xBAE JUMPI PUSH1 0x40 MLOAD PUSH3 0x461BCD PUSH1 0xE5 SHL DUP2 MSTORE PUSH1 0x4 ADD PUSH2 0x34A SWAP1 PUSH2 0x1C93 JUMP JUMPDEST PUSH1 0x0 CALLER SWAP1 POP PUSH2 0xBD1 DUP2 DUP6 PUSH1 0x0 DUP7 DUP7 PUSH1 0x40 MLOAD DUP1 PUSH1 0x20 ADD PUSH1 0x40 MSTORE DUP1 PUSH1 0x0 DUP2 MSTORE POP PUSH2 0x11B3 JUMP JUMPDEST PUSH1 0x0 JUMPDEST DUP4 MLOAD DUP2 LT ISZERO PUSH2 0xC96 JUMPI PUSH1 0x0 DUP5 DUP3 DUP2 MLOAD DUP2 LT PUSH2 0xBF1 JUMPI PUSH2 0xBF1 PUSH2 0x1C0D JUMP JUMPDEST PUSH1 0x20 MUL PUSH1 0x20 ADD ADD MLOAD SWAP1 POP PUSH1 0x0 DUP5 DUP4 DUP2 MLOAD DUP2 LT PUSH2 0xC0F JUMPI PUSH2 0xC0F PUSH2 0x1C0D JUMP JUMPDEST PUSH1 0x20 SWAP1 DUP2 MUL SWAP2 SWAP1 SWAP2 ADD DUP2 ADD MLOAD PUSH1 0x0 DUP5 DUP2 MSTORE DUP1 DUP4 MSTORE PUSH1 0x40 DUP1 DUP3 KECCAK256 PUSH1 0x1 PUSH1 0x1 PUSH1 0xA0 SHL SUB DUP13 AND DUP4 MSTORE SWAP1 SWAP4 MSTORE SWAP2 SWAP1 SWAP2 KECCAK256 SLOAD SWAP1 SWAP2 POP DUP2 DUP2 LT ISZERO PUSH2 0xC5F JUMPI PUSH1 0x40 MLOAD PUSH3 0x461BCD PUSH1 0xE5 SHL DUP2 MSTORE PUSH1 0x4 ADD PUSH2 0x34A SWAP1 PUSH2 0x1DEE JUMP JUMPDEST PUSH1 0x0 SWAP3 DUP4 MSTORE PUSH1 0x20 DUP4 DUP2 MSTORE PUSH1 0x40 DUP1 DUP6 KECCAK256 PUSH1 0x1 PUSH1 0x1 PUSH1 0xA0 SHL SUB DUP12 AND DUP7 MSTORE SWAP1 SWAP2 MSTORE SWAP1 SWAP3 KECCAK256 SWAP2 SUB SWAP1 SSTORE DUP1 PUSH2 0xC8E DUP2 PUSH2 0x1C39 JUMP JUMPDEST SWAP2 POP POP PUSH2 0xBD4 JUMP JUMPDEST POP PUSH1 0x0 PUSH1 0x1 PUSH1 0x1 PUSH1 0xA0 SHL SUB AND DUP5 PUSH1 0x1 PUSH1 0x1 PUSH1 0xA0 SHL SUB AND DUP3 PUSH1 0x1 PUSH1 0x1 PUSH1 0xA0 SHL SUB AND PUSH32 0x4A39DC06D4C0DBC64B70AF90FD698A233A518AA5D07E595D983B8C0526C8F7FB DUP7 DUP7 PUSH1 0x40 MLOAD PUSH2 0xCE7 SWAP3 SWAP2 SWAP1 PUSH2 0x1CEE JUMP JUMPDEST PUSH1 0x40 MLOAD DUP1 SWAP2 SUB SWAP1 LOG4 PUSH1 0x40 DUP1 MLOAD PUSH1 0x20 DUP2 ADD SWAP1 SWAP2 MSTORE PUSH1 0x0 SWAP1 MSTORE PUSH2 0x474 JUMP JUMPDEST PUSH1 0x3 DUP1 SLOAD PUSH1 0x1 PUSH1 0x1 PUSH1 0xA0 SHL SUB DUP4 DUP2 AND PUSH2 0x100 DUP2 DUP2 MUL PUSH2 0x100 PUSH1 0x1 PUSH1 0xA8 SHL SUB NOT DUP6 AND OR SWAP1 SWAP5 SSTORE PUSH1 0x40 MLOAD SWAP4 SWAP1 SWAP3 DIV AND SWAP2 DUP3 SWAP1 PUSH32 0x8BE0079C531659141344CD1FD0A4F28419497F9722A3DAAFE3B4186F6B6457E0 SWAP1 PUSH1 0x0 SWAP1 LOG3 POP POP JUMP JUMPDEST PUSH1 0x1 PUSH1 0x1 PUSH1 0xA0 SHL SUB DUP5 AND PUSH2 0xD83 JUMPI PUSH1 0x40 MLOAD PUSH3 0x461BCD PUSH1 0xE5 SHL DUP2 MSTORE PUSH1 0x4 ADD PUSH2 0x34A SWAP1 PUSH2 0x1C52 JUMP JUMPDEST CALLER PUSH1 0x0 PUSH2 0xD8F DUP6 PUSH2 0x1364 JUMP JUMPDEST SWAP1 POP PUSH1 0x0 PUSH2 0xD9C DUP6 PUSH2 0x1364 JUMP JUMPDEST SWAP1 POP PUSH2 0xDAD DUP4 PUSH1 0x0 DUP10 DUP6 DUP6 DUP10 PUSH2 0x11B3 JUMP JUMPDEST PUSH1 0x0 DUP7 DUP2 MSTORE PUSH1 0x20 DUP2 DUP2 MSTORE PUSH1 0x40 DUP1 DUP4 KECCAK256 PUSH1 0x1 PUSH1 0x1 PUSH1 0xA0 SHL SUB DUP12 AND DUP5 MSTORE SWAP1 SWAP2 MSTORE DUP2 KECCAK256 DUP1 SLOAD DUP8 SWAP3 SWAP1 PUSH2 0xDDD SWAP1 DUP5 SWAP1 PUSH2 0x1CDB JUMP JUMPDEST SWAP1 SWAP2 SSTORE POP POP PUSH1 0x40 DUP1 MLOAD DUP8 DUP2 MSTORE PUSH1 0x20 DUP2 ADD DUP8 SWAP1 MSTORE PUSH1 0x1 PUSH1 0x1 PUSH1 0xA0 SHL SUB DUP1 DUP11 AND SWAP3 PUSH1 0x0 SWAP3 SWAP2 DUP8 AND SWAP2 PUSH32 0xC3D58168C5AE7397731D063D5BBF3D657854427343F4C083240F7AACAA2D0F62 SWAP2 ADD PUSH1 0x40 MLOAD DUP1 SWAP2 SUB SWAP1 LOG4 PUSH2 0xE3D DUP4 PUSH1 0x0 DUP10 DUP10 DUP10 DUP10 PUSH2 0x13AF JUMP JUMPDEST POP POP POP POP POP POP POP JUMP JUMPDEST PUSH2 0xE4E PUSH2 0x146A JUMP JUMPDEST PUSH1 0x3 DUP1 SLOAD PUSH1 0xFF NOT AND PUSH1 0x1 OR SWAP1 SSTORE PUSH32 0x62E78CEA01BEE320CD4E420270B5EA74000D11B0C9F74754EBDBFC544B05A258 PUSH2 0xB4A CALLER SWAP1 JUMP JUMPDEST DUP2 PUSH1 0x1 PUSH1 0x1 PUSH1 0xA0 SHL SUB AND DUP4 PUSH1 0x1 PUSH1 0x1 PUSH1 0xA0 SHL SUB AND SUB PUSH2 0xEF6 JUMPI PUSH1 0x40 MLOAD PUSH3 0x461BCD PUSH1 0xE5 SHL DUP2 MSTORE PUSH1 0x20 PUSH1 0x4 DUP3 ADD MSTORE PUSH1 0x29 PUSH1 0x24 DUP3 ADD MSTORE PUSH32 0x455243313135353A2073657474696E6720617070726F76616C20737461747573 PUSH1 0x44 DUP3 ADD MSTORE PUSH9 0x103337B91039B2B633 PUSH1 0xB9 SHL PUSH1 0x64 DUP3 ADD MSTORE PUSH1 0x84 ADD PUSH2 0x34A JUMP JUMPDEST PUSH1 0x1 PUSH1 0x1 PUSH1 0xA0 SHL SUB DUP4 DUP2 AND PUSH1 0x0 DUP2 DUP2 MSTORE PUSH1 0x1 PUSH1 0x20 SWAP1 DUP2 MSTORE PUSH1 0x40 DUP1 DUP4 KECCAK256 SWAP5 DUP8 AND DUP1 DUP5 MSTORE SWAP5 DUP3 MSTORE SWAP2 DUP3 SWAP1 KECCAK256 DUP1 SLOAD PUSH1 0xFF NOT AND DUP7 ISZERO ISZERO SWAP1 DUP2 OR SWAP1 SWAP2 SSTORE SWAP2 MLOAD SWAP2 DUP3 MSTORE PUSH32 0x17307EAB39AB6107E8899845AD3D59BD9653F200F220920489CA2B5937696C31 SWAP2 ADD PUSH1 0x40 MLOAD DUP1 SWAP2 SUB SWAP1 LOG3 POP POP POP JUMP JUMPDEST PUSH1 0x1 PUSH1 0x1 PUSH1 0xA0 SHL SUB DUP4 AND PUSH2 0xF89 JUMPI PUSH1 0x40 MLOAD PUSH3 0x461BCD PUSH1 0xE5 SHL DUP2 MSTORE PUSH1 0x4 ADD PUSH2 0x34A SWAP1 PUSH2 0x1DAB JUMP JUMPDEST CALLER PUSH1 0x0 PUSH2 0xF95 DUP5 PUSH2 0x1364 JUMP JUMPDEST SWAP1 POP PUSH1 0x0 PUSH2 0xFA2 DUP5 PUSH2 0x1364 JUMP JUMPDEST SWAP1 POP PUSH2 0xFC2 DUP4 DUP8 PUSH1 0x0 DUP6 DUP6 PUSH1 0x40 MLOAD DUP1 PUSH1 0x20 ADD PUSH1 0x40 MSTORE DUP1 PUSH1 0x0 DUP2 MSTORE POP PUSH2 0x11B3 JUMP JUMPDEST PUSH1 0x0 DUP6 DUP2 MSTORE PUSH1 0x20 DUP2 DUP2 MSTORE PUSH1 0x40 DUP1 DUP4 KECCAK256 PUSH1 0x1 PUSH1 0x1 PUSH1 0xA0 SHL SUB DUP11 AND DUP5 MSTORE SWAP1 SWAP2 MSTORE SWAP1 KECCAK256 SLOAD DUP5 DUP2 LT ISZERO PUSH2 0x1003 JUMPI PUSH1 0x40 MLOAD PUSH3 0x461BCD PUSH1 0xE5 SHL DUP2 MSTORE PUSH1 0x4 ADD PUSH2 0x34A SWAP1 PUSH2 0x1DEE JUMP JUMPDEST PUSH1 0x0 DUP7 DUP2 MSTORE PUSH1 0x20 DUP2 DUP2 MSTORE PUSH1 0x40 DUP1 DUP4 KECCAK256 PUSH1 0x1 PUSH1 0x1 PUSH1 0xA0 SHL SUB DUP12 DUP2 AND DUP1 DUP7 MSTORE SWAP2 DUP5 MSTORE DUP3 DUP6 KECCAK256 DUP11 DUP8 SUB SWAP1 SSTORE DUP3 MLOAD DUP12 DUP2 MSTORE SWAP4 DUP5 ADD DUP11 SWAP1 MSTORE SWAP1 SWAP3 SWAP1 DUP9 AND SWAP2 PUSH32 0xC3D58168C5AE7397731D063D5BBF3D657854427343F4C083240F7AACAA2D0F62 SWAP2 ADD PUSH1 0x40 MLOAD DUP1 SWAP2 SUB SWAP1 LOG4 PUSH1 0x40 DUP1 MLOAD PUSH1 0x20 DUP2 ADD SWAP1 SWAP2 MSTORE PUSH1 0x0 SWAP1 MSTORE PUSH2 0xE3D JUMP JUMPDEST PUSH1 0x1 PUSH1 0x1 PUSH1 0xA0 SHL SUB DUP5 AND PUSH2 0x10A1 JUMPI PUSH1 0x40 MLOAD PUSH3 0x461BCD PUSH1 0xE5 SHL DUP2 MSTORE PUSH1 0x4 ADD PUSH2 0x34A SWAP1 PUSH2 0x1D1C JUMP JUMPDEST CALLER PUSH1 0x0 PUSH2 0x10AD DUP6 PUSH2 0x1364 JUMP JUMPDEST SWAP1 POP PUSH1 0x0 PUSH2 0x10BA DUP6 PUSH2 0x1364 JUMP JUMPDEST SWAP1 POP PUSH2 0x10CA DUP4 DUP10 DUP10 DUP6 DUP6 DUP10 PUSH2 0x11B3 JUMP JUMPDEST PUSH1 0x0 DUP7 DUP2 MSTORE PUSH1 0x20 DUP2 DUP2 MSTORE PUSH1 0x40 DUP1 DUP4 KECCAK256 PUSH1 0x1 PUSH1 0x1 PUSH1 0xA0 SHL SUB DUP13 AND DUP5 MSTORE SWAP1 SWAP2 MSTORE SWAP1 KECCAK256 SLOAD DUP6 DUP2 LT ISZERO PUSH2 0x110B JUMPI PUSH1 0x40 MLOAD PUSH3 0x461BCD PUSH1 0xE5 SHL DUP2 MSTORE PUSH1 0x4 ADD PUSH2 0x34A SWAP1 PUSH2 0x1D61 JUMP JUMPDEST PUSH1 0x0 DUP8 DUP2 MSTORE PUSH1 0x20 DUP2 DUP2 MSTORE PUSH1 0x40 DUP1 DUP4 KECCAK256 PUSH1 0x1 PUSH1 0x1 PUSH1 0xA0 SHL SUB DUP14 DUP2 AND DUP6 MSTORE SWAP3 MSTORE DUP1 DUP4 KECCAK256 DUP10 DUP6 SUB SWAP1 SSTORE SWAP1 DUP11 AND DUP3 MSTORE DUP2 KECCAK256 DUP1 SLOAD DUP9 SWAP3 SWAP1 PUSH2 0x1148 SWAP1 DUP5 SWAP1 PUSH2 0x1CDB JUMP JUMPDEST SWAP1 SWAP2 SSTORE POP POP PUSH1 0x40 DUP1 MLOAD DUP9 DUP2 MSTORE PUSH1 0x20 DUP2 ADD DUP9 SWAP1 MSTORE PUSH1 0x1 PUSH1 0x1 PUSH1 0xA0 SHL SUB DUP1 DUP12 AND SWAP3 DUP13 DUP3 AND SWAP3 SWAP2 DUP9 AND SWAP2 PUSH32 0xC3D58168C5AE7397731D063D5BBF3D657854427343F4C083240F7AACAA2D0F62 SWAP2 ADD PUSH1 0x40 MLOAD DUP1 SWAP2 SUB SWAP1 LOG4 PUSH2 0x11A8 DUP5 DUP11 DUP11 DUP11 DUP11 DUP11 PUSH2 0x13AF JUMP JUMPDEST POP POP POP POP POP POP POP POP POP JUMP JUMPDEST PUSH2 0x11BB PUSH2 0x146A JUMP JUMPDEST PUSH2 0xB0D JUMP JUMPDEST PUSH1 0x1 PUSH1 0x1 PUSH1 0xA0 SHL SUB DUP5 AND EXTCODESIZE ISZERO PUSH2 0xB0D JUMPI PUSH1 0x40 MLOAD PUSH4 0xBC197C81 PUSH1 0xE0 SHL DUP2 MSTORE PUSH1 0x1 PUSH1 0x1 PUSH1 0xA0 SHL SUB DUP6 AND SWAP1 PUSH4 0xBC197C81 SWAP1 PUSH2 0x1204 SWAP1 DUP10 SWAP1 DUP10 SWAP1 DUP9 SWAP1 DUP9 SWAP1 DUP9 SWAP1 PUSH1 0x4 ADD PUSH2 0x1E32 JUMP JUMPDEST PUSH1 0x20 PUSH1 0x40 MLOAD DUP1 DUP4 SUB DUP2 PUSH1 0x0 DUP8 GAS CALL SWAP3 POP POP POP DUP1 ISZERO PUSH2 0x123F JUMPI POP PUSH1 0x40 DUP1 MLOAD PUSH1 0x1F RETURNDATASIZE SWAP1 DUP2 ADD PUSH1 0x1F NOT AND DUP3 ADD SWAP1 SWAP3 MSTORE PUSH2 0x123C SWAP2 DUP2 ADD SWAP1 PUSH2 0x1E90 JUMP JUMPDEST PUSH1 0x1 JUMPDEST PUSH2 0x12EB JUMPI PUSH2 0x124B PUSH2 0x1EAD JUMP JUMPDEST DUP1 PUSH4 0x8C379A0 SUB PUSH2 0x1284 JUMPI POP PUSH2 0x125F PUSH2 0x1EC9 JUMP JUMPDEST DUP1 PUSH2 0x126A JUMPI POP PUSH2 0x1286 JUMP JUMPDEST DUP1 PUSH1 0x40 MLOAD PUSH3 0x461BCD PUSH1 0xE5 SHL DUP2 MSTORE PUSH1 0x4 ADD PUSH2 0x34A SWAP2 SWAP1 PUSH2 0x158F JUMP JUMPDEST POP JUMPDEST PUSH1 0x40 MLOAD PUSH3 0x461BCD PUSH1 0xE5 SHL DUP2 MSTORE PUSH1 0x20 PUSH1 0x4 DUP3 ADD MSTORE PUSH1 0x34 PUSH1 0x24 DUP3 ADD MSTORE PUSH32 0x455243313135353A207472616E7366657220746F206E6F6E2D45524331313535 PUSH1 0x44 DUP3 ADD MSTORE PUSH20 0x2932B1B2B4BB32B91034B6B83632B6B2B73A32B9 PUSH1 0x61 SHL PUSH1 0x64 DUP3 ADD MSTORE PUSH1 0x84 ADD PUSH2 0x34A JUMP JUMPDEST PUSH1 0x1 PUSH1 0x1 PUSH1 0xE0 SHL SUB NOT DUP2 AND PUSH4 0xBC197C81 PUSH1 0xE0 SHL EQ PUSH2 0xE3D JUMPI PUSH1 0x40 MLOAD PUSH3 0x461BCD PUSH1 0xE5 SHL DUP2 MSTORE PUSH1 0x4 ADD PUSH2 0x34A SWAP1 PUSH2 0x1F53 JUMP JUMPDEST PUSH1 0x3 SLOAD PUSH1 0xFF AND PUSH2 0x4D6 JUMPI PUSH1 0x40 MLOAD PUSH3 0x461BCD PUSH1 0xE5 SHL DUP2 MSTORE PUSH1 0x20 PUSH1 0x4 DUP3 ADD MSTORE PUSH1 0x14 PUSH1 0x24 DUP3 ADD MSTORE PUSH20 0x14185D5CD8589B194E881B9BDD081C185D5CD959 PUSH1 0x62 SHL PUSH1 0x44 DUP3 ADD MSTORE PUSH1 0x64 ADD PUSH2 0x34A JUMP JUMPDEST PUSH1 0x40 DUP1 MLOAD PUSH1 0x1 DUP1 DUP3 MSTORE DUP2 DUP4 ADD SWAP1 SWAP3 MSTORE PUSH1 0x60 SWAP2 PUSH1 0x0 SWAP2 SWAP1 PUSH1 0x20 DUP1 DUP4 ADD SWAP1 DUP1 CALLDATASIZE DUP4 CALLDATACOPY ADD SWAP1 POP POP SWAP1 POP DUP3 DUP2 PUSH1 0x0 DUP2 MLOAD DUP2 LT PUSH2 0x139E JUMPI PUSH2 0x139E PUSH2 0x1C0D JUMP JUMPDEST PUSH1 0x20 SWAP1 DUP2 MUL SWAP2 SWAP1 SWAP2 ADD ADD MSTORE SWAP3 SWAP2 POP POP JUMP JUMPDEST PUSH1 0x1 PUSH1 0x1 PUSH1 0xA0 SHL SUB DUP5 AND EXTCODESIZE ISZERO PUSH2 0xB0D JUMPI PUSH1 0x40 MLOAD PUSH4 0xF23A6E61 PUSH1 0xE0 SHL DUP2 MSTORE PUSH1 0x1 PUSH1 0x1 PUSH1 0xA0 SHL SUB DUP6 AND SWAP1 PUSH4 0xF23A6E61 SWAP1 PUSH2 0x13F3 SWAP1 DUP10 SWAP1 DUP10 SWAP1 DUP9 SWAP1 DUP9 SWAP1 DUP9 SWAP1 PUSH1 0x4 ADD PUSH2 0x1F9B JUMP JUMPDEST PUSH1 0x20 PUSH1 0x40 MLOAD DUP1 DUP4 SUB DUP2 PUSH1 0x0 DUP8 GAS CALL SWAP3 POP POP POP DUP1 ISZERO PUSH2 0x142E JUMPI POP PUSH1 0x40 DUP1 MLOAD PUSH1 0x1F RETURNDATASIZE SWAP1 DUP2 ADD PUSH1 0x1F NOT AND DUP3 ADD SWAP1 SWAP3 MSTORE PUSH2 0x142B SWAP2 DUP2 ADD SWAP1 PUSH2 0x1E90 JUMP JUMPDEST PUSH1 0x1 JUMPDEST PUSH2 0x143A JUMPI PUSH2 0x124B PUSH2 0x1EAD JUMP JUMPDEST PUSH1 0x1 PUSH1 0x1 PUSH1 0xE0 SHL SUB NOT DUP2 AND PUSH4 0xF23A6E61 PUSH1 0xE0 SHL EQ PUSH2 0xE3D JUMPI PUSH1 0x40 MLOAD PUSH3 0x461BCD PUSH1 0xE5 SHL DUP2 MSTORE PUSH1 0x4 ADD PUSH2 0x34A SWAP1 PUSH2 0x1F53 JUMP JUMPDEST PUSH1 0x3 SLOAD PUSH1 0xFF AND ISZERO PUSH2 0x4D6 JUMPI PUSH1 0x40 MLOAD PUSH3 0x461BCD PUSH1 0xE5 SHL DUP2 MSTORE PUSH1 0x20 PUSH1 0x4 DUP3 ADD MSTORE PUSH1 0x10 PUSH1 0x24 DUP3 ADD MSTORE PUSH16 0x14185D5CD8589B194E881C185D5CD959 PUSH1 0x82 SHL PUSH1 0x44 DUP3 ADD MSTORE PUSH1 0x64 ADD PUSH2 0x34A JUMP JUMPDEST DUP1 CALLDATALOAD PUSH1 0x1 PUSH1 0x1 PUSH1 0xA0 SHL SUB DUP2 AND DUP2 EQ PUSH2 0x14C7 JUMPI PUSH1 0x0 DUP1 REVERT JUMPDEST SWAP2 SWAP1 POP JUMP JUMPDEST PUSH1 0x0 DUP1 PUSH1 0x40 DUP4 DUP6 SUB SLT ISZERO PUSH2 0x14DF JUMPI PUSH1 0x0 DUP1 REVERT JUMPDEST PUSH2 0x14E8 DUP4 PUSH2 0x14B0 JUMP JUMPDEST SWAP5 PUSH1 0x20 SWAP4 SWAP1 SWAP4 ADD CALLDATALOAD SWAP4 POP POP POP JUMP JUMPDEST PUSH1 0x1 PUSH1 0x1 PUSH1 0xE0 SHL SUB NOT DUP2 AND DUP2 EQ PUSH2 0x76B JUMPI PUSH1 0x0 DUP1 REVERT JUMPDEST PUSH1 0x0 PUSH1 0x20 DUP3 DUP5 SUB SLT ISZERO PUSH2 0x151E JUMPI PUSH1 0x0 DUP1 REVERT JUMPDEST DUP2 CALLDATALOAD PUSH2 0x1529 DUP2 PUSH2 0x14F6 JUMP JUMPDEST SWAP4 SWAP3 POP POP POP JUMP JUMPDEST PUSH1 0x0 PUSH1 0x20 DUP3 DUP5 SUB SLT ISZERO PUSH2 0x1542 JUMPI PUSH1 0x0 DUP1 REVERT JUMPDEST POP CALLDATALOAD SWAP2 SWAP1 POP JUMP JUMPDEST PUSH1 0x0 DUP2 MLOAD DUP1 DUP5 MSTORE PUSH1 0x0 JUMPDEST DUP2 DUP2 LT ISZERO PUSH2 0x156F JUMPI PUSH1 0x20 DUP2 DUP6 ADD DUP2 ADD MLOAD DUP7 DUP4 ADD DUP3 ADD MSTORE ADD PUSH2 0x1553 JUMP JUMPDEST POP PUSH1 0x0 PUSH1 0x20 DUP3 DUP7 ADD ADD MSTORE PUSH1 0x20 PUSH1 0x1F NOT PUSH1 0x1F DUP4 ADD AND DUP6 ADD ADD SWAP2 POP POP SWAP3 SWAP2 POP POP JUMP JUMPDEST PUSH1 0x20 DUP2 MSTORE PUSH1 0x0 PUSH2 0x1529 PUSH1 0x20 DUP4 ADD DUP5 PUSH2 0x1549 JUMP JUMPDEST PUSH4 0x4E487B71 PUSH1 0xE0 SHL PUSH1 0x0 MSTORE PUSH1 0x41 PUSH1 0x4 MSTORE PUSH1 0x24 PUSH1 0x0 REVERT JUMPDEST PUSH1 0x1F DUP3 ADD PUSH1 0x1F NOT AND DUP2 ADD PUSH8 0xFFFFFFFFFFFFFFFF DUP2 GT DUP3 DUP3 LT OR ISZERO PUSH2 0x15DE JUMPI PUSH2 0x15DE PUSH2 0x15A2 JUMP JUMPDEST PUSH1 0x40 MSTORE POP POP JUMP JUMPDEST PUSH1 0x0 PUSH8 0xFFFFFFFFFFFFFFFF DUP3 GT ISZERO PUSH2 0x15FF JUMPI PUSH2 0x15FF PUSH2 0x15A2 JUMP JUMPDEST POP PUSH1 0x5 SHL PUSH1 0x20 ADD SWAP1 JUMP JUMPDEST PUSH1 0x0 DUP3 PUSH1 0x1F DUP4 ADD SLT PUSH2 0x161A JUMPI PUSH1 0x0 DUP1 REVERT JUMPDEST DUP2 CALLDATALOAD PUSH1 0x20 PUSH2 0x1627 DUP3 PUSH2 0x15E5 JUMP JUMPDEST PUSH1 0x40 MLOAD PUSH2 0x1634 DUP3 DUP3 PUSH2 0x15B8 JUMP JUMPDEST DUP4 DUP2 MSTORE PUSH1 0x5 SWAP4 SWAP1 SWAP4 SHL DUP6 ADD DUP3 ADD SWAP3 DUP3 DUP2 ADD SWAP2 POP DUP7 DUP5 GT ISZERO PUSH2 0x1654 JUMPI PUSH1 0x0 DUP1 REVERT JUMPDEST DUP3 DUP7 ADD JUMPDEST DUP5 DUP2 LT ISZERO PUSH2 0x166F JUMPI DUP1 CALLDATALOAD DUP4 MSTORE SWAP2 DUP4 ADD SWAP2 DUP4 ADD PUSH2 0x1658 JUMP JUMPDEST POP SWAP7 SWAP6 POP POP POP POP POP POP JUMP JUMPDEST PUSH1 0x0 DUP3 PUSH1 0x1F DUP4 ADD SLT PUSH2 0x168B JUMPI PUSH1 0x0 DUP1 REVERT JUMPDEST DUP2 CALLDATALOAD PUSH8 0xFFFFFFFFFFFFFFFF DUP2 GT ISZERO PUSH2 0x16A5 JUMPI PUSH2 0x16A5 PUSH2 0x15A2 JUMP JUMPDEST PUSH1 0x40 MLOAD PUSH2 0x16BC PUSH1 0x1F DUP4 ADD PUSH1 0x1F NOT AND PUSH1 0x20 ADD DUP3 PUSH2 0x15B8 JUMP JUMPDEST DUP2 DUP2 MSTORE DUP5 PUSH1 0x20 DUP4 DUP7 ADD ADD GT ISZERO PUSH2 0x16D1 JUMPI PUSH1 0x0 DUP1 REVERT JUMPDEST DUP2 PUSH1 0x20 DUP6 ADD PUSH1 0x20 DUP4 ADD CALLDATACOPY PUSH1 0x0 SWAP2 DUP2 ADD PUSH1 0x20 ADD SWAP2 SWAP1 SWAP2 MSTORE SWAP4 SWAP3 POP POP POP JUMP JUMPDEST PUSH1 0x0 DUP1 PUSH1 0x0 DUP1 PUSH1 0x80 DUP6 DUP8 SUB SLT ISZERO PUSH2 0x1704 JUMPI PUSH1 0x0 DUP1 REVERT JUMPDEST PUSH2 0x170D DUP6 PUSH2 0x14B0 JUMP JUMPDEST SWAP4 POP PUSH1 0x20 DUP6 ADD CALLDATALOAD PUSH8 0xFFFFFFFFFFFFFFFF DUP1 DUP3 GT ISZERO PUSH2 0x172A JUMPI PUSH1 0x0 DUP1 REVERT JUMPDEST PUSH2 0x1736 DUP9 DUP4 DUP10 ADD PUSH2 0x1609 JUMP JUMPDEST SWAP5 POP PUSH1 0x40 DUP8 ADD CALLDATALOAD SWAP2 POP DUP1 DUP3 GT ISZERO PUSH2 0x174C JUMPI PUSH1 0x0 DUP1 REVERT JUMPDEST PUSH2 0x1758 DUP9 DUP4 DUP10 ADD PUSH2 0x1609 JUMP JUMPDEST SWAP4 POP PUSH1 0x60 DUP8 ADD CALLDATALOAD SWAP2 POP DUP1 DUP3 GT ISZERO PUSH2 0x176E JUMPI PUSH1 0x0 DUP1 REVERT JUMPDEST POP PUSH2 0x177B DUP8 DUP3 DUP9 ADD PUSH2 0x167A JUMP JUMPDEST SWAP2 POP POP SWAP3 SWAP6 SWAP2 SWAP5 POP SWAP3 POP JUMP JUMPDEST PUSH1 0x0 DUP1 PUSH1 0x0 DUP1 PUSH1 0x0 PUSH1 0xA0 DUP7 DUP9 SUB SLT ISZERO PUSH2 0x179F JUMPI PUSH1 0x0 DUP1 REVERT JUMPDEST PUSH2 0x17A8 DUP7 PUSH2 0x14B0 JUMP JUMPDEST SWAP5 POP PUSH2 0x17B6 PUSH1 0x20 DUP8 ADD PUSH2 0x14B0 JUMP JUMPDEST SWAP4 POP PUSH1 0x40 DUP7 ADD CALLDATALOAD PUSH8 0xFFFFFFFFFFFFFFFF DUP1 DUP3 GT ISZERO PUSH2 0x17D3 JUMPI PUSH1 0x0 DUP1 REVERT JUMPDEST PUSH2 0x17DF DUP10 DUP4 DUP11 ADD PUSH2 0x1609 JUMP JUMPDEST SWAP5 POP PUSH1 0x60 DUP9 ADD CALLDATALOAD SWAP2 POP DUP1 DUP3 GT ISZERO PUSH2 0x17F5 JUMPI PUSH1 0x0 DUP1 REVERT JUMPDEST PUSH2 0x1801 DUP10 DUP4 DUP11 ADD PUSH2 0x1609 JUMP JUMPDEST SWAP4 POP PUSH1 0x80 DUP9 ADD CALLDATALOAD SWAP2 POP DUP1 DUP3 GT ISZERO PUSH2 0x1817 JUMPI PUSH1 0x0 DUP1 REVERT JUMPDEST POP PUSH2 0x1824 DUP9 DUP3 DUP10 ADD PUSH2 0x167A JUMP JUMPDEST SWAP2 POP POP SWAP3 SWAP6 POP SWAP3 SWAP6 SWAP1 SWAP4 POP JUMP JUMPDEST PUSH1 0x0 DUP1 PUSH1 0x40 DUP4 DUP6 SUB SLT ISZERO PUSH2 0x1844 JUMPI PUSH1 0x0 DUP1 REVERT JUMPDEST DUP3 CALLDATALOAD PUSH8 0xFFFFFFFFFFFFFFFF DUP1 DUP3 GT ISZERO PUSH2 0x185C JUMPI PUSH1 0x0 DUP1 REVERT JUMPDEST DUP2 DUP6 ADD SWAP2 POP DUP6 PUSH1 0x1F DUP4 ADD SLT PUSH2 0x1870 JUMPI PUSH1 0x0 DUP1 REVERT JUMPDEST DUP2 CALLDATALOAD PUSH1 0x20 PUSH2 0x187D DUP3 PUSH2 0x15E5 JUMP JUMPDEST PUSH1 0x40 MLOAD PUSH2 0x188A DUP3 DUP3 PUSH2 0x15B8 JUMP JUMPDEST DUP4 DUP2 MSTORE PUSH1 0x5 SWAP4 SWAP1 SWAP4 SHL DUP6 ADD DUP3 ADD SWAP3 DUP3 DUP2 ADD SWAP2 POP DUP10 DUP5 GT ISZERO PUSH2 0x18AA JUMPI PUSH1 0x0 DUP1 REVERT JUMPDEST SWAP5 DUP3 ADD SWAP5 JUMPDEST DUP4 DUP7 LT ISZERO PUSH2 0x18CF JUMPI PUSH2 0x18C0 DUP7 PUSH2 0x14B0 JUMP JUMPDEST DUP3 MSTORE SWAP5 DUP3 ADD SWAP5 SWAP1 DUP3 ADD SWAP1 PUSH2 0x18AF JUMP JUMPDEST SWAP7 POP POP DUP7 ADD CALLDATALOAD SWAP3 POP POP DUP1 DUP3 GT ISZERO PUSH2 0x18E5 JUMPI PUSH1 0x0 DUP1 REVERT JUMPDEST POP PUSH2 0x18F2 DUP6 DUP3 DUP7 ADD PUSH2 0x1609 JUMP JUMPDEST SWAP2 POP POP SWAP3 POP SWAP3 SWAP1 POP JUMP JUMPDEST PUSH1 0x0 DUP2 MLOAD DUP1 DUP5 MSTORE PUSH1 0x20 DUP1 DUP6 ADD SWAP5 POP DUP1 DUP5 ADD PUSH1 0x0 JUMPDEST DUP4 DUP2 LT ISZERO PUSH2 0x192C JUMPI DUP2 MLOAD DUP8 MSTORE SWAP6 DUP3 ADD SWAP6 SWAP1 DUP3 ADD SWAP1 PUSH1 0x1 ADD PUSH2 0x1910 JUMP JUMPDEST POP SWAP5 SWAP6 SWAP5 POP POP POP POP POP JUMP JUMPDEST PUSH1 0x20 DUP2 MSTORE PUSH1 0x0 PUSH2 0x1529 PUSH1 0x20 DUP4 ADD DUP5 PUSH2 0x18FC JUMP JUMPDEST PUSH1 0x0 DUP1 PUSH1 0x0 PUSH1 0x60 DUP5 DUP7 SUB SLT ISZERO PUSH2 0x195F JUMPI PUSH1 0x0 DUP1 REVERT JUMPDEST PUSH2 0x1968 DUP5 PUSH2 0x14B0 JUMP JUMPDEST SWAP3 POP PUSH1 0x20 DUP5 ADD CALLDATALOAD PUSH8 0xFFFFFFFFFFFFFFFF DUP1 DUP3 GT ISZERO PUSH2 0x1985 JUMPI PUSH1 0x0 DUP1 REVERT JUMPDEST PUSH2 0x1991 DUP8 DUP4 DUP9 ADD PUSH2 0x1609 JUMP JUMPDEST SWAP4 POP PUSH1 0x40 DUP7 ADD CALLDATALOAD SWAP2 POP DUP1 DUP3 GT ISZERO PUSH2 0x19A7 JUMPI PUSH1 0x0 DUP1 REVERT JUMPDEST POP PUSH2 0x19B4 DUP7 DUP3 DUP8 ADD PUSH2 0x1609 JUMP JUMPDEST SWAP2 POP POP SWAP3 POP SWAP3 POP SWAP3 JUMP JUMPDEST PUSH1 0x0 DUP1 PUSH1 0x0 DUP1 PUSH1 0x80 DUP6 DUP8 SUB SLT ISZERO PUSH2 0x19D4 JUMPI PUSH1 0x0 DUP1 REVERT JUMPDEST PUSH2 0x19DD DUP6 PUSH2 0x14B0 JUMP JUMPDEST SWAP4 POP PUSH1 0x20 DUP6 ADD CALLDATALOAD SWAP3 POP PUSH1 0x40 DUP6 ADD CALLDATALOAD SWAP2 POP PUSH1 0x60 DUP6 ADD CALLDATALOAD PUSH8 0xFFFFFFFFFFFFFFFF DUP2 GT ISZERO PUSH2 0x1A07 JUMPI PUSH1 0x0 DUP1 REVERT JUMPDEST PUSH2 0x177B DUP8 DUP3 DUP9 ADD PUSH2 0x167A JUMP JUMPDEST PUSH1 0x0 DUP1 PUSH1 0x40 DUP4 DUP6 SUB SLT ISZERO PUSH2 0x1A26 JUMPI PUSH1 0x0 DUP1 REVERT JUMPDEST PUSH2 0x1A2F DUP4 PUSH2 0x14B0 JUMP JUMPDEST SWAP2 POP PUSH1 0x20 DUP4 ADD CALLDATALOAD DUP1 ISZERO ISZERO DUP2 EQ PUSH2 0x1A44 JUMPI PUSH1 0x0 DUP1 REVERT JUMPDEST DUP1 SWAP2 POP POP SWAP3 POP SWAP3 SWAP1 POP JUMP JUMPDEST PUSH1 0x0 DUP1 PUSH1 0x0 PUSH1 0x60 DUP5 DUP7 SUB SLT ISZERO PUSH2 0x1A64 JUMPI PUSH1 0x0 DUP1 REVERT JUMPDEST PUSH2 0x1A6D DUP5 PUSH2 0x14B0 JUMP JUMPDEST SWAP3 POP PUSH1 0x20 DUP5 ADD CALLDATALOAD PUSH12 0xFFFFFFFFFFFFFFFFFFFFFFFF DUP2 AND DUP2 EQ PUSH2 0x1A8E JUMPI PUSH1 0x0 DUP1 REVERT JUMPDEST SWAP3 SWAP6 SWAP3 SWAP5 POP POP POP PUSH1 0x40 SWAP2 SWAP1 SWAP2 ADD CALLDATALOAD SWAP1 JUMP JUMPDEST PUSH1 0x0 DUP1 PUSH1 0x40 DUP4 DUP6 SUB SLT ISZERO PUSH2 0x1AB2 JUMPI PUSH1 0x0 DUP1 REVERT JUMPDEST PUSH2 0x1ABB DUP4 PUSH2 0x14B0 JUMP JUMPDEST SWAP2 POP PUSH2 0x1AC9 PUSH1 0x20 DUP5 ADD PUSH2 0x14B0 JUMP JUMPDEST SWAP1 POP SWAP3 POP SWAP3 SWAP1 POP JUMP JUMPDEST PUSH1 0x0 DUP1 PUSH1 0x0 DUP1 PUSH1 0x0 PUSH1 0xA0 DUP7 DUP9 SUB SLT ISZERO PUSH2 0x1AEA JUMPI PUSH1 0x0 DUP1 REVERT JUMPDEST PUSH2 0x1AF3 DUP7 PUSH2 0x14B0 JUMP JUMPDEST SWAP5 POP PUSH2 0x1B01 PUSH1 0x20 DUP8 ADD PUSH2 0x14B0 JUMP JUMPDEST SWAP4 POP PUSH1 0x40 DUP7 ADD CALLDATALOAD SWAP3 POP PUSH1 0x60 DUP7 ADD CALLDATALOAD SWAP2 POP PUSH1 0x80 DUP7 ADD CALLDATALOAD PUSH8 0xFFFFFFFFFFFFFFFF DUP2 GT ISZERO PUSH2 0x1B2B JUMPI PUSH1 0x0 DUP1 REVERT JUMPDEST PUSH2 0x1824 DUP9 DUP3 DUP10 ADD PUSH2 0x167A JUMP JUMPDEST PUSH1 0x0 PUSH1 0x20 DUP3 DUP5 SUB SLT ISZERO PUSH2 0x1B49 JUMPI PUSH1 0x0 DUP1 REVERT JUMPDEST PUSH2 0x1529 DUP3 PUSH2 0x14B0 JUMP JUMPDEST PUSH1 0x0 DUP1 PUSH1 0x0 PUSH1 0x60 DUP5 DUP7 SUB SLT ISZERO PUSH2 0x1B67 JUMPI PUSH1 0x0 DUP1 REVERT JUMPDEST PUSH2 0x1B70 DUP5 PUSH2 0x14B0 JUMP JUMPDEST SWAP6 PUSH1 0x20 DUP6 ADD CALLDATALOAD SWAP6 POP PUSH1 0x40 SWAP1 SWAP5 ADD CALLDATALOAD SWAP4 SWAP3 POP POP POP JUMP JUMPDEST PUSH1 0x1 DUP2 DUP2 SHR SWAP1 DUP3 AND DUP1 PUSH2 0x1B99 JUMPI PUSH1 0x7F DUP3 AND SWAP2 POP JUMPDEST PUSH1 0x20 DUP3 LT DUP2 SUB PUSH2 0x1BB9 JUMPI PUSH4 0x4E487B71 PUSH1 0xE0 SHL PUSH1 0x0 MSTORE PUSH1 0x22 PUSH1 0x4 MSTORE PUSH1 0x24 PUSH1 0x0 REVERT JUMPDEST POP SWAP2 SWAP1 POP JUMP JUMPDEST PUSH1 0x20 DUP1 DUP3 MSTORE PUSH1 0x2E SWAP1 DUP3 ADD MSTORE PUSH32 0x455243313135353A2063616C6C6572206973206E6F7420746F6B656E206F776E PUSH1 0x40 DUP3 ADD MSTORE PUSH14 0x195C881BDC88185C1C1C9BDD9959 PUSH1 0x92 SHL PUSH1 0x60 DUP3 ADD MSTORE PUSH1 0x80 ADD SWAP1 JUMP JUMPDEST PUSH4 0x4E487B71 PUSH1 0xE0 SHL PUSH1 0x0 MSTORE PUSH1 0x32 PUSH1 0x4 MSTORE PUSH1 0x24 PUSH1 0x0 REVERT JUMPDEST PUSH4 0x4E487B71 PUSH1 0xE0 SHL PUSH1 0x0 MSTORE PUSH1 0x11 PUSH1 0x4 MSTORE PUSH1 0x24 PUSH1 0x0 REVERT JUMPDEST PUSH1 0x0 PUSH1 0x1 DUP3 ADD PUSH2 0x1C4B JUMPI PUSH2 0x1C4B PUSH2 0x1C23 JUMP JUMPDEST POP PUSH1 0x1 ADD SWAP1 JUMP JUMPDEST PUSH1 0x20 DUP1 DUP3 MSTORE PUSH1 0x21 SWAP1 DUP3 ADD MSTORE PUSH32 0x455243313135353A206D696E7420746F20746865207A65726F20616464726573 PUSH1 0x40 DUP3 ADD MSTORE PUSH1 0x73 PUSH1 0xF8 SHL PUSH1 0x60 DUP3 ADD MSTORE PUSH1 0x80 ADD SWAP1 JUMP JUMPDEST PUSH1 0x20 DUP1 DUP3 MSTORE PUSH1 0x28 SWAP1 DUP3 ADD MSTORE PUSH32 0x455243313135353A2069647320616E6420616D6F756E7473206C656E67746820 PUSH1 0x40 DUP3 ADD MSTORE PUSH8 0xDAD2E6DAC2E8C6D PUSH1 0xC3 SHL PUSH1 0x60 DUP3 ADD MSTORE PUSH1 0x80 ADD SWAP1 JUMP JUMPDEST DUP1 DUP3 ADD DUP1 DUP3 GT ISZERO PUSH2 0x376 JUMPI PUSH2 0x376 PUSH2 0x1C23 JUMP JUMPDEST PUSH1 0x40 DUP2 MSTORE PUSH1 0x0 PUSH2 0x1D01 PUSH1 0x40 DUP4 ADD DUP6 PUSH2 0x18FC JUMP JUMPDEST DUP3 DUP2 SUB PUSH1 0x20 DUP5 ADD MSTORE PUSH2 0x1D13 DUP2 DUP6 PUSH2 0x18FC JUMP JUMPDEST SWAP6 SWAP5 POP POP POP POP POP JUMP JUMPDEST PUSH1 0x20 DUP1 DUP3 MSTORE PUSH1 0x25 SWAP1 DUP3 ADD MSTORE PUSH32 0x455243313135353A207472616E7366657220746F20746865207A65726F206164 PUSH1 0x40 DUP3 ADD MSTORE PUSH5 0x6472657373 PUSH1 0xD8 SHL PUSH1 0x60 DUP3 ADD MSTORE PUSH1 0x80 ADD SWAP1 JUMP JUMPDEST PUSH1 0x20 DUP1 DUP3 MSTORE PUSH1 0x2A SWAP1 DUP3 ADD MSTORE PUSH32 0x455243313135353A20696E73756666696369656E742062616C616E636520666F PUSH1 0x40 DUP3 ADD MSTORE PUSH10 0x39103A3930B739B332B9 PUSH1 0xB1 SHL PUSH1 0x60 DUP3 ADD MSTORE PUSH1 0x80 ADD SWAP1 JUMP JUMPDEST PUSH1 0x20 DUP1 DUP3 MSTORE PUSH1 0x23 SWAP1 DUP3 ADD MSTORE PUSH32 0x455243313135353A206275726E2066726F6D20746865207A65726F2061646472 PUSH1 0x40 DUP3 ADD MSTORE PUSH3 0x657373 PUSH1 0xE8 SHL PUSH1 0x60 DUP3 ADD MSTORE PUSH1 0x80 ADD SWAP1 JUMP JUMPDEST PUSH1 0x20 DUP1 DUP3 MSTORE PUSH1 0x24 SWAP1 DUP3 ADD MSTORE PUSH32 0x455243313135353A206275726E20616D6F756E7420657863656564732062616C PUSH1 0x40 DUP3 ADD MSTORE PUSH4 0x616E6365 PUSH1 0xE0 SHL PUSH1 0x60 DUP3 ADD MSTORE PUSH1 0x80 ADD SWAP1 JUMP JUMPDEST PUSH1 0x1 PUSH1 0x1 PUSH1 0xA0 SHL SUB DUP7 DUP2 AND DUP3 MSTORE DUP6 AND PUSH1 0x20 DUP3 ADD MSTORE PUSH1 0xA0 PUSH1 0x40 DUP3 ADD DUP2 SWAP1 MSTORE PUSH1 0x0 SWAP1 PUSH2 0x1E5E SWAP1 DUP4 ADD DUP7 PUSH2 0x18FC JUMP JUMPDEST DUP3 DUP2 SUB PUSH1 0x60 DUP5 ADD MSTORE PUSH2 0x1E70 DUP2 DUP7 PUSH2 0x18FC JUMP JUMPDEST SWAP1 POP DUP3 DUP2 SUB PUSH1 0x80 DUP5 ADD MSTORE PUSH2 0x1E84 DUP2 DUP6 PUSH2 0x1549 JUMP JUMPDEST SWAP9 SWAP8 POP POP POP POP POP POP POP POP JUMP JUMPDEST PUSH1 0x0 PUSH1 0x20 DUP3 DUP5 SUB SLT ISZERO PUSH2 0x1EA2 JUMPI PUSH1 0x0 DUP1 REVERT JUMPDEST DUP2 MLOAD PUSH2 0x1529 DUP2 PUSH2 0x14F6 JUMP JUMPDEST PUSH1 0x0 PUSH1 0x3 RETURNDATASIZE GT ISZERO PUSH2 0x1EC6 JUMPI PUSH1 0x4 PUSH1 0x0 DUP1 RETURNDATACOPY POP PUSH1 0x0 MLOAD PUSH1 0xE0 SHR JUMPDEST SWAP1 JUMP JUMPDEST PUSH1 0x0 PUSH1 0x44 RETURNDATASIZE LT ISZERO PUSH2 0x1ED7 JUMPI SWAP1 JUMP JUMPDEST PUSH1 0x40 MLOAD PUSH1 0x3 NOT RETURNDATASIZE DUP2 ADD PUSH1 0x4 DUP4 RETURNDATACOPY DUP2 MLOAD RETURNDATASIZE PUSH8 0xFFFFFFFFFFFFFFFF DUP2 PUSH1 0x24 DUP5 ADD GT DUP2 DUP5 GT OR ISZERO PUSH2 0x1F07 JUMPI POP POP POP POP POP SWAP1 JUMP JUMPDEST DUP3 DUP6 ADD SWAP2 POP DUP2 MLOAD DUP2 DUP2 GT ISZERO PUSH2 0x1F1F JUMPI POP POP POP POP POP POP SWAP1 JUMP JUMPDEST DUP5 RETURNDATASIZE DUP8 ADD ADD PUSH1 0x20 DUP3 DUP6 ADD ADD GT ISZERO PUSH2 0x1F39 JUMPI POP POP POP POP POP POP SWAP1 JUMP JUMPDEST PUSH2 0x1F48 PUSH1 0x20 DUP3 DUP7 ADD ADD DUP8 PUSH2 0x15B8 JUMP JUMPDEST POP SWAP1 SWAP6 SWAP5 POP POP POP POP POP JUMP JUMPDEST PUSH1 0x20 DUP1 DUP3 MSTORE PUSH1 0x28 SWAP1 DUP3 ADD MSTORE PUSH32 0x455243313135353A204552433131353552656365697665722072656A65637465 PUSH1 0x40 DUP3 ADD MSTORE PUSH8 0x6420746F6B656E73 PUSH1 0xC0 SHL PUSH1 0x60 DUP3 ADD MSTORE PUSH1 0x80 ADD SWAP1 JUMP JUMPDEST PUSH1 0x1 PUSH1 0x1 PUSH1 0xA0 SHL SUB DUP7 DUP2 AND DUP3 MSTORE DUP6 AND PUSH1 0x20 DUP3 ADD MSTORE PUSH1 0x40 DUP2 ADD DUP5 SWAP1 MSTORE PUSH1 0x60 DUP2 ADD DUP4 SWAP1 MSTORE PUSH1 0xA0 PUSH1 0x80 DUP3 ADD DUP2 SWAP1 MSTORE PUSH1 0x0 SWAP1 PUSH2 0x1FD5 SWAP1 DUP4 ADD DUP5 PUSH2 0x1549 JUMP JUMPDEST SWAP8 SWAP7 POP POP POP POP POP POP POP JUMP INVALID LOG2 PUSH5 0x6970667358 0x22 SLT KECCAK256 0xE4 DUP3 0xF LOG1 0xC7 GT CALLDATACOPY 0x21 0x49 0xC4 0xBF 0xC0 PUSH16 0x86C6E696624032DEC34E37A1835EC35E PREVRANDAO EXTCODEHASH 0x27 PUSH5 0x736F6C6343 STOP ADDMOD SLT STOP CALLER "
				},
				"gasEstimates": {
					"creation": {
						"codeDepositCost": "1642800",
						"executionCost": "infinite",
						"totalCost": "infinite"
					},
					"external": {
						"balanceOf(address,uint256)": "2700",
						"balanceOfBatch(address[],uint256[])": "infinite",
						"burn(address,uint256,uint256)": "infinite",
						"burn(address,uint96,uint256)": "infinite",
						"burnBatch(address,uint256[],uint256[])": "infinite",
						"isApprovedForAll(address,address)": "infinite",
						"mint(address,uint256,uint256,bytes)": "infinite",
						"mintBatch(address,uint256[],uint256[],bytes)": "infinite",
						"owner()": "2419",
						"pause()": "infinite",
						"paused()": "2393",
						"renounceOwnership()": "infinite",
						"safeBatchTransferFrom(address,address,uint256[],uint256[],bytes)": "infinite",
						"safeTransferFrom(address,address,uint256,uint256,bytes)": "infinite",
						"setApprovalForAll(address,bool)": "26794",
						"supportsInterface(bytes4)": "578",
						"transferOwnership(address)": "28457",
						"unpause()": "infinite",
						"uri(uint256)": "infinite"
					},
					"internal": {
						"_beforeTokenTransfer(address,address,address,uint256[] memory,uint256[] memory,bytes memory)": "infinite"
					}
				},
				"methodIdentifiers": {
					"balanceOf(address,uint256)": "00fdd58e",
					"balanceOfBatch(address[],uint256[])": "4e1273f4",
					"burn(address,uint256,uint256)": "f5298aca",
					"burn(address,uint96,uint256)": "d501dc37",
					"burnBatch(address,uint256[],uint256[])": "6b20c454",
					"isApprovedForAll(address,address)": "e985e9c5",
					"mint(address,uint256,uint256,bytes)": "731133e9",
					"mintBatch(address,uint256[],uint256[],bytes)": "1f7fdffa",
					"owner()": "8da5cb5b",
					"pause()": "8456cb59",
					"paused()": "5c975abb",
					"renounceOwnership()": "715018a6",
					"safeBatchTransferFrom(address,address,uint256[],uint256[],bytes)": "2eb2c2d6",
					"safeTransferFrom(address,address,uint256,uint256,bytes)": "f242432a",
					"setApprovalForAll(address,bool)": "a22cb465",
					"supportsInterface(bytes4)": "01ffc9a7",
					"transferOwnership(address)": "f2fde38b",
					"unpause()": "3f4ba83a",
					"uri(uint256)": "0e89341c"
				}
			},
			"storageLayout": {
				"storage": [
					{
						"astId": 791,
						"contract": "contracts/DTiket_flattened.sol:DTiket",
						"label": "_balances",
						"offset": 0,
						"slot": "0",
						"type": "t_mapping(t_uint256,t_mapping(t_address,t_uint256))"
					},
					{
						"astId": 797,
						"contract": "contracts/DTiket_flattened.sol:DTiket",
						"label": "_operatorApprovals",
						"offset": 0,
						"slot": "1",
						"type": "t_mapping(t_address,t_mapping(t_address,t_bool))"
					},
					{
						"astId": 799,
						"contract": "contracts/DTiket_flattened.sol:DTiket",
						"label": "_uri",
						"offset": 0,
						"slot": "2",
						"type": "t_string_storage"
					},
					{
						"astId": 148,
						"contract": "contracts/DTiket_flattened.sol:DTiket",
						"label": "_paused",
						"offset": 0,
						"slot": "3",
						"type": "t_bool"
					},
					{
						"astId": 27,
						"contract": "contracts/DTiket_flattened.sol:DTiket",
						"label": "_owner",
						"offset": 1,
						"slot": "3",
						"type": "t_address"
					}
				],
				"types": {
					"t_address": {
						"encoding": "inplace",
						"label": "address",
						"numberOfBytes": "20"
					},
					"t_bool": {
						"encoding": "inplace",
						"label": "bool",
						"numberOfBytes": "1"
					},
					"t_mapping(t_address,t_bool)": {
						"encoding": "mapping",
						"key": "t_address",
						"label": "mapping(address => bool)",
						"numberOfBytes": "32",
						"value": "t_bool"
					},
					"t_mapping(t_address,t_mapping(t_address,t_bool))": {
						"encoding": "mapping",
						"key": "t_address",
						"label": "mapping(address => mapping(address => bool))",
						"numberOfBytes": "32",
						"value": "t_mapping(t_address,t_bool)"
					},
					"t_mapping(t_address,t_uint256)": {
						"encoding": "mapping",
						"key": "t_address",
						"label": "mapping(address => uint256)",
						"numberOfBytes": "32",
						"value": "t_uint256"
					},
					"t_mapping(t_uint256,t_mapping(t_address,t_uint256))": {
						"encoding": "mapping",
						"key": "t_uint256",
						"label": "mapping(uint256 => mapping(address => uint256))",
						"numberOfBytes": "32",
						"value": "t_mapping(t_address,t_uint256)"
					},
					"t_string_storage": {
						"encoding": "bytes",
						"label": "string",
						"numberOfBytes": "32"
					},
					"t_uint256": {
						"encoding": "inplace",
						"label": "uint256",
						"numberOfBytes": "32"
					}
				}
			},
			"userdoc": {
				"kind": "user",
				"methods": {},
				"version": 1
			}
		}
	}
}