{
	"contracts/FundRegistry_flattened.sol": {
		"FundRegistry": {
			"abi": [
				{
					"inputs": [
						{
							"internalType": "contract ERC1155",
							"name": "_token",
							"type": "address"
						}
					],
					"stateMutability": "nonpayable",
					"type": "constructor"
				},
				{
					"anonymous": false,
					"inputs": [
						{
							"indexed": true,
							"internalType": "uint96",
							"name": "FundId",
							"type": "uint96"
						},
						{
							"indexed": false,
							"internalType": "uint256",
							"name": "donationAmount",
							"type": "uint256"
						},
						{
							"indexed": false,
							"internalType": "uint256",
							"name": "time",
							"type": "uint256"
						}
					],
					"name": "FundCompletion",
					"type": "event"
				},
				{
					"anonymous": false,
					"inputs": [
						{
							"indexed": true,
							"internalType": "uint96",
							"name": "id",
							"type": "uint96"
						},
						{
							"indexed": false,
							"internalType": "address",
							"name": "owner",
							"type": "address"
						},
						{
							"indexed": false,
							"internalType": "address",
							"name": "payee",
							"type": "address"
						},
						{
							"indexed": true,
							"internalType": "uint256",
							"name": "threshold",
							"type": "uint256"
						},
						{
							"indexed": true,
							"internalType": "uint256",
							"name": "amount",
							"type": "uint256"
						},
						{
							"indexed": false,
							"internalType": "bool",
							"name": "isEnd",
							"type": "bool"
						},
						{
							"indexed": false,
							"internalType": "uint256",
							"name": "time",
							"type": "uint256"
						}
					],
					"name": "FundCreated",
					"type": "event"
				},
				{
					"anonymous": false,
					"inputs": [
						{
							"indexed": true,
							"internalType": "uint96",
							"name": "id",
							"type": "uint96"
						},
						{
							"indexed": false,
							"internalType": "address",
							"name": "owner",
							"type": "address"
						},
						{
							"indexed": false,
							"internalType": "address",
							"name": "payee",
							"type": "address"
						},
						{
							"indexed": true,
							"internalType": "uint256",
							"name": "threshold",
							"type": "uint256"
						},
						{
							"indexed": true,
							"internalType": "uint256",
							"name": "amount",
							"type": "uint256"
						},
						{
							"indexed": false,
							"internalType": "bool",
							"name": "isEnd",
							"type": "bool"
						},
						{
							"indexed": false,
							"internalType": "uint256",
							"name": "time",
							"type": "uint256"
						}
					],
					"name": "FundUpdated",
					"type": "event"
				},
				{
					"inputs": [
						{
							"internalType": "address",
							"name": "_owner",
							"type": "address"
						},
						{
							"internalType": "address",
							"name": "_payee",
							"type": "address"
						},
						{
							"internalType": "uint256",
							"name": "_threshold",
							"type": "uint256"
						}
					],
					"name": "createFund",
					"outputs": [],
					"stateMutability": "nonpayable",
					"type": "function"
				},
				{
					"inputs": [
						{
							"internalType": "address",
							"name": "_user",
							"type": "address"
						},
						{
							"internalType": "uint96",
							"name": "_fundId",
							"type": "uint96"
						},
						{
							"internalType": "uint256",
							"name": "_amount",
							"type": "uint256"
						}
					],
					"name": "donate",
					"outputs": [],
					"stateMutability": "nonpayable",
					"type": "function"
				},
				{
					"inputs": [],
					"name": "fundCount",
					"outputs": [
						{
							"internalType": "uint96",
							"name": "",
							"type": "uint96"
						}
					],
					"stateMutability": "view",
					"type": "function"
				},
				{
					"inputs": [
						{
							"internalType": "uint96",
							"name": "",
							"type": "uint96"
						},
						{
							"internalType": "address",
							"name": "",
							"type": "address"
						},
						{
							"internalType": "uint256",
							"name": "",
							"type": "uint256"
						}
					],
					"name": "fundDonations",
					"outputs": [
						{
							"internalType": "address",
							"name": "user",
							"type": "address"
						},
						{
							"internalType": "uint96",
							"name": "fundId",
							"type": "uint96"
						},
						{
							"internalType": "uint256",
							"name": "amount",
							"type": "uint256"
						}
					],
					"stateMutability": "view",
					"type": "function"
				},
				{
					"inputs": [
						{
							"internalType": "uint96",
							"name": "",
							"type": "uint96"
						},
						{
							"internalType": "uint256",
							"name": "",
							"type": "uint256"
						}
					],
					"name": "fundUsers",
					"outputs": [
						{
							"internalType": "address",
							"name": "",
							"type": "address"
						}
					],
					"stateMutability": "view",
					"type": "function"
				},
				{
					"inputs": [
						{
							"internalType": "uint96",
							"name": "",
							"type": "uint96"
						}
					],
					"name": "funds",
					"outputs": [
						{
							"internalType": "uint96",
							"name": "id",
							"type": "uint96"
						},
						{
							"internalType": "address",
							"name": "owner",
							"type": "address"
						},
						{
							"internalType": "uint48",
							"name": "createdAt",
							"type": "uint48"
						},
						{
							"internalType": "uint48",
							"name": "updatedAt",
							"type": "uint48"
						},
						{
							"internalType": "address",
							"name": "payee",
							"type": "address"
						},
						{
							"internalType": "uint256",
							"name": "threshold",
							"type": "uint256"
						},
						{
							"internalType": "uint256",
							"name": "donationAmount",
							"type": "uint256"
						},
						{
							"internalType": "bool",
							"name": "isEnd",
							"type": "bool"
						}
					],
					"stateMutability": "view",
					"type": "function"
				},
				{
					"inputs": [],
					"name": "getAllFunds",
					"outputs": [
						{
							"components": [
								{
									"internalType": "uint96",
									"name": "id",
									"type": "uint96"
								},
								{
									"internalType": "address",
									"name": "owner",
									"type": "address"
								},
								{
									"internalType": "uint48",
									"name": "createdAt",
									"type": "uint48"
								},
								{
									"internalType": "uint48",
									"name": "updatedAt",
									"type": "uint48"
								},
								{
									"internalType": "address",
									"name": "payee",
									"type": "address"
								},
								{
									"internalType": "uint256",
									"name": "threshold",
									"type": "uint256"
								},
								{
									"internalType": "uint256",
									"name": "donationAmount",
									"type": "uint256"
								},
								{
									"internalType": "bool",
									"name": "isEnd",
									"type": "bool"
								}
							],
							"internalType": "struct FundRegistry.Fund[]",
							"name": "",
							"type": "tuple[]"
						}
					],
					"stateMutability": "view",
					"type": "function"
				},
				{
					"inputs": [
						{
							"internalType": "uint96",
							"name": "_id",
							"type": "uint96"
						}
					],
					"name": "getFundPayee",
					"outputs": [
						{
							"internalType": "address",
							"name": "",
							"type": "address"
						}
					],
					"stateMutability": "view",
					"type": "function"
				},
				{
					"inputs": [
						{
							"internalType": "uint96",
							"name": "_startId",
							"type": "uint96"
						},
						{
							"internalType": "uint96",
							"name": "_endId",
							"type": "uint96"
						}
					],
					"name": "getFunds",
					"outputs": [
						{
							"components": [
								{
									"internalType": "uint96",
									"name": "id",
									"type": "uint96"
								},
								{
									"internalType": "address",
									"name": "owner",
									"type": "address"
								},
								{
									"internalType": "uint48",
									"name": "createdAt",
									"type": "uint48"
								},
								{
									"internalType": "uint48",
									"name": "updatedAt",
									"type": "uint48"
								},
								{
									"internalType": "address",
									"name": "payee",
									"type": "address"
								},
								{
									"internalType": "uint256",
									"name": "threshold",
									"type": "uint256"
								},
								{
									"internalType": "uint256",
									"name": "donationAmount",
									"type": "uint256"
								},
								{
									"internalType": "bool",
									"name": "isEnd",
									"type": "bool"
								}
							],
							"internalType": "struct FundRegistry.Fund[]",
							"name": "",
							"type": "tuple[]"
						}
					],
					"stateMutability": "view",
					"type": "function"
				},
				{
					"inputs": [
						{
							"internalType": "uint96",
							"name": "_fundId",
							"type": "uint96"
						},
						{
							"internalType": "uint96",
							"name": "totalTicket",
							"type": "uint96"
						}
					],
					"name": "mintDTiket",
					"outputs": [],
					"stateMutability": "nonpayable",
					"type": "function"
				},
				{
					"inputs": [
						{
							"internalType": "address",
							"name": "",
							"type": "address"
						},
						{
							"internalType": "address",
							"name": "",
							"type": "address"
						},
						{
							"internalType": "uint256[]",
							"name": "",
							"type": "uint256[]"
						},
						{
							"internalType": "uint256[]",
							"name": "",
							"type": "uint256[]"
						},
						{
							"internalType": "bytes",
							"name": "",
							"type": "bytes"
						}
					],
					"name": "onERC1155BatchReceived",
					"outputs": [
						{
							"internalType": "bytes4",
							"name": "",
							"type": "bytes4"
						}
					],
					"stateMutability": "nonpayable",
					"type": "function"
				},
				{
					"inputs": [
						{
							"internalType": "address",
							"name": "",
							"type": "address"
						},
						{
							"internalType": "address",
							"name": "",
							"type": "address"
						},
						{
							"internalType": "uint256",
							"name": "",
							"type": "uint256"
						},
						{
							"internalType": "uint256",
							"name": "",
							"type": "uint256"
						},
						{
							"internalType": "bytes",
							"name": "",
							"type": "bytes"
						}
					],
					"name": "onERC1155Received",
					"outputs": [
						{
							"internalType": "bytes4",
							"name": "",
							"type": "bytes4"
						}
					],
					"stateMutability": "nonpayable",
					"type": "function"
				},
				{
					"inputs": [
						{
							"internalType": "bytes4",
							"name": "interfaceId",
							"type": "bytes4"
						}
					],
					"name": "supportsInterface",
					"outputs": [
						{
							"internalType": "bool",
							"name": "",
							"type": "bool"
						}
					],
					"stateMutability": "view",
					"type": "function"
				},
				{
					"inputs": [
						{
							"internalType": "uint96",
							"name": "_id",
							"type": "uint96"
						},
						{
							"internalType": "address",
							"name": "_owner",
							"type": "address"
						},
						{
							"internalType": "address",
							"name": "_payee",
							"type": "address"
						},
						{
							"internalType": "uint256",
							"name": "_threshold",
							"type": "uint256"
						}
					],
					"name": "updateFund",
					"outputs": [],
					"stateMutability": "nonpayable",
					"type": "function"
				}
			],
			"devdoc": {
				"kind": "dev",
				"methods": {
					"supportsInterface(bytes4)": {
						"details": "See {IERC165-supportsInterface}."
					}
				},
				"version": 1
			},
			"evm": {
				"assembly": "    /* \"contracts/FundRegistry_flattened.sol\":73542:79607  contract FundRegistry is ERC1155Holder {... */\n  mstore(0x40, 0x80)\n    /* \"contracts/FundRegistry_flattened.sol\":73635:73694  constructor(ERC1155 _token) {... */\n  callvalue\n  dup1\n  iszero\n  tag_1\n  jumpi\n  0x00\n  dup1\n  revert\ntag_1:\n  pop\n  mload(0x40)\n  sub(codesize, bytecodeSize)\n  dup1\n  bytecodeSize\n  dup4\n  codecopy\n  dup2\n  dup2\n  add\n  0x40\n  mstore\n  dup2\n  add\n  swap1\n  tag_2\n  swap2\n  swap1\n  tag_3\n  jump\t// in\ntag_2:\n    /* \"contracts/FundRegistry_flattened.sol\":73681:73687  _token */\n  dup1\n    /* \"contracts/FundRegistry_flattened.sol\":73673:73678  token */\n  0x00\n  dup1\n    /* \"contracts/FundRegistry_flattened.sol\":73673:73687  token = _token */\n  0x0100\n  exp\n  dup2\n  sload\n  dup2\n  0xffffffffffffffffffffffffffffffffffffffff\n  mul\n  not\n  and\n  swap1\n  dup4\n  0xffffffffffffffffffffffffffffffffffffffff\n  and\n  mul\n  or\n  swap1\n  sstore\n  pop\n    /* \"contracts/FundRegistry_flattened.sol\":73635:73694  constructor(ERC1155 _token) {... */\n  pop\n    /* \"contracts/FundRegistry_flattened.sol\":73542:79607  contract FundRegistry is ERC1155Holder {... */\n  jump(tag_6)\n    /* \"#utility.yul\":88:205   */\ntag_8:\n    /* \"#utility.yul\":197:198   */\n  0x00\n    /* \"#utility.yul\":194:195   */\n  dup1\n    /* \"#utility.yul\":187:199   */\n  revert\n    /* \"#utility.yul\":334:460   */\ntag_10:\n    /* \"#utility.yul\":371:378   */\n  0x00\n    /* \"#utility.yul\":411:453   */\n  0xffffffffffffffffffffffffffffffffffffffff\n    /* \"#utility.yul\":404:409   */\n  dup3\n    /* \"#utility.yul\":400:454   */\n  and\n    /* \"#utility.yul\":389:454   */\n  swap1\n  pop\n    /* \"#utility.yul\":334:460   */\n  swap2\n  swap1\n  pop\n  jump\t// out\n    /* \"#utility.yul\":466:562   */\ntag_11:\n    /* \"#utility.yul\":503:510   */\n  0x00\n    /* \"#utility.yul\":532:556   */\n  tag_21\n    /* \"#utility.yul\":550:555   */\n  dup3\n    /* \"#utility.yul\":532:556   */\n  tag_10\n  jump\t// in\ntag_21:\n    /* \"#utility.yul\":521:556   */\n  swap1\n  pop\n    /* \"#utility.yul\":466:562   */\n  swap2\n  swap1\n  pop\n  jump\t// out\n    /* \"#utility.yul\":568:680   */\ntag_12:\n    /* \"#utility.yul\":621:628   */\n  0x00\n    /* \"#utility.yul\":650:674   */\n  tag_23\n    /* \"#utility.yul\":668:673   */\n  dup3\n    /* \"#utility.yul\":650:674   */\n  tag_11\n  jump\t// in\ntag_23:\n    /* \"#utility.yul\":639:674   */\n  swap1\n  pop\n    /* \"#utility.yul\":568:680   */\n  swap2\n  swap1\n  pop\n  jump\t// out\n    /* \"#utility.yul\":686:840   */\ntag_13:\n    /* \"#utility.yul\":775:815   */\n  tag_25\n    /* \"#utility.yul\":809:814   */\n  dup2\n    /* \"#utility.yul\":775:815   */\n  tag_12\n  jump\t// in\ntag_25:\n    /* \"#utility.yul\":768:773   */\n  dup2\n    /* \"#utility.yul\":765:816   */\n  eq\n    /* \"#utility.yul\":755:834   */\n  tag_26\n  jumpi\n    /* \"#utility.yul\":830:831   */\n  0x00\n    /* \"#utility.yul\":827:828   */\n  dup1\n    /* \"#utility.yul\":820:832   */\n  revert\n    /* \"#utility.yul\":755:834   */\ntag_26:\n    /* \"#utility.yul\":686:840   */\n  pop\n  jump\t// out\n    /* \"#utility.yul\":846:1021   */\ntag_14:\n    /* \"#utility.yul\":919:924   */\n  0x00\n    /* \"#utility.yul\":950:956   */\n  dup2\n    /* \"#utility.yul\":944:957   */\n  mload\n    /* \"#utility.yul\":935:957   */\n  swap1\n  pop\n    /* \"#utility.yul\":966:1015   */\n  tag_28\n    /* \"#utility.yul\":1009:1014   */\n  dup2\n    /* \"#utility.yul\":966:1015   */\n  tag_13\n  jump\t// in\ntag_28:\n    /* \"#utility.yul\":846:1021   */\n  swap3\n  swap2\n  pop\n  pop\n  jump\t// out\n    /* \"#utility.yul\":1027:1410   */\ntag_3:\n    /* \"#utility.yul\":1113:1119   */\n  0x00\n    /* \"#utility.yul\":1162:1164   */\n  0x20\n    /* \"#utility.yul\":1150:1159   */\n  dup3\n    /* \"#utility.yul\":1141:1148   */\n  dup5\n    /* \"#utility.yul\":1137:1160   */\n  sub\n    /* \"#utility.yul\":1133:1165   */\n  slt\n    /* \"#utility.yul\":1130:1249   */\n  iszero\n  tag_30\n  jumpi\n    /* \"#utility.yul\":1168:1247   */\n  tag_31\n  tag_8\n  jump\t// in\ntag_31:\n    /* \"#utility.yul\":1130:1249   */\ntag_30:\n    /* \"#utility.yul\":1288:1289   */\n  0x00\n    /* \"#utility.yul\":1313:1393   */\n  tag_32\n    /* \"#utility.yul\":1385:1392   */\n  dup5\n    /* \"#utility.yul\":1376:1382   */\n  dup3\n    /* \"#utility.yul\":1365:1374   */\n  dup6\n    /* \"#utility.yul\":1361:1383   */\n  add\n    /* \"#utility.yul\":1313:1393   */\n  tag_14\n  jump\t// in\ntag_32:\n    /* \"#utility.yul\":1303:1393   */\n  swap2\n  pop\n    /* \"#utility.yul\":1259:1403   */\n  pop\n    /* \"#utility.yul\":1027:1410   */\n  swap3\n  swap2\n  pop\n  pop\n  jump\t// out\n    /* \"contracts/FundRegistry_flattened.sol\":73542:79607  contract FundRegistry is ERC1155Holder {... */\ntag_6:\n  dataSize(sub_0)\n  dup1\n  dataOffset(sub_0)\n  0x00\n  codecopy\n  0x00\n  return\nstop\n\nsub_0: assembly {\n        /* \"contracts/FundRegistry_flattened.sol\":73542:79607  contract FundRegistry is ERC1155Holder {... */\n      mstore(0x40, 0x80)\n      callvalue\n      dup1\n      iszero\n      tag_1\n      jumpi\n      0x00\n      dup1\n      revert\n    tag_1:\n      pop\n      jumpi(tag_2, lt(calldatasize, 0x04))\n      shr(0xe0, calldataload(0x00))\n      dup1\n      0x3f936ff5\n      gt\n      tag_17\n      jumpi\n      dup1\n      0x88b53ced\n      gt\n      tag_18\n      jumpi\n      dup1\n      0x88b53ced\n      eq\n      tag_13\n      jumpi\n      dup1\n      0xbc197c81\n      eq\n      tag_14\n      jumpi\n      dup1\n      0xdd7d7929\n      eq\n      tag_15\n      jumpi\n      dup1\n      0xf23a6e61\n      eq\n      tag_16\n      jumpi\n      jump(tag_2)\n    tag_18:\n      dup1\n      0x3f936ff5\n      eq\n      tag_10\n      jumpi\n      dup1\n      0x6c173d38\n      eq\n      tag_11\n      jumpi\n      dup1\n      0x7a3819cb\n      eq\n      tag_12\n      jumpi\n      jump(tag_2)\n    tag_17:\n      dup1\n      0x1c69b464\n      gt\n      tag_19\n      jumpi\n      dup1\n      0x1c69b464\n      eq\n      tag_6\n      jumpi\n      dup1\n      0x1f71f89f\n      eq\n      tag_7\n      jumpi\n      dup1\n      0x2f14670c\n      eq\n      tag_8\n      jumpi\n      dup1\n      0x380eaaf9\n      eq\n      tag_9\n      jumpi\n      jump(tag_2)\n    tag_19:\n      dup1\n      0x01ffc9a7\n      eq\n      tag_3\n      jumpi\n      dup1\n      0x11c9fb83\n      eq\n      tag_4\n      jumpi\n      dup1\n      0x17444626\n      eq\n      tag_5\n      jumpi\n    tag_2:\n      0x00\n      dup1\n      revert\n        /* \"contracts/FundRegistry_flattened.sol\":28820:29041  function supportsInterface(bytes4 interfaceId) public view virtual override(ERC165, IERC165) returns (bool) {... */\n    tag_3:\n      tag_20\n      0x04\n      dup1\n      calldatasize\n      sub\n      dup2\n      add\n      swap1\n      tag_21\n      swap2\n      swap1\n      tag_22\n      jump\t// in\n    tag_21:\n      tag_23\n      jump\t// in\n    tag_20:\n      mload(0x40)\n      tag_24\n      swap2\n      swap1\n      tag_25\n      jump\t// in\n    tag_24:\n      mload(0x40)\n      dup1\n      swap2\n      sub\n      swap1\n      return\n        /* \"contracts/FundRegistry_flattened.sol\":77460:78263  function mintDTiket(uint96 _fundId, uint96 totalTicket) public {... */\n    tag_4:\n      tag_26\n      0x04\n      dup1\n      calldatasize\n      sub\n      dup2\n      add\n      swap1\n      tag_27\n      swap2\n      swap1\n      tag_28\n      jump\t// in\n    tag_27:\n      tag_29\n      jump\t// in\n    tag_26:\n      stop\n        /* \"contracts/FundRegistry_flattened.sol\":75007:75525  function createFund(... */\n    tag_5:\n      tag_30\n      0x04\n      dup1\n      calldatasize\n      sub\n      dup2\n      add\n      swap1\n      tag_31\n      swap2\n      swap1\n      tag_32\n      jump\t// in\n    tag_31:\n      tag_33\n      jump\t// in\n    tag_30:\n      stop\n        /* \"contracts/FundRegistry_flattened.sol\":78891:78997  function getAllFunds() external view returns (Fund[] memory){... */\n    tag_6:\n      tag_34\n      tag_35\n      jump\t// in\n    tag_34:\n      mload(0x40)\n      tag_36\n      swap2\n      swap1\n      tag_37\n      jump\t// in\n    tag_36:\n      mload(0x40)\n      dup1\n      swap2\n      sub\n      swap1\n      return\n        /* \"contracts/FundRegistry_flattened.sol\":74237:74273  mapping(uint96 => Fund) public funds */\n    tag_7:\n      tag_38\n      0x04\n      dup1\n      calldatasize\n      sub\n      dup2\n      add\n      swap1\n      tag_39\n      swap2\n      swap1\n      tag_40\n      jump\t// in\n    tag_39:\n      tag_41\n      jump\t// in\n    tag_38:\n      mload(0x40)\n      tag_42\n      swap9\n      swap8\n      swap7\n      swap6\n      swap5\n      swap4\n      swap3\n      swap2\n      swap1\n      tag_43\n      jump\t// in\n    tag_42:\n      mload(0x40)\n      dup1\n      swap2\n      sub\n      swap1\n      return\n        /* \"contracts/FundRegistry_flattened.sol\":74279:74324  mapping(uint96 => address[]) public fundUsers */\n    tag_8:\n      tag_44\n      0x04\n      dup1\n      calldatasize\n      sub\n      dup2\n      add\n      swap1\n      tag_45\n      swap2\n      swap1\n      tag_46\n      jump\t// in\n    tag_45:\n      tag_47\n      jump\t// in\n    tag_44:\n      mload(0x40)\n      tag_48\n      swap2\n      swap1\n      tag_49\n      jump\t// in\n    tag_48:\n      mload(0x40)\n      dup1\n      swap2\n      sub\n      swap1\n      return\n        /* \"contracts/FundRegistry_flattened.sol\":79003:79429  function getFunds(uint96 _startId, uint96 _endId) public view returns (Fund[] memory){... */\n    tag_9:\n      tag_50\n      0x04\n      dup1\n      calldatasize\n      sub\n      dup2\n      add\n      swap1\n      tag_51\n      swap2\n      swap1\n      tag_28\n      jump\t// in\n    tag_51:\n      tag_52\n      jump\t// in\n    tag_50:\n      mload(0x40)\n      tag_53\n      swap2\n      swap1\n      tag_37\n      jump\t// in\n    tag_53:\n      mload(0x40)\n      dup1\n      swap2\n      sub\n      swap1\n      return\n        /* \"contracts/FundRegistry_flattened.sol\":73606:73629  uint96 public fundCount */\n    tag_10:\n      tag_54\n      tag_55\n      jump\t// in\n    tag_54:\n      mload(0x40)\n      tag_56\n      swap2\n      swap1\n      tag_57\n      jump\t// in\n    tag_56:\n      mload(0x40)\n      dup1\n      swap2\n      sub\n      swap1\n      return\n        /* \"contracts/FundRegistry_flattened.sol\":79439:79603  function getFundPayee(uint96 _id) public view returns (address){... */\n    tag_11:\n      tag_58\n      0x04\n      dup1\n      calldatasize\n      sub\n      dup2\n      add\n      swap1\n      tag_59\n      swap2\n      swap1\n      tag_40\n      jump\t// in\n    tag_59:\n      tag_60\n      jump\t// in\n    tag_58:\n      mload(0x40)\n      tag_61\n      swap2\n      swap1\n      tag_49\n      jump\t// in\n    tag_61:\n      mload(0x40)\n      dup1\n      swap2\n      sub\n      swap1\n      return\n        /* \"contracts/FundRegistry_flattened.sol\":74330:74400  mapping(uint96 => mapping(address => Donation[])) public fundDonations */\n    tag_12:\n      tag_62\n      0x04\n      dup1\n      calldatasize\n      sub\n      dup2\n      add\n      swap1\n      tag_63\n      swap2\n      swap1\n      tag_64\n      jump\t// in\n    tag_63:\n      tag_65\n      jump\t// in\n    tag_62:\n      mload(0x40)\n      tag_66\n      swap4\n      swap3\n      swap2\n      swap1\n      tag_67\n      jump\t// in\n    tag_66:\n      mload(0x40)\n      dup1\n      swap2\n      sub\n      swap1\n      return\n        /* \"contracts/FundRegistry_flattened.sol\":76511:76733  function donate(... */\n    tag_13:\n      tag_68\n      0x04\n      dup1\n      calldatasize\n      sub\n      dup2\n      add\n      swap1\n      tag_69\n      swap2\n      swap1\n      tag_70\n      jump\t// in\n    tag_69:\n      tag_71\n      jump\t// in\n    tag_68:\n      stop\n        /* \"contracts/FundRegistry_flattened.sol\":29272:29519  function onERC1155BatchReceived(... */\n    tag_14:\n      tag_72\n      0x04\n      dup1\n      calldatasize\n      sub\n      dup2\n      add\n      swap1\n      tag_73\n      swap2\n      swap1\n      tag_74\n      jump\t// in\n    tag_73:\n      tag_75\n      jump\t// in\n    tag_72:\n      mload(0x40)\n      tag_76\n      swap2\n      swap1\n      tag_77\n      jump\t// in\n    tag_76:\n      mload(0x40)\n      dup1\n      swap2\n      sub\n      swap1\n      return\n        /* \"contracts/FundRegistry_flattened.sol\":78269:78881  function updateFund(... */\n    tag_15:\n      tag_78\n      0x04\n      dup1\n      calldatasize\n      sub\n      dup2\n      add\n      swap1\n      tag_79\n      swap2\n      swap1\n      tag_80\n      jump\t// in\n    tag_79:\n      tag_81\n      jump\t// in\n    tag_78:\n      stop\n        /* \"contracts/FundRegistry_flattened.sol\":29047:29266  function onERC1155Received(... */\n    tag_16:\n      tag_82\n      0x04\n      dup1\n      calldatasize\n      sub\n      dup2\n      add\n      swap1\n      tag_83\n      swap2\n      swap1\n      tag_84\n      jump\t// in\n    tag_83:\n      tag_85\n      jump\t// in\n    tag_82:\n      mload(0x40)\n      tag_86\n      swap2\n      swap1\n      tag_77\n      jump\t// in\n    tag_86:\n      mload(0x40)\n      dup1\n      swap2\n      sub\n      swap1\n      return\n        /* \"contracts/FundRegistry_flattened.sol\":28820:29041  function supportsInterface(bytes4 interfaceId) public view virtual override(ERC165, IERC165) returns (bool) {... */\n    tag_23:\n        /* \"contracts/FundRegistry_flattened.sol\":28922:28926  bool */\n      0x00\n        /* \"contracts/FundRegistry_flattened.sol\":28960:28994  type(IERC1155Receiver).interfaceId */\n      0x4e2312e000000000000000000000000000000000000000000000000000000000\n        /* \"contracts/FundRegistry_flattened.sol\":28945:28994  interfaceId == type(IERC1155Receiver).interfaceId */\n      not(0xffffffffffffffffffffffffffffffffffffffffffffffffffffffff)\n      and\n        /* \"contracts/FundRegistry_flattened.sol\":28945:28956  interfaceId */\n      dup3\n        /* \"contracts/FundRegistry_flattened.sol\":28945:28994  interfaceId == type(IERC1155Receiver).interfaceId */\n      not(0xffffffffffffffffffffffffffffffffffffffffffffffffffffffff)\n      and\n      eq\n        /* \"contracts/FundRegistry_flattened.sol\":28945:29034  interfaceId == type(IERC1155Receiver).interfaceId || super.supportsInterface(interfaceId) */\n      dup1\n      tag_88\n      jumpi\n      pop\n        /* \"contracts/FundRegistry_flattened.sol\":28998:29034  super.supportsInterface(interfaceId) */\n      tag_89\n        /* \"contracts/FundRegistry_flattened.sol\":29022:29033  interfaceId */\n      dup3\n        /* \"contracts/FundRegistry_flattened.sol\":28998:29021  super.supportsInterface */\n      tag_90\n        /* \"contracts/FundRegistry_flattened.sol\":28998:29034  super.supportsInterface(interfaceId) */\n      jump\t// in\n    tag_89:\n        /* \"contracts/FundRegistry_flattened.sol\":28945:29034  interfaceId == type(IERC1155Receiver).interfaceId || super.supportsInterface(interfaceId) */\n    tag_88:\n        /* \"contracts/FundRegistry_flattened.sol\":28938:29034  return interfaceId == type(IERC1155Receiver).interfaceId || super.supportsInterface(interfaceId) */\n      swap1\n      pop\n        /* \"contracts/FundRegistry_flattened.sol\":28820:29041  function supportsInterface(bytes4 interfaceId) public view virtual override(ERC165, IERC165) returns (bool) {... */\n      swap2\n      swap1\n      pop\n      jump\t// out\n        /* \"contracts/FundRegistry_flattened.sol\":77460:78263  function mintDTiket(uint96 _fundId, uint96 totalTicket) public {... */\n    tag_29:\n        /* \"contracts/FundRegistry_flattened.sol\":77533:77555  uint256 donationAmount */\n      0x00\n        /* \"contracts/FundRegistry_flattened.sol\":77558:77563  funds */\n      0x01\n        /* \"contracts/FundRegistry_flattened.sol\":77558:77572  funds[_fundId] */\n      0x00\n        /* \"contracts/FundRegistry_flattened.sol\":77564:77571  _fundId */\n      dup5\n        /* \"contracts/FundRegistry_flattened.sol\":77558:77572  funds[_fundId] */\n      0xffffffffffffffffffffffff\n      and\n      0xffffffffffffffffffffffff\n      and\n      dup2\n      mstore\n      0x20\n      add\n      swap1\n      dup2\n      mstore\n      0x20\n      add\n      0x00\n      keccak256\n        /* \"contracts/FundRegistry_flattened.sol\":77558:77587  funds[_fundId].donationAmount */\n      0x03\n      add\n      sload\n        /* \"contracts/FundRegistry_flattened.sol\":77533:77587  uint256 donationAmount = funds[_fundId].donationAmount */\n      swap1\n      pop\n        /* \"contracts/FundRegistry_flattened.sol\":77597:77627  address[] memory userAddresses */\n      0x00\n        /* \"contracts/FundRegistry_flattened.sol\":77630:77639  fundUsers */\n      0x02\n        /* \"contracts/FundRegistry_flattened.sol\":77630:77648  fundUsers[_fundId] */\n      0x00\n        /* \"contracts/FundRegistry_flattened.sol\":77640:77647  _fundId */\n      dup6\n        /* \"contracts/FundRegistry_flattened.sol\":77630:77648  fundUsers[_fundId] */\n      0xffffffffffffffffffffffff\n      and\n      0xffffffffffffffffffffffff\n      and\n      dup2\n      mstore\n      0x20\n      add\n      swap1\n      dup2\n      mstore\n      0x20\n      add\n      0x00\n      keccak256\n        /* \"contracts/FundRegistry_flattened.sol\":77597:77648  address[] memory userAddresses = fundUsers[_fundId] */\n      dup1\n      sload\n      dup1\n      0x20\n      mul\n      0x20\n      add\n      mload(0x40)\n      swap1\n      dup2\n      add\n      0x40\n      mstore\n      dup1\n      swap3\n      swap2\n      swap1\n      dup2\n      dup2\n      mstore\n      0x20\n      add\n      dup3\n      dup1\n      sload\n      dup1\n      iszero\n      tag_92\n      jumpi\n      0x20\n      mul\n      dup3\n      add\n      swap2\n      swap1\n      0x00\n      mstore\n      keccak256(0x00, 0x20)\n      swap1\n    tag_93:\n      dup2\n      0x00\n      swap1\n      sload\n      swap1\n      0x0100\n      exp\n      swap1\n      div\n      0xffffffffffffffffffffffffffffffffffffffff\n      and\n      0xffffffffffffffffffffffffffffffffffffffff\n      and\n      dup2\n      mstore\n      0x20\n      add\n      swap1\n      0x01\n      add\n      swap1\n      dup1\n      dup4\n      gt\n      tag_93\n      jumpi\n    tag_92:\n      pop\n      pop\n      pop\n      pop\n      pop\n      swap1\n      pop\n        /* \"contracts/FundRegistry_flattened.sol\":77726:77743  uint256 userTotal */\n      0x00\n        /* \"contracts/FundRegistry_flattened.sol\":77758:77766  uint96 j */\n      dup1\n        /* \"contracts/FundRegistry_flattened.sol\":77769:77770  0 */\n      0x00\n        /* \"contracts/FundRegistry_flattened.sol\":77758:77770  uint96 j = 0 */\n      swap1\n      pop\n        /* \"contracts/FundRegistry_flattened.sol\":77753:78257  for (uint96 j = 0; j < userAddresses.length; j++){ //각 유저에게 전송... */\n    tag_94:\n        /* \"contracts/FundRegistry_flattened.sol\":77776:77789  userAddresses */\n      dup3\n        /* \"contracts/FundRegistry_flattened.sol\":77776:77796  userAddresses.length */\n      mload\n        /* \"contracts/FundRegistry_flattened.sol\":77772:77773  j */\n      dup2\n        /* \"contracts/FundRegistry_flattened.sol\":77772:77796  j < userAddresses.length */\n      0xffffffffffffffffffffffff\n      and\n      lt\n        /* \"contracts/FundRegistry_flattened.sol\":77753:78257  for (uint96 j = 0; j < userAddresses.length; j++){ //각 유저에게 전송... */\n      iszero\n      tag_95\n      jumpi\n        /* \"contracts/FundRegistry_flattened.sol\":77857:77858  0 */\n      0x00\n        /* \"contracts/FundRegistry_flattened.sol\":77846:77858  userTotal= 0 */\n      swap2\n      pop\n        /* \"contracts/FundRegistry_flattened.sol\":77881:77889  uint96 k */\n      0x00\n        /* \"contracts/FundRegistry_flattened.sol\":77876:78060  for (uint96 k = 0; k < fundDonations[_fundId][userAddresses[j]].length; k++){... */\n    tag_97:\n        /* \"contracts/FundRegistry_flattened.sol\":77899:77912  fundDonations */\n      0x03\n        /* \"contracts/FundRegistry_flattened.sol\":77899:77921  fundDonations[_fundId] */\n      0x00\n        /* \"contracts/FundRegistry_flattened.sol\":77913:77920  _fundId */\n      dup9\n        /* \"contracts/FundRegistry_flattened.sol\":77899:77921  fundDonations[_fundId] */\n      0xffffffffffffffffffffffff\n      and\n      0xffffffffffffffffffffffff\n      and\n      dup2\n      mstore\n      0x20\n      add\n      swap1\n      dup2\n      mstore\n      0x20\n      add\n      0x00\n      keccak256\n        /* \"contracts/FundRegistry_flattened.sol\":77899:77939  fundDonations[_fundId][userAddresses[j]] */\n      0x00\n        /* \"contracts/FundRegistry_flattened.sol\":77922:77935  userAddresses */\n      dup6\n        /* \"contracts/FundRegistry_flattened.sol\":77936:77937  j */\n      dup5\n        /* \"contracts/FundRegistry_flattened.sol\":77922:77938  userAddresses[j] */\n      0xffffffffffffffffffffffff\n      and\n      dup2\n      mload\n      dup2\n      lt\n      tag_100\n      jumpi\n      tag_101\n      tag_102\n      jump\t// in\n    tag_101:\n    tag_100:\n      0x20\n      mul\n      0x20\n      add\n      add\n      mload\n        /* \"contracts/FundRegistry_flattened.sol\":77899:77939  fundDonations[_fundId][userAddresses[j]] */\n      0xffffffffffffffffffffffffffffffffffffffff\n      and\n      0xffffffffffffffffffffffffffffffffffffffff\n      and\n      dup2\n      mstore\n      0x20\n      add\n      swap1\n      dup2\n      mstore\n      0x20\n      add\n      0x00\n      keccak256\n        /* \"contracts/FundRegistry_flattened.sol\":77899:77946  fundDonations[_fundId][userAddresses[j]].length */\n      dup1\n      sload\n      swap1\n      pop\n        /* \"contracts/FundRegistry_flattened.sol\":77895:77896  k */\n      dup2\n        /* \"contracts/FundRegistry_flattened.sol\":77895:77946  k < fundDonations[_fundId][userAddresses[j]].length */\n      0xffffffffffffffffffffffff\n      and\n      lt\n        /* \"contracts/FundRegistry_flattened.sol\":77876:78060  for (uint96 k = 0; k < fundDonations[_fundId][userAddresses[j]].length; k++){... */\n      iszero\n      tag_98\n      jumpi\n        /* \"contracts/FundRegistry_flattened.sol\":77991:78004  fundDonations */\n      0x03\n        /* \"contracts/FundRegistry_flattened.sol\":77991:78013  fundDonations[_fundId] */\n      0x00\n        /* \"contracts/FundRegistry_flattened.sol\":78005:78012  _fundId */\n      dup9\n        /* \"contracts/FundRegistry_flattened.sol\":77991:78013  fundDonations[_fundId] */\n      0xffffffffffffffffffffffff\n      and\n      0xffffffffffffffffffffffff\n      and\n      dup2\n      mstore\n      0x20\n      add\n      swap1\n      dup2\n      mstore\n      0x20\n      add\n      0x00\n      keccak256\n        /* \"contracts/FundRegistry_flattened.sol\":77991:78031  fundDonations[_fundId][userAddresses[j]] */\n      0x00\n        /* \"contracts/FundRegistry_flattened.sol\":78014:78027  userAddresses */\n      dup6\n        /* \"contracts/FundRegistry_flattened.sol\":78028:78029  j */\n      dup5\n        /* \"contracts/FundRegistry_flattened.sol\":78014:78030  userAddresses[j] */\n      0xffffffffffffffffffffffff\n      and\n      dup2\n      mload\n      dup2\n      lt\n      tag_103\n      jumpi\n      tag_104\n      tag_102\n      jump\t// in\n    tag_104:\n    tag_103:\n      0x20\n      mul\n      0x20\n      add\n      add\n      mload\n        /* \"contracts/FundRegistry_flattened.sol\":77991:78031  fundDonations[_fundId][userAddresses[j]] */\n      0xffffffffffffffffffffffffffffffffffffffff\n      and\n      0xffffffffffffffffffffffffffffffffffffffff\n      and\n      dup2\n      mstore\n      0x20\n      add\n      swap1\n      dup2\n      mstore\n      0x20\n      add\n      0x00\n      keccak256\n        /* \"contracts/FundRegistry_flattened.sol\":78032:78033  k */\n      dup2\n        /* \"contracts/FundRegistry_flattened.sol\":77991:78034  fundDonations[_fundId][userAddresses[j]][k] */\n      0xffffffffffffffffffffffff\n      and\n      dup2\n      sload\n      dup2\n      lt\n      tag_105\n      jumpi\n      tag_106\n      tag_102\n      jump\t// in\n    tag_106:\n    tag_105:\n      swap1\n      0x00\n      mstore\n      keccak256(0x00, 0x20)\n      swap1\n      0x02\n      mul\n      add\n        /* \"contracts/FundRegistry_flattened.sol\":77991:78041  fundDonations[_fundId][userAddresses[j]][k].amount */\n      0x01\n      add\n      sload\n        /* \"contracts/FundRegistry_flattened.sol\":77978:78041  userTotal += fundDonations[_fundId][userAddresses[j]][k].amount */\n      dup4\n      tag_108\n      swap2\n      swap1\n      tag_109\n      jump\t// in\n    tag_108:\n      swap3\n      pop\n        /* \"contracts/FundRegistry_flattened.sol\":77948:77951  k++ */\n      dup1\n      dup1\n      tag_110\n      swap1\n      tag_111\n      jump\t// in\n    tag_110:\n      swap2\n      pop\n      pop\n        /* \"contracts/FundRegistry_flattened.sol\":77876:78060  for (uint96 k = 0; k < fundDonations[_fundId][userAddresses[j]].length; k++){... */\n      jump(tag_97)\n    tag_98:\n      pop\n        /* \"contracts/FundRegistry_flattened.sol\":78077:78082  token */\n      0x00\n      dup1\n      sload\n      swap1\n      0x0100\n      exp\n      swap1\n      div\n      0xffffffffffffffffffffffffffffffffffffffff\n      and\n        /* \"contracts/FundRegistry_flattened.sol\":78077:78099  token.safeTransferFrom */\n      0xffffffffffffffffffffffffffffffffffffffff\n      and\n      0xf242432a\n        /* \"contracts/FundRegistry_flattened.sol\":78108:78112  this */\n      address\n        /* \"contracts/FundRegistry_flattened.sol\":78115:78128  userAddresses */\n      dup6\n        /* \"contracts/FundRegistry_flattened.sol\":78129:78130  j */\n      dup5\n        /* \"contracts/FundRegistry_flattened.sol\":78115:78131  userAddresses[j] */\n      0xffffffffffffffffffffffff\n      and\n      dup2\n      mload\n      dup2\n      lt\n      tag_112\n      jumpi\n      tag_113\n      tag_102\n      jump\t// in\n    tag_113:\n    tag_112:\n      0x20\n      mul\n      0x20\n      add\n      add\n      mload\n        /* \"contracts/FundRegistry_flattened.sol\":78133:78140  _fundId */\n      dup10\n        /* \"contracts/FundRegistry_flattened.sol\":78170:78184  donationAmount */\n      dup9\n        /* \"contracts/FundRegistry_flattened.sol\":78155:78166  totalTicket */\n      dup11\n        /* \"contracts/FundRegistry_flattened.sol\":78143:78166  userTotal * totalTicket */\n      0xffffffffffffffffffffffff\n      and\n        /* \"contracts/FundRegistry_flattened.sol\":78143:78152  userTotal */\n      dup9\n        /* \"contracts/FundRegistry_flattened.sol\":78143:78166  userTotal * totalTicket */\n      tag_114\n      swap2\n      swap1\n      tag_115\n      jump\t// in\n    tag_114:\n        /* \"contracts/FundRegistry_flattened.sol\":78142:78184  (userTotal * totalTicket) / donationAmount */\n      tag_116\n      swap2\n      swap1\n      tag_117\n      jump\t// in\n    tag_116:\n        /* \"contracts/FundRegistry_flattened.sol\":78077:78193  token.safeTransferFrom(address(this), userAddresses[j], _fundId, (userTotal * totalTicket) / donationAmount, \"0x0\" ) */\n      mload(0x40)\n      dup6\n      0xffffffff\n      and\n      0xe0\n      shl\n      dup2\n      mstore\n      0x04\n      add\n      tag_118\n      swap5\n      swap4\n      swap3\n      swap2\n      swap1\n      tag_119\n      jump\t// in\n    tag_118:\n      0x00\n      mload(0x40)\n      dup1\n      dup4\n      sub\n      dup2\n      0x00\n      dup8\n      dup1\n      extcodesize\n      iszero\n      dup1\n      iszero\n      tag_120\n      jumpi\n      0x00\n      dup1\n      revert\n    tag_120:\n      pop\n      gas\n      call\n      iszero\n      dup1\n      iszero\n      tag_122\n      jumpi\n      returndatasize\n      0x00\n      dup1\n      returndatacopy\n      revert(0x00, returndatasize)\n    tag_122:\n      pop\n      pop\n      pop\n      pop\n        /* \"contracts/FundRegistry_flattened.sol\":77798:77801  j++ */\n      dup1\n      dup1\n      tag_123\n      swap1\n      tag_111\n      jump\t// in\n    tag_123:\n      swap2\n      pop\n      pop\n        /* \"contracts/FundRegistry_flattened.sol\":77753:78257  for (uint96 j = 0; j < userAddresses.length; j++){ //각 유저에게 전송... */\n      jump(tag_94)\n    tag_95:\n      pop\n        /* \"contracts/FundRegistry_flattened.sol\":77523:78263  {... */\n      pop\n      pop\n      pop\n        /* \"contracts/FundRegistry_flattened.sol\":77460:78263  function mintDTiket(uint96 _fundId, uint96 totalTicket) public {... */\n      pop\n      pop\n      jump\t// out\n        /* \"contracts/FundRegistry_flattened.sol\":75007:75525  function createFund(... */\n    tag_33:\n        /* \"contracts/FundRegistry_flattened.sol\":75129:75139  uint96 _id */\n      0x00\n        /* \"contracts/FundRegistry_flattened.sol\":75142:75151  fundCount */\n      dup1\n      0x14\n      swap1\n      sload\n      swap1\n      0x0100\n      exp\n      swap1\n      div\n      0xffffffffffffffffffffffff\n      and\n        /* \"contracts/FundRegistry_flattened.sol\":75129:75151  uint96 _id = fundCount */\n      swap1\n      pop\n        /* \"contracts/FundRegistry_flattened.sol\":75174:75381  Fund(... */\n      mload(0x40)\n      dup1\n      0x0100\n      add\n      0x40\n      mstore\n      dup1\n        /* \"contracts/FundRegistry_flattened.sol\":75192:75195  _id */\n      dup3\n        /* \"contracts/FundRegistry_flattened.sol\":75174:75381  Fund(... */\n      0xffffffffffffffffffffffff\n      and\n      dup2\n      mstore\n      0x20\n      add\n        /* \"contracts/FundRegistry_flattened.sol\":75210:75216  _owner */\n      dup6\n        /* \"contracts/FundRegistry_flattened.sol\":75174:75381  Fund(... */\n      0xffffffffffffffffffffffffffffffffffffffff\n      and\n      dup2\n      mstore\n      0x20\n      add\n        /* \"contracts/FundRegistry_flattened.sol\":75238:75253  block.timestamp */\n      timestamp\n        /* \"contracts/FundRegistry_flattened.sol\":75174:75381  Fund(... */\n      0xffffffffffff\n      and\n      dup2\n      mstore\n      0x20\n      add\n        /* \"contracts/FundRegistry_flattened.sol\":75276:75291  block.timestamp */\n      timestamp\n        /* \"contracts/FundRegistry_flattened.sol\":75174:75381  Fund(... */\n      0xffffffffffff\n      and\n      dup2\n      mstore\n      0x20\n      add\n        /* \"contracts/FundRegistry_flattened.sol\":75307:75313  _payee */\n      dup5\n        /* \"contracts/FundRegistry_flattened.sol\":75174:75381  Fund(... */\n      0xffffffffffffffffffffffffffffffffffffffff\n      and\n      dup2\n      mstore\n      0x20\n      add\n        /* \"contracts/FundRegistry_flattened.sol\":75327:75337  _threshold */\n      dup4\n        /* \"contracts/FundRegistry_flattened.sol\":75174:75381  Fund(... */\n      dup2\n      mstore\n      0x20\n      add\n        /* \"contracts/FundRegistry_flattened.sol\":75351:75352  0 */\n      0x00\n        /* \"contracts/FundRegistry_flattened.sol\":75174:75381  Fund(... */\n      dup2\n      mstore\n      0x20\n      add\n        /* \"contracts/FundRegistry_flattened.sol\":75366:75371  false */\n      0x00\n        /* \"contracts/FundRegistry_flattened.sol\":75174:75381  Fund(... */\n      iszero\n      iszero\n      dup2\n      mstore\n      pop\n        /* \"contracts/FundRegistry_flattened.sol\":75161:75166  funds */\n      0x01\n        /* \"contracts/FundRegistry_flattened.sol\":75161:75171  funds[_id] */\n      0x00\n        /* \"contracts/FundRegistry_flattened.sol\":75167:75170  _id */\n      dup4\n        /* \"contracts/FundRegistry_flattened.sol\":75161:75171  funds[_id] */\n      0xffffffffffffffffffffffff\n      and\n      0xffffffffffffffffffffffff\n      and\n      dup2\n      mstore\n      0x20\n      add\n      swap1\n      dup2\n      mstore\n      0x20\n      add\n      0x00\n      keccak256\n        /* \"contracts/FundRegistry_flattened.sol\":75161:75381  funds[_id] = Fund(... */\n      0x00\n      dup3\n      add\n      mload\n      dup2\n      0x00\n      add\n      exp(0x0100, 0x00)\n      dup2\n      sload\n      dup2\n      0xffffffffffffffffffffffff\n      mul\n      not\n      and\n      swap1\n      dup4\n      0xffffffffffffffffffffffff\n      and\n      mul\n      or\n      swap1\n      sstore\n      pop\n      0x20\n      dup3\n      add\n      mload\n      dup2\n      0x00\n      add\n      exp(0x0100, 0x0c)\n      dup2\n      sload\n      dup2\n      0xffffffffffffffffffffffffffffffffffffffff\n      mul\n      not\n      and\n      swap1\n      dup4\n      0xffffffffffffffffffffffffffffffffffffffff\n      and\n      mul\n      or\n      swap1\n      sstore\n      pop\n      0x40\n      dup3\n      add\n      mload\n      dup2\n      0x01\n      add\n      exp(0x0100, 0x00)\n      dup2\n      sload\n      dup2\n      0xffffffffffff\n      mul\n      not\n      and\n      swap1\n      dup4\n      0xffffffffffff\n      and\n      mul\n      or\n      swap1\n      sstore\n      pop\n      0x60\n      dup3\n      add\n      mload\n      dup2\n      0x01\n      add\n      exp(0x0100, 0x06)\n      dup2\n      sload\n      dup2\n      0xffffffffffff\n      mul\n      not\n      and\n      swap1\n      dup4\n      0xffffffffffff\n      and\n      mul\n      or\n      swap1\n      sstore\n      pop\n      0x80\n      dup3\n      add\n      mload\n      dup2\n      0x01\n      add\n      exp(0x0100, 0x0c)\n      dup2\n      sload\n      dup2\n      0xffffffffffffffffffffffffffffffffffffffff\n      mul\n      not\n      and\n      swap1\n      dup4\n      0xffffffffffffffffffffffffffffffffffffffff\n      and\n      mul\n      or\n      swap1\n      sstore\n      pop\n      0xa0\n      dup3\n      add\n      mload\n      dup2\n      0x02\n      add\n      sstore\n      0xc0\n      dup3\n      add\n      mload\n      dup2\n      0x03\n      add\n      sstore\n      0xe0\n      dup3\n      add\n      mload\n      dup2\n      0x04\n      add\n      exp(0x0100, 0x00)\n      dup2\n      sload\n      dup2\n      0xff\n      mul\n      not\n      and\n      swap1\n      dup4\n      iszero\n      iszero\n      mul\n      or\n      swap1\n      sstore\n      pop\n      swap1\n      pop\n      pop\n        /* \"contracts/FundRegistry_flattened.sol\":75459:75460  0 */\n      0x00\n        /* \"contracts/FundRegistry_flattened.sol\":75447:75457  _threshold */\n      dup3\n        /* \"contracts/FundRegistry_flattened.sol\":75426:75429  _id */\n      dup3\n        /* \"contracts/FundRegistry_flattened.sol\":75414:75485  FundCreated(_id, _owner, _payee, _threshold, 0, false, block.timestamp) */\n      0xffffffffffffffffffffffff\n      and\n      0x1e216cc18d3e93f7c7b9a7b3a038093bc655d3d5cbfbb504d67d4376bd02d13f\n        /* \"contracts/FundRegistry_flattened.sol\":75431:75437  _owner */\n      dup8\n        /* \"contracts/FundRegistry_flattened.sol\":75439:75445  _payee */\n      dup8\n        /* \"contracts/FundRegistry_flattened.sol\":75462:75467  false */\n      0x00\n        /* \"contracts/FundRegistry_flattened.sol\":75469:75484  block.timestamp */\n      timestamp\n        /* \"contracts/FundRegistry_flattened.sol\":75414:75485  FundCreated(_id, _owner, _payee, _threshold, 0, false, block.timestamp) */\n      mload(0x40)\n      tag_125\n      swap5\n      swap4\n      swap3\n      swap2\n      swap1\n      tag_126\n      jump\t// in\n    tag_125:\n      mload(0x40)\n      dup1\n      swap2\n      sub\n      swap1\n      log4\n        /* \"contracts/FundRegistry_flattened.sol\":75517:75518  1 */\n      0x01\n        /* \"contracts/FundRegistry_flattened.sol\":75504:75513  fundCount */\n      0x00\n      0x14\n        /* \"contracts/FundRegistry_flattened.sol\":75504:75518  fundCount += 1 */\n      dup3\n      dup3\n      dup3\n      swap1\n      sload\n      swap1\n      0x0100\n      exp\n      swap1\n      div\n      0xffffffffffffffffffffffff\n      and\n      tag_127\n      swap2\n      swap1\n      tag_128\n      jump\t// in\n    tag_127:\n      swap3\n      pop\n      0x0100\n      exp\n      dup2\n      sload\n      dup2\n      0xffffffffffffffffffffffff\n      mul\n      not\n      and\n      swap1\n      dup4\n      0xffffffffffffffffffffffff\n      and\n      mul\n      or\n      swap1\n      sstore\n      pop\n        /* \"contracts/FundRegistry_flattened.sol\":75119:75525  {... */\n      pop\n        /* \"contracts/FundRegistry_flattened.sol\":75007:75525  function createFund(... */\n      pop\n      pop\n      pop\n      jump\t// out\n        /* \"contracts/FundRegistry_flattened.sol\":78891:78997  function getAllFunds() external view returns (Fund[] memory){... */\n    tag_35:\n        /* \"contracts/FundRegistry_flattened.sol\":78937:78950  Fund[] memory */\n      0x60\n        /* \"contracts/FundRegistry_flattened.sol\":78968:78990  getFunds(0, fundCount) */\n      tag_130\n        /* \"contracts/FundRegistry_flattened.sol\":78977:78978  0 */\n      0x00\n        /* \"contracts/FundRegistry_flattened.sol\":78980:78989  fundCount */\n      dup1\n      0x14\n      swap1\n      sload\n      swap1\n      0x0100\n      exp\n      swap1\n      div\n      0xffffffffffffffffffffffff\n      and\n        /* \"contracts/FundRegistry_flattened.sol\":78968:78976  getFunds */\n      tag_52\n        /* \"contracts/FundRegistry_flattened.sol\":78968:78990  getFunds(0, fundCount) */\n      jump\t// in\n    tag_130:\n        /* \"contracts/FundRegistry_flattened.sol\":78961:78990  return getFunds(0, fundCount) */\n      swap1\n      pop\n        /* \"contracts/FundRegistry_flattened.sol\":78891:78997  function getAllFunds() external view returns (Fund[] memory){... */\n      swap1\n      jump\t// out\n        /* \"contracts/FundRegistry_flattened.sol\":74237:74273  mapping(uint96 => Fund) public funds */\n    tag_41:\n      mstore(0x20, 0x01)\n      dup1\n      0x00\n      mstore\n      keccak256(0x00, 0x40)\n      0x00\n      swap2\n      pop\n      swap1\n      pop\n      dup1\n      0x00\n      add\n      0x00\n      swap1\n      sload\n      swap1\n      0x0100\n      exp\n      swap1\n      div\n      0xffffffffffffffffffffffff\n      and\n      swap1\n      dup1\n      0x00\n      add\n      0x0c\n      swap1\n      sload\n      swap1\n      0x0100\n      exp\n      swap1\n      div\n      0xffffffffffffffffffffffffffffffffffffffff\n      and\n      swap1\n      dup1\n      0x01\n      add\n      0x00\n      swap1\n      sload\n      swap1\n      0x0100\n      exp\n      swap1\n      div\n      0xffffffffffff\n      and\n      swap1\n      dup1\n      0x01\n      add\n      0x06\n      swap1\n      sload\n      swap1\n      0x0100\n      exp\n      swap1\n      div\n      0xffffffffffff\n      and\n      swap1\n      dup1\n      0x01\n      add\n      0x0c\n      swap1\n      sload\n      swap1\n      0x0100\n      exp\n      swap1\n      div\n      0xffffffffffffffffffffffffffffffffffffffff\n      and\n      swap1\n      dup1\n      0x02\n      add\n      sload\n      swap1\n      dup1\n      0x03\n      add\n      sload\n      swap1\n      dup1\n      0x04\n      add\n      0x00\n      swap1\n      sload\n      swap1\n      0x0100\n      exp\n      swap1\n      div\n      0xff\n      and\n      swap1\n      pop\n      dup9\n      jump\t// out\n        /* \"contracts/FundRegistry_flattened.sol\":74279:74324  mapping(uint96 => address[]) public fundUsers */\n    tag_47:\n      mstore(0x20, 0x02)\n      dup2\n      0x00\n      mstore\n      keccak256(0x00, 0x40)\n      dup2\n      dup2\n      sload\n      dup2\n      lt\n      tag_131\n      jumpi\n      0x00\n      dup1\n      revert\n    tag_131:\n      swap1\n      0x00\n      mstore\n      keccak256(0x00, 0x20)\n      add\n      0x00\n      swap2\n      pop\n      swap2\n      pop\n      swap1\n      sload\n      swap1\n      0x0100\n      exp\n      swap1\n      div\n      0xffffffffffffffffffffffffffffffffffffffff\n      and\n      dup2\n      jump\t// out\n        /* \"contracts/FundRegistry_flattened.sol\":79003:79429  function getFunds(uint96 _startId, uint96 _endId) public view returns (Fund[] memory){... */\n    tag_52:\n        /* \"contracts/FundRegistry_flattened.sol\":79074:79087  Fund[] memory */\n      0x60\n        /* \"contracts/FundRegistry_flattened.sol\":79116:79125  fundCount */\n      0x00\n      0x14\n      swap1\n      sload\n      swap1\n      0x0100\n      exp\n      swap1\n      div\n      0xffffffffffffffffffffffff\n      and\n        /* \"contracts/FundRegistry_flattened.sol\":79106:79125  _endId <= fundCount */\n      0xffffffffffffffffffffffff\n      and\n        /* \"contracts/FundRegistry_flattened.sol\":79106:79112  _endId */\n      dup3\n        /* \"contracts/FundRegistry_flattened.sol\":79106:79125  _endId <= fundCount */\n      0xffffffffffffffffffffffff\n      and\n      gt\n      iszero\n        /* \"contracts/FundRegistry_flattened.sol\":79098:79157  require(_endId <= fundCount, \"Must be _endId <= fundCount\") */\n      tag_134\n      jumpi\n      mload(0x40)\n      0x08c379a000000000000000000000000000000000000000000000000000000000\n      dup2\n      mstore\n      0x04\n      add\n      tag_135\n      swap1\n      tag_136\n      jump\t// in\n    tag_135:\n      mload(0x40)\n      dup1\n      swap2\n      sub\n      swap1\n      revert\n    tag_134:\n        /* \"contracts/FundRegistry_flattened.sol\":79187:79193  _endId */\n      dup2\n        /* \"contracts/FundRegistry_flattened.sol\":79175:79193  _startId <= _endId */\n      0xffffffffffffffffffffffff\n      and\n        /* \"contracts/FundRegistry_flattened.sol\":79175:79183  _startId */\n      dup4\n        /* \"contracts/FundRegistry_flattened.sol\":79175:79193  _startId <= _endId */\n      0xffffffffffffffffffffffff\n      and\n      gt\n      iszero\n        /* \"contracts/FundRegistry_flattened.sol\":79167:79224  require(_startId <= _endId, \"Must be _startId <= _endId\") */\n      tag_137\n      jumpi\n      mload(0x40)\n      0x08c379a000000000000000000000000000000000000000000000000000000000\n      dup2\n      mstore\n      0x04\n      add\n      tag_138\n      swap1\n      tag_139\n      jump\t// in\n    tag_138:\n      mload(0x40)\n      dup1\n      swap2\n      sub\n      swap1\n      revert\n    tag_137:\n        /* \"contracts/FundRegistry_flattened.sol\":79234:79256  Fund[] memory fundList */\n      0x00\n        /* \"contracts/FundRegistry_flattened.sol\":79279:79287  _startId */\n      dup4\n        /* \"contracts/FundRegistry_flattened.sol\":79270:79276  _endId */\n      dup4\n        /* \"contracts/FundRegistry_flattened.sol\":79270:79287  _endId - _startId */\n      tag_140\n      swap2\n      swap1\n      tag_141\n      jump\t// in\n    tag_140:\n        /* \"contracts/FundRegistry_flattened.sol\":79259:79288  new Fund[](_endId - _startId) */\n      0xffffffffffffffffffffffff\n      and\n      0xffffffffffffffff\n      dup2\n      gt\n      iszero\n      tag_142\n      jumpi\n      tag_143\n      tag_144\n      jump\t// in\n    tag_143:\n    tag_142:\n      mload(0x40)\n      swap1\n      dup1\n      dup3\n      mstore\n      dup1\n      0x20\n      mul\n      0x20\n      add\n      dup3\n      add\n      0x40\n      mstore\n      dup1\n      iszero\n      tag_145\n      jumpi\n      dup2\n      0x20\n      add\n    tag_146:\n      tag_147\n      tag_148\n      jump\t// in\n    tag_147:\n      dup2\n      mstore\n      0x20\n      add\n      swap1\n      0x01\n      swap1\n      sub\n      swap1\n      dup2\n      tag_146\n      jumpi\n      swap1\n      pop\n    tag_145:\n      pop\n        /* \"contracts/FundRegistry_flattened.sol\":79234:79288  Fund[] memory fundList = new Fund[](_endId - _startId) */\n      swap1\n      pop\n        /* \"contracts/FundRegistry_flattened.sol\":79303:79311  uint96 i */\n      0x00\n        /* \"contracts/FundRegistry_flattened.sol\":79314:79322  _startId */\n      dup5\n        /* \"contracts/FundRegistry_flattened.sol\":79303:79322  uint96 i = _startId */\n      swap1\n      pop\n        /* \"contracts/FundRegistry_flattened.sol\":79298:79398  for (uint96 i = _startId; i < _endId; i++){... */\n    tag_149:\n        /* \"contracts/FundRegistry_flattened.sol\":79328:79334  _endId */\n      dup4\n        /* \"contracts/FundRegistry_flattened.sol\":79324:79334  i < _endId */\n      0xffffffffffffffffffffffff\n      and\n        /* \"contracts/FundRegistry_flattened.sol\":79324:79325  i */\n      dup2\n        /* \"contracts/FundRegistry_flattened.sol\":79324:79334  i < _endId */\n      0xffffffffffffffffffffffff\n      and\n      lt\n        /* \"contracts/FundRegistry_flattened.sol\":79298:79398  for (uint96 i = _startId; i < _endId; i++){... */\n      iszero\n      tag_150\n      jumpi\n        /* \"contracts/FundRegistry_flattened.sol\":79379:79384  funds */\n      0x01\n        /* \"contracts/FundRegistry_flattened.sol\":79379:79387  funds[i] */\n      0x00\n        /* \"contracts/FundRegistry_flattened.sol\":79385:79386  i */\n      dup3\n        /* \"contracts/FundRegistry_flattened.sol\":79379:79387  funds[i] */\n      0xffffffffffffffffffffffff\n      and\n      0xffffffffffffffffffffffff\n      and\n      dup2\n      mstore\n      0x20\n      add\n      swap1\n      dup2\n      mstore\n      0x20\n      add\n      0x00\n      keccak256\n        /* \"contracts/FundRegistry_flattened.sol\":79354:79387  fundList[i - _startId] = funds[i] */\n      mload(0x40)\n      dup1\n      0x0100\n      add\n      0x40\n      mstore\n      swap1\n      dup2\n      0x00\n      dup3\n      add\n      0x00\n      swap1\n      sload\n      swap1\n      0x0100\n      exp\n      swap1\n      div\n      0xffffffffffffffffffffffff\n      and\n      0xffffffffffffffffffffffff\n      and\n      0xffffffffffffffffffffffff\n      and\n      dup2\n      mstore\n      0x20\n      add\n      0x00\n      dup3\n      add\n      0x0c\n      swap1\n      sload\n      swap1\n      0x0100\n      exp\n      swap1\n      div\n      0xffffffffffffffffffffffffffffffffffffffff\n      and\n      0xffffffffffffffffffffffffffffffffffffffff\n      and\n      0xffffffffffffffffffffffffffffffffffffffff\n      and\n      dup2\n      mstore\n      0x20\n      add\n      0x01\n      dup3\n      add\n      0x00\n      swap1\n      sload\n      swap1\n      0x0100\n      exp\n      swap1\n      div\n      0xffffffffffff\n      and\n      0xffffffffffff\n      and\n      0xffffffffffff\n      and\n      dup2\n      mstore\n      0x20\n      add\n      0x01\n      dup3\n      add\n      0x06\n      swap1\n      sload\n      swap1\n      0x0100\n      exp\n      swap1\n      div\n      0xffffffffffff\n      and\n      0xffffffffffff\n      and\n      0xffffffffffff\n      and\n      dup2\n      mstore\n      0x20\n      add\n      0x01\n      dup3\n      add\n      0x0c\n      swap1\n      sload\n      swap1\n      0x0100\n      exp\n      swap1\n      div\n      0xffffffffffffffffffffffffffffffffffffffff\n      and\n      0xffffffffffffffffffffffffffffffffffffffff\n      and\n      0xffffffffffffffffffffffffffffffffffffffff\n      and\n      dup2\n      mstore\n      0x20\n      add\n      0x02\n      dup3\n      add\n      sload\n      dup2\n      mstore\n      0x20\n      add\n      0x03\n      dup3\n      add\n      sload\n      dup2\n      mstore\n      0x20\n      add\n      0x04\n      dup3\n      add\n      0x00\n      swap1\n      sload\n      swap1\n      0x0100\n      exp\n      swap1\n      div\n      0xff\n      and\n      iszero\n      iszero\n      iszero\n      iszero\n      dup2\n      mstore\n      pop\n      pop\n        /* \"contracts/FundRegistry_flattened.sol\":79354:79362  fundList */\n      dup3\n        /* \"contracts/FundRegistry_flattened.sol\":79367:79375  _startId */\n      dup7\n        /* \"contracts/FundRegistry_flattened.sol\":79363:79364  i */\n      dup4\n        /* \"contracts/FundRegistry_flattened.sol\":79363:79375  i - _startId */\n      tag_152\n      swap2\n      swap1\n      tag_141\n      jump\t// in\n    tag_152:\n        /* \"contracts/FundRegistry_flattened.sol\":79354:79376  fundList[i - _startId] */\n      0xffffffffffffffffffffffff\n      and\n      dup2\n      mload\n      dup2\n      lt\n      tag_153\n      jumpi\n      tag_154\n      tag_102\n      jump\t// in\n    tag_154:\n    tag_153:\n      0x20\n      mul\n      0x20\n      add\n      add\n        /* \"contracts/FundRegistry_flattened.sol\":79354:79387  fundList[i - _startId] = funds[i] */\n      dup2\n      swap1\n      mstore\n      pop\n        /* \"contracts/FundRegistry_flattened.sol\":79336:79339  i++ */\n      dup1\n      dup1\n      tag_155\n      swap1\n      tag_111\n      jump\t// in\n    tag_155:\n      swap2\n      pop\n      pop\n        /* \"contracts/FundRegistry_flattened.sol\":79298:79398  for (uint96 i = _startId; i < _endId; i++){... */\n      jump(tag_149)\n    tag_150:\n      pop\n        /* \"contracts/FundRegistry_flattened.sol\":79414:79422  fundList */\n      dup1\n        /* \"contracts/FundRegistry_flattened.sol\":79407:79422  return fundList */\n      swap2\n      pop\n      pop\n        /* \"contracts/FundRegistry_flattened.sol\":79003:79429  function getFunds(uint96 _startId, uint96 _endId) public view returns (Fund[] memory){... */\n      swap3\n      swap2\n      pop\n      pop\n      jump\t// out\n        /* \"contracts/FundRegistry_flattened.sol\":73606:73629  uint96 public fundCount */\n    tag_55:\n      0x00\n      0x14\n      swap1\n      sload\n      swap1\n      0x0100\n      exp\n      swap1\n      div\n      0xffffffffffffffffffffffff\n      and\n      dup2\n      jump\t// out\n        /* \"contracts/FundRegistry_flattened.sol\":79439:79603  function getFundPayee(uint96 _id) public view returns (address){... */\n    tag_60:\n        /* \"contracts/FundRegistry_flattened.sol\":79494:79501  address */\n      0x00\n        /* \"contracts/FundRegistry_flattened.sol\":79526:79535  fundCount */\n      dup1\n      0x14\n      swap1\n      sload\n      swap1\n      0x0100\n      exp\n      swap1\n      div\n      0xffffffffffffffffffffffff\n      and\n        /* \"contracts/FundRegistry_flattened.sol\":79520:79535  _id < fundCount */\n      0xffffffffffffffffffffffff\n      and\n        /* \"contracts/FundRegistry_flattened.sol\":79520:79523  _id */\n      dup3\n        /* \"contracts/FundRegistry_flattened.sol\":79520:79535  _id < fundCount */\n      0xffffffffffffffffffffffff\n      and\n      lt\n        /* \"contracts/FundRegistry_flattened.sol\":79512:79563  require(_id < fundCount, \"Must be _id < fundCount\") */\n      tag_157\n      jumpi\n      mload(0x40)\n      0x08c379a000000000000000000000000000000000000000000000000000000000\n      dup2\n      mstore\n      0x04\n      add\n      tag_158\n      swap1\n      tag_159\n      jump\t// in\n    tag_158:\n      mload(0x40)\n      dup1\n      swap2\n      sub\n      swap1\n      revert\n    tag_157:\n        /* \"contracts/FundRegistry_flattened.sol\":79580:79585  funds */\n      0x01\n        /* \"contracts/FundRegistry_flattened.sol\":79580:79590  funds[_id] */\n      0x00\n        /* \"contracts/FundRegistry_flattened.sol\":79586:79589  _id */\n      dup4\n        /* \"contracts/FundRegistry_flattened.sol\":79580:79590  funds[_id] */\n      0xffffffffffffffffffffffff\n      and\n      0xffffffffffffffffffffffff\n      and\n      dup2\n      mstore\n      0x20\n      add\n      swap1\n      dup2\n      mstore\n      0x20\n      add\n      0x00\n      keccak256\n        /* \"contracts/FundRegistry_flattened.sol\":79580:79596  funds[_id].payee */\n      0x01\n      add\n      0x0c\n      swap1\n      sload\n      swap1\n      0x0100\n      exp\n      swap1\n      div\n      0xffffffffffffffffffffffffffffffffffffffff\n      and\n        /* \"contracts/FundRegistry_flattened.sol\":79573:79596  return funds[_id].payee */\n      swap1\n      pop\n        /* \"contracts/FundRegistry_flattened.sol\":79439:79603  function getFundPayee(uint96 _id) public view returns (address){... */\n      swap2\n      swap1\n      pop\n      jump\t// out\n        /* \"contracts/FundRegistry_flattened.sol\":74330:74400  mapping(uint96 => mapping(address => Donation[])) public fundDonations */\n    tag_65:\n      mstore(0x20, 0x03)\n      dup3\n      0x00\n      mstore\n      mstore(0x20, keccak256(0x00, 0x40))\n      dup2\n      0x00\n      mstore\n      keccak256(0x00, 0x40)\n      dup2\n      dup2\n      sload\n      dup2\n      lt\n      tag_160\n      jumpi\n      0x00\n      dup1\n      revert\n    tag_160:\n      swap1\n      0x00\n      mstore\n      keccak256(0x00, 0x20)\n      swap1\n      0x02\n      mul\n      add\n      0x00\n      swap3\n      pop\n      swap3\n      pop\n      pop\n      pop\n      dup1\n      0x00\n      add\n      0x00\n      swap1\n      sload\n      swap1\n      0x0100\n      exp\n      swap1\n      div\n      0xffffffffffffffffffffffffffffffffffffffff\n      and\n      swap1\n      dup1\n      0x00\n      add\n      0x14\n      swap1\n      sload\n      swap1\n      0x0100\n      exp\n      swap1\n      div\n      0xffffffffffffffffffffffff\n      and\n      swap1\n      dup1\n      0x01\n      add\n      sload\n      swap1\n      pop\n      dup4\n      jump\t// out\n        /* \"contracts/FundRegistry_flattened.sol\":76511:76733  function donate(... */\n    tag_71:\n        /* \"contracts/FundRegistry_flattened.sol\":76655:76694  createDonation(_user, _fundId, _amount) */\n      tag_163\n        /* \"contracts/FundRegistry_flattened.sol\":76670:76675  _user */\n      dup4\n        /* \"contracts/FundRegistry_flattened.sol\":76677:76684  _fundId */\n      dup4\n        /* \"contracts/FundRegistry_flattened.sol\":76686:76693  _amount */\n      dup4\n        /* \"contracts/FundRegistry_flattened.sol\":76655:76669  createDonation */\n      tag_164\n        /* \"contracts/FundRegistry_flattened.sol\":76655:76694  createDonation(_user, _fundId, _amount) */\n      jump\t// in\n    tag_163:\n        /* \"contracts/FundRegistry_flattened.sol\":76704:76726  validateFunds(_fundId) */\n      tag_165\n        /* \"contracts/FundRegistry_flattened.sol\":76718:76725  _fundId */\n      dup3\n        /* \"contracts/FundRegistry_flattened.sol\":76704:76717  validateFunds */\n      tag_166\n        /* \"contracts/FundRegistry_flattened.sol\":76704:76726  validateFunds(_fundId) */\n      jump\t// in\n    tag_165:\n        /* \"contracts/FundRegistry_flattened.sol\":76511:76733  function donate(... */\n      pop\n      pop\n      pop\n      jump\t// out\n        /* \"contracts/FundRegistry_flattened.sol\":29272:29519  function onERC1155BatchReceived(... */\n    tag_75:\n        /* \"contracts/FundRegistry_flattened.sol\":29451:29457  bytes4 */\n      0x00\n        /* \"contracts/FundRegistry_flattened.sol\":29476:29512  this.onERC1155BatchReceived.selector */\n      shl(0xe0, 0xbc197c81)\n        /* \"contracts/FundRegistry_flattened.sol\":29469:29512  return this.onERC1155BatchReceived.selector */\n      swap1\n      pop\n        /* \"contracts/FundRegistry_flattened.sol\":29272:29519  function onERC1155BatchReceived(... */\n      swap6\n      swap5\n      pop\n      pop\n      pop\n      pop\n      pop\n      jump\t// out\n        /* \"contracts/FundRegistry_flattened.sol\":78269:78881  function updateFund(... */\n    tag_81:\n        /* \"contracts/FundRegistry_flattened.sol\":78410:78427  Fund memory _fund */\n      0x00\n        /* \"contracts/FundRegistry_flattened.sol\":78430:78435  funds */\n      0x01\n        /* \"contracts/FundRegistry_flattened.sol\":78430:78440  funds[_id] */\n      0x00\n        /* \"contracts/FundRegistry_flattened.sol\":78436:78439  _id */\n      dup7\n        /* \"contracts/FundRegistry_flattened.sol\":78430:78440  funds[_id] */\n      0xffffffffffffffffffffffff\n      and\n      0xffffffffffffffffffffffff\n      and\n      dup2\n      mstore\n      0x20\n      add\n      swap1\n      dup2\n      mstore\n      0x20\n      add\n      0x00\n      keccak256\n        /* \"contracts/FundRegistry_flattened.sol\":78410:78440  Fund memory _fund = funds[_id] */\n      mload(0x40)\n      dup1\n      0x0100\n      add\n      0x40\n      mstore\n      swap1\n      dup2\n      0x00\n      dup3\n      add\n      0x00\n      swap1\n      sload\n      swap1\n      0x0100\n      exp\n      swap1\n      div\n      0xffffffffffffffffffffffff\n      and\n      0xffffffffffffffffffffffff\n      and\n      0xffffffffffffffffffffffff\n      and\n      dup2\n      mstore\n      0x20\n      add\n      0x00\n      dup3\n      add\n      0x0c\n      swap1\n      sload\n      swap1\n      0x0100\n      exp\n      swap1\n      div\n      0xffffffffffffffffffffffffffffffffffffffff\n      and\n      0xffffffffffffffffffffffffffffffffffffffff\n      and\n      0xffffffffffffffffffffffffffffffffffffffff\n      and\n      dup2\n      mstore\n      0x20\n      add\n      0x01\n      dup3\n      add\n      0x00\n      swap1\n      sload\n      swap1\n      0x0100\n      exp\n      swap1\n      div\n      0xffffffffffff\n      and\n      0xffffffffffff\n      and\n      0xffffffffffff\n      and\n      dup2\n      mstore\n      0x20\n      add\n      0x01\n      dup3\n      add\n      0x06\n      swap1\n      sload\n      swap1\n      0x0100\n      exp\n      swap1\n      div\n      0xffffffffffff\n      and\n      0xffffffffffff\n      and\n      0xffffffffffff\n      and\n      dup2\n      mstore\n      0x20\n      add\n      0x01\n      dup3\n      add\n      0x0c\n      swap1\n      sload\n      swap1\n      0x0100\n      exp\n      swap1\n      div\n      0xffffffffffffffffffffffffffffffffffffffff\n      and\n      0xffffffffffffffffffffffffffffffffffffffff\n      and\n      0xffffffffffffffffffffffffffffffffffffffff\n      and\n      dup2\n      mstore\n      0x20\n      add\n      0x02\n      dup3\n      add\n      sload\n      dup2\n      mstore\n      0x20\n      add\n      0x03\n      dup3\n      add\n      sload\n      dup2\n      mstore\n      0x20\n      add\n      0x04\n      dup3\n      add\n      0x00\n      swap1\n      sload\n      swap1\n      0x0100\n      exp\n      swap1\n      div\n      0xff\n      and\n      iszero\n      iszero\n      iszero\n      iszero\n      dup2\n      mstore\n      pop\n      pop\n      swap1\n      pop\n        /* \"contracts/FundRegistry_flattened.sol\":78472:78477  _fund */\n      dup1\n        /* \"contracts/FundRegistry_flattened.sol\":78472:78483  _fund.owner */\n      0x20\n      add\n      mload\n        /* \"contracts/FundRegistry_flattened.sol\":78458:78483  msg.sender == _fund.owner */\n      0xffffffffffffffffffffffffffffffffffffffff\n      and\n        /* \"contracts/FundRegistry_flattened.sol\":78458:78468  msg.sender */\n      caller\n        /* \"contracts/FundRegistry_flattened.sol\":78458:78483  msg.sender == _fund.owner */\n      0xffffffffffffffffffffffffffffffffffffffff\n      and\n      eq\n        /* \"contracts/FundRegistry_flattened.sol\":78450:78514  require(msg.sender == _fund.owner, \"Fund Update not authorized\") */\n      tag_169\n      jumpi\n      mload(0x40)\n      0x08c379a000000000000000000000000000000000000000000000000000000000\n      dup2\n      mstore\n      0x04\n      add\n      tag_170\n      swap1\n      tag_171\n      jump\t// in\n    tag_170:\n      mload(0x40)\n      dup1\n      swap2\n      sub\n      swap1\n      revert\n    tag_169:\n        /* \"contracts/FundRegistry_flattened.sol\":78537:78763  Fund(... */\n      mload(0x40)\n      dup1\n      0x0100\n      add\n      0x40\n      mstore\n      dup1\n        /* \"contracts/FundRegistry_flattened.sol\":78555:78558  _id */\n      dup7\n        /* \"contracts/FundRegistry_flattened.sol\":78537:78763  Fund(... */\n      0xffffffffffffffffffffffff\n      and\n      dup2\n      mstore\n      0x20\n      add\n        /* \"contracts/FundRegistry_flattened.sol\":78573:78579  _owner */\n      dup6\n        /* \"contracts/FundRegistry_flattened.sol\":78537:78763  Fund(... */\n      0xffffffffffffffffffffffffffffffffffffffff\n      and\n      dup2\n      mstore\n      0x20\n      add\n        /* \"contracts/FundRegistry_flattened.sol\":78594:78599  _fund */\n      dup3\n        /* \"contracts/FundRegistry_flattened.sol\":78594:78609  _fund.createdAt */\n      0x40\n      add\n      mload\n        /* \"contracts/FundRegistry_flattened.sol\":78537:78763  Fund(... */\n      0xffffffffffff\n      and\n      dup2\n      mstore\n      0x20\n      add\n        /* \"contracts/FundRegistry_flattened.sol\":78631:78646  block.timestamp */\n      timestamp\n        /* \"contracts/FundRegistry_flattened.sol\":78537:78763  Fund(... */\n      0xffffffffffff\n      and\n      dup2\n      mstore\n      0x20\n      add\n        /* \"contracts/FundRegistry_flattened.sol\":78662:78668  _payee */\n      dup5\n        /* \"contracts/FundRegistry_flattened.sol\":78537:78763  Fund(... */\n      0xffffffffffffffffffffffffffffffffffffffff\n      and\n      dup2\n      mstore\n      0x20\n      add\n        /* \"contracts/FundRegistry_flattened.sol\":78683:78693  _threshold */\n      dup4\n        /* \"contracts/FundRegistry_flattened.sol\":78537:78763  Fund(... */\n      dup2\n      mstore\n      0x20\n      add\n        /* \"contracts/FundRegistry_flattened.sol\":78708:78713  _fund */\n      dup3\n        /* \"contracts/FundRegistry_flattened.sol\":78708:78728  _fund.donationAmount */\n      0xc0\n      add\n      mload\n        /* \"contracts/FundRegistry_flattened.sol\":78537:78763  Fund(... */\n      dup2\n      mstore\n      0x20\n      add\n        /* \"contracts/FundRegistry_flattened.sol\":78742:78747  _fund */\n      dup3\n        /* \"contracts/FundRegistry_flattened.sol\":78742:78753  _fund.isEnd */\n      0xe0\n      add\n      mload\n        /* \"contracts/FundRegistry_flattened.sol\":78537:78763  Fund(... */\n      iszero\n      iszero\n      dup2\n      mstore\n      pop\n        /* \"contracts/FundRegistry_flattened.sol\":78524:78529  funds */\n      0x01\n        /* \"contracts/FundRegistry_flattened.sol\":78524:78534  funds[_id] */\n      0x00\n        /* \"contracts/FundRegistry_flattened.sol\":78530:78533  _id */\n      dup8\n        /* \"contracts/FundRegistry_flattened.sol\":78524:78534  funds[_id] */\n      0xffffffffffffffffffffffff\n      and\n      0xffffffffffffffffffffffff\n      and\n      dup2\n      mstore\n      0x20\n      add\n      swap1\n      dup2\n      mstore\n      0x20\n      add\n      0x00\n      keccak256\n        /* \"contracts/FundRegistry_flattened.sol\":78524:78763  funds[_id] = Fund(... */\n      0x00\n      dup3\n      add\n      mload\n      dup2\n      0x00\n      add\n      exp(0x0100, 0x00)\n      dup2\n      sload\n      dup2\n      0xffffffffffffffffffffffff\n      mul\n      not\n      and\n      swap1\n      dup4\n      0xffffffffffffffffffffffff\n      and\n      mul\n      or\n      swap1\n      sstore\n      pop\n      0x20\n      dup3\n      add\n      mload\n      dup2\n      0x00\n      add\n      exp(0x0100, 0x0c)\n      dup2\n      sload\n      dup2\n      0xffffffffffffffffffffffffffffffffffffffff\n      mul\n      not\n      and\n      swap1\n      dup4\n      0xffffffffffffffffffffffffffffffffffffffff\n      and\n      mul\n      or\n      swap1\n      sstore\n      pop\n      0x40\n      dup3\n      add\n      mload\n      dup2\n      0x01\n      add\n      exp(0x0100, 0x00)\n      dup2\n      sload\n      dup2\n      0xffffffffffff\n      mul\n      not\n      and\n      swap1\n      dup4\n      0xffffffffffff\n      and\n      mul\n      or\n      swap1\n      sstore\n      pop\n      0x60\n      dup3\n      add\n      mload\n      dup2\n      0x01\n      add\n      exp(0x0100, 0x06)\n      dup2\n      sload\n      dup2\n      0xffffffffffff\n      mul\n      not\n      and\n      swap1\n      dup4\n      0xffffffffffff\n      and\n      mul\n      or\n      swap1\n      sstore\n      pop\n      0x80\n      dup3\n      add\n      mload\n      dup2\n      0x01\n      add\n      exp(0x0100, 0x0c)\n      dup2\n      sload\n      dup2\n      0xffffffffffffffffffffffffffffffffffffffff\n      mul\n      not\n      and\n      swap1\n      dup4\n      0xffffffffffffffffffffffffffffffffffffffff\n      and\n      mul\n      or\n      swap1\n      sstore\n      pop\n      0xa0\n      dup3\n      add\n      mload\n      dup2\n      0x02\n      add\n      sstore\n      0xc0\n      dup3\n      add\n      mload\n      dup2\n      0x03\n      add\n      sstore\n      0xe0\n      dup3\n      add\n      mload\n      dup2\n      0x04\n      add\n      exp(0x0100, 0x00)\n      dup2\n      sload\n      dup2\n      0xff\n      mul\n      not\n      and\n      swap1\n      dup4\n      iszero\n      iszero\n      mul\n      or\n      swap1\n      sstore\n      pop\n      swap1\n      pop\n      pop\n        /* \"contracts/FundRegistry_flattened.sol\":78823:78828  _fund */\n      dup1\n        /* \"contracts/FundRegistry_flattened.sol\":78823:78843  _fund.donationAmount */\n      0xc0\n      add\n      mload\n        /* \"contracts/FundRegistry_flattened.sol\":78811:78821  _threshold */\n      dup3\n        /* \"contracts/FundRegistry_flattened.sol\":78790:78793  _id */\n      dup7\n        /* \"contracts/FundRegistry_flattened.sol\":78778:78874  FundUpdated(_id, _owner, _payee, _threshold, _fund.donationAmount, _fund.isEnd, block.timestamp) */\n      0xffffffffffffffffffffffff\n      and\n      0x603e97a48f8cadd1e9020bf96470c32853c5d9d8ed30f7cbe961f12ad2a45fa0\n        /* \"contracts/FundRegistry_flattened.sol\":78795:78801  _owner */\n      dup8\n        /* \"contracts/FundRegistry_flattened.sol\":78803:78809  _payee */\n      dup8\n        /* \"contracts/FundRegistry_flattened.sol\":78845:78850  _fund */\n      dup7\n        /* \"contracts/FundRegistry_flattened.sol\":78845:78856  _fund.isEnd */\n      0xe0\n      add\n      mload\n        /* \"contracts/FundRegistry_flattened.sol\":78858:78873  block.timestamp */\n      timestamp\n        /* \"contracts/FundRegistry_flattened.sol\":78778:78874  FundUpdated(_id, _owner, _payee, _threshold, _fund.donationAmount, _fund.isEnd, block.timestamp) */\n      mload(0x40)\n      tag_172\n      swap5\n      swap4\n      swap3\n      swap2\n      swap1\n      tag_126\n      jump\t// in\n    tag_172:\n      mload(0x40)\n      dup1\n      swap2\n      sub\n      swap1\n      log4\n        /* \"contracts/FundRegistry_flattened.sol\":78400:78881  {... */\n      pop\n        /* \"contracts/FundRegistry_flattened.sol\":78269:78881  function updateFund(... */\n      pop\n      pop\n      pop\n      pop\n      jump\t// out\n        /* \"contracts/FundRegistry_flattened.sol\":29047:29266  function onERC1155Received(... */\n    tag_85:\n        /* \"contracts/FundRegistry_flattened.sol\":29203:29209  bytes4 */\n      0x00\n        /* \"contracts/FundRegistry_flattened.sol\":29228:29259  this.onERC1155Received.selector */\n      shl(0xe0, 0xf23a6e61)\n        /* \"contracts/FundRegistry_flattened.sol\":29221:29259  return this.onERC1155Received.selector */\n      swap1\n      pop\n        /* \"contracts/FundRegistry_flattened.sol\":29047:29266  function onERC1155Received(... */\n      swap6\n      swap5\n      pop\n      pop\n      pop\n      pop\n      pop\n      jump\t// out\n        /* \"contracts/FundRegistry_flattened.sol\":25537:25683  function supportsInterface(bytes4 interfaceId) public view virtual returns (bool) {... */\n    tag_90:\n        /* \"contracts/FundRegistry_flattened.sol\":25613:25617  bool */\n      0x00\n        /* \"contracts/FundRegistry_flattened.sol\":25651:25676  type(IERC165).interfaceId */\n      0x01ffc9a700000000000000000000000000000000000000000000000000000000\n        /* \"contracts/FundRegistry_flattened.sol\":25636:25676  interfaceId == type(IERC165).interfaceId */\n      not(0xffffffffffffffffffffffffffffffffffffffffffffffffffffffff)\n      and\n        /* \"contracts/FundRegistry_flattened.sol\":25636:25647  interfaceId */\n      dup3\n        /* \"contracts/FundRegistry_flattened.sol\":25636:25676  interfaceId == type(IERC165).interfaceId */\n      not(0xffffffffffffffffffffffffffffffffffffffffffffffffffffffff)\n      and\n      eq\n        /* \"contracts/FundRegistry_flattened.sol\":25629:25676  return interfaceId == type(IERC165).interfaceId */\n      swap1\n      pop\n        /* \"contracts/FundRegistry_flattened.sol\":25537:25683  function supportsInterface(bytes4 interfaceId) public view virtual returns (bool) {... */\n      swap2\n      swap1\n      pop\n      jump\t// out\n        /* \"contracts/FundRegistry_flattened.sol\":75531:76505  function createDonation(... */\n    tag_164:\n        /* \"contracts/FundRegistry_flattened.sol\":75688:75695  _amount */\n      dup1\n        /* \"contracts/FundRegistry_flattened.sol\":75660:75665  token */\n      0x00\n      dup1\n      sload\n      swap1\n      0x0100\n      exp\n      swap1\n      div\n      0xffffffffffffffffffffffffffffffffffffffff\n      and\n        /* \"contracts/FundRegistry_flattened.sol\":75660:75675  token.balanceOf */\n      0xffffffffffffffffffffffffffffffffffffffff\n      and\n      0xfdd58e\n        /* \"contracts/FundRegistry_flattened.sol\":75676:75681  _user */\n      dup6\n        /* \"contracts/FundRegistry_flattened.sol\":75683:75684  0 */\n      0x00\n        /* \"contracts/FundRegistry_flattened.sol\":75660:75685  token.balanceOf(_user, 0) */\n      mload(0x40)\n      dup4\n      0xffffffff\n      and\n      0xe0\n      shl\n      dup2\n      mstore\n      0x04\n      add\n      tag_176\n      swap3\n      swap2\n      swap1\n      tag_177\n      jump\t// in\n    tag_176:\n      0x20\n      mload(0x40)\n      dup1\n      dup4\n      sub\n      dup2\n      dup7\n      gas\n      staticcall\n      iszero\n      dup1\n      iszero\n      tag_179\n      jumpi\n      returndatasize\n      0x00\n      dup1\n      returndatacopy\n      revert(0x00, returndatasize)\n    tag_179:\n      pop\n      pop\n      pop\n      pop\n      mload(0x40)\n      returndatasize\n      not(0x1f)\n      0x1f\n      dup3\n      add\n      and\n      dup3\n      add\n      dup1\n      0x40\n      mstore\n      pop\n      dup2\n      add\n      swap1\n      tag_180\n      swap2\n      swap1\n      tag_181\n      jump\t// in\n    tag_180:\n        /* \"contracts/FundRegistry_flattened.sol\":75660:75695  token.balanceOf(_user, 0) > _amount */\n      gt\n        /* \"contracts/FundRegistry_flattened.sol\":75652:75736  require(token.balanceOf(_user, 0) > _amount, \"token amount of user not sufficient\" ) */\n      tag_182\n      jumpi\n      mload(0x40)\n      0x08c379a000000000000000000000000000000000000000000000000000000000\n      dup2\n      mstore\n      0x04\n      add\n      tag_183\n      swap1\n      tag_184\n      jump\t// in\n    tag_183:\n      mload(0x40)\n      dup1\n      swap2\n      sub\n      swap1\n      revert\n    tag_182:\n        /* \"contracts/FundRegistry_flattened.sol\":75754:75759  token */\n      0x00\n      dup1\n      sload\n      swap1\n      0x0100\n      exp\n      swap1\n      div\n      0xffffffffffffffffffffffffffffffffffffffff\n      and\n        /* \"contracts/FundRegistry_flattened.sol\":75754:75776  token.isApprovedForAll */\n      0xffffffffffffffffffffffffffffffffffffffff\n      and\n      0xe985e9c5\n        /* \"contracts/FundRegistry_flattened.sol\":75777:75782  _user */\n      dup5\n        /* \"contracts/FundRegistry_flattened.sol\":75792:75796  this */\n      address\n        /* \"contracts/FundRegistry_flattened.sol\":75754:75799  token.isApprovedForAll(_user, address(this) ) */\n      mload(0x40)\n      dup4\n      0xffffffff\n      and\n      0xe0\n      shl\n      dup2\n      mstore\n      0x04\n      add\n      tag_185\n      swap3\n      swap2\n      swap1\n      tag_186\n      jump\t// in\n    tag_185:\n      0x20\n      mload(0x40)\n      dup1\n      dup4\n      sub\n      dup2\n      dup7\n      gas\n      staticcall\n      iszero\n      dup1\n      iszero\n      tag_188\n      jumpi\n      returndatasize\n      0x00\n      dup1\n      returndatacopy\n      revert(0x00, returndatasize)\n    tag_188:\n      pop\n      pop\n      pop\n      pop\n      mload(0x40)\n      returndatasize\n      not(0x1f)\n      0x1f\n      dup3\n      add\n      and\n      dup3\n      add\n      dup1\n      0x40\n      mstore\n      pop\n      dup2\n      add\n      swap1\n      tag_189\n      swap2\n      swap1\n      tag_190\n      jump\t// in\n    tag_189:\n        /* \"contracts/FundRegistry_flattened.sol\":75746:75828  require(token.isApprovedForAll(_user, address(this) ), \"token allowance shortage\") */\n      tag_191\n      jumpi\n      mload(0x40)\n      0x08c379a000000000000000000000000000000000000000000000000000000000\n      dup2\n      mstore\n      0x04\n      add\n      tag_192\n      swap1\n      tag_193\n      jump\t// in\n    tag_192:\n      mload(0x40)\n      dup1\n      swap2\n      sub\n      swap1\n      revert\n    tag_191:\n        /* \"contracts/FundRegistry_flattened.sol\":75838:75843  token */\n      0x00\n      dup1\n      sload\n      swap1\n      0x0100\n      exp\n      swap1\n      div\n      0xffffffffffffffffffffffffffffffffffffffff\n      and\n        /* \"contracts/FundRegistry_flattened.sol\":75838:75860  token.safeTransferFrom */\n      0xffffffffffffffffffffffffffffffffffffffff\n      and\n      0xf242432a\n        /* \"contracts/FundRegistry_flattened.sol\":75861:75866  _user */\n      dup5\n        /* \"contracts/FundRegistry_flattened.sol\":75876:75880  this */\n      address\n        /* \"contracts/FundRegistry_flattened.sol\":75883:75884  0 */\n      0x00\n        /* \"contracts/FundRegistry_flattened.sol\":75886:75893  _amount */\n      dup6\n        /* \"contracts/FundRegistry_flattened.sol\":75838:75901  token.safeTransferFrom(_user, address(this), 0, _amount, \"0x0\") */\n      mload(0x40)\n      dup6\n      0xffffffff\n      and\n      0xe0\n      shl\n      dup2\n      mstore\n      0x04\n      add\n      tag_194\n      swap5\n      swap4\n      swap3\n      swap2\n      swap1\n      tag_195\n      jump\t// in\n    tag_194:\n      0x00\n      mload(0x40)\n      dup1\n      dup4\n      sub\n      dup2\n      0x00\n      dup8\n      dup1\n      extcodesize\n      iszero\n      dup1\n      iszero\n      tag_196\n      jumpi\n      0x00\n      dup1\n      revert\n    tag_196:\n      pop\n      gas\n      call\n      iszero\n      dup1\n      iszero\n      tag_198\n      jumpi\n      returndatasize\n      0x00\n      dup1\n      returndatacopy\n      revert(0x00, returndatasize)\n    tag_198:\n      pop\n      pop\n      pop\n      pop\n        /* \"contracts/FundRegistry_flattened.sol\":75921:75948  Donation memory newDonation */\n      0x00\n        /* \"contracts/FundRegistry_flattened.sol\":75951:76030  Donation(... */\n      mload(0x40)\n      dup1\n      0x60\n      add\n      0x40\n      mstore\n      dup1\n        /* \"contracts/FundRegistry_flattened.sol\":75973:75978  _user */\n      dup6\n        /* \"contracts/FundRegistry_flattened.sol\":75951:76030  Donation(... */\n      0xffffffffffffffffffffffffffffffffffffffff\n      and\n      dup2\n      mstore\n      0x20\n      add\n        /* \"contracts/FundRegistry_flattened.sol\":75992:75999  _fundId */\n      dup5\n        /* \"contracts/FundRegistry_flattened.sol\":75951:76030  Donation(... */\n      0xffffffffffffffffffffffff\n      and\n      dup2\n      mstore\n      0x20\n      add\n        /* \"contracts/FundRegistry_flattened.sol\":76013:76020  _amount */\n      dup4\n        /* \"contracts/FundRegistry_flattened.sol\":75951:76030  Donation(... */\n      dup2\n      mstore\n      pop\n        /* \"contracts/FundRegistry_flattened.sol\":75921:76030  Donation memory newDonation = Donation(... */\n      swap1\n      pop\n        /* \"contracts/FundRegistry_flattened.sol\":76040:76053  fundDonations */\n      0x03\n        /* \"contracts/FundRegistry_flattened.sol\":76040:76062  fundDonations[_fundId] */\n      0x00\n        /* \"contracts/FundRegistry_flattened.sol\":76054:76061  _fundId */\n      dup5\n        /* \"contracts/FundRegistry_flattened.sol\":76040:76062  fundDonations[_fundId] */\n      0xffffffffffffffffffffffff\n      and\n      0xffffffffffffffffffffffff\n      and\n      dup2\n      mstore\n      0x20\n      add\n      swap1\n      dup2\n      mstore\n      0x20\n      add\n      0x00\n      keccak256\n        /* \"contracts/FundRegistry_flattened.sol\":76040:76069  fundDonations[_fundId][_user] */\n      0x00\n        /* \"contracts/FundRegistry_flattened.sol\":76063:76068  _user */\n      dup6\n        /* \"contracts/FundRegistry_flattened.sol\":76040:76069  fundDonations[_fundId][_user] */\n      0xffffffffffffffffffffffffffffffffffffffff\n      and\n      0xffffffffffffffffffffffffffffffffffffffff\n      and\n      dup2\n      mstore\n      0x20\n      add\n      swap1\n      dup2\n      mstore\n      0x20\n      add\n      0x00\n      keccak256\n        /* \"contracts/FundRegistry_flattened.sol\":76075:76086  newDonation */\n      dup2\n        /* \"contracts/FundRegistry_flattened.sol\":76040:76087  fundDonations[_fundId][_user].push(newDonation) */\n      swap1\n      dup1\n      0x01\n      dup2\n      sload\n      add\n      dup1\n      dup3\n      sstore\n      dup1\n      swap2\n      pop\n      pop\n      0x01\n      swap1\n      sub\n      swap1\n      0x00\n      mstore\n      keccak256(0x00, 0x20)\n      swap1\n      0x02\n      mul\n      add\n      0x00\n      swap1\n      swap2\n      swap1\n      swap2\n      swap1\n      swap2\n      pop\n      0x00\n      dup3\n      add\n      mload\n      dup2\n      0x00\n      add\n      exp(0x0100, 0x00)\n      dup2\n      sload\n      dup2\n      0xffffffffffffffffffffffffffffffffffffffff\n      mul\n      not\n      and\n      swap1\n      dup4\n      0xffffffffffffffffffffffffffffffffffffffff\n      and\n      mul\n      or\n      swap1\n      sstore\n      pop\n      0x20\n      dup3\n      add\n      mload\n      dup2\n      0x00\n      add\n      exp(0x0100, 0x14)\n      dup2\n      sload\n      dup2\n      0xffffffffffffffffffffffff\n      mul\n      not\n      and\n      swap1\n      dup4\n      0xffffffffffffffffffffffff\n      and\n      mul\n      or\n      swap1\n      sstore\n      pop\n      0x40\n      dup3\n      add\n      mload\n      dup2\n      0x01\n      add\n      sstore\n      pop\n      pop\n        /* \"contracts/FundRegistry_flattened.sol\":76161:76168  _amount */\n      dup2\n        /* \"contracts/FundRegistry_flattened.sol\":76129:76134  funds */\n      0x01\n        /* \"contracts/FundRegistry_flattened.sol\":76129:76143  funds[_fundId] */\n      0x00\n        /* \"contracts/FundRegistry_flattened.sol\":76135:76142  _fundId */\n      dup6\n        /* \"contracts/FundRegistry_flattened.sol\":76129:76143  funds[_fundId] */\n      0xffffffffffffffffffffffff\n      and\n      0xffffffffffffffffffffffff\n      and\n      dup2\n      mstore\n      0x20\n      add\n      swap1\n      dup2\n      mstore\n      0x20\n      add\n      0x00\n      keccak256\n        /* \"contracts/FundRegistry_flattened.sol\":76129:76158  funds[_fundId].donationAmount */\n      0x03\n      add\n      sload\n        /* \"contracts/FundRegistry_flattened.sol\":76129:76168  funds[_fundId].donationAmount + _amount */\n      tag_200\n      swap2\n      swap1\n      tag_109\n      jump\t// in\n    tag_200:\n        /* \"contracts/FundRegistry_flattened.sol\":76097:76102  funds */\n      0x01\n        /* \"contracts/FundRegistry_flattened.sol\":76097:76111  funds[_fundId] */\n      0x00\n        /* \"contracts/FundRegistry_flattened.sol\":76103:76110  _fundId */\n      dup6\n        /* \"contracts/FundRegistry_flattened.sol\":76097:76111  funds[_fundId] */\n      0xffffffffffffffffffffffff\n      and\n      0xffffffffffffffffffffffff\n      and\n      dup2\n      mstore\n      0x20\n      add\n      swap1\n      dup2\n      mstore\n      0x20\n      add\n      0x00\n      keccak256\n        /* \"contracts/FundRegistry_flattened.sol\":76097:76126  funds[_fundId].donationAmount */\n      0x03\n      add\n        /* \"contracts/FundRegistry_flattened.sol\":76097:76168  funds[_fundId].donationAmount = funds[_fundId].donationAmount + _amount */\n      dup2\n      swap1\n      sstore\n      pop\n        /* \"contracts/FundRegistry_flattened.sol\":76179:76207  address[] storage _fundUsers */\n      0x00\n        /* \"contracts/FundRegistry_flattened.sol\":76210:76219  fundUsers */\n      0x02\n        /* \"contracts/FundRegistry_flattened.sol\":76210:76228  fundUsers[_fundId] */\n      0x00\n        /* \"contracts/FundRegistry_flattened.sol\":76220:76227  _fundId */\n      dup6\n        /* \"contracts/FundRegistry_flattened.sol\":76210:76228  fundUsers[_fundId] */\n      0xffffffffffffffffffffffff\n      and\n      0xffffffffffffffffffffffff\n      and\n      dup2\n      mstore\n      0x20\n      add\n      swap1\n      dup2\n      mstore\n      0x20\n      add\n      0x00\n      keccak256\n        /* \"contracts/FundRegistry_flattened.sol\":76179:76228  address[] storage _fundUsers = fundUsers[_fundId] */\n      swap1\n      pop\n        /* \"contracts/FundRegistry_flattened.sol\":76239:76249  bool isAdd */\n      0x00\n        /* \"contracts/FundRegistry_flattened.sol\":76252:76256  true */\n      0x01\n        /* \"contracts/FundRegistry_flattened.sol\":76239:76256  bool isAdd = true */\n      swap1\n      pop\n        /* \"contracts/FundRegistry_flattened.sol\":76271:76279  uint96 i */\n      0x00\n        /* \"contracts/FundRegistry_flattened.sol\":76266:76432  for (uint96 i = 0; i < _fundUsers.length; i++){... */\n    tag_201:\n        /* \"contracts/FundRegistry_flattened.sol\":76289:76299  _fundUsers */\n      dup3\n        /* \"contracts/FundRegistry_flattened.sol\":76289:76306  _fundUsers.length */\n      dup1\n      sload\n      swap1\n      pop\n        /* \"contracts/FundRegistry_flattened.sol\":76285:76286  i */\n      dup2\n        /* \"contracts/FundRegistry_flattened.sol\":76285:76306  i < _fundUsers.length */\n      0xffffffffffffffffffffffff\n      and\n      lt\n        /* \"contracts/FundRegistry_flattened.sol\":76266:76432  for (uint96 i = 0; i < _fundUsers.length; i++){... */\n      iszero\n      tag_202\n      jumpi\n        /* \"contracts/FundRegistry_flattened.sol\":76347:76352  _user */\n      dup7\n        /* \"contracts/FundRegistry_flattened.sol\":76330:76352  _fundUsers[i] == _user */\n      0xffffffffffffffffffffffffffffffffffffffff\n      and\n        /* \"contracts/FundRegistry_flattened.sol\":76330:76340  _fundUsers */\n      dup4\n        /* \"contracts/FundRegistry_flattened.sol\":76341:76342  i */\n      dup3\n        /* \"contracts/FundRegistry_flattened.sol\":76330:76343  _fundUsers[i] */\n      0xffffffffffffffffffffffff\n      and\n      dup2\n      sload\n      dup2\n      lt\n      tag_204\n      jumpi\n      tag_205\n      tag_102\n      jump\t// in\n    tag_205:\n    tag_204:\n      swap1\n      0x00\n      mstore\n      keccak256(0x00, 0x20)\n      add\n      0x00\n      swap1\n      sload\n      swap1\n      0x0100\n      exp\n      swap1\n      div\n      0xffffffffffffffffffffffffffffffffffffffff\n      and\n        /* \"contracts/FundRegistry_flattened.sol\":76330:76352  _fundUsers[i] == _user */\n      0xffffffffffffffffffffffffffffffffffffffff\n      and\n      sub\n        /* \"contracts/FundRegistry_flattened.sol\":76326:76422  if (_fundUsers[i] == _user){... */\n      tag_207\n      jumpi\n        /* \"contracts/FundRegistry_flattened.sol\":76379:76384  false */\n      0x00\n        /* \"contracts/FundRegistry_flattened.sol\":76371:76384  isAdd = false */\n      swap2\n      pop\n        /* \"contracts/FundRegistry_flattened.sol\":76402:76407  break */\n      jump(tag_202)\n        /* \"contracts/FundRegistry_flattened.sol\":76326:76422  if (_fundUsers[i] == _user){... */\n    tag_207:\n        /* \"contracts/FundRegistry_flattened.sol\":76308:76311  i++ */\n      dup1\n      dup1\n      tag_208\n      swap1\n      tag_111\n      jump\t// in\n    tag_208:\n      swap2\n      pop\n      pop\n        /* \"contracts/FundRegistry_flattened.sol\":76266:76432  for (uint96 i = 0; i < _fundUsers.length; i++){... */\n      jump(tag_201)\n    tag_202:\n      pop\n        /* \"contracts/FundRegistry_flattened.sol\":76445:76450  isAdd */\n      dup1\n        /* \"contracts/FundRegistry_flattened.sol\":76441:76498  if (isAdd){... */\n      iszero\n      tag_209\n      jumpi\n        /* \"contracts/FundRegistry_flattened.sol\":76465:76475  _fundUsers */\n      dup2\n        /* \"contracts/FundRegistry_flattened.sol\":76481:76486  _user */\n      dup7\n        /* \"contracts/FundRegistry_flattened.sol\":76465:76487  _fundUsers.push(_user) */\n      swap1\n      dup1\n      0x01\n      dup2\n      sload\n      add\n      dup1\n      dup3\n      sstore\n      dup1\n      swap2\n      pop\n      pop\n      0x01\n      swap1\n      sub\n      swap1\n      0x00\n      mstore\n      keccak256(0x00, 0x20)\n      add\n      0x00\n      swap1\n      swap2\n      swap1\n      swap2\n      swap1\n      swap2\n      0x0100\n      exp\n      dup2\n      sload\n      dup2\n      0xffffffffffffffffffffffffffffffffffffffff\n      mul\n      not\n      and\n      swap1\n      dup4\n      0xffffffffffffffffffffffffffffffffffffffff\n      and\n      mul\n      or\n      swap1\n      sstore\n      pop\n        /* \"contracts/FundRegistry_flattened.sol\":76441:76498  if (isAdd){... */\n    tag_209:\n        /* \"contracts/FundRegistry_flattened.sol\":75641:76505  {... */\n      pop\n      pop\n      pop\n        /* \"contracts/FundRegistry_flattened.sol\":75531:76505  function createDonation(... */\n      pop\n      pop\n      pop\n      jump\t// out\n        /* \"contracts/FundRegistry_flattened.sol\":76739:77454  function validateFunds(uint96 _fundIdx) private {        ... */\n    tag_166:\n        /* \"contracts/FundRegistry_flattened.sol\":76836:76841  funds */\n      0x01\n        /* \"contracts/FundRegistry_flattened.sol\":76836:76851  funds[_fundIdx] */\n      0x00\n        /* \"contracts/FundRegistry_flattened.sol\":76842:76850  _fundIdx */\n      dup3\n        /* \"contracts/FundRegistry_flattened.sol\":76836:76851  funds[_fundIdx] */\n      0xffffffffffffffffffffffff\n      and\n      0xffffffffffffffffffffffff\n      and\n      dup2\n      mstore\n      0x20\n      add\n      swap1\n      dup2\n      mstore\n      0x20\n      add\n      0x00\n      keccak256\n        /* \"contracts/FundRegistry_flattened.sol\":76836:76866  funds[_fundIdx].donationAmount */\n      0x03\n      add\n      sload\n        /* \"contracts/FundRegistry_flattened.sol\":76808:76813  funds */\n      0x01\n        /* \"contracts/FundRegistry_flattened.sol\":76808:76823  funds[_fundIdx] */\n      0x00\n        /* \"contracts/FundRegistry_flattened.sol\":76814:76822  _fundIdx */\n      dup4\n        /* \"contracts/FundRegistry_flattened.sol\":76808:76823  funds[_fundIdx] */\n      0xffffffffffffffffffffffff\n      and\n      0xffffffffffffffffffffffff\n      and\n      dup2\n      mstore\n      0x20\n      add\n      swap1\n      dup2\n      mstore\n      0x20\n      add\n      0x00\n      keccak256\n        /* \"contracts/FundRegistry_flattened.sol\":76808:76833  funds[_fundIdx].threshold */\n      0x02\n      add\n      sload\n        /* \"contracts/FundRegistry_flattened.sol\":76808:76866  funds[_fundIdx].threshold < funds[_fundIdx].donationAmount */\n      lt\n        /* \"contracts/FundRegistry_flattened.sol\":76805:77437  if(funds[_fundIdx].threshold < funds[_fundIdx].donationAmount) { //임계량을 넘었는지 체크한다.... */\n      iszero\n      tag_212\n      jumpi\n        /* \"contracts/FundRegistry_flattened.sol\":76924:76929  token */\n      0x00\n      dup1\n      sload\n      swap1\n      0x0100\n      exp\n      swap1\n      div\n      0xffffffffffffffffffffffffffffffffffffffff\n      and\n        /* \"contracts/FundRegistry_flattened.sol\":76924:76946  token.safeTransferFrom */\n      0xffffffffffffffffffffffffffffffffffffffff\n      and\n      0xf242432a\n        /* \"contracts/FundRegistry_flattened.sol\":76955:76959  this */\n      address\n        /* \"contracts/FundRegistry_flattened.sol\":76962:76984  getFundPayee(_fundIdx) */\n      tag_213\n        /* \"contracts/FundRegistry_flattened.sol\":76975:76983  _fundIdx */\n      dup5\n        /* \"contracts/FundRegistry_flattened.sol\":76962:76974  getFundPayee */\n      tag_60\n        /* \"contracts/FundRegistry_flattened.sol\":76962:76984  getFundPayee(_fundIdx) */\n      jump\t// in\n    tag_213:\n        /* \"contracts/FundRegistry_flattened.sol\":76986:76987  0 */\n      0x00\n        /* \"contracts/FundRegistry_flattened.sol\":76989:76994  funds */\n      0x01\n        /* \"contracts/FundRegistry_flattened.sol\":76989:77004  funds[_fundIdx] */\n      0x00\n        /* \"contracts/FundRegistry_flattened.sol\":76995:77003  _fundIdx */\n      dup8\n        /* \"contracts/FundRegistry_flattened.sol\":76989:77004  funds[_fundIdx] */\n      0xffffffffffffffffffffffff\n      and\n      0xffffffffffffffffffffffff\n      and\n      dup2\n      mstore\n      0x20\n      add\n      swap1\n      dup2\n      mstore\n      0x20\n      add\n      0x00\n      keccak256\n        /* \"contracts/FundRegistry_flattened.sol\":76989:77019  funds[_fundIdx].donationAmount */\n      0x03\n      add\n      sload\n        /* \"contracts/FundRegistry_flattened.sol\":76924:77027  token.safeTransferFrom(address(this), getFundPayee(_fundIdx), 0, funds[_fundIdx].donationAmount, \"0x0\") */\n      mload(0x40)\n      dup6\n      0xffffffff\n      and\n      0xe0\n      shl\n      dup2\n      mstore\n      0x04\n      add\n      tag_214\n      swap5\n      swap4\n      swap3\n      swap2\n      swap1\n      tag_195\n      jump\t// in\n    tag_214:\n      0x00\n      mload(0x40)\n      dup1\n      dup4\n      sub\n      dup2\n      0x00\n      dup8\n      dup1\n      extcodesize\n      iszero\n      dup1\n      iszero\n      tag_215\n      jumpi\n      0x00\n      dup1\n      revert\n    tag_215:\n      pop\n      gas\n      call\n      iszero\n      dup1\n      iszero\n      tag_217\n      jumpi\n      returndatasize\n      0x00\n      dup1\n      returndatacopy\n      revert(0x00, returndatasize)\n    tag_217:\n      pop\n      pop\n      pop\n      pop\n        /* \"contracts/FundRegistry_flattened.sol\":77101:77109  _fundIdx */\n      dup1\n        /* \"contracts/FundRegistry_flattened.sol\":77069:77204  FundCompletion(... */\n      0xffffffffffffffffffffffff\n      and\n      0xcd79837f8e8f598de24ef07ea60108df97918f95cfc31d1d61ff9fa09c240352\n        /* \"contracts/FundRegistry_flattened.sol\":77127:77132  funds */\n      0x01\n        /* \"contracts/FundRegistry_flattened.sol\":77127:77142  funds[_fundIdx] */\n      0x00\n        /* \"contracts/FundRegistry_flattened.sol\":77133:77141  _fundIdx */\n      dup5\n        /* \"contracts/FundRegistry_flattened.sol\":77127:77142  funds[_fundIdx] */\n      0xffffffffffffffffffffffff\n      and\n      0xffffffffffffffffffffffff\n      and\n      dup2\n      mstore\n      0x20\n      add\n      swap1\n      dup2\n      mstore\n      0x20\n      add\n      0x00\n      keccak256\n        /* \"contracts/FundRegistry_flattened.sol\":77127:77157  funds[_fundIdx].donationAmount */\n      0x03\n      add\n      sload\n        /* \"contracts/FundRegistry_flattened.sol\":77175:77190  block.timestamp */\n      timestamp\n        /* \"contracts/FundRegistry_flattened.sol\":77069:77204  FundCompletion(... */\n      mload(0x40)\n      tag_218\n      swap3\n      swap2\n      swap1\n      tag_219\n      jump\t// in\n    tag_218:\n      mload(0x40)\n      dup1\n      swap2\n      sub\n      swap1\n      log2\n        /* \"contracts/FundRegistry_flattened.sol\":77242:77246  true */\n      0x01\n        /* \"contracts/FundRegistry_flattened.sol\":77218:77223  funds */\n      dup1\n        /* \"contracts/FundRegistry_flattened.sol\":77218:77233  funds[_fundIdx] */\n      0x00\n        /* \"contracts/FundRegistry_flattened.sol\":77224:77232  _fundIdx */\n      dup4\n        /* \"contracts/FundRegistry_flattened.sol\":77218:77233  funds[_fundIdx] */\n      0xffffffffffffffffffffffff\n      and\n      0xffffffffffffffffffffffff\n      and\n      dup2\n      mstore\n      0x20\n      add\n      swap1\n      dup2\n      mstore\n      0x20\n      add\n      0x00\n      keccak256\n        /* \"contracts/FundRegistry_flattened.sol\":77218:77239  funds[_fundIdx].isEnd */\n      0x04\n      add\n      0x00\n        /* \"contracts/FundRegistry_flattened.sol\":77218:77246  funds[_fundIdx].isEnd = true */\n      0x0100\n      exp\n      dup2\n      sload\n      dup2\n      0xff\n      mul\n      not\n      and\n      swap1\n      dup4\n      iszero\n      iszero\n      mul\n      or\n      swap1\n      sstore\n      pop\n        /* \"contracts/FundRegistry_flattened.sol\":77305:77331  mintDTiket(_fundIdx, 1000) */\n      tag_220\n        /* \"contracts/FundRegistry_flattened.sol\":77316:77324  _fundIdx */\n      dup2\n        /* \"contracts/FundRegistry_flattened.sol\":77326:77330  1000 */\n      0x03e8\n        /* \"contracts/FundRegistry_flattened.sol\":77305:77315  mintDTiket */\n      tag_29\n        /* \"contracts/FundRegistry_flattened.sol\":77305:77331  mintDTiket(_fundIdx, 1000) */\n      jump\t// in\n    tag_220:\n        /* \"contracts/FundRegistry_flattened.sol\":76805:77437  if(funds[_fundIdx].threshold < funds[_fundIdx].donationAmount) { //임계량을 넘었는지 체크한다.... */\n    tag_212:\n        /* \"contracts/FundRegistry_flattened.sol\":76739:77454  function validateFunds(uint96 _fundIdx) private {        ... */\n      pop\n      jump\t// out\n    tag_148:\n      mload(0x40)\n      dup1\n      0x0100\n      add\n      0x40\n      mstore\n      dup1\n      and(0xffffffffffffffffffffffff, 0x00)\n      dup2\n      mstore\n      0x20\n      add\n      and(0xffffffffffffffffffffffffffffffffffffffff, 0x00)\n      dup2\n      mstore\n      0x20\n      add\n      and(0xffffffffffff, 0x00)\n      dup2\n      mstore\n      0x20\n      add\n      and(0xffffffffffff, 0x00)\n      dup2\n      mstore\n      0x20\n      add\n      and(0xffffffffffffffffffffffffffffffffffffffff, 0x00)\n      dup2\n      mstore\n      0x20\n      add\n      0x00\n      dup2\n      mstore\n      0x20\n      add\n      0x00\n      dup2\n      mstore\n      0x20\n      add\n      iszero(iszero(0x00))\n      dup2\n      mstore\n      pop\n      swap1\n      jump\t// out\n        /* \"#utility.yul\":7:82   */\n    tag_221:\n        /* \"#utility.yul\":40:46   */\n      0x00\n        /* \"#utility.yul\":73:75   */\n      0x40\n        /* \"#utility.yul\":67:76   */\n      mload\n        /* \"#utility.yul\":57:76   */\n      swap1\n      pop\n        /* \"#utility.yul\":7:82   */\n      swap1\n      jump\t// out\n        /* \"#utility.yul\":88:205   */\n    tag_222:\n        /* \"#utility.yul\":197:198   */\n      0x00\n        /* \"#utility.yul\":194:195   */\n      dup1\n        /* \"#utility.yul\":187:199   */\n      revert\n        /* \"#utility.yul\":211:328   */\n    tag_223:\n        /* \"#utility.yul\":320:321   */\n      0x00\n        /* \"#utility.yul\":317:318   */\n      dup1\n        /* \"#utility.yul\":310:322   */\n      revert\n        /* \"#utility.yul\":334:483   */\n    tag_224:\n        /* \"#utility.yul\":370:377   */\n      0x00\n        /* \"#utility.yul\":410:476   */\n      0xffffffff00000000000000000000000000000000000000000000000000000000\n        /* \"#utility.yul\":403:408   */\n      dup3\n        /* \"#utility.yul\":399:477   */\n      and\n        /* \"#utility.yul\":388:477   */\n      swap1\n      pop\n        /* \"#utility.yul\":334:483   */\n      swap2\n      swap1\n      pop\n      jump\t// out\n        /* \"#utility.yul\":489:609   */\n    tag_225:\n        /* \"#utility.yul\":561:584   */\n      tag_303\n        /* \"#utility.yul\":578:583   */\n      dup2\n        /* \"#utility.yul\":561:584   */\n      tag_224\n      jump\t// in\n    tag_303:\n        /* \"#utility.yul\":554:559   */\n      dup2\n        /* \"#utility.yul\":551:585   */\n      eq\n        /* \"#utility.yul\":541:603   */\n      tag_304\n      jumpi\n        /* \"#utility.yul\":599:600   */\n      0x00\n        /* \"#utility.yul\":596:597   */\n      dup1\n        /* \"#utility.yul\":589:601   */\n      revert\n        /* \"#utility.yul\":541:603   */\n    tag_304:\n        /* \"#utility.yul\":489:609   */\n      pop\n      jump\t// out\n        /* \"#utility.yul\":615:752   */\n    tag_226:\n        /* \"#utility.yul\":660:665   */\n      0x00\n        /* \"#utility.yul\":698:704   */\n      dup2\n        /* \"#utility.yul\":685:705   */\n      calldataload\n        /* \"#utility.yul\":676:705   */\n      swap1\n      pop\n        /* \"#utility.yul\":714:746   */\n      tag_306\n        /* \"#utility.yul\":740:745   */\n      dup2\n        /* \"#utility.yul\":714:746   */\n      tag_225\n      jump\t// in\n    tag_306:\n        /* \"#utility.yul\":615:752   */\n      swap3\n      swap2\n      pop\n      pop\n      jump\t// out\n        /* \"#utility.yul\":758:1085   */\n    tag_22:\n        /* \"#utility.yul\":816:822   */\n      0x00\n        /* \"#utility.yul\":865:867   */\n      0x20\n        /* \"#utility.yul\":853:862   */\n      dup3\n        /* \"#utility.yul\":844:851   */\n      dup5\n        /* \"#utility.yul\":840:863   */\n      sub\n        /* \"#utility.yul\":836:868   */\n      slt\n        /* \"#utility.yul\":833:952   */\n      iszero\n      tag_308\n      jumpi\n        /* \"#utility.yul\":871:950   */\n      tag_309\n      tag_222\n      jump\t// in\n    tag_309:\n        /* \"#utility.yul\":833:952   */\n    tag_308:\n        /* \"#utility.yul\":991:992   */\n      0x00\n        /* \"#utility.yul\":1016:1068   */\n      tag_310\n        /* \"#utility.yul\":1060:1067   */\n      dup5\n        /* \"#utility.yul\":1051:1057   */\n      dup3\n        /* \"#utility.yul\":1040:1049   */\n      dup6\n        /* \"#utility.yul\":1036:1058   */\n      add\n        /* \"#utility.yul\":1016:1068   */\n      tag_226\n      jump\t// in\n    tag_310:\n        /* \"#utility.yul\":1006:1068   */\n      swap2\n      pop\n        /* \"#utility.yul\":962:1078   */\n      pop\n        /* \"#utility.yul\":758:1085   */\n      swap3\n      swap2\n      pop\n      pop\n      jump\t// out\n        /* \"#utility.yul\":1091:1181   */\n    tag_227:\n        /* \"#utility.yul\":1125:1132   */\n      0x00\n        /* \"#utility.yul\":1168:1173   */\n      dup2\n        /* \"#utility.yul\":1161:1174   */\n      iszero\n        /* \"#utility.yul\":1154:1175   */\n      iszero\n        /* \"#utility.yul\":1143:1175   */\n      swap1\n      pop\n        /* \"#utility.yul\":1091:1181   */\n      swap2\n      swap1\n      pop\n      jump\t// out\n        /* \"#utility.yul\":1187:1296   */\n    tag_228:\n        /* \"#utility.yul\":1268:1289   */\n      tag_313\n        /* \"#utility.yul\":1283:1288   */\n      dup2\n        /* \"#utility.yul\":1268:1289   */\n      tag_227\n      jump\t// in\n    tag_313:\n        /* \"#utility.yul\":1263:1266   */\n      dup3\n        /* \"#utility.yul\":1256:1290   */\n      mstore\n        /* \"#utility.yul\":1187:1296   */\n      pop\n      pop\n      jump\t// out\n        /* \"#utility.yul\":1302:1512   */\n    tag_25:\n        /* \"#utility.yul\":1389:1393   */\n      0x00\n        /* \"#utility.yul\":1427:1429   */\n      0x20\n        /* \"#utility.yul\":1416:1425   */\n      dup3\n        /* \"#utility.yul\":1412:1430   */\n      add\n        /* \"#utility.yul\":1404:1430   */\n      swap1\n      pop\n        /* \"#utility.yul\":1440:1505   */\n      tag_315\n        /* \"#utility.yul\":1502:1503   */\n      0x00\n        /* \"#utility.yul\":1491:1500   */\n      dup4\n        /* \"#utility.yul\":1487:1504   */\n      add\n        /* \"#utility.yul\":1478:1484   */\n      dup5\n        /* \"#utility.yul\":1440:1505   */\n      tag_228\n      jump\t// in\n    tag_315:\n        /* \"#utility.yul\":1302:1512   */\n      swap3\n      swap2\n      pop\n      pop\n      jump\t// out\n        /* \"#utility.yul\":1518:1627   */\n    tag_229:\n        /* \"#utility.yul\":1554:1561   */\n      0x00\n        /* \"#utility.yul\":1594:1620   */\n      0xffffffffffffffffffffffff\n        /* \"#utility.yul\":1587:1592   */\n      dup3\n        /* \"#utility.yul\":1583:1621   */\n      and\n        /* \"#utility.yul\":1572:1621   */\n      swap1\n      pop\n        /* \"#utility.yul\":1518:1627   */\n      swap2\n      swap1\n      pop\n      jump\t// out\n        /* \"#utility.yul\":1633:1753   */\n    tag_230:\n        /* \"#utility.yul\":1705:1728   */\n      tag_318\n        /* \"#utility.yul\":1722:1727   */\n      dup2\n        /* \"#utility.yul\":1705:1728   */\n      tag_229\n      jump\t// in\n    tag_318:\n        /* \"#utility.yul\":1698:1703   */\n      dup2\n        /* \"#utility.yul\":1695:1729   */\n      eq\n        /* \"#utility.yul\":1685:1747   */\n      tag_319\n      jumpi\n        /* \"#utility.yul\":1743:1744   */\n      0x00\n        /* \"#utility.yul\":1740:1741   */\n      dup1\n        /* \"#utility.yul\":1733:1745   */\n      revert\n        /* \"#utility.yul\":1685:1747   */\n    tag_319:\n        /* \"#utility.yul\":1633:1753   */\n      pop\n      jump\t// out\n        /* \"#utility.yul\":1759:1896   */\n    tag_231:\n        /* \"#utility.yul\":1804:1809   */\n      0x00\n        /* \"#utility.yul\":1842:1848   */\n      dup2\n        /* \"#utility.yul\":1829:1849   */\n      calldataload\n        /* \"#utility.yul\":1820:1849   */\n      swap1\n      pop\n        /* \"#utility.yul\":1858:1890   */\n      tag_321\n        /* \"#utility.yul\":1884:1889   */\n      dup2\n        /* \"#utility.yul\":1858:1890   */\n      tag_230\n      jump\t// in\n    tag_321:\n        /* \"#utility.yul\":1759:1896   */\n      swap3\n      swap2\n      pop\n      pop\n      jump\t// out\n        /* \"#utility.yul\":1902:2372   */\n    tag_28:\n        /* \"#utility.yul\":1968:1974   */\n      0x00\n        /* \"#utility.yul\":1976:1982   */\n      dup1\n        /* \"#utility.yul\":2025:2027   */\n      0x40\n        /* \"#utility.yul\":2013:2022   */\n      dup4\n        /* \"#utility.yul\":2004:2011   */\n      dup6\n        /* \"#utility.yul\":2000:2023   */\n      sub\n        /* \"#utility.yul\":1996:2028   */\n      slt\n        /* \"#utility.yul\":1993:2112   */\n      iszero\n      tag_323\n      jumpi\n        /* \"#utility.yul\":2031:2110   */\n      tag_324\n      tag_222\n      jump\t// in\n    tag_324:\n        /* \"#utility.yul\":1993:2112   */\n    tag_323:\n        /* \"#utility.yul\":2151:2152   */\n      0x00\n        /* \"#utility.yul\":2176:2228   */\n      tag_325\n        /* \"#utility.yul\":2220:2227   */\n      dup6\n        /* \"#utility.yul\":2211:2217   */\n      dup3\n        /* \"#utility.yul\":2200:2209   */\n      dup7\n        /* \"#utility.yul\":2196:2218   */\n      add\n        /* \"#utility.yul\":2176:2228   */\n      tag_231\n      jump\t// in\n    tag_325:\n        /* \"#utility.yul\":2166:2228   */\n      swap3\n      pop\n        /* \"#utility.yul\":2122:2238   */\n      pop\n        /* \"#utility.yul\":2277:2279   */\n      0x20\n        /* \"#utility.yul\":2303:2355   */\n      tag_326\n        /* \"#utility.yul\":2347:2354   */\n      dup6\n        /* \"#utility.yul\":2338:2344   */\n      dup3\n        /* \"#utility.yul\":2327:2336   */\n      dup7\n        /* \"#utility.yul\":2323:2345   */\n      add\n        /* \"#utility.yul\":2303:2355   */\n      tag_231\n      jump\t// in\n    tag_326:\n        /* \"#utility.yul\":2293:2355   */\n      swap2\n      pop\n        /* \"#utility.yul\":2248:2365   */\n      pop\n        /* \"#utility.yul\":1902:2372   */\n      swap3\n      pop\n      swap3\n      swap1\n      pop\n      jump\t// out\n        /* \"#utility.yul\":2378:2504   */\n    tag_232:\n        /* \"#utility.yul\":2415:2422   */\n      0x00\n        /* \"#utility.yul\":2455:2497   */\n      0xffffffffffffffffffffffffffffffffffffffff\n        /* \"#utility.yul\":2448:2453   */\n      dup3\n        /* \"#utility.yul\":2444:2498   */\n      and\n        /* \"#utility.yul\":2433:2498   */\n      swap1\n      pop\n        /* \"#utility.yul\":2378:2504   */\n      swap2\n      swap1\n      pop\n      jump\t// out\n        /* \"#utility.yul\":2510:2606   */\n    tag_233:\n        /* \"#utility.yul\":2547:2554   */\n      0x00\n        /* \"#utility.yul\":2576:2600   */\n      tag_329\n        /* \"#utility.yul\":2594:2599   */\n      dup3\n        /* \"#utility.yul\":2576:2600   */\n      tag_232\n      jump\t// in\n    tag_329:\n        /* \"#utility.yul\":2565:2600   */\n      swap1\n      pop\n        /* \"#utility.yul\":2510:2606   */\n      swap2\n      swap1\n      pop\n      jump\t// out\n        /* \"#utility.yul\":2612:2734   */\n    tag_234:\n        /* \"#utility.yul\":2685:2709   */\n      tag_331\n        /* \"#utility.yul\":2703:2708   */\n      dup2\n        /* \"#utility.yul\":2685:2709   */\n      tag_233\n      jump\t// in\n    tag_331:\n        /* \"#utility.yul\":2678:2683   */\n      dup2\n        /* \"#utility.yul\":2675:2710   */\n      eq\n        /* \"#utility.yul\":2665:2728   */\n      tag_332\n      jumpi\n        /* \"#utility.yul\":2724:2725   */\n      0x00\n        /* \"#utility.yul\":2721:2722   */\n      dup1\n        /* \"#utility.yul\":2714:2726   */\n      revert\n        /* \"#utility.yul\":2665:2728   */\n    tag_332:\n        /* \"#utility.yul\":2612:2734   */\n      pop\n      jump\t// out\n        /* \"#utility.yul\":2740:2879   */\n    tag_235:\n        /* \"#utility.yul\":2786:2791   */\n      0x00\n        /* \"#utility.yul\":2824:2830   */\n      dup2\n        /* \"#utility.yul\":2811:2831   */\n      calldataload\n        /* \"#utility.yul\":2802:2831   */\n      swap1\n      pop\n        /* \"#utility.yul\":2840:2873   */\n      tag_334\n        /* \"#utility.yul\":2867:2872   */\n      dup2\n        /* \"#utility.yul\":2840:2873   */\n      tag_234\n      jump\t// in\n    tag_334:\n        /* \"#utility.yul\":2740:2879   */\n      swap3\n      swap2\n      pop\n      pop\n      jump\t// out\n        /* \"#utility.yul\":2885:2962   */\n    tag_236:\n        /* \"#utility.yul\":2922:2929   */\n      0x00\n        /* \"#utility.yul\":2951:2956   */\n      dup2\n        /* \"#utility.yul\":2940:2956   */\n      swap1\n      pop\n        /* \"#utility.yul\":2885:2962   */\n      swap2\n      swap1\n      pop\n      jump\t// out\n        /* \"#utility.yul\":2968:3090   */\n    tag_237:\n        /* \"#utility.yul\":3041:3065   */\n      tag_337\n        /* \"#utility.yul\":3059:3064   */\n      dup2\n        /* \"#utility.yul\":3041:3065   */\n      tag_236\n      jump\t// in\n    tag_337:\n        /* \"#utility.yul\":3034:3039   */\n      dup2\n        /* \"#utility.yul\":3031:3066   */\n      eq\n        /* \"#utility.yul\":3021:3084   */\n      tag_338\n      jumpi\n        /* \"#utility.yul\":3080:3081   */\n      0x00\n        /* \"#utility.yul\":3077:3078   */\n      dup1\n        /* \"#utility.yul\":3070:3082   */\n      revert\n        /* \"#utility.yul\":3021:3084   */\n    tag_338:\n        /* \"#utility.yul\":2968:3090   */\n      pop\n      jump\t// out\n        /* \"#utility.yul\":3096:3235   */\n    tag_238:\n        /* \"#utility.yul\":3142:3147   */\n      0x00\n        /* \"#utility.yul\":3180:3186   */\n      dup2\n        /* \"#utility.yul\":3167:3187   */\n      calldataload\n        /* \"#utility.yul\":3158:3187   */\n      swap1\n      pop\n        /* \"#utility.yul\":3196:3229   */\n      tag_340\n        /* \"#utility.yul\":3223:3228   */\n      dup2\n        /* \"#utility.yul\":3196:3229   */\n      tag_237\n      jump\t// in\n    tag_340:\n        /* \"#utility.yul\":3096:3235   */\n      swap3\n      swap2\n      pop\n      pop\n      jump\t// out\n        /* \"#utility.yul\":3241:3860   */\n    tag_32:\n        /* \"#utility.yul\":3318:3324   */\n      0x00\n        /* \"#utility.yul\":3326:3332   */\n      dup1\n        /* \"#utility.yul\":3334:3340   */\n      0x00\n        /* \"#utility.yul\":3383:3385   */\n      0x60\n        /* \"#utility.yul\":3371:3380   */\n      dup5\n        /* \"#utility.yul\":3362:3369   */\n      dup7\n        /* \"#utility.yul\":3358:3381   */\n      sub\n        /* \"#utility.yul\":3354:3386   */\n      slt\n        /* \"#utility.yul\":3351:3470   */\n      iszero\n      tag_342\n      jumpi\n        /* \"#utility.yul\":3389:3468   */\n      tag_343\n      tag_222\n      jump\t// in\n    tag_343:\n        /* \"#utility.yul\":3351:3470   */\n    tag_342:\n        /* \"#utility.yul\":3509:3510   */\n      0x00\n        /* \"#utility.yul\":3534:3587   */\n      tag_344\n        /* \"#utility.yul\":3579:3586   */\n      dup7\n        /* \"#utility.yul\":3570:3576   */\n      dup3\n        /* \"#utility.yul\":3559:3568   */\n      dup8\n        /* \"#utility.yul\":3555:3577   */\n      add\n        /* \"#utility.yul\":3534:3587   */\n      tag_235\n      jump\t// in\n    tag_344:\n        /* \"#utility.yul\":3524:3587   */\n      swap4\n      pop\n        /* \"#utility.yul\":3480:3597   */\n      pop\n        /* \"#utility.yul\":3636:3638   */\n      0x20\n        /* \"#utility.yul\":3662:3715   */\n      tag_345\n        /* \"#utility.yul\":3707:3714   */\n      dup7\n        /* \"#utility.yul\":3698:3704   */\n      dup3\n        /* \"#utility.yul\":3687:3696   */\n      dup8\n        /* \"#utility.yul\":3683:3705   */\n      add\n        /* \"#utility.yul\":3662:3715   */\n      tag_235\n      jump\t// in\n    tag_345:\n        /* \"#utility.yul\":3652:3715   */\n      swap3\n      pop\n        /* \"#utility.yul\":3607:3725   */\n      pop\n        /* \"#utility.yul\":3764:3766   */\n      0x40\n        /* \"#utility.yul\":3790:3843   */\n      tag_346\n        /* \"#utility.yul\":3835:3842   */\n      dup7\n        /* \"#utility.yul\":3826:3832   */\n      dup3\n        /* \"#utility.yul\":3815:3824   */\n      dup8\n        /* \"#utility.yul\":3811:3833   */\n      add\n        /* \"#utility.yul\":3790:3843   */\n      tag_238\n      jump\t// in\n    tag_346:\n        /* \"#utility.yul\":3780:3843   */\n      swap2\n      pop\n        /* \"#utility.yul\":3735:3853   */\n      pop\n        /* \"#utility.yul\":3241:3860   */\n      swap3\n      pop\n      swap3\n      pop\n      swap3\n      jump\t// out\n        /* \"#utility.yul\":3866:4002   */\n    tag_239:\n        /* \"#utility.yul\":3955:3961   */\n      0x00\n        /* \"#utility.yul\":3989:3994   */\n      dup2\n        /* \"#utility.yul\":3983:3995   */\n      mload\n        /* \"#utility.yul\":3973:3995   */\n      swap1\n      pop\n        /* \"#utility.yul\":3866:4002   */\n      swap2\n      swap1\n      pop\n      jump\t// out\n        /* \"#utility.yul\":4008:4214   */\n    tag_240:\n        /* \"#utility.yul\":4129:4140   */\n      0x00\n        /* \"#utility.yul\":4163:4169   */\n      dup3\n        /* \"#utility.yul\":4158:4161   */\n      dup3\n        /* \"#utility.yul\":4151:4170   */\n      mstore\n        /* \"#utility.yul\":4203:4207   */\n      0x20\n        /* \"#utility.yul\":4198:4201   */\n      dup3\n        /* \"#utility.yul\":4194:4208   */\n      add\n        /* \"#utility.yul\":4179:4208   */\n      swap1\n      pop\n        /* \"#utility.yul\":4008:4214   */\n      swap3\n      swap2\n      pop\n      pop\n      jump\t// out\n        /* \"#utility.yul\":4220:4374   */\n    tag_241:\n        /* \"#utility.yul\":4309:4313   */\n      0x00\n        /* \"#utility.yul\":4332:4335   */\n      dup2\n        /* \"#utility.yul\":4324:4335   */\n      swap1\n      pop\n        /* \"#utility.yul\":4362:4366   */\n      0x20\n        /* \"#utility.yul\":4357:4360   */\n      dup3\n        /* \"#utility.yul\":4353:4367   */\n      add\n        /* \"#utility.yul\":4345:4367   */\n      swap1\n      pop\n        /* \"#utility.yul\":4220:4374   */\n      swap2\n      swap1\n      pop\n      jump\t// out\n        /* \"#utility.yul\":4380:4485   */\n    tag_242:\n        /* \"#utility.yul\":4455:4478   */\n      tag_351\n        /* \"#utility.yul\":4472:4477   */\n      dup2\n        /* \"#utility.yul\":4455:4478   */\n      tag_229\n      jump\t// in\n    tag_351:\n        /* \"#utility.yul\":4450:4453   */\n      dup3\n        /* \"#utility.yul\":4443:4479   */\n      mstore\n        /* \"#utility.yul\":4380:4485   */\n      pop\n      pop\n      jump\t// out\n        /* \"#utility.yul\":4491:4599   */\n    tag_243:\n        /* \"#utility.yul\":4568:4592   */\n      tag_353\n        /* \"#utility.yul\":4586:4591   */\n      dup2\n        /* \"#utility.yul\":4568:4592   */\n      tag_233\n      jump\t// in\n    tag_353:\n        /* \"#utility.yul\":4563:4566   */\n      dup3\n        /* \"#utility.yul\":4556:4593   */\n      mstore\n        /* \"#utility.yul\":4491:4599   */\n      pop\n      pop\n      jump\t// out\n        /* \"#utility.yul\":4605:4702   */\n    tag_244:\n        /* \"#utility.yul\":4641:4648   */\n      0x00\n        /* \"#utility.yul\":4681:4695   */\n      0xffffffffffff\n        /* \"#utility.yul\":4674:4679   */\n      dup3\n        /* \"#utility.yul\":4670:4696   */\n      and\n        /* \"#utility.yul\":4659:4696   */\n      swap1\n      pop\n        /* \"#utility.yul\":4605:4702   */\n      swap2\n      swap1\n      pop\n      jump\t// out\n        /* \"#utility.yul\":4708:4813   */\n    tag_245:\n        /* \"#utility.yul\":4783:4806   */\n      tag_356\n        /* \"#utility.yul\":4800:4805   */\n      dup2\n        /* \"#utility.yul\":4783:4806   */\n      tag_244\n      jump\t// in\n    tag_356:\n        /* \"#utility.yul\":4778:4781   */\n      dup3\n        /* \"#utility.yul\":4771:4807   */\n      mstore\n        /* \"#utility.yul\":4708:4813   */\n      pop\n      pop\n      jump\t// out\n        /* \"#utility.yul\":4819:4927   */\n    tag_246:\n        /* \"#utility.yul\":4896:4920   */\n      tag_358\n        /* \"#utility.yul\":4914:4919   */\n      dup2\n        /* \"#utility.yul\":4896:4920   */\n      tag_236\n      jump\t// in\n    tag_358:\n        /* \"#utility.yul\":4891:4894   */\n      dup3\n        /* \"#utility.yul\":4884:4921   */\n      mstore\n        /* \"#utility.yul\":4819:4927   */\n      pop\n      pop\n      jump\t// out\n        /* \"#utility.yul\":4933:5032   */\n    tag_247:\n        /* \"#utility.yul\":5004:5025   */\n      tag_360\n        /* \"#utility.yul\":5019:5024   */\n      dup2\n        /* \"#utility.yul\":5004:5025   */\n      tag_227\n      jump\t// in\n    tag_360:\n        /* \"#utility.yul\":4999:5002   */\n      dup3\n        /* \"#utility.yul\":4992:5026   */\n      mstore\n        /* \"#utility.yul\":4933:5032   */\n      pop\n      pop\n      jump\t// out\n        /* \"#utility.yul\":5098:6649   */\n    tag_248:\n        /* \"#utility.yul\":5229:5235   */\n      0x0100\n        /* \"#utility.yul\":5224:5227   */\n      dup3\n        /* \"#utility.yul\":5220:5236   */\n      add\n        /* \"#utility.yul\":5316:5320   */\n      0x00\n        /* \"#utility.yul\":5309:5314   */\n      dup3\n        /* \"#utility.yul\":5305:5321   */\n      add\n        /* \"#utility.yul\":5299:5322   */\n      mload\n        /* \"#utility.yul\":5335:5396   */\n      tag_362\n        /* \"#utility.yul\":5390:5394   */\n      0x00\n        /* \"#utility.yul\":5385:5388   */\n      dup6\n        /* \"#utility.yul\":5381:5395   */\n      add\n        /* \"#utility.yul\":5367:5379   */\n      dup3\n        /* \"#utility.yul\":5335:5396   */\n      tag_242\n      jump\t// in\n    tag_362:\n        /* \"#utility.yul\":5246:5406   */\n      pop\n        /* \"#utility.yul\":5489:5493   */\n      0x20\n        /* \"#utility.yul\":5482:5487   */\n      dup3\n        /* \"#utility.yul\":5478:5494   */\n      add\n        /* \"#utility.yul\":5472:5495   */\n      mload\n        /* \"#utility.yul\":5508:5571   */\n      tag_363\n        /* \"#utility.yul\":5565:5569   */\n      0x20\n        /* \"#utility.yul\":5560:5563   */\n      dup6\n        /* \"#utility.yul\":5556:5570   */\n      add\n        /* \"#utility.yul\":5542:5554   */\n      dup3\n        /* \"#utility.yul\":5508:5571   */\n      tag_243\n      jump\t// in\n    tag_363:\n        /* \"#utility.yul\":5416:5581   */\n      pop\n        /* \"#utility.yul\":5668:5672   */\n      0x40\n        /* \"#utility.yul\":5661:5666   */\n      dup3\n        /* \"#utility.yul\":5657:5673   */\n      add\n        /* \"#utility.yul\":5651:5674   */\n      mload\n        /* \"#utility.yul\":5687:5748   */\n      tag_364\n        /* \"#utility.yul\":5742:5746   */\n      0x40\n        /* \"#utility.yul\":5737:5740   */\n      dup6\n        /* \"#utility.yul\":5733:5747   */\n      add\n        /* \"#utility.yul\":5719:5731   */\n      dup3\n        /* \"#utility.yul\":5687:5748   */\n      tag_245\n      jump\t// in\n    tag_364:\n        /* \"#utility.yul\":5591:5758   */\n      pop\n        /* \"#utility.yul\":5845:5849   */\n      0x60\n        /* \"#utility.yul\":5838:5843   */\n      dup3\n        /* \"#utility.yul\":5834:5850   */\n      add\n        /* \"#utility.yul\":5828:5851   */\n      mload\n        /* \"#utility.yul\":5864:5925   */\n      tag_365\n        /* \"#utility.yul\":5919:5923   */\n      0x60\n        /* \"#utility.yul\":5914:5917   */\n      dup6\n        /* \"#utility.yul\":5910:5924   */\n      add\n        /* \"#utility.yul\":5896:5908   */\n      dup3\n        /* \"#utility.yul\":5864:5925   */\n      tag_245\n      jump\t// in\n    tag_365:\n        /* \"#utility.yul\":5768:5935   */\n      pop\n        /* \"#utility.yul\":6018:6022   */\n      0x80\n        /* \"#utility.yul\":6011:6016   */\n      dup3\n        /* \"#utility.yul\":6007:6023   */\n      add\n        /* \"#utility.yul\":6001:6024   */\n      mload\n        /* \"#utility.yul\":6037:6100   */\n      tag_366\n        /* \"#utility.yul\":6094:6098   */\n      0x80\n        /* \"#utility.yul\":6089:6092   */\n      dup6\n        /* \"#utility.yul\":6085:6099   */\n      add\n        /* \"#utility.yul\":6071:6083   */\n      dup3\n        /* \"#utility.yul\":6037:6100   */\n      tag_243\n      jump\t// in\n    tag_366:\n        /* \"#utility.yul\":5945:6110   */\n      pop\n        /* \"#utility.yul\":6197:6201   */\n      0xa0\n        /* \"#utility.yul\":6190:6195   */\n      dup3\n        /* \"#utility.yul\":6186:6202   */\n      add\n        /* \"#utility.yul\":6180:6203   */\n      mload\n        /* \"#utility.yul\":6216:6279   */\n      tag_367\n        /* \"#utility.yul\":6273:6277   */\n      0xa0\n        /* \"#utility.yul\":6268:6271   */\n      dup6\n        /* \"#utility.yul\":6264:6278   */\n      add\n        /* \"#utility.yul\":6250:6262   */\n      dup3\n        /* \"#utility.yul\":6216:6279   */\n      tag_246\n      jump\t// in\n    tag_367:\n        /* \"#utility.yul\":6120:6289   */\n      pop\n        /* \"#utility.yul\":6381:6385   */\n      0xc0\n        /* \"#utility.yul\":6374:6379   */\n      dup3\n        /* \"#utility.yul\":6370:6386   */\n      add\n        /* \"#utility.yul\":6364:6387   */\n      mload\n        /* \"#utility.yul\":6400:6463   */\n      tag_368\n        /* \"#utility.yul\":6457:6461   */\n      0xc0\n        /* \"#utility.yul\":6452:6455   */\n      dup6\n        /* \"#utility.yul\":6448:6462   */\n      add\n        /* \"#utility.yul\":6434:6446   */\n      dup3\n        /* \"#utility.yul\":6400:6463   */\n      tag_246\n      jump\t// in\n    tag_368:\n        /* \"#utility.yul\":6299:6473   */\n      pop\n        /* \"#utility.yul\":6556:6560   */\n      0xe0\n        /* \"#utility.yul\":6549:6554   */\n      dup3\n        /* \"#utility.yul\":6545:6561   */\n      add\n        /* \"#utility.yul\":6539:6562   */\n      mload\n        /* \"#utility.yul\":6575:6632   */\n      tag_369\n        /* \"#utility.yul\":6626:6630   */\n      0xe0\n        /* \"#utility.yul\":6621:6624   */\n      dup6\n        /* \"#utility.yul\":6617:6631   */\n      add\n        /* \"#utility.yul\":6603:6615   */\n      dup3\n        /* \"#utility.yul\":6575:6632   */\n      tag_247\n      jump\t// in\n    tag_369:\n        /* \"#utility.yul\":6483:6642   */\n      pop\n        /* \"#utility.yul\":5198:6649   */\n      pop\n        /* \"#utility.yul\":5098:6649   */\n      pop\n      pop\n      jump\t// out\n        /* \"#utility.yul\":6655:6924   */\n    tag_249:\n        /* \"#utility.yul\":6768:6778   */\n      0x00\n        /* \"#utility.yul\":6789:6879   */\n      tag_371\n        /* \"#utility.yul\":6875:6878   */\n      dup4\n        /* \"#utility.yul\":6867:6873   */\n      dup4\n        /* \"#utility.yul\":6789:6879   */\n      tag_248\n      jump\t// in\n    tag_371:\n        /* \"#utility.yul\":6911:6917   */\n      0x0100\n        /* \"#utility.yul\":6906:6909   */\n      dup4\n        /* \"#utility.yul\":6902:6918   */\n      add\n        /* \"#utility.yul\":6888:6918   */\n      swap1\n      pop\n        /* \"#utility.yul\":6655:6924   */\n      swap3\n      swap2\n      pop\n      pop\n      jump\t// out\n        /* \"#utility.yul\":6930:7065   */\n    tag_250:\n        /* \"#utility.yul\":7022:7026   */\n      0x00\n        /* \"#utility.yul\":7054:7058   */\n      0x20\n        /* \"#utility.yul\":7049:7052   */\n      dup3\n        /* \"#utility.yul\":7045:7059   */\n      add\n        /* \"#utility.yul\":7037:7059   */\n      swap1\n      pop\n        /* \"#utility.yul\":6930:7065   */\n      swap2\n      swap1\n      pop\n      jump\t// out\n        /* \"#utility.yul\":7135:8043   */\n    tag_251:\n        /* \"#utility.yul\":7298:7301   */\n      0x00\n        /* \"#utility.yul\":7327:7403   */\n      tag_374\n        /* \"#utility.yul\":7397:7402   */\n      dup3\n        /* \"#utility.yul\":7327:7403   */\n      tag_239\n      jump\t// in\n    tag_374:\n        /* \"#utility.yul\":7419:7527   */\n      tag_375\n        /* \"#utility.yul\":7520:7526   */\n      dup2\n        /* \"#utility.yul\":7515:7518   */\n      dup6\n        /* \"#utility.yul\":7419:7527   */\n      tag_240\n      jump\t// in\n    tag_375:\n        /* \"#utility.yul\":7412:7527   */\n      swap4\n      pop\n        /* \"#utility.yul\":7551:7629   */\n      tag_376\n        /* \"#utility.yul\":7623:7628   */\n      dup4\n        /* \"#utility.yul\":7551:7629   */\n      tag_241\n      jump\t// in\n    tag_376:\n        /* \"#utility.yul\":7652:7659   */\n      dup1\n        /* \"#utility.yul\":7683:7684   */\n      0x00\n        /* \"#utility.yul\":7668:8018   */\n    tag_377:\n        /* \"#utility.yul\":7693:7699   */\n      dup4\n        /* \"#utility.yul\":7690:7691   */\n      dup2\n        /* \"#utility.yul\":7687:7700   */\n      lt\n        /* \"#utility.yul\":7668:8018   */\n      iszero\n      tag_379\n      jumpi\n        /* \"#utility.yul\":7769:7775   */\n      dup2\n        /* \"#utility.yul\":7763:7776   */\n      mload\n        /* \"#utility.yul\":7796:7903   */\n      tag_380\n        /* \"#utility.yul\":7899:7902   */\n      dup9\n        /* \"#utility.yul\":7884:7897   */\n      dup3\n        /* \"#utility.yul\":7796:7903   */\n      tag_249\n      jump\t// in\n    tag_380:\n        /* \"#utility.yul\":7789:7903   */\n      swap8\n      pop\n        /* \"#utility.yul\":7926:8008   */\n      tag_381\n        /* \"#utility.yul\":8001:8007   */\n      dup4\n        /* \"#utility.yul\":7926:8008   */\n      tag_250\n      jump\t// in\n    tag_381:\n        /* \"#utility.yul\":7916:8008   */\n      swap3\n      pop\n        /* \"#utility.yul\":7728:8018   */\n      pop\n        /* \"#utility.yul\":7715:7716   */\n      0x01\n        /* \"#utility.yul\":7712:7713   */\n      dup2\n        /* \"#utility.yul\":7708:7717   */\n      add\n        /* \"#utility.yul\":7703:7717   */\n      swap1\n      pop\n        /* \"#utility.yul\":7668:8018   */\n      jump(tag_377)\n    tag_379:\n        /* \"#utility.yul\":7672:7686   */\n      pop\n        /* \"#utility.yul\":8034:8037   */\n      dup6\n        /* \"#utility.yul\":8027:8037   */\n      swap4\n      pop\n        /* \"#utility.yul\":7303:8043   */\n      pop\n      pop\n      pop\n        /* \"#utility.yul\":7135:8043   */\n      swap3\n      swap2\n      pop\n      pop\n      jump\t// out\n        /* \"#utility.yul\":8049:8510   */\n    tag_37:\n        /* \"#utility.yul\":8236:8240   */\n      0x00\n        /* \"#utility.yul\":8274:8276   */\n      0x20\n        /* \"#utility.yul\":8263:8272   */\n      dup3\n        /* \"#utility.yul\":8259:8277   */\n      add\n        /* \"#utility.yul\":8251:8277   */\n      swap1\n      pop\n        /* \"#utility.yul\":8323:8332   */\n      dup2\n        /* \"#utility.yul\":8317:8321   */\n      dup2\n        /* \"#utility.yul\":8313:8333   */\n      sub\n        /* \"#utility.yul\":8309:8310   */\n      0x00\n        /* \"#utility.yul\":8298:8307   */\n      dup4\n        /* \"#utility.yul\":8294:8311   */\n      add\n        /* \"#utility.yul\":8287:8334   */\n      mstore\n        /* \"#utility.yul\":8351:8503   */\n      tag_383\n        /* \"#utility.yul\":8498:8502   */\n      dup2\n        /* \"#utility.yul\":8489:8495   */\n      dup5\n        /* \"#utility.yul\":8351:8503   */\n      tag_251\n      jump\t// in\n    tag_383:\n        /* \"#utility.yul\":8343:8503   */\n      swap1\n      pop\n        /* \"#utility.yul\":8049:8510   */\n      swap3\n      swap2\n      pop\n      pop\n      jump\t// out\n        /* \"#utility.yul\":8516:8843   */\n    tag_40:\n        /* \"#utility.yul\":8574:8580   */\n      0x00\n        /* \"#utility.yul\":8623:8625   */\n      0x20\n        /* \"#utility.yul\":8611:8620   */\n      dup3\n        /* \"#utility.yul\":8602:8609   */\n      dup5\n        /* \"#utility.yul\":8598:8621   */\n      sub\n        /* \"#utility.yul\":8594:8626   */\n      slt\n        /* \"#utility.yul\":8591:8710   */\n      iszero\n      tag_385\n      jumpi\n        /* \"#utility.yul\":8629:8708   */\n      tag_386\n      tag_222\n      jump\t// in\n    tag_386:\n        /* \"#utility.yul\":8591:8710   */\n    tag_385:\n        /* \"#utility.yul\":8749:8750   */\n      0x00\n        /* \"#utility.yul\":8774:8826   */\n      tag_387\n        /* \"#utility.yul\":8818:8825   */\n      dup5\n        /* \"#utility.yul\":8809:8815   */\n      dup3\n        /* \"#utility.yul\":8798:8807   */\n      dup6\n        /* \"#utility.yul\":8794:8816   */\n      add\n        /* \"#utility.yul\":8774:8826   */\n      tag_231\n      jump\t// in\n    tag_387:\n        /* \"#utility.yul\":8764:8826   */\n      swap2\n      pop\n        /* \"#utility.yul\":8720:8836   */\n      pop\n        /* \"#utility.yul\":8516:8843   */\n      swap3\n      swap2\n      pop\n      pop\n      jump\t// out\n        /* \"#utility.yul\":8849:8964   */\n    tag_252:\n        /* \"#utility.yul\":8934:8957   */\n      tag_389\n        /* \"#utility.yul\":8951:8956   */\n      dup2\n        /* \"#utility.yul\":8934:8957   */\n      tag_229\n      jump\t// in\n    tag_389:\n        /* \"#utility.yul\":8929:8932   */\n      dup3\n        /* \"#utility.yul\":8922:8958   */\n      mstore\n        /* \"#utility.yul\":8849:8964   */\n      pop\n      pop\n      jump\t// out\n        /* \"#utility.yul\":8970:9088   */\n    tag_253:\n        /* \"#utility.yul\":9057:9081   */\n      tag_391\n        /* \"#utility.yul\":9075:9080   */\n      dup2\n        /* \"#utility.yul\":9057:9081   */\n      tag_233\n      jump\t// in\n    tag_391:\n        /* \"#utility.yul\":9052:9055   */\n      dup3\n        /* \"#utility.yul\":9045:9082   */\n      mstore\n        /* \"#utility.yul\":8970:9088   */\n      pop\n      pop\n      jump\t// out\n        /* \"#utility.yul\":9094:9209   */\n    tag_254:\n        /* \"#utility.yul\":9179:9202   */\n      tag_393\n        /* \"#utility.yul\":9196:9201   */\n      dup2\n        /* \"#utility.yul\":9179:9202   */\n      tag_244\n      jump\t// in\n    tag_393:\n        /* \"#utility.yul\":9174:9177   */\n      dup3\n        /* \"#utility.yul\":9167:9203   */\n      mstore\n        /* \"#utility.yul\":9094:9209   */\n      pop\n      pop\n      jump\t// out\n        /* \"#utility.yul\":9215:9333   */\n    tag_255:\n        /* \"#utility.yul\":9302:9326   */\n      tag_395\n        /* \"#utility.yul\":9320:9325   */\n      dup2\n        /* \"#utility.yul\":9302:9326   */\n      tag_236\n      jump\t// in\n    tag_395:\n        /* \"#utility.yul\":9297:9300   */\n      dup3\n        /* \"#utility.yul\":9290:9327   */\n      mstore\n        /* \"#utility.yul\":9215:9333   */\n      pop\n      pop\n      jump\t// out\n        /* \"#utility.yul\":9339:10312   */\n    tag_43:\n        /* \"#utility.yul\":9616:9620   */\n      0x00\n        /* \"#utility.yul\":9654:9657   */\n      0x0100\n        /* \"#utility.yul\":9643:9652   */\n      dup3\n        /* \"#utility.yul\":9639:9658   */\n      add\n        /* \"#utility.yul\":9631:9658   */\n      swap1\n      pop\n        /* \"#utility.yul\":9668:9737   */\n      tag_397\n        /* \"#utility.yul\":9734:9735   */\n      0x00\n        /* \"#utility.yul\":9723:9732   */\n      dup4\n        /* \"#utility.yul\":9719:9736   */\n      add\n        /* \"#utility.yul\":9710:9716   */\n      dup12\n        /* \"#utility.yul\":9668:9737   */\n      tag_252\n      jump\t// in\n    tag_397:\n        /* \"#utility.yul\":9747:9819   */\n      tag_398\n        /* \"#utility.yul\":9815:9817   */\n      0x20\n        /* \"#utility.yul\":9804:9813   */\n      dup4\n        /* \"#utility.yul\":9800:9818   */\n      add\n        /* \"#utility.yul\":9791:9797   */\n      dup11\n        /* \"#utility.yul\":9747:9819   */\n      tag_253\n      jump\t// in\n    tag_398:\n        /* \"#utility.yul\":9829:9899   */\n      tag_399\n        /* \"#utility.yul\":9895:9897   */\n      0x40\n        /* \"#utility.yul\":9884:9893   */\n      dup4\n        /* \"#utility.yul\":9880:9898   */\n      add\n        /* \"#utility.yul\":9871:9877   */\n      dup10\n        /* \"#utility.yul\":9829:9899   */\n      tag_254\n      jump\t// in\n    tag_399:\n        /* \"#utility.yul\":9909:9979   */\n      tag_400\n        /* \"#utility.yul\":9975:9977   */\n      0x60\n        /* \"#utility.yul\":9964:9973   */\n      dup4\n        /* \"#utility.yul\":9960:9978   */\n      add\n        /* \"#utility.yul\":9951:9957   */\n      dup9\n        /* \"#utility.yul\":9909:9979   */\n      tag_254\n      jump\t// in\n    tag_400:\n        /* \"#utility.yul\":9989:10062   */\n      tag_401\n        /* \"#utility.yul\":10057:10060   */\n      0x80\n        /* \"#utility.yul\":10046:10055   */\n      dup4\n        /* \"#utility.yul\":10042:10061   */\n      add\n        /* \"#utility.yul\":10033:10039   */\n      dup8\n        /* \"#utility.yul\":9989:10062   */\n      tag_253\n      jump\t// in\n    tag_401:\n        /* \"#utility.yul\":10072:10145   */\n      tag_402\n        /* \"#utility.yul\":10140:10143   */\n      0xa0\n        /* \"#utility.yul\":10129:10138   */\n      dup4\n        /* \"#utility.yul\":10125:10144   */\n      add\n        /* \"#utility.yul\":10116:10122   */\n      dup7\n        /* \"#utility.yul\":10072:10145   */\n      tag_255\n      jump\t// in\n    tag_402:\n        /* \"#utility.yul\":10155:10228   */\n      tag_403\n        /* \"#utility.yul\":10223:10226   */\n      0xc0\n        /* \"#utility.yul\":10212:10221   */\n      dup4\n        /* \"#utility.yul\":10208:10227   */\n      add\n        /* \"#utility.yul\":10199:10205   */\n      dup6\n        /* \"#utility.yul\":10155:10228   */\n      tag_255\n      jump\t// in\n    tag_403:\n        /* \"#utility.yul\":10238:10305   */\n      tag_404\n        /* \"#utility.yul\":10300:10303   */\n      0xe0\n        /* \"#utility.yul\":10289:10298   */\n      dup4\n        /* \"#utility.yul\":10285:10304   */\n      add\n        /* \"#utility.yul\":10276:10282   */\n      dup5\n        /* \"#utility.yul\":10238:10305   */\n      tag_228\n      jump\t// in\n    tag_404:\n        /* \"#utility.yul\":9339:10312   */\n      swap10\n      swap9\n      pop\n      pop\n      pop\n      pop\n      pop\n      pop\n      pop\n      pop\n      pop\n      jump\t// out\n        /* \"#utility.yul\":10318:10790   */\n    tag_46:\n        /* \"#utility.yul\":10385:10391   */\n      0x00\n        /* \"#utility.yul\":10393:10399   */\n      dup1\n        /* \"#utility.yul\":10442:10444   */\n      0x40\n        /* \"#utility.yul\":10430:10439   */\n      dup4\n        /* \"#utility.yul\":10421:10428   */\n      dup6\n        /* \"#utility.yul\":10417:10440   */\n      sub\n        /* \"#utility.yul\":10413:10445   */\n      slt\n        /* \"#utility.yul\":10410:10529   */\n      iszero\n      tag_406\n      jumpi\n        /* \"#utility.yul\":10448:10527   */\n      tag_407\n      tag_222\n      jump\t// in\n    tag_407:\n        /* \"#utility.yul\":10410:10529   */\n    tag_406:\n        /* \"#utility.yul\":10568:10569   */\n      0x00\n        /* \"#utility.yul\":10593:10645   */\n      tag_408\n        /* \"#utility.yul\":10637:10644   */\n      dup6\n        /* \"#utility.yul\":10628:10634   */\n      dup3\n        /* \"#utility.yul\":10617:10626   */\n      dup7\n        /* \"#utility.yul\":10613:10635   */\n      add\n        /* \"#utility.yul\":10593:10645   */\n      tag_231\n      jump\t// in\n    tag_408:\n        /* \"#utility.yul\":10583:10645   */\n      swap3\n      pop\n        /* \"#utility.yul\":10539:10655   */\n      pop\n        /* \"#utility.yul\":10694:10696   */\n      0x20\n        /* \"#utility.yul\":10720:10773   */\n      tag_409\n        /* \"#utility.yul\":10765:10772   */\n      dup6\n        /* \"#utility.yul\":10756:10762   */\n      dup3\n        /* \"#utility.yul\":10745:10754   */\n      dup7\n        /* \"#utility.yul\":10741:10763   */\n      add\n        /* \"#utility.yul\":10720:10773   */\n      tag_238\n      jump\t// in\n    tag_409:\n        /* \"#utility.yul\":10710:10773   */\n      swap2\n      pop\n        /* \"#utility.yul\":10665:10783   */\n      pop\n        /* \"#utility.yul\":10318:10790   */\n      swap3\n      pop\n      swap3\n      swap1\n      pop\n      jump\t// out\n        /* \"#utility.yul\":10796:11018   */\n    tag_49:\n        /* \"#utility.yul\":10889:10893   */\n      0x00\n        /* \"#utility.yul\":10927:10929   */\n      0x20\n        /* \"#utility.yul\":10916:10925   */\n      dup3\n        /* \"#utility.yul\":10912:10930   */\n      add\n        /* \"#utility.yul\":10904:10930   */\n      swap1\n      pop\n        /* \"#utility.yul\":10940:11011   */\n      tag_411\n        /* \"#utility.yul\":11008:11009   */\n      0x00\n        /* \"#utility.yul\":10997:11006   */\n      dup4\n        /* \"#utility.yul\":10993:11010   */\n      add\n        /* \"#utility.yul\":10984:10990   */\n      dup5\n        /* \"#utility.yul\":10940:11011   */\n      tag_253\n      jump\t// in\n    tag_411:\n        /* \"#utility.yul\":10796:11018   */\n      swap3\n      swap2\n      pop\n      pop\n      jump\t// out\n        /* \"#utility.yul\":11024:11242   */\n    tag_57:\n        /* \"#utility.yul\":11115:11119   */\n      0x00\n        /* \"#utility.yul\":11153:11155   */\n      0x20\n        /* \"#utility.yul\":11142:11151   */\n      dup3\n        /* \"#utility.yul\":11138:11156   */\n      add\n        /* \"#utility.yul\":11130:11156   */\n      swap1\n      pop\n        /* \"#utility.yul\":11166:11235   */\n      tag_413\n        /* \"#utility.yul\":11232:11233   */\n      0x00\n        /* \"#utility.yul\":11221:11230   */\n      dup4\n        /* \"#utility.yul\":11217:11234   */\n      add\n        /* \"#utility.yul\":11208:11214   */\n      dup5\n        /* \"#utility.yul\":11166:11235   */\n      tag_252\n      jump\t// in\n    tag_413:\n        /* \"#utility.yul\":11024:11242   */\n      swap3\n      swap2\n      pop\n      pop\n      jump\t// out\n        /* \"#utility.yul\":11248:11865   */\n    tag_64:\n        /* \"#utility.yul\":11324:11330   */\n      0x00\n        /* \"#utility.yul\":11332:11338   */\n      dup1\n        /* \"#utility.yul\":11340:11346   */\n      0x00\n        /* \"#utility.yul\":11389:11391   */\n      0x60\n        /* \"#utility.yul\":11377:11386   */\n      dup5\n        /* \"#utility.yul\":11368:11375   */\n      dup7\n        /* \"#utility.yul\":11364:11387   */\n      sub\n        /* \"#utility.yul\":11360:11392   */\n      slt\n        /* \"#utility.yul\":11357:11476   */\n      iszero\n      tag_415\n      jumpi\n        /* \"#utility.yul\":11395:11474   */\n      tag_416\n      tag_222\n      jump\t// in\n    tag_416:\n        /* \"#utility.yul\":11357:11476   */\n    tag_415:\n        /* \"#utility.yul\":11515:11516   */\n      0x00\n        /* \"#utility.yul\":11540:11592   */\n      tag_417\n        /* \"#utility.yul\":11584:11591   */\n      dup7\n        /* \"#utility.yul\":11575:11581   */\n      dup3\n        /* \"#utility.yul\":11564:11573   */\n      dup8\n        /* \"#utility.yul\":11560:11582   */\n      add\n        /* \"#utility.yul\":11540:11592   */\n      tag_231\n      jump\t// in\n    tag_417:\n        /* \"#utility.yul\":11530:11592   */\n      swap4\n      pop\n        /* \"#utility.yul\":11486:11602   */\n      pop\n        /* \"#utility.yul\":11641:11643   */\n      0x20\n        /* \"#utility.yul\":11667:11720   */\n      tag_418\n        /* \"#utility.yul\":11712:11719   */\n      dup7\n        /* \"#utility.yul\":11703:11709   */\n      dup3\n        /* \"#utility.yul\":11692:11701   */\n      dup8\n        /* \"#utility.yul\":11688:11710   */\n      add\n        /* \"#utility.yul\":11667:11720   */\n      tag_235\n      jump\t// in\n    tag_418:\n        /* \"#utility.yul\":11657:11720   */\n      swap3\n      pop\n        /* \"#utility.yul\":11612:11730   */\n      pop\n        /* \"#utility.yul\":11769:11771   */\n      0x40\n        /* \"#utility.yul\":11795:11848   */\n      tag_419\n        /* \"#utility.yul\":11840:11847   */\n      dup7\n        /* \"#utility.yul\":11831:11837   */\n      dup3\n        /* \"#utility.yul\":11820:11829   */\n      dup8\n        /* \"#utility.yul\":11816:11838   */\n      add\n        /* \"#utility.yul\":11795:11848   */\n      tag_238\n      jump\t// in\n    tag_419:\n        /* \"#utility.yul\":11785:11848   */\n      swap2\n      pop\n        /* \"#utility.yul\":11740:11858   */\n      pop\n        /* \"#utility.yul\":11248:11865   */\n      swap3\n      pop\n      swap3\n      pop\n      swap3\n      jump\t// out\n        /* \"#utility.yul\":11871:12309   */\n    tag_67:\n        /* \"#utility.yul\":12018:12022   */\n      0x00\n        /* \"#utility.yul\":12056:12058   */\n      0x60\n        /* \"#utility.yul\":12045:12054   */\n      dup3\n        /* \"#utility.yul\":12041:12059   */\n      add\n        /* \"#utility.yul\":12033:12059   */\n      swap1\n      pop\n        /* \"#utility.yul\":12069:12140   */\n      tag_421\n        /* \"#utility.yul\":12137:12138   */\n      0x00\n        /* \"#utility.yul\":12126:12135   */\n      dup4\n        /* \"#utility.yul\":12122:12139   */\n      add\n        /* \"#utility.yul\":12113:12119   */\n      dup7\n        /* \"#utility.yul\":12069:12140   */\n      tag_253\n      jump\t// in\n    tag_421:\n        /* \"#utility.yul\":12150:12220   */\n      tag_422\n        /* \"#utility.yul\":12216:12218   */\n      0x20\n        /* \"#utility.yul\":12205:12214   */\n      dup4\n        /* \"#utility.yul\":12201:12219   */\n      add\n        /* \"#utility.yul\":12192:12198   */\n      dup6\n        /* \"#utility.yul\":12150:12220   */\n      tag_252\n      jump\t// in\n    tag_422:\n        /* \"#utility.yul\":12230:12302   */\n      tag_423\n        /* \"#utility.yul\":12298:12300   */\n      0x40\n        /* \"#utility.yul\":12287:12296   */\n      dup4\n        /* \"#utility.yul\":12283:12301   */\n      add\n        /* \"#utility.yul\":12274:12280   */\n      dup5\n        /* \"#utility.yul\":12230:12302   */\n      tag_255\n      jump\t// in\n    tag_423:\n        /* \"#utility.yul\":11871:12309   */\n      swap5\n      swap4\n      pop\n      pop\n      pop\n      pop\n      jump\t// out\n        /* \"#utility.yul\":12315:12932   */\n    tag_70:\n        /* \"#utility.yul\":12391:12397   */\n      0x00\n        /* \"#utility.yul\":12399:12405   */\n      dup1\n        /* \"#utility.yul\":12407:12413   */\n      0x00\n        /* \"#utility.yul\":12456:12458   */\n      0x60\n        /* \"#utility.yul\":12444:12453   */\n      dup5\n        /* \"#utility.yul\":12435:12442   */\n      dup7\n        /* \"#utility.yul\":12431:12454   */\n      sub\n        /* \"#utility.yul\":12427:12459   */\n      slt\n        /* \"#utility.yul\":12424:12543   */\n      iszero\n      tag_425\n      jumpi\n        /* \"#utility.yul\":12462:12541   */\n      tag_426\n      tag_222\n      jump\t// in\n    tag_426:\n        /* \"#utility.yul\":12424:12543   */\n    tag_425:\n        /* \"#utility.yul\":12582:12583   */\n      0x00\n        /* \"#utility.yul\":12607:12660   */\n      tag_427\n        /* \"#utility.yul\":12652:12659   */\n      dup7\n        /* \"#utility.yul\":12643:12649   */\n      dup3\n        /* \"#utility.yul\":12632:12641   */\n      dup8\n        /* \"#utility.yul\":12628:12650   */\n      add\n        /* \"#utility.yul\":12607:12660   */\n      tag_235\n      jump\t// in\n    tag_427:\n        /* \"#utility.yul\":12597:12660   */\n      swap4\n      pop\n        /* \"#utility.yul\":12553:12670   */\n      pop\n        /* \"#utility.yul\":12709:12711   */\n      0x20\n        /* \"#utility.yul\":12735:12787   */\n      tag_428\n        /* \"#utility.yul\":12779:12786   */\n      dup7\n        /* \"#utility.yul\":12770:12776   */\n      dup3\n        /* \"#utility.yul\":12759:12768   */\n      dup8\n        /* \"#utility.yul\":12755:12777   */\n      add\n        /* \"#utility.yul\":12735:12787   */\n      tag_231\n      jump\t// in\n    tag_428:\n        /* \"#utility.yul\":12725:12787   */\n      swap3\n      pop\n        /* \"#utility.yul\":12680:12797   */\n      pop\n        /* \"#utility.yul\":12836:12838   */\n      0x40\n        /* \"#utility.yul\":12862:12915   */\n      tag_429\n        /* \"#utility.yul\":12907:12914   */\n      dup7\n        /* \"#utility.yul\":12898:12904   */\n      dup3\n        /* \"#utility.yul\":12887:12896   */\n      dup8\n        /* \"#utility.yul\":12883:12905   */\n      add\n        /* \"#utility.yul\":12862:12915   */\n      tag_238\n      jump\t// in\n    tag_429:\n        /* \"#utility.yul\":12852:12915   */\n      swap2\n      pop\n        /* \"#utility.yul\":12807:12925   */\n      pop\n        /* \"#utility.yul\":12315:12932   */\n      swap3\n      pop\n      swap3\n      pop\n      swap3\n      jump\t// out\n        /* \"#utility.yul\":12938:13055   */\n    tag_256:\n        /* \"#utility.yul\":13047:13048   */\n      0x00\n        /* \"#utility.yul\":13044:13045   */\n      dup1\n        /* \"#utility.yul\":13037:13049   */\n      revert\n        /* \"#utility.yul\":13061:13163   */\n    tag_257:\n        /* \"#utility.yul\":13102:13108   */\n      0x00\n        /* \"#utility.yul\":13153:13155   */\n      0x1f\n        /* \"#utility.yul\":13149:13156   */\n      not\n        /* \"#utility.yul\":13144:13146   */\n      0x1f\n        /* \"#utility.yul\":13137:13142   */\n      dup4\n        /* \"#utility.yul\":13133:13147   */\n      add\n        /* \"#utility.yul\":13129:13157   */\n      and\n        /* \"#utility.yul\":13119:13157   */\n      swap1\n      pop\n        /* \"#utility.yul\":13061:13163   */\n      swap2\n      swap1\n      pop\n      jump\t// out\n        /* \"#utility.yul\":13169:13349   */\n    tag_144:\n        /* \"#utility.yul\":13217:13294   */\n      0x4e487b7100000000000000000000000000000000000000000000000000000000\n        /* \"#utility.yul\":13214:13215   */\n      0x00\n        /* \"#utility.yul\":13207:13295   */\n      mstore\n        /* \"#utility.yul\":13314:13318   */\n      0x41\n        /* \"#utility.yul\":13311:13312   */\n      0x04\n        /* \"#utility.yul\":13304:13319   */\n      mstore\n        /* \"#utility.yul\":13338:13342   */\n      0x24\n        /* \"#utility.yul\":13335:13336   */\n      0x00\n        /* \"#utility.yul\":13328:13343   */\n      revert\n        /* \"#utility.yul\":13355:13636   */\n    tag_258:\n        /* \"#utility.yul\":13438:13465   */\n      tag_434\n        /* \"#utility.yul\":13460:13464   */\n      dup3\n        /* \"#utility.yul\":13438:13465   */\n      tag_257\n      jump\t// in\n    tag_434:\n        /* \"#utility.yul\":13430:13436   */\n      dup2\n        /* \"#utility.yul\":13426:13466   */\n      add\n        /* \"#utility.yul\":13568:13574   */\n      dup2\n        /* \"#utility.yul\":13556:13566   */\n      dup2\n        /* \"#utility.yul\":13553:13575   */\n      lt\n        /* \"#utility.yul\":13532:13550   */\n      0xffffffffffffffff\n        /* \"#utility.yul\":13520:13530   */\n      dup3\n        /* \"#utility.yul\":13517:13551   */\n      gt\n        /* \"#utility.yul\":13514:13576   */\n      or\n        /* \"#utility.yul\":13511:13599   */\n      iszero\n      tag_435\n      jumpi\n        /* \"#utility.yul\":13579:13597   */\n      tag_436\n      tag_144\n      jump\t// in\n    tag_436:\n        /* \"#utility.yul\":13511:13599   */\n    tag_435:\n        /* \"#utility.yul\":13619:13629   */\n      dup1\n        /* \"#utility.yul\":13615:13617   */\n      0x40\n        /* \"#utility.yul\":13608:13630   */\n      mstore\n        /* \"#utility.yul\":13398:13636   */\n      pop\n        /* \"#utility.yul\":13355:13636   */\n      pop\n      pop\n      jump\t// out\n        /* \"#utility.yul\":13642:13771   */\n    tag_259:\n        /* \"#utility.yul\":13676:13682   */\n      0x00\n        /* \"#utility.yul\":13703:13723   */\n      tag_438\n      tag_221\n      jump\t// in\n    tag_438:\n        /* \"#utility.yul\":13693:13723   */\n      swap1\n      pop\n        /* \"#utility.yul\":13732:13765   */\n      tag_439\n        /* \"#utility.yul\":13760:13764   */\n      dup3\n        /* \"#utility.yul\":13752:13758   */\n      dup3\n        /* \"#utility.yul\":13732:13765   */\n      tag_258\n      jump\t// in\n    tag_439:\n        /* \"#utility.yul\":13642:13771   */\n      swap2\n      swap1\n      pop\n      jump\t// out\n        /* \"#utility.yul\":13777:14088   */\n    tag_260:\n        /* \"#utility.yul\":13854:13858   */\n      0x00\n        /* \"#utility.yul\":13944:13962   */\n      0xffffffffffffffff\n        /* \"#utility.yul\":13936:13942   */\n      dup3\n        /* \"#utility.yul\":13933:13963   */\n      gt\n        /* \"#utility.yul\":13930:13986   */\n      iszero\n      tag_441\n      jumpi\n        /* \"#utility.yul\":13966:13984   */\n      tag_442\n      tag_144\n      jump\t// in\n    tag_442:\n        /* \"#utility.yul\":13930:13986   */\n    tag_441:\n        /* \"#utility.yul\":14016:14020   */\n      0x20\n        /* \"#utility.yul\":14008:14014   */\n      dup3\n        /* \"#utility.yul\":14004:14021   */\n      mul\n        /* \"#utility.yul\":13996:14021   */\n      swap1\n      pop\n        /* \"#utility.yul\":14076:14080   */\n      0x20\n        /* \"#utility.yul\":14070:14074   */\n      dup2\n        /* \"#utility.yul\":14066:14081   */\n      add\n        /* \"#utility.yul\":14058:14081   */\n      swap1\n      pop\n        /* \"#utility.yul\":13777:14088   */\n      swap2\n      swap1\n      pop\n      jump\t// out\n        /* \"#utility.yul\":14094:14211   */\n    tag_261:\n        /* \"#utility.yul\":14203:14204   */\n      0x00\n        /* \"#utility.yul\":14200:14201   */\n      dup1\n        /* \"#utility.yul\":14193:14205   */\n      revert\n        /* \"#utility.yul\":14234:14944   */\n    tag_262:\n        /* \"#utility.yul\":14330:14335   */\n      0x00\n        /* \"#utility.yul\":14355:14436   */\n      tag_445\n        /* \"#utility.yul\":14371:14435   */\n      tag_446\n        /* \"#utility.yul\":14428:14434   */\n      dup5\n        /* \"#utility.yul\":14371:14435   */\n      tag_260\n      jump\t// in\n    tag_446:\n        /* \"#utility.yul\":14355:14436   */\n      tag_259\n      jump\t// in\n    tag_445:\n        /* \"#utility.yul\":14346:14436   */\n      swap1\n      pop\n        /* \"#utility.yul\":14456:14461   */\n      dup1\n        /* \"#utility.yul\":14485:14491   */\n      dup4\n        /* \"#utility.yul\":14478:14483   */\n      dup3\n        /* \"#utility.yul\":14471:14492   */\n      mstore\n        /* \"#utility.yul\":14519:14523   */\n      0x20\n        /* \"#utility.yul\":14512:14517   */\n      dup3\n        /* \"#utility.yul\":14508:14524   */\n      add\n        /* \"#utility.yul\":14501:14524   */\n      swap1\n      pop\n        /* \"#utility.yul\":14572:14576   */\n      0x20\n        /* \"#utility.yul\":14564:14570   */\n      dup5\n        /* \"#utility.yul\":14560:14577   */\n      mul\n        /* \"#utility.yul\":14552:14558   */\n      dup4\n        /* \"#utility.yul\":14548:14578   */\n      add\n        /* \"#utility.yul\":14601:14604   */\n      dup6\n        /* \"#utility.yul\":14593:14599   */\n      dup2\n        /* \"#utility.yul\":14590:14605   */\n      gt\n        /* \"#utility.yul\":14587:14709   */\n      iszero\n      tag_447\n      jumpi\n        /* \"#utility.yul\":14620:14699   */\n      tag_448\n      tag_261\n      jump\t// in\n    tag_448:\n        /* \"#utility.yul\":14587:14709   */\n    tag_447:\n        /* \"#utility.yul\":14735:14741   */\n      dup4\n        /* \"#utility.yul\":14718:14938   */\n    tag_449:\n        /* \"#utility.yul\":14752:14758   */\n      dup2\n        /* \"#utility.yul\":14747:14750   */\n      dup2\n        /* \"#utility.yul\":14744:14759   */\n      lt\n        /* \"#utility.yul\":14718:14938   */\n      iszero\n      tag_451\n      jumpi\n        /* \"#utility.yul\":14827:14830   */\n      dup1\n        /* \"#utility.yul\":14856:14893   */\n      tag_452\n        /* \"#utility.yul\":14889:14892   */\n      dup9\n        /* \"#utility.yul\":14877:14887   */\n      dup3\n        /* \"#utility.yul\":14856:14893   */\n      tag_238\n      jump\t// in\n    tag_452:\n        /* \"#utility.yul\":14851:14854   */\n      dup5\n        /* \"#utility.yul\":14844:14894   */\n      mstore\n        /* \"#utility.yul\":14923:14927   */\n      0x20\n        /* \"#utility.yul\":14918:14921   */\n      dup5\n        /* \"#utility.yul\":14914:14928   */\n      add\n        /* \"#utility.yul\":14907:14928   */\n      swap4\n      pop\n        /* \"#utility.yul\":14794:14938   */\n      pop\n        /* \"#utility.yul\":14778:14782   */\n      0x20\n        /* \"#utility.yul\":14773:14776   */\n      dup2\n        /* \"#utility.yul\":14769:14783   */\n      add\n        /* \"#utility.yul\":14762:14783   */\n      swap1\n      pop\n        /* \"#utility.yul\":14718:14938   */\n      jump(tag_449)\n    tag_451:\n        /* \"#utility.yul\":14722:14743   */\n      pop\n        /* \"#utility.yul\":14336:14944   */\n      pop\n      pop\n        /* \"#utility.yul\":14234:14944   */\n      swap4\n      swap3\n      pop\n      pop\n      pop\n      jump\t// out\n        /* \"#utility.yul\":14967:15337   */\n    tag_263:\n        /* \"#utility.yul\":15038:15043   */\n      0x00\n        /* \"#utility.yul\":15087:15090   */\n      dup3\n        /* \"#utility.yul\":15080:15084   */\n      0x1f\n        /* \"#utility.yul\":15072:15078   */\n      dup4\n        /* \"#utility.yul\":15068:15085   */\n      add\n        /* \"#utility.yul\":15064:15091   */\n      slt\n        /* \"#utility.yul\":15054:15176   */\n      tag_454\n      jumpi\n        /* \"#utility.yul\":15095:15174   */\n      tag_455\n      tag_256\n      jump\t// in\n    tag_455:\n        /* \"#utility.yul\":15054:15176   */\n    tag_454:\n        /* \"#utility.yul\":15212:15218   */\n      dup2\n        /* \"#utility.yul\":15199:15219   */\n      calldataload\n        /* \"#utility.yul\":15237:15331   */\n      tag_456\n        /* \"#utility.yul\":15327:15330   */\n      dup5\n        /* \"#utility.yul\":15319:15325   */\n      dup3\n        /* \"#utility.yul\":15312:15316   */\n      0x20\n        /* \"#utility.yul\":15304:15310   */\n      dup7\n        /* \"#utility.yul\":15300:15317   */\n      add\n        /* \"#utility.yul\":15237:15331   */\n      tag_262\n      jump\t// in\n    tag_456:\n        /* \"#utility.yul\":15228:15331   */\n      swap2\n      pop\n        /* \"#utility.yul\":15044:15337   */\n      pop\n        /* \"#utility.yul\":14967:15337   */\n      swap3\n      swap2\n      pop\n      pop\n      jump\t// out\n        /* \"#utility.yul\":15343:15460   */\n    tag_264:\n        /* \"#utility.yul\":15452:15453   */\n      0x00\n        /* \"#utility.yul\":15449:15450   */\n      dup1\n        /* \"#utility.yul\":15442:15454   */\n      revert\n        /* \"#utility.yul\":15466:15773   */\n    tag_265:\n        /* \"#utility.yul\":15527:15531   */\n      0x00\n        /* \"#utility.yul\":15617:15635   */\n      0xffffffffffffffff\n        /* \"#utility.yul\":15609:15615   */\n      dup3\n        /* \"#utility.yul\":15606:15636   */\n      gt\n        /* \"#utility.yul\":15603:15659   */\n      iszero\n      tag_459\n      jumpi\n        /* \"#utility.yul\":15639:15657   */\n      tag_460\n      tag_144\n      jump\t// in\n    tag_460:\n        /* \"#utility.yul\":15603:15659   */\n    tag_459:\n        /* \"#utility.yul\":15677:15706   */\n      tag_461\n        /* \"#utility.yul\":15699:15705   */\n      dup3\n        /* \"#utility.yul\":15677:15706   */\n      tag_257\n      jump\t// in\n    tag_461:\n        /* \"#utility.yul\":15669:15706   */\n      swap1\n      pop\n        /* \"#utility.yul\":15761:15765   */\n      0x20\n        /* \"#utility.yul\":15755:15759   */\n      dup2\n        /* \"#utility.yul\":15751:15766   */\n      add\n        /* \"#utility.yul\":15743:15766   */\n      swap1\n      pop\n        /* \"#utility.yul\":15466:15773   */\n      swap2\n      swap1\n      pop\n      jump\t// out\n        /* \"#utility.yul\":15779:15925   */\n    tag_266:\n        /* \"#utility.yul\":15876:15882   */\n      dup3\n        /* \"#utility.yul\":15871:15874   */\n      dup2\n        /* \"#utility.yul\":15866:15869   */\n      dup4\n        /* \"#utility.yul\":15853:15883   */\n      calldatacopy\n        /* \"#utility.yul\":15917:15918   */\n      0x00\n        /* \"#utility.yul\":15908:15914   */\n      dup4\n        /* \"#utility.yul\":15903:15906   */\n      dup4\n        /* \"#utility.yul\":15899:15915   */\n      add\n        /* \"#utility.yul\":15892:15919   */\n      mstore\n        /* \"#utility.yul\":15779:15925   */\n      pop\n      pop\n      pop\n      jump\t// out\n        /* \"#utility.yul\":15931:16354   */\n    tag_267:\n        /* \"#utility.yul\":16008:16013   */\n      0x00\n        /* \"#utility.yul\":16033:16098   */\n      tag_464\n        /* \"#utility.yul\":16049:16097   */\n      tag_465\n        /* \"#utility.yul\":16090:16096   */\n      dup5\n        /* \"#utility.yul\":16049:16097   */\n      tag_265\n      jump\t// in\n    tag_465:\n        /* \"#utility.yul\":16033:16098   */\n      tag_259\n      jump\t// in\n    tag_464:\n        /* \"#utility.yul\":16024:16098   */\n      swap1\n      pop\n        /* \"#utility.yul\":16121:16127   */\n      dup3\n        /* \"#utility.yul\":16114:16119   */\n      dup2\n        /* \"#utility.yul\":16107:16128   */\n      mstore\n        /* \"#utility.yul\":16159:16163   */\n      0x20\n        /* \"#utility.yul\":16152:16157   */\n      dup2\n        /* \"#utility.yul\":16148:16164   */\n      add\n        /* \"#utility.yul\":16197:16200   */\n      dup5\n        /* \"#utility.yul\":16188:16194   */\n      dup5\n        /* \"#utility.yul\":16183:16186   */\n      dup5\n        /* \"#utility.yul\":16179:16195   */\n      add\n        /* \"#utility.yul\":16176:16201   */\n      gt\n        /* \"#utility.yul\":16173:16285   */\n      iszero\n      tag_466\n      jumpi\n        /* \"#utility.yul\":16204:16283   */\n      tag_467\n      tag_264\n      jump\t// in\n    tag_467:\n        /* \"#utility.yul\":16173:16285   */\n    tag_466:\n        /* \"#utility.yul\":16294:16348   */\n      tag_468\n        /* \"#utility.yul\":16341:16347   */\n      dup5\n        /* \"#utility.yul\":16336:16339   */\n      dup3\n        /* \"#utility.yul\":16331:16334   */\n      dup6\n        /* \"#utility.yul\":16294:16348   */\n      tag_266\n      jump\t// in\n    tag_468:\n        /* \"#utility.yul\":16014:16354   */\n      pop\n        /* \"#utility.yul\":15931:16354   */\n      swap4\n      swap3\n      pop\n      pop\n      pop\n      jump\t// out\n        /* \"#utility.yul\":16373:16711   */\n    tag_268:\n        /* \"#utility.yul\":16428:16433   */\n      0x00\n        /* \"#utility.yul\":16477:16480   */\n      dup3\n        /* \"#utility.yul\":16470:16474   */\n      0x1f\n        /* \"#utility.yul\":16462:16468   */\n      dup4\n        /* \"#utility.yul\":16458:16475   */\n      add\n        /* \"#utility.yul\":16454:16481   */\n      slt\n        /* \"#utility.yul\":16444:16566   */\n      tag_470\n      jumpi\n        /* \"#utility.yul\":16485:16564   */\n      tag_471\n      tag_256\n      jump\t// in\n    tag_471:\n        /* \"#utility.yul\":16444:16566   */\n    tag_470:\n        /* \"#utility.yul\":16602:16608   */\n      dup2\n        /* \"#utility.yul\":16589:16609   */\n      calldataload\n        /* \"#utility.yul\":16627:16705   */\n      tag_472\n        /* \"#utility.yul\":16701:16704   */\n      dup5\n        /* \"#utility.yul\":16693:16699   */\n      dup3\n        /* \"#utility.yul\":16686:16690   */\n      0x20\n        /* \"#utility.yul\":16678:16684   */\n      dup7\n        /* \"#utility.yul\":16674:16691   */\n      add\n        /* \"#utility.yul\":16627:16705   */\n      tag_267\n      jump\t// in\n    tag_472:\n        /* \"#utility.yul\":16618:16705   */\n      swap2\n      pop\n        /* \"#utility.yul\":16434:16711   */\n      pop\n        /* \"#utility.yul\":16373:16711   */\n      swap3\n      swap2\n      pop\n      pop\n      jump\t// out\n        /* \"#utility.yul\":16717:18226   */\n    tag_74:\n        /* \"#utility.yul\":16871:16877   */\n      0x00\n        /* \"#utility.yul\":16879:16885   */\n      dup1\n        /* \"#utility.yul\":16887:16893   */\n      0x00\n        /* \"#utility.yul\":16895:16901   */\n      dup1\n        /* \"#utility.yul\":16903:16909   */\n      0x00\n        /* \"#utility.yul\":16952:16955   */\n      0xa0\n        /* \"#utility.yul\":16940:16949   */\n      dup7\n        /* \"#utility.yul\":16931:16938   */\n      dup9\n        /* \"#utility.yul\":16927:16950   */\n      sub\n        /* \"#utility.yul\":16923:16956   */\n      slt\n        /* \"#utility.yul\":16920:17040   */\n      iszero\n      tag_474\n      jumpi\n        /* \"#utility.yul\":16959:17038   */\n      tag_475\n      tag_222\n      jump\t// in\n    tag_475:\n        /* \"#utility.yul\":16920:17040   */\n    tag_474:\n        /* \"#utility.yul\":17079:17080   */\n      0x00\n        /* \"#utility.yul\":17104:17157   */\n      tag_476\n        /* \"#utility.yul\":17149:17156   */\n      dup9\n        /* \"#utility.yul\":17140:17146   */\n      dup3\n        /* \"#utility.yul\":17129:17138   */\n      dup10\n        /* \"#utility.yul\":17125:17147   */\n      add\n        /* \"#utility.yul\":17104:17157   */\n      tag_235\n      jump\t// in\n    tag_476:\n        /* \"#utility.yul\":17094:17157   */\n      swap6\n      pop\n        /* \"#utility.yul\":17050:17167   */\n      pop\n        /* \"#utility.yul\":17206:17208   */\n      0x20\n        /* \"#utility.yul\":17232:17285   */\n      tag_477\n        /* \"#utility.yul\":17277:17284   */\n      dup9\n        /* \"#utility.yul\":17268:17274   */\n      dup3\n        /* \"#utility.yul\":17257:17266   */\n      dup10\n        /* \"#utility.yul\":17253:17275   */\n      add\n        /* \"#utility.yul\":17232:17285   */\n      tag_235\n      jump\t// in\n    tag_477:\n        /* \"#utility.yul\":17222:17285   */\n      swap5\n      pop\n        /* \"#utility.yul\":17177:17295   */\n      pop\n        /* \"#utility.yul\":17362:17364   */\n      0x40\n        /* \"#utility.yul\":17351:17360   */\n      dup7\n        /* \"#utility.yul\":17347:17365   */\n      add\n        /* \"#utility.yul\":17334:17366   */\n      calldataload\n        /* \"#utility.yul\":17393:17411   */\n      0xffffffffffffffff\n        /* \"#utility.yul\":17385:17391   */\n      dup2\n        /* \"#utility.yul\":17382:17412   */\n      gt\n        /* \"#utility.yul\":17379:17496   */\n      iszero\n      tag_478\n      jumpi\n        /* \"#utility.yul\":17415:17494   */\n      tag_479\n      tag_223\n      jump\t// in\n    tag_479:\n        /* \"#utility.yul\":17379:17496   */\n    tag_478:\n        /* \"#utility.yul\":17520:17598   */\n      tag_480\n        /* \"#utility.yul\":17590:17597   */\n      dup9\n        /* \"#utility.yul\":17581:17587   */\n      dup3\n        /* \"#utility.yul\":17570:17579   */\n      dup10\n        /* \"#utility.yul\":17566:17588   */\n      add\n        /* \"#utility.yul\":17520:17598   */\n      tag_263\n      jump\t// in\n    tag_480:\n        /* \"#utility.yul\":17510:17598   */\n      swap4\n      pop\n        /* \"#utility.yul\":17305:17608   */\n      pop\n        /* \"#utility.yul\":17675:17677   */\n      0x60\n        /* \"#utility.yul\":17664:17673   */\n      dup7\n        /* \"#utility.yul\":17660:17678   */\n      add\n        /* \"#utility.yul\":17647:17679   */\n      calldataload\n        /* \"#utility.yul\":17706:17724   */\n      0xffffffffffffffff\n        /* \"#utility.yul\":17698:17704   */\n      dup2\n        /* \"#utility.yul\":17695:17725   */\n      gt\n        /* \"#utility.yul\":17692:17809   */\n      iszero\n      tag_481\n      jumpi\n        /* \"#utility.yul\":17728:17807   */\n      tag_482\n      tag_223\n      jump\t// in\n    tag_482:\n        /* \"#utility.yul\":17692:17809   */\n    tag_481:\n        /* \"#utility.yul\":17833:17911   */\n      tag_483\n        /* \"#utility.yul\":17903:17910   */\n      dup9\n        /* \"#utility.yul\":17894:17900   */\n      dup3\n        /* \"#utility.yul\":17883:17892   */\n      dup10\n        /* \"#utility.yul\":17879:17901   */\n      add\n        /* \"#utility.yul\":17833:17911   */\n      tag_263\n      jump\t// in\n    tag_483:\n        /* \"#utility.yul\":17823:17911   */\n      swap3\n      pop\n        /* \"#utility.yul\":17618:17921   */\n      pop\n        /* \"#utility.yul\":17988:17991   */\n      0x80\n        /* \"#utility.yul\":17977:17986   */\n      dup7\n        /* \"#utility.yul\":17973:17992   */\n      add\n        /* \"#utility.yul\":17960:17993   */\n      calldataload\n        /* \"#utility.yul\":18020:18038   */\n      0xffffffffffffffff\n        /* \"#utility.yul\":18012:18018   */\n      dup2\n        /* \"#utility.yul\":18009:18039   */\n      gt\n        /* \"#utility.yul\":18006:18123   */\n      iszero\n      tag_484\n      jumpi\n        /* \"#utility.yul\":18042:18121   */\n      tag_485\n      tag_223\n      jump\t// in\n    tag_485:\n        /* \"#utility.yul\":18006:18123   */\n    tag_484:\n        /* \"#utility.yul\":18147:18209   */\n      tag_486\n        /* \"#utility.yul\":18201:18208   */\n      dup9\n        /* \"#utility.yul\":18192:18198   */\n      dup3\n        /* \"#utility.yul\":18181:18190   */\n      dup10\n        /* \"#utility.yul\":18177:18199   */\n      add\n        /* \"#utility.yul\":18147:18209   */\n      tag_268\n      jump\t// in\n    tag_486:\n        /* \"#utility.yul\":18137:18209   */\n      swap2\n      pop\n        /* \"#utility.yul\":17931:18219   */\n      pop\n        /* \"#utility.yul\":16717:18226   */\n      swap3\n      swap6\n      pop\n      swap3\n      swap6\n      swap1\n      swap4\n      pop\n      jump\t// out\n        /* \"#utility.yul\":18232:18347   */\n    tag_269:\n        /* \"#utility.yul\":18317:18340   */\n      tag_488\n        /* \"#utility.yul\":18334:18339   */\n      dup2\n        /* \"#utility.yul\":18317:18340   */\n      tag_224\n      jump\t// in\n    tag_488:\n        /* \"#utility.yul\":18312:18315   */\n      dup3\n        /* \"#utility.yul\":18305:18341   */\n      mstore\n        /* \"#utility.yul\":18232:18347   */\n      pop\n      pop\n      jump\t// out\n        /* \"#utility.yul\":18353:18571   */\n    tag_77:\n        /* \"#utility.yul\":18444:18448   */\n      0x00\n        /* \"#utility.yul\":18482:18484   */\n      0x20\n        /* \"#utility.yul\":18471:18480   */\n      dup3\n        /* \"#utility.yul\":18467:18485   */\n      add\n        /* \"#utility.yul\":18459:18485   */\n      swap1\n      pop\n        /* \"#utility.yul\":18495:18564   */\n      tag_490\n        /* \"#utility.yul\":18561:18562   */\n      0x00\n        /* \"#utility.yul\":18550:18559   */\n      dup4\n        /* \"#utility.yul\":18546:18563   */\n      add\n        /* \"#utility.yul\":18537:18543   */\n      dup5\n        /* \"#utility.yul\":18495:18564   */\n      tag_269\n      jump\t// in\n    tag_490:\n        /* \"#utility.yul\":18353:18571   */\n      swap3\n      swap2\n      pop\n      pop\n      jump\t// out\n        /* \"#utility.yul\":18577:19340   */\n    tag_80:\n        /* \"#utility.yul\":18662:18668   */\n      0x00\n        /* \"#utility.yul\":18670:18676   */\n      dup1\n        /* \"#utility.yul\":18678:18684   */\n      0x00\n        /* \"#utility.yul\":18686:18692   */\n      dup1\n        /* \"#utility.yul\":18735:18738   */\n      0x80\n        /* \"#utility.yul\":18723:18732   */\n      dup6\n        /* \"#utility.yul\":18714:18721   */\n      dup8\n        /* \"#utility.yul\":18710:18733   */\n      sub\n        /* \"#utility.yul\":18706:18739   */\n      slt\n        /* \"#utility.yul\":18703:18823   */\n      iszero\n      tag_492\n      jumpi\n        /* \"#utility.yul\":18742:18821   */\n      tag_493\n      tag_222\n      jump\t// in\n    tag_493:\n        /* \"#utility.yul\":18703:18823   */\n    tag_492:\n        /* \"#utility.yul\":18862:18863   */\n      0x00\n        /* \"#utility.yul\":18887:18939   */\n      tag_494\n        /* \"#utility.yul\":18931:18938   */\n      dup8\n        /* \"#utility.yul\":18922:18928   */\n      dup3\n        /* \"#utility.yul\":18911:18920   */\n      dup9\n        /* \"#utility.yul\":18907:18929   */\n      add\n        /* \"#utility.yul\":18887:18939   */\n      tag_231\n      jump\t// in\n    tag_494:\n        /* \"#utility.yul\":18877:18939   */\n      swap5\n      pop\n        /* \"#utility.yul\":18833:18949   */\n      pop\n        /* \"#utility.yul\":18988:18990   */\n      0x20\n        /* \"#utility.yul\":19014:19067   */\n      tag_495\n        /* \"#utility.yul\":19059:19066   */\n      dup8\n        /* \"#utility.yul\":19050:19056   */\n      dup3\n        /* \"#utility.yul\":19039:19048   */\n      dup9\n        /* \"#utility.yul\":19035:19057   */\n      add\n        /* \"#utility.yul\":19014:19067   */\n      tag_235\n      jump\t// in\n    tag_495:\n        /* \"#utility.yul\":19004:19067   */\n      swap4\n      pop\n        /* \"#utility.yul\":18959:19077   */\n      pop\n        /* \"#utility.yul\":19116:19118   */\n      0x40\n        /* \"#utility.yul\":19142:19195   */\n      tag_496\n        /* \"#utility.yul\":19187:19194   */\n      dup8\n        /* \"#utility.yul\":19178:19184   */\n      dup3\n        /* \"#utility.yul\":19167:19176   */\n      dup9\n        /* \"#utility.yul\":19163:19185   */\n      add\n        /* \"#utility.yul\":19142:19195   */\n      tag_235\n      jump\t// in\n    tag_496:\n        /* \"#utility.yul\":19132:19195   */\n      swap3\n      pop\n        /* \"#utility.yul\":19087:19205   */\n      pop\n        /* \"#utility.yul\":19244:19246   */\n      0x60\n        /* \"#utility.yul\":19270:19323   */\n      tag_497\n        /* \"#utility.yul\":19315:19322   */\n      dup8\n        /* \"#utility.yul\":19306:19312   */\n      dup3\n        /* \"#utility.yul\":19295:19304   */\n      dup9\n        /* \"#utility.yul\":19291:19313   */\n      add\n        /* \"#utility.yul\":19270:19323   */\n      tag_238\n      jump\t// in\n    tag_497:\n        /* \"#utility.yul\":19260:19323   */\n      swap2\n      pop\n        /* \"#utility.yul\":19215:19333   */\n      pop\n        /* \"#utility.yul\":18577:19340   */\n      swap3\n      swap6\n      swap2\n      swap5\n      pop\n      swap3\n      pop\n      jump\t// out\n        /* \"#utility.yul\":19346:20435   */\n    tag_84:\n        /* \"#utility.yul\":19450:19456   */\n      0x00\n        /* \"#utility.yul\":19458:19464   */\n      dup1\n        /* \"#utility.yul\":19466:19472   */\n      0x00\n        /* \"#utility.yul\":19474:19480   */\n      dup1\n        /* \"#utility.yul\":19482:19488   */\n      0x00\n        /* \"#utility.yul\":19531:19534   */\n      0xa0\n        /* \"#utility.yul\":19519:19528   */\n      dup7\n        /* \"#utility.yul\":19510:19517   */\n      dup9\n        /* \"#utility.yul\":19506:19529   */\n      sub\n        /* \"#utility.yul\":19502:19535   */\n      slt\n        /* \"#utility.yul\":19499:19619   */\n      iszero\n      tag_499\n      jumpi\n        /* \"#utility.yul\":19538:19617   */\n      tag_500\n      tag_222\n      jump\t// in\n    tag_500:\n        /* \"#utility.yul\":19499:19619   */\n    tag_499:\n        /* \"#utility.yul\":19658:19659   */\n      0x00\n        /* \"#utility.yul\":19683:19736   */\n      tag_501\n        /* \"#utility.yul\":19728:19735   */\n      dup9\n        /* \"#utility.yul\":19719:19725   */\n      dup3\n        /* \"#utility.yul\":19708:19717   */\n      dup10\n        /* \"#utility.yul\":19704:19726   */\n      add\n        /* \"#utility.yul\":19683:19736   */\n      tag_235\n      jump\t// in\n    tag_501:\n        /* \"#utility.yul\":19673:19736   */\n      swap6\n      pop\n        /* \"#utility.yul\":19629:19746   */\n      pop\n        /* \"#utility.yul\":19785:19787   */\n      0x20\n        /* \"#utility.yul\":19811:19864   */\n      tag_502\n        /* \"#utility.yul\":19856:19863   */\n      dup9\n        /* \"#utility.yul\":19847:19853   */\n      dup3\n        /* \"#utility.yul\":19836:19845   */\n      dup10\n        /* \"#utility.yul\":19832:19854   */\n      add\n        /* \"#utility.yul\":19811:19864   */\n      tag_235\n      jump\t// in\n    tag_502:\n        /* \"#utility.yul\":19801:19864   */\n      swap5\n      pop\n        /* \"#utility.yul\":19756:19874   */\n      pop\n        /* \"#utility.yul\":19913:19915   */\n      0x40\n        /* \"#utility.yul\":19939:19992   */\n      tag_503\n        /* \"#utility.yul\":19984:19991   */\n      dup9\n        /* \"#utility.yul\":19975:19981   */\n      dup3\n        /* \"#utility.yul\":19964:19973   */\n      dup10\n        /* \"#utility.yul\":19960:19982   */\n      add\n        /* \"#utility.yul\":19939:19992   */\n      tag_238\n      jump\t// in\n    tag_503:\n        /* \"#utility.yul\":19929:19992   */\n      swap4\n      pop\n        /* \"#utility.yul\":19884:20002   */\n      pop\n        /* \"#utility.yul\":20041:20043   */\n      0x60\n        /* \"#utility.yul\":20067:20120   */\n      tag_504\n        /* \"#utility.yul\":20112:20119   */\n      dup9\n        /* \"#utility.yul\":20103:20109   */\n      dup3\n        /* \"#utility.yul\":20092:20101   */\n      dup10\n        /* \"#utility.yul\":20088:20110   */\n      add\n        /* \"#utility.yul\":20067:20120   */\n      tag_238\n      jump\t// in\n    tag_504:\n        /* \"#utility.yul\":20057:20120   */\n      swap3\n      pop\n        /* \"#utility.yul\":20012:20130   */\n      pop\n        /* \"#utility.yul\":20197:20200   */\n      0x80\n        /* \"#utility.yul\":20186:20195   */\n      dup7\n        /* \"#utility.yul\":20182:20201   */\n      add\n        /* \"#utility.yul\":20169:20202   */\n      calldataload\n        /* \"#utility.yul\":20229:20247   */\n      0xffffffffffffffff\n        /* \"#utility.yul\":20221:20227   */\n      dup2\n        /* \"#utility.yul\":20218:20248   */\n      gt\n        /* \"#utility.yul\":20215:20332   */\n      iszero\n      tag_505\n      jumpi\n        /* \"#utility.yul\":20251:20330   */\n      tag_506\n      tag_223\n      jump\t// in\n    tag_506:\n        /* \"#utility.yul\":20215:20332   */\n    tag_505:\n        /* \"#utility.yul\":20356:20418   */\n      tag_507\n        /* \"#utility.yul\":20410:20417   */\n      dup9\n        /* \"#utility.yul\":20401:20407   */\n      dup3\n        /* \"#utility.yul\":20390:20399   */\n      dup10\n        /* \"#utility.yul\":20386:20408   */\n      add\n        /* \"#utility.yul\":20356:20418   */\n      tag_268\n      jump\t// in\n    tag_507:\n        /* \"#utility.yul\":20346:20418   */\n      swap2\n      pop\n        /* \"#utility.yul\":20140:20428   */\n      pop\n        /* \"#utility.yul\":19346:20435   */\n      swap3\n      swap6\n      pop\n      swap3\n      swap6\n      swap1\n      swap4\n      pop\n      jump\t// out\n        /* \"#utility.yul\":20441:20621   */\n    tag_102:\n        /* \"#utility.yul\":20489:20566   */\n      0x4e487b7100000000000000000000000000000000000000000000000000000000\n        /* \"#utility.yul\":20486:20487   */\n      0x00\n        /* \"#utility.yul\":20479:20567   */\n      mstore\n        /* \"#utility.yul\":20586:20590   */\n      0x32\n        /* \"#utility.yul\":20583:20584   */\n      0x04\n        /* \"#utility.yul\":20576:20591   */\n      mstore\n        /* \"#utility.yul\":20610:20614   */\n      0x24\n        /* \"#utility.yul\":20607:20608   */\n      0x00\n        /* \"#utility.yul\":20600:20615   */\n      revert\n        /* \"#utility.yul\":20627:20807   */\n    tag_270:\n        /* \"#utility.yul\":20675:20752   */\n      0x4e487b7100000000000000000000000000000000000000000000000000000000\n        /* \"#utility.yul\":20672:20673   */\n      0x00\n        /* \"#utility.yul\":20665:20753   */\n      mstore\n        /* \"#utility.yul\":20772:20776   */\n      0x11\n        /* \"#utility.yul\":20769:20770   */\n      0x04\n        /* \"#utility.yul\":20762:20777   */\n      mstore\n        /* \"#utility.yul\":20796:20800   */\n      0x24\n        /* \"#utility.yul\":20793:20794   */\n      0x00\n        /* \"#utility.yul\":20786:20801   */\n      revert\n        /* \"#utility.yul\":20813:21004   */\n    tag_109:\n        /* \"#utility.yul\":20853:20856   */\n      0x00\n        /* \"#utility.yul\":20872:20892   */\n      tag_511\n        /* \"#utility.yul\":20890:20891   */\n      dup3\n        /* \"#utility.yul\":20872:20892   */\n      tag_236\n      jump\t// in\n    tag_511:\n        /* \"#utility.yul\":20867:20892   */\n      swap2\n      pop\n        /* \"#utility.yul\":20906:20926   */\n      tag_512\n        /* \"#utility.yul\":20924:20925   */\n      dup4\n        /* \"#utility.yul\":20906:20926   */\n      tag_236\n      jump\t// in\n    tag_512:\n        /* \"#utility.yul\":20901:20926   */\n      swap3\n      pop\n        /* \"#utility.yul\":20949:20950   */\n      dup3\n        /* \"#utility.yul\":20946:20947   */\n      dup3\n        /* \"#utility.yul\":20942:20951   */\n      add\n        /* \"#utility.yul\":20935:20951   */\n      swap1\n      pop\n        /* \"#utility.yul\":20970:20973   */\n      dup1\n        /* \"#utility.yul\":20967:20968   */\n      dup3\n        /* \"#utility.yul\":20964:20974   */\n      gt\n        /* \"#utility.yul\":20961:20997   */\n      iszero\n      tag_513\n      jumpi\n        /* \"#utility.yul\":20977:20995   */\n      tag_514\n      tag_270\n      jump\t// in\n    tag_514:\n        /* \"#utility.yul\":20961:20997   */\n    tag_513:\n        /* \"#utility.yul\":20813:21004   */\n      swap3\n      swap2\n      pop\n      pop\n      jump\t// out\n        /* \"#utility.yul\":21010:21201   */\n    tag_111:\n        /* \"#utility.yul\":21048:21051   */\n      0x00\n        /* \"#utility.yul\":21071:21094   */\n      tag_516\n        /* \"#utility.yul\":21088:21093   */\n      dup3\n        /* \"#utility.yul\":21071:21094   */\n      tag_229\n      jump\t// in\n    tag_516:\n        /* \"#utility.yul\":21062:21094   */\n      swap2\n      pop\n        /* \"#utility.yul\":21116:21142   */\n      0xffffffffffffffffffffffff\n        /* \"#utility.yul\":21109:21114   */\n      dup3\n        /* \"#utility.yul\":21106:21143   */\n      sub\n        /* \"#utility.yul\":21103:21166   */\n      tag_517\n      jumpi\n        /* \"#utility.yul\":21146:21164   */\n      tag_518\n      tag_270\n      jump\t// in\n    tag_518:\n        /* \"#utility.yul\":21103:21166   */\n    tag_517:\n        /* \"#utility.yul\":21193:21194   */\n      0x01\n        /* \"#utility.yul\":21186:21191   */\n      dup3\n        /* \"#utility.yul\":21182:21195   */\n      add\n        /* \"#utility.yul\":21175:21195   */\n      swap1\n      pop\n        /* \"#utility.yul\":21010:21201   */\n      swap2\n      swap1\n      pop\n      jump\t// out\n        /* \"#utility.yul\":21207:21617   */\n    tag_115:\n        /* \"#utility.yul\":21247:21254   */\n      0x00\n        /* \"#utility.yul\":21270:21290   */\n      tag_520\n        /* \"#utility.yul\":21288:21289   */\n      dup3\n        /* \"#utility.yul\":21270:21290   */\n      tag_236\n      jump\t// in\n    tag_520:\n        /* \"#utility.yul\":21265:21290   */\n      swap2\n      pop\n        /* \"#utility.yul\":21304:21324   */\n      tag_521\n        /* \"#utility.yul\":21322:21323   */\n      dup4\n        /* \"#utility.yul\":21304:21324   */\n      tag_236\n      jump\t// in\n    tag_521:\n        /* \"#utility.yul\":21299:21324   */\n      swap3\n      pop\n        /* \"#utility.yul\":21359:21360   */\n      dup3\n        /* \"#utility.yul\":21356:21357   */\n      dup3\n        /* \"#utility.yul\":21352:21361   */\n      mul\n        /* \"#utility.yul\":21381:21411   */\n      tag_522\n        /* \"#utility.yul\":21399:21410   */\n      dup2\n        /* \"#utility.yul\":21381:21411   */\n      tag_236\n      jump\t// in\n    tag_522:\n        /* \"#utility.yul\":21370:21411   */\n      swap2\n      pop\n        /* \"#utility.yul\":21560:21561   */\n      dup3\n        /* \"#utility.yul\":21551:21558   */\n      dup3\n        /* \"#utility.yul\":21547:21562   */\n      div\n        /* \"#utility.yul\":21544:21545   */\n      dup5\n        /* \"#utility.yul\":21541:21563   */\n      eq\n        /* \"#utility.yul\":21521:21522   */\n      dup4\n        /* \"#utility.yul\":21514:21523   */\n      iszero\n        /* \"#utility.yul\":21494:21577   */\n      or\n        /* \"#utility.yul\":21471:21610   */\n      tag_523\n      jumpi\n        /* \"#utility.yul\":21590:21608   */\n      tag_524\n      tag_270\n      jump\t// in\n    tag_524:\n        /* \"#utility.yul\":21471:21610   */\n    tag_523:\n        /* \"#utility.yul\":21255:21617   */\n      pop\n        /* \"#utility.yul\":21207:21617   */\n      swap3\n      swap2\n      pop\n      pop\n      jump\t// out\n        /* \"#utility.yul\":21623:21803   */\n    tag_271:\n        /* \"#utility.yul\":21671:21748   */\n      0x4e487b7100000000000000000000000000000000000000000000000000000000\n        /* \"#utility.yul\":21668:21669   */\n      0x00\n        /* \"#utility.yul\":21661:21749   */\n      mstore\n        /* \"#utility.yul\":21768:21772   */\n      0x12\n        /* \"#utility.yul\":21765:21766   */\n      0x04\n        /* \"#utility.yul\":21758:21773   */\n      mstore\n        /* \"#utility.yul\":21792:21796   */\n      0x24\n        /* \"#utility.yul\":21789:21790   */\n      0x00\n        /* \"#utility.yul\":21782:21797   */\n      revert\n        /* \"#utility.yul\":21809:21994   */\n    tag_117:\n        /* \"#utility.yul\":21849:21850   */\n      0x00\n        /* \"#utility.yul\":21866:21886   */\n      tag_527\n        /* \"#utility.yul\":21884:21885   */\n      dup3\n        /* \"#utility.yul\":21866:21886   */\n      tag_236\n      jump\t// in\n    tag_527:\n        /* \"#utility.yul\":21861:21886   */\n      swap2\n      pop\n        /* \"#utility.yul\":21900:21920   */\n      tag_528\n        /* \"#utility.yul\":21918:21919   */\n      dup4\n        /* \"#utility.yul\":21900:21920   */\n      tag_236\n      jump\t// in\n    tag_528:\n        /* \"#utility.yul\":21895:21920   */\n      swap3\n      pop\n        /* \"#utility.yul\":21939:21940   */\n      dup3\n        /* \"#utility.yul\":21929:21964   */\n      tag_529\n      jumpi\n        /* \"#utility.yul\":21944:21962   */\n      tag_530\n      tag_271\n      jump\t// in\n    tag_530:\n        /* \"#utility.yul\":21929:21964   */\n    tag_529:\n        /* \"#utility.yul\":21986:21987   */\n      dup3\n        /* \"#utility.yul\":21983:21984   */\n      dup3\n        /* \"#utility.yul\":21979:21988   */\n      div\n        /* \"#utility.yul\":21974:21988   */\n      swap1\n      pop\n        /* \"#utility.yul\":21809:21994   */\n      swap3\n      swap2\n      pop\n      pop\n      jump\t// out\n        /* \"#utility.yul\":22000:22060   */\n    tag_272:\n        /* \"#utility.yul\":22028:22031   */\n      0x00\n        /* \"#utility.yul\":22049:22054   */\n      dup2\n        /* \"#utility.yul\":22042:22054   */\n      swap1\n      pop\n        /* \"#utility.yul\":22000:22060   */\n      swap2\n      swap1\n      pop\n      jump\t// out\n        /* \"#utility.yul\":22066:22206   */\n    tag_273:\n        /* \"#utility.yul\":22115:22124   */\n      0x00\n        /* \"#utility.yul\":22148:22200   */\n      tag_533\n        /* \"#utility.yul\":22166:22199   */\n      tag_534\n        /* \"#utility.yul\":22175:22198   */\n      tag_535\n        /* \"#utility.yul\":22192:22197   */\n      dup5\n        /* \"#utility.yul\":22175:22198   */\n      tag_229\n      jump\t// in\n    tag_535:\n        /* \"#utility.yul\":22166:22199   */\n      tag_272\n      jump\t// in\n    tag_534:\n        /* \"#utility.yul\":22148:22200   */\n      tag_236\n      jump\t// in\n    tag_533:\n        /* \"#utility.yul\":22135:22200   */\n      swap1\n      pop\n        /* \"#utility.yul\":22066:22206   */\n      swap2\n      swap1\n      pop\n      jump\t// out\n        /* \"#utility.yul\":22212:22341   */\n    tag_274:\n        /* \"#utility.yul\":22298:22334   */\n      tag_537\n        /* \"#utility.yul\":22328:22333   */\n      dup2\n        /* \"#utility.yul\":22298:22334   */\n      tag_273\n      jump\t// in\n    tag_537:\n        /* \"#utility.yul\":22293:22296   */\n      dup3\n        /* \"#utility.yul\":22286:22335   */\n      mstore\n        /* \"#utility.yul\":22212:22341   */\n      pop\n      pop\n      jump\t// out\n        /* \"#utility.yul\":22347:22515   */\n    tag_275:\n        /* \"#utility.yul\":22430:22441   */\n      0x00\n        /* \"#utility.yul\":22464:22470   */\n      dup3\n        /* \"#utility.yul\":22459:22462   */\n      dup3\n        /* \"#utility.yul\":22452:22471   */\n      mstore\n        /* \"#utility.yul\":22504:22508   */\n      0x20\n        /* \"#utility.yul\":22499:22502   */\n      dup3\n        /* \"#utility.yul\":22495:22509   */\n      add\n        /* \"#utility.yul\":22480:22509   */\n      swap1\n      pop\n        /* \"#utility.yul\":22347:22515   */\n      swap3\n      swap2\n      pop\n      pop\n      jump\t// out\n        /* \"#utility.yul\":22521:22674   */\n    tag_276:\n        /* \"#utility.yul\":22661:22666   */\n      0x3078300000000000000000000000000000000000000000000000000000000000\n        /* \"#utility.yul\":22657:22658   */\n      0x00\n        /* \"#utility.yul\":22649:22655   */\n      dup3\n        /* \"#utility.yul\":22645:22659   */\n      add\n        /* \"#utility.yul\":22638:22667   */\n      mstore\n        /* \"#utility.yul\":22521:22674   */\n      pop\n      jump\t// out\n        /* \"#utility.yul\":22680:23043   */\n    tag_277:\n        /* \"#utility.yul\":22821:22824   */\n      0x00\n        /* \"#utility.yul\":22842:22907   */\n      tag_541\n        /* \"#utility.yul\":22905:22906   */\n      0x03\n        /* \"#utility.yul\":22900:22903   */\n      dup4\n        /* \"#utility.yul\":22842:22907   */\n      tag_275\n      jump\t// in\n    tag_541:\n        /* \"#utility.yul\":22835:22907   */\n      swap2\n      pop\n        /* \"#utility.yul\":22916:23009   */\n      tag_542\n        /* \"#utility.yul\":23005:23008   */\n      dup3\n        /* \"#utility.yul\":22916:23009   */\n      tag_276\n      jump\t// in\n    tag_542:\n        /* \"#utility.yul\":23034:23036   */\n      0x20\n        /* \"#utility.yul\":23029:23032   */\n      dup3\n        /* \"#utility.yul\":23025:23037   */\n      add\n        /* \"#utility.yul\":23018:23037   */\n      swap1\n      pop\n        /* \"#utility.yul\":22680:23043   */\n      swap2\n      swap1\n      pop\n      jump\t// out\n        /* \"#utility.yul\":23049:23906   */\n    tag_119:\n        /* \"#utility.yul\":23325:23329   */\n      0x00\n        /* \"#utility.yul\":23363:23366   */\n      0xa0\n        /* \"#utility.yul\":23352:23361   */\n      dup3\n        /* \"#utility.yul\":23348:23367   */\n      add\n        /* \"#utility.yul\":23340:23367   */\n      swap1\n      pop\n        /* \"#utility.yul\":23377:23448   */\n      tag_544\n        /* \"#utility.yul\":23445:23446   */\n      0x00\n        /* \"#utility.yul\":23434:23443   */\n      dup4\n        /* \"#utility.yul\":23430:23447   */\n      add\n        /* \"#utility.yul\":23421:23427   */\n      dup8\n        /* \"#utility.yul\":23377:23448   */\n      tag_253\n      jump\t// in\n    tag_544:\n        /* \"#utility.yul\":23458:23530   */\n      tag_545\n        /* \"#utility.yul\":23526:23528   */\n      0x20\n        /* \"#utility.yul\":23515:23524   */\n      dup4\n        /* \"#utility.yul\":23511:23529   */\n      add\n        /* \"#utility.yul\":23502:23508   */\n      dup7\n        /* \"#utility.yul\":23458:23530   */\n      tag_253\n      jump\t// in\n    tag_545:\n        /* \"#utility.yul\":23540:23611   */\n      tag_546\n        /* \"#utility.yul\":23607:23609   */\n      0x40\n        /* \"#utility.yul\":23596:23605   */\n      dup4\n        /* \"#utility.yul\":23592:23610   */\n      add\n        /* \"#utility.yul\":23583:23589   */\n      dup6\n        /* \"#utility.yul\":23540:23611   */\n      tag_274\n      jump\t// in\n    tag_546:\n        /* \"#utility.yul\":23621:23693   */\n      tag_547\n        /* \"#utility.yul\":23689:23691   */\n      0x60\n        /* \"#utility.yul\":23678:23687   */\n      dup4\n        /* \"#utility.yul\":23674:23692   */\n      add\n        /* \"#utility.yul\":23665:23671   */\n      dup5\n        /* \"#utility.yul\":23621:23693   */\n      tag_255\n      jump\t// in\n    tag_547:\n        /* \"#utility.yul\":23741:23750   */\n      dup2\n        /* \"#utility.yul\":23735:23739   */\n      dup2\n        /* \"#utility.yul\":23731:23751   */\n      sub\n        /* \"#utility.yul\":23725:23728   */\n      0x80\n        /* \"#utility.yul\":23714:23723   */\n      dup4\n        /* \"#utility.yul\":23710:23729   */\n      add\n        /* \"#utility.yul\":23703:23752   */\n      mstore\n        /* \"#utility.yul\":23769:23899   */\n      tag_548\n        /* \"#utility.yul\":23894:23898   */\n      dup2\n        /* \"#utility.yul\":23769:23899   */\n      tag_277\n      jump\t// in\n    tag_548:\n        /* \"#utility.yul\":23761:23899   */\n      swap1\n      pop\n        /* \"#utility.yul\":23049:23906   */\n      swap6\n      swap5\n      pop\n      pop\n      pop\n      pop\n      pop\n      jump\t// out\n        /* \"#utility.yul\":23912:24453   */\n    tag_126:\n        /* \"#utility.yul\":24083:24087   */\n      0x00\n        /* \"#utility.yul\":24121:24124   */\n      0x80\n        /* \"#utility.yul\":24110:24119   */\n      dup3\n        /* \"#utility.yul\":24106:24125   */\n      add\n        /* \"#utility.yul\":24098:24125   */\n      swap1\n      pop\n        /* \"#utility.yul\":24135:24206   */\n      tag_550\n        /* \"#utility.yul\":24203:24204   */\n      0x00\n        /* \"#utility.yul\":24192:24201   */\n      dup4\n        /* \"#utility.yul\":24188:24205   */\n      add\n        /* \"#utility.yul\":24179:24185   */\n      dup8\n        /* \"#utility.yul\":24135:24206   */\n      tag_253\n      jump\t// in\n    tag_550:\n        /* \"#utility.yul\":24216:24288   */\n      tag_551\n        /* \"#utility.yul\":24284:24286   */\n      0x20\n        /* \"#utility.yul\":24273:24282   */\n      dup4\n        /* \"#utility.yul\":24269:24287   */\n      add\n        /* \"#utility.yul\":24260:24266   */\n      dup7\n        /* \"#utility.yul\":24216:24288   */\n      tag_253\n      jump\t// in\n    tag_551:\n        /* \"#utility.yul\":24298:24364   */\n      tag_552\n        /* \"#utility.yul\":24360:24362   */\n      0x40\n        /* \"#utility.yul\":24349:24358   */\n      dup4\n        /* \"#utility.yul\":24345:24363   */\n      add\n        /* \"#utility.yul\":24336:24342   */\n      dup6\n        /* \"#utility.yul\":24298:24364   */\n      tag_228\n      jump\t// in\n    tag_552:\n        /* \"#utility.yul\":24374:24446   */\n      tag_553\n        /* \"#utility.yul\":24442:24444   */\n      0x60\n        /* \"#utility.yul\":24431:24440   */\n      dup4\n        /* \"#utility.yul\":24427:24445   */\n      add\n        /* \"#utility.yul\":24418:24424   */\n      dup5\n        /* \"#utility.yul\":24374:24446   */\n      tag_255\n      jump\t// in\n    tag_553:\n        /* \"#utility.yul\":23912:24453   */\n      swap6\n      swap5\n      pop\n      pop\n      pop\n      pop\n      pop\n      jump\t// out\n        /* \"#utility.yul\":24459:24672   */\n    tag_128:\n        /* \"#utility.yul\":24498:24501   */\n      0x00\n        /* \"#utility.yul\":24517:24536   */\n      tag_555\n        /* \"#utility.yul\":24534:24535   */\n      dup3\n        /* \"#utility.yul\":24517:24536   */\n      tag_229\n      jump\t// in\n    tag_555:\n        /* \"#utility.yul\":24512:24536   */\n      swap2\n      pop\n        /* \"#utility.yul\":24550:24569   */\n      tag_556\n        /* \"#utility.yul\":24567:24568   */\n      dup4\n        /* \"#utility.yul\":24550:24569   */\n      tag_229\n      jump\t// in\n    tag_556:\n        /* \"#utility.yul\":24545:24569   */\n      swap3\n      pop\n        /* \"#utility.yul\":24592:24593   */\n      dup3\n        /* \"#utility.yul\":24589:24590   */\n      dup3\n        /* \"#utility.yul\":24585:24594   */\n      add\n        /* \"#utility.yul\":24578:24594   */\n      swap1\n      pop\n        /* \"#utility.yul\":24615:24641   */\n      0xffffffffffffffffffffffff\n        /* \"#utility.yul\":24610:24613   */\n      dup2\n        /* \"#utility.yul\":24607:24642   */\n      gt\n        /* \"#utility.yul\":24604:24665   */\n      iszero\n      tag_557\n      jumpi\n        /* \"#utility.yul\":24645:24663   */\n      tag_558\n      tag_270\n      jump\t// in\n    tag_558:\n        /* \"#utility.yul\":24604:24665   */\n    tag_557:\n        /* \"#utility.yul\":24459:24672   */\n      swap3\n      swap2\n      pop\n      pop\n      jump\t// out\n        /* \"#utility.yul\":24678:24847   */\n    tag_278:\n        /* \"#utility.yul\":24762:24773   */\n      0x00\n        /* \"#utility.yul\":24796:24802   */\n      dup3\n        /* \"#utility.yul\":24791:24794   */\n      dup3\n        /* \"#utility.yul\":24784:24803   */\n      mstore\n        /* \"#utility.yul\":24836:24840   */\n      0x20\n        /* \"#utility.yul\":24831:24834   */\n      dup3\n        /* \"#utility.yul\":24827:24841   */\n      add\n        /* \"#utility.yul\":24812:24841   */\n      swap1\n      pop\n        /* \"#utility.yul\":24678:24847   */\n      swap3\n      swap2\n      pop\n      pop\n      jump\t// out\n        /* \"#utility.yul\":24853:25030   */\n    tag_279:\n        /* \"#utility.yul\":24993:25022   */\n      0x4d757374206265205f656e644964203c3d2066756e64436f756e740000000000\n        /* \"#utility.yul\":24989:24990   */\n      0x00\n        /* \"#utility.yul\":24981:24987   */\n      dup3\n        /* \"#utility.yul\":24977:24991   */\n      add\n        /* \"#utility.yul\":24970:25023   */\n      mstore\n        /* \"#utility.yul\":24853:25030   */\n      pop\n      jump\t// out\n        /* \"#utility.yul\":25036:25402   */\n    tag_280:\n        /* \"#utility.yul\":25178:25181   */\n      0x00\n        /* \"#utility.yul\":25199:25266   */\n      tag_562\n        /* \"#utility.yul\":25263:25265   */\n      0x1b\n        /* \"#utility.yul\":25258:25261   */\n      dup4\n        /* \"#utility.yul\":25199:25266   */\n      tag_278\n      jump\t// in\n    tag_562:\n        /* \"#utility.yul\":25192:25266   */\n      swap2\n      pop\n        /* \"#utility.yul\":25275:25368   */\n      tag_563\n        /* \"#utility.yul\":25364:25367   */\n      dup3\n        /* \"#utility.yul\":25275:25368   */\n      tag_279\n      jump\t// in\n    tag_563:\n        /* \"#utility.yul\":25393:25395   */\n      0x20\n        /* \"#utility.yul\":25388:25391   */\n      dup3\n        /* \"#utility.yul\":25384:25396   */\n      add\n        /* \"#utility.yul\":25377:25396   */\n      swap1\n      pop\n        /* \"#utility.yul\":25036:25402   */\n      swap2\n      swap1\n      pop\n      jump\t// out\n        /* \"#utility.yul\":25408:25827   */\n    tag_136:\n        /* \"#utility.yul\":25574:25578   */\n      0x00\n        /* \"#utility.yul\":25612:25614   */\n      0x20\n        /* \"#utility.yul\":25601:25610   */\n      dup3\n        /* \"#utility.yul\":25597:25615   */\n      add\n        /* \"#utility.yul\":25589:25615   */\n      swap1\n      pop\n        /* \"#utility.yul\":25661:25670   */\n      dup2\n        /* \"#utility.yul\":25655:25659   */\n      dup2\n        /* \"#utility.yul\":25651:25671   */\n      sub\n        /* \"#utility.yul\":25647:25648   */\n      0x00\n        /* \"#utility.yul\":25636:25645   */\n      dup4\n        /* \"#utility.yul\":25632:25649   */\n      add\n        /* \"#utility.yul\":25625:25672   */\n      mstore\n        /* \"#utility.yul\":25689:25820   */\n      tag_565\n        /* \"#utility.yul\":25815:25819   */\n      dup2\n        /* \"#utility.yul\":25689:25820   */\n      tag_280\n      jump\t// in\n    tag_565:\n        /* \"#utility.yul\":25681:25820   */\n      swap1\n      pop\n        /* \"#utility.yul\":25408:25827   */\n      swap2\n      swap1\n      pop\n      jump\t// out\n        /* \"#utility.yul\":25833:26009   */\n    tag_281:\n        /* \"#utility.yul\":25973:26001   */\n      0x4d757374206265205f73746172744964203c3d205f656e644964000000000000\n        /* \"#utility.yul\":25969:25970   */\n      0x00\n        /* \"#utility.yul\":25961:25967   */\n      dup3\n        /* \"#utility.yul\":25957:25971   */\n      add\n        /* \"#utility.yul\":25950:26002   */\n      mstore\n        /* \"#utility.yul\":25833:26009   */\n      pop\n      jump\t// out\n        /* \"#utility.yul\":26015:26381   */\n    tag_282:\n        /* \"#utility.yul\":26157:26160   */\n      0x00\n        /* \"#utility.yul\":26178:26245   */\n      tag_568\n        /* \"#utility.yul\":26242:26244   */\n      0x1a\n        /* \"#utility.yul\":26237:26240   */\n      dup4\n        /* \"#utility.yul\":26178:26245   */\n      tag_278\n      jump\t// in\n    tag_568:\n        /* \"#utility.yul\":26171:26245   */\n      swap2\n      pop\n        /* \"#utility.yul\":26254:26347   */\n      tag_569\n        /* \"#utility.yul\":26343:26346   */\n      dup3\n        /* \"#utility.yul\":26254:26347   */\n      tag_281\n      jump\t// in\n    tag_569:\n        /* \"#utility.yul\":26372:26374   */\n      0x20\n        /* \"#utility.yul\":26367:26370   */\n      dup3\n        /* \"#utility.yul\":26363:26375   */\n      add\n        /* \"#utility.yul\":26356:26375   */\n      swap1\n      pop\n        /* \"#utility.yul\":26015:26381   */\n      swap2\n      swap1\n      pop\n      jump\t// out\n        /* \"#utility.yul\":26387:26806   */\n    tag_139:\n        /* \"#utility.yul\":26553:26557   */\n      0x00\n        /* \"#utility.yul\":26591:26593   */\n      0x20\n        /* \"#utility.yul\":26580:26589   */\n      dup3\n        /* \"#utility.yul\":26576:26594   */\n      add\n        /* \"#utility.yul\":26568:26594   */\n      swap1\n      pop\n        /* \"#utility.yul\":26640:26649   */\n      dup2\n        /* \"#utility.yul\":26634:26638   */\n      dup2\n        /* \"#utility.yul\":26630:26650   */\n      sub\n        /* \"#utility.yul\":26626:26627   */\n      0x00\n        /* \"#utility.yul\":26615:26624   */\n      dup4\n        /* \"#utility.yul\":26611:26628   */\n      add\n        /* \"#utility.yul\":26604:26651   */\n      mstore\n        /* \"#utility.yul\":26668:26799   */\n      tag_571\n        /* \"#utility.yul\":26794:26798   */\n      dup2\n        /* \"#utility.yul\":26668:26799   */\n      tag_282\n      jump\t// in\n    tag_571:\n        /* \"#utility.yul\":26660:26799   */\n      swap1\n      pop\n        /* \"#utility.yul\":26387:26806   */\n      swap2\n      swap1\n      pop\n      jump\t// out\n        /* \"#utility.yul\":26812:27028   */\n    tag_141:\n        /* \"#utility.yul\":26851:26855   */\n      0x00\n        /* \"#utility.yul\":26871:26890   */\n      tag_573\n        /* \"#utility.yul\":26888:26889   */\n      dup3\n        /* \"#utility.yul\":26871:26890   */\n      tag_229\n      jump\t// in\n    tag_573:\n        /* \"#utility.yul\":26866:26890   */\n      swap2\n      pop\n        /* \"#utility.yul\":26904:26923   */\n      tag_574\n        /* \"#utility.yul\":26921:26922   */\n      dup4\n        /* \"#utility.yul\":26904:26923   */\n      tag_229\n      jump\t// in\n    tag_574:\n        /* \"#utility.yul\":26899:26923   */\n      swap3\n      pop\n        /* \"#utility.yul\":26947:26948   */\n      dup3\n        /* \"#utility.yul\":26944:26945   */\n      dup3\n        /* \"#utility.yul\":26940:26949   */\n      sub\n        /* \"#utility.yul\":26932:26949   */\n      swap1\n      pop\n        /* \"#utility.yul\":26971:26997   */\n      0xffffffffffffffffffffffff\n        /* \"#utility.yul\":26965:26969   */\n      dup2\n        /* \"#utility.yul\":26962:26998   */\n      gt\n        /* \"#utility.yul\":26959:27021   */\n      iszero\n      tag_575\n      jumpi\n        /* \"#utility.yul\":27001:27019   */\n      tag_576\n      tag_270\n      jump\t// in\n    tag_576:\n        /* \"#utility.yul\":26959:27021   */\n    tag_575:\n        /* \"#utility.yul\":26812:27028   */\n      swap3\n      swap2\n      pop\n      pop\n      jump\t// out\n        /* \"#utility.yul\":27034:27207   */\n    tag_283:\n        /* \"#utility.yul\":27174:27199   */\n      0x4d757374206265205f6964203c2066756e64436f756e74000000000000000000\n        /* \"#utility.yul\":27170:27171   */\n      0x00\n        /* \"#utility.yul\":27162:27168   */\n      dup3\n        /* \"#utility.yul\":27158:27172   */\n      add\n        /* \"#utility.yul\":27151:27200   */\n      mstore\n        /* \"#utility.yul\":27034:27207   */\n      pop\n      jump\t// out\n        /* \"#utility.yul\":27213:27579   */\n    tag_284:\n        /* \"#utility.yul\":27355:27358   */\n      0x00\n        /* \"#utility.yul\":27376:27443   */\n      tag_579\n        /* \"#utility.yul\":27440:27442   */\n      0x17\n        /* \"#utility.yul\":27435:27438   */\n      dup4\n        /* \"#utility.yul\":27376:27443   */\n      tag_278\n      jump\t// in\n    tag_579:\n        /* \"#utility.yul\":27369:27443   */\n      swap2\n      pop\n        /* \"#utility.yul\":27452:27545   */\n      tag_580\n        /* \"#utility.yul\":27541:27544   */\n      dup3\n        /* \"#utility.yul\":27452:27545   */\n      tag_283\n      jump\t// in\n    tag_580:\n        /* \"#utility.yul\":27570:27572   */\n      0x20\n        /* \"#utility.yul\":27565:27568   */\n      dup3\n        /* \"#utility.yul\":27561:27573   */\n      add\n        /* \"#utility.yul\":27554:27573   */\n      swap1\n      pop\n        /* \"#utility.yul\":27213:27579   */\n      swap2\n      swap1\n      pop\n      jump\t// out\n        /* \"#utility.yul\":27585:28004   */\n    tag_159:\n        /* \"#utility.yul\":27751:27755   */\n      0x00\n        /* \"#utility.yul\":27789:27791   */\n      0x20\n        /* \"#utility.yul\":27778:27787   */\n      dup3\n        /* \"#utility.yul\":27774:27792   */\n      add\n        /* \"#utility.yul\":27766:27792   */\n      swap1\n      pop\n        /* \"#utility.yul\":27838:27847   */\n      dup2\n        /* \"#utility.yul\":27832:27836   */\n      dup2\n        /* \"#utility.yul\":27828:27848   */\n      sub\n        /* \"#utility.yul\":27824:27825   */\n      0x00\n        /* \"#utility.yul\":27813:27822   */\n      dup4\n        /* \"#utility.yul\":27809:27826   */\n      add\n        /* \"#utility.yul\":27802:27849   */\n      mstore\n        /* \"#utility.yul\":27866:27997   */\n      tag_582\n        /* \"#utility.yul\":27992:27996   */\n      dup2\n        /* \"#utility.yul\":27866:27997   */\n      tag_284\n      jump\t// in\n    tag_582:\n        /* \"#utility.yul\":27858:27997   */\n      swap1\n      pop\n        /* \"#utility.yul\":27585:28004   */\n      swap2\n      swap1\n      pop\n      jump\t// out\n        /* \"#utility.yul\":28010:28186   */\n    tag_285:\n        /* \"#utility.yul\":28150:28178   */\n      0x46756e6420557064617465206e6f7420617574686f72697a6564000000000000\n        /* \"#utility.yul\":28146:28147   */\n      0x00\n        /* \"#utility.yul\":28138:28144   */\n      dup3\n        /* \"#utility.yul\":28134:28148   */\n      add\n        /* \"#utility.yul\":28127:28179   */\n      mstore\n        /* \"#utility.yul\":28010:28186   */\n      pop\n      jump\t// out\n        /* \"#utility.yul\":28192:28558   */\n    tag_286:\n        /* \"#utility.yul\":28334:28337   */\n      0x00\n        /* \"#utility.yul\":28355:28422   */\n      tag_585\n        /* \"#utility.yul\":28419:28421   */\n      0x1a\n        /* \"#utility.yul\":28414:28417   */\n      dup4\n        /* \"#utility.yul\":28355:28422   */\n      tag_278\n      jump\t// in\n    tag_585:\n        /* \"#utility.yul\":28348:28422   */\n      swap2\n      pop\n        /* \"#utility.yul\":28431:28524   */\n      tag_586\n        /* \"#utility.yul\":28520:28523   */\n      dup3\n        /* \"#utility.yul\":28431:28524   */\n      tag_285\n      jump\t// in\n    tag_586:\n        /* \"#utility.yul\":28549:28551   */\n      0x20\n        /* \"#utility.yul\":28544:28547   */\n      dup3\n        /* \"#utility.yul\":28540:28552   */\n      add\n        /* \"#utility.yul\":28533:28552   */\n      swap1\n      pop\n        /* \"#utility.yul\":28192:28558   */\n      swap2\n      swap1\n      pop\n      jump\t// out\n        /* \"#utility.yul\":28564:28983   */\n    tag_171:\n        /* \"#utility.yul\":28730:28734   */\n      0x00\n        /* \"#utility.yul\":28768:28770   */\n      0x20\n        /* \"#utility.yul\":28757:28766   */\n      dup3\n        /* \"#utility.yul\":28753:28771   */\n      add\n        /* \"#utility.yul\":28745:28771   */\n      swap1\n      pop\n        /* \"#utility.yul\":28817:28826   */\n      dup2\n        /* \"#utility.yul\":28811:28815   */\n      dup2\n        /* \"#utility.yul\":28807:28827   */\n      sub\n        /* \"#utility.yul\":28803:28804   */\n      0x00\n        /* \"#utility.yul\":28792:28801   */\n      dup4\n        /* \"#utility.yul\":28788:28805   */\n      add\n        /* \"#utility.yul\":28781:28828   */\n      mstore\n        /* \"#utility.yul\":28845:28976   */\n      tag_588\n        /* \"#utility.yul\":28971:28975   */\n      dup2\n        /* \"#utility.yul\":28845:28976   */\n      tag_286\n      jump\t// in\n    tag_588:\n        /* \"#utility.yul\":28837:28976   */\n      swap1\n      pop\n        /* \"#utility.yul\":28564:28983   */\n      swap2\n      swap1\n      pop\n      jump\t// out\n        /* \"#utility.yul\":28989:29074   */\n    tag_287:\n        /* \"#utility.yul\":29034:29041   */\n      0x00\n        /* \"#utility.yul\":29063:29068   */\n      dup2\n        /* \"#utility.yul\":29052:29068   */\n      swap1\n      pop\n        /* \"#utility.yul\":28989:29074   */\n      swap2\n      swap1\n      pop\n      jump\t// out\n        /* \"#utility.yul\":29080:29238   */\n    tag_288:\n        /* \"#utility.yul\":29138:29147   */\n      0x00\n        /* \"#utility.yul\":29171:29232   */\n      tag_591\n        /* \"#utility.yul\":29189:29231   */\n      tag_592\n        /* \"#utility.yul\":29198:29230   */\n      tag_593\n        /* \"#utility.yul\":29224:29229   */\n      dup5\n        /* \"#utility.yul\":29198:29230   */\n      tag_287\n      jump\t// in\n    tag_593:\n        /* \"#utility.yul\":29189:29231   */\n      tag_272\n      jump\t// in\n    tag_592:\n        /* \"#utility.yul\":29171:29232   */\n      tag_236\n      jump\t// in\n    tag_591:\n        /* \"#utility.yul\":29158:29232   */\n      swap1\n      pop\n        /* \"#utility.yul\":29080:29238   */\n      swap2\n      swap1\n      pop\n      jump\t// out\n        /* \"#utility.yul\":29244:29391   */\n    tag_289:\n        /* \"#utility.yul\":29339:29384   */\n      tag_595\n        /* \"#utility.yul\":29378:29383   */\n      dup2\n        /* \"#utility.yul\":29339:29384   */\n      tag_288\n      jump\t// in\n    tag_595:\n        /* \"#utility.yul\":29334:29337   */\n      dup3\n        /* \"#utility.yul\":29327:29385   */\n      mstore\n        /* \"#utility.yul\":29244:29391   */\n      pop\n      pop\n      jump\t// out\n        /* \"#utility.yul\":29397:29745   */\n    tag_177:\n        /* \"#utility.yul\":29526:29530   */\n      0x00\n        /* \"#utility.yul\":29564:29566   */\n      0x40\n        /* \"#utility.yul\":29553:29562   */\n      dup3\n        /* \"#utility.yul\":29549:29567   */\n      add\n        /* \"#utility.yul\":29541:29567   */\n      swap1\n      pop\n        /* \"#utility.yul\":29577:29648   */\n      tag_597\n        /* \"#utility.yul\":29645:29646   */\n      0x00\n        /* \"#utility.yul\":29634:29643   */\n      dup4\n        /* \"#utility.yul\":29630:29647   */\n      add\n        /* \"#utility.yul\":29621:29627   */\n      dup6\n        /* \"#utility.yul\":29577:29648   */\n      tag_253\n      jump\t// in\n    tag_597:\n        /* \"#utility.yul\":29658:29738   */\n      tag_598\n        /* \"#utility.yul\":29734:29736   */\n      0x20\n        /* \"#utility.yul\":29723:29732   */\n      dup4\n        /* \"#utility.yul\":29719:29737   */\n      add\n        /* \"#utility.yul\":29710:29716   */\n      dup5\n        /* \"#utility.yul\":29658:29738   */\n      tag_289\n      jump\t// in\n    tag_598:\n        /* \"#utility.yul\":29397:29745   */\n      swap4\n      swap3\n      pop\n      pop\n      pop\n      jump\t// out\n        /* \"#utility.yul\":29751:29894   */\n    tag_290:\n        /* \"#utility.yul\":29808:29813   */\n      0x00\n        /* \"#utility.yul\":29839:29845   */\n      dup2\n        /* \"#utility.yul\":29833:29846   */\n      mload\n        /* \"#utility.yul\":29824:29846   */\n      swap1\n      pop\n        /* \"#utility.yul\":29855:29888   */\n      tag_600\n        /* \"#utility.yul\":29882:29887   */\n      dup2\n        /* \"#utility.yul\":29855:29888   */\n      tag_237\n      jump\t// in\n    tag_600:\n        /* \"#utility.yul\":29751:29894   */\n      swap3\n      swap2\n      pop\n      pop\n      jump\t// out\n        /* \"#utility.yul\":29900:30251   */\n    tag_181:\n        /* \"#utility.yul\":29970:29976   */\n      0x00\n        /* \"#utility.yul\":30019:30021   */\n      0x20\n        /* \"#utility.yul\":30007:30016   */\n      dup3\n        /* \"#utility.yul\":29998:30005   */\n      dup5\n        /* \"#utility.yul\":29994:30017   */\n      sub\n        /* \"#utility.yul\":29990:30022   */\n      slt\n        /* \"#utility.yul\":29987:30106   */\n      iszero\n      tag_602\n      jumpi\n        /* \"#utility.yul\":30025:30104   */\n      tag_603\n      tag_222\n      jump\t// in\n    tag_603:\n        /* \"#utility.yul\":29987:30106   */\n    tag_602:\n        /* \"#utility.yul\":30145:30146   */\n      0x00\n        /* \"#utility.yul\":30170:30234   */\n      tag_604\n        /* \"#utility.yul\":30226:30233   */\n      dup5\n        /* \"#utility.yul\":30217:30223   */\n      dup3\n        /* \"#utility.yul\":30206:30215   */\n      dup6\n        /* \"#utility.yul\":30202:30224   */\n      add\n        /* \"#utility.yul\":30170:30234   */\n      tag_290\n      jump\t// in\n    tag_604:\n        /* \"#utility.yul\":30160:30234   */\n      swap2\n      pop\n        /* \"#utility.yul\":30116:30244   */\n      pop\n        /* \"#utility.yul\":29900:30251   */\n      swap3\n      swap2\n      pop\n      pop\n      jump\t// out\n        /* \"#utility.yul\":30257:30479   */\n    tag_291:\n        /* \"#utility.yul\":30397:30431   */\n      0x746f6b656e20616d6f756e74206f662075736572206e6f742073756666696369\n        /* \"#utility.yul\":30393:30394   */\n      0x00\n        /* \"#utility.yul\":30385:30391   */\n      dup3\n        /* \"#utility.yul\":30381:30395   */\n      add\n        /* \"#utility.yul\":30374:30432   */\n      mstore\n        /* \"#utility.yul\":30466:30471   */\n      0x656e740000000000000000000000000000000000000000000000000000000000\n        /* \"#utility.yul\":30461:30463   */\n      0x20\n        /* \"#utility.yul\":30453:30459   */\n      dup3\n        /* \"#utility.yul\":30449:30464   */\n      add\n        /* \"#utility.yul\":30442:30472   */\n      mstore\n        /* \"#utility.yul\":30257:30479   */\n      pop\n      jump\t// out\n        /* \"#utility.yul\":30485:30851   */\n    tag_292:\n        /* \"#utility.yul\":30627:30630   */\n      0x00\n        /* \"#utility.yul\":30648:30715   */\n      tag_607\n        /* \"#utility.yul\":30712:30714   */\n      0x23\n        /* \"#utility.yul\":30707:30710   */\n      dup4\n        /* \"#utility.yul\":30648:30715   */\n      tag_278\n      jump\t// in\n    tag_607:\n        /* \"#utility.yul\":30641:30715   */\n      swap2\n      pop\n        /* \"#utility.yul\":30724:30817   */\n      tag_608\n        /* \"#utility.yul\":30813:30816   */\n      dup3\n        /* \"#utility.yul\":30724:30817   */\n      tag_291\n      jump\t// in\n    tag_608:\n        /* \"#utility.yul\":30842:30844   */\n      0x40\n        /* \"#utility.yul\":30837:30840   */\n      dup3\n        /* \"#utility.yul\":30833:30845   */\n      add\n        /* \"#utility.yul\":30826:30845   */\n      swap1\n      pop\n        /* \"#utility.yul\":30485:30851   */\n      swap2\n      swap1\n      pop\n      jump\t// out\n        /* \"#utility.yul\":30857:31276   */\n    tag_184:\n        /* \"#utility.yul\":31023:31027   */\n      0x00\n        /* \"#utility.yul\":31061:31063   */\n      0x20\n        /* \"#utility.yul\":31050:31059   */\n      dup3\n        /* \"#utility.yul\":31046:31064   */\n      add\n        /* \"#utility.yul\":31038:31064   */\n      swap1\n      pop\n        /* \"#utility.yul\":31110:31119   */\n      dup2\n        /* \"#utility.yul\":31104:31108   */\n      dup2\n        /* \"#utility.yul\":31100:31120   */\n      sub\n        /* \"#utility.yul\":31096:31097   */\n      0x00\n        /* \"#utility.yul\":31085:31094   */\n      dup4\n        /* \"#utility.yul\":31081:31098   */\n      add\n        /* \"#utility.yul\":31074:31121   */\n      mstore\n        /* \"#utility.yul\":31138:31269   */\n      tag_610\n        /* \"#utility.yul\":31264:31268   */\n      dup2\n        /* \"#utility.yul\":31138:31269   */\n      tag_292\n      jump\t// in\n    tag_610:\n        /* \"#utility.yul\":31130:31269   */\n      swap1\n      pop\n        /* \"#utility.yul\":30857:31276   */\n      swap2\n      swap1\n      pop\n      jump\t// out\n        /* \"#utility.yul\":31282:31614   */\n    tag_186:\n        /* \"#utility.yul\":31403:31407   */\n      0x00\n        /* \"#utility.yul\":31441:31443   */\n      0x40\n        /* \"#utility.yul\":31430:31439   */\n      dup3\n        /* \"#utility.yul\":31426:31444   */\n      add\n        /* \"#utility.yul\":31418:31444   */\n      swap1\n      pop\n        /* \"#utility.yul\":31454:31525   */\n      tag_612\n        /* \"#utility.yul\":31522:31523   */\n      0x00\n        /* \"#utility.yul\":31511:31520   */\n      dup4\n        /* \"#utility.yul\":31507:31524   */\n      add\n        /* \"#utility.yul\":31498:31504   */\n      dup6\n        /* \"#utility.yul\":31454:31525   */\n      tag_253\n      jump\t// in\n    tag_612:\n        /* \"#utility.yul\":31535:31607   */\n      tag_613\n        /* \"#utility.yul\":31603:31605   */\n      0x20\n        /* \"#utility.yul\":31592:31601   */\n      dup4\n        /* \"#utility.yul\":31588:31606   */\n      add\n        /* \"#utility.yul\":31579:31585   */\n      dup5\n        /* \"#utility.yul\":31535:31607   */\n      tag_253\n      jump\t// in\n    tag_613:\n        /* \"#utility.yul\":31282:31614   */\n      swap4\n      swap3\n      pop\n      pop\n      pop\n      jump\t// out\n        /* \"#utility.yul\":31620:31736   */\n    tag_293:\n        /* \"#utility.yul\":31690:31711   */\n      tag_615\n        /* \"#utility.yul\":31705:31710   */\n      dup2\n        /* \"#utility.yul\":31690:31711   */\n      tag_227\n      jump\t// in\n    tag_615:\n        /* \"#utility.yul\":31683:31688   */\n      dup2\n        /* \"#utility.yul\":31680:31712   */\n      eq\n        /* \"#utility.yul\":31670:31730   */\n      tag_616\n      jumpi\n        /* \"#utility.yul\":31726:31727   */\n      0x00\n        /* \"#utility.yul\":31723:31724   */\n      dup1\n        /* \"#utility.yul\":31716:31728   */\n      revert\n        /* \"#utility.yul\":31670:31730   */\n    tag_616:\n        /* \"#utility.yul\":31620:31736   */\n      pop\n      jump\t// out\n        /* \"#utility.yul\":31742:31879   */\n    tag_294:\n        /* \"#utility.yul\":31796:31801   */\n      0x00\n        /* \"#utility.yul\":31827:31833   */\n      dup2\n        /* \"#utility.yul\":31821:31834   */\n      mload\n        /* \"#utility.yul\":31812:31834   */\n      swap1\n      pop\n        /* \"#utility.yul\":31843:31873   */\n      tag_618\n        /* \"#utility.yul\":31867:31872   */\n      dup2\n        /* \"#utility.yul\":31843:31873   */\n      tag_293\n      jump\t// in\n    tag_618:\n        /* \"#utility.yul\":31742:31879   */\n      swap3\n      swap2\n      pop\n      pop\n      jump\t// out\n        /* \"#utility.yul\":31885:32230   */\n    tag_190:\n        /* \"#utility.yul\":31952:31958   */\n      0x00\n        /* \"#utility.yul\":32001:32003   */\n      0x20\n        /* \"#utility.yul\":31989:31998   */\n      dup3\n        /* \"#utility.yul\":31980:31987   */\n      dup5\n        /* \"#utility.yul\":31976:31999   */\n      sub\n        /* \"#utility.yul\":31972:32004   */\n      slt\n        /* \"#utility.yul\":31969:32088   */\n      iszero\n      tag_620\n      jumpi\n        /* \"#utility.yul\":32007:32086   */\n      tag_621\n      tag_222\n      jump\t// in\n    tag_621:\n        /* \"#utility.yul\":31969:32088   */\n    tag_620:\n        /* \"#utility.yul\":32127:32128   */\n      0x00\n        /* \"#utility.yul\":32152:32213   */\n      tag_622\n        /* \"#utility.yul\":32205:32212   */\n      dup5\n        /* \"#utility.yul\":32196:32202   */\n      dup3\n        /* \"#utility.yul\":32185:32194   */\n      dup6\n        /* \"#utility.yul\":32181:32203   */\n      add\n        /* \"#utility.yul\":32152:32213   */\n      tag_294\n      jump\t// in\n    tag_622:\n        /* \"#utility.yul\":32142:32213   */\n      swap2\n      pop\n        /* \"#utility.yul\":32098:32223   */\n      pop\n        /* \"#utility.yul\":31885:32230   */\n      swap3\n      swap2\n      pop\n      pop\n      jump\t// out\n        /* \"#utility.yul\":32236:32410   */\n    tag_295:\n        /* \"#utility.yul\":32376:32402   */\n      0x746f6b656e20616c6c6f77616e63652073686f72746167650000000000000000\n        /* \"#utility.yul\":32372:32373   */\n      0x00\n        /* \"#utility.yul\":32364:32370   */\n      dup3\n        /* \"#utility.yul\":32360:32374   */\n      add\n        /* \"#utility.yul\":32353:32403   */\n      mstore\n        /* \"#utility.yul\":32236:32410   */\n      pop\n      jump\t// out\n        /* \"#utility.yul\":32416:32782   */\n    tag_296:\n        /* \"#utility.yul\":32558:32561   */\n      0x00\n        /* \"#utility.yul\":32579:32646   */\n      tag_625\n        /* \"#utility.yul\":32643:32645   */\n      0x18\n        /* \"#utility.yul\":32638:32641   */\n      dup4\n        /* \"#utility.yul\":32579:32646   */\n      tag_278\n      jump\t// in\n    tag_625:\n        /* \"#utility.yul\":32572:32646   */\n      swap2\n      pop\n        /* \"#utility.yul\":32655:32748   */\n      tag_626\n        /* \"#utility.yul\":32744:32747   */\n      dup3\n        /* \"#utility.yul\":32655:32748   */\n      tag_295\n      jump\t// in\n    tag_626:\n        /* \"#utility.yul\":32773:32775   */\n      0x20\n        /* \"#utility.yul\":32768:32771   */\n      dup3\n        /* \"#utility.yul\":32764:32776   */\n      add\n        /* \"#utility.yul\":32757:32776   */\n      swap1\n      pop\n        /* \"#utility.yul\":32416:32782   */\n      swap2\n      swap1\n      pop\n      jump\t// out\n        /* \"#utility.yul\":32788:33207   */\n    tag_193:\n        /* \"#utility.yul\":32954:32958   */\n      0x00\n        /* \"#utility.yul\":32992:32994   */\n      0x20\n        /* \"#utility.yul\":32981:32990   */\n      dup3\n        /* \"#utility.yul\":32977:32995   */\n      add\n        /* \"#utility.yul\":32969:32995   */\n      swap1\n      pop\n        /* \"#utility.yul\":33041:33050   */\n      dup2\n        /* \"#utility.yul\":33035:33039   */\n      dup2\n        /* \"#utility.yul\":33031:33051   */\n      sub\n        /* \"#utility.yul\":33027:33028   */\n      0x00\n        /* \"#utility.yul\":33016:33025   */\n      dup4\n        /* \"#utility.yul\":33012:33029   */\n      add\n        /* \"#utility.yul\":33005:33052   */\n      mstore\n        /* \"#utility.yul\":33069:33200   */\n      tag_628\n        /* \"#utility.yul\":33195:33199   */\n      dup2\n        /* \"#utility.yul\":33069:33200   */\n      tag_296\n      jump\t// in\n    tag_628:\n        /* \"#utility.yul\":33061:33200   */\n      swap1\n      pop\n        /* \"#utility.yul\":32788:33207   */\n      swap2\n      swap1\n      pop\n      jump\t// out\n        /* \"#utility.yul\":33213:34088   */\n    tag_195:\n        /* \"#utility.yul\":33498:33502   */\n      0x00\n        /* \"#utility.yul\":33536:33539   */\n      0xa0\n        /* \"#utility.yul\":33525:33534   */\n      dup3\n        /* \"#utility.yul\":33521:33540   */\n      add\n        /* \"#utility.yul\":33513:33540   */\n      swap1\n      pop\n        /* \"#utility.yul\":33550:33621   */\n      tag_630\n        /* \"#utility.yul\":33618:33619   */\n      0x00\n        /* \"#utility.yul\":33607:33616   */\n      dup4\n        /* \"#utility.yul\":33603:33620   */\n      add\n        /* \"#utility.yul\":33594:33600   */\n      dup8\n        /* \"#utility.yul\":33550:33621   */\n      tag_253\n      jump\t// in\n    tag_630:\n        /* \"#utility.yul\":33631:33703   */\n      tag_631\n        /* \"#utility.yul\":33699:33701   */\n      0x20\n        /* \"#utility.yul\":33688:33697   */\n      dup4\n        /* \"#utility.yul\":33684:33702   */\n      add\n        /* \"#utility.yul\":33675:33681   */\n      dup7\n        /* \"#utility.yul\":33631:33703   */\n      tag_253\n      jump\t// in\n    tag_631:\n        /* \"#utility.yul\":33713:33793   */\n      tag_632\n        /* \"#utility.yul\":33789:33791   */\n      0x40\n        /* \"#utility.yul\":33778:33787   */\n      dup4\n        /* \"#utility.yul\":33774:33792   */\n      add\n        /* \"#utility.yul\":33765:33771   */\n      dup6\n        /* \"#utility.yul\":33713:33793   */\n      tag_289\n      jump\t// in\n    tag_632:\n        /* \"#utility.yul\":33803:33875   */\n      tag_633\n        /* \"#utility.yul\":33871:33873   */\n      0x60\n        /* \"#utility.yul\":33860:33869   */\n      dup4\n        /* \"#utility.yul\":33856:33874   */\n      add\n        /* \"#utility.yul\":33847:33853   */\n      dup5\n        /* \"#utility.yul\":33803:33875   */\n      tag_255\n      jump\t// in\n    tag_633:\n        /* \"#utility.yul\":33923:33932   */\n      dup2\n        /* \"#utility.yul\":33917:33921   */\n      dup2\n        /* \"#utility.yul\":33913:33933   */\n      sub\n        /* \"#utility.yul\":33907:33910   */\n      0x80\n        /* \"#utility.yul\":33896:33905   */\n      dup4\n        /* \"#utility.yul\":33892:33911   */\n      add\n        /* \"#utility.yul\":33885:33934   */\n      mstore\n        /* \"#utility.yul\":33951:34081   */\n      tag_634\n        /* \"#utility.yul\":34076:34080   */\n      dup2\n        /* \"#utility.yul\":33951:34081   */\n      tag_277\n      jump\t// in\n    tag_634:\n        /* \"#utility.yul\":33943:34081   */\n      swap1\n      pop\n        /* \"#utility.yul\":33213:34088   */\n      swap6\n      swap5\n      pop\n      pop\n      pop\n      pop\n      pop\n      jump\t// out\n        /* \"#utility.yul\":34094:34426   */\n    tag_219:\n        /* \"#utility.yul\":34215:34219   */\n      0x00\n        /* \"#utility.yul\":34253:34255   */\n      0x40\n        /* \"#utility.yul\":34242:34251   */\n      dup3\n        /* \"#utility.yul\":34238:34256   */\n      add\n        /* \"#utility.yul\":34230:34256   */\n      swap1\n      pop\n        /* \"#utility.yul\":34266:34337   */\n      tag_636\n        /* \"#utility.yul\":34334:34335   */\n      0x00\n        /* \"#utility.yul\":34323:34332   */\n      dup4\n        /* \"#utility.yul\":34319:34336   */\n      add\n        /* \"#utility.yul\":34310:34316   */\n      dup6\n        /* \"#utility.yul\":34266:34337   */\n      tag_255\n      jump\t// in\n    tag_636:\n        /* \"#utility.yul\":34347:34419   */\n      tag_637\n        /* \"#utility.yul\":34415:34417   */\n      0x20\n        /* \"#utility.yul\":34404:34413   */\n      dup4\n        /* \"#utility.yul\":34400:34418   */\n      add\n        /* \"#utility.yul\":34391:34397   */\n      dup5\n        /* \"#utility.yul\":34347:34419   */\n      tag_255\n      jump\t// in\n    tag_637:\n        /* \"#utility.yul\":34094:34426   */\n      swap4\n      swap3\n      pop\n      pop\n      pop\n      jump\t// out\n\n    auxdata: 0xa264697066735822122062b0b5812d742be69be8b0b3f7f76bae4da0815971b1a0bd355fb42c340ded4664736f6c63430008140033\n}\n",
				"bytecode": {
					"linkReferences": {},
					"object": "608060405234801562000010575f80fd5b5060405162002fa738038062002fa78339818101604052810190620000369190620000f4565b805f806101000a81548173ffffffffffffffffffffffffffffffffffffffff021916908373ffffffffffffffffffffffffffffffffffffffff1602179055505062000124565b5f80fd5b5f73ffffffffffffffffffffffffffffffffffffffff82169050919050565b5f620000ab8262000080565b9050919050565b5f620000be826200009f565b9050919050565b620000d081620000b2565b8114620000db575f80fd5b50565b5f81519050620000ee81620000c5565b92915050565b5f602082840312156200010c576200010b6200007c565b5b5f6200011b84828501620000de565b91505092915050565b612e7580620001325f395ff3fe608060405234801561000f575f80fd5b50600436106100e8575f3560e01c80633f936ff51161008a57806388b53ced1161006457806388b53ced14610289578063bc197c81146102a5578063dd7d7929146102d5578063f23a6e61146102f1576100e8565b80633f936ff5146102095780636c173d38146102275780637a3819cb14610257576100e8565b80631c69b464116100c65780631c69b464146101545780631f71f89f146101725780632f14670c146101a9578063380eaaf9146101d9576100e8565b806301ffc9a7146100ec57806311c9fb831461011c5780631744462614610138575b5f80fd5b61010660048036038101906101019190611d68565b610321565b6040516101139190611dad565b60405180910390f35b61013660048036038101906101319190611e07565b61039a565b005b610152600480360381019061014d9190611ed2565b61071e565b005b61015c6109e5565b60405161016991906120c7565b60405180910390f35b61018c600480360381019061018791906120e7565b610a0f565b6040516101a098979695949392919061214e565b60405180910390f35b6101c360048036038101906101be91906121ca565b610ad8565b6040516101d09190612208565b60405180910390f35b6101f360048036038101906101ee9190611e07565b610b20565b60405161020091906120c7565b60405180910390f35b610211610e8c565b60405161021e9190612221565b60405180910390f35b610241600480360381019061023c91906120e7565b610ea9565b60405161024e9190612208565b60405180910390f35b610271600480360381019061026c919061223a565b610f79565b6040516102809392919061228a565b60405180910390f35b6102a3600480360381019061029e91906122bf565b610ffa565b005b6102bf60048036038101906102ba919061250f565b611013565b6040516102cc91906125e9565b60405180910390f35b6102ef60048036038101906102ea9190612602565b611027565b005b61030b60048036038101906103069190612666565b6114a9565b60405161031891906125e9565b60405180910390f35b5f7f4e2312e0000000000000000000000000000000000000000000000000000000007bffffffffffffffffffffffffffffffffffffffffffffffffffffffff1916827bffffffffffffffffffffffffffffffffffffffffffffffffffffffff191614806103935750610392826114bd565b5b9050919050565b5f60015f846bffffffffffffffffffffffff166bffffffffffffffffffffffff1681526020019081526020015f206003015490505f60025f856bffffffffffffffffffffffff166bffffffffffffffffffffffff1681526020019081526020015f2080548060200260200160405190810160405280929190818152602001828054801561047957602002820191905f5260205f20905b815f9054906101000a900473ffffffffffffffffffffffffffffffffffffffff1673ffffffffffffffffffffffffffffffffffffffff1681526020019060010190808311610430575b505050505090505f805f90505b8251816bffffffffffffffffffffffff161015610716575f91505f5b60035f886bffffffffffffffffffffffff166bffffffffffffffffffffffff1681526020019081526020015f205f85846bffffffffffffffffffffffff16815181106104f1576104f06126f9565b5b602002602001015173ffffffffffffffffffffffffffffffffffffffff1673ffffffffffffffffffffffffffffffffffffffff1681526020019081526020015f2080549050816bffffffffffffffffffffffff16101561062b5760035f886bffffffffffffffffffffffff166bffffffffffffffffffffffff1681526020019081526020015f205f85846bffffffffffffffffffffffff168151811061059a576105996126f9565b5b602002602001015173ffffffffffffffffffffffffffffffffffffffff1673ffffffffffffffffffffffffffffffffffffffff1681526020019081526020015f20816bffffffffffffffffffffffff16815481106105fb576105fa6126f9565b5b905f5260205f20906002020160010154836106169190612753565b9250808061062390612786565b9150506104a2565b505f8054906101000a900473ffffffffffffffffffffffffffffffffffffffff1673ffffffffffffffffffffffffffffffffffffffff1663f242432a3085846bffffffffffffffffffffffff1681518110610689576106886126f9565b5b602002602001015189888a6bffffffffffffffffffffffff16886106ad91906127b9565b6106b79190612827565b6040518563ffffffff1660e01b81526004016106d694939291906128ea565b5f604051808303815f87803b1580156106ed575f80fd5b505af11580156106ff573d5f803e3d5ffd5b50505050808061070e90612786565b915050610486565b505050505050565b5f8060149054906101000a90046bffffffffffffffffffffffff169050604051806101000160405280826bffffffffffffffffffffffff1681526020018573ffffffffffffffffffffffffffffffffffffffff1681526020014265ffffffffffff1681526020014265ffffffffffff1681526020018473ffffffffffffffffffffffffffffffffffffffff1681526020018381526020015f81526020015f151581525060015f836bffffffffffffffffffffffff166bffffffffffffffffffffffff1681526020019081526020015f205f820151815f015f6101000a8154816bffffffffffffffffffffffff02191690836bffffffffffffffffffffffff1602179055506020820151815f01600c6101000a81548173ffffffffffffffffffffffffffffffffffffffff021916908373ffffffffffffffffffffffffffffffffffffffff1602179055506040820151816001015f6101000a81548165ffffffffffff021916908365ffffffffffff16021790555060608201518160010160066101000a81548165ffffffffffff021916908365ffffffffffff160217905550608082015181600101600c6101000a81548173ffffffffffffffffffffffffffffffffffffffff021916908373ffffffffffffffffffffffffffffffffffffffff16021790555060a0820151816002015560c0820151816003015560e0820151816004015f6101000a81548160ff0219169083151502179055509050505f82826bffffffffffffffffffffffff167f1e216cc18d3e93f7c7b9a7b3a038093bc655d3d5cbfbb504d67d4376bd02d13f87875f426040516109809493929190612940565b60405180910390a460015f60148282829054906101000a90046bffffffffffffffffffffffff166109b19190612983565b92506101000a8154816bffffffffffffffffffffffff02191690836bffffffffffffffffffffffff16021790555050505050565b6060610a0a5f8060149054906101000a90046bffffffffffffffffffffffff16610b20565b905090565b6001602052805f5260405f205f91509050805f015f9054906101000a90046bffffffffffffffffffffffff1690805f01600c9054906101000a900473ffffffffffffffffffffffffffffffffffffffff1690806001015f9054906101000a900465ffffffffffff16908060010160069054906101000a900465ffffffffffff169080600101600c9054906101000a900473ffffffffffffffffffffffffffffffffffffffff1690806002015490806003015490806004015f9054906101000a900460ff16905088565b6002602052815f5260405f208181548110610af1575f80fd5b905f5260205f20015f915091509054906101000a900473ffffffffffffffffffffffffffffffffffffffff1681565b60605f60149054906101000a90046bffffffffffffffffffffffff166bffffffffffffffffffffffff16826bffffffffffffffffffffffff161115610b9a576040517f08c379a0000000000000000000000000000000000000000000000000000000008152600401610b9190612a1c565b60405180910390fd5b816bffffffffffffffffffffffff16836bffffffffffffffffffffffff161115610bf9576040517f08c379a0000000000000000000000000000000000000000000000000000000008152600401610bf090612a84565b60405180910390fd5b5f8383610c069190612aa2565b6bffffffffffffffffffffffff1667ffffffffffffffff811115610c2d57610c2c612323565b5b604051908082528060200260200182016040528015610c6657816020015b610c53611c79565b815260200190600190039081610c4b5790505b5090505f8490505b836bffffffffffffffffffffffff16816bffffffffffffffffffffffff161015610e815760015f826bffffffffffffffffffffffff166bffffffffffffffffffffffff1681526020019081526020015f20604051806101000160405290815f82015f9054906101000a90046bffffffffffffffffffffffff166bffffffffffffffffffffffff166bffffffffffffffffffffffff1681526020015f8201600c9054906101000a900473ffffffffffffffffffffffffffffffffffffffff1673ffffffffffffffffffffffffffffffffffffffff1673ffffffffffffffffffffffffffffffffffffffff168152602001600182015f9054906101000a900465ffffffffffff1665ffffffffffff1665ffffffffffff1681526020016001820160069054906101000a900465ffffffffffff1665ffffffffffff1665ffffffffffff16815260200160018201600c9054906101000a900473ffffffffffffffffffffffffffffffffffffffff1673ffffffffffffffffffffffffffffffffffffffff1673ffffffffffffffffffffffffffffffffffffffff1681526020016002820154815260200160038201548152602001600482015f9054906101000a900460ff161515151581525050828683610e449190612aa2565b6bffffffffffffffffffffffff1681518110610e6357610e626126f9565b5b60200260200101819052508080610e7990612786565b915050610c6e565b508091505092915050565b5f60149054906101000a90046bffffffffffffffffffffffff1681565b5f8060149054906101000a90046bffffffffffffffffffffffff166bffffffffffffffffffffffff16826bffffffffffffffffffffffff1610610f21576040517f08c379a0000000000000000000000000000000000000000000000000000000008152600401610f1890612b2b565b60405180910390fd5b60015f836bffffffffffffffffffffffff166bffffffffffffffffffffffff1681526020019081526020015f20600101600c9054906101000a900473ffffffffffffffffffffffffffffffffffffffff169050919050565b6003602052825f5260405f20602052815f5260405f208181548110610f9c575f80fd5b905f5260205f2090600202015f925092505050805f015f9054906101000a900473ffffffffffffffffffffffffffffffffffffffff1690805f0160149054906101000a90046bffffffffffffffffffffffff16908060010154905083565b611005838383611526565b61100e82611a7f565b505050565b5f63bc197c8160e01b905095945050505050565b5f60015f866bffffffffffffffffffffffff166bffffffffffffffffffffffff1681526020019081526020015f20604051806101000160405290815f82015f9054906101000a90046bffffffffffffffffffffffff166bffffffffffffffffffffffff166bffffffffffffffffffffffff1681526020015f8201600c9054906101000a900473ffffffffffffffffffffffffffffffffffffffff1673ffffffffffffffffffffffffffffffffffffffff1673ffffffffffffffffffffffffffffffffffffffff168152602001600182015f9054906101000a900465ffffffffffff1665ffffffffffff1665ffffffffffff1681526020016001820160069054906101000a900465ffffffffffff1665ffffffffffff1665ffffffffffff16815260200160018201600c9054906101000a900473ffffffffffffffffffffffffffffffffffffffff1673ffffffffffffffffffffffffffffffffffffffff1673ffffffffffffffffffffffffffffffffffffffff1681526020016002820154815260200160038201548152602001600482015f9054906101000a900460ff1615151515815250509050806020015173ffffffffffffffffffffffffffffffffffffffff163373ffffffffffffffffffffffffffffffffffffffff1614611241576040517f08c379a000000000000000000000000000000000000000000000000000000000815260040161123890612b93565b60405180910390fd5b604051806101000160405280866bffffffffffffffffffffffff1681526020018573ffffffffffffffffffffffffffffffffffffffff168152602001826040015165ffffffffffff1681526020014265ffffffffffff1681526020018473ffffffffffffffffffffffffffffffffffffffff1681526020018381526020018260c0015181526020018260e00151151581525060015f876bffffffffffffffffffffffff166bffffffffffffffffffffffff1681526020019081526020015f205f820151815f015f6101000a8154816bffffffffffffffffffffffff02191690836bffffffffffffffffffffffff1602179055506020820151815f01600c6101000a81548173ffffffffffffffffffffffffffffffffffffffff021916908373ffffffffffffffffffffffffffffffffffffffff1602179055506040820151816001015f6101000a81548165ffffffffffff021916908365ffffffffffff16021790555060608201518160010160066101000a81548165ffffffffffff021916908365ffffffffffff160217905550608082015181600101600c6101000a81548173ffffffffffffffffffffffffffffffffffffffff021916908373ffffffffffffffffffffffffffffffffffffffff16021790555060a0820151816002015560c0820151816003015560e0820151816004015f6101000a81548160ff0219169083151502179055509050508060c0015182866bffffffffffffffffffffffff167f603e97a48f8cadd1e9020bf96470c32853c5d9d8ed30f7cbe961f12ad2a45fa087878660e001514260405161149a9493929190612940565b60405180910390a45050505050565b5f63f23a6e6160e01b905095945050505050565b5f7f01ffc9a7000000000000000000000000000000000000000000000000000000007bffffffffffffffffffffffffffffffffffffffffffffffffffffffff1916827bffffffffffffffffffffffffffffffffffffffffffffffffffffffff1916149050919050565b805f8054906101000a900473ffffffffffffffffffffffffffffffffffffffff1673ffffffffffffffffffffffffffffffffffffffff1662fdd58e855f6040518363ffffffff1660e01b8152600401611580929190612bea565b602060405180830381865afa15801561159b573d5f803e3d5ffd5b505050506040513d601f19601f820116820180604052508101906115bf9190612c25565b116115ff576040517f08c379a00000000000000000000000000000000000000000000000000000000081526004016115f690612cc0565b60405180910390fd5b5f8054906101000a900473ffffffffffffffffffffffffffffffffffffffff1673ffffffffffffffffffffffffffffffffffffffff1663e985e9c584306040518363ffffffff1660e01b8152600401611659929190612cde565b602060405180830381865afa158015611674573d5f803e3d5ffd5b505050506040513d601f19601f820116820180604052508101906116989190612d2f565b6116d7576040517f08c379a00000000000000000000000000000000000000000000000000000000081526004016116ce90612da4565b60405180910390fd5b5f8054906101000a900473ffffffffffffffffffffffffffffffffffffffff1673ffffffffffffffffffffffffffffffffffffffff1663f242432a84305f856040518563ffffffff1660e01b81526004016117359493929190612dc2565b5f604051808303815f87803b15801561174c575f80fd5b505af115801561175e573d5f803e3d5ffd5b505050505f60405180606001604052808573ffffffffffffffffffffffffffffffffffffffff168152602001846bffffffffffffffffffffffff16815260200183815250905060035f846bffffffffffffffffffffffff166bffffffffffffffffffffffff1681526020019081526020015f205f8573ffffffffffffffffffffffffffffffffffffffff1673ffffffffffffffffffffffffffffffffffffffff1681526020019081526020015f2081908060018154018082558091505060019003905f5260205f2090600202015f909190919091505f820151815f015f6101000a81548173ffffffffffffffffffffffffffffffffffffffff021916908373ffffffffffffffffffffffffffffffffffffffff1602179055506020820151815f0160146101000a8154816bffffffffffffffffffffffff02191690836bffffffffffffffffffffffff1602179055506040820151816001015550508160015f856bffffffffffffffffffffffff166bffffffffffffffffffffffff1681526020019081526020015f20600301546118f59190612753565b60015f856bffffffffffffffffffffffff166bffffffffffffffffffffffff1681526020019081526020015f20600301819055505f60025f856bffffffffffffffffffffffff166bffffffffffffffffffffffff1681526020019081526020015f2090505f600190505f5b8280549050816bffffffffffffffffffffffff161015611a10578673ffffffffffffffffffffffffffffffffffffffff1683826bffffffffffffffffffffffff16815481106119b2576119b16126f9565b5b905f5260205f20015f9054906101000a900473ffffffffffffffffffffffffffffffffffffffff1673ffffffffffffffffffffffffffffffffffffffff16036119fd575f9150611a10565b8080611a0890612786565b915050611960565b508015611a77578186908060018154018082558091505060019003905f5260205f20015f9091909190916101000a81548173ffffffffffffffffffffffffffffffffffffffff021916908373ffffffffffffffffffffffffffffffffffffffff1602179055505b505050505050565b60015f826bffffffffffffffffffffffff166bffffffffffffffffffffffff1681526020019081526020015f206003015460015f836bffffffffffffffffffffffff166bffffffffffffffffffffffff1681526020019081526020015f20600201541015611c76575f8054906101000a900473ffffffffffffffffffffffffffffffffffffffff1673ffffffffffffffffffffffffffffffffffffffff1663f242432a30611b2c84610ea9565b5f60015f876bffffffffffffffffffffffff166bffffffffffffffffffffffff1681526020019081526020015f20600301546040518563ffffffff1660e01b8152600401611b7d9493929190612dc2565b5f604051808303815f87803b158015611b94575f80fd5b505af1158015611ba6573d5f803e3d5ffd5b50505050806bffffffffffffffffffffffff167fcd79837f8e8f598de24ef07ea60108df97918f95cfc31d1d61ff9fa09c24035260015f846bffffffffffffffffffffffff166bffffffffffffffffffffffff1681526020019081526020015f206003015442604051611c1a929190612e18565b60405180910390a26001805f836bffffffffffffffffffffffff166bffffffffffffffffffffffff1681526020019081526020015f206004015f6101000a81548160ff021916908315150217905550611c75816103e861039a565b5b50565b6040518061010001604052805f6bffffffffffffffffffffffff1681526020015f73ffffffffffffffffffffffffffffffffffffffff1681526020015f65ffffffffffff1681526020015f65ffffffffffff1681526020015f73ffffffffffffffffffffffffffffffffffffffff1681526020015f81526020015f81526020015f151581525090565b5f604051905090565b5f80fd5b5f80fd5b5f7fffffffff0000000000000000000000000000000000000000000000000000000082169050919050565b611d4781611d13565b8114611d51575f80fd5b50565b5f81359050611d6281611d3e565b92915050565b5f60208284031215611d7d57611d7c611d0b565b5b5f611d8a84828501611d54565b91505092915050565b5f8115159050919050565b611da781611d93565b82525050565b5f602082019050611dc05f830184611d9e565b92915050565b5f6bffffffffffffffffffffffff82169050919050565b611de681611dc6565b8114611df0575f80fd5b50565b5f81359050611e0181611ddd565b92915050565b5f8060408385031215611e1d57611e1c611d0b565b5b5f611e2a85828601611df3565b9250506020611e3b85828601611df3565b9150509250929050565b5f73ffffffffffffffffffffffffffffffffffffffff82169050919050565b5f611e6e82611e45565b9050919050565b611e7e81611e64565b8114611e88575f80fd5b50565b5f81359050611e9981611e75565b92915050565b5f819050919050565b611eb181611e9f565b8114611ebb575f80fd5b50565b5f81359050611ecc81611ea8565b92915050565b5f805f60608486031215611ee957611ee8611d0b565b5b5f611ef686828701611e8b565b9350506020611f0786828701611e8b565b9250506040611f1886828701611ebe565b9150509250925092565b5f81519050919050565b5f82825260208201905092915050565b5f819050602082019050919050565b611f5481611dc6565b82525050565b611f6381611e64565b82525050565b5f65ffffffffffff82169050919050565b611f8381611f69565b82525050565b611f9281611e9f565b82525050565b611fa181611d93565b82525050565b61010082015f820151611fbc5f850182611f4b565b506020820151611fcf6020850182611f5a565b506040820151611fe26040850182611f7a565b506060820151611ff56060850182611f7a565b5060808201516120086080850182611f5a565b5060a082015161201b60a0850182611f89565b5060c082015161202e60c0850182611f89565b5060e082015161204160e0850182611f98565b50505050565b5f6120528383611fa7565b6101008301905092915050565b5f602082019050919050565b5f61207582611f22565b61207f8185611f2c565b935061208a83611f3c565b805f5b838110156120ba5781516120a18882612047565b97506120ac8361205f565b92505060018101905061208d565b5085935050505092915050565b5f6020820190508181035f8301526120df818461206b565b905092915050565b5f602082840312156120fc576120fb611d0b565b5b5f61210984828501611df3565b91505092915050565b61211b81611dc6565b82525050565b61212a81611e64565b82525050565b61213981611f69565b82525050565b61214881611e9f565b82525050565b5f610100820190506121625f83018b612112565b61216f602083018a612121565b61217c6040830189612130565b6121896060830188612130565b6121966080830187612121565b6121a360a083018661213f565b6121b060c083018561213f565b6121bd60e0830184611d9e565b9998505050505050505050565b5f80604083850312156121e0576121df611d0b565b5b5f6121ed85828601611df3565b92505060206121fe85828601611ebe565b9150509250929050565b5f60208201905061221b5f830184612121565b92915050565b5f6020820190506122345f830184612112565b92915050565b5f805f6060848603121561225157612250611d0b565b5b5f61225e86828701611df3565b935050602061226f86828701611e8b565b925050604061228086828701611ebe565b9150509250925092565b5f60608201905061229d5f830186612121565b6122aa6020830185612112565b6122b7604083018461213f565b949350505050565b5f805f606084860312156122d6576122d5611d0b565b5b5f6122e386828701611e8b565b93505060206122f486828701611df3565b925050604061230586828701611ebe565b9150509250925092565b5f80fd5b5f601f19601f8301169050919050565b7f4e487b71000000000000000000000000000000000000000000000000000000005f52604160045260245ffd5b61235982612313565b810181811067ffffffffffffffff8211171561237857612377612323565b5b80604052505050565b5f61238a611d02565b90506123968282612350565b919050565b5f67ffffffffffffffff8211156123b5576123b4612323565b5b602082029050602081019050919050565b5f80fd5b5f6123dc6123d78461239b565b612381565b905080838252602082019050602084028301858111156123ff576123fe6123c6565b5b835b8181101561242857806124148882611ebe565b845260208401935050602081019050612401565b5050509392505050565b5f82601f8301126124465761244561230f565b5b81356124568482602086016123ca565b91505092915050565b5f80fd5b5f67ffffffffffffffff82111561247d5761247c612323565b5b61248682612313565b9050602081019050919050565b828183375f83830152505050565b5f6124b36124ae84612463565b612381565b9050828152602081018484840111156124cf576124ce61245f565b5b6124da848285612493565b509392505050565b5f82601f8301126124f6576124f561230f565b5b81356125068482602086016124a1565b91505092915050565b5f805f805f60a0868803121561252857612527611d0b565b5b5f61253588828901611e8b565b955050602061254688828901611e8b565b945050604086013567ffffffffffffffff81111561256757612566611d0f565b5b61257388828901612432565b935050606086013567ffffffffffffffff81111561259457612593611d0f565b5b6125a088828901612432565b925050608086013567ffffffffffffffff8111156125c1576125c0611d0f565b5b6125cd888289016124e2565b9150509295509295909350565b6125e381611d13565b82525050565b5f6020820190506125fc5f8301846125da565b92915050565b5f805f806080858703121561261a57612619611d0b565b5b5f61262787828801611df3565b945050602061263887828801611e8b565b935050604061264987828801611e8b565b925050606061265a87828801611ebe565b91505092959194509250565b5f805f805f60a0868803121561267f5761267e611d0b565b5b5f61268c88828901611e8b565b955050602061269d88828901611e8b565b94505060406126ae88828901611ebe565b93505060606126bf88828901611ebe565b925050608086013567ffffffffffffffff8111156126e0576126df611d0f565b5b6126ec888289016124e2565b9150509295509295909350565b7f4e487b71000000000000000000000000000000000000000000000000000000005f52603260045260245ffd5b7f4e487b71000000000000000000000000000000000000000000000000000000005f52601160045260245ffd5b5f61275d82611e9f565b915061276883611e9f565b92508282019050808211156127805761277f612726565b5b92915050565b5f61279082611dc6565b91506bffffffffffffffffffffffff82036127ae576127ad612726565b5b600182019050919050565b5f6127c382611e9f565b91506127ce83611e9f565b92508282026127dc81611e9f565b915082820484148315176127f3576127f2612726565b5b5092915050565b7f4e487b71000000000000000000000000000000000000000000000000000000005f52601260045260245ffd5b5f61283182611e9f565b915061283c83611e9f565b92508261284c5761284b6127fa565b5b828204905092915050565b5f819050919050565b5f61287a61287561287084611dc6565b612857565b611e9f565b9050919050565b61288a81612860565b82525050565b5f82825260208201905092915050565b7f30783000000000000000000000000000000000000000000000000000000000005f82015250565b5f6128d4600383612890565b91506128df826128a0565b602082019050919050565b5f60a0820190506128fd5f830187612121565b61290a6020830186612121565b6129176040830185612881565b612924606083018461213f565b8181036080830152612935816128c8565b905095945050505050565b5f6080820190506129535f830187612121565b6129606020830186612121565b61296d6040830185611d9e565b61297a606083018461213f565b95945050505050565b5f61298d82611dc6565b915061299883611dc6565b925082820190506bffffffffffffffffffffffff8111156129bc576129bb612726565b5b92915050565b5f82825260208201905092915050565b7f4d757374206265205f656e644964203c3d2066756e64436f756e7400000000005f82015250565b5f612a06601b836129c2565b9150612a11826129d2565b602082019050919050565b5f6020820190508181035f830152612a33816129fa565b9050919050565b7f4d757374206265205f73746172744964203c3d205f656e6449640000000000005f82015250565b5f612a6e601a836129c2565b9150612a7982612a3a565b602082019050919050565b5f6020820190508181035f830152612a9b81612a62565b9050919050565b5f612aac82611dc6565b9150612ab783611dc6565b925082820390506bffffffffffffffffffffffff811115612adb57612ada612726565b5b92915050565b7f4d757374206265205f6964203c2066756e64436f756e740000000000000000005f82015250565b5f612b156017836129c2565b9150612b2082612ae1565b602082019050919050565b5f6020820190508181035f830152612b4281612b09565b9050919050565b7f46756e6420557064617465206e6f7420617574686f72697a65640000000000005f82015250565b5f612b7d601a836129c2565b9150612b8882612b49565b602082019050919050565b5f6020820190508181035f830152612baa81612b71565b9050919050565b5f819050919050565b5f612bd4612bcf612bca84612bb1565b612857565b611e9f565b9050919050565b612be481612bba565b82525050565b5f604082019050612bfd5f830185612121565b612c0a6020830184612bdb565b9392505050565b5f81519050612c1f81611ea8565b92915050565b5f60208284031215612c3a57612c39611d0b565b5b5f612c4784828501612c11565b91505092915050565b7f746f6b656e20616d6f756e74206f662075736572206e6f7420737566666963695f8201527f656e740000000000000000000000000000000000000000000000000000000000602082015250565b5f612caa6023836129c2565b9150612cb582612c50565b604082019050919050565b5f6020820190508181035f830152612cd781612c9e565b9050919050565b5f604082019050612cf15f830185612121565b612cfe6020830184612121565b9392505050565b612d0e81611d93565b8114612d18575f80fd5b50565b5f81519050612d2981612d05565b92915050565b5f60208284031215612d4457612d43611d0b565b5b5f612d5184828501612d1b565b91505092915050565b7f746f6b656e20616c6c6f77616e63652073686f727461676500000000000000005f82015250565b5f612d8e6018836129c2565b9150612d9982612d5a565b602082019050919050565b5f6020820190508181035f830152612dbb81612d82565b9050919050565b5f60a082019050612dd55f830187612121565b612de26020830186612121565b612def6040830185612bdb565b612dfc606083018461213f565b8181036080830152612e0d816128c8565b905095945050505050565b5f604082019050612e2b5f83018561213f565b612e38602083018461213f565b939250505056fea264697066735822122062b0b5812d742be69be8b0b3f7f76bae4da0815971b1a0bd355fb42c340ded4664736f6c63430008140033",
					"opcodes": "PUSH1 0x80 PUSH1 0x40 MSTORE CALLVALUE DUP1 ISZERO PUSH3 0x10 JUMPI PUSH0 DUP1 REVERT JUMPDEST POP PUSH1 0x40 MLOAD PUSH3 0x2FA7 CODESIZE SUB DUP1 PUSH3 0x2FA7 DUP4 CODECOPY DUP2 DUP2 ADD PUSH1 0x40 MSTORE DUP2 ADD SWAP1 PUSH3 0x36 SWAP2 SWAP1 PUSH3 0xF4 JUMP JUMPDEST DUP1 PUSH0 DUP1 PUSH2 0x100 EXP DUP2 SLOAD DUP2 PUSH20 0xFFFFFFFFFFFFFFFFFFFFFFFFFFFFFFFFFFFFFFFF MUL NOT AND SWAP1 DUP4 PUSH20 0xFFFFFFFFFFFFFFFFFFFFFFFFFFFFFFFFFFFFFFFF AND MUL OR SWAP1 SSTORE POP POP PUSH3 0x124 JUMP JUMPDEST PUSH0 DUP1 REVERT JUMPDEST PUSH0 PUSH20 0xFFFFFFFFFFFFFFFFFFFFFFFFFFFFFFFFFFFFFFFF DUP3 AND SWAP1 POP SWAP2 SWAP1 POP JUMP JUMPDEST PUSH0 PUSH3 0xAB DUP3 PUSH3 0x80 JUMP JUMPDEST SWAP1 POP SWAP2 SWAP1 POP JUMP JUMPDEST PUSH0 PUSH3 0xBE DUP3 PUSH3 0x9F JUMP JUMPDEST SWAP1 POP SWAP2 SWAP1 POP JUMP JUMPDEST PUSH3 0xD0 DUP2 PUSH3 0xB2 JUMP JUMPDEST DUP2 EQ PUSH3 0xDB JUMPI PUSH0 DUP1 REVERT JUMPDEST POP JUMP JUMPDEST PUSH0 DUP2 MLOAD SWAP1 POP PUSH3 0xEE DUP2 PUSH3 0xC5 JUMP JUMPDEST SWAP3 SWAP2 POP POP JUMP JUMPDEST PUSH0 PUSH1 0x20 DUP3 DUP5 SUB SLT ISZERO PUSH3 0x10C JUMPI PUSH3 0x10B PUSH3 0x7C JUMP JUMPDEST JUMPDEST PUSH0 PUSH3 0x11B DUP5 DUP3 DUP6 ADD PUSH3 0xDE JUMP JUMPDEST SWAP2 POP POP SWAP3 SWAP2 POP POP JUMP JUMPDEST PUSH2 0x2E75 DUP1 PUSH3 0x132 PUSH0 CODECOPY PUSH0 RETURN INVALID PUSH1 0x80 PUSH1 0x40 MSTORE CALLVALUE DUP1 ISZERO PUSH2 0xF JUMPI PUSH0 DUP1 REVERT JUMPDEST POP PUSH1 0x4 CALLDATASIZE LT PUSH2 0xE8 JUMPI PUSH0 CALLDATALOAD PUSH1 0xE0 SHR DUP1 PUSH4 0x3F936FF5 GT PUSH2 0x8A JUMPI DUP1 PUSH4 0x88B53CED GT PUSH2 0x64 JUMPI DUP1 PUSH4 0x88B53CED EQ PUSH2 0x289 JUMPI DUP1 PUSH4 0xBC197C81 EQ PUSH2 0x2A5 JUMPI DUP1 PUSH4 0xDD7D7929 EQ PUSH2 0x2D5 JUMPI DUP1 PUSH4 0xF23A6E61 EQ PUSH2 0x2F1 JUMPI PUSH2 0xE8 JUMP JUMPDEST DUP1 PUSH4 0x3F936FF5 EQ PUSH2 0x209 JUMPI DUP1 PUSH4 0x6C173D38 EQ PUSH2 0x227 JUMPI DUP1 PUSH4 0x7A3819CB EQ PUSH2 0x257 JUMPI PUSH2 0xE8 JUMP JUMPDEST DUP1 PUSH4 0x1C69B464 GT PUSH2 0xC6 JUMPI DUP1 PUSH4 0x1C69B464 EQ PUSH2 0x154 JUMPI DUP1 PUSH4 0x1F71F89F EQ PUSH2 0x172 JUMPI DUP1 PUSH4 0x2F14670C EQ PUSH2 0x1A9 JUMPI DUP1 PUSH4 0x380EAAF9 EQ PUSH2 0x1D9 JUMPI PUSH2 0xE8 JUMP JUMPDEST DUP1 PUSH4 0x1FFC9A7 EQ PUSH2 0xEC JUMPI DUP1 PUSH4 0x11C9FB83 EQ PUSH2 0x11C JUMPI DUP1 PUSH4 0x17444626 EQ PUSH2 0x138 JUMPI JUMPDEST PUSH0 DUP1 REVERT JUMPDEST PUSH2 0x106 PUSH1 0x4 DUP1 CALLDATASIZE SUB DUP2 ADD SWAP1 PUSH2 0x101 SWAP2 SWAP1 PUSH2 0x1D68 JUMP JUMPDEST PUSH2 0x321 JUMP JUMPDEST PUSH1 0x40 MLOAD PUSH2 0x113 SWAP2 SWAP1 PUSH2 0x1DAD JUMP JUMPDEST PUSH1 0x40 MLOAD DUP1 SWAP2 SUB SWAP1 RETURN JUMPDEST PUSH2 0x136 PUSH1 0x4 DUP1 CALLDATASIZE SUB DUP2 ADD SWAP1 PUSH2 0x131 SWAP2 SWAP1 PUSH2 0x1E07 JUMP JUMPDEST PUSH2 0x39A JUMP JUMPDEST STOP JUMPDEST PUSH2 0x152 PUSH1 0x4 DUP1 CALLDATASIZE SUB DUP2 ADD SWAP1 PUSH2 0x14D SWAP2 SWAP1 PUSH2 0x1ED2 JUMP JUMPDEST PUSH2 0x71E JUMP JUMPDEST STOP JUMPDEST PUSH2 0x15C PUSH2 0x9E5 JUMP JUMPDEST PUSH1 0x40 MLOAD PUSH2 0x169 SWAP2 SWAP1 PUSH2 0x20C7 JUMP JUMPDEST PUSH1 0x40 MLOAD DUP1 SWAP2 SUB SWAP1 RETURN JUMPDEST PUSH2 0x18C PUSH1 0x4 DUP1 CALLDATASIZE SUB DUP2 ADD SWAP1 PUSH2 0x187 SWAP2 SWAP1 PUSH2 0x20E7 JUMP JUMPDEST PUSH2 0xA0F JUMP JUMPDEST PUSH1 0x40 MLOAD PUSH2 0x1A0 SWAP9 SWAP8 SWAP7 SWAP6 SWAP5 SWAP4 SWAP3 SWAP2 SWAP1 PUSH2 0x214E JUMP JUMPDEST PUSH1 0x40 MLOAD DUP1 SWAP2 SUB SWAP1 RETURN JUMPDEST PUSH2 0x1C3 PUSH1 0x4 DUP1 CALLDATASIZE SUB DUP2 ADD SWAP1 PUSH2 0x1BE SWAP2 SWAP1 PUSH2 0x21CA JUMP JUMPDEST PUSH2 0xAD8 JUMP JUMPDEST PUSH1 0x40 MLOAD PUSH2 0x1D0 SWAP2 SWAP1 PUSH2 0x2208 JUMP JUMPDEST PUSH1 0x40 MLOAD DUP1 SWAP2 SUB SWAP1 RETURN JUMPDEST PUSH2 0x1F3 PUSH1 0x4 DUP1 CALLDATASIZE SUB DUP2 ADD SWAP1 PUSH2 0x1EE SWAP2 SWAP1 PUSH2 0x1E07 JUMP JUMPDEST PUSH2 0xB20 JUMP JUMPDEST PUSH1 0x40 MLOAD PUSH2 0x200 SWAP2 SWAP1 PUSH2 0x20C7 JUMP JUMPDEST PUSH1 0x40 MLOAD DUP1 SWAP2 SUB SWAP1 RETURN JUMPDEST PUSH2 0x211 PUSH2 0xE8C JUMP JUMPDEST PUSH1 0x40 MLOAD PUSH2 0x21E SWAP2 SWAP1 PUSH2 0x2221 JUMP JUMPDEST PUSH1 0x40 MLOAD DUP1 SWAP2 SUB SWAP1 RETURN JUMPDEST PUSH2 0x241 PUSH1 0x4 DUP1 CALLDATASIZE SUB DUP2 ADD SWAP1 PUSH2 0x23C SWAP2 SWAP1 PUSH2 0x20E7 JUMP JUMPDEST PUSH2 0xEA9 JUMP JUMPDEST PUSH1 0x40 MLOAD PUSH2 0x24E SWAP2 SWAP1 PUSH2 0x2208 JUMP JUMPDEST PUSH1 0x40 MLOAD DUP1 SWAP2 SUB SWAP1 RETURN JUMPDEST PUSH2 0x271 PUSH1 0x4 DUP1 CALLDATASIZE SUB DUP2 ADD SWAP1 PUSH2 0x26C SWAP2 SWAP1 PUSH2 0x223A JUMP JUMPDEST PUSH2 0xF79 JUMP JUMPDEST PUSH1 0x40 MLOAD PUSH2 0x280 SWAP4 SWAP3 SWAP2 SWAP1 PUSH2 0x228A JUMP JUMPDEST PUSH1 0x40 MLOAD DUP1 SWAP2 SUB SWAP1 RETURN JUMPDEST PUSH2 0x2A3 PUSH1 0x4 DUP1 CALLDATASIZE SUB DUP2 ADD SWAP1 PUSH2 0x29E SWAP2 SWAP1 PUSH2 0x22BF JUMP JUMPDEST PUSH2 0xFFA JUMP JUMPDEST STOP JUMPDEST PUSH2 0x2BF PUSH1 0x4 DUP1 CALLDATASIZE SUB DUP2 ADD SWAP1 PUSH2 0x2BA SWAP2 SWAP1 PUSH2 0x250F JUMP JUMPDEST PUSH2 0x1013 JUMP JUMPDEST PUSH1 0x40 MLOAD PUSH2 0x2CC SWAP2 SWAP1 PUSH2 0x25E9 JUMP JUMPDEST PUSH1 0x40 MLOAD DUP1 SWAP2 SUB SWAP1 RETURN JUMPDEST PUSH2 0x2EF PUSH1 0x4 DUP1 CALLDATASIZE SUB DUP2 ADD SWAP1 PUSH2 0x2EA SWAP2 SWAP1 PUSH2 0x2602 JUMP JUMPDEST PUSH2 0x1027 JUMP JUMPDEST STOP JUMPDEST PUSH2 0x30B PUSH1 0x4 DUP1 CALLDATASIZE SUB DUP2 ADD SWAP1 PUSH2 0x306 SWAP2 SWAP1 PUSH2 0x2666 JUMP JUMPDEST PUSH2 0x14A9 JUMP JUMPDEST PUSH1 0x40 MLOAD PUSH2 0x318 SWAP2 SWAP1 PUSH2 0x25E9 JUMP JUMPDEST PUSH1 0x40 MLOAD DUP1 SWAP2 SUB SWAP1 RETURN JUMPDEST PUSH0 PUSH32 0x4E2312E000000000000000000000000000000000000000000000000000000000 PUSH28 0xFFFFFFFFFFFFFFFFFFFFFFFFFFFFFFFFFFFFFFFFFFFFFFFFFFFFFFFF NOT AND DUP3 PUSH28 0xFFFFFFFFFFFFFFFFFFFFFFFFFFFFFFFFFFFFFFFFFFFFFFFFFFFFFFFF NOT AND EQ DUP1 PUSH2 0x393 JUMPI POP PUSH2 0x392 DUP3 PUSH2 0x14BD JUMP JUMPDEST JUMPDEST SWAP1 POP SWAP2 SWAP1 POP JUMP JUMPDEST PUSH0 PUSH1 0x1 PUSH0 DUP5 PUSH12 0xFFFFFFFFFFFFFFFFFFFFFFFF AND PUSH12 0xFFFFFFFFFFFFFFFFFFFFFFFF AND DUP2 MSTORE PUSH1 0x20 ADD SWAP1 DUP2 MSTORE PUSH1 0x20 ADD PUSH0 KECCAK256 PUSH1 0x3 ADD SLOAD SWAP1 POP PUSH0 PUSH1 0x2 PUSH0 DUP6 PUSH12 0xFFFFFFFFFFFFFFFFFFFFFFFF AND PUSH12 0xFFFFFFFFFFFFFFFFFFFFFFFF AND DUP2 MSTORE PUSH1 0x20 ADD SWAP1 DUP2 MSTORE PUSH1 0x20 ADD PUSH0 KECCAK256 DUP1 SLOAD DUP1 PUSH1 0x20 MUL PUSH1 0x20 ADD PUSH1 0x40 MLOAD SWAP1 DUP2 ADD PUSH1 0x40 MSTORE DUP1 SWAP3 SWAP2 SWAP1 DUP2 DUP2 MSTORE PUSH1 0x20 ADD DUP3 DUP1 SLOAD DUP1 ISZERO PUSH2 0x479 JUMPI PUSH1 0x20 MUL DUP3 ADD SWAP2 SWAP1 PUSH0 MSTORE PUSH1 0x20 PUSH0 KECCAK256 SWAP1 JUMPDEST DUP2 PUSH0 SWAP1 SLOAD SWAP1 PUSH2 0x100 EXP SWAP1 DIV PUSH20 0xFFFFFFFFFFFFFFFFFFFFFFFFFFFFFFFFFFFFFFFF AND PUSH20 0xFFFFFFFFFFFFFFFFFFFFFFFFFFFFFFFFFFFFFFFF AND DUP2 MSTORE PUSH1 0x20 ADD SWAP1 PUSH1 0x1 ADD SWAP1 DUP1 DUP4 GT PUSH2 0x430 JUMPI JUMPDEST POP POP POP POP POP SWAP1 POP PUSH0 DUP1 PUSH0 SWAP1 POP JUMPDEST DUP3 MLOAD DUP2 PUSH12 0xFFFFFFFFFFFFFFFFFFFFFFFF AND LT ISZERO PUSH2 0x716 JUMPI PUSH0 SWAP2 POP PUSH0 JUMPDEST PUSH1 0x3 PUSH0 DUP9 PUSH12 0xFFFFFFFFFFFFFFFFFFFFFFFF AND PUSH12 0xFFFFFFFFFFFFFFFFFFFFFFFF AND DUP2 MSTORE PUSH1 0x20 ADD SWAP1 DUP2 MSTORE PUSH1 0x20 ADD PUSH0 KECCAK256 PUSH0 DUP6 DUP5 PUSH12 0xFFFFFFFFFFFFFFFFFFFFFFFF AND DUP2 MLOAD DUP2 LT PUSH2 0x4F1 JUMPI PUSH2 0x4F0 PUSH2 0x26F9 JUMP JUMPDEST JUMPDEST PUSH1 0x20 MUL PUSH1 0x20 ADD ADD MLOAD PUSH20 0xFFFFFFFFFFFFFFFFFFFFFFFFFFFFFFFFFFFFFFFF AND PUSH20 0xFFFFFFFFFFFFFFFFFFFFFFFFFFFFFFFFFFFFFFFF AND DUP2 MSTORE PUSH1 0x20 ADD SWAP1 DUP2 MSTORE PUSH1 0x20 ADD PUSH0 KECCAK256 DUP1 SLOAD SWAP1 POP DUP2 PUSH12 0xFFFFFFFFFFFFFFFFFFFFFFFF AND LT ISZERO PUSH2 0x62B JUMPI PUSH1 0x3 PUSH0 DUP9 PUSH12 0xFFFFFFFFFFFFFFFFFFFFFFFF AND PUSH12 0xFFFFFFFFFFFFFFFFFFFFFFFF AND DUP2 MSTORE PUSH1 0x20 ADD SWAP1 DUP2 MSTORE PUSH1 0x20 ADD PUSH0 KECCAK256 PUSH0 DUP6 DUP5 PUSH12 0xFFFFFFFFFFFFFFFFFFFFFFFF AND DUP2 MLOAD DUP2 LT PUSH2 0x59A JUMPI PUSH2 0x599 PUSH2 0x26F9 JUMP JUMPDEST JUMPDEST PUSH1 0x20 MUL PUSH1 0x20 ADD ADD MLOAD PUSH20 0xFFFFFFFFFFFFFFFFFFFFFFFFFFFFFFFFFFFFFFFF AND PUSH20 0xFFFFFFFFFFFFFFFFFFFFFFFFFFFFFFFFFFFFFFFF AND DUP2 MSTORE PUSH1 0x20 ADD SWAP1 DUP2 MSTORE PUSH1 0x20 ADD PUSH0 KECCAK256 DUP2 PUSH12 0xFFFFFFFFFFFFFFFFFFFFFFFF AND DUP2 SLOAD DUP2 LT PUSH2 0x5FB JUMPI PUSH2 0x5FA PUSH2 0x26F9 JUMP JUMPDEST JUMPDEST SWAP1 PUSH0 MSTORE PUSH1 0x20 PUSH0 KECCAK256 SWAP1 PUSH1 0x2 MUL ADD PUSH1 0x1 ADD SLOAD DUP4 PUSH2 0x616 SWAP2 SWAP1 PUSH2 0x2753 JUMP JUMPDEST SWAP3 POP DUP1 DUP1 PUSH2 0x623 SWAP1 PUSH2 0x2786 JUMP JUMPDEST SWAP2 POP POP PUSH2 0x4A2 JUMP JUMPDEST POP PUSH0 DUP1 SLOAD SWAP1 PUSH2 0x100 EXP SWAP1 DIV PUSH20 0xFFFFFFFFFFFFFFFFFFFFFFFFFFFFFFFFFFFFFFFF AND PUSH20 0xFFFFFFFFFFFFFFFFFFFFFFFFFFFFFFFFFFFFFFFF AND PUSH4 0xF242432A ADDRESS DUP6 DUP5 PUSH12 0xFFFFFFFFFFFFFFFFFFFFFFFF AND DUP2 MLOAD DUP2 LT PUSH2 0x689 JUMPI PUSH2 0x688 PUSH2 0x26F9 JUMP JUMPDEST JUMPDEST PUSH1 0x20 MUL PUSH1 0x20 ADD ADD MLOAD DUP10 DUP9 DUP11 PUSH12 0xFFFFFFFFFFFFFFFFFFFFFFFF AND DUP9 PUSH2 0x6AD SWAP2 SWAP1 PUSH2 0x27B9 JUMP JUMPDEST PUSH2 0x6B7 SWAP2 SWAP1 PUSH2 0x2827 JUMP JUMPDEST PUSH1 0x40 MLOAD DUP6 PUSH4 0xFFFFFFFF AND PUSH1 0xE0 SHL DUP2 MSTORE PUSH1 0x4 ADD PUSH2 0x6D6 SWAP5 SWAP4 SWAP3 SWAP2 SWAP1 PUSH2 0x28EA JUMP JUMPDEST PUSH0 PUSH1 0x40 MLOAD DUP1 DUP4 SUB DUP2 PUSH0 DUP8 DUP1 EXTCODESIZE ISZERO DUP1 ISZERO PUSH2 0x6ED JUMPI PUSH0 DUP1 REVERT JUMPDEST POP GAS CALL ISZERO DUP1 ISZERO PUSH2 0x6FF JUMPI RETURNDATASIZE PUSH0 DUP1 RETURNDATACOPY RETURNDATASIZE PUSH0 REVERT JUMPDEST POP POP POP POP DUP1 DUP1 PUSH2 0x70E SWAP1 PUSH2 0x2786 JUMP JUMPDEST SWAP2 POP POP PUSH2 0x486 JUMP JUMPDEST POP POP POP POP POP POP JUMP JUMPDEST PUSH0 DUP1 PUSH1 0x14 SWAP1 SLOAD SWAP1 PUSH2 0x100 EXP SWAP1 DIV PUSH12 0xFFFFFFFFFFFFFFFFFFFFFFFF AND SWAP1 POP PUSH1 0x40 MLOAD DUP1 PUSH2 0x100 ADD PUSH1 0x40 MSTORE DUP1 DUP3 PUSH12 0xFFFFFFFFFFFFFFFFFFFFFFFF AND DUP2 MSTORE PUSH1 0x20 ADD DUP6 PUSH20 0xFFFFFFFFFFFFFFFFFFFFFFFFFFFFFFFFFFFFFFFF AND DUP2 MSTORE PUSH1 0x20 ADD TIMESTAMP PUSH6 0xFFFFFFFFFFFF AND DUP2 MSTORE PUSH1 0x20 ADD TIMESTAMP PUSH6 0xFFFFFFFFFFFF AND DUP2 MSTORE PUSH1 0x20 ADD DUP5 PUSH20 0xFFFFFFFFFFFFFFFFFFFFFFFFFFFFFFFFFFFFFFFF AND DUP2 MSTORE PUSH1 0x20 ADD DUP4 DUP2 MSTORE PUSH1 0x20 ADD PUSH0 DUP2 MSTORE PUSH1 0x20 ADD PUSH0 ISZERO ISZERO DUP2 MSTORE POP PUSH1 0x1 PUSH0 DUP4 PUSH12 0xFFFFFFFFFFFFFFFFFFFFFFFF AND PUSH12 0xFFFFFFFFFFFFFFFFFFFFFFFF AND DUP2 MSTORE PUSH1 0x20 ADD SWAP1 DUP2 MSTORE PUSH1 0x20 ADD PUSH0 KECCAK256 PUSH0 DUP3 ADD MLOAD DUP2 PUSH0 ADD PUSH0 PUSH2 0x100 EXP DUP2 SLOAD DUP2 PUSH12 0xFFFFFFFFFFFFFFFFFFFFFFFF MUL NOT AND SWAP1 DUP4 PUSH12 0xFFFFFFFFFFFFFFFFFFFFFFFF AND MUL OR SWAP1 SSTORE POP PUSH1 0x20 DUP3 ADD MLOAD DUP2 PUSH0 ADD PUSH1 0xC PUSH2 0x100 EXP DUP2 SLOAD DUP2 PUSH20 0xFFFFFFFFFFFFFFFFFFFFFFFFFFFFFFFFFFFFFFFF MUL NOT AND SWAP1 DUP4 PUSH20 0xFFFFFFFFFFFFFFFFFFFFFFFFFFFFFFFFFFFFFFFF AND MUL OR SWAP1 SSTORE POP PUSH1 0x40 DUP3 ADD MLOAD DUP2 PUSH1 0x1 ADD PUSH0 PUSH2 0x100 EXP DUP2 SLOAD DUP2 PUSH6 0xFFFFFFFFFFFF MUL NOT AND SWAP1 DUP4 PUSH6 0xFFFFFFFFFFFF AND MUL OR SWAP1 SSTORE POP PUSH1 0x60 DUP3 ADD MLOAD DUP2 PUSH1 0x1 ADD PUSH1 0x6 PUSH2 0x100 EXP DUP2 SLOAD DUP2 PUSH6 0xFFFFFFFFFFFF MUL NOT AND SWAP1 DUP4 PUSH6 0xFFFFFFFFFFFF AND MUL OR SWAP1 SSTORE POP PUSH1 0x80 DUP3 ADD MLOAD DUP2 PUSH1 0x1 ADD PUSH1 0xC PUSH2 0x100 EXP DUP2 SLOAD DUP2 PUSH20 0xFFFFFFFFFFFFFFFFFFFFFFFFFFFFFFFFFFFFFFFF MUL NOT AND SWAP1 DUP4 PUSH20 0xFFFFFFFFFFFFFFFFFFFFFFFFFFFFFFFFFFFFFFFF AND MUL OR SWAP1 SSTORE POP PUSH1 0xA0 DUP3 ADD MLOAD DUP2 PUSH1 0x2 ADD SSTORE PUSH1 0xC0 DUP3 ADD MLOAD DUP2 PUSH1 0x3 ADD SSTORE PUSH1 0xE0 DUP3 ADD MLOAD DUP2 PUSH1 0x4 ADD PUSH0 PUSH2 0x100 EXP DUP2 SLOAD DUP2 PUSH1 0xFF MUL NOT AND SWAP1 DUP4 ISZERO ISZERO MUL OR SWAP1 SSTORE POP SWAP1 POP POP PUSH0 DUP3 DUP3 PUSH12 0xFFFFFFFFFFFFFFFFFFFFFFFF AND PUSH32 0x1E216CC18D3E93F7C7B9A7B3A038093BC655D3D5CBFBB504D67D4376BD02D13F DUP8 DUP8 PUSH0 TIMESTAMP PUSH1 0x40 MLOAD PUSH2 0x980 SWAP5 SWAP4 SWAP3 SWAP2 SWAP1 PUSH2 0x2940 JUMP JUMPDEST PUSH1 0x40 MLOAD DUP1 SWAP2 SUB SWAP1 LOG4 PUSH1 0x1 PUSH0 PUSH1 0x14 DUP3 DUP3 DUP3 SWAP1 SLOAD SWAP1 PUSH2 0x100 EXP SWAP1 DIV PUSH12 0xFFFFFFFFFFFFFFFFFFFFFFFF AND PUSH2 0x9B1 SWAP2 SWAP1 PUSH2 0x2983 JUMP JUMPDEST SWAP3 POP PUSH2 0x100 EXP DUP2 SLOAD DUP2 PUSH12 0xFFFFFFFFFFFFFFFFFFFFFFFF MUL NOT AND SWAP1 DUP4 PUSH12 0xFFFFFFFFFFFFFFFFFFFFFFFF AND MUL OR SWAP1 SSTORE POP POP POP POP POP JUMP JUMPDEST PUSH1 0x60 PUSH2 0xA0A PUSH0 DUP1 PUSH1 0x14 SWAP1 SLOAD SWAP1 PUSH2 0x100 EXP SWAP1 DIV PUSH12 0xFFFFFFFFFFFFFFFFFFFFFFFF AND PUSH2 0xB20 JUMP JUMPDEST SWAP1 POP SWAP1 JUMP JUMPDEST PUSH1 0x1 PUSH1 0x20 MSTORE DUP1 PUSH0 MSTORE PUSH1 0x40 PUSH0 KECCAK256 PUSH0 SWAP2 POP SWAP1 POP DUP1 PUSH0 ADD PUSH0 SWAP1 SLOAD SWAP1 PUSH2 0x100 EXP SWAP1 DIV PUSH12 0xFFFFFFFFFFFFFFFFFFFFFFFF AND SWAP1 DUP1 PUSH0 ADD PUSH1 0xC SWAP1 SLOAD SWAP1 PUSH2 0x100 EXP SWAP1 DIV PUSH20 0xFFFFFFFFFFFFFFFFFFFFFFFFFFFFFFFFFFFFFFFF AND SWAP1 DUP1 PUSH1 0x1 ADD PUSH0 SWAP1 SLOAD SWAP1 PUSH2 0x100 EXP SWAP1 DIV PUSH6 0xFFFFFFFFFFFF AND SWAP1 DUP1 PUSH1 0x1 ADD PUSH1 0x6 SWAP1 SLOAD SWAP1 PUSH2 0x100 EXP SWAP1 DIV PUSH6 0xFFFFFFFFFFFF AND SWAP1 DUP1 PUSH1 0x1 ADD PUSH1 0xC SWAP1 SLOAD SWAP1 PUSH2 0x100 EXP SWAP1 DIV PUSH20 0xFFFFFFFFFFFFFFFFFFFFFFFFFFFFFFFFFFFFFFFF AND SWAP1 DUP1 PUSH1 0x2 ADD SLOAD SWAP1 DUP1 PUSH1 0x3 ADD SLOAD SWAP1 DUP1 PUSH1 0x4 ADD PUSH0 SWAP1 SLOAD SWAP1 PUSH2 0x100 EXP SWAP1 DIV PUSH1 0xFF AND SWAP1 POP DUP9 JUMP JUMPDEST PUSH1 0x2 PUSH1 0x20 MSTORE DUP2 PUSH0 MSTORE PUSH1 0x40 PUSH0 KECCAK256 DUP2 DUP2 SLOAD DUP2 LT PUSH2 0xAF1 JUMPI PUSH0 DUP1 REVERT JUMPDEST SWAP1 PUSH0 MSTORE PUSH1 0x20 PUSH0 KECCAK256 ADD PUSH0 SWAP2 POP SWAP2 POP SWAP1 SLOAD SWAP1 PUSH2 0x100 EXP SWAP1 DIV PUSH20 0xFFFFFFFFFFFFFFFFFFFFFFFFFFFFFFFFFFFFFFFF AND DUP2 JUMP JUMPDEST PUSH1 0x60 PUSH0 PUSH1 0x14 SWAP1 SLOAD SWAP1 PUSH2 0x100 EXP SWAP1 DIV PUSH12 0xFFFFFFFFFFFFFFFFFFFFFFFF AND PUSH12 0xFFFFFFFFFFFFFFFFFFFFFFFF AND DUP3 PUSH12 0xFFFFFFFFFFFFFFFFFFFFFFFF AND GT ISZERO PUSH2 0xB9A JUMPI PUSH1 0x40 MLOAD PUSH32 0x8C379A000000000000000000000000000000000000000000000000000000000 DUP2 MSTORE PUSH1 0x4 ADD PUSH2 0xB91 SWAP1 PUSH2 0x2A1C JUMP JUMPDEST PUSH1 0x40 MLOAD DUP1 SWAP2 SUB SWAP1 REVERT JUMPDEST DUP2 PUSH12 0xFFFFFFFFFFFFFFFFFFFFFFFF AND DUP4 PUSH12 0xFFFFFFFFFFFFFFFFFFFFFFFF AND GT ISZERO PUSH2 0xBF9 JUMPI PUSH1 0x40 MLOAD PUSH32 0x8C379A000000000000000000000000000000000000000000000000000000000 DUP2 MSTORE PUSH1 0x4 ADD PUSH2 0xBF0 SWAP1 PUSH2 0x2A84 JUMP JUMPDEST PUSH1 0x40 MLOAD DUP1 SWAP2 SUB SWAP1 REVERT JUMPDEST PUSH0 DUP4 DUP4 PUSH2 0xC06 SWAP2 SWAP1 PUSH2 0x2AA2 JUMP JUMPDEST PUSH12 0xFFFFFFFFFFFFFFFFFFFFFFFF AND PUSH8 0xFFFFFFFFFFFFFFFF DUP2 GT ISZERO PUSH2 0xC2D JUMPI PUSH2 0xC2C PUSH2 0x2323 JUMP JUMPDEST JUMPDEST PUSH1 0x40 MLOAD SWAP1 DUP1 DUP3 MSTORE DUP1 PUSH1 0x20 MUL PUSH1 0x20 ADD DUP3 ADD PUSH1 0x40 MSTORE DUP1 ISZERO PUSH2 0xC66 JUMPI DUP2 PUSH1 0x20 ADD JUMPDEST PUSH2 0xC53 PUSH2 0x1C79 JUMP JUMPDEST DUP2 MSTORE PUSH1 0x20 ADD SWAP1 PUSH1 0x1 SWAP1 SUB SWAP1 DUP2 PUSH2 0xC4B JUMPI SWAP1 POP JUMPDEST POP SWAP1 POP PUSH0 DUP5 SWAP1 POP JUMPDEST DUP4 PUSH12 0xFFFFFFFFFFFFFFFFFFFFFFFF AND DUP2 PUSH12 0xFFFFFFFFFFFFFFFFFFFFFFFF AND LT ISZERO PUSH2 0xE81 JUMPI PUSH1 0x1 PUSH0 DUP3 PUSH12 0xFFFFFFFFFFFFFFFFFFFFFFFF AND PUSH12 0xFFFFFFFFFFFFFFFFFFFFFFFF AND DUP2 MSTORE PUSH1 0x20 ADD SWAP1 DUP2 MSTORE PUSH1 0x20 ADD PUSH0 KECCAK256 PUSH1 0x40 MLOAD DUP1 PUSH2 0x100 ADD PUSH1 0x40 MSTORE SWAP1 DUP2 PUSH0 DUP3 ADD PUSH0 SWAP1 SLOAD SWAP1 PUSH2 0x100 EXP SWAP1 DIV PUSH12 0xFFFFFFFFFFFFFFFFFFFFFFFF AND PUSH12 0xFFFFFFFFFFFFFFFFFFFFFFFF AND PUSH12 0xFFFFFFFFFFFFFFFFFFFFFFFF AND DUP2 MSTORE PUSH1 0x20 ADD PUSH0 DUP3 ADD PUSH1 0xC SWAP1 SLOAD SWAP1 PUSH2 0x100 EXP SWAP1 DIV PUSH20 0xFFFFFFFFFFFFFFFFFFFFFFFFFFFFFFFFFFFFFFFF AND PUSH20 0xFFFFFFFFFFFFFFFFFFFFFFFFFFFFFFFFFFFFFFFF AND PUSH20 0xFFFFFFFFFFFFFFFFFFFFFFFFFFFFFFFFFFFFFFFF AND DUP2 MSTORE PUSH1 0x20 ADD PUSH1 0x1 DUP3 ADD PUSH0 SWAP1 SLOAD SWAP1 PUSH2 0x100 EXP SWAP1 DIV PUSH6 0xFFFFFFFFFFFF AND PUSH6 0xFFFFFFFFFFFF AND PUSH6 0xFFFFFFFFFFFF AND DUP2 MSTORE PUSH1 0x20 ADD PUSH1 0x1 DUP3 ADD PUSH1 0x6 SWAP1 SLOAD SWAP1 PUSH2 0x100 EXP SWAP1 DIV PUSH6 0xFFFFFFFFFFFF AND PUSH6 0xFFFFFFFFFFFF AND PUSH6 0xFFFFFFFFFFFF AND DUP2 MSTORE PUSH1 0x20 ADD PUSH1 0x1 DUP3 ADD PUSH1 0xC SWAP1 SLOAD SWAP1 PUSH2 0x100 EXP SWAP1 DIV PUSH20 0xFFFFFFFFFFFFFFFFFFFFFFFFFFFFFFFFFFFFFFFF AND PUSH20 0xFFFFFFFFFFFFFFFFFFFFFFFFFFFFFFFFFFFFFFFF AND PUSH20 0xFFFFFFFFFFFFFFFFFFFFFFFFFFFFFFFFFFFFFFFF AND DUP2 MSTORE PUSH1 0x20 ADD PUSH1 0x2 DUP3 ADD SLOAD DUP2 MSTORE PUSH1 0x20 ADD PUSH1 0x3 DUP3 ADD SLOAD DUP2 MSTORE PUSH1 0x20 ADD PUSH1 0x4 DUP3 ADD PUSH0 SWAP1 SLOAD SWAP1 PUSH2 0x100 EXP SWAP1 DIV PUSH1 0xFF AND ISZERO ISZERO ISZERO ISZERO DUP2 MSTORE POP POP DUP3 DUP7 DUP4 PUSH2 0xE44 SWAP2 SWAP1 PUSH2 0x2AA2 JUMP JUMPDEST PUSH12 0xFFFFFFFFFFFFFFFFFFFFFFFF AND DUP2 MLOAD DUP2 LT PUSH2 0xE63 JUMPI PUSH2 0xE62 PUSH2 0x26F9 JUMP JUMPDEST JUMPDEST PUSH1 0x20 MUL PUSH1 0x20 ADD ADD DUP2 SWAP1 MSTORE POP DUP1 DUP1 PUSH2 0xE79 SWAP1 PUSH2 0x2786 JUMP JUMPDEST SWAP2 POP POP PUSH2 0xC6E JUMP JUMPDEST POP DUP1 SWAP2 POP POP SWAP3 SWAP2 POP POP JUMP JUMPDEST PUSH0 PUSH1 0x14 SWAP1 SLOAD SWAP1 PUSH2 0x100 EXP SWAP1 DIV PUSH12 0xFFFFFFFFFFFFFFFFFFFFFFFF AND DUP2 JUMP JUMPDEST PUSH0 DUP1 PUSH1 0x14 SWAP1 SLOAD SWAP1 PUSH2 0x100 EXP SWAP1 DIV PUSH12 0xFFFFFFFFFFFFFFFFFFFFFFFF AND PUSH12 0xFFFFFFFFFFFFFFFFFFFFFFFF AND DUP3 PUSH12 0xFFFFFFFFFFFFFFFFFFFFFFFF AND LT PUSH2 0xF21 JUMPI PUSH1 0x40 MLOAD PUSH32 0x8C379A000000000000000000000000000000000000000000000000000000000 DUP2 MSTORE PUSH1 0x4 ADD PUSH2 0xF18 SWAP1 PUSH2 0x2B2B JUMP JUMPDEST PUSH1 0x40 MLOAD DUP1 SWAP2 SUB SWAP1 REVERT JUMPDEST PUSH1 0x1 PUSH0 DUP4 PUSH12 0xFFFFFFFFFFFFFFFFFFFFFFFF AND PUSH12 0xFFFFFFFFFFFFFFFFFFFFFFFF AND DUP2 MSTORE PUSH1 0x20 ADD SWAP1 DUP2 MSTORE PUSH1 0x20 ADD PUSH0 KECCAK256 PUSH1 0x1 ADD PUSH1 0xC SWAP1 SLOAD SWAP1 PUSH2 0x100 EXP SWAP1 DIV PUSH20 0xFFFFFFFFFFFFFFFFFFFFFFFFFFFFFFFFFFFFFFFF AND SWAP1 POP SWAP2 SWAP1 POP JUMP JUMPDEST PUSH1 0x3 PUSH1 0x20 MSTORE DUP3 PUSH0 MSTORE PUSH1 0x40 PUSH0 KECCAK256 PUSH1 0x20 MSTORE DUP2 PUSH0 MSTORE PUSH1 0x40 PUSH0 KECCAK256 DUP2 DUP2 SLOAD DUP2 LT PUSH2 0xF9C JUMPI PUSH0 DUP1 REVERT JUMPDEST SWAP1 PUSH0 MSTORE PUSH1 0x20 PUSH0 KECCAK256 SWAP1 PUSH1 0x2 MUL ADD PUSH0 SWAP3 POP SWAP3 POP POP POP DUP1 PUSH0 ADD PUSH0 SWAP1 SLOAD SWAP1 PUSH2 0x100 EXP SWAP1 DIV PUSH20 0xFFFFFFFFFFFFFFFFFFFFFFFFFFFFFFFFFFFFFFFF AND SWAP1 DUP1 PUSH0 ADD PUSH1 0x14 SWAP1 SLOAD SWAP1 PUSH2 0x100 EXP SWAP1 DIV PUSH12 0xFFFFFFFFFFFFFFFFFFFFFFFF AND SWAP1 DUP1 PUSH1 0x1 ADD SLOAD SWAP1 POP DUP4 JUMP JUMPDEST PUSH2 0x1005 DUP4 DUP4 DUP4 PUSH2 0x1526 JUMP JUMPDEST PUSH2 0x100E DUP3 PUSH2 0x1A7F JUMP JUMPDEST POP POP POP JUMP JUMPDEST PUSH0 PUSH4 0xBC197C81 PUSH1 0xE0 SHL SWAP1 POP SWAP6 SWAP5 POP POP POP POP POP JUMP JUMPDEST PUSH0 PUSH1 0x1 PUSH0 DUP7 PUSH12 0xFFFFFFFFFFFFFFFFFFFFFFFF AND PUSH12 0xFFFFFFFFFFFFFFFFFFFFFFFF AND DUP2 MSTORE PUSH1 0x20 ADD SWAP1 DUP2 MSTORE PUSH1 0x20 ADD PUSH0 KECCAK256 PUSH1 0x40 MLOAD DUP1 PUSH2 0x100 ADD PUSH1 0x40 MSTORE SWAP1 DUP2 PUSH0 DUP3 ADD PUSH0 SWAP1 SLOAD SWAP1 PUSH2 0x100 EXP SWAP1 DIV PUSH12 0xFFFFFFFFFFFFFFFFFFFFFFFF AND PUSH12 0xFFFFFFFFFFFFFFFFFFFFFFFF AND PUSH12 0xFFFFFFFFFFFFFFFFFFFFFFFF AND DUP2 MSTORE PUSH1 0x20 ADD PUSH0 DUP3 ADD PUSH1 0xC SWAP1 SLOAD SWAP1 PUSH2 0x100 EXP SWAP1 DIV PUSH20 0xFFFFFFFFFFFFFFFFFFFFFFFFFFFFFFFFFFFFFFFF AND PUSH20 0xFFFFFFFFFFFFFFFFFFFFFFFFFFFFFFFFFFFFFFFF AND PUSH20 0xFFFFFFFFFFFFFFFFFFFFFFFFFFFFFFFFFFFFFFFF AND DUP2 MSTORE PUSH1 0x20 ADD PUSH1 0x1 DUP3 ADD PUSH0 SWAP1 SLOAD SWAP1 PUSH2 0x100 EXP SWAP1 DIV PUSH6 0xFFFFFFFFFFFF AND PUSH6 0xFFFFFFFFFFFF AND PUSH6 0xFFFFFFFFFFFF AND DUP2 MSTORE PUSH1 0x20 ADD PUSH1 0x1 DUP3 ADD PUSH1 0x6 SWAP1 SLOAD SWAP1 PUSH2 0x100 EXP SWAP1 DIV PUSH6 0xFFFFFFFFFFFF AND PUSH6 0xFFFFFFFFFFFF AND PUSH6 0xFFFFFFFFFFFF AND DUP2 MSTORE PUSH1 0x20 ADD PUSH1 0x1 DUP3 ADD PUSH1 0xC SWAP1 SLOAD SWAP1 PUSH2 0x100 EXP SWAP1 DIV PUSH20 0xFFFFFFFFFFFFFFFFFFFFFFFFFFFFFFFFFFFFFFFF AND PUSH20 0xFFFFFFFFFFFFFFFFFFFFFFFFFFFFFFFFFFFFFFFF AND PUSH20 0xFFFFFFFFFFFFFFFFFFFFFFFFFFFFFFFFFFFFFFFF AND DUP2 MSTORE PUSH1 0x20 ADD PUSH1 0x2 DUP3 ADD SLOAD DUP2 MSTORE PUSH1 0x20 ADD PUSH1 0x3 DUP3 ADD SLOAD DUP2 MSTORE PUSH1 0x20 ADD PUSH1 0x4 DUP3 ADD PUSH0 SWAP1 SLOAD SWAP1 PUSH2 0x100 EXP SWAP1 DIV PUSH1 0xFF AND ISZERO ISZERO ISZERO ISZERO DUP2 MSTORE POP POP SWAP1 POP DUP1 PUSH1 0x20 ADD MLOAD PUSH20 0xFFFFFFFFFFFFFFFFFFFFFFFFFFFFFFFFFFFFFFFF AND CALLER PUSH20 0xFFFFFFFFFFFFFFFFFFFFFFFFFFFFFFFFFFFFFFFF AND EQ PUSH2 0x1241 JUMPI PUSH1 0x40 MLOAD PUSH32 0x8C379A000000000000000000000000000000000000000000000000000000000 DUP2 MSTORE PUSH1 0x4 ADD PUSH2 0x1238 SWAP1 PUSH2 0x2B93 JUMP JUMPDEST PUSH1 0x40 MLOAD DUP1 SWAP2 SUB SWAP1 REVERT JUMPDEST PUSH1 0x40 MLOAD DUP1 PUSH2 0x100 ADD PUSH1 0x40 MSTORE DUP1 DUP7 PUSH12 0xFFFFFFFFFFFFFFFFFFFFFFFF AND DUP2 MSTORE PUSH1 0x20 ADD DUP6 PUSH20 0xFFFFFFFFFFFFFFFFFFFFFFFFFFFFFFFFFFFFFFFF AND DUP2 MSTORE PUSH1 0x20 ADD DUP3 PUSH1 0x40 ADD MLOAD PUSH6 0xFFFFFFFFFFFF AND DUP2 MSTORE PUSH1 0x20 ADD TIMESTAMP PUSH6 0xFFFFFFFFFFFF AND DUP2 MSTORE PUSH1 0x20 ADD DUP5 PUSH20 0xFFFFFFFFFFFFFFFFFFFFFFFFFFFFFFFFFFFFFFFF AND DUP2 MSTORE PUSH1 0x20 ADD DUP4 DUP2 MSTORE PUSH1 0x20 ADD DUP3 PUSH1 0xC0 ADD MLOAD DUP2 MSTORE PUSH1 0x20 ADD DUP3 PUSH1 0xE0 ADD MLOAD ISZERO ISZERO DUP2 MSTORE POP PUSH1 0x1 PUSH0 DUP8 PUSH12 0xFFFFFFFFFFFFFFFFFFFFFFFF AND PUSH12 0xFFFFFFFFFFFFFFFFFFFFFFFF AND DUP2 MSTORE PUSH1 0x20 ADD SWAP1 DUP2 MSTORE PUSH1 0x20 ADD PUSH0 KECCAK256 PUSH0 DUP3 ADD MLOAD DUP2 PUSH0 ADD PUSH0 PUSH2 0x100 EXP DUP2 SLOAD DUP2 PUSH12 0xFFFFFFFFFFFFFFFFFFFFFFFF MUL NOT AND SWAP1 DUP4 PUSH12 0xFFFFFFFFFFFFFFFFFFFFFFFF AND MUL OR SWAP1 SSTORE POP PUSH1 0x20 DUP3 ADD MLOAD DUP2 PUSH0 ADD PUSH1 0xC PUSH2 0x100 EXP DUP2 SLOAD DUP2 PUSH20 0xFFFFFFFFFFFFFFFFFFFFFFFFFFFFFFFFFFFFFFFF MUL NOT AND SWAP1 DUP4 PUSH20 0xFFFFFFFFFFFFFFFFFFFFFFFFFFFFFFFFFFFFFFFF AND MUL OR SWAP1 SSTORE POP PUSH1 0x40 DUP3 ADD MLOAD DUP2 PUSH1 0x1 ADD PUSH0 PUSH2 0x100 EXP DUP2 SLOAD DUP2 PUSH6 0xFFFFFFFFFFFF MUL NOT AND SWAP1 DUP4 PUSH6 0xFFFFFFFFFFFF AND MUL OR SWAP1 SSTORE POP PUSH1 0x60 DUP3 ADD MLOAD DUP2 PUSH1 0x1 ADD PUSH1 0x6 PUSH2 0x100 EXP DUP2 SLOAD DUP2 PUSH6 0xFFFFFFFFFFFF MUL NOT AND SWAP1 DUP4 PUSH6 0xFFFFFFFFFFFF AND MUL OR SWAP1 SSTORE POP PUSH1 0x80 DUP3 ADD MLOAD DUP2 PUSH1 0x1 ADD PUSH1 0xC PUSH2 0x100 EXP DUP2 SLOAD DUP2 PUSH20 0xFFFFFFFFFFFFFFFFFFFFFFFFFFFFFFFFFFFFFFFF MUL NOT AND SWAP1 DUP4 PUSH20 0xFFFFFFFFFFFFFFFFFFFFFFFFFFFFFFFFFFFFFFFF AND MUL OR SWAP1 SSTORE POP PUSH1 0xA0 DUP3 ADD MLOAD DUP2 PUSH1 0x2 ADD SSTORE PUSH1 0xC0 DUP3 ADD MLOAD DUP2 PUSH1 0x3 ADD SSTORE PUSH1 0xE0 DUP3 ADD MLOAD DUP2 PUSH1 0x4 ADD PUSH0 PUSH2 0x100 EXP DUP2 SLOAD DUP2 PUSH1 0xFF MUL NOT AND SWAP1 DUP4 ISZERO ISZERO MUL OR SWAP1 SSTORE POP SWAP1 POP POP DUP1 PUSH1 0xC0 ADD MLOAD DUP3 DUP7 PUSH12 0xFFFFFFFFFFFFFFFFFFFFFFFF AND PUSH32 0x603E97A48F8CADD1E9020BF96470C32853C5D9D8ED30F7CBE961F12AD2A45FA0 DUP8 DUP8 DUP7 PUSH1 0xE0 ADD MLOAD TIMESTAMP PUSH1 0x40 MLOAD PUSH2 0x149A SWAP5 SWAP4 SWAP3 SWAP2 SWAP1 PUSH2 0x2940 JUMP JUMPDEST PUSH1 0x40 MLOAD DUP1 SWAP2 SUB SWAP1 LOG4 POP POP POP POP POP JUMP JUMPDEST PUSH0 PUSH4 0xF23A6E61 PUSH1 0xE0 SHL SWAP1 POP SWAP6 SWAP5 POP POP POP POP POP JUMP JUMPDEST PUSH0 PUSH32 0x1FFC9A700000000000000000000000000000000000000000000000000000000 PUSH28 0xFFFFFFFFFFFFFFFFFFFFFFFFFFFFFFFFFFFFFFFFFFFFFFFFFFFFFFFF NOT AND DUP3 PUSH28 0xFFFFFFFFFFFFFFFFFFFFFFFFFFFFFFFFFFFFFFFFFFFFFFFFFFFFFFFF NOT AND EQ SWAP1 POP SWAP2 SWAP1 POP JUMP JUMPDEST DUP1 PUSH0 DUP1 SLOAD SWAP1 PUSH2 0x100 EXP SWAP1 DIV PUSH20 0xFFFFFFFFFFFFFFFFFFFFFFFFFFFFFFFFFFFFFFFF AND PUSH20 0xFFFFFFFFFFFFFFFFFFFFFFFFFFFFFFFFFFFFFFFF AND PUSH3 0xFDD58E DUP6 PUSH0 PUSH1 0x40 MLOAD DUP4 PUSH4 0xFFFFFFFF AND PUSH1 0xE0 SHL DUP2 MSTORE PUSH1 0x4 ADD PUSH2 0x1580 SWAP3 SWAP2 SWAP1 PUSH2 0x2BEA JUMP JUMPDEST PUSH1 0x20 PUSH1 0x40 MLOAD DUP1 DUP4 SUB DUP2 DUP7 GAS STATICCALL ISZERO DUP1 ISZERO PUSH2 0x159B JUMPI RETURNDATASIZE PUSH0 DUP1 RETURNDATACOPY RETURNDATASIZE PUSH0 REVERT JUMPDEST POP POP POP POP PUSH1 0x40 MLOAD RETURNDATASIZE PUSH1 0x1F NOT PUSH1 0x1F DUP3 ADD AND DUP3 ADD DUP1 PUSH1 0x40 MSTORE POP DUP2 ADD SWAP1 PUSH2 0x15BF SWAP2 SWAP1 PUSH2 0x2C25 JUMP JUMPDEST GT PUSH2 0x15FF JUMPI PUSH1 0x40 MLOAD PUSH32 0x8C379A000000000000000000000000000000000000000000000000000000000 DUP2 MSTORE PUSH1 0x4 ADD PUSH2 0x15F6 SWAP1 PUSH2 0x2CC0 JUMP JUMPDEST PUSH1 0x40 MLOAD DUP1 SWAP2 SUB SWAP1 REVERT JUMPDEST PUSH0 DUP1 SLOAD SWAP1 PUSH2 0x100 EXP SWAP1 DIV PUSH20 0xFFFFFFFFFFFFFFFFFFFFFFFFFFFFFFFFFFFFFFFF AND PUSH20 0xFFFFFFFFFFFFFFFFFFFFFFFFFFFFFFFFFFFFFFFF AND PUSH4 0xE985E9C5 DUP5 ADDRESS PUSH1 0x40 MLOAD DUP4 PUSH4 0xFFFFFFFF AND PUSH1 0xE0 SHL DUP2 MSTORE PUSH1 0x4 ADD PUSH2 0x1659 SWAP3 SWAP2 SWAP1 PUSH2 0x2CDE JUMP JUMPDEST PUSH1 0x20 PUSH1 0x40 MLOAD DUP1 DUP4 SUB DUP2 DUP7 GAS STATICCALL ISZERO DUP1 ISZERO PUSH2 0x1674 JUMPI RETURNDATASIZE PUSH0 DUP1 RETURNDATACOPY RETURNDATASIZE PUSH0 REVERT JUMPDEST POP POP POP POP PUSH1 0x40 MLOAD RETURNDATASIZE PUSH1 0x1F NOT PUSH1 0x1F DUP3 ADD AND DUP3 ADD DUP1 PUSH1 0x40 MSTORE POP DUP2 ADD SWAP1 PUSH2 0x1698 SWAP2 SWAP1 PUSH2 0x2D2F JUMP JUMPDEST PUSH2 0x16D7 JUMPI PUSH1 0x40 MLOAD PUSH32 0x8C379A000000000000000000000000000000000000000000000000000000000 DUP2 MSTORE PUSH1 0x4 ADD PUSH2 0x16CE SWAP1 PUSH2 0x2DA4 JUMP JUMPDEST PUSH1 0x40 MLOAD DUP1 SWAP2 SUB SWAP1 REVERT JUMPDEST PUSH0 DUP1 SLOAD SWAP1 PUSH2 0x100 EXP SWAP1 DIV PUSH20 0xFFFFFFFFFFFFFFFFFFFFFFFFFFFFFFFFFFFFFFFF AND PUSH20 0xFFFFFFFFFFFFFFFFFFFFFFFFFFFFFFFFFFFFFFFF AND PUSH4 0xF242432A DUP5 ADDRESS PUSH0 DUP6 PUSH1 0x40 MLOAD DUP6 PUSH4 0xFFFFFFFF AND PUSH1 0xE0 SHL DUP2 MSTORE PUSH1 0x4 ADD PUSH2 0x1735 SWAP5 SWAP4 SWAP3 SWAP2 SWAP1 PUSH2 0x2DC2 JUMP JUMPDEST PUSH0 PUSH1 0x40 MLOAD DUP1 DUP4 SUB DUP2 PUSH0 DUP8 DUP1 EXTCODESIZE ISZERO DUP1 ISZERO PUSH2 0x174C JUMPI PUSH0 DUP1 REVERT JUMPDEST POP GAS CALL ISZERO DUP1 ISZERO PUSH2 0x175E JUMPI RETURNDATASIZE PUSH0 DUP1 RETURNDATACOPY RETURNDATASIZE PUSH0 REVERT JUMPDEST POP POP POP POP PUSH0 PUSH1 0x40 MLOAD DUP1 PUSH1 0x60 ADD PUSH1 0x40 MSTORE DUP1 DUP6 PUSH20 0xFFFFFFFFFFFFFFFFFFFFFFFFFFFFFFFFFFFFFFFF AND DUP2 MSTORE PUSH1 0x20 ADD DUP5 PUSH12 0xFFFFFFFFFFFFFFFFFFFFFFFF AND DUP2 MSTORE PUSH1 0x20 ADD DUP4 DUP2 MSTORE POP SWAP1 POP PUSH1 0x3 PUSH0 DUP5 PUSH12 0xFFFFFFFFFFFFFFFFFFFFFFFF AND PUSH12 0xFFFFFFFFFFFFFFFFFFFFFFFF AND DUP2 MSTORE PUSH1 0x20 ADD SWAP1 DUP2 MSTORE PUSH1 0x20 ADD PUSH0 KECCAK256 PUSH0 DUP6 PUSH20 0xFFFFFFFFFFFFFFFFFFFFFFFFFFFFFFFFFFFFFFFF AND PUSH20 0xFFFFFFFFFFFFFFFFFFFFFFFFFFFFFFFFFFFFFFFF AND DUP2 MSTORE PUSH1 0x20 ADD SWAP1 DUP2 MSTORE PUSH1 0x20 ADD PUSH0 KECCAK256 DUP2 SWAP1 DUP1 PUSH1 0x1 DUP2 SLOAD ADD DUP1 DUP3 SSTORE DUP1 SWAP2 POP POP PUSH1 0x1 SWAP1 SUB SWAP1 PUSH0 MSTORE PUSH1 0x20 PUSH0 KECCAK256 SWAP1 PUSH1 0x2 MUL ADD PUSH0 SWAP1 SWAP2 SWAP1 SWAP2 SWAP1 SWAP2 POP PUSH0 DUP3 ADD MLOAD DUP2 PUSH0 ADD PUSH0 PUSH2 0x100 EXP DUP2 SLOAD DUP2 PUSH20 0xFFFFFFFFFFFFFFFFFFFFFFFFFFFFFFFFFFFFFFFF MUL NOT AND SWAP1 DUP4 PUSH20 0xFFFFFFFFFFFFFFFFFFFFFFFFFFFFFFFFFFFFFFFF AND MUL OR SWAP1 SSTORE POP PUSH1 0x20 DUP3 ADD MLOAD DUP2 PUSH0 ADD PUSH1 0x14 PUSH2 0x100 EXP DUP2 SLOAD DUP2 PUSH12 0xFFFFFFFFFFFFFFFFFFFFFFFF MUL NOT AND SWAP1 DUP4 PUSH12 0xFFFFFFFFFFFFFFFFFFFFFFFF AND MUL OR SWAP1 SSTORE POP PUSH1 0x40 DUP3 ADD MLOAD DUP2 PUSH1 0x1 ADD SSTORE POP POP DUP2 PUSH1 0x1 PUSH0 DUP6 PUSH12 0xFFFFFFFFFFFFFFFFFFFFFFFF AND PUSH12 0xFFFFFFFFFFFFFFFFFFFFFFFF AND DUP2 MSTORE PUSH1 0x20 ADD SWAP1 DUP2 MSTORE PUSH1 0x20 ADD PUSH0 KECCAK256 PUSH1 0x3 ADD SLOAD PUSH2 0x18F5 SWAP2 SWAP1 PUSH2 0x2753 JUMP JUMPDEST PUSH1 0x1 PUSH0 DUP6 PUSH12 0xFFFFFFFFFFFFFFFFFFFFFFFF AND PUSH12 0xFFFFFFFFFFFFFFFFFFFFFFFF AND DUP2 MSTORE PUSH1 0x20 ADD SWAP1 DUP2 MSTORE PUSH1 0x20 ADD PUSH0 KECCAK256 PUSH1 0x3 ADD DUP2 SWAP1 SSTORE POP PUSH0 PUSH1 0x2 PUSH0 DUP6 PUSH12 0xFFFFFFFFFFFFFFFFFFFFFFFF AND PUSH12 0xFFFFFFFFFFFFFFFFFFFFFFFF AND DUP2 MSTORE PUSH1 0x20 ADD SWAP1 DUP2 MSTORE PUSH1 0x20 ADD PUSH0 KECCAK256 SWAP1 POP PUSH0 PUSH1 0x1 SWAP1 POP PUSH0 JUMPDEST DUP3 DUP1 SLOAD SWAP1 POP DUP2 PUSH12 0xFFFFFFFFFFFFFFFFFFFFFFFF AND LT ISZERO PUSH2 0x1A10 JUMPI DUP7 PUSH20 0xFFFFFFFFFFFFFFFFFFFFFFFFFFFFFFFFFFFFFFFF AND DUP4 DUP3 PUSH12 0xFFFFFFFFFFFFFFFFFFFFFFFF AND DUP2 SLOAD DUP2 LT PUSH2 0x19B2 JUMPI PUSH2 0x19B1 PUSH2 0x26F9 JUMP JUMPDEST JUMPDEST SWAP1 PUSH0 MSTORE PUSH1 0x20 PUSH0 KECCAK256 ADD PUSH0 SWAP1 SLOAD SWAP1 PUSH2 0x100 EXP SWAP1 DIV PUSH20 0xFFFFFFFFFFFFFFFFFFFFFFFFFFFFFFFFFFFFFFFF AND PUSH20 0xFFFFFFFFFFFFFFFFFFFFFFFFFFFFFFFFFFFFFFFF AND SUB PUSH2 0x19FD JUMPI PUSH0 SWAP2 POP PUSH2 0x1A10 JUMP JUMPDEST DUP1 DUP1 PUSH2 0x1A08 SWAP1 PUSH2 0x2786 JUMP JUMPDEST SWAP2 POP POP PUSH2 0x1960 JUMP JUMPDEST POP DUP1 ISZERO PUSH2 0x1A77 JUMPI DUP2 DUP7 SWAP1 DUP1 PUSH1 0x1 DUP2 SLOAD ADD DUP1 DUP3 SSTORE DUP1 SWAP2 POP POP PUSH1 0x1 SWAP1 SUB SWAP1 PUSH0 MSTORE PUSH1 0x20 PUSH0 KECCAK256 ADD PUSH0 SWAP1 SWAP2 SWAP1 SWAP2 SWAP1 SWAP2 PUSH2 0x100 EXP DUP2 SLOAD DUP2 PUSH20 0xFFFFFFFFFFFFFFFFFFFFFFFFFFFFFFFFFFFFFFFF MUL NOT AND SWAP1 DUP4 PUSH20 0xFFFFFFFFFFFFFFFFFFFFFFFFFFFFFFFFFFFFFFFF AND MUL OR SWAP1 SSTORE POP JUMPDEST POP POP POP POP POP POP JUMP JUMPDEST PUSH1 0x1 PUSH0 DUP3 PUSH12 0xFFFFFFFFFFFFFFFFFFFFFFFF AND PUSH12 0xFFFFFFFFFFFFFFFFFFFFFFFF AND DUP2 MSTORE PUSH1 0x20 ADD SWAP1 DUP2 MSTORE PUSH1 0x20 ADD PUSH0 KECCAK256 PUSH1 0x3 ADD SLOAD PUSH1 0x1 PUSH0 DUP4 PUSH12 0xFFFFFFFFFFFFFFFFFFFFFFFF AND PUSH12 0xFFFFFFFFFFFFFFFFFFFFFFFF AND DUP2 MSTORE PUSH1 0x20 ADD SWAP1 DUP2 MSTORE PUSH1 0x20 ADD PUSH0 KECCAK256 PUSH1 0x2 ADD SLOAD LT ISZERO PUSH2 0x1C76 JUMPI PUSH0 DUP1 SLOAD SWAP1 PUSH2 0x100 EXP SWAP1 DIV PUSH20 0xFFFFFFFFFFFFFFFFFFFFFFFFFFFFFFFFFFFFFFFF AND PUSH20 0xFFFFFFFFFFFFFFFFFFFFFFFFFFFFFFFFFFFFFFFF AND PUSH4 0xF242432A ADDRESS PUSH2 0x1B2C DUP5 PUSH2 0xEA9 JUMP JUMPDEST PUSH0 PUSH1 0x1 PUSH0 DUP8 PUSH12 0xFFFFFFFFFFFFFFFFFFFFFFFF AND PUSH12 0xFFFFFFFFFFFFFFFFFFFFFFFF AND DUP2 MSTORE PUSH1 0x20 ADD SWAP1 DUP2 MSTORE PUSH1 0x20 ADD PUSH0 KECCAK256 PUSH1 0x3 ADD SLOAD PUSH1 0x40 MLOAD DUP6 PUSH4 0xFFFFFFFF AND PUSH1 0xE0 SHL DUP2 MSTORE PUSH1 0x4 ADD PUSH2 0x1B7D SWAP5 SWAP4 SWAP3 SWAP2 SWAP1 PUSH2 0x2DC2 JUMP JUMPDEST PUSH0 PUSH1 0x40 MLOAD DUP1 DUP4 SUB DUP2 PUSH0 DUP8 DUP1 EXTCODESIZE ISZERO DUP1 ISZERO PUSH2 0x1B94 JUMPI PUSH0 DUP1 REVERT JUMPDEST POP GAS CALL ISZERO DUP1 ISZERO PUSH2 0x1BA6 JUMPI RETURNDATASIZE PUSH0 DUP1 RETURNDATACOPY RETURNDATASIZE PUSH0 REVERT JUMPDEST POP POP POP POP DUP1 PUSH12 0xFFFFFFFFFFFFFFFFFFFFFFFF AND PUSH32 0xCD79837F8E8F598DE24EF07EA60108DF97918F95CFC31D1D61FF9FA09C240352 PUSH1 0x1 PUSH0 DUP5 PUSH12 0xFFFFFFFFFFFFFFFFFFFFFFFF AND PUSH12 0xFFFFFFFFFFFFFFFFFFFFFFFF AND DUP2 MSTORE PUSH1 0x20 ADD SWAP1 DUP2 MSTORE PUSH1 0x20 ADD PUSH0 KECCAK256 PUSH1 0x3 ADD SLOAD TIMESTAMP PUSH1 0x40 MLOAD PUSH2 0x1C1A SWAP3 SWAP2 SWAP1 PUSH2 0x2E18 JUMP JUMPDEST PUSH1 0x40 MLOAD DUP1 SWAP2 SUB SWAP1 LOG2 PUSH1 0x1 DUP1 PUSH0 DUP4 PUSH12 0xFFFFFFFFFFFFFFFFFFFFFFFF AND PUSH12 0xFFFFFFFFFFFFFFFFFFFFFFFF AND DUP2 MSTORE PUSH1 0x20 ADD SWAP1 DUP2 MSTORE PUSH1 0x20 ADD PUSH0 KECCAK256 PUSH1 0x4 ADD PUSH0 PUSH2 0x100 EXP DUP2 SLOAD DUP2 PUSH1 0xFF MUL NOT AND SWAP1 DUP4 ISZERO ISZERO MUL OR SWAP1 SSTORE POP PUSH2 0x1C75 DUP2 PUSH2 0x3E8 PUSH2 0x39A JUMP JUMPDEST JUMPDEST POP JUMP JUMPDEST PUSH1 0x40 MLOAD DUP1 PUSH2 0x100 ADD PUSH1 0x40 MSTORE DUP1 PUSH0 PUSH12 0xFFFFFFFFFFFFFFFFFFFFFFFF AND DUP2 MSTORE PUSH1 0x20 ADD PUSH0 PUSH20 0xFFFFFFFFFFFFFFFFFFFFFFFFFFFFFFFFFFFFFFFF AND DUP2 MSTORE PUSH1 0x20 ADD PUSH0 PUSH6 0xFFFFFFFFFFFF AND DUP2 MSTORE PUSH1 0x20 ADD PUSH0 PUSH6 0xFFFFFFFFFFFF AND DUP2 MSTORE PUSH1 0x20 ADD PUSH0 PUSH20 0xFFFFFFFFFFFFFFFFFFFFFFFFFFFFFFFFFFFFFFFF AND DUP2 MSTORE PUSH1 0x20 ADD PUSH0 DUP2 MSTORE PUSH1 0x20 ADD PUSH0 DUP2 MSTORE PUSH1 0x20 ADD PUSH0 ISZERO ISZERO DUP2 MSTORE POP SWAP1 JUMP JUMPDEST PUSH0 PUSH1 0x40 MLOAD SWAP1 POP SWAP1 JUMP JUMPDEST PUSH0 DUP1 REVERT JUMPDEST PUSH0 DUP1 REVERT JUMPDEST PUSH0 PUSH32 0xFFFFFFFF00000000000000000000000000000000000000000000000000000000 DUP3 AND SWAP1 POP SWAP2 SWAP1 POP JUMP JUMPDEST PUSH2 0x1D47 DUP2 PUSH2 0x1D13 JUMP JUMPDEST DUP2 EQ PUSH2 0x1D51 JUMPI PUSH0 DUP1 REVERT JUMPDEST POP JUMP JUMPDEST PUSH0 DUP2 CALLDATALOAD SWAP1 POP PUSH2 0x1D62 DUP2 PUSH2 0x1D3E JUMP JUMPDEST SWAP3 SWAP2 POP POP JUMP JUMPDEST PUSH0 PUSH1 0x20 DUP3 DUP5 SUB SLT ISZERO PUSH2 0x1D7D JUMPI PUSH2 0x1D7C PUSH2 0x1D0B JUMP JUMPDEST JUMPDEST PUSH0 PUSH2 0x1D8A DUP5 DUP3 DUP6 ADD PUSH2 0x1D54 JUMP JUMPDEST SWAP2 POP POP SWAP3 SWAP2 POP POP JUMP JUMPDEST PUSH0 DUP2 ISZERO ISZERO SWAP1 POP SWAP2 SWAP1 POP JUMP JUMPDEST PUSH2 0x1DA7 DUP2 PUSH2 0x1D93 JUMP JUMPDEST DUP3 MSTORE POP POP JUMP JUMPDEST PUSH0 PUSH1 0x20 DUP3 ADD SWAP1 POP PUSH2 0x1DC0 PUSH0 DUP4 ADD DUP5 PUSH2 0x1D9E JUMP JUMPDEST SWAP3 SWAP2 POP POP JUMP JUMPDEST PUSH0 PUSH12 0xFFFFFFFFFFFFFFFFFFFFFFFF DUP3 AND SWAP1 POP SWAP2 SWAP1 POP JUMP JUMPDEST PUSH2 0x1DE6 DUP2 PUSH2 0x1DC6 JUMP JUMPDEST DUP2 EQ PUSH2 0x1DF0 JUMPI PUSH0 DUP1 REVERT JUMPDEST POP JUMP JUMPDEST PUSH0 DUP2 CALLDATALOAD SWAP1 POP PUSH2 0x1E01 DUP2 PUSH2 0x1DDD JUMP JUMPDEST SWAP3 SWAP2 POP POP JUMP JUMPDEST PUSH0 DUP1 PUSH1 0x40 DUP4 DUP6 SUB SLT ISZERO PUSH2 0x1E1D JUMPI PUSH2 0x1E1C PUSH2 0x1D0B JUMP JUMPDEST JUMPDEST PUSH0 PUSH2 0x1E2A DUP6 DUP3 DUP7 ADD PUSH2 0x1DF3 JUMP JUMPDEST SWAP3 POP POP PUSH1 0x20 PUSH2 0x1E3B DUP6 DUP3 DUP7 ADD PUSH2 0x1DF3 JUMP JUMPDEST SWAP2 POP POP SWAP3 POP SWAP3 SWAP1 POP JUMP JUMPDEST PUSH0 PUSH20 0xFFFFFFFFFFFFFFFFFFFFFFFFFFFFFFFFFFFFFFFF DUP3 AND SWAP1 POP SWAP2 SWAP1 POP JUMP JUMPDEST PUSH0 PUSH2 0x1E6E DUP3 PUSH2 0x1E45 JUMP JUMPDEST SWAP1 POP SWAP2 SWAP1 POP JUMP JUMPDEST PUSH2 0x1E7E DUP2 PUSH2 0x1E64 JUMP JUMPDEST DUP2 EQ PUSH2 0x1E88 JUMPI PUSH0 DUP1 REVERT JUMPDEST POP JUMP JUMPDEST PUSH0 DUP2 CALLDATALOAD SWAP1 POP PUSH2 0x1E99 DUP2 PUSH2 0x1E75 JUMP JUMPDEST SWAP3 SWAP2 POP POP JUMP JUMPDEST PUSH0 DUP2 SWAP1 POP SWAP2 SWAP1 POP JUMP JUMPDEST PUSH2 0x1EB1 DUP2 PUSH2 0x1E9F JUMP JUMPDEST DUP2 EQ PUSH2 0x1EBB JUMPI PUSH0 DUP1 REVERT JUMPDEST POP JUMP JUMPDEST PUSH0 DUP2 CALLDATALOAD SWAP1 POP PUSH2 0x1ECC DUP2 PUSH2 0x1EA8 JUMP JUMPDEST SWAP3 SWAP2 POP POP JUMP JUMPDEST PUSH0 DUP1 PUSH0 PUSH1 0x60 DUP5 DUP7 SUB SLT ISZERO PUSH2 0x1EE9 JUMPI PUSH2 0x1EE8 PUSH2 0x1D0B JUMP JUMPDEST JUMPDEST PUSH0 PUSH2 0x1EF6 DUP7 DUP3 DUP8 ADD PUSH2 0x1E8B JUMP JUMPDEST SWAP4 POP POP PUSH1 0x20 PUSH2 0x1F07 DUP7 DUP3 DUP8 ADD PUSH2 0x1E8B JUMP JUMPDEST SWAP3 POP POP PUSH1 0x40 PUSH2 0x1F18 DUP7 DUP3 DUP8 ADD PUSH2 0x1EBE JUMP JUMPDEST SWAP2 POP POP SWAP3 POP SWAP3 POP SWAP3 JUMP JUMPDEST PUSH0 DUP2 MLOAD SWAP1 POP SWAP2 SWAP1 POP JUMP JUMPDEST PUSH0 DUP3 DUP3 MSTORE PUSH1 0x20 DUP3 ADD SWAP1 POP SWAP3 SWAP2 POP POP JUMP JUMPDEST PUSH0 DUP2 SWAP1 POP PUSH1 0x20 DUP3 ADD SWAP1 POP SWAP2 SWAP1 POP JUMP JUMPDEST PUSH2 0x1F54 DUP2 PUSH2 0x1DC6 JUMP JUMPDEST DUP3 MSTORE POP POP JUMP JUMPDEST PUSH2 0x1F63 DUP2 PUSH2 0x1E64 JUMP JUMPDEST DUP3 MSTORE POP POP JUMP JUMPDEST PUSH0 PUSH6 0xFFFFFFFFFFFF DUP3 AND SWAP1 POP SWAP2 SWAP1 POP JUMP JUMPDEST PUSH2 0x1F83 DUP2 PUSH2 0x1F69 JUMP JUMPDEST DUP3 MSTORE POP POP JUMP JUMPDEST PUSH2 0x1F92 DUP2 PUSH2 0x1E9F JUMP JUMPDEST DUP3 MSTORE POP POP JUMP JUMPDEST PUSH2 0x1FA1 DUP2 PUSH2 0x1D93 JUMP JUMPDEST DUP3 MSTORE POP POP JUMP JUMPDEST PUSH2 0x100 DUP3 ADD PUSH0 DUP3 ADD MLOAD PUSH2 0x1FBC PUSH0 DUP6 ADD DUP3 PUSH2 0x1F4B JUMP JUMPDEST POP PUSH1 0x20 DUP3 ADD MLOAD PUSH2 0x1FCF PUSH1 0x20 DUP6 ADD DUP3 PUSH2 0x1F5A JUMP JUMPDEST POP PUSH1 0x40 DUP3 ADD MLOAD PUSH2 0x1FE2 PUSH1 0x40 DUP6 ADD DUP3 PUSH2 0x1F7A JUMP JUMPDEST POP PUSH1 0x60 DUP3 ADD MLOAD PUSH2 0x1FF5 PUSH1 0x60 DUP6 ADD DUP3 PUSH2 0x1F7A JUMP JUMPDEST POP PUSH1 0x80 DUP3 ADD MLOAD PUSH2 0x2008 PUSH1 0x80 DUP6 ADD DUP3 PUSH2 0x1F5A JUMP JUMPDEST POP PUSH1 0xA0 DUP3 ADD MLOAD PUSH2 0x201B PUSH1 0xA0 DUP6 ADD DUP3 PUSH2 0x1F89 JUMP JUMPDEST POP PUSH1 0xC0 DUP3 ADD MLOAD PUSH2 0x202E PUSH1 0xC0 DUP6 ADD DUP3 PUSH2 0x1F89 JUMP JUMPDEST POP PUSH1 0xE0 DUP3 ADD MLOAD PUSH2 0x2041 PUSH1 0xE0 DUP6 ADD DUP3 PUSH2 0x1F98 JUMP JUMPDEST POP POP POP POP JUMP JUMPDEST PUSH0 PUSH2 0x2052 DUP4 DUP4 PUSH2 0x1FA7 JUMP JUMPDEST PUSH2 0x100 DUP4 ADD SWAP1 POP SWAP3 SWAP2 POP POP JUMP JUMPDEST PUSH0 PUSH1 0x20 DUP3 ADD SWAP1 POP SWAP2 SWAP1 POP JUMP JUMPDEST PUSH0 PUSH2 0x2075 DUP3 PUSH2 0x1F22 JUMP JUMPDEST PUSH2 0x207F DUP2 DUP6 PUSH2 0x1F2C JUMP JUMPDEST SWAP4 POP PUSH2 0x208A DUP4 PUSH2 0x1F3C JUMP JUMPDEST DUP1 PUSH0 JUMPDEST DUP4 DUP2 LT ISZERO PUSH2 0x20BA JUMPI DUP2 MLOAD PUSH2 0x20A1 DUP9 DUP3 PUSH2 0x2047 JUMP JUMPDEST SWAP8 POP PUSH2 0x20AC DUP4 PUSH2 0x205F JUMP JUMPDEST SWAP3 POP POP PUSH1 0x1 DUP2 ADD SWAP1 POP PUSH2 0x208D JUMP JUMPDEST POP DUP6 SWAP4 POP POP POP POP SWAP3 SWAP2 POP POP JUMP JUMPDEST PUSH0 PUSH1 0x20 DUP3 ADD SWAP1 POP DUP2 DUP2 SUB PUSH0 DUP4 ADD MSTORE PUSH2 0x20DF DUP2 DUP5 PUSH2 0x206B JUMP JUMPDEST SWAP1 POP SWAP3 SWAP2 POP POP JUMP JUMPDEST PUSH0 PUSH1 0x20 DUP3 DUP5 SUB SLT ISZERO PUSH2 0x20FC JUMPI PUSH2 0x20FB PUSH2 0x1D0B JUMP JUMPDEST JUMPDEST PUSH0 PUSH2 0x2109 DUP5 DUP3 DUP6 ADD PUSH2 0x1DF3 JUMP JUMPDEST SWAP2 POP POP SWAP3 SWAP2 POP POP JUMP JUMPDEST PUSH2 0x211B DUP2 PUSH2 0x1DC6 JUMP JUMPDEST DUP3 MSTORE POP POP JUMP JUMPDEST PUSH2 0x212A DUP2 PUSH2 0x1E64 JUMP JUMPDEST DUP3 MSTORE POP POP JUMP JUMPDEST PUSH2 0x2139 DUP2 PUSH2 0x1F69 JUMP JUMPDEST DUP3 MSTORE POP POP JUMP JUMPDEST PUSH2 0x2148 DUP2 PUSH2 0x1E9F JUMP JUMPDEST DUP3 MSTORE POP POP JUMP JUMPDEST PUSH0 PUSH2 0x100 DUP3 ADD SWAP1 POP PUSH2 0x2162 PUSH0 DUP4 ADD DUP12 PUSH2 0x2112 JUMP JUMPDEST PUSH2 0x216F PUSH1 0x20 DUP4 ADD DUP11 PUSH2 0x2121 JUMP JUMPDEST PUSH2 0x217C PUSH1 0x40 DUP4 ADD DUP10 PUSH2 0x2130 JUMP JUMPDEST PUSH2 0x2189 PUSH1 0x60 DUP4 ADD DUP9 PUSH2 0x2130 JUMP JUMPDEST PUSH2 0x2196 PUSH1 0x80 DUP4 ADD DUP8 PUSH2 0x2121 JUMP JUMPDEST PUSH2 0x21A3 PUSH1 0xA0 DUP4 ADD DUP7 PUSH2 0x213F JUMP JUMPDEST PUSH2 0x21B0 PUSH1 0xC0 DUP4 ADD DUP6 PUSH2 0x213F JUMP JUMPDEST PUSH2 0x21BD PUSH1 0xE0 DUP4 ADD DUP5 PUSH2 0x1D9E JUMP JUMPDEST SWAP10 SWAP9 POP POP POP POP POP POP POP POP POP JUMP JUMPDEST PUSH0 DUP1 PUSH1 0x40 DUP4 DUP6 SUB SLT ISZERO PUSH2 0x21E0 JUMPI PUSH2 0x21DF PUSH2 0x1D0B JUMP JUMPDEST JUMPDEST PUSH0 PUSH2 0x21ED DUP6 DUP3 DUP7 ADD PUSH2 0x1DF3 JUMP JUMPDEST SWAP3 POP POP PUSH1 0x20 PUSH2 0x21FE DUP6 DUP3 DUP7 ADD PUSH2 0x1EBE JUMP JUMPDEST SWAP2 POP POP SWAP3 POP SWAP3 SWAP1 POP JUMP JUMPDEST PUSH0 PUSH1 0x20 DUP3 ADD SWAP1 POP PUSH2 0x221B PUSH0 DUP4 ADD DUP5 PUSH2 0x2121 JUMP JUMPDEST SWAP3 SWAP2 POP POP JUMP JUMPDEST PUSH0 PUSH1 0x20 DUP3 ADD SWAP1 POP PUSH2 0x2234 PUSH0 DUP4 ADD DUP5 PUSH2 0x2112 JUMP JUMPDEST SWAP3 SWAP2 POP POP JUMP JUMPDEST PUSH0 DUP1 PUSH0 PUSH1 0x60 DUP5 DUP7 SUB SLT ISZERO PUSH2 0x2251 JUMPI PUSH2 0x2250 PUSH2 0x1D0B JUMP JUMPDEST JUMPDEST PUSH0 PUSH2 0x225E DUP7 DUP3 DUP8 ADD PUSH2 0x1DF3 JUMP JUMPDEST SWAP4 POP POP PUSH1 0x20 PUSH2 0x226F DUP7 DUP3 DUP8 ADD PUSH2 0x1E8B JUMP JUMPDEST SWAP3 POP POP PUSH1 0x40 PUSH2 0x2280 DUP7 DUP3 DUP8 ADD PUSH2 0x1EBE JUMP JUMPDEST SWAP2 POP POP SWAP3 POP SWAP3 POP SWAP3 JUMP JUMPDEST PUSH0 PUSH1 0x60 DUP3 ADD SWAP1 POP PUSH2 0x229D PUSH0 DUP4 ADD DUP7 PUSH2 0x2121 JUMP JUMPDEST PUSH2 0x22AA PUSH1 0x20 DUP4 ADD DUP6 PUSH2 0x2112 JUMP JUMPDEST PUSH2 0x22B7 PUSH1 0x40 DUP4 ADD DUP5 PUSH2 0x213F JUMP JUMPDEST SWAP5 SWAP4 POP POP POP POP JUMP JUMPDEST PUSH0 DUP1 PUSH0 PUSH1 0x60 DUP5 DUP7 SUB SLT ISZERO PUSH2 0x22D6 JUMPI PUSH2 0x22D5 PUSH2 0x1D0B JUMP JUMPDEST JUMPDEST PUSH0 PUSH2 0x22E3 DUP7 DUP3 DUP8 ADD PUSH2 0x1E8B JUMP JUMPDEST SWAP4 POP POP PUSH1 0x20 PUSH2 0x22F4 DUP7 DUP3 DUP8 ADD PUSH2 0x1DF3 JUMP JUMPDEST SWAP3 POP POP PUSH1 0x40 PUSH2 0x2305 DUP7 DUP3 DUP8 ADD PUSH2 0x1EBE JUMP JUMPDEST SWAP2 POP POP SWAP3 POP SWAP3 POP SWAP3 JUMP JUMPDEST PUSH0 DUP1 REVERT JUMPDEST PUSH0 PUSH1 0x1F NOT PUSH1 0x1F DUP4 ADD AND SWAP1 POP SWAP2 SWAP1 POP JUMP JUMPDEST PUSH32 0x4E487B7100000000000000000000000000000000000000000000000000000000 PUSH0 MSTORE PUSH1 0x41 PUSH1 0x4 MSTORE PUSH1 0x24 PUSH0 REVERT JUMPDEST PUSH2 0x2359 DUP3 PUSH2 0x2313 JUMP JUMPDEST DUP2 ADD DUP2 DUP2 LT PUSH8 0xFFFFFFFFFFFFFFFF DUP3 GT OR ISZERO PUSH2 0x2378 JUMPI PUSH2 0x2377 PUSH2 0x2323 JUMP JUMPDEST JUMPDEST DUP1 PUSH1 0x40 MSTORE POP POP POP JUMP JUMPDEST PUSH0 PUSH2 0x238A PUSH2 0x1D02 JUMP JUMPDEST SWAP1 POP PUSH2 0x2396 DUP3 DUP3 PUSH2 0x2350 JUMP JUMPDEST SWAP2 SWAP1 POP JUMP JUMPDEST PUSH0 PUSH8 0xFFFFFFFFFFFFFFFF DUP3 GT ISZERO PUSH2 0x23B5 JUMPI PUSH2 0x23B4 PUSH2 0x2323 JUMP JUMPDEST JUMPDEST PUSH1 0x20 DUP3 MUL SWAP1 POP PUSH1 0x20 DUP2 ADD SWAP1 POP SWAP2 SWAP1 POP JUMP JUMPDEST PUSH0 DUP1 REVERT JUMPDEST PUSH0 PUSH2 0x23DC PUSH2 0x23D7 DUP5 PUSH2 0x239B JUMP JUMPDEST PUSH2 0x2381 JUMP JUMPDEST SWAP1 POP DUP1 DUP4 DUP3 MSTORE PUSH1 0x20 DUP3 ADD SWAP1 POP PUSH1 0x20 DUP5 MUL DUP4 ADD DUP6 DUP2 GT ISZERO PUSH2 0x23FF JUMPI PUSH2 0x23FE PUSH2 0x23C6 JUMP JUMPDEST JUMPDEST DUP4 JUMPDEST DUP2 DUP2 LT ISZERO PUSH2 0x2428 JUMPI DUP1 PUSH2 0x2414 DUP9 DUP3 PUSH2 0x1EBE JUMP JUMPDEST DUP5 MSTORE PUSH1 0x20 DUP5 ADD SWAP4 POP POP PUSH1 0x20 DUP2 ADD SWAP1 POP PUSH2 0x2401 JUMP JUMPDEST POP POP POP SWAP4 SWAP3 POP POP POP JUMP JUMPDEST PUSH0 DUP3 PUSH1 0x1F DUP4 ADD SLT PUSH2 0x2446 JUMPI PUSH2 0x2445 PUSH2 0x230F JUMP JUMPDEST JUMPDEST DUP2 CALLDATALOAD PUSH2 0x2456 DUP5 DUP3 PUSH1 0x20 DUP7 ADD PUSH2 0x23CA JUMP JUMPDEST SWAP2 POP POP SWAP3 SWAP2 POP POP JUMP JUMPDEST PUSH0 DUP1 REVERT JUMPDEST PUSH0 PUSH8 0xFFFFFFFFFFFFFFFF DUP3 GT ISZERO PUSH2 0x247D JUMPI PUSH2 0x247C PUSH2 0x2323 JUMP JUMPDEST JUMPDEST PUSH2 0x2486 DUP3 PUSH2 0x2313 JUMP JUMPDEST SWAP1 POP PUSH1 0x20 DUP2 ADD SWAP1 POP SWAP2 SWAP1 POP JUMP JUMPDEST DUP3 DUP2 DUP4 CALLDATACOPY PUSH0 DUP4 DUP4 ADD MSTORE POP POP POP JUMP JUMPDEST PUSH0 PUSH2 0x24B3 PUSH2 0x24AE DUP5 PUSH2 0x2463 JUMP JUMPDEST PUSH2 0x2381 JUMP JUMPDEST SWAP1 POP DUP3 DUP2 MSTORE PUSH1 0x20 DUP2 ADD DUP5 DUP5 DUP5 ADD GT ISZERO PUSH2 0x24CF JUMPI PUSH2 0x24CE PUSH2 0x245F JUMP JUMPDEST JUMPDEST PUSH2 0x24DA DUP5 DUP3 DUP6 PUSH2 0x2493 JUMP JUMPDEST POP SWAP4 SWAP3 POP POP POP JUMP JUMPDEST PUSH0 DUP3 PUSH1 0x1F DUP4 ADD SLT PUSH2 0x24F6 JUMPI PUSH2 0x24F5 PUSH2 0x230F JUMP JUMPDEST JUMPDEST DUP2 CALLDATALOAD PUSH2 0x2506 DUP5 DUP3 PUSH1 0x20 DUP7 ADD PUSH2 0x24A1 JUMP JUMPDEST SWAP2 POP POP SWAP3 SWAP2 POP POP JUMP JUMPDEST PUSH0 DUP1 PUSH0 DUP1 PUSH0 PUSH1 0xA0 DUP7 DUP9 SUB SLT ISZERO PUSH2 0x2528 JUMPI PUSH2 0x2527 PUSH2 0x1D0B JUMP JUMPDEST JUMPDEST PUSH0 PUSH2 0x2535 DUP9 DUP3 DUP10 ADD PUSH2 0x1E8B JUMP JUMPDEST SWAP6 POP POP PUSH1 0x20 PUSH2 0x2546 DUP9 DUP3 DUP10 ADD PUSH2 0x1E8B JUMP JUMPDEST SWAP5 POP POP PUSH1 0x40 DUP7 ADD CALLDATALOAD PUSH8 0xFFFFFFFFFFFFFFFF DUP2 GT ISZERO PUSH2 0x2567 JUMPI PUSH2 0x2566 PUSH2 0x1D0F JUMP JUMPDEST JUMPDEST PUSH2 0x2573 DUP9 DUP3 DUP10 ADD PUSH2 0x2432 JUMP JUMPDEST SWAP4 POP POP PUSH1 0x60 DUP7 ADD CALLDATALOAD PUSH8 0xFFFFFFFFFFFFFFFF DUP2 GT ISZERO PUSH2 0x2594 JUMPI PUSH2 0x2593 PUSH2 0x1D0F JUMP JUMPDEST JUMPDEST PUSH2 0x25A0 DUP9 DUP3 DUP10 ADD PUSH2 0x2432 JUMP JUMPDEST SWAP3 POP POP PUSH1 0x80 DUP7 ADD CALLDATALOAD PUSH8 0xFFFFFFFFFFFFFFFF DUP2 GT ISZERO PUSH2 0x25C1 JUMPI PUSH2 0x25C0 PUSH2 0x1D0F JUMP JUMPDEST JUMPDEST PUSH2 0x25CD DUP9 DUP3 DUP10 ADD PUSH2 0x24E2 JUMP JUMPDEST SWAP2 POP POP SWAP3 SWAP6 POP SWAP3 SWAP6 SWAP1 SWAP4 POP JUMP JUMPDEST PUSH2 0x25E3 DUP2 PUSH2 0x1D13 JUMP JUMPDEST DUP3 MSTORE POP POP JUMP JUMPDEST PUSH0 PUSH1 0x20 DUP3 ADD SWAP1 POP PUSH2 0x25FC PUSH0 DUP4 ADD DUP5 PUSH2 0x25DA JUMP JUMPDEST SWAP3 SWAP2 POP POP JUMP JUMPDEST PUSH0 DUP1 PUSH0 DUP1 PUSH1 0x80 DUP6 DUP8 SUB SLT ISZERO PUSH2 0x261A JUMPI PUSH2 0x2619 PUSH2 0x1D0B JUMP JUMPDEST JUMPDEST PUSH0 PUSH2 0x2627 DUP8 DUP3 DUP9 ADD PUSH2 0x1DF3 JUMP JUMPDEST SWAP5 POP POP PUSH1 0x20 PUSH2 0x2638 DUP8 DUP3 DUP9 ADD PUSH2 0x1E8B JUMP JUMPDEST SWAP4 POP POP PUSH1 0x40 PUSH2 0x2649 DUP8 DUP3 DUP9 ADD PUSH2 0x1E8B JUMP JUMPDEST SWAP3 POP POP PUSH1 0x60 PUSH2 0x265A DUP8 DUP3 DUP9 ADD PUSH2 0x1EBE JUMP JUMPDEST SWAP2 POP POP SWAP3 SWAP6 SWAP2 SWAP5 POP SWAP3 POP JUMP JUMPDEST PUSH0 DUP1 PUSH0 DUP1 PUSH0 PUSH1 0xA0 DUP7 DUP9 SUB SLT ISZERO PUSH2 0x267F JUMPI PUSH2 0x267E PUSH2 0x1D0B JUMP JUMPDEST JUMPDEST PUSH0 PUSH2 0x268C DUP9 DUP3 DUP10 ADD PUSH2 0x1E8B JUMP JUMPDEST SWAP6 POP POP PUSH1 0x20 PUSH2 0x269D DUP9 DUP3 DUP10 ADD PUSH2 0x1E8B JUMP JUMPDEST SWAP5 POP POP PUSH1 0x40 PUSH2 0x26AE DUP9 DUP3 DUP10 ADD PUSH2 0x1EBE JUMP JUMPDEST SWAP4 POP POP PUSH1 0x60 PUSH2 0x26BF DUP9 DUP3 DUP10 ADD PUSH2 0x1EBE JUMP JUMPDEST SWAP3 POP POP PUSH1 0x80 DUP7 ADD CALLDATALOAD PUSH8 0xFFFFFFFFFFFFFFFF DUP2 GT ISZERO PUSH2 0x26E0 JUMPI PUSH2 0x26DF PUSH2 0x1D0F JUMP JUMPDEST JUMPDEST PUSH2 0x26EC DUP9 DUP3 DUP10 ADD PUSH2 0x24E2 JUMP JUMPDEST SWAP2 POP POP SWAP3 SWAP6 POP SWAP3 SWAP6 SWAP1 SWAP4 POP JUMP JUMPDEST PUSH32 0x4E487B7100000000000000000000000000000000000000000000000000000000 PUSH0 MSTORE PUSH1 0x32 PUSH1 0x4 MSTORE PUSH1 0x24 PUSH0 REVERT JUMPDEST PUSH32 0x4E487B7100000000000000000000000000000000000000000000000000000000 PUSH0 MSTORE PUSH1 0x11 PUSH1 0x4 MSTORE PUSH1 0x24 PUSH0 REVERT JUMPDEST PUSH0 PUSH2 0x275D DUP3 PUSH2 0x1E9F JUMP JUMPDEST SWAP2 POP PUSH2 0x2768 DUP4 PUSH2 0x1E9F JUMP JUMPDEST SWAP3 POP DUP3 DUP3 ADD SWAP1 POP DUP1 DUP3 GT ISZERO PUSH2 0x2780 JUMPI PUSH2 0x277F PUSH2 0x2726 JUMP JUMPDEST JUMPDEST SWAP3 SWAP2 POP POP JUMP JUMPDEST PUSH0 PUSH2 0x2790 DUP3 PUSH2 0x1DC6 JUMP JUMPDEST SWAP2 POP PUSH12 0xFFFFFFFFFFFFFFFFFFFFFFFF DUP3 SUB PUSH2 0x27AE JUMPI PUSH2 0x27AD PUSH2 0x2726 JUMP JUMPDEST JUMPDEST PUSH1 0x1 DUP3 ADD SWAP1 POP SWAP2 SWAP1 POP JUMP JUMPDEST PUSH0 PUSH2 0x27C3 DUP3 PUSH2 0x1E9F JUMP JUMPDEST SWAP2 POP PUSH2 0x27CE DUP4 PUSH2 0x1E9F JUMP JUMPDEST SWAP3 POP DUP3 DUP3 MUL PUSH2 0x27DC DUP2 PUSH2 0x1E9F JUMP JUMPDEST SWAP2 POP DUP3 DUP3 DIV DUP5 EQ DUP4 ISZERO OR PUSH2 0x27F3 JUMPI PUSH2 0x27F2 PUSH2 0x2726 JUMP JUMPDEST JUMPDEST POP SWAP3 SWAP2 POP POP JUMP JUMPDEST PUSH32 0x4E487B7100000000000000000000000000000000000000000000000000000000 PUSH0 MSTORE PUSH1 0x12 PUSH1 0x4 MSTORE PUSH1 0x24 PUSH0 REVERT JUMPDEST PUSH0 PUSH2 0x2831 DUP3 PUSH2 0x1E9F JUMP JUMPDEST SWAP2 POP PUSH2 0x283C DUP4 PUSH2 0x1E9F JUMP JUMPDEST SWAP3 POP DUP3 PUSH2 0x284C JUMPI PUSH2 0x284B PUSH2 0x27FA JUMP JUMPDEST JUMPDEST DUP3 DUP3 DIV SWAP1 POP SWAP3 SWAP2 POP POP JUMP JUMPDEST PUSH0 DUP2 SWAP1 POP SWAP2 SWAP1 POP JUMP JUMPDEST PUSH0 PUSH2 0x287A PUSH2 0x2875 PUSH2 0x2870 DUP5 PUSH2 0x1DC6 JUMP JUMPDEST PUSH2 0x2857 JUMP JUMPDEST PUSH2 0x1E9F JUMP JUMPDEST SWAP1 POP SWAP2 SWAP1 POP JUMP JUMPDEST PUSH2 0x288A DUP2 PUSH2 0x2860 JUMP JUMPDEST DUP3 MSTORE POP POP JUMP JUMPDEST PUSH0 DUP3 DUP3 MSTORE PUSH1 0x20 DUP3 ADD SWAP1 POP SWAP3 SWAP2 POP POP JUMP JUMPDEST PUSH32 0x3078300000000000000000000000000000000000000000000000000000000000 PUSH0 DUP3 ADD MSTORE POP JUMP JUMPDEST PUSH0 PUSH2 0x28D4 PUSH1 0x3 DUP4 PUSH2 0x2890 JUMP JUMPDEST SWAP2 POP PUSH2 0x28DF DUP3 PUSH2 0x28A0 JUMP JUMPDEST PUSH1 0x20 DUP3 ADD SWAP1 POP SWAP2 SWAP1 POP JUMP JUMPDEST PUSH0 PUSH1 0xA0 DUP3 ADD SWAP1 POP PUSH2 0x28FD PUSH0 DUP4 ADD DUP8 PUSH2 0x2121 JUMP JUMPDEST PUSH2 0x290A PUSH1 0x20 DUP4 ADD DUP7 PUSH2 0x2121 JUMP JUMPDEST PUSH2 0x2917 PUSH1 0x40 DUP4 ADD DUP6 PUSH2 0x2881 JUMP JUMPDEST PUSH2 0x2924 PUSH1 0x60 DUP4 ADD DUP5 PUSH2 0x213F JUMP JUMPDEST DUP2 DUP2 SUB PUSH1 0x80 DUP4 ADD MSTORE PUSH2 0x2935 DUP2 PUSH2 0x28C8 JUMP JUMPDEST SWAP1 POP SWAP6 SWAP5 POP POP POP POP POP JUMP JUMPDEST PUSH0 PUSH1 0x80 DUP3 ADD SWAP1 POP PUSH2 0x2953 PUSH0 DUP4 ADD DUP8 PUSH2 0x2121 JUMP JUMPDEST PUSH2 0x2960 PUSH1 0x20 DUP4 ADD DUP7 PUSH2 0x2121 JUMP JUMPDEST PUSH2 0x296D PUSH1 0x40 DUP4 ADD DUP6 PUSH2 0x1D9E JUMP JUMPDEST PUSH2 0x297A PUSH1 0x60 DUP4 ADD DUP5 PUSH2 0x213F JUMP JUMPDEST SWAP6 SWAP5 POP POP POP POP POP JUMP JUMPDEST PUSH0 PUSH2 0x298D DUP3 PUSH2 0x1DC6 JUMP JUMPDEST SWAP2 POP PUSH2 0x2998 DUP4 PUSH2 0x1DC6 JUMP JUMPDEST SWAP3 POP DUP3 DUP3 ADD SWAP1 POP PUSH12 0xFFFFFFFFFFFFFFFFFFFFFFFF DUP2 GT ISZERO PUSH2 0x29BC JUMPI PUSH2 0x29BB PUSH2 0x2726 JUMP JUMPDEST JUMPDEST SWAP3 SWAP2 POP POP JUMP JUMPDEST PUSH0 DUP3 DUP3 MSTORE PUSH1 0x20 DUP3 ADD SWAP1 POP SWAP3 SWAP2 POP POP JUMP JUMPDEST PUSH32 0x4D757374206265205F656E644964203C3D2066756E64436F756E740000000000 PUSH0 DUP3 ADD MSTORE POP JUMP JUMPDEST PUSH0 PUSH2 0x2A06 PUSH1 0x1B DUP4 PUSH2 0x29C2 JUMP JUMPDEST SWAP2 POP PUSH2 0x2A11 DUP3 PUSH2 0x29D2 JUMP JUMPDEST PUSH1 0x20 DUP3 ADD SWAP1 POP SWAP2 SWAP1 POP JUMP JUMPDEST PUSH0 PUSH1 0x20 DUP3 ADD SWAP1 POP DUP2 DUP2 SUB PUSH0 DUP4 ADD MSTORE PUSH2 0x2A33 DUP2 PUSH2 0x29FA JUMP JUMPDEST SWAP1 POP SWAP2 SWAP1 POP JUMP JUMPDEST PUSH32 0x4D757374206265205F73746172744964203C3D205F656E644964000000000000 PUSH0 DUP3 ADD MSTORE POP JUMP JUMPDEST PUSH0 PUSH2 0x2A6E PUSH1 0x1A DUP4 PUSH2 0x29C2 JUMP JUMPDEST SWAP2 POP PUSH2 0x2A79 DUP3 PUSH2 0x2A3A JUMP JUMPDEST PUSH1 0x20 DUP3 ADD SWAP1 POP SWAP2 SWAP1 POP JUMP JUMPDEST PUSH0 PUSH1 0x20 DUP3 ADD SWAP1 POP DUP2 DUP2 SUB PUSH0 DUP4 ADD MSTORE PUSH2 0x2A9B DUP2 PUSH2 0x2A62 JUMP JUMPDEST SWAP1 POP SWAP2 SWAP1 POP JUMP JUMPDEST PUSH0 PUSH2 0x2AAC DUP3 PUSH2 0x1DC6 JUMP JUMPDEST SWAP2 POP PUSH2 0x2AB7 DUP4 PUSH2 0x1DC6 JUMP JUMPDEST SWAP3 POP DUP3 DUP3 SUB SWAP1 POP PUSH12 0xFFFFFFFFFFFFFFFFFFFFFFFF DUP2 GT ISZERO PUSH2 0x2ADB JUMPI PUSH2 0x2ADA PUSH2 0x2726 JUMP JUMPDEST JUMPDEST SWAP3 SWAP2 POP POP JUMP JUMPDEST PUSH32 0x4D757374206265205F6964203C2066756E64436F756E74000000000000000000 PUSH0 DUP3 ADD MSTORE POP JUMP JUMPDEST PUSH0 PUSH2 0x2B15 PUSH1 0x17 DUP4 PUSH2 0x29C2 JUMP JUMPDEST SWAP2 POP PUSH2 0x2B20 DUP3 PUSH2 0x2AE1 JUMP JUMPDEST PUSH1 0x20 DUP3 ADD SWAP1 POP SWAP2 SWAP1 POP JUMP JUMPDEST PUSH0 PUSH1 0x20 DUP3 ADD SWAP1 POP DUP2 DUP2 SUB PUSH0 DUP4 ADD MSTORE PUSH2 0x2B42 DUP2 PUSH2 0x2B09 JUMP JUMPDEST SWAP1 POP SWAP2 SWAP1 POP JUMP JUMPDEST PUSH32 0x46756E6420557064617465206E6F7420617574686F72697A6564000000000000 PUSH0 DUP3 ADD MSTORE POP JUMP JUMPDEST PUSH0 PUSH2 0x2B7D PUSH1 0x1A DUP4 PUSH2 0x29C2 JUMP JUMPDEST SWAP2 POP PUSH2 0x2B88 DUP3 PUSH2 0x2B49 JUMP JUMPDEST PUSH1 0x20 DUP3 ADD SWAP1 POP SWAP2 SWAP1 POP JUMP JUMPDEST PUSH0 PUSH1 0x20 DUP3 ADD SWAP1 POP DUP2 DUP2 SUB PUSH0 DUP4 ADD MSTORE PUSH2 0x2BAA DUP2 PUSH2 0x2B71 JUMP JUMPDEST SWAP1 POP SWAP2 SWAP1 POP JUMP JUMPDEST PUSH0 DUP2 SWAP1 POP SWAP2 SWAP1 POP JUMP JUMPDEST PUSH0 PUSH2 0x2BD4 PUSH2 0x2BCF PUSH2 0x2BCA DUP5 PUSH2 0x2BB1 JUMP JUMPDEST PUSH2 0x2857 JUMP JUMPDEST PUSH2 0x1E9F JUMP JUMPDEST SWAP1 POP SWAP2 SWAP1 POP JUMP JUMPDEST PUSH2 0x2BE4 DUP2 PUSH2 0x2BBA JUMP JUMPDEST DUP3 MSTORE POP POP JUMP JUMPDEST PUSH0 PUSH1 0x40 DUP3 ADD SWAP1 POP PUSH2 0x2BFD PUSH0 DUP4 ADD DUP6 PUSH2 0x2121 JUMP JUMPDEST PUSH2 0x2C0A PUSH1 0x20 DUP4 ADD DUP5 PUSH2 0x2BDB JUMP JUMPDEST SWAP4 SWAP3 POP POP POP JUMP JUMPDEST PUSH0 DUP2 MLOAD SWAP1 POP PUSH2 0x2C1F DUP2 PUSH2 0x1EA8 JUMP JUMPDEST SWAP3 SWAP2 POP POP JUMP JUMPDEST PUSH0 PUSH1 0x20 DUP3 DUP5 SUB SLT ISZERO PUSH2 0x2C3A JUMPI PUSH2 0x2C39 PUSH2 0x1D0B JUMP JUMPDEST JUMPDEST PUSH0 PUSH2 0x2C47 DUP5 DUP3 DUP6 ADD PUSH2 0x2C11 JUMP JUMPDEST SWAP2 POP POP SWAP3 SWAP2 POP POP JUMP JUMPDEST PUSH32 0x746F6B656E20616D6F756E74206F662075736572206E6F742073756666696369 PUSH0 DUP3 ADD MSTORE PUSH32 0x656E740000000000000000000000000000000000000000000000000000000000 PUSH1 0x20 DUP3 ADD MSTORE POP JUMP JUMPDEST PUSH0 PUSH2 0x2CAA PUSH1 0x23 DUP4 PUSH2 0x29C2 JUMP JUMPDEST SWAP2 POP PUSH2 0x2CB5 DUP3 PUSH2 0x2C50 JUMP JUMPDEST PUSH1 0x40 DUP3 ADD SWAP1 POP SWAP2 SWAP1 POP JUMP JUMPDEST PUSH0 PUSH1 0x20 DUP3 ADD SWAP1 POP DUP2 DUP2 SUB PUSH0 DUP4 ADD MSTORE PUSH2 0x2CD7 DUP2 PUSH2 0x2C9E JUMP JUMPDEST SWAP1 POP SWAP2 SWAP1 POP JUMP JUMPDEST PUSH0 PUSH1 0x40 DUP3 ADD SWAP1 POP PUSH2 0x2CF1 PUSH0 DUP4 ADD DUP6 PUSH2 0x2121 JUMP JUMPDEST PUSH2 0x2CFE PUSH1 0x20 DUP4 ADD DUP5 PUSH2 0x2121 JUMP JUMPDEST SWAP4 SWAP3 POP POP POP JUMP JUMPDEST PUSH2 0x2D0E DUP2 PUSH2 0x1D93 JUMP JUMPDEST DUP2 EQ PUSH2 0x2D18 JUMPI PUSH0 DUP1 REVERT JUMPDEST POP JUMP JUMPDEST PUSH0 DUP2 MLOAD SWAP1 POP PUSH2 0x2D29 DUP2 PUSH2 0x2D05 JUMP JUMPDEST SWAP3 SWAP2 POP POP JUMP JUMPDEST PUSH0 PUSH1 0x20 DUP3 DUP5 SUB SLT ISZERO PUSH2 0x2D44 JUMPI PUSH2 0x2D43 PUSH2 0x1D0B JUMP JUMPDEST JUMPDEST PUSH0 PUSH2 0x2D51 DUP5 DUP3 DUP6 ADD PUSH2 0x2D1B JUMP JUMPDEST SWAP2 POP POP SWAP3 SWAP2 POP POP JUMP JUMPDEST PUSH32 0x746F6B656E20616C6C6F77616E63652073686F72746167650000000000000000 PUSH0 DUP3 ADD MSTORE POP JUMP JUMPDEST PUSH0 PUSH2 0x2D8E PUSH1 0x18 DUP4 PUSH2 0x29C2 JUMP JUMPDEST SWAP2 POP PUSH2 0x2D99 DUP3 PUSH2 0x2D5A JUMP JUMPDEST PUSH1 0x20 DUP3 ADD SWAP1 POP SWAP2 SWAP1 POP JUMP JUMPDEST PUSH0 PUSH1 0x20 DUP3 ADD SWAP1 POP DUP2 DUP2 SUB PUSH0 DUP4 ADD MSTORE PUSH2 0x2DBB DUP2 PUSH2 0x2D82 JUMP JUMPDEST SWAP1 POP SWAP2 SWAP1 POP JUMP JUMPDEST PUSH0 PUSH1 0xA0 DUP3 ADD SWAP1 POP PUSH2 0x2DD5 PUSH0 DUP4 ADD DUP8 PUSH2 0x2121 JUMP JUMPDEST PUSH2 0x2DE2 PUSH1 0x20 DUP4 ADD DUP7 PUSH2 0x2121 JUMP JUMPDEST PUSH2 0x2DEF PUSH1 0x40 DUP4 ADD DUP6 PUSH2 0x2BDB JUMP JUMPDEST PUSH2 0x2DFC PUSH1 0x60 DUP4 ADD DUP5 PUSH2 0x213F JUMP JUMPDEST DUP2 DUP2 SUB PUSH1 0x80 DUP4 ADD MSTORE PUSH2 0x2E0D DUP2 PUSH2 0x28C8 JUMP JUMPDEST SWAP1 POP SWAP6 SWAP5 POP POP POP POP POP JUMP JUMPDEST PUSH0 PUSH1 0x40 DUP3 ADD SWAP1 POP PUSH2 0x2E2B PUSH0 DUP4 ADD DUP6 PUSH2 0x213F JUMP JUMPDEST PUSH2 0x2E38 PUSH1 0x20 DUP4 ADD DUP5 PUSH2 0x213F JUMP JUMPDEST SWAP4 SWAP3 POP POP POP JUMP INVALID LOG2 PUSH5 0x6970667358 0x22 SLT KECCAK256 PUSH3 0xB0B581 0x2D PUSH21 0x2BE69BE8B0B3F7F76BAE4DA0815971B1A0BD355FB4 0x2C CALLVALUE 0xD 0xED CHAINID PUSH5 0x736F6C6343 STOP ADDMOD EQ STOP CALLER "
				},
				"gasEstimates": {
					"creation": {
						"codeDepositCost": "2378600",
						"executionCost": "infinite",
						"totalCost": "infinite"
					},
					"external": {
						"createFund(address,address,uint256)": "infinite",
						"donate(address,uint96,uint256)": "infinite",
						"fundCount()": "2539",
						"fundDonations(uint96,address,uint256)": "infinite",
						"fundUsers(uint96,uint256)": "5255",
						"funds(uint96)": "infinite",
						"getAllFunds()": "infinite",
						"getFundPayee(uint96)": "5193",
						"getFunds(uint96,uint96)": "infinite",
						"mintDTiket(uint96,uint96)": "infinite",
						"onERC1155BatchReceived(address,address,uint256[],uint256[],bytes)": "infinite",
						"onERC1155Received(address,address,uint256,uint256,bytes)": "infinite",
						"supportsInterface(bytes4)": "741",
						"updateFund(uint96,address,address,uint256)": "infinite"
					},
					"internal": {
						"createDonation(address,uint96,uint256)": "infinite",
						"validateFunds(uint96)": "infinite"
					}
				},
				"methodIdentifiers": {
					"createFund(address,address,uint256)": "17444626",
					"donate(address,uint96,uint256)": "88b53ced",
					"fundCount()": "3f936ff5",
					"fundDonations(uint96,address,uint256)": "7a3819cb",
					"fundUsers(uint96,uint256)": "2f14670c",
					"funds(uint96)": "1f71f89f",
					"getAllFunds()": "1c69b464",
					"getFundPayee(uint96)": "6c173d38",
					"getFunds(uint96,uint96)": "380eaaf9",
					"mintDTiket(uint96,uint96)": "11c9fb83",
					"onERC1155BatchReceived(address,address,uint256[],uint256[],bytes)": "bc197c81",
					"onERC1155Received(address,address,uint256,uint256,bytes)": "f23a6e61",
					"supportsInterface(bytes4)": "01ffc9a7",
					"updateFund(uint96,address,address,uint256)": "dd7d7929"
				}
			},
			"storageLayout": {
				"storage": [
					{
						"astId": 3424,
						"contract": "contracts/FundRegistry_flattened.sol:FundRegistry",
						"label": "token",
						"offset": 0,
						"slot": "0",
						"type": "t_contract(ERC1155)2811"
					},
					{
						"astId": 3426,
						"contract": "contracts/FundRegistry_flattened.sol:FundRegistry",
						"label": "fundCount",
						"offset": 20,
						"slot": "0",
						"type": "t_uint96"
					},
					{
						"astId": 3466,
						"contract": "contracts/FundRegistry_flattened.sol:FundRegistry",
						"label": "funds",
						"offset": 0,
						"slot": "1",
						"type": "t_mapping(t_uint96,t_struct(Fund)3454_storage)"
					},
					{
						"astId": 3471,
						"contract": "contracts/FundRegistry_flattened.sol:FundRegistry",
						"label": "fundUsers",
						"offset": 0,
						"slot": "2",
						"type": "t_mapping(t_uint96,t_array(t_address)dyn_storage)"
					},
					{
						"astId": 3479,
						"contract": "contracts/FundRegistry_flattened.sol:FundRegistry",
						"label": "fundDonations",
						"offset": 0,
						"slot": "3",
						"type": "t_mapping(t_uint96,t_mapping(t_address,t_array(t_struct(Donation)3461_storage)dyn_storage))"
					}
				],
				"types": {
					"t_address": {
						"encoding": "inplace",
						"label": "address",
						"numberOfBytes": "20"
					},
					"t_array(t_address)dyn_storage": {
						"base": "t_address",
						"encoding": "dynamic_array",
						"label": "address[]",
						"numberOfBytes": "32"
					},
					"t_array(t_struct(Donation)3461_storage)dyn_storage": {
						"base": "t_struct(Donation)3461_storage",
						"encoding": "dynamic_array",
						"label": "struct FundRegistry.Donation[]",
						"numberOfBytes": "32"
					},
					"t_bool": {
						"encoding": "inplace",
						"label": "bool",
						"numberOfBytes": "1"
					},
					"t_contract(ERC1155)2811": {
						"encoding": "inplace",
						"label": "contract ERC1155",
						"numberOfBytes": "20"
					},
					"t_mapping(t_address,t_array(t_struct(Donation)3461_storage)dyn_storage)": {
						"encoding": "mapping",
						"key": "t_address",
						"label": "mapping(address => struct FundRegistry.Donation[])",
						"numberOfBytes": "32",
						"value": "t_array(t_struct(Donation)3461_storage)dyn_storage"
					},
					"t_mapping(t_uint96,t_array(t_address)dyn_storage)": {
						"encoding": "mapping",
						"key": "t_uint96",
						"label": "mapping(uint96 => address[])",
						"numberOfBytes": "32",
						"value": "t_array(t_address)dyn_storage"
					},
					"t_mapping(t_uint96,t_mapping(t_address,t_array(t_struct(Donation)3461_storage)dyn_storage))": {
						"encoding": "mapping",
						"key": "t_uint96",
						"label": "mapping(uint96 => mapping(address => struct FundRegistry.Donation[]))",
						"numberOfBytes": "32",
						"value": "t_mapping(t_address,t_array(t_struct(Donation)3461_storage)dyn_storage)"
					},
					"t_mapping(t_uint96,t_struct(Fund)3454_storage)": {
						"encoding": "mapping",
						"key": "t_uint96",
						"label": "mapping(uint96 => struct FundRegistry.Fund)",
						"numberOfBytes": "32",
						"value": "t_struct(Fund)3454_storage"
					},
					"t_struct(Donation)3461_storage": {
						"encoding": "inplace",
						"label": "struct FundRegistry.Donation",
						"members": [
							{
								"astId": 3456,
								"contract": "contracts/FundRegistry_flattened.sol:FundRegistry",
								"label": "user",
								"offset": 0,
								"slot": "0",
								"type": "t_address"
							},
							{
								"astId": 3458,
								"contract": "contracts/FundRegistry_flattened.sol:FundRegistry",
								"label": "fundId",
								"offset": 20,
								"slot": "0",
								"type": "t_uint96"
							},
							{
								"astId": 3460,
								"contract": "contracts/FundRegistry_flattened.sol:FundRegistry",
								"label": "amount",
								"offset": 0,
								"slot": "1",
								"type": "t_uint256"
							}
						],
						"numberOfBytes": "64"
					},
					"t_struct(Fund)3454_storage": {
						"encoding": "inplace",
						"label": "struct FundRegistry.Fund",
						"members": [
							{
								"astId": 3439,
								"contract": "contracts/FundRegistry_flattened.sol:FundRegistry",
								"label": "id",
								"offset": 0,
								"slot": "0",
								"type": "t_uint96"
							},
							{
								"astId": 3441,
								"contract": "contracts/FundRegistry_flattened.sol:FundRegistry",
								"label": "owner",
								"offset": 12,
								"slot": "0",
								"type": "t_address"
							},
							{
								"astId": 3443,
								"contract": "contracts/FundRegistry_flattened.sol:FundRegistry",
								"label": "createdAt",
								"offset": 0,
								"slot": "1",
								"type": "t_uint48"
							},
							{
								"astId": 3445,
								"contract": "contracts/FundRegistry_flattened.sol:FundRegistry",
								"label": "updatedAt",
								"offset": 6,
								"slot": "1",
								"type": "t_uint48"
							},
							{
								"astId": 3447,
								"contract": "contracts/FundRegistry_flattened.sol:FundRegistry",
								"label": "payee",
								"offset": 12,
								"slot": "1",
								"type": "t_address"
							},
							{
								"astId": 3449,
								"contract": "contracts/FundRegistry_flattened.sol:FundRegistry",
								"label": "threshold",
								"offset": 0,
								"slot": "2",
								"type": "t_uint256"
							},
							{
								"astId": 3451,
								"contract": "contracts/FundRegistry_flattened.sol:FundRegistry",
								"label": "donationAmount",
								"offset": 0,
								"slot": "3",
								"type": "t_uint256"
							},
							{
								"astId": 3453,
								"contract": "contracts/FundRegistry_flattened.sol:FundRegistry",
								"label": "isEnd",
								"offset": 0,
								"slot": "4",
								"type": "t_bool"
							}
						],
						"numberOfBytes": "160"
					},
					"t_uint256": {
						"encoding": "inplace",
						"label": "uint256",
						"numberOfBytes": "32"
					},
					"t_uint48": {
						"encoding": "inplace",
						"label": "uint48",
						"numberOfBytes": "6"
					},
					"t_uint96": {
						"encoding": "inplace",
						"label": "uint96",
						"numberOfBytes": "12"
					}
				}
			},
			"userdoc": {
				"events": {
					"FundCompletion(uint96,uint256,uint256)": {
						"notice": "Emitted when a donation has been made"
					}
				},
				"kind": "user",
				"methods": {},
				"version": 1
			}
		}
	}
}