{
	"contracts/Fund.sol": {
		"FundRegistry": {
			"abi": [
				{
					"inputs": [
						{
							"internalType": "contract ERC20",
							"name": "_token",
							"type": "address"
						}
					],
					"stateMutability": "nonpayable",
					"type": "constructor"
				},
				{
					"anonymous": false,
					"inputs": [
						{
							"indexed": true,
							"internalType": "uint96",
							"name": "FundId",
							"type": "uint96"
						},
						{
							"indexed": false,
							"internalType": "uint256",
							"name": "donationAmount",
							"type": "uint256"
						},
						{
							"indexed": false,
							"internalType": "uint256",
							"name": "time",
							"type": "uint256"
						}
					],
					"name": "FundCompletion",
					"type": "event"
				},
				{
					"anonymous": false,
					"inputs": [
						{
							"indexed": true,
							"internalType": "uint96",
							"name": "id",
							"type": "uint96"
						},
						{
							"indexed": false,
							"internalType": "address",
							"name": "owner",
							"type": "address"
						},
						{
							"indexed": false,
							"internalType": "address",
							"name": "payee",
							"type": "address"
						},
						{
							"indexed": true,
							"internalType": "uint256",
							"name": "threshold",
							"type": "uint256"
						},
						{
							"indexed": true,
							"internalType": "uint256",
							"name": "amount",
							"type": "uint256"
						},
						{
							"indexed": false,
							"internalType": "bool",
							"name": "isEnd",
							"type": "bool"
						},
						{
							"indexed": false,
							"internalType": "uint256",
							"name": "time",
							"type": "uint256"
						}
					],
					"name": "FundCreated",
					"type": "event"
				},
				{
					"anonymous": false,
					"inputs": [
						{
							"indexed": true,
							"internalType": "uint96",
							"name": "id",
							"type": "uint96"
						},
						{
							"indexed": false,
							"internalType": "address",
							"name": "owner",
							"type": "address"
						},
						{
							"indexed": false,
							"internalType": "address",
							"name": "payee",
							"type": "address"
						},
						{
							"indexed": true,
							"internalType": "uint256",
							"name": "threshold",
							"type": "uint256"
						},
						{
							"indexed": true,
							"internalType": "uint256",
							"name": "amount",
							"type": "uint256"
						},
						{
							"indexed": false,
							"internalType": "bool",
							"name": "isEnd",
							"type": "bool"
						},
						{
							"indexed": false,
							"internalType": "uint256",
							"name": "time",
							"type": "uint256"
						}
					],
					"name": "FundUpdated",
					"type": "event"
				},
				{
					"inputs": [
						{
							"internalType": "address",
							"name": "_owner",
							"type": "address"
						},
						{
							"internalType": "address",
							"name": "_payee",
							"type": "address"
						},
						{
							"internalType": "uint256",
							"name": "_threshold",
							"type": "uint256"
						}
					],
					"name": "createFund",
					"outputs": [],
					"stateMutability": "nonpayable",
					"type": "function"
				},
				{
					"inputs": [
						{
							"internalType": "address",
							"name": "_user",
							"type": "address"
						},
						{
							"internalType": "uint96",
							"name": "_fundId",
							"type": "uint96"
						},
						{
							"internalType": "uint256",
							"name": "_amount",
							"type": "uint256"
						}
					],
					"name": "donate",
					"outputs": [],
					"stateMutability": "payable",
					"type": "function"
				},
				{
					"inputs": [],
					"name": "fundCount",
					"outputs": [
						{
							"internalType": "uint96",
							"name": "",
							"type": "uint96"
						}
					],
					"stateMutability": "view",
					"type": "function"
				},
				{
					"inputs": [
						{
							"internalType": "uint96",
							"name": "",
							"type": "uint96"
						},
						{
							"internalType": "address",
							"name": "",
							"type": "address"
						},
						{
							"internalType": "uint256",
							"name": "",
							"type": "uint256"
						}
					],
					"name": "fundDonations",
					"outputs": [
						{
							"internalType": "address",
							"name": "user",
							"type": "address"
						},
						{
							"internalType": "uint96",
							"name": "fundId",
							"type": "uint96"
						},
						{
							"internalType": "uint256",
							"name": "amount",
							"type": "uint256"
						}
					],
					"stateMutability": "view",
					"type": "function"
				},
				{
					"inputs": [
						{
							"internalType": "uint96",
							"name": "",
							"type": "uint96"
						},
						{
							"internalType": "uint256",
							"name": "",
							"type": "uint256"
						}
					],
					"name": "fundUsers",
					"outputs": [
						{
							"internalType": "address",
							"name": "",
							"type": "address"
						}
					],
					"stateMutability": "view",
					"type": "function"
				},
				{
					"inputs": [
						{
							"internalType": "uint96",
							"name": "",
							"type": "uint96"
						}
					],
					"name": "funds",
					"outputs": [
						{
							"internalType": "uint96",
							"name": "id",
							"type": "uint96"
						},
						{
							"internalType": "address",
							"name": "owner",
							"type": "address"
						},
						{
							"internalType": "uint48",
							"name": "createdAt",
							"type": "uint48"
						},
						{
							"internalType": "uint48",
							"name": "updatedAt",
							"type": "uint48"
						},
						{
							"internalType": "address",
							"name": "payee",
							"type": "address"
						},
						{
							"internalType": "uint256",
							"name": "threshold",
							"type": "uint256"
						},
						{
							"internalType": "uint256",
							"name": "totalAmount",
							"type": "uint256"
						},
						{
							"internalType": "bool",
							"name": "isEnd",
							"type": "bool"
						}
					],
					"stateMutability": "view",
					"type": "function"
				},
				{
					"inputs": [],
					"name": "getAllFunds",
					"outputs": [
						{
							"components": [
								{
									"internalType": "uint96",
									"name": "id",
									"type": "uint96"
								},
								{
									"internalType": "address",
									"name": "owner",
									"type": "address"
								},
								{
									"internalType": "uint48",
									"name": "createdAt",
									"type": "uint48"
								},
								{
									"internalType": "uint48",
									"name": "updatedAt",
									"type": "uint48"
								},
								{
									"internalType": "address",
									"name": "payee",
									"type": "address"
								},
								{
									"internalType": "uint256",
									"name": "threshold",
									"type": "uint256"
								},
								{
									"internalType": "uint256",
									"name": "totalAmount",
									"type": "uint256"
								},
								{
									"internalType": "bool",
									"name": "isEnd",
									"type": "bool"
								}
							],
							"internalType": "struct FundRegistry.Fund[]",
							"name": "",
							"type": "tuple[]"
						}
					],
					"stateMutability": "view",
					"type": "function"
				},
				{
					"inputs": [
						{
							"internalType": "uint96",
							"name": "_id",
							"type": "uint96"
						}
					],
					"name": "getFundPayee",
					"outputs": [
						{
							"internalType": "address",
							"name": "",
							"type": "address"
						}
					],
					"stateMutability": "view",
					"type": "function"
				},
				{
					"inputs": [
						{
							"internalType": "uint96",
							"name": "_startId",
							"type": "uint96"
						},
						{
							"internalType": "uint96",
							"name": "_endId",
							"type": "uint96"
						}
					],
					"name": "getFunds",
					"outputs": [
						{
							"components": [
								{
									"internalType": "uint96",
									"name": "id",
									"type": "uint96"
								},
								{
									"internalType": "address",
									"name": "owner",
									"type": "address"
								},
								{
									"internalType": "uint48",
									"name": "createdAt",
									"type": "uint48"
								},
								{
									"internalType": "uint48",
									"name": "updatedAt",
									"type": "uint48"
								},
								{
									"internalType": "address",
									"name": "payee",
									"type": "address"
								},
								{
									"internalType": "uint256",
									"name": "threshold",
									"type": "uint256"
								},
								{
									"internalType": "uint256",
									"name": "totalAmount",
									"type": "uint256"
								},
								{
									"internalType": "bool",
									"name": "isEnd",
									"type": "bool"
								}
							],
							"internalType": "struct FundRegistry.Fund[]",
							"name": "",
							"type": "tuple[]"
						}
					],
					"stateMutability": "view",
					"type": "function"
				},
				{
					"inputs": [
						{
							"internalType": "uint96",
							"name": "_id",
							"type": "uint96"
						},
						{
							"internalType": "address",
							"name": "_owner",
							"type": "address"
						},
						{
							"internalType": "address",
							"name": "_payee",
							"type": "address"
						},
						{
							"internalType": "uint256",
							"name": "_threshold",
							"type": "uint256"
						}
					],
					"name": "updateFund",
					"outputs": [],
					"stateMutability": "nonpayable",
					"type": "function"
				}
			],
			"devdoc": {
				"kind": "dev",
				"methods": {},
				"version": 1
			},
			"evm": {
				"assembly": "    /* \"contracts/Fund.sol\":294:7155  contract FundRegistry {... */\n  mstore(0x40, 0x80)\n    /* \"contracts/Fund.sol\":371:430  constructor(ERC20 _token) {... */\n  callvalue\n  dup1\n  iszero\n  tag_1\n  jumpi\n  0x00\n  dup1\n  revert\ntag_1:\n  pop\n  mload(0x40)\n  sub(codesize, bytecodeSize)\n  dup1\n  bytecodeSize\n  dup4\n  codecopy\n  dup2\n  dup2\n  add\n  0x40\n  mstore\n  dup2\n  add\n  swap1\n  tag_2\n  swap2\n  swap1\n  tag_3\n  jump\t// in\ntag_2:\n    /* \"contracts/Fund.sol\":416:422  _token */\n  dup1\n    /* \"contracts/Fund.sol\":408:413  token */\n  0x00\n  dup1\n    /* \"contracts/Fund.sol\":408:422  token = _token */\n  0x0100\n  exp\n  dup2\n  sload\n  dup2\n  0xffffffffffffffffffffffffffffffffffffffff\n  mul\n  not\n  and\n  swap1\n  dup4\n  0xffffffffffffffffffffffffffffffffffffffff\n  and\n  mul\n  or\n  swap1\n  sstore\n  pop\n    /* \"contracts/Fund.sol\":371:430  constructor(ERC20 _token) {... */\n  pop\n    /* \"contracts/Fund.sol\":294:7155  contract FundRegistry {... */\n  jump(tag_6)\n    /* \"#utility.yul\":88:205   */\ntag_8:\n    /* \"#utility.yul\":197:198   */\n  0x00\n    /* \"#utility.yul\":194:195   */\n  dup1\n    /* \"#utility.yul\":187:199   */\n  revert\n    /* \"#utility.yul\":334:460   */\ntag_10:\n    /* \"#utility.yul\":371:378   */\n  0x00\n    /* \"#utility.yul\":411:453   */\n  0xffffffffffffffffffffffffffffffffffffffff\n    /* \"#utility.yul\":404:409   */\n  dup3\n    /* \"#utility.yul\":400:454   */\n  and\n    /* \"#utility.yul\":389:454   */\n  swap1\n  pop\n    /* \"#utility.yul\":334:460   */\n  swap2\n  swap1\n  pop\n  jump\t// out\n    /* \"#utility.yul\":466:562   */\ntag_11:\n    /* \"#utility.yul\":503:510   */\n  0x00\n    /* \"#utility.yul\":532:556   */\n  tag_21\n    /* \"#utility.yul\":550:555   */\n  dup3\n    /* \"#utility.yul\":532:556   */\n  tag_10\n  jump\t// in\ntag_21:\n    /* \"#utility.yul\":521:556   */\n  swap1\n  pop\n    /* \"#utility.yul\":466:562   */\n  swap2\n  swap1\n  pop\n  jump\t// out\n    /* \"#utility.yul\":568:677   */\ntag_12:\n    /* \"#utility.yul\":618:625   */\n  0x00\n    /* \"#utility.yul\":647:671   */\n  tag_23\n    /* \"#utility.yul\":665:670   */\n  dup3\n    /* \"#utility.yul\":647:671   */\n  tag_11\n  jump\t// in\ntag_23:\n    /* \"#utility.yul\":636:671   */\n  swap1\n  pop\n    /* \"#utility.yul\":568:677   */\n  swap2\n  swap1\n  pop\n  jump\t// out\n    /* \"#utility.yul\":683:831   */\ntag_13:\n    /* \"#utility.yul\":769:806   */\n  tag_25\n    /* \"#utility.yul\":800:805   */\n  dup2\n    /* \"#utility.yul\":769:806   */\n  tag_12\n  jump\t// in\ntag_25:\n    /* \"#utility.yul\":762:767   */\n  dup2\n    /* \"#utility.yul\":759:807   */\n  eq\n    /* \"#utility.yul\":749:825   */\n  tag_26\n  jumpi\n    /* \"#utility.yul\":821:822   */\n  0x00\n    /* \"#utility.yul\":818:819   */\n  dup1\n    /* \"#utility.yul\":811:823   */\n  revert\n    /* \"#utility.yul\":749:825   */\ntag_26:\n    /* \"#utility.yul\":683:831   */\n  pop\n  jump\t// out\n    /* \"#utility.yul\":837:1006   */\ntag_14:\n    /* \"#utility.yul\":907:912   */\n  0x00\n    /* \"#utility.yul\":938:944   */\n  dup2\n    /* \"#utility.yul\":932:945   */\n  mload\n    /* \"#utility.yul\":923:945   */\n  swap1\n  pop\n    /* \"#utility.yul\":954:1000   */\n  tag_28\n    /* \"#utility.yul\":994:999   */\n  dup2\n    /* \"#utility.yul\":954:1000   */\n  tag_13\n  jump\t// in\ntag_28:\n    /* \"#utility.yul\":837:1006   */\n  swap3\n  swap2\n  pop\n  pop\n  jump\t// out\n    /* \"#utility.yul\":1012:1389   */\ntag_3:\n    /* \"#utility.yul\":1095:1101   */\n  0x00\n    /* \"#utility.yul\":1144:1146   */\n  0x20\n    /* \"#utility.yul\":1132:1141   */\n  dup3\n    /* \"#utility.yul\":1123:1130   */\n  dup5\n    /* \"#utility.yul\":1119:1142   */\n  sub\n    /* \"#utility.yul\":1115:1147   */\n  slt\n    /* \"#utility.yul\":1112:1231   */\n  iszero\n  tag_30\n  jumpi\n    /* \"#utility.yul\":1150:1229   */\n  tag_31\n  tag_8\n  jump\t// in\ntag_31:\n    /* \"#utility.yul\":1112:1231   */\ntag_30:\n    /* \"#utility.yul\":1270:1271   */\n  0x00\n    /* \"#utility.yul\":1295:1372   */\n  tag_32\n    /* \"#utility.yul\":1364:1371   */\n  dup5\n    /* \"#utility.yul\":1355:1361   */\n  dup3\n    /* \"#utility.yul\":1344:1353   */\n  dup6\n    /* \"#utility.yul\":1340:1362   */\n  add\n    /* \"#utility.yul\":1295:1372   */\n  tag_14\n  jump\t// in\ntag_32:\n    /* \"#utility.yul\":1285:1372   */\n  swap2\n  pop\n    /* \"#utility.yul\":1241:1382   */\n  pop\n    /* \"#utility.yul\":1012:1389   */\n  swap3\n  swap2\n  pop\n  pop\n  jump\t// out\n    /* \"contracts/Fund.sol\":294:7155  contract FundRegistry {... */\ntag_6:\n  dataSize(sub_0)\n  dup1\n  dataOffset(sub_0)\n  0x00\n  codecopy\n  0x00\n  return\nstop\n\nsub_0: assembly {\n        /* \"contracts/Fund.sol\":294:7155  contract FundRegistry {... */\n      mstore(0x40, 0x80)\n      jumpi(tag_1, lt(calldatasize, 0x04))\n      shr(0xe0, calldataload(0x00))\n      dup1\n      0x3f936ff5\n      gt\n      tag_12\n      jumpi\n      dup1\n      0x3f936ff5\n      eq\n      tag_7\n      jumpi\n      dup1\n      0x6c173d38\n      eq\n      tag_8\n      jumpi\n      dup1\n      0x7a3819cb\n      eq\n      tag_9\n      jumpi\n      dup1\n      0x88b53ced\n      eq\n      tag_10\n      jumpi\n      dup1\n      0xdd7d7929\n      eq\n      tag_11\n      jumpi\n      jump(tag_1)\n    tag_12:\n      dup1\n      0x17444626\n      eq\n      tag_2\n      jumpi\n      dup1\n      0x1c69b464\n      eq\n      tag_3\n      jumpi\n      dup1\n      0x1f71f89f\n      eq\n      tag_4\n      jumpi\n      dup1\n      0x2f14670c\n      eq\n      tag_5\n      jumpi\n      dup1\n      0x380eaaf9\n      eq\n      tag_6\n      jumpi\n    tag_1:\n      0x00\n      dup1\n      revert\n        /* \"contracts/Fund.sol\":2736:3275  function createFund(... */\n    tag_2:\n      callvalue\n      dup1\n      iszero\n      tag_13\n      jumpi\n      0x00\n      dup1\n      revert\n    tag_13:\n      pop\n      tag_14\n      0x04\n      dup1\n      calldatasize\n      sub\n      dup2\n      add\n      swap1\n      tag_15\n      swap2\n      swap1\n      tag_16\n      jump\t// in\n    tag_15:\n      tag_17\n      jump\t// in\n    tag_14:\n      stop\n        /* \"contracts/Fund.sol\":3920:4028  function getAllFunds() external view returns (Fund[] memory){... */\n    tag_3:\n      callvalue\n      dup1\n      iszero\n      tag_18\n      jumpi\n      0x00\n      dup1\n      revert\n    tag_18:\n      pop\n      tag_19\n      tag_20\n      jump\t// in\n    tag_19:\n      mload(0x40)\n      tag_21\n      swap2\n      swap1\n      tag_22\n      jump\t// in\n    tag_21:\n      mload(0x40)\n      dup1\n      swap2\n      sub\n      swap1\n      return\n        /* \"contracts/Fund.sol\":988:1024  mapping(uint96 => Fund) public funds */\n    tag_4:\n      callvalue\n      dup1\n      iszero\n      tag_23\n      jumpi\n      0x00\n      dup1\n      revert\n    tag_23:\n      pop\n      tag_24\n      0x04\n      dup1\n      calldatasize\n      sub\n      dup2\n      add\n      swap1\n      tag_25\n      swap2\n      swap1\n      tag_26\n      jump\t// in\n    tag_25:\n      tag_27\n      jump\t// in\n    tag_24:\n      mload(0x40)\n      tag_28\n      swap9\n      swap8\n      swap7\n      swap6\n      swap5\n      swap4\n      swap3\n      swap2\n      swap1\n      tag_29\n      jump\t// in\n    tag_28:\n      mload(0x40)\n      dup1\n      swap2\n      sub\n      swap1\n      return\n        /* \"contracts/Fund.sol\":1031:1076  mapping(uint96 => address[]) public fundUsers */\n    tag_5:\n      callvalue\n      dup1\n      iszero\n      tag_30\n      jumpi\n      0x00\n      dup1\n      revert\n    tag_30:\n      pop\n      tag_31\n      0x04\n      dup1\n      calldatasize\n      sub\n      dup2\n      add\n      swap1\n      tag_32\n      swap2\n      swap1\n      tag_33\n      jump\t// in\n    tag_32:\n      tag_34\n      jump\t// in\n    tag_31:\n      mload(0x40)\n      tag_35\n      swap2\n      swap1\n      tag_36\n      jump\t// in\n    tag_35:\n      mload(0x40)\n      dup1\n      swap2\n      sub\n      swap1\n      return\n        /* \"contracts/Fund.sol\":4036:4470  function getFunds(uint96 _startId, uint96 _endId) public view returns (Fund[] memory){... */\n    tag_6:\n      callvalue\n      dup1\n      iszero\n      tag_37\n      jumpi\n      0x00\n      dup1\n      revert\n    tag_37:\n      pop\n      tag_38\n      0x04\n      dup1\n      calldatasize\n      sub\n      dup2\n      add\n      swap1\n      tag_39\n      swap2\n      swap1\n      tag_40\n      jump\t// in\n    tag_39:\n      tag_41\n      jump\t// in\n    tag_38:\n      mload(0x40)\n      tag_42\n      swap2\n      swap1\n      tag_22\n      jump\t// in\n    tag_42:\n      mload(0x40)\n      dup1\n      swap2\n      sub\n      swap1\n      return\n        /* \"contracts/Fund.sol\":341:364  uint96 public fundCount */\n    tag_7:\n      callvalue\n      dup1\n      iszero\n      tag_43\n      jumpi\n      0x00\n      dup1\n      revert\n    tag_43:\n      pop\n      tag_44\n      tag_45\n      jump\t// in\n    tag_44:\n      mload(0x40)\n      tag_46\n      swap2\n      swap1\n      tag_47\n      jump\t// in\n    tag_46:\n      mload(0x40)\n      dup1\n      swap2\n      sub\n      swap1\n      return\n        /* \"contracts/Fund.sol\":4482:4649  function getFundPayee(uint96 _id) public view returns (address){... */\n    tag_8:\n      callvalue\n      dup1\n      iszero\n      tag_48\n      jumpi\n      0x00\n      dup1\n      revert\n    tag_48:\n      pop\n      tag_49\n      0x04\n      dup1\n      calldatasize\n      sub\n      dup2\n      add\n      swap1\n      tag_50\n      swap2\n      swap1\n      tag_26\n      jump\t// in\n    tag_50:\n      tag_51\n      jump\t// in\n    tag_49:\n      mload(0x40)\n      tag_52\n      swap2\n      swap1\n      tag_36\n      jump\t// in\n    tag_52:\n      mload(0x40)\n      dup1\n      swap2\n      sub\n      swap1\n      return\n        /* \"contracts/Fund.sol\":1083:1153  mapping(uint96 => mapping(address => Donation[])) public fundDonations */\n    tag_9:\n      callvalue\n      dup1\n      iszero\n      tag_53\n      jumpi\n      0x00\n      dup1\n      revert\n    tag_53:\n      pop\n      tag_54\n      0x04\n      dup1\n      calldatasize\n      sub\n      dup2\n      add\n      swap1\n      tag_55\n      swap2\n      swap1\n      tag_56\n      jump\t// in\n    tag_55:\n      tag_57\n      jump\t// in\n    tag_54:\n      mload(0x40)\n      tag_58\n      swap4\n      swap3\n      swap2\n      swap1\n      tag_59\n      jump\t// in\n    tag_58:\n      mload(0x40)\n      dup1\n      swap2\n      sub\n      swap1\n      return\n        /* \"contracts/Fund.sol\":4657:5596  function donate(... */\n    tag_10:\n      tag_60\n      0x04\n      dup1\n      calldatasize\n      sub\n      dup2\n      add\n      swap1\n      tag_61\n      swap2\n      swap1\n      tag_62\n      jump\t// in\n    tag_61:\n      tag_63\n      jump\t// in\n    tag_60:\n      stop\n        /* \"contracts/Fund.sol\":3283:3908  function updateFund(... */\n    tag_11:\n      callvalue\n      dup1\n      iszero\n      tag_64\n      jumpi\n      0x00\n      dup1\n      revert\n    tag_64:\n      pop\n      tag_65\n      0x04\n      dup1\n      calldatasize\n      sub\n      dup2\n      add\n      swap1\n      tag_66\n      swap2\n      swap1\n      tag_67\n      jump\t// in\n    tag_66:\n      tag_68\n      jump\t// in\n    tag_65:\n      stop\n        /* \"contracts/Fund.sol\":2736:3275  function createFund(... */\n    tag_17:\n        /* \"contracts/Fund.sol\":2863:2873  uint96 _id */\n      0x00\n        /* \"contracts/Fund.sol\":2876:2885  fundCount */\n      dup1\n      0x14\n      swap1\n      sload\n      swap1\n      0x0100\n      exp\n      swap1\n      div\n      0xffffffffffffffffffffffff\n      and\n        /* \"contracts/Fund.sol\":2863:2885  uint96 _id = fundCount */\n      swap1\n      pop\n        /* \"contracts/Fund.sol\":2909:3125  Fund(... */\n      mload(0x40)\n      dup1\n      0x0100\n      add\n      0x40\n      mstore\n      dup1\n        /* \"contracts/Fund.sol\":2928:2931  _id */\n      dup3\n        /* \"contracts/Fund.sol\":2909:3125  Fund(... */\n      0xffffffffffffffffffffffff\n      and\n      dup2\n      mstore\n      0x20\n      add\n        /* \"contracts/Fund.sol\":2947:2953  _owner */\n      dup6\n        /* \"contracts/Fund.sol\":2909:3125  Fund(... */\n      0xffffffffffffffffffffffffffffffffffffffff\n      and\n      dup2\n      mstore\n      0x20\n      add\n        /* \"contracts/Fund.sol\":2976:2991  block.timestamp */\n      timestamp\n        /* \"contracts/Fund.sol\":2909:3125  Fund(... */\n      0xffffffffffff\n      and\n      dup2\n      mstore\n      0x20\n      add\n        /* \"contracts/Fund.sol\":3015:3030  block.timestamp */\n      timestamp\n        /* \"contracts/Fund.sol\":2909:3125  Fund(... */\n      0xffffffffffff\n      and\n      dup2\n      mstore\n      0x20\n      add\n        /* \"contracts/Fund.sol\":3047:3053  _payee */\n      dup5\n        /* \"contracts/Fund.sol\":2909:3125  Fund(... */\n      0xffffffffffffffffffffffffffffffffffffffff\n      and\n      dup2\n      mstore\n      0x20\n      add\n        /* \"contracts/Fund.sol\":3068:3078  _threshold */\n      dup4\n        /* \"contracts/Fund.sol\":2909:3125  Fund(... */\n      dup2\n      mstore\n      0x20\n      add\n        /* \"contracts/Fund.sol\":3093:3094  0 */\n      0x00\n        /* \"contracts/Fund.sol\":2909:3125  Fund(... */\n      dup2\n      mstore\n      0x20\n      add\n        /* \"contracts/Fund.sol\":3109:3114  false */\n      0x00\n        /* \"contracts/Fund.sol\":2909:3125  Fund(... */\n      iszero\n      iszero\n      dup2\n      mstore\n      pop\n        /* \"contracts/Fund.sol\":2896:2901  funds */\n      0x01\n        /* \"contracts/Fund.sol\":2896:2906  funds[_id] */\n      0x00\n        /* \"contracts/Fund.sol\":2902:2905  _id */\n      dup4\n        /* \"contracts/Fund.sol\":2896:2906  funds[_id] */\n      0xffffffffffffffffffffffff\n      and\n      0xffffffffffffffffffffffff\n      and\n      dup2\n      mstore\n      0x20\n      add\n      swap1\n      dup2\n      mstore\n      0x20\n      add\n      0x00\n      keccak256\n        /* \"contracts/Fund.sol\":2896:3125  funds[_id] = Fund(... */\n      0x00\n      dup3\n      add\n      mload\n      dup2\n      0x00\n      add\n      exp(0x0100, 0x00)\n      dup2\n      sload\n      dup2\n      0xffffffffffffffffffffffff\n      mul\n      not\n      and\n      swap1\n      dup4\n      0xffffffffffffffffffffffff\n      and\n      mul\n      or\n      swap1\n      sstore\n      pop\n      0x20\n      dup3\n      add\n      mload\n      dup2\n      0x00\n      add\n      exp(0x0100, 0x0c)\n      dup2\n      sload\n      dup2\n      0xffffffffffffffffffffffffffffffffffffffff\n      mul\n      not\n      and\n      swap1\n      dup4\n      0xffffffffffffffffffffffffffffffffffffffff\n      and\n      mul\n      or\n      swap1\n      sstore\n      pop\n      0x40\n      dup3\n      add\n      mload\n      dup2\n      0x01\n      add\n      exp(0x0100, 0x00)\n      dup2\n      sload\n      dup2\n      0xffffffffffff\n      mul\n      not\n      and\n      swap1\n      dup4\n      0xffffffffffff\n      and\n      mul\n      or\n      swap1\n      sstore\n      pop\n      0x60\n      dup3\n      add\n      mload\n      dup2\n      0x01\n      add\n      exp(0x0100, 0x06)\n      dup2\n      sload\n      dup2\n      0xffffffffffff\n      mul\n      not\n      and\n      swap1\n      dup4\n      0xffffffffffff\n      and\n      mul\n      or\n      swap1\n      sstore\n      pop\n      0x80\n      dup3\n      add\n      mload\n      dup2\n      0x01\n      add\n      exp(0x0100, 0x0c)\n      dup2\n      sload\n      dup2\n      0xffffffffffffffffffffffffffffffffffffffff\n      mul\n      not\n      and\n      swap1\n      dup4\n      0xffffffffffffffffffffffffffffffffffffffff\n      and\n      mul\n      or\n      swap1\n      sstore\n      pop\n      0xa0\n      dup3\n      add\n      mload\n      dup2\n      0x02\n      add\n      sstore\n      0xc0\n      dup3\n      add\n      mload\n      dup2\n      0x03\n      add\n      sstore\n      0xe0\n      dup3\n      add\n      mload\n      dup2\n      0x04\n      add\n      exp(0x0100, 0x00)\n      dup2\n      sload\n      dup2\n      0xff\n      mul\n      not\n      and\n      swap1\n      dup4\n      iszero\n      iszero\n      mul\n      or\n      swap1\n      sstore\n      pop\n      swap1\n      pop\n      pop\n        /* \"contracts/Fund.sol\":3206:3207  0 */\n      0x00\n        /* \"contracts/Fund.sol\":3194:3204  _threshold */\n      dup3\n        /* \"contracts/Fund.sol\":3173:3176  _id */\n      dup3\n        /* \"contracts/Fund.sol\":3161:3232  FundCreated(_id, _owner, _payee, _threshold, 0, false, block.timestamp) */\n      0xffffffffffffffffffffffff\n      and\n      0x1e216cc18d3e93f7c7b9a7b3a038093bc655d3d5cbfbb504d67d4376bd02d13f\n        /* \"contracts/Fund.sol\":3178:3184  _owner */\n      dup8\n        /* \"contracts/Fund.sol\":3186:3192  _payee */\n      dup8\n        /* \"contracts/Fund.sol\":3209:3214  false */\n      0x00\n        /* \"contracts/Fund.sol\":3216:3231  block.timestamp */\n      timestamp\n        /* \"contracts/Fund.sol\":3161:3232  FundCreated(_id, _owner, _payee, _threshold, 0, false, block.timestamp) */\n      mload(0x40)\n      tag_70\n      swap5\n      swap4\n      swap3\n      swap2\n      swap1\n      tag_71\n      jump\t// in\n    tag_70:\n      mload(0x40)\n      dup1\n      swap2\n      sub\n      swap1\n      log4\n        /* \"contracts/Fund.sol\":3266:3267  1 */\n      0x01\n        /* \"contracts/Fund.sol\":3253:3262  fundCount */\n      0x00\n      0x14\n        /* \"contracts/Fund.sol\":3253:3267  fundCount += 1 */\n      dup3\n      dup3\n      dup3\n      swap1\n      sload\n      swap1\n      0x0100\n      exp\n      swap1\n      div\n      0xffffffffffffffffffffffff\n      and\n      tag_72\n      swap2\n      swap1\n      tag_73\n      jump\t// in\n    tag_72:\n      swap3\n      pop\n      0x0100\n      exp\n      dup2\n      sload\n      dup2\n      0xffffffffffffffffffffffff\n      mul\n      not\n      and\n      swap1\n      dup4\n      0xffffffffffffffffffffffff\n      and\n      mul\n      or\n      swap1\n      sstore\n      pop\n        /* \"contracts/Fund.sol\":2852:3275  {... */\n      pop\n        /* \"contracts/Fund.sol\":2736:3275  function createFund(... */\n      pop\n      pop\n      pop\n      jump\t// out\n        /* \"contracts/Fund.sol\":3920:4028  function getAllFunds() external view returns (Fund[] memory){... */\n    tag_20:\n        /* \"contracts/Fund.sol\":3966:3979  Fund[] memory */\n      0x60\n        /* \"contracts/Fund.sol\":3998:4020  getFunds(0, fundCount) */\n      tag_75\n        /* \"contracts/Fund.sol\":4007:4008  0 */\n      0x00\n        /* \"contracts/Fund.sol\":4010:4019  fundCount */\n      dup1\n      0x14\n      swap1\n      sload\n      swap1\n      0x0100\n      exp\n      swap1\n      div\n      0xffffffffffffffffffffffff\n      and\n        /* \"contracts/Fund.sol\":3998:4006  getFunds */\n      tag_41\n        /* \"contracts/Fund.sol\":3998:4020  getFunds(0, fundCount) */\n      jump\t// in\n    tag_75:\n        /* \"contracts/Fund.sol\":3991:4020  return getFunds(0, fundCount) */\n      swap1\n      pop\n        /* \"contracts/Fund.sol\":3920:4028  function getAllFunds() external view returns (Fund[] memory){... */\n      swap1\n      jump\t// out\n        /* \"contracts/Fund.sol\":988:1024  mapping(uint96 => Fund) public funds */\n    tag_27:\n      mstore(0x20, 0x01)\n      dup1\n      0x00\n      mstore\n      keccak256(0x00, 0x40)\n      0x00\n      swap2\n      pop\n      swap1\n      pop\n      dup1\n      0x00\n      add\n      0x00\n      swap1\n      sload\n      swap1\n      0x0100\n      exp\n      swap1\n      div\n      0xffffffffffffffffffffffff\n      and\n      swap1\n      dup1\n      0x00\n      add\n      0x0c\n      swap1\n      sload\n      swap1\n      0x0100\n      exp\n      swap1\n      div\n      0xffffffffffffffffffffffffffffffffffffffff\n      and\n      swap1\n      dup1\n      0x01\n      add\n      0x00\n      swap1\n      sload\n      swap1\n      0x0100\n      exp\n      swap1\n      div\n      0xffffffffffff\n      and\n      swap1\n      dup1\n      0x01\n      add\n      0x06\n      swap1\n      sload\n      swap1\n      0x0100\n      exp\n      swap1\n      div\n      0xffffffffffff\n      and\n      swap1\n      dup1\n      0x01\n      add\n      0x0c\n      swap1\n      sload\n      swap1\n      0x0100\n      exp\n      swap1\n      div\n      0xffffffffffffffffffffffffffffffffffffffff\n      and\n      swap1\n      dup1\n      0x02\n      add\n      sload\n      swap1\n      dup1\n      0x03\n      add\n      sload\n      swap1\n      dup1\n      0x04\n      add\n      0x00\n      swap1\n      sload\n      swap1\n      0x0100\n      exp\n      swap1\n      div\n      0xff\n      and\n      swap1\n      pop\n      dup9\n      jump\t// out\n        /* \"contracts/Fund.sol\":1031:1076  mapping(uint96 => address[]) public fundUsers */\n    tag_34:\n      mstore(0x20, 0x02)\n      dup2\n      0x00\n      mstore\n      keccak256(0x00, 0x40)\n      dup2\n      dup2\n      sload\n      dup2\n      lt\n      tag_76\n      jumpi\n      0x00\n      dup1\n      revert\n    tag_76:\n      swap1\n      0x00\n      mstore\n      keccak256(0x00, 0x20)\n      add\n      0x00\n      swap2\n      pop\n      swap2\n      pop\n      swap1\n      sload\n      swap1\n      0x0100\n      exp\n      swap1\n      div\n      0xffffffffffffffffffffffffffffffffffffffff\n      and\n      dup2\n      jump\t// out\n        /* \"contracts/Fund.sol\":4036:4470  function getFunds(uint96 _startId, uint96 _endId) public view returns (Fund[] memory){... */\n    tag_41:\n        /* \"contracts/Fund.sol\":4107:4120  Fund[] memory */\n      0x60\n        /* \"contracts/Fund.sol\":4150:4159  fundCount */\n      0x00\n      0x14\n      swap1\n      sload\n      swap1\n      0x0100\n      exp\n      swap1\n      div\n      0xffffffffffffffffffffffff\n      and\n        /* \"contracts/Fund.sol\":4140:4159  _endId <= fundCount */\n      0xffffffffffffffffffffffff\n      and\n        /* \"contracts/Fund.sol\":4140:4146  _endId */\n      dup3\n        /* \"contracts/Fund.sol\":4140:4159  _endId <= fundCount */\n      0xffffffffffffffffffffffff\n      and\n      gt\n      iszero\n        /* \"contracts/Fund.sol\":4132:4191  require(_endId <= fundCount, \"Must be _endId <= fundCount\") */\n      tag_79\n      jumpi\n      mload(0x40)\n      0x08c379a000000000000000000000000000000000000000000000000000000000\n      dup2\n      mstore\n      0x04\n      add\n      tag_80\n      swap1\n      tag_81\n      jump\t// in\n    tag_80:\n      mload(0x40)\n      dup1\n      swap2\n      sub\n      swap1\n      revert\n    tag_79:\n        /* \"contracts/Fund.sol\":4222:4228  _endId */\n      dup2\n        /* \"contracts/Fund.sol\":4210:4228  _startId <= _endId */\n      0xffffffffffffffffffffffff\n      and\n        /* \"contracts/Fund.sol\":4210:4218  _startId */\n      dup4\n        /* \"contracts/Fund.sol\":4210:4228  _startId <= _endId */\n      0xffffffffffffffffffffffff\n      and\n      gt\n      iszero\n        /* \"contracts/Fund.sol\":4202:4259  require(_startId <= _endId, \"Must be _startId <= _endId\") */\n      tag_82\n      jumpi\n      mload(0x40)\n      0x08c379a000000000000000000000000000000000000000000000000000000000\n      dup2\n      mstore\n      0x04\n      add\n      tag_83\n      swap1\n      tag_84\n      jump\t// in\n    tag_83:\n      mload(0x40)\n      dup1\n      swap2\n      sub\n      swap1\n      revert\n    tag_82:\n        /* \"contracts/Fund.sol\":4270:4292  Fund[] memory fundList */\n      0x00\n        /* \"contracts/Fund.sol\":4315:4323  _startId */\n      dup4\n        /* \"contracts/Fund.sol\":4306:4312  _endId */\n      dup4\n        /* \"contracts/Fund.sol\":4306:4323  _endId - _startId */\n      tag_85\n      swap2\n      swap1\n      tag_86\n      jump\t// in\n    tag_85:\n        /* \"contracts/Fund.sol\":4295:4324  new Fund[](_endId - _startId) */\n      0xffffffffffffffffffffffff\n      and\n      0xffffffffffffffff\n      dup2\n      gt\n      iszero\n      tag_87\n      jumpi\n      tag_88\n      tag_89\n      jump\t// in\n    tag_88:\n    tag_87:\n      mload(0x40)\n      swap1\n      dup1\n      dup3\n      mstore\n      dup1\n      0x20\n      mul\n      0x20\n      add\n      dup3\n      add\n      0x40\n      mstore\n      dup1\n      iszero\n      tag_90\n      jumpi\n      dup2\n      0x20\n      add\n    tag_91:\n      tag_92\n      tag_93\n      jump\t// in\n    tag_92:\n      dup2\n      mstore\n      0x20\n      add\n      swap1\n      0x01\n      swap1\n      sub\n      swap1\n      dup2\n      tag_91\n      jumpi\n      swap1\n      pop\n    tag_90:\n      pop\n        /* \"contracts/Fund.sol\":4270:4324  Fund[] memory fundList = new Fund[](_endId - _startId) */\n      swap1\n      pop\n        /* \"contracts/Fund.sol\":4340:4348  uint96 i */\n      0x00\n        /* \"contracts/Fund.sol\":4351:4359  _startId */\n      dup5\n        /* \"contracts/Fund.sol\":4340:4359  uint96 i = _startId */\n      swap1\n      pop\n        /* \"contracts/Fund.sol\":4335:4437  for (uint96 i = _startId; i < _endId; i++){... */\n    tag_94:\n        /* \"contracts/Fund.sol\":4365:4371  _endId */\n      dup4\n        /* \"contracts/Fund.sol\":4361:4371  i < _endId */\n      0xffffffffffffffffffffffff\n      and\n        /* \"contracts/Fund.sol\":4361:4362  i */\n      dup2\n        /* \"contracts/Fund.sol\":4361:4371  i < _endId */\n      0xffffffffffffffffffffffff\n      and\n      lt\n        /* \"contracts/Fund.sol\":4335:4437  for (uint96 i = _startId; i < _endId; i++){... */\n      iszero\n      tag_95\n      jumpi\n        /* \"contracts/Fund.sol\":4417:4422  funds */\n      0x01\n        /* \"contracts/Fund.sol\":4417:4425  funds[i] */\n      0x00\n        /* \"contracts/Fund.sol\":4423:4424  i */\n      dup3\n        /* \"contracts/Fund.sol\":4417:4425  funds[i] */\n      0xffffffffffffffffffffffff\n      and\n      0xffffffffffffffffffffffff\n      and\n      dup2\n      mstore\n      0x20\n      add\n      swap1\n      dup2\n      mstore\n      0x20\n      add\n      0x00\n      keccak256\n        /* \"contracts/Fund.sol\":4392:4425  fundList[i - _startId] = funds[i] */\n      mload(0x40)\n      dup1\n      0x0100\n      add\n      0x40\n      mstore\n      swap1\n      dup2\n      0x00\n      dup3\n      add\n      0x00\n      swap1\n      sload\n      swap1\n      0x0100\n      exp\n      swap1\n      div\n      0xffffffffffffffffffffffff\n      and\n      0xffffffffffffffffffffffff\n      and\n      0xffffffffffffffffffffffff\n      and\n      dup2\n      mstore\n      0x20\n      add\n      0x00\n      dup3\n      add\n      0x0c\n      swap1\n      sload\n      swap1\n      0x0100\n      exp\n      swap1\n      div\n      0xffffffffffffffffffffffffffffffffffffffff\n      and\n      0xffffffffffffffffffffffffffffffffffffffff\n      and\n      0xffffffffffffffffffffffffffffffffffffffff\n      and\n      dup2\n      mstore\n      0x20\n      add\n      0x01\n      dup3\n      add\n      0x00\n      swap1\n      sload\n      swap1\n      0x0100\n      exp\n      swap1\n      div\n      0xffffffffffff\n      and\n      0xffffffffffff\n      and\n      0xffffffffffff\n      and\n      dup2\n      mstore\n      0x20\n      add\n      0x01\n      dup3\n      add\n      0x06\n      swap1\n      sload\n      swap1\n      0x0100\n      exp\n      swap1\n      div\n      0xffffffffffff\n      and\n      0xffffffffffff\n      and\n      0xffffffffffff\n      and\n      dup2\n      mstore\n      0x20\n      add\n      0x01\n      dup3\n      add\n      0x0c\n      swap1\n      sload\n      swap1\n      0x0100\n      exp\n      swap1\n      div\n      0xffffffffffffffffffffffffffffffffffffffff\n      and\n      0xffffffffffffffffffffffffffffffffffffffff\n      and\n      0xffffffffffffffffffffffffffffffffffffffff\n      and\n      dup2\n      mstore\n      0x20\n      add\n      0x02\n      dup3\n      add\n      sload\n      dup2\n      mstore\n      0x20\n      add\n      0x03\n      dup3\n      add\n      sload\n      dup2\n      mstore\n      0x20\n      add\n      0x04\n      dup3\n      add\n      0x00\n      swap1\n      sload\n      swap1\n      0x0100\n      exp\n      swap1\n      div\n      0xff\n      and\n      iszero\n      iszero\n      iszero\n      iszero\n      dup2\n      mstore\n      pop\n      pop\n        /* \"contracts/Fund.sol\":4392:4400  fundList */\n      dup3\n        /* \"contracts/Fund.sol\":4405:4413  _startId */\n      dup7\n        /* \"contracts/Fund.sol\":4401:4402  i */\n      dup4\n        /* \"contracts/Fund.sol\":4401:4413  i - _startId */\n      tag_97\n      swap2\n      swap1\n      tag_86\n      jump\t// in\n    tag_97:\n        /* \"contracts/Fund.sol\":4392:4414  fundList[i - _startId] */\n      0xffffffffffffffffffffffff\n      and\n      dup2\n      mload\n      dup2\n      lt\n      tag_98\n      jumpi\n      tag_99\n      tag_100\n      jump\t// in\n    tag_99:\n    tag_98:\n      0x20\n      mul\n      0x20\n      add\n      add\n        /* \"contracts/Fund.sol\":4392:4425  fundList[i - _startId] = funds[i] */\n      dup2\n      swap1\n      mstore\n      pop\n        /* \"contracts/Fund.sol\":4373:4376  i++ */\n      dup1\n      dup1\n      tag_101\n      swap1\n      tag_102\n      jump\t// in\n    tag_101:\n      swap2\n      pop\n      pop\n        /* \"contracts/Fund.sol\":4335:4437  for (uint96 i = _startId; i < _endId; i++){... */\n      jump(tag_94)\n    tag_95:\n      pop\n        /* \"contracts/Fund.sol\":4454:4462  fundList */\n      dup1\n        /* \"contracts/Fund.sol\":4447:4462  return fundList */\n      swap2\n      pop\n      pop\n        /* \"contracts/Fund.sol\":4036:4470  function getFunds(uint96 _startId, uint96 _endId) public view returns (Fund[] memory){... */\n      swap3\n      swap2\n      pop\n      pop\n      jump\t// out\n        /* \"contracts/Fund.sol\":341:364  uint96 public fundCount */\n    tag_45:\n      0x00\n      0x14\n      swap1\n      sload\n      swap1\n      0x0100\n      exp\n      swap1\n      div\n      0xffffffffffffffffffffffff\n      and\n      dup2\n      jump\t// out\n        /* \"contracts/Fund.sol\":4482:4649  function getFundPayee(uint96 _id) public view returns (address){... */\n    tag_51:\n        /* \"contracts/Fund.sol\":4537:4544  address */\n      0x00\n        /* \"contracts/Fund.sol\":4570:4579  fundCount */\n      dup1\n      0x14\n      swap1\n      sload\n      swap1\n      0x0100\n      exp\n      swap1\n      div\n      0xffffffffffffffffffffffff\n      and\n        /* \"contracts/Fund.sol\":4564:4579  _id < fundCount */\n      0xffffffffffffffffffffffff\n      and\n        /* \"contracts/Fund.sol\":4564:4567  _id */\n      dup3\n        /* \"contracts/Fund.sol\":4564:4579  _id < fundCount */\n      0xffffffffffffffffffffffff\n      and\n      lt\n        /* \"contracts/Fund.sol\":4556:4607  require(_id < fundCount, \"Must be _id < fundCount\") */\n      tag_104\n      jumpi\n      mload(0x40)\n      0x08c379a000000000000000000000000000000000000000000000000000000000\n      dup2\n      mstore\n      0x04\n      add\n      tag_105\n      swap1\n      tag_106\n      jump\t// in\n    tag_105:\n      mload(0x40)\n      dup1\n      swap2\n      sub\n      swap1\n      revert\n    tag_104:\n        /* \"contracts/Fund.sol\":4625:4630  funds */\n      0x01\n        /* \"contracts/Fund.sol\":4625:4635  funds[_id] */\n      0x00\n        /* \"contracts/Fund.sol\":4631:4634  _id */\n      dup4\n        /* \"contracts/Fund.sol\":4625:4635  funds[_id] */\n      0xffffffffffffffffffffffff\n      and\n      0xffffffffffffffffffffffff\n      and\n      dup2\n      mstore\n      0x20\n      add\n      swap1\n      dup2\n      mstore\n      0x20\n      add\n      0x00\n      keccak256\n        /* \"contracts/Fund.sol\":4625:4641  funds[_id].payee */\n      0x01\n      add\n      0x0c\n      swap1\n      sload\n      swap1\n      0x0100\n      exp\n      swap1\n      div\n      0xffffffffffffffffffffffffffffffffffffffff\n      and\n        /* \"contracts/Fund.sol\":4618:4641  return funds[_id].payee */\n      swap1\n      pop\n        /* \"contracts/Fund.sol\":4482:4649  function getFundPayee(uint96 _id) public view returns (address){... */\n      swap2\n      swap1\n      pop\n      jump\t// out\n        /* \"contracts/Fund.sol\":1083:1153  mapping(uint96 => mapping(address => Donation[])) public fundDonations */\n    tag_57:\n      mstore(0x20, 0x03)\n      dup3\n      0x00\n      mstore\n      mstore(0x20, keccak256(0x00, 0x40))\n      dup2\n      0x00\n      mstore\n      keccak256(0x00, 0x40)\n      dup2\n      dup2\n      sload\n      dup2\n      lt\n      tag_107\n      jumpi\n      0x00\n      dup1\n      revert\n    tag_107:\n      swap1\n      0x00\n      mstore\n      keccak256(0x00, 0x20)\n      swap1\n      0x02\n      mul\n      add\n      0x00\n      swap3\n      pop\n      swap3\n      pop\n      pop\n      pop\n      dup1\n      0x00\n      add\n      0x00\n      swap1\n      sload\n      swap1\n      0x0100\n      exp\n      swap1\n      div\n      0xffffffffffffffffffffffffffffffffffffffff\n      and\n      swap1\n      dup1\n      0x00\n      add\n      0x14\n      swap1\n      sload\n      swap1\n      0x0100\n      exp\n      swap1\n      div\n      0xffffffffffffffffffffffff\n      and\n      swap1\n      dup1\n      0x01\n      add\n      sload\n      swap1\n      pop\n      dup4\n      jump\t// out\n        /* \"contracts/Fund.sol\":4657:5596  function donate(... */\n    tag_63:\n        /* \"contracts/Fund.sol\":4815:4854  createDonation(_user, _fundId, _amount) */\n      tag_110\n        /* \"contracts/Fund.sol\":4830:4835  _user */\n      dup4\n        /* \"contracts/Fund.sol\":4837:4844  _fundId */\n      dup4\n        /* \"contracts/Fund.sol\":4846:4853  _amount */\n      dup4\n        /* \"contracts/Fund.sol\":4815:4829  createDonation */\n      tag_111\n        /* \"contracts/Fund.sol\":4815:4854  createDonation(_user, _fundId, _amount) */\n      jump\t// in\n    tag_110:\n        /* \"contracts/Fund.sol\":4897:4901  QF() */\n      tag_112\n        /* \"contracts/Fund.sol\":4897:4899  QF */\n      tag_113\n        /* \"contracts/Fund.sol\":4897:4901  QF() */\n      jump\t// in\n    tag_112:\n        /* \"contracts/Fund.sol\":4968:4982  uint96 fundIdx */\n      0x00\n        /* \"contracts/Fund.sol\":4963:5587  for (uint96 fundIdx = 0; fundIdx < fundCount; fundIdx++) {... */\n    tag_114:\n        /* \"contracts/Fund.sol\":4998:5007  fundCount */\n      0x00\n      0x14\n      swap1\n      sload\n      swap1\n      0x0100\n      exp\n      swap1\n      div\n      0xffffffffffffffffffffffff\n      and\n        /* \"contracts/Fund.sol\":4988:5007  fundIdx < fundCount */\n      0xffffffffffffffffffffffff\n      and\n        /* \"contracts/Fund.sol\":4988:4995  fundIdx */\n      dup2\n        /* \"contracts/Fund.sol\":4988:5007  fundIdx < fundCount */\n      0xffffffffffffffffffffffff\n      and\n      lt\n        /* \"contracts/Fund.sol\":4963:5587  for (uint96 fundIdx = 0; fundIdx < fundCount; fundIdx++) {... */\n      iszero\n      tag_115\n      jumpi\n        /* \"contracts/Fund.sol\":5065:5070  funds */\n      0x01\n        /* \"contracts/Fund.sol\":5065:5079  funds[fundIdx] */\n      0x00\n        /* \"contracts/Fund.sol\":5071:5078  fundIdx */\n      dup3\n        /* \"contracts/Fund.sol\":5065:5079  funds[fundIdx] */\n      0xffffffffffffffffffffffff\n      and\n      0xffffffffffffffffffffffff\n      and\n      dup2\n      mstore\n      0x20\n      add\n      swap1\n      dup2\n      mstore\n      0x20\n      add\n      0x00\n      keccak256\n        /* \"contracts/Fund.sol\":5065:5091  funds[fundIdx].totalAmount */\n      0x03\n      add\n      sload\n        /* \"contracts/Fund.sol\":5038:5043  funds */\n      0x01\n        /* \"contracts/Fund.sol\":5038:5052  funds[fundIdx] */\n      0x00\n        /* \"contracts/Fund.sol\":5044:5051  fundIdx */\n      dup4\n        /* \"contracts/Fund.sol\":5038:5052  funds[fundIdx] */\n      0xffffffffffffffffffffffff\n      and\n      0xffffffffffffffffffffffff\n      and\n      dup2\n      mstore\n      0x20\n      add\n      swap1\n      dup2\n      mstore\n      0x20\n      add\n      0x00\n      keccak256\n        /* \"contracts/Fund.sol\":5038:5062  funds[fundIdx].threshold */\n      0x02\n      add\n      sload\n        /* \"contracts/Fund.sol\":5038:5091  funds[fundIdx].threshold < funds[fundIdx].totalAmount */\n      lt\n        /* \"contracts/Fund.sol\":5035:5572  if(funds[fundIdx].threshold < funds[fundIdx].totalAmount) { //임계량을 넘었는지 체크한다.... */\n      iszero\n      tag_117\n      jumpi\n        /* \"contracts/Fund.sol\":5154:5159  token */\n      0x00\n      dup1\n      sload\n      swap1\n      0x0100\n      exp\n      swap1\n      div\n      0xffffffffffffffffffffffffffffffffffffffff\n      and\n        /* \"contracts/Fund.sol\":5154:5168  token.transfer */\n      0xffffffffffffffffffffffffffffffffffffffff\n      and\n      0xa9059cbb\n        /* \"contracts/Fund.sol\":5169:5190  getFundPayee(fundIdx) */\n      tag_118\n        /* \"contracts/Fund.sol\":5182:5189  fundIdx */\n      dup4\n        /* \"contracts/Fund.sol\":5169:5181  getFundPayee */\n      tag_51\n        /* \"contracts/Fund.sol\":5169:5190  getFundPayee(fundIdx) */\n      jump\t// in\n    tag_118:\n        /* \"contracts/Fund.sol\":5192:5197  funds */\n      0x01\n        /* \"contracts/Fund.sol\":5192:5206  funds[fundIdx] */\n      0x00\n        /* \"contracts/Fund.sol\":5198:5205  fundIdx */\n      dup6\n        /* \"contracts/Fund.sol\":5192:5206  funds[fundIdx] */\n      0xffffffffffffffffffffffff\n      and\n      0xffffffffffffffffffffffff\n      and\n      dup2\n      mstore\n      0x20\n      add\n      swap1\n      dup2\n      mstore\n      0x20\n      add\n      0x00\n      keccak256\n        /* \"contracts/Fund.sol\":5192:5218  funds[fundIdx].totalAmount */\n      0x03\n      add\n      sload\n        /* \"contracts/Fund.sol\":5154:5219  token.transfer(getFundPayee(fundIdx), funds[fundIdx].totalAmount) */\n      mload(0x40)\n      dup4\n      0xffffffff\n      and\n      0xe0\n      shl\n      dup2\n      mstore\n      0x04\n      add\n      tag_119\n      swap3\n      swap2\n      swap1\n      tag_120\n      jump\t// in\n    tag_119:\n      0x20\n      mload(0x40)\n      dup1\n      dup4\n      sub\n      dup2\n      0x00\n      dup8\n      gas\n      call\n      iszero\n      dup1\n      iszero\n      tag_122\n      jumpi\n      returndatasize\n      0x00\n      dup1\n      returndatacopy\n      revert(0x00, returndatasize)\n    tag_122:\n      pop\n      pop\n      pop\n      pop\n      mload(0x40)\n      returndatasize\n      not(0x1f)\n      0x1f\n      dup3\n      add\n      and\n      dup3\n      add\n      dup1\n      0x40\n      mstore\n      pop\n      dup2\n      add\n      swap1\n      tag_123\n      swap2\n      swap1\n      tag_124\n      jump\t// in\n    tag_123:\n      pop\n        /* \"contracts/Fund.sol\":5303:5310  fundIdx */\n      dup1\n        /* \"contracts/Fund.sol\":5266:5416  FundCompletion(... */\n      0xffffffffffffffffffffffff\n      and\n      0xcd79837f8e8f598de24ef07ea60108df97918f95cfc31d1d61ff9fa09c240352\n        /* \"contracts/Fund.sol\":5333:5338  funds */\n      0x01\n        /* \"contracts/Fund.sol\":5333:5347  funds[fundIdx] */\n      0x00\n        /* \"contracts/Fund.sol\":5339:5346  fundIdx */\n      dup5\n        /* \"contracts/Fund.sol\":5333:5347  funds[fundIdx] */\n      0xffffffffffffffffffffffff\n      and\n      0xffffffffffffffffffffffff\n      and\n      dup2\n      mstore\n      0x20\n      add\n      swap1\n      dup2\n      mstore\n      0x20\n      add\n      0x00\n      keccak256\n        /* \"contracts/Fund.sol\":5333:5359  funds[fundIdx].totalAmount */\n      0x03\n      add\n      sload\n        /* \"contracts/Fund.sol\":5382:5397  block.timestamp */\n      timestamp\n        /* \"contracts/Fund.sol\":5266:5416  FundCompletion(... */\n      mload(0x40)\n      tag_125\n      swap3\n      swap2\n      swap1\n      tag_126\n      jump\t// in\n    tag_125:\n      mload(0x40)\n      dup1\n      swap2\n      sub\n      swap1\n      log2\n        /* \"contracts/Fund.sol\":5458:5462  true */\n      0x01\n        /* \"contracts/Fund.sol\":5435:5440  funds */\n      dup1\n        /* \"contracts/Fund.sol\":5435:5449  funds[fundIdx] */\n      0x00\n        /* \"contracts/Fund.sol\":5441:5448  fundIdx */\n      dup4\n        /* \"contracts/Fund.sol\":5435:5449  funds[fundIdx] */\n      0xffffffffffffffffffffffff\n      and\n      0xffffffffffffffffffffffff\n      and\n      dup2\n      mstore\n      0x20\n      add\n      swap1\n      dup2\n      mstore\n      0x20\n      add\n      0x00\n      keccak256\n        /* \"contracts/Fund.sol\":5435:5455  funds[fundIdx].isEnd */\n      0x04\n      add\n      0x00\n        /* \"contracts/Fund.sol\":5435:5462  funds[fundIdx].isEnd = true */\n      0x0100\n      exp\n      dup2\n      sload\n      dup2\n      0xff\n      mul\n      not\n      and\n      swap1\n      dup4\n      iszero\n      iszero\n      mul\n      or\n      swap1\n      sstore\n      pop\n        /* \"contracts/Fund.sol\":5555:5556  0 */\n      0x00\n        /* \"contracts/Fund.sol\":5526:5531  funds */\n      0x01\n        /* \"contracts/Fund.sol\":5526:5540  funds[fundIdx] */\n      0x00\n        /* \"contracts/Fund.sol\":5532:5539  fundIdx */\n      dup4\n        /* \"contracts/Fund.sol\":5526:5540  funds[fundIdx] */\n      0xffffffffffffffffffffffff\n      and\n      0xffffffffffffffffffffffff\n      and\n      dup2\n      mstore\n      0x20\n      add\n      swap1\n      dup2\n      mstore\n      0x20\n      add\n      0x00\n      keccak256\n        /* \"contracts/Fund.sol\":5526:5552  funds[fundIdx].totalAmount */\n      0x03\n      add\n        /* \"contracts/Fund.sol\":5526:5556  funds[fundIdx].totalAmount = 0 */\n      dup2\n      swap1\n      sstore\n      pop\n        /* \"contracts/Fund.sol\":5035:5572  if(funds[fundIdx].threshold < funds[fundIdx].totalAmount) { //임계량을 넘었는지 체크한다.... */\n    tag_117:\n        /* \"contracts/Fund.sol\":5009:5018  fundIdx++ */\n      dup1\n      dup1\n      tag_127\n      swap1\n      tag_102\n      jump\t// in\n    tag_127:\n      swap2\n      pop\n      pop\n        /* \"contracts/Fund.sol\":4963:5587  for (uint96 fundIdx = 0; fundIdx < fundCount; fundIdx++) {... */\n      jump(tag_114)\n    tag_115:\n      pop\n        /* \"contracts/Fund.sol\":4657:5596  function donate(... */\n      pop\n      pop\n      pop\n      jump\t// out\n        /* \"contracts/Fund.sol\":3283:3908  function updateFund(... */\n    tag_68:\n        /* \"contracts/Fund.sol\":3430:3447  Fund memory _fund */\n      0x00\n        /* \"contracts/Fund.sol\":3450:3455  funds */\n      0x01\n        /* \"contracts/Fund.sol\":3450:3460  funds[_id] */\n      0x00\n        /* \"contracts/Fund.sol\":3456:3459  _id */\n      dup7\n        /* \"contracts/Fund.sol\":3450:3460  funds[_id] */\n      0xffffffffffffffffffffffff\n      and\n      0xffffffffffffffffffffffff\n      and\n      dup2\n      mstore\n      0x20\n      add\n      swap1\n      dup2\n      mstore\n      0x20\n      add\n      0x00\n      keccak256\n        /* \"contracts/Fund.sol\":3430:3460  Fund memory _fund = funds[_id] */\n      mload(0x40)\n      dup1\n      0x0100\n      add\n      0x40\n      mstore\n      swap1\n      dup2\n      0x00\n      dup3\n      add\n      0x00\n      swap1\n      sload\n      swap1\n      0x0100\n      exp\n      swap1\n      div\n      0xffffffffffffffffffffffff\n      and\n      0xffffffffffffffffffffffff\n      and\n      0xffffffffffffffffffffffff\n      and\n      dup2\n      mstore\n      0x20\n      add\n      0x00\n      dup3\n      add\n      0x0c\n      swap1\n      sload\n      swap1\n      0x0100\n      exp\n      swap1\n      div\n      0xffffffffffffffffffffffffffffffffffffffff\n      and\n      0xffffffffffffffffffffffffffffffffffffffff\n      and\n      0xffffffffffffffffffffffffffffffffffffffff\n      and\n      dup2\n      mstore\n      0x20\n      add\n      0x01\n      dup3\n      add\n      0x00\n      swap1\n      sload\n      swap1\n      0x0100\n      exp\n      swap1\n      div\n      0xffffffffffff\n      and\n      0xffffffffffff\n      and\n      0xffffffffffff\n      and\n      dup2\n      mstore\n      0x20\n      add\n      0x01\n      dup3\n      add\n      0x06\n      swap1\n      sload\n      swap1\n      0x0100\n      exp\n      swap1\n      div\n      0xffffffffffff\n      and\n      0xffffffffffff\n      and\n      0xffffffffffff\n      and\n      dup2\n      mstore\n      0x20\n      add\n      0x01\n      dup3\n      add\n      0x0c\n      swap1\n      sload\n      swap1\n      0x0100\n      exp\n      swap1\n      div\n      0xffffffffffffffffffffffffffffffffffffffff\n      and\n      0xffffffffffffffffffffffffffffffffffffffff\n      and\n      0xffffffffffffffffffffffffffffffffffffffff\n      and\n      dup2\n      mstore\n      0x20\n      add\n      0x02\n      dup3\n      add\n      sload\n      dup2\n      mstore\n      0x20\n      add\n      0x03\n      dup3\n      add\n      sload\n      dup2\n      mstore\n      0x20\n      add\n      0x04\n      dup3\n      add\n      0x00\n      swap1\n      sload\n      swap1\n      0x0100\n      exp\n      swap1\n      div\n      0xff\n      and\n      iszero\n      iszero\n      iszero\n      iszero\n      dup2\n      mstore\n      pop\n      pop\n      swap1\n      pop\n        /* \"contracts/Fund.sol\":3493:3498  _fund */\n      dup1\n        /* \"contracts/Fund.sol\":3493:3504  _fund.owner */\n      0x20\n      add\n      mload\n        /* \"contracts/Fund.sol\":3479:3504  msg.sender == _fund.owner */\n      0xffffffffffffffffffffffffffffffffffffffff\n      and\n        /* \"contracts/Fund.sol\":3479:3489  msg.sender */\n      caller\n        /* \"contracts/Fund.sol\":3479:3504  msg.sender == _fund.owner */\n      0xffffffffffffffffffffffffffffffffffffffff\n      and\n      eq\n        /* \"contracts/Fund.sol\":3471:3535  require(msg.sender == _fund.owner, \"Fund Update not authorized\") */\n      tag_129\n      jumpi\n      mload(0x40)\n      0x08c379a000000000000000000000000000000000000000000000000000000000\n      dup2\n      mstore\n      0x04\n      add\n      tag_130\n      swap1\n      tag_131\n      jump\t// in\n    tag_130:\n      mload(0x40)\n      dup1\n      swap2\n      sub\n      swap1\n      revert\n    tag_129:\n        /* \"contracts/Fund.sol\":3559:3791  Fund(... */\n      mload(0x40)\n      dup1\n      0x0100\n      add\n      0x40\n      mstore\n      dup1\n        /* \"contracts/Fund.sol\":3578:3581  _id */\n      dup7\n        /* \"contracts/Fund.sol\":3559:3791  Fund(... */\n      0xffffffffffffffffffffffff\n      and\n      dup2\n      mstore\n      0x20\n      add\n        /* \"contracts/Fund.sol\":3597:3603  _owner */\n      dup6\n        /* \"contracts/Fund.sol\":3559:3791  Fund(... */\n      0xffffffffffffffffffffffffffffffffffffffff\n      and\n      dup2\n      mstore\n      0x20\n      add\n        /* \"contracts/Fund.sol\":3619:3624  _fund */\n      dup3\n        /* \"contracts/Fund.sol\":3619:3634  _fund.createdAt */\n      0x40\n      add\n      mload\n        /* \"contracts/Fund.sol\":3559:3791  Fund(... */\n      0xffffffffffff\n      and\n      dup2\n      mstore\n      0x20\n      add\n        /* \"contracts/Fund.sol\":3657:3672  block.timestamp */\n      timestamp\n        /* \"contracts/Fund.sol\":3559:3791  Fund(... */\n      0xffffffffffff\n      and\n      dup2\n      mstore\n      0x20\n      add\n        /* \"contracts/Fund.sol\":3689:3695  _payee */\n      dup5\n        /* \"contracts/Fund.sol\":3559:3791  Fund(... */\n      0xffffffffffffffffffffffffffffffffffffffff\n      and\n      dup2\n      mstore\n      0x20\n      add\n        /* \"contracts/Fund.sol\":3711:3721  _threshold */\n      dup4\n        /* \"contracts/Fund.sol\":3559:3791  Fund(... */\n      dup2\n      mstore\n      0x20\n      add\n        /* \"contracts/Fund.sol\":3737:3742  _fund */\n      dup3\n        /* \"contracts/Fund.sol\":3737:3754  _fund.totalAmount */\n      0xc0\n      add\n      mload\n        /* \"contracts/Fund.sol\":3559:3791  Fund(... */\n      dup2\n      mstore\n      0x20\n      add\n        /* \"contracts/Fund.sol\":3769:3774  _fund */\n      dup3\n        /* \"contracts/Fund.sol\":3769:3780  _fund.isEnd */\n      0xe0\n      add\n      mload\n        /* \"contracts/Fund.sol\":3559:3791  Fund(... */\n      iszero\n      iszero\n      dup2\n      mstore\n      pop\n        /* \"contracts/Fund.sol\":3546:3551  funds */\n      0x01\n        /* \"contracts/Fund.sol\":3546:3556  funds[_id] */\n      0x00\n        /* \"contracts/Fund.sol\":3552:3555  _id */\n      dup8\n        /* \"contracts/Fund.sol\":3546:3556  funds[_id] */\n      0xffffffffffffffffffffffff\n      and\n      0xffffffffffffffffffffffff\n      and\n      dup2\n      mstore\n      0x20\n      add\n      swap1\n      dup2\n      mstore\n      0x20\n      add\n      0x00\n      keccak256\n        /* \"contracts/Fund.sol\":3546:3791  funds[_id] = Fund(... */\n      0x00\n      dup3\n      add\n      mload\n      dup2\n      0x00\n      add\n      exp(0x0100, 0x00)\n      dup2\n      sload\n      dup2\n      0xffffffffffffffffffffffff\n      mul\n      not\n      and\n      swap1\n      dup4\n      0xffffffffffffffffffffffff\n      and\n      mul\n      or\n      swap1\n      sstore\n      pop\n      0x20\n      dup3\n      add\n      mload\n      dup2\n      0x00\n      add\n      exp(0x0100, 0x0c)\n      dup2\n      sload\n      dup2\n      0xffffffffffffffffffffffffffffffffffffffff\n      mul\n      not\n      and\n      swap1\n      dup4\n      0xffffffffffffffffffffffffffffffffffffffff\n      and\n      mul\n      or\n      swap1\n      sstore\n      pop\n      0x40\n      dup3\n      add\n      mload\n      dup2\n      0x01\n      add\n      exp(0x0100, 0x00)\n      dup2\n      sload\n      dup2\n      0xffffffffffff\n      mul\n      not\n      and\n      swap1\n      dup4\n      0xffffffffffff\n      and\n      mul\n      or\n      swap1\n      sstore\n      pop\n      0x60\n      dup3\n      add\n      mload\n      dup2\n      0x01\n      add\n      exp(0x0100, 0x06)\n      dup2\n      sload\n      dup2\n      0xffffffffffff\n      mul\n      not\n      and\n      swap1\n      dup4\n      0xffffffffffff\n      and\n      mul\n      or\n      swap1\n      sstore\n      pop\n      0x80\n      dup3\n      add\n      mload\n      dup2\n      0x01\n      add\n      exp(0x0100, 0x0c)\n      dup2\n      sload\n      dup2\n      0xffffffffffffffffffffffffffffffffffffffff\n      mul\n      not\n      and\n      swap1\n      dup4\n      0xffffffffffffffffffffffffffffffffffffffff\n      and\n      mul\n      or\n      swap1\n      sstore\n      pop\n      0xa0\n      dup3\n      add\n      mload\n      dup2\n      0x02\n      add\n      sstore\n      0xc0\n      dup3\n      add\n      mload\n      dup2\n      0x03\n      add\n      sstore\n      0xe0\n      dup3\n      add\n      mload\n      dup2\n      0x04\n      add\n      exp(0x0100, 0x00)\n      dup2\n      sload\n      dup2\n      0xff\n      mul\n      not\n      and\n      swap1\n      dup4\n      iszero\n      iszero\n      mul\n      or\n      swap1\n      sstore\n      pop\n      swap1\n      pop\n      pop\n        /* \"contracts/Fund.sol\":3852:3857  _fund */\n      dup1\n        /* \"contracts/Fund.sol\":3852:3869  _fund.totalAmount */\n      0xc0\n      add\n      mload\n        /* \"contracts/Fund.sol\":3840:3850  _threshold */\n      dup3\n        /* \"contracts/Fund.sol\":3819:3822  _id */\n      dup7\n        /* \"contracts/Fund.sol\":3807:3900  FundUpdated(_id, _owner, _payee, _threshold, _fund.totalAmount, _fund.isEnd, block.timestamp) */\n      0xffffffffffffffffffffffff\n      and\n      0x603e97a48f8cadd1e9020bf96470c32853c5d9d8ed30f7cbe961f12ad2a45fa0\n        /* \"contracts/Fund.sol\":3824:3830  _owner */\n      dup8\n        /* \"contracts/Fund.sol\":3832:3838  _payee */\n      dup8\n        /* \"contracts/Fund.sol\":3871:3876  _fund */\n      dup7\n        /* \"contracts/Fund.sol\":3871:3882  _fund.isEnd */\n      0xe0\n      add\n      mload\n        /* \"contracts/Fund.sol\":3884:3899  block.timestamp */\n      timestamp\n        /* \"contracts/Fund.sol\":3807:3900  FundUpdated(_id, _owner, _payee, _threshold, _fund.totalAmount, _fund.isEnd, block.timestamp) */\n      mload(0x40)\n      tag_132\n      swap5\n      swap4\n      swap3\n      swap2\n      swap1\n      tag_71\n      jump\t// in\n    tag_132:\n      mload(0x40)\n      dup1\n      swap2\n      sub\n      swap1\n      log4\n        /* \"contracts/Fund.sol\":3419:3908  {... */\n      pop\n        /* \"contracts/Fund.sol\":3283:3908  function updateFund(... */\n      pop\n      pop\n      pop\n      pop\n      jump\t// out\n        /* \"contracts/Fund.sol\":1783:2728  function createDonation(... */\n    tag_111:\n        /* \"contracts/Fund.sol\":1941:1948  _amount */\n      dup1\n        /* \"contracts/Fund.sol\":1916:1921  token */\n      0x00\n      dup1\n      sload\n      swap1\n      0x0100\n      exp\n      swap1\n      div\n      0xffffffffffffffffffffffffffffffffffffffff\n      and\n        /* \"contracts/Fund.sol\":1916:1931  token.balanceOf */\n      0xffffffffffffffffffffffffffffffffffffffff\n      and\n      0x70a08231\n        /* \"contracts/Fund.sol\":1932:1937  _user */\n      dup6\n        /* \"contracts/Fund.sol\":1916:1938  token.balanceOf(_user) */\n      mload(0x40)\n      dup3\n      0xffffffff\n      and\n      0xe0\n      shl\n      dup2\n      mstore\n      0x04\n      add\n      tag_134\n      swap2\n      swap1\n      tag_36\n      jump\t// in\n    tag_134:\n      0x20\n      mload(0x40)\n      dup1\n      dup4\n      sub\n      dup2\n      dup7\n      gas\n      staticcall\n      iszero\n      dup1\n      iszero\n      tag_136\n      jumpi\n      returndatasize\n      0x00\n      dup1\n      returndatacopy\n      revert(0x00, returndatasize)\n    tag_136:\n      pop\n      pop\n      pop\n      pop\n      mload(0x40)\n      returndatasize\n      not(0x1f)\n      0x1f\n      dup3\n      add\n      and\n      dup3\n      add\n      dup1\n      0x40\n      mstore\n      pop\n      dup2\n      add\n      swap1\n      tag_137\n      swap2\n      swap1\n      tag_138\n      jump\t// in\n    tag_137:\n        /* \"contracts/Fund.sol\":1916:1948  token.balanceOf(_user) > _amount */\n      gt\n        /* \"contracts/Fund.sol\":1908:1989  require(token.balanceOf(_user) > _amount, \"token amount of user not sufficient\" ) */\n      tag_139\n      jumpi\n      mload(0x40)\n      0x08c379a000000000000000000000000000000000000000000000000000000000\n      dup2\n      mstore\n      0x04\n      add\n      tag_140\n      swap1\n      tag_141\n      jump\t// in\n    tag_140:\n      mload(0x40)\n      dup1\n      swap2\n      sub\n      swap1\n      revert\n    tag_139:\n        /* \"contracts/Fund.sol\":2048:2055  _amount */\n      dup1\n        /* \"contracts/Fund.sol\":2008:2013  token */\n      0x00\n      dup1\n      sload\n      swap1\n      0x0100\n      exp\n      swap1\n      div\n      0xffffffffffffffffffffffffffffffffffffffff\n      and\n        /* \"contracts/Fund.sol\":2008:2023  token.allowance */\n      0xffffffffffffffffffffffffffffffffffffffff\n      and\n      0xdd62ed3e\n        /* \"contracts/Fund.sol\":2024:2029  _user */\n      dup6\n        /* \"contracts/Fund.sol\":2039:2043  this */\n      address\n        /* \"contracts/Fund.sol\":2008:2045  token.allowance(_user, address(this)) */\n      mload(0x40)\n      dup4\n      0xffffffff\n      and\n      0xe0\n      shl\n      dup2\n      mstore\n      0x04\n      add\n      tag_142\n      swap3\n      swap2\n      swap1\n      tag_143\n      jump\t// in\n    tag_142:\n      0x20\n      mload(0x40)\n      dup1\n      dup4\n      sub\n      dup2\n      dup7\n      gas\n      staticcall\n      iszero\n      dup1\n      iszero\n      tag_145\n      jumpi\n      returndatasize\n      0x00\n      dup1\n      returndatacopy\n      revert(0x00, returndatasize)\n    tag_145:\n      pop\n      pop\n      pop\n      pop\n      mload(0x40)\n      returndatasize\n      not(0x1f)\n      0x1f\n      dup3\n      add\n      and\n      dup3\n      add\n      dup1\n      0x40\n      mstore\n      pop\n      dup2\n      add\n      swap1\n      tag_146\n      swap2\n      swap1\n      tag_138\n      jump\t// in\n    tag_146:\n        /* \"contracts/Fund.sol\":2008:2055  token.allowance(_user, address(this)) > _amount */\n      gt\n        /* \"contracts/Fund.sol\":2000:2084  require(token.allowance(_user, address(this)) > _amount, \"token allowance shortage\") */\n      tag_147\n      jumpi\n      mload(0x40)\n      0x08c379a000000000000000000000000000000000000000000000000000000000\n      dup2\n      mstore\n      0x04\n      add\n      tag_148\n      swap1\n      tag_149\n      jump\t// in\n    tag_148:\n      mload(0x40)\n      dup1\n      swap2\n      sub\n      swap1\n      revert\n    tag_147:\n        /* \"contracts/Fund.sol\":2111:2116  token */\n      0x00\n      dup1\n      sload\n      swap1\n      0x0100\n      exp\n      swap1\n      div\n      0xffffffffffffffffffffffffffffffffffffffff\n      and\n        /* \"contracts/Fund.sol\":2111:2129  token.transferFrom */\n      0xffffffffffffffffffffffffffffffffffffffff\n      and\n      0x23b872dd\n        /* \"contracts/Fund.sol\":2130:2135  _user */\n      dup5\n        /* \"contracts/Fund.sol\":2145:2149  this */\n      address\n        /* \"contracts/Fund.sol\":2152:2159  _amount */\n      dup5\n        /* \"contracts/Fund.sol\":2111:2160  token.transferFrom(_user, address(this), _amount) */\n      mload(0x40)\n      dup5\n      0xffffffff\n      and\n      0xe0\n      shl\n      dup2\n      mstore\n      0x04\n      add\n      tag_150\n      swap4\n      swap3\n      swap2\n      swap1\n      tag_151\n      jump\t// in\n    tag_150:\n      0x20\n      mload(0x40)\n      dup1\n      dup4\n      sub\n      dup2\n      0x00\n      dup8\n      gas\n      call\n      iszero\n      dup1\n      iszero\n      tag_153\n      jumpi\n      returndatasize\n      0x00\n      dup1\n      returndatacopy\n      revert(0x00, returndatasize)\n    tag_153:\n      pop\n      pop\n      pop\n      pop\n      mload(0x40)\n      returndatasize\n      not(0x1f)\n      0x1f\n      dup3\n      add\n      and\n      dup3\n      add\n      dup1\n      0x40\n      mstore\n      pop\n      dup2\n      add\n      swap1\n      tag_154\n      swap2\n      swap1\n      tag_124\n      jump\t// in\n    tag_154:\n        /* \"contracts/Fund.sol\":2103:2186  require(token.transferFrom(_user, address(this), _amount), \"token transfer failed\") */\n      tag_155\n      jumpi\n      mload(0x40)\n      0x08c379a000000000000000000000000000000000000000000000000000000000\n      dup2\n      mstore\n      0x04\n      add\n      tag_156\n      swap1\n      tag_157\n      jump\t// in\n    tag_156:\n      mload(0x40)\n      dup1\n      swap2\n      sub\n      swap1\n      revert\n    tag_155:\n        /* \"contracts/Fund.sol\":2209:2236  Donation memory newDonation */\n      0x00\n        /* \"contracts/Fund.sol\":2239:2322  Donation(... */\n      mload(0x40)\n      dup1\n      0x60\n      add\n      0x40\n      mstore\n      dup1\n        /* \"contracts/Fund.sol\":2262:2267  _user */\n      dup6\n        /* \"contracts/Fund.sol\":2239:2322  Donation(... */\n      0xffffffffffffffffffffffffffffffffffffffff\n      and\n      dup2\n      mstore\n      0x20\n      add\n        /* \"contracts/Fund.sol\":2282:2289  _fundId */\n      dup5\n        /* \"contracts/Fund.sol\":2239:2322  Donation(... */\n      0xffffffffffffffffffffffff\n      and\n      dup2\n      mstore\n      0x20\n      add\n        /* \"contracts/Fund.sol\":2304:2311  _amount */\n      dup4\n        /* \"contracts/Fund.sol\":2239:2322  Donation(... */\n      dup2\n      mstore\n      pop\n        /* \"contracts/Fund.sol\":2209:2322  Donation memory newDonation = Donation(... */\n      swap1\n      pop\n        /* \"contracts/Fund.sol\":2333:2346  fundDonations */\n      0x03\n        /* \"contracts/Fund.sol\":2333:2355  fundDonations[_fundId] */\n      0x00\n        /* \"contracts/Fund.sol\":2347:2354  _fundId */\n      dup5\n        /* \"contracts/Fund.sol\":2333:2355  fundDonations[_fundId] */\n      0xffffffffffffffffffffffff\n      and\n      0xffffffffffffffffffffffff\n      and\n      dup2\n      mstore\n      0x20\n      add\n      swap1\n      dup2\n      mstore\n      0x20\n      add\n      0x00\n      keccak256\n        /* \"contracts/Fund.sol\":2333:2362  fundDonations[_fundId][_user] */\n      0x00\n        /* \"contracts/Fund.sol\":2356:2361  _user */\n      dup6\n        /* \"contracts/Fund.sol\":2333:2362  fundDonations[_fundId][_user] */\n      0xffffffffffffffffffffffffffffffffffffffff\n      and\n      0xffffffffffffffffffffffffffffffffffffffff\n      and\n      dup2\n      mstore\n      0x20\n      add\n      swap1\n      dup2\n      mstore\n      0x20\n      add\n      0x00\n      keccak256\n        /* \"contracts/Fund.sol\":2368:2379  newDonation */\n      dup2\n        /* \"contracts/Fund.sol\":2333:2380  fundDonations[_fundId][_user].push(newDonation) */\n      swap1\n      dup1\n      0x01\n      dup2\n      sload\n      add\n      dup1\n      dup3\n      sstore\n      dup1\n      swap2\n      pop\n      pop\n      0x01\n      swap1\n      sub\n      swap1\n      0x00\n      mstore\n      keccak256(0x00, 0x20)\n      swap1\n      0x02\n      mul\n      add\n      0x00\n      swap1\n      swap2\n      swap1\n      swap2\n      swap1\n      swap2\n      pop\n      0x00\n      dup3\n      add\n      mload\n      dup2\n      0x00\n      add\n      exp(0x0100, 0x00)\n      dup2\n      sload\n      dup2\n      0xffffffffffffffffffffffffffffffffffffffff\n      mul\n      not\n      and\n      swap1\n      dup4\n      0xffffffffffffffffffffffffffffffffffffffff\n      and\n      mul\n      or\n      swap1\n      sstore\n      pop\n      0x20\n      dup3\n      add\n      mload\n      dup2\n      0x00\n      add\n      exp(0x0100, 0x14)\n      dup2\n      sload\n      dup2\n      0xffffffffffffffffffffffff\n      mul\n      not\n      and\n      swap1\n      dup4\n      0xffffffffffffffffffffffff\n      and\n      mul\n      or\n      swap1\n      sstore\n      pop\n      0x40\n      dup3\n      add\n      mload\n      dup2\n      0x01\n      add\n      sstore\n      pop\n      pop\n        /* \"contracts/Fund.sol\":2391:2419  address[] storage _fundUsers */\n      0x00\n        /* \"contracts/Fund.sol\":2422:2431  fundUsers */\n      0x02\n        /* \"contracts/Fund.sol\":2422:2440  fundUsers[_fundId] */\n      0x00\n        /* \"contracts/Fund.sol\":2432:2439  _fundId */\n      dup6\n        /* \"contracts/Fund.sol\":2422:2440  fundUsers[_fundId] */\n      0xffffffffffffffffffffffff\n      and\n      0xffffffffffffffffffffffff\n      and\n      dup2\n      mstore\n      0x20\n      add\n      swap1\n      dup2\n      mstore\n      0x20\n      add\n      0x00\n      keccak256\n        /* \"contracts/Fund.sol\":2391:2440  address[] storage _fundUsers = fundUsers[_fundId] */\n      swap1\n      pop\n        /* \"contracts/Fund.sol\":2453:2463  bool isAdd */\n      0x00\n        /* \"contracts/Fund.sol\":2466:2470  true */\n      0x01\n        /* \"contracts/Fund.sol\":2453:2470  bool isAdd = true */\n      swap1\n      pop\n        /* \"contracts/Fund.sol\":2486:2494  uint96 i */\n      0x00\n        /* \"contracts/Fund.sol\":2481:2652  for (uint96 i = 0; i < _fundUsers.length; i++){... */\n    tag_159:\n        /* \"contracts/Fund.sol\":2504:2514  _fundUsers */\n      dup3\n        /* \"contracts/Fund.sol\":2504:2521  _fundUsers.length */\n      dup1\n      sload\n      swap1\n      pop\n        /* \"contracts/Fund.sol\":2500:2501  i */\n      dup2\n        /* \"contracts/Fund.sol\":2500:2521  i < _fundUsers.length */\n      0xffffffffffffffffffffffff\n      and\n      lt\n        /* \"contracts/Fund.sol\":2481:2652  for (uint96 i = 0; i < _fundUsers.length; i++){... */\n      iszero\n      tag_160\n      jumpi\n        /* \"contracts/Fund.sol\":2563:2568  _user */\n      dup7\n        /* \"contracts/Fund.sol\":2546:2568  _fundUsers[i] == _user */\n      0xffffffffffffffffffffffffffffffffffffffff\n      and\n        /* \"contracts/Fund.sol\":2546:2556  _fundUsers */\n      dup4\n        /* \"contracts/Fund.sol\":2557:2558  i */\n      dup3\n        /* \"contracts/Fund.sol\":2546:2559  _fundUsers[i] */\n      0xffffffffffffffffffffffff\n      and\n      dup2\n      sload\n      dup2\n      lt\n      tag_162\n      jumpi\n      tag_163\n      tag_100\n      jump\t// in\n    tag_163:\n    tag_162:\n      swap1\n      0x00\n      mstore\n      keccak256(0x00, 0x20)\n      add\n      0x00\n      swap1\n      sload\n      swap1\n      0x0100\n      exp\n      swap1\n      div\n      0xffffffffffffffffffffffffffffffffffffffff\n      and\n        /* \"contracts/Fund.sol\":2546:2568  _fundUsers[i] == _user */\n      0xffffffffffffffffffffffffffffffffffffffff\n      and\n      sub\n        /* \"contracts/Fund.sol\":2542:2641  if (_fundUsers[i] == _user){... */\n      tag_165\n      jumpi\n        /* \"contracts/Fund.sol\":2596:2601  false */\n      0x00\n        /* \"contracts/Fund.sol\":2588:2601  isAdd = false */\n      swap2\n      pop\n        /* \"contracts/Fund.sol\":2620:2625  break */\n      jump(tag_160)\n        /* \"contracts/Fund.sol\":2542:2641  if (_fundUsers[i] == _user){... */\n    tag_165:\n        /* \"contracts/Fund.sol\":2523:2526  i++ */\n      dup1\n      dup1\n      tag_166\n      swap1\n      tag_102\n      jump\t// in\n    tag_166:\n      swap2\n      pop\n      pop\n        /* \"contracts/Fund.sol\":2481:2652  for (uint96 i = 0; i < _fundUsers.length; i++){... */\n      jump(tag_159)\n    tag_160:\n      pop\n        /* \"contracts/Fund.sol\":2666:2671  isAdd */\n      dup1\n        /* \"contracts/Fund.sol\":2662:2721  if (isAdd){... */\n      iszero\n      tag_167\n      jumpi\n        /* \"contracts/Fund.sol\":2687:2697  _fundUsers */\n      dup2\n        /* \"contracts/Fund.sol\":2703:2708  _user */\n      dup7\n        /* \"contracts/Fund.sol\":2687:2709  _fundUsers.push(_user) */\n      swap1\n      dup1\n      0x01\n      dup2\n      sload\n      add\n      dup1\n      dup3\n      sstore\n      dup1\n      swap2\n      pop\n      pop\n      0x01\n      swap1\n      sub\n      swap1\n      0x00\n      mstore\n      keccak256(0x00, 0x20)\n      add\n      0x00\n      swap1\n      swap2\n      swap1\n      swap2\n      swap1\n      swap2\n      0x0100\n      exp\n      dup2\n      sload\n      dup2\n      0xffffffffffffffffffffffffffffffffffffffff\n      mul\n      not\n      and\n      swap1\n      dup4\n      0xffffffffffffffffffffffffffffffffffffffff\n      and\n      mul\n      or\n      swap1\n      sstore\n      pop\n        /* \"contracts/Fund.sol\":2662:2721  if (isAdd){... */\n    tag_167:\n        /* \"contracts/Fund.sol\":1897:2728  {... */\n      pop\n      pop\n      pop\n        /* \"contracts/Fund.sol\":1783:2728  function createDonation(... */\n      pop\n      pop\n      pop\n      jump\t// out\n        /* \"contracts/Fund.sol\":5606:6836  function QF() internal {... */\n    tag_113:\n        /* \"contracts/Fund.sol\":5773:5795  uint256[] memory ratio */\n      0x00\n        /* \"contracts/Fund.sol\":5812:5821  fundCount */\n      dup1\n      0x14\n      swap1\n      sload\n      swap1\n      0x0100\n      exp\n      swap1\n      div\n      0xffffffffffffffffffffffff\n      and\n        /* \"contracts/Fund.sol\":5798:5822  new uint256[](fundCount) */\n      0xffffffffffffffffffffffff\n      and\n      0xffffffffffffffff\n      dup2\n      gt\n      iszero\n      tag_170\n      jumpi\n      tag_171\n      tag_89\n      jump\t// in\n    tag_171:\n    tag_170:\n      mload(0x40)\n      swap1\n      dup1\n      dup3\n      mstore\n      dup1\n      0x20\n      mul\n      0x20\n      add\n      dup3\n      add\n      0x40\n      mstore\n      dup1\n      iszero\n      tag_172\n      jumpi\n      dup2\n      0x20\n      add\n      0x20\n      dup3\n      mul\n      dup1\n      calldatasize\n      dup4\n      calldatacopy\n      dup1\n      dup3\n      add\n      swap2\n      pop\n      pop\n      swap1\n      pop\n    tag_172:\n      pop\n        /* \"contracts/Fund.sol\":5773:5822  uint256[] memory ratio = new uint256[](fundCount) */\n      swap1\n      pop\n        /* \"contracts/Fund.sol\":5833:5853  uint256 totalOfRatio */\n      0x00\n        /* \"contracts/Fund.sol\":5869:5877  uint96 i */\n      dup1\n        /* \"contracts/Fund.sol\":5880:5881  0 */\n      0x00\n        /* \"contracts/Fund.sol\":5869:5881  uint96 i = 0 */\n      swap1\n      pop\n        /* \"contracts/Fund.sol\":5864:6622  for (uint96 i = 0; i < fundCount; i++){... */\n    tag_173:\n        /* \"contracts/Fund.sol\":5887:5896  fundCount */\n      0x00\n      0x14\n      swap1\n      sload\n      swap1\n      0x0100\n      exp\n      swap1\n      div\n      0xffffffffffffffffffffffff\n      and\n        /* \"contracts/Fund.sol\":5883:5896  i < fundCount */\n      0xffffffffffffffffffffffff\n      and\n        /* \"contracts/Fund.sol\":5883:5884  i */\n      dup2\n        /* \"contracts/Fund.sol\":5883:5896  i < fundCount */\n      0xffffffffffffffffffffffff\n      and\n      lt\n        /* \"contracts/Fund.sol\":5864:6622  for (uint96 i = 0; i < fundCount; i++){... */\n      iszero\n      tag_174\n      jumpi\n        /* \"contracts/Fund.sol\":5938:5942  true */\n      0x01\n        /* \"contracts/Fund.sol\":5920:5942  funds[i].isEnd == true */\n      iszero\n      iszero\n        /* \"contracts/Fund.sol\":5920:5925  funds */\n      0x01\n        /* \"contracts/Fund.sol\":5920:5928  funds[i] */\n      0x00\n        /* \"contracts/Fund.sol\":5926:5927  i */\n      dup4\n        /* \"contracts/Fund.sol\":5920:5928  funds[i] */\n      0xffffffffffffffffffffffff\n      and\n      0xffffffffffffffffffffffff\n      and\n      dup2\n      mstore\n      0x20\n      add\n      swap1\n      dup2\n      mstore\n      0x20\n      add\n      0x00\n      keccak256\n        /* \"contracts/Fund.sol\":5920:5934  funds[i].isEnd */\n      0x04\n      add\n      0x00\n      swap1\n      sload\n      swap1\n      0x0100\n      exp\n      swap1\n      div\n      0xff\n      and\n        /* \"contracts/Fund.sol\":5920:5942  funds[i].isEnd == true */\n      iszero\n      iszero\n      sub\n        /* \"contracts/Fund.sol\":5917:6035  if(funds[i].isEnd == true) { //isEnd인 상태에서는 고려하지 않음.... */\n      iszero\n        /* \"contracts/Fund.sol\":6011:6019  continue */\n      tag_175\n        /* \"contracts/Fund.sol\":5917:6035  if(funds[i].isEnd == true) { //isEnd인 상태에서는 고려하지 않음.... */\n      jumpi\n        /* \"contracts/Fund.sol\":6049:6068  uint256 totalOfFund */\n      0x00\n        /* \"contracts/Fund.sol\":6083:6113  address[] memory userAddresses */\n      dup1\n        /* \"contracts/Fund.sol\":6116:6125  fundUsers */\n      0x02\n        /* \"contracts/Fund.sol\":6116:6128  fundUsers[i] */\n      0x00\n        /* \"contracts/Fund.sol\":6126:6127  i */\n      dup5\n        /* \"contracts/Fund.sol\":6116:6128  fundUsers[i] */\n      0xffffffffffffffffffffffff\n      and\n      0xffffffffffffffffffffffff\n      and\n      dup2\n      mstore\n      0x20\n      add\n      swap1\n      dup2\n      mstore\n      0x20\n      add\n      0x00\n      keccak256\n        /* \"contracts/Fund.sol\":6083:6128  address[] memory userAddresses = fundUsers[i] */\n      dup1\n      sload\n      dup1\n      0x20\n      mul\n      0x20\n      add\n      mload(0x40)\n      swap1\n      dup2\n      add\n      0x40\n      mstore\n      dup1\n      swap3\n      swap2\n      swap1\n      dup2\n      dup2\n      mstore\n      0x20\n      add\n      dup3\n      dup1\n      sload\n      dup1\n      iszero\n      tag_177\n      jumpi\n      0x20\n      mul\n      dup3\n      add\n      swap2\n      swap1\n      0x00\n      mstore\n      keccak256(0x00, 0x20)\n      swap1\n    tag_178:\n      dup2\n      0x00\n      swap1\n      sload\n      swap1\n      0x0100\n      exp\n      swap1\n      div\n      0xffffffffffffffffffffffffffffffffffffffff\n      and\n      0xffffffffffffffffffffffffffffffffffffffff\n      and\n      dup2\n      mstore\n      0x20\n      add\n      swap1\n      0x01\n      add\n      swap1\n      dup1\n      dup4\n      gt\n      tag_178\n      jumpi\n    tag_177:\n      pop\n      pop\n      pop\n      pop\n      pop\n      swap1\n      pop\n        /* \"contracts/Fund.sol\":6148:6156  uint96 j */\n      0x00\n        /* \"contracts/Fund.sol\":6143:6487  for (uint96 j = 0; j < userAddresses.length; j++){... */\n    tag_179:\n        /* \"contracts/Fund.sol\":6166:6179  userAddresses */\n      dup2\n        /* \"contracts/Fund.sol\":6166:6186  userAddresses.length */\n      mload\n        /* \"contracts/Fund.sol\":6162:6163  j */\n      dup2\n        /* \"contracts/Fund.sol\":6162:6186  j < userAddresses.length */\n      0xffffffffffffffffffffffff\n      and\n      lt\n        /* \"contracts/Fund.sol\":6143:6487  for (uint96 j = 0; j < userAddresses.length; j++){... */\n      iszero\n      tag_180\n      jumpi\n        /* \"contracts/Fund.sol\":6211:6230  uint256 totalOfUser */\n      0x00\n        /* \"contracts/Fund.sol\":6254:6262  uint96 k */\n      dup1\n        /* \"contracts/Fund.sol\":6265:6266  0 */\n      0x00\n        /* \"contracts/Fund.sol\":6254:6266  uint96 k = 0 */\n      swap1\n      pop\n        /* \"contracts/Fund.sol\":6249:6421  for (uint96 k = 0; k < fundDonations[i][userAddresses[j]].length; k++){... */\n    tag_182:\n        /* \"contracts/Fund.sol\":6272:6285  fundDonations */\n      0x03\n        /* \"contracts/Fund.sol\":6272:6288  fundDonations[i] */\n      0x00\n        /* \"contracts/Fund.sol\":6286:6287  i */\n      dup8\n        /* \"contracts/Fund.sol\":6272:6288  fundDonations[i] */\n      0xffffffffffffffffffffffff\n      and\n      0xffffffffffffffffffffffff\n      and\n      dup2\n      mstore\n      0x20\n      add\n      swap1\n      dup2\n      mstore\n      0x20\n      add\n      0x00\n      keccak256\n        /* \"contracts/Fund.sol\":6272:6306  fundDonations[i][userAddresses[j]] */\n      0x00\n        /* \"contracts/Fund.sol\":6289:6302  userAddresses */\n      dup6\n        /* \"contracts/Fund.sol\":6303:6304  j */\n      dup6\n        /* \"contracts/Fund.sol\":6289:6305  userAddresses[j] */\n      0xffffffffffffffffffffffff\n      and\n      dup2\n      mload\n      dup2\n      lt\n      tag_185\n      jumpi\n      tag_186\n      tag_100\n      jump\t// in\n    tag_186:\n    tag_185:\n      0x20\n      mul\n      0x20\n      add\n      add\n      mload\n        /* \"contracts/Fund.sol\":6272:6306  fundDonations[i][userAddresses[j]] */\n      0xffffffffffffffffffffffffffffffffffffffff\n      and\n      0xffffffffffffffffffffffffffffffffffffffff\n      and\n      dup2\n      mstore\n      0x20\n      add\n      swap1\n      dup2\n      mstore\n      0x20\n      add\n      0x00\n      keccak256\n        /* \"contracts/Fund.sol\":6272:6313  fundDonations[i][userAddresses[j]].length */\n      dup1\n      sload\n      swap1\n      pop\n        /* \"contracts/Fund.sol\":6268:6269  k */\n      dup2\n        /* \"contracts/Fund.sol\":6268:6313  k < fundDonations[i][userAddresses[j]].length */\n      0xffffffffffffffffffffffff\n      and\n      lt\n        /* \"contracts/Fund.sol\":6249:6421  for (uint96 k = 0; k < fundDonations[i][userAddresses[j]].length; k++){... */\n      iszero\n      tag_183\n      jumpi\n        /* \"contracts/Fund.sol\":6357:6370  fundDonations */\n      0x03\n        /* \"contracts/Fund.sol\":6357:6373  fundDonations[i] */\n      0x00\n        /* \"contracts/Fund.sol\":6371:6372  i */\n      dup8\n        /* \"contracts/Fund.sol\":6357:6373  fundDonations[i] */\n      0xffffffffffffffffffffffff\n      and\n      0xffffffffffffffffffffffff\n      and\n      dup2\n      mstore\n      0x20\n      add\n      swap1\n      dup2\n      mstore\n      0x20\n      add\n      0x00\n      keccak256\n        /* \"contracts/Fund.sol\":6357:6391  fundDonations[i][userAddresses[j]] */\n      0x00\n        /* \"contracts/Fund.sol\":6374:6387  userAddresses */\n      dup6\n        /* \"contracts/Fund.sol\":6388:6389  j */\n      dup6\n        /* \"contracts/Fund.sol\":6374:6390  userAddresses[j] */\n      0xffffffffffffffffffffffff\n      and\n      dup2\n      mload\n      dup2\n      lt\n      tag_187\n      jumpi\n      tag_188\n      tag_100\n      jump\t// in\n    tag_188:\n    tag_187:\n      0x20\n      mul\n      0x20\n      add\n      add\n      mload\n        /* \"contracts/Fund.sol\":6357:6391  fundDonations[i][userAddresses[j]] */\n      0xffffffffffffffffffffffffffffffffffffffff\n      and\n      0xffffffffffffffffffffffffffffffffffffffff\n      and\n      dup2\n      mstore\n      0x20\n      add\n      swap1\n      dup2\n      mstore\n      0x20\n      add\n      0x00\n      keccak256\n        /* \"contracts/Fund.sol\":6392:6393  k */\n      dup2\n        /* \"contracts/Fund.sol\":6357:6394  fundDonations[i][userAddresses[j]][k] */\n      0xffffffffffffffffffffffff\n      and\n      dup2\n      sload\n      dup2\n      lt\n      tag_189\n      jumpi\n      tag_190\n      tag_100\n      jump\t// in\n    tag_190:\n    tag_189:\n      swap1\n      0x00\n      mstore\n      keccak256(0x00, 0x20)\n      swap1\n      0x02\n      mul\n      add\n        /* \"contracts/Fund.sol\":6357:6401  fundDonations[i][userAddresses[j]][k].amount */\n      0x01\n      add\n      sload\n        /* \"contracts/Fund.sol\":6342:6401  totalOfUser += fundDonations[i][userAddresses[j]][k].amount */\n      dup3\n      tag_192\n      swap2\n      swap1\n      tag_193\n      jump\t// in\n    tag_192:\n      swap2\n      pop\n        /* \"contracts/Fund.sol\":6315:6318  k++ */\n      dup1\n      dup1\n      tag_194\n      swap1\n      tag_102\n      jump\t// in\n    tag_194:\n      swap2\n      pop\n      pop\n        /* \"contracts/Fund.sol\":6249:6421  for (uint96 k = 0; k < fundDonations[i][userAddresses[j]].length; k++){... */\n      jump(tag_182)\n    tag_183:\n      pop\n        /* \"contracts/Fund.sol\":6454:6471  sqrt(totalOfUser) */\n      tag_195\n        /* \"contracts/Fund.sol\":6459:6470  totalOfUser */\n      dup2\n        /* \"contracts/Fund.sol\":6454:6458  sqrt */\n      tag_196\n        /* \"contracts/Fund.sol\":6454:6471  sqrt(totalOfUser) */\n      jump\t// in\n    tag_195:\n        /* \"contracts/Fund.sol\":6439:6471  totalOfFund += sqrt(totalOfUser) */\n      dup5\n      tag_197\n      swap2\n      swap1\n      tag_193\n      jump\t// in\n    tag_197:\n      swap4\n      pop\n        /* \"contracts/Fund.sol\":6192:6487  {... */\n      pop\n        /* \"contracts/Fund.sol\":6188:6191  j++ */\n      dup1\n      dup1\n      tag_198\n      swap1\n      tag_102\n      jump\t// in\n    tag_198:\n      swap2\n      pop\n      pop\n        /* \"contracts/Fund.sol\":6143:6487  for (uint96 j = 0; j < userAddresses.length; j++){... */\n      jump(tag_179)\n    tag_180:\n      pop\n        /* \"contracts/Fund.sol\":6530:6531  2 */\n      0x02\n        /* \"contracts/Fund.sol\":6515:6526  totalOfFund */\n      dup3\n        /* \"contracts/Fund.sol\":6515:6531  totalOfFund ** 2 */\n      tag_199\n      swap2\n      swap1\n      tag_200\n      jump\t// in\n    tag_199:\n        /* \"contracts/Fund.sol\":6501:6531  totalOfFund = totalOfFund ** 2 */\n      swap2\n      pop\n        /* \"contracts/Fund.sol\":6557:6568  totalOfFund */\n      dup2\n        /* \"contracts/Fund.sol\":6546:6551  ratio */\n      dup6\n        /* \"contracts/Fund.sol\":6552:6553  i */\n      dup5\n        /* \"contracts/Fund.sol\":6546:6554  ratio[i] */\n      0xffffffffffffffffffffffff\n      and\n      dup2\n      mload\n      dup2\n      lt\n      tag_201\n      jumpi\n      tag_202\n      tag_100\n      jump\t// in\n    tag_202:\n    tag_201:\n      0x20\n      mul\n      0x20\n      add\n      add\n        /* \"contracts/Fund.sol\":6546:6568  ratio[i] = totalOfFund */\n      dup2\n      dup2\n      mstore\n      pop\n      pop\n        /* \"contracts/Fund.sol\":6599:6610  totalOfFund */\n      dup2\n        /* \"contracts/Fund.sol\":6583:6610  totalOfRatio += totalOfFund */\n      dup5\n      tag_203\n      swap2\n      swap1\n      tag_193\n      jump\t// in\n    tag_203:\n      swap4\n      pop\n        /* \"contracts/Fund.sol\":5902:6622  {... */\n      pop\n      pop\n        /* \"contracts/Fund.sol\":5864:6622  for (uint96 i = 0; i < fundCount; i++){... */\n    tag_175:\n        /* \"contracts/Fund.sol\":5898:5901  i++ */\n      dup1\n      dup1\n      tag_204\n      swap1\n      tag_102\n      jump\t// in\n    tag_204:\n      swap2\n      pop\n      pop\n        /* \"contracts/Fund.sol\":5864:6622  for (uint96 i = 0; i < fundCount; i++){... */\n      jump(tag_173)\n    tag_174:\n      pop\n        /* \"contracts/Fund.sol\":6688:6696  uint96 i */\n      0x00\n        /* \"contracts/Fund.sol\":6684:6829  for(uint96 i = 0; i < fundCount; i++){... */\n    tag_205:\n        /* \"contracts/Fund.sol\":6706:6715  fundCount */\n      0x00\n      0x14\n      swap1\n      sload\n      swap1\n      0x0100\n      exp\n      swap1\n      div\n      0xffffffffffffffffffffffff\n      and\n        /* \"contracts/Fund.sol\":6702:6715  i < fundCount */\n      0xffffffffffffffffffffffff\n      and\n        /* \"contracts/Fund.sol\":6702:6703  i */\n      dup2\n        /* \"contracts/Fund.sol\":6702:6715  i < fundCount */\n      0xffffffffffffffffffffffff\n      and\n      lt\n        /* \"contracts/Fund.sol\":6684:6829  for(uint96 i = 0; i < fundCount; i++){... */\n      iszero\n      tag_206\n      jumpi\n        /* \"contracts/Fund.sol\":6805:6817  totalOfRatio */\n      dup2\n        /* \"contracts/Fund.sol\":6771:6776  token */\n      0x00\n      dup1\n      sload\n      swap1\n      0x0100\n      exp\n      swap1\n      div\n      0xffffffffffffffffffffffffffffffffffffffff\n      and\n        /* \"contracts/Fund.sol\":6771:6786  token.balanceOf */\n      0xffffffffffffffffffffffffffffffffffffffff\n      and\n      0x70a08231\n        /* \"contracts/Fund.sol\":6795:6799  this */\n      address\n        /* \"contracts/Fund.sol\":6771:6801  token.balanceOf(address(this)) */\n      mload(0x40)\n      dup3\n      0xffffffff\n      and\n      0xe0\n      shl\n      dup2\n      mstore\n      0x04\n      add\n      tag_208\n      swap2\n      swap1\n      tag_36\n      jump\t// in\n    tag_208:\n      0x20\n      mload(0x40)\n      dup1\n      dup4\n      sub\n      dup2\n      dup7\n      gas\n      staticcall\n      iszero\n      dup1\n      iszero\n      tag_210\n      jumpi\n      returndatasize\n      0x00\n      dup1\n      returndatacopy\n      revert(0x00, returndatasize)\n    tag_210:\n      pop\n      pop\n      pop\n      pop\n      mload(0x40)\n      returndatasize\n      not(0x1f)\n      0x1f\n      dup3\n      add\n      and\n      dup3\n      add\n      dup1\n      0x40\n      mstore\n      pop\n      dup2\n      add\n      swap1\n      tag_211\n      swap2\n      swap1\n      tag_138\n      jump\t// in\n    tag_211:\n        /* \"contracts/Fund.sol\":6760:6765  ratio */\n      dup5\n        /* \"contracts/Fund.sol\":6766:6767  i */\n      dup4\n        /* \"contracts/Fund.sol\":6760:6768  ratio[i] */\n      0xffffffffffffffffffffffff\n      and\n      dup2\n      mload\n      dup2\n      lt\n      tag_212\n      jumpi\n      tag_213\n      tag_100\n      jump\t// in\n    tag_213:\n    tag_212:\n      0x20\n      mul\n      0x20\n      add\n      add\n      mload\n        /* \"contracts/Fund.sol\":6760:6801  ratio[i] * token.balanceOf(address(this)) */\n      tag_214\n      swap2\n      swap1\n      tag_215\n      jump\t// in\n    tag_214:\n        /* \"contracts/Fund.sol\":6759:6817  (ratio[i] * token.balanceOf(address(this))) / totalOfRatio */\n      tag_216\n      swap2\n      swap1\n      tag_217\n      jump\t// in\n    tag_216:\n        /* \"contracts/Fund.sol\":6736:6741  funds */\n      0x01\n        /* \"contracts/Fund.sol\":6736:6744  funds[i] */\n      0x00\n        /* \"contracts/Fund.sol\":6742:6743  i */\n      dup4\n        /* \"contracts/Fund.sol\":6736:6744  funds[i] */\n      0xffffffffffffffffffffffff\n      and\n      0xffffffffffffffffffffffff\n      and\n      dup2\n      mstore\n      0x20\n      add\n      swap1\n      dup2\n      mstore\n      0x20\n      add\n      0x00\n      keccak256\n        /* \"contracts/Fund.sol\":6736:6756  funds[i].totalAmount */\n      0x03\n      add\n        /* \"contracts/Fund.sol\":6736:6817  funds[i].totalAmount = (ratio[i] * token.balanceOf(address(this))) / totalOfRatio */\n      dup2\n      swap1\n      sstore\n      pop\n        /* \"contracts/Fund.sol\":6717:6720  i++ */\n      dup1\n      dup1\n      tag_218\n      swap1\n      tag_102\n      jump\t// in\n    tag_218:\n      swap2\n      pop\n      pop\n        /* \"contracts/Fund.sol\":6684:6829  for(uint96 i = 0; i < fundCount; i++){... */\n      jump(tag_205)\n    tag_206:\n      pop\n        /* \"contracts/Fund.sol\":5629:6836  {... */\n      pop\n      pop\n        /* \"contracts/Fund.sol\":5606:6836  function QF() internal {... */\n      jump\t// out\n        /* \"contracts/Fund.sol\":6844:7152  function sqrt(uint256 x) private pure returns (uint256 y) { //solidity는 float을 지원하지 않기 때문에 다음과 같은 sqrt연산 식을 이용한다.... */\n    tag_196:\n        /* \"contracts/Fund.sol\":6891:6900  uint256 y */\n      0x00\n        /* \"contracts/Fund.sol\":7015:7024  uint256 z */\n      dup1\n        /* \"contracts/Fund.sol\":7037:7038  2 */\n      0x02\n        /* \"contracts/Fund.sol\":7032:7033  1 */\n      0x01\n        /* \"contracts/Fund.sol\":7028:7029  x */\n      dup5\n        /* \"contracts/Fund.sol\":7028:7033  x + 1 */\n      tag_220\n      swap2\n      swap1\n      tag_193\n      jump\t// in\n    tag_220:\n        /* \"contracts/Fund.sol\":7027:7038  (x + 1) / 2 */\n      tag_221\n      swap2\n      swap1\n      tag_217\n      jump\t// in\n    tag_221:\n        /* \"contracts/Fund.sol\":7015:7038  uint256 z = (x + 1) / 2 */\n      swap1\n      pop\n        /* \"contracts/Fund.sol\":7053:7054  x */\n      dup3\n        /* \"contracts/Fund.sol\":7049:7054  y = x */\n      swap2\n      pop\n        /* \"contracts/Fund.sol\":7065:7145  while (z < y) {... */\n    tag_222:\n        /* \"contracts/Fund.sol\":7076:7077  y */\n      dup2\n        /* \"contracts/Fund.sol\":7072:7073  z */\n      dup2\n        /* \"contracts/Fund.sol\":7072:7077  z < y */\n      lt\n        /* \"contracts/Fund.sol\":7065:7145  while (z < y) {... */\n      iszero\n      tag_223\n      jumpi\n        /* \"contracts/Fund.sol\":7098:7099  z */\n      dup1\n        /* \"contracts/Fund.sol\":7094:7099  y = z */\n      swap2\n      pop\n        /* \"contracts/Fund.sol\":7132:7133  2 */\n      0x02\n        /* \"contracts/Fund.sol\":7127:7128  z */\n      dup2\n        /* \"contracts/Fund.sol\":7123:7124  z */\n      dup3\n        /* \"contracts/Fund.sol\":7119:7120  x */\n      dup6\n        /* \"contracts/Fund.sol\":7119:7124  x / z */\n      tag_224\n      swap2\n      swap1\n      tag_217\n      jump\t// in\n    tag_224:\n        /* \"contracts/Fund.sol\":7119:7128  x / z + z */\n      tag_225\n      swap2\n      swap1\n      tag_193\n      jump\t// in\n    tag_225:\n        /* \"contracts/Fund.sol\":7118:7133  (x / z + z) / 2 */\n      tag_226\n      swap2\n      swap1\n      tag_217\n      jump\t// in\n    tag_226:\n        /* \"contracts/Fund.sol\":7114:7133  z = (x / z + z) / 2 */\n      swap1\n      pop\n        /* \"contracts/Fund.sol\":7065:7145  while (z < y) {... */\n      jump(tag_222)\n    tag_223:\n        /* \"contracts/Fund.sol\":6902:7152  { //solidity는 float을 지원하지 않기 때문에 다음과 같은 sqrt연산 식을 이용한다.... */\n      pop\n        /* \"contracts/Fund.sol\":6844:7152  function sqrt(uint256 x) private pure returns (uint256 y) { //solidity는 float을 지원하지 않기 때문에 다음과 같은 sqrt연산 식을 이용한다.... */\n      swap2\n      swap1\n      pop\n      jump\t// out\n    tag_93:\n      mload(0x40)\n      dup1\n      0x0100\n      add\n      0x40\n      mstore\n      dup1\n      and(0xffffffffffffffffffffffff, 0x00)\n      dup2\n      mstore\n      0x20\n      add\n      and(0xffffffffffffffffffffffffffffffffffffffff, 0x00)\n      dup2\n      mstore\n      0x20\n      add\n      and(0xffffffffffff, 0x00)\n      dup2\n      mstore\n      0x20\n      add\n      and(0xffffffffffff, 0x00)\n      dup2\n      mstore\n      0x20\n      add\n      and(0xffffffffffffffffffffffffffffffffffffffff, 0x00)\n      dup2\n      mstore\n      0x20\n      add\n      0x00\n      dup2\n      mstore\n      0x20\n      add\n      0x00\n      dup2\n      mstore\n      0x20\n      add\n      iszero(iszero(0x00))\n      dup2\n      mstore\n      pop\n      swap1\n      jump\t// out\n        /* \"#utility.yul\":88:205   */\n    tag_228:\n        /* \"#utility.yul\":197:198   */\n      0x00\n        /* \"#utility.yul\":194:195   */\n      dup1\n        /* \"#utility.yul\":187:199   */\n      revert\n        /* \"#utility.yul\":334:460   */\n    tag_230:\n        /* \"#utility.yul\":371:378   */\n      0x00\n        /* \"#utility.yul\":411:453   */\n      0xffffffffffffffffffffffffffffffffffffffff\n        /* \"#utility.yul\":404:409   */\n      dup3\n        /* \"#utility.yul\":400:454   */\n      and\n        /* \"#utility.yul\":389:454   */\n      swap1\n      pop\n        /* \"#utility.yul\":334:460   */\n      swap2\n      swap1\n      pop\n      jump\t// out\n        /* \"#utility.yul\":466:562   */\n    tag_231:\n        /* \"#utility.yul\":503:510   */\n      0x00\n        /* \"#utility.yul\":532:556   */\n      tag_289\n        /* \"#utility.yul\":550:555   */\n      dup3\n        /* \"#utility.yul\":532:556   */\n      tag_230\n      jump\t// in\n    tag_289:\n        /* \"#utility.yul\":521:556   */\n      swap1\n      pop\n        /* \"#utility.yul\":466:562   */\n      swap2\n      swap1\n      pop\n      jump\t// out\n        /* \"#utility.yul\":568:690   */\n    tag_232:\n        /* \"#utility.yul\":641:665   */\n      tag_291\n        /* \"#utility.yul\":659:664   */\n      dup2\n        /* \"#utility.yul\":641:665   */\n      tag_231\n      jump\t// in\n    tag_291:\n        /* \"#utility.yul\":634:639   */\n      dup2\n        /* \"#utility.yul\":631:666   */\n      eq\n        /* \"#utility.yul\":621:684   */\n      tag_292\n      jumpi\n        /* \"#utility.yul\":680:681   */\n      0x00\n        /* \"#utility.yul\":677:678   */\n      dup1\n        /* \"#utility.yul\":670:682   */\n      revert\n        /* \"#utility.yul\":621:684   */\n    tag_292:\n        /* \"#utility.yul\":568:690   */\n      pop\n      jump\t// out\n        /* \"#utility.yul\":696:835   */\n    tag_233:\n        /* \"#utility.yul\":742:747   */\n      0x00\n        /* \"#utility.yul\":780:786   */\n      dup2\n        /* \"#utility.yul\":767:787   */\n      calldataload\n        /* \"#utility.yul\":758:787   */\n      swap1\n      pop\n        /* \"#utility.yul\":796:829   */\n      tag_294\n        /* \"#utility.yul\":823:828   */\n      dup2\n        /* \"#utility.yul\":796:829   */\n      tag_232\n      jump\t// in\n    tag_294:\n        /* \"#utility.yul\":696:835   */\n      swap3\n      swap2\n      pop\n      pop\n      jump\t// out\n        /* \"#utility.yul\":841:918   */\n    tag_234:\n        /* \"#utility.yul\":878:885   */\n      0x00\n        /* \"#utility.yul\":907:912   */\n      dup2\n        /* \"#utility.yul\":896:912   */\n      swap1\n      pop\n        /* \"#utility.yul\":841:918   */\n      swap2\n      swap1\n      pop\n      jump\t// out\n        /* \"#utility.yul\":924:1046   */\n    tag_235:\n        /* \"#utility.yul\":997:1021   */\n      tag_297\n        /* \"#utility.yul\":1015:1020   */\n      dup2\n        /* \"#utility.yul\":997:1021   */\n      tag_234\n      jump\t// in\n    tag_297:\n        /* \"#utility.yul\":990:995   */\n      dup2\n        /* \"#utility.yul\":987:1022   */\n      eq\n        /* \"#utility.yul\":977:1040   */\n      tag_298\n      jumpi\n        /* \"#utility.yul\":1036:1037   */\n      0x00\n        /* \"#utility.yul\":1033:1034   */\n      dup1\n        /* \"#utility.yul\":1026:1038   */\n      revert\n        /* \"#utility.yul\":977:1040   */\n    tag_298:\n        /* \"#utility.yul\":924:1046   */\n      pop\n      jump\t// out\n        /* \"#utility.yul\":1052:1191   */\n    tag_236:\n        /* \"#utility.yul\":1098:1103   */\n      0x00\n        /* \"#utility.yul\":1136:1142   */\n      dup2\n        /* \"#utility.yul\":1123:1143   */\n      calldataload\n        /* \"#utility.yul\":1114:1143   */\n      swap1\n      pop\n        /* \"#utility.yul\":1152:1185   */\n      tag_300\n        /* \"#utility.yul\":1179:1184   */\n      dup2\n        /* \"#utility.yul\":1152:1185   */\n      tag_235\n      jump\t// in\n    tag_300:\n        /* \"#utility.yul\":1052:1191   */\n      swap3\n      swap2\n      pop\n      pop\n      jump\t// out\n        /* \"#utility.yul\":1197:1816   */\n    tag_16:\n        /* \"#utility.yul\":1274:1280   */\n      0x00\n        /* \"#utility.yul\":1282:1288   */\n      dup1\n        /* \"#utility.yul\":1290:1296   */\n      0x00\n        /* \"#utility.yul\":1339:1341   */\n      0x60\n        /* \"#utility.yul\":1327:1336   */\n      dup5\n        /* \"#utility.yul\":1318:1325   */\n      dup7\n        /* \"#utility.yul\":1314:1337   */\n      sub\n        /* \"#utility.yul\":1310:1342   */\n      slt\n        /* \"#utility.yul\":1307:1426   */\n      iszero\n      tag_302\n      jumpi\n        /* \"#utility.yul\":1345:1424   */\n      tag_303\n      tag_228\n      jump\t// in\n    tag_303:\n        /* \"#utility.yul\":1307:1426   */\n    tag_302:\n        /* \"#utility.yul\":1465:1466   */\n      0x00\n        /* \"#utility.yul\":1490:1543   */\n      tag_304\n        /* \"#utility.yul\":1535:1542   */\n      dup7\n        /* \"#utility.yul\":1526:1532   */\n      dup3\n        /* \"#utility.yul\":1515:1524   */\n      dup8\n        /* \"#utility.yul\":1511:1533   */\n      add\n        /* \"#utility.yul\":1490:1543   */\n      tag_233\n      jump\t// in\n    tag_304:\n        /* \"#utility.yul\":1480:1543   */\n      swap4\n      pop\n        /* \"#utility.yul\":1436:1553   */\n      pop\n        /* \"#utility.yul\":1592:1594   */\n      0x20\n        /* \"#utility.yul\":1618:1671   */\n      tag_305\n        /* \"#utility.yul\":1663:1670   */\n      dup7\n        /* \"#utility.yul\":1654:1660   */\n      dup3\n        /* \"#utility.yul\":1643:1652   */\n      dup8\n        /* \"#utility.yul\":1639:1661   */\n      add\n        /* \"#utility.yul\":1618:1671   */\n      tag_233\n      jump\t// in\n    tag_305:\n        /* \"#utility.yul\":1608:1671   */\n      swap3\n      pop\n        /* \"#utility.yul\":1563:1681   */\n      pop\n        /* \"#utility.yul\":1720:1722   */\n      0x40\n        /* \"#utility.yul\":1746:1799   */\n      tag_306\n        /* \"#utility.yul\":1791:1798   */\n      dup7\n        /* \"#utility.yul\":1782:1788   */\n      dup3\n        /* \"#utility.yul\":1771:1780   */\n      dup8\n        /* \"#utility.yul\":1767:1789   */\n      add\n        /* \"#utility.yul\":1746:1799   */\n      tag_236\n      jump\t// in\n    tag_306:\n        /* \"#utility.yul\":1736:1799   */\n      swap2\n      pop\n        /* \"#utility.yul\":1691:1809   */\n      pop\n        /* \"#utility.yul\":1197:1816   */\n      swap3\n      pop\n      swap3\n      pop\n      swap3\n      jump\t// out\n        /* \"#utility.yul\":1822:1957   */\n    tag_237:\n        /* \"#utility.yul\":1910:1916   */\n      0x00\n        /* \"#utility.yul\":1944:1949   */\n      dup2\n        /* \"#utility.yul\":1938:1950   */\n      mload\n        /* \"#utility.yul\":1928:1950   */\n      swap1\n      pop\n        /* \"#utility.yul\":1822:1957   */\n      swap2\n      swap1\n      pop\n      jump\t// out\n        /* \"#utility.yul\":1963:2168   */\n    tag_238:\n        /* \"#utility.yul\":2083:2094   */\n      0x00\n        /* \"#utility.yul\":2117:2123   */\n      dup3\n        /* \"#utility.yul\":2112:2115   */\n      dup3\n        /* \"#utility.yul\":2105:2124   */\n      mstore\n        /* \"#utility.yul\":2157:2161   */\n      0x20\n        /* \"#utility.yul\":2152:2155   */\n      dup3\n        /* \"#utility.yul\":2148:2162   */\n      add\n        /* \"#utility.yul\":2133:2162   */\n      swap1\n      pop\n        /* \"#utility.yul\":1963:2168   */\n      swap3\n      swap2\n      pop\n      pop\n      jump\t// out\n        /* \"#utility.yul\":2174:2327   */\n    tag_239:\n        /* \"#utility.yul\":2262:2266   */\n      0x00\n        /* \"#utility.yul\":2285:2288   */\n      dup2\n        /* \"#utility.yul\":2277:2288   */\n      swap1\n      pop\n        /* \"#utility.yul\":2315:2319   */\n      0x20\n        /* \"#utility.yul\":2310:2313   */\n      dup3\n        /* \"#utility.yul\":2306:2320   */\n      add\n        /* \"#utility.yul\":2298:2320   */\n      swap1\n      pop\n        /* \"#utility.yul\":2174:2327   */\n      swap2\n      swap1\n      pop\n      jump\t// out\n        /* \"#utility.yul\":2333:2442   */\n    tag_240:\n        /* \"#utility.yul\":2369:2376   */\n      0x00\n        /* \"#utility.yul\":2409:2435   */\n      0xffffffffffffffffffffffff\n        /* \"#utility.yul\":2402:2407   */\n      dup3\n        /* \"#utility.yul\":2398:2436   */\n      and\n        /* \"#utility.yul\":2387:2436   */\n      swap1\n      pop\n        /* \"#utility.yul\":2333:2442   */\n      swap2\n      swap1\n      pop\n      jump\t// out\n        /* \"#utility.yul\":2448:2553   */\n    tag_241:\n        /* \"#utility.yul\":2523:2546   */\n      tag_312\n        /* \"#utility.yul\":2540:2545   */\n      dup2\n        /* \"#utility.yul\":2523:2546   */\n      tag_240\n      jump\t// in\n    tag_312:\n        /* \"#utility.yul\":2518:2521   */\n      dup3\n        /* \"#utility.yul\":2511:2547   */\n      mstore\n        /* \"#utility.yul\":2448:2553   */\n      pop\n      pop\n      jump\t// out\n        /* \"#utility.yul\":2559:2667   */\n    tag_242:\n        /* \"#utility.yul\":2636:2660   */\n      tag_314\n        /* \"#utility.yul\":2654:2659   */\n      dup2\n        /* \"#utility.yul\":2636:2660   */\n      tag_231\n      jump\t// in\n    tag_314:\n        /* \"#utility.yul\":2631:2634   */\n      dup3\n        /* \"#utility.yul\":2624:2661   */\n      mstore\n        /* \"#utility.yul\":2559:2667   */\n      pop\n      pop\n      jump\t// out\n        /* \"#utility.yul\":2673:2770   */\n    tag_243:\n        /* \"#utility.yul\":2709:2716   */\n      0x00\n        /* \"#utility.yul\":2749:2763   */\n      0xffffffffffff\n        /* \"#utility.yul\":2742:2747   */\n      dup3\n        /* \"#utility.yul\":2738:2764   */\n      and\n        /* \"#utility.yul\":2727:2764   */\n      swap1\n      pop\n        /* \"#utility.yul\":2673:2770   */\n      swap2\n      swap1\n      pop\n      jump\t// out\n        /* \"#utility.yul\":2776:2881   */\n    tag_244:\n        /* \"#utility.yul\":2851:2874   */\n      tag_317\n        /* \"#utility.yul\":2868:2873   */\n      dup2\n        /* \"#utility.yul\":2851:2874   */\n      tag_243\n      jump\t// in\n    tag_317:\n        /* \"#utility.yul\":2846:2849   */\n      dup3\n        /* \"#utility.yul\":2839:2875   */\n      mstore\n        /* \"#utility.yul\":2776:2881   */\n      pop\n      pop\n      jump\t// out\n        /* \"#utility.yul\":2887:2995   */\n    tag_245:\n        /* \"#utility.yul\":2964:2988   */\n      tag_319\n        /* \"#utility.yul\":2982:2987   */\n      dup2\n        /* \"#utility.yul\":2964:2988   */\n      tag_234\n      jump\t// in\n    tag_319:\n        /* \"#utility.yul\":2959:2962   */\n      dup3\n        /* \"#utility.yul\":2952:2989   */\n      mstore\n        /* \"#utility.yul\":2887:2995   */\n      pop\n      pop\n      jump\t// out\n        /* \"#utility.yul\":3001:3091   */\n    tag_246:\n        /* \"#utility.yul\":3035:3042   */\n      0x00\n        /* \"#utility.yul\":3078:3083   */\n      dup2\n        /* \"#utility.yul\":3071:3084   */\n      iszero\n        /* \"#utility.yul\":3064:3085   */\n      iszero\n        /* \"#utility.yul\":3053:3085   */\n      swap1\n      pop\n        /* \"#utility.yul\":3001:3091   */\n      swap2\n      swap1\n      pop\n      jump\t// out\n        /* \"#utility.yul\":3097:3196   */\n    tag_247:\n        /* \"#utility.yul\":3168:3189   */\n      tag_322\n        /* \"#utility.yul\":3183:3188   */\n      dup2\n        /* \"#utility.yul\":3168:3189   */\n      tag_246\n      jump\t// in\n    tag_322:\n        /* \"#utility.yul\":3163:3166   */\n      dup3\n        /* \"#utility.yul\":3156:3190   */\n      mstore\n        /* \"#utility.yul\":3097:3196   */\n      pop\n      pop\n      jump\t// out\n        /* \"#utility.yul\":3262:4808   */\n    tag_248:\n        /* \"#utility.yul\":3391:3397   */\n      0x0100\n        /* \"#utility.yul\":3386:3389   */\n      dup3\n        /* \"#utility.yul\":3382:3398   */\n      add\n        /* \"#utility.yul\":3478:3482   */\n      0x00\n        /* \"#utility.yul\":3471:3476   */\n      dup3\n        /* \"#utility.yul\":3467:3483   */\n      add\n        /* \"#utility.yul\":3461:3484   */\n      mload\n        /* \"#utility.yul\":3497:3558   */\n      tag_324\n        /* \"#utility.yul\":3552:3556   */\n      0x00\n        /* \"#utility.yul\":3547:3550   */\n      dup6\n        /* \"#utility.yul\":3543:3557   */\n      add\n        /* \"#utility.yul\":3529:3541   */\n      dup3\n        /* \"#utility.yul\":3497:3558   */\n      tag_241\n      jump\t// in\n    tag_324:\n        /* \"#utility.yul\":3408:3568   */\n      pop\n        /* \"#utility.yul\":3651:3655   */\n      0x20\n        /* \"#utility.yul\":3644:3649   */\n      dup3\n        /* \"#utility.yul\":3640:3656   */\n      add\n        /* \"#utility.yul\":3634:3657   */\n      mload\n        /* \"#utility.yul\":3670:3733   */\n      tag_325\n        /* \"#utility.yul\":3727:3731   */\n      0x20\n        /* \"#utility.yul\":3722:3725   */\n      dup6\n        /* \"#utility.yul\":3718:3732   */\n      add\n        /* \"#utility.yul\":3704:3716   */\n      dup3\n        /* \"#utility.yul\":3670:3733   */\n      tag_242\n      jump\t// in\n    tag_325:\n        /* \"#utility.yul\":3578:3743   */\n      pop\n        /* \"#utility.yul\":3830:3834   */\n      0x40\n        /* \"#utility.yul\":3823:3828   */\n      dup3\n        /* \"#utility.yul\":3819:3835   */\n      add\n        /* \"#utility.yul\":3813:3836   */\n      mload\n        /* \"#utility.yul\":3849:3910   */\n      tag_326\n        /* \"#utility.yul\":3904:3908   */\n      0x40\n        /* \"#utility.yul\":3899:3902   */\n      dup6\n        /* \"#utility.yul\":3895:3909   */\n      add\n        /* \"#utility.yul\":3881:3893   */\n      dup3\n        /* \"#utility.yul\":3849:3910   */\n      tag_244\n      jump\t// in\n    tag_326:\n        /* \"#utility.yul\":3753:3920   */\n      pop\n        /* \"#utility.yul\":4007:4011   */\n      0x60\n        /* \"#utility.yul\":4000:4005   */\n      dup3\n        /* \"#utility.yul\":3996:4012   */\n      add\n        /* \"#utility.yul\":3990:4013   */\n      mload\n        /* \"#utility.yul\":4026:4087   */\n      tag_327\n        /* \"#utility.yul\":4081:4085   */\n      0x60\n        /* \"#utility.yul\":4076:4079   */\n      dup6\n        /* \"#utility.yul\":4072:4086   */\n      add\n        /* \"#utility.yul\":4058:4070   */\n      dup3\n        /* \"#utility.yul\":4026:4087   */\n      tag_244\n      jump\t// in\n    tag_327:\n        /* \"#utility.yul\":3930:4097   */\n      pop\n        /* \"#utility.yul\":4180:4184   */\n      0x80\n        /* \"#utility.yul\":4173:4178   */\n      dup3\n        /* \"#utility.yul\":4169:4185   */\n      add\n        /* \"#utility.yul\":4163:4186   */\n      mload\n        /* \"#utility.yul\":4199:4262   */\n      tag_328\n        /* \"#utility.yul\":4256:4260   */\n      0x80\n        /* \"#utility.yul\":4251:4254   */\n      dup6\n        /* \"#utility.yul\":4247:4261   */\n      add\n        /* \"#utility.yul\":4233:4245   */\n      dup3\n        /* \"#utility.yul\":4199:4262   */\n      tag_242\n      jump\t// in\n    tag_328:\n        /* \"#utility.yul\":4107:4272   */\n      pop\n        /* \"#utility.yul\":4359:4363   */\n      0xa0\n        /* \"#utility.yul\":4352:4357   */\n      dup3\n        /* \"#utility.yul\":4348:4364   */\n      add\n        /* \"#utility.yul\":4342:4365   */\n      mload\n        /* \"#utility.yul\":4378:4441   */\n      tag_329\n        /* \"#utility.yul\":4435:4439   */\n      0xa0\n        /* \"#utility.yul\":4430:4433   */\n      dup6\n        /* \"#utility.yul\":4426:4440   */\n      add\n        /* \"#utility.yul\":4412:4424   */\n      dup3\n        /* \"#utility.yul\":4378:4441   */\n      tag_245\n      jump\t// in\n    tag_329:\n        /* \"#utility.yul\":4282:4451   */\n      pop\n        /* \"#utility.yul\":4540:4544   */\n      0xc0\n        /* \"#utility.yul\":4533:4538   */\n      dup3\n        /* \"#utility.yul\":4529:4545   */\n      add\n        /* \"#utility.yul\":4523:4546   */\n      mload\n        /* \"#utility.yul\":4559:4622   */\n      tag_330\n        /* \"#utility.yul\":4616:4620   */\n      0xc0\n        /* \"#utility.yul\":4611:4614   */\n      dup6\n        /* \"#utility.yul\":4607:4621   */\n      add\n        /* \"#utility.yul\":4593:4605   */\n      dup3\n        /* \"#utility.yul\":4559:4622   */\n      tag_245\n      jump\t// in\n    tag_330:\n        /* \"#utility.yul\":4461:4632   */\n      pop\n        /* \"#utility.yul\":4715:4719   */\n      0xe0\n        /* \"#utility.yul\":4708:4713   */\n      dup3\n        /* \"#utility.yul\":4704:4720   */\n      add\n        /* \"#utility.yul\":4698:4721   */\n      mload\n        /* \"#utility.yul\":4734:4791   */\n      tag_331\n        /* \"#utility.yul\":4785:4789   */\n      0xe0\n        /* \"#utility.yul\":4780:4783   */\n      dup6\n        /* \"#utility.yul\":4776:4790   */\n      add\n        /* \"#utility.yul\":4762:4774   */\n      dup3\n        /* \"#utility.yul\":4734:4791   */\n      tag_247\n      jump\t// in\n    tag_331:\n        /* \"#utility.yul\":4642:4801   */\n      pop\n        /* \"#utility.yul\":3360:4808   */\n      pop\n        /* \"#utility.yul\":3262:4808   */\n      pop\n      pop\n      jump\t// out\n        /* \"#utility.yul\":4814:5079   */\n    tag_249:\n        /* \"#utility.yul\":4925:4935   */\n      0x00\n        /* \"#utility.yul\":4946:5034   */\n      tag_333\n        /* \"#utility.yul\":5030:5033   */\n      dup4\n        /* \"#utility.yul\":5022:5028   */\n      dup4\n        /* \"#utility.yul\":4946:5034   */\n      tag_248\n      jump\t// in\n    tag_333:\n        /* \"#utility.yul\":5066:5072   */\n      0x0100\n        /* \"#utility.yul\":5061:5064   */\n      dup4\n        /* \"#utility.yul\":5057:5073   */\n      add\n        /* \"#utility.yul\":5043:5073   */\n      swap1\n      pop\n        /* \"#utility.yul\":4814:5079   */\n      swap3\n      swap2\n      pop\n      pop\n      jump\t// out\n        /* \"#utility.yul\":5085:5219   */\n    tag_250:\n        /* \"#utility.yul\":5176:5180   */\n      0x00\n        /* \"#utility.yul\":5208:5212   */\n      0x20\n        /* \"#utility.yul\":5203:5206   */\n      dup3\n        /* \"#utility.yul\":5199:5213   */\n      add\n        /* \"#utility.yul\":5191:5213   */\n      swap1\n      pop\n        /* \"#utility.yul\":5085:5219   */\n      swap2\n      swap1\n      pop\n      jump\t// out\n        /* \"#utility.yul\":5289:6189   */\n    tag_251:\n        /* \"#utility.yul\":5450:5453   */\n      0x00\n        /* \"#utility.yul\":5479:5554   */\n      tag_336\n        /* \"#utility.yul\":5548:5553   */\n      dup3\n        /* \"#utility.yul\":5479:5554   */\n      tag_237\n      jump\t// in\n    tag_336:\n        /* \"#utility.yul\":5570:5677   */\n      tag_337\n        /* \"#utility.yul\":5670:5676   */\n      dup2\n        /* \"#utility.yul\":5665:5668   */\n      dup6\n        /* \"#utility.yul\":5570:5677   */\n      tag_238\n      jump\t// in\n    tag_337:\n        /* \"#utility.yul\":5563:5677   */\n      swap4\n      pop\n        /* \"#utility.yul\":5701:5778   */\n      tag_338\n        /* \"#utility.yul\":5772:5777   */\n      dup4\n        /* \"#utility.yul\":5701:5778   */\n      tag_239\n      jump\t// in\n    tag_338:\n        /* \"#utility.yul\":5801:5808   */\n      dup1\n        /* \"#utility.yul\":5832:5833   */\n      0x00\n        /* \"#utility.yul\":5817:6164   */\n    tag_339:\n        /* \"#utility.yul\":5842:5848   */\n      dup4\n        /* \"#utility.yul\":5839:5840   */\n      dup2\n        /* \"#utility.yul\":5836:5849   */\n      lt\n        /* \"#utility.yul\":5817:6164   */\n      iszero\n      tag_341\n      jumpi\n        /* \"#utility.yul\":5918:5924   */\n      dup2\n        /* \"#utility.yul\":5912:5925   */\n      mload\n        /* \"#utility.yul\":5945:6050   */\n      tag_342\n        /* \"#utility.yul\":6046:6049   */\n      dup9\n        /* \"#utility.yul\":6031:6044   */\n      dup3\n        /* \"#utility.yul\":5945:6050   */\n      tag_249\n      jump\t// in\n    tag_342:\n        /* \"#utility.yul\":5938:6050   */\n      swap8\n      pop\n        /* \"#utility.yul\":6073:6154   */\n      tag_343\n        /* \"#utility.yul\":6147:6153   */\n      dup4\n        /* \"#utility.yul\":6073:6154   */\n      tag_250\n      jump\t// in\n    tag_343:\n        /* \"#utility.yul\":6063:6154   */\n      swap3\n      pop\n        /* \"#utility.yul\":5877:6164   */\n      pop\n        /* \"#utility.yul\":5864:5865   */\n      0x01\n        /* \"#utility.yul\":5861:5862   */\n      dup2\n        /* \"#utility.yul\":5857:5866   */\n      add\n        /* \"#utility.yul\":5852:5866   */\n      swap1\n      pop\n        /* \"#utility.yul\":5817:6164   */\n      jump(tag_339)\n    tag_341:\n        /* \"#utility.yul\":5821:5835   */\n      pop\n        /* \"#utility.yul\":6180:6183   */\n      dup6\n        /* \"#utility.yul\":6173:6183   */\n      swap4\n      pop\n        /* \"#utility.yul\":5455:6189   */\n      pop\n      pop\n      pop\n        /* \"#utility.yul\":5289:6189   */\n      swap3\n      swap2\n      pop\n      pop\n      jump\t// out\n        /* \"#utility.yul\":6195:6652   */\n    tag_22:\n        /* \"#utility.yul\":6380:6384   */\n      0x00\n        /* \"#utility.yul\":6418:6420   */\n      0x20\n        /* \"#utility.yul\":6407:6416   */\n      dup3\n        /* \"#utility.yul\":6403:6421   */\n      add\n        /* \"#utility.yul\":6395:6421   */\n      swap1\n      pop\n        /* \"#utility.yul\":6467:6476   */\n      dup2\n        /* \"#utility.yul\":6461:6465   */\n      dup2\n        /* \"#utility.yul\":6457:6477   */\n      sub\n        /* \"#utility.yul\":6453:6454   */\n      0x00\n        /* \"#utility.yul\":6442:6451   */\n      dup4\n        /* \"#utility.yul\":6438:6455   */\n      add\n        /* \"#utility.yul\":6431:6478   */\n      mstore\n        /* \"#utility.yul\":6495:6645   */\n      tag_345\n        /* \"#utility.yul\":6640:6644   */\n      dup2\n        /* \"#utility.yul\":6631:6637   */\n      dup5\n        /* \"#utility.yul\":6495:6645   */\n      tag_251\n      jump\t// in\n    tag_345:\n        /* \"#utility.yul\":6487:6645   */\n      swap1\n      pop\n        /* \"#utility.yul\":6195:6652   */\n      swap3\n      swap2\n      pop\n      pop\n      jump\t// out\n        /* \"#utility.yul\":6658:6778   */\n    tag_252:\n        /* \"#utility.yul\":6730:6753   */\n      tag_347\n        /* \"#utility.yul\":6747:6752   */\n      dup2\n        /* \"#utility.yul\":6730:6753   */\n      tag_240\n      jump\t// in\n    tag_347:\n        /* \"#utility.yul\":6723:6728   */\n      dup2\n        /* \"#utility.yul\":6720:6754   */\n      eq\n        /* \"#utility.yul\":6710:6772   */\n      tag_348\n      jumpi\n        /* \"#utility.yul\":6768:6769   */\n      0x00\n        /* \"#utility.yul\":6765:6766   */\n      dup1\n        /* \"#utility.yul\":6758:6770   */\n      revert\n        /* \"#utility.yul\":6710:6772   */\n    tag_348:\n        /* \"#utility.yul\":6658:6778   */\n      pop\n      jump\t// out\n        /* \"#utility.yul\":6784:6921   */\n    tag_253:\n        /* \"#utility.yul\":6829:6834   */\n      0x00\n        /* \"#utility.yul\":6867:6873   */\n      dup2\n        /* \"#utility.yul\":6854:6874   */\n      calldataload\n        /* \"#utility.yul\":6845:6874   */\n      swap1\n      pop\n        /* \"#utility.yul\":6883:6915   */\n      tag_350\n        /* \"#utility.yul\":6909:6914   */\n      dup2\n        /* \"#utility.yul\":6883:6915   */\n      tag_252\n      jump\t// in\n    tag_350:\n        /* \"#utility.yul\":6784:6921   */\n      swap3\n      swap2\n      pop\n      pop\n      jump\t// out\n        /* \"#utility.yul\":6927:7254   */\n    tag_26:\n        /* \"#utility.yul\":6985:6991   */\n      0x00\n        /* \"#utility.yul\":7034:7036   */\n      0x20\n        /* \"#utility.yul\":7022:7031   */\n      dup3\n        /* \"#utility.yul\":7013:7020   */\n      dup5\n        /* \"#utility.yul\":7009:7032   */\n      sub\n        /* \"#utility.yul\":7005:7037   */\n      slt\n        /* \"#utility.yul\":7002:7121   */\n      iszero\n      tag_352\n      jumpi\n        /* \"#utility.yul\":7040:7119   */\n      tag_353\n      tag_228\n      jump\t// in\n    tag_353:\n        /* \"#utility.yul\":7002:7121   */\n    tag_352:\n        /* \"#utility.yul\":7160:7161   */\n      0x00\n        /* \"#utility.yul\":7185:7237   */\n      tag_354\n        /* \"#utility.yul\":7229:7236   */\n      dup5\n        /* \"#utility.yul\":7220:7226   */\n      dup3\n        /* \"#utility.yul\":7209:7218   */\n      dup6\n        /* \"#utility.yul\":7205:7227   */\n      add\n        /* \"#utility.yul\":7185:7237   */\n      tag_253\n      jump\t// in\n    tag_354:\n        /* \"#utility.yul\":7175:7237   */\n      swap2\n      pop\n        /* \"#utility.yul\":7131:7247   */\n      pop\n        /* \"#utility.yul\":6927:7254   */\n      swap3\n      swap2\n      pop\n      pop\n      jump\t// out\n        /* \"#utility.yul\":7260:7375   */\n    tag_254:\n        /* \"#utility.yul\":7345:7368   */\n      tag_356\n        /* \"#utility.yul\":7362:7367   */\n      dup2\n        /* \"#utility.yul\":7345:7368   */\n      tag_240\n      jump\t// in\n    tag_356:\n        /* \"#utility.yul\":7340:7343   */\n      dup3\n        /* \"#utility.yul\":7333:7369   */\n      mstore\n        /* \"#utility.yul\":7260:7375   */\n      pop\n      pop\n      jump\t// out\n        /* \"#utility.yul\":7381:7499   */\n    tag_255:\n        /* \"#utility.yul\":7468:7492   */\n      tag_358\n        /* \"#utility.yul\":7486:7491   */\n      dup2\n        /* \"#utility.yul\":7468:7492   */\n      tag_231\n      jump\t// in\n    tag_358:\n        /* \"#utility.yul\":7463:7466   */\n      dup3\n        /* \"#utility.yul\":7456:7493   */\n      mstore\n        /* \"#utility.yul\":7381:7499   */\n      pop\n      pop\n      jump\t// out\n        /* \"#utility.yul\":7505:7620   */\n    tag_256:\n        /* \"#utility.yul\":7590:7613   */\n      tag_360\n        /* \"#utility.yul\":7607:7612   */\n      dup2\n        /* \"#utility.yul\":7590:7613   */\n      tag_243\n      jump\t// in\n    tag_360:\n        /* \"#utility.yul\":7585:7588   */\n      dup3\n        /* \"#utility.yul\":7578:7614   */\n      mstore\n        /* \"#utility.yul\":7505:7620   */\n      pop\n      pop\n      jump\t// out\n        /* \"#utility.yul\":7626:7744   */\n    tag_257:\n        /* \"#utility.yul\":7713:7737   */\n      tag_362\n        /* \"#utility.yul\":7731:7736   */\n      dup2\n        /* \"#utility.yul\":7713:7737   */\n      tag_234\n      jump\t// in\n    tag_362:\n        /* \"#utility.yul\":7708:7711   */\n      dup3\n        /* \"#utility.yul\":7701:7738   */\n      mstore\n        /* \"#utility.yul\":7626:7744   */\n      pop\n      pop\n      jump\t// out\n        /* \"#utility.yul\":7750:7859   */\n    tag_258:\n        /* \"#utility.yul\":7831:7852   */\n      tag_364\n        /* \"#utility.yul\":7846:7851   */\n      dup2\n        /* \"#utility.yul\":7831:7852   */\n      tag_246\n      jump\t// in\n    tag_364:\n        /* \"#utility.yul\":7826:7829   */\n      dup3\n        /* \"#utility.yul\":7819:7853   */\n      mstore\n        /* \"#utility.yul\":7750:7859   */\n      pop\n      pop\n      jump\t// out\n        /* \"#utility.yul\":7865:8838   */\n    tag_29:\n        /* \"#utility.yul\":8142:8146   */\n      0x00\n        /* \"#utility.yul\":8180:8183   */\n      0x0100\n        /* \"#utility.yul\":8169:8178   */\n      dup3\n        /* \"#utility.yul\":8165:8184   */\n      add\n        /* \"#utility.yul\":8157:8184   */\n      swap1\n      pop\n        /* \"#utility.yul\":8194:8263   */\n      tag_366\n        /* \"#utility.yul\":8260:8261   */\n      0x00\n        /* \"#utility.yul\":8249:8258   */\n      dup4\n        /* \"#utility.yul\":8245:8262   */\n      add\n        /* \"#utility.yul\":8236:8242   */\n      dup12\n        /* \"#utility.yul\":8194:8263   */\n      tag_254\n      jump\t// in\n    tag_366:\n        /* \"#utility.yul\":8273:8345   */\n      tag_367\n        /* \"#utility.yul\":8341:8343   */\n      0x20\n        /* \"#utility.yul\":8330:8339   */\n      dup4\n        /* \"#utility.yul\":8326:8344   */\n      add\n        /* \"#utility.yul\":8317:8323   */\n      dup11\n        /* \"#utility.yul\":8273:8345   */\n      tag_255\n      jump\t// in\n    tag_367:\n        /* \"#utility.yul\":8355:8425   */\n      tag_368\n        /* \"#utility.yul\":8421:8423   */\n      0x40\n        /* \"#utility.yul\":8410:8419   */\n      dup4\n        /* \"#utility.yul\":8406:8424   */\n      add\n        /* \"#utility.yul\":8397:8403   */\n      dup10\n        /* \"#utility.yul\":8355:8425   */\n      tag_256\n      jump\t// in\n    tag_368:\n        /* \"#utility.yul\":8435:8505   */\n      tag_369\n        /* \"#utility.yul\":8501:8503   */\n      0x60\n        /* \"#utility.yul\":8490:8499   */\n      dup4\n        /* \"#utility.yul\":8486:8504   */\n      add\n        /* \"#utility.yul\":8477:8483   */\n      dup9\n        /* \"#utility.yul\":8435:8505   */\n      tag_256\n      jump\t// in\n    tag_369:\n        /* \"#utility.yul\":8515:8588   */\n      tag_370\n        /* \"#utility.yul\":8583:8586   */\n      0x80\n        /* \"#utility.yul\":8572:8581   */\n      dup4\n        /* \"#utility.yul\":8568:8587   */\n      add\n        /* \"#utility.yul\":8559:8565   */\n      dup8\n        /* \"#utility.yul\":8515:8588   */\n      tag_255\n      jump\t// in\n    tag_370:\n        /* \"#utility.yul\":8598:8671   */\n      tag_371\n        /* \"#utility.yul\":8666:8669   */\n      0xa0\n        /* \"#utility.yul\":8655:8664   */\n      dup4\n        /* \"#utility.yul\":8651:8670   */\n      add\n        /* \"#utility.yul\":8642:8648   */\n      dup7\n        /* \"#utility.yul\":8598:8671   */\n      tag_257\n      jump\t// in\n    tag_371:\n        /* \"#utility.yul\":8681:8754   */\n      tag_372\n        /* \"#utility.yul\":8749:8752   */\n      0xc0\n        /* \"#utility.yul\":8738:8747   */\n      dup4\n        /* \"#utility.yul\":8734:8753   */\n      add\n        /* \"#utility.yul\":8725:8731   */\n      dup6\n        /* \"#utility.yul\":8681:8754   */\n      tag_257\n      jump\t// in\n    tag_372:\n        /* \"#utility.yul\":8764:8831   */\n      tag_373\n        /* \"#utility.yul\":8826:8829   */\n      0xe0\n        /* \"#utility.yul\":8815:8824   */\n      dup4\n        /* \"#utility.yul\":8811:8830   */\n      add\n        /* \"#utility.yul\":8802:8808   */\n      dup5\n        /* \"#utility.yul\":8764:8831   */\n      tag_258\n      jump\t// in\n    tag_373:\n        /* \"#utility.yul\":7865:8838   */\n      swap10\n      swap9\n      pop\n      pop\n      pop\n      pop\n      pop\n      pop\n      pop\n      pop\n      pop\n      jump\t// out\n        /* \"#utility.yul\":8844:9316   */\n    tag_33:\n        /* \"#utility.yul\":8911:8917   */\n      0x00\n        /* \"#utility.yul\":8919:8925   */\n      dup1\n        /* \"#utility.yul\":8968:8970   */\n      0x40\n        /* \"#utility.yul\":8956:8965   */\n      dup4\n        /* \"#utility.yul\":8947:8954   */\n      dup6\n        /* \"#utility.yul\":8943:8966   */\n      sub\n        /* \"#utility.yul\":8939:8971   */\n      slt\n        /* \"#utility.yul\":8936:9055   */\n      iszero\n      tag_375\n      jumpi\n        /* \"#utility.yul\":8974:9053   */\n      tag_376\n      tag_228\n      jump\t// in\n    tag_376:\n        /* \"#utility.yul\":8936:9055   */\n    tag_375:\n        /* \"#utility.yul\":9094:9095   */\n      0x00\n        /* \"#utility.yul\":9119:9171   */\n      tag_377\n        /* \"#utility.yul\":9163:9170   */\n      dup6\n        /* \"#utility.yul\":9154:9160   */\n      dup3\n        /* \"#utility.yul\":9143:9152   */\n      dup7\n        /* \"#utility.yul\":9139:9161   */\n      add\n        /* \"#utility.yul\":9119:9171   */\n      tag_253\n      jump\t// in\n    tag_377:\n        /* \"#utility.yul\":9109:9171   */\n      swap3\n      pop\n        /* \"#utility.yul\":9065:9181   */\n      pop\n        /* \"#utility.yul\":9220:9222   */\n      0x20\n        /* \"#utility.yul\":9246:9299   */\n      tag_378\n        /* \"#utility.yul\":9291:9298   */\n      dup6\n        /* \"#utility.yul\":9282:9288   */\n      dup3\n        /* \"#utility.yul\":9271:9280   */\n      dup7\n        /* \"#utility.yul\":9267:9289   */\n      add\n        /* \"#utility.yul\":9246:9299   */\n      tag_236\n      jump\t// in\n    tag_378:\n        /* \"#utility.yul\":9236:9299   */\n      swap2\n      pop\n        /* \"#utility.yul\":9191:9309   */\n      pop\n        /* \"#utility.yul\":8844:9316   */\n      swap3\n      pop\n      swap3\n      swap1\n      pop\n      jump\t// out\n        /* \"#utility.yul\":9322:9544   */\n    tag_36:\n        /* \"#utility.yul\":9415:9419   */\n      0x00\n        /* \"#utility.yul\":9453:9455   */\n      0x20\n        /* \"#utility.yul\":9442:9451   */\n      dup3\n        /* \"#utility.yul\":9438:9456   */\n      add\n        /* \"#utility.yul\":9430:9456   */\n      swap1\n      pop\n        /* \"#utility.yul\":9466:9537   */\n      tag_380\n        /* \"#utility.yul\":9534:9535   */\n      0x00\n        /* \"#utility.yul\":9523:9532   */\n      dup4\n        /* \"#utility.yul\":9519:9536   */\n      add\n        /* \"#utility.yul\":9510:9516   */\n      dup5\n        /* \"#utility.yul\":9466:9537   */\n      tag_255\n      jump\t// in\n    tag_380:\n        /* \"#utility.yul\":9322:9544   */\n      swap3\n      swap2\n      pop\n      pop\n      jump\t// out\n        /* \"#utility.yul\":9550:10020   */\n    tag_40:\n        /* \"#utility.yul\":9616:9622   */\n      0x00\n        /* \"#utility.yul\":9624:9630   */\n      dup1\n        /* \"#utility.yul\":9673:9675   */\n      0x40\n        /* \"#utility.yul\":9661:9670   */\n      dup4\n        /* \"#utility.yul\":9652:9659   */\n      dup6\n        /* \"#utility.yul\":9648:9671   */\n      sub\n        /* \"#utility.yul\":9644:9676   */\n      slt\n        /* \"#utility.yul\":9641:9760   */\n      iszero\n      tag_382\n      jumpi\n        /* \"#utility.yul\":9679:9758   */\n      tag_383\n      tag_228\n      jump\t// in\n    tag_383:\n        /* \"#utility.yul\":9641:9760   */\n    tag_382:\n        /* \"#utility.yul\":9799:9800   */\n      0x00\n        /* \"#utility.yul\":9824:9876   */\n      tag_384\n        /* \"#utility.yul\":9868:9875   */\n      dup6\n        /* \"#utility.yul\":9859:9865   */\n      dup3\n        /* \"#utility.yul\":9848:9857   */\n      dup7\n        /* \"#utility.yul\":9844:9866   */\n      add\n        /* \"#utility.yul\":9824:9876   */\n      tag_253\n      jump\t// in\n    tag_384:\n        /* \"#utility.yul\":9814:9876   */\n      swap3\n      pop\n        /* \"#utility.yul\":9770:9886   */\n      pop\n        /* \"#utility.yul\":9925:9927   */\n      0x20\n        /* \"#utility.yul\":9951:10003   */\n      tag_385\n        /* \"#utility.yul\":9995:10002   */\n      dup6\n        /* \"#utility.yul\":9986:9992   */\n      dup3\n        /* \"#utility.yul\":9975:9984   */\n      dup7\n        /* \"#utility.yul\":9971:9993   */\n      add\n        /* \"#utility.yul\":9951:10003   */\n      tag_253\n      jump\t// in\n    tag_385:\n        /* \"#utility.yul\":9941:10003   */\n      swap2\n      pop\n        /* \"#utility.yul\":9896:10013   */\n      pop\n        /* \"#utility.yul\":9550:10020   */\n      swap3\n      pop\n      swap3\n      swap1\n      pop\n      jump\t// out\n        /* \"#utility.yul\":10026:10244   */\n    tag_47:\n        /* \"#utility.yul\":10117:10121   */\n      0x00\n        /* \"#utility.yul\":10155:10157   */\n      0x20\n        /* \"#utility.yul\":10144:10153   */\n      dup3\n        /* \"#utility.yul\":10140:10158   */\n      add\n        /* \"#utility.yul\":10132:10158   */\n      swap1\n      pop\n        /* \"#utility.yul\":10168:10237   */\n      tag_387\n        /* \"#utility.yul\":10234:10235   */\n      0x00\n        /* \"#utility.yul\":10223:10232   */\n      dup4\n        /* \"#utility.yul\":10219:10236   */\n      add\n        /* \"#utility.yul\":10210:10216   */\n      dup5\n        /* \"#utility.yul\":10168:10237   */\n      tag_254\n      jump\t// in\n    tag_387:\n        /* \"#utility.yul\":10026:10244   */\n      swap3\n      swap2\n      pop\n      pop\n      jump\t// out\n        /* \"#utility.yul\":10250:10867   */\n    tag_56:\n        /* \"#utility.yul\":10326:10332   */\n      0x00\n        /* \"#utility.yul\":10334:10340   */\n      dup1\n        /* \"#utility.yul\":10342:10348   */\n      0x00\n        /* \"#utility.yul\":10391:10393   */\n      0x60\n        /* \"#utility.yul\":10379:10388   */\n      dup5\n        /* \"#utility.yul\":10370:10377   */\n      dup7\n        /* \"#utility.yul\":10366:10389   */\n      sub\n        /* \"#utility.yul\":10362:10394   */\n      slt\n        /* \"#utility.yul\":10359:10478   */\n      iszero\n      tag_389\n      jumpi\n        /* \"#utility.yul\":10397:10476   */\n      tag_390\n      tag_228\n      jump\t// in\n    tag_390:\n        /* \"#utility.yul\":10359:10478   */\n    tag_389:\n        /* \"#utility.yul\":10517:10518   */\n      0x00\n        /* \"#utility.yul\":10542:10594   */\n      tag_391\n        /* \"#utility.yul\":10586:10593   */\n      dup7\n        /* \"#utility.yul\":10577:10583   */\n      dup3\n        /* \"#utility.yul\":10566:10575   */\n      dup8\n        /* \"#utility.yul\":10562:10584   */\n      add\n        /* \"#utility.yul\":10542:10594   */\n      tag_253\n      jump\t// in\n    tag_391:\n        /* \"#utility.yul\":10532:10594   */\n      swap4\n      pop\n        /* \"#utility.yul\":10488:10604   */\n      pop\n        /* \"#utility.yul\":10643:10645   */\n      0x20\n        /* \"#utility.yul\":10669:10722   */\n      tag_392\n        /* \"#utility.yul\":10714:10721   */\n      dup7\n        /* \"#utility.yul\":10705:10711   */\n      dup3\n        /* \"#utility.yul\":10694:10703   */\n      dup8\n        /* \"#utility.yul\":10690:10712   */\n      add\n        /* \"#utility.yul\":10669:10722   */\n      tag_233\n      jump\t// in\n    tag_392:\n        /* \"#utility.yul\":10659:10722   */\n      swap3\n      pop\n        /* \"#utility.yul\":10614:10732   */\n      pop\n        /* \"#utility.yul\":10771:10773   */\n      0x40\n        /* \"#utility.yul\":10797:10850   */\n      tag_393\n        /* \"#utility.yul\":10842:10849   */\n      dup7\n        /* \"#utility.yul\":10833:10839   */\n      dup3\n        /* \"#utility.yul\":10822:10831   */\n      dup8\n        /* \"#utility.yul\":10818:10840   */\n      add\n        /* \"#utility.yul\":10797:10850   */\n      tag_236\n      jump\t// in\n    tag_393:\n        /* \"#utility.yul\":10787:10850   */\n      swap2\n      pop\n        /* \"#utility.yul\":10742:10860   */\n      pop\n        /* \"#utility.yul\":10250:10867   */\n      swap3\n      pop\n      swap3\n      pop\n      swap3\n      jump\t// out\n        /* \"#utility.yul\":10873:11311   */\n    tag_59:\n        /* \"#utility.yul\":11020:11024   */\n      0x00\n        /* \"#utility.yul\":11058:11060   */\n      0x60\n        /* \"#utility.yul\":11047:11056   */\n      dup3\n        /* \"#utility.yul\":11043:11061   */\n      add\n        /* \"#utility.yul\":11035:11061   */\n      swap1\n      pop\n        /* \"#utility.yul\":11071:11142   */\n      tag_395\n        /* \"#utility.yul\":11139:11140   */\n      0x00\n        /* \"#utility.yul\":11128:11137   */\n      dup4\n        /* \"#utility.yul\":11124:11141   */\n      add\n        /* \"#utility.yul\":11115:11121   */\n      dup7\n        /* \"#utility.yul\":11071:11142   */\n      tag_255\n      jump\t// in\n    tag_395:\n        /* \"#utility.yul\":11152:11222   */\n      tag_396\n        /* \"#utility.yul\":11218:11220   */\n      0x20\n        /* \"#utility.yul\":11207:11216   */\n      dup4\n        /* \"#utility.yul\":11203:11221   */\n      add\n        /* \"#utility.yul\":11194:11200   */\n      dup6\n        /* \"#utility.yul\":11152:11222   */\n      tag_254\n      jump\t// in\n    tag_396:\n        /* \"#utility.yul\":11232:11304   */\n      tag_397\n        /* \"#utility.yul\":11300:11302   */\n      0x40\n        /* \"#utility.yul\":11289:11298   */\n      dup4\n        /* \"#utility.yul\":11285:11303   */\n      add\n        /* \"#utility.yul\":11276:11282   */\n      dup5\n        /* \"#utility.yul\":11232:11304   */\n      tag_257\n      jump\t// in\n    tag_397:\n        /* \"#utility.yul\":10873:11311   */\n      swap5\n      swap4\n      pop\n      pop\n      pop\n      pop\n      jump\t// out\n        /* \"#utility.yul\":11317:11934   */\n    tag_62:\n        /* \"#utility.yul\":11393:11399   */\n      0x00\n        /* \"#utility.yul\":11401:11407   */\n      dup1\n        /* \"#utility.yul\":11409:11415   */\n      0x00\n        /* \"#utility.yul\":11458:11460   */\n      0x60\n        /* \"#utility.yul\":11446:11455   */\n      dup5\n        /* \"#utility.yul\":11437:11444   */\n      dup7\n        /* \"#utility.yul\":11433:11456   */\n      sub\n        /* \"#utility.yul\":11429:11461   */\n      slt\n        /* \"#utility.yul\":11426:11545   */\n      iszero\n      tag_399\n      jumpi\n        /* \"#utility.yul\":11464:11543   */\n      tag_400\n      tag_228\n      jump\t// in\n    tag_400:\n        /* \"#utility.yul\":11426:11545   */\n    tag_399:\n        /* \"#utility.yul\":11584:11585   */\n      0x00\n        /* \"#utility.yul\":11609:11662   */\n      tag_401\n        /* \"#utility.yul\":11654:11661   */\n      dup7\n        /* \"#utility.yul\":11645:11651   */\n      dup3\n        /* \"#utility.yul\":11634:11643   */\n      dup8\n        /* \"#utility.yul\":11630:11652   */\n      add\n        /* \"#utility.yul\":11609:11662   */\n      tag_233\n      jump\t// in\n    tag_401:\n        /* \"#utility.yul\":11599:11662   */\n      swap4\n      pop\n        /* \"#utility.yul\":11555:11672   */\n      pop\n        /* \"#utility.yul\":11711:11713   */\n      0x20\n        /* \"#utility.yul\":11737:11789   */\n      tag_402\n        /* \"#utility.yul\":11781:11788   */\n      dup7\n        /* \"#utility.yul\":11772:11778   */\n      dup3\n        /* \"#utility.yul\":11761:11770   */\n      dup8\n        /* \"#utility.yul\":11757:11779   */\n      add\n        /* \"#utility.yul\":11737:11789   */\n      tag_253\n      jump\t// in\n    tag_402:\n        /* \"#utility.yul\":11727:11789   */\n      swap3\n      pop\n        /* \"#utility.yul\":11682:11799   */\n      pop\n        /* \"#utility.yul\":11838:11840   */\n      0x40\n        /* \"#utility.yul\":11864:11917   */\n      tag_403\n        /* \"#utility.yul\":11909:11916   */\n      dup7\n        /* \"#utility.yul\":11900:11906   */\n      dup3\n        /* \"#utility.yul\":11889:11898   */\n      dup8\n        /* \"#utility.yul\":11885:11907   */\n      add\n        /* \"#utility.yul\":11864:11917   */\n      tag_236\n      jump\t// in\n    tag_403:\n        /* \"#utility.yul\":11854:11917   */\n      swap2\n      pop\n        /* \"#utility.yul\":11809:11927   */\n      pop\n        /* \"#utility.yul\":11317:11934   */\n      swap3\n      pop\n      swap3\n      pop\n      swap3\n      jump\t// out\n        /* \"#utility.yul\":11940:12703   */\n    tag_67:\n        /* \"#utility.yul\":12025:12031   */\n      0x00\n        /* \"#utility.yul\":12033:12039   */\n      dup1\n        /* \"#utility.yul\":12041:12047   */\n      0x00\n        /* \"#utility.yul\":12049:12055   */\n      dup1\n        /* \"#utility.yul\":12098:12101   */\n      0x80\n        /* \"#utility.yul\":12086:12095   */\n      dup6\n        /* \"#utility.yul\":12077:12084   */\n      dup8\n        /* \"#utility.yul\":12073:12096   */\n      sub\n        /* \"#utility.yul\":12069:12102   */\n      slt\n        /* \"#utility.yul\":12066:12186   */\n      iszero\n      tag_405\n      jumpi\n        /* \"#utility.yul\":12105:12184   */\n      tag_406\n      tag_228\n      jump\t// in\n    tag_406:\n        /* \"#utility.yul\":12066:12186   */\n    tag_405:\n        /* \"#utility.yul\":12225:12226   */\n      0x00\n        /* \"#utility.yul\":12250:12302   */\n      tag_407\n        /* \"#utility.yul\":12294:12301   */\n      dup8\n        /* \"#utility.yul\":12285:12291   */\n      dup3\n        /* \"#utility.yul\":12274:12283   */\n      dup9\n        /* \"#utility.yul\":12270:12292   */\n      add\n        /* \"#utility.yul\":12250:12302   */\n      tag_253\n      jump\t// in\n    tag_407:\n        /* \"#utility.yul\":12240:12302   */\n      swap5\n      pop\n        /* \"#utility.yul\":12196:12312   */\n      pop\n        /* \"#utility.yul\":12351:12353   */\n      0x20\n        /* \"#utility.yul\":12377:12430   */\n      tag_408\n        /* \"#utility.yul\":12422:12429   */\n      dup8\n        /* \"#utility.yul\":12413:12419   */\n      dup3\n        /* \"#utility.yul\":12402:12411   */\n      dup9\n        /* \"#utility.yul\":12398:12420   */\n      add\n        /* \"#utility.yul\":12377:12430   */\n      tag_233\n      jump\t// in\n    tag_408:\n        /* \"#utility.yul\":12367:12430   */\n      swap4\n      pop\n        /* \"#utility.yul\":12322:12440   */\n      pop\n        /* \"#utility.yul\":12479:12481   */\n      0x40\n        /* \"#utility.yul\":12505:12558   */\n      tag_409\n        /* \"#utility.yul\":12550:12557   */\n      dup8\n        /* \"#utility.yul\":12541:12547   */\n      dup3\n        /* \"#utility.yul\":12530:12539   */\n      dup9\n        /* \"#utility.yul\":12526:12548   */\n      add\n        /* \"#utility.yul\":12505:12558   */\n      tag_233\n      jump\t// in\n    tag_409:\n        /* \"#utility.yul\":12495:12558   */\n      swap3\n      pop\n        /* \"#utility.yul\":12450:12568   */\n      pop\n        /* \"#utility.yul\":12607:12609   */\n      0x60\n        /* \"#utility.yul\":12633:12686   */\n      tag_410\n        /* \"#utility.yul\":12678:12685   */\n      dup8\n        /* \"#utility.yul\":12669:12675   */\n      dup3\n        /* \"#utility.yul\":12658:12667   */\n      dup9\n        /* \"#utility.yul\":12654:12676   */\n      add\n        /* \"#utility.yul\":12633:12686   */\n      tag_236\n      jump\t// in\n    tag_410:\n        /* \"#utility.yul\":12623:12686   */\n      swap2\n      pop\n        /* \"#utility.yul\":12578:12696   */\n      pop\n        /* \"#utility.yul\":11940:12703   */\n      swap3\n      swap6\n      swap2\n      swap5\n      pop\n      swap3\n      pop\n      jump\t// out\n        /* \"#utility.yul\":12709:13250   */\n    tag_71:\n        /* \"#utility.yul\":12880:12884   */\n      0x00\n        /* \"#utility.yul\":12918:12921   */\n      0x80\n        /* \"#utility.yul\":12907:12916   */\n      dup3\n        /* \"#utility.yul\":12903:12922   */\n      add\n        /* \"#utility.yul\":12895:12922   */\n      swap1\n      pop\n        /* \"#utility.yul\":12932:13003   */\n      tag_412\n        /* \"#utility.yul\":13000:13001   */\n      0x00\n        /* \"#utility.yul\":12989:12998   */\n      dup4\n        /* \"#utility.yul\":12985:13002   */\n      add\n        /* \"#utility.yul\":12976:12982   */\n      dup8\n        /* \"#utility.yul\":12932:13003   */\n      tag_255\n      jump\t// in\n    tag_412:\n        /* \"#utility.yul\":13013:13085   */\n      tag_413\n        /* \"#utility.yul\":13081:13083   */\n      0x20\n        /* \"#utility.yul\":13070:13079   */\n      dup4\n        /* \"#utility.yul\":13066:13084   */\n      add\n        /* \"#utility.yul\":13057:13063   */\n      dup7\n        /* \"#utility.yul\":13013:13085   */\n      tag_255\n      jump\t// in\n    tag_413:\n        /* \"#utility.yul\":13095:13161   */\n      tag_414\n        /* \"#utility.yul\":13157:13159   */\n      0x40\n        /* \"#utility.yul\":13146:13155   */\n      dup4\n        /* \"#utility.yul\":13142:13160   */\n      add\n        /* \"#utility.yul\":13133:13139   */\n      dup6\n        /* \"#utility.yul\":13095:13161   */\n      tag_258\n      jump\t// in\n    tag_414:\n        /* \"#utility.yul\":13171:13243   */\n      tag_415\n        /* \"#utility.yul\":13239:13241   */\n      0x60\n        /* \"#utility.yul\":13228:13237   */\n      dup4\n        /* \"#utility.yul\":13224:13242   */\n      add\n        /* \"#utility.yul\":13215:13221   */\n      dup5\n        /* \"#utility.yul\":13171:13243   */\n      tag_257\n      jump\t// in\n    tag_415:\n        /* \"#utility.yul\":12709:13250   */\n      swap6\n      swap5\n      pop\n      pop\n      pop\n      pop\n      pop\n      jump\t// out\n        /* \"#utility.yul\":13256:13436   */\n    tag_259:\n        /* \"#utility.yul\":13304:13381   */\n      0x4e487b7100000000000000000000000000000000000000000000000000000000\n        /* \"#utility.yul\":13301:13302   */\n      0x00\n        /* \"#utility.yul\":13294:13382   */\n      mstore\n        /* \"#utility.yul\":13401:13405   */\n      0x11\n        /* \"#utility.yul\":13398:13399   */\n      0x04\n        /* \"#utility.yul\":13391:13406   */\n      mstore\n        /* \"#utility.yul\":13425:13429   */\n      0x24\n        /* \"#utility.yul\":13422:13423   */\n      0x00\n        /* \"#utility.yul\":13415:13430   */\n      revert\n        /* \"#utility.yul\":13442:13655   */\n    tag_73:\n        /* \"#utility.yul\":13481:13484   */\n      0x00\n        /* \"#utility.yul\":13500:13519   */\n      tag_418\n        /* \"#utility.yul\":13517:13518   */\n      dup3\n        /* \"#utility.yul\":13500:13519   */\n      tag_240\n      jump\t// in\n    tag_418:\n        /* \"#utility.yul\":13495:13519   */\n      swap2\n      pop\n        /* \"#utility.yul\":13533:13552   */\n      tag_419\n        /* \"#utility.yul\":13550:13551   */\n      dup4\n        /* \"#utility.yul\":13533:13552   */\n      tag_240\n      jump\t// in\n    tag_419:\n        /* \"#utility.yul\":13528:13552   */\n      swap3\n      pop\n        /* \"#utility.yul\":13575:13576   */\n      dup3\n        /* \"#utility.yul\":13572:13573   */\n      dup3\n        /* \"#utility.yul\":13568:13577   */\n      add\n        /* \"#utility.yul\":13561:13577   */\n      swap1\n      pop\n        /* \"#utility.yul\":13598:13624   */\n      0xffffffffffffffffffffffff\n        /* \"#utility.yul\":13593:13596   */\n      dup2\n        /* \"#utility.yul\":13590:13625   */\n      gt\n        /* \"#utility.yul\":13587:13648   */\n      iszero\n      tag_420\n      jumpi\n        /* \"#utility.yul\":13628:13646   */\n      tag_421\n      tag_259\n      jump\t// in\n    tag_421:\n        /* \"#utility.yul\":13587:13648   */\n    tag_420:\n        /* \"#utility.yul\":13442:13655   */\n      swap3\n      swap2\n      pop\n      pop\n      jump\t// out\n        /* \"#utility.yul\":13661:13830   */\n    tag_260:\n        /* \"#utility.yul\":13745:13756   */\n      0x00\n        /* \"#utility.yul\":13779:13785   */\n      dup3\n        /* \"#utility.yul\":13774:13777   */\n      dup3\n        /* \"#utility.yul\":13767:13786   */\n      mstore\n        /* \"#utility.yul\":13819:13823   */\n      0x20\n        /* \"#utility.yul\":13814:13817   */\n      dup3\n        /* \"#utility.yul\":13810:13824   */\n      add\n        /* \"#utility.yul\":13795:13824   */\n      swap1\n      pop\n        /* \"#utility.yul\":13661:13830   */\n      swap3\n      swap2\n      pop\n      pop\n      jump\t// out\n        /* \"#utility.yul\":13836:14013   */\n    tag_261:\n        /* \"#utility.yul\":13976:14005   */\n      0x4d757374206265205f656e644964203c3d2066756e64436f756e740000000000\n        /* \"#utility.yul\":13972:13973   */\n      0x00\n        /* \"#utility.yul\":13964:13970   */\n      dup3\n        /* \"#utility.yul\":13960:13974   */\n      add\n        /* \"#utility.yul\":13953:14006   */\n      mstore\n        /* \"#utility.yul\":13836:14013   */\n      pop\n      jump\t// out\n        /* \"#utility.yul\":14019:14385   */\n    tag_262:\n        /* \"#utility.yul\":14161:14164   */\n      0x00\n        /* \"#utility.yul\":14182:14249   */\n      tag_425\n        /* \"#utility.yul\":14246:14248   */\n      0x1b\n        /* \"#utility.yul\":14241:14244   */\n      dup4\n        /* \"#utility.yul\":14182:14249   */\n      tag_260\n      jump\t// in\n    tag_425:\n        /* \"#utility.yul\":14175:14249   */\n      swap2\n      pop\n        /* \"#utility.yul\":14258:14351   */\n      tag_426\n        /* \"#utility.yul\":14347:14350   */\n      dup3\n        /* \"#utility.yul\":14258:14351   */\n      tag_261\n      jump\t// in\n    tag_426:\n        /* \"#utility.yul\":14376:14378   */\n      0x20\n        /* \"#utility.yul\":14371:14374   */\n      dup3\n        /* \"#utility.yul\":14367:14379   */\n      add\n        /* \"#utility.yul\":14360:14379   */\n      swap1\n      pop\n        /* \"#utility.yul\":14019:14385   */\n      swap2\n      swap1\n      pop\n      jump\t// out\n        /* \"#utility.yul\":14391:14810   */\n    tag_81:\n        /* \"#utility.yul\":14557:14561   */\n      0x00\n        /* \"#utility.yul\":14595:14597   */\n      0x20\n        /* \"#utility.yul\":14584:14593   */\n      dup3\n        /* \"#utility.yul\":14580:14598   */\n      add\n        /* \"#utility.yul\":14572:14598   */\n      swap1\n      pop\n        /* \"#utility.yul\":14644:14653   */\n      dup2\n        /* \"#utility.yul\":14638:14642   */\n      dup2\n        /* \"#utility.yul\":14634:14654   */\n      sub\n        /* \"#utility.yul\":14630:14631   */\n      0x00\n        /* \"#utility.yul\":14619:14628   */\n      dup4\n        /* \"#utility.yul\":14615:14632   */\n      add\n        /* \"#utility.yul\":14608:14655   */\n      mstore\n        /* \"#utility.yul\":14672:14803   */\n      tag_428\n        /* \"#utility.yul\":14798:14802   */\n      dup2\n        /* \"#utility.yul\":14672:14803   */\n      tag_262\n      jump\t// in\n    tag_428:\n        /* \"#utility.yul\":14664:14803   */\n      swap1\n      pop\n        /* \"#utility.yul\":14391:14810   */\n      swap2\n      swap1\n      pop\n      jump\t// out\n        /* \"#utility.yul\":14816:14992   */\n    tag_263:\n        /* \"#utility.yul\":14956:14984   */\n      0x4d757374206265205f73746172744964203c3d205f656e644964000000000000\n        /* \"#utility.yul\":14952:14953   */\n      0x00\n        /* \"#utility.yul\":14944:14950   */\n      dup3\n        /* \"#utility.yul\":14940:14954   */\n      add\n        /* \"#utility.yul\":14933:14985   */\n      mstore\n        /* \"#utility.yul\":14816:14992   */\n      pop\n      jump\t// out\n        /* \"#utility.yul\":14998:15364   */\n    tag_264:\n        /* \"#utility.yul\":15140:15143   */\n      0x00\n        /* \"#utility.yul\":15161:15228   */\n      tag_431\n        /* \"#utility.yul\":15225:15227   */\n      0x1a\n        /* \"#utility.yul\":15220:15223   */\n      dup4\n        /* \"#utility.yul\":15161:15228   */\n      tag_260\n      jump\t// in\n    tag_431:\n        /* \"#utility.yul\":15154:15228   */\n      swap2\n      pop\n        /* \"#utility.yul\":15237:15330   */\n      tag_432\n        /* \"#utility.yul\":15326:15329   */\n      dup3\n        /* \"#utility.yul\":15237:15330   */\n      tag_263\n      jump\t// in\n    tag_432:\n        /* \"#utility.yul\":15355:15357   */\n      0x20\n        /* \"#utility.yul\":15350:15353   */\n      dup3\n        /* \"#utility.yul\":15346:15358   */\n      add\n        /* \"#utility.yul\":15339:15358   */\n      swap1\n      pop\n        /* \"#utility.yul\":14998:15364   */\n      swap2\n      swap1\n      pop\n      jump\t// out\n        /* \"#utility.yul\":15370:15789   */\n    tag_84:\n        /* \"#utility.yul\":15536:15540   */\n      0x00\n        /* \"#utility.yul\":15574:15576   */\n      0x20\n        /* \"#utility.yul\":15563:15572   */\n      dup3\n        /* \"#utility.yul\":15559:15577   */\n      add\n        /* \"#utility.yul\":15551:15577   */\n      swap1\n      pop\n        /* \"#utility.yul\":15623:15632   */\n      dup2\n        /* \"#utility.yul\":15617:15621   */\n      dup2\n        /* \"#utility.yul\":15613:15633   */\n      sub\n        /* \"#utility.yul\":15609:15610   */\n      0x00\n        /* \"#utility.yul\":15598:15607   */\n      dup4\n        /* \"#utility.yul\":15594:15611   */\n      add\n        /* \"#utility.yul\":15587:15634   */\n      mstore\n        /* \"#utility.yul\":15651:15782   */\n      tag_434\n        /* \"#utility.yul\":15777:15781   */\n      dup2\n        /* \"#utility.yul\":15651:15782   */\n      tag_264\n      jump\t// in\n    tag_434:\n        /* \"#utility.yul\":15643:15782   */\n      swap1\n      pop\n        /* \"#utility.yul\":15370:15789   */\n      swap2\n      swap1\n      pop\n      jump\t// out\n        /* \"#utility.yul\":15795:16011   */\n    tag_86:\n        /* \"#utility.yul\":15834:15838   */\n      0x00\n        /* \"#utility.yul\":15854:15873   */\n      tag_436\n        /* \"#utility.yul\":15871:15872   */\n      dup3\n        /* \"#utility.yul\":15854:15873   */\n      tag_240\n      jump\t// in\n    tag_436:\n        /* \"#utility.yul\":15849:15873   */\n      swap2\n      pop\n        /* \"#utility.yul\":15887:15906   */\n      tag_437\n        /* \"#utility.yul\":15904:15905   */\n      dup4\n        /* \"#utility.yul\":15887:15906   */\n      tag_240\n      jump\t// in\n    tag_437:\n        /* \"#utility.yul\":15882:15906   */\n      swap3\n      pop\n        /* \"#utility.yul\":15930:15931   */\n      dup3\n        /* \"#utility.yul\":15927:15928   */\n      dup3\n        /* \"#utility.yul\":15923:15932   */\n      sub\n        /* \"#utility.yul\":15915:15932   */\n      swap1\n      pop\n        /* \"#utility.yul\":15954:15980   */\n      0xffffffffffffffffffffffff\n        /* \"#utility.yul\":15948:15952   */\n      dup2\n        /* \"#utility.yul\":15945:15981   */\n      gt\n        /* \"#utility.yul\":15942:16004   */\n      iszero\n      tag_438\n      jumpi\n        /* \"#utility.yul\":15984:16002   */\n      tag_439\n      tag_259\n      jump\t// in\n    tag_439:\n        /* \"#utility.yul\":15942:16004   */\n    tag_438:\n        /* \"#utility.yul\":15795:16011   */\n      swap3\n      swap2\n      pop\n      pop\n      jump\t// out\n        /* \"#utility.yul\":16017:16197   */\n    tag_89:\n        /* \"#utility.yul\":16065:16142   */\n      0x4e487b7100000000000000000000000000000000000000000000000000000000\n        /* \"#utility.yul\":16062:16063   */\n      0x00\n        /* \"#utility.yul\":16055:16143   */\n      mstore\n        /* \"#utility.yul\":16162:16166   */\n      0x41\n        /* \"#utility.yul\":16159:16160   */\n      0x04\n        /* \"#utility.yul\":16152:16167   */\n      mstore\n        /* \"#utility.yul\":16186:16190   */\n      0x24\n        /* \"#utility.yul\":16183:16184   */\n      0x00\n        /* \"#utility.yul\":16176:16191   */\n      revert\n        /* \"#utility.yul\":16203:16383   */\n    tag_100:\n        /* \"#utility.yul\":16251:16328   */\n      0x4e487b7100000000000000000000000000000000000000000000000000000000\n        /* \"#utility.yul\":16248:16249   */\n      0x00\n        /* \"#utility.yul\":16241:16329   */\n      mstore\n        /* \"#utility.yul\":16348:16352   */\n      0x32\n        /* \"#utility.yul\":16345:16346   */\n      0x04\n        /* \"#utility.yul\":16338:16353   */\n      mstore\n        /* \"#utility.yul\":16372:16376   */\n      0x24\n        /* \"#utility.yul\":16369:16370   */\n      0x00\n        /* \"#utility.yul\":16362:16377   */\n      revert\n        /* \"#utility.yul\":16389:16580   */\n    tag_102:\n        /* \"#utility.yul\":16427:16430   */\n      0x00\n        /* \"#utility.yul\":16450:16473   */\n      tag_443\n        /* \"#utility.yul\":16467:16472   */\n      dup3\n        /* \"#utility.yul\":16450:16473   */\n      tag_240\n      jump\t// in\n    tag_443:\n        /* \"#utility.yul\":16441:16473   */\n      swap2\n      pop\n        /* \"#utility.yul\":16495:16521   */\n      0xffffffffffffffffffffffff\n        /* \"#utility.yul\":16488:16493   */\n      dup3\n        /* \"#utility.yul\":16485:16522   */\n      sub\n        /* \"#utility.yul\":16482:16545   */\n      tag_444\n      jumpi\n        /* \"#utility.yul\":16525:16543   */\n      tag_445\n      tag_259\n      jump\t// in\n    tag_445:\n        /* \"#utility.yul\":16482:16545   */\n    tag_444:\n        /* \"#utility.yul\":16572:16573   */\n      0x01\n        /* \"#utility.yul\":16565:16570   */\n      dup3\n        /* \"#utility.yul\":16561:16574   */\n      add\n        /* \"#utility.yul\":16554:16574   */\n      swap1\n      pop\n        /* \"#utility.yul\":16389:16580   */\n      swap2\n      swap1\n      pop\n      jump\t// out\n        /* \"#utility.yul\":16586:16759   */\n    tag_265:\n        /* \"#utility.yul\":16726:16751   */\n      0x4d757374206265205f6964203c2066756e64436f756e74000000000000000000\n        /* \"#utility.yul\":16722:16723   */\n      0x00\n        /* \"#utility.yul\":16714:16720   */\n      dup3\n        /* \"#utility.yul\":16710:16724   */\n      add\n        /* \"#utility.yul\":16703:16752   */\n      mstore\n        /* \"#utility.yul\":16586:16759   */\n      pop\n      jump\t// out\n        /* \"#utility.yul\":16765:17131   */\n    tag_266:\n        /* \"#utility.yul\":16907:16910   */\n      0x00\n        /* \"#utility.yul\":16928:16995   */\n      tag_448\n        /* \"#utility.yul\":16992:16994   */\n      0x17\n        /* \"#utility.yul\":16987:16990   */\n      dup4\n        /* \"#utility.yul\":16928:16995   */\n      tag_260\n      jump\t// in\n    tag_448:\n        /* \"#utility.yul\":16921:16995   */\n      swap2\n      pop\n        /* \"#utility.yul\":17004:17097   */\n      tag_449\n        /* \"#utility.yul\":17093:17096   */\n      dup3\n        /* \"#utility.yul\":17004:17097   */\n      tag_265\n      jump\t// in\n    tag_449:\n        /* \"#utility.yul\":17122:17124   */\n      0x20\n        /* \"#utility.yul\":17117:17120   */\n      dup3\n        /* \"#utility.yul\":17113:17125   */\n      add\n        /* \"#utility.yul\":17106:17125   */\n      swap1\n      pop\n        /* \"#utility.yul\":16765:17131   */\n      swap2\n      swap1\n      pop\n      jump\t// out\n        /* \"#utility.yul\":17137:17556   */\n    tag_106:\n        /* \"#utility.yul\":17303:17307   */\n      0x00\n        /* \"#utility.yul\":17341:17343   */\n      0x20\n        /* \"#utility.yul\":17330:17339   */\n      dup3\n        /* \"#utility.yul\":17326:17344   */\n      add\n        /* \"#utility.yul\":17318:17344   */\n      swap1\n      pop\n        /* \"#utility.yul\":17390:17399   */\n      dup2\n        /* \"#utility.yul\":17384:17388   */\n      dup2\n        /* \"#utility.yul\":17380:17400   */\n      sub\n        /* \"#utility.yul\":17376:17377   */\n      0x00\n        /* \"#utility.yul\":17365:17374   */\n      dup4\n        /* \"#utility.yul\":17361:17378   */\n      add\n        /* \"#utility.yul\":17354:17401   */\n      mstore\n        /* \"#utility.yul\":17418:17549   */\n      tag_451\n        /* \"#utility.yul\":17544:17548   */\n      dup2\n        /* \"#utility.yul\":17418:17549   */\n      tag_266\n      jump\t// in\n    tag_451:\n        /* \"#utility.yul\":17410:17549   */\n      swap1\n      pop\n        /* \"#utility.yul\":17137:17556   */\n      swap2\n      swap1\n      pop\n      jump\t// out\n        /* \"#utility.yul\":17562:17894   */\n    tag_120:\n        /* \"#utility.yul\":17683:17687   */\n      0x00\n        /* \"#utility.yul\":17721:17723   */\n      0x40\n        /* \"#utility.yul\":17710:17719   */\n      dup3\n        /* \"#utility.yul\":17706:17724   */\n      add\n        /* \"#utility.yul\":17698:17724   */\n      swap1\n      pop\n        /* \"#utility.yul\":17734:17805   */\n      tag_453\n        /* \"#utility.yul\":17802:17803   */\n      0x00\n        /* \"#utility.yul\":17791:17800   */\n      dup4\n        /* \"#utility.yul\":17787:17804   */\n      add\n        /* \"#utility.yul\":17778:17784   */\n      dup6\n        /* \"#utility.yul\":17734:17805   */\n      tag_255\n      jump\t// in\n    tag_453:\n        /* \"#utility.yul\":17815:17887   */\n      tag_454\n        /* \"#utility.yul\":17883:17885   */\n      0x20\n        /* \"#utility.yul\":17872:17881   */\n      dup4\n        /* \"#utility.yul\":17868:17886   */\n      add\n        /* \"#utility.yul\":17859:17865   */\n      dup5\n        /* \"#utility.yul\":17815:17887   */\n      tag_257\n      jump\t// in\n    tag_454:\n        /* \"#utility.yul\":17562:17894   */\n      swap4\n      swap3\n      pop\n      pop\n      pop\n      jump\t// out\n        /* \"#utility.yul\":17900:18016   */\n    tag_267:\n        /* \"#utility.yul\":17970:17991   */\n      tag_456\n        /* \"#utility.yul\":17985:17990   */\n      dup2\n        /* \"#utility.yul\":17970:17991   */\n      tag_246\n      jump\t// in\n    tag_456:\n        /* \"#utility.yul\":17963:17968   */\n      dup2\n        /* \"#utility.yul\":17960:17992   */\n      eq\n        /* \"#utility.yul\":17950:18010   */\n      tag_457\n      jumpi\n        /* \"#utility.yul\":18006:18007   */\n      0x00\n        /* \"#utility.yul\":18003:18004   */\n      dup1\n        /* \"#utility.yul\":17996:18008   */\n      revert\n        /* \"#utility.yul\":17950:18010   */\n    tag_457:\n        /* \"#utility.yul\":17900:18016   */\n      pop\n      jump\t// out\n        /* \"#utility.yul\":18022:18159   */\n    tag_268:\n        /* \"#utility.yul\":18076:18081   */\n      0x00\n        /* \"#utility.yul\":18107:18113   */\n      dup2\n        /* \"#utility.yul\":18101:18114   */\n      mload\n        /* \"#utility.yul\":18092:18114   */\n      swap1\n      pop\n        /* \"#utility.yul\":18123:18153   */\n      tag_459\n        /* \"#utility.yul\":18147:18152   */\n      dup2\n        /* \"#utility.yul\":18123:18153   */\n      tag_267\n      jump\t// in\n    tag_459:\n        /* \"#utility.yul\":18022:18159   */\n      swap3\n      swap2\n      pop\n      pop\n      jump\t// out\n        /* \"#utility.yul\":18165:18510   */\n    tag_124:\n        /* \"#utility.yul\":18232:18238   */\n      0x00\n        /* \"#utility.yul\":18281:18283   */\n      0x20\n        /* \"#utility.yul\":18269:18278   */\n      dup3\n        /* \"#utility.yul\":18260:18267   */\n      dup5\n        /* \"#utility.yul\":18256:18279   */\n      sub\n        /* \"#utility.yul\":18252:18284   */\n      slt\n        /* \"#utility.yul\":18249:18368   */\n      iszero\n      tag_461\n      jumpi\n        /* \"#utility.yul\":18287:18366   */\n      tag_462\n      tag_228\n      jump\t// in\n    tag_462:\n        /* \"#utility.yul\":18249:18368   */\n    tag_461:\n        /* \"#utility.yul\":18407:18408   */\n      0x00\n        /* \"#utility.yul\":18432:18493   */\n      tag_463\n        /* \"#utility.yul\":18485:18492   */\n      dup5\n        /* \"#utility.yul\":18476:18482   */\n      dup3\n        /* \"#utility.yul\":18465:18474   */\n      dup6\n        /* \"#utility.yul\":18461:18483   */\n      add\n        /* \"#utility.yul\":18432:18493   */\n      tag_268\n      jump\t// in\n    tag_463:\n        /* \"#utility.yul\":18422:18493   */\n      swap2\n      pop\n        /* \"#utility.yul\":18378:18503   */\n      pop\n        /* \"#utility.yul\":18165:18510   */\n      swap3\n      swap2\n      pop\n      pop\n      jump\t// out\n        /* \"#utility.yul\":18516:18848   */\n    tag_126:\n        /* \"#utility.yul\":18637:18641   */\n      0x00\n        /* \"#utility.yul\":18675:18677   */\n      0x40\n        /* \"#utility.yul\":18664:18673   */\n      dup3\n        /* \"#utility.yul\":18660:18678   */\n      add\n        /* \"#utility.yul\":18652:18678   */\n      swap1\n      pop\n        /* \"#utility.yul\":18688:18759   */\n      tag_465\n        /* \"#utility.yul\":18756:18757   */\n      0x00\n        /* \"#utility.yul\":18745:18754   */\n      dup4\n        /* \"#utility.yul\":18741:18758   */\n      add\n        /* \"#utility.yul\":18732:18738   */\n      dup6\n        /* \"#utility.yul\":18688:18759   */\n      tag_257\n      jump\t// in\n    tag_465:\n        /* \"#utility.yul\":18769:18841   */\n      tag_466\n        /* \"#utility.yul\":18837:18839   */\n      0x20\n        /* \"#utility.yul\":18826:18835   */\n      dup4\n        /* \"#utility.yul\":18822:18840   */\n      add\n        /* \"#utility.yul\":18813:18819   */\n      dup5\n        /* \"#utility.yul\":18769:18841   */\n      tag_257\n      jump\t// in\n    tag_466:\n        /* \"#utility.yul\":18516:18848   */\n      swap4\n      swap3\n      pop\n      pop\n      pop\n      jump\t// out\n        /* \"#utility.yul\":18854:19030   */\n    tag_269:\n        /* \"#utility.yul\":18994:19022   */\n      0x46756e6420557064617465206e6f7420617574686f72697a6564000000000000\n        /* \"#utility.yul\":18990:18991   */\n      0x00\n        /* \"#utility.yul\":18982:18988   */\n      dup3\n        /* \"#utility.yul\":18978:18992   */\n      add\n        /* \"#utility.yul\":18971:19023   */\n      mstore\n        /* \"#utility.yul\":18854:19030   */\n      pop\n      jump\t// out\n        /* \"#utility.yul\":19036:19402   */\n    tag_270:\n        /* \"#utility.yul\":19178:19181   */\n      0x00\n        /* \"#utility.yul\":19199:19266   */\n      tag_469\n        /* \"#utility.yul\":19263:19265   */\n      0x1a\n        /* \"#utility.yul\":19258:19261   */\n      dup4\n        /* \"#utility.yul\":19199:19266   */\n      tag_260\n      jump\t// in\n    tag_469:\n        /* \"#utility.yul\":19192:19266   */\n      swap2\n      pop\n        /* \"#utility.yul\":19275:19368   */\n      tag_470\n        /* \"#utility.yul\":19364:19367   */\n      dup3\n        /* \"#utility.yul\":19275:19368   */\n      tag_269\n      jump\t// in\n    tag_470:\n        /* \"#utility.yul\":19393:19395   */\n      0x20\n        /* \"#utility.yul\":19388:19391   */\n      dup3\n        /* \"#utility.yul\":19384:19396   */\n      add\n        /* \"#utility.yul\":19377:19396   */\n      swap1\n      pop\n        /* \"#utility.yul\":19036:19402   */\n      swap2\n      swap1\n      pop\n      jump\t// out\n        /* \"#utility.yul\":19408:19827   */\n    tag_131:\n        /* \"#utility.yul\":19574:19578   */\n      0x00\n        /* \"#utility.yul\":19612:19614   */\n      0x20\n        /* \"#utility.yul\":19601:19610   */\n      dup3\n        /* \"#utility.yul\":19597:19615   */\n      add\n        /* \"#utility.yul\":19589:19615   */\n      swap1\n      pop\n        /* \"#utility.yul\":19661:19670   */\n      dup2\n        /* \"#utility.yul\":19655:19659   */\n      dup2\n        /* \"#utility.yul\":19651:19671   */\n      sub\n        /* \"#utility.yul\":19647:19648   */\n      0x00\n        /* \"#utility.yul\":19636:19645   */\n      dup4\n        /* \"#utility.yul\":19632:19649   */\n      add\n        /* \"#utility.yul\":19625:19672   */\n      mstore\n        /* \"#utility.yul\":19689:19820   */\n      tag_472\n        /* \"#utility.yul\":19815:19819   */\n      dup2\n        /* \"#utility.yul\":19689:19820   */\n      tag_270\n      jump\t// in\n    tag_472:\n        /* \"#utility.yul\":19681:19820   */\n      swap1\n      pop\n        /* \"#utility.yul\":19408:19827   */\n      swap2\n      swap1\n      pop\n      jump\t// out\n        /* \"#utility.yul\":19833:19976   */\n    tag_271:\n        /* \"#utility.yul\":19890:19895   */\n      0x00\n        /* \"#utility.yul\":19921:19927   */\n      dup2\n        /* \"#utility.yul\":19915:19928   */\n      mload\n        /* \"#utility.yul\":19906:19928   */\n      swap1\n      pop\n        /* \"#utility.yul\":19937:19970   */\n      tag_474\n        /* \"#utility.yul\":19964:19969   */\n      dup2\n        /* \"#utility.yul\":19937:19970   */\n      tag_235\n      jump\t// in\n    tag_474:\n        /* \"#utility.yul\":19833:19976   */\n      swap3\n      swap2\n      pop\n      pop\n      jump\t// out\n        /* \"#utility.yul\":19982:20333   */\n    tag_138:\n        /* \"#utility.yul\":20052:20058   */\n      0x00\n        /* \"#utility.yul\":20101:20103   */\n      0x20\n        /* \"#utility.yul\":20089:20098   */\n      dup3\n        /* \"#utility.yul\":20080:20087   */\n      dup5\n        /* \"#utility.yul\":20076:20099   */\n      sub\n        /* \"#utility.yul\":20072:20104   */\n      slt\n        /* \"#utility.yul\":20069:20188   */\n      iszero\n      tag_476\n      jumpi\n        /* \"#utility.yul\":20107:20186   */\n      tag_477\n      tag_228\n      jump\t// in\n    tag_477:\n        /* \"#utility.yul\":20069:20188   */\n    tag_476:\n        /* \"#utility.yul\":20227:20228   */\n      0x00\n        /* \"#utility.yul\":20252:20316   */\n      tag_478\n        /* \"#utility.yul\":20308:20315   */\n      dup5\n        /* \"#utility.yul\":20299:20305   */\n      dup3\n        /* \"#utility.yul\":20288:20297   */\n      dup6\n        /* \"#utility.yul\":20284:20306   */\n      add\n        /* \"#utility.yul\":20252:20316   */\n      tag_271\n      jump\t// in\n    tag_478:\n        /* \"#utility.yul\":20242:20316   */\n      swap2\n      pop\n        /* \"#utility.yul\":20198:20326   */\n      pop\n        /* \"#utility.yul\":19982:20333   */\n      swap3\n      swap2\n      pop\n      pop\n      jump\t// out\n        /* \"#utility.yul\":20339:20561   */\n    tag_272:\n        /* \"#utility.yul\":20479:20513   */\n      0x746f6b656e20616d6f756e74206f662075736572206e6f742073756666696369\n        /* \"#utility.yul\":20475:20476   */\n      0x00\n        /* \"#utility.yul\":20467:20473   */\n      dup3\n        /* \"#utility.yul\":20463:20477   */\n      add\n        /* \"#utility.yul\":20456:20514   */\n      mstore\n        /* \"#utility.yul\":20548:20553   */\n      0x656e740000000000000000000000000000000000000000000000000000000000\n        /* \"#utility.yul\":20543:20545   */\n      0x20\n        /* \"#utility.yul\":20535:20541   */\n      dup3\n        /* \"#utility.yul\":20531:20546   */\n      add\n        /* \"#utility.yul\":20524:20554   */\n      mstore\n        /* \"#utility.yul\":20339:20561   */\n      pop\n      jump\t// out\n        /* \"#utility.yul\":20567:20933   */\n    tag_273:\n        /* \"#utility.yul\":20709:20712   */\n      0x00\n        /* \"#utility.yul\":20730:20797   */\n      tag_481\n        /* \"#utility.yul\":20794:20796   */\n      0x23\n        /* \"#utility.yul\":20789:20792   */\n      dup4\n        /* \"#utility.yul\":20730:20797   */\n      tag_260\n      jump\t// in\n    tag_481:\n        /* \"#utility.yul\":20723:20797   */\n      swap2\n      pop\n        /* \"#utility.yul\":20806:20899   */\n      tag_482\n        /* \"#utility.yul\":20895:20898   */\n      dup3\n        /* \"#utility.yul\":20806:20899   */\n      tag_272\n      jump\t// in\n    tag_482:\n        /* \"#utility.yul\":20924:20926   */\n      0x40\n        /* \"#utility.yul\":20919:20922   */\n      dup3\n        /* \"#utility.yul\":20915:20927   */\n      add\n        /* \"#utility.yul\":20908:20927   */\n      swap1\n      pop\n        /* \"#utility.yul\":20567:20933   */\n      swap2\n      swap1\n      pop\n      jump\t// out\n        /* \"#utility.yul\":20939:21358   */\n    tag_141:\n        /* \"#utility.yul\":21105:21109   */\n      0x00\n        /* \"#utility.yul\":21143:21145   */\n      0x20\n        /* \"#utility.yul\":21132:21141   */\n      dup3\n        /* \"#utility.yul\":21128:21146   */\n      add\n        /* \"#utility.yul\":21120:21146   */\n      swap1\n      pop\n        /* \"#utility.yul\":21192:21201   */\n      dup2\n        /* \"#utility.yul\":21186:21190   */\n      dup2\n        /* \"#utility.yul\":21182:21202   */\n      sub\n        /* \"#utility.yul\":21178:21179   */\n      0x00\n        /* \"#utility.yul\":21167:21176   */\n      dup4\n        /* \"#utility.yul\":21163:21180   */\n      add\n        /* \"#utility.yul\":21156:21203   */\n      mstore\n        /* \"#utility.yul\":21220:21351   */\n      tag_484\n        /* \"#utility.yul\":21346:21350   */\n      dup2\n        /* \"#utility.yul\":21220:21351   */\n      tag_273\n      jump\t// in\n    tag_484:\n        /* \"#utility.yul\":21212:21351   */\n      swap1\n      pop\n        /* \"#utility.yul\":20939:21358   */\n      swap2\n      swap1\n      pop\n      jump\t// out\n        /* \"#utility.yul\":21364:21696   */\n    tag_143:\n        /* \"#utility.yul\":21485:21489   */\n      0x00\n        /* \"#utility.yul\":21523:21525   */\n      0x40\n        /* \"#utility.yul\":21512:21521   */\n      dup3\n        /* \"#utility.yul\":21508:21526   */\n      add\n        /* \"#utility.yul\":21500:21526   */\n      swap1\n      pop\n        /* \"#utility.yul\":21536:21607   */\n      tag_486\n        /* \"#utility.yul\":21604:21605   */\n      0x00\n        /* \"#utility.yul\":21593:21602   */\n      dup4\n        /* \"#utility.yul\":21589:21606   */\n      add\n        /* \"#utility.yul\":21580:21586   */\n      dup6\n        /* \"#utility.yul\":21536:21607   */\n      tag_255\n      jump\t// in\n    tag_486:\n        /* \"#utility.yul\":21617:21689   */\n      tag_487\n        /* \"#utility.yul\":21685:21687   */\n      0x20\n        /* \"#utility.yul\":21674:21683   */\n      dup4\n        /* \"#utility.yul\":21670:21688   */\n      add\n        /* \"#utility.yul\":21661:21667   */\n      dup5\n        /* \"#utility.yul\":21617:21689   */\n      tag_255\n      jump\t// in\n    tag_487:\n        /* \"#utility.yul\":21364:21696   */\n      swap4\n      swap3\n      pop\n      pop\n      pop\n      jump\t// out\n        /* \"#utility.yul\":21702:21876   */\n    tag_274:\n        /* \"#utility.yul\":21842:21868   */\n      0x746f6b656e20616c6c6f77616e63652073686f72746167650000000000000000\n        /* \"#utility.yul\":21838:21839   */\n      0x00\n        /* \"#utility.yul\":21830:21836   */\n      dup3\n        /* \"#utility.yul\":21826:21840   */\n      add\n        /* \"#utility.yul\":21819:21869   */\n      mstore\n        /* \"#utility.yul\":21702:21876   */\n      pop\n      jump\t// out\n        /* \"#utility.yul\":21882:22248   */\n    tag_275:\n        /* \"#utility.yul\":22024:22027   */\n      0x00\n        /* \"#utility.yul\":22045:22112   */\n      tag_490\n        /* \"#utility.yul\":22109:22111   */\n      0x18\n        /* \"#utility.yul\":22104:22107   */\n      dup4\n        /* \"#utility.yul\":22045:22112   */\n      tag_260\n      jump\t// in\n    tag_490:\n        /* \"#utility.yul\":22038:22112   */\n      swap2\n      pop\n        /* \"#utility.yul\":22121:22214   */\n      tag_491\n        /* \"#utility.yul\":22210:22213   */\n      dup3\n        /* \"#utility.yul\":22121:22214   */\n      tag_274\n      jump\t// in\n    tag_491:\n        /* \"#utility.yul\":22239:22241   */\n      0x20\n        /* \"#utility.yul\":22234:22237   */\n      dup3\n        /* \"#utility.yul\":22230:22242   */\n      add\n        /* \"#utility.yul\":22223:22242   */\n      swap1\n      pop\n        /* \"#utility.yul\":21882:22248   */\n      swap2\n      swap1\n      pop\n      jump\t// out\n        /* \"#utility.yul\":22254:22673   */\n    tag_149:\n        /* \"#utility.yul\":22420:22424   */\n      0x00\n        /* \"#utility.yul\":22458:22460   */\n      0x20\n        /* \"#utility.yul\":22447:22456   */\n      dup3\n        /* \"#utility.yul\":22443:22461   */\n      add\n        /* \"#utility.yul\":22435:22461   */\n      swap1\n      pop\n        /* \"#utility.yul\":22507:22516   */\n      dup2\n        /* \"#utility.yul\":22501:22505   */\n      dup2\n        /* \"#utility.yul\":22497:22517   */\n      sub\n        /* \"#utility.yul\":22493:22494   */\n      0x00\n        /* \"#utility.yul\":22482:22491   */\n      dup4\n        /* \"#utility.yul\":22478:22495   */\n      add\n        /* \"#utility.yul\":22471:22518   */\n      mstore\n        /* \"#utility.yul\":22535:22666   */\n      tag_493\n        /* \"#utility.yul\":22661:22665   */\n      dup2\n        /* \"#utility.yul\":22535:22666   */\n      tag_275\n      jump\t// in\n    tag_493:\n        /* \"#utility.yul\":22527:22666   */\n      swap1\n      pop\n        /* \"#utility.yul\":22254:22673   */\n      swap2\n      swap1\n      pop\n      jump\t// out\n        /* \"#utility.yul\":22679:23121   */\n    tag_151:\n        /* \"#utility.yul\":22828:22832   */\n      0x00\n        /* \"#utility.yul\":22866:22868   */\n      0x60\n        /* \"#utility.yul\":22855:22864   */\n      dup3\n        /* \"#utility.yul\":22851:22869   */\n      add\n        /* \"#utility.yul\":22843:22869   */\n      swap1\n      pop\n        /* \"#utility.yul\":22879:22950   */\n      tag_495\n        /* \"#utility.yul\":22947:22948   */\n      0x00\n        /* \"#utility.yul\":22936:22945   */\n      dup4\n        /* \"#utility.yul\":22932:22949   */\n      add\n        /* \"#utility.yul\":22923:22929   */\n      dup7\n        /* \"#utility.yul\":22879:22950   */\n      tag_255\n      jump\t// in\n    tag_495:\n        /* \"#utility.yul\":22960:23032   */\n      tag_496\n        /* \"#utility.yul\":23028:23030   */\n      0x20\n        /* \"#utility.yul\":23017:23026   */\n      dup4\n        /* \"#utility.yul\":23013:23031   */\n      add\n        /* \"#utility.yul\":23004:23010   */\n      dup6\n        /* \"#utility.yul\":22960:23032   */\n      tag_255\n      jump\t// in\n    tag_496:\n        /* \"#utility.yul\":23042:23114   */\n      tag_497\n        /* \"#utility.yul\":23110:23112   */\n      0x40\n        /* \"#utility.yul\":23099:23108   */\n      dup4\n        /* \"#utility.yul\":23095:23113   */\n      add\n        /* \"#utility.yul\":23086:23092   */\n      dup5\n        /* \"#utility.yul\":23042:23114   */\n      tag_257\n      jump\t// in\n    tag_497:\n        /* \"#utility.yul\":22679:23121   */\n      swap5\n      swap4\n      pop\n      pop\n      pop\n      pop\n      jump\t// out\n        /* \"#utility.yul\":23127:23298   */\n    tag_276:\n        /* \"#utility.yul\":23267:23290   */\n      0x746f6b656e207472616e73666572206661696c65640000000000000000000000\n        /* \"#utility.yul\":23263:23264   */\n      0x00\n        /* \"#utility.yul\":23255:23261   */\n      dup3\n        /* \"#utility.yul\":23251:23265   */\n      add\n        /* \"#utility.yul\":23244:23291   */\n      mstore\n        /* \"#utility.yul\":23127:23298   */\n      pop\n      jump\t// out\n        /* \"#utility.yul\":23304:23670   */\n    tag_277:\n        /* \"#utility.yul\":23446:23449   */\n      0x00\n        /* \"#utility.yul\":23467:23534   */\n      tag_500\n        /* \"#utility.yul\":23531:23533   */\n      0x15\n        /* \"#utility.yul\":23526:23529   */\n      dup4\n        /* \"#utility.yul\":23467:23534   */\n      tag_260\n      jump\t// in\n    tag_500:\n        /* \"#utility.yul\":23460:23534   */\n      swap2\n      pop\n        /* \"#utility.yul\":23543:23636   */\n      tag_501\n        /* \"#utility.yul\":23632:23635   */\n      dup3\n        /* \"#utility.yul\":23543:23636   */\n      tag_276\n      jump\t// in\n    tag_501:\n        /* \"#utility.yul\":23661:23663   */\n      0x20\n        /* \"#utility.yul\":23656:23659   */\n      dup3\n        /* \"#utility.yul\":23652:23664   */\n      add\n        /* \"#utility.yul\":23645:23664   */\n      swap1\n      pop\n        /* \"#utility.yul\":23304:23670   */\n      swap2\n      swap1\n      pop\n      jump\t// out\n        /* \"#utility.yul\":23676:24095   */\n    tag_157:\n        /* \"#utility.yul\":23842:23846   */\n      0x00\n        /* \"#utility.yul\":23880:23882   */\n      0x20\n        /* \"#utility.yul\":23869:23878   */\n      dup3\n        /* \"#utility.yul\":23865:23883   */\n      add\n        /* \"#utility.yul\":23857:23883   */\n      swap1\n      pop\n        /* \"#utility.yul\":23929:23938   */\n      dup2\n        /* \"#utility.yul\":23923:23927   */\n      dup2\n        /* \"#utility.yul\":23919:23939   */\n      sub\n        /* \"#utility.yul\":23915:23916   */\n      0x00\n        /* \"#utility.yul\":23904:23913   */\n      dup4\n        /* \"#utility.yul\":23900:23917   */\n      add\n        /* \"#utility.yul\":23893:23940   */\n      mstore\n        /* \"#utility.yul\":23957:24088   */\n      tag_503\n        /* \"#utility.yul\":24083:24087   */\n      dup2\n        /* \"#utility.yul\":23957:24088   */\n      tag_277\n      jump\t// in\n    tag_503:\n        /* \"#utility.yul\":23949:24088   */\n      swap1\n      pop\n        /* \"#utility.yul\":23676:24095   */\n      swap2\n      swap1\n      pop\n      jump\t// out\n        /* \"#utility.yul\":24101:24292   */\n    tag_193:\n        /* \"#utility.yul\":24141:24144   */\n      0x00\n        /* \"#utility.yul\":24160:24180   */\n      tag_505\n        /* \"#utility.yul\":24178:24179   */\n      dup3\n        /* \"#utility.yul\":24160:24180   */\n      tag_234\n      jump\t// in\n    tag_505:\n        /* \"#utility.yul\":24155:24180   */\n      swap2\n      pop\n        /* \"#utility.yul\":24194:24214   */\n      tag_506\n        /* \"#utility.yul\":24212:24213   */\n      dup4\n        /* \"#utility.yul\":24194:24214   */\n      tag_234\n      jump\t// in\n    tag_506:\n        /* \"#utility.yul\":24189:24214   */\n      swap3\n      pop\n        /* \"#utility.yul\":24237:24238   */\n      dup3\n        /* \"#utility.yul\":24234:24235   */\n      dup3\n        /* \"#utility.yul\":24230:24239   */\n      add\n        /* \"#utility.yul\":24223:24239   */\n      swap1\n      pop\n        /* \"#utility.yul\":24258:24261   */\n      dup1\n        /* \"#utility.yul\":24255:24256   */\n      dup3\n        /* \"#utility.yul\":24252:24262   */\n      gt\n        /* \"#utility.yul\":24249:24285   */\n      iszero\n      tag_507\n      jumpi\n        /* \"#utility.yul\":24265:24283   */\n      tag_508\n      tag_259\n      jump\t// in\n    tag_508:\n        /* \"#utility.yul\":24249:24285   */\n    tag_507:\n        /* \"#utility.yul\":24101:24292   */\n      swap3\n      swap2\n      pop\n      pop\n      jump\t// out\n        /* \"#utility.yul\":24298:24400   */\n    tag_278:\n        /* \"#utility.yul\":24340:24348   */\n      0x00\n        /* \"#utility.yul\":24387:24392   */\n      dup2\n        /* \"#utility.yul\":24384:24385   */\n      0x01\n        /* \"#utility.yul\":24380:24393   */\n      shr\n        /* \"#utility.yul\":24359:24393   */\n      swap1\n      pop\n        /* \"#utility.yul\":24298:24400   */\n      swap2\n      swap1\n      pop\n      jump\t// out\n        /* \"#utility.yul\":24406:25254   */\n    tag_279:\n        /* \"#utility.yul\":24467:24472   */\n      0x00\n        /* \"#utility.yul\":24474:24478   */\n      dup1\n        /* \"#utility.yul\":24498:24504   */\n      dup3\n        /* \"#utility.yul\":24489:24504   */\n      swap2\n      pop\n        /* \"#utility.yul\":24522:24527   */\n      dup4\n        /* \"#utility.yul\":24513:24527   */\n      swap1\n      pop\n        /* \"#utility.yul\":24536:25248   */\n    tag_511:\n        /* \"#utility.yul\":24557:24558   */\n      0x01\n        /* \"#utility.yul\":24547:24555   */\n      dup6\n        /* \"#utility.yul\":24544:24559   */\n      gt\n        /* \"#utility.yul\":24536:25248   */\n      iszero\n      tag_513\n      jumpi\n        /* \"#utility.yul\":24652:24656   */\n      dup1\n        /* \"#utility.yul\":24647:24650   */\n      dup7\n        /* \"#utility.yul\":24643:24657   */\n      div\n        /* \"#utility.yul\":24637:24641   */\n      dup2\n        /* \"#utility.yul\":24634:24658   */\n      gt\n        /* \"#utility.yul\":24631:24681   */\n      iszero\n      tag_514\n      jumpi\n        /* \"#utility.yul\":24661:24679   */\n      tag_515\n      tag_259\n      jump\t// in\n    tag_515:\n        /* \"#utility.yul\":24631:24681   */\n    tag_514:\n        /* \"#utility.yul\":24711:24712   */\n      0x01\n        /* \"#utility.yul\":24701:24709   */\n      dup6\n        /* \"#utility.yul\":24697:24713   */\n      and\n        /* \"#utility.yul\":24694:25145   */\n      iszero\n      tag_516\n      jumpi\n        /* \"#utility.yul\":25126:25130   */\n      dup1\n        /* \"#utility.yul\":25119:25124   */\n      dup3\n        /* \"#utility.yul\":25115:25131   */\n      mul\n        /* \"#utility.yul\":25106:25131   */\n      swap2\n      pop\n        /* \"#utility.yul\":24694:25145   */\n    tag_516:\n        /* \"#utility.yul\":25176:25180   */\n      dup1\n        /* \"#utility.yul\":25170:25174   */\n      dup2\n        /* \"#utility.yul\":25166:25181   */\n      mul\n        /* \"#utility.yul\":25158:25181   */\n      swap1\n      pop\n        /* \"#utility.yul\":25206:25238   */\n      tag_517\n        /* \"#utility.yul\":25229:25237   */\n      dup6\n        /* \"#utility.yul\":25206:25238   */\n      tag_278\n      jump\t// in\n    tag_517:\n        /* \"#utility.yul\":25194:25238   */\n      swap5\n      pop\n        /* \"#utility.yul\":24536:25248   */\n      jump(tag_511)\n    tag_513:\n        /* \"#utility.yul\":24406:25254   */\n      swap5\n      pop\n      swap5\n      swap3\n      pop\n      pop\n      pop\n      jump\t// out\n        /* \"#utility.yul\":25260:26333   */\n    tag_280:\n        /* \"#utility.yul\":25314:25319   */\n      0x00\n        /* \"#utility.yul\":25505:25513   */\n      dup3\n        /* \"#utility.yul\":25495:25535   */\n      tag_519\n      jumpi\n        /* \"#utility.yul\":25526:25527   */\n      0x01\n        /* \"#utility.yul\":25517:25527   */\n      swap1\n      pop\n        /* \"#utility.yul\":25528:25533   */\n      jump(tag_518)\n        /* \"#utility.yul\":25495:25535   */\n    tag_519:\n        /* \"#utility.yul\":25554:25558   */\n      dup2\n        /* \"#utility.yul\":25544:25580   */\n      tag_520\n      jumpi\n        /* \"#utility.yul\":25571:25572   */\n      0x00\n        /* \"#utility.yul\":25562:25572   */\n      swap1\n      pop\n        /* \"#utility.yul\":25573:25578   */\n      jump(tag_518)\n        /* \"#utility.yul\":25544:25580   */\n    tag_520:\n        /* \"#utility.yul\":25640:25644   */\n      dup2\n        /* \"#utility.yul\":25688:25689   */\n      0x01\n        /* \"#utility.yul\":25683:25710   */\n      dup2\n      eq\n      tag_522\n      jumpi\n        /* \"#utility.yul\":25724:25725   */\n      0x02\n        /* \"#utility.yul\":25719:25910   */\n      dup2\n      eq\n      tag_523\n      jumpi\n        /* \"#utility.yul\":25633:25910   */\n      jump(tag_521)\n        /* \"#utility.yul\":25683:25710   */\n    tag_522:\n        /* \"#utility.yul\":25701:25702   */\n      0x01\n        /* \"#utility.yul\":25692:25702   */\n      swap2\n      pop\n        /* \"#utility.yul\":25703:25708   */\n      pop\n      jump(tag_518)\n        /* \"#utility.yul\":25719:25910   */\n    tag_523:\n        /* \"#utility.yul\":25764:25767   */\n      0xff\n        /* \"#utility.yul\":25754:25762   */\n      dup5\n        /* \"#utility.yul\":25751:25768   */\n      gt\n        /* \"#utility.yul\":25748:25791   */\n      iszero\n      tag_524\n      jumpi\n        /* \"#utility.yul\":25771:25789   */\n      tag_525\n      tag_259\n      jump\t// in\n    tag_525:\n        /* \"#utility.yul\":25748:25791   */\n    tag_524:\n        /* \"#utility.yul\":25820:25828   */\n      dup4\n        /* \"#utility.yul\":25817:25818   */\n      0x02\n        /* \"#utility.yul\":25813:25829   */\n      exp\n        /* \"#utility.yul\":25804:25829   */\n      swap2\n      pop\n        /* \"#utility.yul\":25855:25858   */\n      dup5\n        /* \"#utility.yul\":25848:25853   */\n      dup3\n        /* \"#utility.yul\":25845:25859   */\n      gt\n        /* \"#utility.yul\":25842:25882   */\n      iszero\n      tag_526\n      jumpi\n        /* \"#utility.yul\":25862:25880   */\n      tag_527\n      tag_259\n      jump\t// in\n    tag_527:\n        /* \"#utility.yul\":25842:25882   */\n    tag_526:\n        /* \"#utility.yul\":25895:25900   */\n      pop\n      jump(tag_518)\n        /* \"#utility.yul\":25633:25910   */\n    tag_521:\n      pop\n        /* \"#utility.yul\":26019:26021   */\n      0x20\n        /* \"#utility.yul\":26009:26017   */\n      dup4\n        /* \"#utility.yul\":26006:26022   */\n      lt\n        /* \"#utility.yul\":26000:26003   */\n      0x0133\n        /* \"#utility.yul\":25994:25998   */\n      dup4\n        /* \"#utility.yul\":25991:26004   */\n      lt\n        /* \"#utility.yul\":25987:26023   */\n      and\n        /* \"#utility.yul\":25969:25971   */\n      0x4e\n        /* \"#utility.yul\":25959:25967   */\n      dup5\n        /* \"#utility.yul\":25956:25972   */\n      lt\n        /* \"#utility.yul\":25951:25953   */\n      0x0b\n        /* \"#utility.yul\":25945:25949   */\n      dup5\n        /* \"#utility.yul\":25942:25954   */\n      lt\n        /* \"#utility.yul\":25938:25973   */\n      and\n        /* \"#utility.yul\":25922:26033   */\n      or\n        /* \"#utility.yul\":25919:26165   */\n      iszero\n      tag_528\n      jumpi\n        /* \"#utility.yul\":26075:26083   */\n      dup3\n        /* \"#utility.yul\":26069:26073   */\n      dup3\n        /* \"#utility.yul\":26065:26084   */\n      exp\n        /* \"#utility.yul\":26056:26084   */\n      swap1\n      pop\n        /* \"#utility.yul\":26110:26113   */\n      dup4\n        /* \"#utility.yul\":26103:26108   */\n      dup2\n        /* \"#utility.yul\":26100:26114   */\n      gt\n        /* \"#utility.yul\":26097:26137   */\n      iszero\n      tag_529\n      jumpi\n        /* \"#utility.yul\":26117:26135   */\n      tag_530\n      tag_259\n      jump\t// in\n    tag_530:\n        /* \"#utility.yul\":26097:26137   */\n    tag_529:\n        /* \"#utility.yul\":26150:26155   */\n      jump(tag_518)\n        /* \"#utility.yul\":25919:26165   */\n    tag_528:\n        /* \"#utility.yul\":26190:26232   */\n      tag_531\n        /* \"#utility.yul\":26228:26231   */\n      dup5\n        /* \"#utility.yul\":26218:26226   */\n      dup5\n        /* \"#utility.yul\":26212:26216   */\n      dup5\n        /* \"#utility.yul\":26209:26210   */\n      0x01\n        /* \"#utility.yul\":26190:26232   */\n      tag_279\n      jump\t// in\n    tag_531:\n        /* \"#utility.yul\":26175:26232   */\n      swap3\n      pop\n      swap1\n      pop\n        /* \"#utility.yul\":26264:26268   */\n      dup2\n        /* \"#utility.yul\":26259:26262   */\n      dup5\n        /* \"#utility.yul\":26255:26269   */\n      div\n        /* \"#utility.yul\":26248:26253   */\n      dup2\n        /* \"#utility.yul\":26245:26270   */\n      gt\n        /* \"#utility.yul\":26242:26293   */\n      iszero\n      tag_532\n      jumpi\n        /* \"#utility.yul\":26273:26291   */\n      tag_533\n      tag_259\n      jump\t// in\n    tag_533:\n        /* \"#utility.yul\":26242:26293   */\n    tag_532:\n        /* \"#utility.yul\":26322:26326   */\n      dup2\n        /* \"#utility.yul\":26315:26320   */\n      dup2\n        /* \"#utility.yul\":26311:26327   */\n      mul\n        /* \"#utility.yul\":26302:26327   */\n      swap1\n      pop\n        /* \"#utility.yul\":25260:26333   */\n    tag_518:\n      swap4\n      swap3\n      pop\n      pop\n      pop\n      jump\t// out\n        /* \"#utility.yul\":26339:26425   */\n    tag_281:\n        /* \"#utility.yul\":26374:26381   */\n      0x00\n        /* \"#utility.yul\":26414:26418   */\n      0xff\n        /* \"#utility.yul\":26407:26412   */\n      dup3\n        /* \"#utility.yul\":26403:26419   */\n      and\n        /* \"#utility.yul\":26392:26419   */\n      swap1\n      pop\n        /* \"#utility.yul\":26339:26425   */\n      swap2\n      swap1\n      pop\n      jump\t// out\n        /* \"#utility.yul\":26431:26712   */\n    tag_200:\n        /* \"#utility.yul\":26489:26494   */\n      0x00\n        /* \"#utility.yul\":26513:26536   */\n      tag_536\n        /* \"#utility.yul\":26531:26535   */\n      dup3\n        /* \"#utility.yul\":26513:26536   */\n      tag_234\n      jump\t// in\n    tag_536:\n        /* \"#utility.yul\":26505:26536   */\n      swap2\n      pop\n        /* \"#utility.yul\":26557:26582   */\n      tag_537\n        /* \"#utility.yul\":26573:26581   */\n      dup4\n        /* \"#utility.yul\":26557:26582   */\n      tag_281\n      jump\t// in\n    tag_537:\n        /* \"#utility.yul\":26545:26582   */\n      swap3\n      pop\n        /* \"#utility.yul\":26601:26705   */\n      tag_538\n        /* \"#utility.yul\":26638:26704   */\n      0xffffffffffffffffffffffffffffffffffffffffffffffffffffffffffffffff\n        /* \"#utility.yul\":26628:26636   */\n      dup5\n        /* \"#utility.yul\":26622:26626   */\n      dup5\n        /* \"#utility.yul\":26601:26705   */\n      tag_280\n      jump\t// in\n    tag_538:\n        /* \"#utility.yul\":26592:26705   */\n      swap1\n      pop\n        /* \"#utility.yul\":26431:26712   */\n      swap3\n      swap2\n      pop\n      pop\n      jump\t// out\n        /* \"#utility.yul\":26718:27128   */\n    tag_215:\n        /* \"#utility.yul\":26758:26765   */\n      0x00\n        /* \"#utility.yul\":26781:26801   */\n      tag_540\n        /* \"#utility.yul\":26799:26800   */\n      dup3\n        /* \"#utility.yul\":26781:26801   */\n      tag_234\n      jump\t// in\n    tag_540:\n        /* \"#utility.yul\":26776:26801   */\n      swap2\n      pop\n        /* \"#utility.yul\":26815:26835   */\n      tag_541\n        /* \"#utility.yul\":26833:26834   */\n      dup4\n        /* \"#utility.yul\":26815:26835   */\n      tag_234\n      jump\t// in\n    tag_541:\n        /* \"#utility.yul\":26810:26835   */\n      swap3\n      pop\n        /* \"#utility.yul\":26870:26871   */\n      dup3\n        /* \"#utility.yul\":26867:26868   */\n      dup3\n        /* \"#utility.yul\":26863:26872   */\n      mul\n        /* \"#utility.yul\":26892:26922   */\n      tag_542\n        /* \"#utility.yul\":26910:26921   */\n      dup2\n        /* \"#utility.yul\":26892:26922   */\n      tag_234\n      jump\t// in\n    tag_542:\n        /* \"#utility.yul\":26881:26922   */\n      swap2\n      pop\n        /* \"#utility.yul\":27071:27072   */\n      dup3\n        /* \"#utility.yul\":27062:27069   */\n      dup3\n        /* \"#utility.yul\":27058:27073   */\n      div\n        /* \"#utility.yul\":27055:27056   */\n      dup5\n        /* \"#utility.yul\":27052:27074   */\n      eq\n        /* \"#utility.yul\":27032:27033   */\n      dup4\n        /* \"#utility.yul\":27025:27034   */\n      iszero\n        /* \"#utility.yul\":27005:27088   */\n      or\n        /* \"#utility.yul\":26982:27121   */\n      tag_543\n      jumpi\n        /* \"#utility.yul\":27101:27119   */\n      tag_544\n      tag_259\n      jump\t// in\n    tag_544:\n        /* \"#utility.yul\":26982:27121   */\n    tag_543:\n        /* \"#utility.yul\":26766:27128   */\n      pop\n        /* \"#utility.yul\":26718:27128   */\n      swap3\n      swap2\n      pop\n      pop\n      jump\t// out\n        /* \"#utility.yul\":27134:27314   */\n    tag_282:\n        /* \"#utility.yul\":27182:27259   */\n      0x4e487b7100000000000000000000000000000000000000000000000000000000\n        /* \"#utility.yul\":27179:27180   */\n      0x00\n        /* \"#utility.yul\":27172:27260   */\n      mstore\n        /* \"#utility.yul\":27279:27283   */\n      0x12\n        /* \"#utility.yul\":27276:27277   */\n      0x04\n        /* \"#utility.yul\":27269:27284   */\n      mstore\n        /* \"#utility.yul\":27303:27307   */\n      0x24\n        /* \"#utility.yul\":27300:27301   */\n      0x00\n        /* \"#utility.yul\":27293:27308   */\n      revert\n        /* \"#utility.yul\":27320:27505   */\n    tag_217:\n        /* \"#utility.yul\":27360:27361   */\n      0x00\n        /* \"#utility.yul\":27377:27397   */\n      tag_547\n        /* \"#utility.yul\":27395:27396   */\n      dup3\n        /* \"#utility.yul\":27377:27397   */\n      tag_234\n      jump\t// in\n    tag_547:\n        /* \"#utility.yul\":27372:27397   */\n      swap2\n      pop\n        /* \"#utility.yul\":27411:27431   */\n      tag_548\n        /* \"#utility.yul\":27429:27430   */\n      dup4\n        /* \"#utility.yul\":27411:27431   */\n      tag_234\n      jump\t// in\n    tag_548:\n        /* \"#utility.yul\":27406:27431   */\n      swap3\n      pop\n        /* \"#utility.yul\":27450:27451   */\n      dup3\n        /* \"#utility.yul\":27440:27475   */\n      tag_549\n      jumpi\n        /* \"#utility.yul\":27455:27473   */\n      tag_550\n      tag_282\n      jump\t// in\n    tag_550:\n        /* \"#utility.yul\":27440:27475   */\n    tag_549:\n        /* \"#utility.yul\":27497:27498   */\n      dup3\n        /* \"#utility.yul\":27494:27495   */\n      dup3\n        /* \"#utility.yul\":27490:27499   */\n      div\n        /* \"#utility.yul\":27485:27499   */\n      swap1\n      pop\n        /* \"#utility.yul\":27320:27505   */\n      swap3\n      swap2\n      pop\n      pop\n      jump\t// out\n\n    auxdata: 0xa2646970667358221220c4db5dab514201cec96efb7ae5fabaf4ba8ec3bb3694808718accac802cf803d64736f6c63430008120033\n}\n",
				"bytecode": {
					"linkReferences": {},
					"object": "60806040523480156200001157600080fd5b5060405162002e6a38038062002e6a8339818101604052810190620000379190620000fc565b806000806101000a81548173ffffffffffffffffffffffffffffffffffffffff021916908373ffffffffffffffffffffffffffffffffffffffff160217905550506200012e565b600080fd5b600073ffffffffffffffffffffffffffffffffffffffff82169050919050565b6000620000b08262000083565b9050919050565b6000620000c482620000a3565b9050919050565b620000d681620000b7565b8114620000e257600080fd5b50565b600081519050620000f681620000cb565b92915050565b6000602082840312156200011557620001146200007e565b5b60006200012584828501620000e5565b91505092915050565b612d2c806200013e6000396000f3fe6080604052600436106100915760003560e01c80633f936ff5116100595780633f936ff5146101a85780636c173d38146101d35780637a3819cb1461021057806388b53ced1461024f578063dd7d79291461026b57610091565b806317444626146100965780631c69b464146100bf5780631f71f89f146100ea5780632f14670c1461012e578063380eaaf91461016b575b600080fd5b3480156100a257600080fd5b506100bd60048036038101906100b89190611f33565b610294565b005b3480156100cb57600080fd5b506100d4610569565b6040516100e19190612159565b60405180910390f35b3480156100f657600080fd5b50610111600480360381019061010c91906121a7565b610594565b60405161012598979695949392919061221f565b60405180910390f35b34801561013a57600080fd5b506101556004803603810190610150919061229d565b610665565b60405161016291906122dd565b60405180910390f35b34801561017757600080fd5b50610192600480360381019061018d91906122f8565b6106b3565b60405161019f9190612159565b60405180910390f35b3480156101b457600080fd5b506101bd610a29565b6040516101ca9190612338565b60405180910390f35b3480156101df57600080fd5b506101fa60048036038101906101f591906121a7565b610a47565b60405161020791906122dd565b60405180910390f35b34801561021c57600080fd5b5061023760048036038101906102329190612353565b610b1a565b604051610246939291906123a6565b60405180910390f35b610269600480360381019061026491906123dd565b610ba6565b005b34801561027757600080fd5b50610292600480360381019061028d9190612430565b610e55565b005b60008060149054906101000a90046bffffffffffffffffffffffff169050604051806101000160405280826bffffffffffffffffffffffff1681526020018573ffffffffffffffffffffffffffffffffffffffff1681526020014265ffffffffffff1681526020014265ffffffffffff1681526020018473ffffffffffffffffffffffffffffffffffffffff168152602001838152602001600081526020016000151581525060016000836bffffffffffffffffffffffff166bffffffffffffffffffffffff16815260200190815260200160002060008201518160000160006101000a8154816bffffffffffffffffffffffff02191690836bffffffffffffffffffffffff160217905550602082015181600001600c6101000a81548173ffffffffffffffffffffffffffffffffffffffff021916908373ffffffffffffffffffffffffffffffffffffffff16021790555060408201518160010160006101000a81548165ffffffffffff021916908365ffffffffffff16021790555060608201518160010160066101000a81548165ffffffffffff021916908365ffffffffffff160217905550608082015181600101600c6101000a81548173ffffffffffffffffffffffffffffffffffffffff021916908373ffffffffffffffffffffffffffffffffffffffff16021790555060a0820151816002015560c0820151816003015560e08201518160040160006101000a81548160ff021916908315150217905550905050600082826bffffffffffffffffffffffff167f1e216cc18d3e93f7c7b9a7b3a038093bc655d3d5cbfbb504d67d4376bd02d13f87876000426040516105039493929190612497565b60405180910390a46001600060148282829054906101000a90046bffffffffffffffffffffffff16610535919061250b565b92506101000a8154816bffffffffffffffffffffffff02191690836bffffffffffffffffffffffff16021790555050505050565b606061058f60008060149054906101000a90046bffffffffffffffffffffffff166106b3565b905090565b60016020528060005260406000206000915090508060000160009054906101000a90046bffffffffffffffffffffffff169080600001600c9054906101000a900473ffffffffffffffffffffffffffffffffffffffff16908060010160009054906101000a900465ffffffffffff16908060010160069054906101000a900465ffffffffffff169080600101600c9054906101000a900473ffffffffffffffffffffffffffffffffffffffff16908060020154908060030154908060040160009054906101000a900460ff16905088565b6002602052816000526040600020818154811061068157600080fd5b906000526020600020016000915091509054906101000a900473ffffffffffffffffffffffffffffffffffffffff1681565b6060600060149054906101000a90046bffffffffffffffffffffffff166bffffffffffffffffffffffff16826bffffffffffffffffffffffff16111561072e576040517f08c379a0000000000000000000000000000000000000000000000000000000008152600401610725906125a8565b60405180910390fd5b816bffffffffffffffffffffffff16836bffffffffffffffffffffffff16111561078d576040517f08c379a000000000000000000000000000000000000000000000000000000000815260040161078490612614565b60405180910390fd5b6000838361079b9190612634565b6bffffffffffffffffffffffff1667ffffffffffffffff8111156107c2576107c1612674565b5b6040519080825280602002602001820160405280156107fb57816020015b6107e8611e09565b8152602001906001900390816107e05790505b50905060008490505b836bffffffffffffffffffffffff16816bffffffffffffffffffffffff161015610a1e5760016000826bffffffffffffffffffffffff166bffffffffffffffffffffffff168152602001908152602001600020604051806101000160405290816000820160009054906101000a90046bffffffffffffffffffffffff166bffffffffffffffffffffffff166bffffffffffffffffffffffff16815260200160008201600c9054906101000a900473ffffffffffffffffffffffffffffffffffffffff1673ffffffffffffffffffffffffffffffffffffffff1673ffffffffffffffffffffffffffffffffffffffff1681526020016001820160009054906101000a900465ffffffffffff1665ffffffffffff1665ffffffffffff1681526020016001820160069054906101000a900465ffffffffffff1665ffffffffffff1665ffffffffffff16815260200160018201600c9054906101000a900473ffffffffffffffffffffffffffffffffffffffff1673ffffffffffffffffffffffffffffffffffffffff1673ffffffffffffffffffffffffffffffffffffffff16815260200160028201548152602001600382015481526020016004820160009054906101000a900460ff1615151515815250508286836109e19190612634565b6bffffffffffffffffffffffff1681518110610a00576109ff6126a3565b5b60200260200101819052508080610a16906126d2565b915050610804565b508091505092915050565b600060149054906101000a90046bffffffffffffffffffffffff1681565b60008060149054906101000a90046bffffffffffffffffffffffff166bffffffffffffffffffffffff16826bffffffffffffffffffffffff1610610ac0576040517f08c379a0000000000000000000000000000000000000000000000000000000008152600401610ab790612752565b60405180910390fd5b60016000836bffffffffffffffffffffffff166bffffffffffffffffffffffff168152602001908152602001600020600101600c9054906101000a900473ffffffffffffffffffffffffffffffffffffffff169050919050565b60036020528260005260406000206020528160005260406000208181548110610b4257600080fd5b906000526020600020906002020160009250925050508060000160009054906101000a900473ffffffffffffffffffffffffffffffffffffffff16908060000160149054906101000a90046bffffffffffffffffffffffff16908060010154905083565b610bb18383836112e7565b610bb9611843565b60005b600060149054906101000a90046bffffffffffffffffffffffff166bffffffffffffffffffffffff16816bffffffffffffffffffffffff161015610e4f5760016000826bffffffffffffffffffffffff166bffffffffffffffffffffffff1681526020019081526020016000206003015460016000836bffffffffffffffffffffffff166bffffffffffffffffffffffff168152602001908152602001600020600201541015610e3c5760008054906101000a900473ffffffffffffffffffffffffffffffffffffffff1673ffffffffffffffffffffffffffffffffffffffff1663a9059cbb610cab83610a47565b60016000856bffffffffffffffffffffffff166bffffffffffffffffffffffff168152602001908152602001600020600301546040518363ffffffff1660e01b8152600401610cfb929190612772565b6020604051808303816000875af1158015610d1a573d6000803e3d6000fd5b505050506040513d601f19601f82011682018060405250810190610d3e91906127c7565b50806bffffffffffffffffffffffff167fcd79837f8e8f598de24ef07ea60108df97918f95cfc31d1d61ff9fa09c24035260016000846bffffffffffffffffffffffff166bffffffffffffffffffffffff1681526020019081526020016000206003015442604051610db19291906127f4565b60405180910390a26001806000836bffffffffffffffffffffffff166bffffffffffffffffffffffff16815260200190815260200160002060040160006101000a81548160ff021916908315150217905550600060016000836bffffffffffffffffffffffff166bffffffffffffffffffffffff168152602001908152602001600020600301819055505b8080610e47906126d2565b915050610bbc565b50505050565b600060016000866bffffffffffffffffffffffff166bffffffffffffffffffffffff168152602001908152602001600020604051806101000160405290816000820160009054906101000a90046bffffffffffffffffffffffff166bffffffffffffffffffffffff166bffffffffffffffffffffffff16815260200160008201600c9054906101000a900473ffffffffffffffffffffffffffffffffffffffff1673ffffffffffffffffffffffffffffffffffffffff1673ffffffffffffffffffffffffffffffffffffffff1681526020016001820160009054906101000a900465ffffffffffff1665ffffffffffff1665ffffffffffff1681526020016001820160069054906101000a900465ffffffffffff1665ffffffffffff1665ffffffffffff16815260200160018201600c9054906101000a900473ffffffffffffffffffffffffffffffffffffffff1673ffffffffffffffffffffffffffffffffffffffff1673ffffffffffffffffffffffffffffffffffffffff16815260200160028201548152602001600382015481526020016004820160009054906101000a900460ff1615151515815250509050806020015173ffffffffffffffffffffffffffffffffffffffff163373ffffffffffffffffffffffffffffffffffffffff1614611077576040517f08c379a000000000000000000000000000000000000000000000000000000000815260040161106e90612869565b60405180910390fd5b604051806101000160405280866bffffffffffffffffffffffff1681526020018573ffffffffffffffffffffffffffffffffffffffff168152602001826040015165ffffffffffff1681526020014265ffffffffffff1681526020018473ffffffffffffffffffffffffffffffffffffffff1681526020018381526020018260c0015181526020018260e00151151581525060016000876bffffffffffffffffffffffff166bffffffffffffffffffffffff16815260200190815260200160002060008201518160000160006101000a8154816bffffffffffffffffffffffff02191690836bffffffffffffffffffffffff160217905550602082015181600001600c6101000a81548173ffffffffffffffffffffffffffffffffffffffff021916908373ffffffffffffffffffffffffffffffffffffffff16021790555060408201518160010160006101000a81548165ffffffffffff021916908365ffffffffffff16021790555060608201518160010160066101000a81548165ffffffffffff021916908365ffffffffffff160217905550608082015181600101600c6101000a81548173ffffffffffffffffffffffffffffffffffffffff021916908373ffffffffffffffffffffffffffffffffffffffff16021790555060a0820151816002015560c0820151816003015560e08201518160040160006101000a81548160ff0219169083151502179055509050508060c0015182866bffffffffffffffffffffffff167f603e97a48f8cadd1e9020bf96470c32853c5d9d8ed30f7cbe961f12ad2a45fa087878660e00151426040516112d89493929190612497565b60405180910390a45050505050565b8060008054906101000a900473ffffffffffffffffffffffffffffffffffffffff1673ffffffffffffffffffffffffffffffffffffffff166370a08231856040518263ffffffff1660e01b815260040161134191906122dd565b602060405180830381865afa15801561135e573d6000803e3d6000fd5b505050506040513d601f19601f82011682018060405250810190611382919061289e565b116113c2576040517f08c379a00000000000000000000000000000000000000000000000000000000081526004016113b99061293d565b60405180910390fd5b8060008054906101000a900473ffffffffffffffffffffffffffffffffffffffff1673ffffffffffffffffffffffffffffffffffffffff1663dd62ed3e85306040518363ffffffff1660e01b815260040161141e92919061295d565b602060405180830381865afa15801561143b573d6000803e3d6000fd5b505050506040513d601f19601f8201168201806040525081019061145f919061289e565b1161149f576040517f08c379a0000000000000000000000000000000000000000000000000000000008152600401611496906129d2565b60405180910390fd5b60008054906101000a900473ffffffffffffffffffffffffffffffffffffffff1673ffffffffffffffffffffffffffffffffffffffff166323b872dd8430846040518463ffffffff1660e01b81526004016114fc939291906129f2565b6020604051808303816000875af115801561151b573d6000803e3d6000fd5b505050506040513d601f19601f8201168201806040525081019061153f91906127c7565b61157e576040517f08c379a000000000000000000000000000000000000000000000000000000000815260040161157590612a75565b60405180910390fd5b600060405180606001604052808573ffffffffffffffffffffffffffffffffffffffff168152602001846bffffffffffffffffffffffff16815260200183815250905060036000846bffffffffffffffffffffffff166bffffffffffffffffffffffff16815260200190815260200160002060008573ffffffffffffffffffffffffffffffffffffffff1673ffffffffffffffffffffffffffffffffffffffff16815260200190815260200160002081908060018154018082558091505060019003906000526020600020906002020160009091909190915060008201518160000160006101000a81548173ffffffffffffffffffffffffffffffffffffffff021916908373ffffffffffffffffffffffffffffffffffffffff16021790555060208201518160000160146101000a8154816bffffffffffffffffffffffff02191690836bffffffffffffffffffffffff160217905550604082015181600101555050600060026000856bffffffffffffffffffffffff166bffffffffffffffffffffffff168152602001908152602001600020905060006001905060005b8280549050816bffffffffffffffffffffffff1610156117d1578673ffffffffffffffffffffffffffffffffffffffff1683826bffffffffffffffffffffffff168154811061176f5761176e6126a3565b5b9060005260206000200160009054906101000a900473ffffffffffffffffffffffffffffffffffffffff1673ffffffffffffffffffffffffffffffffffffffff16036117be57600091506117d1565b80806117c9906126d2565b91505061171d565b50801561183b5781869080600181540180825580915050600190039060005260206000200160009091909190916101000a81548173ffffffffffffffffffffffffffffffffffffffff021916908373ffffffffffffffffffffffffffffffffffffffff1602179055505b505050505050565b60008060149054906101000a90046bffffffffffffffffffffffff166bffffffffffffffffffffffff1667ffffffffffffffff81111561188657611885612674565b5b6040519080825280602002602001820160405280156118b45781602001602082028036833780820191505090505b509050600080600090505b600060149054906101000a90046bffffffffffffffffffffffff166bffffffffffffffffffffffff16816bffffffffffffffffffffffff161015611c44576001151560016000836bffffffffffffffffffffffff166bffffffffffffffffffffffff16815260200190815260200160002060040160009054906101000a900460ff1615150315611c315760008060026000846bffffffffffffffffffffffff166bffffffffffffffffffffffff1681526020019081526020016000208054806020026020016040519081016040528092919081815260200182805480156119fb57602002820191906000526020600020905b8160009054906101000a900473ffffffffffffffffffffffffffffffffffffffff1673ffffffffffffffffffffffffffffffffffffffff16815260200190600101908083116119b1575b5050505050905060005b8151816bffffffffffffffffffffffff161015611be257600080600090505b60036000876bffffffffffffffffffffffff166bffffffffffffffffffffffff168152602001908152602001600020600085856bffffffffffffffffffffffff1681518110611a7657611a756126a3565b5b602002602001015173ffffffffffffffffffffffffffffffffffffffff1673ffffffffffffffffffffffffffffffffffffffff16815260200190815260200160002080549050816bffffffffffffffffffffffff161015611bb75760036000876bffffffffffffffffffffffff166bffffffffffffffffffffffff168152602001908152602001600020600085856bffffffffffffffffffffffff1681518110611b2357611b226126a3565b5b602002602001015173ffffffffffffffffffffffffffffffffffffffff1673ffffffffffffffffffffffffffffffffffffffff168152602001908152602001600020816bffffffffffffffffffffffff1681548110611b8557611b846126a3565b5b90600052602060002090600202016001015482611ba29190612a95565b91508080611baf906126d2565b915050611a24565b50611bc181611dac565b84611bcc9190612a95565b9350508080611bda906126d2565b915050611a05565b50600282611bf09190612c09565b91508185846bffffffffffffffffffffffff1681518110611c1457611c136126a3565b5b6020026020010181815250508184611c2c9190612a95565b935050505b8080611c3c906126d2565b9150506118bf565b5060005b600060149054906101000a90046bffffffffffffffffffffffff166bffffffffffffffffffffffff16816bffffffffffffffffffffffff161015611da7578160008054906101000a900473ffffffffffffffffffffffffffffffffffffffff1673ffffffffffffffffffffffffffffffffffffffff166370a08231306040518263ffffffff1660e01b8152600401611ce091906122dd565b602060405180830381865afa158015611cfd573d6000803e3d6000fd5b505050506040513d601f19601f82011682018060405250810190611d21919061289e565b84836bffffffffffffffffffffffff1681518110611d4257611d416126a3565b5b6020026020010151611d549190612c54565b611d5e9190612cc5565b60016000836bffffffffffffffffffffffff166bffffffffffffffffffffffff168152602001908152602001600020600301819055508080611d9f906126d2565b915050611c48565b505050565b6000806002600184611dbe9190612a95565b611dc89190612cc5565b90508291505b81811015611e03578091506002818285611de89190612cc5565b611df29190612a95565b611dfc9190612cc5565b9050611dce565b50919050565b60405180610100016040528060006bffffffffffffffffffffffff168152602001600073ffffffffffffffffffffffffffffffffffffffff168152602001600065ffffffffffff168152602001600065ffffffffffff168152602001600073ffffffffffffffffffffffffffffffffffffffff16815260200160008152602001600081526020016000151581525090565b600080fd5b600073ffffffffffffffffffffffffffffffffffffffff82169050919050565b6000611eca82611e9f565b9050919050565b611eda81611ebf565b8114611ee557600080fd5b50565b600081359050611ef781611ed1565b92915050565b6000819050919050565b611f1081611efd565b8114611f1b57600080fd5b50565b600081359050611f2d81611f07565b92915050565b600080600060608486031215611f4c57611f4b611e9a565b5b6000611f5a86828701611ee8565b9350506020611f6b86828701611ee8565b9250506040611f7c86828701611f1e565b9150509250925092565b600081519050919050565b600082825260208201905092915050565b6000819050602082019050919050565b60006bffffffffffffffffffffffff82169050919050565b611fd381611fb2565b82525050565b611fe281611ebf565b82525050565b600065ffffffffffff82169050919050565b61200381611fe8565b82525050565b61201281611efd565b82525050565b60008115159050919050565b61202d81612018565b82525050565b6101008201600082015161204a6000850182611fca565b50602082015161205d6020850182611fd9565b5060408201516120706040850182611ffa565b5060608201516120836060850182611ffa565b5060808201516120966080850182611fd9565b5060a08201516120a960a0850182612009565b5060c08201516120bc60c0850182612009565b5060e08201516120cf60e0850182612024565b50505050565b60006120e18383612033565b6101008301905092915050565b6000602082019050919050565b600061210682611f86565b6121108185611f91565b935061211b83611fa2565b8060005b8381101561214c57815161213388826120d5565b975061213e836120ee565b92505060018101905061211f565b5085935050505092915050565b6000602082019050818103600083015261217381846120fb565b905092915050565b61218481611fb2565b811461218f57600080fd5b50565b6000813590506121a18161217b565b92915050565b6000602082840312156121bd576121bc611e9a565b5b60006121cb84828501612192565b91505092915050565b6121dd81611fb2565b82525050565b6121ec81611ebf565b82525050565b6121fb81611fe8565b82525050565b61220a81611efd565b82525050565b61221981612018565b82525050565b600061010082019050612235600083018b6121d4565b612242602083018a6121e3565b61224f60408301896121f2565b61225c60608301886121f2565b61226960808301876121e3565b61227660a0830186612201565b61228360c0830185612201565b61229060e0830184612210565b9998505050505050505050565b600080604083850312156122b4576122b3611e9a565b5b60006122c285828601612192565b92505060206122d385828601611f1e565b9150509250929050565b60006020820190506122f260008301846121e3565b92915050565b6000806040838503121561230f5761230e611e9a565b5b600061231d85828601612192565b925050602061232e85828601612192565b9150509250929050565b600060208201905061234d60008301846121d4565b92915050565b60008060006060848603121561236c5761236b611e9a565b5b600061237a86828701612192565b935050602061238b86828701611ee8565b925050604061239c86828701611f1e565b9150509250925092565b60006060820190506123bb60008301866121e3565b6123c860208301856121d4565b6123d56040830184612201565b949350505050565b6000806000606084860312156123f6576123f5611e9a565b5b600061240486828701611ee8565b935050602061241586828701612192565b925050604061242686828701611f1e565b9150509250925092565b6000806000806080858703121561244a57612449611e9a565b5b600061245887828801612192565b945050602061246987828801611ee8565b935050604061247a87828801611ee8565b925050606061248b87828801611f1e565b91505092959194509250565b60006080820190506124ac60008301876121e3565b6124b960208301866121e3565b6124c66040830185612210565b6124d36060830184612201565b95945050505050565b7f4e487b7100000000000000000000000000000000000000000000000000000000600052601160045260246000fd5b600061251682611fb2565b915061252183611fb2565b925082820190506bffffffffffffffffffffffff811115612545576125446124dc565b5b92915050565b600082825260208201905092915050565b7f4d757374206265205f656e644964203c3d2066756e64436f756e740000000000600082015250565b6000612592601b8361254b565b915061259d8261255c565b602082019050919050565b600060208201905081810360008301526125c181612585565b9050919050565b7f4d757374206265205f73746172744964203c3d205f656e644964000000000000600082015250565b60006125fe601a8361254b565b9150612609826125c8565b602082019050919050565b6000602082019050818103600083015261262d816125f1565b9050919050565b600061263f82611fb2565b915061264a83611fb2565b925082820390506bffffffffffffffffffffffff81111561266e5761266d6124dc565b5b92915050565b7f4e487b7100000000000000000000000000000000000000000000000000000000600052604160045260246000fd5b7f4e487b7100000000000000000000000000000000000000000000000000000000600052603260045260246000fd5b60006126dd82611fb2565b91506bffffffffffffffffffffffff82036126fb576126fa6124dc565b5b600182019050919050565b7f4d757374206265205f6964203c2066756e64436f756e74000000000000000000600082015250565b600061273c60178361254b565b915061274782612706565b602082019050919050565b6000602082019050818103600083015261276b8161272f565b9050919050565b600060408201905061278760008301856121e3565b6127946020830184612201565b9392505050565b6127a481612018565b81146127af57600080fd5b50565b6000815190506127c18161279b565b92915050565b6000602082840312156127dd576127dc611e9a565b5b60006127eb848285016127b2565b91505092915050565b60006040820190506128096000830185612201565b6128166020830184612201565b9392505050565b7f46756e6420557064617465206e6f7420617574686f72697a6564000000000000600082015250565b6000612853601a8361254b565b915061285e8261281d565b602082019050919050565b6000602082019050818103600083015261288281612846565b9050919050565b60008151905061289881611f07565b92915050565b6000602082840312156128b4576128b3611e9a565b5b60006128c284828501612889565b91505092915050565b7f746f6b656e20616d6f756e74206f662075736572206e6f74207375666669636960008201527f656e740000000000000000000000000000000000000000000000000000000000602082015250565b600061292760238361254b565b9150612932826128cb565b604082019050919050565b600060208201905081810360008301526129568161291a565b9050919050565b600060408201905061297260008301856121e3565b61297f60208301846121e3565b9392505050565b7f746f6b656e20616c6c6f77616e63652073686f72746167650000000000000000600082015250565b60006129bc60188361254b565b91506129c782612986565b602082019050919050565b600060208201905081810360008301526129eb816129af565b9050919050565b6000606082019050612a0760008301866121e3565b612a1460208301856121e3565b612a216040830184612201565b949350505050565b7f746f6b656e207472616e73666572206661696c65640000000000000000000000600082015250565b6000612a5f60158361254b565b9150612a6a82612a29565b602082019050919050565b60006020820190508181036000830152612a8e81612a52565b9050919050565b6000612aa082611efd565b9150612aab83611efd565b9250828201905080821115612ac357612ac26124dc565b5b92915050565b60008160011c9050919050565b6000808291508390505b6001851115612b2057808604811115612afc57612afb6124dc565b5b6001851615612b0b5780820291505b8081029050612b1985612ac9565b9450612ae0565b94509492505050565b600082612b395760019050612bf5565b81612b475760009050612bf5565b8160018114612b5d5760028114612b6757612b96565b6001915050612bf5565b60ff841115612b7957612b786124dc565b5b8360020a915084821115612b9057612b8f6124dc565b5b50612bf5565b5060208310610133831016604e8410600b8410161715612bcb5782820a905083811115612bc657612bc56124dc565b5b612bf5565b612bd88484846001612ad6565b92509050818404811115612bef57612bee6124dc565b5b81810290505b9392505050565b600060ff82169050919050565b6000612c1482611efd565b9150612c1f83612bfc565b9250612c4c7fffffffffffffffffffffffffffffffffffffffffffffffffffffffffffffffff8484612b29565b905092915050565b6000612c5f82611efd565b9150612c6a83611efd565b9250828202612c7881611efd565b91508282048414831517612c8f57612c8e6124dc565b5b5092915050565b7f4e487b7100000000000000000000000000000000000000000000000000000000600052601260045260246000fd5b6000612cd082611efd565b9150612cdb83611efd565b925082612ceb57612cea612c96565b5b82820490509291505056fea2646970667358221220c4db5dab514201cec96efb7ae5fabaf4ba8ec3bb3694808718accac802cf803d64736f6c63430008120033",
					"opcodes": "PUSH1 0x80 PUSH1 0x40 MSTORE CALLVALUE DUP1 ISZERO PUSH3 0x11 JUMPI PUSH1 0x0 DUP1 REVERT JUMPDEST POP PUSH1 0x40 MLOAD PUSH3 0x2E6A CODESIZE SUB DUP1 PUSH3 0x2E6A DUP4 CODECOPY DUP2 DUP2 ADD PUSH1 0x40 MSTORE DUP2 ADD SWAP1 PUSH3 0x37 SWAP2 SWAP1 PUSH3 0xFC JUMP JUMPDEST DUP1 PUSH1 0x0 DUP1 PUSH2 0x100 EXP DUP2 SLOAD DUP2 PUSH20 0xFFFFFFFFFFFFFFFFFFFFFFFFFFFFFFFFFFFFFFFF MUL NOT AND SWAP1 DUP4 PUSH20 0xFFFFFFFFFFFFFFFFFFFFFFFFFFFFFFFFFFFFFFFF AND MUL OR SWAP1 SSTORE POP POP PUSH3 0x12E JUMP JUMPDEST PUSH1 0x0 DUP1 REVERT JUMPDEST PUSH1 0x0 PUSH20 0xFFFFFFFFFFFFFFFFFFFFFFFFFFFFFFFFFFFFFFFF DUP3 AND SWAP1 POP SWAP2 SWAP1 POP JUMP JUMPDEST PUSH1 0x0 PUSH3 0xB0 DUP3 PUSH3 0x83 JUMP JUMPDEST SWAP1 POP SWAP2 SWAP1 POP JUMP JUMPDEST PUSH1 0x0 PUSH3 0xC4 DUP3 PUSH3 0xA3 JUMP JUMPDEST SWAP1 POP SWAP2 SWAP1 POP JUMP JUMPDEST PUSH3 0xD6 DUP2 PUSH3 0xB7 JUMP JUMPDEST DUP2 EQ PUSH3 0xE2 JUMPI PUSH1 0x0 DUP1 REVERT JUMPDEST POP JUMP JUMPDEST PUSH1 0x0 DUP2 MLOAD SWAP1 POP PUSH3 0xF6 DUP2 PUSH3 0xCB JUMP JUMPDEST SWAP3 SWAP2 POP POP JUMP JUMPDEST PUSH1 0x0 PUSH1 0x20 DUP3 DUP5 SUB SLT ISZERO PUSH3 0x115 JUMPI PUSH3 0x114 PUSH3 0x7E JUMP JUMPDEST JUMPDEST PUSH1 0x0 PUSH3 0x125 DUP5 DUP3 DUP6 ADD PUSH3 0xE5 JUMP JUMPDEST SWAP2 POP POP SWAP3 SWAP2 POP POP JUMP JUMPDEST PUSH2 0x2D2C DUP1 PUSH3 0x13E PUSH1 0x0 CODECOPY PUSH1 0x0 RETURN INVALID PUSH1 0x80 PUSH1 0x40 MSTORE PUSH1 0x4 CALLDATASIZE LT PUSH2 0x91 JUMPI PUSH1 0x0 CALLDATALOAD PUSH1 0xE0 SHR DUP1 PUSH4 0x3F936FF5 GT PUSH2 0x59 JUMPI DUP1 PUSH4 0x3F936FF5 EQ PUSH2 0x1A8 JUMPI DUP1 PUSH4 0x6C173D38 EQ PUSH2 0x1D3 JUMPI DUP1 PUSH4 0x7A3819CB EQ PUSH2 0x210 JUMPI DUP1 PUSH4 0x88B53CED EQ PUSH2 0x24F JUMPI DUP1 PUSH4 0xDD7D7929 EQ PUSH2 0x26B JUMPI PUSH2 0x91 JUMP JUMPDEST DUP1 PUSH4 0x17444626 EQ PUSH2 0x96 JUMPI DUP1 PUSH4 0x1C69B464 EQ PUSH2 0xBF JUMPI DUP1 PUSH4 0x1F71F89F EQ PUSH2 0xEA JUMPI DUP1 PUSH4 0x2F14670C EQ PUSH2 0x12E JUMPI DUP1 PUSH4 0x380EAAF9 EQ PUSH2 0x16B JUMPI JUMPDEST PUSH1 0x0 DUP1 REVERT JUMPDEST CALLVALUE DUP1 ISZERO PUSH2 0xA2 JUMPI PUSH1 0x0 DUP1 REVERT JUMPDEST POP PUSH2 0xBD PUSH1 0x4 DUP1 CALLDATASIZE SUB DUP2 ADD SWAP1 PUSH2 0xB8 SWAP2 SWAP1 PUSH2 0x1F33 JUMP JUMPDEST PUSH2 0x294 JUMP JUMPDEST STOP JUMPDEST CALLVALUE DUP1 ISZERO PUSH2 0xCB JUMPI PUSH1 0x0 DUP1 REVERT JUMPDEST POP PUSH2 0xD4 PUSH2 0x569 JUMP JUMPDEST PUSH1 0x40 MLOAD PUSH2 0xE1 SWAP2 SWAP1 PUSH2 0x2159 JUMP JUMPDEST PUSH1 0x40 MLOAD DUP1 SWAP2 SUB SWAP1 RETURN JUMPDEST CALLVALUE DUP1 ISZERO PUSH2 0xF6 JUMPI PUSH1 0x0 DUP1 REVERT JUMPDEST POP PUSH2 0x111 PUSH1 0x4 DUP1 CALLDATASIZE SUB DUP2 ADD SWAP1 PUSH2 0x10C SWAP2 SWAP1 PUSH2 0x21A7 JUMP JUMPDEST PUSH2 0x594 JUMP JUMPDEST PUSH1 0x40 MLOAD PUSH2 0x125 SWAP9 SWAP8 SWAP7 SWAP6 SWAP5 SWAP4 SWAP3 SWAP2 SWAP1 PUSH2 0x221F JUMP JUMPDEST PUSH1 0x40 MLOAD DUP1 SWAP2 SUB SWAP1 RETURN JUMPDEST CALLVALUE DUP1 ISZERO PUSH2 0x13A JUMPI PUSH1 0x0 DUP1 REVERT JUMPDEST POP PUSH2 0x155 PUSH1 0x4 DUP1 CALLDATASIZE SUB DUP2 ADD SWAP1 PUSH2 0x150 SWAP2 SWAP1 PUSH2 0x229D JUMP JUMPDEST PUSH2 0x665 JUMP JUMPDEST PUSH1 0x40 MLOAD PUSH2 0x162 SWAP2 SWAP1 PUSH2 0x22DD JUMP JUMPDEST PUSH1 0x40 MLOAD DUP1 SWAP2 SUB SWAP1 RETURN JUMPDEST CALLVALUE DUP1 ISZERO PUSH2 0x177 JUMPI PUSH1 0x0 DUP1 REVERT JUMPDEST POP PUSH2 0x192 PUSH1 0x4 DUP1 CALLDATASIZE SUB DUP2 ADD SWAP1 PUSH2 0x18D SWAP2 SWAP1 PUSH2 0x22F8 JUMP JUMPDEST PUSH2 0x6B3 JUMP JUMPDEST PUSH1 0x40 MLOAD PUSH2 0x19F SWAP2 SWAP1 PUSH2 0x2159 JUMP JUMPDEST PUSH1 0x40 MLOAD DUP1 SWAP2 SUB SWAP1 RETURN JUMPDEST CALLVALUE DUP1 ISZERO PUSH2 0x1B4 JUMPI PUSH1 0x0 DUP1 REVERT JUMPDEST POP PUSH2 0x1BD PUSH2 0xA29 JUMP JUMPDEST PUSH1 0x40 MLOAD PUSH2 0x1CA SWAP2 SWAP1 PUSH2 0x2338 JUMP JUMPDEST PUSH1 0x40 MLOAD DUP1 SWAP2 SUB SWAP1 RETURN JUMPDEST CALLVALUE DUP1 ISZERO PUSH2 0x1DF JUMPI PUSH1 0x0 DUP1 REVERT JUMPDEST POP PUSH2 0x1FA PUSH1 0x4 DUP1 CALLDATASIZE SUB DUP2 ADD SWAP1 PUSH2 0x1F5 SWAP2 SWAP1 PUSH2 0x21A7 JUMP JUMPDEST PUSH2 0xA47 JUMP JUMPDEST PUSH1 0x40 MLOAD PUSH2 0x207 SWAP2 SWAP1 PUSH2 0x22DD JUMP JUMPDEST PUSH1 0x40 MLOAD DUP1 SWAP2 SUB SWAP1 RETURN JUMPDEST CALLVALUE DUP1 ISZERO PUSH2 0x21C JUMPI PUSH1 0x0 DUP1 REVERT JUMPDEST POP PUSH2 0x237 PUSH1 0x4 DUP1 CALLDATASIZE SUB DUP2 ADD SWAP1 PUSH2 0x232 SWAP2 SWAP1 PUSH2 0x2353 JUMP JUMPDEST PUSH2 0xB1A JUMP JUMPDEST PUSH1 0x40 MLOAD PUSH2 0x246 SWAP4 SWAP3 SWAP2 SWAP1 PUSH2 0x23A6 JUMP JUMPDEST PUSH1 0x40 MLOAD DUP1 SWAP2 SUB SWAP1 RETURN JUMPDEST PUSH2 0x269 PUSH1 0x4 DUP1 CALLDATASIZE SUB DUP2 ADD SWAP1 PUSH2 0x264 SWAP2 SWAP1 PUSH2 0x23DD JUMP JUMPDEST PUSH2 0xBA6 JUMP JUMPDEST STOP JUMPDEST CALLVALUE DUP1 ISZERO PUSH2 0x277 JUMPI PUSH1 0x0 DUP1 REVERT JUMPDEST POP PUSH2 0x292 PUSH1 0x4 DUP1 CALLDATASIZE SUB DUP2 ADD SWAP1 PUSH2 0x28D SWAP2 SWAP1 PUSH2 0x2430 JUMP JUMPDEST PUSH2 0xE55 JUMP JUMPDEST STOP JUMPDEST PUSH1 0x0 DUP1 PUSH1 0x14 SWAP1 SLOAD SWAP1 PUSH2 0x100 EXP SWAP1 DIV PUSH12 0xFFFFFFFFFFFFFFFFFFFFFFFF AND SWAP1 POP PUSH1 0x40 MLOAD DUP1 PUSH2 0x100 ADD PUSH1 0x40 MSTORE DUP1 DUP3 PUSH12 0xFFFFFFFFFFFFFFFFFFFFFFFF AND DUP2 MSTORE PUSH1 0x20 ADD DUP6 PUSH20 0xFFFFFFFFFFFFFFFFFFFFFFFFFFFFFFFFFFFFFFFF AND DUP2 MSTORE PUSH1 0x20 ADD TIMESTAMP PUSH6 0xFFFFFFFFFFFF AND DUP2 MSTORE PUSH1 0x20 ADD TIMESTAMP PUSH6 0xFFFFFFFFFFFF AND DUP2 MSTORE PUSH1 0x20 ADD DUP5 PUSH20 0xFFFFFFFFFFFFFFFFFFFFFFFFFFFFFFFFFFFFFFFF AND DUP2 MSTORE PUSH1 0x20 ADD DUP4 DUP2 MSTORE PUSH1 0x20 ADD PUSH1 0x0 DUP2 MSTORE PUSH1 0x20 ADD PUSH1 0x0 ISZERO ISZERO DUP2 MSTORE POP PUSH1 0x1 PUSH1 0x0 DUP4 PUSH12 0xFFFFFFFFFFFFFFFFFFFFFFFF AND PUSH12 0xFFFFFFFFFFFFFFFFFFFFFFFF AND DUP2 MSTORE PUSH1 0x20 ADD SWAP1 DUP2 MSTORE PUSH1 0x20 ADD PUSH1 0x0 KECCAK256 PUSH1 0x0 DUP3 ADD MLOAD DUP2 PUSH1 0x0 ADD PUSH1 0x0 PUSH2 0x100 EXP DUP2 SLOAD DUP2 PUSH12 0xFFFFFFFFFFFFFFFFFFFFFFFF MUL NOT AND SWAP1 DUP4 PUSH12 0xFFFFFFFFFFFFFFFFFFFFFFFF AND MUL OR SWAP1 SSTORE POP PUSH1 0x20 DUP3 ADD MLOAD DUP2 PUSH1 0x0 ADD PUSH1 0xC PUSH2 0x100 EXP DUP2 SLOAD DUP2 PUSH20 0xFFFFFFFFFFFFFFFFFFFFFFFFFFFFFFFFFFFFFFFF MUL NOT AND SWAP1 DUP4 PUSH20 0xFFFFFFFFFFFFFFFFFFFFFFFFFFFFFFFFFFFFFFFF AND MUL OR SWAP1 SSTORE POP PUSH1 0x40 DUP3 ADD MLOAD DUP2 PUSH1 0x1 ADD PUSH1 0x0 PUSH2 0x100 EXP DUP2 SLOAD DUP2 PUSH6 0xFFFFFFFFFFFF MUL NOT AND SWAP1 DUP4 PUSH6 0xFFFFFFFFFFFF AND MUL OR SWAP1 SSTORE POP PUSH1 0x60 DUP3 ADD MLOAD DUP2 PUSH1 0x1 ADD PUSH1 0x6 PUSH2 0x100 EXP DUP2 SLOAD DUP2 PUSH6 0xFFFFFFFFFFFF MUL NOT AND SWAP1 DUP4 PUSH6 0xFFFFFFFFFFFF AND MUL OR SWAP1 SSTORE POP PUSH1 0x80 DUP3 ADD MLOAD DUP2 PUSH1 0x1 ADD PUSH1 0xC PUSH2 0x100 EXP DUP2 SLOAD DUP2 PUSH20 0xFFFFFFFFFFFFFFFFFFFFFFFFFFFFFFFFFFFFFFFF MUL NOT AND SWAP1 DUP4 PUSH20 0xFFFFFFFFFFFFFFFFFFFFFFFFFFFFFFFFFFFFFFFF AND MUL OR SWAP1 SSTORE POP PUSH1 0xA0 DUP3 ADD MLOAD DUP2 PUSH1 0x2 ADD SSTORE PUSH1 0xC0 DUP3 ADD MLOAD DUP2 PUSH1 0x3 ADD SSTORE PUSH1 0xE0 DUP3 ADD MLOAD DUP2 PUSH1 0x4 ADD PUSH1 0x0 PUSH2 0x100 EXP DUP2 SLOAD DUP2 PUSH1 0xFF MUL NOT AND SWAP1 DUP4 ISZERO ISZERO MUL OR SWAP1 SSTORE POP SWAP1 POP POP PUSH1 0x0 DUP3 DUP3 PUSH12 0xFFFFFFFFFFFFFFFFFFFFFFFF AND PUSH32 0x1E216CC18D3E93F7C7B9A7B3A038093BC655D3D5CBFBB504D67D4376BD02D13F DUP8 DUP8 PUSH1 0x0 TIMESTAMP PUSH1 0x40 MLOAD PUSH2 0x503 SWAP5 SWAP4 SWAP3 SWAP2 SWAP1 PUSH2 0x2497 JUMP JUMPDEST PUSH1 0x40 MLOAD DUP1 SWAP2 SUB SWAP1 LOG4 PUSH1 0x1 PUSH1 0x0 PUSH1 0x14 DUP3 DUP3 DUP3 SWAP1 SLOAD SWAP1 PUSH2 0x100 EXP SWAP1 DIV PUSH12 0xFFFFFFFFFFFFFFFFFFFFFFFF AND PUSH2 0x535 SWAP2 SWAP1 PUSH2 0x250B JUMP JUMPDEST SWAP3 POP PUSH2 0x100 EXP DUP2 SLOAD DUP2 PUSH12 0xFFFFFFFFFFFFFFFFFFFFFFFF MUL NOT AND SWAP1 DUP4 PUSH12 0xFFFFFFFFFFFFFFFFFFFFFFFF AND MUL OR SWAP1 SSTORE POP POP POP POP POP JUMP JUMPDEST PUSH1 0x60 PUSH2 0x58F PUSH1 0x0 DUP1 PUSH1 0x14 SWAP1 SLOAD SWAP1 PUSH2 0x100 EXP SWAP1 DIV PUSH12 0xFFFFFFFFFFFFFFFFFFFFFFFF AND PUSH2 0x6B3 JUMP JUMPDEST SWAP1 POP SWAP1 JUMP JUMPDEST PUSH1 0x1 PUSH1 0x20 MSTORE DUP1 PUSH1 0x0 MSTORE PUSH1 0x40 PUSH1 0x0 KECCAK256 PUSH1 0x0 SWAP2 POP SWAP1 POP DUP1 PUSH1 0x0 ADD PUSH1 0x0 SWAP1 SLOAD SWAP1 PUSH2 0x100 EXP SWAP1 DIV PUSH12 0xFFFFFFFFFFFFFFFFFFFFFFFF AND SWAP1 DUP1 PUSH1 0x0 ADD PUSH1 0xC SWAP1 SLOAD SWAP1 PUSH2 0x100 EXP SWAP1 DIV PUSH20 0xFFFFFFFFFFFFFFFFFFFFFFFFFFFFFFFFFFFFFFFF AND SWAP1 DUP1 PUSH1 0x1 ADD PUSH1 0x0 SWAP1 SLOAD SWAP1 PUSH2 0x100 EXP SWAP1 DIV PUSH6 0xFFFFFFFFFFFF AND SWAP1 DUP1 PUSH1 0x1 ADD PUSH1 0x6 SWAP1 SLOAD SWAP1 PUSH2 0x100 EXP SWAP1 DIV PUSH6 0xFFFFFFFFFFFF AND SWAP1 DUP1 PUSH1 0x1 ADD PUSH1 0xC SWAP1 SLOAD SWAP1 PUSH2 0x100 EXP SWAP1 DIV PUSH20 0xFFFFFFFFFFFFFFFFFFFFFFFFFFFFFFFFFFFFFFFF AND SWAP1 DUP1 PUSH1 0x2 ADD SLOAD SWAP1 DUP1 PUSH1 0x3 ADD SLOAD SWAP1 DUP1 PUSH1 0x4 ADD PUSH1 0x0 SWAP1 SLOAD SWAP1 PUSH2 0x100 EXP SWAP1 DIV PUSH1 0xFF AND SWAP1 POP DUP9 JUMP JUMPDEST PUSH1 0x2 PUSH1 0x20 MSTORE DUP2 PUSH1 0x0 MSTORE PUSH1 0x40 PUSH1 0x0 KECCAK256 DUP2 DUP2 SLOAD DUP2 LT PUSH2 0x681 JUMPI PUSH1 0x0 DUP1 REVERT JUMPDEST SWAP1 PUSH1 0x0 MSTORE PUSH1 0x20 PUSH1 0x0 KECCAK256 ADD PUSH1 0x0 SWAP2 POP SWAP2 POP SWAP1 SLOAD SWAP1 PUSH2 0x100 EXP SWAP1 DIV PUSH20 0xFFFFFFFFFFFFFFFFFFFFFFFFFFFFFFFFFFFFFFFF AND DUP2 JUMP JUMPDEST PUSH1 0x60 PUSH1 0x0 PUSH1 0x14 SWAP1 SLOAD SWAP1 PUSH2 0x100 EXP SWAP1 DIV PUSH12 0xFFFFFFFFFFFFFFFFFFFFFFFF AND PUSH12 0xFFFFFFFFFFFFFFFFFFFFFFFF AND DUP3 PUSH12 0xFFFFFFFFFFFFFFFFFFFFFFFF AND GT ISZERO PUSH2 0x72E JUMPI PUSH1 0x40 MLOAD PUSH32 0x8C379A000000000000000000000000000000000000000000000000000000000 DUP2 MSTORE PUSH1 0x4 ADD PUSH2 0x725 SWAP1 PUSH2 0x25A8 JUMP JUMPDEST PUSH1 0x40 MLOAD DUP1 SWAP2 SUB SWAP1 REVERT JUMPDEST DUP2 PUSH12 0xFFFFFFFFFFFFFFFFFFFFFFFF AND DUP4 PUSH12 0xFFFFFFFFFFFFFFFFFFFFFFFF AND GT ISZERO PUSH2 0x78D JUMPI PUSH1 0x40 MLOAD PUSH32 0x8C379A000000000000000000000000000000000000000000000000000000000 DUP2 MSTORE PUSH1 0x4 ADD PUSH2 0x784 SWAP1 PUSH2 0x2614 JUMP JUMPDEST PUSH1 0x40 MLOAD DUP1 SWAP2 SUB SWAP1 REVERT JUMPDEST PUSH1 0x0 DUP4 DUP4 PUSH2 0x79B SWAP2 SWAP1 PUSH2 0x2634 JUMP JUMPDEST PUSH12 0xFFFFFFFFFFFFFFFFFFFFFFFF AND PUSH8 0xFFFFFFFFFFFFFFFF DUP2 GT ISZERO PUSH2 0x7C2 JUMPI PUSH2 0x7C1 PUSH2 0x2674 JUMP JUMPDEST JUMPDEST PUSH1 0x40 MLOAD SWAP1 DUP1 DUP3 MSTORE DUP1 PUSH1 0x20 MUL PUSH1 0x20 ADD DUP3 ADD PUSH1 0x40 MSTORE DUP1 ISZERO PUSH2 0x7FB JUMPI DUP2 PUSH1 0x20 ADD JUMPDEST PUSH2 0x7E8 PUSH2 0x1E09 JUMP JUMPDEST DUP2 MSTORE PUSH1 0x20 ADD SWAP1 PUSH1 0x1 SWAP1 SUB SWAP1 DUP2 PUSH2 0x7E0 JUMPI SWAP1 POP JUMPDEST POP SWAP1 POP PUSH1 0x0 DUP5 SWAP1 POP JUMPDEST DUP4 PUSH12 0xFFFFFFFFFFFFFFFFFFFFFFFF AND DUP2 PUSH12 0xFFFFFFFFFFFFFFFFFFFFFFFF AND LT ISZERO PUSH2 0xA1E JUMPI PUSH1 0x1 PUSH1 0x0 DUP3 PUSH12 0xFFFFFFFFFFFFFFFFFFFFFFFF AND PUSH12 0xFFFFFFFFFFFFFFFFFFFFFFFF AND DUP2 MSTORE PUSH1 0x20 ADD SWAP1 DUP2 MSTORE PUSH1 0x20 ADD PUSH1 0x0 KECCAK256 PUSH1 0x40 MLOAD DUP1 PUSH2 0x100 ADD PUSH1 0x40 MSTORE SWAP1 DUP2 PUSH1 0x0 DUP3 ADD PUSH1 0x0 SWAP1 SLOAD SWAP1 PUSH2 0x100 EXP SWAP1 DIV PUSH12 0xFFFFFFFFFFFFFFFFFFFFFFFF AND PUSH12 0xFFFFFFFFFFFFFFFFFFFFFFFF AND PUSH12 0xFFFFFFFFFFFFFFFFFFFFFFFF AND DUP2 MSTORE PUSH1 0x20 ADD PUSH1 0x0 DUP3 ADD PUSH1 0xC SWAP1 SLOAD SWAP1 PUSH2 0x100 EXP SWAP1 DIV PUSH20 0xFFFFFFFFFFFFFFFFFFFFFFFFFFFFFFFFFFFFFFFF AND PUSH20 0xFFFFFFFFFFFFFFFFFFFFFFFFFFFFFFFFFFFFFFFF AND PUSH20 0xFFFFFFFFFFFFFFFFFFFFFFFFFFFFFFFFFFFFFFFF AND DUP2 MSTORE PUSH1 0x20 ADD PUSH1 0x1 DUP3 ADD PUSH1 0x0 SWAP1 SLOAD SWAP1 PUSH2 0x100 EXP SWAP1 DIV PUSH6 0xFFFFFFFFFFFF AND PUSH6 0xFFFFFFFFFFFF AND PUSH6 0xFFFFFFFFFFFF AND DUP2 MSTORE PUSH1 0x20 ADD PUSH1 0x1 DUP3 ADD PUSH1 0x6 SWAP1 SLOAD SWAP1 PUSH2 0x100 EXP SWAP1 DIV PUSH6 0xFFFFFFFFFFFF AND PUSH6 0xFFFFFFFFFFFF AND PUSH6 0xFFFFFFFFFFFF AND DUP2 MSTORE PUSH1 0x20 ADD PUSH1 0x1 DUP3 ADD PUSH1 0xC SWAP1 SLOAD SWAP1 PUSH2 0x100 EXP SWAP1 DIV PUSH20 0xFFFFFFFFFFFFFFFFFFFFFFFFFFFFFFFFFFFFFFFF AND PUSH20 0xFFFFFFFFFFFFFFFFFFFFFFFFFFFFFFFFFFFFFFFF AND PUSH20 0xFFFFFFFFFFFFFFFFFFFFFFFFFFFFFFFFFFFFFFFF AND DUP2 MSTORE PUSH1 0x20 ADD PUSH1 0x2 DUP3 ADD SLOAD DUP2 MSTORE PUSH1 0x20 ADD PUSH1 0x3 DUP3 ADD SLOAD DUP2 MSTORE PUSH1 0x20 ADD PUSH1 0x4 DUP3 ADD PUSH1 0x0 SWAP1 SLOAD SWAP1 PUSH2 0x100 EXP SWAP1 DIV PUSH1 0xFF AND ISZERO ISZERO ISZERO ISZERO DUP2 MSTORE POP POP DUP3 DUP7 DUP4 PUSH2 0x9E1 SWAP2 SWAP1 PUSH2 0x2634 JUMP JUMPDEST PUSH12 0xFFFFFFFFFFFFFFFFFFFFFFFF AND DUP2 MLOAD DUP2 LT PUSH2 0xA00 JUMPI PUSH2 0x9FF PUSH2 0x26A3 JUMP JUMPDEST JUMPDEST PUSH1 0x20 MUL PUSH1 0x20 ADD ADD DUP2 SWAP1 MSTORE POP DUP1 DUP1 PUSH2 0xA16 SWAP1 PUSH2 0x26D2 JUMP JUMPDEST SWAP2 POP POP PUSH2 0x804 JUMP JUMPDEST POP DUP1 SWAP2 POP POP SWAP3 SWAP2 POP POP JUMP JUMPDEST PUSH1 0x0 PUSH1 0x14 SWAP1 SLOAD SWAP1 PUSH2 0x100 EXP SWAP1 DIV PUSH12 0xFFFFFFFFFFFFFFFFFFFFFFFF AND DUP2 JUMP JUMPDEST PUSH1 0x0 DUP1 PUSH1 0x14 SWAP1 SLOAD SWAP1 PUSH2 0x100 EXP SWAP1 DIV PUSH12 0xFFFFFFFFFFFFFFFFFFFFFFFF AND PUSH12 0xFFFFFFFFFFFFFFFFFFFFFFFF AND DUP3 PUSH12 0xFFFFFFFFFFFFFFFFFFFFFFFF AND LT PUSH2 0xAC0 JUMPI PUSH1 0x40 MLOAD PUSH32 0x8C379A000000000000000000000000000000000000000000000000000000000 DUP2 MSTORE PUSH1 0x4 ADD PUSH2 0xAB7 SWAP1 PUSH2 0x2752 JUMP JUMPDEST PUSH1 0x40 MLOAD DUP1 SWAP2 SUB SWAP1 REVERT JUMPDEST PUSH1 0x1 PUSH1 0x0 DUP4 PUSH12 0xFFFFFFFFFFFFFFFFFFFFFFFF AND PUSH12 0xFFFFFFFFFFFFFFFFFFFFFFFF AND DUP2 MSTORE PUSH1 0x20 ADD SWAP1 DUP2 MSTORE PUSH1 0x20 ADD PUSH1 0x0 KECCAK256 PUSH1 0x1 ADD PUSH1 0xC SWAP1 SLOAD SWAP1 PUSH2 0x100 EXP SWAP1 DIV PUSH20 0xFFFFFFFFFFFFFFFFFFFFFFFFFFFFFFFFFFFFFFFF AND SWAP1 POP SWAP2 SWAP1 POP JUMP JUMPDEST PUSH1 0x3 PUSH1 0x20 MSTORE DUP3 PUSH1 0x0 MSTORE PUSH1 0x40 PUSH1 0x0 KECCAK256 PUSH1 0x20 MSTORE DUP2 PUSH1 0x0 MSTORE PUSH1 0x40 PUSH1 0x0 KECCAK256 DUP2 DUP2 SLOAD DUP2 LT PUSH2 0xB42 JUMPI PUSH1 0x0 DUP1 REVERT JUMPDEST SWAP1 PUSH1 0x0 MSTORE PUSH1 0x20 PUSH1 0x0 KECCAK256 SWAP1 PUSH1 0x2 MUL ADD PUSH1 0x0 SWAP3 POP SWAP3 POP POP POP DUP1 PUSH1 0x0 ADD PUSH1 0x0 SWAP1 SLOAD SWAP1 PUSH2 0x100 EXP SWAP1 DIV PUSH20 0xFFFFFFFFFFFFFFFFFFFFFFFFFFFFFFFFFFFFFFFF AND SWAP1 DUP1 PUSH1 0x0 ADD PUSH1 0x14 SWAP1 SLOAD SWAP1 PUSH2 0x100 EXP SWAP1 DIV PUSH12 0xFFFFFFFFFFFFFFFFFFFFFFFF AND SWAP1 DUP1 PUSH1 0x1 ADD SLOAD SWAP1 POP DUP4 JUMP JUMPDEST PUSH2 0xBB1 DUP4 DUP4 DUP4 PUSH2 0x12E7 JUMP JUMPDEST PUSH2 0xBB9 PUSH2 0x1843 JUMP JUMPDEST PUSH1 0x0 JUMPDEST PUSH1 0x0 PUSH1 0x14 SWAP1 SLOAD SWAP1 PUSH2 0x100 EXP SWAP1 DIV PUSH12 0xFFFFFFFFFFFFFFFFFFFFFFFF AND PUSH12 0xFFFFFFFFFFFFFFFFFFFFFFFF AND DUP2 PUSH12 0xFFFFFFFFFFFFFFFFFFFFFFFF AND LT ISZERO PUSH2 0xE4F JUMPI PUSH1 0x1 PUSH1 0x0 DUP3 PUSH12 0xFFFFFFFFFFFFFFFFFFFFFFFF AND PUSH12 0xFFFFFFFFFFFFFFFFFFFFFFFF AND DUP2 MSTORE PUSH1 0x20 ADD SWAP1 DUP2 MSTORE PUSH1 0x20 ADD PUSH1 0x0 KECCAK256 PUSH1 0x3 ADD SLOAD PUSH1 0x1 PUSH1 0x0 DUP4 PUSH12 0xFFFFFFFFFFFFFFFFFFFFFFFF AND PUSH12 0xFFFFFFFFFFFFFFFFFFFFFFFF AND DUP2 MSTORE PUSH1 0x20 ADD SWAP1 DUP2 MSTORE PUSH1 0x20 ADD PUSH1 0x0 KECCAK256 PUSH1 0x2 ADD SLOAD LT ISZERO PUSH2 0xE3C JUMPI PUSH1 0x0 DUP1 SLOAD SWAP1 PUSH2 0x100 EXP SWAP1 DIV PUSH20 0xFFFFFFFFFFFFFFFFFFFFFFFFFFFFFFFFFFFFFFFF AND PUSH20 0xFFFFFFFFFFFFFFFFFFFFFFFFFFFFFFFFFFFFFFFF AND PUSH4 0xA9059CBB PUSH2 0xCAB DUP4 PUSH2 0xA47 JUMP JUMPDEST PUSH1 0x1 PUSH1 0x0 DUP6 PUSH12 0xFFFFFFFFFFFFFFFFFFFFFFFF AND PUSH12 0xFFFFFFFFFFFFFFFFFFFFFFFF AND DUP2 MSTORE PUSH1 0x20 ADD SWAP1 DUP2 MSTORE PUSH1 0x20 ADD PUSH1 0x0 KECCAK256 PUSH1 0x3 ADD SLOAD PUSH1 0x40 MLOAD DUP4 PUSH4 0xFFFFFFFF AND PUSH1 0xE0 SHL DUP2 MSTORE PUSH1 0x4 ADD PUSH2 0xCFB SWAP3 SWAP2 SWAP1 PUSH2 0x2772 JUMP JUMPDEST PUSH1 0x20 PUSH1 0x40 MLOAD DUP1 DUP4 SUB DUP2 PUSH1 0x0 DUP8 GAS CALL ISZERO DUP1 ISZERO PUSH2 0xD1A JUMPI RETURNDATASIZE PUSH1 0x0 DUP1 RETURNDATACOPY RETURNDATASIZE PUSH1 0x0 REVERT JUMPDEST POP POP POP POP PUSH1 0x40 MLOAD RETURNDATASIZE PUSH1 0x1F NOT PUSH1 0x1F DUP3 ADD AND DUP3 ADD DUP1 PUSH1 0x40 MSTORE POP DUP2 ADD SWAP1 PUSH2 0xD3E SWAP2 SWAP1 PUSH2 0x27C7 JUMP JUMPDEST POP DUP1 PUSH12 0xFFFFFFFFFFFFFFFFFFFFFFFF AND PUSH32 0xCD79837F8E8F598DE24EF07EA60108DF97918F95CFC31D1D61FF9FA09C240352 PUSH1 0x1 PUSH1 0x0 DUP5 PUSH12 0xFFFFFFFFFFFFFFFFFFFFFFFF AND PUSH12 0xFFFFFFFFFFFFFFFFFFFFFFFF AND DUP2 MSTORE PUSH1 0x20 ADD SWAP1 DUP2 MSTORE PUSH1 0x20 ADD PUSH1 0x0 KECCAK256 PUSH1 0x3 ADD SLOAD TIMESTAMP PUSH1 0x40 MLOAD PUSH2 0xDB1 SWAP3 SWAP2 SWAP1 PUSH2 0x27F4 JUMP JUMPDEST PUSH1 0x40 MLOAD DUP1 SWAP2 SUB SWAP1 LOG2 PUSH1 0x1 DUP1 PUSH1 0x0 DUP4 PUSH12 0xFFFFFFFFFFFFFFFFFFFFFFFF AND PUSH12 0xFFFFFFFFFFFFFFFFFFFFFFFF AND DUP2 MSTORE PUSH1 0x20 ADD SWAP1 DUP2 MSTORE PUSH1 0x20 ADD PUSH1 0x0 KECCAK256 PUSH1 0x4 ADD PUSH1 0x0 PUSH2 0x100 EXP DUP2 SLOAD DUP2 PUSH1 0xFF MUL NOT AND SWAP1 DUP4 ISZERO ISZERO MUL OR SWAP1 SSTORE POP PUSH1 0x0 PUSH1 0x1 PUSH1 0x0 DUP4 PUSH12 0xFFFFFFFFFFFFFFFFFFFFFFFF AND PUSH12 0xFFFFFFFFFFFFFFFFFFFFFFFF AND DUP2 MSTORE PUSH1 0x20 ADD SWAP1 DUP2 MSTORE PUSH1 0x20 ADD PUSH1 0x0 KECCAK256 PUSH1 0x3 ADD DUP2 SWAP1 SSTORE POP JUMPDEST DUP1 DUP1 PUSH2 0xE47 SWAP1 PUSH2 0x26D2 JUMP JUMPDEST SWAP2 POP POP PUSH2 0xBBC JUMP JUMPDEST POP POP POP POP JUMP JUMPDEST PUSH1 0x0 PUSH1 0x1 PUSH1 0x0 DUP7 PUSH12 0xFFFFFFFFFFFFFFFFFFFFFFFF AND PUSH12 0xFFFFFFFFFFFFFFFFFFFFFFFF AND DUP2 MSTORE PUSH1 0x20 ADD SWAP1 DUP2 MSTORE PUSH1 0x20 ADD PUSH1 0x0 KECCAK256 PUSH1 0x40 MLOAD DUP1 PUSH2 0x100 ADD PUSH1 0x40 MSTORE SWAP1 DUP2 PUSH1 0x0 DUP3 ADD PUSH1 0x0 SWAP1 SLOAD SWAP1 PUSH2 0x100 EXP SWAP1 DIV PUSH12 0xFFFFFFFFFFFFFFFFFFFFFFFF AND PUSH12 0xFFFFFFFFFFFFFFFFFFFFFFFF AND PUSH12 0xFFFFFFFFFFFFFFFFFFFFFFFF AND DUP2 MSTORE PUSH1 0x20 ADD PUSH1 0x0 DUP3 ADD PUSH1 0xC SWAP1 SLOAD SWAP1 PUSH2 0x100 EXP SWAP1 DIV PUSH20 0xFFFFFFFFFFFFFFFFFFFFFFFFFFFFFFFFFFFFFFFF AND PUSH20 0xFFFFFFFFFFFFFFFFFFFFFFFFFFFFFFFFFFFFFFFF AND PUSH20 0xFFFFFFFFFFFFFFFFFFFFFFFFFFFFFFFFFFFFFFFF AND DUP2 MSTORE PUSH1 0x20 ADD PUSH1 0x1 DUP3 ADD PUSH1 0x0 SWAP1 SLOAD SWAP1 PUSH2 0x100 EXP SWAP1 DIV PUSH6 0xFFFFFFFFFFFF AND PUSH6 0xFFFFFFFFFFFF AND PUSH6 0xFFFFFFFFFFFF AND DUP2 MSTORE PUSH1 0x20 ADD PUSH1 0x1 DUP3 ADD PUSH1 0x6 SWAP1 SLOAD SWAP1 PUSH2 0x100 EXP SWAP1 DIV PUSH6 0xFFFFFFFFFFFF AND PUSH6 0xFFFFFFFFFFFF AND PUSH6 0xFFFFFFFFFFFF AND DUP2 MSTORE PUSH1 0x20 ADD PUSH1 0x1 DUP3 ADD PUSH1 0xC SWAP1 SLOAD SWAP1 PUSH2 0x100 EXP SWAP1 DIV PUSH20 0xFFFFFFFFFFFFFFFFFFFFFFFFFFFFFFFFFFFFFFFF AND PUSH20 0xFFFFFFFFFFFFFFFFFFFFFFFFFFFFFFFFFFFFFFFF AND PUSH20 0xFFFFFFFFFFFFFFFFFFFFFFFFFFFFFFFFFFFFFFFF AND DUP2 MSTORE PUSH1 0x20 ADD PUSH1 0x2 DUP3 ADD SLOAD DUP2 MSTORE PUSH1 0x20 ADD PUSH1 0x3 DUP3 ADD SLOAD DUP2 MSTORE PUSH1 0x20 ADD PUSH1 0x4 DUP3 ADD PUSH1 0x0 SWAP1 SLOAD SWAP1 PUSH2 0x100 EXP SWAP1 DIV PUSH1 0xFF AND ISZERO ISZERO ISZERO ISZERO DUP2 MSTORE POP POP SWAP1 POP DUP1 PUSH1 0x20 ADD MLOAD PUSH20 0xFFFFFFFFFFFFFFFFFFFFFFFFFFFFFFFFFFFFFFFF AND CALLER PUSH20 0xFFFFFFFFFFFFFFFFFFFFFFFFFFFFFFFFFFFFFFFF AND EQ PUSH2 0x1077 JUMPI PUSH1 0x40 MLOAD PUSH32 0x8C379A000000000000000000000000000000000000000000000000000000000 DUP2 MSTORE PUSH1 0x4 ADD PUSH2 0x106E SWAP1 PUSH2 0x2869 JUMP JUMPDEST PUSH1 0x40 MLOAD DUP1 SWAP2 SUB SWAP1 REVERT JUMPDEST PUSH1 0x40 MLOAD DUP1 PUSH2 0x100 ADD PUSH1 0x40 MSTORE DUP1 DUP7 PUSH12 0xFFFFFFFFFFFFFFFFFFFFFFFF AND DUP2 MSTORE PUSH1 0x20 ADD DUP6 PUSH20 0xFFFFFFFFFFFFFFFFFFFFFFFFFFFFFFFFFFFFFFFF AND DUP2 MSTORE PUSH1 0x20 ADD DUP3 PUSH1 0x40 ADD MLOAD PUSH6 0xFFFFFFFFFFFF AND DUP2 MSTORE PUSH1 0x20 ADD TIMESTAMP PUSH6 0xFFFFFFFFFFFF AND DUP2 MSTORE PUSH1 0x20 ADD DUP5 PUSH20 0xFFFFFFFFFFFFFFFFFFFFFFFFFFFFFFFFFFFFFFFF AND DUP2 MSTORE PUSH1 0x20 ADD DUP4 DUP2 MSTORE PUSH1 0x20 ADD DUP3 PUSH1 0xC0 ADD MLOAD DUP2 MSTORE PUSH1 0x20 ADD DUP3 PUSH1 0xE0 ADD MLOAD ISZERO ISZERO DUP2 MSTORE POP PUSH1 0x1 PUSH1 0x0 DUP8 PUSH12 0xFFFFFFFFFFFFFFFFFFFFFFFF AND PUSH12 0xFFFFFFFFFFFFFFFFFFFFFFFF AND DUP2 MSTORE PUSH1 0x20 ADD SWAP1 DUP2 MSTORE PUSH1 0x20 ADD PUSH1 0x0 KECCAK256 PUSH1 0x0 DUP3 ADD MLOAD DUP2 PUSH1 0x0 ADD PUSH1 0x0 PUSH2 0x100 EXP DUP2 SLOAD DUP2 PUSH12 0xFFFFFFFFFFFFFFFFFFFFFFFF MUL NOT AND SWAP1 DUP4 PUSH12 0xFFFFFFFFFFFFFFFFFFFFFFFF AND MUL OR SWAP1 SSTORE POP PUSH1 0x20 DUP3 ADD MLOAD DUP2 PUSH1 0x0 ADD PUSH1 0xC PUSH2 0x100 EXP DUP2 SLOAD DUP2 PUSH20 0xFFFFFFFFFFFFFFFFFFFFFFFFFFFFFFFFFFFFFFFF MUL NOT AND SWAP1 DUP4 PUSH20 0xFFFFFFFFFFFFFFFFFFFFFFFFFFFFFFFFFFFFFFFF AND MUL OR SWAP1 SSTORE POP PUSH1 0x40 DUP3 ADD MLOAD DUP2 PUSH1 0x1 ADD PUSH1 0x0 PUSH2 0x100 EXP DUP2 SLOAD DUP2 PUSH6 0xFFFFFFFFFFFF MUL NOT AND SWAP1 DUP4 PUSH6 0xFFFFFFFFFFFF AND MUL OR SWAP1 SSTORE POP PUSH1 0x60 DUP3 ADD MLOAD DUP2 PUSH1 0x1 ADD PUSH1 0x6 PUSH2 0x100 EXP DUP2 SLOAD DUP2 PUSH6 0xFFFFFFFFFFFF MUL NOT AND SWAP1 DUP4 PUSH6 0xFFFFFFFFFFFF AND MUL OR SWAP1 SSTORE POP PUSH1 0x80 DUP3 ADD MLOAD DUP2 PUSH1 0x1 ADD PUSH1 0xC PUSH2 0x100 EXP DUP2 SLOAD DUP2 PUSH20 0xFFFFFFFFFFFFFFFFFFFFFFFFFFFFFFFFFFFFFFFF MUL NOT AND SWAP1 DUP4 PUSH20 0xFFFFFFFFFFFFFFFFFFFFFFFFFFFFFFFFFFFFFFFF AND MUL OR SWAP1 SSTORE POP PUSH1 0xA0 DUP3 ADD MLOAD DUP2 PUSH1 0x2 ADD SSTORE PUSH1 0xC0 DUP3 ADD MLOAD DUP2 PUSH1 0x3 ADD SSTORE PUSH1 0xE0 DUP3 ADD MLOAD DUP2 PUSH1 0x4 ADD PUSH1 0x0 PUSH2 0x100 EXP DUP2 SLOAD DUP2 PUSH1 0xFF MUL NOT AND SWAP1 DUP4 ISZERO ISZERO MUL OR SWAP1 SSTORE POP SWAP1 POP POP DUP1 PUSH1 0xC0 ADD MLOAD DUP3 DUP7 PUSH12 0xFFFFFFFFFFFFFFFFFFFFFFFF AND PUSH32 0x603E97A48F8CADD1E9020BF96470C32853C5D9D8ED30F7CBE961F12AD2A45FA0 DUP8 DUP8 DUP7 PUSH1 0xE0 ADD MLOAD TIMESTAMP PUSH1 0x40 MLOAD PUSH2 0x12D8 SWAP5 SWAP4 SWAP3 SWAP2 SWAP1 PUSH2 0x2497 JUMP JUMPDEST PUSH1 0x40 MLOAD DUP1 SWAP2 SUB SWAP1 LOG4 POP POP POP POP POP JUMP JUMPDEST DUP1 PUSH1 0x0 DUP1 SLOAD SWAP1 PUSH2 0x100 EXP SWAP1 DIV PUSH20 0xFFFFFFFFFFFFFFFFFFFFFFFFFFFFFFFFFFFFFFFF AND PUSH20 0xFFFFFFFFFFFFFFFFFFFFFFFFFFFFFFFFFFFFFFFF AND PUSH4 0x70A08231 DUP6 PUSH1 0x40 MLOAD DUP3 PUSH4 0xFFFFFFFF AND PUSH1 0xE0 SHL DUP2 MSTORE PUSH1 0x4 ADD PUSH2 0x1341 SWAP2 SWAP1 PUSH2 0x22DD JUMP JUMPDEST PUSH1 0x20 PUSH1 0x40 MLOAD DUP1 DUP4 SUB DUP2 DUP7 GAS STATICCALL ISZERO DUP1 ISZERO PUSH2 0x135E JUMPI RETURNDATASIZE PUSH1 0x0 DUP1 RETURNDATACOPY RETURNDATASIZE PUSH1 0x0 REVERT JUMPDEST POP POP POP POP PUSH1 0x40 MLOAD RETURNDATASIZE PUSH1 0x1F NOT PUSH1 0x1F DUP3 ADD AND DUP3 ADD DUP1 PUSH1 0x40 MSTORE POP DUP2 ADD SWAP1 PUSH2 0x1382 SWAP2 SWAP1 PUSH2 0x289E JUMP JUMPDEST GT PUSH2 0x13C2 JUMPI PUSH1 0x40 MLOAD PUSH32 0x8C379A000000000000000000000000000000000000000000000000000000000 DUP2 MSTORE PUSH1 0x4 ADD PUSH2 0x13B9 SWAP1 PUSH2 0x293D JUMP JUMPDEST PUSH1 0x40 MLOAD DUP1 SWAP2 SUB SWAP1 REVERT JUMPDEST DUP1 PUSH1 0x0 DUP1 SLOAD SWAP1 PUSH2 0x100 EXP SWAP1 DIV PUSH20 0xFFFFFFFFFFFFFFFFFFFFFFFFFFFFFFFFFFFFFFFF AND PUSH20 0xFFFFFFFFFFFFFFFFFFFFFFFFFFFFFFFFFFFFFFFF AND PUSH4 0xDD62ED3E DUP6 ADDRESS PUSH1 0x40 MLOAD DUP4 PUSH4 0xFFFFFFFF AND PUSH1 0xE0 SHL DUP2 MSTORE PUSH1 0x4 ADD PUSH2 0x141E SWAP3 SWAP2 SWAP1 PUSH2 0x295D JUMP JUMPDEST PUSH1 0x20 PUSH1 0x40 MLOAD DUP1 DUP4 SUB DUP2 DUP7 GAS STATICCALL ISZERO DUP1 ISZERO PUSH2 0x143B JUMPI RETURNDATASIZE PUSH1 0x0 DUP1 RETURNDATACOPY RETURNDATASIZE PUSH1 0x0 REVERT JUMPDEST POP POP POP POP PUSH1 0x40 MLOAD RETURNDATASIZE PUSH1 0x1F NOT PUSH1 0x1F DUP3 ADD AND DUP3 ADD DUP1 PUSH1 0x40 MSTORE POP DUP2 ADD SWAP1 PUSH2 0x145F SWAP2 SWAP1 PUSH2 0x289E JUMP JUMPDEST GT PUSH2 0x149F JUMPI PUSH1 0x40 MLOAD PUSH32 0x8C379A000000000000000000000000000000000000000000000000000000000 DUP2 MSTORE PUSH1 0x4 ADD PUSH2 0x1496 SWAP1 PUSH2 0x29D2 JUMP JUMPDEST PUSH1 0x40 MLOAD DUP1 SWAP2 SUB SWAP1 REVERT JUMPDEST PUSH1 0x0 DUP1 SLOAD SWAP1 PUSH2 0x100 EXP SWAP1 DIV PUSH20 0xFFFFFFFFFFFFFFFFFFFFFFFFFFFFFFFFFFFFFFFF AND PUSH20 0xFFFFFFFFFFFFFFFFFFFFFFFFFFFFFFFFFFFFFFFF AND PUSH4 0x23B872DD DUP5 ADDRESS DUP5 PUSH1 0x40 MLOAD DUP5 PUSH4 0xFFFFFFFF AND PUSH1 0xE0 SHL DUP2 MSTORE PUSH1 0x4 ADD PUSH2 0x14FC SWAP4 SWAP3 SWAP2 SWAP1 PUSH2 0x29F2 JUMP JUMPDEST PUSH1 0x20 PUSH1 0x40 MLOAD DUP1 DUP4 SUB DUP2 PUSH1 0x0 DUP8 GAS CALL ISZERO DUP1 ISZERO PUSH2 0x151B JUMPI RETURNDATASIZE PUSH1 0x0 DUP1 RETURNDATACOPY RETURNDATASIZE PUSH1 0x0 REVERT JUMPDEST POP POP POP POP PUSH1 0x40 MLOAD RETURNDATASIZE PUSH1 0x1F NOT PUSH1 0x1F DUP3 ADD AND DUP3 ADD DUP1 PUSH1 0x40 MSTORE POP DUP2 ADD SWAP1 PUSH2 0x153F SWAP2 SWAP1 PUSH2 0x27C7 JUMP JUMPDEST PUSH2 0x157E JUMPI PUSH1 0x40 MLOAD PUSH32 0x8C379A000000000000000000000000000000000000000000000000000000000 DUP2 MSTORE PUSH1 0x4 ADD PUSH2 0x1575 SWAP1 PUSH2 0x2A75 JUMP JUMPDEST PUSH1 0x40 MLOAD DUP1 SWAP2 SUB SWAP1 REVERT JUMPDEST PUSH1 0x0 PUSH1 0x40 MLOAD DUP1 PUSH1 0x60 ADD PUSH1 0x40 MSTORE DUP1 DUP6 PUSH20 0xFFFFFFFFFFFFFFFFFFFFFFFFFFFFFFFFFFFFFFFF AND DUP2 MSTORE PUSH1 0x20 ADD DUP5 PUSH12 0xFFFFFFFFFFFFFFFFFFFFFFFF AND DUP2 MSTORE PUSH1 0x20 ADD DUP4 DUP2 MSTORE POP SWAP1 POP PUSH1 0x3 PUSH1 0x0 DUP5 PUSH12 0xFFFFFFFFFFFFFFFFFFFFFFFF AND PUSH12 0xFFFFFFFFFFFFFFFFFFFFFFFF AND DUP2 MSTORE PUSH1 0x20 ADD SWAP1 DUP2 MSTORE PUSH1 0x20 ADD PUSH1 0x0 KECCAK256 PUSH1 0x0 DUP6 PUSH20 0xFFFFFFFFFFFFFFFFFFFFFFFFFFFFFFFFFFFFFFFF AND PUSH20 0xFFFFFFFFFFFFFFFFFFFFFFFFFFFFFFFFFFFFFFFF AND DUP2 MSTORE PUSH1 0x20 ADD SWAP1 DUP2 MSTORE PUSH1 0x20 ADD PUSH1 0x0 KECCAK256 DUP2 SWAP1 DUP1 PUSH1 0x1 DUP2 SLOAD ADD DUP1 DUP3 SSTORE DUP1 SWAP2 POP POP PUSH1 0x1 SWAP1 SUB SWAP1 PUSH1 0x0 MSTORE PUSH1 0x20 PUSH1 0x0 KECCAK256 SWAP1 PUSH1 0x2 MUL ADD PUSH1 0x0 SWAP1 SWAP2 SWAP1 SWAP2 SWAP1 SWAP2 POP PUSH1 0x0 DUP3 ADD MLOAD DUP2 PUSH1 0x0 ADD PUSH1 0x0 PUSH2 0x100 EXP DUP2 SLOAD DUP2 PUSH20 0xFFFFFFFFFFFFFFFFFFFFFFFFFFFFFFFFFFFFFFFF MUL NOT AND SWAP1 DUP4 PUSH20 0xFFFFFFFFFFFFFFFFFFFFFFFFFFFFFFFFFFFFFFFF AND MUL OR SWAP1 SSTORE POP PUSH1 0x20 DUP3 ADD MLOAD DUP2 PUSH1 0x0 ADD PUSH1 0x14 PUSH2 0x100 EXP DUP2 SLOAD DUP2 PUSH12 0xFFFFFFFFFFFFFFFFFFFFFFFF MUL NOT AND SWAP1 DUP4 PUSH12 0xFFFFFFFFFFFFFFFFFFFFFFFF AND MUL OR SWAP1 SSTORE POP PUSH1 0x40 DUP3 ADD MLOAD DUP2 PUSH1 0x1 ADD SSTORE POP POP PUSH1 0x0 PUSH1 0x2 PUSH1 0x0 DUP6 PUSH12 0xFFFFFFFFFFFFFFFFFFFFFFFF AND PUSH12 0xFFFFFFFFFFFFFFFFFFFFFFFF AND DUP2 MSTORE PUSH1 0x20 ADD SWAP1 DUP2 MSTORE PUSH1 0x20 ADD PUSH1 0x0 KECCAK256 SWAP1 POP PUSH1 0x0 PUSH1 0x1 SWAP1 POP PUSH1 0x0 JUMPDEST DUP3 DUP1 SLOAD SWAP1 POP DUP2 PUSH12 0xFFFFFFFFFFFFFFFFFFFFFFFF AND LT ISZERO PUSH2 0x17D1 JUMPI DUP7 PUSH20 0xFFFFFFFFFFFFFFFFFFFFFFFFFFFFFFFFFFFFFFFF AND DUP4 DUP3 PUSH12 0xFFFFFFFFFFFFFFFFFFFFFFFF AND DUP2 SLOAD DUP2 LT PUSH2 0x176F JUMPI PUSH2 0x176E PUSH2 0x26A3 JUMP JUMPDEST JUMPDEST SWAP1 PUSH1 0x0 MSTORE PUSH1 0x20 PUSH1 0x0 KECCAK256 ADD PUSH1 0x0 SWAP1 SLOAD SWAP1 PUSH2 0x100 EXP SWAP1 DIV PUSH20 0xFFFFFFFFFFFFFFFFFFFFFFFFFFFFFFFFFFFFFFFF AND PUSH20 0xFFFFFFFFFFFFFFFFFFFFFFFFFFFFFFFFFFFFFFFF AND SUB PUSH2 0x17BE JUMPI PUSH1 0x0 SWAP2 POP PUSH2 0x17D1 JUMP JUMPDEST DUP1 DUP1 PUSH2 0x17C9 SWAP1 PUSH2 0x26D2 JUMP JUMPDEST SWAP2 POP POP PUSH2 0x171D JUMP JUMPDEST POP DUP1 ISZERO PUSH2 0x183B JUMPI DUP2 DUP7 SWAP1 DUP1 PUSH1 0x1 DUP2 SLOAD ADD DUP1 DUP3 SSTORE DUP1 SWAP2 POP POP PUSH1 0x1 SWAP1 SUB SWAP1 PUSH1 0x0 MSTORE PUSH1 0x20 PUSH1 0x0 KECCAK256 ADD PUSH1 0x0 SWAP1 SWAP2 SWAP1 SWAP2 SWAP1 SWAP2 PUSH2 0x100 EXP DUP2 SLOAD DUP2 PUSH20 0xFFFFFFFFFFFFFFFFFFFFFFFFFFFFFFFFFFFFFFFF MUL NOT AND SWAP1 DUP4 PUSH20 0xFFFFFFFFFFFFFFFFFFFFFFFFFFFFFFFFFFFFFFFF AND MUL OR SWAP1 SSTORE POP JUMPDEST POP POP POP POP POP POP JUMP JUMPDEST PUSH1 0x0 DUP1 PUSH1 0x14 SWAP1 SLOAD SWAP1 PUSH2 0x100 EXP SWAP1 DIV PUSH12 0xFFFFFFFFFFFFFFFFFFFFFFFF AND PUSH12 0xFFFFFFFFFFFFFFFFFFFFFFFF AND PUSH8 0xFFFFFFFFFFFFFFFF DUP2 GT ISZERO PUSH2 0x1886 JUMPI PUSH2 0x1885 PUSH2 0x2674 JUMP JUMPDEST JUMPDEST PUSH1 0x40 MLOAD SWAP1 DUP1 DUP3 MSTORE DUP1 PUSH1 0x20 MUL PUSH1 0x20 ADD DUP3 ADD PUSH1 0x40 MSTORE DUP1 ISZERO PUSH2 0x18B4 JUMPI DUP2 PUSH1 0x20 ADD PUSH1 0x20 DUP3 MUL DUP1 CALLDATASIZE DUP4 CALLDATACOPY DUP1 DUP3 ADD SWAP2 POP POP SWAP1 POP JUMPDEST POP SWAP1 POP PUSH1 0x0 DUP1 PUSH1 0x0 SWAP1 POP JUMPDEST PUSH1 0x0 PUSH1 0x14 SWAP1 SLOAD SWAP1 PUSH2 0x100 EXP SWAP1 DIV PUSH12 0xFFFFFFFFFFFFFFFFFFFFFFFF AND PUSH12 0xFFFFFFFFFFFFFFFFFFFFFFFF AND DUP2 PUSH12 0xFFFFFFFFFFFFFFFFFFFFFFFF AND LT ISZERO PUSH2 0x1C44 JUMPI PUSH1 0x1 ISZERO ISZERO PUSH1 0x1 PUSH1 0x0 DUP4 PUSH12 0xFFFFFFFFFFFFFFFFFFFFFFFF AND PUSH12 0xFFFFFFFFFFFFFFFFFFFFFFFF AND DUP2 MSTORE PUSH1 0x20 ADD SWAP1 DUP2 MSTORE PUSH1 0x20 ADD PUSH1 0x0 KECCAK256 PUSH1 0x4 ADD PUSH1 0x0 SWAP1 SLOAD SWAP1 PUSH2 0x100 EXP SWAP1 DIV PUSH1 0xFF AND ISZERO ISZERO SUB ISZERO PUSH2 0x1C31 JUMPI PUSH1 0x0 DUP1 PUSH1 0x2 PUSH1 0x0 DUP5 PUSH12 0xFFFFFFFFFFFFFFFFFFFFFFFF AND PUSH12 0xFFFFFFFFFFFFFFFFFFFFFFFF AND DUP2 MSTORE PUSH1 0x20 ADD SWAP1 DUP2 MSTORE PUSH1 0x20 ADD PUSH1 0x0 KECCAK256 DUP1 SLOAD DUP1 PUSH1 0x20 MUL PUSH1 0x20 ADD PUSH1 0x40 MLOAD SWAP1 DUP2 ADD PUSH1 0x40 MSTORE DUP1 SWAP3 SWAP2 SWAP1 DUP2 DUP2 MSTORE PUSH1 0x20 ADD DUP3 DUP1 SLOAD DUP1 ISZERO PUSH2 0x19FB JUMPI PUSH1 0x20 MUL DUP3 ADD SWAP2 SWAP1 PUSH1 0x0 MSTORE PUSH1 0x20 PUSH1 0x0 KECCAK256 SWAP1 JUMPDEST DUP2 PUSH1 0x0 SWAP1 SLOAD SWAP1 PUSH2 0x100 EXP SWAP1 DIV PUSH20 0xFFFFFFFFFFFFFFFFFFFFFFFFFFFFFFFFFFFFFFFF AND PUSH20 0xFFFFFFFFFFFFFFFFFFFFFFFFFFFFFFFFFFFFFFFF AND DUP2 MSTORE PUSH1 0x20 ADD SWAP1 PUSH1 0x1 ADD SWAP1 DUP1 DUP4 GT PUSH2 0x19B1 JUMPI JUMPDEST POP POP POP POP POP SWAP1 POP PUSH1 0x0 JUMPDEST DUP2 MLOAD DUP2 PUSH12 0xFFFFFFFFFFFFFFFFFFFFFFFF AND LT ISZERO PUSH2 0x1BE2 JUMPI PUSH1 0x0 DUP1 PUSH1 0x0 SWAP1 POP JUMPDEST PUSH1 0x3 PUSH1 0x0 DUP8 PUSH12 0xFFFFFFFFFFFFFFFFFFFFFFFF AND PUSH12 0xFFFFFFFFFFFFFFFFFFFFFFFF AND DUP2 MSTORE PUSH1 0x20 ADD SWAP1 DUP2 MSTORE PUSH1 0x20 ADD PUSH1 0x0 KECCAK256 PUSH1 0x0 DUP6 DUP6 PUSH12 0xFFFFFFFFFFFFFFFFFFFFFFFF AND DUP2 MLOAD DUP2 LT PUSH2 0x1A76 JUMPI PUSH2 0x1A75 PUSH2 0x26A3 JUMP JUMPDEST JUMPDEST PUSH1 0x20 MUL PUSH1 0x20 ADD ADD MLOAD PUSH20 0xFFFFFFFFFFFFFFFFFFFFFFFFFFFFFFFFFFFFFFFF AND PUSH20 0xFFFFFFFFFFFFFFFFFFFFFFFFFFFFFFFFFFFFFFFF AND DUP2 MSTORE PUSH1 0x20 ADD SWAP1 DUP2 MSTORE PUSH1 0x20 ADD PUSH1 0x0 KECCAK256 DUP1 SLOAD SWAP1 POP DUP2 PUSH12 0xFFFFFFFFFFFFFFFFFFFFFFFF AND LT ISZERO PUSH2 0x1BB7 JUMPI PUSH1 0x3 PUSH1 0x0 DUP8 PUSH12 0xFFFFFFFFFFFFFFFFFFFFFFFF AND PUSH12 0xFFFFFFFFFFFFFFFFFFFFFFFF AND DUP2 MSTORE PUSH1 0x20 ADD SWAP1 DUP2 MSTORE PUSH1 0x20 ADD PUSH1 0x0 KECCAK256 PUSH1 0x0 DUP6 DUP6 PUSH12 0xFFFFFFFFFFFFFFFFFFFFFFFF AND DUP2 MLOAD DUP2 LT PUSH2 0x1B23 JUMPI PUSH2 0x1B22 PUSH2 0x26A3 JUMP JUMPDEST JUMPDEST PUSH1 0x20 MUL PUSH1 0x20 ADD ADD MLOAD PUSH20 0xFFFFFFFFFFFFFFFFFFFFFFFFFFFFFFFFFFFFFFFF AND PUSH20 0xFFFFFFFFFFFFFFFFFFFFFFFFFFFFFFFFFFFFFFFF AND DUP2 MSTORE PUSH1 0x20 ADD SWAP1 DUP2 MSTORE PUSH1 0x20 ADD PUSH1 0x0 KECCAK256 DUP2 PUSH12 0xFFFFFFFFFFFFFFFFFFFFFFFF AND DUP2 SLOAD DUP2 LT PUSH2 0x1B85 JUMPI PUSH2 0x1B84 PUSH2 0x26A3 JUMP JUMPDEST JUMPDEST SWAP1 PUSH1 0x0 MSTORE PUSH1 0x20 PUSH1 0x0 KECCAK256 SWAP1 PUSH1 0x2 MUL ADD PUSH1 0x1 ADD SLOAD DUP3 PUSH2 0x1BA2 SWAP2 SWAP1 PUSH2 0x2A95 JUMP JUMPDEST SWAP2 POP DUP1 DUP1 PUSH2 0x1BAF SWAP1 PUSH2 0x26D2 JUMP JUMPDEST SWAP2 POP POP PUSH2 0x1A24 JUMP JUMPDEST POP PUSH2 0x1BC1 DUP2 PUSH2 0x1DAC JUMP JUMPDEST DUP5 PUSH2 0x1BCC SWAP2 SWAP1 PUSH2 0x2A95 JUMP JUMPDEST SWAP4 POP POP DUP1 DUP1 PUSH2 0x1BDA SWAP1 PUSH2 0x26D2 JUMP JUMPDEST SWAP2 POP POP PUSH2 0x1A05 JUMP JUMPDEST POP PUSH1 0x2 DUP3 PUSH2 0x1BF0 SWAP2 SWAP1 PUSH2 0x2C09 JUMP JUMPDEST SWAP2 POP DUP2 DUP6 DUP5 PUSH12 0xFFFFFFFFFFFFFFFFFFFFFFFF AND DUP2 MLOAD DUP2 LT PUSH2 0x1C14 JUMPI PUSH2 0x1C13 PUSH2 0x26A3 JUMP JUMPDEST JUMPDEST PUSH1 0x20 MUL PUSH1 0x20 ADD ADD DUP2 DUP2 MSTORE POP POP DUP2 DUP5 PUSH2 0x1C2C SWAP2 SWAP1 PUSH2 0x2A95 JUMP JUMPDEST SWAP4 POP POP POP JUMPDEST DUP1 DUP1 PUSH2 0x1C3C SWAP1 PUSH2 0x26D2 JUMP JUMPDEST SWAP2 POP POP PUSH2 0x18BF JUMP JUMPDEST POP PUSH1 0x0 JUMPDEST PUSH1 0x0 PUSH1 0x14 SWAP1 SLOAD SWAP1 PUSH2 0x100 EXP SWAP1 DIV PUSH12 0xFFFFFFFFFFFFFFFFFFFFFFFF AND PUSH12 0xFFFFFFFFFFFFFFFFFFFFFFFF AND DUP2 PUSH12 0xFFFFFFFFFFFFFFFFFFFFFFFF AND LT ISZERO PUSH2 0x1DA7 JUMPI DUP2 PUSH1 0x0 DUP1 SLOAD SWAP1 PUSH2 0x100 EXP SWAP1 DIV PUSH20 0xFFFFFFFFFFFFFFFFFFFFFFFFFFFFFFFFFFFFFFFF AND PUSH20 0xFFFFFFFFFFFFFFFFFFFFFFFFFFFFFFFFFFFFFFFF AND PUSH4 0x70A08231 ADDRESS PUSH1 0x40 MLOAD DUP3 PUSH4 0xFFFFFFFF AND PUSH1 0xE0 SHL DUP2 MSTORE PUSH1 0x4 ADD PUSH2 0x1CE0 SWAP2 SWAP1 PUSH2 0x22DD JUMP JUMPDEST PUSH1 0x20 PUSH1 0x40 MLOAD DUP1 DUP4 SUB DUP2 DUP7 GAS STATICCALL ISZERO DUP1 ISZERO PUSH2 0x1CFD JUMPI RETURNDATASIZE PUSH1 0x0 DUP1 RETURNDATACOPY RETURNDATASIZE PUSH1 0x0 REVERT JUMPDEST POP POP POP POP PUSH1 0x40 MLOAD RETURNDATASIZE PUSH1 0x1F NOT PUSH1 0x1F DUP3 ADD AND DUP3 ADD DUP1 PUSH1 0x40 MSTORE POP DUP2 ADD SWAP1 PUSH2 0x1D21 SWAP2 SWAP1 PUSH2 0x289E JUMP JUMPDEST DUP5 DUP4 PUSH12 0xFFFFFFFFFFFFFFFFFFFFFFFF AND DUP2 MLOAD DUP2 LT PUSH2 0x1D42 JUMPI PUSH2 0x1D41 PUSH2 0x26A3 JUMP JUMPDEST JUMPDEST PUSH1 0x20 MUL PUSH1 0x20 ADD ADD MLOAD PUSH2 0x1D54 SWAP2 SWAP1 PUSH2 0x2C54 JUMP JUMPDEST PUSH2 0x1D5E SWAP2 SWAP1 PUSH2 0x2CC5 JUMP JUMPDEST PUSH1 0x1 PUSH1 0x0 DUP4 PUSH12 0xFFFFFFFFFFFFFFFFFFFFFFFF AND PUSH12 0xFFFFFFFFFFFFFFFFFFFFFFFF AND DUP2 MSTORE PUSH1 0x20 ADD SWAP1 DUP2 MSTORE PUSH1 0x20 ADD PUSH1 0x0 KECCAK256 PUSH1 0x3 ADD DUP2 SWAP1 SSTORE POP DUP1 DUP1 PUSH2 0x1D9F SWAP1 PUSH2 0x26D2 JUMP JUMPDEST SWAP2 POP POP PUSH2 0x1C48 JUMP JUMPDEST POP POP POP JUMP JUMPDEST PUSH1 0x0 DUP1 PUSH1 0x2 PUSH1 0x1 DUP5 PUSH2 0x1DBE SWAP2 SWAP1 PUSH2 0x2A95 JUMP JUMPDEST PUSH2 0x1DC8 SWAP2 SWAP1 PUSH2 0x2CC5 JUMP JUMPDEST SWAP1 POP DUP3 SWAP2 POP JUMPDEST DUP2 DUP2 LT ISZERO PUSH2 0x1E03 JUMPI DUP1 SWAP2 POP PUSH1 0x2 DUP2 DUP3 DUP6 PUSH2 0x1DE8 SWAP2 SWAP1 PUSH2 0x2CC5 JUMP JUMPDEST PUSH2 0x1DF2 SWAP2 SWAP1 PUSH2 0x2A95 JUMP JUMPDEST PUSH2 0x1DFC SWAP2 SWAP1 PUSH2 0x2CC5 JUMP JUMPDEST SWAP1 POP PUSH2 0x1DCE JUMP JUMPDEST POP SWAP2 SWAP1 POP JUMP JUMPDEST PUSH1 0x40 MLOAD DUP1 PUSH2 0x100 ADD PUSH1 0x40 MSTORE DUP1 PUSH1 0x0 PUSH12 0xFFFFFFFFFFFFFFFFFFFFFFFF AND DUP2 MSTORE PUSH1 0x20 ADD PUSH1 0x0 PUSH20 0xFFFFFFFFFFFFFFFFFFFFFFFFFFFFFFFFFFFFFFFF AND DUP2 MSTORE PUSH1 0x20 ADD PUSH1 0x0 PUSH6 0xFFFFFFFFFFFF AND DUP2 MSTORE PUSH1 0x20 ADD PUSH1 0x0 PUSH6 0xFFFFFFFFFFFF AND DUP2 MSTORE PUSH1 0x20 ADD PUSH1 0x0 PUSH20 0xFFFFFFFFFFFFFFFFFFFFFFFFFFFFFFFFFFFFFFFF AND DUP2 MSTORE PUSH1 0x20 ADD PUSH1 0x0 DUP2 MSTORE PUSH1 0x20 ADD PUSH1 0x0 DUP2 MSTORE PUSH1 0x20 ADD PUSH1 0x0 ISZERO ISZERO DUP2 MSTORE POP SWAP1 JUMP JUMPDEST PUSH1 0x0 DUP1 REVERT JUMPDEST PUSH1 0x0 PUSH20 0xFFFFFFFFFFFFFFFFFFFFFFFFFFFFFFFFFFFFFFFF DUP3 AND SWAP1 POP SWAP2 SWAP1 POP JUMP JUMPDEST PUSH1 0x0 PUSH2 0x1ECA DUP3 PUSH2 0x1E9F JUMP JUMPDEST SWAP1 POP SWAP2 SWAP1 POP JUMP JUMPDEST PUSH2 0x1EDA DUP2 PUSH2 0x1EBF JUMP JUMPDEST DUP2 EQ PUSH2 0x1EE5 JUMPI PUSH1 0x0 DUP1 REVERT JUMPDEST POP JUMP JUMPDEST PUSH1 0x0 DUP2 CALLDATALOAD SWAP1 POP PUSH2 0x1EF7 DUP2 PUSH2 0x1ED1 JUMP JUMPDEST SWAP3 SWAP2 POP POP JUMP JUMPDEST PUSH1 0x0 DUP2 SWAP1 POP SWAP2 SWAP1 POP JUMP JUMPDEST PUSH2 0x1F10 DUP2 PUSH2 0x1EFD JUMP JUMPDEST DUP2 EQ PUSH2 0x1F1B JUMPI PUSH1 0x0 DUP1 REVERT JUMPDEST POP JUMP JUMPDEST PUSH1 0x0 DUP2 CALLDATALOAD SWAP1 POP PUSH2 0x1F2D DUP2 PUSH2 0x1F07 JUMP JUMPDEST SWAP3 SWAP2 POP POP JUMP JUMPDEST PUSH1 0x0 DUP1 PUSH1 0x0 PUSH1 0x60 DUP5 DUP7 SUB SLT ISZERO PUSH2 0x1F4C JUMPI PUSH2 0x1F4B PUSH2 0x1E9A JUMP JUMPDEST JUMPDEST PUSH1 0x0 PUSH2 0x1F5A DUP7 DUP3 DUP8 ADD PUSH2 0x1EE8 JUMP JUMPDEST SWAP4 POP POP PUSH1 0x20 PUSH2 0x1F6B DUP7 DUP3 DUP8 ADD PUSH2 0x1EE8 JUMP JUMPDEST SWAP3 POP POP PUSH1 0x40 PUSH2 0x1F7C DUP7 DUP3 DUP8 ADD PUSH2 0x1F1E JUMP JUMPDEST SWAP2 POP POP SWAP3 POP SWAP3 POP SWAP3 JUMP JUMPDEST PUSH1 0x0 DUP2 MLOAD SWAP1 POP SWAP2 SWAP1 POP JUMP JUMPDEST PUSH1 0x0 DUP3 DUP3 MSTORE PUSH1 0x20 DUP3 ADD SWAP1 POP SWAP3 SWAP2 POP POP JUMP JUMPDEST PUSH1 0x0 DUP2 SWAP1 POP PUSH1 0x20 DUP3 ADD SWAP1 POP SWAP2 SWAP1 POP JUMP JUMPDEST PUSH1 0x0 PUSH12 0xFFFFFFFFFFFFFFFFFFFFFFFF DUP3 AND SWAP1 POP SWAP2 SWAP1 POP JUMP JUMPDEST PUSH2 0x1FD3 DUP2 PUSH2 0x1FB2 JUMP JUMPDEST DUP3 MSTORE POP POP JUMP JUMPDEST PUSH2 0x1FE2 DUP2 PUSH2 0x1EBF JUMP JUMPDEST DUP3 MSTORE POP POP JUMP JUMPDEST PUSH1 0x0 PUSH6 0xFFFFFFFFFFFF DUP3 AND SWAP1 POP SWAP2 SWAP1 POP JUMP JUMPDEST PUSH2 0x2003 DUP2 PUSH2 0x1FE8 JUMP JUMPDEST DUP3 MSTORE POP POP JUMP JUMPDEST PUSH2 0x2012 DUP2 PUSH2 0x1EFD JUMP JUMPDEST DUP3 MSTORE POP POP JUMP JUMPDEST PUSH1 0x0 DUP2 ISZERO ISZERO SWAP1 POP SWAP2 SWAP1 POP JUMP JUMPDEST PUSH2 0x202D DUP2 PUSH2 0x2018 JUMP JUMPDEST DUP3 MSTORE POP POP JUMP JUMPDEST PUSH2 0x100 DUP3 ADD PUSH1 0x0 DUP3 ADD MLOAD PUSH2 0x204A PUSH1 0x0 DUP6 ADD DUP3 PUSH2 0x1FCA JUMP JUMPDEST POP PUSH1 0x20 DUP3 ADD MLOAD PUSH2 0x205D PUSH1 0x20 DUP6 ADD DUP3 PUSH2 0x1FD9 JUMP JUMPDEST POP PUSH1 0x40 DUP3 ADD MLOAD PUSH2 0x2070 PUSH1 0x40 DUP6 ADD DUP3 PUSH2 0x1FFA JUMP JUMPDEST POP PUSH1 0x60 DUP3 ADD MLOAD PUSH2 0x2083 PUSH1 0x60 DUP6 ADD DUP3 PUSH2 0x1FFA JUMP JUMPDEST POP PUSH1 0x80 DUP3 ADD MLOAD PUSH2 0x2096 PUSH1 0x80 DUP6 ADD DUP3 PUSH2 0x1FD9 JUMP JUMPDEST POP PUSH1 0xA0 DUP3 ADD MLOAD PUSH2 0x20A9 PUSH1 0xA0 DUP6 ADD DUP3 PUSH2 0x2009 JUMP JUMPDEST POP PUSH1 0xC0 DUP3 ADD MLOAD PUSH2 0x20BC PUSH1 0xC0 DUP6 ADD DUP3 PUSH2 0x2009 JUMP JUMPDEST POP PUSH1 0xE0 DUP3 ADD MLOAD PUSH2 0x20CF PUSH1 0xE0 DUP6 ADD DUP3 PUSH2 0x2024 JUMP JUMPDEST POP POP POP POP JUMP JUMPDEST PUSH1 0x0 PUSH2 0x20E1 DUP4 DUP4 PUSH2 0x2033 JUMP JUMPDEST PUSH2 0x100 DUP4 ADD SWAP1 POP SWAP3 SWAP2 POP POP JUMP JUMPDEST PUSH1 0x0 PUSH1 0x20 DUP3 ADD SWAP1 POP SWAP2 SWAP1 POP JUMP JUMPDEST PUSH1 0x0 PUSH2 0x2106 DUP3 PUSH2 0x1F86 JUMP JUMPDEST PUSH2 0x2110 DUP2 DUP6 PUSH2 0x1F91 JUMP JUMPDEST SWAP4 POP PUSH2 0x211B DUP4 PUSH2 0x1FA2 JUMP JUMPDEST DUP1 PUSH1 0x0 JUMPDEST DUP4 DUP2 LT ISZERO PUSH2 0x214C JUMPI DUP2 MLOAD PUSH2 0x2133 DUP9 DUP3 PUSH2 0x20D5 JUMP JUMPDEST SWAP8 POP PUSH2 0x213E DUP4 PUSH2 0x20EE JUMP JUMPDEST SWAP3 POP POP PUSH1 0x1 DUP2 ADD SWAP1 POP PUSH2 0x211F JUMP JUMPDEST POP DUP6 SWAP4 POP POP POP POP SWAP3 SWAP2 POP POP JUMP JUMPDEST PUSH1 0x0 PUSH1 0x20 DUP3 ADD SWAP1 POP DUP2 DUP2 SUB PUSH1 0x0 DUP4 ADD MSTORE PUSH2 0x2173 DUP2 DUP5 PUSH2 0x20FB JUMP JUMPDEST SWAP1 POP SWAP3 SWAP2 POP POP JUMP JUMPDEST PUSH2 0x2184 DUP2 PUSH2 0x1FB2 JUMP JUMPDEST DUP2 EQ PUSH2 0x218F JUMPI PUSH1 0x0 DUP1 REVERT JUMPDEST POP JUMP JUMPDEST PUSH1 0x0 DUP2 CALLDATALOAD SWAP1 POP PUSH2 0x21A1 DUP2 PUSH2 0x217B JUMP JUMPDEST SWAP3 SWAP2 POP POP JUMP JUMPDEST PUSH1 0x0 PUSH1 0x20 DUP3 DUP5 SUB SLT ISZERO PUSH2 0x21BD JUMPI PUSH2 0x21BC PUSH2 0x1E9A JUMP JUMPDEST JUMPDEST PUSH1 0x0 PUSH2 0x21CB DUP5 DUP3 DUP6 ADD PUSH2 0x2192 JUMP JUMPDEST SWAP2 POP POP SWAP3 SWAP2 POP POP JUMP JUMPDEST PUSH2 0x21DD DUP2 PUSH2 0x1FB2 JUMP JUMPDEST DUP3 MSTORE POP POP JUMP JUMPDEST PUSH2 0x21EC DUP2 PUSH2 0x1EBF JUMP JUMPDEST DUP3 MSTORE POP POP JUMP JUMPDEST PUSH2 0x21FB DUP2 PUSH2 0x1FE8 JUMP JUMPDEST DUP3 MSTORE POP POP JUMP JUMPDEST PUSH2 0x220A DUP2 PUSH2 0x1EFD JUMP JUMPDEST DUP3 MSTORE POP POP JUMP JUMPDEST PUSH2 0x2219 DUP2 PUSH2 0x2018 JUMP JUMPDEST DUP3 MSTORE POP POP JUMP JUMPDEST PUSH1 0x0 PUSH2 0x100 DUP3 ADD SWAP1 POP PUSH2 0x2235 PUSH1 0x0 DUP4 ADD DUP12 PUSH2 0x21D4 JUMP JUMPDEST PUSH2 0x2242 PUSH1 0x20 DUP4 ADD DUP11 PUSH2 0x21E3 JUMP JUMPDEST PUSH2 0x224F PUSH1 0x40 DUP4 ADD DUP10 PUSH2 0x21F2 JUMP JUMPDEST PUSH2 0x225C PUSH1 0x60 DUP4 ADD DUP9 PUSH2 0x21F2 JUMP JUMPDEST PUSH2 0x2269 PUSH1 0x80 DUP4 ADD DUP8 PUSH2 0x21E3 JUMP JUMPDEST PUSH2 0x2276 PUSH1 0xA0 DUP4 ADD DUP7 PUSH2 0x2201 JUMP JUMPDEST PUSH2 0x2283 PUSH1 0xC0 DUP4 ADD DUP6 PUSH2 0x2201 JUMP JUMPDEST PUSH2 0x2290 PUSH1 0xE0 DUP4 ADD DUP5 PUSH2 0x2210 JUMP JUMPDEST SWAP10 SWAP9 POP POP POP POP POP POP POP POP POP JUMP JUMPDEST PUSH1 0x0 DUP1 PUSH1 0x40 DUP4 DUP6 SUB SLT ISZERO PUSH2 0x22B4 JUMPI PUSH2 0x22B3 PUSH2 0x1E9A JUMP JUMPDEST JUMPDEST PUSH1 0x0 PUSH2 0x22C2 DUP6 DUP3 DUP7 ADD PUSH2 0x2192 JUMP JUMPDEST SWAP3 POP POP PUSH1 0x20 PUSH2 0x22D3 DUP6 DUP3 DUP7 ADD PUSH2 0x1F1E JUMP JUMPDEST SWAP2 POP POP SWAP3 POP SWAP3 SWAP1 POP JUMP JUMPDEST PUSH1 0x0 PUSH1 0x20 DUP3 ADD SWAP1 POP PUSH2 0x22F2 PUSH1 0x0 DUP4 ADD DUP5 PUSH2 0x21E3 JUMP JUMPDEST SWAP3 SWAP2 POP POP JUMP JUMPDEST PUSH1 0x0 DUP1 PUSH1 0x40 DUP4 DUP6 SUB SLT ISZERO PUSH2 0x230F JUMPI PUSH2 0x230E PUSH2 0x1E9A JUMP JUMPDEST JUMPDEST PUSH1 0x0 PUSH2 0x231D DUP6 DUP3 DUP7 ADD PUSH2 0x2192 JUMP JUMPDEST SWAP3 POP POP PUSH1 0x20 PUSH2 0x232E DUP6 DUP3 DUP7 ADD PUSH2 0x2192 JUMP JUMPDEST SWAP2 POP POP SWAP3 POP SWAP3 SWAP1 POP JUMP JUMPDEST PUSH1 0x0 PUSH1 0x20 DUP3 ADD SWAP1 POP PUSH2 0x234D PUSH1 0x0 DUP4 ADD DUP5 PUSH2 0x21D4 JUMP JUMPDEST SWAP3 SWAP2 POP POP JUMP JUMPDEST PUSH1 0x0 DUP1 PUSH1 0x0 PUSH1 0x60 DUP5 DUP7 SUB SLT ISZERO PUSH2 0x236C JUMPI PUSH2 0x236B PUSH2 0x1E9A JUMP JUMPDEST JUMPDEST PUSH1 0x0 PUSH2 0x237A DUP7 DUP3 DUP8 ADD PUSH2 0x2192 JUMP JUMPDEST SWAP4 POP POP PUSH1 0x20 PUSH2 0x238B DUP7 DUP3 DUP8 ADD PUSH2 0x1EE8 JUMP JUMPDEST SWAP3 POP POP PUSH1 0x40 PUSH2 0x239C DUP7 DUP3 DUP8 ADD PUSH2 0x1F1E JUMP JUMPDEST SWAP2 POP POP SWAP3 POP SWAP3 POP SWAP3 JUMP JUMPDEST PUSH1 0x0 PUSH1 0x60 DUP3 ADD SWAP1 POP PUSH2 0x23BB PUSH1 0x0 DUP4 ADD DUP7 PUSH2 0x21E3 JUMP JUMPDEST PUSH2 0x23C8 PUSH1 0x20 DUP4 ADD DUP6 PUSH2 0x21D4 JUMP JUMPDEST PUSH2 0x23D5 PUSH1 0x40 DUP4 ADD DUP5 PUSH2 0x2201 JUMP JUMPDEST SWAP5 SWAP4 POP POP POP POP JUMP JUMPDEST PUSH1 0x0 DUP1 PUSH1 0x0 PUSH1 0x60 DUP5 DUP7 SUB SLT ISZERO PUSH2 0x23F6 JUMPI PUSH2 0x23F5 PUSH2 0x1E9A JUMP JUMPDEST JUMPDEST PUSH1 0x0 PUSH2 0x2404 DUP7 DUP3 DUP8 ADD PUSH2 0x1EE8 JUMP JUMPDEST SWAP4 POP POP PUSH1 0x20 PUSH2 0x2415 DUP7 DUP3 DUP8 ADD PUSH2 0x2192 JUMP JUMPDEST SWAP3 POP POP PUSH1 0x40 PUSH2 0x2426 DUP7 DUP3 DUP8 ADD PUSH2 0x1F1E JUMP JUMPDEST SWAP2 POP POP SWAP3 POP SWAP3 POP SWAP3 JUMP JUMPDEST PUSH1 0x0 DUP1 PUSH1 0x0 DUP1 PUSH1 0x80 DUP6 DUP8 SUB SLT ISZERO PUSH2 0x244A JUMPI PUSH2 0x2449 PUSH2 0x1E9A JUMP JUMPDEST JUMPDEST PUSH1 0x0 PUSH2 0x2458 DUP8 DUP3 DUP9 ADD PUSH2 0x2192 JUMP JUMPDEST SWAP5 POP POP PUSH1 0x20 PUSH2 0x2469 DUP8 DUP3 DUP9 ADD PUSH2 0x1EE8 JUMP JUMPDEST SWAP4 POP POP PUSH1 0x40 PUSH2 0x247A DUP8 DUP3 DUP9 ADD PUSH2 0x1EE8 JUMP JUMPDEST SWAP3 POP POP PUSH1 0x60 PUSH2 0x248B DUP8 DUP3 DUP9 ADD PUSH2 0x1F1E JUMP JUMPDEST SWAP2 POP POP SWAP3 SWAP6 SWAP2 SWAP5 POP SWAP3 POP JUMP JUMPDEST PUSH1 0x0 PUSH1 0x80 DUP3 ADD SWAP1 POP PUSH2 0x24AC PUSH1 0x0 DUP4 ADD DUP8 PUSH2 0x21E3 JUMP JUMPDEST PUSH2 0x24B9 PUSH1 0x20 DUP4 ADD DUP7 PUSH2 0x21E3 JUMP JUMPDEST PUSH2 0x24C6 PUSH1 0x40 DUP4 ADD DUP6 PUSH2 0x2210 JUMP JUMPDEST PUSH2 0x24D3 PUSH1 0x60 DUP4 ADD DUP5 PUSH2 0x2201 JUMP JUMPDEST SWAP6 SWAP5 POP POP POP POP POP JUMP JUMPDEST PUSH32 0x4E487B7100000000000000000000000000000000000000000000000000000000 PUSH1 0x0 MSTORE PUSH1 0x11 PUSH1 0x4 MSTORE PUSH1 0x24 PUSH1 0x0 REVERT JUMPDEST PUSH1 0x0 PUSH2 0x2516 DUP3 PUSH2 0x1FB2 JUMP JUMPDEST SWAP2 POP PUSH2 0x2521 DUP4 PUSH2 0x1FB2 JUMP JUMPDEST SWAP3 POP DUP3 DUP3 ADD SWAP1 POP PUSH12 0xFFFFFFFFFFFFFFFFFFFFFFFF DUP2 GT ISZERO PUSH2 0x2545 JUMPI PUSH2 0x2544 PUSH2 0x24DC JUMP JUMPDEST JUMPDEST SWAP3 SWAP2 POP POP JUMP JUMPDEST PUSH1 0x0 DUP3 DUP3 MSTORE PUSH1 0x20 DUP3 ADD SWAP1 POP SWAP3 SWAP2 POP POP JUMP JUMPDEST PUSH32 0x4D757374206265205F656E644964203C3D2066756E64436F756E740000000000 PUSH1 0x0 DUP3 ADD MSTORE POP JUMP JUMPDEST PUSH1 0x0 PUSH2 0x2592 PUSH1 0x1B DUP4 PUSH2 0x254B JUMP JUMPDEST SWAP2 POP PUSH2 0x259D DUP3 PUSH2 0x255C JUMP JUMPDEST PUSH1 0x20 DUP3 ADD SWAP1 POP SWAP2 SWAP1 POP JUMP JUMPDEST PUSH1 0x0 PUSH1 0x20 DUP3 ADD SWAP1 POP DUP2 DUP2 SUB PUSH1 0x0 DUP4 ADD MSTORE PUSH2 0x25C1 DUP2 PUSH2 0x2585 JUMP JUMPDEST SWAP1 POP SWAP2 SWAP1 POP JUMP JUMPDEST PUSH32 0x4D757374206265205F73746172744964203C3D205F656E644964000000000000 PUSH1 0x0 DUP3 ADD MSTORE POP JUMP JUMPDEST PUSH1 0x0 PUSH2 0x25FE PUSH1 0x1A DUP4 PUSH2 0x254B JUMP JUMPDEST SWAP2 POP PUSH2 0x2609 DUP3 PUSH2 0x25C8 JUMP JUMPDEST PUSH1 0x20 DUP3 ADD SWAP1 POP SWAP2 SWAP1 POP JUMP JUMPDEST PUSH1 0x0 PUSH1 0x20 DUP3 ADD SWAP1 POP DUP2 DUP2 SUB PUSH1 0x0 DUP4 ADD MSTORE PUSH2 0x262D DUP2 PUSH2 0x25F1 JUMP JUMPDEST SWAP1 POP SWAP2 SWAP1 POP JUMP JUMPDEST PUSH1 0x0 PUSH2 0x263F DUP3 PUSH2 0x1FB2 JUMP JUMPDEST SWAP2 POP PUSH2 0x264A DUP4 PUSH2 0x1FB2 JUMP JUMPDEST SWAP3 POP DUP3 DUP3 SUB SWAP1 POP PUSH12 0xFFFFFFFFFFFFFFFFFFFFFFFF DUP2 GT ISZERO PUSH2 0x266E JUMPI PUSH2 0x266D PUSH2 0x24DC JUMP JUMPDEST JUMPDEST SWAP3 SWAP2 POP POP JUMP JUMPDEST PUSH32 0x4E487B7100000000000000000000000000000000000000000000000000000000 PUSH1 0x0 MSTORE PUSH1 0x41 PUSH1 0x4 MSTORE PUSH1 0x24 PUSH1 0x0 REVERT JUMPDEST PUSH32 0x4E487B7100000000000000000000000000000000000000000000000000000000 PUSH1 0x0 MSTORE PUSH1 0x32 PUSH1 0x4 MSTORE PUSH1 0x24 PUSH1 0x0 REVERT JUMPDEST PUSH1 0x0 PUSH2 0x26DD DUP3 PUSH2 0x1FB2 JUMP JUMPDEST SWAP2 POP PUSH12 0xFFFFFFFFFFFFFFFFFFFFFFFF DUP3 SUB PUSH2 0x26FB JUMPI PUSH2 0x26FA PUSH2 0x24DC JUMP JUMPDEST JUMPDEST PUSH1 0x1 DUP3 ADD SWAP1 POP SWAP2 SWAP1 POP JUMP JUMPDEST PUSH32 0x4D757374206265205F6964203C2066756E64436F756E74000000000000000000 PUSH1 0x0 DUP3 ADD MSTORE POP JUMP JUMPDEST PUSH1 0x0 PUSH2 0x273C PUSH1 0x17 DUP4 PUSH2 0x254B JUMP JUMPDEST SWAP2 POP PUSH2 0x2747 DUP3 PUSH2 0x2706 JUMP JUMPDEST PUSH1 0x20 DUP3 ADD SWAP1 POP SWAP2 SWAP1 POP JUMP JUMPDEST PUSH1 0x0 PUSH1 0x20 DUP3 ADD SWAP1 POP DUP2 DUP2 SUB PUSH1 0x0 DUP4 ADD MSTORE PUSH2 0x276B DUP2 PUSH2 0x272F JUMP JUMPDEST SWAP1 POP SWAP2 SWAP1 POP JUMP JUMPDEST PUSH1 0x0 PUSH1 0x40 DUP3 ADD SWAP1 POP PUSH2 0x2787 PUSH1 0x0 DUP4 ADD DUP6 PUSH2 0x21E3 JUMP JUMPDEST PUSH2 0x2794 PUSH1 0x20 DUP4 ADD DUP5 PUSH2 0x2201 JUMP JUMPDEST SWAP4 SWAP3 POP POP POP JUMP JUMPDEST PUSH2 0x27A4 DUP2 PUSH2 0x2018 JUMP JUMPDEST DUP2 EQ PUSH2 0x27AF JUMPI PUSH1 0x0 DUP1 REVERT JUMPDEST POP JUMP JUMPDEST PUSH1 0x0 DUP2 MLOAD SWAP1 POP PUSH2 0x27C1 DUP2 PUSH2 0x279B JUMP JUMPDEST SWAP3 SWAP2 POP POP JUMP JUMPDEST PUSH1 0x0 PUSH1 0x20 DUP3 DUP5 SUB SLT ISZERO PUSH2 0x27DD JUMPI PUSH2 0x27DC PUSH2 0x1E9A JUMP JUMPDEST JUMPDEST PUSH1 0x0 PUSH2 0x27EB DUP5 DUP3 DUP6 ADD PUSH2 0x27B2 JUMP JUMPDEST SWAP2 POP POP SWAP3 SWAP2 POP POP JUMP JUMPDEST PUSH1 0x0 PUSH1 0x40 DUP3 ADD SWAP1 POP PUSH2 0x2809 PUSH1 0x0 DUP4 ADD DUP6 PUSH2 0x2201 JUMP JUMPDEST PUSH2 0x2816 PUSH1 0x20 DUP4 ADD DUP5 PUSH2 0x2201 JUMP JUMPDEST SWAP4 SWAP3 POP POP POP JUMP JUMPDEST PUSH32 0x46756E6420557064617465206E6F7420617574686F72697A6564000000000000 PUSH1 0x0 DUP3 ADD MSTORE POP JUMP JUMPDEST PUSH1 0x0 PUSH2 0x2853 PUSH1 0x1A DUP4 PUSH2 0x254B JUMP JUMPDEST SWAP2 POP PUSH2 0x285E DUP3 PUSH2 0x281D JUMP JUMPDEST PUSH1 0x20 DUP3 ADD SWAP1 POP SWAP2 SWAP1 POP JUMP JUMPDEST PUSH1 0x0 PUSH1 0x20 DUP3 ADD SWAP1 POP DUP2 DUP2 SUB PUSH1 0x0 DUP4 ADD MSTORE PUSH2 0x2882 DUP2 PUSH2 0x2846 JUMP JUMPDEST SWAP1 POP SWAP2 SWAP1 POP JUMP JUMPDEST PUSH1 0x0 DUP2 MLOAD SWAP1 POP PUSH2 0x2898 DUP2 PUSH2 0x1F07 JUMP JUMPDEST SWAP3 SWAP2 POP POP JUMP JUMPDEST PUSH1 0x0 PUSH1 0x20 DUP3 DUP5 SUB SLT ISZERO PUSH2 0x28B4 JUMPI PUSH2 0x28B3 PUSH2 0x1E9A JUMP JUMPDEST JUMPDEST PUSH1 0x0 PUSH2 0x28C2 DUP5 DUP3 DUP6 ADD PUSH2 0x2889 JUMP JUMPDEST SWAP2 POP POP SWAP3 SWAP2 POP POP JUMP JUMPDEST PUSH32 0x746F6B656E20616D6F756E74206F662075736572206E6F742073756666696369 PUSH1 0x0 DUP3 ADD MSTORE PUSH32 0x656E740000000000000000000000000000000000000000000000000000000000 PUSH1 0x20 DUP3 ADD MSTORE POP JUMP JUMPDEST PUSH1 0x0 PUSH2 0x2927 PUSH1 0x23 DUP4 PUSH2 0x254B JUMP JUMPDEST SWAP2 POP PUSH2 0x2932 DUP3 PUSH2 0x28CB JUMP JUMPDEST PUSH1 0x40 DUP3 ADD SWAP1 POP SWAP2 SWAP1 POP JUMP JUMPDEST PUSH1 0x0 PUSH1 0x20 DUP3 ADD SWAP1 POP DUP2 DUP2 SUB PUSH1 0x0 DUP4 ADD MSTORE PUSH2 0x2956 DUP2 PUSH2 0x291A JUMP JUMPDEST SWAP1 POP SWAP2 SWAP1 POP JUMP JUMPDEST PUSH1 0x0 PUSH1 0x40 DUP3 ADD SWAP1 POP PUSH2 0x2972 PUSH1 0x0 DUP4 ADD DUP6 PUSH2 0x21E3 JUMP JUMPDEST PUSH2 0x297F PUSH1 0x20 DUP4 ADD DUP5 PUSH2 0x21E3 JUMP JUMPDEST SWAP4 SWAP3 POP POP POP JUMP JUMPDEST PUSH32 0x746F6B656E20616C6C6F77616E63652073686F72746167650000000000000000 PUSH1 0x0 DUP3 ADD MSTORE POP JUMP JUMPDEST PUSH1 0x0 PUSH2 0x29BC PUSH1 0x18 DUP4 PUSH2 0x254B JUMP JUMPDEST SWAP2 POP PUSH2 0x29C7 DUP3 PUSH2 0x2986 JUMP JUMPDEST PUSH1 0x20 DUP3 ADD SWAP1 POP SWAP2 SWAP1 POP JUMP JUMPDEST PUSH1 0x0 PUSH1 0x20 DUP3 ADD SWAP1 POP DUP2 DUP2 SUB PUSH1 0x0 DUP4 ADD MSTORE PUSH2 0x29EB DUP2 PUSH2 0x29AF JUMP JUMPDEST SWAP1 POP SWAP2 SWAP1 POP JUMP JUMPDEST PUSH1 0x0 PUSH1 0x60 DUP3 ADD SWAP1 POP PUSH2 0x2A07 PUSH1 0x0 DUP4 ADD DUP7 PUSH2 0x21E3 JUMP JUMPDEST PUSH2 0x2A14 PUSH1 0x20 DUP4 ADD DUP6 PUSH2 0x21E3 JUMP JUMPDEST PUSH2 0x2A21 PUSH1 0x40 DUP4 ADD DUP5 PUSH2 0x2201 JUMP JUMPDEST SWAP5 SWAP4 POP POP POP POP JUMP JUMPDEST PUSH32 0x746F6B656E207472616E73666572206661696C65640000000000000000000000 PUSH1 0x0 DUP3 ADD MSTORE POP JUMP JUMPDEST PUSH1 0x0 PUSH2 0x2A5F PUSH1 0x15 DUP4 PUSH2 0x254B JUMP JUMPDEST SWAP2 POP PUSH2 0x2A6A DUP3 PUSH2 0x2A29 JUMP JUMPDEST PUSH1 0x20 DUP3 ADD SWAP1 POP SWAP2 SWAP1 POP JUMP JUMPDEST PUSH1 0x0 PUSH1 0x20 DUP3 ADD SWAP1 POP DUP2 DUP2 SUB PUSH1 0x0 DUP4 ADD MSTORE PUSH2 0x2A8E DUP2 PUSH2 0x2A52 JUMP JUMPDEST SWAP1 POP SWAP2 SWAP1 POP JUMP JUMPDEST PUSH1 0x0 PUSH2 0x2AA0 DUP3 PUSH2 0x1EFD JUMP JUMPDEST SWAP2 POP PUSH2 0x2AAB DUP4 PUSH2 0x1EFD JUMP JUMPDEST SWAP3 POP DUP3 DUP3 ADD SWAP1 POP DUP1 DUP3 GT ISZERO PUSH2 0x2AC3 JUMPI PUSH2 0x2AC2 PUSH2 0x24DC JUMP JUMPDEST JUMPDEST SWAP3 SWAP2 POP POP JUMP JUMPDEST PUSH1 0x0 DUP2 PUSH1 0x1 SHR SWAP1 POP SWAP2 SWAP1 POP JUMP JUMPDEST PUSH1 0x0 DUP1 DUP3 SWAP2 POP DUP4 SWAP1 POP JUMPDEST PUSH1 0x1 DUP6 GT ISZERO PUSH2 0x2B20 JUMPI DUP1 DUP7 DIV DUP2 GT ISZERO PUSH2 0x2AFC JUMPI PUSH2 0x2AFB PUSH2 0x24DC JUMP JUMPDEST JUMPDEST PUSH1 0x1 DUP6 AND ISZERO PUSH2 0x2B0B JUMPI DUP1 DUP3 MUL SWAP2 POP JUMPDEST DUP1 DUP2 MUL SWAP1 POP PUSH2 0x2B19 DUP6 PUSH2 0x2AC9 JUMP JUMPDEST SWAP5 POP PUSH2 0x2AE0 JUMP JUMPDEST SWAP5 POP SWAP5 SWAP3 POP POP POP JUMP JUMPDEST PUSH1 0x0 DUP3 PUSH2 0x2B39 JUMPI PUSH1 0x1 SWAP1 POP PUSH2 0x2BF5 JUMP JUMPDEST DUP2 PUSH2 0x2B47 JUMPI PUSH1 0x0 SWAP1 POP PUSH2 0x2BF5 JUMP JUMPDEST DUP2 PUSH1 0x1 DUP2 EQ PUSH2 0x2B5D JUMPI PUSH1 0x2 DUP2 EQ PUSH2 0x2B67 JUMPI PUSH2 0x2B96 JUMP JUMPDEST PUSH1 0x1 SWAP2 POP POP PUSH2 0x2BF5 JUMP JUMPDEST PUSH1 0xFF DUP5 GT ISZERO PUSH2 0x2B79 JUMPI PUSH2 0x2B78 PUSH2 0x24DC JUMP JUMPDEST JUMPDEST DUP4 PUSH1 0x2 EXP SWAP2 POP DUP5 DUP3 GT ISZERO PUSH2 0x2B90 JUMPI PUSH2 0x2B8F PUSH2 0x24DC JUMP JUMPDEST JUMPDEST POP PUSH2 0x2BF5 JUMP JUMPDEST POP PUSH1 0x20 DUP4 LT PUSH2 0x133 DUP4 LT AND PUSH1 0x4E DUP5 LT PUSH1 0xB DUP5 LT AND OR ISZERO PUSH2 0x2BCB JUMPI DUP3 DUP3 EXP SWAP1 POP DUP4 DUP2 GT ISZERO PUSH2 0x2BC6 JUMPI PUSH2 0x2BC5 PUSH2 0x24DC JUMP JUMPDEST JUMPDEST PUSH2 0x2BF5 JUMP JUMPDEST PUSH2 0x2BD8 DUP5 DUP5 DUP5 PUSH1 0x1 PUSH2 0x2AD6 JUMP JUMPDEST SWAP3 POP SWAP1 POP DUP2 DUP5 DIV DUP2 GT ISZERO PUSH2 0x2BEF JUMPI PUSH2 0x2BEE PUSH2 0x24DC JUMP JUMPDEST JUMPDEST DUP2 DUP2 MUL SWAP1 POP JUMPDEST SWAP4 SWAP3 POP POP POP JUMP JUMPDEST PUSH1 0x0 PUSH1 0xFF DUP3 AND SWAP1 POP SWAP2 SWAP1 POP JUMP JUMPDEST PUSH1 0x0 PUSH2 0x2C14 DUP3 PUSH2 0x1EFD JUMP JUMPDEST SWAP2 POP PUSH2 0x2C1F DUP4 PUSH2 0x2BFC JUMP JUMPDEST SWAP3 POP PUSH2 0x2C4C PUSH32 0xFFFFFFFFFFFFFFFFFFFFFFFFFFFFFFFFFFFFFFFFFFFFFFFFFFFFFFFFFFFFFFFF DUP5 DUP5 PUSH2 0x2B29 JUMP JUMPDEST SWAP1 POP SWAP3 SWAP2 POP POP JUMP JUMPDEST PUSH1 0x0 PUSH2 0x2C5F DUP3 PUSH2 0x1EFD JUMP JUMPDEST SWAP2 POP PUSH2 0x2C6A DUP4 PUSH2 0x1EFD JUMP JUMPDEST SWAP3 POP DUP3 DUP3 MUL PUSH2 0x2C78 DUP2 PUSH2 0x1EFD JUMP JUMPDEST SWAP2 POP DUP3 DUP3 DIV DUP5 EQ DUP4 ISZERO OR PUSH2 0x2C8F JUMPI PUSH2 0x2C8E PUSH2 0x24DC JUMP JUMPDEST JUMPDEST POP SWAP3 SWAP2 POP POP JUMP JUMPDEST PUSH32 0x4E487B7100000000000000000000000000000000000000000000000000000000 PUSH1 0x0 MSTORE PUSH1 0x12 PUSH1 0x4 MSTORE PUSH1 0x24 PUSH1 0x0 REVERT JUMPDEST PUSH1 0x0 PUSH2 0x2CD0 DUP3 PUSH2 0x1EFD JUMP JUMPDEST SWAP2 POP PUSH2 0x2CDB DUP4 PUSH2 0x1EFD JUMP JUMPDEST SWAP3 POP DUP3 PUSH2 0x2CEB JUMPI PUSH2 0x2CEA PUSH2 0x2C96 JUMP JUMPDEST JUMPDEST DUP3 DUP3 DIV SWAP1 POP SWAP3 SWAP2 POP POP JUMP INVALID LOG2 PUSH5 0x6970667358 0x22 SLT KECCAK256 0xC4 0xDB 0x5D 0xAB MLOAD TIMESTAMP ADD 0xCE 0xC9 PUSH15 0xFB7AE5FABAF4BA8EC3BB3694808718 0xAC 0xCA 0xC8 MUL 0xCF DUP1 RETURNDATASIZE PUSH5 0x736F6C6343 STOP ADDMOD SLT STOP CALLER "
				},
				"gasEstimates": {
					"creation": {
						"codeDepositCost": "2312800",
						"executionCost": "infinite",
						"totalCost": "infinite"
					},
					"external": {
						"createFund(address,address,uint256)": "infinite",
						"donate(address,uint96,uint256)": "infinite",
						"fundCount()": "2521",
						"fundDonations(uint96,address,uint256)": "infinite",
						"fundUsers(uint96,uint256)": "5271",
						"funds(uint96)": "infinite",
						"getAllFunds()": "infinite",
						"getFundPayee(uint96)": "5182",
						"getFunds(uint96,uint96)": "infinite",
						"updateFund(uint96,address,address,uint256)": "infinite"
					},
					"internal": {
						"QF()": "infinite",
						"createDonation(address,uint96,uint256)": "infinite",
						"sqrt(uint256)": "infinite"
					}
				},
				"methodIdentifiers": {
					"createFund(address,address,uint256)": "17444626",
					"donate(address,uint96,uint256)": "88b53ced",
					"fundCount()": "3f936ff5",
					"fundDonations(uint96,address,uint256)": "7a3819cb",
					"fundUsers(uint96,uint256)": "2f14670c",
					"funds(uint96)": "1f71f89f",
					"getAllFunds()": "1c69b464",
					"getFundPayee(uint96)": "6c173d38",
					"getFunds(uint96,uint96)": "380eaaf9",
					"updateFund(uint96,address,address,uint256)": "dd7d7929"
				}
			},
			"storageLayout": {
				"storage": [
					{
						"astId": 719,
						"contract": "contracts/Fund.sol:FundRegistry",
						"label": "token",
						"offset": 0,
						"slot": "0",
						"type": "t_contract(ERC20)586"
					},
					{
						"astId": 721,
						"contract": "contracts/Fund.sol:FundRegistry",
						"label": "fundCount",
						"offset": 20,
						"slot": "0",
						"type": "t_uint96"
					},
					{
						"astId": 761,
						"contract": "contracts/Fund.sol:FundRegistry",
						"label": "funds",
						"offset": 0,
						"slot": "1",
						"type": "t_mapping(t_uint96,t_struct(Fund)749_storage)"
					},
					{
						"astId": 766,
						"contract": "contracts/Fund.sol:FundRegistry",
						"label": "fundUsers",
						"offset": 0,
						"slot": "2",
						"type": "t_mapping(t_uint96,t_array(t_address)dyn_storage)"
					},
					{
						"astId": 774,
						"contract": "contracts/Fund.sol:FundRegistry",
						"label": "fundDonations",
						"offset": 0,
						"slot": "3",
						"type": "t_mapping(t_uint96,t_mapping(t_address,t_array(t_struct(Donation)756_storage)dyn_storage))"
					}
				],
				"types": {
					"t_address": {
						"encoding": "inplace",
						"label": "address",
						"numberOfBytes": "20"
					},
					"t_array(t_address)dyn_storage": {
						"base": "t_address",
						"encoding": "dynamic_array",
						"label": "address[]",
						"numberOfBytes": "32"
					},
					"t_array(t_struct(Donation)756_storage)dyn_storage": {
						"base": "t_struct(Donation)756_storage",
						"encoding": "dynamic_array",
						"label": "struct FundRegistry.Donation[]",
						"numberOfBytes": "32"
					},
					"t_bool": {
						"encoding": "inplace",
						"label": "bool",
						"numberOfBytes": "1"
					},
					"t_contract(ERC20)586": {
						"encoding": "inplace",
						"label": "contract ERC20",
						"numberOfBytes": "20"
					},
					"t_mapping(t_address,t_array(t_struct(Donation)756_storage)dyn_storage)": {
						"encoding": "mapping",
						"key": "t_address",
						"label": "mapping(address => struct FundRegistry.Donation[])",
						"numberOfBytes": "32",
						"value": "t_array(t_struct(Donation)756_storage)dyn_storage"
					},
					"t_mapping(t_uint96,t_array(t_address)dyn_storage)": {
						"encoding": "mapping",
						"key": "t_uint96",
						"label": "mapping(uint96 => address[])",
						"numberOfBytes": "32",
						"value": "t_array(t_address)dyn_storage"
					},
					"t_mapping(t_uint96,t_mapping(t_address,t_array(t_struct(Donation)756_storage)dyn_storage))": {
						"encoding": "mapping",
						"key": "t_uint96",
						"label": "mapping(uint96 => mapping(address => struct FundRegistry.Donation[]))",
						"numberOfBytes": "32",
						"value": "t_mapping(t_address,t_array(t_struct(Donation)756_storage)dyn_storage)"
					},
					"t_mapping(t_uint96,t_struct(Fund)749_storage)": {
						"encoding": "mapping",
						"key": "t_uint96",
						"label": "mapping(uint96 => struct FundRegistry.Fund)",
						"numberOfBytes": "32",
						"value": "t_struct(Fund)749_storage"
					},
					"t_struct(Donation)756_storage": {
						"encoding": "inplace",
						"label": "struct FundRegistry.Donation",
						"members": [
							{
								"astId": 751,
								"contract": "contracts/Fund.sol:FundRegistry",
								"label": "user",
								"offset": 0,
								"slot": "0",
								"type": "t_address"
							},
							{
								"astId": 753,
								"contract": "contracts/Fund.sol:FundRegistry",
								"label": "fundId",
								"offset": 20,
								"slot": "0",
								"type": "t_uint96"
							},
							{
								"astId": 755,
								"contract": "contracts/Fund.sol:FundRegistry",
								"label": "amount",
								"offset": 0,
								"slot": "1",
								"type": "t_uint256"
							}
						],
						"numberOfBytes": "64"
					},
					"t_struct(Fund)749_storage": {
						"encoding": "inplace",
						"label": "struct FundRegistry.Fund",
						"members": [
							{
								"astId": 734,
								"contract": "contracts/Fund.sol:FundRegistry",
								"label": "id",
								"offset": 0,
								"slot": "0",
								"type": "t_uint96"
							},
							{
								"astId": 736,
								"contract": "contracts/Fund.sol:FundRegistry",
								"label": "owner",
								"offset": 12,
								"slot": "0",
								"type": "t_address"
							},
							{
								"astId": 738,
								"contract": "contracts/Fund.sol:FundRegistry",
								"label": "createdAt",
								"offset": 0,
								"slot": "1",
								"type": "t_uint48"
							},
							{
								"astId": 740,
								"contract": "contracts/Fund.sol:FundRegistry",
								"label": "updatedAt",
								"offset": 6,
								"slot": "1",
								"type": "t_uint48"
							},
							{
								"astId": 742,
								"contract": "contracts/Fund.sol:FundRegistry",
								"label": "payee",
								"offset": 12,
								"slot": "1",
								"type": "t_address"
							},
							{
								"astId": 744,
								"contract": "contracts/Fund.sol:FundRegistry",
								"label": "threshold",
								"offset": 0,
								"slot": "2",
								"type": "t_uint256"
							},
							{
								"astId": 746,
								"contract": "contracts/Fund.sol:FundRegistry",
								"label": "totalAmount",
								"offset": 0,
								"slot": "3",
								"type": "t_uint256"
							},
							{
								"astId": 748,
								"contract": "contracts/Fund.sol:FundRegistry",
								"label": "isEnd",
								"offset": 0,
								"slot": "4",
								"type": "t_bool"
							}
						],
						"numberOfBytes": "160"
					},
					"t_uint256": {
						"encoding": "inplace",
						"label": "uint256",
						"numberOfBytes": "32"
					},
					"t_uint48": {
						"encoding": "inplace",
						"label": "uint48",
						"numberOfBytes": "6"
					},
					"t_uint96": {
						"encoding": "inplace",
						"label": "uint96",
						"numberOfBytes": "12"
					}
				}
			},
			"userdoc": {
				"events": {
					"FundCompletion(uint96,uint256,uint256)": {
						"notice": "Emitted when a donation has been made"
					}
				},
				"kind": "user",
				"methods": {},
				"version": 1
			}
		}
	}
}