{
	"data": {
		"bytecode": {
			"linkReferences": {},
			"object": "608060405234801562000010575f80fd5b50604051620031103803806200311083398181016040528101906200003691906200022c565b806040518060800160405280604d8152602001620030c3604d91396200006281620000ef60201b60201c565b505f73ffffffffffffffffffffffffffffffffffffffff168173ffffffffffffffffffffffffffffffffffffffff1603620000d6575f6040517f1e4fbdf7000000000000000000000000000000000000000000000000000000008152600401620000cd91906200026d565b60405180910390fd5b620000e7816200010460201b60201c565b5050620005d0565b8060029081620001009190620004ec565b5050565b5f60035f9054906101000a900473ffffffffffffffffffffffffffffffffffffffff1690508160035f6101000a81548173ffffffffffffffffffffffffffffffffffffffff021916908373ffffffffffffffffffffffffffffffffffffffff1602179055508173ffffffffffffffffffffffffffffffffffffffff168173ffffffffffffffffffffffffffffffffffffffff167f8be0079c531659141344cd1fd0a4f28419497f9722a3daafe3b4186f6b6457e060405160405180910390a35050565b5f80fd5b5f73ffffffffffffffffffffffffffffffffffffffff82169050919050565b5f620001f682620001cb565b9050919050565b6200020881620001ea565b811462000213575f80fd5b50565b5f815190506200022681620001fd565b92915050565b5f60208284031215620002445762000243620001c7565b5b5f620002538482850162000216565b91505092915050565b6200026781620001ea565b82525050565b5f602082019050620002825f8301846200025c565b92915050565b5f81519050919050565b7f4e487b71000000000000000000000000000000000000000000000000000000005f52604160045260245ffd5b7f4e487b71000000000000000000000000000000000000000000000000000000005f52602260045260245ffd5b5f60028204905060018216806200030457607f821691505b6020821081036200031a5762000319620002bf565b5b50919050565b5f819050815f5260205f209050919050565b5f6020601f8301049050919050565b5f82821b905092915050565b5f600883026200037e7fffffffffffffffffffffffffffffffffffffffffffffffffffffffffffffffff8262000341565b6200038a868362000341565b95508019841693508086168417925050509392505050565b5f819050919050565b5f819050919050565b5f620003d4620003ce620003c884620003a2565b620003ab565b620003a2565b9050919050565b5f819050919050565b620003ef83620003b4565b62000407620003fe82620003db565b8484546200034d565b825550505050565b5f90565b6200041d6200040f565b6200042a818484620003e4565b505050565b5b818110156200045157620004455f8262000413565b60018101905062000430565b5050565b601f821115620004a0576200046a8162000320565b620004758462000332565b8101602085101562000485578190505b6200049d620004948562000332565b8301826200042f565b50505b505050565b5f82821c905092915050565b5f620004c25f1984600802620004a5565b1980831691505092915050565b5f620004dc8383620004b1565b9150826002028217905092915050565b620004f78262000288565b67ffffffffffffffff81111562000513576200051262000292565b5b6200051f8254620002ec565b6200052c82828562000455565b5f60209050601f83116001811462000562575f84156200054d578287015190505b620005598582620004cf565b865550620005c8565b601f198416620005728662000320565b5f5b828110156200059b5784890151825560018201915060208501945060208101905062000574565b86831015620005bb5784890151620005b7601f891682620004b1565b8355505b6001600288020188555050505b505050505050565b612ae580620005de5f395ff3fe608060405234801561000f575f80fd5b50600436106100e7575f3560e01c8063715018a61161008a578063a22cb46511610064578063a22cb46514610243578063e985e9c51461025f578063f242432a1461028f578063f2fde38b146102ab576100e7565b8063715018a6146101ff578063731133e9146102095780638da5cb5b14610225576100e7565b80630e89341c116100c65780630e89341c146101675780631f7fdffa146101975780632eb2c2d6146101b35780634e1273f4146101cf576100e7565b8062fdd58e146100eb57806301ffc9a71461011b57806302fe53051461014b575b5f80fd5b6101056004803603810190610100919061192b565b6102c7565b6040516101129190611978565b60405180910390f35b610135600480360381019061013091906119e6565b61031c565b6040516101429190611a2b565b60405180910390f35b61016560048036038101906101609190611b80565b6103fd565b005b610181600480360381019061017c9190611bc7565b610411565b60405161018e9190611c6c565b60405180910390f35b6101b160048036038101906101ac9190611dee565b610442565b005b6101cd60048036038101906101c89190611ea6565b61045c565b005b6101e960048036038101906101e49190612031565b610503565b6040516101f6919061215e565b60405180910390f35b610207610610565b005b610223600480360381019061021e919061217e565b610623565b005b61022d61063d565b60405161023a919061220d565b60405180910390f35b61025d60048036038101906102589190612250565b610665565b005b6102796004803603810190610274919061228e565b61067b565b6040516102869190611a2b565b60405180910390f35b6102a960048036038101906102a491906122cc565b610709565b005b6102c560048036038101906102c0919061235f565b6107b0565b005b5f805f8381526020019081526020015f205f8473ffffffffffffffffffffffffffffffffffffffff1673ffffffffffffffffffffffffffffffffffffffff1681526020019081526020015f2054905092915050565b5f7fd9b67a26000000000000000000000000000000000000000000000000000000007bffffffffffffffffffffffffffffffffffffffffffffffffffffffff1916827bffffffffffffffffffffffffffffffffffffffffffffffffffffffff191614806103e657507f0e89341c000000000000000000000000000000000000000000000000000000007bffffffffffffffffffffffffffffffffffffffffffffffffffffffff1916827bffffffffffffffffffffffffffffffffffffffffffffffffffffffff1916145b806103f657506103f582610834565b5b9050919050565b61040561089d565b61040e81610924565b50565b606061041c82610937565b60405160200161042c91906124a4565b6040516020818303038152906040529050919050565b61044a61089d565b61045684848484610a01565b50505050565b5f610465610a84565b90508073ffffffffffffffffffffffffffffffffffffffff168673ffffffffffffffffffffffffffffffffffffffff16141580156104aa57506104a8868261067b565b155b156104ee5780866040517fe237d9220000000000000000000000000000000000000000000000000000000081526004016104e59291906124d0565b60405180910390fd5b6104fb8686868686610a8b565b505050505050565b6060815183511461054f57815183516040517f5b0599910000000000000000000000000000000000000000000000000000000081526004016105469291906124f7565b60405180910390fd5b5f835167ffffffffffffffff81111561056b5761056a611a5c565b5b6040519080825280602002602001820160405280156105995781602001602082028036833780820191505090505b5090505f5b8451811015610605576105d56105bd8287610b7f90919063ffffffff16565b6105d08387610b9290919063ffffffff16565b6102c7565b8282815181106105e8576105e761251e565b5b602002602001018181525050806105fe90612578565b905061059e565b508091505092915050565b61061861089d565b6106215f610ba5565b565b61062b61089d565b61063784848484610c68565b50505050565b5f60035f9054906101000a900473ffffffffffffffffffffffffffffffffffffffff16905090565b610677610670610a84565b8383610cfd565b5050565b5f60015f8473ffffffffffffffffffffffffffffffffffffffff1673ffffffffffffffffffffffffffffffffffffffff1681526020019081526020015f205f8373ffffffffffffffffffffffffffffffffffffffff1673ffffffffffffffffffffffffffffffffffffffff1681526020019081526020015f205f9054906101000a900460ff16905092915050565b5f610712610a84565b90508073ffffffffffffffffffffffffffffffffffffffff168673ffffffffffffffffffffffffffffffffffffffff16141580156107575750610755868261067b565b155b1561079b5780866040517fe237d9220000000000000000000000000000000000000000000000000000000081526004016107929291906124d0565b60405180910390fd5b6107a88686868686610e66565b505050505050565b6107b861089d565b5f73ffffffffffffffffffffffffffffffffffffffff168173ffffffffffffffffffffffffffffffffffffffff1603610828575f6040517f1e4fbdf700000000000000000000000000000000000000000000000000000000815260040161081f919061220d565b60405180910390fd5b61083181610ba5565b50565b5f7f01ffc9a7000000000000000000000000000000000000000000000000000000007bffffffffffffffffffffffffffffffffffffffffffffffffffffffff1916827bffffffffffffffffffffffffffffffffffffffffffffffffffffffff1916149050919050565b6108a5610a84565b73ffffffffffffffffffffffffffffffffffffffff166108c361063d565b73ffffffffffffffffffffffffffffffffffffffff1614610922576108e6610a84565b6040517f118cdaa7000000000000000000000000000000000000000000000000000000008152600401610919919061220d565b60405180910390fd5b565b806002908161093391906127b9565b5050565b60605f600161094584610f6c565b0190505f8167ffffffffffffffff81111561096357610962611a5c565b5b6040519080825280601f01601f1916602001820160405280156109955781602001600182028036833780820191505090505b5090505f82602001820190505b6001156109f6578080600190039150507f3031323334353637383961626364656600000000000000000000000000000000600a86061a8153600a85816109eb576109ea612888565b5b0494505f85036109a2575b819350505050919050565b5f73ffffffffffffffffffffffffffffffffffffffff168473ffffffffffffffffffffffffffffffffffffffff1603610a71575f6040517f57f447ce000000000000000000000000000000000000000000000000000000008152600401610a68919061220d565b60405180910390fd5b610a7e5f858585856110bd565b50505050565b5f33905090565b5f73ffffffffffffffffffffffffffffffffffffffff168473ffffffffffffffffffffffffffffffffffffffff1603610afb575f6040517f57f447ce000000000000000000000000000000000000000000000000000000008152600401610af2919061220d565b60405180910390fd5b5f73ffffffffffffffffffffffffffffffffffffffff168573ffffffffffffffffffffffffffffffffffffffff1603610b6b575f6040517f01a83514000000000000000000000000000000000000000000000000000000008152600401610b62919061220d565b60405180910390fd5b610b7885858585856110bd565b5050505050565b5f60208202602084010151905092915050565b5f60208202602084010151905092915050565b5f60035f9054906101000a900473ffffffffffffffffffffffffffffffffffffffff1690508160035f6101000a81548173ffffffffffffffffffffffffffffffffffffffff021916908373ffffffffffffffffffffffffffffffffffffffff1602179055508173ffffffffffffffffffffffffffffffffffffffff168173ffffffffffffffffffffffffffffffffffffffff167f8be0079c531659141344cd1fd0a4f28419497f9722a3daafe3b4186f6b6457e060405160405180910390a35050565b5f73ffffffffffffffffffffffffffffffffffffffff168473ffffffffffffffffffffffffffffffffffffffff1603610cd8575f6040517f57f447ce000000000000000000000000000000000000000000000000000000008152600401610ccf919061220d565b60405180910390fd5b5f80610ce48585611169565b91509150610cf55f878484876110bd565b505050505050565b5f73ffffffffffffffffffffffffffffffffffffffff168273ffffffffffffffffffffffffffffffffffffffff1603610d6d575f6040517fced3e100000000000000000000000000000000000000000000000000000000008152600401610d64919061220d565b60405180910390fd5b8060015f8573ffffffffffffffffffffffffffffffffffffffff1673ffffffffffffffffffffffffffffffffffffffff1681526020019081526020015f205f8473ffffffffffffffffffffffffffffffffffffffff1673ffffffffffffffffffffffffffffffffffffffff1681526020019081526020015f205f6101000a81548160ff0219169083151502179055508173ffffffffffffffffffffffffffffffffffffffff168373ffffffffffffffffffffffffffffffffffffffff167f17307eab39ab6107e8899845ad3d59bd9653f200f220920489ca2b5937696c3183604051610e599190611a2b565b60405180910390a3505050565b5f73ffffffffffffffffffffffffffffffffffffffff168473ffffffffffffffffffffffffffffffffffffffff1603610ed6575f6040517f57f447ce000000000000000000000000000000000000000000000000000000008152600401610ecd919061220d565b60405180910390fd5b5f73ffffffffffffffffffffffffffffffffffffffff168573ffffffffffffffffffffffffffffffffffffffff1603610f46575f6040517f01a83514000000000000000000000000000000000000000000000000000000008152600401610f3d919061220d565b60405180910390fd5b5f80610f528585611169565b91509150610f6387878484876110bd565b50505050505050565b5f805f90507a184f03e93ff9f4daa797ed6e38ed64bf6a1f0100000000000000008310610fc8577a184f03e93ff9f4daa797ed6e38ed64bf6a1f0100000000000000008381610fbe57610fbd612888565b5b0492506040810190505b6d04ee2d6d415b85acef81000000008310611005576d04ee2d6d415b85acef81000000008381610ffb57610ffa612888565b5b0492506020810190505b662386f26fc10000831061103457662386f26fc10000838161102a57611029612888565b5b0492506010810190505b6305f5e100831061105d576305f5e100838161105357611052612888565b5b0492506008810190505b612710831061108257612710838161107857611077612888565b5b0492506004810190505b606483106110a5576064838161109b5761109a612888565b5b0492506002810190505b600a83106110b4576001810190505b80915050919050565b6110c985858585611199565b5f73ffffffffffffffffffffffffffffffffffffffff168473ffffffffffffffffffffffffffffffffffffffff1614611162575f611105610a84565b90506001845103611151575f6111245f86610b9290919063ffffffff16565b90505f61113a5f86610b9290919063ffffffff16565b905061114a83898985858961152f565b5050611160565b61115f8187878787876116de565b5b505b5050505050565b60608060405191506001825283602083015260408201905060018152826020820152604081016040529250929050565b80518251146111e357815181516040517f5b0599910000000000000000000000000000000000000000000000000000000081526004016111da9291906124f7565b60405180910390fd5b5f6111ec610a84565b90505f5b83518110156113ee575f61120d8286610b9290919063ffffffff16565b90505f6112238386610b9290919063ffffffff16565b90505f73ffffffffffffffffffffffffffffffffffffffff168873ffffffffffffffffffffffffffffffffffffffff1614611346575f805f8481526020019081526020015f205f8a73ffffffffffffffffffffffffffffffffffffffff1673ffffffffffffffffffffffffffffffffffffffff1681526020019081526020015f20549050818110156112f257888183856040517f03dee4c50000000000000000000000000000000000000000000000000000000081526004016112e994939291906128b5565b60405180910390fd5b8181035f808581526020019081526020015f205f8b73ffffffffffffffffffffffffffffffffffffffff1673ffffffffffffffffffffffffffffffffffffffff1681526020019081526020015f2081905550505b5f73ffffffffffffffffffffffffffffffffffffffff168773ffffffffffffffffffffffffffffffffffffffff16146113db57805f808481526020019081526020015f205f8973ffffffffffffffffffffffffffffffffffffffff1673ffffffffffffffffffffffffffffffffffffffff1681526020019081526020015f205f8282546113d391906128f8565b925050819055505b5050806113e790612578565b90506111f0565b5060018351036114a9575f61140c5f85610b9290919063ffffffff16565b90505f6114225f85610b9290919063ffffffff16565b90508573ffffffffffffffffffffffffffffffffffffffff168773ffffffffffffffffffffffffffffffffffffffff168473ffffffffffffffffffffffffffffffffffffffff167fc3d58168c5ae7397731d063d5bbf3d657854427343f4c083240f7aacaa2d0f62858560405161149a9291906124f7565b60405180910390a45050611528565b8373ffffffffffffffffffffffffffffffffffffffff168573ffffffffffffffffffffffffffffffffffffffff168273ffffffffffffffffffffffffffffffffffffffff167f4a39dc06d4c0dbc64b70af90fd698a233a518aa5d07e595d983b8c0526c8f7fb868660405161151f92919061292b565b60405180910390a45b5050505050565b5f8473ffffffffffffffffffffffffffffffffffffffff163b11156116d6578373ffffffffffffffffffffffffffffffffffffffff1663f23a6e6187878686866040518663ffffffff1660e01b815260040161158f9594939291906129b2565b6020604051808303815f875af19250505080156115ca57506040513d601f19601f820116820180604052508101906115c79190612a1e565b60015b61164b573d805f81146115f8576040519150601f19603f3d011682016040523d82523d5f602084013e6115fd565b606091505b505f81510361164357846040517f57f447ce00000000000000000000000000000000000000000000000000000000815260040161163a919061220d565b60405180910390fd5b805181602001fd5b63f23a6e6160e01b7bffffffffffffffffffffffffffffffffffffffffffffffffffffffff1916817bffffffffffffffffffffffffffffffffffffffffffffffffffffffff1916146116d457846040517f57f447ce0000000000000000000000000000000000000000000000000000000081526004016116cb919061220d565b60405180910390fd5b505b505050505050565b5f8473ffffffffffffffffffffffffffffffffffffffff163b1115611885578373ffffffffffffffffffffffffffffffffffffffff1663bc197c8187878686866040518663ffffffff1660e01b815260040161173e959493929190612a49565b6020604051808303815f875af192505050801561177957506040513d601f19601f820116820180604052508101906117769190612a1e565b60015b6117fa573d805f81146117a7576040519150601f19603f3d011682016040523d82523d5f602084013e6117ac565b606091505b505f8151036117f257846040517f57f447ce0000000000000000000000000000000000000000000000000000000081526004016117e9919061220d565b60405180910390fd5b805181602001fd5b63bc197c8160e01b7bffffffffffffffffffffffffffffffffffffffffffffffffffffffff1916817bffffffffffffffffffffffffffffffffffffffffffffffffffffffff19161461188357846040517f57f447ce00000000000000000000000000000000000000000000000000000000815260040161187a919061220d565b60405180910390fd5b505b505050505050565b5f604051905090565b5f80fd5b5f80fd5b5f73ffffffffffffffffffffffffffffffffffffffff82169050919050565b5f6118c78261189e565b9050919050565b6118d7816118bd565b81146118e1575f80fd5b50565b5f813590506118f2816118ce565b92915050565b5f819050919050565b61190a816118f8565b8114611914575f80fd5b50565b5f8135905061192581611901565b92915050565b5f806040838503121561194157611940611896565b5b5f61194e858286016118e4565b925050602061195f85828601611917565b9150509250929050565b611972816118f8565b82525050565b5f60208201905061198b5f830184611969565b92915050565b5f7fffffffff0000000000000000000000000000000000000000000000000000000082169050919050565b6119c581611991565b81146119cf575f80fd5b50565b5f813590506119e0816119bc565b92915050565b5f602082840312156119fb576119fa611896565b5b5f611a08848285016119d2565b91505092915050565b5f8115159050919050565b611a2581611a11565b82525050565b5f602082019050611a3e5f830184611a1c565b92915050565b5f80fd5b5f80fd5b5f601f19601f8301169050919050565b7f4e487b71000000000000000000000000000000000000000000000000000000005f52604160045260245ffd5b611a9282611a4c565b810181811067ffffffffffffffff82111715611ab157611ab0611a5c565b5b80604052505050565b5f611ac361188d565b9050611acf8282611a89565b919050565b5f67ffffffffffffffff821115611aee57611aed611a5c565b5b611af782611a4c565b9050602081019050919050565b828183375f83830152505050565b5f611b24611b1f84611ad4565b611aba565b905082815260208101848484011115611b4057611b3f611a48565b5b611b4b848285611b04565b509392505050565b5f82601f830112611b6757611b66611a44565b5b8135611b77848260208601611b12565b91505092915050565b5f60208284031215611b9557611b94611896565b5b5f82013567ffffffffffffffff811115611bb257611bb161189a565b5b611bbe84828501611b53565b91505092915050565b5f60208284031215611bdc57611bdb611896565b5b5f611be984828501611917565b91505092915050565b5f81519050919050565b5f82825260208201905092915050565b5f5b83811015611c29578082015181840152602081019050611c0e565b5f8484015250505050565b5f611c3e82611bf2565b611c488185611bfc565b9350611c58818560208601611c0c565b611c6181611a4c565b840191505092915050565b5f6020820190508181035f830152611c848184611c34565b905092915050565b5f67ffffffffffffffff821115611ca657611ca5611a5c565b5b602082029050602081019050919050565b5f80fd5b5f611ccd611cc884611c8c565b611aba565b90508083825260208201905060208402830185811115611cf057611cef611cb7565b5b835b81811015611d195780611d058882611917565b845260208401935050602081019050611cf2565b5050509392505050565b5f82601f830112611d3757611d36611a44565b5b8135611d47848260208601611cbb565b91505092915050565b5f67ffffffffffffffff821115611d6a57611d69611a5c565b5b611d7382611a4c565b9050602081019050919050565b5f611d92611d8d84611d50565b611aba565b905082815260208101848484011115611dae57611dad611a48565b5b611db9848285611b04565b509392505050565b5f82601f830112611dd557611dd4611a44565b5b8135611de5848260208601611d80565b91505092915050565b5f805f8060808587031215611e0657611e05611896565b5b5f611e13878288016118e4565b945050602085013567ffffffffffffffff811115611e3457611e3361189a565b5b611e4087828801611d23565b935050604085013567ffffffffffffffff811115611e6157611e6061189a565b5b611e6d87828801611d23565b925050606085013567ffffffffffffffff811115611e8e57611e8d61189a565b5b611e9a87828801611dc1565b91505092959194509250565b5f805f805f60a08688031215611ebf57611ebe611896565b5b5f611ecc888289016118e4565b9550506020611edd888289016118e4565b945050604086013567ffffffffffffffff811115611efe57611efd61189a565b5b611f0a88828901611d23565b935050606086013567ffffffffffffffff811115611f2b57611f2a61189a565b5b611f3788828901611d23565b925050608086013567ffffffffffffffff811115611f5857611f5761189a565b5b611f6488828901611dc1565b9150509295509295909350565b5f67ffffffffffffffff821115611f8b57611f8a611a5c565b5b602082029050602081019050919050565b5f611fae611fa984611f71565b611aba565b90508083825260208201905060208402830185811115611fd157611fd0611cb7565b5b835b81811015611ffa5780611fe688826118e4565b845260208401935050602081019050611fd3565b5050509392505050565b5f82601f83011261201857612017611a44565b5b8135612028848260208601611f9c565b91505092915050565b5f806040838503121561204757612046611896565b5b5f83013567ffffffffffffffff8111156120645761206361189a565b5b61207085828601612004565b925050602083013567ffffffffffffffff8111156120915761209061189a565b5b61209d85828601611d23565b9150509250929050565b5f81519050919050565b5f82825260208201905092915050565b5f819050602082019050919050565b6120d9816118f8565b82525050565b5f6120ea83836120d0565b60208301905092915050565b5f602082019050919050565b5f61210c826120a7565b61211681856120b1565b9350612121836120c1565b805f5b8381101561215157815161213888826120df565b9750612143836120f6565b925050600181019050612124565b5085935050505092915050565b5f6020820190508181035f8301526121768184612102565b905092915050565b5f805f806080858703121561219657612195611896565b5b5f6121a3878288016118e4565b94505060206121b487828801611917565b93505060406121c587828801611917565b925050606085013567ffffffffffffffff8111156121e6576121e561189a565b5b6121f287828801611dc1565b91505092959194509250565b612207816118bd565b82525050565b5f6020820190506122205f8301846121fe565b92915050565b61222f81611a11565b8114612239575f80fd5b50565b5f8135905061224a81612226565b92915050565b5f806040838503121561226657612265611896565b5b5f612273858286016118e4565b92505060206122848582860161223c565b9150509250929050565b5f80604083850312156122a4576122a3611896565b5b5f6122b1858286016118e4565b92505060206122c2858286016118e4565b9150509250929050565b5f805f805f60a086880312156122e5576122e4611896565b5b5f6122f2888289016118e4565b9550506020612303888289016118e4565b945050604061231488828901611917565b935050606061232588828901611917565b925050608086013567ffffffffffffffff8111156123465761234561189a565b5b61235288828901611dc1565b9150509295509295909350565b5f6020828403121561237457612373611896565b5b5f612381848285016118e4565b91505092915050565b5f81905092915050565b7f68747470733a2f2f697066732e696f2f697066732f516d5479734e6f58456f585f8201527f74597a55617a5831663236625744553362503570676b55774c756577475a654160208201527f4e4c582f00000000000000000000000000000000000000000000000000000000604082015250565b5f61241460448361238a565b915061241f82612394565b604482019050919050565b5f61243482611bf2565b61243e818561238a565b935061244e818560208601611c0c565b80840191505092915050565b7f2e6a736f6e0000000000000000000000000000000000000000000000000000005f82015250565b5f61248e60058361238a565b91506124998261245a565b600582019050919050565b5f6124ae82612408565b91506124ba828461242a565b91506124c582612482565b915081905092915050565b5f6040820190506124e35f8301856121fe565b6124f060208301846121fe565b9392505050565b5f60408201905061250a5f830185611969565b6125176020830184611969565b9392505050565b7f4e487b71000000000000000000000000000000000000000000000000000000005f52603260045260245ffd5b7f4e487b71000000000000000000000000000000000000000000000000000000005f52601160045260245ffd5b5f612582826118f8565b91507fffffffffffffffffffffffffffffffffffffffffffffffffffffffffffffffff82036125b4576125b361254b565b5b600182019050919050565b7f4e487b71000000000000000000000000000000000000000000000000000000005f52602260045260245ffd5b5f600282049050600182168061260357607f821691505b602082108103612616576126156125bf565b5b50919050565b5f819050815f5260205f209050919050565b5f6020601f8301049050919050565b5f82821b905092915050565b5f600883026126787fffffffffffffffffffffffffffffffffffffffffffffffffffffffffffffffff8261263d565b612682868361263d565b95508019841693508086168417925050509392505050565b5f819050919050565b5f6126bd6126b86126b3846118f8565b61269a565b6118f8565b9050919050565b5f819050919050565b6126d6836126a3565b6126ea6126e2826126c4565b848454612649565b825550505050565b5f90565b6126fe6126f2565b6127098184846126cd565b505050565b5b8181101561272c576127215f826126f6565b60018101905061270f565b5050565b601f821115612771576127428161261c565b61274b8461262e565b8101602085101561275a578190505b61276e6127668561262e565b83018261270e565b50505b505050565b5f82821c905092915050565b5f6127915f1984600802612776565b1980831691505092915050565b5f6127a98383612782565b9150826002028217905092915050565b6127c282611bf2565b67ffffffffffffffff8111156127db576127da611a5c565b5b6127e582546125ec565b6127f0828285612730565b5f60209050601f831160018114612821575f841561280f578287015190505b612819858261279e565b865550612880565b601f19841661282f8661261c565b5f5b8281101561285657848901518255600182019150602085019450602081019050612831565b86831015612873578489015161286f601f891682612782565b8355505b6001600288020188555050505b505050505050565b7f4e487b71000000000000000000000000000000000000000000000000000000005f52601260045260245ffd5b5f6080820190506128c85f8301876121fe565b6128d56020830186611969565b6128e26040830185611969565b6128ef6060830184611969565b95945050505050565b5f612902826118f8565b915061290d836118f8565b92508282019050808211156129255761292461254b565b5b92915050565b5f6040820190508181035f8301526129438185612102565b905081810360208301526129578184612102565b90509392505050565b5f81519050919050565b5f82825260208201905092915050565b5f61298482612960565b61298e818561296a565b935061299e818560208601611c0c565b6129a781611a4c565b840191505092915050565b5f60a0820190506129c55f8301886121fe565b6129d260208301876121fe565b6129df6040830186611969565b6129ec6060830185611969565b81810360808301526129fe818461297a565b90509695505050505050565b5f81519050612a18816119bc565b92915050565b5f60208284031215612a3357612a32611896565b5b5f612a4084828501612a0a565b91505092915050565b5f60a082019050612a5c5f8301886121fe565b612a6960208301876121fe565b8181036040830152612a7b8186612102565b90508181036060830152612a8f8185612102565b90508181036080830152612aa3818461297a565b9050969550505050505056fea2646970667358221220e8df38160539d29bd984e303a1ab3890cb5f595a5c6d03f65af7fab596d4c2c764736f6c6343000814003368747470733a2f2f697066732e696f2f697066732f516d5479734e6f58456f5874597a55617a5831663236625744553362503570676b55774c756577475a65414e4c582f7b69647d2e6a736f6e",
			"opcodes": "PUSH1 0x80 PUSH1 0x40 MSTORE CALLVALUE DUP1 ISZERO PUSH3 0x10 JUMPI PUSH0 DUP1 REVERT JUMPDEST POP PUSH1 0x40 MLOAD PUSH3 0x3110 CODESIZE SUB DUP1 PUSH3 0x3110 DUP4 CODECOPY DUP2 DUP2 ADD PUSH1 0x40 MSTORE DUP2 ADD SWAP1 PUSH3 0x36 SWAP2 SWAP1 PUSH3 0x22C JUMP JUMPDEST DUP1 PUSH1 0x40 MLOAD DUP1 PUSH1 0x80 ADD PUSH1 0x40 MSTORE DUP1 PUSH1 0x4D DUP2 MSTORE PUSH1 0x20 ADD PUSH3 0x30C3 PUSH1 0x4D SWAP2 CODECOPY PUSH3 0x62 DUP2 PUSH3 0xEF PUSH1 0x20 SHL PUSH1 0x20 SHR JUMP JUMPDEST POP PUSH0 PUSH20 0xFFFFFFFFFFFFFFFFFFFFFFFFFFFFFFFFFFFFFFFF AND DUP2 PUSH20 0xFFFFFFFFFFFFFFFFFFFFFFFFFFFFFFFFFFFFFFFF AND SUB PUSH3 0xD6 JUMPI PUSH0 PUSH1 0x40 MLOAD PUSH32 0x1E4FBDF700000000000000000000000000000000000000000000000000000000 DUP2 MSTORE PUSH1 0x4 ADD PUSH3 0xCD SWAP2 SWAP1 PUSH3 0x26D JUMP JUMPDEST PUSH1 0x40 MLOAD DUP1 SWAP2 SUB SWAP1 REVERT JUMPDEST PUSH3 0xE7 DUP2 PUSH3 0x104 PUSH1 0x20 SHL PUSH1 0x20 SHR JUMP JUMPDEST POP POP PUSH3 0x5D0 JUMP JUMPDEST DUP1 PUSH1 0x2 SWAP1 DUP2 PUSH3 0x100 SWAP2 SWAP1 PUSH3 0x4EC JUMP JUMPDEST POP POP JUMP JUMPDEST PUSH0 PUSH1 0x3 PUSH0 SWAP1 SLOAD SWAP1 PUSH2 0x100 EXP SWAP1 DIV PUSH20 0xFFFFFFFFFFFFFFFFFFFFFFFFFFFFFFFFFFFFFFFF AND SWAP1 POP DUP2 PUSH1 0x3 PUSH0 PUSH2 0x100 EXP DUP2 SLOAD DUP2 PUSH20 0xFFFFFFFFFFFFFFFFFFFFFFFFFFFFFFFFFFFFFFFF MUL NOT AND SWAP1 DUP4 PUSH20 0xFFFFFFFFFFFFFFFFFFFFFFFFFFFFFFFFFFFFFFFF AND MUL OR SWAP1 SSTORE POP DUP2 PUSH20 0xFFFFFFFFFFFFFFFFFFFFFFFFFFFFFFFFFFFFFFFF AND DUP2 PUSH20 0xFFFFFFFFFFFFFFFFFFFFFFFFFFFFFFFFFFFFFFFF AND PUSH32 0x8BE0079C531659141344CD1FD0A4F28419497F9722A3DAAFE3B4186F6B6457E0 PUSH1 0x40 MLOAD PUSH1 0x40 MLOAD DUP1 SWAP2 SUB SWAP1 LOG3 POP POP JUMP JUMPDEST PUSH0 DUP1 REVERT JUMPDEST PUSH0 PUSH20 0xFFFFFFFFFFFFFFFFFFFFFFFFFFFFFFFFFFFFFFFF DUP3 AND SWAP1 POP SWAP2 SWAP1 POP JUMP JUMPDEST PUSH0 PUSH3 0x1F6 DUP3 PUSH3 0x1CB JUMP JUMPDEST SWAP1 POP SWAP2 SWAP1 POP JUMP JUMPDEST PUSH3 0x208 DUP2 PUSH3 0x1EA JUMP JUMPDEST DUP2 EQ PUSH3 0x213 JUMPI PUSH0 DUP1 REVERT JUMPDEST POP JUMP JUMPDEST PUSH0 DUP2 MLOAD SWAP1 POP PUSH3 0x226 DUP2 PUSH3 0x1FD JUMP JUMPDEST SWAP3 SWAP2 POP POP JUMP JUMPDEST PUSH0 PUSH1 0x20 DUP3 DUP5 SUB SLT ISZERO PUSH3 0x244 JUMPI PUSH3 0x243 PUSH3 0x1C7 JUMP JUMPDEST JUMPDEST PUSH0 PUSH3 0x253 DUP5 DUP3 DUP6 ADD PUSH3 0x216 JUMP JUMPDEST SWAP2 POP POP SWAP3 SWAP2 POP POP JUMP JUMPDEST PUSH3 0x267 DUP2 PUSH3 0x1EA JUMP JUMPDEST DUP3 MSTORE POP POP JUMP JUMPDEST PUSH0 PUSH1 0x20 DUP3 ADD SWAP1 POP PUSH3 0x282 PUSH0 DUP4 ADD DUP5 PUSH3 0x25C JUMP JUMPDEST SWAP3 SWAP2 POP POP JUMP JUMPDEST PUSH0 DUP2 MLOAD SWAP1 POP SWAP2 SWAP1 POP JUMP JUMPDEST PUSH32 0x4E487B7100000000000000000000000000000000000000000000000000000000 PUSH0 MSTORE PUSH1 0x41 PUSH1 0x4 MSTORE PUSH1 0x24 PUSH0 REVERT JUMPDEST PUSH32 0x4E487B7100000000000000000000000000000000000000000000000000000000 PUSH0 MSTORE PUSH1 0x22 PUSH1 0x4 MSTORE PUSH1 0x24 PUSH0 REVERT JUMPDEST PUSH0 PUSH1 0x2 DUP3 DIV SWAP1 POP PUSH1 0x1 DUP3 AND DUP1 PUSH3 0x304 JUMPI PUSH1 0x7F DUP3 AND SWAP2 POP JUMPDEST PUSH1 0x20 DUP3 LT DUP2 SUB PUSH3 0x31A JUMPI PUSH3 0x319 PUSH3 0x2BF JUMP JUMPDEST JUMPDEST POP SWAP2 SWAP1 POP JUMP JUMPDEST PUSH0 DUP2 SWAP1 POP DUP2 PUSH0 MSTORE PUSH1 0x20 PUSH0 KECCAK256 SWAP1 POP SWAP2 SWAP1 POP JUMP JUMPDEST PUSH0 PUSH1 0x20 PUSH1 0x1F DUP4 ADD DIV SWAP1 POP SWAP2 SWAP1 POP JUMP JUMPDEST PUSH0 DUP3 DUP3 SHL SWAP1 POP SWAP3 SWAP2 POP POP JUMP JUMPDEST PUSH0 PUSH1 0x8 DUP4 MUL PUSH3 0x37E PUSH32 0xFFFFFFFFFFFFFFFFFFFFFFFFFFFFFFFFFFFFFFFFFFFFFFFFFFFFFFFFFFFFFFFF DUP3 PUSH3 0x341 JUMP JUMPDEST PUSH3 0x38A DUP7 DUP4 PUSH3 0x341 JUMP JUMPDEST SWAP6 POP DUP1 NOT DUP5 AND SWAP4 POP DUP1 DUP7 AND DUP5 OR SWAP3 POP POP POP SWAP4 SWAP3 POP POP POP JUMP JUMPDEST PUSH0 DUP2 SWAP1 POP SWAP2 SWAP1 POP JUMP JUMPDEST PUSH0 DUP2 SWAP1 POP SWAP2 SWAP1 POP JUMP JUMPDEST PUSH0 PUSH3 0x3D4 PUSH3 0x3CE PUSH3 0x3C8 DUP5 PUSH3 0x3A2 JUMP JUMPDEST PUSH3 0x3AB JUMP JUMPDEST PUSH3 0x3A2 JUMP JUMPDEST SWAP1 POP SWAP2 SWAP1 POP JUMP JUMPDEST PUSH0 DUP2 SWAP1 POP SWAP2 SWAP1 POP JUMP JUMPDEST PUSH3 0x3EF DUP4 PUSH3 0x3B4 JUMP JUMPDEST PUSH3 0x407 PUSH3 0x3FE DUP3 PUSH3 0x3DB JUMP JUMPDEST DUP5 DUP5 SLOAD PUSH3 0x34D JUMP JUMPDEST DUP3 SSTORE POP POP POP POP JUMP JUMPDEST PUSH0 SWAP1 JUMP JUMPDEST PUSH3 0x41D PUSH3 0x40F JUMP JUMPDEST PUSH3 0x42A DUP2 DUP5 DUP5 PUSH3 0x3E4 JUMP JUMPDEST POP POP POP JUMP JUMPDEST JUMPDEST DUP2 DUP2 LT ISZERO PUSH3 0x451 JUMPI PUSH3 0x445 PUSH0 DUP3 PUSH3 0x413 JUMP JUMPDEST PUSH1 0x1 DUP2 ADD SWAP1 POP PUSH3 0x430 JUMP JUMPDEST POP POP JUMP JUMPDEST PUSH1 0x1F DUP3 GT ISZERO PUSH3 0x4A0 JUMPI PUSH3 0x46A DUP2 PUSH3 0x320 JUMP JUMPDEST PUSH3 0x475 DUP5 PUSH3 0x332 JUMP JUMPDEST DUP2 ADD PUSH1 0x20 DUP6 LT ISZERO PUSH3 0x485 JUMPI DUP2 SWAP1 POP JUMPDEST PUSH3 0x49D PUSH3 0x494 DUP6 PUSH3 0x332 JUMP JUMPDEST DUP4 ADD DUP3 PUSH3 0x42F JUMP JUMPDEST POP POP JUMPDEST POP POP POP JUMP JUMPDEST PUSH0 DUP3 DUP3 SHR SWAP1 POP SWAP3 SWAP2 POP POP JUMP JUMPDEST PUSH0 PUSH3 0x4C2 PUSH0 NOT DUP5 PUSH1 0x8 MUL PUSH3 0x4A5 JUMP JUMPDEST NOT DUP1 DUP4 AND SWAP2 POP POP SWAP3 SWAP2 POP POP JUMP JUMPDEST PUSH0 PUSH3 0x4DC DUP4 DUP4 PUSH3 0x4B1 JUMP JUMPDEST SWAP2 POP DUP3 PUSH1 0x2 MUL DUP3 OR SWAP1 POP SWAP3 SWAP2 POP POP JUMP JUMPDEST PUSH3 0x4F7 DUP3 PUSH3 0x288 JUMP JUMPDEST PUSH8 0xFFFFFFFFFFFFFFFF DUP2 GT ISZERO PUSH3 0x513 JUMPI PUSH3 0x512 PUSH3 0x292 JUMP JUMPDEST JUMPDEST PUSH3 0x51F DUP3 SLOAD PUSH3 0x2EC JUMP JUMPDEST PUSH3 0x52C DUP3 DUP3 DUP6 PUSH3 0x455 JUMP JUMPDEST PUSH0 PUSH1 0x20 SWAP1 POP PUSH1 0x1F DUP4 GT PUSH1 0x1 DUP2 EQ PUSH3 0x562 JUMPI PUSH0 DUP5 ISZERO PUSH3 0x54D JUMPI DUP3 DUP8 ADD MLOAD SWAP1 POP JUMPDEST PUSH3 0x559 DUP6 DUP3 PUSH3 0x4CF JUMP JUMPDEST DUP7 SSTORE POP PUSH3 0x5C8 JUMP JUMPDEST PUSH1 0x1F NOT DUP5 AND PUSH3 0x572 DUP7 PUSH3 0x320 JUMP JUMPDEST PUSH0 JUMPDEST DUP3 DUP2 LT ISZERO PUSH3 0x59B JUMPI DUP5 DUP10 ADD MLOAD DUP3 SSTORE PUSH1 0x1 DUP3 ADD SWAP2 POP PUSH1 0x20 DUP6 ADD SWAP5 POP PUSH1 0x20 DUP2 ADD SWAP1 POP PUSH3 0x574 JUMP JUMPDEST DUP7 DUP4 LT ISZERO PUSH3 0x5BB JUMPI DUP5 DUP10 ADD MLOAD PUSH3 0x5B7 PUSH1 0x1F DUP10 AND DUP3 PUSH3 0x4B1 JUMP JUMPDEST DUP4 SSTORE POP JUMPDEST PUSH1 0x1 PUSH1 0x2 DUP9 MUL ADD DUP9 SSTORE POP POP POP JUMPDEST POP POP POP POP POP POP JUMP JUMPDEST PUSH2 0x2AE5 DUP1 PUSH3 0x5DE PUSH0 CODECOPY PUSH0 RETURN INVALID PUSH1 0x80 PUSH1 0x40 MSTORE CALLVALUE DUP1 ISZERO PUSH2 0xF JUMPI PUSH0 DUP1 REVERT JUMPDEST POP PUSH1 0x4 CALLDATASIZE LT PUSH2 0xE7 JUMPI PUSH0 CALLDATALOAD PUSH1 0xE0 SHR DUP1 PUSH4 0x715018A6 GT PUSH2 0x8A JUMPI DUP1 PUSH4 0xA22CB465 GT PUSH2 0x64 JUMPI DUP1 PUSH4 0xA22CB465 EQ PUSH2 0x243 JUMPI DUP1 PUSH4 0xE985E9C5 EQ PUSH2 0x25F JUMPI DUP1 PUSH4 0xF242432A EQ PUSH2 0x28F JUMPI DUP1 PUSH4 0xF2FDE38B EQ PUSH2 0x2AB JUMPI PUSH2 0xE7 JUMP JUMPDEST DUP1 PUSH4 0x715018A6 EQ PUSH2 0x1FF JUMPI DUP1 PUSH4 0x731133E9 EQ PUSH2 0x209 JUMPI DUP1 PUSH4 0x8DA5CB5B EQ PUSH2 0x225 JUMPI PUSH2 0xE7 JUMP JUMPDEST DUP1 PUSH4 0xE89341C GT PUSH2 0xC6 JUMPI DUP1 PUSH4 0xE89341C EQ PUSH2 0x167 JUMPI DUP1 PUSH4 0x1F7FDFFA EQ PUSH2 0x197 JUMPI DUP1 PUSH4 0x2EB2C2D6 EQ PUSH2 0x1B3 JUMPI DUP1 PUSH4 0x4E1273F4 EQ PUSH2 0x1CF JUMPI PUSH2 0xE7 JUMP JUMPDEST DUP1 PUSH3 0xFDD58E EQ PUSH2 0xEB JUMPI DUP1 PUSH4 0x1FFC9A7 EQ PUSH2 0x11B JUMPI DUP1 PUSH4 0x2FE5305 EQ PUSH2 0x14B JUMPI JUMPDEST PUSH0 DUP1 REVERT JUMPDEST PUSH2 0x105 PUSH1 0x4 DUP1 CALLDATASIZE SUB DUP2 ADD SWAP1 PUSH2 0x100 SWAP2 SWAP1 PUSH2 0x192B JUMP JUMPDEST PUSH2 0x2C7 JUMP JUMPDEST PUSH1 0x40 MLOAD PUSH2 0x112 SWAP2 SWAP1 PUSH2 0x1978 JUMP JUMPDEST PUSH1 0x40 MLOAD DUP1 SWAP2 SUB SWAP1 RETURN JUMPDEST PUSH2 0x135 PUSH1 0x4 DUP1 CALLDATASIZE SUB DUP2 ADD SWAP1 PUSH2 0x130 SWAP2 SWAP1 PUSH2 0x19E6 JUMP JUMPDEST PUSH2 0x31C JUMP JUMPDEST PUSH1 0x40 MLOAD PUSH2 0x142 SWAP2 SWAP1 PUSH2 0x1A2B JUMP JUMPDEST PUSH1 0x40 MLOAD DUP1 SWAP2 SUB SWAP1 RETURN JUMPDEST PUSH2 0x165 PUSH1 0x4 DUP1 CALLDATASIZE SUB DUP2 ADD SWAP1 PUSH2 0x160 SWAP2 SWAP1 PUSH2 0x1B80 JUMP JUMPDEST PUSH2 0x3FD JUMP JUMPDEST STOP JUMPDEST PUSH2 0x181 PUSH1 0x4 DUP1 CALLDATASIZE SUB DUP2 ADD SWAP1 PUSH2 0x17C SWAP2 SWAP1 PUSH2 0x1BC7 JUMP JUMPDEST PUSH2 0x411 JUMP JUMPDEST PUSH1 0x40 MLOAD PUSH2 0x18E SWAP2 SWAP1 PUSH2 0x1C6C JUMP JUMPDEST PUSH1 0x40 MLOAD DUP1 SWAP2 SUB SWAP1 RETURN JUMPDEST PUSH2 0x1B1 PUSH1 0x4 DUP1 CALLDATASIZE SUB DUP2 ADD SWAP1 PUSH2 0x1AC SWAP2 SWAP1 PUSH2 0x1DEE JUMP JUMPDEST PUSH2 0x442 JUMP JUMPDEST STOP JUMPDEST PUSH2 0x1CD PUSH1 0x4 DUP1 CALLDATASIZE SUB DUP2 ADD SWAP1 PUSH2 0x1C8 SWAP2 SWAP1 PUSH2 0x1EA6 JUMP JUMPDEST PUSH2 0x45C JUMP JUMPDEST STOP JUMPDEST PUSH2 0x1E9 PUSH1 0x4 DUP1 CALLDATASIZE SUB DUP2 ADD SWAP1 PUSH2 0x1E4 SWAP2 SWAP1 PUSH2 0x2031 JUMP JUMPDEST PUSH2 0x503 JUMP JUMPDEST PUSH1 0x40 MLOAD PUSH2 0x1F6 SWAP2 SWAP1 PUSH2 0x215E JUMP JUMPDEST PUSH1 0x40 MLOAD DUP1 SWAP2 SUB SWAP1 RETURN JUMPDEST PUSH2 0x207 PUSH2 0x610 JUMP JUMPDEST STOP JUMPDEST PUSH2 0x223 PUSH1 0x4 DUP1 CALLDATASIZE SUB DUP2 ADD SWAP1 PUSH2 0x21E SWAP2 SWAP1 PUSH2 0x217E JUMP JUMPDEST PUSH2 0x623 JUMP JUMPDEST STOP JUMPDEST PUSH2 0x22D PUSH2 0x63D JUMP JUMPDEST PUSH1 0x40 MLOAD PUSH2 0x23A SWAP2 SWAP1 PUSH2 0x220D JUMP JUMPDEST PUSH1 0x40 MLOAD DUP1 SWAP2 SUB SWAP1 RETURN JUMPDEST PUSH2 0x25D PUSH1 0x4 DUP1 CALLDATASIZE SUB DUP2 ADD SWAP1 PUSH2 0x258 SWAP2 SWAP1 PUSH2 0x2250 JUMP JUMPDEST PUSH2 0x665 JUMP JUMPDEST STOP JUMPDEST PUSH2 0x279 PUSH1 0x4 DUP1 CALLDATASIZE SUB DUP2 ADD SWAP1 PUSH2 0x274 SWAP2 SWAP1 PUSH2 0x228E JUMP JUMPDEST PUSH2 0x67B JUMP JUMPDEST PUSH1 0x40 MLOAD PUSH2 0x286 SWAP2 SWAP1 PUSH2 0x1A2B JUMP JUMPDEST PUSH1 0x40 MLOAD DUP1 SWAP2 SUB SWAP1 RETURN JUMPDEST PUSH2 0x2A9 PUSH1 0x4 DUP1 CALLDATASIZE SUB DUP2 ADD SWAP1 PUSH2 0x2A4 SWAP2 SWAP1 PUSH2 0x22CC JUMP JUMPDEST PUSH2 0x709 JUMP JUMPDEST STOP JUMPDEST PUSH2 0x2C5 PUSH1 0x4 DUP1 CALLDATASIZE SUB DUP2 ADD SWAP1 PUSH2 0x2C0 SWAP2 SWAP1 PUSH2 0x235F JUMP JUMPDEST PUSH2 0x7B0 JUMP JUMPDEST STOP JUMPDEST PUSH0 DUP1 PUSH0 DUP4 DUP2 MSTORE PUSH1 0x20 ADD SWAP1 DUP2 MSTORE PUSH1 0x20 ADD PUSH0 KECCAK256 PUSH0 DUP5 PUSH20 0xFFFFFFFFFFFFFFFFFFFFFFFFFFFFFFFFFFFFFFFF AND PUSH20 0xFFFFFFFFFFFFFFFFFFFFFFFFFFFFFFFFFFFFFFFF AND DUP2 MSTORE PUSH1 0x20 ADD SWAP1 DUP2 MSTORE PUSH1 0x20 ADD PUSH0 KECCAK256 SLOAD SWAP1 POP SWAP3 SWAP2 POP POP JUMP JUMPDEST PUSH0 PUSH32 0xD9B67A2600000000000000000000000000000000000000000000000000000000 PUSH28 0xFFFFFFFFFFFFFFFFFFFFFFFFFFFFFFFFFFFFFFFFFFFFFFFFFFFFFFFF NOT AND DUP3 PUSH28 0xFFFFFFFFFFFFFFFFFFFFFFFFFFFFFFFFFFFFFFFFFFFFFFFFFFFFFFFF NOT AND EQ DUP1 PUSH2 0x3E6 JUMPI POP PUSH32 0xE89341C00000000000000000000000000000000000000000000000000000000 PUSH28 0xFFFFFFFFFFFFFFFFFFFFFFFFFFFFFFFFFFFFFFFFFFFFFFFFFFFFFFFF NOT AND DUP3 PUSH28 0xFFFFFFFFFFFFFFFFFFFFFFFFFFFFFFFFFFFFFFFFFFFFFFFFFFFFFFFF NOT AND EQ JUMPDEST DUP1 PUSH2 0x3F6 JUMPI POP PUSH2 0x3F5 DUP3 PUSH2 0x834 JUMP JUMPDEST JUMPDEST SWAP1 POP SWAP2 SWAP1 POP JUMP JUMPDEST PUSH2 0x405 PUSH2 0x89D JUMP JUMPDEST PUSH2 0x40E DUP2 PUSH2 0x924 JUMP JUMPDEST POP JUMP JUMPDEST PUSH1 0x60 PUSH2 0x41C DUP3 PUSH2 0x937 JUMP JUMPDEST PUSH1 0x40 MLOAD PUSH1 0x20 ADD PUSH2 0x42C SWAP2 SWAP1 PUSH2 0x24A4 JUMP JUMPDEST PUSH1 0x40 MLOAD PUSH1 0x20 DUP2 DUP4 SUB SUB DUP2 MSTORE SWAP1 PUSH1 0x40 MSTORE SWAP1 POP SWAP2 SWAP1 POP JUMP JUMPDEST PUSH2 0x44A PUSH2 0x89D JUMP JUMPDEST PUSH2 0x456 DUP5 DUP5 DUP5 DUP5 PUSH2 0xA01 JUMP JUMPDEST POP POP POP POP JUMP JUMPDEST PUSH0 PUSH2 0x465 PUSH2 0xA84 JUMP JUMPDEST SWAP1 POP DUP1 PUSH20 0xFFFFFFFFFFFFFFFFFFFFFFFFFFFFFFFFFFFFFFFF AND DUP7 PUSH20 0xFFFFFFFFFFFFFFFFFFFFFFFFFFFFFFFFFFFFFFFF AND EQ ISZERO DUP1 ISZERO PUSH2 0x4AA JUMPI POP PUSH2 0x4A8 DUP7 DUP3 PUSH2 0x67B JUMP JUMPDEST ISZERO JUMPDEST ISZERO PUSH2 0x4EE JUMPI DUP1 DUP7 PUSH1 0x40 MLOAD PUSH32 0xE237D92200000000000000000000000000000000000000000000000000000000 DUP2 MSTORE PUSH1 0x4 ADD PUSH2 0x4E5 SWAP3 SWAP2 SWAP1 PUSH2 0x24D0 JUMP JUMPDEST PUSH1 0x40 MLOAD DUP1 SWAP2 SUB SWAP1 REVERT JUMPDEST PUSH2 0x4FB DUP7 DUP7 DUP7 DUP7 DUP7 PUSH2 0xA8B JUMP JUMPDEST POP POP POP POP POP POP JUMP JUMPDEST PUSH1 0x60 DUP2 MLOAD DUP4 MLOAD EQ PUSH2 0x54F JUMPI DUP2 MLOAD DUP4 MLOAD PUSH1 0x40 MLOAD PUSH32 0x5B05999100000000000000000000000000000000000000000000000000000000 DUP2 MSTORE PUSH1 0x4 ADD PUSH2 0x546 SWAP3 SWAP2 SWAP1 PUSH2 0x24F7 JUMP JUMPDEST PUSH1 0x40 MLOAD DUP1 SWAP2 SUB SWAP1 REVERT JUMPDEST PUSH0 DUP4 MLOAD PUSH8 0xFFFFFFFFFFFFFFFF DUP2 GT ISZERO PUSH2 0x56B JUMPI PUSH2 0x56A PUSH2 0x1A5C JUMP JUMPDEST JUMPDEST PUSH1 0x40 MLOAD SWAP1 DUP1 DUP3 MSTORE DUP1 PUSH1 0x20 MUL PUSH1 0x20 ADD DUP3 ADD PUSH1 0x40 MSTORE DUP1 ISZERO PUSH2 0x599 JUMPI DUP2 PUSH1 0x20 ADD PUSH1 0x20 DUP3 MUL DUP1 CALLDATASIZE DUP4 CALLDATACOPY DUP1 DUP3 ADD SWAP2 POP POP SWAP1 POP JUMPDEST POP SWAP1 POP PUSH0 JUMPDEST DUP5 MLOAD DUP2 LT ISZERO PUSH2 0x605 JUMPI PUSH2 0x5D5 PUSH2 0x5BD DUP3 DUP8 PUSH2 0xB7F SWAP1 SWAP2 SWAP1 PUSH4 0xFFFFFFFF AND JUMP JUMPDEST PUSH2 0x5D0 DUP4 DUP8 PUSH2 0xB92 SWAP1 SWAP2 SWAP1 PUSH4 0xFFFFFFFF AND JUMP JUMPDEST PUSH2 0x2C7 JUMP JUMPDEST DUP3 DUP3 DUP2 MLOAD DUP2 LT PUSH2 0x5E8 JUMPI PUSH2 0x5E7 PUSH2 0x251E JUMP JUMPDEST JUMPDEST PUSH1 0x20 MUL PUSH1 0x20 ADD ADD DUP2 DUP2 MSTORE POP POP DUP1 PUSH2 0x5FE SWAP1 PUSH2 0x2578 JUMP JUMPDEST SWAP1 POP PUSH2 0x59E JUMP JUMPDEST POP DUP1 SWAP2 POP POP SWAP3 SWAP2 POP POP JUMP JUMPDEST PUSH2 0x618 PUSH2 0x89D JUMP JUMPDEST PUSH2 0x621 PUSH0 PUSH2 0xBA5 JUMP JUMPDEST JUMP JUMPDEST PUSH2 0x62B PUSH2 0x89D JUMP JUMPDEST PUSH2 0x637 DUP5 DUP5 DUP5 DUP5 PUSH2 0xC68 JUMP JUMPDEST POP POP POP POP JUMP JUMPDEST PUSH0 PUSH1 0x3 PUSH0 SWAP1 SLOAD SWAP1 PUSH2 0x100 EXP SWAP1 DIV PUSH20 0xFFFFFFFFFFFFFFFFFFFFFFFFFFFFFFFFFFFFFFFF AND SWAP1 POP SWAP1 JUMP JUMPDEST PUSH2 0x677 PUSH2 0x670 PUSH2 0xA84 JUMP JUMPDEST DUP4 DUP4 PUSH2 0xCFD JUMP JUMPDEST POP POP JUMP JUMPDEST PUSH0 PUSH1 0x1 PUSH0 DUP5 PUSH20 0xFFFFFFFFFFFFFFFFFFFFFFFFFFFFFFFFFFFFFFFF AND PUSH20 0xFFFFFFFFFFFFFFFFFFFFFFFFFFFFFFFFFFFFFFFF AND DUP2 MSTORE PUSH1 0x20 ADD SWAP1 DUP2 MSTORE PUSH1 0x20 ADD PUSH0 KECCAK256 PUSH0 DUP4 PUSH20 0xFFFFFFFFFFFFFFFFFFFFFFFFFFFFFFFFFFFFFFFF AND PUSH20 0xFFFFFFFFFFFFFFFFFFFFFFFFFFFFFFFFFFFFFFFF AND DUP2 MSTORE PUSH1 0x20 ADD SWAP1 DUP2 MSTORE PUSH1 0x20 ADD PUSH0 KECCAK256 PUSH0 SWAP1 SLOAD SWAP1 PUSH2 0x100 EXP SWAP1 DIV PUSH1 0xFF AND SWAP1 POP SWAP3 SWAP2 POP POP JUMP JUMPDEST PUSH0 PUSH2 0x712 PUSH2 0xA84 JUMP JUMPDEST SWAP1 POP DUP1 PUSH20 0xFFFFFFFFFFFFFFFFFFFFFFFFFFFFFFFFFFFFFFFF AND DUP7 PUSH20 0xFFFFFFFFFFFFFFFFFFFFFFFFFFFFFFFFFFFFFFFF AND EQ ISZERO DUP1 ISZERO PUSH2 0x757 JUMPI POP PUSH2 0x755 DUP7 DUP3 PUSH2 0x67B JUMP JUMPDEST ISZERO JUMPDEST ISZERO PUSH2 0x79B JUMPI DUP1 DUP7 PUSH1 0x40 MLOAD PUSH32 0xE237D92200000000000000000000000000000000000000000000000000000000 DUP2 MSTORE PUSH1 0x4 ADD PUSH2 0x792 SWAP3 SWAP2 SWAP1 PUSH2 0x24D0 JUMP JUMPDEST PUSH1 0x40 MLOAD DUP1 SWAP2 SUB SWAP1 REVERT JUMPDEST PUSH2 0x7A8 DUP7 DUP7 DUP7 DUP7 DUP7 PUSH2 0xE66 JUMP JUMPDEST POP POP POP POP POP POP JUMP JUMPDEST PUSH2 0x7B8 PUSH2 0x89D JUMP JUMPDEST PUSH0 PUSH20 0xFFFFFFFFFFFFFFFFFFFFFFFFFFFFFFFFFFFFFFFF AND DUP2 PUSH20 0xFFFFFFFFFFFFFFFFFFFFFFFFFFFFFFFFFFFFFFFF AND SUB PUSH2 0x828 JUMPI PUSH0 PUSH1 0x40 MLOAD PUSH32 0x1E4FBDF700000000000000000000000000000000000000000000000000000000 DUP2 MSTORE PUSH1 0x4 ADD PUSH2 0x81F SWAP2 SWAP1 PUSH2 0x220D JUMP JUMPDEST PUSH1 0x40 MLOAD DUP1 SWAP2 SUB SWAP1 REVERT JUMPDEST PUSH2 0x831 DUP2 PUSH2 0xBA5 JUMP JUMPDEST POP JUMP JUMPDEST PUSH0 PUSH32 0x1FFC9A700000000000000000000000000000000000000000000000000000000 PUSH28 0xFFFFFFFFFFFFFFFFFFFFFFFFFFFFFFFFFFFFFFFFFFFFFFFFFFFFFFFF NOT AND DUP3 PUSH28 0xFFFFFFFFFFFFFFFFFFFFFFFFFFFFFFFFFFFFFFFFFFFFFFFFFFFFFFFF NOT AND EQ SWAP1 POP SWAP2 SWAP1 POP JUMP JUMPDEST PUSH2 0x8A5 PUSH2 0xA84 JUMP JUMPDEST PUSH20 0xFFFFFFFFFFFFFFFFFFFFFFFFFFFFFFFFFFFFFFFF AND PUSH2 0x8C3 PUSH2 0x63D JUMP JUMPDEST PUSH20 0xFFFFFFFFFFFFFFFFFFFFFFFFFFFFFFFFFFFFFFFF AND EQ PUSH2 0x922 JUMPI PUSH2 0x8E6 PUSH2 0xA84 JUMP JUMPDEST PUSH1 0x40 MLOAD PUSH32 0x118CDAA700000000000000000000000000000000000000000000000000000000 DUP2 MSTORE PUSH1 0x4 ADD PUSH2 0x919 SWAP2 SWAP1 PUSH2 0x220D JUMP JUMPDEST PUSH1 0x40 MLOAD DUP1 SWAP2 SUB SWAP1 REVERT JUMPDEST JUMP JUMPDEST DUP1 PUSH1 0x2 SWAP1 DUP2 PUSH2 0x933 SWAP2 SWAP1 PUSH2 0x27B9 JUMP JUMPDEST POP POP JUMP JUMPDEST PUSH1 0x60 PUSH0 PUSH1 0x1 PUSH2 0x945 DUP5 PUSH2 0xF6C JUMP JUMPDEST ADD SWAP1 POP PUSH0 DUP2 PUSH8 0xFFFFFFFFFFFFFFFF DUP2 GT ISZERO PUSH2 0x963 JUMPI PUSH2 0x962 PUSH2 0x1A5C JUMP JUMPDEST JUMPDEST PUSH1 0x40 MLOAD SWAP1 DUP1 DUP3 MSTORE DUP1 PUSH1 0x1F ADD PUSH1 0x1F NOT AND PUSH1 0x20 ADD DUP3 ADD PUSH1 0x40 MSTORE DUP1 ISZERO PUSH2 0x995 JUMPI DUP2 PUSH1 0x20 ADD PUSH1 0x1 DUP3 MUL DUP1 CALLDATASIZE DUP4 CALLDATACOPY DUP1 DUP3 ADD SWAP2 POP POP SWAP1 POP JUMPDEST POP SWAP1 POP PUSH0 DUP3 PUSH1 0x20 ADD DUP3 ADD SWAP1 POP JUMPDEST PUSH1 0x1 ISZERO PUSH2 0x9F6 JUMPI DUP1 DUP1 PUSH1 0x1 SWAP1 SUB SWAP2 POP POP PUSH32 0x3031323334353637383961626364656600000000000000000000000000000000 PUSH1 0xA DUP7 MOD BYTE DUP2 MSTORE8 PUSH1 0xA DUP6 DUP2 PUSH2 0x9EB JUMPI PUSH2 0x9EA PUSH2 0x2888 JUMP JUMPDEST JUMPDEST DIV SWAP5 POP PUSH0 DUP6 SUB PUSH2 0x9A2 JUMPI JUMPDEST DUP2 SWAP4 POP POP POP POP SWAP2 SWAP1 POP JUMP JUMPDEST PUSH0 PUSH20 0xFFFFFFFFFFFFFFFFFFFFFFFFFFFFFFFFFFFFFFFF AND DUP5 PUSH20 0xFFFFFFFFFFFFFFFFFFFFFFFFFFFFFFFFFFFFFFFF AND SUB PUSH2 0xA71 JUMPI PUSH0 PUSH1 0x40 MLOAD PUSH32 0x57F447CE00000000000000000000000000000000000000000000000000000000 DUP2 MSTORE PUSH1 0x4 ADD PUSH2 0xA68 SWAP2 SWAP1 PUSH2 0x220D JUMP JUMPDEST PUSH1 0x40 MLOAD DUP1 SWAP2 SUB SWAP1 REVERT JUMPDEST PUSH2 0xA7E PUSH0 DUP6 DUP6 DUP6 DUP6 PUSH2 0x10BD JUMP JUMPDEST POP POP POP POP JUMP JUMPDEST PUSH0 CALLER SWAP1 POP SWAP1 JUMP JUMPDEST PUSH0 PUSH20 0xFFFFFFFFFFFFFFFFFFFFFFFFFFFFFFFFFFFFFFFF AND DUP5 PUSH20 0xFFFFFFFFFFFFFFFFFFFFFFFFFFFFFFFFFFFFFFFF AND SUB PUSH2 0xAFB JUMPI PUSH0 PUSH1 0x40 MLOAD PUSH32 0x57F447CE00000000000000000000000000000000000000000000000000000000 DUP2 MSTORE PUSH1 0x4 ADD PUSH2 0xAF2 SWAP2 SWAP1 PUSH2 0x220D JUMP JUMPDEST PUSH1 0x40 MLOAD DUP1 SWAP2 SUB SWAP1 REVERT JUMPDEST PUSH0 PUSH20 0xFFFFFFFFFFFFFFFFFFFFFFFFFFFFFFFFFFFFFFFF AND DUP6 PUSH20 0xFFFFFFFFFFFFFFFFFFFFFFFFFFFFFFFFFFFFFFFF AND SUB PUSH2 0xB6B JUMPI PUSH0 PUSH1 0x40 MLOAD PUSH32 0x1A8351400000000000000000000000000000000000000000000000000000000 DUP2 MSTORE PUSH1 0x4 ADD PUSH2 0xB62 SWAP2 SWAP1 PUSH2 0x220D JUMP JUMPDEST PUSH1 0x40 MLOAD DUP1 SWAP2 SUB SWAP1 REVERT JUMPDEST PUSH2 0xB78 DUP6 DUP6 DUP6 DUP6 DUP6 PUSH2 0x10BD JUMP JUMPDEST POP POP POP POP POP JUMP JUMPDEST PUSH0 PUSH1 0x20 DUP3 MUL PUSH1 0x20 DUP5 ADD ADD MLOAD SWAP1 POP SWAP3 SWAP2 POP POP JUMP JUMPDEST PUSH0 PUSH1 0x20 DUP3 MUL PUSH1 0x20 DUP5 ADD ADD MLOAD SWAP1 POP SWAP3 SWAP2 POP POP JUMP JUMPDEST PUSH0 PUSH1 0x3 PUSH0 SWAP1 SLOAD SWAP1 PUSH2 0x100 EXP SWAP1 DIV PUSH20 0xFFFFFFFFFFFFFFFFFFFFFFFFFFFFFFFFFFFFFFFF AND SWAP1 POP DUP2 PUSH1 0x3 PUSH0 PUSH2 0x100 EXP DUP2 SLOAD DUP2 PUSH20 0xFFFFFFFFFFFFFFFFFFFFFFFFFFFFFFFFFFFFFFFF MUL NOT AND SWAP1 DUP4 PUSH20 0xFFFFFFFFFFFFFFFFFFFFFFFFFFFFFFFFFFFFFFFF AND MUL OR SWAP1 SSTORE POP DUP2 PUSH20 0xFFFFFFFFFFFFFFFFFFFFFFFFFFFFFFFFFFFFFFFF AND DUP2 PUSH20 0xFFFFFFFFFFFFFFFFFFFFFFFFFFFFFFFFFFFFFFFF AND PUSH32 0x8BE0079C531659141344CD1FD0A4F28419497F9722A3DAAFE3B4186F6B6457E0 PUSH1 0x40 MLOAD PUSH1 0x40 MLOAD DUP1 SWAP2 SUB SWAP1 LOG3 POP POP JUMP JUMPDEST PUSH0 PUSH20 0xFFFFFFFFFFFFFFFFFFFFFFFFFFFFFFFFFFFFFFFF AND DUP5 PUSH20 0xFFFFFFFFFFFFFFFFFFFFFFFFFFFFFFFFFFFFFFFF AND SUB PUSH2 0xCD8 JUMPI PUSH0 PUSH1 0x40 MLOAD PUSH32 0x57F447CE00000000000000000000000000000000000000000000000000000000 DUP2 MSTORE PUSH1 0x4 ADD PUSH2 0xCCF SWAP2 SWAP1 PUSH2 0x220D JUMP JUMPDEST PUSH1 0x40 MLOAD DUP1 SWAP2 SUB SWAP1 REVERT JUMPDEST PUSH0 DUP1 PUSH2 0xCE4 DUP6 DUP6 PUSH2 0x1169 JUMP JUMPDEST SWAP2 POP SWAP2 POP PUSH2 0xCF5 PUSH0 DUP8 DUP5 DUP5 DUP8 PUSH2 0x10BD JUMP JUMPDEST POP POP POP POP POP POP JUMP JUMPDEST PUSH0 PUSH20 0xFFFFFFFFFFFFFFFFFFFFFFFFFFFFFFFFFFFFFFFF AND DUP3 PUSH20 0xFFFFFFFFFFFFFFFFFFFFFFFFFFFFFFFFFFFFFFFF AND SUB PUSH2 0xD6D JUMPI PUSH0 PUSH1 0x40 MLOAD PUSH32 0xCED3E10000000000000000000000000000000000000000000000000000000000 DUP2 MSTORE PUSH1 0x4 ADD PUSH2 0xD64 SWAP2 SWAP1 PUSH2 0x220D JUMP JUMPDEST PUSH1 0x40 MLOAD DUP1 SWAP2 SUB SWAP1 REVERT JUMPDEST DUP1 PUSH1 0x1 PUSH0 DUP6 PUSH20 0xFFFFFFFFFFFFFFFFFFFFFFFFFFFFFFFFFFFFFFFF AND PUSH20 0xFFFFFFFFFFFFFFFFFFFFFFFFFFFFFFFFFFFFFFFF AND DUP2 MSTORE PUSH1 0x20 ADD SWAP1 DUP2 MSTORE PUSH1 0x20 ADD PUSH0 KECCAK256 PUSH0 DUP5 PUSH20 0xFFFFFFFFFFFFFFFFFFFFFFFFFFFFFFFFFFFFFFFF AND PUSH20 0xFFFFFFFFFFFFFFFFFFFFFFFFFFFFFFFFFFFFFFFF AND DUP2 MSTORE PUSH1 0x20 ADD SWAP1 DUP2 MSTORE PUSH1 0x20 ADD PUSH0 KECCAK256 PUSH0 PUSH2 0x100 EXP DUP2 SLOAD DUP2 PUSH1 0xFF MUL NOT AND SWAP1 DUP4 ISZERO ISZERO MUL OR SWAP1 SSTORE POP DUP2 PUSH20 0xFFFFFFFFFFFFFFFFFFFFFFFFFFFFFFFFFFFFFFFF AND DUP4 PUSH20 0xFFFFFFFFFFFFFFFFFFFFFFFFFFFFFFFFFFFFFFFF AND PUSH32 0x17307EAB39AB6107E8899845AD3D59BD9653F200F220920489CA2B5937696C31 DUP4 PUSH1 0x40 MLOAD PUSH2 0xE59 SWAP2 SWAP1 PUSH2 0x1A2B JUMP JUMPDEST PUSH1 0x40 MLOAD DUP1 SWAP2 SUB SWAP1 LOG3 POP POP POP JUMP JUMPDEST PUSH0 PUSH20 0xFFFFFFFFFFFFFFFFFFFFFFFFFFFFFFFFFFFFFFFF AND DUP5 PUSH20 0xFFFFFFFFFFFFFFFFFFFFFFFFFFFFFFFFFFFFFFFF AND SUB PUSH2 0xED6 JUMPI PUSH0 PUSH1 0x40 MLOAD PUSH32 0x57F447CE00000000000000000000000000000000000000000000000000000000 DUP2 MSTORE PUSH1 0x4 ADD PUSH2 0xECD SWAP2 SWAP1 PUSH2 0x220D JUMP JUMPDEST PUSH1 0x40 MLOAD DUP1 SWAP2 SUB SWAP1 REVERT JUMPDEST PUSH0 PUSH20 0xFFFFFFFFFFFFFFFFFFFFFFFFFFFFFFFFFFFFFFFF AND DUP6 PUSH20 0xFFFFFFFFFFFFFFFFFFFFFFFFFFFFFFFFFFFFFFFF AND SUB PUSH2 0xF46 JUMPI PUSH0 PUSH1 0x40 MLOAD PUSH32 0x1A8351400000000000000000000000000000000000000000000000000000000 DUP2 MSTORE PUSH1 0x4 ADD PUSH2 0xF3D SWAP2 SWAP1 PUSH2 0x220D JUMP JUMPDEST PUSH1 0x40 MLOAD DUP1 SWAP2 SUB SWAP1 REVERT JUMPDEST PUSH0 DUP1 PUSH2 0xF52 DUP6 DUP6 PUSH2 0x1169 JUMP JUMPDEST SWAP2 POP SWAP2 POP PUSH2 0xF63 DUP8 DUP8 DUP5 DUP5 DUP8 PUSH2 0x10BD JUMP JUMPDEST POP POP POP POP POP POP POP JUMP JUMPDEST PUSH0 DUP1 PUSH0 SWAP1 POP PUSH27 0x184F03E93FF9F4DAA797ED6E38ED64BF6A1F010000000000000000 DUP4 LT PUSH2 0xFC8 JUMPI PUSH27 0x184F03E93FF9F4DAA797ED6E38ED64BF6A1F010000000000000000 DUP4 DUP2 PUSH2 0xFBE JUMPI PUSH2 0xFBD PUSH2 0x2888 JUMP JUMPDEST JUMPDEST DIV SWAP3 POP PUSH1 0x40 DUP2 ADD SWAP1 POP JUMPDEST PUSH14 0x4EE2D6D415B85ACEF8100000000 DUP4 LT PUSH2 0x1005 JUMPI PUSH14 0x4EE2D6D415B85ACEF8100000000 DUP4 DUP2 PUSH2 0xFFB JUMPI PUSH2 0xFFA PUSH2 0x2888 JUMP JUMPDEST JUMPDEST DIV SWAP3 POP PUSH1 0x20 DUP2 ADD SWAP1 POP JUMPDEST PUSH7 0x2386F26FC10000 DUP4 LT PUSH2 0x1034 JUMPI PUSH7 0x2386F26FC10000 DUP4 DUP2 PUSH2 0x102A JUMPI PUSH2 0x1029 PUSH2 0x2888 JUMP JUMPDEST JUMPDEST DIV SWAP3 POP PUSH1 0x10 DUP2 ADD SWAP1 POP JUMPDEST PUSH4 0x5F5E100 DUP4 LT PUSH2 0x105D JUMPI PUSH4 0x5F5E100 DUP4 DUP2 PUSH2 0x1053 JUMPI PUSH2 0x1052 PUSH2 0x2888 JUMP JUMPDEST JUMPDEST DIV SWAP3 POP PUSH1 0x8 DUP2 ADD SWAP1 POP JUMPDEST PUSH2 0x2710 DUP4 LT PUSH2 0x1082 JUMPI PUSH2 0x2710 DUP4 DUP2 PUSH2 0x1078 JUMPI PUSH2 0x1077 PUSH2 0x2888 JUMP JUMPDEST JUMPDEST DIV SWAP3 POP PUSH1 0x4 DUP2 ADD SWAP1 POP JUMPDEST PUSH1 0x64 DUP4 LT PUSH2 0x10A5 JUMPI PUSH1 0x64 DUP4 DUP2 PUSH2 0x109B JUMPI PUSH2 0x109A PUSH2 0x2888 JUMP JUMPDEST JUMPDEST DIV SWAP3 POP PUSH1 0x2 DUP2 ADD SWAP1 POP JUMPDEST PUSH1 0xA DUP4 LT PUSH2 0x10B4 JUMPI PUSH1 0x1 DUP2 ADD SWAP1 POP JUMPDEST DUP1 SWAP2 POP POP SWAP2 SWAP1 POP JUMP JUMPDEST PUSH2 0x10C9 DUP6 DUP6 DUP6 DUP6 PUSH2 0x1199 JUMP JUMPDEST PUSH0 PUSH20 0xFFFFFFFFFFFFFFFFFFFFFFFFFFFFFFFFFFFFFFFF AND DUP5 PUSH20 0xFFFFFFFFFFFFFFFFFFFFFFFFFFFFFFFFFFFFFFFF AND EQ PUSH2 0x1162 JUMPI PUSH0 PUSH2 0x1105 PUSH2 0xA84 JUMP JUMPDEST SWAP1 POP PUSH1 0x1 DUP5 MLOAD SUB PUSH2 0x1151 JUMPI PUSH0 PUSH2 0x1124 PUSH0 DUP7 PUSH2 0xB92 SWAP1 SWAP2 SWAP1 PUSH4 0xFFFFFFFF AND JUMP JUMPDEST SWAP1 POP PUSH0 PUSH2 0x113A PUSH0 DUP7 PUSH2 0xB92 SWAP1 SWAP2 SWAP1 PUSH4 0xFFFFFFFF AND JUMP JUMPDEST SWAP1 POP PUSH2 0x114A DUP4 DUP10 DUP10 DUP6 DUP6 DUP10 PUSH2 0x152F JUMP JUMPDEST POP POP PUSH2 0x1160 JUMP JUMPDEST PUSH2 0x115F DUP2 DUP8 DUP8 DUP8 DUP8 DUP8 PUSH2 0x16DE JUMP JUMPDEST JUMPDEST POP JUMPDEST POP POP POP POP POP JUMP JUMPDEST PUSH1 0x60 DUP1 PUSH1 0x40 MLOAD SWAP2 POP PUSH1 0x1 DUP3 MSTORE DUP4 PUSH1 0x20 DUP4 ADD MSTORE PUSH1 0x40 DUP3 ADD SWAP1 POP PUSH1 0x1 DUP2 MSTORE DUP3 PUSH1 0x20 DUP3 ADD MSTORE PUSH1 0x40 DUP2 ADD PUSH1 0x40 MSTORE SWAP3 POP SWAP3 SWAP1 POP JUMP JUMPDEST DUP1 MLOAD DUP3 MLOAD EQ PUSH2 0x11E3 JUMPI DUP2 MLOAD DUP2 MLOAD PUSH1 0x40 MLOAD PUSH32 0x5B05999100000000000000000000000000000000000000000000000000000000 DUP2 MSTORE PUSH1 0x4 ADD PUSH2 0x11DA SWAP3 SWAP2 SWAP1 PUSH2 0x24F7 JUMP JUMPDEST PUSH1 0x40 MLOAD DUP1 SWAP2 SUB SWAP1 REVERT JUMPDEST PUSH0 PUSH2 0x11EC PUSH2 0xA84 JUMP JUMPDEST SWAP1 POP PUSH0 JUMPDEST DUP4 MLOAD DUP2 LT ISZERO PUSH2 0x13EE JUMPI PUSH0 PUSH2 0x120D DUP3 DUP7 PUSH2 0xB92 SWAP1 SWAP2 SWAP1 PUSH4 0xFFFFFFFF AND JUMP JUMPDEST SWAP1 POP PUSH0 PUSH2 0x1223 DUP4 DUP7 PUSH2 0xB92 SWAP1 SWAP2 SWAP1 PUSH4 0xFFFFFFFF AND JUMP JUMPDEST SWAP1 POP PUSH0 PUSH20 0xFFFFFFFFFFFFFFFFFFFFFFFFFFFFFFFFFFFFFFFF AND DUP9 PUSH20 0xFFFFFFFFFFFFFFFFFFFFFFFFFFFFFFFFFFFFFFFF AND EQ PUSH2 0x1346 JUMPI PUSH0 DUP1 PUSH0 DUP5 DUP2 MSTORE PUSH1 0x20 ADD SWAP1 DUP2 MSTORE PUSH1 0x20 ADD PUSH0 KECCAK256 PUSH0 DUP11 PUSH20 0xFFFFFFFFFFFFFFFFFFFFFFFFFFFFFFFFFFFFFFFF AND PUSH20 0xFFFFFFFFFFFFFFFFFFFFFFFFFFFFFFFFFFFFFFFF AND DUP2 MSTORE PUSH1 0x20 ADD SWAP1 DUP2 MSTORE PUSH1 0x20 ADD PUSH0 KECCAK256 SLOAD SWAP1 POP DUP2 DUP2 LT ISZERO PUSH2 0x12F2 JUMPI DUP9 DUP2 DUP4 DUP6 PUSH1 0x40 MLOAD PUSH32 0x3DEE4C500000000000000000000000000000000000000000000000000000000 DUP2 MSTORE PUSH1 0x4 ADD PUSH2 0x12E9 SWAP5 SWAP4 SWAP3 SWAP2 SWAP1 PUSH2 0x28B5 JUMP JUMPDEST PUSH1 0x40 MLOAD DUP1 SWAP2 SUB SWAP1 REVERT JUMPDEST DUP2 DUP2 SUB PUSH0 DUP1 DUP6 DUP2 MSTORE PUSH1 0x20 ADD SWAP1 DUP2 MSTORE PUSH1 0x20 ADD PUSH0 KECCAK256 PUSH0 DUP12 PUSH20 0xFFFFFFFFFFFFFFFFFFFFFFFFFFFFFFFFFFFFFFFF AND PUSH20 0xFFFFFFFFFFFFFFFFFFFFFFFFFFFFFFFFFFFFFFFF AND DUP2 MSTORE PUSH1 0x20 ADD SWAP1 DUP2 MSTORE PUSH1 0x20 ADD PUSH0 KECCAK256 DUP2 SWAP1 SSTORE POP POP JUMPDEST PUSH0 PUSH20 0xFFFFFFFFFFFFFFFFFFFFFFFFFFFFFFFFFFFFFFFF AND DUP8 PUSH20 0xFFFFFFFFFFFFFFFFFFFFFFFFFFFFFFFFFFFFFFFF AND EQ PUSH2 0x13DB JUMPI DUP1 PUSH0 DUP1 DUP5 DUP2 MSTORE PUSH1 0x20 ADD SWAP1 DUP2 MSTORE PUSH1 0x20 ADD PUSH0 KECCAK256 PUSH0 DUP10 PUSH20 0xFFFFFFFFFFFFFFFFFFFFFFFFFFFFFFFFFFFFFFFF AND PUSH20 0xFFFFFFFFFFFFFFFFFFFFFFFFFFFFFFFFFFFFFFFF AND DUP2 MSTORE PUSH1 0x20 ADD SWAP1 DUP2 MSTORE PUSH1 0x20 ADD PUSH0 KECCAK256 PUSH0 DUP3 DUP3 SLOAD PUSH2 0x13D3 SWAP2 SWAP1 PUSH2 0x28F8 JUMP JUMPDEST SWAP3 POP POP DUP2 SWAP1 SSTORE POP JUMPDEST POP POP DUP1 PUSH2 0x13E7 SWAP1 PUSH2 0x2578 JUMP JUMPDEST SWAP1 POP PUSH2 0x11F0 JUMP JUMPDEST POP PUSH1 0x1 DUP4 MLOAD SUB PUSH2 0x14A9 JUMPI PUSH0 PUSH2 0x140C PUSH0 DUP6 PUSH2 0xB92 SWAP1 SWAP2 SWAP1 PUSH4 0xFFFFFFFF AND JUMP JUMPDEST SWAP1 POP PUSH0 PUSH2 0x1422 PUSH0 DUP6 PUSH2 0xB92 SWAP1 SWAP2 SWAP1 PUSH4 0xFFFFFFFF AND JUMP JUMPDEST SWAP1 POP DUP6 PUSH20 0xFFFFFFFFFFFFFFFFFFFFFFFFFFFFFFFFFFFFFFFF AND DUP8 PUSH20 0xFFFFFFFFFFFFFFFFFFFFFFFFFFFFFFFFFFFFFFFF AND DUP5 PUSH20 0xFFFFFFFFFFFFFFFFFFFFFFFFFFFFFFFFFFFFFFFF AND PUSH32 0xC3D58168C5AE7397731D063D5BBF3D657854427343F4C083240F7AACAA2D0F62 DUP6 DUP6 PUSH1 0x40 MLOAD PUSH2 0x149A SWAP3 SWAP2 SWAP1 PUSH2 0x24F7 JUMP JUMPDEST PUSH1 0x40 MLOAD DUP1 SWAP2 SUB SWAP1 LOG4 POP POP PUSH2 0x1528 JUMP JUMPDEST DUP4 PUSH20 0xFFFFFFFFFFFFFFFFFFFFFFFFFFFFFFFFFFFFFFFF AND DUP6 PUSH20 0xFFFFFFFFFFFFFFFFFFFFFFFFFFFFFFFFFFFFFFFF AND DUP3 PUSH20 0xFFFFFFFFFFFFFFFFFFFFFFFFFFFFFFFFFFFFFFFF AND PUSH32 0x4A39DC06D4C0DBC64B70AF90FD698A233A518AA5D07E595D983B8C0526C8F7FB DUP7 DUP7 PUSH1 0x40 MLOAD PUSH2 0x151F SWAP3 SWAP2 SWAP1 PUSH2 0x292B JUMP JUMPDEST PUSH1 0x40 MLOAD DUP1 SWAP2 SUB SWAP1 LOG4 JUMPDEST POP POP POP POP POP JUMP JUMPDEST PUSH0 DUP5 PUSH20 0xFFFFFFFFFFFFFFFFFFFFFFFFFFFFFFFFFFFFFFFF AND EXTCODESIZE GT ISZERO PUSH2 0x16D6 JUMPI DUP4 PUSH20 0xFFFFFFFFFFFFFFFFFFFFFFFFFFFFFFFFFFFFFFFF AND PUSH4 0xF23A6E61 DUP8 DUP8 DUP7 DUP7 DUP7 PUSH1 0x40 MLOAD DUP7 PUSH4 0xFFFFFFFF AND PUSH1 0xE0 SHL DUP2 MSTORE PUSH1 0x4 ADD PUSH2 0x158F SWAP6 SWAP5 SWAP4 SWAP3 SWAP2 SWAP1 PUSH2 0x29B2 JUMP JUMPDEST PUSH1 0x20 PUSH1 0x40 MLOAD DUP1 DUP4 SUB DUP2 PUSH0 DUP8 GAS CALL SWAP3 POP POP POP DUP1 ISZERO PUSH2 0x15CA JUMPI POP PUSH1 0x40 MLOAD RETURNDATASIZE PUSH1 0x1F NOT PUSH1 0x1F DUP3 ADD AND DUP3 ADD DUP1 PUSH1 0x40 MSTORE POP DUP2 ADD SWAP1 PUSH2 0x15C7 SWAP2 SWAP1 PUSH2 0x2A1E JUMP JUMPDEST PUSH1 0x1 JUMPDEST PUSH2 0x164B JUMPI RETURNDATASIZE DUP1 PUSH0 DUP2 EQ PUSH2 0x15F8 JUMPI PUSH1 0x40 MLOAD SWAP2 POP PUSH1 0x1F NOT PUSH1 0x3F RETURNDATASIZE ADD AND DUP3 ADD PUSH1 0x40 MSTORE RETURNDATASIZE DUP3 MSTORE RETURNDATASIZE PUSH0 PUSH1 0x20 DUP5 ADD RETURNDATACOPY PUSH2 0x15FD JUMP JUMPDEST PUSH1 0x60 SWAP2 POP JUMPDEST POP PUSH0 DUP2 MLOAD SUB PUSH2 0x1643 JUMPI DUP5 PUSH1 0x40 MLOAD PUSH32 0x57F447CE00000000000000000000000000000000000000000000000000000000 DUP2 MSTORE PUSH1 0x4 ADD PUSH2 0x163A SWAP2 SWAP1 PUSH2 0x220D JUMP JUMPDEST PUSH1 0x40 MLOAD DUP1 SWAP2 SUB SWAP1 REVERT JUMPDEST DUP1 MLOAD DUP2 PUSH1 0x20 ADD REVERT JUMPDEST PUSH4 0xF23A6E61 PUSH1 0xE0 SHL PUSH28 0xFFFFFFFFFFFFFFFFFFFFFFFFFFFFFFFFFFFFFFFFFFFFFFFFFFFFFFFF NOT AND DUP2 PUSH28 0xFFFFFFFFFFFFFFFFFFFFFFFFFFFFFFFFFFFFFFFFFFFFFFFFFFFFFFFF NOT AND EQ PUSH2 0x16D4 JUMPI DUP5 PUSH1 0x40 MLOAD PUSH32 0x57F447CE00000000000000000000000000000000000000000000000000000000 DUP2 MSTORE PUSH1 0x4 ADD PUSH2 0x16CB SWAP2 SWAP1 PUSH2 0x220D JUMP JUMPDEST PUSH1 0x40 MLOAD DUP1 SWAP2 SUB SWAP1 REVERT JUMPDEST POP JUMPDEST POP POP POP POP POP POP JUMP JUMPDEST PUSH0 DUP5 PUSH20 0xFFFFFFFFFFFFFFFFFFFFFFFFFFFFFFFFFFFFFFFF AND EXTCODESIZE GT ISZERO PUSH2 0x1885 JUMPI DUP4 PUSH20 0xFFFFFFFFFFFFFFFFFFFFFFFFFFFFFFFFFFFFFFFF AND PUSH4 0xBC197C81 DUP8 DUP8 DUP7 DUP7 DUP7 PUSH1 0x40 MLOAD DUP7 PUSH4 0xFFFFFFFF AND PUSH1 0xE0 SHL DUP2 MSTORE PUSH1 0x4 ADD PUSH2 0x173E SWAP6 SWAP5 SWAP4 SWAP3 SWAP2 SWAP1 PUSH2 0x2A49 JUMP JUMPDEST PUSH1 0x20 PUSH1 0x40 MLOAD DUP1 DUP4 SUB DUP2 PUSH0 DUP8 GAS CALL SWAP3 POP POP POP DUP1 ISZERO PUSH2 0x1779 JUMPI POP PUSH1 0x40 MLOAD RETURNDATASIZE PUSH1 0x1F NOT PUSH1 0x1F DUP3 ADD AND DUP3 ADD DUP1 PUSH1 0x40 MSTORE POP DUP2 ADD SWAP1 PUSH2 0x1776 SWAP2 SWAP1 PUSH2 0x2A1E JUMP JUMPDEST PUSH1 0x1 JUMPDEST PUSH2 0x17FA JUMPI RETURNDATASIZE DUP1 PUSH0 DUP2 EQ PUSH2 0x17A7 JUMPI PUSH1 0x40 MLOAD SWAP2 POP PUSH1 0x1F NOT PUSH1 0x3F RETURNDATASIZE ADD AND DUP3 ADD PUSH1 0x40 MSTORE RETURNDATASIZE DUP3 MSTORE RETURNDATASIZE PUSH0 PUSH1 0x20 DUP5 ADD RETURNDATACOPY PUSH2 0x17AC JUMP JUMPDEST PUSH1 0x60 SWAP2 POP JUMPDEST POP PUSH0 DUP2 MLOAD SUB PUSH2 0x17F2 JUMPI DUP5 PUSH1 0x40 MLOAD PUSH32 0x57F447CE00000000000000000000000000000000000000000000000000000000 DUP2 MSTORE PUSH1 0x4 ADD PUSH2 0x17E9 SWAP2 SWAP1 PUSH2 0x220D JUMP JUMPDEST PUSH1 0x40 MLOAD DUP1 SWAP2 SUB SWAP1 REVERT JUMPDEST DUP1 MLOAD DUP2 PUSH1 0x20 ADD REVERT JUMPDEST PUSH4 0xBC197C81 PUSH1 0xE0 SHL PUSH28 0xFFFFFFFFFFFFFFFFFFFFFFFFFFFFFFFFFFFFFFFFFFFFFFFFFFFFFFFF NOT AND DUP2 PUSH28 0xFFFFFFFFFFFFFFFFFFFFFFFFFFFFFFFFFFFFFFFFFFFFFFFFFFFFFFFF NOT AND EQ PUSH2 0x1883 JUMPI DUP5 PUSH1 0x40 MLOAD PUSH32 0x57F447CE00000000000000000000000000000000000000000000000000000000 DUP2 MSTORE PUSH1 0x4 ADD PUSH2 0x187A SWAP2 SWAP1 PUSH2 0x220D JUMP JUMPDEST PUSH1 0x40 MLOAD DUP1 SWAP2 SUB SWAP1 REVERT JUMPDEST POP JUMPDEST POP POP POP POP POP POP JUMP JUMPDEST PUSH0 PUSH1 0x40 MLOAD SWAP1 POP SWAP1 JUMP JUMPDEST PUSH0 DUP1 REVERT JUMPDEST PUSH0 DUP1 REVERT JUMPDEST PUSH0 PUSH20 0xFFFFFFFFFFFFFFFFFFFFFFFFFFFFFFFFFFFFFFFF DUP3 AND SWAP1 POP SWAP2 SWAP1 POP JUMP JUMPDEST PUSH0 PUSH2 0x18C7 DUP3 PUSH2 0x189E JUMP JUMPDEST SWAP1 POP SWAP2 SWAP1 POP JUMP JUMPDEST PUSH2 0x18D7 DUP2 PUSH2 0x18BD JUMP JUMPDEST DUP2 EQ PUSH2 0x18E1 JUMPI PUSH0 DUP1 REVERT JUMPDEST POP JUMP JUMPDEST PUSH0 DUP2 CALLDATALOAD SWAP1 POP PUSH2 0x18F2 DUP2 PUSH2 0x18CE JUMP JUMPDEST SWAP3 SWAP2 POP POP JUMP JUMPDEST PUSH0 DUP2 SWAP1 POP SWAP2 SWAP1 POP JUMP JUMPDEST PUSH2 0x190A DUP2 PUSH2 0x18F8 JUMP JUMPDEST DUP2 EQ PUSH2 0x1914 JUMPI PUSH0 DUP1 REVERT JUMPDEST POP JUMP JUMPDEST PUSH0 DUP2 CALLDATALOAD SWAP1 POP PUSH2 0x1925 DUP2 PUSH2 0x1901 JUMP JUMPDEST SWAP3 SWAP2 POP POP JUMP JUMPDEST PUSH0 DUP1 PUSH1 0x40 DUP4 DUP6 SUB SLT ISZERO PUSH2 0x1941 JUMPI PUSH2 0x1940 PUSH2 0x1896 JUMP JUMPDEST JUMPDEST PUSH0 PUSH2 0x194E DUP6 DUP3 DUP7 ADD PUSH2 0x18E4 JUMP JUMPDEST SWAP3 POP POP PUSH1 0x20 PUSH2 0x195F DUP6 DUP3 DUP7 ADD PUSH2 0x1917 JUMP JUMPDEST SWAP2 POP POP SWAP3 POP SWAP3 SWAP1 POP JUMP JUMPDEST PUSH2 0x1972 DUP2 PUSH2 0x18F8 JUMP JUMPDEST DUP3 MSTORE POP POP JUMP JUMPDEST PUSH0 PUSH1 0x20 DUP3 ADD SWAP1 POP PUSH2 0x198B PUSH0 DUP4 ADD DUP5 PUSH2 0x1969 JUMP JUMPDEST SWAP3 SWAP2 POP POP JUMP JUMPDEST PUSH0 PUSH32 0xFFFFFFFF00000000000000000000000000000000000000000000000000000000 DUP3 AND SWAP1 POP SWAP2 SWAP1 POP JUMP JUMPDEST PUSH2 0x19C5 DUP2 PUSH2 0x1991 JUMP JUMPDEST DUP2 EQ PUSH2 0x19CF JUMPI PUSH0 DUP1 REVERT JUMPDEST POP JUMP JUMPDEST PUSH0 DUP2 CALLDATALOAD SWAP1 POP PUSH2 0x19E0 DUP2 PUSH2 0x19BC JUMP JUMPDEST SWAP3 SWAP2 POP POP JUMP JUMPDEST PUSH0 PUSH1 0x20 DUP3 DUP5 SUB SLT ISZERO PUSH2 0x19FB JUMPI PUSH2 0x19FA PUSH2 0x1896 JUMP JUMPDEST JUMPDEST PUSH0 PUSH2 0x1A08 DUP5 DUP3 DUP6 ADD PUSH2 0x19D2 JUMP JUMPDEST SWAP2 POP POP SWAP3 SWAP2 POP POP JUMP JUMPDEST PUSH0 DUP2 ISZERO ISZERO SWAP1 POP SWAP2 SWAP1 POP JUMP JUMPDEST PUSH2 0x1A25 DUP2 PUSH2 0x1A11 JUMP JUMPDEST DUP3 MSTORE POP POP JUMP JUMPDEST PUSH0 PUSH1 0x20 DUP3 ADD SWAP1 POP PUSH2 0x1A3E PUSH0 DUP4 ADD DUP5 PUSH2 0x1A1C JUMP JUMPDEST SWAP3 SWAP2 POP POP JUMP JUMPDEST PUSH0 DUP1 REVERT JUMPDEST PUSH0 DUP1 REVERT JUMPDEST PUSH0 PUSH1 0x1F NOT PUSH1 0x1F DUP4 ADD AND SWAP1 POP SWAP2 SWAP1 POP JUMP JUMPDEST PUSH32 0x4E487B7100000000000000000000000000000000000000000000000000000000 PUSH0 MSTORE PUSH1 0x41 PUSH1 0x4 MSTORE PUSH1 0x24 PUSH0 REVERT JUMPDEST PUSH2 0x1A92 DUP3 PUSH2 0x1A4C JUMP JUMPDEST DUP2 ADD DUP2 DUP2 LT PUSH8 0xFFFFFFFFFFFFFFFF DUP3 GT OR ISZERO PUSH2 0x1AB1 JUMPI PUSH2 0x1AB0 PUSH2 0x1A5C JUMP JUMPDEST JUMPDEST DUP1 PUSH1 0x40 MSTORE POP POP POP JUMP JUMPDEST PUSH0 PUSH2 0x1AC3 PUSH2 0x188D JUMP JUMPDEST SWAP1 POP PUSH2 0x1ACF DUP3 DUP3 PUSH2 0x1A89 JUMP JUMPDEST SWAP2 SWAP1 POP JUMP JUMPDEST PUSH0 PUSH8 0xFFFFFFFFFFFFFFFF DUP3 GT ISZERO PUSH2 0x1AEE JUMPI PUSH2 0x1AED PUSH2 0x1A5C JUMP JUMPDEST JUMPDEST PUSH2 0x1AF7 DUP3 PUSH2 0x1A4C JUMP JUMPDEST SWAP1 POP PUSH1 0x20 DUP2 ADD SWAP1 POP SWAP2 SWAP1 POP JUMP JUMPDEST DUP3 DUP2 DUP4 CALLDATACOPY PUSH0 DUP4 DUP4 ADD MSTORE POP POP POP JUMP JUMPDEST PUSH0 PUSH2 0x1B24 PUSH2 0x1B1F DUP5 PUSH2 0x1AD4 JUMP JUMPDEST PUSH2 0x1ABA JUMP JUMPDEST SWAP1 POP DUP3 DUP2 MSTORE PUSH1 0x20 DUP2 ADD DUP5 DUP5 DUP5 ADD GT ISZERO PUSH2 0x1B40 JUMPI PUSH2 0x1B3F PUSH2 0x1A48 JUMP JUMPDEST JUMPDEST PUSH2 0x1B4B DUP5 DUP3 DUP6 PUSH2 0x1B04 JUMP JUMPDEST POP SWAP4 SWAP3 POP POP POP JUMP JUMPDEST PUSH0 DUP3 PUSH1 0x1F DUP4 ADD SLT PUSH2 0x1B67 JUMPI PUSH2 0x1B66 PUSH2 0x1A44 JUMP JUMPDEST JUMPDEST DUP2 CALLDATALOAD PUSH2 0x1B77 DUP5 DUP3 PUSH1 0x20 DUP7 ADD PUSH2 0x1B12 JUMP JUMPDEST SWAP2 POP POP SWAP3 SWAP2 POP POP JUMP JUMPDEST PUSH0 PUSH1 0x20 DUP3 DUP5 SUB SLT ISZERO PUSH2 0x1B95 JUMPI PUSH2 0x1B94 PUSH2 0x1896 JUMP JUMPDEST JUMPDEST PUSH0 DUP3 ADD CALLDATALOAD PUSH8 0xFFFFFFFFFFFFFFFF DUP2 GT ISZERO PUSH2 0x1BB2 JUMPI PUSH2 0x1BB1 PUSH2 0x189A JUMP JUMPDEST JUMPDEST PUSH2 0x1BBE DUP5 DUP3 DUP6 ADD PUSH2 0x1B53 JUMP JUMPDEST SWAP2 POP POP SWAP3 SWAP2 POP POP JUMP JUMPDEST PUSH0 PUSH1 0x20 DUP3 DUP5 SUB SLT ISZERO PUSH2 0x1BDC JUMPI PUSH2 0x1BDB PUSH2 0x1896 JUMP JUMPDEST JUMPDEST PUSH0 PUSH2 0x1BE9 DUP5 DUP3 DUP6 ADD PUSH2 0x1917 JUMP JUMPDEST SWAP2 POP POP SWAP3 SWAP2 POP POP JUMP JUMPDEST PUSH0 DUP2 MLOAD SWAP1 POP SWAP2 SWAP1 POP JUMP JUMPDEST PUSH0 DUP3 DUP3 MSTORE PUSH1 0x20 DUP3 ADD SWAP1 POP SWAP3 SWAP2 POP POP JUMP JUMPDEST PUSH0 JUMPDEST DUP4 DUP2 LT ISZERO PUSH2 0x1C29 JUMPI DUP1 DUP3 ADD MLOAD DUP2 DUP5 ADD MSTORE PUSH1 0x20 DUP2 ADD SWAP1 POP PUSH2 0x1C0E JUMP JUMPDEST PUSH0 DUP5 DUP5 ADD MSTORE POP POP POP POP JUMP JUMPDEST PUSH0 PUSH2 0x1C3E DUP3 PUSH2 0x1BF2 JUMP JUMPDEST PUSH2 0x1C48 DUP2 DUP6 PUSH2 0x1BFC JUMP JUMPDEST SWAP4 POP PUSH2 0x1C58 DUP2 DUP6 PUSH1 0x20 DUP7 ADD PUSH2 0x1C0C JUMP JUMPDEST PUSH2 0x1C61 DUP2 PUSH2 0x1A4C JUMP JUMPDEST DUP5 ADD SWAP2 POP POP SWAP3 SWAP2 POP POP JUMP JUMPDEST PUSH0 PUSH1 0x20 DUP3 ADD SWAP1 POP DUP2 DUP2 SUB PUSH0 DUP4 ADD MSTORE PUSH2 0x1C84 DUP2 DUP5 PUSH2 0x1C34 JUMP JUMPDEST SWAP1 POP SWAP3 SWAP2 POP POP JUMP JUMPDEST PUSH0 PUSH8 0xFFFFFFFFFFFFFFFF DUP3 GT ISZERO PUSH2 0x1CA6 JUMPI PUSH2 0x1CA5 PUSH2 0x1A5C JUMP JUMPDEST JUMPDEST PUSH1 0x20 DUP3 MUL SWAP1 POP PUSH1 0x20 DUP2 ADD SWAP1 POP SWAP2 SWAP1 POP JUMP JUMPDEST PUSH0 DUP1 REVERT JUMPDEST PUSH0 PUSH2 0x1CCD PUSH2 0x1CC8 DUP5 PUSH2 0x1C8C JUMP JUMPDEST PUSH2 0x1ABA JUMP JUMPDEST SWAP1 POP DUP1 DUP4 DUP3 MSTORE PUSH1 0x20 DUP3 ADD SWAP1 POP PUSH1 0x20 DUP5 MUL DUP4 ADD DUP6 DUP2 GT ISZERO PUSH2 0x1CF0 JUMPI PUSH2 0x1CEF PUSH2 0x1CB7 JUMP JUMPDEST JUMPDEST DUP4 JUMPDEST DUP2 DUP2 LT ISZERO PUSH2 0x1D19 JUMPI DUP1 PUSH2 0x1D05 DUP9 DUP3 PUSH2 0x1917 JUMP JUMPDEST DUP5 MSTORE PUSH1 0x20 DUP5 ADD SWAP4 POP POP PUSH1 0x20 DUP2 ADD SWAP1 POP PUSH2 0x1CF2 JUMP JUMPDEST POP POP POP SWAP4 SWAP3 POP POP POP JUMP JUMPDEST PUSH0 DUP3 PUSH1 0x1F DUP4 ADD SLT PUSH2 0x1D37 JUMPI PUSH2 0x1D36 PUSH2 0x1A44 JUMP JUMPDEST JUMPDEST DUP2 CALLDATALOAD PUSH2 0x1D47 DUP5 DUP3 PUSH1 0x20 DUP7 ADD PUSH2 0x1CBB JUMP JUMPDEST SWAP2 POP POP SWAP3 SWAP2 POP POP JUMP JUMPDEST PUSH0 PUSH8 0xFFFFFFFFFFFFFFFF DUP3 GT ISZERO PUSH2 0x1D6A JUMPI PUSH2 0x1D69 PUSH2 0x1A5C JUMP JUMPDEST JUMPDEST PUSH2 0x1D73 DUP3 PUSH2 0x1A4C JUMP JUMPDEST SWAP1 POP PUSH1 0x20 DUP2 ADD SWAP1 POP SWAP2 SWAP1 POP JUMP JUMPDEST PUSH0 PUSH2 0x1D92 PUSH2 0x1D8D DUP5 PUSH2 0x1D50 JUMP JUMPDEST PUSH2 0x1ABA JUMP JUMPDEST SWAP1 POP DUP3 DUP2 MSTORE PUSH1 0x20 DUP2 ADD DUP5 DUP5 DUP5 ADD GT ISZERO PUSH2 0x1DAE JUMPI PUSH2 0x1DAD PUSH2 0x1A48 JUMP JUMPDEST JUMPDEST PUSH2 0x1DB9 DUP5 DUP3 DUP6 PUSH2 0x1B04 JUMP JUMPDEST POP SWAP4 SWAP3 POP POP POP JUMP JUMPDEST PUSH0 DUP3 PUSH1 0x1F DUP4 ADD SLT PUSH2 0x1DD5 JUMPI PUSH2 0x1DD4 PUSH2 0x1A44 JUMP JUMPDEST JUMPDEST DUP2 CALLDATALOAD PUSH2 0x1DE5 DUP5 DUP3 PUSH1 0x20 DUP7 ADD PUSH2 0x1D80 JUMP JUMPDEST SWAP2 POP POP SWAP3 SWAP2 POP POP JUMP JUMPDEST PUSH0 DUP1 PUSH0 DUP1 PUSH1 0x80 DUP6 DUP8 SUB SLT ISZERO PUSH2 0x1E06 JUMPI PUSH2 0x1E05 PUSH2 0x1896 JUMP JUMPDEST JUMPDEST PUSH0 PUSH2 0x1E13 DUP8 DUP3 DUP9 ADD PUSH2 0x18E4 JUMP JUMPDEST SWAP5 POP POP PUSH1 0x20 DUP6 ADD CALLDATALOAD PUSH8 0xFFFFFFFFFFFFFFFF DUP2 GT ISZERO PUSH2 0x1E34 JUMPI PUSH2 0x1E33 PUSH2 0x189A JUMP JUMPDEST JUMPDEST PUSH2 0x1E40 DUP8 DUP3 DUP9 ADD PUSH2 0x1D23 JUMP JUMPDEST SWAP4 POP POP PUSH1 0x40 DUP6 ADD CALLDATALOAD PUSH8 0xFFFFFFFFFFFFFFFF DUP2 GT ISZERO PUSH2 0x1E61 JUMPI PUSH2 0x1E60 PUSH2 0x189A JUMP JUMPDEST JUMPDEST PUSH2 0x1E6D DUP8 DUP3 DUP9 ADD PUSH2 0x1D23 JUMP JUMPDEST SWAP3 POP POP PUSH1 0x60 DUP6 ADD CALLDATALOAD PUSH8 0xFFFFFFFFFFFFFFFF DUP2 GT ISZERO PUSH2 0x1E8E JUMPI PUSH2 0x1E8D PUSH2 0x189A JUMP JUMPDEST JUMPDEST PUSH2 0x1E9A DUP8 DUP3 DUP9 ADD PUSH2 0x1DC1 JUMP JUMPDEST SWAP2 POP POP SWAP3 SWAP6 SWAP2 SWAP5 POP SWAP3 POP JUMP JUMPDEST PUSH0 DUP1 PUSH0 DUP1 PUSH0 PUSH1 0xA0 DUP7 DUP9 SUB SLT ISZERO PUSH2 0x1EBF JUMPI PUSH2 0x1EBE PUSH2 0x1896 JUMP JUMPDEST JUMPDEST PUSH0 PUSH2 0x1ECC DUP9 DUP3 DUP10 ADD PUSH2 0x18E4 JUMP JUMPDEST SWAP6 POP POP PUSH1 0x20 PUSH2 0x1EDD DUP9 DUP3 DUP10 ADD PUSH2 0x18E4 JUMP JUMPDEST SWAP5 POP POP PUSH1 0x40 DUP7 ADD CALLDATALOAD PUSH8 0xFFFFFFFFFFFFFFFF DUP2 GT ISZERO PUSH2 0x1EFE JUMPI PUSH2 0x1EFD PUSH2 0x189A JUMP JUMPDEST JUMPDEST PUSH2 0x1F0A DUP9 DUP3 DUP10 ADD PUSH2 0x1D23 JUMP JUMPDEST SWAP4 POP POP PUSH1 0x60 DUP7 ADD CALLDATALOAD PUSH8 0xFFFFFFFFFFFFFFFF DUP2 GT ISZERO PUSH2 0x1F2B JUMPI PUSH2 0x1F2A PUSH2 0x189A JUMP JUMPDEST JUMPDEST PUSH2 0x1F37 DUP9 DUP3 DUP10 ADD PUSH2 0x1D23 JUMP JUMPDEST SWAP3 POP POP PUSH1 0x80 DUP7 ADD CALLDATALOAD PUSH8 0xFFFFFFFFFFFFFFFF DUP2 GT ISZERO PUSH2 0x1F58 JUMPI PUSH2 0x1F57 PUSH2 0x189A JUMP JUMPDEST JUMPDEST PUSH2 0x1F64 DUP9 DUP3 DUP10 ADD PUSH2 0x1DC1 JUMP JUMPDEST SWAP2 POP POP SWAP3 SWAP6 POP SWAP3 SWAP6 SWAP1 SWAP4 POP JUMP JUMPDEST PUSH0 PUSH8 0xFFFFFFFFFFFFFFFF DUP3 GT ISZERO PUSH2 0x1F8B JUMPI PUSH2 0x1F8A PUSH2 0x1A5C JUMP JUMPDEST JUMPDEST PUSH1 0x20 DUP3 MUL SWAP1 POP PUSH1 0x20 DUP2 ADD SWAP1 POP SWAP2 SWAP1 POP JUMP JUMPDEST PUSH0 PUSH2 0x1FAE PUSH2 0x1FA9 DUP5 PUSH2 0x1F71 JUMP JUMPDEST PUSH2 0x1ABA JUMP JUMPDEST SWAP1 POP DUP1 DUP4 DUP3 MSTORE PUSH1 0x20 DUP3 ADD SWAP1 POP PUSH1 0x20 DUP5 MUL DUP4 ADD DUP6 DUP2 GT ISZERO PUSH2 0x1FD1 JUMPI PUSH2 0x1FD0 PUSH2 0x1CB7 JUMP JUMPDEST JUMPDEST DUP4 JUMPDEST DUP2 DUP2 LT ISZERO PUSH2 0x1FFA JUMPI DUP1 PUSH2 0x1FE6 DUP9 DUP3 PUSH2 0x18E4 JUMP JUMPDEST DUP5 MSTORE PUSH1 0x20 DUP5 ADD SWAP4 POP POP PUSH1 0x20 DUP2 ADD SWAP1 POP PUSH2 0x1FD3 JUMP JUMPDEST POP POP POP SWAP4 SWAP3 POP POP POP JUMP JUMPDEST PUSH0 DUP3 PUSH1 0x1F DUP4 ADD SLT PUSH2 0x2018 JUMPI PUSH2 0x2017 PUSH2 0x1A44 JUMP JUMPDEST JUMPDEST DUP2 CALLDATALOAD PUSH2 0x2028 DUP5 DUP3 PUSH1 0x20 DUP7 ADD PUSH2 0x1F9C JUMP JUMPDEST SWAP2 POP POP SWAP3 SWAP2 POP POP JUMP JUMPDEST PUSH0 DUP1 PUSH1 0x40 DUP4 DUP6 SUB SLT ISZERO PUSH2 0x2047 JUMPI PUSH2 0x2046 PUSH2 0x1896 JUMP JUMPDEST JUMPDEST PUSH0 DUP4 ADD CALLDATALOAD PUSH8 0xFFFFFFFFFFFFFFFF DUP2 GT ISZERO PUSH2 0x2064 JUMPI PUSH2 0x2063 PUSH2 0x189A JUMP JUMPDEST JUMPDEST PUSH2 0x2070 DUP6 DUP3 DUP7 ADD PUSH2 0x2004 JUMP JUMPDEST SWAP3 POP POP PUSH1 0x20 DUP4 ADD CALLDATALOAD PUSH8 0xFFFFFFFFFFFFFFFF DUP2 GT ISZERO PUSH2 0x2091 JUMPI PUSH2 0x2090 PUSH2 0x189A JUMP JUMPDEST JUMPDEST PUSH2 0x209D DUP6 DUP3 DUP7 ADD PUSH2 0x1D23 JUMP JUMPDEST SWAP2 POP POP SWAP3 POP SWAP3 SWAP1 POP JUMP JUMPDEST PUSH0 DUP2 MLOAD SWAP1 POP SWAP2 SWAP1 POP JUMP JUMPDEST PUSH0 DUP3 DUP3 MSTORE PUSH1 0x20 DUP3 ADD SWAP1 POP SWAP3 SWAP2 POP POP JUMP JUMPDEST PUSH0 DUP2 SWAP1 POP PUSH1 0x20 DUP3 ADD SWAP1 POP SWAP2 SWAP1 POP JUMP JUMPDEST PUSH2 0x20D9 DUP2 PUSH2 0x18F8 JUMP JUMPDEST DUP3 MSTORE POP POP JUMP JUMPDEST PUSH0 PUSH2 0x20EA DUP4 DUP4 PUSH2 0x20D0 JUMP JUMPDEST PUSH1 0x20 DUP4 ADD SWAP1 POP SWAP3 SWAP2 POP POP JUMP JUMPDEST PUSH0 PUSH1 0x20 DUP3 ADD SWAP1 POP SWAP2 SWAP1 POP JUMP JUMPDEST PUSH0 PUSH2 0x210C DUP3 PUSH2 0x20A7 JUMP JUMPDEST PUSH2 0x2116 DUP2 DUP6 PUSH2 0x20B1 JUMP JUMPDEST SWAP4 POP PUSH2 0x2121 DUP4 PUSH2 0x20C1 JUMP JUMPDEST DUP1 PUSH0 JUMPDEST DUP4 DUP2 LT ISZERO PUSH2 0x2151 JUMPI DUP2 MLOAD PUSH2 0x2138 DUP9 DUP3 PUSH2 0x20DF JUMP JUMPDEST SWAP8 POP PUSH2 0x2143 DUP4 PUSH2 0x20F6 JUMP JUMPDEST SWAP3 POP POP PUSH1 0x1 DUP2 ADD SWAP1 POP PUSH2 0x2124 JUMP JUMPDEST POP DUP6 SWAP4 POP POP POP POP SWAP3 SWAP2 POP POP JUMP JUMPDEST PUSH0 PUSH1 0x20 DUP3 ADD SWAP1 POP DUP2 DUP2 SUB PUSH0 DUP4 ADD MSTORE PUSH2 0x2176 DUP2 DUP5 PUSH2 0x2102 JUMP JUMPDEST SWAP1 POP SWAP3 SWAP2 POP POP JUMP JUMPDEST PUSH0 DUP1 PUSH0 DUP1 PUSH1 0x80 DUP6 DUP8 SUB SLT ISZERO PUSH2 0x2196 JUMPI PUSH2 0x2195 PUSH2 0x1896 JUMP JUMPDEST JUMPDEST PUSH0 PUSH2 0x21A3 DUP8 DUP3 DUP9 ADD PUSH2 0x18E4 JUMP JUMPDEST SWAP5 POP POP PUSH1 0x20 PUSH2 0x21B4 DUP8 DUP3 DUP9 ADD PUSH2 0x1917 JUMP JUMPDEST SWAP4 POP POP PUSH1 0x40 PUSH2 0x21C5 DUP8 DUP3 DUP9 ADD PUSH2 0x1917 JUMP JUMPDEST SWAP3 POP POP PUSH1 0x60 DUP6 ADD CALLDATALOAD PUSH8 0xFFFFFFFFFFFFFFFF DUP2 GT ISZERO PUSH2 0x21E6 JUMPI PUSH2 0x21E5 PUSH2 0x189A JUMP JUMPDEST JUMPDEST PUSH2 0x21F2 DUP8 DUP3 DUP9 ADD PUSH2 0x1DC1 JUMP JUMPDEST SWAP2 POP POP SWAP3 SWAP6 SWAP2 SWAP5 POP SWAP3 POP JUMP JUMPDEST PUSH2 0x2207 DUP2 PUSH2 0x18BD JUMP JUMPDEST DUP3 MSTORE POP POP JUMP JUMPDEST PUSH0 PUSH1 0x20 DUP3 ADD SWAP1 POP PUSH2 0x2220 PUSH0 DUP4 ADD DUP5 PUSH2 0x21FE JUMP JUMPDEST SWAP3 SWAP2 POP POP JUMP JUMPDEST PUSH2 0x222F DUP2 PUSH2 0x1A11 JUMP JUMPDEST DUP2 EQ PUSH2 0x2239 JUMPI PUSH0 DUP1 REVERT JUMPDEST POP JUMP JUMPDEST PUSH0 DUP2 CALLDATALOAD SWAP1 POP PUSH2 0x224A DUP2 PUSH2 0x2226 JUMP JUMPDEST SWAP3 SWAP2 POP POP JUMP JUMPDEST PUSH0 DUP1 PUSH1 0x40 DUP4 DUP6 SUB SLT ISZERO PUSH2 0x2266 JUMPI PUSH2 0x2265 PUSH2 0x1896 JUMP JUMPDEST JUMPDEST PUSH0 PUSH2 0x2273 DUP6 DUP3 DUP7 ADD PUSH2 0x18E4 JUMP JUMPDEST SWAP3 POP POP PUSH1 0x20 PUSH2 0x2284 DUP6 DUP3 DUP7 ADD PUSH2 0x223C JUMP JUMPDEST SWAP2 POP POP SWAP3 POP SWAP3 SWAP1 POP JUMP JUMPDEST PUSH0 DUP1 PUSH1 0x40 DUP4 DUP6 SUB SLT ISZERO PUSH2 0x22A4 JUMPI PUSH2 0x22A3 PUSH2 0x1896 JUMP JUMPDEST JUMPDEST PUSH0 PUSH2 0x22B1 DUP6 DUP3 DUP7 ADD PUSH2 0x18E4 JUMP JUMPDEST SWAP3 POP POP PUSH1 0x20 PUSH2 0x22C2 DUP6 DUP3 DUP7 ADD PUSH2 0x18E4 JUMP JUMPDEST SWAP2 POP POP SWAP3 POP SWAP3 SWAP1 POP JUMP JUMPDEST PUSH0 DUP1 PUSH0 DUP1 PUSH0 PUSH1 0xA0 DUP7 DUP9 SUB SLT ISZERO PUSH2 0x22E5 JUMPI PUSH2 0x22E4 PUSH2 0x1896 JUMP JUMPDEST JUMPDEST PUSH0 PUSH2 0x22F2 DUP9 DUP3 DUP10 ADD PUSH2 0x18E4 JUMP JUMPDEST SWAP6 POP POP PUSH1 0x20 PUSH2 0x2303 DUP9 DUP3 DUP10 ADD PUSH2 0x18E4 JUMP JUMPDEST SWAP5 POP POP PUSH1 0x40 PUSH2 0x2314 DUP9 DUP3 DUP10 ADD PUSH2 0x1917 JUMP JUMPDEST SWAP4 POP POP PUSH1 0x60 PUSH2 0x2325 DUP9 DUP3 DUP10 ADD PUSH2 0x1917 JUMP JUMPDEST SWAP3 POP POP PUSH1 0x80 DUP7 ADD CALLDATALOAD PUSH8 0xFFFFFFFFFFFFFFFF DUP2 GT ISZERO PUSH2 0x2346 JUMPI PUSH2 0x2345 PUSH2 0x189A JUMP JUMPDEST JUMPDEST PUSH2 0x2352 DUP9 DUP3 DUP10 ADD PUSH2 0x1DC1 JUMP JUMPDEST SWAP2 POP POP SWAP3 SWAP6 POP SWAP3 SWAP6 SWAP1 SWAP4 POP JUMP JUMPDEST PUSH0 PUSH1 0x20 DUP3 DUP5 SUB SLT ISZERO PUSH2 0x2374 JUMPI PUSH2 0x2373 PUSH2 0x1896 JUMP JUMPDEST JUMPDEST PUSH0 PUSH2 0x2381 DUP5 DUP3 DUP6 ADD PUSH2 0x18E4 JUMP JUMPDEST SWAP2 POP POP SWAP3 SWAP2 POP POP JUMP JUMPDEST PUSH0 DUP2 SWAP1 POP SWAP3 SWAP2 POP POP JUMP JUMPDEST PUSH32 0x68747470733A2F2F697066732E696F2F697066732F516D5479734E6F58456F58 PUSH0 DUP3 ADD MSTORE PUSH32 0x74597A55617A5831663236625744553362503570676B55774C756577475A6541 PUSH1 0x20 DUP3 ADD MSTORE PUSH32 0x4E4C582F00000000000000000000000000000000000000000000000000000000 PUSH1 0x40 DUP3 ADD MSTORE POP JUMP JUMPDEST PUSH0 PUSH2 0x2414 PUSH1 0x44 DUP4 PUSH2 0x238A JUMP JUMPDEST SWAP2 POP PUSH2 0x241F DUP3 PUSH2 0x2394 JUMP JUMPDEST PUSH1 0x44 DUP3 ADD SWAP1 POP SWAP2 SWAP1 POP JUMP JUMPDEST PUSH0 PUSH2 0x2434 DUP3 PUSH2 0x1BF2 JUMP JUMPDEST PUSH2 0x243E DUP2 DUP6 PUSH2 0x238A JUMP JUMPDEST SWAP4 POP PUSH2 0x244E DUP2 DUP6 PUSH1 0x20 DUP7 ADD PUSH2 0x1C0C JUMP JUMPDEST DUP1 DUP5 ADD SWAP2 POP POP SWAP3 SWAP2 POP POP JUMP JUMPDEST PUSH32 0x2E6A736F6E000000000000000000000000000000000000000000000000000000 PUSH0 DUP3 ADD MSTORE POP JUMP JUMPDEST PUSH0 PUSH2 0x248E PUSH1 0x5 DUP4 PUSH2 0x238A JUMP JUMPDEST SWAP2 POP PUSH2 0x2499 DUP3 PUSH2 0x245A JUMP JUMPDEST PUSH1 0x5 DUP3 ADD SWAP1 POP SWAP2 SWAP1 POP JUMP JUMPDEST PUSH0 PUSH2 0x24AE DUP3 PUSH2 0x2408 JUMP JUMPDEST SWAP2 POP PUSH2 0x24BA DUP3 DUP5 PUSH2 0x242A JUMP JUMPDEST SWAP2 POP PUSH2 0x24C5 DUP3 PUSH2 0x2482 JUMP JUMPDEST SWAP2 POP DUP2 SWAP1 POP SWAP3 SWAP2 POP POP JUMP JUMPDEST PUSH0 PUSH1 0x40 DUP3 ADD SWAP1 POP PUSH2 0x24E3 PUSH0 DUP4 ADD DUP6 PUSH2 0x21FE JUMP JUMPDEST PUSH2 0x24F0 PUSH1 0x20 DUP4 ADD DUP5 PUSH2 0x21FE JUMP JUMPDEST SWAP4 SWAP3 POP POP POP JUMP JUMPDEST PUSH0 PUSH1 0x40 DUP3 ADD SWAP1 POP PUSH2 0x250A PUSH0 DUP4 ADD DUP6 PUSH2 0x1969 JUMP JUMPDEST PUSH2 0x2517 PUSH1 0x20 DUP4 ADD DUP5 PUSH2 0x1969 JUMP JUMPDEST SWAP4 SWAP3 POP POP POP JUMP JUMPDEST PUSH32 0x4E487B7100000000000000000000000000000000000000000000000000000000 PUSH0 MSTORE PUSH1 0x32 PUSH1 0x4 MSTORE PUSH1 0x24 PUSH0 REVERT JUMPDEST PUSH32 0x4E487B7100000000000000000000000000000000000000000000000000000000 PUSH0 MSTORE PUSH1 0x11 PUSH1 0x4 MSTORE PUSH1 0x24 PUSH0 REVERT JUMPDEST PUSH0 PUSH2 0x2582 DUP3 PUSH2 0x18F8 JUMP JUMPDEST SWAP2 POP PUSH32 0xFFFFFFFFFFFFFFFFFFFFFFFFFFFFFFFFFFFFFFFFFFFFFFFFFFFFFFFFFFFFFFFF DUP3 SUB PUSH2 0x25B4 JUMPI PUSH2 0x25B3 PUSH2 0x254B JUMP JUMPDEST JUMPDEST PUSH1 0x1 DUP3 ADD SWAP1 POP SWAP2 SWAP1 POP JUMP JUMPDEST PUSH32 0x4E487B7100000000000000000000000000000000000000000000000000000000 PUSH0 MSTORE PUSH1 0x22 PUSH1 0x4 MSTORE PUSH1 0x24 PUSH0 REVERT JUMPDEST PUSH0 PUSH1 0x2 DUP3 DIV SWAP1 POP PUSH1 0x1 DUP3 AND DUP1 PUSH2 0x2603 JUMPI PUSH1 0x7F DUP3 AND SWAP2 POP JUMPDEST PUSH1 0x20 DUP3 LT DUP2 SUB PUSH2 0x2616 JUMPI PUSH2 0x2615 PUSH2 0x25BF JUMP JUMPDEST JUMPDEST POP SWAP2 SWAP1 POP JUMP JUMPDEST PUSH0 DUP2 SWAP1 POP DUP2 PUSH0 MSTORE PUSH1 0x20 PUSH0 KECCAK256 SWAP1 POP SWAP2 SWAP1 POP JUMP JUMPDEST PUSH0 PUSH1 0x20 PUSH1 0x1F DUP4 ADD DIV SWAP1 POP SWAP2 SWAP1 POP JUMP JUMPDEST PUSH0 DUP3 DUP3 SHL SWAP1 POP SWAP3 SWAP2 POP POP JUMP JUMPDEST PUSH0 PUSH1 0x8 DUP4 MUL PUSH2 0x2678 PUSH32 0xFFFFFFFFFFFFFFFFFFFFFFFFFFFFFFFFFFFFFFFFFFFFFFFFFFFFFFFFFFFFFFFF DUP3 PUSH2 0x263D JUMP JUMPDEST PUSH2 0x2682 DUP7 DUP4 PUSH2 0x263D JUMP JUMPDEST SWAP6 POP DUP1 NOT DUP5 AND SWAP4 POP DUP1 DUP7 AND DUP5 OR SWAP3 POP POP POP SWAP4 SWAP3 POP POP POP JUMP JUMPDEST PUSH0 DUP2 SWAP1 POP SWAP2 SWAP1 POP JUMP JUMPDEST PUSH0 PUSH2 0x26BD PUSH2 0x26B8 PUSH2 0x26B3 DUP5 PUSH2 0x18F8 JUMP JUMPDEST PUSH2 0x269A JUMP JUMPDEST PUSH2 0x18F8 JUMP JUMPDEST SWAP1 POP SWAP2 SWAP1 POP JUMP JUMPDEST PUSH0 DUP2 SWAP1 POP SWAP2 SWAP1 POP JUMP JUMPDEST PUSH2 0x26D6 DUP4 PUSH2 0x26A3 JUMP JUMPDEST PUSH2 0x26EA PUSH2 0x26E2 DUP3 PUSH2 0x26C4 JUMP JUMPDEST DUP5 DUP5 SLOAD PUSH2 0x2649 JUMP JUMPDEST DUP3 SSTORE POP POP POP POP JUMP JUMPDEST PUSH0 SWAP1 JUMP JUMPDEST PUSH2 0x26FE PUSH2 0x26F2 JUMP JUMPDEST PUSH2 0x2709 DUP2 DUP5 DUP5 PUSH2 0x26CD JUMP JUMPDEST POP POP POP JUMP JUMPDEST JUMPDEST DUP2 DUP2 LT ISZERO PUSH2 0x272C JUMPI PUSH2 0x2721 PUSH0 DUP3 PUSH2 0x26F6 JUMP JUMPDEST PUSH1 0x1 DUP2 ADD SWAP1 POP PUSH2 0x270F JUMP JUMPDEST POP POP JUMP JUMPDEST PUSH1 0x1F DUP3 GT ISZERO PUSH2 0x2771 JUMPI PUSH2 0x2742 DUP2 PUSH2 0x261C JUMP JUMPDEST PUSH2 0x274B DUP5 PUSH2 0x262E JUMP JUMPDEST DUP2 ADD PUSH1 0x20 DUP6 LT ISZERO PUSH2 0x275A JUMPI DUP2 SWAP1 POP JUMPDEST PUSH2 0x276E PUSH2 0x2766 DUP6 PUSH2 0x262E JUMP JUMPDEST DUP4 ADD DUP3 PUSH2 0x270E JUMP JUMPDEST POP POP JUMPDEST POP POP POP JUMP JUMPDEST PUSH0 DUP3 DUP3 SHR SWAP1 POP SWAP3 SWAP2 POP POP JUMP JUMPDEST PUSH0 PUSH2 0x2791 PUSH0 NOT DUP5 PUSH1 0x8 MUL PUSH2 0x2776 JUMP JUMPDEST NOT DUP1 DUP4 AND SWAP2 POP POP SWAP3 SWAP2 POP POP JUMP JUMPDEST PUSH0 PUSH2 0x27A9 DUP4 DUP4 PUSH2 0x2782 JUMP JUMPDEST SWAP2 POP DUP3 PUSH1 0x2 MUL DUP3 OR SWAP1 POP SWAP3 SWAP2 POP POP JUMP JUMPDEST PUSH2 0x27C2 DUP3 PUSH2 0x1BF2 JUMP JUMPDEST PUSH8 0xFFFFFFFFFFFFFFFF DUP2 GT ISZERO PUSH2 0x27DB JUMPI PUSH2 0x27DA PUSH2 0x1A5C JUMP JUMPDEST JUMPDEST PUSH2 0x27E5 DUP3 SLOAD PUSH2 0x25EC JUMP JUMPDEST PUSH2 0x27F0 DUP3 DUP3 DUP6 PUSH2 0x2730 JUMP JUMPDEST PUSH0 PUSH1 0x20 SWAP1 POP PUSH1 0x1F DUP4 GT PUSH1 0x1 DUP2 EQ PUSH2 0x2821 JUMPI PUSH0 DUP5 ISZERO PUSH2 0x280F JUMPI DUP3 DUP8 ADD MLOAD SWAP1 POP JUMPDEST PUSH2 0x2819 DUP6 DUP3 PUSH2 0x279E JUMP JUMPDEST DUP7 SSTORE POP PUSH2 0x2880 JUMP JUMPDEST PUSH1 0x1F NOT DUP5 AND PUSH2 0x282F DUP7 PUSH2 0x261C JUMP JUMPDEST PUSH0 JUMPDEST DUP3 DUP2 LT ISZERO PUSH2 0x2856 JUMPI DUP5 DUP10 ADD MLOAD DUP3 SSTORE PUSH1 0x1 DUP3 ADD SWAP2 POP PUSH1 0x20 DUP6 ADD SWAP5 POP PUSH1 0x20 DUP2 ADD SWAP1 POP PUSH2 0x2831 JUMP JUMPDEST DUP7 DUP4 LT ISZERO PUSH2 0x2873 JUMPI DUP5 DUP10 ADD MLOAD PUSH2 0x286F PUSH1 0x1F DUP10 AND DUP3 PUSH2 0x2782 JUMP JUMPDEST DUP4 SSTORE POP JUMPDEST PUSH1 0x1 PUSH1 0x2 DUP9 MUL ADD DUP9 SSTORE POP POP POP JUMPDEST POP POP POP POP POP POP JUMP JUMPDEST PUSH32 0x4E487B7100000000000000000000000000000000000000000000000000000000 PUSH0 MSTORE PUSH1 0x12 PUSH1 0x4 MSTORE PUSH1 0x24 PUSH0 REVERT JUMPDEST PUSH0 PUSH1 0x80 DUP3 ADD SWAP1 POP PUSH2 0x28C8 PUSH0 DUP4 ADD DUP8 PUSH2 0x21FE JUMP JUMPDEST PUSH2 0x28D5 PUSH1 0x20 DUP4 ADD DUP7 PUSH2 0x1969 JUMP JUMPDEST PUSH2 0x28E2 PUSH1 0x40 DUP4 ADD DUP6 PUSH2 0x1969 JUMP JUMPDEST PUSH2 0x28EF PUSH1 0x60 DUP4 ADD DUP5 PUSH2 0x1969 JUMP JUMPDEST SWAP6 SWAP5 POP POP POP POP POP JUMP JUMPDEST PUSH0 PUSH2 0x2902 DUP3 PUSH2 0x18F8 JUMP JUMPDEST SWAP2 POP PUSH2 0x290D DUP4 PUSH2 0x18F8 JUMP JUMPDEST SWAP3 POP DUP3 DUP3 ADD SWAP1 POP DUP1 DUP3 GT ISZERO PUSH2 0x2925 JUMPI PUSH2 0x2924 PUSH2 0x254B JUMP JUMPDEST JUMPDEST SWAP3 SWAP2 POP POP JUMP JUMPDEST PUSH0 PUSH1 0x40 DUP3 ADD SWAP1 POP DUP2 DUP2 SUB PUSH0 DUP4 ADD MSTORE PUSH2 0x2943 DUP2 DUP6 PUSH2 0x2102 JUMP JUMPDEST SWAP1 POP DUP2 DUP2 SUB PUSH1 0x20 DUP4 ADD MSTORE PUSH2 0x2957 DUP2 DUP5 PUSH2 0x2102 JUMP JUMPDEST SWAP1 POP SWAP4 SWAP3 POP POP POP JUMP JUMPDEST PUSH0 DUP2 MLOAD SWAP1 POP SWAP2 SWAP1 POP JUMP JUMPDEST PUSH0 DUP3 DUP3 MSTORE PUSH1 0x20 DUP3 ADD SWAP1 POP SWAP3 SWAP2 POP POP JUMP JUMPDEST PUSH0 PUSH2 0x2984 DUP3 PUSH2 0x2960 JUMP JUMPDEST PUSH2 0x298E DUP2 DUP6 PUSH2 0x296A JUMP JUMPDEST SWAP4 POP PUSH2 0x299E DUP2 DUP6 PUSH1 0x20 DUP7 ADD PUSH2 0x1C0C JUMP JUMPDEST PUSH2 0x29A7 DUP2 PUSH2 0x1A4C JUMP JUMPDEST DUP5 ADD SWAP2 POP POP SWAP3 SWAP2 POP POP JUMP JUMPDEST PUSH0 PUSH1 0xA0 DUP3 ADD SWAP1 POP PUSH2 0x29C5 PUSH0 DUP4 ADD DUP9 PUSH2 0x21FE JUMP JUMPDEST PUSH2 0x29D2 PUSH1 0x20 DUP4 ADD DUP8 PUSH2 0x21FE JUMP JUMPDEST PUSH2 0x29DF PUSH1 0x40 DUP4 ADD DUP7 PUSH2 0x1969 JUMP JUMPDEST PUSH2 0x29EC PUSH1 0x60 DUP4 ADD DUP6 PUSH2 0x1969 JUMP JUMPDEST DUP2 DUP2 SUB PUSH1 0x80 DUP4 ADD MSTORE PUSH2 0x29FE DUP2 DUP5 PUSH2 0x297A JUMP JUMPDEST SWAP1 POP SWAP7 SWAP6 POP POP POP POP POP POP JUMP JUMPDEST PUSH0 DUP2 MLOAD SWAP1 POP PUSH2 0x2A18 DUP2 PUSH2 0x19BC JUMP JUMPDEST SWAP3 SWAP2 POP POP JUMP JUMPDEST PUSH0 PUSH1 0x20 DUP3 DUP5 SUB SLT ISZERO PUSH2 0x2A33 JUMPI PUSH2 0x2A32 PUSH2 0x1896 JUMP JUMPDEST JUMPDEST PUSH0 PUSH2 0x2A40 DUP5 DUP3 DUP6 ADD PUSH2 0x2A0A JUMP JUMPDEST SWAP2 POP POP SWAP3 SWAP2 POP POP JUMP JUMPDEST PUSH0 PUSH1 0xA0 DUP3 ADD SWAP1 POP PUSH2 0x2A5C PUSH0 DUP4 ADD DUP9 PUSH2 0x21FE JUMP JUMPDEST PUSH2 0x2A69 PUSH1 0x20 DUP4 ADD DUP8 PUSH2 0x21FE JUMP JUMPDEST DUP2 DUP2 SUB PUSH1 0x40 DUP4 ADD MSTORE PUSH2 0x2A7B DUP2 DUP7 PUSH2 0x2102 JUMP JUMPDEST SWAP1 POP DUP2 DUP2 SUB PUSH1 0x60 DUP4 ADD MSTORE PUSH2 0x2A8F DUP2 DUP6 PUSH2 0x2102 JUMP JUMPDEST SWAP1 POP DUP2 DUP2 SUB PUSH1 0x80 DUP4 ADD MSTORE PUSH2 0x2AA3 DUP2 DUP5 PUSH2 0x297A JUMP JUMPDEST SWAP1 POP SWAP7 SWAP6 POP POP POP POP POP POP JUMP INVALID LOG2 PUSH5 0x6970667358 0x22 SLT KECCAK256 0xE8 0xDF CODESIZE AND SDIV CODECOPY 0xD2 SWAP12 0xD9 DUP5 0xE3 SUB LOG1 0xAB CODESIZE SWAP1 0xCB PUSH0 MSIZE GAS 0x5C PUSH14 0x3F65AF7FAB596D4C2C764736F6C PUSH4 0x43000814 STOP CALLER PUSH9 0x747470733A2F2F6970 PUSH7 0x732E696F2F6970 PUSH7 0x732F516D547973 0x4E PUSH16 0x58456F5874597A55617A583166323662 JUMPI PREVRANDAO SSTORE CALLER PUSH3 0x503570 PUSH8 0x6B55774C75657747 GAS PUSH6 0x414E4C582F7B PUSH10 0x647D2E6A736F6E000000 "
		},
		"gasEstimates": {
			"creation": {
				"codeDepositCost": "2196200",
				"executionCost": "infinite",
				"totalCost": "infinite"
			},
			"external": {
				"balanceOf(address,uint256)": "infinite",
				"balanceOfBatch(address[],uint256[])": "infinite",
				"isApprovedForAll(address,address)": "infinite",
				"mint(address,uint256,uint256,bytes)": "infinite",
				"mintBatch(address,uint256[],uint256[],bytes)": "infinite",
				"owner()": "2582",
				"renounceOwnership()": "infinite",
				"safeBatchTransferFrom(address,address,uint256[],uint256[],bytes)": "infinite",
				"safeTransferFrom(address,address,uint256,uint256,bytes)": "infinite",
				"setApprovalForAll(address,bool)": "infinite",
				"setURI(string)": "infinite",
				"supportsInterface(bytes4)": "809",
				"transferOwnership(address)": "infinite",
				"uri(uint256)": "infinite"
			}
		},
		"methodIdentifiers": {
			"balanceOf(address,uint256)": "00fdd58e",
			"balanceOfBatch(address[],uint256[])": "4e1273f4",
			"isApprovedForAll(address,address)": "e985e9c5",
			"mint(address,uint256,uint256,bytes)": "731133e9",
			"mintBatch(address,uint256[],uint256[],bytes)": "1f7fdffa",
			"owner()": "8da5cb5b",
			"renounceOwnership()": "715018a6",
			"safeBatchTransferFrom(address,address,uint256[],uint256[],bytes)": "2eb2c2d6",
			"safeTransferFrom(address,address,uint256,uint256,bytes)": "f242432a",
			"setApprovalForAll(address,bool)": "a22cb465",
			"setURI(string)": "02fe5305",
			"supportsInterface(bytes4)": "01ffc9a7",
			"transferOwnership(address)": "f2fde38b",
			"uri(uint256)": "0e89341c"
		}
	},
	"abi": [
		{
			"inputs": [
				{
					"internalType": "address",
					"name": "initialOwner",
					"type": "address"
				}
			],
			"stateMutability": "nonpayable",
			"type": "constructor"
		},
		{
			"inputs": [
				{
					"internalType": "address",
					"name": "sender",
					"type": "address"
				},
				{
					"internalType": "uint256",
					"name": "balance",
					"type": "uint256"
				},
				{
					"internalType": "uint256",
					"name": "needed",
					"type": "uint256"
				},
				{
					"internalType": "uint256",
					"name": "tokenId",
					"type": "uint256"
				}
			],
			"name": "ERC1155InsufficientBalance",
			"type": "error"
		},
		{
			"inputs": [
				{
					"internalType": "address",
					"name": "approver",
					"type": "address"
				}
			],
			"name": "ERC1155InvalidApprover",
			"type": "error"
		},
		{
			"inputs": [
				{
					"internalType": "uint256",
					"name": "idsLength",
					"type": "uint256"
				},
				{
					"internalType": "uint256",
					"name": "valuesLength",
					"type": "uint256"
				}
			],
			"name": "ERC1155InvalidArrayLength",
			"type": "error"
		},
		{
			"inputs": [
				{
					"internalType": "address",
					"name": "operator",
					"type": "address"
				}
			],
			"name": "ERC1155InvalidOperator",
			"type": "error"
		},
		{
			"inputs": [
				{
					"internalType": "address",
					"name": "receiver",
					"type": "address"
				}
			],
			"name": "ERC1155InvalidReceiver",
			"type": "error"
		},
		{
			"inputs": [
				{
					"internalType": "address",
					"name": "sender",
					"type": "address"
				}
			],
			"name": "ERC1155InvalidSender",
			"type": "error"
		},
		{
			"inputs": [
				{
					"internalType": "address",
					"name": "operator",
					"type": "address"
				},
				{
					"internalType": "address",
					"name": "owner",
					"type": "address"
				}
			],
			"name": "ERC1155MissingApprovalForAll",
			"type": "error"
		},
		{
			"inputs": [
				{
					"internalType": "address",
					"name": "owner",
					"type": "address"
				}
			],
			"name": "OwnableInvalidOwner",
			"type": "error"
		},
		{
			"inputs": [
				{
					"internalType": "address",
					"name": "account",
					"type": "address"
				}
			],
			"name": "OwnableUnauthorizedAccount",
			"type": "error"
		},
		{
			"anonymous": false,
			"inputs": [
				{
					"indexed": true,
					"internalType": "address",
					"name": "account",
					"type": "address"
				},
				{
					"indexed": true,
					"internalType": "address",
					"name": "operator",
					"type": "address"
				},
				{
					"indexed": false,
					"internalType": "bool",
					"name": "approved",
					"type": "bool"
				}
			],
			"name": "ApprovalForAll",
			"type": "event"
		},
		{
			"anonymous": false,
			"inputs": [
				{
					"indexed": true,
					"internalType": "address",
					"name": "previousOwner",
					"type": "address"
				},
				{
					"indexed": true,
					"internalType": "address",
					"name": "newOwner",
					"type": "address"
				}
			],
			"name": "OwnershipTransferred",
			"type": "event"
		},
		{
			"anonymous": false,
			"inputs": [
				{
					"indexed": true,
					"internalType": "address",
					"name": "operator",
					"type": "address"
				},
				{
					"indexed": true,
					"internalType": "address",
					"name": "from",
					"type": "address"
				},
				{
					"indexed": true,
					"internalType": "address",
					"name": "to",
					"type": "address"
				},
				{
					"indexed": false,
					"internalType": "uint256[]",
					"name": "ids",
					"type": "uint256[]"
				},
				{
					"indexed": false,
					"internalType": "uint256[]",
					"name": "values",
					"type": "uint256[]"
				}
			],
			"name": "TransferBatch",
			"type": "event"
		},
		{
			"anonymous": false,
			"inputs": [
				{
					"indexed": true,
					"internalType": "address",
					"name": "operator",
					"type": "address"
				},
				{
					"indexed": true,
					"internalType": "address",
					"name": "from",
					"type": "address"
				},
				{
					"indexed": true,
					"internalType": "address",
					"name": "to",
					"type": "address"
				},
				{
					"indexed": false,
					"internalType": "uint256",
					"name": "id",
					"type": "uint256"
				},
				{
					"indexed": false,
					"internalType": "uint256",
					"name": "value",
					"type": "uint256"
				}
			],
			"name": "TransferSingle",
			"type": "event"
		},
		{
			"anonymous": false,
			"inputs": [
				{
					"indexed": false,
					"internalType": "string",
					"name": "value",
					"type": "string"
				},
				{
					"indexed": true,
					"internalType": "uint256",
					"name": "id",
					"type": "uint256"
				}
			],
			"name": "URI",
			"type": "event"
		},
		{
			"inputs": [
				{
					"internalType": "address",
					"name": "account",
					"type": "address"
				},
				{
					"internalType": "uint256",
					"name": "id",
					"type": "uint256"
				}
			],
			"name": "balanceOf",
			"outputs": [
				{
					"internalType": "uint256",
					"name": "",
					"type": "uint256"
				}
			],
			"stateMutability": "view",
			"type": "function"
		},
		{
			"inputs": [
				{
					"internalType": "address[]",
					"name": "accounts",
					"type": "address[]"
				},
				{
					"internalType": "uint256[]",
					"name": "ids",
					"type": "uint256[]"
				}
			],
			"name": "balanceOfBatch",
			"outputs": [
				{
					"internalType": "uint256[]",
					"name": "",
					"type": "uint256[]"
				}
			],
			"stateMutability": "view",
			"type": "function"
		},
		{
			"inputs": [
				{
					"internalType": "address",
					"name": "account",
					"type": "address"
				},
				{
					"internalType": "address",
					"name": "operator",
					"type": "address"
				}
			],
			"name": "isApprovedForAll",
			"outputs": [
				{
					"internalType": "bool",
					"name": "",
					"type": "bool"
				}
			],
			"stateMutability": "view",
			"type": "function"
		},
		{
			"inputs": [
				{
					"internalType": "address",
					"name": "account",
					"type": "address"
				},
				{
					"internalType": "uint256",
					"name": "id",
					"type": "uint256"
				},
				{
					"internalType": "uint256",
					"name": "amount",
					"type": "uint256"
				},
				{
					"internalType": "bytes",
					"name": "data",
					"type": "bytes"
				}
			],
			"name": "mint",
			"outputs": [],
			"stateMutability": "nonpayable",
			"type": "function"
		},
		{
			"inputs": [
				{
					"internalType": "address",
					"name": "to",
					"type": "address"
				},
				{
					"internalType": "uint256[]",
					"name": "ids",
					"type": "uint256[]"
				},
				{
					"internalType": "uint256[]",
					"name": "amounts",
					"type": "uint256[]"
				},
				{
					"internalType": "bytes",
					"name": "data",
					"type": "bytes"
				}
			],
			"name": "mintBatch",
			"outputs": [],
			"stateMutability": "nonpayable",
			"type": "function"
		},
		{
			"inputs": [],
			"name": "owner",
			"outputs": [
				{
					"internalType": "address",
					"name": "",
					"type": "address"
				}
			],
			"stateMutability": "view",
			"type": "function"
		},
		{
			"inputs": [],
			"name": "renounceOwnership",
			"outputs": [],
			"stateMutability": "nonpayable",
			"type": "function"
		},
		{
			"inputs": [
				{
					"internalType": "address",
					"name": "from",
					"type": "address"
				},
				{
					"internalType": "address",
					"name": "to",
					"type": "address"
				},
				{
					"internalType": "uint256[]",
					"name": "ids",
					"type": "uint256[]"
				},
				{
					"internalType": "uint256[]",
					"name": "values",
					"type": "uint256[]"
				},
				{
					"internalType": "bytes",
					"name": "data",
					"type": "bytes"
				}
			],
			"name": "safeBatchTransferFrom",
			"outputs": [],
			"stateMutability": "nonpayable",
			"type": "function"
		},
		{
			"inputs": [
				{
					"internalType": "address",
					"name": "from",
					"type": "address"
				},
				{
					"internalType": "address",
					"name": "to",
					"type": "address"
				},
				{
					"internalType": "uint256",
					"name": "id",
					"type": "uint256"
				},
				{
					"internalType": "uint256",
					"name": "value",
					"type": "uint256"
				},
				{
					"internalType": "bytes",
					"name": "data",
					"type": "bytes"
				}
			],
			"name": "safeTransferFrom",
			"outputs": [],
			"stateMutability": "nonpayable",
			"type": "function"
		},
		{
			"inputs": [
				{
					"internalType": "address",
					"name": "operator",
					"type": "address"
				},
				{
					"internalType": "bool",
					"name": "approved",
					"type": "bool"
				}
			],
			"name": "setApprovalForAll",
			"outputs": [],
			"stateMutability": "nonpayable",
			"type": "function"
		},
		{
			"inputs": [
				{
					"internalType": "string",
					"name": "newuri",
					"type": "string"
				}
			],
			"name": "setURI",
			"outputs": [],
			"stateMutability": "nonpayable",
			"type": "function"
		},
		{
			"inputs": [
				{
					"internalType": "bytes4",
					"name": "interfaceId",
					"type": "bytes4"
				}
			],
			"name": "supportsInterface",
			"outputs": [
				{
					"internalType": "bool",
					"name": "",
					"type": "bool"
				}
			],
			"stateMutability": "view",
			"type": "function"
		},
		{
			"inputs": [
				{
					"internalType": "address",
					"name": "newOwner",
					"type": "address"
				}
			],
			"name": "transferOwnership",
			"outputs": [],
			"stateMutability": "nonpayable",
			"type": "function"
		},
		{
			"inputs": [
				{
					"internalType": "uint256",
					"name": "_tokenid",
					"type": "uint256"
				}
			],
			"name": "uri",
			"outputs": [
				{
					"internalType": "string",
					"name": "",
					"type": "string"
				}
			],
			"stateMutability": "pure",
			"type": "function"
		}
	]
}