{
	"data": {
		"bytecode": {
			"linkReferences": {},
			"object": "608060405260018060146101000a8154816bffffffffffffffffffffffff02191690836bffffffffffffffffffffffff16021790555034801562000041575f80fd5b50604051620038af380380620038af83398181016040528101906200006791906200029d565b805f73ffffffffffffffffffffffffffffffffffffffff168173ffffffffffffffffffffffffffffffffffffffff1603620000db575f6040517f1e4fbdf7000000000000000000000000000000000000000000000000000000008152600401620000d29190620002f3565b60405180910390fd5b620000ec816200013560201b60201c565b508160015f6101000a81548173ffffffffffffffffffffffffffffffffffffffff021916908373ffffffffffffffffffffffffffffffffffffffff16021790555050506200030e565b5f805f9054906101000a900473ffffffffffffffffffffffffffffffffffffffff169050815f806101000a81548173ffffffffffffffffffffffffffffffffffffffff021916908373ffffffffffffffffffffffffffffffffffffffff1602179055508173ffffffffffffffffffffffffffffffffffffffff168173ffffffffffffffffffffffffffffffffffffffff167f8be0079c531659141344cd1fd0a4f28419497f9722a3daafe3b4186f6b6457e060405160405180910390a35050565b5f80fd5b5f73ffffffffffffffffffffffffffffffffffffffff82169050919050565b5f6200022582620001fa565b9050919050565b5f620002388262000219565b9050919050565b6200024a816200022c565b811462000255575f80fd5b50565b5f8151905062000268816200023f565b92915050565b620002798162000219565b811462000284575f80fd5b50565b5f8151905062000297816200026e565b92915050565b5f8060408385031215620002b657620002b5620001f6565b5b5f620002c58582860162000258565b9250506020620002d88582860162000287565b9150509250929050565b620002ed8162000219565b82525050565b5f602082019050620003085f830184620002e2565b92915050565b613593806200031c5f395ff3fe608060405234801561000f575f80fd5b5060043610610114575f3560e01c8063715018a6116100a0578063bc197c811161006f578063bc197c81146102f9578063c7f3300014610329578063dd7d792914610345578063f23a6e6114610361578063f2fde38b1461039157610114565b8063715018a6146102835780637a3819cb1461028d57806388b53ced146102bf5780638da5cb5b146102db57610114565b80632f14670c116100e75780632f14670c146101b9578063380eaaf9146101e95780633f936ff51461021957806357e0e058146102375780636c173d381461025357610114565b806301ffc9a71461011857806317444626146101485780631c69b464146101645780631f71f89f14610182575b5f80fd5b610132600480360381019061012d9190612350565b6103ad565b60405161013f9190612395565b60405180910390f35b610162600480360381019061015d919061243b565b610426565b005b61016c6106f6565b6040516101799190612647565b60405180910390f35b61019c60048036038101906101979190612691565b610721565b6040516101b09897969594939291906126f8565b60405180910390f35b6101d360048036038101906101ce9190612774565b6107ea565b6040516101e091906127b2565b60405180910390f35b61020360048036038101906101fe91906127cb565b610832565b6040516102109190612647565b60405180910390f35b610221610b9f565b60405161022e9190612809565b60405180910390f35b610251600480360381019061024c9190612822565b610bbd565b005b61026d60048036038101906102689190612691565b610c5a565b60405161027a91906127b2565b60405180910390f35b61028b610d2b565b005b6102a760048036038101906102a2919061284d565b610d3e565b6040516102b69392919061289d565b60405180910390f35b6102d960048036038101906102d491906128d2565b610dbf565b005b6102e3610de0565b6040516102f091906127b2565b60405180910390f35b610313600480360381019061030e9190612b22565b610e07565b6040516103209190612bfc565b60405180910390f35b610343600480360381019061033e9190612c15565b610e1b565b005b61035f600480360381019061035a9190612c65565b61106a565b005b61037b60048036038101906103769190612cc9565b6114ec565b6040516103889190612bfc565b60405180910390f35b6103ab60048036038101906103a69190612d5c565b611500565b005b5f7f4e2312e0000000000000000000000000000000000000000000000000000000007bffffffffffffffffffffffffffffffffffffffffffffffffffffffff1916827bffffffffffffffffffffffffffffffffffffffffffffffffffffffff1916148061041f575061041e82611584565b5b9050919050565b61042e6115ed565b5f600160149054906101000a90046bffffffffffffffffffffffff169050604051806101000160405280826bffffffffffffffffffffffff1681526020018573ffffffffffffffffffffffffffffffffffffffff1681526020014265ffffffffffff1681526020014265ffffffffffff1681526020018473ffffffffffffffffffffffffffffffffffffffff1681526020018381526020015f81526020015f151581525060025f836bffffffffffffffffffffffff166bffffffffffffffffffffffff1681526020019081526020015f205f820151815f015f6101000a8154816bffffffffffffffffffffffff02191690836bffffffffffffffffffffffff1602179055506020820151815f01600c6101000a81548173ffffffffffffffffffffffffffffffffffffffff021916908373ffffffffffffffffffffffffffffffffffffffff1602179055506040820151816001015f6101000a81548165ffffffffffff021916908365ffffffffffff16021790555060608201518160010160066101000a81548165ffffffffffff021916908365ffffffffffff160217905550608082015181600101600c6101000a81548173ffffffffffffffffffffffffffffffffffffffff021916908373ffffffffffffffffffffffffffffffffffffffff16021790555060a0820151816002015560c0820151816003015560e0820151816004015f6101000a81548160ff0219169083151502179055509050505f82826bffffffffffffffffffffffff167f1e216cc18d3e93f7c7b9a7b3a038093bc655d3d5cbfbb504d67d4376bd02d13f87875f426040516106919493929190612d87565b60405180910390a460018060148282829054906101000a90046bffffffffffffffffffffffff166106c29190612df7565b92506101000a8154816bffffffffffffffffffffffff02191690836bffffffffffffffffffffffff16021790555050505050565b606061071c5f600160149054906101000a90046bffffffffffffffffffffffff16610832565b905090565b6002602052805f5260405f205f91509050805f015f9054906101000a90046bffffffffffffffffffffffff1690805f01600c9054906101000a900473ffffffffffffffffffffffffffffffffffffffff1690806001015f9054906101000a900465ffffffffffff16908060010160069054906101000a900465ffffffffffff169080600101600c9054906101000a900473ffffffffffffffffffffffffffffffffffffffff1690806002015490806003015490806004015f9054906101000a900460ff16905088565b6003602052815f5260405f208181548110610803575f80fd5b905f5260205f20015f915091509054906101000a900473ffffffffffffffffffffffffffffffffffffffff1681565b6060600160149054906101000a90046bffffffffffffffffffffffff166bffffffffffffffffffffffff16826bffffffffffffffffffffffff1611156108ad576040517f08c379a00000000000000000000000000000000000000000000000000000000081526004016108a490612e90565b60405180910390fd5b816bffffffffffffffffffffffff16836bffffffffffffffffffffffff16111561090c576040517f08c379a000000000000000000000000000000000000000000000000000000000815260040161090390612ef8565b60405180910390fd5b5f83836109199190612f16565b6bffffffffffffffffffffffff1667ffffffffffffffff8111156109405761093f612936565b5b60405190808252806020026020018201604052801561097957816020015b610966612261565b81526020019060019003908161095e5790505b5090505f8490505b836bffffffffffffffffffffffff16816bffffffffffffffffffffffff161015610b945760025f826bffffffffffffffffffffffff166bffffffffffffffffffffffff1681526020019081526020015f20604051806101000160405290815f82015f9054906101000a90046bffffffffffffffffffffffff166bffffffffffffffffffffffff166bffffffffffffffffffffffff1681526020015f8201600c9054906101000a900473ffffffffffffffffffffffffffffffffffffffff1673ffffffffffffffffffffffffffffffffffffffff1673ffffffffffffffffffffffffffffffffffffffff168152602001600182015f9054906101000a900465ffffffffffff1665ffffffffffff1665ffffffffffff1681526020016001820160069054906101000a900465ffffffffffff1665ffffffffffff1665ffffffffffff16815260200160018201600c9054906101000a900473ffffffffffffffffffffffffffffffffffffffff1673ffffffffffffffffffffffffffffffffffffffff1673ffffffffffffffffffffffffffffffffffffffff1681526020016002820154815260200160038201548152602001600482015f9054906101000a900460ff161515151581525050828683610b579190612f16565b6bffffffffffffffffffffffff1681518110610b7657610b75612f55565b5b60200260200101819052508080610b8c90612f82565b915050610981565b508091505092915050565b600160149054906101000a90046bffffffffffffffffffffffff1681565b610bc56115ed565b60015f9054906101000a900473ffffffffffffffffffffffffffffffffffffffff1673ffffffffffffffffffffffffffffffffffffffff1663731133e9610c0a610de0565b5f846040518463ffffffff1660e01b8152600401610c2a93929190613051565b5f604051808303815f87803b158015610c41575f80fd5b505af1158015610c53573d5f803e3d5ffd5b5050505050565b5f600160149054906101000a90046bffffffffffffffffffffffff166bffffffffffffffffffffffff16826bffffffffffffffffffffffff1610610cd3576040517f08c379a0000000000000000000000000000000000000000000000000000000008152600401610cca906130e3565b60405180910390fd5b60025f836bffffffffffffffffffffffff166bffffffffffffffffffffffff1681526020019081526020015f20600101600c9054906101000a900473ffffffffffffffffffffffffffffffffffffffff169050919050565b610d336115ed565b610d3c5f611674565b565b6004602052825f5260405f20602052815f5260405f208181548110610d61575f80fd5b905f5260205f2090600202015f925092505050805f015f9054906101000a900473ffffffffffffffffffffffffffffffffffffffff1690805f0160149054906101000a90046bffffffffffffffffffffffff16908060010154905083565b610dc76115ed565b610dd2838383611735565b610ddb82611cda565b505050565b5f805f9054906101000a900473ffffffffffffffffffffffffffffffffffffffff16905090565b5f63bc197c8160e01b905095945050505050565b610e236115ed565b8160015f9054906101000a900473ffffffffffffffffffffffffffffffffffffffff1673ffffffffffffffffffffffffffffffffffffffff1662fdd58e855f6040518363ffffffff1660e01b8152600401610e7f929190613101565b602060405180830381865afa158015610e9a573d5f803e3d5ffd5b505050506040513d601f19601f82011682018060405250810190610ebe919061313c565b11610efe576040517f08c379a0000000000000000000000000000000000000000000000000000000008152600401610ef5906131d7565b60405180910390fd5b60015f9054906101000a900473ffffffffffffffffffffffffffffffffffffffff1673ffffffffffffffffffffffffffffffffffffffff1663e985e9c584306040518363ffffffff1660e01b8152600401610f5a9291906131f5565b602060405180830381865afa158015610f75573d5f803e3d5ffd5b505050506040513d601f19601f82011682018060405250810190610f999190613246565b610fd8576040517f08c379a0000000000000000000000000000000000000000000000000000000008152600401610fcf906132bb565b60405180910390fd5b60015f9054906101000a900473ffffffffffffffffffffffffffffffffffffffff1673ffffffffffffffffffffffffffffffffffffffff1663f242432a843084866040518563ffffffff1660e01b81526004016110389493929190613309565b5f604051808303815f87803b15801561104f575f80fd5b505af1158015611061573d5f803e3d5ffd5b50505050505050565b5f60025f866bffffffffffffffffffffffff166bffffffffffffffffffffffff1681526020019081526020015f20604051806101000160405290815f82015f9054906101000a90046bffffffffffffffffffffffff166bffffffffffffffffffffffff166bffffffffffffffffffffffff1681526020015f8201600c9054906101000a900473ffffffffffffffffffffffffffffffffffffffff1673ffffffffffffffffffffffffffffffffffffffff1673ffffffffffffffffffffffffffffffffffffffff168152602001600182015f9054906101000a900465ffffffffffff1665ffffffffffff1665ffffffffffff1681526020016001820160069054906101000a900465ffffffffffff1665ffffffffffff1665ffffffffffff16815260200160018201600c9054906101000a900473ffffffffffffffffffffffffffffffffffffffff1673ffffffffffffffffffffffffffffffffffffffff1673ffffffffffffffffffffffffffffffffffffffff1681526020016002820154815260200160038201548152602001600482015f9054906101000a900460ff1615151515815250509050806020015173ffffffffffffffffffffffffffffffffffffffff163373ffffffffffffffffffffffffffffffffffffffff1614611284576040517f08c379a000000000000000000000000000000000000000000000000000000000815260040161127b906133a9565b60405180910390fd5b604051806101000160405280866bffffffffffffffffffffffff1681526020018573ffffffffffffffffffffffffffffffffffffffff168152602001826040015165ffffffffffff1681526020014265ffffffffffff1681526020018473ffffffffffffffffffffffffffffffffffffffff1681526020018381526020018260c0015181526020018260e00151151581525060025f876bffffffffffffffffffffffff166bffffffffffffffffffffffff1681526020019081526020015f205f820151815f015f6101000a8154816bffffffffffffffffffffffff02191690836bffffffffffffffffffffffff1602179055506020820151815f01600c6101000a81548173ffffffffffffffffffffffffffffffffffffffff021916908373ffffffffffffffffffffffffffffffffffffffff1602179055506040820151816001015f6101000a81548165ffffffffffff021916908365ffffffffffff16021790555060608201518160010160066101000a81548165ffffffffffff021916908365ffffffffffff160217905550608082015181600101600c6101000a81548173ffffffffffffffffffffffffffffffffffffffff021916908373ffffffffffffffffffffffffffffffffffffffff16021790555060a0820151816002015560c0820151816003015560e0820151816004015f6101000a81548160ff0219169083151502179055509050508060c0015182866bffffffffffffffffffffffff167f603e97a48f8cadd1e9020bf96470c32853c5d9d8ed30f7cbe961f12ad2a45fa087878660e00151426040516114dd9493929190612d87565b60405180910390a45050505050565b5f63f23a6e6160e01b905095945050505050565b6115086115ed565b5f73ffffffffffffffffffffffffffffffffffffffff168173ffffffffffffffffffffffffffffffffffffffff1603611578575f6040517f1e4fbdf700000000000000000000000000000000000000000000000000000000815260040161156f91906127b2565b60405180910390fd5b61158181611674565b50565b5f7f01ffc9a7000000000000000000000000000000000000000000000000000000007bffffffffffffffffffffffffffffffffffffffffffffffffffffffff1916827bffffffffffffffffffffffffffffffffffffffffffffffffffffffff1916149050919050565b6115f5611ed6565b73ffffffffffffffffffffffffffffffffffffffff16611613610de0565b73ffffffffffffffffffffffffffffffffffffffff161461167257611636611ed6565b6040517f118cdaa700000000000000000000000000000000000000000000000000000000815260040161166991906127b2565b60405180910390fd5b565b5f805f9054906101000a900473ffffffffffffffffffffffffffffffffffffffff169050815f806101000a81548173ffffffffffffffffffffffffffffffffffffffff021916908373ffffffffffffffffffffffffffffffffffffffff1602179055508173ffffffffffffffffffffffffffffffffffffffff168173ffffffffffffffffffffffffffffffffffffffff167f8be0079c531659141344cd1fd0a4f28419497f9722a3daafe3b4186f6b6457e060405160405180910390a35050565b8060015f9054906101000a900473ffffffffffffffffffffffffffffffffffffffff1673ffffffffffffffffffffffffffffffffffffffff1662fdd58e855f6040518363ffffffff1660e01b8152600401611791929190613101565b602060405180830381865afa1580156117ac573d5f803e3d5ffd5b505050506040513d601f19601f820116820180604052508101906117d0919061313c565b11611810576040517f08c379a0000000000000000000000000000000000000000000000000000000008152600401611807906131d7565b60405180910390fd5b60015f9054906101000a900473ffffffffffffffffffffffffffffffffffffffff1673ffffffffffffffffffffffffffffffffffffffff1663e985e9c584306040518363ffffffff1660e01b815260040161186c9291906131f5565b602060405180830381865afa158015611887573d5f803e3d5ffd5b505050506040513d601f19601f820116820180604052508101906118ab9190613246565b6118ea576040517f08c379a00000000000000000000000000000000000000000000000000000000081526004016118e1906132bb565b60405180910390fd5b60015f9054906101000a900473ffffffffffffffffffffffffffffffffffffffff1673ffffffffffffffffffffffffffffffffffffffff1663f242432a84305f856040518563ffffffff1660e01b815260040161194a94939291906133c7565b5f604051808303815f87803b158015611961575f80fd5b505af1158015611973573d5f803e3d5ffd5b505050505f60405180606001604052808573ffffffffffffffffffffffffffffffffffffffff168152602001846bffffffffffffffffffffffff16815260200183815250905060045f846bffffffffffffffffffffffff166bffffffffffffffffffffffff1681526020019081526020015f205f8573ffffffffffffffffffffffffffffffffffffffff1673ffffffffffffffffffffffffffffffffffffffff1681526020019081526020015f2081908060018154018082558091505060019003905f5260205f2090600202015f909190919091505f820151815f015f6101000a81548173ffffffffffffffffffffffffffffffffffffffff021916908373ffffffffffffffffffffffffffffffffffffffff1602179055506020820151815f0160146101000a8154816bffffffffffffffffffffffff02191690836bffffffffffffffffffffffff1602179055506040820151816001015550508160025f856bffffffffffffffffffffffff166bffffffffffffffffffffffff1681526020019081526020015f2060030154611b0a919061341d565b60025f856bffffffffffffffffffffffff166bffffffffffffffffffffffff1681526020019081526020015f20600301819055505f60035f856bffffffffffffffffffffffff166bffffffffffffffffffffffff1681526020019081526020015f2090505f600190505f5b8280549050816bffffffffffffffffffffffff161015611c25578673ffffffffffffffffffffffffffffffffffffffff1683826bffffffffffffffffffffffff1681548110611bc757611bc6612f55565b5b905f5260205f20015f9054906101000a900473ffffffffffffffffffffffffffffffffffffffff1673ffffffffffffffffffffffffffffffffffffffff1603611c12575f9150611c25565b8080611c1d90612f82565b915050611b75565b508015611cd2578186908060018154018082558091505060019003905f5260205f20015f9091909190916101000a81548173ffffffffffffffffffffffffffffffffffffffff021916908373ffffffffffffffffffffffffffffffffffffffff160217905550846bffffffffffffffffffffffff167ff6a1c7cf13f8c84fe645ec48f1097482f1cae82185c59ca9248ccbd2368d3f0387604051611cc991906127b2565b60405180910390a25b505050505050565b60025f826bffffffffffffffffffffffff166bffffffffffffffffffffffff1681526020019081526020015f206003015460025f836bffffffffffffffffffffffff166bffffffffffffffffffffffff1681526020019081526020015f20600201541015611ed35760015f9054906101000a900473ffffffffffffffffffffffffffffffffffffffff1673ffffffffffffffffffffffffffffffffffffffff1663f242432a30611d8984610c5a565b5f60025f876bffffffffffffffffffffffff166bffffffffffffffffffffffff1681526020019081526020015f20600301546040518563ffffffff1660e01b8152600401611dda94939291906133c7565b5f604051808303815f87803b158015611df1575f80fd5b505af1158015611e03573d5f803e3d5ffd5b50505050806bffffffffffffffffffffffff167fcd79837f8e8f598de24ef07ea60108df97918f95cfc31d1d61ff9fa09c24035260025f846bffffffffffffffffffffffff166bffffffffffffffffffffffff1681526020019081526020015f206003015442604051611e77929190613450565b60405180910390a2600160025f836bffffffffffffffffffffffff166bffffffffffffffffffffffff1681526020019081526020015f206004015f6101000a81548160ff021916908315150217905550611ed2816032611edd565b5b50565b5f33905090565b5f60025f846bffffffffffffffffffffffff166bffffffffffffffffffffffff1681526020019081526020015f206003015490505f60035f856bffffffffffffffffffffffff166bffffffffffffffffffffffff1681526020019081526020015f20805480602002602001604051908101604052809291908181526020018280548015611fbc57602002820191905f5260205f20905b815f9054906101000a900473ffffffffffffffffffffffffffffffffffffffff1673ffffffffffffffffffffffffffffffffffffffff1681526020019060010190808311611f73575b505050505090505f805f90505b8251816bffffffffffffffffffffffff161015612259575f91505f5b60045f886bffffffffffffffffffffffff166bffffffffffffffffffffffff1681526020019081526020015f205f85846bffffffffffffffffffffffff168151811061203457612033612f55565b5b602002602001015173ffffffffffffffffffffffffffffffffffffffff1673ffffffffffffffffffffffffffffffffffffffff1681526020019081526020015f2080549050816bffffffffffffffffffffffff16101561216e5760045f886bffffffffffffffffffffffff166bffffffffffffffffffffffff1681526020019081526020015f205f85846bffffffffffffffffffffffff16815181106120dd576120dc612f55565b5b602002602001015173ffffffffffffffffffffffffffffffffffffffff1673ffffffffffffffffffffffffffffffffffffffff1681526020019081526020015f20816bffffffffffffffffffffffff168154811061213e5761213d612f55565b5b905f5260205f2090600202016001015483612159919061341d565b9250808061216690612f82565b915050611fe5565b5060015f9054906101000a900473ffffffffffffffffffffffffffffffffffffffff1673ffffffffffffffffffffffffffffffffffffffff1663731133e984836bffffffffffffffffffffffff16815181106121cd576121cc612f55565b5b60200260200101518887896bffffffffffffffffffffffff16876121f19190613477565b6121fb91906134e5565b6040518463ffffffff1660e01b815260040161221993929190613515565b5f604051808303815f87803b158015612230575f80fd5b505af1158015612242573d5f803e3d5ffd5b50505050808061225190612f82565b915050611fc9565b505050505050565b6040518061010001604052805f6bffffffffffffffffffffffff1681526020015f73ffffffffffffffffffffffffffffffffffffffff1681526020015f65ffffffffffff1681526020015f65ffffffffffff1681526020015f73ffffffffffffffffffffffffffffffffffffffff1681526020015f81526020015f81526020015f151581525090565b5f604051905090565b5f80fd5b5f80fd5b5f7fffffffff0000000000000000000000000000000000000000000000000000000082169050919050565b61232f816122fb565b8114612339575f80fd5b50565b5f8135905061234a81612326565b92915050565b5f60208284031215612365576123646122f3565b5b5f6123728482850161233c565b91505092915050565b5f8115159050919050565b61238f8161237b565b82525050565b5f6020820190506123a85f830184612386565b92915050565b5f73ffffffffffffffffffffffffffffffffffffffff82169050919050565b5f6123d7826123ae565b9050919050565b6123e7816123cd565b81146123f1575f80fd5b50565b5f81359050612402816123de565b92915050565b5f819050919050565b61241a81612408565b8114612424575f80fd5b50565b5f8135905061243581612411565b92915050565b5f805f60608486031215612452576124516122f3565b5b5f61245f868287016123f4565b9350506020612470868287016123f4565b925050604061248186828701612427565b9150509250925092565b5f81519050919050565b5f82825260208201905092915050565b5f819050602082019050919050565b5f6bffffffffffffffffffffffff82169050919050565b6124d4816124b4565b82525050565b6124e3816123cd565b82525050565b5f65ffffffffffff82169050919050565b612503816124e9565b82525050565b61251281612408565b82525050565b6125218161237b565b82525050565b61010082015f82015161253c5f8501826124cb565b50602082015161254f60208501826124da565b50604082015161256260408501826124fa565b50606082015161257560608501826124fa565b50608082015161258860808501826124da565b5060a082015161259b60a0850182612509565b5060c08201516125ae60c0850182612509565b5060e08201516125c160e0850182612518565b50505050565b5f6125d28383612527565b6101008301905092915050565b5f602082019050919050565b5f6125f58261248b565b6125ff8185612495565b935061260a836124a5565b805f5b8381101561263a57815161262188826125c7565b975061262c836125df565b92505060018101905061260d565b5085935050505092915050565b5f6020820190508181035f83015261265f81846125eb565b905092915050565b612670816124b4565b811461267a575f80fd5b50565b5f8135905061268b81612667565b92915050565b5f602082840312156126a6576126a56122f3565b5b5f6126b38482850161267d565b91505092915050565b6126c5816124b4565b82525050565b6126d4816123cd565b82525050565b6126e3816124e9565b82525050565b6126f281612408565b82525050565b5f6101008201905061270c5f83018b6126bc565b612719602083018a6126cb565b61272660408301896126da565b61273360608301886126da565b61274060808301876126cb565b61274d60a08301866126e9565b61275a60c08301856126e9565b61276760e0830184612386565b9998505050505050505050565b5f806040838503121561278a576127896122f3565b5b5f6127978582860161267d565b92505060206127a885828601612427565b9150509250929050565b5f6020820190506127c55f8301846126cb565b92915050565b5f80604083850312156127e1576127e06122f3565b5b5f6127ee8582860161267d565b92505060206127ff8582860161267d565b9150509250929050565b5f60208201905061281c5f8301846126bc565b92915050565b5f60208284031215612837576128366122f3565b5b5f61284484828501612427565b91505092915050565b5f805f60608486031215612864576128636122f3565b5b5f6128718682870161267d565b9350506020612882868287016123f4565b925050604061289386828701612427565b9150509250925092565b5f6060820190506128b05f8301866126cb565b6128bd60208301856126bc565b6128ca60408301846126e9565b949350505050565b5f805f606084860312156128e9576128e86122f3565b5b5f6128f6868287016123f4565b93505060206129078682870161267d565b925050604061291886828701612427565b9150509250925092565b5f80fd5b5f601f19601f8301169050919050565b7f4e487b71000000000000000000000000000000000000000000000000000000005f52604160045260245ffd5b61296c82612926565b810181811067ffffffffffffffff8211171561298b5761298a612936565b5b80604052505050565b5f61299d6122ea565b90506129a98282612963565b919050565b5f67ffffffffffffffff8211156129c8576129c7612936565b5b602082029050602081019050919050565b5f80fd5b5f6129ef6129ea846129ae565b612994565b90508083825260208201905060208402830185811115612a1257612a116129d9565b5b835b81811015612a3b5780612a278882612427565b845260208401935050602081019050612a14565b5050509392505050565b5f82601f830112612a5957612a58612922565b5b8135612a698482602086016129dd565b91505092915050565b5f80fd5b5f67ffffffffffffffff821115612a9057612a8f612936565b5b612a9982612926565b9050602081019050919050565b828183375f83830152505050565b5f612ac6612ac184612a76565b612994565b905082815260208101848484011115612ae257612ae1612a72565b5b612aed848285612aa6565b509392505050565b5f82601f830112612b0957612b08612922565b5b8135612b19848260208601612ab4565b91505092915050565b5f805f805f60a08688031215612b3b57612b3a6122f3565b5b5f612b48888289016123f4565b9550506020612b59888289016123f4565b945050604086013567ffffffffffffffff811115612b7a57612b796122f7565b5b612b8688828901612a45565b935050606086013567ffffffffffffffff811115612ba757612ba66122f7565b5b612bb388828901612a45565b925050608086013567ffffffffffffffff811115612bd457612bd36122f7565b5b612be088828901612af5565b9150509295509295909350565b612bf6816122fb565b82525050565b5f602082019050612c0f5f830184612bed565b92915050565b5f805f60608486031215612c2c57612c2b6122f3565b5b5f612c39868287016123f4565b9350506020612c4a86828701612427565b9250506040612c5b8682870161267d565b9150509250925092565b5f805f8060808587031215612c7d57612c7c6122f3565b5b5f612c8a8782880161267d565b9450506020612c9b878288016123f4565b9350506040612cac878288016123f4565b9250506060612cbd87828801612427565b91505092959194509250565b5f805f805f60a08688031215612ce257612ce16122f3565b5b5f612cef888289016123f4565b9550506020612d00888289016123f4565b9450506040612d1188828901612427565b9350506060612d2288828901612427565b925050608086013567ffffffffffffffff811115612d4357612d426122f7565b5b612d4f88828901612af5565b9150509295509295909350565b5f60208284031215612d7157612d706122f3565b5b5f612d7e848285016123f4565b91505092915050565b5f608082019050612d9a5f8301876126cb565b612da760208301866126cb565b612db46040830185612386565b612dc160608301846126e9565b95945050505050565b7f4e487b71000000000000000000000000000000000000000000000000000000005f52601160045260245ffd5b5f612e01826124b4565b9150612e0c836124b4565b925082820190506bffffffffffffffffffffffff811115612e3057612e2f612dca565b5b92915050565b5f82825260208201905092915050565b7f4d757374206265205f656e644964203c3d2066756e64436f756e7400000000005f82015250565b5f612e7a601b83612e36565b9150612e8582612e46565b602082019050919050565b5f6020820190508181035f830152612ea781612e6e565b9050919050565b7f4d757374206265205f73746172744964203c3d205f656e6449640000000000005f82015250565b5f612ee2601a83612e36565b9150612eed82612eae565b602082019050919050565b5f6020820190508181035f830152612f0f81612ed6565b9050919050565b5f612f20826124b4565b9150612f2b836124b4565b925082820390506bffffffffffffffffffffffff811115612f4f57612f4e612dca565b5b92915050565b7f4e487b71000000000000000000000000000000000000000000000000000000005f52603260045260245ffd5b5f612f8c826124b4565b91506bffffffffffffffffffffffff8203612faa57612fa9612dca565b5b600182019050919050565b5f819050919050565b5f819050919050565b5f612fe1612fdc612fd784612fb5565b612fbe565b612408565b9050919050565b612ff181612fc7565b82525050565b5f82825260208201905092915050565b7f30783000000000000000000000000000000000000000000000000000000000005f82015250565b5f61303b600383612ff7565b915061304682613007565b602082019050919050565b5f6080820190506130645f8301866126cb565b6130716020830185612fe8565b61307e60408301846126e9565b818103606083015261308f8161302f565b9050949350505050565b7f4d757374206265205f6964203c2066756e64436f756e740000000000000000005f82015250565b5f6130cd601783612e36565b91506130d882613099565b602082019050919050565b5f6020820190508181035f8301526130fa816130c1565b9050919050565b5f6040820190506131145f8301856126cb565b6131216020830184612fe8565b9392505050565b5f8151905061313681612411565b92915050565b5f60208284031215613151576131506122f3565b5b5f61315e84828501613128565b91505092915050565b7f746f6b656e20616d6f756e74206f662075736572206e6f7420737566666963695f8201527f656e740000000000000000000000000000000000000000000000000000000000602082015250565b5f6131c1602383612e36565b91506131cc82613167565b604082019050919050565b5f6020820190508181035f8301526131ee816131b5565b9050919050565b5f6040820190506132085f8301856126cb565b61321560208301846126cb565b9392505050565b6132258161237b565b811461322f575f80fd5b50565b5f815190506132408161321c565b92915050565b5f6020828403121561325b5761325a6122f3565b5b5f61326884828501613232565b91505092915050565b7f746f6b656e20616c6c6f77616e63652073686f727461676500000000000000005f82015250565b5f6132a5601883612e36565b91506132b082613271565b602082019050919050565b5f6020820190508181035f8301526132d281613299565b9050919050565b5f6132f36132ee6132e9846124b4565b612fbe565b612408565b9050919050565b613303816132d9565b82525050565b5f60a08201905061331c5f8301876126cb565b61332960208301866126cb565b61333660408301856132fa565b61334360608301846126e9565b81810360808301526133548161302f565b905095945050505050565b7f46756e6420557064617465206e6f7420617574686f72697a65640000000000005f82015250565b5f613393601a83612e36565b915061339e8261335f565b602082019050919050565b5f6020820190508181035f8301526133c081613387565b9050919050565b5f60a0820190506133da5f8301876126cb565b6133e760208301866126cb565b6133f46040830185612fe8565b61340160608301846126e9565b81810360808301526134128161302f565b905095945050505050565b5f61342782612408565b915061343283612408565b925082820190508082111561344a57613449612dca565b5b92915050565b5f6040820190506134635f8301856126e9565b61347060208301846126e9565b9392505050565b5f61348182612408565b915061348c83612408565b925082820261349a81612408565b915082820484148315176134b1576134b0612dca565b5b5092915050565b7f4e487b71000000000000000000000000000000000000000000000000000000005f52601260045260245ffd5b5f6134ef82612408565b91506134fa83612408565b92508261350a576135096134b8565b5b828204905092915050565b5f6080820190506135285f8301866126cb565b61353560208301856132fa565b61354260408301846126e9565b81810360608301526135538161302f565b905094935050505056fea26469706673582212200e13f65a126fbf135834310a661fc96c77cad75b14af1b67b11376632975e89964736f6c63430008140033",
			"opcodes": "PUSH1 0x80 PUSH1 0x40 MSTORE PUSH1 0x1 DUP1 PUSH1 0x14 PUSH2 0x100 EXP DUP2 SLOAD DUP2 PUSH12 0xFFFFFFFFFFFFFFFFFFFFFFFF MUL NOT AND SWAP1 DUP4 PUSH12 0xFFFFFFFFFFFFFFFFFFFFFFFF AND MUL OR SWAP1 SSTORE POP CALLVALUE DUP1 ISZERO PUSH3 0x41 JUMPI PUSH0 DUP1 REVERT JUMPDEST POP PUSH1 0x40 MLOAD PUSH3 0x38AF CODESIZE SUB DUP1 PUSH3 0x38AF DUP4 CODECOPY DUP2 DUP2 ADD PUSH1 0x40 MSTORE DUP2 ADD SWAP1 PUSH3 0x67 SWAP2 SWAP1 PUSH3 0x29D JUMP JUMPDEST DUP1 PUSH0 PUSH20 0xFFFFFFFFFFFFFFFFFFFFFFFFFFFFFFFFFFFFFFFF AND DUP2 PUSH20 0xFFFFFFFFFFFFFFFFFFFFFFFFFFFFFFFFFFFFFFFF AND SUB PUSH3 0xDB JUMPI PUSH0 PUSH1 0x40 MLOAD PUSH32 0x1E4FBDF700000000000000000000000000000000000000000000000000000000 DUP2 MSTORE PUSH1 0x4 ADD PUSH3 0xD2 SWAP2 SWAP1 PUSH3 0x2F3 JUMP JUMPDEST PUSH1 0x40 MLOAD DUP1 SWAP2 SUB SWAP1 REVERT JUMPDEST PUSH3 0xEC DUP2 PUSH3 0x135 PUSH1 0x20 SHL PUSH1 0x20 SHR JUMP JUMPDEST POP DUP2 PUSH1 0x1 PUSH0 PUSH2 0x100 EXP DUP2 SLOAD DUP2 PUSH20 0xFFFFFFFFFFFFFFFFFFFFFFFFFFFFFFFFFFFFFFFF MUL NOT AND SWAP1 DUP4 PUSH20 0xFFFFFFFFFFFFFFFFFFFFFFFFFFFFFFFFFFFFFFFF AND MUL OR SWAP1 SSTORE POP POP POP PUSH3 0x30E JUMP JUMPDEST PUSH0 DUP1 PUSH0 SWAP1 SLOAD SWAP1 PUSH2 0x100 EXP SWAP1 DIV PUSH20 0xFFFFFFFFFFFFFFFFFFFFFFFFFFFFFFFFFFFFFFFF AND SWAP1 POP DUP2 PUSH0 DUP1 PUSH2 0x100 EXP DUP2 SLOAD DUP2 PUSH20 0xFFFFFFFFFFFFFFFFFFFFFFFFFFFFFFFFFFFFFFFF MUL NOT AND SWAP1 DUP4 PUSH20 0xFFFFFFFFFFFFFFFFFFFFFFFFFFFFFFFFFFFFFFFF AND MUL OR SWAP1 SSTORE POP DUP2 PUSH20 0xFFFFFFFFFFFFFFFFFFFFFFFFFFFFFFFFFFFFFFFF AND DUP2 PUSH20 0xFFFFFFFFFFFFFFFFFFFFFFFFFFFFFFFFFFFFFFFF AND PUSH32 0x8BE0079C531659141344CD1FD0A4F28419497F9722A3DAAFE3B4186F6B6457E0 PUSH1 0x40 MLOAD PUSH1 0x40 MLOAD DUP1 SWAP2 SUB SWAP1 LOG3 POP POP JUMP JUMPDEST PUSH0 DUP1 REVERT JUMPDEST PUSH0 PUSH20 0xFFFFFFFFFFFFFFFFFFFFFFFFFFFFFFFFFFFFFFFF DUP3 AND SWAP1 POP SWAP2 SWAP1 POP JUMP JUMPDEST PUSH0 PUSH3 0x225 DUP3 PUSH3 0x1FA JUMP JUMPDEST SWAP1 POP SWAP2 SWAP1 POP JUMP JUMPDEST PUSH0 PUSH3 0x238 DUP3 PUSH3 0x219 JUMP JUMPDEST SWAP1 POP SWAP2 SWAP1 POP JUMP JUMPDEST PUSH3 0x24A DUP2 PUSH3 0x22C JUMP JUMPDEST DUP2 EQ PUSH3 0x255 JUMPI PUSH0 DUP1 REVERT JUMPDEST POP JUMP JUMPDEST PUSH0 DUP2 MLOAD SWAP1 POP PUSH3 0x268 DUP2 PUSH3 0x23F JUMP JUMPDEST SWAP3 SWAP2 POP POP JUMP JUMPDEST PUSH3 0x279 DUP2 PUSH3 0x219 JUMP JUMPDEST DUP2 EQ PUSH3 0x284 JUMPI PUSH0 DUP1 REVERT JUMPDEST POP JUMP JUMPDEST PUSH0 DUP2 MLOAD SWAP1 POP PUSH3 0x297 DUP2 PUSH3 0x26E JUMP JUMPDEST SWAP3 SWAP2 POP POP JUMP JUMPDEST PUSH0 DUP1 PUSH1 0x40 DUP4 DUP6 SUB SLT ISZERO PUSH3 0x2B6 JUMPI PUSH3 0x2B5 PUSH3 0x1F6 JUMP JUMPDEST JUMPDEST PUSH0 PUSH3 0x2C5 DUP6 DUP3 DUP7 ADD PUSH3 0x258 JUMP JUMPDEST SWAP3 POP POP PUSH1 0x20 PUSH3 0x2D8 DUP6 DUP3 DUP7 ADD PUSH3 0x287 JUMP JUMPDEST SWAP2 POP POP SWAP3 POP SWAP3 SWAP1 POP JUMP JUMPDEST PUSH3 0x2ED DUP2 PUSH3 0x219 JUMP JUMPDEST DUP3 MSTORE POP POP JUMP JUMPDEST PUSH0 PUSH1 0x20 DUP3 ADD SWAP1 POP PUSH3 0x308 PUSH0 DUP4 ADD DUP5 PUSH3 0x2E2 JUMP JUMPDEST SWAP3 SWAP2 POP POP JUMP JUMPDEST PUSH2 0x3593 DUP1 PUSH3 0x31C PUSH0 CODECOPY PUSH0 RETURN INVALID PUSH1 0x80 PUSH1 0x40 MSTORE CALLVALUE DUP1 ISZERO PUSH2 0xF JUMPI PUSH0 DUP1 REVERT JUMPDEST POP PUSH1 0x4 CALLDATASIZE LT PUSH2 0x114 JUMPI PUSH0 CALLDATALOAD PUSH1 0xE0 SHR DUP1 PUSH4 0x715018A6 GT PUSH2 0xA0 JUMPI DUP1 PUSH4 0xBC197C81 GT PUSH2 0x6F JUMPI DUP1 PUSH4 0xBC197C81 EQ PUSH2 0x2F9 JUMPI DUP1 PUSH4 0xC7F33000 EQ PUSH2 0x329 JUMPI DUP1 PUSH4 0xDD7D7929 EQ PUSH2 0x345 JUMPI DUP1 PUSH4 0xF23A6E61 EQ PUSH2 0x361 JUMPI DUP1 PUSH4 0xF2FDE38B EQ PUSH2 0x391 JUMPI PUSH2 0x114 JUMP JUMPDEST DUP1 PUSH4 0x715018A6 EQ PUSH2 0x283 JUMPI DUP1 PUSH4 0x7A3819CB EQ PUSH2 0x28D JUMPI DUP1 PUSH4 0x88B53CED EQ PUSH2 0x2BF JUMPI DUP1 PUSH4 0x8DA5CB5B EQ PUSH2 0x2DB JUMPI PUSH2 0x114 JUMP JUMPDEST DUP1 PUSH4 0x2F14670C GT PUSH2 0xE7 JUMPI DUP1 PUSH4 0x2F14670C EQ PUSH2 0x1B9 JUMPI DUP1 PUSH4 0x380EAAF9 EQ PUSH2 0x1E9 JUMPI DUP1 PUSH4 0x3F936FF5 EQ PUSH2 0x219 JUMPI DUP1 PUSH4 0x57E0E058 EQ PUSH2 0x237 JUMPI DUP1 PUSH4 0x6C173D38 EQ PUSH2 0x253 JUMPI PUSH2 0x114 JUMP JUMPDEST DUP1 PUSH4 0x1FFC9A7 EQ PUSH2 0x118 JUMPI DUP1 PUSH4 0x17444626 EQ PUSH2 0x148 JUMPI DUP1 PUSH4 0x1C69B464 EQ PUSH2 0x164 JUMPI DUP1 PUSH4 0x1F71F89F EQ PUSH2 0x182 JUMPI JUMPDEST PUSH0 DUP1 REVERT JUMPDEST PUSH2 0x132 PUSH1 0x4 DUP1 CALLDATASIZE SUB DUP2 ADD SWAP1 PUSH2 0x12D SWAP2 SWAP1 PUSH2 0x2350 JUMP JUMPDEST PUSH2 0x3AD JUMP JUMPDEST PUSH1 0x40 MLOAD PUSH2 0x13F SWAP2 SWAP1 PUSH2 0x2395 JUMP JUMPDEST PUSH1 0x40 MLOAD DUP1 SWAP2 SUB SWAP1 RETURN JUMPDEST PUSH2 0x162 PUSH1 0x4 DUP1 CALLDATASIZE SUB DUP2 ADD SWAP1 PUSH2 0x15D SWAP2 SWAP1 PUSH2 0x243B JUMP JUMPDEST PUSH2 0x426 JUMP JUMPDEST STOP JUMPDEST PUSH2 0x16C PUSH2 0x6F6 JUMP JUMPDEST PUSH1 0x40 MLOAD PUSH2 0x179 SWAP2 SWAP1 PUSH2 0x2647 JUMP JUMPDEST PUSH1 0x40 MLOAD DUP1 SWAP2 SUB SWAP1 RETURN JUMPDEST PUSH2 0x19C PUSH1 0x4 DUP1 CALLDATASIZE SUB DUP2 ADD SWAP1 PUSH2 0x197 SWAP2 SWAP1 PUSH2 0x2691 JUMP JUMPDEST PUSH2 0x721 JUMP JUMPDEST PUSH1 0x40 MLOAD PUSH2 0x1B0 SWAP9 SWAP8 SWAP7 SWAP6 SWAP5 SWAP4 SWAP3 SWAP2 SWAP1 PUSH2 0x26F8 JUMP JUMPDEST PUSH1 0x40 MLOAD DUP1 SWAP2 SUB SWAP1 RETURN JUMPDEST PUSH2 0x1D3 PUSH1 0x4 DUP1 CALLDATASIZE SUB DUP2 ADD SWAP1 PUSH2 0x1CE SWAP2 SWAP1 PUSH2 0x2774 JUMP JUMPDEST PUSH2 0x7EA JUMP JUMPDEST PUSH1 0x40 MLOAD PUSH2 0x1E0 SWAP2 SWAP1 PUSH2 0x27B2 JUMP JUMPDEST PUSH1 0x40 MLOAD DUP1 SWAP2 SUB SWAP1 RETURN JUMPDEST PUSH2 0x203 PUSH1 0x4 DUP1 CALLDATASIZE SUB DUP2 ADD SWAP1 PUSH2 0x1FE SWAP2 SWAP1 PUSH2 0x27CB JUMP JUMPDEST PUSH2 0x832 JUMP JUMPDEST PUSH1 0x40 MLOAD PUSH2 0x210 SWAP2 SWAP1 PUSH2 0x2647 JUMP JUMPDEST PUSH1 0x40 MLOAD DUP1 SWAP2 SUB SWAP1 RETURN JUMPDEST PUSH2 0x221 PUSH2 0xB9F JUMP JUMPDEST PUSH1 0x40 MLOAD PUSH2 0x22E SWAP2 SWAP1 PUSH2 0x2809 JUMP JUMPDEST PUSH1 0x40 MLOAD DUP1 SWAP2 SUB SWAP1 RETURN JUMPDEST PUSH2 0x251 PUSH1 0x4 DUP1 CALLDATASIZE SUB DUP2 ADD SWAP1 PUSH2 0x24C SWAP2 SWAP1 PUSH2 0x2822 JUMP JUMPDEST PUSH2 0xBBD JUMP JUMPDEST STOP JUMPDEST PUSH2 0x26D PUSH1 0x4 DUP1 CALLDATASIZE SUB DUP2 ADD SWAP1 PUSH2 0x268 SWAP2 SWAP1 PUSH2 0x2691 JUMP JUMPDEST PUSH2 0xC5A JUMP JUMPDEST PUSH1 0x40 MLOAD PUSH2 0x27A SWAP2 SWAP1 PUSH2 0x27B2 JUMP JUMPDEST PUSH1 0x40 MLOAD DUP1 SWAP2 SUB SWAP1 RETURN JUMPDEST PUSH2 0x28B PUSH2 0xD2B JUMP JUMPDEST STOP JUMPDEST PUSH2 0x2A7 PUSH1 0x4 DUP1 CALLDATASIZE SUB DUP2 ADD SWAP1 PUSH2 0x2A2 SWAP2 SWAP1 PUSH2 0x284D JUMP JUMPDEST PUSH2 0xD3E JUMP JUMPDEST PUSH1 0x40 MLOAD PUSH2 0x2B6 SWAP4 SWAP3 SWAP2 SWAP1 PUSH2 0x289D JUMP JUMPDEST PUSH1 0x40 MLOAD DUP1 SWAP2 SUB SWAP1 RETURN JUMPDEST PUSH2 0x2D9 PUSH1 0x4 DUP1 CALLDATASIZE SUB DUP2 ADD SWAP1 PUSH2 0x2D4 SWAP2 SWAP1 PUSH2 0x28D2 JUMP JUMPDEST PUSH2 0xDBF JUMP JUMPDEST STOP JUMPDEST PUSH2 0x2E3 PUSH2 0xDE0 JUMP JUMPDEST PUSH1 0x40 MLOAD PUSH2 0x2F0 SWAP2 SWAP1 PUSH2 0x27B2 JUMP JUMPDEST PUSH1 0x40 MLOAD DUP1 SWAP2 SUB SWAP1 RETURN JUMPDEST PUSH2 0x313 PUSH1 0x4 DUP1 CALLDATASIZE SUB DUP2 ADD SWAP1 PUSH2 0x30E SWAP2 SWAP1 PUSH2 0x2B22 JUMP JUMPDEST PUSH2 0xE07 JUMP JUMPDEST PUSH1 0x40 MLOAD PUSH2 0x320 SWAP2 SWAP1 PUSH2 0x2BFC JUMP JUMPDEST PUSH1 0x40 MLOAD DUP1 SWAP2 SUB SWAP1 RETURN JUMPDEST PUSH2 0x343 PUSH1 0x4 DUP1 CALLDATASIZE SUB DUP2 ADD SWAP1 PUSH2 0x33E SWAP2 SWAP1 PUSH2 0x2C15 JUMP JUMPDEST PUSH2 0xE1B JUMP JUMPDEST STOP JUMPDEST PUSH2 0x35F PUSH1 0x4 DUP1 CALLDATASIZE SUB DUP2 ADD SWAP1 PUSH2 0x35A SWAP2 SWAP1 PUSH2 0x2C65 JUMP JUMPDEST PUSH2 0x106A JUMP JUMPDEST STOP JUMPDEST PUSH2 0x37B PUSH1 0x4 DUP1 CALLDATASIZE SUB DUP2 ADD SWAP1 PUSH2 0x376 SWAP2 SWAP1 PUSH2 0x2CC9 JUMP JUMPDEST PUSH2 0x14EC JUMP JUMPDEST PUSH1 0x40 MLOAD PUSH2 0x388 SWAP2 SWAP1 PUSH2 0x2BFC JUMP JUMPDEST PUSH1 0x40 MLOAD DUP1 SWAP2 SUB SWAP1 RETURN JUMPDEST PUSH2 0x3AB PUSH1 0x4 DUP1 CALLDATASIZE SUB DUP2 ADD SWAP1 PUSH2 0x3A6 SWAP2 SWAP1 PUSH2 0x2D5C JUMP JUMPDEST PUSH2 0x1500 JUMP JUMPDEST STOP JUMPDEST PUSH0 PUSH32 0x4E2312E000000000000000000000000000000000000000000000000000000000 PUSH28 0xFFFFFFFFFFFFFFFFFFFFFFFFFFFFFFFFFFFFFFFFFFFFFFFFFFFFFFFF NOT AND DUP3 PUSH28 0xFFFFFFFFFFFFFFFFFFFFFFFFFFFFFFFFFFFFFFFFFFFFFFFFFFFFFFFF NOT AND EQ DUP1 PUSH2 0x41F JUMPI POP PUSH2 0x41E DUP3 PUSH2 0x1584 JUMP JUMPDEST JUMPDEST SWAP1 POP SWAP2 SWAP1 POP JUMP JUMPDEST PUSH2 0x42E PUSH2 0x15ED JUMP JUMPDEST PUSH0 PUSH1 0x1 PUSH1 0x14 SWAP1 SLOAD SWAP1 PUSH2 0x100 EXP SWAP1 DIV PUSH12 0xFFFFFFFFFFFFFFFFFFFFFFFF AND SWAP1 POP PUSH1 0x40 MLOAD DUP1 PUSH2 0x100 ADD PUSH1 0x40 MSTORE DUP1 DUP3 PUSH12 0xFFFFFFFFFFFFFFFFFFFFFFFF AND DUP2 MSTORE PUSH1 0x20 ADD DUP6 PUSH20 0xFFFFFFFFFFFFFFFFFFFFFFFFFFFFFFFFFFFFFFFF AND DUP2 MSTORE PUSH1 0x20 ADD TIMESTAMP PUSH6 0xFFFFFFFFFFFF AND DUP2 MSTORE PUSH1 0x20 ADD TIMESTAMP PUSH6 0xFFFFFFFFFFFF AND DUP2 MSTORE PUSH1 0x20 ADD DUP5 PUSH20 0xFFFFFFFFFFFFFFFFFFFFFFFFFFFFFFFFFFFFFFFF AND DUP2 MSTORE PUSH1 0x20 ADD DUP4 DUP2 MSTORE PUSH1 0x20 ADD PUSH0 DUP2 MSTORE PUSH1 0x20 ADD PUSH0 ISZERO ISZERO DUP2 MSTORE POP PUSH1 0x2 PUSH0 DUP4 PUSH12 0xFFFFFFFFFFFFFFFFFFFFFFFF AND PUSH12 0xFFFFFFFFFFFFFFFFFFFFFFFF AND DUP2 MSTORE PUSH1 0x20 ADD SWAP1 DUP2 MSTORE PUSH1 0x20 ADD PUSH0 KECCAK256 PUSH0 DUP3 ADD MLOAD DUP2 PUSH0 ADD PUSH0 PUSH2 0x100 EXP DUP2 SLOAD DUP2 PUSH12 0xFFFFFFFFFFFFFFFFFFFFFFFF MUL NOT AND SWAP1 DUP4 PUSH12 0xFFFFFFFFFFFFFFFFFFFFFFFF AND MUL OR SWAP1 SSTORE POP PUSH1 0x20 DUP3 ADD MLOAD DUP2 PUSH0 ADD PUSH1 0xC PUSH2 0x100 EXP DUP2 SLOAD DUP2 PUSH20 0xFFFFFFFFFFFFFFFFFFFFFFFFFFFFFFFFFFFFFFFF MUL NOT AND SWAP1 DUP4 PUSH20 0xFFFFFFFFFFFFFFFFFFFFFFFFFFFFFFFFFFFFFFFF AND MUL OR SWAP1 SSTORE POP PUSH1 0x40 DUP3 ADD MLOAD DUP2 PUSH1 0x1 ADD PUSH0 PUSH2 0x100 EXP DUP2 SLOAD DUP2 PUSH6 0xFFFFFFFFFFFF MUL NOT AND SWAP1 DUP4 PUSH6 0xFFFFFFFFFFFF AND MUL OR SWAP1 SSTORE POP PUSH1 0x60 DUP3 ADD MLOAD DUP2 PUSH1 0x1 ADD PUSH1 0x6 PUSH2 0x100 EXP DUP2 SLOAD DUP2 PUSH6 0xFFFFFFFFFFFF MUL NOT AND SWAP1 DUP4 PUSH6 0xFFFFFFFFFFFF AND MUL OR SWAP1 SSTORE POP PUSH1 0x80 DUP3 ADD MLOAD DUP2 PUSH1 0x1 ADD PUSH1 0xC PUSH2 0x100 EXP DUP2 SLOAD DUP2 PUSH20 0xFFFFFFFFFFFFFFFFFFFFFFFFFFFFFFFFFFFFFFFF MUL NOT AND SWAP1 DUP4 PUSH20 0xFFFFFFFFFFFFFFFFFFFFFFFFFFFFFFFFFFFFFFFF AND MUL OR SWAP1 SSTORE POP PUSH1 0xA0 DUP3 ADD MLOAD DUP2 PUSH1 0x2 ADD SSTORE PUSH1 0xC0 DUP3 ADD MLOAD DUP2 PUSH1 0x3 ADD SSTORE PUSH1 0xE0 DUP3 ADD MLOAD DUP2 PUSH1 0x4 ADD PUSH0 PUSH2 0x100 EXP DUP2 SLOAD DUP2 PUSH1 0xFF MUL NOT AND SWAP1 DUP4 ISZERO ISZERO MUL OR SWAP1 SSTORE POP SWAP1 POP POP PUSH0 DUP3 DUP3 PUSH12 0xFFFFFFFFFFFFFFFFFFFFFFFF AND PUSH32 0x1E216CC18D3E93F7C7B9A7B3A038093BC655D3D5CBFBB504D67D4376BD02D13F DUP8 DUP8 PUSH0 TIMESTAMP PUSH1 0x40 MLOAD PUSH2 0x691 SWAP5 SWAP4 SWAP3 SWAP2 SWAP1 PUSH2 0x2D87 JUMP JUMPDEST PUSH1 0x40 MLOAD DUP1 SWAP2 SUB SWAP1 LOG4 PUSH1 0x1 DUP1 PUSH1 0x14 DUP3 DUP3 DUP3 SWAP1 SLOAD SWAP1 PUSH2 0x100 EXP SWAP1 DIV PUSH12 0xFFFFFFFFFFFFFFFFFFFFFFFF AND PUSH2 0x6C2 SWAP2 SWAP1 PUSH2 0x2DF7 JUMP JUMPDEST SWAP3 POP PUSH2 0x100 EXP DUP2 SLOAD DUP2 PUSH12 0xFFFFFFFFFFFFFFFFFFFFFFFF MUL NOT AND SWAP1 DUP4 PUSH12 0xFFFFFFFFFFFFFFFFFFFFFFFF AND MUL OR SWAP1 SSTORE POP POP POP POP POP JUMP JUMPDEST PUSH1 0x60 PUSH2 0x71C PUSH0 PUSH1 0x1 PUSH1 0x14 SWAP1 SLOAD SWAP1 PUSH2 0x100 EXP SWAP1 DIV PUSH12 0xFFFFFFFFFFFFFFFFFFFFFFFF AND PUSH2 0x832 JUMP JUMPDEST SWAP1 POP SWAP1 JUMP JUMPDEST PUSH1 0x2 PUSH1 0x20 MSTORE DUP1 PUSH0 MSTORE PUSH1 0x40 PUSH0 KECCAK256 PUSH0 SWAP2 POP SWAP1 POP DUP1 PUSH0 ADD PUSH0 SWAP1 SLOAD SWAP1 PUSH2 0x100 EXP SWAP1 DIV PUSH12 0xFFFFFFFFFFFFFFFFFFFFFFFF AND SWAP1 DUP1 PUSH0 ADD PUSH1 0xC SWAP1 SLOAD SWAP1 PUSH2 0x100 EXP SWAP1 DIV PUSH20 0xFFFFFFFFFFFFFFFFFFFFFFFFFFFFFFFFFFFFFFFF AND SWAP1 DUP1 PUSH1 0x1 ADD PUSH0 SWAP1 SLOAD SWAP1 PUSH2 0x100 EXP SWAP1 DIV PUSH6 0xFFFFFFFFFFFF AND SWAP1 DUP1 PUSH1 0x1 ADD PUSH1 0x6 SWAP1 SLOAD SWAP1 PUSH2 0x100 EXP SWAP1 DIV PUSH6 0xFFFFFFFFFFFF AND SWAP1 DUP1 PUSH1 0x1 ADD PUSH1 0xC SWAP1 SLOAD SWAP1 PUSH2 0x100 EXP SWAP1 DIV PUSH20 0xFFFFFFFFFFFFFFFFFFFFFFFFFFFFFFFFFFFFFFFF AND SWAP1 DUP1 PUSH1 0x2 ADD SLOAD SWAP1 DUP1 PUSH1 0x3 ADD SLOAD SWAP1 DUP1 PUSH1 0x4 ADD PUSH0 SWAP1 SLOAD SWAP1 PUSH2 0x100 EXP SWAP1 DIV PUSH1 0xFF AND SWAP1 POP DUP9 JUMP JUMPDEST PUSH1 0x3 PUSH1 0x20 MSTORE DUP2 PUSH0 MSTORE PUSH1 0x40 PUSH0 KECCAK256 DUP2 DUP2 SLOAD DUP2 LT PUSH2 0x803 JUMPI PUSH0 DUP1 REVERT JUMPDEST SWAP1 PUSH0 MSTORE PUSH1 0x20 PUSH0 KECCAK256 ADD PUSH0 SWAP2 POP SWAP2 POP SWAP1 SLOAD SWAP1 PUSH2 0x100 EXP SWAP1 DIV PUSH20 0xFFFFFFFFFFFFFFFFFFFFFFFFFFFFFFFFFFFFFFFF AND DUP2 JUMP JUMPDEST PUSH1 0x60 PUSH1 0x1 PUSH1 0x14 SWAP1 SLOAD SWAP1 PUSH2 0x100 EXP SWAP1 DIV PUSH12 0xFFFFFFFFFFFFFFFFFFFFFFFF AND PUSH12 0xFFFFFFFFFFFFFFFFFFFFFFFF AND DUP3 PUSH12 0xFFFFFFFFFFFFFFFFFFFFFFFF AND GT ISZERO PUSH2 0x8AD JUMPI PUSH1 0x40 MLOAD PUSH32 0x8C379A000000000000000000000000000000000000000000000000000000000 DUP2 MSTORE PUSH1 0x4 ADD PUSH2 0x8A4 SWAP1 PUSH2 0x2E90 JUMP JUMPDEST PUSH1 0x40 MLOAD DUP1 SWAP2 SUB SWAP1 REVERT JUMPDEST DUP2 PUSH12 0xFFFFFFFFFFFFFFFFFFFFFFFF AND DUP4 PUSH12 0xFFFFFFFFFFFFFFFFFFFFFFFF AND GT ISZERO PUSH2 0x90C JUMPI PUSH1 0x40 MLOAD PUSH32 0x8C379A000000000000000000000000000000000000000000000000000000000 DUP2 MSTORE PUSH1 0x4 ADD PUSH2 0x903 SWAP1 PUSH2 0x2EF8 JUMP JUMPDEST PUSH1 0x40 MLOAD DUP1 SWAP2 SUB SWAP1 REVERT JUMPDEST PUSH0 DUP4 DUP4 PUSH2 0x919 SWAP2 SWAP1 PUSH2 0x2F16 JUMP JUMPDEST PUSH12 0xFFFFFFFFFFFFFFFFFFFFFFFF AND PUSH8 0xFFFFFFFFFFFFFFFF DUP2 GT ISZERO PUSH2 0x940 JUMPI PUSH2 0x93F PUSH2 0x2936 JUMP JUMPDEST JUMPDEST PUSH1 0x40 MLOAD SWAP1 DUP1 DUP3 MSTORE DUP1 PUSH1 0x20 MUL PUSH1 0x20 ADD DUP3 ADD PUSH1 0x40 MSTORE DUP1 ISZERO PUSH2 0x979 JUMPI DUP2 PUSH1 0x20 ADD JUMPDEST PUSH2 0x966 PUSH2 0x2261 JUMP JUMPDEST DUP2 MSTORE PUSH1 0x20 ADD SWAP1 PUSH1 0x1 SWAP1 SUB SWAP1 DUP2 PUSH2 0x95E JUMPI SWAP1 POP JUMPDEST POP SWAP1 POP PUSH0 DUP5 SWAP1 POP JUMPDEST DUP4 PUSH12 0xFFFFFFFFFFFFFFFFFFFFFFFF AND DUP2 PUSH12 0xFFFFFFFFFFFFFFFFFFFFFFFF AND LT ISZERO PUSH2 0xB94 JUMPI PUSH1 0x2 PUSH0 DUP3 PUSH12 0xFFFFFFFFFFFFFFFFFFFFFFFF AND PUSH12 0xFFFFFFFFFFFFFFFFFFFFFFFF AND DUP2 MSTORE PUSH1 0x20 ADD SWAP1 DUP2 MSTORE PUSH1 0x20 ADD PUSH0 KECCAK256 PUSH1 0x40 MLOAD DUP1 PUSH2 0x100 ADD PUSH1 0x40 MSTORE SWAP1 DUP2 PUSH0 DUP3 ADD PUSH0 SWAP1 SLOAD SWAP1 PUSH2 0x100 EXP SWAP1 DIV PUSH12 0xFFFFFFFFFFFFFFFFFFFFFFFF AND PUSH12 0xFFFFFFFFFFFFFFFFFFFFFFFF AND PUSH12 0xFFFFFFFFFFFFFFFFFFFFFFFF AND DUP2 MSTORE PUSH1 0x20 ADD PUSH0 DUP3 ADD PUSH1 0xC SWAP1 SLOAD SWAP1 PUSH2 0x100 EXP SWAP1 DIV PUSH20 0xFFFFFFFFFFFFFFFFFFFFFFFFFFFFFFFFFFFFFFFF AND PUSH20 0xFFFFFFFFFFFFFFFFFFFFFFFFFFFFFFFFFFFFFFFF AND PUSH20 0xFFFFFFFFFFFFFFFFFFFFFFFFFFFFFFFFFFFFFFFF AND DUP2 MSTORE PUSH1 0x20 ADD PUSH1 0x1 DUP3 ADD PUSH0 SWAP1 SLOAD SWAP1 PUSH2 0x100 EXP SWAP1 DIV PUSH6 0xFFFFFFFFFFFF AND PUSH6 0xFFFFFFFFFFFF AND PUSH6 0xFFFFFFFFFFFF AND DUP2 MSTORE PUSH1 0x20 ADD PUSH1 0x1 DUP3 ADD PUSH1 0x6 SWAP1 SLOAD SWAP1 PUSH2 0x100 EXP SWAP1 DIV PUSH6 0xFFFFFFFFFFFF AND PUSH6 0xFFFFFFFFFFFF AND PUSH6 0xFFFFFFFFFFFF AND DUP2 MSTORE PUSH1 0x20 ADD PUSH1 0x1 DUP3 ADD PUSH1 0xC SWAP1 SLOAD SWAP1 PUSH2 0x100 EXP SWAP1 DIV PUSH20 0xFFFFFFFFFFFFFFFFFFFFFFFFFFFFFFFFFFFFFFFF AND PUSH20 0xFFFFFFFFFFFFFFFFFFFFFFFFFFFFFFFFFFFFFFFF AND PUSH20 0xFFFFFFFFFFFFFFFFFFFFFFFFFFFFFFFFFFFFFFFF AND DUP2 MSTORE PUSH1 0x20 ADD PUSH1 0x2 DUP3 ADD SLOAD DUP2 MSTORE PUSH1 0x20 ADD PUSH1 0x3 DUP3 ADD SLOAD DUP2 MSTORE PUSH1 0x20 ADD PUSH1 0x4 DUP3 ADD PUSH0 SWAP1 SLOAD SWAP1 PUSH2 0x100 EXP SWAP1 DIV PUSH1 0xFF AND ISZERO ISZERO ISZERO ISZERO DUP2 MSTORE POP POP DUP3 DUP7 DUP4 PUSH2 0xB57 SWAP2 SWAP1 PUSH2 0x2F16 JUMP JUMPDEST PUSH12 0xFFFFFFFFFFFFFFFFFFFFFFFF AND DUP2 MLOAD DUP2 LT PUSH2 0xB76 JUMPI PUSH2 0xB75 PUSH2 0x2F55 JUMP JUMPDEST JUMPDEST PUSH1 0x20 MUL PUSH1 0x20 ADD ADD DUP2 SWAP1 MSTORE POP DUP1 DUP1 PUSH2 0xB8C SWAP1 PUSH2 0x2F82 JUMP JUMPDEST SWAP2 POP POP PUSH2 0x981 JUMP JUMPDEST POP DUP1 SWAP2 POP POP SWAP3 SWAP2 POP POP JUMP JUMPDEST PUSH1 0x1 PUSH1 0x14 SWAP1 SLOAD SWAP1 PUSH2 0x100 EXP SWAP1 DIV PUSH12 0xFFFFFFFFFFFFFFFFFFFFFFFF AND DUP2 JUMP JUMPDEST PUSH2 0xBC5 PUSH2 0x15ED JUMP JUMPDEST PUSH1 0x1 PUSH0 SWAP1 SLOAD SWAP1 PUSH2 0x100 EXP SWAP1 DIV PUSH20 0xFFFFFFFFFFFFFFFFFFFFFFFFFFFFFFFFFFFFFFFF AND PUSH20 0xFFFFFFFFFFFFFFFFFFFFFFFFFFFFFFFFFFFFFFFF AND PUSH4 0x731133E9 PUSH2 0xC0A PUSH2 0xDE0 JUMP JUMPDEST PUSH0 DUP5 PUSH1 0x40 MLOAD DUP5 PUSH4 0xFFFFFFFF AND PUSH1 0xE0 SHL DUP2 MSTORE PUSH1 0x4 ADD PUSH2 0xC2A SWAP4 SWAP3 SWAP2 SWAP1 PUSH2 0x3051 JUMP JUMPDEST PUSH0 PUSH1 0x40 MLOAD DUP1 DUP4 SUB DUP2 PUSH0 DUP8 DUP1 EXTCODESIZE ISZERO DUP1 ISZERO PUSH2 0xC41 JUMPI PUSH0 DUP1 REVERT JUMPDEST POP GAS CALL ISZERO DUP1 ISZERO PUSH2 0xC53 JUMPI RETURNDATASIZE PUSH0 DUP1 RETURNDATACOPY RETURNDATASIZE PUSH0 REVERT JUMPDEST POP POP POP POP POP JUMP JUMPDEST PUSH0 PUSH1 0x1 PUSH1 0x14 SWAP1 SLOAD SWAP1 PUSH2 0x100 EXP SWAP1 DIV PUSH12 0xFFFFFFFFFFFFFFFFFFFFFFFF AND PUSH12 0xFFFFFFFFFFFFFFFFFFFFFFFF AND DUP3 PUSH12 0xFFFFFFFFFFFFFFFFFFFFFFFF AND LT PUSH2 0xCD3 JUMPI PUSH1 0x40 MLOAD PUSH32 0x8C379A000000000000000000000000000000000000000000000000000000000 DUP2 MSTORE PUSH1 0x4 ADD PUSH2 0xCCA SWAP1 PUSH2 0x30E3 JUMP JUMPDEST PUSH1 0x40 MLOAD DUP1 SWAP2 SUB SWAP1 REVERT JUMPDEST PUSH1 0x2 PUSH0 DUP4 PUSH12 0xFFFFFFFFFFFFFFFFFFFFFFFF AND PUSH12 0xFFFFFFFFFFFFFFFFFFFFFFFF AND DUP2 MSTORE PUSH1 0x20 ADD SWAP1 DUP2 MSTORE PUSH1 0x20 ADD PUSH0 KECCAK256 PUSH1 0x1 ADD PUSH1 0xC SWAP1 SLOAD SWAP1 PUSH2 0x100 EXP SWAP1 DIV PUSH20 0xFFFFFFFFFFFFFFFFFFFFFFFFFFFFFFFFFFFFFFFF AND SWAP1 POP SWAP2 SWAP1 POP JUMP JUMPDEST PUSH2 0xD33 PUSH2 0x15ED JUMP JUMPDEST PUSH2 0xD3C PUSH0 PUSH2 0x1674 JUMP JUMPDEST JUMP JUMPDEST PUSH1 0x4 PUSH1 0x20 MSTORE DUP3 PUSH0 MSTORE PUSH1 0x40 PUSH0 KECCAK256 PUSH1 0x20 MSTORE DUP2 PUSH0 MSTORE PUSH1 0x40 PUSH0 KECCAK256 DUP2 DUP2 SLOAD DUP2 LT PUSH2 0xD61 JUMPI PUSH0 DUP1 REVERT JUMPDEST SWAP1 PUSH0 MSTORE PUSH1 0x20 PUSH0 KECCAK256 SWAP1 PUSH1 0x2 MUL ADD PUSH0 SWAP3 POP SWAP3 POP POP POP DUP1 PUSH0 ADD PUSH0 SWAP1 SLOAD SWAP1 PUSH2 0x100 EXP SWAP1 DIV PUSH20 0xFFFFFFFFFFFFFFFFFFFFFFFFFFFFFFFFFFFFFFFF AND SWAP1 DUP1 PUSH0 ADD PUSH1 0x14 SWAP1 SLOAD SWAP1 PUSH2 0x100 EXP SWAP1 DIV PUSH12 0xFFFFFFFFFFFFFFFFFFFFFFFF AND SWAP1 DUP1 PUSH1 0x1 ADD SLOAD SWAP1 POP DUP4 JUMP JUMPDEST PUSH2 0xDC7 PUSH2 0x15ED JUMP JUMPDEST PUSH2 0xDD2 DUP4 DUP4 DUP4 PUSH2 0x1735 JUMP JUMPDEST PUSH2 0xDDB DUP3 PUSH2 0x1CDA JUMP JUMPDEST POP POP POP JUMP JUMPDEST PUSH0 DUP1 PUSH0 SWAP1 SLOAD SWAP1 PUSH2 0x100 EXP SWAP1 DIV PUSH20 0xFFFFFFFFFFFFFFFFFFFFFFFFFFFFFFFFFFFFFFFF AND SWAP1 POP SWAP1 JUMP JUMPDEST PUSH0 PUSH4 0xBC197C81 PUSH1 0xE0 SHL SWAP1 POP SWAP6 SWAP5 POP POP POP POP POP JUMP JUMPDEST PUSH2 0xE23 PUSH2 0x15ED JUMP JUMPDEST DUP2 PUSH1 0x1 PUSH0 SWAP1 SLOAD SWAP1 PUSH2 0x100 EXP SWAP1 DIV PUSH20 0xFFFFFFFFFFFFFFFFFFFFFFFFFFFFFFFFFFFFFFFF AND PUSH20 0xFFFFFFFFFFFFFFFFFFFFFFFFFFFFFFFFFFFFFFFF AND PUSH3 0xFDD58E DUP6 PUSH0 PUSH1 0x40 MLOAD DUP4 PUSH4 0xFFFFFFFF AND PUSH1 0xE0 SHL DUP2 MSTORE PUSH1 0x4 ADD PUSH2 0xE7F SWAP3 SWAP2 SWAP1 PUSH2 0x3101 JUMP JUMPDEST PUSH1 0x20 PUSH1 0x40 MLOAD DUP1 DUP4 SUB DUP2 DUP7 GAS STATICCALL ISZERO DUP1 ISZERO PUSH2 0xE9A JUMPI RETURNDATASIZE PUSH0 DUP1 RETURNDATACOPY RETURNDATASIZE PUSH0 REVERT JUMPDEST POP POP POP POP PUSH1 0x40 MLOAD RETURNDATASIZE PUSH1 0x1F NOT PUSH1 0x1F DUP3 ADD AND DUP3 ADD DUP1 PUSH1 0x40 MSTORE POP DUP2 ADD SWAP1 PUSH2 0xEBE SWAP2 SWAP1 PUSH2 0x313C JUMP JUMPDEST GT PUSH2 0xEFE JUMPI PUSH1 0x40 MLOAD PUSH32 0x8C379A000000000000000000000000000000000000000000000000000000000 DUP2 MSTORE PUSH1 0x4 ADD PUSH2 0xEF5 SWAP1 PUSH2 0x31D7 JUMP JUMPDEST PUSH1 0x40 MLOAD DUP1 SWAP2 SUB SWAP1 REVERT JUMPDEST PUSH1 0x1 PUSH0 SWAP1 SLOAD SWAP1 PUSH2 0x100 EXP SWAP1 DIV PUSH20 0xFFFFFFFFFFFFFFFFFFFFFFFFFFFFFFFFFFFFFFFF AND PUSH20 0xFFFFFFFFFFFFFFFFFFFFFFFFFFFFFFFFFFFFFFFF AND PUSH4 0xE985E9C5 DUP5 ADDRESS PUSH1 0x40 MLOAD DUP4 PUSH4 0xFFFFFFFF AND PUSH1 0xE0 SHL DUP2 MSTORE PUSH1 0x4 ADD PUSH2 0xF5A SWAP3 SWAP2 SWAP1 PUSH2 0x31F5 JUMP JUMPDEST PUSH1 0x20 PUSH1 0x40 MLOAD DUP1 DUP4 SUB DUP2 DUP7 GAS STATICCALL ISZERO DUP1 ISZERO PUSH2 0xF75 JUMPI RETURNDATASIZE PUSH0 DUP1 RETURNDATACOPY RETURNDATASIZE PUSH0 REVERT JUMPDEST POP POP POP POP PUSH1 0x40 MLOAD RETURNDATASIZE PUSH1 0x1F NOT PUSH1 0x1F DUP3 ADD AND DUP3 ADD DUP1 PUSH1 0x40 MSTORE POP DUP2 ADD SWAP1 PUSH2 0xF99 SWAP2 SWAP1 PUSH2 0x3246 JUMP JUMPDEST PUSH2 0xFD8 JUMPI PUSH1 0x40 MLOAD PUSH32 0x8C379A000000000000000000000000000000000000000000000000000000000 DUP2 MSTORE PUSH1 0x4 ADD PUSH2 0xFCF SWAP1 PUSH2 0x32BB JUMP JUMPDEST PUSH1 0x40 MLOAD DUP1 SWAP2 SUB SWAP1 REVERT JUMPDEST PUSH1 0x1 PUSH0 SWAP1 SLOAD SWAP1 PUSH2 0x100 EXP SWAP1 DIV PUSH20 0xFFFFFFFFFFFFFFFFFFFFFFFFFFFFFFFFFFFFFFFF AND PUSH20 0xFFFFFFFFFFFFFFFFFFFFFFFFFFFFFFFFFFFFFFFF AND PUSH4 0xF242432A DUP5 ADDRESS DUP5 DUP7 PUSH1 0x40 MLOAD DUP6 PUSH4 0xFFFFFFFF AND PUSH1 0xE0 SHL DUP2 MSTORE PUSH1 0x4 ADD PUSH2 0x1038 SWAP5 SWAP4 SWAP3 SWAP2 SWAP1 PUSH2 0x3309 JUMP JUMPDEST PUSH0 PUSH1 0x40 MLOAD DUP1 DUP4 SUB DUP2 PUSH0 DUP8 DUP1 EXTCODESIZE ISZERO DUP1 ISZERO PUSH2 0x104F JUMPI PUSH0 DUP1 REVERT JUMPDEST POP GAS CALL ISZERO DUP1 ISZERO PUSH2 0x1061 JUMPI RETURNDATASIZE PUSH0 DUP1 RETURNDATACOPY RETURNDATASIZE PUSH0 REVERT JUMPDEST POP POP POP POP POP POP POP JUMP JUMPDEST PUSH0 PUSH1 0x2 PUSH0 DUP7 PUSH12 0xFFFFFFFFFFFFFFFFFFFFFFFF AND PUSH12 0xFFFFFFFFFFFFFFFFFFFFFFFF AND DUP2 MSTORE PUSH1 0x20 ADD SWAP1 DUP2 MSTORE PUSH1 0x20 ADD PUSH0 KECCAK256 PUSH1 0x40 MLOAD DUP1 PUSH2 0x100 ADD PUSH1 0x40 MSTORE SWAP1 DUP2 PUSH0 DUP3 ADD PUSH0 SWAP1 SLOAD SWAP1 PUSH2 0x100 EXP SWAP1 DIV PUSH12 0xFFFFFFFFFFFFFFFFFFFFFFFF AND PUSH12 0xFFFFFFFFFFFFFFFFFFFFFFFF AND PUSH12 0xFFFFFFFFFFFFFFFFFFFFFFFF AND DUP2 MSTORE PUSH1 0x20 ADD PUSH0 DUP3 ADD PUSH1 0xC SWAP1 SLOAD SWAP1 PUSH2 0x100 EXP SWAP1 DIV PUSH20 0xFFFFFFFFFFFFFFFFFFFFFFFFFFFFFFFFFFFFFFFF AND PUSH20 0xFFFFFFFFFFFFFFFFFFFFFFFFFFFFFFFFFFFFFFFF AND PUSH20 0xFFFFFFFFFFFFFFFFFFFFFFFFFFFFFFFFFFFFFFFF AND DUP2 MSTORE PUSH1 0x20 ADD PUSH1 0x1 DUP3 ADD PUSH0 SWAP1 SLOAD SWAP1 PUSH2 0x100 EXP SWAP1 DIV PUSH6 0xFFFFFFFFFFFF AND PUSH6 0xFFFFFFFFFFFF AND PUSH6 0xFFFFFFFFFFFF AND DUP2 MSTORE PUSH1 0x20 ADD PUSH1 0x1 DUP3 ADD PUSH1 0x6 SWAP1 SLOAD SWAP1 PUSH2 0x100 EXP SWAP1 DIV PUSH6 0xFFFFFFFFFFFF AND PUSH6 0xFFFFFFFFFFFF AND PUSH6 0xFFFFFFFFFFFF AND DUP2 MSTORE PUSH1 0x20 ADD PUSH1 0x1 DUP3 ADD PUSH1 0xC SWAP1 SLOAD SWAP1 PUSH2 0x100 EXP SWAP1 DIV PUSH20 0xFFFFFFFFFFFFFFFFFFFFFFFFFFFFFFFFFFFFFFFF AND PUSH20 0xFFFFFFFFFFFFFFFFFFFFFFFFFFFFFFFFFFFFFFFF AND PUSH20 0xFFFFFFFFFFFFFFFFFFFFFFFFFFFFFFFFFFFFFFFF AND DUP2 MSTORE PUSH1 0x20 ADD PUSH1 0x2 DUP3 ADD SLOAD DUP2 MSTORE PUSH1 0x20 ADD PUSH1 0x3 DUP3 ADD SLOAD DUP2 MSTORE PUSH1 0x20 ADD PUSH1 0x4 DUP3 ADD PUSH0 SWAP1 SLOAD SWAP1 PUSH2 0x100 EXP SWAP1 DIV PUSH1 0xFF AND ISZERO ISZERO ISZERO ISZERO DUP2 MSTORE POP POP SWAP1 POP DUP1 PUSH1 0x20 ADD MLOAD PUSH20 0xFFFFFFFFFFFFFFFFFFFFFFFFFFFFFFFFFFFFFFFF AND CALLER PUSH20 0xFFFFFFFFFFFFFFFFFFFFFFFFFFFFFFFFFFFFFFFF AND EQ PUSH2 0x1284 JUMPI PUSH1 0x40 MLOAD PUSH32 0x8C379A000000000000000000000000000000000000000000000000000000000 DUP2 MSTORE PUSH1 0x4 ADD PUSH2 0x127B SWAP1 PUSH2 0x33A9 JUMP JUMPDEST PUSH1 0x40 MLOAD DUP1 SWAP2 SUB SWAP1 REVERT JUMPDEST PUSH1 0x40 MLOAD DUP1 PUSH2 0x100 ADD PUSH1 0x40 MSTORE DUP1 DUP7 PUSH12 0xFFFFFFFFFFFFFFFFFFFFFFFF AND DUP2 MSTORE PUSH1 0x20 ADD DUP6 PUSH20 0xFFFFFFFFFFFFFFFFFFFFFFFFFFFFFFFFFFFFFFFF AND DUP2 MSTORE PUSH1 0x20 ADD DUP3 PUSH1 0x40 ADD MLOAD PUSH6 0xFFFFFFFFFFFF AND DUP2 MSTORE PUSH1 0x20 ADD TIMESTAMP PUSH6 0xFFFFFFFFFFFF AND DUP2 MSTORE PUSH1 0x20 ADD DUP5 PUSH20 0xFFFFFFFFFFFFFFFFFFFFFFFFFFFFFFFFFFFFFFFF AND DUP2 MSTORE PUSH1 0x20 ADD DUP4 DUP2 MSTORE PUSH1 0x20 ADD DUP3 PUSH1 0xC0 ADD MLOAD DUP2 MSTORE PUSH1 0x20 ADD DUP3 PUSH1 0xE0 ADD MLOAD ISZERO ISZERO DUP2 MSTORE POP PUSH1 0x2 PUSH0 DUP8 PUSH12 0xFFFFFFFFFFFFFFFFFFFFFFFF AND PUSH12 0xFFFFFFFFFFFFFFFFFFFFFFFF AND DUP2 MSTORE PUSH1 0x20 ADD SWAP1 DUP2 MSTORE PUSH1 0x20 ADD PUSH0 KECCAK256 PUSH0 DUP3 ADD MLOAD DUP2 PUSH0 ADD PUSH0 PUSH2 0x100 EXP DUP2 SLOAD DUP2 PUSH12 0xFFFFFFFFFFFFFFFFFFFFFFFF MUL NOT AND SWAP1 DUP4 PUSH12 0xFFFFFFFFFFFFFFFFFFFFFFFF AND MUL OR SWAP1 SSTORE POP PUSH1 0x20 DUP3 ADD MLOAD DUP2 PUSH0 ADD PUSH1 0xC PUSH2 0x100 EXP DUP2 SLOAD DUP2 PUSH20 0xFFFFFFFFFFFFFFFFFFFFFFFFFFFFFFFFFFFFFFFF MUL NOT AND SWAP1 DUP4 PUSH20 0xFFFFFFFFFFFFFFFFFFFFFFFFFFFFFFFFFFFFFFFF AND MUL OR SWAP1 SSTORE POP PUSH1 0x40 DUP3 ADD MLOAD DUP2 PUSH1 0x1 ADD PUSH0 PUSH2 0x100 EXP DUP2 SLOAD DUP2 PUSH6 0xFFFFFFFFFFFF MUL NOT AND SWAP1 DUP4 PUSH6 0xFFFFFFFFFFFF AND MUL OR SWAP1 SSTORE POP PUSH1 0x60 DUP3 ADD MLOAD DUP2 PUSH1 0x1 ADD PUSH1 0x6 PUSH2 0x100 EXP DUP2 SLOAD DUP2 PUSH6 0xFFFFFFFFFFFF MUL NOT AND SWAP1 DUP4 PUSH6 0xFFFFFFFFFFFF AND MUL OR SWAP1 SSTORE POP PUSH1 0x80 DUP3 ADD MLOAD DUP2 PUSH1 0x1 ADD PUSH1 0xC PUSH2 0x100 EXP DUP2 SLOAD DUP2 PUSH20 0xFFFFFFFFFFFFFFFFFFFFFFFFFFFFFFFFFFFFFFFF MUL NOT AND SWAP1 DUP4 PUSH20 0xFFFFFFFFFFFFFFFFFFFFFFFFFFFFFFFFFFFFFFFF AND MUL OR SWAP1 SSTORE POP PUSH1 0xA0 DUP3 ADD MLOAD DUP2 PUSH1 0x2 ADD SSTORE PUSH1 0xC0 DUP3 ADD MLOAD DUP2 PUSH1 0x3 ADD SSTORE PUSH1 0xE0 DUP3 ADD MLOAD DUP2 PUSH1 0x4 ADD PUSH0 PUSH2 0x100 EXP DUP2 SLOAD DUP2 PUSH1 0xFF MUL NOT AND SWAP1 DUP4 ISZERO ISZERO MUL OR SWAP1 SSTORE POP SWAP1 POP POP DUP1 PUSH1 0xC0 ADD MLOAD DUP3 DUP7 PUSH12 0xFFFFFFFFFFFFFFFFFFFFFFFF AND PUSH32 0x603E97A48F8CADD1E9020BF96470C32853C5D9D8ED30F7CBE961F12AD2A45FA0 DUP8 DUP8 DUP7 PUSH1 0xE0 ADD MLOAD TIMESTAMP PUSH1 0x40 MLOAD PUSH2 0x14DD SWAP5 SWAP4 SWAP3 SWAP2 SWAP1 PUSH2 0x2D87 JUMP JUMPDEST PUSH1 0x40 MLOAD DUP1 SWAP2 SUB SWAP1 LOG4 POP POP POP POP POP JUMP JUMPDEST PUSH0 PUSH4 0xF23A6E61 PUSH1 0xE0 SHL SWAP1 POP SWAP6 SWAP5 POP POP POP POP POP JUMP JUMPDEST PUSH2 0x1508 PUSH2 0x15ED JUMP JUMPDEST PUSH0 PUSH20 0xFFFFFFFFFFFFFFFFFFFFFFFFFFFFFFFFFFFFFFFF AND DUP2 PUSH20 0xFFFFFFFFFFFFFFFFFFFFFFFFFFFFFFFFFFFFFFFF AND SUB PUSH2 0x1578 JUMPI PUSH0 PUSH1 0x40 MLOAD PUSH32 0x1E4FBDF700000000000000000000000000000000000000000000000000000000 DUP2 MSTORE PUSH1 0x4 ADD PUSH2 0x156F SWAP2 SWAP1 PUSH2 0x27B2 JUMP JUMPDEST PUSH1 0x40 MLOAD DUP1 SWAP2 SUB SWAP1 REVERT JUMPDEST PUSH2 0x1581 DUP2 PUSH2 0x1674 JUMP JUMPDEST POP JUMP JUMPDEST PUSH0 PUSH32 0x1FFC9A700000000000000000000000000000000000000000000000000000000 PUSH28 0xFFFFFFFFFFFFFFFFFFFFFFFFFFFFFFFFFFFFFFFFFFFFFFFFFFFFFFFF NOT AND DUP3 PUSH28 0xFFFFFFFFFFFFFFFFFFFFFFFFFFFFFFFFFFFFFFFFFFFFFFFFFFFFFFFF NOT AND EQ SWAP1 POP SWAP2 SWAP1 POP JUMP JUMPDEST PUSH2 0x15F5 PUSH2 0x1ED6 JUMP JUMPDEST PUSH20 0xFFFFFFFFFFFFFFFFFFFFFFFFFFFFFFFFFFFFFFFF AND PUSH2 0x1613 PUSH2 0xDE0 JUMP JUMPDEST PUSH20 0xFFFFFFFFFFFFFFFFFFFFFFFFFFFFFFFFFFFFFFFF AND EQ PUSH2 0x1672 JUMPI PUSH2 0x1636 PUSH2 0x1ED6 JUMP JUMPDEST PUSH1 0x40 MLOAD PUSH32 0x118CDAA700000000000000000000000000000000000000000000000000000000 DUP2 MSTORE PUSH1 0x4 ADD PUSH2 0x1669 SWAP2 SWAP1 PUSH2 0x27B2 JUMP JUMPDEST PUSH1 0x40 MLOAD DUP1 SWAP2 SUB SWAP1 REVERT JUMPDEST JUMP JUMPDEST PUSH0 DUP1 PUSH0 SWAP1 SLOAD SWAP1 PUSH2 0x100 EXP SWAP1 DIV PUSH20 0xFFFFFFFFFFFFFFFFFFFFFFFFFFFFFFFFFFFFFFFF AND SWAP1 POP DUP2 PUSH0 DUP1 PUSH2 0x100 EXP DUP2 SLOAD DUP2 PUSH20 0xFFFFFFFFFFFFFFFFFFFFFFFFFFFFFFFFFFFFFFFF MUL NOT AND SWAP1 DUP4 PUSH20 0xFFFFFFFFFFFFFFFFFFFFFFFFFFFFFFFFFFFFFFFF AND MUL OR SWAP1 SSTORE POP DUP2 PUSH20 0xFFFFFFFFFFFFFFFFFFFFFFFFFFFFFFFFFFFFFFFF AND DUP2 PUSH20 0xFFFFFFFFFFFFFFFFFFFFFFFFFFFFFFFFFFFFFFFF AND PUSH32 0x8BE0079C531659141344CD1FD0A4F28419497F9722A3DAAFE3B4186F6B6457E0 PUSH1 0x40 MLOAD PUSH1 0x40 MLOAD DUP1 SWAP2 SUB SWAP1 LOG3 POP POP JUMP JUMPDEST DUP1 PUSH1 0x1 PUSH0 SWAP1 SLOAD SWAP1 PUSH2 0x100 EXP SWAP1 DIV PUSH20 0xFFFFFFFFFFFFFFFFFFFFFFFFFFFFFFFFFFFFFFFF AND PUSH20 0xFFFFFFFFFFFFFFFFFFFFFFFFFFFFFFFFFFFFFFFF AND PUSH3 0xFDD58E DUP6 PUSH0 PUSH1 0x40 MLOAD DUP4 PUSH4 0xFFFFFFFF AND PUSH1 0xE0 SHL DUP2 MSTORE PUSH1 0x4 ADD PUSH2 0x1791 SWAP3 SWAP2 SWAP1 PUSH2 0x3101 JUMP JUMPDEST PUSH1 0x20 PUSH1 0x40 MLOAD DUP1 DUP4 SUB DUP2 DUP7 GAS STATICCALL ISZERO DUP1 ISZERO PUSH2 0x17AC JUMPI RETURNDATASIZE PUSH0 DUP1 RETURNDATACOPY RETURNDATASIZE PUSH0 REVERT JUMPDEST POP POP POP POP PUSH1 0x40 MLOAD RETURNDATASIZE PUSH1 0x1F NOT PUSH1 0x1F DUP3 ADD AND DUP3 ADD DUP1 PUSH1 0x40 MSTORE POP DUP2 ADD SWAP1 PUSH2 0x17D0 SWAP2 SWAP1 PUSH2 0x313C JUMP JUMPDEST GT PUSH2 0x1810 JUMPI PUSH1 0x40 MLOAD PUSH32 0x8C379A000000000000000000000000000000000000000000000000000000000 DUP2 MSTORE PUSH1 0x4 ADD PUSH2 0x1807 SWAP1 PUSH2 0x31D7 JUMP JUMPDEST PUSH1 0x40 MLOAD DUP1 SWAP2 SUB SWAP1 REVERT JUMPDEST PUSH1 0x1 PUSH0 SWAP1 SLOAD SWAP1 PUSH2 0x100 EXP SWAP1 DIV PUSH20 0xFFFFFFFFFFFFFFFFFFFFFFFFFFFFFFFFFFFFFFFF AND PUSH20 0xFFFFFFFFFFFFFFFFFFFFFFFFFFFFFFFFFFFFFFFF AND PUSH4 0xE985E9C5 DUP5 ADDRESS PUSH1 0x40 MLOAD DUP4 PUSH4 0xFFFFFFFF AND PUSH1 0xE0 SHL DUP2 MSTORE PUSH1 0x4 ADD PUSH2 0x186C SWAP3 SWAP2 SWAP1 PUSH2 0x31F5 JUMP JUMPDEST PUSH1 0x20 PUSH1 0x40 MLOAD DUP1 DUP4 SUB DUP2 DUP7 GAS STATICCALL ISZERO DUP1 ISZERO PUSH2 0x1887 JUMPI RETURNDATASIZE PUSH0 DUP1 RETURNDATACOPY RETURNDATASIZE PUSH0 REVERT JUMPDEST POP POP POP POP PUSH1 0x40 MLOAD RETURNDATASIZE PUSH1 0x1F NOT PUSH1 0x1F DUP3 ADD AND DUP3 ADD DUP1 PUSH1 0x40 MSTORE POP DUP2 ADD SWAP1 PUSH2 0x18AB SWAP2 SWAP1 PUSH2 0x3246 JUMP JUMPDEST PUSH2 0x18EA JUMPI PUSH1 0x40 MLOAD PUSH32 0x8C379A000000000000000000000000000000000000000000000000000000000 DUP2 MSTORE PUSH1 0x4 ADD PUSH2 0x18E1 SWAP1 PUSH2 0x32BB JUMP JUMPDEST PUSH1 0x40 MLOAD DUP1 SWAP2 SUB SWAP1 REVERT JUMPDEST PUSH1 0x1 PUSH0 SWAP1 SLOAD SWAP1 PUSH2 0x100 EXP SWAP1 DIV PUSH20 0xFFFFFFFFFFFFFFFFFFFFFFFFFFFFFFFFFFFFFFFF AND PUSH20 0xFFFFFFFFFFFFFFFFFFFFFFFFFFFFFFFFFFFFFFFF AND PUSH4 0xF242432A DUP5 ADDRESS PUSH0 DUP6 PUSH1 0x40 MLOAD DUP6 PUSH4 0xFFFFFFFF AND PUSH1 0xE0 SHL DUP2 MSTORE PUSH1 0x4 ADD PUSH2 0x194A SWAP5 SWAP4 SWAP3 SWAP2 SWAP1 PUSH2 0x33C7 JUMP JUMPDEST PUSH0 PUSH1 0x40 MLOAD DUP1 DUP4 SUB DUP2 PUSH0 DUP8 DUP1 EXTCODESIZE ISZERO DUP1 ISZERO PUSH2 0x1961 JUMPI PUSH0 DUP1 REVERT JUMPDEST POP GAS CALL ISZERO DUP1 ISZERO PUSH2 0x1973 JUMPI RETURNDATASIZE PUSH0 DUP1 RETURNDATACOPY RETURNDATASIZE PUSH0 REVERT JUMPDEST POP POP POP POP PUSH0 PUSH1 0x40 MLOAD DUP1 PUSH1 0x60 ADD PUSH1 0x40 MSTORE DUP1 DUP6 PUSH20 0xFFFFFFFFFFFFFFFFFFFFFFFFFFFFFFFFFFFFFFFF AND DUP2 MSTORE PUSH1 0x20 ADD DUP5 PUSH12 0xFFFFFFFFFFFFFFFFFFFFFFFF AND DUP2 MSTORE PUSH1 0x20 ADD DUP4 DUP2 MSTORE POP SWAP1 POP PUSH1 0x4 PUSH0 DUP5 PUSH12 0xFFFFFFFFFFFFFFFFFFFFFFFF AND PUSH12 0xFFFFFFFFFFFFFFFFFFFFFFFF AND DUP2 MSTORE PUSH1 0x20 ADD SWAP1 DUP2 MSTORE PUSH1 0x20 ADD PUSH0 KECCAK256 PUSH0 DUP6 PUSH20 0xFFFFFFFFFFFFFFFFFFFFFFFFFFFFFFFFFFFFFFFF AND PUSH20 0xFFFFFFFFFFFFFFFFFFFFFFFFFFFFFFFFFFFFFFFF AND DUP2 MSTORE PUSH1 0x20 ADD SWAP1 DUP2 MSTORE PUSH1 0x20 ADD PUSH0 KECCAK256 DUP2 SWAP1 DUP1 PUSH1 0x1 DUP2 SLOAD ADD DUP1 DUP3 SSTORE DUP1 SWAP2 POP POP PUSH1 0x1 SWAP1 SUB SWAP1 PUSH0 MSTORE PUSH1 0x20 PUSH0 KECCAK256 SWAP1 PUSH1 0x2 MUL ADD PUSH0 SWAP1 SWAP2 SWAP1 SWAP2 SWAP1 SWAP2 POP PUSH0 DUP3 ADD MLOAD DUP2 PUSH0 ADD PUSH0 PUSH2 0x100 EXP DUP2 SLOAD DUP2 PUSH20 0xFFFFFFFFFFFFFFFFFFFFFFFFFFFFFFFFFFFFFFFF MUL NOT AND SWAP1 DUP4 PUSH20 0xFFFFFFFFFFFFFFFFFFFFFFFFFFFFFFFFFFFFFFFF AND MUL OR SWAP1 SSTORE POP PUSH1 0x20 DUP3 ADD MLOAD DUP2 PUSH0 ADD PUSH1 0x14 PUSH2 0x100 EXP DUP2 SLOAD DUP2 PUSH12 0xFFFFFFFFFFFFFFFFFFFFFFFF MUL NOT AND SWAP1 DUP4 PUSH12 0xFFFFFFFFFFFFFFFFFFFFFFFF AND MUL OR SWAP1 SSTORE POP PUSH1 0x40 DUP3 ADD MLOAD DUP2 PUSH1 0x1 ADD SSTORE POP POP DUP2 PUSH1 0x2 PUSH0 DUP6 PUSH12 0xFFFFFFFFFFFFFFFFFFFFFFFF AND PUSH12 0xFFFFFFFFFFFFFFFFFFFFFFFF AND DUP2 MSTORE PUSH1 0x20 ADD SWAP1 DUP2 MSTORE PUSH1 0x20 ADD PUSH0 KECCAK256 PUSH1 0x3 ADD SLOAD PUSH2 0x1B0A SWAP2 SWAP1 PUSH2 0x341D JUMP JUMPDEST PUSH1 0x2 PUSH0 DUP6 PUSH12 0xFFFFFFFFFFFFFFFFFFFFFFFF AND PUSH12 0xFFFFFFFFFFFFFFFFFFFFFFFF AND DUP2 MSTORE PUSH1 0x20 ADD SWAP1 DUP2 MSTORE PUSH1 0x20 ADD PUSH0 KECCAK256 PUSH1 0x3 ADD DUP2 SWAP1 SSTORE POP PUSH0 PUSH1 0x3 PUSH0 DUP6 PUSH12 0xFFFFFFFFFFFFFFFFFFFFFFFF AND PUSH12 0xFFFFFFFFFFFFFFFFFFFFFFFF AND DUP2 MSTORE PUSH1 0x20 ADD SWAP1 DUP2 MSTORE PUSH1 0x20 ADD PUSH0 KECCAK256 SWAP1 POP PUSH0 PUSH1 0x1 SWAP1 POP PUSH0 JUMPDEST DUP3 DUP1 SLOAD SWAP1 POP DUP2 PUSH12 0xFFFFFFFFFFFFFFFFFFFFFFFF AND LT ISZERO PUSH2 0x1C25 JUMPI DUP7 PUSH20 0xFFFFFFFFFFFFFFFFFFFFFFFFFFFFFFFFFFFFFFFF AND DUP4 DUP3 PUSH12 0xFFFFFFFFFFFFFFFFFFFFFFFF AND DUP2 SLOAD DUP2 LT PUSH2 0x1BC7 JUMPI PUSH2 0x1BC6 PUSH2 0x2F55 JUMP JUMPDEST JUMPDEST SWAP1 PUSH0 MSTORE PUSH1 0x20 PUSH0 KECCAK256 ADD PUSH0 SWAP1 SLOAD SWAP1 PUSH2 0x100 EXP SWAP1 DIV PUSH20 0xFFFFFFFFFFFFFFFFFFFFFFFFFFFFFFFFFFFFFFFF AND PUSH20 0xFFFFFFFFFFFFFFFFFFFFFFFFFFFFFFFFFFFFFFFF AND SUB PUSH2 0x1C12 JUMPI PUSH0 SWAP2 POP PUSH2 0x1C25 JUMP JUMPDEST DUP1 DUP1 PUSH2 0x1C1D SWAP1 PUSH2 0x2F82 JUMP JUMPDEST SWAP2 POP POP PUSH2 0x1B75 JUMP JUMPDEST POP DUP1 ISZERO PUSH2 0x1CD2 JUMPI DUP2 DUP7 SWAP1 DUP1 PUSH1 0x1 DUP2 SLOAD ADD DUP1 DUP3 SSTORE DUP1 SWAP2 POP POP PUSH1 0x1 SWAP1 SUB SWAP1 PUSH0 MSTORE PUSH1 0x20 PUSH0 KECCAK256 ADD PUSH0 SWAP1 SWAP2 SWAP1 SWAP2 SWAP1 SWAP2 PUSH2 0x100 EXP DUP2 SLOAD DUP2 PUSH20 0xFFFFFFFFFFFFFFFFFFFFFFFFFFFFFFFFFFFFFFFF MUL NOT AND SWAP1 DUP4 PUSH20 0xFFFFFFFFFFFFFFFFFFFFFFFFFFFFFFFFFFFFFFFF AND MUL OR SWAP1 SSTORE POP DUP5 PUSH12 0xFFFFFFFFFFFFFFFFFFFFFFFF AND PUSH32 0xF6A1C7CF13F8C84FE645EC48F1097482F1CAE82185C59CA9248CCBD2368D3F03 DUP8 PUSH1 0x40 MLOAD PUSH2 0x1CC9 SWAP2 SWAP1 PUSH2 0x27B2 JUMP JUMPDEST PUSH1 0x40 MLOAD DUP1 SWAP2 SUB SWAP1 LOG2 JUMPDEST POP POP POP POP POP POP JUMP JUMPDEST PUSH1 0x2 PUSH0 DUP3 PUSH12 0xFFFFFFFFFFFFFFFFFFFFFFFF AND PUSH12 0xFFFFFFFFFFFFFFFFFFFFFFFF AND DUP2 MSTORE PUSH1 0x20 ADD SWAP1 DUP2 MSTORE PUSH1 0x20 ADD PUSH0 KECCAK256 PUSH1 0x3 ADD SLOAD PUSH1 0x2 PUSH0 DUP4 PUSH12 0xFFFFFFFFFFFFFFFFFFFFFFFF AND PUSH12 0xFFFFFFFFFFFFFFFFFFFFFFFF AND DUP2 MSTORE PUSH1 0x20 ADD SWAP1 DUP2 MSTORE PUSH1 0x20 ADD PUSH0 KECCAK256 PUSH1 0x2 ADD SLOAD LT ISZERO PUSH2 0x1ED3 JUMPI PUSH1 0x1 PUSH0 SWAP1 SLOAD SWAP1 PUSH2 0x100 EXP SWAP1 DIV PUSH20 0xFFFFFFFFFFFFFFFFFFFFFFFFFFFFFFFFFFFFFFFF AND PUSH20 0xFFFFFFFFFFFFFFFFFFFFFFFFFFFFFFFFFFFFFFFF AND PUSH4 0xF242432A ADDRESS PUSH2 0x1D89 DUP5 PUSH2 0xC5A JUMP JUMPDEST PUSH0 PUSH1 0x2 PUSH0 DUP8 PUSH12 0xFFFFFFFFFFFFFFFFFFFFFFFF AND PUSH12 0xFFFFFFFFFFFFFFFFFFFFFFFF AND DUP2 MSTORE PUSH1 0x20 ADD SWAP1 DUP2 MSTORE PUSH1 0x20 ADD PUSH0 KECCAK256 PUSH1 0x3 ADD SLOAD PUSH1 0x40 MLOAD DUP6 PUSH4 0xFFFFFFFF AND PUSH1 0xE0 SHL DUP2 MSTORE PUSH1 0x4 ADD PUSH2 0x1DDA SWAP5 SWAP4 SWAP3 SWAP2 SWAP1 PUSH2 0x33C7 JUMP JUMPDEST PUSH0 PUSH1 0x40 MLOAD DUP1 DUP4 SUB DUP2 PUSH0 DUP8 DUP1 EXTCODESIZE ISZERO DUP1 ISZERO PUSH2 0x1DF1 JUMPI PUSH0 DUP1 REVERT JUMPDEST POP GAS CALL ISZERO DUP1 ISZERO PUSH2 0x1E03 JUMPI RETURNDATASIZE PUSH0 DUP1 RETURNDATACOPY RETURNDATASIZE PUSH0 REVERT JUMPDEST POP POP POP POP DUP1 PUSH12 0xFFFFFFFFFFFFFFFFFFFFFFFF AND PUSH32 0xCD79837F8E8F598DE24EF07EA60108DF97918F95CFC31D1D61FF9FA09C240352 PUSH1 0x2 PUSH0 DUP5 PUSH12 0xFFFFFFFFFFFFFFFFFFFFFFFF AND PUSH12 0xFFFFFFFFFFFFFFFFFFFFFFFF AND DUP2 MSTORE PUSH1 0x20 ADD SWAP1 DUP2 MSTORE PUSH1 0x20 ADD PUSH0 KECCAK256 PUSH1 0x3 ADD SLOAD TIMESTAMP PUSH1 0x40 MLOAD PUSH2 0x1E77 SWAP3 SWAP2 SWAP1 PUSH2 0x3450 JUMP JUMPDEST PUSH1 0x40 MLOAD DUP1 SWAP2 SUB SWAP1 LOG2 PUSH1 0x1 PUSH1 0x2 PUSH0 DUP4 PUSH12 0xFFFFFFFFFFFFFFFFFFFFFFFF AND PUSH12 0xFFFFFFFFFFFFFFFFFFFFFFFF AND DUP2 MSTORE PUSH1 0x20 ADD SWAP1 DUP2 MSTORE PUSH1 0x20 ADD PUSH0 KECCAK256 PUSH1 0x4 ADD PUSH0 PUSH2 0x100 EXP DUP2 SLOAD DUP2 PUSH1 0xFF MUL NOT AND SWAP1 DUP4 ISZERO ISZERO MUL OR SWAP1 SSTORE POP PUSH2 0x1ED2 DUP2 PUSH1 0x32 PUSH2 0x1EDD JUMP JUMPDEST JUMPDEST POP JUMP JUMPDEST PUSH0 CALLER SWAP1 POP SWAP1 JUMP JUMPDEST PUSH0 PUSH1 0x2 PUSH0 DUP5 PUSH12 0xFFFFFFFFFFFFFFFFFFFFFFFF AND PUSH12 0xFFFFFFFFFFFFFFFFFFFFFFFF AND DUP2 MSTORE PUSH1 0x20 ADD SWAP1 DUP2 MSTORE PUSH1 0x20 ADD PUSH0 KECCAK256 PUSH1 0x3 ADD SLOAD SWAP1 POP PUSH0 PUSH1 0x3 PUSH0 DUP6 PUSH12 0xFFFFFFFFFFFFFFFFFFFFFFFF AND PUSH12 0xFFFFFFFFFFFFFFFFFFFFFFFF AND DUP2 MSTORE PUSH1 0x20 ADD SWAP1 DUP2 MSTORE PUSH1 0x20 ADD PUSH0 KECCAK256 DUP1 SLOAD DUP1 PUSH1 0x20 MUL PUSH1 0x20 ADD PUSH1 0x40 MLOAD SWAP1 DUP2 ADD PUSH1 0x40 MSTORE DUP1 SWAP3 SWAP2 SWAP1 DUP2 DUP2 MSTORE PUSH1 0x20 ADD DUP3 DUP1 SLOAD DUP1 ISZERO PUSH2 0x1FBC JUMPI PUSH1 0x20 MUL DUP3 ADD SWAP2 SWAP1 PUSH0 MSTORE PUSH1 0x20 PUSH0 KECCAK256 SWAP1 JUMPDEST DUP2 PUSH0 SWAP1 SLOAD SWAP1 PUSH2 0x100 EXP SWAP1 DIV PUSH20 0xFFFFFFFFFFFFFFFFFFFFFFFFFFFFFFFFFFFFFFFF AND PUSH20 0xFFFFFFFFFFFFFFFFFFFFFFFFFFFFFFFFFFFFFFFF AND DUP2 MSTORE PUSH1 0x20 ADD SWAP1 PUSH1 0x1 ADD SWAP1 DUP1 DUP4 GT PUSH2 0x1F73 JUMPI JUMPDEST POP POP POP POP POP SWAP1 POP PUSH0 DUP1 PUSH0 SWAP1 POP JUMPDEST DUP3 MLOAD DUP2 PUSH12 0xFFFFFFFFFFFFFFFFFFFFFFFF AND LT ISZERO PUSH2 0x2259 JUMPI PUSH0 SWAP2 POP PUSH0 JUMPDEST PUSH1 0x4 PUSH0 DUP9 PUSH12 0xFFFFFFFFFFFFFFFFFFFFFFFF AND PUSH12 0xFFFFFFFFFFFFFFFFFFFFFFFF AND DUP2 MSTORE PUSH1 0x20 ADD SWAP1 DUP2 MSTORE PUSH1 0x20 ADD PUSH0 KECCAK256 PUSH0 DUP6 DUP5 PUSH12 0xFFFFFFFFFFFFFFFFFFFFFFFF AND DUP2 MLOAD DUP2 LT PUSH2 0x2034 JUMPI PUSH2 0x2033 PUSH2 0x2F55 JUMP JUMPDEST JUMPDEST PUSH1 0x20 MUL PUSH1 0x20 ADD ADD MLOAD PUSH20 0xFFFFFFFFFFFFFFFFFFFFFFFFFFFFFFFFFFFFFFFF AND PUSH20 0xFFFFFFFFFFFFFFFFFFFFFFFFFFFFFFFFFFFFFFFF AND DUP2 MSTORE PUSH1 0x20 ADD SWAP1 DUP2 MSTORE PUSH1 0x20 ADD PUSH0 KECCAK256 DUP1 SLOAD SWAP1 POP DUP2 PUSH12 0xFFFFFFFFFFFFFFFFFFFFFFFF AND LT ISZERO PUSH2 0x216E JUMPI PUSH1 0x4 PUSH0 DUP9 PUSH12 0xFFFFFFFFFFFFFFFFFFFFFFFF AND PUSH12 0xFFFFFFFFFFFFFFFFFFFFFFFF AND DUP2 MSTORE PUSH1 0x20 ADD SWAP1 DUP2 MSTORE PUSH1 0x20 ADD PUSH0 KECCAK256 PUSH0 DUP6 DUP5 PUSH12 0xFFFFFFFFFFFFFFFFFFFFFFFF AND DUP2 MLOAD DUP2 LT PUSH2 0x20DD JUMPI PUSH2 0x20DC PUSH2 0x2F55 JUMP JUMPDEST JUMPDEST PUSH1 0x20 MUL PUSH1 0x20 ADD ADD MLOAD PUSH20 0xFFFFFFFFFFFFFFFFFFFFFFFFFFFFFFFFFFFFFFFF AND PUSH20 0xFFFFFFFFFFFFFFFFFFFFFFFFFFFFFFFFFFFFFFFF AND DUP2 MSTORE PUSH1 0x20 ADD SWAP1 DUP2 MSTORE PUSH1 0x20 ADD PUSH0 KECCAK256 DUP2 PUSH12 0xFFFFFFFFFFFFFFFFFFFFFFFF AND DUP2 SLOAD DUP2 LT PUSH2 0x213E JUMPI PUSH2 0x213D PUSH2 0x2F55 JUMP JUMPDEST JUMPDEST SWAP1 PUSH0 MSTORE PUSH1 0x20 PUSH0 KECCAK256 SWAP1 PUSH1 0x2 MUL ADD PUSH1 0x1 ADD SLOAD DUP4 PUSH2 0x2159 SWAP2 SWAP1 PUSH2 0x341D JUMP JUMPDEST SWAP3 POP DUP1 DUP1 PUSH2 0x2166 SWAP1 PUSH2 0x2F82 JUMP JUMPDEST SWAP2 POP POP PUSH2 0x1FE5 JUMP JUMPDEST POP PUSH1 0x1 PUSH0 SWAP1 SLOAD SWAP1 PUSH2 0x100 EXP SWAP1 DIV PUSH20 0xFFFFFFFFFFFFFFFFFFFFFFFFFFFFFFFFFFFFFFFF AND PUSH20 0xFFFFFFFFFFFFFFFFFFFFFFFFFFFFFFFFFFFFFFFF AND PUSH4 0x731133E9 DUP5 DUP4 PUSH12 0xFFFFFFFFFFFFFFFFFFFFFFFF AND DUP2 MLOAD DUP2 LT PUSH2 0x21CD JUMPI PUSH2 0x21CC PUSH2 0x2F55 JUMP JUMPDEST JUMPDEST PUSH1 0x20 MUL PUSH1 0x20 ADD ADD MLOAD DUP9 DUP8 DUP10 PUSH12 0xFFFFFFFFFFFFFFFFFFFFFFFF AND DUP8 PUSH2 0x21F1 SWAP2 SWAP1 PUSH2 0x3477 JUMP JUMPDEST PUSH2 0x21FB SWAP2 SWAP1 PUSH2 0x34E5 JUMP JUMPDEST PUSH1 0x40 MLOAD DUP5 PUSH4 0xFFFFFFFF AND PUSH1 0xE0 SHL DUP2 MSTORE PUSH1 0x4 ADD PUSH2 0x2219 SWAP4 SWAP3 SWAP2 SWAP1 PUSH2 0x3515 JUMP JUMPDEST PUSH0 PUSH1 0x40 MLOAD DUP1 DUP4 SUB DUP2 PUSH0 DUP8 DUP1 EXTCODESIZE ISZERO DUP1 ISZERO PUSH2 0x2230 JUMPI PUSH0 DUP1 REVERT JUMPDEST POP GAS CALL ISZERO DUP1 ISZERO PUSH2 0x2242 JUMPI RETURNDATASIZE PUSH0 DUP1 RETURNDATACOPY RETURNDATASIZE PUSH0 REVERT JUMPDEST POP POP POP POP DUP1 DUP1 PUSH2 0x2251 SWAP1 PUSH2 0x2F82 JUMP JUMPDEST SWAP2 POP POP PUSH2 0x1FC9 JUMP JUMPDEST POP POP POP POP POP POP JUMP JUMPDEST PUSH1 0x40 MLOAD DUP1 PUSH2 0x100 ADD PUSH1 0x40 MSTORE DUP1 PUSH0 PUSH12 0xFFFFFFFFFFFFFFFFFFFFFFFF AND DUP2 MSTORE PUSH1 0x20 ADD PUSH0 PUSH20 0xFFFFFFFFFFFFFFFFFFFFFFFFFFFFFFFFFFFFFFFF AND DUP2 MSTORE PUSH1 0x20 ADD PUSH0 PUSH6 0xFFFFFFFFFFFF AND DUP2 MSTORE PUSH1 0x20 ADD PUSH0 PUSH6 0xFFFFFFFFFFFF AND DUP2 MSTORE PUSH1 0x20 ADD PUSH0 PUSH20 0xFFFFFFFFFFFFFFFFFFFFFFFFFFFFFFFFFFFFFFFF AND DUP2 MSTORE PUSH1 0x20 ADD PUSH0 DUP2 MSTORE PUSH1 0x20 ADD PUSH0 DUP2 MSTORE PUSH1 0x20 ADD PUSH0 ISZERO ISZERO DUP2 MSTORE POP SWAP1 JUMP JUMPDEST PUSH0 PUSH1 0x40 MLOAD SWAP1 POP SWAP1 JUMP JUMPDEST PUSH0 DUP1 REVERT JUMPDEST PUSH0 DUP1 REVERT JUMPDEST PUSH0 PUSH32 0xFFFFFFFF00000000000000000000000000000000000000000000000000000000 DUP3 AND SWAP1 POP SWAP2 SWAP1 POP JUMP JUMPDEST PUSH2 0x232F DUP2 PUSH2 0x22FB JUMP JUMPDEST DUP2 EQ PUSH2 0x2339 JUMPI PUSH0 DUP1 REVERT JUMPDEST POP JUMP JUMPDEST PUSH0 DUP2 CALLDATALOAD SWAP1 POP PUSH2 0x234A DUP2 PUSH2 0x2326 JUMP JUMPDEST SWAP3 SWAP2 POP POP JUMP JUMPDEST PUSH0 PUSH1 0x20 DUP3 DUP5 SUB SLT ISZERO PUSH2 0x2365 JUMPI PUSH2 0x2364 PUSH2 0x22F3 JUMP JUMPDEST JUMPDEST PUSH0 PUSH2 0x2372 DUP5 DUP3 DUP6 ADD PUSH2 0x233C JUMP JUMPDEST SWAP2 POP POP SWAP3 SWAP2 POP POP JUMP JUMPDEST PUSH0 DUP2 ISZERO ISZERO SWAP1 POP SWAP2 SWAP1 POP JUMP JUMPDEST PUSH2 0x238F DUP2 PUSH2 0x237B JUMP JUMPDEST DUP3 MSTORE POP POP JUMP JUMPDEST PUSH0 PUSH1 0x20 DUP3 ADD SWAP1 POP PUSH2 0x23A8 PUSH0 DUP4 ADD DUP5 PUSH2 0x2386 JUMP JUMPDEST SWAP3 SWAP2 POP POP JUMP JUMPDEST PUSH0 PUSH20 0xFFFFFFFFFFFFFFFFFFFFFFFFFFFFFFFFFFFFFFFF DUP3 AND SWAP1 POP SWAP2 SWAP1 POP JUMP JUMPDEST PUSH0 PUSH2 0x23D7 DUP3 PUSH2 0x23AE JUMP JUMPDEST SWAP1 POP SWAP2 SWAP1 POP JUMP JUMPDEST PUSH2 0x23E7 DUP2 PUSH2 0x23CD JUMP JUMPDEST DUP2 EQ PUSH2 0x23F1 JUMPI PUSH0 DUP1 REVERT JUMPDEST POP JUMP JUMPDEST PUSH0 DUP2 CALLDATALOAD SWAP1 POP PUSH2 0x2402 DUP2 PUSH2 0x23DE JUMP JUMPDEST SWAP3 SWAP2 POP POP JUMP JUMPDEST PUSH0 DUP2 SWAP1 POP SWAP2 SWAP1 POP JUMP JUMPDEST PUSH2 0x241A DUP2 PUSH2 0x2408 JUMP JUMPDEST DUP2 EQ PUSH2 0x2424 JUMPI PUSH0 DUP1 REVERT JUMPDEST POP JUMP JUMPDEST PUSH0 DUP2 CALLDATALOAD SWAP1 POP PUSH2 0x2435 DUP2 PUSH2 0x2411 JUMP JUMPDEST SWAP3 SWAP2 POP POP JUMP JUMPDEST PUSH0 DUP1 PUSH0 PUSH1 0x60 DUP5 DUP7 SUB SLT ISZERO PUSH2 0x2452 JUMPI PUSH2 0x2451 PUSH2 0x22F3 JUMP JUMPDEST JUMPDEST PUSH0 PUSH2 0x245F DUP7 DUP3 DUP8 ADD PUSH2 0x23F4 JUMP JUMPDEST SWAP4 POP POP PUSH1 0x20 PUSH2 0x2470 DUP7 DUP3 DUP8 ADD PUSH2 0x23F4 JUMP JUMPDEST SWAP3 POP POP PUSH1 0x40 PUSH2 0x2481 DUP7 DUP3 DUP8 ADD PUSH2 0x2427 JUMP JUMPDEST SWAP2 POP POP SWAP3 POP SWAP3 POP SWAP3 JUMP JUMPDEST PUSH0 DUP2 MLOAD SWAP1 POP SWAP2 SWAP1 POP JUMP JUMPDEST PUSH0 DUP3 DUP3 MSTORE PUSH1 0x20 DUP3 ADD SWAP1 POP SWAP3 SWAP2 POP POP JUMP JUMPDEST PUSH0 DUP2 SWAP1 POP PUSH1 0x20 DUP3 ADD SWAP1 POP SWAP2 SWAP1 POP JUMP JUMPDEST PUSH0 PUSH12 0xFFFFFFFFFFFFFFFFFFFFFFFF DUP3 AND SWAP1 POP SWAP2 SWAP1 POP JUMP JUMPDEST PUSH2 0x24D4 DUP2 PUSH2 0x24B4 JUMP JUMPDEST DUP3 MSTORE POP POP JUMP JUMPDEST PUSH2 0x24E3 DUP2 PUSH2 0x23CD JUMP JUMPDEST DUP3 MSTORE POP POP JUMP JUMPDEST PUSH0 PUSH6 0xFFFFFFFFFFFF DUP3 AND SWAP1 POP SWAP2 SWAP1 POP JUMP JUMPDEST PUSH2 0x2503 DUP2 PUSH2 0x24E9 JUMP JUMPDEST DUP3 MSTORE POP POP JUMP JUMPDEST PUSH2 0x2512 DUP2 PUSH2 0x2408 JUMP JUMPDEST DUP3 MSTORE POP POP JUMP JUMPDEST PUSH2 0x2521 DUP2 PUSH2 0x237B JUMP JUMPDEST DUP3 MSTORE POP POP JUMP JUMPDEST PUSH2 0x100 DUP3 ADD PUSH0 DUP3 ADD MLOAD PUSH2 0x253C PUSH0 DUP6 ADD DUP3 PUSH2 0x24CB JUMP JUMPDEST POP PUSH1 0x20 DUP3 ADD MLOAD PUSH2 0x254F PUSH1 0x20 DUP6 ADD DUP3 PUSH2 0x24DA JUMP JUMPDEST POP PUSH1 0x40 DUP3 ADD MLOAD PUSH2 0x2562 PUSH1 0x40 DUP6 ADD DUP3 PUSH2 0x24FA JUMP JUMPDEST POP PUSH1 0x60 DUP3 ADD MLOAD PUSH2 0x2575 PUSH1 0x60 DUP6 ADD DUP3 PUSH2 0x24FA JUMP JUMPDEST POP PUSH1 0x80 DUP3 ADD MLOAD PUSH2 0x2588 PUSH1 0x80 DUP6 ADD DUP3 PUSH2 0x24DA JUMP JUMPDEST POP PUSH1 0xA0 DUP3 ADD MLOAD PUSH2 0x259B PUSH1 0xA0 DUP6 ADD DUP3 PUSH2 0x2509 JUMP JUMPDEST POP PUSH1 0xC0 DUP3 ADD MLOAD PUSH2 0x25AE PUSH1 0xC0 DUP6 ADD DUP3 PUSH2 0x2509 JUMP JUMPDEST POP PUSH1 0xE0 DUP3 ADD MLOAD PUSH2 0x25C1 PUSH1 0xE0 DUP6 ADD DUP3 PUSH2 0x2518 JUMP JUMPDEST POP POP POP POP JUMP JUMPDEST PUSH0 PUSH2 0x25D2 DUP4 DUP4 PUSH2 0x2527 JUMP JUMPDEST PUSH2 0x100 DUP4 ADD SWAP1 POP SWAP3 SWAP2 POP POP JUMP JUMPDEST PUSH0 PUSH1 0x20 DUP3 ADD SWAP1 POP SWAP2 SWAP1 POP JUMP JUMPDEST PUSH0 PUSH2 0x25F5 DUP3 PUSH2 0x248B JUMP JUMPDEST PUSH2 0x25FF DUP2 DUP6 PUSH2 0x2495 JUMP JUMPDEST SWAP4 POP PUSH2 0x260A DUP4 PUSH2 0x24A5 JUMP JUMPDEST DUP1 PUSH0 JUMPDEST DUP4 DUP2 LT ISZERO PUSH2 0x263A JUMPI DUP2 MLOAD PUSH2 0x2621 DUP9 DUP3 PUSH2 0x25C7 JUMP JUMPDEST SWAP8 POP PUSH2 0x262C DUP4 PUSH2 0x25DF JUMP JUMPDEST SWAP3 POP POP PUSH1 0x1 DUP2 ADD SWAP1 POP PUSH2 0x260D JUMP JUMPDEST POP DUP6 SWAP4 POP POP POP POP SWAP3 SWAP2 POP POP JUMP JUMPDEST PUSH0 PUSH1 0x20 DUP3 ADD SWAP1 POP DUP2 DUP2 SUB PUSH0 DUP4 ADD MSTORE PUSH2 0x265F DUP2 DUP5 PUSH2 0x25EB JUMP JUMPDEST SWAP1 POP SWAP3 SWAP2 POP POP JUMP JUMPDEST PUSH2 0x2670 DUP2 PUSH2 0x24B4 JUMP JUMPDEST DUP2 EQ PUSH2 0x267A JUMPI PUSH0 DUP1 REVERT JUMPDEST POP JUMP JUMPDEST PUSH0 DUP2 CALLDATALOAD SWAP1 POP PUSH2 0x268B DUP2 PUSH2 0x2667 JUMP JUMPDEST SWAP3 SWAP2 POP POP JUMP JUMPDEST PUSH0 PUSH1 0x20 DUP3 DUP5 SUB SLT ISZERO PUSH2 0x26A6 JUMPI PUSH2 0x26A5 PUSH2 0x22F3 JUMP JUMPDEST JUMPDEST PUSH0 PUSH2 0x26B3 DUP5 DUP3 DUP6 ADD PUSH2 0x267D JUMP JUMPDEST SWAP2 POP POP SWAP3 SWAP2 POP POP JUMP JUMPDEST PUSH2 0x26C5 DUP2 PUSH2 0x24B4 JUMP JUMPDEST DUP3 MSTORE POP POP JUMP JUMPDEST PUSH2 0x26D4 DUP2 PUSH2 0x23CD JUMP JUMPDEST DUP3 MSTORE POP POP JUMP JUMPDEST PUSH2 0x26E3 DUP2 PUSH2 0x24E9 JUMP JUMPDEST DUP3 MSTORE POP POP JUMP JUMPDEST PUSH2 0x26F2 DUP2 PUSH2 0x2408 JUMP JUMPDEST DUP3 MSTORE POP POP JUMP JUMPDEST PUSH0 PUSH2 0x100 DUP3 ADD SWAP1 POP PUSH2 0x270C PUSH0 DUP4 ADD DUP12 PUSH2 0x26BC JUMP JUMPDEST PUSH2 0x2719 PUSH1 0x20 DUP4 ADD DUP11 PUSH2 0x26CB JUMP JUMPDEST PUSH2 0x2726 PUSH1 0x40 DUP4 ADD DUP10 PUSH2 0x26DA JUMP JUMPDEST PUSH2 0x2733 PUSH1 0x60 DUP4 ADD DUP9 PUSH2 0x26DA JUMP JUMPDEST PUSH2 0x2740 PUSH1 0x80 DUP4 ADD DUP8 PUSH2 0x26CB JUMP JUMPDEST PUSH2 0x274D PUSH1 0xA0 DUP4 ADD DUP7 PUSH2 0x26E9 JUMP JUMPDEST PUSH2 0x275A PUSH1 0xC0 DUP4 ADD DUP6 PUSH2 0x26E9 JUMP JUMPDEST PUSH2 0x2767 PUSH1 0xE0 DUP4 ADD DUP5 PUSH2 0x2386 JUMP JUMPDEST SWAP10 SWAP9 POP POP POP POP POP POP POP POP POP JUMP JUMPDEST PUSH0 DUP1 PUSH1 0x40 DUP4 DUP6 SUB SLT ISZERO PUSH2 0x278A JUMPI PUSH2 0x2789 PUSH2 0x22F3 JUMP JUMPDEST JUMPDEST PUSH0 PUSH2 0x2797 DUP6 DUP3 DUP7 ADD PUSH2 0x267D JUMP JUMPDEST SWAP3 POP POP PUSH1 0x20 PUSH2 0x27A8 DUP6 DUP3 DUP7 ADD PUSH2 0x2427 JUMP JUMPDEST SWAP2 POP POP SWAP3 POP SWAP3 SWAP1 POP JUMP JUMPDEST PUSH0 PUSH1 0x20 DUP3 ADD SWAP1 POP PUSH2 0x27C5 PUSH0 DUP4 ADD DUP5 PUSH2 0x26CB JUMP JUMPDEST SWAP3 SWAP2 POP POP JUMP JUMPDEST PUSH0 DUP1 PUSH1 0x40 DUP4 DUP6 SUB SLT ISZERO PUSH2 0x27E1 JUMPI PUSH2 0x27E0 PUSH2 0x22F3 JUMP JUMPDEST JUMPDEST PUSH0 PUSH2 0x27EE DUP6 DUP3 DUP7 ADD PUSH2 0x267D JUMP JUMPDEST SWAP3 POP POP PUSH1 0x20 PUSH2 0x27FF DUP6 DUP3 DUP7 ADD PUSH2 0x267D JUMP JUMPDEST SWAP2 POP POP SWAP3 POP SWAP3 SWAP1 POP JUMP JUMPDEST PUSH0 PUSH1 0x20 DUP3 ADD SWAP1 POP PUSH2 0x281C PUSH0 DUP4 ADD DUP5 PUSH2 0x26BC JUMP JUMPDEST SWAP3 SWAP2 POP POP JUMP JUMPDEST PUSH0 PUSH1 0x20 DUP3 DUP5 SUB SLT ISZERO PUSH2 0x2837 JUMPI PUSH2 0x2836 PUSH2 0x22F3 JUMP JUMPDEST JUMPDEST PUSH0 PUSH2 0x2844 DUP5 DUP3 DUP6 ADD PUSH2 0x2427 JUMP JUMPDEST SWAP2 POP POP SWAP3 SWAP2 POP POP JUMP JUMPDEST PUSH0 DUP1 PUSH0 PUSH1 0x60 DUP5 DUP7 SUB SLT ISZERO PUSH2 0x2864 JUMPI PUSH2 0x2863 PUSH2 0x22F3 JUMP JUMPDEST JUMPDEST PUSH0 PUSH2 0x2871 DUP7 DUP3 DUP8 ADD PUSH2 0x267D JUMP JUMPDEST SWAP4 POP POP PUSH1 0x20 PUSH2 0x2882 DUP7 DUP3 DUP8 ADD PUSH2 0x23F4 JUMP JUMPDEST SWAP3 POP POP PUSH1 0x40 PUSH2 0x2893 DUP7 DUP3 DUP8 ADD PUSH2 0x2427 JUMP JUMPDEST SWAP2 POP POP SWAP3 POP SWAP3 POP SWAP3 JUMP JUMPDEST PUSH0 PUSH1 0x60 DUP3 ADD SWAP1 POP PUSH2 0x28B0 PUSH0 DUP4 ADD DUP7 PUSH2 0x26CB JUMP JUMPDEST PUSH2 0x28BD PUSH1 0x20 DUP4 ADD DUP6 PUSH2 0x26BC JUMP JUMPDEST PUSH2 0x28CA PUSH1 0x40 DUP4 ADD DUP5 PUSH2 0x26E9 JUMP JUMPDEST SWAP5 SWAP4 POP POP POP POP JUMP JUMPDEST PUSH0 DUP1 PUSH0 PUSH1 0x60 DUP5 DUP7 SUB SLT ISZERO PUSH2 0x28E9 JUMPI PUSH2 0x28E8 PUSH2 0x22F3 JUMP JUMPDEST JUMPDEST PUSH0 PUSH2 0x28F6 DUP7 DUP3 DUP8 ADD PUSH2 0x23F4 JUMP JUMPDEST SWAP4 POP POP PUSH1 0x20 PUSH2 0x2907 DUP7 DUP3 DUP8 ADD PUSH2 0x267D JUMP JUMPDEST SWAP3 POP POP PUSH1 0x40 PUSH2 0x2918 DUP7 DUP3 DUP8 ADD PUSH2 0x2427 JUMP JUMPDEST SWAP2 POP POP SWAP3 POP SWAP3 POP SWAP3 JUMP JUMPDEST PUSH0 DUP1 REVERT JUMPDEST PUSH0 PUSH1 0x1F NOT PUSH1 0x1F DUP4 ADD AND SWAP1 POP SWAP2 SWAP1 POP JUMP JUMPDEST PUSH32 0x4E487B7100000000000000000000000000000000000000000000000000000000 PUSH0 MSTORE PUSH1 0x41 PUSH1 0x4 MSTORE PUSH1 0x24 PUSH0 REVERT JUMPDEST PUSH2 0x296C DUP3 PUSH2 0x2926 JUMP JUMPDEST DUP2 ADD DUP2 DUP2 LT PUSH8 0xFFFFFFFFFFFFFFFF DUP3 GT OR ISZERO PUSH2 0x298B JUMPI PUSH2 0x298A PUSH2 0x2936 JUMP JUMPDEST JUMPDEST DUP1 PUSH1 0x40 MSTORE POP POP POP JUMP JUMPDEST PUSH0 PUSH2 0x299D PUSH2 0x22EA JUMP JUMPDEST SWAP1 POP PUSH2 0x29A9 DUP3 DUP3 PUSH2 0x2963 JUMP JUMPDEST SWAP2 SWAP1 POP JUMP JUMPDEST PUSH0 PUSH8 0xFFFFFFFFFFFFFFFF DUP3 GT ISZERO PUSH2 0x29C8 JUMPI PUSH2 0x29C7 PUSH2 0x2936 JUMP JUMPDEST JUMPDEST PUSH1 0x20 DUP3 MUL SWAP1 POP PUSH1 0x20 DUP2 ADD SWAP1 POP SWAP2 SWAP1 POP JUMP JUMPDEST PUSH0 DUP1 REVERT JUMPDEST PUSH0 PUSH2 0x29EF PUSH2 0x29EA DUP5 PUSH2 0x29AE JUMP JUMPDEST PUSH2 0x2994 JUMP JUMPDEST SWAP1 POP DUP1 DUP4 DUP3 MSTORE PUSH1 0x20 DUP3 ADD SWAP1 POP PUSH1 0x20 DUP5 MUL DUP4 ADD DUP6 DUP2 GT ISZERO PUSH2 0x2A12 JUMPI PUSH2 0x2A11 PUSH2 0x29D9 JUMP JUMPDEST JUMPDEST DUP4 JUMPDEST DUP2 DUP2 LT ISZERO PUSH2 0x2A3B JUMPI DUP1 PUSH2 0x2A27 DUP9 DUP3 PUSH2 0x2427 JUMP JUMPDEST DUP5 MSTORE PUSH1 0x20 DUP5 ADD SWAP4 POP POP PUSH1 0x20 DUP2 ADD SWAP1 POP PUSH2 0x2A14 JUMP JUMPDEST POP POP POP SWAP4 SWAP3 POP POP POP JUMP JUMPDEST PUSH0 DUP3 PUSH1 0x1F DUP4 ADD SLT PUSH2 0x2A59 JUMPI PUSH2 0x2A58 PUSH2 0x2922 JUMP JUMPDEST JUMPDEST DUP2 CALLDATALOAD PUSH2 0x2A69 DUP5 DUP3 PUSH1 0x20 DUP7 ADD PUSH2 0x29DD JUMP JUMPDEST SWAP2 POP POP SWAP3 SWAP2 POP POP JUMP JUMPDEST PUSH0 DUP1 REVERT JUMPDEST PUSH0 PUSH8 0xFFFFFFFFFFFFFFFF DUP3 GT ISZERO PUSH2 0x2A90 JUMPI PUSH2 0x2A8F PUSH2 0x2936 JUMP JUMPDEST JUMPDEST PUSH2 0x2A99 DUP3 PUSH2 0x2926 JUMP JUMPDEST SWAP1 POP PUSH1 0x20 DUP2 ADD SWAP1 POP SWAP2 SWAP1 POP JUMP JUMPDEST DUP3 DUP2 DUP4 CALLDATACOPY PUSH0 DUP4 DUP4 ADD MSTORE POP POP POP JUMP JUMPDEST PUSH0 PUSH2 0x2AC6 PUSH2 0x2AC1 DUP5 PUSH2 0x2A76 JUMP JUMPDEST PUSH2 0x2994 JUMP JUMPDEST SWAP1 POP DUP3 DUP2 MSTORE PUSH1 0x20 DUP2 ADD DUP5 DUP5 DUP5 ADD GT ISZERO PUSH2 0x2AE2 JUMPI PUSH2 0x2AE1 PUSH2 0x2A72 JUMP JUMPDEST JUMPDEST PUSH2 0x2AED DUP5 DUP3 DUP6 PUSH2 0x2AA6 JUMP JUMPDEST POP SWAP4 SWAP3 POP POP POP JUMP JUMPDEST PUSH0 DUP3 PUSH1 0x1F DUP4 ADD SLT PUSH2 0x2B09 JUMPI PUSH2 0x2B08 PUSH2 0x2922 JUMP JUMPDEST JUMPDEST DUP2 CALLDATALOAD PUSH2 0x2B19 DUP5 DUP3 PUSH1 0x20 DUP7 ADD PUSH2 0x2AB4 JUMP JUMPDEST SWAP2 POP POP SWAP3 SWAP2 POP POP JUMP JUMPDEST PUSH0 DUP1 PUSH0 DUP1 PUSH0 PUSH1 0xA0 DUP7 DUP9 SUB SLT ISZERO PUSH2 0x2B3B JUMPI PUSH2 0x2B3A PUSH2 0x22F3 JUMP JUMPDEST JUMPDEST PUSH0 PUSH2 0x2B48 DUP9 DUP3 DUP10 ADD PUSH2 0x23F4 JUMP JUMPDEST SWAP6 POP POP PUSH1 0x20 PUSH2 0x2B59 DUP9 DUP3 DUP10 ADD PUSH2 0x23F4 JUMP JUMPDEST SWAP5 POP POP PUSH1 0x40 DUP7 ADD CALLDATALOAD PUSH8 0xFFFFFFFFFFFFFFFF DUP2 GT ISZERO PUSH2 0x2B7A JUMPI PUSH2 0x2B79 PUSH2 0x22F7 JUMP JUMPDEST JUMPDEST PUSH2 0x2B86 DUP9 DUP3 DUP10 ADD PUSH2 0x2A45 JUMP JUMPDEST SWAP4 POP POP PUSH1 0x60 DUP7 ADD CALLDATALOAD PUSH8 0xFFFFFFFFFFFFFFFF DUP2 GT ISZERO PUSH2 0x2BA7 JUMPI PUSH2 0x2BA6 PUSH2 0x22F7 JUMP JUMPDEST JUMPDEST PUSH2 0x2BB3 DUP9 DUP3 DUP10 ADD PUSH2 0x2A45 JUMP JUMPDEST SWAP3 POP POP PUSH1 0x80 DUP7 ADD CALLDATALOAD PUSH8 0xFFFFFFFFFFFFFFFF DUP2 GT ISZERO PUSH2 0x2BD4 JUMPI PUSH2 0x2BD3 PUSH2 0x22F7 JUMP JUMPDEST JUMPDEST PUSH2 0x2BE0 DUP9 DUP3 DUP10 ADD PUSH2 0x2AF5 JUMP JUMPDEST SWAP2 POP POP SWAP3 SWAP6 POP SWAP3 SWAP6 SWAP1 SWAP4 POP JUMP JUMPDEST PUSH2 0x2BF6 DUP2 PUSH2 0x22FB JUMP JUMPDEST DUP3 MSTORE POP POP JUMP JUMPDEST PUSH0 PUSH1 0x20 DUP3 ADD SWAP1 POP PUSH2 0x2C0F PUSH0 DUP4 ADD DUP5 PUSH2 0x2BED JUMP JUMPDEST SWAP3 SWAP2 POP POP JUMP JUMPDEST PUSH0 DUP1 PUSH0 PUSH1 0x60 DUP5 DUP7 SUB SLT ISZERO PUSH2 0x2C2C JUMPI PUSH2 0x2C2B PUSH2 0x22F3 JUMP JUMPDEST JUMPDEST PUSH0 PUSH2 0x2C39 DUP7 DUP3 DUP8 ADD PUSH2 0x23F4 JUMP JUMPDEST SWAP4 POP POP PUSH1 0x20 PUSH2 0x2C4A DUP7 DUP3 DUP8 ADD PUSH2 0x2427 JUMP JUMPDEST SWAP3 POP POP PUSH1 0x40 PUSH2 0x2C5B DUP7 DUP3 DUP8 ADD PUSH2 0x267D JUMP JUMPDEST SWAP2 POP POP SWAP3 POP SWAP3 POP SWAP3 JUMP JUMPDEST PUSH0 DUP1 PUSH0 DUP1 PUSH1 0x80 DUP6 DUP8 SUB SLT ISZERO PUSH2 0x2C7D JUMPI PUSH2 0x2C7C PUSH2 0x22F3 JUMP JUMPDEST JUMPDEST PUSH0 PUSH2 0x2C8A DUP8 DUP3 DUP9 ADD PUSH2 0x267D JUMP JUMPDEST SWAP5 POP POP PUSH1 0x20 PUSH2 0x2C9B DUP8 DUP3 DUP9 ADD PUSH2 0x23F4 JUMP JUMPDEST SWAP4 POP POP PUSH1 0x40 PUSH2 0x2CAC DUP8 DUP3 DUP9 ADD PUSH2 0x23F4 JUMP JUMPDEST SWAP3 POP POP PUSH1 0x60 PUSH2 0x2CBD DUP8 DUP3 DUP9 ADD PUSH2 0x2427 JUMP JUMPDEST SWAP2 POP POP SWAP3 SWAP6 SWAP2 SWAP5 POP SWAP3 POP JUMP JUMPDEST PUSH0 DUP1 PUSH0 DUP1 PUSH0 PUSH1 0xA0 DUP7 DUP9 SUB SLT ISZERO PUSH2 0x2CE2 JUMPI PUSH2 0x2CE1 PUSH2 0x22F3 JUMP JUMPDEST JUMPDEST PUSH0 PUSH2 0x2CEF DUP9 DUP3 DUP10 ADD PUSH2 0x23F4 JUMP JUMPDEST SWAP6 POP POP PUSH1 0x20 PUSH2 0x2D00 DUP9 DUP3 DUP10 ADD PUSH2 0x23F4 JUMP JUMPDEST SWAP5 POP POP PUSH1 0x40 PUSH2 0x2D11 DUP9 DUP3 DUP10 ADD PUSH2 0x2427 JUMP JUMPDEST SWAP4 POP POP PUSH1 0x60 PUSH2 0x2D22 DUP9 DUP3 DUP10 ADD PUSH2 0x2427 JUMP JUMPDEST SWAP3 POP POP PUSH1 0x80 DUP7 ADD CALLDATALOAD PUSH8 0xFFFFFFFFFFFFFFFF DUP2 GT ISZERO PUSH2 0x2D43 JUMPI PUSH2 0x2D42 PUSH2 0x22F7 JUMP JUMPDEST JUMPDEST PUSH2 0x2D4F DUP9 DUP3 DUP10 ADD PUSH2 0x2AF5 JUMP JUMPDEST SWAP2 POP POP SWAP3 SWAP6 POP SWAP3 SWAP6 SWAP1 SWAP4 POP JUMP JUMPDEST PUSH0 PUSH1 0x20 DUP3 DUP5 SUB SLT ISZERO PUSH2 0x2D71 JUMPI PUSH2 0x2D70 PUSH2 0x22F3 JUMP JUMPDEST JUMPDEST PUSH0 PUSH2 0x2D7E DUP5 DUP3 DUP6 ADD PUSH2 0x23F4 JUMP JUMPDEST SWAP2 POP POP SWAP3 SWAP2 POP POP JUMP JUMPDEST PUSH0 PUSH1 0x80 DUP3 ADD SWAP1 POP PUSH2 0x2D9A PUSH0 DUP4 ADD DUP8 PUSH2 0x26CB JUMP JUMPDEST PUSH2 0x2DA7 PUSH1 0x20 DUP4 ADD DUP7 PUSH2 0x26CB JUMP JUMPDEST PUSH2 0x2DB4 PUSH1 0x40 DUP4 ADD DUP6 PUSH2 0x2386 JUMP JUMPDEST PUSH2 0x2DC1 PUSH1 0x60 DUP4 ADD DUP5 PUSH2 0x26E9 JUMP JUMPDEST SWAP6 SWAP5 POP POP POP POP POP JUMP JUMPDEST PUSH32 0x4E487B7100000000000000000000000000000000000000000000000000000000 PUSH0 MSTORE PUSH1 0x11 PUSH1 0x4 MSTORE PUSH1 0x24 PUSH0 REVERT JUMPDEST PUSH0 PUSH2 0x2E01 DUP3 PUSH2 0x24B4 JUMP JUMPDEST SWAP2 POP PUSH2 0x2E0C DUP4 PUSH2 0x24B4 JUMP JUMPDEST SWAP3 POP DUP3 DUP3 ADD SWAP1 POP PUSH12 0xFFFFFFFFFFFFFFFFFFFFFFFF DUP2 GT ISZERO PUSH2 0x2E30 JUMPI PUSH2 0x2E2F PUSH2 0x2DCA JUMP JUMPDEST JUMPDEST SWAP3 SWAP2 POP POP JUMP JUMPDEST PUSH0 DUP3 DUP3 MSTORE PUSH1 0x20 DUP3 ADD SWAP1 POP SWAP3 SWAP2 POP POP JUMP JUMPDEST PUSH32 0x4D757374206265205F656E644964203C3D2066756E64436F756E740000000000 PUSH0 DUP3 ADD MSTORE POP JUMP JUMPDEST PUSH0 PUSH2 0x2E7A PUSH1 0x1B DUP4 PUSH2 0x2E36 JUMP JUMPDEST SWAP2 POP PUSH2 0x2E85 DUP3 PUSH2 0x2E46 JUMP JUMPDEST PUSH1 0x20 DUP3 ADD SWAP1 POP SWAP2 SWAP1 POP JUMP JUMPDEST PUSH0 PUSH1 0x20 DUP3 ADD SWAP1 POP DUP2 DUP2 SUB PUSH0 DUP4 ADD MSTORE PUSH2 0x2EA7 DUP2 PUSH2 0x2E6E JUMP JUMPDEST SWAP1 POP SWAP2 SWAP1 POP JUMP JUMPDEST PUSH32 0x4D757374206265205F73746172744964203C3D205F656E644964000000000000 PUSH0 DUP3 ADD MSTORE POP JUMP JUMPDEST PUSH0 PUSH2 0x2EE2 PUSH1 0x1A DUP4 PUSH2 0x2E36 JUMP JUMPDEST SWAP2 POP PUSH2 0x2EED DUP3 PUSH2 0x2EAE JUMP JUMPDEST PUSH1 0x20 DUP3 ADD SWAP1 POP SWAP2 SWAP1 POP JUMP JUMPDEST PUSH0 PUSH1 0x20 DUP3 ADD SWAP1 POP DUP2 DUP2 SUB PUSH0 DUP4 ADD MSTORE PUSH2 0x2F0F DUP2 PUSH2 0x2ED6 JUMP JUMPDEST SWAP1 POP SWAP2 SWAP1 POP JUMP JUMPDEST PUSH0 PUSH2 0x2F20 DUP3 PUSH2 0x24B4 JUMP JUMPDEST SWAP2 POP PUSH2 0x2F2B DUP4 PUSH2 0x24B4 JUMP JUMPDEST SWAP3 POP DUP3 DUP3 SUB SWAP1 POP PUSH12 0xFFFFFFFFFFFFFFFFFFFFFFFF DUP2 GT ISZERO PUSH2 0x2F4F JUMPI PUSH2 0x2F4E PUSH2 0x2DCA JUMP JUMPDEST JUMPDEST SWAP3 SWAP2 POP POP JUMP JUMPDEST PUSH32 0x4E487B7100000000000000000000000000000000000000000000000000000000 PUSH0 MSTORE PUSH1 0x32 PUSH1 0x4 MSTORE PUSH1 0x24 PUSH0 REVERT JUMPDEST PUSH0 PUSH2 0x2F8C DUP3 PUSH2 0x24B4 JUMP JUMPDEST SWAP2 POP PUSH12 0xFFFFFFFFFFFFFFFFFFFFFFFF DUP3 SUB PUSH2 0x2FAA JUMPI PUSH2 0x2FA9 PUSH2 0x2DCA JUMP JUMPDEST JUMPDEST PUSH1 0x1 DUP3 ADD SWAP1 POP SWAP2 SWAP1 POP JUMP JUMPDEST PUSH0 DUP2 SWAP1 POP SWAP2 SWAP1 POP JUMP JUMPDEST PUSH0 DUP2 SWAP1 POP SWAP2 SWAP1 POP JUMP JUMPDEST PUSH0 PUSH2 0x2FE1 PUSH2 0x2FDC PUSH2 0x2FD7 DUP5 PUSH2 0x2FB5 JUMP JUMPDEST PUSH2 0x2FBE JUMP JUMPDEST PUSH2 0x2408 JUMP JUMPDEST SWAP1 POP SWAP2 SWAP1 POP JUMP JUMPDEST PUSH2 0x2FF1 DUP2 PUSH2 0x2FC7 JUMP JUMPDEST DUP3 MSTORE POP POP JUMP JUMPDEST PUSH0 DUP3 DUP3 MSTORE PUSH1 0x20 DUP3 ADD SWAP1 POP SWAP3 SWAP2 POP POP JUMP JUMPDEST PUSH32 0x3078300000000000000000000000000000000000000000000000000000000000 PUSH0 DUP3 ADD MSTORE POP JUMP JUMPDEST PUSH0 PUSH2 0x303B PUSH1 0x3 DUP4 PUSH2 0x2FF7 JUMP JUMPDEST SWAP2 POP PUSH2 0x3046 DUP3 PUSH2 0x3007 JUMP JUMPDEST PUSH1 0x20 DUP3 ADD SWAP1 POP SWAP2 SWAP1 POP JUMP JUMPDEST PUSH0 PUSH1 0x80 DUP3 ADD SWAP1 POP PUSH2 0x3064 PUSH0 DUP4 ADD DUP7 PUSH2 0x26CB JUMP JUMPDEST PUSH2 0x3071 PUSH1 0x20 DUP4 ADD DUP6 PUSH2 0x2FE8 JUMP JUMPDEST PUSH2 0x307E PUSH1 0x40 DUP4 ADD DUP5 PUSH2 0x26E9 JUMP JUMPDEST DUP2 DUP2 SUB PUSH1 0x60 DUP4 ADD MSTORE PUSH2 0x308F DUP2 PUSH2 0x302F JUMP JUMPDEST SWAP1 POP SWAP5 SWAP4 POP POP POP POP JUMP JUMPDEST PUSH32 0x4D757374206265205F6964203C2066756E64436F756E74000000000000000000 PUSH0 DUP3 ADD MSTORE POP JUMP JUMPDEST PUSH0 PUSH2 0x30CD PUSH1 0x17 DUP4 PUSH2 0x2E36 JUMP JUMPDEST SWAP2 POP PUSH2 0x30D8 DUP3 PUSH2 0x3099 JUMP JUMPDEST PUSH1 0x20 DUP3 ADD SWAP1 POP SWAP2 SWAP1 POP JUMP JUMPDEST PUSH0 PUSH1 0x20 DUP3 ADD SWAP1 POP DUP2 DUP2 SUB PUSH0 DUP4 ADD MSTORE PUSH2 0x30FA DUP2 PUSH2 0x30C1 JUMP JUMPDEST SWAP1 POP SWAP2 SWAP1 POP JUMP JUMPDEST PUSH0 PUSH1 0x40 DUP3 ADD SWAP1 POP PUSH2 0x3114 PUSH0 DUP4 ADD DUP6 PUSH2 0x26CB JUMP JUMPDEST PUSH2 0x3121 PUSH1 0x20 DUP4 ADD DUP5 PUSH2 0x2FE8 JUMP JUMPDEST SWAP4 SWAP3 POP POP POP JUMP JUMPDEST PUSH0 DUP2 MLOAD SWAP1 POP PUSH2 0x3136 DUP2 PUSH2 0x2411 JUMP JUMPDEST SWAP3 SWAP2 POP POP JUMP JUMPDEST PUSH0 PUSH1 0x20 DUP3 DUP5 SUB SLT ISZERO PUSH2 0x3151 JUMPI PUSH2 0x3150 PUSH2 0x22F3 JUMP JUMPDEST JUMPDEST PUSH0 PUSH2 0x315E DUP5 DUP3 DUP6 ADD PUSH2 0x3128 JUMP JUMPDEST SWAP2 POP POP SWAP3 SWAP2 POP POP JUMP JUMPDEST PUSH32 0x746F6B656E20616D6F756E74206F662075736572206E6F742073756666696369 PUSH0 DUP3 ADD MSTORE PUSH32 0x656E740000000000000000000000000000000000000000000000000000000000 PUSH1 0x20 DUP3 ADD MSTORE POP JUMP JUMPDEST PUSH0 PUSH2 0x31C1 PUSH1 0x23 DUP4 PUSH2 0x2E36 JUMP JUMPDEST SWAP2 POP PUSH2 0x31CC DUP3 PUSH2 0x3167 JUMP JUMPDEST PUSH1 0x40 DUP3 ADD SWAP1 POP SWAP2 SWAP1 POP JUMP JUMPDEST PUSH0 PUSH1 0x20 DUP3 ADD SWAP1 POP DUP2 DUP2 SUB PUSH0 DUP4 ADD MSTORE PUSH2 0x31EE DUP2 PUSH2 0x31B5 JUMP JUMPDEST SWAP1 POP SWAP2 SWAP1 POP JUMP JUMPDEST PUSH0 PUSH1 0x40 DUP3 ADD SWAP1 POP PUSH2 0x3208 PUSH0 DUP4 ADD DUP6 PUSH2 0x26CB JUMP JUMPDEST PUSH2 0x3215 PUSH1 0x20 DUP4 ADD DUP5 PUSH2 0x26CB JUMP JUMPDEST SWAP4 SWAP3 POP POP POP JUMP JUMPDEST PUSH2 0x3225 DUP2 PUSH2 0x237B JUMP JUMPDEST DUP2 EQ PUSH2 0x322F JUMPI PUSH0 DUP1 REVERT JUMPDEST POP JUMP JUMPDEST PUSH0 DUP2 MLOAD SWAP1 POP PUSH2 0x3240 DUP2 PUSH2 0x321C JUMP JUMPDEST SWAP3 SWAP2 POP POP JUMP JUMPDEST PUSH0 PUSH1 0x20 DUP3 DUP5 SUB SLT ISZERO PUSH2 0x325B JUMPI PUSH2 0x325A PUSH2 0x22F3 JUMP JUMPDEST JUMPDEST PUSH0 PUSH2 0x3268 DUP5 DUP3 DUP6 ADD PUSH2 0x3232 JUMP JUMPDEST SWAP2 POP POP SWAP3 SWAP2 POP POP JUMP JUMPDEST PUSH32 0x746F6B656E20616C6C6F77616E63652073686F72746167650000000000000000 PUSH0 DUP3 ADD MSTORE POP JUMP JUMPDEST PUSH0 PUSH2 0x32A5 PUSH1 0x18 DUP4 PUSH2 0x2E36 JUMP JUMPDEST SWAP2 POP PUSH2 0x32B0 DUP3 PUSH2 0x3271 JUMP JUMPDEST PUSH1 0x20 DUP3 ADD SWAP1 POP SWAP2 SWAP1 POP JUMP JUMPDEST PUSH0 PUSH1 0x20 DUP3 ADD SWAP1 POP DUP2 DUP2 SUB PUSH0 DUP4 ADD MSTORE PUSH2 0x32D2 DUP2 PUSH2 0x3299 JUMP JUMPDEST SWAP1 POP SWAP2 SWAP1 POP JUMP JUMPDEST PUSH0 PUSH2 0x32F3 PUSH2 0x32EE PUSH2 0x32E9 DUP5 PUSH2 0x24B4 JUMP JUMPDEST PUSH2 0x2FBE JUMP JUMPDEST PUSH2 0x2408 JUMP JUMPDEST SWAP1 POP SWAP2 SWAP1 POP JUMP JUMPDEST PUSH2 0x3303 DUP2 PUSH2 0x32D9 JUMP JUMPDEST DUP3 MSTORE POP POP JUMP JUMPDEST PUSH0 PUSH1 0xA0 DUP3 ADD SWAP1 POP PUSH2 0x331C PUSH0 DUP4 ADD DUP8 PUSH2 0x26CB JUMP JUMPDEST PUSH2 0x3329 PUSH1 0x20 DUP4 ADD DUP7 PUSH2 0x26CB JUMP JUMPDEST PUSH2 0x3336 PUSH1 0x40 DUP4 ADD DUP6 PUSH2 0x32FA JUMP JUMPDEST PUSH2 0x3343 PUSH1 0x60 DUP4 ADD DUP5 PUSH2 0x26E9 JUMP JUMPDEST DUP2 DUP2 SUB PUSH1 0x80 DUP4 ADD MSTORE PUSH2 0x3354 DUP2 PUSH2 0x302F JUMP JUMPDEST SWAP1 POP SWAP6 SWAP5 POP POP POP POP POP JUMP JUMPDEST PUSH32 0x46756E6420557064617465206E6F7420617574686F72697A6564000000000000 PUSH0 DUP3 ADD MSTORE POP JUMP JUMPDEST PUSH0 PUSH2 0x3393 PUSH1 0x1A DUP4 PUSH2 0x2E36 JUMP JUMPDEST SWAP2 POP PUSH2 0x339E DUP3 PUSH2 0x335F JUMP JUMPDEST PUSH1 0x20 DUP3 ADD SWAP1 POP SWAP2 SWAP1 POP JUMP JUMPDEST PUSH0 PUSH1 0x20 DUP3 ADD SWAP1 POP DUP2 DUP2 SUB PUSH0 DUP4 ADD MSTORE PUSH2 0x33C0 DUP2 PUSH2 0x3387 JUMP JUMPDEST SWAP1 POP SWAP2 SWAP1 POP JUMP JUMPDEST PUSH0 PUSH1 0xA0 DUP3 ADD SWAP1 POP PUSH2 0x33DA PUSH0 DUP4 ADD DUP8 PUSH2 0x26CB JUMP JUMPDEST PUSH2 0x33E7 PUSH1 0x20 DUP4 ADD DUP7 PUSH2 0x26CB JUMP JUMPDEST PUSH2 0x33F4 PUSH1 0x40 DUP4 ADD DUP6 PUSH2 0x2FE8 JUMP JUMPDEST PUSH2 0x3401 PUSH1 0x60 DUP4 ADD DUP5 PUSH2 0x26E9 JUMP JUMPDEST DUP2 DUP2 SUB PUSH1 0x80 DUP4 ADD MSTORE PUSH2 0x3412 DUP2 PUSH2 0x302F JUMP JUMPDEST SWAP1 POP SWAP6 SWAP5 POP POP POP POP POP JUMP JUMPDEST PUSH0 PUSH2 0x3427 DUP3 PUSH2 0x2408 JUMP JUMPDEST SWAP2 POP PUSH2 0x3432 DUP4 PUSH2 0x2408 JUMP JUMPDEST SWAP3 POP DUP3 DUP3 ADD SWAP1 POP DUP1 DUP3 GT ISZERO PUSH2 0x344A JUMPI PUSH2 0x3449 PUSH2 0x2DCA JUMP JUMPDEST JUMPDEST SWAP3 SWAP2 POP POP JUMP JUMPDEST PUSH0 PUSH1 0x40 DUP3 ADD SWAP1 POP PUSH2 0x3463 PUSH0 DUP4 ADD DUP6 PUSH2 0x26E9 JUMP JUMPDEST PUSH2 0x3470 PUSH1 0x20 DUP4 ADD DUP5 PUSH2 0x26E9 JUMP JUMPDEST SWAP4 SWAP3 POP POP POP JUMP JUMPDEST PUSH0 PUSH2 0x3481 DUP3 PUSH2 0x2408 JUMP JUMPDEST SWAP2 POP PUSH2 0x348C DUP4 PUSH2 0x2408 JUMP JUMPDEST SWAP3 POP DUP3 DUP3 MUL PUSH2 0x349A DUP2 PUSH2 0x2408 JUMP JUMPDEST SWAP2 POP DUP3 DUP3 DIV DUP5 EQ DUP4 ISZERO OR PUSH2 0x34B1 JUMPI PUSH2 0x34B0 PUSH2 0x2DCA JUMP JUMPDEST JUMPDEST POP SWAP3 SWAP2 POP POP JUMP JUMPDEST PUSH32 0x4E487B7100000000000000000000000000000000000000000000000000000000 PUSH0 MSTORE PUSH1 0x12 PUSH1 0x4 MSTORE PUSH1 0x24 PUSH0 REVERT JUMPDEST PUSH0 PUSH2 0x34EF DUP3 PUSH2 0x2408 JUMP JUMPDEST SWAP2 POP PUSH2 0x34FA DUP4 PUSH2 0x2408 JUMP JUMPDEST SWAP3 POP DUP3 PUSH2 0x350A JUMPI PUSH2 0x3509 PUSH2 0x34B8 JUMP JUMPDEST JUMPDEST DUP3 DUP3 DIV SWAP1 POP SWAP3 SWAP2 POP POP JUMP JUMPDEST PUSH0 PUSH1 0x80 DUP3 ADD SWAP1 POP PUSH2 0x3528 PUSH0 DUP4 ADD DUP7 PUSH2 0x26CB JUMP JUMPDEST PUSH2 0x3535 PUSH1 0x20 DUP4 ADD DUP6 PUSH2 0x32FA JUMP JUMPDEST PUSH2 0x3542 PUSH1 0x40 DUP4 ADD DUP5 PUSH2 0x26E9 JUMP JUMPDEST DUP2 DUP2 SUB PUSH1 0x60 DUP4 ADD MSTORE PUSH2 0x3553 DUP2 PUSH2 0x302F JUMP JUMPDEST SWAP1 POP SWAP5 SWAP4 POP POP POP POP JUMP INVALID LOG2 PUSH5 0x6970667358 0x22 SLT KECCAK256 0xE SGT 0xF6 GAS SLT PUSH16 0xBF135834310A661FC96C77CAD75B14AF SHL PUSH8 0xB11376632975E899 PUSH5 0x736F6C6343 STOP ADDMOD EQ STOP CALLER "
		},
		"gasEstimates": {
			"creation": {
				"codeDepositCost": "2743000",
				"executionCost": "infinite",
				"totalCost": "infinite"
			},
			"external": {
				"burn(address,uint256,uint96)": "infinite",
				"createFund(address,address,uint256)": "infinite",
				"defaultMintToOwner(uint256)": "infinite",
				"donate(address,uint96,uint256)": "infinite",
				"fundCount()": "2584",
				"fundDonations(uint96,address,uint256)": "infinite",
				"fundUsers(uint96,uint256)": "5211",
				"funds(uint96)": "infinite",
				"getAllFunds()": "infinite",
				"getFundPayee(uint96)": "5259",
				"getFunds(uint96,uint96)": "infinite",
				"onERC1155BatchReceived(address,address,uint256[],uint256[],bytes)": "infinite",
				"onERC1155Received(address,address,uint256,uint256,bytes)": "infinite",
				"owner()": "2604",
				"renounceOwnership()": "infinite",
				"supportsInterface(bytes4)": "741",
				"transferOwnership(address)": "infinite",
				"updateFund(uint96,address,address,uint256)": "infinite"
			},
			"internal": {
				"createDonation(address,uint96,uint256)": "infinite",
				"mintDTiket(uint96,uint96)": "infinite",
				"validateFunds(uint96)": "infinite"
			}
		},
		"methodIdentifiers": {
			"burn(address,uint256,uint96)": "c7f33000",
			"createFund(address,address,uint256)": "17444626",
			"defaultMintToOwner(uint256)": "57e0e058",
			"donate(address,uint96,uint256)": "88b53ced",
			"fundCount()": "3f936ff5",
			"fundDonations(uint96,address,uint256)": "7a3819cb",
			"fundUsers(uint96,uint256)": "2f14670c",
			"funds(uint96)": "1f71f89f",
			"getAllFunds()": "1c69b464",
			"getFundPayee(uint96)": "6c173d38",
			"getFunds(uint96,uint96)": "380eaaf9",
			"onERC1155BatchReceived(address,address,uint256[],uint256[],bytes)": "bc197c81",
			"onERC1155Received(address,address,uint256,uint256,bytes)": "f23a6e61",
			"owner()": "8da5cb5b",
			"renounceOwnership()": "715018a6",
			"supportsInterface(bytes4)": "01ffc9a7",
			"transferOwnership(address)": "f2fde38b",
			"updateFund(uint96,address,address,uint256)": "dd7d7929"
		}
	},
	"abi": [
		{
			"inputs": [
				{
					"internalType": "contract DTicket",
					"name": "_token",
					"type": "address"
				},
				{
					"internalType": "address",
					"name": "initialOwner",
					"type": "address"
				}
			],
			"stateMutability": "nonpayable",
			"type": "constructor"
		},
		{
			"inputs": [
				{
					"internalType": "address",
					"name": "owner",
					"type": "address"
				}
			],
			"name": "OwnableInvalidOwner",
			"type": "error"
		},
		{
			"inputs": [
				{
					"internalType": "address",
					"name": "account",
					"type": "address"
				}
			],
			"name": "OwnableUnauthorizedAccount",
			"type": "error"
		},
		{
			"anonymous": false,
			"inputs": [
				{
					"indexed": true,
					"internalType": "uint96",
					"name": "FundId",
					"type": "uint96"
				},
				{
					"indexed": false,
					"internalType": "uint256",
					"name": "donationAmount",
					"type": "uint256"
				},
				{
					"indexed": false,
					"internalType": "uint256",
					"name": "time",
					"type": "uint256"
				}
			],
			"name": "FundCompletion",
			"type": "event"
		},
		{
			"anonymous": false,
			"inputs": [
				{
					"indexed": true,
					"internalType": "uint96",
					"name": "id",
					"type": "uint96"
				},
				{
					"indexed": false,
					"internalType": "address",
					"name": "owner",
					"type": "address"
				},
				{
					"indexed": false,
					"internalType": "address",
					"name": "payee",
					"type": "address"
				},
				{
					"indexed": true,
					"internalType": "uint256",
					"name": "threshold",
					"type": "uint256"
				},
				{
					"indexed": true,
					"internalType": "uint256",
					"name": "amount",
					"type": "uint256"
				},
				{
					"indexed": false,
					"internalType": "bool",
					"name": "isEnd",
					"type": "bool"
				},
				{
					"indexed": false,
					"internalType": "uint256",
					"name": "time",
					"type": "uint256"
				}
			],
			"name": "FundCreated",
			"type": "event"
		},
		{
			"anonymous": false,
			"inputs": [
				{
					"indexed": true,
					"internalType": "uint96",
					"name": "id",
					"type": "uint96"
				},
				{
					"indexed": false,
					"internalType": "address",
					"name": "owner",
					"type": "address"
				},
				{
					"indexed": false,
					"internalType": "address",
					"name": "payee",
					"type": "address"
				},
				{
					"indexed": true,
					"internalType": "uint256",
					"name": "threshold",
					"type": "uint256"
				},
				{
					"indexed": true,
					"internalType": "uint256",
					"name": "amount",
					"type": "uint256"
				},
				{
					"indexed": false,
					"internalType": "bool",
					"name": "isEnd",
					"type": "bool"
				},
				{
					"indexed": false,
					"internalType": "uint256",
					"name": "time",
					"type": "uint256"
				}
			],
			"name": "FundUpdated",
			"type": "event"
		},
		{
			"anonymous": false,
			"inputs": [
				{
					"indexed": true,
					"internalType": "uint96",
					"name": "key",
					"type": "uint96"
				},
				{
					"indexed": false,
					"internalType": "address",
					"name": "user",
					"type": "address"
				}
			],
			"name": "FundUserAdded",
			"type": "event"
		},
		{
			"anonymous": false,
			"inputs": [
				{
					"indexed": true,
					"internalType": "address",
					"name": "previousOwner",
					"type": "address"
				},
				{
					"indexed": true,
					"internalType": "address",
					"name": "newOwner",
					"type": "address"
				}
			],
			"name": "OwnershipTransferred",
			"type": "event"
		},
		{
			"inputs": [
				{
					"internalType": "address",
					"name": "_user",
					"type": "address"
				},
				{
					"internalType": "uint256",
					"name": "_amount",
					"type": "uint256"
				},
				{
					"internalType": "uint96",
					"name": "_fundId",
					"type": "uint96"
				}
			],
			"name": "burn",
			"outputs": [],
			"stateMutability": "nonpayable",
			"type": "function"
		},
		{
			"inputs": [
				{
					"internalType": "address",
					"name": "_owner",
					"type": "address"
				},
				{
					"internalType": "address",
					"name": "_payee",
					"type": "address"
				},
				{
					"internalType": "uint256",
					"name": "_threshold",
					"type": "uint256"
				}
			],
			"name": "createFund",
			"outputs": [],
			"stateMutability": "nonpayable",
			"type": "function"
		},
		{
			"inputs": [
				{
					"internalType": "uint256",
					"name": "_amount",
					"type": "uint256"
				}
			],
			"name": "defaultMintToOwner",
			"outputs": [],
			"stateMutability": "nonpayable",
			"type": "function"
		},
		{
			"inputs": [
				{
					"internalType": "address",
					"name": "_user",
					"type": "address"
				},
				{
					"internalType": "uint96",
					"name": "_fundId",
					"type": "uint96"
				},
				{
					"internalType": "uint256",
					"name": "_amount",
					"type": "uint256"
				}
			],
			"name": "donate",
			"outputs": [],
			"stateMutability": "nonpayable",
			"type": "function"
		},
		{
			"inputs": [],
			"name": "fundCount",
			"outputs": [
				{
					"internalType": "uint96",
					"name": "",
					"type": "uint96"
				}
			],
			"stateMutability": "view",
			"type": "function"
		},
		{
			"inputs": [
				{
					"internalType": "uint96",
					"name": "",
					"type": "uint96"
				},
				{
					"internalType": "address",
					"name": "",
					"type": "address"
				},
				{
					"internalType": "uint256",
					"name": "",
					"type": "uint256"
				}
			],
			"name": "fundDonations",
			"outputs": [
				{
					"internalType": "address",
					"name": "user",
					"type": "address"
				},
				{
					"internalType": "uint96",
					"name": "fundId",
					"type": "uint96"
				},
				{
					"internalType": "uint256",
					"name": "amount",
					"type": "uint256"
				}
			],
			"stateMutability": "view",
			"type": "function"
		},
		{
			"inputs": [
				{
					"internalType": "uint96",
					"name": "",
					"type": "uint96"
				},
				{
					"internalType": "uint256",
					"name": "",
					"type": "uint256"
				}
			],
			"name": "fundUsers",
			"outputs": [
				{
					"internalType": "address",
					"name": "",
					"type": "address"
				}
			],
			"stateMutability": "view",
			"type": "function"
		},
		{
			"inputs": [
				{
					"internalType": "uint96",
					"name": "",
					"type": "uint96"
				}
			],
			"name": "funds",
			"outputs": [
				{
					"internalType": "uint96",
					"name": "id",
					"type": "uint96"
				},
				{
					"internalType": "address",
					"name": "owner",
					"type": "address"
				},
				{
					"internalType": "uint48",
					"name": "createdAt",
					"type": "uint48"
				},
				{
					"internalType": "uint48",
					"name": "updatedAt",
					"type": "uint48"
				},
				{
					"internalType": "address",
					"name": "payee",
					"type": "address"
				},
				{
					"internalType": "uint256",
					"name": "threshold",
					"type": "uint256"
				},
				{
					"internalType": "uint256",
					"name": "donationAmount",
					"type": "uint256"
				},
				{
					"internalType": "bool",
					"name": "isEnd",
					"type": "bool"
				}
			],
			"stateMutability": "view",
			"type": "function"
		},
		{
			"inputs": [],
			"name": "getAllFunds",
			"outputs": [
				{
					"components": [
						{
							"internalType": "uint96",
							"name": "id",
							"type": "uint96"
						},
						{
							"internalType": "address",
							"name": "owner",
							"type": "address"
						},
						{
							"internalType": "uint48",
							"name": "createdAt",
							"type": "uint48"
						},
						{
							"internalType": "uint48",
							"name": "updatedAt",
							"type": "uint48"
						},
						{
							"internalType": "address",
							"name": "payee",
							"type": "address"
						},
						{
							"internalType": "uint256",
							"name": "threshold",
							"type": "uint256"
						},
						{
							"internalType": "uint256",
							"name": "donationAmount",
							"type": "uint256"
						},
						{
							"internalType": "bool",
							"name": "isEnd",
							"type": "bool"
						}
					],
					"internalType": "struct FundRegistry.Fund[]",
					"name": "",
					"type": "tuple[]"
				}
			],
			"stateMutability": "view",
			"type": "function"
		},
		{
			"inputs": [
				{
					"internalType": "uint96",
					"name": "_id",
					"type": "uint96"
				}
			],
			"name": "getFundPayee",
			"outputs": [
				{
					"internalType": "address",
					"name": "",
					"type": "address"
				}
			],
			"stateMutability": "view",
			"type": "function"
		},
		{
			"inputs": [
				{
					"internalType": "uint96",
					"name": "_startId",
					"type": "uint96"
				},
				{
					"internalType": "uint96",
					"name": "_endId",
					"type": "uint96"
				}
			],
			"name": "getFunds",
			"outputs": [
				{
					"components": [
						{
							"internalType": "uint96",
							"name": "id",
							"type": "uint96"
						},
						{
							"internalType": "address",
							"name": "owner",
							"type": "address"
						},
						{
							"internalType": "uint48",
							"name": "createdAt",
							"type": "uint48"
						},
						{
							"internalType": "uint48",
							"name": "updatedAt",
							"type": "uint48"
						},
						{
							"internalType": "address",
							"name": "payee",
							"type": "address"
						},
						{
							"internalType": "uint256",
							"name": "threshold",
							"type": "uint256"
						},
						{
							"internalType": "uint256",
							"name": "donationAmount",
							"type": "uint256"
						},
						{
							"internalType": "bool",
							"name": "isEnd",
							"type": "bool"
						}
					],
					"internalType": "struct FundRegistry.Fund[]",
					"name": "",
					"type": "tuple[]"
				}
			],
			"stateMutability": "view",
			"type": "function"
		},
		{
			"inputs": [
				{
					"internalType": "address",
					"name": "",
					"type": "address"
				},
				{
					"internalType": "address",
					"name": "",
					"type": "address"
				},
				{
					"internalType": "uint256[]",
					"name": "",
					"type": "uint256[]"
				},
				{
					"internalType": "uint256[]",
					"name": "",
					"type": "uint256[]"
				},
				{
					"internalType": "bytes",
					"name": "",
					"type": "bytes"
				}
			],
			"name": "onERC1155BatchReceived",
			"outputs": [
				{
					"internalType": "bytes4",
					"name": "",
					"type": "bytes4"
				}
			],
			"stateMutability": "nonpayable",
			"type": "function"
		},
		{
			"inputs": [
				{
					"internalType": "address",
					"name": "",
					"type": "address"
				},
				{
					"internalType": "address",
					"name": "",
					"type": "address"
				},
				{
					"internalType": "uint256",
					"name": "",
					"type": "uint256"
				},
				{
					"internalType": "uint256",
					"name": "",
					"type": "uint256"
				},
				{
					"internalType": "bytes",
					"name": "",
					"type": "bytes"
				}
			],
			"name": "onERC1155Received",
			"outputs": [
				{
					"internalType": "bytes4",
					"name": "",
					"type": "bytes4"
				}
			],
			"stateMutability": "nonpayable",
			"type": "function"
		},
		{
			"inputs": [],
			"name": "owner",
			"outputs": [
				{
					"internalType": "address",
					"name": "",
					"type": "address"
				}
			],
			"stateMutability": "view",
			"type": "function"
		},
		{
			"inputs": [],
			"name": "renounceOwnership",
			"outputs": [],
			"stateMutability": "nonpayable",
			"type": "function"
		},
		{
			"inputs": [
				{
					"internalType": "bytes4",
					"name": "interfaceId",
					"type": "bytes4"
				}
			],
			"name": "supportsInterface",
			"outputs": [
				{
					"internalType": "bool",
					"name": "",
					"type": "bool"
				}
			],
			"stateMutability": "view",
			"type": "function"
		},
		{
			"inputs": [
				{
					"internalType": "address",
					"name": "newOwner",
					"type": "address"
				}
			],
			"name": "transferOwnership",
			"outputs": [],
			"stateMutability": "nonpayable",
			"type": "function"
		},
		{
			"inputs": [
				{
					"internalType": "uint96",
					"name": "_id",
					"type": "uint96"
				},
				{
					"internalType": "address",
					"name": "_owner",
					"type": "address"
				},
				{
					"internalType": "address",
					"name": "_payee",
					"type": "address"
				},
				{
					"internalType": "uint256",
					"name": "_threshold",
					"type": "uint256"
				}
			],
			"name": "updateFund",
			"outputs": [],
			"stateMutability": "nonpayable",
			"type": "function"
		}
	]
}